{
  "contractName": "AddressLib",
  "abi": [
    {
      "constant": true,
      "inputs": [],
      "name": "ADDRESS_EMPTY",
      "outputs": [
        {
          "internalType": "address",
          "name": "",
          "type": "address"
        }
      ],
      "payable": false,
      "stateMutability": "view",
      "type": "function"
    }
  ],
  "bytecode": "0x60ba610025600b82828239805160001a60731461001857fe5b30600052607381538281f3fe730000000000000000000000000000000000000000301460806040526004361060335760003560e01c8063738156fb146038575b600080fd5b603e6080565b604051808273ffffffffffffffffffffffffffffffffffffffff1673ffffffffffffffffffffffffffffffffffffffff16815260200191505060405180910390f35b60008156fea265627a7a72315820d3666de162d011b71eafe72a1aaf4774f1214a66066beb40ab294666f2b6a37064736f6c63430005110032",
  "source": "pragma solidity 0.5.17;\n\n\n/**\n * Utility library of inline functions on addresses\n */\nlibrary AddressLib {\n    address public constant ADDRESS_EMPTY = address(0x0);\n\n    function isEmpty(address self) internal pure returns (bool) {\n        return self == ADDRESS_EMPTY;\n    }\n\n    function isEqualTo(address self, address other) internal pure returns (bool) {\n        return self == other;\n    }\n\n    function isNotEqualTo(address self, address other) internal pure returns (bool) {\n        return self != other;\n    }\n\n    function isNotEmpty(address self) internal pure returns (bool) {\n        return self != ADDRESS_EMPTY;\n    }\n\n    function requireNotEmpty(address self, string memory message) internal pure {\n        require(isNotEmpty(self), message);\n    }\n\n    function requireEmpty(address self, string memory message) internal pure {\n        require(isEmpty(self), message);\n    }\n\n    function requireEqualTo(address self, address other, string memory message)\n        internal\n        pure\n    {\n        require(isEqualTo(self, other), message);\n    }\n\n    function requireNotEqualTo(address self, address other, string memory message)\n        internal\n        pure\n    {\n        require(isNotEqualTo(self, other), message);\n    }\n}\n",
  "sourcePath": "/home/jalil/Programs/zero-collateral-v1/contracts/util/AddressLib.sol",
  "compiler": {
    "name": "solc",
    "version": "0.5.17+commit.d19bba13.Emscripten.clang"
  },
  "schemaVersion": "3.0.23",
  "updatedAt": "2020-04-29T14:20:38.811Z",
  "devdoc": {
    "methods": {}
  },
  "userdoc": {
    "methods": {},
    "notice": "Utility library of inline functions on addresses"
  }
}