{
  "contractName": "AddressLibMock",
  "abi": [
    {
      "constant": true,
      "inputs": [],
      "name": "REQUIRE_EMPTY_ERROR_MESSAGE",
      "outputs": [
        {
          "internalType": "string",
          "name": "",
          "type": "string"
        }
      ],
      "payable": false,
      "stateMutability": "view",
      "type": "function"
    },
    {
      "constant": true,
      "inputs": [],
      "name": "REQUIRE_EQUAL_TO_ERROR_MESSAGE",
      "outputs": [
        {
          "internalType": "string",
          "name": "",
          "type": "string"
        }
      ],
      "payable": false,
      "stateMutability": "view",
      "type": "function"
    },
    {
      "constant": true,
      "inputs": [],
      "name": "REQUIRE_NOT_EMPTY_ERROR_MESSAGE",
      "outputs": [
        {
          "internalType": "string",
          "name": "",
          "type": "string"
        }
      ],
      "payable": false,
      "stateMutability": "view",
      "type": "function"
    },
    {
      "constant": true,
      "inputs": [],
      "name": "REQUIRE_NOT_EQUAL_TO_ERROR_MESSAGE",
      "outputs": [
        {
          "internalType": "string",
          "name": "",
          "type": "string"
        }
      ],
      "payable": false,
      "stateMutability": "view",
      "type": "function"
    },
    {
      "constant": true,
      "inputs": [
        {
          "internalType": "address",
          "name": "self",
          "type": "address"
        }
      ],
      "name": "isEmpty",
      "outputs": [
        {
          "internalType": "bool",
          "name": "",
          "type": "bool"
        }
      ],
      "payable": false,
      "stateMutability": "pure",
      "type": "function"
    },
    {
      "constant": true,
      "inputs": [
        {
          "internalType": "address",
          "name": "left",
          "type": "address"
        },
        {
          "internalType": "address",
          "name": "right",
          "type": "address"
        }
      ],
      "name": "isEqualTo",
      "outputs": [
        {
          "internalType": "bool",
          "name": "",
          "type": "bool"
        }
      ],
      "payable": false,
      "stateMutability": "pure",
      "type": "function"
    },
    {
      "constant": true,
      "inputs": [
        {
          "internalType": "address",
          "name": "left",
          "type": "address"
        },
        {
          "internalType": "address",
          "name": "right",
          "type": "address"
        }
      ],
      "name": "isNotEqualTo",
      "outputs": [
        {
          "internalType": "bool",
          "name": "",
          "type": "bool"
        }
      ],
      "payable": false,
      "stateMutability": "pure",
      "type": "function"
    },
    {
      "constant": true,
      "inputs": [
        {
          "internalType": "address",
          "name": "self",
          "type": "address"
        }
      ],
      "name": "isNotEmpty",
      "outputs": [
        {
          "internalType": "bool",
          "name": "",
          "type": "bool"
        }
      ],
      "payable": false,
      "stateMutability": "pure",
      "type": "function"
    },
    {
      "constant": true,
      "inputs": [
        {
          "internalType": "address",
          "name": "self",
          "type": "address"
        }
      ],
      "name": "requireNotEmpty",
      "outputs": [],
      "payable": false,
      "stateMutability": "pure",
      "type": "function"
    },
    {
      "constant": true,
      "inputs": [
        {
          "internalType": "address",
          "name": "self",
          "type": "address"
        }
      ],
      "name": "requireEmpty",
      "outputs": [],
      "payable": false,
      "stateMutability": "pure",
      "type": "function"
    },
    {
      "constant": true,
      "inputs": [
        {
          "internalType": "address",
          "name": "left",
          "type": "address"
        },
        {
          "internalType": "address",
          "name": "right",
          "type": "address"
        }
      ],
      "name": "requireEqualTo",
      "outputs": [],
      "payable": false,
      "stateMutability": "pure",
      "type": "function"
    },
    {
      "constant": true,
      "inputs": [
        {
          "internalType": "address",
          "name": "left",
          "type": "address"
        },
        {
          "internalType": "address",
          "name": "right",
          "type": "address"
        }
      ],
      "name": "requireNotEqualTo",
      "outputs": [],
      "payable": false,
      "stateMutability": "pure",
      "type": "function"
    }
  ],
  "bytecode": "0x608060405234801561001057600080fd5b5061069b806100206000396000f3fe608060405234801561001057600080fd5b50600436106100b45760003560e01c80635af44cf8116100715780635af44cf8146101d65780638ba274d3146101de5780639090a1e914610204578063988bb84514610232578063d9d818f214610260578063e22249c614610286576100b4565b8063027a36ef146100b95780631477711c146100e9578063179ffff9146101665780631aa8aff61461016e5780633b725b23146101945780634e23abd2146101ce575b600080fd5b6100e7600480360360408110156100cf57600080fd5b506001600160a01b03813581169160200135166102b4565b005b6100f1610302565b6040805160208082528351818301528351919283929083019185019080838360005b8381101561012b578181015183820152602001610113565b50505050905090810190601f1680156101585780820380516001836020036101000a031916815260200191505b509250505060405180910390f35b6100f1610333565b6100e76004803603602081101561018457600080fd5b50356001600160a01b0316610366565b6101ba600480360360208110156101aa57600080fd5b50356001600160a01b03166103b2565b604080519115158252519081900360200190f35b6100f16103cc565b6100f1610405565b6101ba600480360360208110156101f457600080fd5b50356001600160a01b0316610439565b6101ba6004803603604081101561021a57600080fd5b506001600160a01b038135811691602001351661044d565b6101ba6004803603604081101561024857600080fd5b506001600160a01b038135811691602001351661046f565b6100e76004803603602081101561027657600080fd5b50356001600160a01b031661048a565b6100e76004803603604081101561029c57600080fd5b506001600160a01b03813581169160200135166104d0565b604080518082019091526017815276105111149154d4d154d7d35554d517d09157d154555053604a1b60208201526102fe906001600160a01b03841690839063ffffffff61052016565b5050565b60405180604001604052806015815260200174414444524553535f4d5553545f42455f454d50545960581b81525081565b60405180604001604052806017815260200176105111149154d4d154d7d35554d517d09157d154555053604a1b81525081565b604080518082019091526018815277105111149154d4d7d35554d517d09157d41493d59251115160421b60208201526103af906001600160a01b0383169063ffffffff6105ba16565b50565b60006103c6826001600160a01b0316610615565b92915050565b6040518060400160405280601b81526020017f4144445245535345535f4d5553545f4e4f545f42455f455155414c000000000081525081565b60405180604001604052806018815260200177105111149154d4d7d35554d517d09157d41493d59251115160421b81525081565b60006103c6826001600160a01b0316610622565b60006104686001600160a01b0384168363ffffffff61063016565b9392505050565b60006104686001600160a01b0384168363ffffffff61064216565b604080518082019091526015815274414444524553535f4d5553545f42455f454d50545960581b60208201526103af906001600160a01b0383169063ffffffff61065316565b60408051808201909152601b81527f4144445245535345535f4d5553545f4e4f545f42455f455155414c000000000060208201526102fe906001600160a01b03841690839063ffffffff61065c16565b61052a8383610642565b81906105b45760405162461bcd60e51b81526004018080602001828103825283818151815260200191508051906020019080838360005b83811015610579578181015183820152602001610561565b50505050905090810190601f1680156105a65780820380516001836020036101000a031916815260200191505b509250505060405180910390fd5b50505050565b6105c382610622565b81906106105760405162461bcd60e51b8152602060048201818152835160248401528351909283926044909101919085019080838360008315610579578181015183820152602001610561565b505050565b6001600160a01b03161590565b6001600160a01b0316151590565b6001600160a01b039081169116141590565b6001600160a01b0390811691161490565b6105c382610615565b61052a838361063056fea265627a7a72315820edf5fdbb3dfb8b83555f6ab817efa62c5ef945c18c738fed8f55ebc4b4b7494464736f6c63430005110032",
  "source": "pragma solidity 0.5.17;\n\nimport \"../../util/AddressLib.sol\";\n\ncontract AddressLibMock {\n    using AddressLib for address;\n\n    string public constant REQUIRE_NOT_EMPTY_ERROR_MESSAGE = \"ADDRESS_MUST_BE_PROVIDED\";\n    string public constant REQUIRE_EMPTY_ERROR_MESSAGE = \"ADDRESS_MUST_BE_EMPTY\";\n    string public constant REQUIRE_EQUAL_TO_ERROR_MESSAGE = \"ADDRESSES_MUST_BE_EQUAL\";\n    string\n        public constant REQUIRE_NOT_EQUAL_TO_ERROR_MESSAGE = \"ADDRESSES_MUST_NOT_BE_EQUAL\";\n\n    function isEmpty(address self) external pure returns (bool) {\n        return self.isEmpty();\n    }\n\n    function isEqualTo(address left, address right) external pure returns (bool) {\n        return left.isEqualTo(right);\n    }\n\n    function isNotEqualTo(address left, address right) external pure returns (bool) {\n        return left.isNotEqualTo(right);\n    }\n\n    function isNotEmpty(address self) external pure returns (bool) {\n        return self.isNotEmpty();\n    }\n\n    function requireNotEmpty(address self) external pure {\n        self.requireNotEmpty(REQUIRE_NOT_EMPTY_ERROR_MESSAGE);\n    }\n\n    function requireEmpty(address self) external pure {\n        self.requireEmpty(REQUIRE_EMPTY_ERROR_MESSAGE);\n    }\n\n    function requireEqualTo(address left, address right) external pure {\n        left.requireEqualTo(right, REQUIRE_EQUAL_TO_ERROR_MESSAGE);\n    }\n\n    function requireNotEqualTo(address left, address right) external pure {\n        left.requireNotEqualTo(right, REQUIRE_NOT_EQUAL_TO_ERROR_MESSAGE);\n    }\n}\n",
  "sourcePath": "/Users/guillesalazar/Repos/ZeroCollateral/smart-contracts-v1/contracts/mock/util/AddressLibMock.sol",
  "compiler": {
    "name": "solc",
    "version": "0.5.17+commit.d19bba13.Emscripten.clang"
  },
  "schemaVersion": "3.2.3",
  "updatedAt": "2020-10-12T14:23:11.560Z",
  "devdoc": {
    "methods": {}
  },
  "userdoc": {
    "methods": {}
  }
}