{
  "contractName": "AddressLib",
  "abi": [
    {
      "constant": true,
      "inputs": [],
      "name": "ADDRESS_EMPTY",
      "outputs": [
        {
          "internalType": "address",
          "name": "",
          "type": "address"
        }
      ],
      "payable": false,
      "stateMutability": "view",
      "type": "function"
    }
  ],
  "bytecode": "0x6094610024600b82828239805160001a607314601757fe5b30600052607381538281f3fe730000000000000000000000000000000000000000301460806040526004361060335760003560e01c8063738156fb146038575b600080fd5b603e605a565b604080516001600160a01b039092168252519081900360200190f35b60008156fea265627a7a723158205108a592df8b2f39931ec19df28dffcdcada5f1e4c5a497ed67f81e45ec2e3b264736f6c63430005110032",
  "source": "pragma solidity 0.5.17;\n\n/**\n * @dev Utility library of inline functions on addresses\n *\n * @author develop@teller.finance\n */\nlibrary AddressLib {\n    address public constant ADDRESS_EMPTY = address(0x0);\n\n    /**\n     * @dev Checks if this address is all 0s\n     * @param self The address this function was called on\n     * @return boolean\n     */\n    function isEmpty(address self) internal pure returns (bool) {\n        return self == ADDRESS_EMPTY;\n    }\n\n    /**\n     * @dev Checks if this address is the same as another address\n     * @param self The address this function was called on\n     * @param other Address to check against itself\n     * @return boolean\n     */\n    function isEqualTo(address self, address other) internal pure returns (bool) {\n        return self == other;\n    }\n\n    /**\n     * @dev Checks if this address is different to another address\n     * @param self The address this function was called on\n     * @param other Address to check against itself\n     * @return boolean\n     */\n    function isNotEqualTo(address self, address other) internal pure returns (bool) {\n        return self != other;\n    }\n\n    /**\n     * @dev Checks if this address is not all 0s\n     * @param self The address this function was called on\n     * @return boolean\n     */\n    function isNotEmpty(address self) internal pure returns (bool) {\n        return self != ADDRESS_EMPTY;\n    }\n\n    /**\n     * @dev Throws an error if address is all 0s\n     * @param self The address this function was called on\n     * @param message Error message if address is all 0s\n     */\n    function requireNotEmpty(address self, string memory message) internal pure {\n        require(isNotEmpty(self), message);\n    }\n\n    /**\n     * @dev Throws an error if address is not all 0s\n     * @param self The address this function was called on\n     * @param message Error message if address is not all 0s\n     */\n    function requireEmpty(address self, string memory message) internal pure {\n        require(isEmpty(self), message);\n    }\n\n    /**\n     * @dev Throws an error if address is not the same as another address\n     * @param self The address this function was called on\n     * @param other The address to check against itself\n     * @param message Error message if addresses are not the same\n     */\n    function requireEqualTo(\n        address self,\n        address other,\n        string memory message\n    ) internal pure {\n        require(isEqualTo(self, other), message);\n    }\n\n    /**\n     * @dev Throws an error if address is the same as another address\n     * @param self The address this function was called on\n     * @param other The address to check against itself\n     * @param message Error message if addresses are the same\n     */\n    function requireNotEqualTo(\n        address self,\n        address other,\n        string memory message\n    ) internal pure {\n        require(isNotEqualTo(self, other), message);\n    }\n}\n",
  "sourcePath": "/Users/guillesalazar/Repos/ZeroCollateral/smart-contracts-v1/contracts/util/AddressLib.sol",
  "compiler": {
    "name": "solc",
    "version": "0.5.17+commit.d19bba13.Emscripten.clang"
  },
  "schemaVersion": "3.2.3",
  "updatedAt": "2020-10-12T14:23:11.583Z",
  "devdoc": {
    "author": "develop@teller.finance",
    "details": "Utility library of inline functions on addresses",
    "methods": {}
  },
  "userdoc": {
    "methods": {}
  }
}