{
  "contractName": "AddressArrayLibMock",
  "abi": [
    {
      "inputs": [
        {
          "internalType": "address[]",
          "name": "initialData",
          "type": "address[]"
        }
      ],
      "payable": false,
      "stateMutability": "nonpayable",
      "type": "constructor"
    },
    {
      "constant": true,
      "inputs": [
        {
          "internalType": "uint256",
          "name": "",
          "type": "uint256"
        }
      ],
      "name": "result",
      "outputs": [
        {
          "internalType": "address",
          "name": "",
          "type": "address"
        }
      ],
      "payable": false,
      "stateMutability": "view",
      "type": "function"
    },
    {
      "constant": true,
      "inputs": [],
      "name": "getResult",
      "outputs": [
        {
          "internalType": "address[]",
          "name": "",
          "type": "address[]"
        }
      ],
      "payable": false,
      "stateMutability": "view",
      "type": "function"
    },
    {
      "constant": false,
      "inputs": [
        {
          "internalType": "address",
          "name": "newItem",
          "type": "address"
        }
      ],
      "name": "add",
      "outputs": [],
      "payable": false,
      "stateMutability": "nonpayable",
      "type": "function"
    },
    {
      "constant": false,
      "inputs": [
        {
          "internalType": "uint256",
          "name": "indexAt",
          "type": "uint256"
        }
      ],
      "name": "removeAt",
      "outputs": [],
      "payable": false,
      "stateMutability": "nonpayable",
      "type": "function"
    },
    {
      "constant": true,
      "inputs": [
        {
          "internalType": "address",
          "name": "item",
          "type": "address"
        }
      ],
      "name": "getIndex",
      "outputs": [
        {
          "internalType": "bool",
          "name": "found",
          "type": "bool"
        },
        {
          "internalType": "uint256",
          "name": "indexAt",
          "type": "uint256"
        }
      ],
      "payable": false,
      "stateMutability": "view",
      "type": "function"
    },
    {
      "constant": false,
      "inputs": [
        {
          "internalType": "address",
          "name": "item",
          "type": "address"
        }
      ],
      "name": "remove",
      "outputs": [],
      "payable": false,
      "stateMutability": "nonpayable",
      "type": "function"
    }
  ],
  "bytecode": "0x608060405234801561001057600080fd5b506040516108ad3803806108ad8339818101604052602081101561003357600080fd5b810190808051604051939291908464010000000082111561005357600080fd5b90830190602082018581111561006857600080fd5b825186602082028301116401000000008211171561008557600080fd5b82525081516020918201928201910280838360005b838110156100b257818101518382015260200161009a565b5050505091909101604052505082516100d492506000915060208401906100db565b5050610167565b828054828255906000526020600020908101928215610130579160200282015b8281111561013057825182546001600160a01b0319166001600160a01b039091161782556020909201916001909101906100fb565b5061013c929150610140565b5090565b61016491905b8082111561013c5780546001600160a01b0319168155600101610146565b90565b610737806101766000396000f3fe608060405234801561001057600080fd5b50600436106100625760003560e01c80630a3b0a4f1461006757806329092d0e1461008f5780633c594059146100b5578063b31610db146100ee578063c624c6f21461012f578063de2927891461014c575b600080fd5b61008d6004803603602081101561007d57600080fd5b50356001600160a01b03166101a4565b005b61008d600480360360208110156100a557600080fd5b50356001600160a01b03166101b9565b6100d2600480360360208110156100cb57600080fd5b50356101ca565b604080516001600160a01b039092168252519081900360200190f35b6101146004803603602081101561010457600080fd5b50356001600160a01b03166101f1565b60408051921515835260208301919091528051918290030190f35b61008d6004803603602081101561014557600080fd5b503561020d565b61015461021e565b60408051602080825283518183015283519192839290830191858101910280838360005b83811015610190578181015183820152602001610178565b505050509050019250505060405180910390f35b6101b560008263ffffffff61028116565b5050565b6101b560008263ffffffff61036b16565b600081815481106101d757fe5b6000918252602090912001546001600160a01b0316905081565b600080610204818463ffffffff6103f516565b91509150915091565b6101b560008263ffffffff61044a16565b6060600080548060200260200160405190810160405280929190818152602001828054801561027657602002820191906000526020600020905b81546001600160a01b03168152600190910190602001808311610258575b505050505090505b90565b60606001600160a01b0382166102de576040805162461bcd60e51b815260206004820152601960248201527f454d5054595f414444524553535f4e4f545f414c4c4f57454400000000000000604482015290519081900360640190fd5b8254600181018455600084815260209081902090910180546001600160a01b0319166001600160a01b038516179055835460408051828402810184019091528181529185919083018282801561035d57602002820191906000526020600020905b81546001600160a01b0316815260019091019060200180831161033f575b505050505090505b92915050565b606060008061037a85856103f5565b91509150816103e2578454604080516020808402820181019092528281529187918301828280156103d457602002820191906000526020600020905b81546001600160a01b031681526001909101906020018083116103b6575b505050505092505050610365565b6103ec858261044a565b95945050505050565b6000805b835481101561044357826001600160a01b031684828154811061041857fe5b6000918252602090912001546001600160a01b0316149150811561043b57610443565b6001016103f9565b9250929050565b815460609082106104b2578254604080516020808402820181019092528281529185918301828280156104a657602002820191906000526020600020905b81546001600160a01b03168152600190910190602001808311610488575b50505050509050610365565b825460001901821415610556578254839060001981019081106104d157fe5b600091825260209091200180546001600160a01b031916905582546104fa8460001983016106bb565b508254604080516020808402820181019092528281529185918301828280156104a6576020028201919060005260206000209081546001600160a01b031681526001909101906020018083116104885750505050509050610365565b82546000908490600019810190811061056b57fe5b60009182526020909120015484546001600160a01b03909116915084908490811061059257fe5b60009182526020909120015484546001600160a01b0390911690859060001981019081106105bc57fe5b9060005260206000200160006101000a8154816001600160a01b0302191690836001600160a01b03160217905550808484815481106105f757fe5b600091825260209091200180546001600160a01b0319166001600160a01b039290921691909117905583548490600019810190811061063257fe5b600091825260209091200180546001600160a01b0319169055835461065b8560001983016106bb565b508354604080516020808402820181019092528281529186918301828280156106ad57602002820191906000526020600020905b81546001600160a01b0316815260019091019060200180831161068f575b505050505091505092915050565b8154818355818111156106df576000838152602090206106df9181019083016106e4565b505050565b61027e91905b808211156106fe57600081556001016106ea565b509056fea265627a7a7231582042f53e0a23f5512fb0346d8d28e7eec1f9e459e62f5fe6810bc9477c4a23ba7464736f6c63430005110032",
  "source": "pragma solidity 0.5.17;\n\nimport \"../../util/AddressArrayLib.sol\";\n\ncontract AddressArrayLibMock {\n    using AddressArrayLib for address[];\n\n    address[] public result;\n\n    constructor(address[] memory initialData) public {\n        result = initialData;\n    }\n\n    function getResult() external view returns (address[] memory) {\n        return result;\n    }\n\n    function add(address newItem) external {\n        result.add(newItem);\n    }\n\n    function removeAt(uint256 indexAt) external {\n        result.removeAt(indexAt);\n    }\n\n    function getIndex(address item) external view returns (bool found, uint256 indexAt) {\n        return result.getIndex(item);\n    }\n\n    function remove(address item) external {\n        result.remove(item);\n    }\n}\n",
  "sourcePath": "/Users/guillesalazar/Repos/ZeroCollateral/smart-contracts-v1/contracts/mock/util/AddressArrayLibMock.sol",
  "compiler": {
    "name": "solc",
    "version": "0.5.17+commit.d19bba13.Emscripten.clang"
  },
  "schemaVersion": "3.2.3",
  "updatedAt": "2020-10-12T14:23:11.560Z",
  "devdoc": {
    "methods": {}
  },
  "userdoc": {
    "methods": {}
  }
}