{
  "contractName": "ATMFactory",
  "abi": [
    {
      "anonymous": false,
      "inputs": [
        {
          "indexed": true,
          "internalType": "address",
          "name": "creator",
          "type": "address"
        },
        {
          "indexed": true,
          "internalType": "address",
          "name": "atmGovernanceAddress",
          "type": "address"
        },
        {
          "indexed": true,
          "internalType": "address",
          "name": "tlrTokenAddress",
          "type": "address"
        }
      ],
      "name": "ATMCreated",
      "type": "event"
    },
    {
      "constant": true,
      "inputs": [
        {
          "internalType": "address",
          "name": "",
          "type": "address"
        }
      ],
      "name": "atms",
      "outputs": [
        {
          "internalType": "bool",
          "name": "",
          "type": "bool"
        }
      ],
      "payable": false,
      "stateMutability": "view",
      "type": "function"
    },
    {
      "constant": true,
      "inputs": [
        {
          "internalType": "uint256",
          "name": "",
          "type": "uint256"
        }
      ],
      "name": "atmsList",
      "outputs": [
        {
          "internalType": "address",
          "name": "",
          "type": "address"
        }
      ],
      "payable": false,
      "stateMutability": "view",
      "type": "function"
    },
    {
      "constant": true,
      "inputs": [],
      "name": "initialized",
      "outputs": [
        {
          "internalType": "bool",
          "name": "value",
          "type": "bool"
        }
      ],
      "payable": false,
      "stateMutability": "view",
      "type": "function"
    },
    {
      "constant": true,
      "inputs": [],
      "name": "settings",
      "outputs": [
        {
          "internalType": "contract SettingsInterface",
          "name": "",
          "type": "address"
        }
      ],
      "payable": false,
      "stateMutability": "view",
      "type": "function"
    },
    {
      "constant": true,
      "inputs": [
        {
          "internalType": "address",
          "name": "",
          "type": "address"
        }
      ],
      "name": "tlrTokens",
      "outputs": [
        {
          "internalType": "address",
          "name": "",
          "type": "address"
        }
      ],
      "payable": false,
      "stateMutability": "view",
      "type": "function"
    },
    {
      "constant": false,
      "inputs": [
        {
          "internalType": "string",
          "name": "name",
          "type": "string"
        },
        {
          "internalType": "string",
          "name": "symbol",
          "type": "string"
        },
        {
          "internalType": "uint8",
          "name": "decimals",
          "type": "uint8"
        },
        {
          "internalType": "uint256",
          "name": "cap",
          "type": "uint256"
        },
        {
          "internalType": "uint256",
          "name": "maxVestingPerWallet",
          "type": "uint256"
        }
      ],
      "name": "createATM",
      "outputs": [
        {
          "internalType": "address",
          "name": "",
          "type": "address"
        }
      ],
      "payable": false,
      "stateMutability": "nonpayable",
      "type": "function"
    },
    {
      "constant": false,
      "inputs": [
        {
          "internalType": "address",
          "name": "settingsAddress",
          "type": "address"
        }
      ],
      "name": "initialize",
      "outputs": [],
      "payable": false,
      "stateMutability": "nonpayable",
      "type": "function"
    },
    {
      "constant": true,
      "inputs": [
        {
          "internalType": "address",
          "name": "atmAddress",
          "type": "address"
        }
      ],
      "name": "isATM",
      "outputs": [
        {
          "internalType": "bool",
          "name": "",
          "type": "bool"
        }
      ],
      "payable": false,
      "stateMutability": "view",
      "type": "function"
    },
    {
      "constant": true,
      "inputs": [
        {
          "internalType": "address",
          "name": "atmAddress",
          "type": "address"
        }
      ],
      "name": "getTLRToken",
      "outputs": [
        {
          "internalType": "address",
          "name": "",
          "type": "address"
        }
      ],
      "payable": false,
      "stateMutability": "view",
      "type": "function"
    },
    {
      "constant": true,
      "inputs": [],
      "name": "getATMs",
      "outputs": [
        {
          "internalType": "address[]",
          "name": "",
          "type": "address[]"
        }
      ],
      "payable": false,
      "stateMutability": "view",
      "type": "function"
    }
  ],
  "bytecode": "0x608060405234801561001057600080fd5b50611430806100206000396000f3fe60806040523480156200001157600080fd5b5060043610620000ac5760003560e01c806395589a87116200006f57806395589a8714620001b9578063b88293541462000293578063c4d66de814620002bc578063e06174e414620002e7578063f047f09c14620002f157620000ac565b8063113d88d014620000b1578063123adcbb146200010d578063158ef93e146200014a57806318c6c60e1462000154578063528fe2921462000199575b600080fd5b620000bb6200031a565b60408051602080825283518183015283519192839290830191858101910280838360005b83811015620000f9578181015183820152602001620000df565b505050509050019250505060405180910390f35b62000136600480360360208110156200012557600080fd5b50356001600160a01b03166200037e565b604080519115158252519081900360200190f35b620001366200039c565b6200017d600480360360208110156200016c57600080fd5b50356001600160a01b0316620003d2565b604080516001600160a01b039092168252519081900360200190f35b6200017d60048036036020811015620001b157600080fd5b5035620003f0565b6200017d600480360360a0811015620001d157600080fd5b810190602081018135640100000000811115620001ed57600080fd5b8201836020820111156200020057600080fd5b803590602001918460018302840111640100000000831117156200022357600080fd5b9193909290916020810190356401000000008111156200024257600080fd5b8201836020820111156200025557600080fd5b803590602001918460018302840111640100000000831117156200027857600080fd5b919350915060ff813516906020810135906040013562000418565b6200013660048036036020811015620002ab57600080fd5b50356001600160a01b031662000a71565b620002e560048036036020811015620002d457600080fd5b50356001600160a01b031662000a86565b005b6200017d62000afb565b6200017d600480360360208110156200030957600080fd5b50356001600160a01b031662000b2c565b606060028054806020026020016040519081016040528092919081815260200182805480156200037457602002820191906000526020600020905b81546001600160a01b0316815260019091019060200180831162000355575b5050505050905090565b6001600160a01b031660009081526020819052604090205460ff1690565b604080517f54496e697469616c697a61626c652e6973496e697469616c697a6564000000008152905190819003601c0190205490565b6001600160a01b039081166000908152600160205260409020541690565b60028181548110620003fe57fe5b6000918252602090912001546001600160a01b0316905081565b60006200042462000afb565b6001600160a01b031663c095ea27336040518263ffffffff1660e01b815260040180826001600160a01b03166001600160a01b0316815260200191505060006040518083038186803b1580156200047a57600080fd5b505afa1580156200048f573d6000803e3d6000fd5b505050506200049d6200039c565b620004ef576040805162461bcd60e51b815260206004820152601860248201527f434f4e54524143545f4e4f545f494e495449414c495a45440000000000000000604482015290519081900360640190fd5b336000620004fc62000afb565b6001600160a01b031663ea23cb7c6040518163ffffffff1660e01b815260040160206040518083038186803b1580156200053557600080fd5b505afa1580156200054a573d6000803e3d6000fd5b505050506040513d60208110156200056157600080fd5b505160408051636c36ba2760e11b815290516001600160a01b039092169163d86d744e916004808201926020929091908290030181600087803b158015620005a857600080fd5b505af1158015620005bd573d6000803e3d6000fd5b505050506040513d6020811015620005d457600080fd5b50516040805163296804a160e11b815290516001600160a01b03909216916352d0094291600480820192602092909190829003018186803b1580156200061957600080fd5b505afa1580156200062e573d6000803e3d6000fd5b505050506040513d60208110156200064557600080fd5b5051905060006200065562000afb565b82604051620006649062000d78565b6001600160a01b0390921682526020820152604080519182900301906000f08015801562000696573d6000803e3d6000fd5b5090506000620006a562000afb565b6001600160a01b031663ea23cb7c6040518163ffffffff1660e01b815260040160206040518083038186803b158015620006de57600080fd5b505afa158015620006f3573d6000803e3d6000fd5b505050506040513d60208110156200070a57600080fd5b505160408051636c36ba2760e11b815290516001600160a01b039092169163d86d744e916004808201926020929091908290030181600087803b1580156200075157600080fd5b505af115801562000766573d6000803e3d6000fd5b505050506040513d60208110156200077d57600080fd5b5051604080516345afc52d60e11b815290516001600160a01b0390921691638b5f8a5a91600480820192602092909190829003018186803b158015620007c257600080fd5b505afa158015620007d7573d6000803e3d6000fd5b505050506040513d6020811015620007ee57600080fd5b505190506000620007fe62000afb565b826040516200080d9062000d78565b6001600160a01b0390921682526020820152604080519182900301906000f0801580156200083f573d6000803e3d6000fd5b509050806001600160a01b031663485cc9556200085b62000afb565b604080516001600160e01b031960e085901b1681526001600160a01b039283166004820152918916602483015251604480830192600092919082900301818387803b158015620008aa57600080fd5b505af1158015620008bf573d6000803e3d6000fd5b5083925050506001600160a01b03841663561cf2ab8f8f8f8f8f8f8f620008e562000afb565b60405160e08a811b6001600160e01b031916825260ff8616604483015260648201859052608482018490526001600160a01b0383811660a48401528d1660c48301526004820190815260e482018990528c9181906024810190610104018c8c80828437600083820152601f01601f191690910184810383528a815260200190508a8a80828437600081840152601f19601f8201169050808301925050509b505050505050505050505050600060405180830381600087803b158015620009aa57600080fd5b505af1158015620009bf573d6000803e3d6000fd5b505050506001600160a01b038181166000908152602081815260408083208054600160ff199091168117909155909152902080546001600160a01b0319169186169190911790558362000a1460028362000b47565b50806001600160a01b0316826001600160a01b0316886001600160a01b03167fd5fe8e6135fc202897d05112dcc663e5e64917b85d00861a487f6ee9235f414160405160405180910390a4509d9c50505050505050505050505050565b60006020819052908152604090205460ff1681565b62000a906200039c565b1562000ae3576040805162461bcd60e51b815260206004820152601c60248201527f434f4e54524143545f414c52454144595f494e495449414c495a454400000000604482015290519081900360640190fd5b62000aee8162000c33565b62000af862000cf5565b50565b6040805177426173655570677261646561626c652e73657474696e677360401b815290519081900360180190205490565b6001602052600090815260409020546001600160a01b031681565b60606001600160a01b03821662000ba5576040805162461bcd60e51b815260206004820152601960248201527f454d5054595f414444524553535f4e4f545f414c4c4f57454400000000000000604482015290519081900360640190fd5b8254600181018455600084815260209081902090910180546001600160a01b0319166001600160a01b038516179055835460408051828402810184019091528181529185919083018282801562000c2657602002820191906000526020600020905b81546001600160a01b0316815260019091019060200180831162000c07575b5050505050905092915050565b62000c5062000c4162000afb565b6001600160a01b031662000d2d565b1562000c5c5762000af8565b62000c70816001600160a01b031662000d3b565b62000cc2576040805162461bcd60e51b815260206004820152601b60248201527f53455454494e47535f4d5553545f42455f415f434f4e54524143540000000000604482015290519081900360640190fd5b6040805177426173655570677261646561626c652e73657474696e677360401b8152905190819003601801902081905550565b604080517f54496e697469616c697a61626c652e6973496e697469616c697a6564000000008152905190819003601c01902060019055565b6001600160a01b0316151590565b6000813f7fc5d2460186f7233c927e7db2dcc703c0e500b653ca82273b7bfad8045d85a47081811480159062000d7057508115155b949350505050565b6106758062000d878339019056fe608060405234801561001057600080fd5b506040516106753803806106758339818101604052604081101561003357600080fd5b50805160209091015161004e826001600160e01b0361006716565b610060816001600160e01b0361014316565b50506103cc565b61009361007b6001600160e01b0361031616565b6001600160a01b031661034c60201b61021b1760201c565b1561009d57610140565b6100b9816001600160a01b031661035a60201b6102291760201c565b61010a576040805162461bcd60e51b815260206004820152601b60248201527f53455454494e47535f4d5553545f42455f415f434f4e54524143540000000000604482015290519081900360640190fd5b604080517f426173655570677261646561626c652e73657474696e67730000000000000000815290519081900360180190208190555b50565b6101546001600160e01b0361039616565b156101a6576040805162461bcd60e51b815260206004820152601660248201527f4c4f4749435f4e414d455f414c52454144595f53455400000000000000000000604482015290519081900360640190fd5b6101b76001600160e01b0361031616565b6001600160a01b031663ea23cb7c6040518163ffffffff1660e01b815260040160206040518083038186803b1580156101ef57600080fd5b505afa158015610203573d6000803e3d6000fd5b505050506040513d602081101561021957600080fd5b50516040805163b28f5abb60e01b81526004810184905290516001600160a01b039092169163b28f5abb91602480820192602092909190829003018186803b15801561026457600080fd5b505afa158015610278573d6000803e3d6000fd5b505050506040513d602081101561028e57600080fd5b50516102e1576040805162461bcd60e51b815260206004820152601460248201527f4c4f4749435f4e414d455f4e4f545f4558495354000000000000000000000000604482015290519081900360640190fd5b604080517f426173655570677261646561626c652e6c6f6769634e616d65000000000000008152905190819003601901902055565b604080517f426173655570677261646561626c652e73657474696e67730000000000000000815290519081900360180190205490565b6001600160a01b0316151590565b6000813f7fc5d2460186f7233c927e7db2dcc703c0e500b653ca82273b7bfad8045d85a47081811480159061038e57508115155b949350505050565b604080517f426173655570677261646561626c652e6c6f6769634e616d6500000000000000815290519081900360190190205490565b61029a806103db6000396000f3fe6080604052600436106100295760003560e01c80635c60da1b14610033578063e06174e414610064575b610031610079565b005b34801561003f57600080fd5b50610048610093565b604080516001600160a01b039092168252519081900360200190f35b34801561007057600080fd5b506100486100a2565b610081610091565b61009161008c6100d8565b6101c1565b565b600061009d6100d8565b905090565b604080517f426173655570677261646561626c652e73657474696e67730000000000000000815290519081900360180190205490565b60006100e26100a2565b6001600160a01b031663ea23cb7c6040518163ffffffff1660e01b815260040160206040518083038186803b15801561011a57600080fd5b505afa15801561012e573d6000803e3d6000fd5b505050506040513d602081101561014457600080fd5b50516001600160a01b03166373f1fcf661015c6101e5565b6040518263ffffffff1660e01b81526004018082815260200191505060206040518083038186803b15801561019057600080fd5b505afa1580156101a4573d6000803e3d6000fd5b505050506040513d60208110156101ba57600080fd5b5051905090565b3660008037600080366000845af43d6000803e8080156101e0573d6000f35b3d6000fd5b604080517f426173655570677261646561626c652e6c6f6769634e616d6500000000000000815290519081900360190190205490565b6001600160a01b0316151590565b6000813f7fc5d2460186f7233c927e7db2dcc703c0e500b653ca82273b7bfad8045d85a47081811480159061025d57508115155b94935050505056fea265627a7a723158209abc930bf400a682d5e11c25f1ba256ae89b4ce766e410dcff2c716d1f6c668e64736f6c63430005110032a265627a7a72315820c880fcf7bb7b81f37af67850aa19accd2104f2a141e1157bd48156ea6229272664736f6c63430005110032",
  "source": "pragma solidity 0.5.17;\n\n// External Libraries\n\n// Common\nimport \"../util/AddressArrayLib.sol\";\nimport \"../base/TInitializable.sol\";\nimport \"../base/DynamicProxy.sol\";\n\n// Interfaces\nimport \"./TLRTokenInterface.sol\";\nimport \"./ATMGovernanceInterface.sol\";\nimport \"../atm/ATMFactoryInterface.sol\";\n\n/*****************************************************************************************************/\n/**                                             WARNING                                             **/\n/**                                  THIS CONTRACT IS UPGRADEABLE!                                  **/\n/**  ---------------------------------------------------------------------------------------------  **/\n/**  Do NOT change the order of or PREPEND any storage variables to this or new versions of this    **/\n/**  contract as this will cause the the storage slots to be overwritten on the proxy contract!!    **/\n/**                                                                                                 **/\n/**  Visit https://docs.openzeppelin.com/upgrades/2.6/proxies#upgrading-via-the-proxy-pattern for   **/\n/**  more information.                                                                              **/\n/*****************************************************************************************************/\n/**\n    @notice This contract will create upgradeable ATM instances.\n    @author develop@teller.finance\n */\ncontract ATMFactory is ATMFactoryInterface, TInitializable, BaseUpgradeable {\n    using AddressArrayLib for address[];\n\n    /**\n        @notice It defines whether an ATM address exists or not.\n            Example:\n                address(0x1234...890) => true\n                address(0x2345...890) => false\n     */\n    mapping(address => bool) public atms;\n\n    mapping(address => address) public tlrTokens;\n\n    // List of ATM instances\n    address[] public atmsList;\n\n    /**\n        @notice It creates a new ATM instance.\n        @param name The token name.\n        @param symbol The token symbol\n        @param decimals The token decimals \n        @param cap Token max cap.\n        @param maxVestingPerWallet max vestings per wallet for the token.\n        @return the new ATM governance instance address.\n     */\n    function createATM(\n        string calldata name,\n        string calldata symbol,\n        uint8 decimals,\n        uint256 cap,\n        uint256 maxVestingPerWallet\n    ) external onlyPauser() isInitialized() returns (address) {\n        address owner = msg.sender;\n\n        bytes32 tlrTokenLogicName = settings()\n            .versionsRegistry()\n            .consts()\n            .TLR_TOKEN_LOGIC_NAME();\n        TLRTokenInterface tlrTokenProxy = TLRTokenInterface(\n            address(new DynamicProxy(address(settings()), tlrTokenLogicName))\n        );\n\n        bytes32 atmGovernanceLogicName = settings()\n            .versionsRegistry()\n            .consts()\n            .ATM_GOVERNANCE_LOGIC_NAME();\n        ATMGovernanceInterface atmGovernanceProxy = ATMGovernanceInterface(\n            address(new DynamicProxy(address(settings()), atmGovernanceLogicName))\n        );\n        atmGovernanceProxy.initialize(address(settings()), owner);\n        address atmGovernanceProxyAddress = address(atmGovernanceProxy);\n\n        tlrTokenProxy.initialize(\n            name,\n            symbol,\n            decimals,\n            cap,\n            maxVestingPerWallet,\n            address(settings()),\n            atmGovernanceProxyAddress\n        );\n        address tlrTokenProxyAddress = address(tlrTokenProxy);\n\n        atms[atmGovernanceProxyAddress] = true;\n        tlrTokens[atmGovernanceProxyAddress] = tlrTokenProxyAddress;\n        atmsList.add(atmGovernanceProxyAddress);\n\n        // Emit new ATM created event.\n        emit ATMCreated(owner, atmGovernanceProxyAddress, tlrTokenProxyAddress);\n\n        return atmGovernanceProxyAddress;\n    }\n\n    /**\n        @notice It initializes this ATM Governance Factory instance.\n        @param settingsAddress settings address.\n     */\n    function initialize(address settingsAddress) external isNotInitialized() {\n        _setSettings(settingsAddress);\n\n        _initialize();\n    }\n\n    /**\n        @notice Tests whether an address is an ATM instance or not.\n        @param atmAddress address to test.\n        @return true if the given address is an ATM. Otherwise it returns false.\n     */\n    function isATM(address atmAddress) external view returns (bool) {\n        return atms[atmAddress];\n    }\n\n    /**\n        @notice Returns the token address of a given associated atm address.\n        @param atmAddress ATM address to test\n        @return Address of the associated TLR Token\n     */\n    function getTLRToken(address atmAddress) external view returns (address) {\n        return tlrTokens[atmAddress];\n    }\n\n    /**\n        @notice Gets the ATMs list.\n        @return the list of ATMs.\n     */\n    function getATMs() external view returns (address[] memory) {\n        return atmsList;\n    }\n}\n",
  "sourcePath": "/Users/sy/Documents/GitHub/teller-protocol-v1/contracts/atm/ATMFactory.sol",
  "compiler": {
    "name": "solc",
    "version": "0.5.17+commit.d19bba13.Emscripten.clang"
  },
  "schemaVersion": "3.0.23",
  "updatedAt": "2020-09-15T23:09:49.599Z",
  "devdoc": {
    "author": "develop@teller.finance",
    "methods": {
      "createATM(string,string,uint8,uint256,uint256)": {
        "params": {
          "cap": "Token max cap.",
          "decimals": "The token decimals ",
          "maxVestingPerWallet": "max vestings per wallet for the token.",
          "name": "The token name.",
          "symbol": "The token symbol"
        },
        "return": "the new ATM governance instance address."
      },
      "getATMs()": {
        "return": "the list of ATMs."
      },
      "getTLRToken(address)": {
        "params": {
          "atmAddress": "ATM address to test"
        },
        "return": "Address of the associated TLR Token"
      },
      "initialize(address)": {
        "params": {
          "settingsAddress": "settings address."
        }
      },
      "initialized()": {
        "return": "true if contract is initialized. Otherwise it returns false."
      },
      "isATM(address)": {
        "params": {
          "atmAddress": "address to test."
        },
        "return": "true if the given address is an ATM. Otherwise it returns false."
      },
      "settings()": {
        "details": "This address should NOT change over the time. See details in the _setSettings(...) function."
      }
    }
  },
  "userdoc": {
    "methods": {
      "createATM(string,string,uint8,uint256,uint256)": {
        "notice": "It creates a new ATM instance."
      },
      "getATMs()": {
        "notice": "Gets the ATMs list."
      },
      "getTLRToken(address)": {
        "notice": "Returns the token address of a given associated atm address."
      },
      "initialize(address)": {
        "notice": "It initializes this ATM Governance Factory instance."
      },
      "initialized()": {
        "notice": "Gets if the contract is initialized."
      },
      "isATM(address)": {
        "notice": "Tests whether an address is an ATM instance or not."
      },
      "settings()": {
        "notice": "The gets the settings contract address from the SETTINGS_SLOT."
      }
    },
    "notice": "This contract will create upgradeable ATM instances."
  }
}