{
  "contractName": "ATMGovernanceProxy",
  "abi": [
    {
      "inputs": [
        {
          "internalType": "address",
          "name": "atmSettingsAddress",
          "type": "address"
        }
      ],
      "payable": true,
      "stateMutability": "payable",
      "type": "constructor"
    },
    {
      "payable": true,
      "stateMutability": "payable",
      "type": "fallback"
    },
    {
      "constant": true,
      "inputs": [],
      "name": "atmSettings",
      "outputs": [
        {
          "internalType": "contract IATMSettings",
          "name": "",
          "type": "address"
        }
      ],
      "payable": false,
      "stateMutability": "view",
      "type": "function"
    },
    {
      "constant": true,
      "inputs": [],
      "name": "implementation",
      "outputs": [
        {
          "internalType": "address",
          "name": "",
          "type": "address"
        }
      ],
      "payable": false,
      "stateMutability": "view",
      "type": "function"
    }
  ],
  "bytecode": "0x608060405260405161045f38038061045f8339818101604052602081101561002657600080fd5b5051604080516001600160a01b0383166024808301919091528251808303909101815260449091019091526020810180516001600160e01b0390811663189acdbd60e31b1790915260009061007d90849061009b16565b905061009281836001600160e01b0361010816565b50505050610254565b6000816001600160a01b0316634aca662f6040518163ffffffff1660e01b815260040160206040518083038186803b1580156100d657600080fd5b505afa1580156100ea573d6000803e3d6000fd5b505050506040513d602081101561010057600080fd5b505192915050565b6060610126836001600160a01b031661021b60201b6101581760201c565b6101615760405162461bcd60e51b815260040180806020018281038252603381526020018061042c6033913960400191505060405180910390fd5b60006060846001600160a01b0316846040518082805190602001908083835b6020831061019f5780518252601f199092019160209182019101610180565b6001836020036101000a038019825116818451168082178552505050505050905001915050600060405180830381855af49150503d80600081146101ff576040519150601f19603f3d011682016040523d82523d6000602084013e610204565b606091505b50915091508161021357600080fd5b949350505050565b6000813f7fc5d2460186f7233c927e7db2dcc703c0e500b653ca82273b7bfad8045d85a470818114801590610213575050151592915050565b6101c9806102636000396000f3fe6080604052600436106100295760003560e01c80635c60da1b14610033578063dc21a6a014610064575b610031610079565b005b34801561003f57600080fd5b50610048610093565b604080516001600160a01b039092168252519081900360200190f35b34801561007057600080fd5b506100486100a2565b610081610091565b61009161008c6100b1565b6100c7565b565b600061009d6100b1565b905090565b6000546001600160a01b031681565b6000805461009d906001600160a01b03166100eb565b3660008037600080366000845af43d6000803e8080156100e6573d6000f35b3d6000fd5b6000816001600160a01b0316634aca662f6040518163ffffffff1660e01b815260040160206040518083038186803b15801561012657600080fd5b505afa15801561013a573d6000803e3d6000fd5b505050506040513d602081101561015057600080fd5b505192915050565b6000813f7fc5d2460186f7233c927e7db2dcc703c0e500b653ca82273b7bfad8045d85a47081811480159061018c57508115155b94935050505056fea265627a7a723158203e383e419c9398fcada721b4b11757c8a0f33f2e545aacd8bf15227013d5747b64736f6c6343000511003250524f58595f44454c45474154455f544f5f494d504c454d454e544154494f4e5f4d5553545f42455f415f434f4e5452414354",
  "source": "pragma solidity 0.5.17;\n\nimport \"./BaseATMProxy.sol\";\n\n/**\n    @notice It is the Proxy contract for ATM Governance.\n\n    @author develop@teller.finance\n */\ncontract ATMGovernanceProxy is BaseATMProxy {\n    /**\n        @notice This constructor forwards the parameters to the implementation logic contract defined in ATMSettings.\n        @param atmSettingsAddress The ATMSettings address\n     */\n    constructor(address atmSettingsAddress) public payable {\n        bytes memory initData = abi.encodeWithSignature(\"initialize(address)\", atmSettingsAddress);\n        address logic = _getImplementation(atmSettingsAddress);\n        _delegateToWith(logic, initData);\n    }\n\n    /** Internal Functions **/\n\n    /**\n        @notice It is the logic of grabbing the current ATMGovernance logic address from an ATMSettings contract address.\n        @param atmSettingsAddress address of an ATMSettings contract\n        @return address of ATMGovernance logic implementation\n     */\n    function _getImplementation(address atmSettingsAddress) internal view returns (address) {\n        return IATMSettings(atmSettingsAddress).atmGovernanceLogic();\n    }\n}\n",
  "sourcePath": "/Users/sy/Documents/GitHub/teller-protocol-v1/contracts/atm/ATMGovernanceProxy.sol",
  "compiler": {
    "name": "solc",
    "version": "0.5.17+commit.d19bba13.Emscripten.clang"
  },
  "schemaVersion": "3.0.23",
  "updatedAt": "2020-08-28T22:57:03.805Z",
  "devdoc": {
    "author": "develop@teller.finance",
    "methods": {
      "constructor": {
        "params": {
          "atmSettingsAddress": "The ATMSettings address"
        }
      },
      "implementation()": {
        "return": "Address of the current implementation"
      }
    }
  },
  "userdoc": {
    "methods": {
      "constructor": "This constructor forwards the parameters to the implementation logic contract defined in ATMSettings.",
      "implementation()": {
        "notice": "Returns the current implementation."
      }
    },
    "notice": "It is the Proxy contract for ATM Governance."
  }
}