{
  "contractName": "ATMGovernanceMockV2",
  "abi": [
    {
      "anonymous": false,
      "inputs": [
        {
          "indexed": true,
          "internalType": "address",
          "name": "sender",
          "type": "address"
        },
        {
          "indexed": true,
          "internalType": "address",
          "name": "asset",
          "type": "address"
        },
        {
          "indexed": true,
          "internalType": "bytes32",
          "name": "settingName",
          "type": "bytes32"
        },
        {
          "indexed": false,
          "internalType": "uint256",
          "name": "settingValue",
          "type": "uint256"
        }
      ],
      "name": "AssetMarketSettingAdded",
      "type": "event"
    },
    {
      "anonymous": false,
      "inputs": [
        {
          "indexed": true,
          "internalType": "address",
          "name": "sender",
          "type": "address"
        },
        {
          "indexed": true,
          "internalType": "address",
          "name": "asset",
          "type": "address"
        },
        {
          "indexed": true,
          "internalType": "bytes32",
          "name": "settingName",
          "type": "bytes32"
        },
        {
          "indexed": false,
          "internalType": "uint256",
          "name": "oldValue",
          "type": "uint256"
        }
      ],
      "name": "AssetMarketSettingRemoved",
      "type": "event"
    },
    {
      "anonymous": false,
      "inputs": [
        {
          "indexed": true,
          "internalType": "address",
          "name": "sender",
          "type": "address"
        },
        {
          "indexed": true,
          "internalType": "address",
          "name": "asset",
          "type": "address"
        },
        {
          "indexed": true,
          "internalType": "bytes32",
          "name": "settingName",
          "type": "bytes32"
        },
        {
          "indexed": false,
          "internalType": "uint256",
          "name": "oldValue",
          "type": "uint256"
        },
        {
          "indexed": false,
          "internalType": "uint256",
          "name": "newValue",
          "type": "uint256"
        }
      ],
      "name": "AssetMarketSettingUpdated",
      "type": "event"
    },
    {
      "anonymous": false,
      "inputs": [
        {
          "indexed": true,
          "internalType": "address",
          "name": "sender",
          "type": "address"
        },
        {
          "indexed": false,
          "internalType": "string",
          "name": "craCommitHash",
          "type": "string"
        }
      ],
      "name": "CRASet",
      "type": "event"
    },
    {
      "anonymous": false,
      "inputs": [
        {
          "indexed": true,
          "internalType": "address",
          "name": "sender",
          "type": "address"
        },
        {
          "indexed": true,
          "internalType": "uint8",
          "name": "dataTypeIndex",
          "type": "uint8"
        },
        {
          "indexed": false,
          "internalType": "uint256",
          "name": "amountDataProviders",
          "type": "uint256"
        },
        {
          "indexed": false,
          "internalType": "address",
          "name": "dataProvider",
          "type": "address"
        }
      ],
      "name": "DataProviderAdded",
      "type": "event"
    },
    {
      "anonymous": false,
      "inputs": [
        {
          "indexed": true,
          "internalType": "address",
          "name": "sender",
          "type": "address"
        },
        {
          "indexed": true,
          "internalType": "uint8",
          "name": "dataTypeIndex",
          "type": "uint8"
        },
        {
          "indexed": true,
          "internalType": "uint256",
          "name": "dataProviderIndex",
          "type": "uint256"
        },
        {
          "indexed": false,
          "internalType": "address",
          "name": "dataProvider",
          "type": "address"
        }
      ],
      "name": "DataProviderRemoved",
      "type": "event"
    },
    {
      "anonymous": false,
      "inputs": [
        {
          "indexed": true,
          "internalType": "address",
          "name": "sender",
          "type": "address"
        },
        {
          "indexed": true,
          "internalType": "uint8",
          "name": "dataTypeIndex",
          "type": "uint8"
        },
        {
          "indexed": true,
          "internalType": "uint256",
          "name": "dataProviderIndex",
          "type": "uint256"
        },
        {
          "indexed": false,
          "internalType": "address",
          "name": "oldDataProvider",
          "type": "address"
        },
        {
          "indexed": false,
          "internalType": "address",
          "name": "newDataProvider",
          "type": "address"
        }
      ],
      "name": "DataProviderUpdated",
      "type": "event"
    },
    {
      "anonymous": false,
      "inputs": [
        {
          "indexed": true,
          "internalType": "address",
          "name": "sender",
          "type": "address"
        },
        {
          "indexed": true,
          "internalType": "bytes32",
          "name": "settingName",
          "type": "bytes32"
        },
        {
          "indexed": false,
          "internalType": "uint256",
          "name": "settingValue",
          "type": "uint256"
        }
      ],
      "name": "GeneralSettingAdded",
      "type": "event"
    },
    {
      "anonymous": false,
      "inputs": [
        {
          "indexed": true,
          "internalType": "address",
          "name": "sender",
          "type": "address"
        },
        {
          "indexed": true,
          "internalType": "bytes32",
          "name": "settingName",
          "type": "bytes32"
        },
        {
          "indexed": false,
          "internalType": "uint256",
          "name": "settingValue",
          "type": "uint256"
        }
      ],
      "name": "GeneralSettingRemoved",
      "type": "event"
    },
    {
      "anonymous": false,
      "inputs": [
        {
          "indexed": true,
          "internalType": "address",
          "name": "sender",
          "type": "address"
        },
        {
          "indexed": true,
          "internalType": "bytes32",
          "name": "settingName",
          "type": "bytes32"
        },
        {
          "indexed": false,
          "internalType": "uint256",
          "name": "oldValue",
          "type": "uint256"
        },
        {
          "indexed": false,
          "internalType": "uint256",
          "name": "newValue",
          "type": "uint256"
        }
      ],
      "name": "GeneralSettingUpdated",
      "type": "event"
    },
    {
      "anonymous": false,
      "inputs": [
        {
          "indexed": true,
          "internalType": "address",
          "name": "account",
          "type": "address"
        }
      ],
      "name": "SignerAdded",
      "type": "event"
    },
    {
      "anonymous": false,
      "inputs": [
        {
          "indexed": true,
          "internalType": "address",
          "name": "account",
          "type": "address"
        }
      ],
      "name": "SignerRemoved",
      "type": "event"
    },
    {
      "constant": false,
      "inputs": [
        {
          "internalType": "address",
          "name": "asset",
          "type": "address"
        },
        {
          "internalType": "bytes32",
          "name": "settingName",
          "type": "bytes32"
        },
        {
          "internalType": "uint256",
          "name": "settingValue",
          "type": "uint256"
        }
      ],
      "name": "addAssetMarketSetting",
      "outputs": [],
      "payable": false,
      "stateMutability": "nonpayable",
      "type": "function"
    },
    {
      "constant": false,
      "inputs": [
        {
          "internalType": "uint8",
          "name": "dataTypeIndex",
          "type": "uint8"
        },
        {
          "internalType": "address",
          "name": "dataProvider",
          "type": "address"
        }
      ],
      "name": "addDataProvider",
      "outputs": [],
      "payable": false,
      "stateMutability": "nonpayable",
      "type": "function"
    },
    {
      "constant": false,
      "inputs": [
        {
          "internalType": "bytes32",
          "name": "settingName",
          "type": "bytes32"
        },
        {
          "internalType": "uint256",
          "name": "settingValue",
          "type": "uint256"
        }
      ],
      "name": "addGeneralSetting",
      "outputs": [],
      "payable": false,
      "stateMutability": "nonpayable",
      "type": "function"
    },
    {
      "constant": false,
      "inputs": [
        {
          "internalType": "address",
          "name": "account",
          "type": "address"
        }
      ],
      "name": "addSigner",
      "outputs": [],
      "payable": false,
      "stateMutability": "nonpayable",
      "type": "function"
    },
    {
      "constant": true,
      "inputs": [
        {
          "internalType": "address",
          "name": "",
          "type": "address"
        },
        {
          "internalType": "bytes32",
          "name": "",
          "type": "bytes32"
        }
      ],
      "name": "assetMarketSettings",
      "outputs": [
        {
          "internalType": "uint256",
          "name": "",
          "type": "uint256"
        }
      ],
      "payable": false,
      "stateMutability": "view",
      "type": "function"
    },
    {
      "constant": true,
      "inputs": [],
      "name": "cra",
      "outputs": [
        {
          "internalType": "string",
          "name": "",
          "type": "string"
        }
      ],
      "payable": false,
      "stateMutability": "view",
      "type": "function"
    },
    {
      "constant": true,
      "inputs": [
        {
          "internalType": "uint8",
          "name": "",
          "type": "uint8"
        },
        {
          "internalType": "uint256",
          "name": "",
          "type": "uint256"
        }
      ],
      "name": "dataProviders",
      "outputs": [
        {
          "internalType": "address",
          "name": "",
          "type": "address"
        }
      ],
      "payable": false,
      "stateMutability": "view",
      "type": "function"
    },
    {
      "constant": true,
      "inputs": [
        {
          "internalType": "bytes32",
          "name": "",
          "type": "bytes32"
        }
      ],
      "name": "generalSettings",
      "outputs": [
        {
          "internalType": "uint256",
          "name": "",
          "type": "uint256"
        }
      ],
      "payable": false,
      "stateMutability": "view",
      "type": "function"
    },
    {
      "constant": true,
      "inputs": [
        {
          "internalType": "address",
          "name": "asset",
          "type": "address"
        },
        {
          "internalType": "bytes32",
          "name": "settingName",
          "type": "bytes32"
        }
      ],
      "name": "getAssetMarketSetting",
      "outputs": [
        {
          "internalType": "uint256",
          "name": "",
          "type": "uint256"
        }
      ],
      "payable": false,
      "stateMutability": "view",
      "type": "function"
    },
    {
      "constant": true,
      "inputs": [],
      "name": "getCRA",
      "outputs": [
        {
          "internalType": "string",
          "name": "",
          "type": "string"
        }
      ],
      "payable": false,
      "stateMutability": "view",
      "type": "function"
    },
    {
      "constant": true,
      "inputs": [
        {
          "internalType": "uint8",
          "name": "dataTypeIndex",
          "type": "uint8"
        },
        {
          "internalType": "uint256",
          "name": "dataProviderIndex",
          "type": "uint256"
        }
      ],
      "name": "getDataProvider",
      "outputs": [
        {
          "internalType": "address",
          "name": "",
          "type": "address"
        }
      ],
      "payable": false,
      "stateMutability": "view",
      "type": "function"
    },
    {
      "constant": true,
      "inputs": [
        {
          "internalType": "bytes32",
          "name": "settingName",
          "type": "bytes32"
        }
      ],
      "name": "getGeneralSetting",
      "outputs": [
        {
          "internalType": "uint256",
          "name": "",
          "type": "uint256"
        }
      ],
      "payable": false,
      "stateMutability": "view",
      "type": "function"
    },
    {
      "constant": false,
      "inputs": [
        {
          "internalType": "address",
          "name": "settingsAddress",
          "type": "address"
        },
        {
          "internalType": "address",
          "name": "ownerAddress",
          "type": "address"
        }
      ],
      "name": "initialize",
      "outputs": [],
      "payable": false,
      "stateMutability": "nonpayable",
      "type": "function"
    },
    {
      "constant": false,
      "inputs": [
        {
          "internalType": "address",
          "name": "sender",
          "type": "address"
        }
      ],
      "name": "initialize",
      "outputs": [],
      "payable": false,
      "stateMutability": "nonpayable",
      "type": "function"
    },
    {
      "constant": true,
      "inputs": [],
      "name": "initialized",
      "outputs": [
        {
          "internalType": "bool",
          "name": "value",
          "type": "bool"
        }
      ],
      "payable": false,
      "stateMutability": "view",
      "type": "function"
    },
    {
      "constant": true,
      "inputs": [
        {
          "internalType": "address",
          "name": "account",
          "type": "address"
        }
      ],
      "name": "isSigner",
      "outputs": [
        {
          "internalType": "bool",
          "name": "",
          "type": "bool"
        }
      ],
      "payable": false,
      "stateMutability": "view",
      "type": "function"
    },
    {
      "constant": true,
      "inputs": [
        {
          "internalType": "address",
          "name": "",
          "type": "address"
        }
      ],
      "name": "newMapping",
      "outputs": [
        {
          "internalType": "uint256",
          "name": "",
          "type": "uint256"
        }
      ],
      "payable": false,
      "stateMutability": "view",
      "type": "function"
    },
    {
      "constant": true,
      "inputs": [],
      "name": "newValue",
      "outputs": [
        {
          "internalType": "string",
          "name": "",
          "type": "string"
        }
      ],
      "payable": false,
      "stateMutability": "view",
      "type": "function"
    },
    {
      "constant": false,
      "inputs": [
        {
          "internalType": "address",
          "name": "asset",
          "type": "address"
        },
        {
          "internalType": "bytes32",
          "name": "settingName",
          "type": "bytes32"
        }
      ],
      "name": "removeAssetMarketSetting",
      "outputs": [],
      "payable": false,
      "stateMutability": "nonpayable",
      "type": "function"
    },
    {
      "constant": false,
      "inputs": [
        {
          "internalType": "uint8",
          "name": "dataTypeIndex",
          "type": "uint8"
        },
        {
          "internalType": "uint256",
          "name": "dataProviderIndex",
          "type": "uint256"
        }
      ],
      "name": "removeDataProvider",
      "outputs": [],
      "payable": false,
      "stateMutability": "nonpayable",
      "type": "function"
    },
    {
      "constant": false,
      "inputs": [
        {
          "internalType": "bytes32",
          "name": "settingName",
          "type": "bytes32"
        }
      ],
      "name": "removeGeneralSetting",
      "outputs": [],
      "payable": false,
      "stateMutability": "nonpayable",
      "type": "function"
    },
    {
      "constant": false,
      "inputs": [],
      "name": "renounceSigner",
      "outputs": [],
      "payable": false,
      "stateMutability": "nonpayable",
      "type": "function"
    },
    {
      "constant": false,
      "inputs": [
        {
          "internalType": "string",
          "name": "_cra",
          "type": "string"
        }
      ],
      "name": "setCRA",
      "outputs": [],
      "payable": false,
      "stateMutability": "nonpayable",
      "type": "function"
    },
    {
      "constant": true,
      "inputs": [],
      "name": "settings",
      "outputs": [
        {
          "internalType": "contract SettingsInterface",
          "name": "",
          "type": "address"
        }
      ],
      "payable": false,
      "stateMutability": "view",
      "type": "function"
    },
    {
      "constant": false,
      "inputs": [
        {
          "internalType": "address",
          "name": "asset",
          "type": "address"
        },
        {
          "internalType": "bytes32",
          "name": "settingName",
          "type": "bytes32"
        },
        {
          "internalType": "uint256",
          "name": "newValue",
          "type": "uint256"
        }
      ],
      "name": "updateAssetMarketSetting",
      "outputs": [],
      "payable": false,
      "stateMutability": "nonpayable",
      "type": "function"
    },
    {
      "constant": false,
      "inputs": [
        {
          "internalType": "uint8",
          "name": "dataTypeIndex",
          "type": "uint8"
        },
        {
          "internalType": "uint256",
          "name": "providerIndex",
          "type": "uint256"
        },
        {
          "internalType": "address",
          "name": "newProvider",
          "type": "address"
        }
      ],
      "name": "updateDataProvider",
      "outputs": [],
      "payable": false,
      "stateMutability": "nonpayable",
      "type": "function"
    },
    {
      "constant": false,
      "inputs": [
        {
          "internalType": "bytes32",
          "name": "settingName",
          "type": "bytes32"
        },
        {
          "internalType": "uint256",
          "name": "newValue",
          "type": "uint256"
        }
      ],
      "name": "updateGeneralSetting",
      "outputs": [],
      "payable": false,
      "stateMutability": "nonpayable",
      "type": "function"
    },
    {
      "constant": false,
      "inputs": [
        {
          "internalType": "address",
          "name": "key",
          "type": "address"
        },
        {
          "internalType": "uint256",
          "name": "value",
          "type": "uint256"
        }
      ],
      "name": "addNewMapping",
      "outputs": [],
      "payable": false,
      "stateMutability": "nonpayable",
      "type": "function"
    },
    {
      "constant": false,
      "inputs": [
        {
          "internalType": "string",
          "name": "aNewValue",
          "type": "string"
        }
      ],
      "name": "setNewValue",
      "outputs": [],
      "payable": false,
      "stateMutability": "nonpayable",
      "type": "function"
    },
    {
      "constant": true,
      "inputs": [],
      "name": "getNewValue",
      "outputs": [
        {
          "internalType": "string",
          "name": "",
          "type": "string"
        }
      ],
      "payable": false,
      "stateMutability": "view",
      "type": "function"
    }
  ],
  "bytecode": "0x6080604052612916806100136000396000f3fe608060405234801561001057600080fd5b50600436106101da5760003560e01c806380a64ffe11610104578063e06174e4116100a2578063ea93377311610071578063ea93377314610639578063eb12d61e1461065f578063ebe1258b14610685578063f6aa2a101461068d576101da565b8063e06174e4146105f5578063e58f9ce6146105fd578063e5c8b03d14610605578063e9de998c1461060d576101da565b8063c4d66de8116100de578063c4d66de81461055a578063caae42d514610580578063cbfbf8e9146105ac578063df3e576f146105cf576101da565b806380a64ffe14610492578063b68e29bc146104be578063ba049e7b1461052e576101da565b8063537c88501161017c578063702fef3d1161014b578063702fef3d1461040f57806375e80b81146104415780637c65452c146104645780637df73e271461046c576101da565b8063537c88501461030d57806354fee644146103335780635bb6eb56146103b05780636d1fcc47146103f2576101da565b80633ea7be7e116101b85780633ea7be7e146102645780633f59f9101461028157806346322f0a146102b0578063485cc955146102df576101da565b80630bee83a1146101df578063158ef93e146102135780631e02a6141461022f575b600080fd5b610211600480360360608110156101f557600080fd5b506001600160a01b0381351690602081013590604001356106fd565b005b61021b6109be565b604080519115158252519081900360200190f35b6102116004803603606081101561024557600080fd5b50803560ff1690602081013590604001356001600160a01b03166109f4565b6102116004803603602081101561027a57600080fd5b5035610c5f565b6102116004803603604081101561029757600080fd5b50803560ff1690602001356001600160a01b0316610dee565b6102cd600480360360208110156102c657600080fd5b5035610f65565b60408051918252519081900360200190f35b610211600480360360408110156102f557600080fd5b506001600160a01b0381358116916020013516610f77565b6102cd6004803603602081101561032357600080fd5b50356001600160a01b0316610fef565b61033b611001565b6040805160208082528351818301528351919283929083019185019080838360005b8381101561037557818101518382015260200161035d565b50505050905090810190601f1680156103a25780820380516001836020036101000a031916815260200191505b509250505060405180910390f35b6103d6600480360360408110156103c657600080fd5b5060ff8135169060200135611098565b604080516001600160a01b039092168252519081900360200190f35b6102cd6004803603602081101561040857600080fd5b50356110f6565b6102116004803603606081101561042557600080fd5b506001600160a01b038135169060208101359060400135611108565b6102116004803603604081101561045757600080fd5b5080359060200135611336565b61033b611518565b61021b6004803603602081101561048257600080fd5b50356001600160a01b03166115a6565b6102cd600480360360408110156104a857600080fd5b506001600160a01b0381351690602001356115b9565b610211600480360360208110156104d457600080fd5b8101906020810181356401000000008111156104ef57600080fd5b82018360208201111561050157600080fd5b8035906020019184600183028401116401000000008311171561052357600080fd5b5090925090506115e1565b6102116004803603604081101561054457600080fd5b506001600160a01b0381351690602001356118a0565b6102116004803603602081101561057057600080fd5b50356001600160a01b03166118bc565b6102cd6004803603604081101561059657600080fd5b506001600160a01b038135169060200135611974565b610211600480360360408110156105c257600080fd5b5080359060200135611991565b6103d6600480360360408110156105e557600080fd5b5060ff8135169060200135611b7f565b6103d6611bb4565b61033b611be5565b610211611c40565b6102116004803603604081101561062357600080fd5b506001600160a01b038135169060200135611c52565b6102116004803603604081101561064f57600080fd5b5060ff8135169060200135611e07565b6102116004803603602081101561067557600080fd5b50356001600160a01b0316611f99565b61033b611feb565b610211600480360360208110156106a357600080fd5b8101906020810181356401000000008111156106be57600080fd5b8201836020820111156106d057600080fd5b803590602001918460018302840111640100000000831117156106f257600080fd5b50909250905061204c565b61070d61070861205d565b6115a6565b6107485760405162461bcd60e51b81526004018080602001828103825260308152602001806128b26030913960400191505060405180910390fd5b6107506109be565b61078f576040805162461bcd60e51b81526020600482015260186024820152600080516020612842833981519152604482015290519081900360640190fd5b60408051808201909152601981527f41535345545f414444524553535f49535f52455155495245440000000000000060208201526107dd906001600160a01b0385169063ffffffff61206116565b6107ef836001600160a01b03166120f4565b610840576040805162461bcd60e51b815260206004820152601860248201527f41535345545f4d5553545f42455f415f434f4e54524143540000000000000000604482015290519081900360640190fd5b60008111610895576040805162461bcd60e51b815260206004820152601e60248201527f41535345545f53455454494e475f4d5553545f42455f504f5349544956450000604482015290519081900360640190fd5b816108e7576040805162461bcd60e51b815260206004820152601e60248201527f41535345545f53455454494e475f4d5553545f42455f50524f56494445440000604482015290519081900360640190fd5b6001600160a01b03831660009081526067602090815260408083208584529091529020541561095d576040805162461bcd60e51b815260206004820152601c60248201527f41535345545f53455454494e475f414c52454144595f45584953545300000000604482015290519081900360640190fd5b6001600160a01b03831660008181526067602090815260408083208684528252918290208490558151848152915185939233927f4e2b2a1d532f8cdd2f36d0e7a476aefe318c71603a6259f091e419a0a89b9d0492918290030190a4505050565b604080517f54496e697469616c697a61626c652e6973496e697469616c697a6564000000008152905190819003601c0190205490565b6109ff61070861205d565b610a3a5760405162461bcd60e51b81526004018080602001828103825260308152602001806128b26030913960400191505060405180910390fd5b610a426109be565b610a81576040805162461bcd60e51b81526020600482015260186024820152600080516020612842833981519152604482015290519081900360640190fd5b60ff83166000908152606860205260409020548210610ae1576040805162461bcd60e51b8152602060048201526017602482015276444154415f50524f56494445525f4f55545f52414e474560481b604482015290519081900360640190fd5b610af3816001600160a01b03166120f4565b610b44576040805162461bcd60e51b815260206004820181905260248201527f444154415f50524f56494445525f4d5553545f42455f415f434f4e5452414354604482015290519081900360640190fd5b60ff83166000908152606860205260408120805484908110610b6257fe5b6000918252602090912001546001600160a01b0390811691508216811415610bca576040805162461bcd60e51b81526020600482015260166024820152751110551057d41493d59251115497d4d0535157d3d31160521b604482015290519081900360640190fd5b60ff84166000908152606860205260409020805483919085908110610beb57fe5b60009182526020918290200180546001600160a01b0319166001600160a01b03938416179055604080518484168152928516918301919091528051859260ff88169233927f0cfb4a3ec1b7e9642ff5a9d5c53a4d45fb0871cb91ddeb6843fa15446a905da89281900390910190a450505050565b610c6a61070861205d565b610ca55760405162461bcd60e51b81526004018080602001828103825260308152602001806128b26030913960400191505060405180910390fd5b610cad6109be565b610cec576040805162461bcd60e51b81526020600482015260186024820152600080516020612842833981519152604482015290519081900360640190fd5b80610d3e576040805162461bcd60e51b815260206004820181905260248201527f47454e4552414c5f53455454494e475f4d5553545f42455f50524f5649444544604482015290519081900360640190fd5b600081815260666020526040902054610d9e576040805162461bcd60e51b815260206004820152601960248201527f47454e4552414c5f53455454494e475f4e4f545f464f554e4400000000000000604482015290519081900360640190fd5b6000818152606660209081526040808320805493905580518381529051849233927f64b824064ba5f9a711e28ee6f31bed7d78d59f61ed17d91ded066e6bb2d67c09929081900390910190a35050565b610df961070861205d565b610e345760405162461bcd60e51b81526004018080602001828103825260308152602001806128b26030913960400191505060405180910390fd5b610e3c6109be565b610e7b576040805162461bcd60e51b81526020600482015260186024820152600080516020612842833981519152604482015290519081900360640190fd5b610e8d816001600160a01b03166120f4565b610ede576040805162461bcd60e51b815260206004820181905260248201527f444154415f50524f56494445525f4d5553545f42455f415f434f4e5452414354604482015290519081900360640190fd5b60ff82166000908152606860205260409020610f00908263ffffffff61213016565b5060ff82166000818152606860209081526040918290205482518181526001600160a01b03861692810192909252825190939233927f4b06ae69d9b887cca351ba3afbff3946bf4294dd48a17623dce1e78f1b56de6f929081900390910190a3505050565b60009081526066602052604090205490565b610f7f6109be565b15610fd1576040805162461bcd60e51b815260206004820152601c60248201527f434f4e54524143545f414c52454144595f494e495449414c495a454400000000604482015290519081900360640190fd5b610fda82612219565b610fe3816118bc565b610feb6122cc565b5050565b606a6020526000908152604090205481565b606b8054604080516020601f600260001961010060018816150201909516949094049384018190048102820181019092528281526060939092909183018282801561108d5780601f106110625761010080835404028352916020019161108d565b820191906000526020600020905b81548152906001019060200180831161107057829003601f168201915b505050505090505b90565b60ff82166000908152606860205260408120548210156110ec5760ff831660009081526068602052604090208054839081106110d057fe5b6000918252602090912001546001600160a01b031690506110f0565b5060005b92915050565b60666020526000908152604090205481565b61111361070861205d565b61114e5760405162461bcd60e51b81526004018080602001828103825260308152602001806128b26030913960400191505060405180910390fd5b6111566109be565b611195576040805162461bcd60e51b81526020600482015260186024820152600080516020612842833981519152604482015290519081900360640190fd5b816111e7576040805162461bcd60e51b815260206004820152601e60248201527f41535345545f53455454494e475f4d5553545f42455f50524f56494445440000604482015290519081900360640190fd5b6001600160a01b0383166000908152606760209081526040808320858452909152902054611256576040805162461bcd60e51b81526020600482015260176024820152761054d4d15517d4d15515125391d7d393d517d193d55391604a1b604482015290519081900360640190fd5b6001600160a01b03831660009081526067602090815260408083208584529091529020548114156112c6576040805162461bcd60e51b8152602060048201526015602482015274139155d7d59053155157d4d0535157d054d7d3d311605a1b604482015290519081900360640190fd5b6001600160a01b03831660008181526067602090815260408083208684528252918290208054908590558251818152918201859052825190938693909233927fa8758afbf0f8c4b4ef4b4d92735b7d381ed303b8f7fdb7141b614893333071ff929181900390910190a450505050565b61134161070861205d565b61137c5760405162461bcd60e51b81526004018080602001828103825260308152602001806128b26030913960400191505060405180910390fd5b6113846109be565b6113c3576040805162461bcd60e51b81526020600482015260186024820152600080516020612842833981519152604482015290519081900360640190fd5b60008111611418576040805162461bcd60e51b815260206004820181905260248201527f47454e4552414c5f53455454494e475f4d5553545f42455f504f534954495645604482015290519081900360640190fd5b8161146a576040805162461bcd60e51b815260206004820181905260248201527f47454e4552414c5f53455454494e475f4d5553545f42455f50524f5649444544604482015290519081900360640190fd5b600082815260666020526040902054156114cb576040805162461bcd60e51b815260206004820152601e60248201527f47454e4552414c5f53455454494e475f414c52454144595f4558495354530000604482015290519081900360640190fd5b60008281526066602090815260409182902083905581518381529151849233927fa84d348826464d2d201d0d77ea7dc4d82796f44d75339956329cfa7d7505209592918290030190a35050565b606b805460408051602060026001851615610100026000190190941693909304601f8101849004840282018401909252818152929183018282801561159e5780601f106115735761010080835404028352916020019161159e565b820191906000526020600020905b81548152906001019060200180831161158157829003601f168201915b505050505081565b60006110f060338363ffffffff61230416565b6001600160a01b03919091166000908152606760209081526040808320938352929052205490565b6115ec61070861205d565b6116275760405162461bcd60e51b81526004018080602001828103825260308152602001806128b26030913960400191505060405180910390fd5b61162f6109be565b61166e576040805162461bcd60e51b81526020600482015260186024820152600080516020612842833981519152604482015290519081900360640190fd5b606082828080601f01602080910402602001604051908101604052809392919081815260200183838082843760009201919091525050825192935050506116f0576040805162461bcd60e51b81526020600482015260116024820152704352415f43414e545f42455f454d50545960781b604482015290519081900360640190fd5b828260405160200180838380828437808301925050509250505060405160208183030381529060405280519060200120606960405160200180828054600181600116156101000203166002900480156117805780601f1061175e576101008083540402835291820191611780565b820191906000526020600020905b81548152906001019060200180831161176c575b50509150506040516020818303038152906040528051906020012014156117e0576040805162461bcd60e51b815260206004820152600f60248201526e10d49057d4d0535157d054d7d3d311608a1b604482015290519081900360640190fd5b6117ec60698484612768565b50604080516020808252606980546002600019610100600184161502019091160491830182905233937fb4915414e30db66320f027ab0e664557729f5f3c1c8bedf2fd6c80c14821450393919282918201908490801561188d5780601f106118625761010080835404028352916020019161188d565b820191906000526020600020905b81548152906001019060200180831161187057829003601f168201915b50509250505060405180910390a2505050565b6001600160a01b039091166000908152606a6020526040902055565b600054610100900460ff16806118d557506118d561236b565b806118e3575060005460ff16155b61191e5760405162461bcd60e51b815260040180806020018281038252602e815260200180612884602e913960400191505060405180910390fd5b600054610100900460ff16158015611949576000805460ff1961ff0019909116610100171660011790555b611952826115a6565b61195f5761195f82612371565b8015610feb576000805461ff00191690555050565b606760209081526000928352604080842090915290825290205481565b61199c61070861205d565b6119d75760405162461bcd60e51b81526004018080602001828103825260308152602001806128b26030913960400191505060405180910390fd5b6119df6109be565b611a1e576040805162461bcd60e51b81526020600482015260186024820152600080516020612842833981519152604482015290519081900360640190fd5b60008111611a73576040805162461bcd60e51b815260206004820181905260248201527f47454e4552414c5f53455454494e475f4d5553545f42455f504f534954495645604482015290519081900360640190fd5b81611ac5576040805162461bcd60e51b815260206004820181905260248201527f47454e4552414c5f53455454494e475f4d5553545f42455f50524f5649444544604482015290519081900360640190fd5b60008281526066602052604090205481811415611b29576040805162461bcd60e51b815260206004820152601e60248201527f47454e4552414c5f53455454494e475f455155414c5f50524556494f55530000604482015290519081900360640190fd5b60008381526066602090815260409182902084905581518381529081018490528151859233927fbdc6847efd3cf5c90267963135d5f671a98c9d84407132bc5c617647004a10eb929081900390910190a3505050565b60686020528160005260406000208181548110611b9857fe5b6000918252602090912001546001600160a01b03169150829050565b6040805177426173655570677261646561626c652e73657474696e677360401b815290519081900360180190205490565b6069805460408051602060026001851615610100026000190190941693909304601f8101849004840282018401909252818152929183018282801561159e5780601f106115735761010080835404028352916020019161159e565b611c50611c4b61205d565b6123b9565b565b611c5d61070861205d565b611c985760405162461bcd60e51b81526004018080602001828103825260308152602001806128b26030913960400191505060405180910390fd5b611ca06109be565b611cdf576040805162461bcd60e51b81526020600482015260186024820152600080516020612842833981519152604482015290519081900360640190fd5b80611d31576040805162461bcd60e51b815260206004820152601e60248201527f41535345545f53455454494e475f4d5553545f42455f50524f56494445440000604482015290519081900360640190fd5b6001600160a01b0382166000908152606760209081526040808320848452909152902054611da0576040805162461bcd60e51b81526020600482015260176024820152761054d4d15517d4d15515125391d7d393d517d193d55391604a1b604482015290519081900360640190fd5b6001600160a01b0382166000818152606760209081526040808320858452825280832080549390558051838152905192938593909233927ff5ba73f066388776178abfcfe035e67f00f6b310383dbf8f3fa169c0d09c1896929081900390910190a4505050565b611e1261070861205d565b611e4d5760405162461bcd60e51b81526004018080602001828103825260308152602001806128b26030913960400191505060405180910390fd5b611e556109be565b611e94576040805162461bcd60e51b81526020600482015260186024820152600080516020612842833981519152604482015290519081900360640190fd5b60ff82166000908152606860205260409020548110611ef4576040805162461bcd60e51b8152602060048201526017602482015276444154415f50524f56494445525f4f55545f52414e474560481b604482015290519081900360640190fd5b60ff82166000908152606860205260408120805483908110611f1257fe5b600091825260208083209091015460ff86168352606890915260409091206001600160a01b039091169150611f4d908363ffffffff61240116565b50604080516001600160a01b03831681529051839160ff86169133917f87e168848439c4433c472d3b85394ea6e659ca4e0fbeecee6f1dda9331e65d33919081900360200190a4505050565b611fa461070861205d565b611fdf5760405162461bcd60e51b81526004018080602001828103825260308152602001806128b26030913960400191505060405180910390fd5b611fe881612371565b50565b60698054604080516020601f600260001961010060018816150201909516949094049384018190048102820181019092528281526060939092909183018282801561108d5780601f106110625761010080835404028352916020019161108d565b612058606b8383612768565b505050565b3390565b61206a82612672565b81906120585760405162461bcd60e51b81526004018080602001828103825283818151815260200191508051906020019080838360005b838110156120b95781810151838201526020016120a1565b50505050905090810190601f1680156120e65780820380516001836020036101000a031916815260200191505b509250505060405180910390fd5b6000813f7fc5d2460186f7233c927e7db2dcc703c0e500b653ca82273b7bfad8045d85a47081811480159061212857508115155b949350505050565b60606001600160a01b03821661218d576040805162461bcd60e51b815260206004820152601960248201527f454d5054595f414444524553535f4e4f545f414c4c4f57454400000000000000604482015290519081900360640190fd5b8254600181018455600084815260209081902090910180546001600160a01b0319166001600160a01b038516179055835460408051828402810184019091528181529185919083018282801561220c57602002820191906000526020600020905b81546001600160a01b031681526001909101906020018083116121ee575b5050505050905092915050565b6000612223611bb4565b6001600160a01b03161461229957612243816001600160a01b03166120f4565b612294576040805162461bcd60e51b815260206004820152601b60248201527f53455454494e47535f4d5553545f42455f415f434f4e54524143540000000000604482015290519081900360640190fd5b611fe8565b6040805177426173655570677261646561626c652e73657474696e677360401b8152905190819003601801902081905550565b604080517f54496e697469616c697a61626c652e6973496e697469616c697a6564000000008152905190819003601c01902060019055565b60006001600160a01b03821661234b5760405162461bcd60e51b81526004018080602001828103825260228152602001806128626022913960400191505060405180910390fd5b506001600160a01b03166000908152602091909152604090205460ff1690565b303b1590565b61238260338263ffffffff61268016565b6040516001600160a01b038216907f47d1c22a25bb3a5d4e481b9b1e6944c2eade3181a0a20b495ed61d35b5323f2490600090a250565b6123ca60338263ffffffff61270116565b6040516001600160a01b038216907f3525e22824a8a7df2c9a6029941c824cf95b6447f1e13d5128fd3826d35afe8b90600090a250565b815460609082106124695782546040805160208084028201810190925282815291859183018282801561245d57602002820191906000526020600020905b81546001600160a01b0316815260019091019060200180831161243f575b505050505090506110f0565b82546000190182141561250d5782548390600019810190811061248857fe5b600091825260209091200180546001600160a01b031916905582546124b18460001983016127e6565b5082546040805160208084028201810190925282815291859183018282801561245d576020028201919060005260206000209081546001600160a01b0316815260019091019060200180831161243f57505050505090506110f0565b82546000908490600019810190811061252257fe5b60009182526020909120015484546001600160a01b03909116915084908490811061254957fe5b60009182526020909120015484546001600160a01b03909116908590600019810190811061257357fe5b9060005260206000200160006101000a8154816001600160a01b0302191690836001600160a01b03160217905550808484815481106125ae57fe5b600091825260209091200180546001600160a01b0319166001600160a01b03929092169190911790558354849060001981019081106125e957fe5b600091825260209091200180546001600160a01b031916905583546126128560001983016127e6565b5083546040805160208084028201810190925282815291869183018282801561266457602002820191906000526020600020905b81546001600160a01b03168152600190910190602001808311612646575b505050505091505092915050565b6001600160a01b0316151590565b61268a8282612304565b156126dc576040805162461bcd60e51b815260206004820152601f60248201527f526f6c65733a206163636f756e7420616c72656164792068617320726f6c6500604482015290519081900360640190fd5b6001600160a01b0316600090815260209190915260409020805460ff19166001179055565b61270b8282612304565b6127465760405162461bcd60e51b81526004018080602001828103825260218152602001806128216021913960400191505060405180910390fd5b6001600160a01b0316600090815260209190915260409020805460ff19169055565b828054600181600116156101000203166002900490600052602060002090601f016020900481019282601f106127a95782800160ff198235161785556127d6565b828001600101855582156127d6579182015b828111156127d65782358255916020019190600101906127bb565b506127e2929150612806565b5090565b815481835581811115612058576000838152602090206120589181019083015b61109591905b808211156127e2576000815560010161280c56fe526f6c65733a206163636f756e7420646f6573206e6f74206861766520726f6c65434f4e54524143545f4e4f545f494e495449414c495a45440000000000000000526f6c65733a206163636f756e7420697320746865207a65726f2061646472657373436f6e747261637420696e7374616e63652068617320616c7265616479206265656e20696e697469616c697a65645369676e6572526f6c653a2063616c6c657220646f6573206e6f74206861766520746865205369676e657220726f6c65a265627a7a723158207403415e1f642fea0b103eb3bfafb7743ba4a1b6aae761c4fa10f9bc90108f6864736f6c63430005110032",
  "source": "pragma solidity 0.5.17;\n\n// Interfaces\nimport \"../../atm/ATMGovernance.sol\";\n\ncontract ATMGovernanceMockV2 is ATMGovernance {\n    /* Constants */\n\n    /* State Variables */\n\n    mapping(address => uint256) public newMapping;\n\n    // Unique CRA - Credit Risk Algorithm github hash to use in this ATM\n    string public newValue;\n\n    /* External Functions */\n\n    function addNewMapping(address key, uint256 value) external {\n        newMapping[key] = value;\n    }\n\n    function setNewValue(string calldata aNewValue) external {\n        newValue = aNewValue;\n    }\n\n    function getNewValue() external view returns (string memory) {\n        return newValue;\n    }\n}\n",
  "sourcePath": "/Users/sy/Documents/GitHub/teller-protocol-v1/contracts/mock/atm/ATMGovernanceMockV2.sol",
  "compiler": {
    "name": "solc",
    "version": "0.5.17+commit.d19bba13.Emscripten.clang"
  },
  "schemaVersion": "3.0.23",
  "updatedAt": "2020-09-06T02:15:12.417Z",
  "devdoc": {
    "methods": {
      "addAssetMarketSetting(address,bytes32,uint256)": {
        "params": {
          "asset": "market specific asset address.",
          "settingName": "name of the setting to be added.",
          "settingValue": "value of the setting to be added."
        }
      },
      "addDataProvider(uint8,address)": {
        "params": {
          "dataProvider": "data provider address.",
          "dataTypeIndex": "array index for this Data Type."
        }
      },
      "addGeneralSetting(bytes32,uint256)": {
        "params": {
          "settingName": "name of the setting to be added.",
          "settingValue": "value of the setting to be added."
        }
      },
      "getAssetMarketSetting(address,bytes32)": {
        "params": {
          "asset": "market specific asset address.",
          "settingName": "name of the setting to be returned."
        }
      },
      "getDataProvider(uint8,uint256)": {
        "params": {
          "dataProviderIndex": "data provider index number.",
          "dataTypeIndex": "array index for this Data Type."
        }
      },
      "getGeneralSetting(bytes32)": {
        "params": {
          "settingName": "name of the setting to be returned."
        }
      },
      "initialize(address,address)": {
        "params": {
          "ownerAddress": "the owner address for this ATM Governance.",
          "settingsAddress": "the initial settings address."
        }
      },
      "initialized()": {
        "return": "true if contract is initialized. Otherwise it returns false."
      },
      "removeAssetMarketSetting(address,bytes32)": {
        "params": {
          "asset": "market specific asset address.",
          "settingName": "name of the setting to be added."
        }
      },
      "removeDataProvider(uint8,uint256)": {
        "params": {
          "dataProviderIndex": "data provider index.",
          "dataTypeIndex": "array index for this Data Type."
        }
      },
      "removeGeneralSetting(bytes32)": {
        "params": {
          "settingName": "name of the setting to be removed."
        }
      },
      "setCRA(string)": {
        "params": {
          "_cra": "Credit Risk Algorithm github commit hash."
        }
      },
      "updateAssetMarketSetting(address,bytes32,uint256)": {
        "params": {
          "asset": "market specific asset address.",
          "newValue": "value of the setting to be added.",
          "settingName": "name of the setting to be added."
        }
      },
      "updateDataProvider(uint8,uint256,address)": {
        "params": {
          "dataTypeIndex": "array index for this Data Type.",
          "newProvider": "new data provider address.",
          "providerIndex": "previous data provider index."
        }
      },
      "updateGeneralSetting(bytes32,uint256)": {
        "params": {
          "newValue": "new value to be set for this settingName. ",
          "settingName": "name of the setting to be modified."
        }
      }
    }
  },
  "userdoc": {
    "methods": {
      "addAssetMarketSetting(address,bytes32,uint256)": {
        "notice": "Adds a new Asset Setting from a specific Market on this ATM."
      },
      "addDataProvider(uint8,address)": {
        "notice": "Adds a new Data Provider on a specific Data Type array. This function would accept duplicated data providers for the same data type."
      },
      "addGeneralSetting(bytes32,uint256)": {
        "notice": "Adds a new General Setting to this ATM."
      },
      "getAssetMarketSetting(address,bytes32)": {
        "notice": "Returns an existing Asset Setting value from a specific Market on this ATM."
      },
      "getCRA()": {
        "notice": "Returns current CRA - Credit Risk Algorithm that is being used on this specific ATM. CRA is represented by a Github commit hash of the newly proposed algorithm."
      },
      "getDataProvider(uint8,uint256)": {
        "notice": "Returns a Data Provider on a specific Data Type array."
      },
      "getGeneralSetting(bytes32)": {
        "notice": "Returns a General Setting value from this ATM."
      },
      "initialize(address,address)": {
        "notice": "It initializes this ATM Governance instance."
      },
      "initialized()": {
        "notice": "Gets if the contract is initialized."
      },
      "removeAssetMarketSetting(address,bytes32)": {
        "notice": "Removes an existing Asset Setting from a specific Market on this ATM."
      },
      "removeDataProvider(uint8,uint256)": {
        "notice": "Removes an existing Data Provider on a specific Data Type array."
      },
      "removeGeneralSetting(bytes32)": {
        "notice": "Removes a General Setting from this ATM."
      },
      "setCRA(string)": {
        "notice": "Sets the CRA - Credit Risk Algorithm to be used on this specific ATM. CRA is represented by a Github commit hash of the newly proposed algorithm."
      },
      "settings()": {
        "notice": "The settings contract."
      },
      "updateAssetMarketSetting(address,bytes32,uint256)": {
        "notice": "Updates an existing Asset Setting from a specific Market on this ATM."
      },
      "updateDataProvider(uint8,uint256,address)": {
        "notice": "Updates an existing Data Provider on a specific Data Type array."
      },
      "updateGeneralSetting(bytes32,uint256)": {
        "notice": "Updates an existing General Setting on this ATM."
      }
    }
  }
}