{
  "contractName": "ATMGovernance",
  "abi": [
    {
      "anonymous": false,
      "inputs": [
        {
          "indexed": true,
          "internalType": "address",
          "name": "sender",
          "type": "address"
        },
        {
          "indexed": true,
          "internalType": "address",
          "name": "asset",
          "type": "address"
        },
        {
          "indexed": true,
          "internalType": "bytes32",
          "name": "settingName",
          "type": "bytes32"
        },
        {
          "indexed": false,
          "internalType": "uint256",
          "name": "settingValue",
          "type": "uint256"
        }
      ],
      "name": "AssetMarketSettingAdded",
      "type": "event"
    },
    {
      "anonymous": false,
      "inputs": [
        {
          "indexed": true,
          "internalType": "address",
          "name": "sender",
          "type": "address"
        },
        {
          "indexed": true,
          "internalType": "address",
          "name": "asset",
          "type": "address"
        },
        {
          "indexed": true,
          "internalType": "bytes32",
          "name": "settingName",
          "type": "bytes32"
        },
        {
          "indexed": false,
          "internalType": "uint256",
          "name": "oldValue",
          "type": "uint256"
        }
      ],
      "name": "AssetMarketSettingRemoved",
      "type": "event"
    },
    {
      "anonymous": false,
      "inputs": [
        {
          "indexed": true,
          "internalType": "address",
          "name": "sender",
          "type": "address"
        },
        {
          "indexed": true,
          "internalType": "address",
          "name": "asset",
          "type": "address"
        },
        {
          "indexed": true,
          "internalType": "bytes32",
          "name": "settingName",
          "type": "bytes32"
        },
        {
          "indexed": false,
          "internalType": "uint256",
          "name": "oldValue",
          "type": "uint256"
        },
        {
          "indexed": false,
          "internalType": "uint256",
          "name": "newValue",
          "type": "uint256"
        }
      ],
      "name": "AssetMarketSettingUpdated",
      "type": "event"
    },
    {
      "anonymous": false,
      "inputs": [
        {
          "indexed": true,
          "internalType": "address",
          "name": "sender",
          "type": "address"
        },
        {
          "indexed": false,
          "internalType": "string",
          "name": "craCommitHash",
          "type": "string"
        }
      ],
      "name": "CRASet",
      "type": "event"
    },
    {
      "anonymous": false,
      "inputs": [
        {
          "indexed": true,
          "internalType": "address",
          "name": "sender",
          "type": "address"
        },
        {
          "indexed": true,
          "internalType": "uint8",
          "name": "dataTypeIndex",
          "type": "uint8"
        },
        {
          "indexed": false,
          "internalType": "uint256",
          "name": "amountDataProviders",
          "type": "uint256"
        },
        {
          "indexed": false,
          "internalType": "address",
          "name": "dataProvider",
          "type": "address"
        }
      ],
      "name": "DataProviderAdded",
      "type": "event"
    },
    {
      "anonymous": false,
      "inputs": [
        {
          "indexed": true,
          "internalType": "address",
          "name": "sender",
          "type": "address"
        },
        {
          "indexed": true,
          "internalType": "uint8",
          "name": "dataTypeIndex",
          "type": "uint8"
        },
        {
          "indexed": true,
          "internalType": "uint256",
          "name": "dataProviderIndex",
          "type": "uint256"
        },
        {
          "indexed": false,
          "internalType": "address",
          "name": "dataProvider",
          "type": "address"
        }
      ],
      "name": "DataProviderRemoved",
      "type": "event"
    },
    {
      "anonymous": false,
      "inputs": [
        {
          "indexed": true,
          "internalType": "address",
          "name": "sender",
          "type": "address"
        },
        {
          "indexed": true,
          "internalType": "uint8",
          "name": "dataTypeIndex",
          "type": "uint8"
        },
        {
          "indexed": true,
          "internalType": "uint256",
          "name": "dataProviderIndex",
          "type": "uint256"
        },
        {
          "indexed": false,
          "internalType": "address",
          "name": "oldDataProvider",
          "type": "address"
        },
        {
          "indexed": false,
          "internalType": "address",
          "name": "newDataProvider",
          "type": "address"
        }
      ],
      "name": "DataProviderUpdated",
      "type": "event"
    },
    {
      "anonymous": false,
      "inputs": [
        {
          "indexed": true,
          "internalType": "address",
          "name": "sender",
          "type": "address"
        },
        {
          "indexed": true,
          "internalType": "bytes32",
          "name": "settingName",
          "type": "bytes32"
        },
        {
          "indexed": false,
          "internalType": "uint256",
          "name": "settingValue",
          "type": "uint256"
        }
      ],
      "name": "GeneralSettingAdded",
      "type": "event"
    },
    {
      "anonymous": false,
      "inputs": [
        {
          "indexed": true,
          "internalType": "address",
          "name": "sender",
          "type": "address"
        },
        {
          "indexed": true,
          "internalType": "bytes32",
          "name": "settingName",
          "type": "bytes32"
        },
        {
          "indexed": false,
          "internalType": "uint256",
          "name": "settingValue",
          "type": "uint256"
        }
      ],
      "name": "GeneralSettingRemoved",
      "type": "event"
    },
    {
      "anonymous": false,
      "inputs": [
        {
          "indexed": true,
          "internalType": "address",
          "name": "sender",
          "type": "address"
        },
        {
          "indexed": true,
          "internalType": "bytes32",
          "name": "settingName",
          "type": "bytes32"
        },
        {
          "indexed": false,
          "internalType": "uint256",
          "name": "oldValue",
          "type": "uint256"
        },
        {
          "indexed": false,
          "internalType": "uint256",
          "name": "newValue",
          "type": "uint256"
        }
      ],
      "name": "GeneralSettingUpdated",
      "type": "event"
    },
    {
      "anonymous": false,
      "inputs": [
        {
          "indexed": true,
          "internalType": "address",
          "name": "account",
          "type": "address"
        }
      ],
      "name": "SignerAdded",
      "type": "event"
    },
    {
      "anonymous": false,
      "inputs": [
        {
          "indexed": true,
          "internalType": "address",
          "name": "account",
          "type": "address"
        }
      ],
      "name": "SignerRemoved",
      "type": "event"
    },
    {
      "constant": false,
      "inputs": [
        {
          "internalType": "address",
          "name": "account",
          "type": "address"
        }
      ],
      "name": "addSigner",
      "outputs": [],
      "payable": false,
      "stateMutability": "nonpayable",
      "type": "function"
    },
    {
      "constant": true,
      "inputs": [
        {
          "internalType": "address",
          "name": "",
          "type": "address"
        },
        {
          "internalType": "bytes32",
          "name": "",
          "type": "bytes32"
        }
      ],
      "name": "assetMarketSettings",
      "outputs": [
        {
          "internalType": "uint256",
          "name": "",
          "type": "uint256"
        }
      ],
      "payable": false,
      "stateMutability": "view",
      "type": "function"
    },
    {
      "constant": true,
      "inputs": [],
      "name": "cra",
      "outputs": [
        {
          "internalType": "string",
          "name": "",
          "type": "string"
        }
      ],
      "payable": false,
      "stateMutability": "view",
      "type": "function"
    },
    {
      "constant": true,
      "inputs": [
        {
          "internalType": "uint8",
          "name": "",
          "type": "uint8"
        },
        {
          "internalType": "uint256",
          "name": "",
          "type": "uint256"
        }
      ],
      "name": "dataProviders",
      "outputs": [
        {
          "internalType": "address",
          "name": "",
          "type": "address"
        }
      ],
      "payable": false,
      "stateMutability": "view",
      "type": "function"
    },
    {
      "constant": true,
      "inputs": [
        {
          "internalType": "bytes32",
          "name": "",
          "type": "bytes32"
        }
      ],
      "name": "generalSettings",
      "outputs": [
        {
          "internalType": "uint256",
          "name": "",
          "type": "uint256"
        }
      ],
      "payable": false,
      "stateMutability": "view",
      "type": "function"
    },
    {
      "constant": true,
      "inputs": [],
      "name": "initialized",
      "outputs": [
        {
          "internalType": "bool",
          "name": "value",
          "type": "bool"
        }
      ],
      "payable": false,
      "stateMutability": "view",
      "type": "function"
    },
    {
      "constant": true,
      "inputs": [
        {
          "internalType": "address",
          "name": "account",
          "type": "address"
        }
      ],
      "name": "isSigner",
      "outputs": [
        {
          "internalType": "bool",
          "name": "",
          "type": "bool"
        }
      ],
      "payable": false,
      "stateMutability": "view",
      "type": "function"
    },
    {
      "constant": false,
      "inputs": [],
      "name": "renounceSigner",
      "outputs": [],
      "payable": false,
      "stateMutability": "nonpayable",
      "type": "function"
    },
    {
      "constant": true,
      "inputs": [],
      "name": "settings",
      "outputs": [
        {
          "internalType": "contract SettingsInterface",
          "name": "",
          "type": "address"
        }
      ],
      "payable": false,
      "stateMutability": "view",
      "type": "function"
    },
    {
      "constant": false,
      "inputs": [
        {
          "internalType": "bytes32",
          "name": "settingName",
          "type": "bytes32"
        },
        {
          "internalType": "uint256",
          "name": "settingValue",
          "type": "uint256"
        }
      ],
      "name": "addGeneralSetting",
      "outputs": [],
      "payable": false,
      "stateMutability": "nonpayable",
      "type": "function"
    },
    {
      "constant": false,
      "inputs": [
        {
          "internalType": "bytes32",
          "name": "settingName",
          "type": "bytes32"
        },
        {
          "internalType": "uint256",
          "name": "newValue",
          "type": "uint256"
        }
      ],
      "name": "updateGeneralSetting",
      "outputs": [],
      "payable": false,
      "stateMutability": "nonpayable",
      "type": "function"
    },
    {
      "constant": false,
      "inputs": [
        {
          "internalType": "bytes32",
          "name": "settingName",
          "type": "bytes32"
        }
      ],
      "name": "removeGeneralSetting",
      "outputs": [],
      "payable": false,
      "stateMutability": "nonpayable",
      "type": "function"
    },
    {
      "constant": false,
      "inputs": [
        {
          "internalType": "address",
          "name": "asset",
          "type": "address"
        },
        {
          "internalType": "bytes32",
          "name": "settingName",
          "type": "bytes32"
        },
        {
          "internalType": "uint256",
          "name": "settingValue",
          "type": "uint256"
        }
      ],
      "name": "addAssetMarketSetting",
      "outputs": [],
      "payable": false,
      "stateMutability": "nonpayable",
      "type": "function"
    },
    {
      "constant": false,
      "inputs": [
        {
          "internalType": "address",
          "name": "asset",
          "type": "address"
        },
        {
          "internalType": "bytes32",
          "name": "settingName",
          "type": "bytes32"
        },
        {
          "internalType": "uint256",
          "name": "newValue",
          "type": "uint256"
        }
      ],
      "name": "updateAssetMarketSetting",
      "outputs": [],
      "payable": false,
      "stateMutability": "nonpayable",
      "type": "function"
    },
    {
      "constant": false,
      "inputs": [
        {
          "internalType": "address",
          "name": "asset",
          "type": "address"
        },
        {
          "internalType": "bytes32",
          "name": "settingName",
          "type": "bytes32"
        }
      ],
      "name": "removeAssetMarketSetting",
      "outputs": [],
      "payable": false,
      "stateMutability": "nonpayable",
      "type": "function"
    },
    {
      "constant": false,
      "inputs": [
        {
          "internalType": "uint8",
          "name": "dataTypeIndex",
          "type": "uint8"
        },
        {
          "internalType": "address",
          "name": "dataProvider",
          "type": "address"
        }
      ],
      "name": "addDataProvider",
      "outputs": [],
      "payable": false,
      "stateMutability": "nonpayable",
      "type": "function"
    },
    {
      "constant": false,
      "inputs": [
        {
          "internalType": "uint8",
          "name": "dataTypeIndex",
          "type": "uint8"
        },
        {
          "internalType": "uint256",
          "name": "providerIndex",
          "type": "uint256"
        },
        {
          "internalType": "address",
          "name": "newProvider",
          "type": "address"
        }
      ],
      "name": "updateDataProvider",
      "outputs": [],
      "payable": false,
      "stateMutability": "nonpayable",
      "type": "function"
    },
    {
      "constant": false,
      "inputs": [
        {
          "internalType": "uint8",
          "name": "dataTypeIndex",
          "type": "uint8"
        },
        {
          "internalType": "uint256",
          "name": "dataProviderIndex",
          "type": "uint256"
        }
      ],
      "name": "removeDataProvider",
      "outputs": [],
      "payable": false,
      "stateMutability": "nonpayable",
      "type": "function"
    },
    {
      "constant": false,
      "inputs": [
        {
          "internalType": "string",
          "name": "_cra",
          "type": "string"
        }
      ],
      "name": "setCRA",
      "outputs": [],
      "payable": false,
      "stateMutability": "nonpayable",
      "type": "function"
    },
    {
      "constant": false,
      "inputs": [
        {
          "internalType": "address",
          "name": "sender",
          "type": "address"
        }
      ],
      "name": "initialize",
      "outputs": [],
      "payable": false,
      "stateMutability": "nonpayable",
      "type": "function"
    },
    {
      "constant": false,
      "inputs": [
        {
          "internalType": "address",
          "name": "settingsAddress",
          "type": "address"
        },
        {
          "internalType": "address",
          "name": "ownerAddress",
          "type": "address"
        }
      ],
      "name": "initialize",
      "outputs": [],
      "payable": false,
      "stateMutability": "nonpayable",
      "type": "function"
    },
    {
      "constant": true,
      "inputs": [
        {
          "internalType": "bytes32",
          "name": "settingName",
          "type": "bytes32"
        }
      ],
      "name": "getGeneralSetting",
      "outputs": [
        {
          "internalType": "uint256",
          "name": "",
          "type": "uint256"
        }
      ],
      "payable": false,
      "stateMutability": "view",
      "type": "function"
    },
    {
      "constant": true,
      "inputs": [
        {
          "internalType": "address",
          "name": "asset",
          "type": "address"
        },
        {
          "internalType": "bytes32",
          "name": "settingName",
          "type": "bytes32"
        }
      ],
      "name": "getAssetMarketSetting",
      "outputs": [
        {
          "internalType": "uint256",
          "name": "",
          "type": "uint256"
        }
      ],
      "payable": false,
      "stateMutability": "view",
      "type": "function"
    },
    {
      "constant": true,
      "inputs": [
        {
          "internalType": "uint8",
          "name": "dataTypeIndex",
          "type": "uint8"
        },
        {
          "internalType": "uint256",
          "name": "dataProviderIndex",
          "type": "uint256"
        }
      ],
      "name": "getDataProvider",
      "outputs": [
        {
          "internalType": "address",
          "name": "",
          "type": "address"
        }
      ],
      "payable": false,
      "stateMutability": "view",
      "type": "function"
    },
    {
      "constant": true,
      "inputs": [],
      "name": "getCRA",
      "outputs": [
        {
          "internalType": "string",
          "name": "",
          "type": "string"
        }
      ],
      "payable": false,
      "stateMutability": "view",
      "type": "function"
    }
  ],
  "bytecode": "0x60806040526126ed806100136000396000f3fe608060405234801561001057600080fd5b50600436106101735760003560e01c806380a64ffe116100de578063e06174e411610097578063e9de998c11610071578063e9de998c14610544578063ea93377314610570578063eb12d61e14610596578063ebe1258b146105bc57610173565b8063e06174e4146104b7578063e58f9ce6146104bf578063e5c8b03d1461053c57610173565b806380a64ffe14610380578063b68e29bc146103ac578063c4d66de81461041c578063caae42d514610442578063cbfbf8e91461046e578063df3e576f1461049157610173565b8063485cc95511610130578063485cc955146102785780635bb6eb56146102a65780636d1fcc47146102e8578063702fef3d1461030557806375e80b81146103375780637df73e271461035a57610173565b80630bee83a114610178578063158ef93e146101ac5780631e02a614146101c85780633ea7be7e146101fd5780633f59f9101461021a57806346322f0a14610249575b600080fd5b6101aa6004803603606081101561018e57600080fd5b506001600160a01b0381351690602081013590604001356105c4565b005b6101b4610885565b604080519115158252519081900360200190f35b6101aa600480360360608110156101de57600080fd5b50803560ff1690602081013590604001356001600160a01b03166108bb565b6101aa6004803603602081101561021357600080fd5b5035610b26565b6101aa6004803603604081101561023057600080fd5b50803560ff1690602001356001600160a01b0316610cb5565b6102666004803603602081101561025f57600080fd5b5035610e2c565b60408051918252519081900360200190f35b6101aa6004803603604081101561028e57600080fd5b506001600160a01b0381358116916020013516610e3e565b6102cc600480360360408110156102bc57600080fd5b5060ff8135169060200135610eb6565b604080516001600160a01b039092168252519081900360200190f35b610266600480360360208110156102fe57600080fd5b5035610f14565b6101aa6004803603606081101561031b57600080fd5b506001600160a01b038135169060208101359060400135610f26565b6101aa6004803603604081101561034d57600080fd5b5080359060200135611154565b6101b46004803603602081101561037057600080fd5b50356001600160a01b0316611336565b6102666004803603604081101561039657600080fd5b506001600160a01b038135169060200135611349565b6101aa600480360360208110156103c257600080fd5b8101906020810181356401000000008111156103dd57600080fd5b8201836020820111156103ef57600080fd5b8035906020019184600183028401116401000000008311171561041157600080fd5b509092509050611371565b6101aa6004803603602081101561043257600080fd5b50356001600160a01b0316611630565b6102666004803603604081101561045857600080fd5b506001600160a01b0381351690602001356116e8565b6101aa6004803603604081101561048457600080fd5b5080359060200135611705565b6102cc600480360360408110156104a757600080fd5b5060ff81351690602001356118f3565b6102cc611928565b6104c761195a565b6040805160208082528351818301528351919283929083019185019080838360005b838110156105015781810151838201526020016104e9565b50505050905090810190601f16801561052e5780820380516001836020036101000a031916815260200191505b509250505060405180910390f35b6101aa6119e8565b6101aa6004803603604081101561055a57600080fd5b506001600160a01b0381351690602001356119fa565b6101aa6004803603604081101561058657600080fd5b5060ff8135169060200135611baf565b6101aa600480360360208110156105ac57600080fd5b50356001600160a01b0316611d41565b6104c7611d93565b6105d46105cf611e29565b611336565b61060f5760405162461bcd60e51b81526004018080602001828103825260308152602001806126896030913960400191505060405180910390fd5b610617610885565b610656576040805162461bcd60e51b81526020600482015260186024820152600080516020612619833981519152604482015290519081900360640190fd5b60408051808201909152601981527f41535345545f414444524553535f49535f52455155495245440000000000000060208201526106a4906001600160a01b0385169063ffffffff611e2d16565b6106b6836001600160a01b0316611ec5565b610707576040805162461bcd60e51b815260206004820152601860248201527f41535345545f4d5553545f42455f415f434f4e54524143540000000000000000604482015290519081900360640190fd5b6000811161075c576040805162461bcd60e51b815260206004820152601e60248201527f41535345545f53455454494e475f4d5553545f42455f504f5349544956450000604482015290519081900360640190fd5b816107ae576040805162461bcd60e51b815260206004820152601e60248201527f41535345545f53455454494e475f4d5553545f42455f50524f56494445440000604482015290519081900360640190fd5b6001600160a01b038316600090815260676020908152604080832085845290915290205415610824576040805162461bcd60e51b815260206004820152601c60248201527f41535345545f53455454494e475f414c52454144595f45584953545300000000604482015290519081900360640190fd5b6001600160a01b03831660008181526067602090815260408083208684528252918290208490558151848152915185939233927f4e2b2a1d532f8cdd2f36d0e7a476aefe318c71603a6259f091e419a0a89b9d0492918290030190a4505050565b604080517f54496e697469616c697a61626c652e6973496e697469616c697a6564000000008152905190819003601c0190205490565b6108c66105cf611e29565b6109015760405162461bcd60e51b81526004018080602001828103825260308152602001806126896030913960400191505060405180910390fd5b610909610885565b610948576040805162461bcd60e51b81526020600482015260186024820152600080516020612619833981519152604482015290519081900360640190fd5b60ff831660009081526068602052604090205482106109a8576040805162461bcd60e51b8152602060048201526017602482015276444154415f50524f56494445525f4f55545f52414e474560481b604482015290519081900360640190fd5b6109ba816001600160a01b0316611ec5565b610a0b576040805162461bcd60e51b815260206004820181905260248201527f444154415f50524f56494445525f4d5553545f42455f415f434f4e5452414354604482015290519081900360640190fd5b60ff83166000908152606860205260408120805484908110610a2957fe5b6000918252602090912001546001600160a01b0390811691508216811415610a91576040805162461bcd60e51b81526020600482015260166024820152751110551057d41493d59251115497d4d0535157d3d31160521b604482015290519081900360640190fd5b60ff84166000908152606860205260409020805483919085908110610ab257fe5b60009182526020918290200180546001600160a01b0319166001600160a01b03938416179055604080518484168152928516918301919091528051859260ff88169233927f0cfb4a3ec1b7e9642ff5a9d5c53a4d45fb0871cb91ddeb6843fa15446a905da89281900390910190a450505050565b610b316105cf611e29565b610b6c5760405162461bcd60e51b81526004018080602001828103825260308152602001806126896030913960400191505060405180910390fd5b610b74610885565b610bb3576040805162461bcd60e51b81526020600482015260186024820152600080516020612619833981519152604482015290519081900360640190fd5b80610c05576040805162461bcd60e51b815260206004820181905260248201527f47454e4552414c5f53455454494e475f4d5553545f42455f50524f5649444544604482015290519081900360640190fd5b600081815260666020526040902054610c65576040805162461bcd60e51b815260206004820152601960248201527f47454e4552414c5f53455454494e475f4e4f545f464f554e4400000000000000604482015290519081900360640190fd5b6000818152606660209081526040808320805493905580518381529051849233927f64b824064ba5f9a711e28ee6f31bed7d78d59f61ed17d91ded066e6bb2d67c09929081900390910190a35050565b610cc06105cf611e29565b610cfb5760405162461bcd60e51b81526004018080602001828103825260308152602001806126896030913960400191505060405180910390fd5b610d03610885565b610d42576040805162461bcd60e51b81526020600482015260186024820152600080516020612619833981519152604482015290519081900360640190fd5b610d54816001600160a01b0316611ec5565b610da5576040805162461bcd60e51b815260206004820181905260248201527f444154415f50524f56494445525f4d5553545f42455f415f434f4e5452414354604482015290519081900360640190fd5b60ff82166000908152606860205260409020610dc7908263ffffffff611f0116565b5060ff82166000818152606860209081526040918290205482518181526001600160a01b03861692810192909252825190939233927f4b06ae69d9b887cca351ba3afbff3946bf4294dd48a17623dce1e78f1b56de6f929081900390910190a3505050565b60009081526066602052604090205490565b610e46610885565b15610e98576040805162461bcd60e51b815260206004820152601c60248201527f434f4e54524143545f414c52454144595f494e495449414c495a454400000000604482015290519081900360640190fd5b610ea182611fea565b610eaa81611630565b610eb26120a3565b5050565b60ff8216600090815260686020526040812054821015610f0a5760ff83166000908152606860205260409020805483908110610eee57fe5b6000918252602090912001546001600160a01b03169050610f0e565b5060005b92915050565b60666020526000908152604090205481565b610f316105cf611e29565b610f6c5760405162461bcd60e51b81526004018080602001828103825260308152602001806126896030913960400191505060405180910390fd5b610f74610885565b610fb3576040805162461bcd60e51b81526020600482015260186024820152600080516020612619833981519152604482015290519081900360640190fd5b81611005576040805162461bcd60e51b815260206004820152601e60248201527f41535345545f53455454494e475f4d5553545f42455f50524f56494445440000604482015290519081900360640190fd5b6001600160a01b0383166000908152606760209081526040808320858452909152902054611074576040805162461bcd60e51b81526020600482015260176024820152761054d4d15517d4d15515125391d7d393d517d193d55391604a1b604482015290519081900360640190fd5b6001600160a01b03831660009081526067602090815260408083208584529091529020548114156110e4576040805162461bcd60e51b8152602060048201526015602482015274139155d7d59053155157d4d0535157d054d7d3d311605a1b604482015290519081900360640190fd5b6001600160a01b03831660008181526067602090815260408083208684528252918290208054908590558251818152918201859052825190938693909233927fa8758afbf0f8c4b4ef4b4d92735b7d381ed303b8f7fdb7141b614893333071ff929181900390910190a450505050565b61115f6105cf611e29565b61119a5760405162461bcd60e51b81526004018080602001828103825260308152602001806126896030913960400191505060405180910390fd5b6111a2610885565b6111e1576040805162461bcd60e51b81526020600482015260186024820152600080516020612619833981519152604482015290519081900360640190fd5b60008111611236576040805162461bcd60e51b815260206004820181905260248201527f47454e4552414c5f53455454494e475f4d5553545f42455f504f534954495645604482015290519081900360640190fd5b81611288576040805162461bcd60e51b815260206004820181905260248201527f47454e4552414c5f53455454494e475f4d5553545f42455f50524f5649444544604482015290519081900360640190fd5b600082815260666020526040902054156112e9576040805162461bcd60e51b815260206004820152601e60248201527f47454e4552414c5f53455454494e475f414c52454144595f4558495354530000604482015290519081900360640190fd5b60008281526066602090815260409182902083905581518381529151849233927fa84d348826464d2d201d0d77ea7dc4d82796f44d75339956329cfa7d7505209592918290030190a35050565b6000610f0e60338363ffffffff6120db16565b6001600160a01b03919091166000908152606760209081526040808320938352929052205490565b61137c6105cf611e29565b6113b75760405162461bcd60e51b81526004018080602001828103825260308152602001806126896030913960400191505060405180910390fd5b6113bf610885565b6113fe576040805162461bcd60e51b81526020600482015260186024820152600080516020612619833981519152604482015290519081900360640190fd5b606082828080601f0160208091040260200160405190810160405280939291908181526020018383808284376000920191909152505082519293505050611480576040805162461bcd60e51b81526020600482015260116024820152704352415f43414e545f42455f454d50545960781b604482015290519081900360640190fd5b828260405160200180838380828437808301925050509250505060405160208183030381529060405280519060200120606960405160200180828054600181600116156101000203166002900480156115105780601f106114ee576101008083540402835291820191611510565b820191906000526020600020905b8154815290600101906020018083116114fc575b5050915050604051602081830303815290604052805190602001201415611570576040805162461bcd60e51b815260206004820152600f60248201526e10d49057d4d0535157d054d7d3d311608a1b604482015290519081900360640190fd5b61157c6069848461253f565b50604080516020808252606980546002600019610100600184161502019091160491830182905233937fb4915414e30db66320f027ab0e664557729f5f3c1c8bedf2fd6c80c14821450393919282918201908490801561161d5780601f106115f25761010080835404028352916020019161161d565b820191906000526020600020905b81548152906001019060200180831161160057829003601f168201915b50509250505060405180910390a2505050565b600054610100900460ff16806116495750611649612142565b80611657575060005460ff16155b6116925760405162461bcd60e51b815260040180806020018281038252602e81526020018061265b602e913960400191505060405180910390fd5b600054610100900460ff161580156116bd576000805460ff1961ff0019909116610100171660011790555b6116c682611336565b6116d3576116d382612148565b8015610eb2576000805461ff00191690555050565b606760209081526000928352604080842090915290825290205481565b6117106105cf611e29565b61174b5760405162461bcd60e51b81526004018080602001828103825260308152602001806126896030913960400191505060405180910390fd5b611753610885565b611792576040805162461bcd60e51b81526020600482015260186024820152600080516020612619833981519152604482015290519081900360640190fd5b600081116117e7576040805162461bcd60e51b815260206004820181905260248201527f47454e4552414c5f53455454494e475f4d5553545f42455f504f534954495645604482015290519081900360640190fd5b81611839576040805162461bcd60e51b815260206004820181905260248201527f47454e4552414c5f53455454494e475f4d5553545f42455f50524f5649444544604482015290519081900360640190fd5b6000828152606660205260409020548181141561189d576040805162461bcd60e51b815260206004820152601e60248201527f47454e4552414c5f53455454494e475f455155414c5f50524556494f55530000604482015290519081900360640190fd5b60008381526066602090815260409182902084905581518381529081018490528151859233927fbdc6847efd3cf5c90267963135d5f671a98c9d84407132bc5c617647004a10eb929081900390910190a3505050565b6068602052816000526040600020818154811061190c57fe5b6000918252602090912001546001600160a01b03169150829050565b6040805177426173655570677261646561626c652e73657474696e677360401b81529051908190036018019020545b90565b6069805460408051602060026001851615610100026000190190941693909304601f810184900484028201840190925281815292918301828280156119e05780601f106119b5576101008083540402835291602001916119e0565b820191906000526020600020905b8154815290600101906020018083116119c357829003601f168201915b505050505081565b6119f86119f3611e29565b612190565b565b611a056105cf611e29565b611a405760405162461bcd60e51b81526004018080602001828103825260308152602001806126896030913960400191505060405180910390fd5b611a48610885565b611a87576040805162461bcd60e51b81526020600482015260186024820152600080516020612619833981519152604482015290519081900360640190fd5b80611ad9576040805162461bcd60e51b815260206004820152601e60248201527f41535345545f53455454494e475f4d5553545f42455f50524f56494445440000604482015290519081900360640190fd5b6001600160a01b0382166000908152606760209081526040808320848452909152902054611b48576040805162461bcd60e51b81526020600482015260176024820152761054d4d15517d4d15515125391d7d393d517d193d55391604a1b604482015290519081900360640190fd5b6001600160a01b0382166000818152606760209081526040808320858452825280832080549390558051838152905192938593909233927ff5ba73f066388776178abfcfe035e67f00f6b310383dbf8f3fa169c0d09c1896929081900390910190a4505050565b611bba6105cf611e29565b611bf55760405162461bcd60e51b81526004018080602001828103825260308152602001806126896030913960400191505060405180910390fd5b611bfd610885565b611c3c576040805162461bcd60e51b81526020600482015260186024820152600080516020612619833981519152604482015290519081900360640190fd5b60ff82166000908152606860205260409020548110611c9c576040805162461bcd60e51b8152602060048201526017602482015276444154415f50524f56494445525f4f55545f52414e474560481b604482015290519081900360640190fd5b60ff82166000908152606860205260408120805483908110611cba57fe5b600091825260208083209091015460ff86168352606890915260409091206001600160a01b039091169150611cf5908363ffffffff6121d816565b50604080516001600160a01b03831681529051839160ff86169133917f87e168848439c4433c472d3b85394ea6e659ca4e0fbeecee6f1dda9331e65d33919081900360200190a4505050565b611d4c6105cf611e29565b611d875760405162461bcd60e51b81526004018080602001828103825260308152602001806126896030913960400191505060405180910390fd5b611d9081612148565b50565b60698054604080516020601f6002600019610100600188161502019095169490940493840181900481028201810190925282815260609390929091830182828015611e1f5780601f10611df457610100808354040283529160200191611e1f565b820191906000526020600020905b815481529060010190602001808311611e0257829003601f168201915b5050505050905090565b3390565b611e3682612449565b8190611ec05760405162461bcd60e51b81526004018080602001828103825283818151815260200191508051906020019080838360005b83811015611e85578181015183820152602001611e6d565b50505050905090810190601f168015611eb25780820380516001836020036101000a031916815260200191505b509250505060405180910390fd5b505050565b6000813f7fc5d2460186f7233c927e7db2dcc703c0e500b653ca82273b7bfad8045d85a470818114801590611ef957508115155b949350505050565b60606001600160a01b038216611f5e576040805162461bcd60e51b815260206004820152601960248201527f454d5054595f414444524553535f4e4f545f414c4c4f57454400000000000000604482015290519081900360640190fd5b8254600181018455600084815260209081902090910180546001600160a01b0319166001600160a01b0385161790558354604080518284028101840190915281815291859190830182828015611fdd57602002820191906000526020600020905b81546001600160a01b03168152600190910190602001808311611fbf575b5050505050905092915050565b612003611ff5611928565b6001600160a01b0316612449565b1561200d57611d90565b61201f816001600160a01b0316611ec5565b612070576040805162461bcd60e51b815260206004820152601b60248201527f53455454494e47535f4d5553545f42455f415f434f4e54524143540000000000604482015290519081900360640190fd5b6040805177426173655570677261646561626c652e73657474696e677360401b8152905190819003601801902081905550565b604080517f54496e697469616c697a61626c652e6973496e697469616c697a6564000000008152905190819003601c01902060019055565b60006001600160a01b0382166121225760405162461bcd60e51b81526004018080602001828103825260228152602001806126396022913960400191505060405180910390fd5b506001600160a01b03166000908152602091909152604090205460ff1690565b303b1590565b61215960338263ffffffff61245716565b6040516001600160a01b038216907f47d1c22a25bb3a5d4e481b9b1e6944c2eade3181a0a20b495ed61d35b5323f2490600090a250565b6121a160338263ffffffff6124d816565b6040516001600160a01b038216907f3525e22824a8a7df2c9a6029941c824cf95b6447f1e13d5128fd3826d35afe8b90600090a250565b815460609082106122405782546040805160208084028201810190925282815291859183018282801561223457602002820191906000526020600020905b81546001600160a01b03168152600190910190602001808311612216575b50505050509050610f0e565b8254600019018214156122e45782548390600019810190811061225f57fe5b600091825260209091200180546001600160a01b031916905582546122888460001983016125bd565b50825460408051602080840282018101909252828152918591830182828015612234576020028201919060005260206000209081546001600160a01b031681526001909101906020018083116122165750505050509050610f0e565b8254600090849060001981019081106122f957fe5b60009182526020909120015484546001600160a01b03909116915084908490811061232057fe5b60009182526020909120015484546001600160a01b03909116908590600019810190811061234a57fe5b9060005260206000200160006101000a8154816001600160a01b0302191690836001600160a01b031602179055508084848154811061238557fe5b600091825260209091200180546001600160a01b0319166001600160a01b03929092169190911790558354849060001981019081106123c057fe5b600091825260209091200180546001600160a01b031916905583546123e98560001983016125bd565b5083546040805160208084028201810190925282815291869183018282801561243b57602002820191906000526020600020905b81546001600160a01b0316815260019091019060200180831161241d575b505050505091505092915050565b6001600160a01b0316151590565b61246182826120db565b156124b3576040805162461bcd60e51b815260206004820152601f60248201527f526f6c65733a206163636f756e7420616c72656164792068617320726f6c6500604482015290519081900360640190fd5b6001600160a01b0316600090815260209190915260409020805460ff19166001179055565b6124e282826120db565b61251d5760405162461bcd60e51b81526004018080602001828103825260218152602001806125f86021913960400191505060405180910390fd5b6001600160a01b0316600090815260209190915260409020805460ff19169055565b828054600181600116156101000203166002900490600052602060002090601f016020900481019282601f106125805782800160ff198235161785556125ad565b828001600101855582156125ad579182015b828111156125ad578235825591602001919060010190612592565b506125b99291506125dd565b5090565b815481835581811115611ec057600083815260209020611ec09181019083015b61195791905b808211156125b957600081556001016125e356fe526f6c65733a206163636f756e7420646f6573206e6f74206861766520726f6c65434f4e54524143545f4e4f545f494e495449414c495a45440000000000000000526f6c65733a206163636f756e7420697320746865207a65726f2061646472657373436f6e747261637420696e7374616e63652068617320616c7265616479206265656e20696e697469616c697a65645369676e6572526f6c653a2063616c6c657220646f6573206e6f74206861766520746865205369676e657220726f6c65a265627a7a723158205f50102ee7504b45fcf236c78e5efd9f0db7942461bc39a7665bd737675bb34764736f6c63430005110032",
  "source": "pragma solidity 0.5.17;\n\n// External Libraries\nimport \"@openzeppelin/contracts-ethereum-package/contracts/utils/Address.sol\";\n\n// Common\nimport \"../util/AddressArrayLib.sol\";\nimport \"../util/AddressLib.sol\";\nimport \"../base/TInitializable.sol\";\n\n// Contracts\nimport \"@openzeppelin/contracts-ethereum-package/contracts/access/roles/SignerRole.sol\";\nimport \"../base/BaseUpgradeable.sol\";\n\n// Interfaces\nimport \"./ATMGovernanceInterface.sol\";\n\n/*****************************************************************************************************/\n/**                                             WARNING                                             **/\n/**                                  THIS CONTRACT IS UPGRADEABLE!                                  **/\n/**  ---------------------------------------------------------------------------------------------  **/\n/**  Do NOT change the order of or PREPEND any storage variables to this or new versions of this    **/\n/**  contract as this will cause the the storage slots to be overwritten on the proxy contract!!    **/\n/**                                                                                                 **/\n/**  Visit https://docs.openzeppelin.com/upgrades/2.6/proxies#upgrading-via-the-proxy-pattern for   **/\n/**  more information.                                                                              **/\n/*****************************************************************************************************/\n/**\n    @notice This contract is used to modify Risk Settings, CRA or DataProviders for a specific ATM.\n\n    @author develop@teller.finance\n */\ncontract ATMGovernance is\n    ATMGovernanceInterface,\n    TInitializable,\n    SignerRole,\n    BaseUpgradeable\n{\n    using AddressArrayLib for address[];\n    using AddressLib for address;\n    using Address for address;\n\n    /* Constants */\n\n    /* State Variables */\n\n    // List of general ATM settings. We don't accept settings equal to zero.\n    // Example: supplyToDebtRatio  => 5044 = percentage 50.44\n    // Example: supplyToDebtRatio => 1 = percentage 00.01\n    mapping(bytes32 => uint256) public generalSettings;\n\n    // List of Market specific Asset settings on this ATM\n    // Asset address => Asset setting name => Asset setting value\n    // Example 1: USDC address => Risk Premium => 2500 (25%)\n    // Example 2: DAI address => Risk Premium => 3500 (35%)\n    mapping(address => mapping(bytes32 => uint256)) public assetMarketSettings;\n\n    // List of ATM Data providers per data type\n    mapping(uint8 => address[]) public dataProviders;\n\n    // Unique CRA - Credit Risk Algorithm github hash to use in this ATM\n    string public cra;\n\n    /* External Functions */\n\n    /**\n        @notice Adds a new General Setting to this ATM.\n        @param settingName name of the setting to be added.\n        @param settingValue value of the setting to be added.\n     */\n    function addGeneralSetting(bytes32 settingName, uint256 settingValue)\n        external\n        onlySigner()\n        isInitialized()\n    {\n        require(settingValue > 0, \"GENERAL_SETTING_MUST_BE_POSITIVE\");\n        require(settingName != \"\", \"GENERAL_SETTING_MUST_BE_PROVIDED\");\n        require(generalSettings[settingName] == 0, \"GENERAL_SETTING_ALREADY_EXISTS\");\n        generalSettings[settingName] = settingValue;\n        emit GeneralSettingAdded(msg.sender, settingName, settingValue);\n    }\n\n    /**\n        @notice Updates an existing General Setting on this ATM.\n        @param settingName name of the setting to be modified.\n        @param newValue new value to be set for this settingName. \n     */\n    function updateGeneralSetting(bytes32 settingName, uint256 newValue)\n        external\n        onlySigner()\n        isInitialized()\n    {\n        require(newValue > 0, \"GENERAL_SETTING_MUST_BE_POSITIVE\");\n        require(settingName != \"\", \"GENERAL_SETTING_MUST_BE_PROVIDED\");\n        uint256 oldValue = generalSettings[settingName];\n        require(oldValue != newValue, \"GENERAL_SETTING_EQUAL_PREVIOUS\");\n        generalSettings[settingName] = newValue;\n        emit GeneralSettingUpdated(msg.sender, settingName, oldValue, newValue);\n    }\n\n    /**\n        @notice Removes a General Setting from this ATM.\n        @param settingName name of the setting to be removed.\n     */\n    function removeGeneralSetting(bytes32 settingName)\n        external\n        onlySigner()\n        isInitialized()\n    {\n        require(settingName != \"\", \"GENERAL_SETTING_MUST_BE_PROVIDED\");\n        require(generalSettings[settingName] > 0, \"GENERAL_SETTING_NOT_FOUND\");\n        uint256 previousValue = generalSettings[settingName];\n        delete generalSettings[settingName];\n        emit GeneralSettingRemoved(msg.sender, settingName, previousValue);\n    }\n\n    /**\n        @notice Adds a new Asset Setting from a specific Market on this ATM.\n        @param asset market specific asset address.\n        @param settingName name of the setting to be added.\n        @param settingValue value of the setting to be added.\n     */\n    function addAssetMarketSetting(\n        address asset,\n        bytes32 settingName,\n        uint256 settingValue\n    ) external onlySigner() isInitialized() {\n        asset.requireNotEmpty(\"ASSET_ADDRESS_IS_REQUIRED\");\n        require(asset.isContract(), \"ASSET_MUST_BE_A_CONTRACT\");\n        require(settingValue > 0, \"ASSET_SETTING_MUST_BE_POSITIVE\");\n        require(settingName != \"\", \"ASSET_SETTING_MUST_BE_PROVIDED\");\n        require(\n            assetMarketSettings[asset][settingName] == 0,\n            \"ASSET_SETTING_ALREADY_EXISTS\"\n        );\n        assetMarketSettings[asset][settingName] = settingValue;\n        emit AssetMarketSettingAdded(msg.sender, asset, settingName, settingValue);\n    }\n\n    /**\n        @notice Updates an existing Asset Setting from a specific Market on this ATM.\n        @param asset market specific asset address.\n        @param settingName name of the setting to be added.\n        @param newValue value of the setting to be added.\n     */\n    function updateAssetMarketSetting(\n        address asset,\n        bytes32 settingName,\n        uint256 newValue\n    ) external onlySigner() isInitialized() {\n        require(settingName != \"\", \"ASSET_SETTING_MUST_BE_PROVIDED\");\n        require(assetMarketSettings[asset][settingName] > 0, \"ASSET_SETTING_NOT_FOUND\");\n        require(\n            newValue != assetMarketSettings[asset][settingName],\n            \"NEW_VALUE_SAME_AS_OLD\"\n        );\n        uint256 oldValue = assetMarketSettings[asset][settingName];\n        assetMarketSettings[asset][settingName] = newValue;\n        emit AssetMarketSettingUpdated(\n            msg.sender,\n            asset,\n            settingName,\n            oldValue,\n            newValue\n        );\n    }\n\n    /**\n        @notice Removes an existing Asset Setting from a specific Market on this ATM.\n        @param asset market specific asset address.\n        @param settingName name of the setting to be added.\n     */\n    function removeAssetMarketSetting(address asset, bytes32 settingName)\n        external\n        onlySigner()\n        isInitialized()\n    {\n        require(settingName != \"\", \"ASSET_SETTING_MUST_BE_PROVIDED\");\n        require(assetMarketSettings[asset][settingName] > 0, \"ASSET_SETTING_NOT_FOUND\");\n        uint256 oldValue = assetMarketSettings[asset][settingName];\n        delete assetMarketSettings[asset][settingName];\n        emit AssetMarketSettingRemoved(msg.sender, asset, settingName, oldValue);\n    }\n\n    /**\n        @notice Adds a new Data Provider on a specific Data Type array.\n            This function would accept duplicated data providers for the same data type.\n        @param dataTypeIndex array index for this Data Type.\n        @param dataProvider data provider address.\n     */\n    function addDataProvider(uint8 dataTypeIndex, address dataProvider)\n        external\n        onlySigner()\n        isInitialized()\n    {\n        require(dataProvider.isContract(), \"DATA_PROVIDER_MUST_BE_A_CONTRACT\");\n        dataProviders[dataTypeIndex].add(dataProvider);\n        uint256 amountDataProviders = dataProviders[dataTypeIndex].length;\n        emit DataProviderAdded(\n            msg.sender,\n            dataTypeIndex,\n            amountDataProviders,\n            dataProvider\n        );\n    }\n\n    /**\n        @notice Updates an existing Data Provider on a specific Data Type array.\n        @param dataTypeIndex array index for this Data Type.\n        @param providerIndex previous data provider index.\n        @param newProvider new data provider address.\n     */\n    function updateDataProvider(\n        uint8 dataTypeIndex,\n        uint256 providerIndex,\n        address newProvider\n    ) external onlySigner() isInitialized() {\n        require(\n            dataProviders[dataTypeIndex].length > providerIndex,\n            \"DATA_PROVIDER_OUT_RANGE\"\n        );\n        require(newProvider.isContract(), \"DATA_PROVIDER_MUST_BE_A_CONTRACT\");\n        address oldProvider = dataProviders[dataTypeIndex][providerIndex];\n        require(oldProvider != newProvider, \"DATA_PROVIDER_SAME_OLD\");\n        dataProviders[dataTypeIndex][providerIndex] = newProvider;\n        emit DataProviderUpdated(\n            msg.sender,\n            dataTypeIndex,\n            providerIndex,\n            oldProvider,\n            newProvider\n        );\n    }\n\n    /**\n        @notice Removes an existing Data Provider on a specific Data Type array.\n        @param dataTypeIndex array index for this Data Type.\n        @param dataProviderIndex data provider index.\n     */\n    function removeDataProvider(uint8 dataTypeIndex, uint256 dataProviderIndex)\n        external\n        onlySigner()\n        isInitialized()\n    {\n        require(\n            dataProviders[dataTypeIndex].length > dataProviderIndex,\n            \"DATA_PROVIDER_OUT_RANGE\"\n        );\n        address oldDataProvider = dataProviders[dataTypeIndex][dataProviderIndex];\n        dataProviders[dataTypeIndex].removeAt(dataProviderIndex);\n        emit DataProviderRemoved(\n            msg.sender,\n            dataTypeIndex,\n            dataProviderIndex,\n            oldDataProvider\n        );\n    }\n\n    /**\n        @notice Sets the CRA - Credit Risk Algorithm to be used on this specific ATM.\n                CRA is represented by a Github commit hash of the newly proposed algorithm.\n        @param _cra Credit Risk Algorithm github commit hash.\n     */\n    function setCRA(string calldata _cra) external onlySigner() isInitialized() {\n        bytes memory tempEmptyStringTest = bytes(_cra);\n        require(tempEmptyStringTest.length > 0, \"CRA_CANT_BE_EMPTY\");\n        require(\n            keccak256(abi.encodePacked(cra)) != keccak256(abi.encodePacked(_cra)),\n            \"CRA_SAME_AS_OLD\"\n        );\n        cra = _cra;\n        emit CRASet(msg.sender, cra);\n    }\n\n    /**\n        @notice It initializes this ATM Governance instance.\n        @param settingsAddress the initial settings address.\n        @param ownerAddress the owner address for this ATM Governance.\n     */\n    function initialize(address settingsAddress, address ownerAddress)\n        external\n        isNotInitialized()\n    {\n        _setSettings(settingsAddress);\n\n        SignerRole.initialize(ownerAddress);\n        TInitializable._initialize();\n    }\n\n    /* External Constant functions */\n\n    /**\n        @notice Returns a General Setting value from this ATM.\n        @param settingName name of the setting to be returned.\n     */\n    function getGeneralSetting(bytes32 settingName) external view returns (uint256) {\n        return generalSettings[settingName];\n    }\n\n    /**\n        @notice Returns an existing Asset Setting value from a specific Market on this ATM.\n        @param asset market specific asset address.\n        @param settingName name of the setting to be returned.\n     */\n    function getAssetMarketSetting(address asset, bytes32 settingName)\n        external\n        view\n        returns (uint256)\n    {\n        return assetMarketSettings[asset][settingName];\n    }\n\n    /**\n        @notice Returns a Data Provider on a specific Data Type array.\n        @param dataTypeIndex array index for this Data Type.\n        @param dataProviderIndex data provider index number.\n     */\n    function getDataProvider(uint8 dataTypeIndex, uint256 dataProviderIndex)\n        external\n        view\n        returns (address)\n    {\n        if (dataProviders[dataTypeIndex].length > dataProviderIndex) {\n            return dataProviders[dataTypeIndex][dataProviderIndex];\n        }\n        return address(0x0);\n    }\n\n    /**\n        @notice Returns current CRA - Credit Risk Algorithm that is being used on this specific ATM.\n                CRA is represented by a Github commit hash of the newly proposed algorithm.\n     */\n    function getCRA() external view returns (string memory) {\n        return cra;\n    }\n}\n",
  "sourcePath": "/Users/guillesalazar/Repos/ZeroCollateral/smart-contracts-v1/contracts/atm/ATMGovernance.sol",
  "compiler": {
    "name": "solc",
    "version": "0.5.17+commit.d19bba13.Emscripten.clang"
  },
  "schemaVersion": "3.2.3",
  "updatedAt": "2020-10-12T16:12:27.745Z",
  "networkType": "ethereum",
  "devdoc": {
    "author": "develop@teller.finance",
    "methods": {
      "addAssetMarketSetting(address,bytes32,uint256)": {
        "params": {
          "asset": "market specific asset address.",
          "settingName": "name of the setting to be added.",
          "settingValue": "value of the setting to be added."
        }
      },
      "addDataProvider(uint8,address)": {
        "params": {
          "dataProvider": "data provider address.",
          "dataTypeIndex": "array index for this Data Type."
        }
      },
      "addGeneralSetting(bytes32,uint256)": {
        "params": {
          "settingName": "name of the setting to be added.",
          "settingValue": "value of the setting to be added."
        }
      },
      "getAssetMarketSetting(address,bytes32)": {
        "params": {
          "asset": "market specific asset address.",
          "settingName": "name of the setting to be returned."
        }
      },
      "getDataProvider(uint8,uint256)": {
        "params": {
          "dataProviderIndex": "data provider index number.",
          "dataTypeIndex": "array index for this Data Type."
        }
      },
      "getGeneralSetting(bytes32)": {
        "params": {
          "settingName": "name of the setting to be returned."
        }
      },
      "initialize(address,address)": {
        "params": {
          "ownerAddress": "the owner address for this ATM Governance.",
          "settingsAddress": "the initial settings address."
        }
      },
      "initialized()": {
        "return": "true if contract is initialized. Otherwise it returns false."
      },
      "removeAssetMarketSetting(address,bytes32)": {
        "params": {
          "asset": "market specific asset address.",
          "settingName": "name of the setting to be added."
        }
      },
      "removeDataProvider(uint8,uint256)": {
        "params": {
          "dataProviderIndex": "data provider index.",
          "dataTypeIndex": "array index for this Data Type."
        }
      },
      "removeGeneralSetting(bytes32)": {
        "params": {
          "settingName": "name of the setting to be removed."
        }
      },
      "setCRA(string)": {
        "params": {
          "_cra": "Credit Risk Algorithm github commit hash."
        }
      },
      "settings()": {
        "details": "This address should NOT change over the time. See details in the _setSettings(...) function."
      },
      "updateAssetMarketSetting(address,bytes32,uint256)": {
        "params": {
          "asset": "market specific asset address.",
          "newValue": "value of the setting to be added.",
          "settingName": "name of the setting to be added."
        }
      },
      "updateDataProvider(uint8,uint256,address)": {
        "params": {
          "dataTypeIndex": "array index for this Data Type.",
          "newProvider": "new data provider address.",
          "providerIndex": "previous data provider index."
        }
      },
      "updateGeneralSetting(bytes32,uint256)": {
        "params": {
          "newValue": "new value to be set for this settingName. ",
          "settingName": "name of the setting to be modified."
        }
      }
    }
  },
  "userdoc": {
    "methods": {
      "addAssetMarketSetting(address,bytes32,uint256)": {
        "notice": "Adds a new Asset Setting from a specific Market on this ATM."
      },
      "addDataProvider(uint8,address)": {
        "notice": "Adds a new Data Provider on a specific Data Type array. This function would accept duplicated data providers for the same data type."
      },
      "addGeneralSetting(bytes32,uint256)": {
        "notice": "Adds a new General Setting to this ATM."
      },
      "getAssetMarketSetting(address,bytes32)": {
        "notice": "Returns an existing Asset Setting value from a specific Market on this ATM."
      },
      "getCRA()": {
        "notice": "Returns current CRA - Credit Risk Algorithm that is being used on this specific ATM. CRA is represented by a Github commit hash of the newly proposed algorithm."
      },
      "getDataProvider(uint8,uint256)": {
        "notice": "Returns a Data Provider on a specific Data Type array."
      },
      "getGeneralSetting(bytes32)": {
        "notice": "Returns a General Setting value from this ATM."
      },
      "initialize(address,address)": {
        "notice": "It initializes this ATM Governance instance."
      },
      "initialized()": {
        "notice": "Gets if the contract is initialized."
      },
      "removeAssetMarketSetting(address,bytes32)": {
        "notice": "Removes an existing Asset Setting from a specific Market on this ATM."
      },
      "removeDataProvider(uint8,uint256)": {
        "notice": "Removes an existing Data Provider on a specific Data Type array."
      },
      "removeGeneralSetting(bytes32)": {
        "notice": "Removes a General Setting from this ATM."
      },
      "setCRA(string)": {
        "notice": "Sets the CRA - Credit Risk Algorithm to be used on this specific ATM. CRA is represented by a Github commit hash of the newly proposed algorithm."
      },
      "settings()": {
        "notice": "The gets the settings contract address from the SETTINGS_SLOT."
      },
      "updateAssetMarketSetting(address,bytes32,uint256)": {
        "notice": "Updates an existing Asset Setting from a specific Market on this ATM."
      },
      "updateDataProvider(uint8,uint256,address)": {
        "notice": "Updates an existing Data Provider on a specific Data Type array."
      },
      "updateGeneralSetting(bytes32,uint256)": {
        "notice": "Updates an existing General Setting on this ATM."
      }
    },
    "notice": "This contract is used to modify Risk Settings, CRA or DataProviders for a specific ATM."
  }
}