{
  "contractName": "ATMGovernanceFactory",
  "abi": [
    {
      "anonymous": false,
      "inputs": [
        {
          "indexed": true,
          "internalType": "address",
          "name": "creator",
          "type": "address"
        },
        {
          "indexed": true,
          "internalType": "address",
          "name": "atmGovernanceAddress",
          "type": "address"
        },
        {
          "indexed": true,
          "internalType": "address",
          "name": "atmTokenAddress",
          "type": "address"
        }
      ],
      "name": "ATMCreated",
      "type": "event"
    },
    {
      "anonymous": false,
      "inputs": [
        {
          "indexed": true,
          "internalType": "address",
          "name": "sender",
          "type": "address"
        },
        {
          "indexed": false,
          "internalType": "address",
          "name": "oldSettings",
          "type": "address"
        },
        {
          "indexed": false,
          "internalType": "address",
          "name": "newSettings",
          "type": "address"
        }
      ],
      "name": "SettingsUpdated",
      "type": "event"
    },
    {
      "constant": true,
      "inputs": [
        {
          "internalType": "address",
          "name": "",
          "type": "address"
        }
      ],
      "name": "atms",
      "outputs": [
        {
          "internalType": "bool",
          "name": "",
          "type": "bool"
        }
      ],
      "payable": false,
      "stateMutability": "view",
      "type": "function"
    },
    {
      "constant": true,
      "inputs": [
        {
          "internalType": "uint256",
          "name": "",
          "type": "uint256"
        }
      ],
      "name": "atmsList",
      "outputs": [
        {
          "internalType": "address",
          "name": "",
          "type": "address"
        }
      ],
      "payable": false,
      "stateMutability": "view",
      "type": "function"
    },
    {
      "constant": true,
      "inputs": [],
      "name": "initialized",
      "outputs": [
        {
          "internalType": "bool",
          "name": "",
          "type": "bool"
        }
      ],
      "payable": false,
      "stateMutability": "view",
      "type": "function"
    },
    {
      "constant": true,
      "inputs": [],
      "name": "settings",
      "outputs": [
        {
          "internalType": "contract SettingsInterface",
          "name": "",
          "type": "address"
        }
      ],
      "payable": false,
      "stateMutability": "view",
      "type": "function"
    },
    {
      "constant": false,
      "inputs": [
        {
          "internalType": "string",
          "name": "name",
          "type": "string"
        },
        {
          "internalType": "string",
          "name": "symbol",
          "type": "string"
        },
        {
          "internalType": "uint8",
          "name": "decimals",
          "type": "uint8"
        },
        {
          "internalType": "uint256",
          "name": "cap",
          "type": "uint256"
        },
        {
          "internalType": "uint256",
          "name": "maxVestingsPerWallet",
          "type": "uint256"
        }
      ],
      "name": "createATM",
      "outputs": [
        {
          "internalType": "address",
          "name": "",
          "type": "address"
        }
      ],
      "payable": false,
      "stateMutability": "nonpayable",
      "type": "function"
    },
    {
      "constant": true,
      "inputs": [
        {
          "internalType": "address",
          "name": "atmAddress",
          "type": "address"
        }
      ],
      "name": "isATM",
      "outputs": [
        {
          "internalType": "bool",
          "name": "",
          "type": "bool"
        }
      ],
      "payable": false,
      "stateMutability": "view",
      "type": "function"
    },
    {
      "constant": true,
      "inputs": [],
      "name": "getATMs",
      "outputs": [
        {
          "internalType": "address[]",
          "name": "",
          "type": "address[]"
        }
      ],
      "payable": false,
      "stateMutability": "view",
      "type": "function"
    },
    {
      "constant": false,
      "inputs": [
        {
          "internalType": "address",
          "name": "settingsAddress",
          "type": "address"
        }
      ],
      "name": "initialize",
      "outputs": [],
      "payable": false,
      "stateMutability": "nonpayable",
      "type": "function"
    },
    {
      "constant": false,
      "inputs": [
        {
          "internalType": "address",
          "name": "newSettingsAddress",
          "type": "address"
        }
      ],
      "name": "setSettings",
      "outputs": [],
      "payable": false,
      "stateMutability": "nonpayable",
      "type": "function"
    }
  ],
  "bytecode": "0x608060405234801561001057600080fd5b50616653806100206000396000f3fe60806040523480156200001157600080fd5b5060043610620000a05760003560e01c806395589a87116200006f57806395589a871462000184578063a01d3c2c146200025e578063b88293541462000289578063c4d66de814620002b2578063e06174e414620002db57620000a0565b8063113d88d014620000a5578063123adcbb1462000101578063158ef93e146200013e578063528fe2921462000148575b600080fd5b620000af620002e5565b60408051602080825283518183015283519192839290830191858101910280838360005b83811015620000ed578181015183820152602001620000d3565b505050509050019250505060405180910390f35b6200012a600480360360208110156200011957600080fd5b50356001600160a01b031662000349565b604080519115158252519081900360200190f35b6200012a62000367565b62000168600480360360208110156200016057600080fd5b503562000370565b604080516001600160a01b039092168252519081900360200190f35b62000168600480360360a08110156200019c57600080fd5b810190602081018135640100000000811115620001b857600080fd5b820183602082011115620001cb57600080fd5b80359060200191846001830284011164010000000083111715620001ee57600080fd5b9193909290916020810190356401000000008111156200020d57600080fd5b8201836020820111156200022057600080fd5b803590602001918460018302840111640100000000831117156200024357600080fd5b919350915060ff813516906020810135906040013562000398565b62000287600480360360208110156200027657600080fd5b50356001600160a01b031662000851565b005b6200012a60048036036020811015620002a157600080fd5b50356001600160a01b031662000a37565b6200028760048036036020811015620002ca57600080fd5b50356001600160a01b031662000a4c565b6200016862000b37565b606060028054806020026020016040519081016040528092919081815260200182805480156200033f57602002820191906000526020600020905b81546001600160a01b0316815260019091019060200180831162000320575b5050505050905090565b6001600160a01b031660009081526001602052604090205460ff1690565b60005460ff1690565b600281815481106200037e57fe5b6000918252602090912001546001600160a01b0316905081565b60035460408051633b8b83f760e21b815233600482015290516000926001600160a01b03169163ee2e0fdc916024808301926020929190829003018186803b158015620003e457600080fd5b505afa158015620003f9573d6000803e3d6000fd5b505050506040513d60208110156200041057600080fd5b505115156001146200045f576040805162461bcd60e51b815260206004820152601360248201527214d15391115497d254d39517d0531313d5d151606a1b604482015290519081900360640190fd5b60005460ff16620004b7576040805162461bcd60e51b815260206004820152601860248201527f434f4e54524143545f4e4f545f494e495449414c495a45440000000000000000604482015290519081900360640190fd5b60003390506060898989898989896040516024018080602001806020018660ff1660ff16815260200185815260200184815260200183810383528a8a82818152602001925080828437600083820152601f01601f191690910184810383528881526020019050888880828437600083820181905260408051601f909301601f1990811690950183810390950183529384526020820180516001600160e01b03166301f7fd4360e41b1790529251909d50919b50620005829a5090985062000d30975050505050505050565b604051809103906000f0801580156200059f573d6000803e3d6000fd5b5090506000818484604051620005b59062000d3e565b80846001600160a01b03166001600160a01b03168152602001836001600160a01b03166001600160a01b0316815260200180602001828103825283818151815260200191508051906020019080838360005b838110156200062157818101518382015260200162000607565b50505050905090810190601f1680156200064f5780820380516001836020036101000a031916815260200191505b50945050505050604051809103906000f08015801562000673573d6000803e3d6000fd5b50604080516001600160a01b038084166024830152871660448083019190915282518083039091018152606490910182526020810180516001600160e01b031663485cc95560e01b17905290519192508291600090620006d39062000d4c565b604051809103906000f080158015620006f0573d6000803e3d6000fd5b5090506000818884604051620007069062000d3e565b80846001600160a01b03166001600160a01b03168152602001836001600160a01b03166001600160a01b0316815260200180602001828103825283818151815260200191508051906020019080838360005b838110156200077257818101518382015260200162000758565b50505050905090810190601f168015620007a05780820380516001836020036101000a031916815260200191505b50945050505050604051809103906000f080158015620007c4573d6000803e3d6000fd5b506001600160a01b0381166000908152600160208190526040909120805460ff191690911790559050806200080160028263ffffffff62000b4616565b506040516001600160a01b03808716919083169033907fd5fe8e6135fc202897d05112dcc663e5e64917b85d00861a487f6ee9235f414190600090a4505050505050505050979650505050505050565b60035460408051633b8b83f760e21b815233600482015290516001600160a01b039092169163ee2e0fdc91602480820192602092909190829003018186803b1580156200089d57600080fd5b505afa158015620008b2573d6000803e3d6000fd5b505050506040513d6020811015620008c957600080fd5b5051151560011462000918576040805162461bcd60e51b815260206004820152601360248201527214d15391115497d254d39517d0531313d5d151606a1b604482015290519081900360640190fd5b6200092c816001600160a01b031662000c32565b6200097e576040805162461bcd60e51b815260206004820152601b60248201527f53455454494e47535f4d5553545f42455f415f434f4e54524143540000000000604482015290519081900360640190fd5b60035460408051808201909152601d81527f4e45575f53455454494e47535f4d5553545f42455f50524f564944454400000060208201526001600160a01b0390911690620009d6908290849063ffffffff62000c6f16565b600380546001600160a01b0319166001600160a01b038481169182179092556040805192841683526020830191909152805133927fd6b03d1ecd2e06e7b275149cb534ed8cf331532fbc6b503d71c0ee3d698eb95c92908290030190a25050565b60016020526000908152604090205460ff1681565b60005460ff161562000aa5576040805162461bcd60e51b815260206004820152601c60248201527f434f4e54524143545f414c52454144595f494e495449414c495a454400000000604482015290519081900360640190fd5b62000ab9816001600160a01b031662000c32565b62000b0b576040805162461bcd60e51b815260206004820152601b60248201527f53455454494e47535f4d5553545f42455f415f434f4e54524143540000000000604482015290519081900360640190fd5b62000b1562000d0f565b600380546001600160a01b0319166001600160a01b0392909216919091179055565b6003546001600160a01b031681565b60606001600160a01b03821662000ba4576040805162461bcd60e51b815260206004820152601960248201527f454d5054595f414444524553535f4e4f545f414c4c4f57454400000000000000604482015290519081900360640190fd5b8254600181018455600084815260209081902090910180546001600160a01b0319166001600160a01b038516179055835460408051828402810184019091528181529185919083018282801562000c2557602002820191906000526020600020905b81546001600160a01b0316815260019091019060200180831162000c06575b5050505050905092915050565b6000813f7fc5d2460186f7233c927e7db2dcc703c0e500b653ca82273b7bfad8045d85a47081811480159062000c6757508115155b949350505050565b62000c7b838362000d1e565b819062000d095760405162461bcd60e51b81526004018080602001828103825283818151815260200191508051906020019080838360005b8381101562000ccd57818101518382015260200162000cb3565b50505050905090810190601f16801562000cfb5780820380516001836020036101000a031916815260200191505b509250505060405180910390fd5b50505050565b6000805460ff19166001179055565b6001600160a01b039081169116141590565b6129bc8062000d5b83390190565b610973806200371783390190565b612595806200408a8339019056fe60806040526129a9806100136000396000f3fe608060405234801561001057600080fd5b50600436106101f05760003560e01c806370a082311161010f578063aa271e1a116100a2578063dd62ed3e11610071578063dd62ed3e1461082d578063e06174e41461085b578063ea4d757314610863578063fa6799f21461089b576101f0565b8063aa271e1a14610797578063c4d66de8146107bd578063cb7abc52146107e3578063d630551814610807576101f0565b8063983b2d56116100de578063983b2d56146107115780639865027514610737578063a457c2d71461073f578063a9059cbb1461076b576101f0565b806370a082311461069a57806379cc6790146106c057806395d89b41146106ec578063981b24d0146106f4576101f0565b8063355274ea1161018757806347786d371161015657806347786d37146104dd5780634ee2cd7e146104fa57806353e6217b14610526578063561cf2ab1461054c576101f0565b8063355274ea14610460578063395093511461046857806340c10f191461049457806342966c68146104c0576101f0565b80631624f6c6116101c35780631624f6c6146102c457806318160ddd146103f257806323b872dd1461040c578063313ce56714610442576101f0565b806306fdde03146101f5578063095ea7b3146102725780630ea0783c146102b2578063158ef93e146102bc575b600080fd5b6101fd6108c7565b6040805160208082528351818301528351919283929083019185019080838360005b8381101561023757818101518382015260200161021f565b50505050905090810190601f1680156102645780820380516001836020036101000a031916815260200191505b509250505060405180910390f35b61029e6004803603604081101561028857600080fd5b506001600160a01b03813516906020013561095e565b604080519115158252519081900360200190f35b6102ba61097c565b005b61029e610b26565b6102ba600480360360608110156102da57600080fd5b810190602081018135600160201b8111156102f457600080fd5b82018360208201111561030657600080fd5b803590602001918460018302840111600160201b8311171561032757600080fd5b91908080601f0160208091040260200160405190810160405280939291908181526020018383808284376000920191909152509295949360208101935035915050600160201b81111561037957600080fd5b82018360208201111561038b57600080fd5b803590602001918460018302840111600160201b831117156103ac57600080fd5b91908080601f0160208091040260200160405190810160405280939291908181526020018383808284376000920191909152509295505050903560ff169150610b309050565b6103fa610c0c565b60408051918252519081900360200190f35b61029e6004803603606081101561042257600080fd5b506001600160a01b03813581169160208101359091169060400135610c12565b61044a610c9f565b6040805160ff9092168252519081900360200190f35b6103fa610ca8565b61029e6004803603604081101561047e57600080fd5b506001600160a01b038135169060200135610caf565b61029e600480360360408110156104aa57600080fd5b506001600160a01b038135169060200135610d03565b6102ba600480360360208110156104d657600080fd5b5035610ea7565b6102ba600480360360208110156104f357600080fd5b5035610ebb565b6103fa6004803603604081101561051057600080fd5b506001600160a01b03813516906020013561100d565b6103fa6004803603602081101561053c57600080fd5b50356001600160a01b0316611057565b6102ba600480360360e081101561056257600080fd5b810190602081018135600160201b81111561057c57600080fd5b82018360208201111561058e57600080fd5b803590602001918460018302840111600160201b831117156105af57600080fd5b91908080601f0160208091040260200160405190810160405280939291908181526020018383808284376000920191909152509295949360208101935035915050600160201b81111561060157600080fd5b82018360208201111561061357600080fd5b803590602001918460018302840111600160201b8311171561063457600080fd5b91908080601f0160208091040260200160405190810160405280939291908181526020018383808284376000920191909152509295505060ff833516935050506020810135906040810135906001600160a01b036060820135811691608001351661106a565b6103fa600480360360208110156106b057600080fd5b50356001600160a01b03166111b1565b6102ba600480360360408110156106d657600080fd5b506001600160a01b0381351690602001356111cc565b6101fd6111da565b6103fa6004803603602081101561070a57600080fd5b503561123b565b6102ba6004803603602081101561072757600080fd5b50356001600160a01b031661126c565b6102ba6112c0565b61029e6004803603604081101561075557600080fd5b506001600160a01b0381351690602001356112d2565b61029e6004803603604081101561078157600080fd5b506001600160a01b038135169060200135611340565b61029e600480360360208110156107ad57600080fd5b50356001600160a01b0316611354565b6102ba600480360360208110156107d357600080fd5b50356001600160a01b0316611367565b6107eb611412565b604080516001600160a01b039092168252519081900360200190f35b6103fa6004803603602081101561081d57600080fd5b50356001600160a01b0316611422565b6103fa6004803603604081101561084357600080fd5b506001600160a01b0381358116916020013516611435565b6107eb611460565b6102ba6004803603608081101561087957600080fd5b506001600160a01b038135169060208101359060408101359060600135611470565b6102ba600480360360408110156108b157600080fd5b506001600160a01b038135169060200135611791565b60338054604080516020601f60026000196101006001881615020190951694909404938401819004810282018101909252828152606093909290918301828280156109535780601f1061092857610100808354040283529160200191610953565b820191906000526020600020905b81548152906001019060200180831161093657829003601f168201915b505050505090505b90565b600061097261096b611a71565b8484611a75565b5060015b92915050565b61013b5461013c546040805163d6d77ea160e01b81526001600160a01b0392831660048201529051919092169163d6d77ea1916024808301926020929190829003018186803b1580156109ce57600080fd5b505afa1580156109e2573d6000803e3d6000fd5b505050506040513d60208110156109f857600080fd5b505115610a3c576040805162461bcd60e51b815260206004820152600d60248201526c10551357d254d7d4105554d151609a1b604482015290519081900360640190fd5b33600090815261013f6020526040902054610a9e576040805162461bcd60e51b815260206004820152601b60248201527f4143434f554e545f444f45534e545f484156455f56455354494e470000000000604482015290519081900360640190fd5b6000610aaa3342611b61565b9050610ab6338261095e565b50610abf611bee565b50610ac933611c44565b610ad230611c44565b33600081815261013f6020908152604091829020805485900390558151928352820183905280517f9fe9b7be9d151c7a8b6de49a1312ff27a15096d0d1d12999af85fe4310e0b1259281900390910190a150565b6101345460ff1690565b600054610100900460ff1680610b495750610b49611c6f565b80610b57575060005460ff16155b610b925760405162461bcd60e51b815260040180806020018281038252602e815260200180612894602e913960400191505060405180910390fd5b600054610100900460ff16158015610bbd576000805460ff1961ff0019909116610100171660011790555b8351610bd090603390602087019061267a565b508251610be490603490602086019061267a565b506035805460ff191660ff84161790558015610c06576000805461ff00191690555b50505050565b606a5490565b6000610c1f848484611c75565b610c9584610c2b611a71565b610c908560405180606001604052806028815260200161284a602891396001600160a01b038a16600090815260696020526040812090610c69611a71565b6001600160a01b03168152602081019190915260400160002054919063ffffffff611dd316565b611a75565b5060019392505050565b60355460ff1690565b6101355490565b6000610972610cbc611a71565b84610c908560696000610ccd611a71565b6001600160a01b03908116825260208083019390935260409182016000908120918c16815292529020549063ffffffff611e6a16565b610137546000906001600160a01b03163314610d5c576040805162461bcd60e51b815260206004820152601360248201527221a0a62622a92fa4a9afa727aa2fa7aba722a960691b604482015290519081900360640190fd5b61013b5461013c546040805163d6d77ea160e01b81526001600160a01b0392831660048201529051919092169163d6d77ea1916024808301926020929190829003018186803b158015610dae57600080fd5b505afa158015610dc2573d6000803e3d6000fd5b505050506040513d6020811015610dd857600080fd5b505115610e1c576040805162461bcd60e51b815260206004820152600d60248201526c10551357d254d7d4105554d151609a1b604482015290519081900360640190fd5b6001600160a01b038316610e77576040805162461bcd60e51b815260206004820181905260248201527f4d494e545f544f5f5a45524f5f414444524553535f4e4f545f414c4c4f574544604482015290519081900360640190fd5b610e8360008484611ecb565b610e8d8383611f47565b610e95611bee565b50610e9f83611c44565b610972612039565b610eb8610eb2611a71565b82612047565b50565b610137546001600160a01b03163314610f11576040805162461bcd60e51b815260206004820152601360248201527221a0a62622a92fa4a9afa727aa2fa7aba722a960691b604482015290519081900360640190fd5b61013b5461013c546040805163d6d77ea160e01b81526001600160a01b0392831660048201529051919092169163d6d77ea1916024808301926020929190829003018186803b158015610f6357600080fd5b505afa158015610f77573d6000803e3d6000fd5b505050506040513d6020811015610f8d57600080fd5b505115610fd1576040805162461bcd60e51b815260206004820152600d60248201526c10551357d254d7d4105554d151609a1b604482015290519081900360640190fd5b6101358190556040805182815290517f0267233bc19189c84fa5f0d3dab0a85c595f5e903abaa2ef4cafe94cd22df1f09181900360200190a150565b6001600160a01b03821660009081526101406020526040812081908190611035908590612143565b915091508161104c57611047856111b1565b61104e565b805b95945050505050565b61013e6020526000908152604090205481565b600054610100900460ff16806110835750611083611c6f565b80611091575060005460ff16155b6110cc5760405162461bcd60e51b815260040180806020018281038252602e815260200180612894602e913960400191505060405180910390fd5b600054610100900460ff161580156110f7576000805460ff1961ff0019909116610100171660011790555b60008511611141576040805162461bcd60e51b81526020600482015260126024820152714341505f43414e4e4f545f42455f5a45524f60701b604482015290519081900360640190fd5b61114c888888610b30565b6101358590556101368490556101378054336001600160a01b03199182161790915561013b805482166001600160a01b038681169190911790915561013c805490921690841617905580156111a7576000805461ff00191690555b5050505050505050565b6001600160a01b031660009081526068602052604090205490565b6111d68282612199565b5050565b60348054604080516020601f60026000196101006001881615020190951694909404938401819004810282018101909252828152606093909290918301828280156109535780601f1061092857610100808354040283529160200191610953565b600080600061124c84610138612143565b91509150816112625761125d610c0c565b611264565b805b949350505050565b61127c611277611a71565b611354565b6112b75760405162461bcd60e51b81526004018080602001828103825260308152602001806127d86030913960400191505060405180910390fd5b610eb8816121ed565b6112d06112cb611a71565b612235565b565b60006109726112df611a71565b84610c90856040518060600160405280602581526020016129506025913960696000611309611a71565b6001600160a01b03908116825260208083019390935260409182016000908120918d1681529252902054919063ffffffff611dd316565b600061097261134d611a71565b8484611c75565b6000610976609d8363ffffffff61227d16565b600054610100900460ff16806113805750611380611c6f565b8061138e575060005460ff16155b6113c95760405162461bcd60e51b815260040180806020018281038252602e815260200180612894602e913960400191505060405180910390fd5b600054610100900460ff161580156113f4576000805460ff1961ff0019909116610100171660011790555b6113fd826122e4565b80156111d6576000805461ff00191690555050565b61013c546001600160a01b031681565b61013f6020526000908152604090205481565b6001600160a01b03918216600090815260696020908152604080832093909416825291909152205490565b61013b546001600160a01b031681565b610137546001600160a01b031633146114c6576040805162461bcd60e51b815260206004820152601360248201527221a0a62622a92fa4a9afa727aa2fa7aba722a960691b604482015290519081900360640190fd5b61013b5461013c546040805163d6d77ea160e01b81526001600160a01b0392831660048201529051919092169163d6d77ea1916024808301926020929190829003018186803b15801561151857600080fd5b505afa15801561152c573d6000803e3d6000fd5b505050506040513d602081101561154257600080fd5b505115611586576040805162461bcd60e51b815260206004820152600d60248201526c10551357d254d7d4105554d151609a1b604482015290519081900360640190fd5b6001600160a01b0384166115e1576040805162461bcd60e51b815260206004820181905260248201527f4d494e545f544f5f5a45524f5f414444524553535f4e4f545f414c4c4f574544604482015290519081900360640190fd5b610136546001600160a01b038516600090815261013e602052604090205410611648576040805162461bcd60e51b815260206004820152601460248201527313505617d59154d5125391d4d7d4915050d2115160621b604482015290519081900360640190fd5b61165460008585611ecb565b6001600160a01b038416600090815261013e6020526040902080546002810190915561167e6126f8565b6040518060a00160405280876001600160a01b03168152602001868152602001428152602001854201815260200184420181525090506116be3086611f47565b6116c6611bee565b506116d030611c44565b6116d8612039565b6001600160a01b03868116600081815261013f6020908152604080832080548b01905561013d8252808320878452825291829020855181546001600160a01b03191695169490941784558481015160018501558482015160028501556060808601516003860155608086015160049095019490945581519283528201889052818101869052517f627ad26dcfe82ec79b33fda0ddd062f6fab9f4914acac8345f79090dfd86fb54929181900390910190a1505050505050565b610137546001600160a01b031633146117e7576040805162461bcd60e51b815260206004820152601360248201527221a0a62622a92fa4a9afa727aa2fa7aba722a960691b604482015290519081900360640190fd5b61013b5461013c546040805163d6d77ea160e01b81526001600160a01b0392831660048201529051919092169163d6d77ea1916024808301926020929190829003018186803b15801561183957600080fd5b505afa15801561184d573d6000803e3d6000fd5b505050506040513d602081101561186357600080fd5b5051156118a7576040805162461bcd60e51b815260206004820152600d60248201526c10551357d254d7d4105554d151609a1b604482015290519081900360640190fd5b6001600160a01b038216600090815261013f6020526040902054611912576040805162461bcd60e51b815260206004820152601b60248201527f4143434f554e545f444f45534e545f484156455f56455354494e470000000000604482015290519081900360640190fd5b61191a6126f8565b506001600160a01b03808316600090815261013d602090815260408083208584528252808320815160a08101835281549095168552600181015492850183905260028101549185018290526003810154606086018190526004909101546080860181905261198c939242929091612387565b6001600160a01b038516600090815261013f602052604090208054829003905590506119b83082612047565b6119c0611bee565b506119ca30611c44565b6119d2612039565b6080820151604080516001600160a01b03871681526020810184905280820192909252517fafc516b1509f836efdc27d64d966d14f82ef53f456f0de74c12ac8a651a084cc9181900360600190a150506001600160a01b03909116600090815261013d6020908152604080832093835292905290812080546001600160a01b031916815560018101829055600281018290556003810182905560040155565b3390565b6001600160a01b038316611aba5760405162461bcd60e51b815260040180806020018281038252602481526020018061292c6024913960400191505060405180910390fd5b6001600160a01b038216611aff5760405162461bcd60e51b81526004018080602001828103825260228152602001806127906022913960400191505060405180910390fd5b6001600160a01b03808416600081815260696020908152604080832094871680845294825291829020859055815185815291517f8c5be1e5ebec7d5bd14f71427d1e84f3dd0314c0f7b2291e5b200ac8c7c3b9259281900390910190a3505050565b6001600160a01b038216600090815261013e602090815260408083205461013f90925282205482805b83811015611be3576001600160a01b038716600090815261013d6020908152604080832084845290915290206001810154600282015460038301546004840154611bd893928b929091612387565b925050600101611b8a565b509003949350505050565b61013a54600090611c0690600163ffffffff611e6a16565b61013a8190556040805182815290517f8030e83b04d87bef53480e26263266d6ca66863aa8506aca6f2559d18aa1cb679181900360200190a1905090565b6001600160a01b038116600090815261014060205260409020610eb890611c6a836111b1565b6123ff565b303b1590565b6001600160a01b038316611cba5760405162461bcd60e51b81526004018080602001828103825260258152602001806129076025913960400191505060405180910390fd5b6001600160a01b038216611cff5760405162461bcd60e51b815260040180806020018281038252602381526020018061274b6023913960400191505060405180910390fd5b611d42816040518060600160405280602681526020016127b2602691396001600160a01b038616600090815260686020526040902054919063ffffffff611dd316565b6001600160a01b038085166000908152606860205260408082209390935590841681522054611d77908263ffffffff611e6a16565b6001600160a01b0380841660008181526068602090815260409182902094909455805185815290519193928716927fddf252ad1be2c89b69c2b068fc378daa952ba7f163c4a11628f55a4df523b3ef92918290030190a3505050565b60008184841115611e625760405162461bcd60e51b81526004018080602001828103825283818151815260200191508051906020019080838360005b83811015611e27578181015183820152602001611e0f565b50505050905090810190601f168015611e545780820380516001836020036101000a031916815260200191505b509250505060405180910390fd5b505050900390565b600082820183811015611ec4576040805162461bcd60e51b815260206004820152601b60248201527f536166654d6174683a206164646974696f6e206f766572666c6f770000000000604482015290519081900360640190fd5b9392505050565b6001600160a01b038316158015611efc575061013554611ef982611eed610c0c565b9063ffffffff611e6a16565b11155b611f42576040805162461bcd60e51b8152602060048201526012602482015271115490cc8c17d0d05417d15610d15151115160721b604482015290519081900360640190fd5b505050565b6001600160a01b038216611fa2576040805162461bcd60e51b815260206004820152601f60248201527f45524332303a206d696e7420746f20746865207a65726f206164647265737300604482015290519081900360640190fd5b606a54611fb5908263ffffffff611e6a16565b606a556001600160a01b038216600090815260686020526040902054611fe1908263ffffffff611e6a16565b6001600160a01b03831660008181526068602090815260408083209490945583518581529351929391927fddf252ad1be2c89b69c2b068fc378daa952ba7f163c4a11628f55a4df523b3ef9281900390910190a35050565b6112d0610138611c6a610c0c565b6001600160a01b03821661208c5760405162461bcd60e51b81526004018080602001828103825260218152602001806128e66021913960400191505060405180910390fd5b6120cf8160405180606001604052806022815260200161276e602291396001600160a01b038516600090815260686020526040902054919063ffffffff611dd316565b6001600160a01b038316600090815260686020526040902055606a546120fb908263ffffffff61243116565b606a556040805182815290516000916001600160a01b038516917fddf252ad1be2c89b69c2b068fc378daa952ba7f163c4a11628f55a4df523b3ef9181900360200190a35050565b60008080612157848663ffffffff61247316565b8454909150811415612170575060009150819050612192565b600184600101828154811061218157fe5b906000526020600020015492509250505b9250929050565b6121a38282612047565b6111d6826121af611a71565b610c90846040518060600160405280602481526020016128c2602491396001600160a01b038816600090815260696020526040812090610c69611a71565b6121fe609d8263ffffffff61251416565b6040516001600160a01b038216907f6ae172837ea30b801fbfcdd4108aa1d5bf8ff775444fd70256b44e6bf3dfc3f690600090a250565b612246609d8263ffffffff61259516565b6040516001600160a01b038216907fe94479a9f7e1952cc78f2d6baab678adc1b772d936c6583def489e524cb6669290600090a250565b60006001600160a01b0382166122c45760405162461bcd60e51b81526004018080602001828103825260228152602001806128726022913960400191505060405180910390fd5b506001600160a01b03166000908152602091909152604090205460ff1690565b600054610100900460ff16806122fd57506122fd611c6f565b8061230b575060005460ff16155b6123465760405162461bcd60e51b815260040180806020018281038252602e815260200180612894602e913960400191505060405180910390fd5b600054610100900460ff16158015612371576000805460ff1961ff0019909116610100171660011790555b61237a82611354565b6113fd576113fd826121ed565b60008185106123985750600061104e565b828510156123a757508461104e565b60006123e26123bc848763ffffffff61243116565b6123cc888863ffffffff61243116565b816123d357fe5b8991900463ffffffff6125fc16565b90506123f4878263ffffffff61243116565b979650505050505050565b61013a548254600181810185556000858152602080822090930193909355938401805494850181558252902090910155565b6000611ec483836040518060400160405280601e81526020017f536166654d6174683a207375627472616374696f6e206f766572666c6f770000815250611dd3565b815460009061248457506000610976565b82546000905b808210156124d357600061249e8383612655565b9050848682815481106124ad57fe5b906000526020600020015411156124c6578091506124cd565b8060010192505b5061248a565b6000821180156124fb5750838560018403815481106124ee57fe5b9060005260206000200154145b1561250c5750600019019050610976565b509050610976565b61251e828261227d565b15612570576040805162461bcd60e51b815260206004820152601f60248201527f526f6c65733a206163636f756e7420616c72656164792068617320726f6c6500604482015290519081900360640190fd5b6001600160a01b0316600090815260209190915260409020805460ff19166001179055565b61259f828261227d565b6125da5760405162461bcd60e51b81526004018080602001828103825260218152602001806128086021913960400191505060405180910390fd5b6001600160a01b0316600090815260209190915260409020805460ff19169055565b60008261260b57506000610976565b8282028284828161261857fe5b0414611ec45760405162461bcd60e51b81526004018080602001828103825260218152602001806128296021913960400191505060405180910390fd5b6000600280830660028506018161266857fe5b04600283046002850401019392505050565b828054600181600116156101000203166002900490600052602060002090601f016020900481019282601f106126bb57805160ff19168380011785556126e8565b828001600101855582156126e8579182015b828111156126e85782518255916020019190600101906126cd565b506126f4929150612730565b5090565b6040518060a0016040528060006001600160a01b03168152602001600081526020016000815260200160008152602001600081525090565b61095b91905b808211156126f4576000815560010161273656fe45524332303a207472616e7366657220746f20746865207a65726f206164647265737345524332303a206275726e20616d6f756e7420657863656564732062616c616e636545524332303a20617070726f766520746f20746865207a65726f206164647265737345524332303a207472616e7366657220616d6f756e7420657863656564732062616c616e63654d696e746572526f6c653a2063616c6c657220646f6573206e6f74206861766520746865204d696e74657220726f6c65526f6c65733a206163636f756e7420646f6573206e6f74206861766520726f6c65536166654d6174683a206d756c7469706c69636174696f6e206f766572666c6f7745524332303a207472616e7366657220616d6f756e74206578636565647320616c6c6f77616e6365526f6c65733a206163636f756e7420697320746865207a65726f2061646472657373436f6e747261637420696e7374616e63652068617320616c7265616479206265656e20696e697469616c697a656445524332303a206275726e20616d6f756e74206578636565647320616c6c6f77616e636545524332303a206275726e2066726f6d20746865207a65726f206164647265737345524332303a207472616e736665722066726f6d20746865207a65726f206164647265737345524332303a20617070726f76652066726f6d20746865207a65726f206164647265737345524332303a2064656372656173656420616c6c6f77616e63652062656c6f77207a65726fa265627a7a72315820c13614ce6ed9ba3172918c7c911a27f21ab4f9d49a1f5fc65dc4896c5e8f4d4464736f6c6343000511003260806040526040516109733803806109738339818101604052606081101561002657600080fd5b8151602083015160408085018051915193959294830192918464010000000082111561005157600080fd5b90830190602082018581111561006657600080fd5b825164010000000081118282018810171561008057600080fd5b82525081516020918201929091019080838360005b838110156100ad578181015183820152602001610095565b50505050905090810190601f1680156100da5780820380516001836020036101000a031916815260200191505b5060408181527f656970313936372e70726f78792e696d706c656d656e746174696f6e0000000082525190819003601c019020869350859250849150839082906000805160206109188339815191526000199091011461013657fe5b610148826001600160e01b0361026d16565b805115610200576000826001600160a01b0316826040518082805190602001908083835b6020831061018b5780518252601f19909201916020918201910161016c565b6001836020036101000a038019825116818451168082178552505050505050905001915050600060405180830381855af49150503d80600081146101eb576040519150601f19603f3d011682016040523d82523d6000602084013e6101f0565b606091505b50509050806101fe57600080fd5b505b5050604080517f656970313936372e70726f78792e61646d696e00000000000000000000000000815290519081900360130190206000805160206108f88339815191526000199091011461025057fe5b610262826001600160e01b036102cd16565b5050505050506102e5565b610280816102df60201b6105581760201c565b6102bb5760405162461bcd60e51b815260040180806020018281038252603b815260200180610938603b913960400191505060405180910390fd5b60008051602061091883398151915255565b6000805160206108f883398151915255565b3b151590565b610604806102f46000396000f3fe60806040526004361061004a5760003560e01c80633659cfe6146100545780634f1ef286146100875780635c60da1b146101075780638f28397014610138578063f851a4401461016b575b610052610180565b005b34801561006057600080fd5b506100526004803603602081101561007757600080fd5b50356001600160a01b031661019a565b6100526004803603604081101561009d57600080fd5b6001600160a01b0382351691908101906040810160208201356401000000008111156100c857600080fd5b8201836020820111156100da57600080fd5b803590602001918460018302840111640100000000831117156100fc57600080fd5b509092509050610213565b34801561011357600080fd5b5061011c6102ff565b604080516001600160a01b039092168252519081900360200190f35b34801561014457600080fd5b506100526004803603602081101561015b57600080fd5b50356001600160a01b031661030e565b34801561017757600080fd5b5061011c610414565b610188610198565b61019861019361041e565b610443565b565b6101a2610467565b6001600160a01b0316336001600160a01b031614610207576040805162461bcd60e51b815260206004820152601f60248201527f55504752414441424c455f43414c4c45525f4d5553545f42455f41444d494e00604482015290519081900360640190fd5b6102108161048c565b50565b61021b610467565b6001600160a01b0316336001600160a01b031614610280576040805162461bcd60e51b815260206004820152601f60248201527f55504752414441424c455f43414c4c45525f4d5553545f42455f41444d494e00604482015290519081900360640190fd5b6102898361048c565b6000836001600160a01b031683836040518083838082843760405192019450600093509091505080830381855af49150503d80600081146102e6576040519150601f19603f3d011682016040523d82523d6000602084013e6102eb565b606091505b50509050806102f957600080fd5b50505050565b600061030961041e565b905090565b610316610467565b6001600160a01b0316336001600160a01b03161461037b576040805162461bcd60e51b815260206004820152601f60248201527f55504752414441424c455f43414c4c45525f4d5553545f42455f41444d494e00604482015290519081900360640190fd5b6001600160a01b0381166103c05760405162461bcd60e51b815260040180806020018281038252603681526020018061055f6036913960400191505060405180910390fd5b7f7e644d79422f17c01e4894b5f4f588d331ebfa28653d42ae832dc59e38c9798f6103e9610467565b604080516001600160a01b03928316815291841660208301528051918290030190a1610210816104cc565b6000610309610467565b7f360894a13ba1a3210667c828492db98dca3e2076cc3735a920a3ca505d382bbc5490565b3660008037600080366000845af43d6000803e808015610462573d6000f35b3d6000fd5b7fb53127684a568b3173ae13b9f8a6016e243e63b6e8ee1178d6a717850b5d61035490565b610495816104f0565b6040516001600160a01b038216907fbc7cd75a20ee27fd9adebab32041f755214dbc6bffa90cc0225b39da2e5c2d3b90600090a250565b7fb53127684a568b3173ae13b9f8a6016e243e63b6e8ee1178d6a717850b5d610355565b6104f981610558565b6105345760405162461bcd60e51b815260040180806020018281038252603b815260200180610595603b913960400191505060405180910390fd5b7f360894a13ba1a3210667c828492db98dca3e2076cc3735a920a3ca505d382bbc55565b3b15159056fe43616e6e6f74206368616e6765207468652061646d696e206f6620612070726f787920746f20746865207a65726f206164647265737343616e6e6f742073657420612070726f787920696d706c656d656e746174696f6e20746f2061206e6f6e2d636f6e74726163742061646472657373a265627a7a723158207f1bbc9fe9ec7b124307925d48ff4ed228038efeaf4c12fafcc73c53fafa1ecb64736f6c63430005110032b53127684a568b3173ae13b9f8a6016e243e63b6e8ee1178d6a717850b5d6103360894a13ba1a3210667c828492db98dca3e2076cc3735a920a3ca505d382bbc43616e6e6f742073657420612070726f787920696d706c656d656e746174696f6e20746f2061206e6f6e2d636f6e747261637420616464726573736080604052612582806100136000396000f3fe608060405234801561001057600080fd5b50600436106101a95760003560e01c806380a64ffe116100f9578063e58f9ce611610097578063ea93377311610071578063ea933773146105cc578063eb12d61e146105f2578063ebe1258b14610618578063f05d85d614610620576101a9565b8063e58f9ce61461051b578063e5c8b03d14610598578063e9de998c146105a0576101a9565b8063c4d66de8116100d3578063c4d66de814610480578063caae42d5146104a6578063cbfbf8e9146104d2578063df3e576f146104f5576101a9565b806380a64ffe146103dc578063a9c5e83b14610408578063b68e29bc14610410576101a9565b806346322f0a116101665780636d1fcc47116101405780636d1fcc4714610344578063702fef3d1461036157806375e80b81146103935780637df73e27146103b6576101a9565b806346322f0a146102a5578063485cc955146102d45780635bb6eb5614610302576101a9565b80630bee83a1146101ae578063158ef93e146101e25780631e02a614146101fe5780631e12c396146102335780633ea7be7e146102595780633f59f91014610276575b600080fd5b6101e0600480360360608110156101c457600080fd5b506001600160a01b038135169060208101359060400135610628565b005b6101ea6108a2565b604080519115158252519081900360200190f35b6101e06004803603606081101561021457600080fd5b50803560ff1690602081013590604001356001600160a01b03166108ac565b6101e06004803603602081101561024957600080fd5b50356001600160a01b0316610ad0565b6101e06004803603602081101561026f57600080fd5b5035610c22565b6101e06004803603604081101561028c57600080fd5b50803560ff1690602001356001600160a01b0316610d6a565b6102c2600480360360208110156102bb57600080fd5b5035610e9a565b60408051918252519081900360200190f35b6101e0600480360360408110156102ea57600080fd5b506001600160a01b0381358116916020013516610eac565b6103286004803603604081101561031857600080fd5b5060ff8135169060200135610f9b565b604080516001600160a01b039092168252519081900360200190f35b6102c26004803603602081101561035a57600080fd5b5035610ff9565b6101e06004803603606081101561037757600080fd5b506001600160a01b03813516906020810135906040013561100b565b6101e0600480360360408110156103a957600080fd5b50803590602001356111f2565b6101ea600480360360208110156103cc57600080fd5b50356001600160a01b031661138d565b6102c2600480360360408110156103f257600080fd5b506001600160a01b0381351690602001356113a0565b6103286113c8565b6101e06004803603602081101561042657600080fd5b81019060208101813564010000000081111561044157600080fd5b82018360208201111561045357600080fd5b8035906020019184600183028401116401000000008311171561047557600080fd5b5090925090506113d7565b6101e06004803603602081101561049657600080fd5b50356001600160a01b031661164f565b6102c2600480360360408110156104bc57600080fd5b506001600160a01b038135169060200135611708565b6101e0600480360360408110156104e857600080fd5b5080359060200135611725565b6103286004803603604081101561050b57600080fd5b5060ff81351690602001356118cc565b610523611901565b6040805160208082528351818301528351919283929083019185019080838360005b8381101561055d578181015183820152602001610545565b50505050905090810190601f16801561058a5780820380516001836020036101000a031916815260200191505b509250505060405180910390f35b6101e061198f565b6101e0600480360360408110156105b657600080fd5b506001600160a01b0381351690602001356119a1565b6101e0600480360360408110156105e257600080fd5b5060ff8135169060200135611b0f565b6101e06004803603602081101561060857600080fd5b50356001600160a01b0316611c5a565b610523611cac565b610328611d42565b610638610633611d51565b61138d565b6106735760405162461bcd60e51b815260040180806020018281038252603081526020018061251e6030913960400191505060405180910390fd5b60408051808201909152601981527f41535345545f414444524553535f49535f52455155495245440000000000000060208201526106c1906001600160a01b0385169063ffffffff611d5516565b6106d3836001600160a01b0316611ded565b610724576040805162461bcd60e51b815260206004820152601860248201527f41535345545f4d5553545f42455f415f434f4e54524143540000000000000000604482015290519081900360640190fd5b60008111610779576040805162461bcd60e51b815260206004820152601e60248201527f41535345545f53455454494e475f4d5553545f42455f504f5349544956450000604482015290519081900360640190fd5b816107cb576040805162461bcd60e51b815260206004820152601e60248201527f41535345545f53455454494e475f4d5553545f42455f50524f56494445440000604482015290519081900360640190fd5b6001600160a01b038316600090815260686020908152604080832085845290915290205415610841576040805162461bcd60e51b815260206004820152601c60248201527f41535345545f53455454494e475f414c52454144595f45584953545300000000604482015290519081900360640190fd5b6001600160a01b03831660008181526068602090815260408083208684528252918290208490558151848152915185939233927f4e2b2a1d532f8cdd2f36d0e7a476aefe318c71603a6259f091e419a0a89b9d0492918290030190a4505050565b60665460ff165b90565b6108b7610633611d51565b6108f25760405162461bcd60e51b815260040180806020018281038252603081526020018061251e6030913960400191505060405180910390fd5b60ff83166000908152606960205260409020548210610952576040805162461bcd60e51b8152602060048201526017602482015276444154415f50524f56494445525f4f55545f52414e474560481b604482015290519081900360640190fd5b610964816001600160a01b0316611ded565b6109b5576040805162461bcd60e51b815260206004820181905260248201527f444154415f50524f56494445525f4d5553545f42455f415f434f4e5452414354604482015290519081900360640190fd5b60ff831660009081526069602052604081208054849081106109d357fe5b6000918252602090912001546001600160a01b0390811691508216811415610a3b576040805162461bcd60e51b81526020600482015260166024820152751110551057d41493d59251115497d4d0535157d3d31160521b604482015290519081900360640190fd5b60ff84166000908152606960205260409020805483919085908110610a5c57fe5b60009182526020918290200180546001600160a01b0319166001600160a01b03938416179055604080518484168152928516918301919091528051859260ff88169233927f0cfb4a3ec1b7e9642ff5a9d5c53a4d45fb0871cb91ddeb6843fa15446a905da89281900390910190a450505050565b610adb610633611d51565b610b165760405162461bcd60e51b815260040180806020018281038252603081526020018061251e6030913960400191505060405180910390fd5b610b28816001600160a01b0316611ded565b610b79576040805162461bcd60e51b815260206004820181905260248201527f4e45575f41544d5f544f4b454e5f4d5553545f42455f415f434f4e5452414354604482015290519081900360640190fd5b606b5460408051808201909152601e81527f4e45575f41544d5f544f4b454e5f4d5553545f42455f50524f5649444544000060208201526001600160a01b0390911690610bcf908290849063ffffffff611e2916565b606b80546001600160a01b0319166001600160a01b03848116918217909255604051909183169033907fea08a28c0cf795a1f5676658e9c30baba10852de1597c17c21df5436d8e03b1390600090a45050565b610c2d610633611d51565b610c685760405162461bcd60e51b815260040180806020018281038252603081526020018061251e6030913960400191505060405180910390fd5b80610cba576040805162461bcd60e51b815260206004820181905260248201527f47454e4552414c5f53455454494e475f4d5553545f42455f50524f5649444544604482015290519081900360640190fd5b600081815260676020526040902054610d1a576040805162461bcd60e51b815260206004820152601960248201527f47454e4552414c5f53455454494e475f4e4f545f464f554e4400000000000000604482015290519081900360640190fd5b6000818152606760209081526040808320805493905580518381529051849233927f64b824064ba5f9a711e28ee6f31bed7d78d59f61ed17d91ded066e6bb2d67c09929081900390910190a35050565b610d75610633611d51565b610db05760405162461bcd60e51b815260040180806020018281038252603081526020018061251e6030913960400191505060405180910390fd5b610dc2816001600160a01b0316611ded565b610e13576040805162461bcd60e51b815260206004820181905260248201527f444154415f50524f56494445525f4d5553545f42455f415f434f4e5452414354604482015290519081900360640190fd5b60ff82166000908152606960205260409020610e35908263ffffffff611e8616565b5060ff82166000818152606960209081526040918290205482518181526001600160a01b03861692810192909252825190939233927f4b06ae69d9b887cca351ba3afbff3946bf4294dd48a17623dce1e78f1b56de6f929081900390910190a3505050565b60009081526067602052604090205490565b60665460ff1615610f04576040805162461bcd60e51b815260206004820152601c60248201527f434f4e54524143545f414c52454144595f494e495449414c495a454400000000604482015290519081900360640190fd5b610f16826001600160a01b0316611ded565b610f67576040805162461bcd60e51b815260206004820152601c60248201527f41544d5f544f4b454e5f4d5553545f42455f415f434f4e545241435400000000604482015290519081900360640190fd5b610f708161164f565b610f78611f6f565b50606b80546001600160a01b0319166001600160a01b0392909216919091179055565b60ff8216600090815260696020526040812054821015610fef5760ff83166000908152606960205260409020805483908110610fd357fe5b6000918252602090912001546001600160a01b03169050610ff3565b5060005b92915050565b60676020526000908152604090205481565b611016610633611d51565b6110515760405162461bcd60e51b815260040180806020018281038252603081526020018061251e6030913960400191505060405180910390fd5b816110a3576040805162461bcd60e51b815260206004820152601e60248201527f41535345545f53455454494e475f4d5553545f42455f50524f56494445440000604482015290519081900360640190fd5b6001600160a01b0383166000908152606860209081526040808320858452909152902054611112576040805162461bcd60e51b81526020600482015260176024820152761054d4d15517d4d15515125391d7d393d517d193d55391604a1b604482015290519081900360640190fd5b6001600160a01b0383166000908152606860209081526040808320858452909152902054811415611182576040805162461bcd60e51b8152602060048201526015602482015274139155d7d59053155157d4d0535157d054d7d3d311605a1b604482015290519081900360640190fd5b6001600160a01b03831660008181526068602090815260408083208684528252918290208054908590558251818152918201859052825190938693909233927fa8758afbf0f8c4b4ef4b4d92735b7d381ed303b8f7fdb7141b614893333071ff929181900390910190a450505050565b6111fd610633611d51565b6112385760405162461bcd60e51b815260040180806020018281038252603081526020018061251e6030913960400191505060405180910390fd5b6000811161128d576040805162461bcd60e51b815260206004820181905260248201527f47454e4552414c5f53455454494e475f4d5553545f42455f504f534954495645604482015290519081900360640190fd5b816112df576040805162461bcd60e51b815260206004820181905260248201527f47454e4552414c5f53455454494e475f4d5553545f42455f50524f5649444544604482015290519081900360640190fd5b60008281526067602052604090205415611340576040805162461bcd60e51b815260206004820152601e60248201527f47454e4552414c5f53455454494e475f414c52454144595f4558495354530000604482015290519081900360640190fd5b60008281526067602090815260409182902083905581518381529151849233927fa84d348826464d2d201d0d77ea7dc4d82796f44d75339956329cfa7d7505209592918290030190a35050565b6000610ff360338363ffffffff611f7e16565b6001600160a01b03919091166000908152606860209081526040808320938352929052205490565b606b546001600160a01b031690565b6113e2610633611d51565b61141d5760405162461bcd60e51b815260040180806020018281038252603081526020018061251e6030913960400191505060405180910390fd5b606082828080601f016020809104026020016040519081016040528093929190818152602001838380828437600092019190915250508251929350505061149f576040805162461bcd60e51b81526020600482015260116024820152704352415f43414e545f42455f454d50545960781b604482015290519081900360640190fd5b828260405160200180838380828437808301925050509250505060405160208183030381529060405280519060200120606a604051602001808280546001816001161561010002031660029004801561152f5780601f1061150d57610100808354040283529182019161152f565b820191906000526020600020905b81548152906001019060200180831161151b575b505091505060405160208183030381529060405280519060200120141561158f576040805162461bcd60e51b815260206004820152600f60248201526e10d49057d4d0535157d054d7d3d311608a1b604482015290519081900360640190fd5b61159b606a84846123f4565b50604080516020808252606a80546002600019610100600184161502019091160491830182905233937fb4915414e30db66320f027ab0e664557729f5f3c1c8bedf2fd6c80c14821450393919282918201908490801561163c5780601f106116115761010080835404028352916020019161163c565b820191906000526020600020905b81548152906001019060200180831161161f57829003601f168201915b50509250505060405180910390a2505050565b600054610100900460ff16806116685750611668611fe5565b80611676575060005460ff16155b6116b15760405162461bcd60e51b815260040180806020018281038252602e8152602001806124f0602e913960400191505060405180910390fd5b600054610100900460ff161580156116dc576000805460ff1961ff0019909116610100171660011790555b6116e58261138d565b6116f2576116f282611feb565b8015611704576000805461ff00191690555b5050565b606860209081526000928352604080842090915290825290205481565b611730610633611d51565b61176b5760405162461bcd60e51b815260040180806020018281038252603081526020018061251e6030913960400191505060405180910390fd5b600081116117c0576040805162461bcd60e51b815260206004820181905260248201527f47454e4552414c5f53455454494e475f4d5553545f42455f504f534954495645604482015290519081900360640190fd5b81611812576040805162461bcd60e51b815260206004820181905260248201527f47454e4552414c5f53455454494e475f4d5553545f42455f50524f5649444544604482015290519081900360640190fd5b60008281526067602052604090205481811415611876576040805162461bcd60e51b815260206004820152601e60248201527f47454e4552414c5f53455454494e475f455155414c5f50524556494f55530000604482015290519081900360640190fd5b60008381526067602090815260409182902084905581518381529081018490528151859233927fbdc6847efd3cf5c90267963135d5f671a98c9d84407132bc5c617647004a10eb929081900390910190a3505050565b606960205281600052604060002081815481106118e557fe5b6000918252602090912001546001600160a01b03169150829050565b606a805460408051602060026001851615610100026000190190941693909304601f810184900484028201840190925281815292918301828280156119875780601f1061195c57610100808354040283529160200191611987565b820191906000526020600020905b81548152906001019060200180831161196a57829003601f168201915b505050505081565b61199f61199a611d51565b612033565b565b6119ac610633611d51565b6119e75760405162461bcd60e51b815260040180806020018281038252603081526020018061251e6030913960400191505060405180910390fd5b80611a39576040805162461bcd60e51b815260206004820152601e60248201527f41535345545f53455454494e475f4d5553545f42455f50524f56494445440000604482015290519081900360640190fd5b6001600160a01b0382166000908152606860209081526040808320848452909152902054611aa8576040805162461bcd60e51b81526020600482015260176024820152761054d4d15517d4d15515125391d7d393d517d193d55391604a1b604482015290519081900360640190fd5b6001600160a01b0382166000818152606860209081526040808320858452825280832080549390558051838152905192938593909233927ff5ba73f066388776178abfcfe035e67f00f6b310383dbf8f3fa169c0d09c1896929081900390910190a4505050565b611b1a610633611d51565b611b555760405162461bcd60e51b815260040180806020018281038252603081526020018061251e6030913960400191505060405180910390fd5b60ff82166000908152606960205260409020548110611bb5576040805162461bcd60e51b8152602060048201526017602482015276444154415f50524f56494445525f4f55545f52414e474560481b604482015290519081900360640190fd5b60ff82166000908152606960205260408120805483908110611bd357fe5b600091825260208083209091015460ff86168352606990915260409091206001600160a01b039091169150611c0e908363ffffffff61207b16565b50604080516001600160a01b03831681529051839160ff86169133917f87e168848439c4433c472d3b85394ea6e659ca4e0fbeecee6f1dda9331e65d33919081900360200190a4505050565b611c65610633611d51565b611ca05760405162461bcd60e51b815260040180806020018281038252603081526020018061251e6030913960400191505060405180910390fd5b611ca981611feb565b50565b606a8054604080516020601f6002600019610100600188161502019095169490940493840181900481028201810190925282815260609390929091830182828015611d385780601f10611d0d57610100808354040283529160200191611d38565b820191906000526020600020905b815481529060010190602001808311611d1b57829003601f168201915b5050505050905090565b606b546001600160a01b031681565b3390565b611d5e826122ec565b8190611de85760405162461bcd60e51b81526004018080602001828103825283818151815260200191508051906020019080838360005b83811015611dad578181015183820152602001611d95565b50505050905090810190601f168015611dda5780820380516001836020036101000a031916815260200191505b509250505060405180910390fd5b505050565b6000813f7fc5d2460186f7233c927e7db2dcc703c0e500b653ca82273b7bfad8045d85a470818114801590611e2157508115155b949350505050565b611e3383836122fa565b8190611e805760405162461bcd60e51b8152602060048201818152835160248401528351909283926044909101919085019080838360008315611dad578181015183820152602001611d95565b50505050565b60606001600160a01b038216611ee3576040805162461bcd60e51b815260206004820152601960248201527f454d5054595f414444524553535f4e4f545f414c4c4f57454400000000000000604482015290519081900360640190fd5b8254600181018455600084815260209081902090910180546001600160a01b0319166001600160a01b0385161790558354604080518284028101840190915281815291859190830182828015611f6257602002820191906000526020600020905b81546001600160a01b03168152600190910190602001808311611f44575b5050505050905092915050565b6066805460ff19166001179055565b60006001600160a01b038216611fc55760405162461bcd60e51b81526004018080602001828103825260228152602001806124ce6022913960400191505060405180910390fd5b506001600160a01b03166000908152602091909152604090205460ff1690565b303b1590565b611ffc60338263ffffffff61230c16565b6040516001600160a01b038216907f47d1c22a25bb3a5d4e481b9b1e6944c2eade3181a0a20b495ed61d35b5323f2490600090a250565b61204460338263ffffffff61238d16565b6040516001600160a01b038216907f3525e22824a8a7df2c9a6029941c824cf95b6447f1e13d5128fd3826d35afe8b90600090a250565b815460609082106120e3578254604080516020808402820181019092528281529185918301828280156120d757602002820191906000526020600020905b81546001600160a01b031681526001909101906020018083116120b9575b50505050509050610ff3565b8254600019018214156121875782548390600019810190811061210257fe5b600091825260209091200180546001600160a01b0319169055825461212b846000198301612472565b508254604080516020808402820181019092528281529185918301828280156120d7576020028201919060005260206000209081546001600160a01b031681526001909101906020018083116120b95750505050509050610ff3565b82546000908490600019810190811061219c57fe5b60009182526020909120015484546001600160a01b0390911691508490849081106121c357fe5b60009182526020909120015484546001600160a01b0390911690859060001981019081106121ed57fe5b9060005260206000200160006101000a8154816001600160a01b0302191690836001600160a01b031602179055508084848154811061222857fe5b600091825260209091200180546001600160a01b0319166001600160a01b039290921691909117905583548490600019810190811061226357fe5b600091825260209091200180546001600160a01b0319169055835461228c856000198301612472565b508354604080516020808402820181019092528281529186918301828280156122de57602002820191906000526020600020905b81546001600160a01b031681526001909101906020018083116122c0575b505050505091505092915050565b6001600160a01b0316151590565b6001600160a01b039081169116141590565b6123168282611f7e565b15612368576040805162461bcd60e51b815260206004820152601f60248201527f526f6c65733a206163636f756e7420616c72656164792068617320726f6c6500604482015290519081900360640190fd5b6001600160a01b0316600090815260209190915260409020805460ff19166001179055565b6123978282611f7e565b6123d25760405162461bcd60e51b81526004018080602001828103825260218152602001806124ad6021913960400191505060405180910390fd5b6001600160a01b0316600090815260209190915260409020805460ff19169055565b828054600181600116156101000203166002900490600052602060002090601f016020900481019282601f106124355782800160ff19823516178555612462565b82800160010185558215612462579182015b82811115612462578235825591602001919060010190612447565b5061246e929150612492565b5090565b815481835581811115611de857600083815260209020611de89181019083015b6108a991905b8082111561246e576000815560010161249856fe526f6c65733a206163636f756e7420646f6573206e6f74206861766520726f6c65526f6c65733a206163636f756e7420697320746865207a65726f2061646472657373436f6e747261637420696e7374616e63652068617320616c7265616479206265656e20696e697469616c697a65645369676e6572526f6c653a2063616c6c657220646f6573206e6f74206861766520746865205369676e657220726f6c65a265627a7a723158202d907709221c394864f4189d894e6458d2e12a423e0cb24769b14004ea0e5e1264736f6c63430005110032a265627a7a72315820bb69f3b05021b6608ec6c86ca5eec2da1f6591c0c6abf9a174f4b73569a2bf6e64736f6c63430005110032",
  "source": "pragma solidity 0.5.17;\n\n// External Libraries\n//import \"@openzeppelin/contracts-ethereum-package/contracts/utils/Address.sol\";\n\n// Common\nimport \"./ATMGovernance.sol\";\nimport \"../util/AddressArrayLib.sol\";\nimport \"../base/TInitializable.sol\";\nimport \"../base/UpgradeableProxy.sol\";\n\n// Contracts\n//import \"@openzeppelin/contracts-ethereum-package/contracts/access/roles/SignerRole.sol\";\nimport \"../atm/ATMToken.sol\";\n\n// Interfaces\nimport \"./IATMGovernance.sol\";\nimport \"../atm/ATMGovernanceFactoryInterface.sol\";\nimport \"../interfaces/SettingsInterface.sol\";\n\n\n/**\n    @notice This contract will create upgradeable ATM instances.\n    @author develop@teller.finance\n */\ncontract ATMGovernanceFactory is ATMGovernanceFactoryInterface, TInitializable {\n    using AddressArrayLib for address[];\n    using AddressLib for address;\n    using Address for address;\n\n    /**\n        @notice It defines whether an ATM address exists or not.\n            Example:\n                address(0x1234...890) => true\n                address(0x2345...890) => false\n     */\n    mapping(address => bool) public atms;\n\n    // List of ATM instances\n    address[] public atmsList;\n\n    SettingsInterface public settings;\n\n    modifier onlyOwner() {\n        require(settings.hasPauserRole(msg.sender) == true, \"SENDER_ISNT_ALLOWED\");\n        _;\n    }\n\n    /**\n        @notice It creates a new ATM instance.\n        @param name ATM token name.\n        @param symbol ATM token symbol\n        @param decimals ATM token decimals \n        @param cap ATM token max cap.\n        @param maxVestingsPerWallet max vestings per wallet for the ATM token.\n        @return the new ATM governance instance address.\n     */\n    function createATM(\n        string calldata name,\n        string calldata symbol,\n        uint8 decimals,\n        uint256 cap,\n        uint256 maxVestingsPerWallet\n    ) external onlyOwner() isInitialized() returns (address) {\n        address owner = msg.sender;\n\n        bytes memory atmTokenInitData = abi.encodeWithSignature(\n            \"initialize(string,string,uint8,uint256,uint256)\",\n            name,\n            symbol,\n            decimals,\n            cap,\n            maxVestingsPerWallet\n        );\n\n        ATMToken atmTokenLogic = new ATMToken();\n        UpgradeableProxy atmTokenProxy = new UpgradeableProxy(\n            address(atmTokenLogic),\n            owner,\n            atmTokenInitData\n        );\n        address atmTokenProxyAddress = address(atmTokenProxy);\n\n        bytes memory atmGovernanceInitData = abi.encodeWithSignature(\n            \"initialize(address,address)\",\n            atmTokenProxy,\n            owner\n        );\n        ATMGovernance atmGovernanceLogic = new ATMGovernance();\n        UpgradeableProxy atmGovernanceProxy = new UpgradeableProxy(\n            address(atmGovernanceLogic),\n            owner,\n            atmGovernanceInitData\n        );\n        address atmGovernanceProxyAddress = address(atmGovernanceProxy);\n\n        atms[atmGovernanceProxyAddress] = true;\n        atmsList.add(atmGovernanceProxyAddress);\n\n        // Emit new ATM created event.\n        emit ATMCreated(msg.sender, atmGovernanceProxyAddress, atmTokenProxyAddress);\n    }\n\n    /**\n        @notice Tests whether an address is an ATM instance or not.\n        @param atmAddress address to test.\n        @return true if the given address is an ATM. Otherwise it returns false.\n     */\n    function isATM(address atmAddress) external view returns (bool) {\n        return atms[atmAddress];\n    }\n\n    /**\n        @notice Gets the ATMs list.\n        @return the list of ATMs.\n     */\n    function getATMs() external view returns (address[] memory) {\n        return atmsList;\n    }\n\n    /**\n        @notice It initializes this ATM Governance Factory instance.\n        @param settingsAddress settings address.\n     */\n    function initialize(address settingsAddress) external isNotInitialized() {\n        require(settingsAddress.isContract(), \"SETTINGS_MUST_BE_A_CONTRACT\");\n\n        _initialize();\n\n        settings = SettingsInterface(settingsAddress);\n    }\n\n    /**\n        @notice It updates the current settings.\n        @param newSettingsAddress the new setting address.\n     */\n    function setSettings(address newSettingsAddress) external onlyOwner() {\n        require(newSettingsAddress.isContract(), \"SETTINGS_MUST_BE_A_CONTRACT\");\n        address oldSettingsAddress = address(settings);\n        oldSettingsAddress.requireNotEqualTo(\n            newSettingsAddress,\n            \"NEW_SETTINGS_MUST_BE_PROVIDED\"\n        );\n\n        settings = SettingsInterface(newSettingsAddress);\n\n        emit SettingsUpdated(msg.sender, oldSettingsAddress, newSettingsAddress);\n    }\n}\n",
  "sourcePath": "/Users/sy/Documents/GitHub/teller-protocol-v1/contracts/atm/ATMGovernanceFactory.sol",
  "compiler": {
    "name": "solc",
    "version": "0.5.17+commit.d19bba13.Emscripten.clang"
  },
  "schemaVersion": "3.0.23",
  "updatedAt": "2020-08-15T16:19:12.003Z",
  "devdoc": {
    "author": "develop@teller.finance",
    "methods": {
      "createATM(string,string,uint8,uint256,uint256)": {
        "params": {
          "cap": "ATM token max cap.",
          "decimals": "ATM token decimals ",
          "maxVestingsPerWallet": "max vestings per wallet for the ATM token.",
          "name": "ATM token name.",
          "symbol": "ATM token symbol"
        },
        "return": "the new ATM governance instance address."
      },
      "getATMs()": {
        "return": "the list of ATMs."
      },
      "initialize(address)": {
        "params": {
          "settingsAddress": "settings address."
        }
      },
      "initialized()": {
        "return": "true if contract is initialized. Otherwise it returns false."
      },
      "isATM(address)": {
        "params": {
          "atmAddress": "address to test."
        },
        "return": "true if the given address is an ATM. Otherwise it returns false."
      },
      "setSettings(address)": {
        "params": {
          "newSettingsAddress": "the new setting address."
        }
      }
    }
  },
  "userdoc": {
    "methods": {
      "createATM(string,string,uint8,uint256,uint256)": {
        "notice": "It creates a new ATM instance."
      },
      "getATMs()": {
        "notice": "Gets the ATMs list."
      },
      "initialize(address)": {
        "notice": "It initializes this ATM Governance Factory instance."
      },
      "initialized()": {
        "notice": "Gets if the contract is initialized."
      },
      "isATM(address)": {
        "notice": "Tests whether an address is an ATM instance or not."
      },
      "setSettings(address)": {
        "notice": "It updates the current settings."
      }
    },
    "notice": "This contract will create upgradeable ATM instances."
  }
}