{
  "contractName": "ATMSettings",
  "abi": [
    {
      "anonymous": false,
      "inputs": [
        {
          "indexed": true,
          "internalType": "address",
          "name": "atm",
          "type": "address"
        },
        {
          "indexed": true,
          "internalType": "address",
          "name": "account",
          "type": "address"
        }
      ],
      "name": "ATMPaused",
      "type": "event"
    },
    {
      "anonymous": false,
      "inputs": [
        {
          "indexed": true,
          "internalType": "address",
          "name": "account",
          "type": "address"
        },
        {
          "indexed": true,
          "internalType": "address",
          "name": "atm",
          "type": "address"
        }
      ],
      "name": "ATMUnpaused",
      "type": "event"
    },
    {
      "anonymous": false,
      "inputs": [
        {
          "indexed": true,
          "internalType": "address",
          "name": "borrowedToken",
          "type": "address"
        },
        {
          "indexed": true,
          "internalType": "address",
          "name": "collateralToken",
          "type": "address"
        },
        {
          "indexed": true,
          "internalType": "address",
          "name": "oldAtm",
          "type": "address"
        },
        {
          "indexed": false,
          "internalType": "address",
          "name": "account",
          "type": "address"
        }
      ],
      "name": "MarketToAtmRemoved",
      "type": "event"
    },
    {
      "anonymous": false,
      "inputs": [
        {
          "indexed": true,
          "internalType": "address",
          "name": "borrowedToken",
          "type": "address"
        },
        {
          "indexed": true,
          "internalType": "address",
          "name": "collateralToken",
          "type": "address"
        },
        {
          "indexed": true,
          "internalType": "address",
          "name": "atm",
          "type": "address"
        },
        {
          "indexed": false,
          "internalType": "address",
          "name": "account",
          "type": "address"
        }
      ],
      "name": "MarketToAtmSet",
      "type": "event"
    },
    {
      "anonymous": false,
      "inputs": [
        {
          "indexed": true,
          "internalType": "address",
          "name": "borrowedToken",
          "type": "address"
        },
        {
          "indexed": true,
          "internalType": "address",
          "name": "collateralToken",
          "type": "address"
        },
        {
          "indexed": true,
          "internalType": "address",
          "name": "oldAtm",
          "type": "address"
        },
        {
          "indexed": false,
          "internalType": "address",
          "name": "newAtm",
          "type": "address"
        },
        {
          "indexed": false,
          "internalType": "address",
          "name": "account",
          "type": "address"
        }
      ],
      "name": "MarketToAtmUpdated",
      "type": "event"
    },
    {
      "constant": true,
      "inputs": [
        {
          "internalType": "address",
          "name": "",
          "type": "address"
        }
      ],
      "name": "atmPaused",
      "outputs": [
        {
          "internalType": "bool",
          "name": "",
          "type": "bool"
        }
      ],
      "payable": false,
      "stateMutability": "view",
      "type": "function"
    },
    {
      "constant": true,
      "inputs": [],
      "name": "initialized",
      "outputs": [
        {
          "internalType": "bool",
          "name": "value",
          "type": "bool"
        }
      ],
      "payable": false,
      "stateMutability": "view",
      "type": "function"
    },
    {
      "constant": true,
      "inputs": [
        {
          "internalType": "address",
          "name": "",
          "type": "address"
        },
        {
          "internalType": "address",
          "name": "",
          "type": "address"
        }
      ],
      "name": "marketToAtm",
      "outputs": [
        {
          "internalType": "address",
          "name": "",
          "type": "address"
        }
      ],
      "payable": false,
      "stateMutability": "view",
      "type": "function"
    },
    {
      "constant": true,
      "inputs": [],
      "name": "settings",
      "outputs": [
        {
          "internalType": "contract SettingsInterface",
          "name": "",
          "type": "address"
        }
      ],
      "payable": false,
      "stateMutability": "view",
      "type": "function"
    },
    {
      "constant": false,
      "inputs": [
        {
          "internalType": "address",
          "name": "atmAddress",
          "type": "address"
        }
      ],
      "name": "pauseATM",
      "outputs": [],
      "payable": false,
      "stateMutability": "nonpayable",
      "type": "function"
    },
    {
      "constant": false,
      "inputs": [
        {
          "internalType": "address",
          "name": "atmAddress",
          "type": "address"
        }
      ],
      "name": "unpauseATM",
      "outputs": [],
      "payable": false,
      "stateMutability": "nonpayable",
      "type": "function"
    },
    {
      "constant": true,
      "inputs": [
        {
          "internalType": "address",
          "name": "atmAddress",
          "type": "address"
        }
      ],
      "name": "isATMPaused",
      "outputs": [
        {
          "internalType": "bool",
          "name": "",
          "type": "bool"
        }
      ],
      "payable": false,
      "stateMutability": "view",
      "type": "function"
    },
    {
      "constant": false,
      "inputs": [
        {
          "internalType": "address",
          "name": "borrowedToken",
          "type": "address"
        },
        {
          "internalType": "address",
          "name": "collateralToken",
          "type": "address"
        },
        {
          "internalType": "address",
          "name": "atmAddress",
          "type": "address"
        }
      ],
      "name": "setATMToMarket",
      "outputs": [],
      "payable": false,
      "stateMutability": "nonpayable",
      "type": "function"
    },
    {
      "constant": false,
      "inputs": [
        {
          "internalType": "address",
          "name": "borrowedToken",
          "type": "address"
        },
        {
          "internalType": "address",
          "name": "collateralToken",
          "type": "address"
        },
        {
          "internalType": "address",
          "name": "newAtmAddress",
          "type": "address"
        }
      ],
      "name": "updateATMToMarket",
      "outputs": [],
      "payable": false,
      "stateMutability": "nonpayable",
      "type": "function"
    },
    {
      "constant": false,
      "inputs": [
        {
          "internalType": "address",
          "name": "borrowedToken",
          "type": "address"
        },
        {
          "internalType": "address",
          "name": "collateralToken",
          "type": "address"
        }
      ],
      "name": "removeATMToMarket",
      "outputs": [],
      "payable": false,
      "stateMutability": "nonpayable",
      "type": "function"
    },
    {
      "constant": true,
      "inputs": [
        {
          "internalType": "address",
          "name": "borrowedToken",
          "type": "address"
        },
        {
          "internalType": "address",
          "name": "collateralToken",
          "type": "address"
        }
      ],
      "name": "getATMForMarket",
      "outputs": [
        {
          "internalType": "address",
          "name": "",
          "type": "address"
        }
      ],
      "payable": false,
      "stateMutability": "view",
      "type": "function"
    },
    {
      "constant": true,
      "inputs": [
        {
          "internalType": "address",
          "name": "borrowedToken",
          "type": "address"
        },
        {
          "internalType": "address",
          "name": "collateralToken",
          "type": "address"
        },
        {
          "internalType": "address",
          "name": "atmAddress",
          "type": "address"
        }
      ],
      "name": "isATMForMarket",
      "outputs": [
        {
          "internalType": "bool",
          "name": "",
          "type": "bool"
        }
      ],
      "payable": false,
      "stateMutability": "view",
      "type": "function"
    },
    {
      "constant": false,
      "inputs": [
        {
          "internalType": "address",
          "name": "settingsAddress",
          "type": "address"
        }
      ],
      "name": "initialize",
      "outputs": [],
      "payable": false,
      "stateMutability": "nonpayable",
      "type": "function"
    }
  ],
  "bytecode": "0x608060405234801561001057600080fd5b506114a7806100206000396000f3fe608060405234801561001057600080fd5b50600436106100cf5760003560e01c80635fdee6551161008c578063d6d77ea111610066578063d6d77ea114610199578063d73d38c1146101ac578063e06174e4146101bf578063ff3ede99146101d4576100cf565b80635fdee655146101605780637f4511b614610173578063c4d66de814610186576100cf565b8063010f5888146100d4578063158ef93e146100fd5780631fb7cec9146101055780633d5dd9951461012557806342e9c9fd1461013a5780634911e24e1461014d575b600080fd5b6100e76100e2366004610ed8565b6101e7565b6040516100f4919061132f565b60405180910390f35b6100e76101fc565b610118610113366004610f14565b61021b565b6040516100f491906112f8565b610138610133366004610ed8565b61024a565b005b6100e7610148366004610f4e565b6103f6565b61013861015b366004610ed8565b61042b565b61011861016e366004610f14565b6105ce565b610138610181366004610f4e565b6105f4565b610138610194366004610ed8565b610886565b6100e76101a7366004610ed8565b6108bf565b6101386101ba366004610f4e565b61095e565b6101c7610b9e565b6040516100f4919061133d565b6101386101e2366004610f14565b610bc0565b60006020819052908152604090205460ff1681565b60008060405161020b906112e2565b6040519081900390205492915050565b6001600160a01b0380831660009081526001602090815260408083208585168452909152902054165b92915050565b610252610b9e565b6001600160a01b031663c095ea27336040518263ffffffff1660e01b815260040161027d9190611306565b60006040518083038186803b15801561029557600080fd5b505afa1580156102a9573d6000803e3d6000fd5b505050506102b56101fc565b6102da5760405162461bcd60e51b81526004016102d1906113eb565b60405180910390fd5b6102e2610b9e565b6001600160a01b031663b187bd266040518163ffffffff1660e01b815260040160206040518083038186803b15801561031a57600080fd5b505afa15801561032e573d6000803e3d6000fd5b505050506040513d601f19601f820116820180604052506103529190810190610f9b565b1561036f5760405162461bcd60e51b81526004016102d19061136b565b6001600160a01b03811660009081526020819052604090205460ff1615156001146103ac5760405162461bcd60e51b81526004016102d19061137b565b6001600160a01b038116600081815260208190526040808220805460ff191690555133917f0846ebe02ca298464c232059f1870a953ec7727b70ccf130a4ae0edf98ef328391a350565b6001600160a01b03838116600090815260016020908152604080832086851684529091529020548116908216145b9392505050565b610433610b9e565b6001600160a01b031663c095ea27336040518263ffffffff1660e01b815260040161045e9190611306565b60006040518083038186803b15801561047657600080fd5b505afa15801561048a573d6000803e3d6000fd5b505050506104966101fc565b6104b25760405162461bcd60e51b81526004016102d1906113eb565b6104ba610b9e565b6001600160a01b031663b187bd266040518163ffffffff1660e01b815260040160206040518083038186803b1580156104f257600080fd5b505afa158015610506573d6000803e3d6000fd5b505050506040513d601f19601f8201168201806040525061052a9190810190610f9b565b156105475760405162461bcd60e51b81526004016102d19061139b565b6001600160a01b03811660009081526020819052604090205460ff16156105805760405162461bcd60e51b81526004016102d1906113bb565b6001600160a01b038116600081815260208190526040808220805460ff19166001179055513392917f7721350dceac4818833f9f33632008af73234ae2008cdece0facd6202fb2f2b391a350565b60016020908152600092835260408084209091529082529020546001600160a01b031681565b6105fc610b9e565b6001600160a01b031663c095ea27336040518263ffffffff1660e01b81526004016106279190611306565b60006040518083038186803b15801561063f57600080fd5b505afa158015610653573d6000803e3d6000fd5b5050505061065f6101fc565b61067b5760405162461bcd60e51b81526004016102d1906113eb565b61068d836001600160a01b0316610df4565b15156001146106ae5760405162461bcd60e51b81526004016102d19061138b565b6106b6610b9e565b6001600160a01b031663a734f06e6040518163ffffffff1660e01b815260040160206040518083038186803b1580156106ee57600080fd5b505afa158015610702573d6000803e3d6000fd5b505050506040513d601f19601f820116820180604052506107269190810190610ef6565b6001600160a01b0316826001600160a01b031614806107585750610752826001600160a01b0316610df4565b15156001145b6107745760405162461bcd60e51b81526004016102d1906113ab565b6001600160a01b0383811660009081526001602090815260408083208685168452909152902054166107b85760405162461bcd60e51b81526004016102d19061134b565b6001600160a01b0383811660009081526001602090815260408083208685168452909152902054811690821614156108025760405162461bcd60e51b81526004016102d1906113cb565b6001600160a01b03838116600081815260016020908152604080832087861680855292529182902080546001600160a01b031981168787161790915591519190931692839290917fe553c9ed29171afc7414791a0b1dc88a2a7e261fa30534bf2eb904ece5c97d6d906108789087903390611314565b60405180910390a450505050565b61088e6101fc565b156108ab5760405162461bcd60e51b81526004016102d1906113fb565b6108b481610e30565b6108bc610e99565b50565b60006108c9610b9e565b6001600160a01b031663b187bd266040518163ffffffff1660e01b815260040160206040518083038186803b15801561090157600080fd5b505afa158015610915573d6000803e3d6000fd5b505050506040513d601f19601f820116820180604052506109399190810190610f9b565b806102445750506001600160a01b031660009081526020819052604090205460ff1690565b610966610b9e565b6001600160a01b031663c095ea27336040518263ffffffff1660e01b81526004016109919190611306565b60006040518083038186803b1580156109a957600080fd5b505afa1580156109bd573d6000803e3d6000fd5b505050506109c96101fc565b6109e55760405162461bcd60e51b81526004016102d1906113eb565b6109f7836001600160a01b0316610df4565b1515600114610a185760405162461bcd60e51b81526004016102d19061138b565b610a20610b9e565b6001600160a01b031663a734f06e6040518163ffffffff1660e01b815260040160206040518083038186803b158015610a5857600080fd5b505afa158015610a6c573d6000803e3d6000fd5b505050506040513d601f19601f82011682018060405250610a909190810190610ef6565b6001600160a01b0316826001600160a01b03161480610ac25750610abc826001600160a01b0316610df4565b15156001145b610ade5760405162461bcd60e51b81526004016102d1906113ab565b6001600160a01b03838116600090815260016020908152604080832086851684529091529020541615610b235760405162461bcd60e51b81526004016102d1906113db565b6001600160a01b03838116600081815260016020908152604080832087861680855292529182902080546001600160a01b031916948616948517905590519091907f68f1e34109a4b734735f0d5f71b860f59bd8243803b4f954fe72a99f2dae8df390610b91903390611306565b60405180910390a4505050565b6000806000604051610baf906112ed565b604051908190039020549250505090565b610bc8610b9e565b6001600160a01b031663c095ea27336040518263ffffffff1660e01b8152600401610bf39190611306565b60006040518083038186803b158015610c0b57600080fd5b505afa158015610c1f573d6000803e3d6000fd5b50505050610c2b6101fc565b610c475760405162461bcd60e51b81526004016102d1906113eb565b610c59826001600160a01b0316610df4565b1515600114610c7a5760405162461bcd60e51b81526004016102d19061138b565b610c82610b9e565b6001600160a01b031663a734f06e6040518163ffffffff1660e01b815260040160206040518083038186803b158015610cba57600080fd5b505afa158015610cce573d6000803e3d6000fd5b505050506040513d601f19601f82011682018060405250610cf29190810190610ef6565b6001600160a01b0316816001600160a01b03161480610d245750610d1e816001600160a01b0316610df4565b15156001145b610d405760405162461bcd60e51b81526004016102d1906113ab565b6001600160a01b038281166000908152600160209081526040808320858516845290915290205416610d845760405162461bcd60e51b81526004016102d19061134b565b6001600160a01b03828116600081815260016020908152604080832086861680855292529182902080546001600160a01b0319811690915591519190931692839290917f12624da807a51aae6b36ec16e7f8be3e24565edf22e87d27a46f5318344d4a3b90610b91903390611306565b6000813f7fc5d2460186f7233c927e7db2dcc703c0e500b653ca82273b7bfad8045d85a470818114801590610e2857508115155b949350505050565b6000610e3a610b9e565b6001600160a01b031614610e7b57610e5a816001600160a01b0316610df4565b610e765760405162461bcd60e51b81526004016102d19061135b565b6108bc565b6000604051610e89906112ed565b6040519081900390208290555050565b6000604051610ea7906112e2565b6040519081900390206001905550565b803561024481611447565b805161024481611447565b80516102448161145b565b600060208284031215610eea57600080fd5b6000610e288484610eb7565b600060208284031215610f0857600080fd5b6000610e288484610ec2565b60008060408385031215610f2757600080fd5b6000610f338585610eb7565b9250506020610f4485828601610eb7565b9150509250929050565b600080600060608486031215610f6357600080fd5b6000610f6f8686610eb7565b9350506020610f8086828701610eb7565b9250506040610f9186828701610eb7565b9150509250925092565b600060208284031215610fad57600080fd5b6000610e288484610ecd565b610fc281611435565b82525050565b610fc281611419565b610fc281611424565b610fc28161143c565b6000610ff0601c83611414565b7f54496e697469616c697a61626c652e6973496e697469616c697a6564000000008152601c0192915050565b600061102960178361140b565b7f41544d5f544f5f4d41524b45545f4e4f545f4558495354000000000000000000815260200192915050565b6000611062601b8361140b565b7f53455454494e47535f4d5553545f42455f415f434f4e54524143540000000000815260200192915050565b600061109b60128361140b565b71141310551193d49357d254d7d4105554d15160721b815260200192915050565b60006110c960118361140b565b7010551357d254d7d393d517d4105554d151607a1b815260200192915050565b60006110f6601f8361140b565b7f424f52524f5745445f544f4b454e5f4d5553545f42455f434f4e545241435400815260200192915050565b600061112f601a8361140b565b7f504c4154464f524d5f49535f414c52454144595f504155534544000000000000815260200192915050565b6000611168601b8361140b565b7f434f4c4c5f544f4b454e5f4d5553545f42455f434f4e54524143540000000000815260200192915050565b60006111a1601883611414565b7f426173655570677261646561626c652e73657474696e67730000000000000000815260180192915050565b60006111da60158361140b565b7410551357d254d7d053149150511657d4105554d151605a1b815260200192915050565b600061120b601a8361140b565b7f50524f564944455f4e45575f41544d5f464f525f4d41524b4554000000000000815260200192915050565b6000611244601b8361140b565b7f41544d5f544f5f4d41524b45545f414c52454144595f45584953540000000000815260200192915050565b600061127d60188361140b565b7f434f4e54524143545f4e4f545f494e495449414c495a45440000000000000000815260200192915050565b60006112b6601c8361140b565b7f434f4e54524143545f414c52454144595f494e495449414c495a454400000000815260200192915050565b600061024482610fe3565b600061024482611194565b602081016102448284610fc8565b602081016102448284610fb9565b604081016113228285610fc8565b6104246020830184610fb9565b602081016102448284610fd1565b602081016102448284610fda565b602080825281016102448161101c565b6020808252810161024481611055565b602080825281016102448161108e565b60208082528101610244816110bc565b60208082528101610244816110e9565b6020808252810161024481611122565b602080825281016102448161115b565b60208082528101610244816111cd565b60208082528101610244816111fe565b6020808252810161024481611237565b6020808252810161024481611270565b60208082528101610244816112a9565b90815260200190565b919050565b600061024482611429565b151590565b6001600160a01b031690565b6000610244825b600061024482611419565b61145081611419565b81146108bc57600080fd5b6114508161142456fea365627a7a72315820c69b2d14ed006141d6b28e7499ed562f358d5dbe0fe3abc60bd8b1848022d38b6c6578706572696d656e74616cf564736f6c63430005110040",
  "source": "pragma solidity 0.5.17;\npragma experimental ABIEncoderV2;\n\n// Libraries\nimport \"@openzeppelin/contracts-ethereum-package/contracts/utils/Address.sol\";\n\n// Contracts\nimport \"../base/TInitializable.sol\";\nimport \"../base/BaseUpgradeable.sol\";\n\n// Interfaces\nimport \"./IATMSettings.sol\";\n\n/*****************************************************************************************************/\n/**                                             WARNING                                             **/\n/**                                  THIS CONTRACT IS UPGRADEABLE!                                  **/\n/**  ---------------------------------------------------------------------------------------------  **/\n/**  Do NOT change the order of or PREPEND any storage variables to this or new versions of this    **/\n/**  contract as this will cause the the storage slots to be overwritten on the proxy contract!!    **/\n/**                                                                                                 **/\n/**  Visit https://docs.openzeppelin.com/upgrades/2.6/proxies#upgrading-via-the-proxy-pattern for   **/\n/**  more information.                                                                              **/\n/*****************************************************************************************************/\n/**\n    @notice It manages the settings for the ATMs.\n\n    @author develop@teller.finance\n */\ncontract ATMSettings is IATMSettings, TInitializable, BaseUpgradeable {\n    using Address for address;\n\n    /** Constants */\n\n    /* State Variables */\n\n    /**\n        @notice It represents a mapping to identify whether a ATM is paused or not.\n\n        i.e.: address(ATM) => true or false.\n     */\n    mapping(address => bool) public atmPaused;\n\n    /**\n        @notice It represents a mapping to identify the ATM used in a given market.\n        @notice A market is defined by a borrowed token and a collateral token.\n\n        i.e.: address(DAI) => address(ETH) => address(ATM Teller)\n     */\n    mapping(address => mapping(address => address)) public marketToAtm;\n\n    /* Constructor */\n\n    /** External Functions */\n\n    /**\n        @notice It pauses a given ATM.\n        @param atmAddress ATM address to pause.\n     */\n    function pauseATM(address atmAddress) external onlyPauser() isInitialized() {\n        require(settings().isPaused() == false, \"PLATFORM_IS_ALREADY_PAUSED\");\n        require(atmPaused[atmAddress] == false, \"ATM_IS_ALREADY_PAUSED\");\n\n        atmPaused[atmAddress] = true;\n\n        emit ATMPaused(atmAddress, msg.sender);\n    }\n\n    /**\n        @notice It unpauses a given ATM.\n        @param atmAddress ATM address to unpause.\n     */\n    function unpauseATM(address atmAddress) external onlyPauser() isInitialized() {\n        require(settings().isPaused() == false, \"PLATFORM_IS_PAUSED\");\n        require(atmPaused[atmAddress] == true, \"ATM_IS_NOT_PAUSED\");\n\n        atmPaused[atmAddress] = false;\n\n        emit ATMUnpaused(msg.sender, atmAddress);\n    }\n\n    /**\n        @notice Gets whether an ATM is paused (or the platform is paused) or not.\n        @param atmAddress ATM address to test.\n        @return true if ATM is paused. Otherwise it returns false.\n     */\n    function isATMPaused(address atmAddress) external view returns (bool) {\n        return settings().isPaused() || atmPaused[atmAddress];\n    }\n\n    /**\n        @notice Sets an ATM for a given market (borrowed token and collateral token).\n        @param borrowedToken borrowed token address.\n        @param collateralToken collateral token address.\n        @param atmAddress ATM address to set.\n     */\n    function setATMToMarket(\n        address borrowedToken,\n        address collateralToken,\n        address atmAddress\n    ) external onlyPauser() isInitialized() {\n        require(borrowedToken.isContract() == true, \"BORROWED_TOKEN_MUST_BE_CONTRACT\");\n        require(\n            collateralToken == settings().ETH_ADDRESS() ||\n                collateralToken.isContract() == true,\n            \"COLL_TOKEN_MUST_BE_CONTRACT\"\n        );\n        require(\n            marketToAtm[borrowedToken][collateralToken] == address(0x0),\n            \"ATM_TO_MARKET_ALREADY_EXIST\"\n        );\n\n        marketToAtm[borrowedToken][collateralToken] = atmAddress;\n\n        emit MarketToAtmSet(borrowedToken, collateralToken, atmAddress, msg.sender);\n    }\n\n    /**\n        @notice Updates a new ATM for a given market (borrowed token and collateral token).\n        @param borrowedToken borrowed token address.\n        @param collateralToken collateral token address.\n        @param newAtmAddress the new ATM address to update.\n     */\n    function updateATMToMarket(\n        address borrowedToken,\n        address collateralToken,\n        address newAtmAddress\n    ) external onlyPauser() isInitialized() {\n        require(borrowedToken.isContract() == true, \"BORROWED_TOKEN_MUST_BE_CONTRACT\");\n        require(\n            collateralToken == settings().ETH_ADDRESS() ||\n                collateralToken.isContract() == true,\n            \"COLL_TOKEN_MUST_BE_CONTRACT\"\n        );\n        require(\n            marketToAtm[borrowedToken][collateralToken] != address(0x0),\n            \"ATM_TO_MARKET_NOT_EXIST\"\n        );\n        require(\n            marketToAtm[borrowedToken][collateralToken] != newAtmAddress,\n            \"PROVIDE_NEW_ATM_FOR_MARKET\"\n        );\n\n        address oldAtm = marketToAtm[borrowedToken][collateralToken];\n\n        marketToAtm[borrowedToken][collateralToken] = newAtmAddress;\n\n        emit MarketToAtmUpdated(\n            borrowedToken,\n            collateralToken,\n            oldAtm,\n            newAtmAddress,\n            msg.sender\n        );\n    }\n\n    /**\n        @notice Removes the ATM address for a given market (borrowed token and collateral token).\n        @param borrowedToken borrowed token address.\n        @param collateralToken collateral token address.\n     */\n    function removeATMToMarket(address borrowedToken, address collateralToken)\n        external\n        onlyPauser()\n        isInitialized()\n    {\n        require(borrowedToken.isContract() == true, \"BORROWED_TOKEN_MUST_BE_CONTRACT\");\n        require(\n            collateralToken == settings().ETH_ADDRESS() ||\n                collateralToken.isContract() == true,\n            \"COLL_TOKEN_MUST_BE_CONTRACT\"\n        );\n        require(\n            marketToAtm[borrowedToken][collateralToken] != address(0x0),\n            \"ATM_TO_MARKET_NOT_EXIST\"\n        );\n\n        address oldAtmAddress = marketToAtm[borrowedToken][collateralToken];\n\n        delete marketToAtm[borrowedToken][collateralToken];\n\n        emit MarketToAtmRemoved(\n            borrowedToken,\n            collateralToken,\n            oldAtmAddress,\n            msg.sender\n        );\n    }\n\n    /**\n        @notice Gets the ATM configured for a given market (borrowed token and collateral token).\n        @param borrowedToken borrowed token address.\n        @param collateralToken collateral token address.\n        @return the ATM address configured for a given market.\n     */\n    function getATMForMarket(address borrowedToken, address collateralToken)\n        external\n        view\n        returns (address)\n    {\n        return marketToAtm[borrowedToken][collateralToken];\n    }\n\n    /**\n        @notice Tests whether an ATM is configured for a given market (borrowed token and collateral token) or not.\n        @param borrowedToken borrowed token address.\n        @param collateralToken collateral token address.\n        @param atmAddress ATM address to test.\n        @return true if the ATM is configured for the market. Otherwise it returns false.\n     */\n    function isATMForMarket(\n        address borrowedToken,\n        address collateralToken,\n        address atmAddress\n    ) external view returns (bool) {\n        return marketToAtm[borrowedToken][collateralToken] == atmAddress;\n    }\n\n    /**\n        @notice It initializes this ATM Settings instance.\n        @param settingsAddress settings address.\n     */\n    function initialize(address settingsAddress) external isNotInitialized() {\n        _setSettings(settingsAddress);\n\n        TInitializable._initialize();\n    }\n\n    /** Internal functions */\n\n    /** Private functions */\n}\n",
  "sourcePath": "/Users/sy/Documents/GitHub/teller-protocol-v1/contracts/settings/ATMSettings.sol",
  "compiler": {
    "name": "solc",
    "version": "0.5.17+commit.d19bba13.Emscripten.clang"
  },
  "schemaVersion": "3.0.23",
  "updatedAt": "2020-09-06T02:15:12.623Z",
  "devdoc": {
    "author": "develop@teller.finance",
    "methods": {
      "getATMForMarket(address,address)": {
        "params": {
          "borrowedToken": "borrowed token address.",
          "collateralToken": "collateral token address."
        },
        "return": "the ATM address configured for a given market."
      },
      "initialize(address)": {
        "params": {
          "settingsAddress": "settings address."
        }
      },
      "initialized()": {
        "return": "true if contract is initialized. Otherwise it returns false."
      },
      "isATMForMarket(address,address,address)": {
        "params": {
          "atmAddress": "ATM address to test.",
          "borrowedToken": "borrowed token address.",
          "collateralToken": "collateral token address."
        },
        "return": "true if the ATM is configured for the market. Otherwise it returns false."
      },
      "isATMPaused(address)": {
        "params": {
          "atmAddress": "ATM address to test."
        },
        "return": "true if ATM is paused. Otherwise it returns false."
      },
      "pauseATM(address)": {
        "params": {
          "atmAddress": "ATM address to pause."
        }
      },
      "removeATMToMarket(address,address)": {
        "params": {
          "borrowedToken": "borrowed token address.",
          "collateralToken": "collateral token address."
        }
      },
      "setATMToMarket(address,address,address)": {
        "params": {
          "atmAddress": "ATM address to set.",
          "borrowedToken": "borrowed token address.",
          "collateralToken": "collateral token address."
        }
      },
      "unpauseATM(address)": {
        "params": {
          "atmAddress": "ATM address to unpause."
        }
      },
      "updateATMToMarket(address,address,address)": {
        "params": {
          "borrowedToken": "borrowed token address.",
          "collateralToken": "collateral token address.",
          "newAtmAddress": "the new ATM address to update."
        }
      }
    }
  },
  "userdoc": {
    "methods": {
      "getATMForMarket(address,address)": {
        "notice": "Gets the ATM configured for a given market (borrowed token and collateral token)."
      },
      "initialize(address)": {
        "notice": "It initializes this ATM Settings instance."
      },
      "initialized()": {
        "notice": "Gets if the contract is initialized."
      },
      "isATMForMarket(address,address,address)": {
        "notice": "Tests whether an ATM is configured for a given market (borrowed token and collateral token) or not."
      },
      "isATMPaused(address)": {
        "notice": "Gets whether an ATM is paused (or the platform is paused) or not."
      },
      "pauseATM(address)": {
        "notice": "It pauses a given ATM."
      },
      "removeATMToMarket(address,address)": {
        "notice": "Removes the ATM address for a given market (borrowed token and collateral token)."
      },
      "setATMToMarket(address,address,address)": {
        "notice": "Sets an ATM for a given market (borrowed token and collateral token)."
      },
      "settings()": {
        "notice": "The settings contract."
      },
      "unpauseATM(address)": {
        "notice": "It unpauses a given ATM."
      },
      "updateATMToMarket(address,address,address)": {
        "notice": "Updates a new ATM for a given market (borrowed token and collateral token)."
      }
    },
    "notice": "It manages the settings for the ATMs."
  }
}