{
  "contractName": "ATMSettings",
  "abi": [
    {
      "anonymous": false,
      "inputs": [
        {
          "indexed": true,
          "internalType": "address",
          "name": "atm",
          "type": "address"
        },
        {
          "indexed": true,
          "internalType": "address",
          "name": "account",
          "type": "address"
        }
      ],
      "name": "ATMPaused",
      "type": "event"
    },
    {
      "anonymous": false,
      "inputs": [
        {
          "indexed": true,
          "internalType": "address",
          "name": "account",
          "type": "address"
        },
        {
          "indexed": true,
          "internalType": "address",
          "name": "atm",
          "type": "address"
        }
      ],
      "name": "ATMUnpaused",
      "type": "event"
    },
    {
      "anonymous": false,
      "inputs": [
        {
          "indexed": true,
          "internalType": "address",
          "name": "borrowedToken",
          "type": "address"
        },
        {
          "indexed": true,
          "internalType": "address",
          "name": "collateralToken",
          "type": "address"
        },
        {
          "indexed": true,
          "internalType": "address",
          "name": "oldAtm",
          "type": "address"
        },
        {
          "indexed": false,
          "internalType": "address",
          "name": "account",
          "type": "address"
        }
      ],
      "name": "MarketToAtmRemoved",
      "type": "event"
    },
    {
      "anonymous": false,
      "inputs": [
        {
          "indexed": true,
          "internalType": "address",
          "name": "borrowedToken",
          "type": "address"
        },
        {
          "indexed": true,
          "internalType": "address",
          "name": "collateralToken",
          "type": "address"
        },
        {
          "indexed": true,
          "internalType": "address",
          "name": "atm",
          "type": "address"
        },
        {
          "indexed": false,
          "internalType": "address",
          "name": "account",
          "type": "address"
        }
      ],
      "name": "MarketToAtmSet",
      "type": "event"
    },
    {
      "anonymous": false,
      "inputs": [
        {
          "indexed": true,
          "internalType": "address",
          "name": "borrowedToken",
          "type": "address"
        },
        {
          "indexed": true,
          "internalType": "address",
          "name": "collateralToken",
          "type": "address"
        },
        {
          "indexed": true,
          "internalType": "address",
          "name": "oldAtm",
          "type": "address"
        },
        {
          "indexed": false,
          "internalType": "address",
          "name": "newAtm",
          "type": "address"
        },
        {
          "indexed": false,
          "internalType": "address",
          "name": "account",
          "type": "address"
        }
      ],
      "name": "MarketToAtmUpdated",
      "type": "event"
    },
    {
      "constant": true,
      "inputs": [
        {
          "internalType": "address",
          "name": "",
          "type": "address"
        }
      ],
      "name": "atmPaused",
      "outputs": [
        {
          "internalType": "bool",
          "name": "",
          "type": "bool"
        }
      ],
      "payable": false,
      "stateMutability": "view",
      "type": "function"
    },
    {
      "constant": true,
      "inputs": [],
      "name": "initialized",
      "outputs": [
        {
          "internalType": "bool",
          "name": "value",
          "type": "bool"
        }
      ],
      "payable": false,
      "stateMutability": "view",
      "type": "function"
    },
    {
      "constant": true,
      "inputs": [
        {
          "internalType": "address",
          "name": "",
          "type": "address"
        },
        {
          "internalType": "address",
          "name": "",
          "type": "address"
        }
      ],
      "name": "marketToAtm",
      "outputs": [
        {
          "internalType": "address",
          "name": "",
          "type": "address"
        }
      ],
      "payable": false,
      "stateMutability": "view",
      "type": "function"
    },
    {
      "constant": true,
      "inputs": [],
      "name": "settings",
      "outputs": [
        {
          "internalType": "contract SettingsInterface",
          "name": "",
          "type": "address"
        }
      ],
      "payable": false,
      "stateMutability": "view",
      "type": "function"
    },
    {
      "constant": false,
      "inputs": [
        {
          "internalType": "address",
          "name": "atmAddress",
          "type": "address"
        }
      ],
      "name": "pauseATM",
      "outputs": [],
      "payable": false,
      "stateMutability": "nonpayable",
      "type": "function"
    },
    {
      "constant": false,
      "inputs": [
        {
          "internalType": "address",
          "name": "atmAddress",
          "type": "address"
        }
      ],
      "name": "unpauseATM",
      "outputs": [],
      "payable": false,
      "stateMutability": "nonpayable",
      "type": "function"
    },
    {
      "constant": true,
      "inputs": [
        {
          "internalType": "address",
          "name": "atmAddress",
          "type": "address"
        }
      ],
      "name": "isATMPaused",
      "outputs": [
        {
          "internalType": "bool",
          "name": "",
          "type": "bool"
        }
      ],
      "payable": false,
      "stateMutability": "view",
      "type": "function"
    },
    {
      "constant": false,
      "inputs": [
        {
          "internalType": "address",
          "name": "borrowedToken",
          "type": "address"
        },
        {
          "internalType": "address",
          "name": "collateralToken",
          "type": "address"
        },
        {
          "internalType": "address",
          "name": "atmAddress",
          "type": "address"
        }
      ],
      "name": "setATMToMarket",
      "outputs": [],
      "payable": false,
      "stateMutability": "nonpayable",
      "type": "function"
    },
    {
      "constant": false,
      "inputs": [
        {
          "internalType": "address",
          "name": "borrowedToken",
          "type": "address"
        },
        {
          "internalType": "address",
          "name": "collateralToken",
          "type": "address"
        },
        {
          "internalType": "address",
          "name": "newAtmAddress",
          "type": "address"
        }
      ],
      "name": "updateATMToMarket",
      "outputs": [],
      "payable": false,
      "stateMutability": "nonpayable",
      "type": "function"
    },
    {
      "constant": false,
      "inputs": [
        {
          "internalType": "address",
          "name": "borrowedToken",
          "type": "address"
        },
        {
          "internalType": "address",
          "name": "collateralToken",
          "type": "address"
        }
      ],
      "name": "removeATMToMarket",
      "outputs": [],
      "payable": false,
      "stateMutability": "nonpayable",
      "type": "function"
    },
    {
      "constant": true,
      "inputs": [
        {
          "internalType": "address",
          "name": "borrowedToken",
          "type": "address"
        },
        {
          "internalType": "address",
          "name": "collateralToken",
          "type": "address"
        }
      ],
      "name": "getATMForMarket",
      "outputs": [
        {
          "internalType": "address",
          "name": "",
          "type": "address"
        }
      ],
      "payable": false,
      "stateMutability": "view",
      "type": "function"
    },
    {
      "constant": true,
      "inputs": [
        {
          "internalType": "address",
          "name": "borrowedToken",
          "type": "address"
        },
        {
          "internalType": "address",
          "name": "collateralToken",
          "type": "address"
        },
        {
          "internalType": "address",
          "name": "atmAddress",
          "type": "address"
        }
      ],
      "name": "isATMForMarket",
      "outputs": [
        {
          "internalType": "bool",
          "name": "",
          "type": "bool"
        }
      ],
      "payable": false,
      "stateMutability": "view",
      "type": "function"
    },
    {
      "constant": false,
      "inputs": [
        {
          "internalType": "address",
          "name": "settingsAddress",
          "type": "address"
        }
      ],
      "name": "initialize",
      "outputs": [],
      "payable": false,
      "stateMutability": "nonpayable",
      "type": "function"
    }
  ],
  "bytecode": "0x608060405234801561001057600080fd5b50611511806100206000396000f3fe608060405234801561001057600080fd5b50600436106100cf5760003560e01c80635fdee6551161008c578063d6d77ea111610066578063d6d77ea114610199578063d73d38c1146101ac578063e06174e4146101bf578063ff3ede99146101d4576100cf565b80635fdee655146101605780637f4511b614610173578063c4d66de814610186576100cf565b8063010f5888146100d4578063158ef93e146100fd5780631fb7cec9146101055780633d5dd9951461012557806342e9c9fd1461013a5780634911e24e1461014d575b600080fd5b6100e76100e2366004610ef9565b6101e7565b6040516100f49190611389565b60405180910390f35b6100e76101fc565b610118610113366004610f35565b61021b565b6040516100f49190611352565b610138610133366004610ef9565b61024a565b005b6100e7610148366004610f6f565b6103f6565b61013861015b366004610ef9565b61042b565b61011861016e366004610f35565b6105ce565b610138610181366004610f6f565b6105f4565b610138610194366004610ef9565b61087b565b6100e76101a7366004610ef9565b6108b4565b6101386101ba366004610f6f565b610953565b6101c7610bb6565b6040516100f49190611397565b6101386101e2366004610f35565b610bd8565b60006020819052908152604090205460ff1681565b60008060405161020b9061133c565b6040519081900390205492915050565b6001600160a01b0380831660009081526001602090815260408083208585168452909152902054165b92915050565b610252610bb6565b6001600160a01b031663c095ea27336040518263ffffffff1660e01b815260040161027d9190611360565b60006040518083038186803b15801561029557600080fd5b505afa1580156102a9573d6000803e3d6000fd5b505050506102b56101fc565b6102da5760405162461bcd60e51b81526004016102d190611455565b60405180910390fd5b6102e2610bb6565b6001600160a01b031663b187bd266040518163ffffffff1660e01b815260040160206040518083038186803b15801561031a57600080fd5b505afa15801561032e573d6000803e3d6000fd5b505050506040513d601f19601f820116820180604052506103529190810190610fbc565b1561036f5760405162461bcd60e51b81526004016102d1906113c5565b6001600160a01b03811660009081526020819052604090205460ff1615156001146103ac5760405162461bcd60e51b81526004016102d1906113d5565b6001600160a01b038116600081815260208190526040808220805460ff191690555133917f0846ebe02ca298464c232059f1870a953ec7727b70ccf130a4ae0edf98ef328391a350565b6001600160a01b03838116600090815260016020908152604080832086851684529091529020548116908216145b9392505050565b610433610bb6565b6001600160a01b031663c095ea27336040518263ffffffff1660e01b815260040161045e9190611360565b60006040518083038186803b15801561047657600080fd5b505afa15801561048a573d6000803e3d6000fd5b505050506104966101fc565b6104b25760405162461bcd60e51b81526004016102d190611455565b6104ba610bb6565b6001600160a01b031663b187bd266040518163ffffffff1660e01b815260040160206040518083038186803b1580156104f257600080fd5b505afa158015610506573d6000803e3d6000fd5b505050506040513d601f19601f8201168201806040525061052a9190810190610fbc565b156105475760405162461bcd60e51b81526004016102d1906113f5565b6001600160a01b03811660009081526020819052604090205460ff16156105805760405162461bcd60e51b81526004016102d190611425565b6001600160a01b038116600081815260208190526040808220805460ff19166001179055513392917f7721350dceac4818833f9f33632008af73234ae2008cdece0facd6202fb2f2b391a350565b60016020908152600092835260408084209091529082529020546001600160a01b031681565b6105fc610bb6565b6001600160a01b031663c095ea27336040518263ffffffff1660e01b81526004016106279190611360565b60006040518083038186803b15801561063f57600080fd5b505afa158015610653573d6000803e3d6000fd5b5050505061065f6101fc565b61067b5760405162461bcd60e51b81526004016102d190611455565b61068d836001600160a01b0316610e01565b6106a95760405162461bcd60e51b81526004016102d1906113e5565b6106b1610bb6565b6001600160a01b031663a734f06e6040518163ffffffff1660e01b815260040160206040518083038186803b1580156106e957600080fd5b505afa1580156106fd573d6000803e3d6000fd5b505050506040513d601f19601f820116820180604052506107219190810190610f17565b6001600160a01b0316826001600160a01b0316148061074d575061074d826001600160a01b0316610e01565b6107695760405162461bcd60e51b81526004016102d190611405565b6001600160a01b0383811660009081526001602090815260408083208685168452909152902054166107ad5760405162461bcd60e51b81526004016102d1906113a5565b6001600160a01b0383811660009081526001602090815260408083208685168452909152902054811690821614156107f75760405162461bcd60e51b81526004016102d190611435565b6001600160a01b03838116600081815260016020908152604080832087861680855292529182902080546001600160a01b031981168787161790915591519190931692839290917fe553c9ed29171afc7414791a0b1dc88a2a7e261fa30534bf2eb904ece5c97d6d9061086d908790339061136e565b60405180910390a450505050565b6108836101fc565b156108a05760405162461bcd60e51b81526004016102d190611465565b6108a981610e3d565b6108b1610eac565b50565b60006108be610bb6565b6001600160a01b031663b187bd266040518163ffffffff1660e01b815260040160206040518083038186803b1580156108f657600080fd5b505afa15801561090a573d6000803e3d6000fd5b505050506040513d601f19601f8201168201806040525061092e9190810190610fbc565b806102445750506001600160a01b031660009081526020819052604090205460ff1690565b61095b610bb6565b6001600160a01b031663c095ea27336040518263ffffffff1660e01b81526004016109869190611360565b60006040518083038186803b15801561099e57600080fd5b505afa1580156109b2573d6000803e3d6000fd5b505050506109be6101fc565b6109da5760405162461bcd60e51b81526004016102d190611455565b6109ec816001600160a01b0316610e01565b610a085760405162461bcd60e51b81526004016102d190611415565b610a1a836001600160a01b0316610e01565b610a365760405162461bcd60e51b81526004016102d1906113e5565b610a3e610bb6565b6001600160a01b031663a734f06e6040518163ffffffff1660e01b815260040160206040518083038186803b158015610a7657600080fd5b505afa158015610a8a573d6000803e3d6000fd5b505050506040513d601f19601f82011682018060405250610aae9190810190610f17565b6001600160a01b0316826001600160a01b03161480610ada5750610ada826001600160a01b0316610e01565b610af65760405162461bcd60e51b81526004016102d190611405565b6001600160a01b03838116600090815260016020908152604080832086851684529091529020541615610b3b5760405162461bcd60e51b81526004016102d190611445565b6001600160a01b03838116600081815260016020908152604080832087861680855292529182902080546001600160a01b031916948616948517905590519091907f68f1e34109a4b734735f0d5f71b860f59bd8243803b4f954fe72a99f2dae8df390610ba9903390611360565b60405180910390a4505050565b6000806000604051610bc790611347565b604051908190039020549250505090565b610be0610bb6565b6001600160a01b031663c095ea27336040518263ffffffff1660e01b8152600401610c0b9190611360565b60006040518083038186803b158015610c2357600080fd5b505afa158015610c37573d6000803e3d6000fd5b50505050610c436101fc565b610c5f5760405162461bcd60e51b81526004016102d190611455565b610c71826001600160a01b0316610e01565b610c8d5760405162461bcd60e51b81526004016102d1906113e5565b610c95610bb6565b6001600160a01b031663a734f06e6040518163ffffffff1660e01b815260040160206040518083038186803b158015610ccd57600080fd5b505afa158015610ce1573d6000803e3d6000fd5b505050506040513d601f19601f82011682018060405250610d059190810190610f17565b6001600160a01b0316816001600160a01b03161480610d315750610d31816001600160a01b0316610e01565b610d4d5760405162461bcd60e51b81526004016102d190611405565b6001600160a01b038281166000908152600160209081526040808320858516845290915290205416610d915760405162461bcd60e51b81526004016102d1906113a5565b6001600160a01b03828116600081815260016020908152604080832086861680855292529182902080546001600160a01b0319811690915591519190931692839290917f12624da807a51aae6b36ec16e7f8be3e24565edf22e87d27a46f5318344d4a3b90610ba9903390611360565b6000813f7fc5d2460186f7233c927e7db2dcc703c0e500b653ca82273b7bfad8045d85a470818114801590610e3557508115155b949350505050565b610e56610e48610bb6565b6001600160a01b0316610eca565b15610e60576108b1565b610e72816001600160a01b0316610e01565b610e8e5760405162461bcd60e51b81526004016102d1906113b5565b6000604051610e9c90611347565b6040519081900390208290555050565b6000604051610eba9061133c565b6040519081900390206001905550565b6001600160a01b0316151590565b8035610244816114b1565b8051610244816114b1565b8051610244816114c5565b600060208284031215610f0b57600080fd5b6000610e358484610ed8565b600060208284031215610f2957600080fd5b6000610e358484610ee3565b60008060408385031215610f4857600080fd5b6000610f548585610ed8565b9250506020610f6585828601610ed8565b9150509250929050565b600080600060608486031215610f8457600080fd5b6000610f908686610ed8565b9350506020610fa186828701610ed8565b9250506040610fb286828701610ed8565b9150509250925092565b600060208284031215610fce57600080fd5b6000610e358484610eee565b610fe38161149f565b82525050565b610fe381611483565b610fe38161148e565b610fe3816114a6565b6000611011601c8361147e565b7f54496e697469616c697a61626c652e6973496e697469616c697a6564000000008152601c0192915050565b600061104a601783611475565b7f41544d5f544f5f4d41524b45545f4e4f545f4558495354000000000000000000815260200192915050565b6000611083601b83611475565b7f53455454494e47535f4d5553545f42455f415f434f4e54524143540000000000815260200192915050565b60006110bc601283611475565b71141310551193d49357d254d7d4105554d15160721b815260200192915050565b60006110ea601183611475565b7010551357d254d7d393d517d4105554d151607a1b815260200192915050565b6000611117601f83611475565b7f424f52524f5745445f544f4b454e5f4d5553545f42455f434f4e545241435400815260200192915050565b6000611150601a83611475565b7f504c4154464f524d5f49535f414c52454144595f504155534544000000000000815260200192915050565b6000611189601b83611475565b7f434f4c4c5f544f4b454e5f4d5553545f42455f434f4e54524143540000000000815260200192915050565b60006111c2601883611475565b7f41544d5f474f565f4d5553545f42455f434f4e54524143540000000000000000815260200192915050565b60006111fb60188361147e565b7f426173655570677261646561626c652e73657474696e67730000000000000000815260180192915050565b6000611234601583611475565b7410551357d254d7d053149150511657d4105554d151605a1b815260200192915050565b6000611265601a83611475565b7f50524f564944455f4e45575f41544d5f464f525f4d41524b4554000000000000815260200192915050565b600061129e601b83611475565b7f41544d5f544f5f4d41524b45545f414c52454144595f45584953540000000000815260200192915050565b60006112d7601883611475565b7f434f4e54524143545f4e4f545f494e495449414c495a45440000000000000000815260200192915050565b6000611310601c83611475565b7f434f4e54524143545f414c52454144595f494e495449414c495a454400000000815260200192915050565b600061024482611004565b6000610244826111ee565b602081016102448284610fe9565b602081016102448284610fda565b6040810161137c8285610fe9565b6104246020830184610fda565b602081016102448284610ff2565b602081016102448284610ffb565b602080825281016102448161103d565b6020808252810161024481611076565b60208082528101610244816110af565b60208082528101610244816110dd565b602080825281016102448161110a565b6020808252810161024481611143565b602080825281016102448161117c565b60208082528101610244816111b5565b6020808252810161024481611227565b6020808252810161024481611258565b6020808252810161024481611291565b60208082528101610244816112ca565b6020808252810161024481611303565b90815260200190565b919050565b600061024482611493565b151590565b6001600160a01b031690565b6000610244825b600061024482611483565b6114ba81611483565b81146108b157600080fd5b6114ba8161148e56fea365627a7a72315820999b60501320d49ce300c62f4395e8529f2ab69cbb7ba9e6e6ee152b4c180e106c6578706572696d656e74616cf564736f6c63430005110040",
  "source": "pragma solidity 0.5.17;\npragma experimental ABIEncoderV2;\n\n// Libraries\nimport \"@openzeppelin/contracts-ethereum-package/contracts/utils/Address.sol\";\n\n// Contracts\nimport \"../base/TInitializable.sol\";\nimport \"../base/BaseUpgradeable.sol\";\n\n// Interfaces\nimport \"./IATMSettings.sol\";\n\n/*****************************************************************************************************/\n/**                                             WARNING                                             **/\n/**                                  THIS CONTRACT IS UPGRADEABLE!                                  **/\n/**  ---------------------------------------------------------------------------------------------  **/\n/**  Do NOT change the order of or PREPEND any storage variables to this or new versions of this    **/\n/**  contract as this will cause the the storage slots to be overwritten on the proxy contract!!    **/\n/**                                                                                                 **/\n/**  Visit https://docs.openzeppelin.com/upgrades/2.6/proxies#upgrading-via-the-proxy-pattern for   **/\n/**  more information.                                                                              **/\n/*****************************************************************************************************/\n/**\n    @notice It manages the settings for the ATMs.\n\n    @author develop@teller.finance\n */\ncontract ATMSettings is IATMSettings, TInitializable, BaseUpgradeable {\n    using Address for address;\n\n    /** Constants */\n\n    /* State Variables */\n\n    /**\n        @notice It represents a mapping to identify whether a ATM is paused or not.\n\n        i.e.: address(ATM) => true or false.\n     */\n    mapping(address => bool) public atmPaused;\n\n    /**\n        @notice It represents a mapping to identify the ATM used in a given market.\n        @notice A market is defined by a borrowed token and a collateral token.\n\n        i.e.: address(DAI) => address(ETH) => address(ATM Teller)\n     */\n    mapping(address => mapping(address => address)) public marketToAtm;\n\n    /* Constructor */\n\n    /** External Functions */\n\n    /**\n        @notice It pauses a given ATM.\n        @param atmAddress ATM address to pause.\n     */\n    function pauseATM(address atmAddress) external onlyPauser() isInitialized() {\n        require(settings().isPaused() == false, \"PLATFORM_IS_ALREADY_PAUSED\");\n        require(atmPaused[atmAddress] == false, \"ATM_IS_ALREADY_PAUSED\");\n\n        atmPaused[atmAddress] = true;\n\n        emit ATMPaused(atmAddress, msg.sender);\n    }\n\n    /**\n        @notice It unpauses a given ATM.\n        @param atmAddress ATM address to unpause.\n     */\n    function unpauseATM(address atmAddress) external onlyPauser() isInitialized() {\n        require(settings().isPaused() == false, \"PLATFORM_IS_PAUSED\");\n        require(atmPaused[atmAddress] == true, \"ATM_IS_NOT_PAUSED\");\n\n        atmPaused[atmAddress] = false;\n\n        emit ATMUnpaused(msg.sender, atmAddress);\n    }\n\n    /**\n        @notice Gets whether an ATM is paused (or the platform is paused) or not.\n        @param atmAddress ATM address to test.\n        @return true if ATM is paused. Otherwise it returns false.\n     */\n    function isATMPaused(address atmAddress) external view returns (bool) {\n        return settings().isPaused() || atmPaused[atmAddress];\n    }\n\n    /**\n        @notice Sets an ATM for a given market (borrowed token and collateral token).\n        @param borrowedToken borrowed token address.\n        @param collateralToken collateral token address.\n        @param atmAddress ATM address to set.\n     */\n    function setATMToMarket(\n        address borrowedToken,\n        address collateralToken,\n        address atmAddress\n    ) external onlyPauser() isInitialized() {\n        require(atmAddress.isContract(), \"ATM_GOV_MUST_BE_CONTRACT\");\n        require(borrowedToken.isContract(), \"BORROWED_TOKEN_MUST_BE_CONTRACT\");\n        require(\n            collateralToken == settings().ETH_ADDRESS() || collateralToken.isContract(),\n            \"COLL_TOKEN_MUST_BE_CONTRACT\"\n        );\n        require(\n            marketToAtm[borrowedToken][collateralToken] == address(0x0),\n            \"ATM_TO_MARKET_ALREADY_EXIST\"\n        );\n\n        marketToAtm[borrowedToken][collateralToken] = atmAddress;\n\n        emit MarketToAtmSet(borrowedToken, collateralToken, atmAddress, msg.sender);\n    }\n\n    /**\n        @notice Updates a new ATM for a given market (borrowed token and collateral token).\n        @param borrowedToken borrowed token address.\n        @param collateralToken collateral token address.\n        @param newAtmAddress the new ATM address to update.\n     */\n    function updateATMToMarket(\n        address borrowedToken,\n        address collateralToken,\n        address newAtmAddress\n    ) external onlyPauser() isInitialized() {\n        require(borrowedToken.isContract(), \"BORROWED_TOKEN_MUST_BE_CONTRACT\");\n        require(\n            collateralToken == settings().ETH_ADDRESS() || collateralToken.isContract(),\n            \"COLL_TOKEN_MUST_BE_CONTRACT\"\n        );\n        require(\n            marketToAtm[borrowedToken][collateralToken] != address(0x0),\n            \"ATM_TO_MARKET_NOT_EXIST\"\n        );\n        require(\n            marketToAtm[borrowedToken][collateralToken] != newAtmAddress,\n            \"PROVIDE_NEW_ATM_FOR_MARKET\"\n        );\n\n        address oldAtm = marketToAtm[borrowedToken][collateralToken];\n\n        marketToAtm[borrowedToken][collateralToken] = newAtmAddress;\n\n        emit MarketToAtmUpdated(\n            borrowedToken,\n            collateralToken,\n            oldAtm,\n            newAtmAddress,\n            msg.sender\n        );\n    }\n\n    /**\n        @notice Removes the ATM address for a given market (borrowed token and collateral token).\n        @param borrowedToken borrowed token address.\n        @param collateralToken collateral token address.\n     */\n    function removeATMToMarket(address borrowedToken, address collateralToken)\n        external\n        onlyPauser()\n        isInitialized()\n    {\n        require(borrowedToken.isContract(), \"BORROWED_TOKEN_MUST_BE_CONTRACT\");\n        require(\n            collateralToken == settings().ETH_ADDRESS() || collateralToken.isContract(),\n            \"COLL_TOKEN_MUST_BE_CONTRACT\"\n        );\n        require(\n            marketToAtm[borrowedToken][collateralToken] != address(0x0),\n            \"ATM_TO_MARKET_NOT_EXIST\"\n        );\n\n        address oldAtmAddress = marketToAtm[borrowedToken][collateralToken];\n\n        delete marketToAtm[borrowedToken][collateralToken];\n\n        emit MarketToAtmRemoved(\n            borrowedToken,\n            collateralToken,\n            oldAtmAddress,\n            msg.sender\n        );\n    }\n\n    /**\n        @notice Gets the ATM configured for a given market (borrowed token and collateral token).\n        @param borrowedToken borrowed token address.\n        @param collateralToken collateral token address.\n        @return the ATM address configured for a given market.\n     */\n    function getATMForMarket(address borrowedToken, address collateralToken)\n        external\n        view\n        returns (address)\n    {\n        return marketToAtm[borrowedToken][collateralToken];\n    }\n\n    /**\n        @notice Tests whether an ATM is configured for a given market (borrowed token and collateral token) or not.\n        @param borrowedToken borrowed token address.\n        @param collateralToken collateral token address.\n        @param atmAddress ATM address to test.\n        @return true if the ATM is configured for the market. Otherwise it returns false.\n     */\n    function isATMForMarket(\n        address borrowedToken,\n        address collateralToken,\n        address atmAddress\n    ) external view returns (bool) {\n        return marketToAtm[borrowedToken][collateralToken] == atmAddress;\n    }\n\n    /**\n        @notice It initializes this ATM Settings instance.\n        @param settingsAddress settings address.\n     */\n    function initialize(address settingsAddress) external isNotInitialized() {\n        _setSettings(settingsAddress);\n\n        TInitializable._initialize();\n    }\n\n    /** Internal functions */\n\n    /** Private functions */\n}\n",
  "sourcePath": "/Users/sy/Documents/GitHub/teller-protocol-v1/contracts/settings/ATMSettings.sol",
  "compiler": {
    "name": "solc",
    "version": "0.5.17+commit.d19bba13.Emscripten.clang"
  },
  "schemaVersion": "3.0.23",
  "updatedAt": "2020-09-15T23:09:49.985Z",
  "devdoc": {
    "author": "develop@teller.finance",
    "methods": {
      "getATMForMarket(address,address)": {
        "params": {
          "borrowedToken": "borrowed token address.",
          "collateralToken": "collateral token address."
        },
        "return": "the ATM address configured for a given market."
      },
      "initialize(address)": {
        "params": {
          "settingsAddress": "settings address."
        }
      },
      "initialized()": {
        "return": "true if contract is initialized. Otherwise it returns false."
      },
      "isATMForMarket(address,address,address)": {
        "params": {
          "atmAddress": "ATM address to test.",
          "borrowedToken": "borrowed token address.",
          "collateralToken": "collateral token address."
        },
        "return": "true if the ATM is configured for the market. Otherwise it returns false."
      },
      "isATMPaused(address)": {
        "params": {
          "atmAddress": "ATM address to test."
        },
        "return": "true if ATM is paused. Otherwise it returns false."
      },
      "pauseATM(address)": {
        "params": {
          "atmAddress": "ATM address to pause."
        }
      },
      "removeATMToMarket(address,address)": {
        "params": {
          "borrowedToken": "borrowed token address.",
          "collateralToken": "collateral token address."
        }
      },
      "setATMToMarket(address,address,address)": {
        "params": {
          "atmAddress": "ATM address to set.",
          "borrowedToken": "borrowed token address.",
          "collateralToken": "collateral token address."
        }
      },
      "settings()": {
        "details": "This address should NOT change over the time. See details in the _setSettings(...) function."
      },
      "unpauseATM(address)": {
        "params": {
          "atmAddress": "ATM address to unpause."
        }
      },
      "updateATMToMarket(address,address,address)": {
        "params": {
          "borrowedToken": "borrowed token address.",
          "collateralToken": "collateral token address.",
          "newAtmAddress": "the new ATM address to update."
        }
      }
    }
  },
  "userdoc": {
    "methods": {
      "getATMForMarket(address,address)": {
        "notice": "Gets the ATM configured for a given market (borrowed token and collateral token)."
      },
      "initialize(address)": {
        "notice": "It initializes this ATM Settings instance."
      },
      "initialized()": {
        "notice": "Gets if the contract is initialized."
      },
      "isATMForMarket(address,address,address)": {
        "notice": "Tests whether an ATM is configured for a given market (borrowed token and collateral token) or not."
      },
      "isATMPaused(address)": {
        "notice": "Gets whether an ATM is paused (or the platform is paused) or not."
      },
      "pauseATM(address)": {
        "notice": "It pauses a given ATM."
      },
      "removeATMToMarket(address,address)": {
        "notice": "Removes the ATM address for a given market (borrowed token and collateral token)."
      },
      "setATMToMarket(address,address,address)": {
        "notice": "Sets an ATM for a given market (borrowed token and collateral token)."
      },
      "settings()": {
        "notice": "The gets the settings contract address from the SETTINGS_SLOT."
      },
      "unpauseATM(address)": {
        "notice": "It unpauses a given ATM."
      },
      "updateATMToMarket(address,address,address)": {
        "notice": "Updates a new ATM for a given market (borrowed token and collateral token)."
      }
    },
    "notice": "It manages the settings for the ATMs."
  }
}