{
  "contractName": "BaseUpgradeableMock",
  "abi": [
    {
      "constant": true,
      "inputs": [],
      "name": "settings",
      "outputs": [
        {
          "internalType": "contract SettingsInterface",
          "name": "",
          "type": "address"
        }
      ],
      "payable": false,
      "stateMutability": "view",
      "type": "function"
    },
    {
      "constant": false,
      "inputs": [],
      "name": "externalOnlyPauser",
      "outputs": [],
      "payable": false,
      "stateMutability": "nonpayable",
      "type": "function"
    },
    {
      "constant": false,
      "inputs": [
        {
          "internalType": "address",
          "name": "settingsAddress",
          "type": "address"
        }
      ],
      "name": "externalSetSettings",
      "outputs": [],
      "payable": false,
      "stateMutability": "nonpayable",
      "type": "function"
    },
    {
      "constant": false,
      "inputs": [
        {
          "internalType": "bytes32",
          "name": "aLogicName",
          "type": "bytes32"
        }
      ],
      "name": "externalSetLogicName",
      "outputs": [],
      "payable": false,
      "stateMutability": "nonpayable",
      "type": "function"
    },
    {
      "constant": true,
      "inputs": [],
      "name": "externalLogicName",
      "outputs": [
        {
          "internalType": "bytes32",
          "name": "name",
          "type": "bytes32"
        }
      ],
      "payable": false,
      "stateMutability": "view",
      "type": "function"
    }
  ],
  "bytecode": "0x608060405234801561001057600080fd5b506104ca806100206000396000f3fe608060405234801561001057600080fd5b50600436106100575760003560e01c806368c220071461005c57806392dd999414610084578063937bbe50146100a1578063ac606a86146100a9578063e06174e4146100c3575b600080fd5b6100826004803603602081101561007257600080fd5b50356001600160a01b03166100e7565b005b6100826004803603602081101561009a57600080fd5b50356100f3565b6100826100fc565b6100b1610173565b60408051918252519081900360200190f35b6100cb610182565b604080516001600160a01b039092168252519081900360200190f35b6100f0816101b3565b50565b6100f08161026c565b610104610182565b6001600160a01b031663c095ea27336040518263ffffffff1660e01b815260040180826001600160a01b03166001600160a01b0316815260200191505060006040518083038186803b15801561015957600080fd5b505afa15801561016d573d6000803e3d6000fd5b50505050565b600061017d610419565b905090565b6040805177426173655570677261646561626c652e73657474696e677360401b815290519081900360180190205490565b6101cc6101be610182565b6001600160a01b031661044b565b156101d6576100f0565b6101e8816001600160a01b0316610459565b610239576040805162461bcd60e51b815260206004820152601b60248201527f53455454494e47535f4d5553545f42455f415f434f4e54524143540000000000604482015290519081900360640190fd5b6040805177426173655570677261646561626c652e73657474696e677360401b8152905190819003601801902081905550565b610274610419565b156102bf576040805162461bcd60e51b81526020600482015260166024820152751313d1d250d7d390535157d053149150511657d4d15560521b604482015290519081900360640190fd5b6102c7610182565b6001600160a01b031663ea23cb7c6040518163ffffffff1660e01b815260040160206040518083038186803b1580156102ff57600080fd5b505afa158015610313573d6000803e3d6000fd5b505050506040513d602081101561032957600080fd5b50516040805163b28f5abb60e01b81526004810184905290516001600160a01b039092169163b28f5abb91602480820192602092909190829003018186803b15801561037457600080fd5b505afa158015610388573d6000803e3d6000fd5b505050506040513d602081101561039e57600080fd5b50516103e8576040805162461bcd60e51b81526020600482015260146024820152731313d1d250d7d390535157d393d517d1561254d560621b604482015290519081900360640190fd5b6040805178426173655570677261646561626c652e6c6f6769634e616d6560381b8152905190819003601901902055565b6040805178426173655570677261646561626c652e6c6f6769634e616d6560381b815290519081900360190190205490565b6001600160a01b0316151590565b6000813f7fc5d2460186f7233c927e7db2dcc703c0e500b653ca82273b7bfad8045d85a47081811480159061048d57508115155b94935050505056fea265627a7a72315820953656c243b4ee9d01fa35087c34083d6d7913917857ac3bfc8669ec92e89f5664736f6c63430005110032",
  "source": "pragma solidity 0.5.17;\n\nimport \"../../base/BaseUpgradeable.sol\";\n\ncontract BaseUpgradeableMock is BaseUpgradeable {\n    function externalOnlyPauser() external onlyPauser() {}\n\n    function externalSetSettings(address settingsAddress) external {\n        _setSettings(settingsAddress);\n    }\n\n    function externalSetLogicName(bytes32 aLogicName) external {\n        _setLogicName(aLogicName);\n    }\n\n    function externalLogicName() external view returns (bytes32 name) {\n        return logicName();\n    }\n}\n",
  "sourcePath": "/Users/guillesalazar/Repos/ZeroCollateral/smart-contracts-v1/contracts/mock/base/BaseUpgradeableMock.sol",
  "compiler": {
    "name": "solc",
    "version": "0.5.17+commit.d19bba13.Emscripten.clang"
  },
  "schemaVersion": "3.2.3",
  "updatedAt": "2020-10-12T14:23:11.513Z",
  "devdoc": {
    "methods": {
      "settings()": {
        "details": "This address should NOT change over the time. See details in the _setSettings(...) function."
      }
    }
  },
  "userdoc": {
    "methods": {
      "settings()": {
        "notice": "The gets the settings contract address from the SETTINGS_SLOT."
      }
    }
  }
}