{
  "contractName": "BaseEscrowDapp",
  "abi": [
    {
      "constant": true,
      "inputs": [],
      "name": "getTokens",
      "outputs": [
        {
          "internalType": "address[]",
          "name": "",
          "type": "address[]"
        }
      ],
      "payable": false,
      "stateMutability": "view",
      "type": "function"
    },
    {
      "constant": true,
      "inputs": [
        {
          "internalType": "address",
          "name": "tokenAddress",
          "type": "address"
        }
      ],
      "name": "findTokenIndex",
      "outputs": [
        {
          "internalType": "int256",
          "name": "",
          "type": "int256"
        }
      ],
      "payable": false,
      "stateMutability": "view",
      "type": "function"
    }
  ],
  "bytecode": "0x608060405234801561001057600080fd5b506101e6806100206000396000f3fe608060405234801561001057600080fd5b50600436106100365760003560e01c80630a11fd071461003b578063aa6ca80814610073575b600080fd5b6100616004803603602081101561005157600080fd5b50356001600160a01b03166100cb565b60408051918252519081900360200190f35b61007b6100fa565b60408051602080825283518183015283519192839290830191858101910280838360005b838110156100b757818101518382015260200161009f565b505050509050019250505060405180910390f35b600080806100df818563ffffffff61015c16565b91509150816100f0576000196100f2565b805b949350505050565b6060600080548060200260200160405190810160405280929190818152602001828054801561015257602002820191906000526020600020905b81546001600160a01b03168152600190910190602001808311610134575b5050505050905090565b6000805b83548110156101aa57826001600160a01b031684828154811061017f57fe5b6000918252602090912001546001600160a01b031614915081156101a2576101aa565b600101610160565b925092905056fea265627a7a723158202f3684175accce5c123fee6fa84bf4a0bf392a441abd8810fa9b57357cd322ff64736f6c63430005110032",
  "source": "pragma solidity 0.5.17;\n\n// Contracts\n\n// Interfaces\nimport \"@openzeppelin/contracts-ethereum-package/contracts/token/ERC20/IERC20.sol\";\n\n// Libraries\nimport \"../util/AddressArrayLib.sol\";\n\ncontract BaseEscrowDapp {\n    using AddressArrayLib for address[];\n\n    /**\n        @notice An array of tokens that are owned by this escrow.\n     */\n    address[] private tokens;\n\n    function getTokens() public view returns (address[] memory) {\n        return tokens;\n    }\n\n    function findTokenIndex(address tokenAddress) external view returns (int256) {\n        (bool found, uint256 index) = tokens.getIndex(tokenAddress);\n        return found ? int256(index) : -1;\n    }\n\n    function _balanceOf(address tokenAddress) internal view returns (uint256) {\n        return IERC20(tokenAddress).balanceOf(address(this));\n    }\n\n    function _tokenUpdated(address tokenAddress) internal {\n        (bool found, uint256 index) = tokens.getIndex(tokenAddress);\n        if (_balanceOf(tokenAddress) > 0) {\n            if (!found) {\n                tokens.add(tokenAddress);\n            }\n        } else if (found) {\n            tokens.removeAt(index);\n        }\n    }\n\n    function _setTokens(address[] memory tokenList) internal {\n        tokens = tokenList;\n    }\n}\n",
  "sourcePath": "/Users/sy/Documents/GitHub/teller-protocol-v1/contracts/base/BaseEscrowDapp.sol",
  "compiler": {
    "name": "solc",
    "version": "0.5.17+commit.d19bba13.Emscripten.clang"
  },
  "schemaVersion": "3.0.23",
  "updatedAt": "2020-09-06T02:15:12.135Z",
  "devdoc": {
    "methods": {}
  },
  "userdoc": {
    "methods": {}
  }
}