{
  "contractName": "BaseUpgradeable",
  "abi": [
    {
      "constant": true,
      "inputs": [],
      "name": "settings",
      "outputs": [
        {
          "internalType": "contract SettingsInterface",
          "name": "",
          "type": "address"
        }
      ],
      "payable": false,
      "stateMutability": "view",
      "type": "function"
    }
  ],
  "bytecode": "0x6080604052348015600f57600080fd5b5060ba8061001e6000396000f3fe6080604052348015600f57600080fd5b506004361060285760003560e01c8063e06174e414602d575b600080fd5b6033604f565b604080516001600160a01b039092168252519081900360200190f35b604080517f426173655570677261646561626c652e73657474696e6773000000000000000081529051908190036018019020549056fea265627a7a72315820d22fbb8a1e80bf557ec7b04be6041d6f90c6ea507c0ec19426db20569b771f2d64736f6c63430005110032",
  "source": "pragma solidity 0.5.17;\n\n// Libraries\nimport \"../util/AddressLib.sol\";\n\n// Interfaces\nimport \"../interfaces/SettingsInterface.sol\";\n\n/**\n    @notice It is the base contract to hold the settings instance and upgradeable logic name in registry.\n\n    @author develop@teller.finance\n */\ncontract BaseUpgradeable {\n    using Address for address;\n    using AddressLib for address;\n\n    /** State Variables **/\n\n    /**\n        @notice It defines the slot where the settings contract address will be stored.\n     */\n    bytes32 internal constant SETTINGS_SLOT = keccak256(\"BaseUpgradeable.settings\");\n    /**\n        @notice It defines the slot where the logic name will be stored.\n     */\n    bytes32 internal constant LOGIC_NAME_SLOT = keccak256(\"BaseUpgradeable.logicName\");\n\n    /** Modifiers **/\n\n    /**\n        @notice Checks if sender has a pauser role\n        @dev Throws an error if the sender has not a pauser role.\n     */\n    modifier onlyPauser() {\n        settings().requirePauserRole(msg.sender);\n        _;\n    }\n\n    /** Public Functions **/\n\n    /**\n        @notice The gets the settings contract address from the SETTINGS_SLOT.\n        @dev This address should NOT change over the time. See details in the _setSettings(...) function.\n     */\n    function settings() public view returns (SettingsInterface) {\n        address settingsAddress;\n\n        bytes32 slot = SETTINGS_SLOT;\n        assembly {\n            settingsAddress := sload(slot)\n        }\n\n        return SettingsInterface(settingsAddress);\n    }\n\n    /**\n        @notice It represent the current logic name (key) for the current implementation.\n        @dev It is used by LogicVersionsRegistry to get the logic address for the given logic name.\n        @dev It must NOT change over the time.\n        @dev The logic is equal to the OpenZeppelin\n        @return the logic name.\n     */\n    function logicName() internal view returns (bytes32 name) {\n        bytes32 slot = LOGIC_NAME_SLOT;\n        assembly {\n            name := sload(slot)\n        }\n    }\n\n    /** Internal Functions **/\n\n    /**\n        @notice It sets the settings contract address for this contract instance.\n        @dev As the settings must NOT change over the time, it verifies if it is already set before updating it.\n        @param settingsAddress the settings address to be used for this upgradeable contract.\n     */\n    function _setSettings(address settingsAddress) internal {\n        // Prevent resetting the settings logic for standalone test deployments.\n        if (address(settings()).isNotEmpty()) {\n            return;\n        }\n        require(settingsAddress.isContract(), \"SETTINGS_MUST_BE_A_CONTRACT\");\n\n        bytes32 slot = SETTINGS_SLOT;\n        assembly {\n            sstore(slot, settingsAddress)\n        }\n    }\n\n    /**\n        @notice It sets the logic name for this contract instance.\n        @dev As the logic name must NOT change over the time, it verifies if it is already set before updating it.\n        @dev It verifies if the logic name exists in the LogicVersionsRegistry.\n        @param aLogicName the logic name to be used for this upgradeable contract.\n     */\n    function _setLogicName(bytes32 aLogicName) internal {\n        // Prevent resetting the logic name for standalone test deployments.\n        require(logicName() == \"\", \"LOGIC_NAME_ALREADY_SET\");\n        require(\n            settings().versionsRegistry().hasLogicVersion(aLogicName),\n            \"LOGIC_NAME_NOT_EXIST\"\n        );\n\n        bytes32 slot = LOGIC_NAME_SLOT;\n        assembly {\n            sstore(slot, aLogicName)\n        }\n    }\n}\n",
  "sourcePath": "/Users/guillesalazar/Repos/ZeroCollateral/smart-contracts-v1/contracts/base/BaseUpgradeable.sol",
  "compiler": {
    "name": "solc",
    "version": "0.5.17+commit.d19bba13.Emscripten.clang"
  },
  "schemaVersion": "3.2.3",
  "updatedAt": "2020-10-12T14:23:11.383Z",
  "devdoc": {
    "author": "develop@teller.finance",
    "methods": {
      "settings()": {
        "details": "This address should NOT change over the time. See details in the _setSettings(...) function."
      }
    }
  },
  "userdoc": {
    "methods": {
      "settings()": {
        "notice": "The gets the settings contract address from the SETTINGS_SLOT."
      }
    },
    "notice": "It is the base contract to hold the settings instance and upgradeable logic name in registry."
  }
}