{
  "contractName": "BaseMock",
  "abi": [
    {
      "constant": false,
      "inputs": [],
      "name": "initialize",
      "outputs": [],
      "payable": false,
      "stateMutability": "nonpayable",
      "type": "function"
    },
    {
      "constant": true,
      "inputs": [],
      "name": "initialized",
      "outputs": [
        {
          "internalType": "bool",
          "name": "value",
          "type": "bool"
        }
      ],
      "payable": false,
      "stateMutability": "view",
      "type": "function"
    },
    {
      "constant": true,
      "inputs": [],
      "name": "settings",
      "outputs": [
        {
          "internalType": "contract SettingsInterface",
          "name": "",
          "type": "address"
        }
      ],
      "payable": false,
      "stateMutability": "view",
      "type": "function"
    },
    {
      "constant": false,
      "inputs": [],
      "name": "externalWhenNotPaused",
      "outputs": [],
      "payable": false,
      "stateMutability": "nonpayable",
      "type": "function"
    },
    {
      "constant": false,
      "inputs": [
        {
          "internalType": "address",
          "name": "lendingPoolAddress",
          "type": "address"
        }
      ],
      "name": "externalWhenLendingPoolNotPaused",
      "outputs": [],
      "payable": false,
      "stateMutability": "nonpayable",
      "type": "function"
    },
    {
      "constant": false,
      "inputs": [],
      "name": "externalWhenPaused",
      "outputs": [],
      "payable": false,
      "stateMutability": "nonpayable",
      "type": "function"
    },
    {
      "constant": false,
      "inputs": [
        {
          "internalType": "address",
          "name": "lendingPoolAddress",
          "type": "address"
        }
      ],
      "name": "externalWhenLendingPoolPaused",
      "outputs": [],
      "payable": false,
      "stateMutability": "nonpayable",
      "type": "function"
    },
    {
      "constant": false,
      "inputs": [
        {
          "internalType": "address",
          "name": "settingsAddress",
          "type": "address"
        }
      ],
      "name": "externalInitialize",
      "outputs": [],
      "payable": false,
      "stateMutability": "nonpayable",
      "type": "function"
    }
  ],
  "bytecode": "0x608060405234801561001057600080fd5b50610823806100206000396000f3fe608060405234801561001057600080fd5b50600436106100885760003560e01c8063a59966e71161005b578063a59966e7146100e1578063c157890414610107578063d03399bf1461012d578063e06174e41461013557610088565b8063158ef93e1461008d5780633164d8ae146100a9578063749b7677146100d15780638129fc1c146100d9575b600080fd5b610095610159565b604080519115158252519081900360200190f35b6100cf600480360360208110156100bf57600080fd5b50356001600160a01b031661018f565b005b6100cf6101e8565b6100cf61023c565b6100cf600480360360208110156100f757600080fd5b50356001600160a01b03166102e3565b6100cf6004803603602081101561011d57600080fd5b50356001600160a01b031661033e565b6100cf610347565b61013d610396565b604080516001600160a01b039092168252519081900360200190f35b604080517f54496e697469616c697a61626c652e6973496e697469616c697a6564000000008152905190819003601c0190205490565b80610199816103c7565b156101e4576040805162461bcd60e51b815260206004820152601660248201527513115391125391d7d413d3d317d254d7d4105554d15160521b604482015290519081900360640190fd5b5050565b6101f0610458565b61023a576040805162461bcd60e51b8152602060048201526016602482015275141310551193d49357d254d7d393d517d4105554d15160521b604482015290519081900360640190fd5b565b600054610100900460ff168061025557506102556104cb565b80610263575060005460ff16155b61029e5760405162461bcd60e51b815260040180806020018281038252602e8152602001806107c1602e913960400191505060405180910390fd5b600054610100900460ff161580156102c9576000805460ff1961ff0019909116610100171660011790555b600160335580156102e0576000805461ff00191690555b50565b806102ed816103c7565b6101e4576040805162461bcd60e51b815260206004820152601a60248201527f4c454e44494e475f504f4f4c5f49535f4e4f545f504155534544000000000000604482015290519081900360640190fd5b6102e0816104d1565b61034f610458565b1561023a576040805162461bcd60e51b8152602060048201526012602482015271141310551193d49357d254d7d4105554d15160721b604482015290519081900360640190fd5b6040805177426173655570677261646561626c652e73657474696e677360401b815290519081900360180190205490565b60006103d1610396565b6001600160a01b0316633b668321836040518263ffffffff1660e01b815260040180826001600160a01b03166001600160a01b0316815260200191505060206040518083038186803b15801561042657600080fd5b505afa15801561043a573d6000803e3d6000fd5b505050506040513d602081101561045057600080fd5b505192915050565b6000610462610396565b6001600160a01b031663b187bd266040518163ffffffff1660e01b815260040160206040518083038186803b15801561049a57600080fd5b505afa1580156104ae573d6000803e3d6000fd5b505050506040513d60208110156104c457600080fd5b5051905090565b303b1590565b6104d9610159565b1561052b576040805162461bcd60e51b815260206004820152601c60248201527f434f4e54524143545f414c52454144595f494e495449414c495a454400000000604482015290519081900360640190fd5b60408051808201909152601981527f53455454494e47535f4d5553545f42455f50524f5649444544000000000000006020820152610579906001600160a01b0383169063ffffffff6105ed16565b61058b816001600160a01b0316610685565b6105dc576040805162461bcd60e51b815260206004820152601b60248201527f53455454494e47535f4d5553545f42455f415f434f4e54524143540000000000604482015290519081900360640190fd5b6105e46106c1565b6102e0816106f9565b6105f6826107b2565b81906106805760405162461bcd60e51b81526004018080602001828103825283818151815260200191508051906020019080838360005b8381101561064557818101518382015260200161062d565b50505050905090810190601f1680156106725780820380516001836020036101000a031916815260200191505b509250505060405180910390fd5b505050565b6000813f7fc5d2460186f7233c927e7db2dcc703c0e500b653ca82273b7bfad8045d85a4708181148015906106b957508115155b949350505050565b604080517f54496e697469616c697a61626c652e6973496e697469616c697a6564000000008152905190819003601c01902060019055565b610712610704610396565b6001600160a01b03166107b2565b1561071c576102e0565b61072e816001600160a01b0316610685565b61077f576040805162461bcd60e51b815260206004820152601b60248201527f53455454494e47535f4d5553545f42455f415f434f4e54524143540000000000604482015290519081900360640190fd5b6040805177426173655570677261646561626c652e73657474696e677360401b8152905190819003601801902081905550565b6001600160a01b031615159056fe436f6e747261637420696e7374616e63652068617320616c7265616479206265656e20696e697469616c697a6564a265627a7a72315820c67c16ffafb0057e333c8f9b6262e797af19932fb78564e85588a0dbbbe1ce6664736f6c63430005110032",
  "source": "pragma solidity 0.5.17;\n\nimport \"../../base/Base.sol\";\n\ncontract BaseMock is Base {\n    function externalWhenNotPaused() external whenNotPaused() {}\n\n    function externalWhenLendingPoolNotPaused(address lendingPoolAddress)\n        external\n        whenLendingPoolNotPaused(lendingPoolAddress)\n    {}\n\n    function externalWhenPaused() external whenPaused() {}\n\n    function externalWhenLendingPoolPaused(address lendingPoolAddress)\n        external\n        whenLendingPoolPaused(lendingPoolAddress)\n    {}\n\n    function externalInitialize(address settingsAddress) external {\n        super._initialize(settingsAddress);\n    }\n}\n",
  "sourcePath": "/Users/guillesalazar/Repos/ZeroCollateral/smart-contracts-v1/contracts/mock/base/BaseMock.sol",
  "compiler": {
    "name": "solc",
    "version": "0.5.17+commit.d19bba13.Emscripten.clang"
  },
  "schemaVersion": "3.2.3",
  "updatedAt": "2020-10-12T14:23:11.512Z",
  "devdoc": {
    "methods": {
      "initialized()": {
        "return": "true if contract is initialized. Otherwise it returns false."
      },
      "settings()": {
        "details": "This address should NOT change over the time. See details in the _setSettings(...) function."
      }
    }
  },
  "userdoc": {
    "methods": {
      "initialized()": {
        "notice": "Gets if the contract is initialized."
      },
      "settings()": {
        "notice": "The gets the settings contract address from the SETTINGS_SLOT."
      }
    }
  }
}