{
  "contractName": "BaseEscrowDapp",
  "abi": [
    {
      "anonymous": false,
      "inputs": [
        {
          "indexed": true,
          "internalType": "address",
          "name": "previousOwner",
          "type": "address"
        },
        {
          "indexed": true,
          "internalType": "address",
          "name": "newOwner",
          "type": "address"
        }
      ],
      "name": "OwnershipTransferred",
      "type": "event"
    },
    {
      "constant": false,
      "inputs": [
        {
          "internalType": "address",
          "name": "sender",
          "type": "address"
        }
      ],
      "name": "initialize",
      "outputs": [],
      "payable": false,
      "stateMutability": "nonpayable",
      "type": "function"
    },
    {
      "constant": true,
      "inputs": [],
      "name": "isOwner",
      "outputs": [
        {
          "internalType": "bool",
          "name": "",
          "type": "bool"
        }
      ],
      "payable": false,
      "stateMutability": "view",
      "type": "function"
    },
    {
      "constant": true,
      "inputs": [],
      "name": "owner",
      "outputs": [
        {
          "internalType": "address",
          "name": "",
          "type": "address"
        }
      ],
      "payable": false,
      "stateMutability": "view",
      "type": "function"
    },
    {
      "constant": false,
      "inputs": [],
      "name": "renounceOwnership",
      "outputs": [],
      "payable": false,
      "stateMutability": "nonpayable",
      "type": "function"
    },
    {
      "constant": false,
      "inputs": [
        {
          "internalType": "address",
          "name": "newOwner",
          "type": "address"
        }
      ],
      "name": "transferOwnership",
      "outputs": [],
      "payable": false,
      "stateMutability": "nonpayable",
      "type": "function"
    },
    {
      "constant": true,
      "inputs": [],
      "name": "getTokens",
      "outputs": [
        {
          "internalType": "address[]",
          "name": "",
          "type": "address[]"
        }
      ],
      "payable": false,
      "stateMutability": "view",
      "type": "function"
    },
    {
      "constant": true,
      "inputs": [
        {
          "internalType": "address",
          "name": "tokenAddress",
          "type": "address"
        }
      ],
      "name": "findTokenIndex",
      "outputs": [
        {
          "internalType": "int256",
          "name": "",
          "type": "int256"
        }
      ],
      "payable": false,
      "stateMutability": "view",
      "type": "function"
    },
    {
      "constant": true,
      "inputs": [
        {
          "internalType": "address",
          "name": "cTokenAddress",
          "type": "address"
        }
      ],
      "name": "balanceOf",
      "outputs": [
        {
          "internalType": "uint256",
          "name": "",
          "type": "uint256"
        }
      ],
      "payable": false,
      "stateMutability": "view",
      "type": "function"
    }
  ],
  "bytecode": "0x60806040526106b0806100136000396000f3fe608060405234801561001057600080fd5b50600436106100885760003560e01c80638f32d59b1161005b5780638f32d59b14610119578063aa6ca80814610135578063c4d66de81461018d578063f2fde38b146101b357610088565b80630a11fd071461008d57806370a08231146100c5578063715018a6146100eb5780638da5cb5b146100f5575b600080fd5b6100b3600480360360208110156100a357600080fd5b50356001600160a01b03166101d9565b60408051918252519081900360200190f35b6100b3600480360360208110156100db57600080fd5b50356001600160a01b0316610209565b6100f361021a565b005b6100fd6102bd565b604080516001600160a01b039092168252519081900360200190f35b6101216102cc565b604080519115158252519081900360200190f35b61013d6102f2565b60408051602080825283518183015283519192839290830191858101910280838360005b83811015610179578181015183820152602001610161565b505050509050019250505060405180910390f35b6100f3600480360360208110156101a357600080fd5b50356001600160a01b0316610354565b6100f3600480360360208110156101c957600080fd5b50356001600160a01b0316610446565b600080806101ee60668563ffffffff6104ab16565b91509150816101ff57600019610201565b805b949350505050565b600061021482610500565b92915050565b6102226102cc565b610273576040805162461bcd60e51b815260206004820181905260248201527f4f776e61626c653a2063616c6c6572206973206e6f7420746865206f776e6572604482015290519081900360640190fd5b6033546040516000916001600160a01b0316907f8be0079c531659141344cd1fd0a4f28419497f9722a3daafe3b4186f6b6457e0908390a3603380546001600160a01b0319169055565b6033546001600160a01b031690565b6033546000906001600160a01b03166102e361057c565b6001600160a01b031614905090565b6060606680548060200260200160405190810160405280929190818152602001828054801561034a57602002820191906000526020600020905b81546001600160a01b0316815260019091019060200180831161032c575b5050505050905090565b600054610100900460ff168061036d575061036d610580565b8061037b575060005460ff16155b6103b65760405162461bcd60e51b815260040180806020018281038252602e81526020018061064e602e913960400191505060405180910390fd5b600054610100900460ff161580156103e1576000805460ff1961ff0019909116610100171660011790555b603380546001600160a01b0319166001600160a01b0384811691909117918290556040519116906000907f8be0079c531659141344cd1fd0a4f28419497f9722a3daafe3b4186f6b6457e0908290a38015610442576000805461ff00191690555b5050565b61044e6102cc565b61049f576040805162461bcd60e51b815260206004820181905260248201527f4f776e61626c653a2063616c6c6572206973206e6f7420746865206f776e6572604482015290519081900360640190fd5b6104a881610586565b50565b6000805b83548110156104f957826001600160a01b03168482815481106104ce57fe5b6000918252602090912001546001600160a01b031614915081156104f1576104f9565b6001016104af565b9250929050565b604080516370a0823160e01b815230600482015290516000916001600160a01b038416916370a0823191602480820192602092909190829003018186803b15801561054a57600080fd5b505afa15801561055e573d6000803e3d6000fd5b505050506040513d602081101561057457600080fd5b505192915050565b3390565b303b1590565b6001600160a01b0381166105cb5760405162461bcd60e51b81526004018080602001828103825260268152602001806106286026913960400191505060405180910390fd5b6033546040516001600160a01b038084169216907f8be0079c531659141344cd1fd0a4f28419497f9722a3daafe3b4186f6b6457e090600090a3603380546001600160a01b0319166001600160a01b039290921691909117905556fe4f776e61626c653a206e6577206f776e657220697320746865207a65726f2061646472657373436f6e747261637420696e7374616e63652068617320616c7265616479206265656e20696e697469616c697a6564a265627a7a7231582029e5ad3d276d7034f0ecc79ac79fb98230ca06f17147c8a1402285415bc9a80364736f6c63430005110032",
  "source": "pragma solidity 0.5.17;\n\n// Contracts\nimport \"@openzeppelin/contracts-ethereum-package/contracts/ownership/Ownable.sol\";\n\n// Interfaces\nimport \"@openzeppelin/contracts-ethereum-package/contracts/token/ERC20/IERC20.sol\";\n\n// Libraries\nimport \"../util/AddressArrayLib.sol\";\n\ncontract BaseEscrowDapp is Ownable {\n    using AddressArrayLib for address[];\n\n    /**\n        @notice An array of tokens that are owned by this escrow.\n     */\n    address[] private tokens;\n\n    function getTokens() public view returns (address[] memory) {\n        return tokens;\n    }\n\n    function findTokenIndex(address tokenAddress) external view returns (int256) {\n        (bool found, uint256 index) = tokens.getIndex(tokenAddress);\n        return found ? int256(index) : -1;\n    }\n\n    /**\n        @notice Returns this contract's balance for the specified token.\n        @param cTokenAddress token address.\n        @return this contract's balance.\n     */\n    function balanceOf(address cTokenAddress) public view returns (uint256) {\n        return _balanceOf(cTokenAddress);\n    }\n\n    function _balanceOf(address tokenAddress) internal view returns (uint256) {\n        return IERC20(tokenAddress).balanceOf(address(this));\n    }\n\n    function _tokenUpdated(address tokenAddress) internal {\n        (bool found, uint256 index) = tokens.getIndex(tokenAddress);\n        if (_balanceOf(tokenAddress) > 0) {\n            if (!found) {\n                tokens.add(tokenAddress);\n            }\n        } else if (found) {\n            tokens.removeAt(index);\n        }\n    }\n\n    function _setTokens(address[] memory tokenList) internal {\n        tokens = tokenList;\n    }\n}\n",
  "sourcePath": "/Users/sy/Documents/GitHub/teller-protocol-v1/contracts/base/BaseEscrowDapp.sol",
  "compiler": {
    "name": "solc",
    "version": "0.5.17+commit.d19bba13.Emscripten.clang"
  },
  "schemaVersion": "3.0.23",
  "updatedAt": "2020-09-15T21:09:31.050Z",
  "devdoc": {
    "methods": {
      "balanceOf(address)": {
        "params": {
          "cTokenAddress": "token address."
        },
        "return": "this contract's balance."
      },
      "initialize(address)": {
        "details": "Initializes the contract setting the deployer as the initial owner."
      },
      "isOwner()": {
        "details": "Returns true if the caller is the current owner."
      },
      "owner()": {
        "details": "Returns the address of the current owner."
      },
      "renounceOwnership()": {
        "details": "Leaves the contract without owner. It will not be possible to call `onlyOwner` functions anymore. Can only be called by the current owner.     * > Note: Renouncing ownership will leave the contract without an owner, thereby removing any functionality that is only available to the owner."
      },
      "transferOwnership(address)": {
        "details": "Transfers ownership of the contract to a new account (`newOwner`). Can only be called by the current owner."
      }
    }
  },
  "userdoc": {
    "methods": {
      "balanceOf(address)": {
        "notice": "Returns this contract's balance for the specified token."
      }
    }
  }
}