{
  "contractName": "BaseEscrowDappMock",
  "abi": [
    {
      "anonymous": false,
      "inputs": [
        {
          "indexed": true,
          "internalType": "address",
          "name": "previousOwner",
          "type": "address"
        },
        {
          "indexed": true,
          "internalType": "address",
          "name": "newOwner",
          "type": "address"
        }
      ],
      "name": "OwnershipTransferred",
      "type": "event"
    },
    {
      "constant": true,
      "inputs": [
        {
          "internalType": "address",
          "name": "tokenAddress",
          "type": "address"
        }
      ],
      "name": "findTokenIndex",
      "outputs": [
        {
          "internalType": "int256",
          "name": "",
          "type": "int256"
        }
      ],
      "payable": false,
      "stateMutability": "view",
      "type": "function"
    },
    {
      "constant": true,
      "inputs": [],
      "name": "getTokens",
      "outputs": [
        {
          "internalType": "address[]",
          "name": "",
          "type": "address[]"
        }
      ],
      "payable": false,
      "stateMutability": "view",
      "type": "function"
    },
    {
      "constant": false,
      "inputs": [
        {
          "internalType": "address",
          "name": "sender",
          "type": "address"
        }
      ],
      "name": "initialize",
      "outputs": [],
      "payable": false,
      "stateMutability": "nonpayable",
      "type": "function"
    },
    {
      "constant": true,
      "inputs": [],
      "name": "isOwner",
      "outputs": [
        {
          "internalType": "bool",
          "name": "",
          "type": "bool"
        }
      ],
      "payable": false,
      "stateMutability": "view",
      "type": "function"
    },
    {
      "constant": true,
      "inputs": [],
      "name": "owner",
      "outputs": [
        {
          "internalType": "address",
          "name": "",
          "type": "address"
        }
      ],
      "payable": false,
      "stateMutability": "view",
      "type": "function"
    },
    {
      "constant": false,
      "inputs": [],
      "name": "renounceOwnership",
      "outputs": [],
      "payable": false,
      "stateMutability": "nonpayable",
      "type": "function"
    },
    {
      "constant": false,
      "inputs": [
        {
          "internalType": "address",
          "name": "newOwner",
          "type": "address"
        }
      ],
      "name": "transferOwnership",
      "outputs": [],
      "payable": false,
      "stateMutability": "nonpayable",
      "type": "function"
    },
    {
      "constant": false,
      "inputs": [
        {
          "internalType": "address",
          "name": "tokenAddress",
          "type": "address"
        }
      ],
      "name": "clearBalance",
      "outputs": [],
      "payable": false,
      "stateMutability": "nonpayable",
      "type": "function"
    },
    {
      "constant": false,
      "inputs": [
        {
          "internalType": "address",
          "name": "tokenAddress",
          "type": "address"
        }
      ],
      "name": "externalTokenUpdated",
      "outputs": [],
      "payable": false,
      "stateMutability": "nonpayable",
      "type": "function"
    },
    {
      "constant": false,
      "inputs": [
        {
          "internalType": "address[]",
          "name": "tokenList",
          "type": "address[]"
        }
      ],
      "name": "externalSetTokens",
      "outputs": [],
      "payable": false,
      "stateMutability": "nonpayable",
      "type": "function"
    }
  ],
  "bytecode": "0x6080604052610c96806100136000396000f3fe608060405234801561001057600080fd5b506004361061009e5760003560e01c806396f5ac9c1161006657806396f5ac9c1461014b578063974abfc414610171578063aa6ca808146101e1578063c4d66de814610239578063f2fde38b1461025f5761009e565b80630a11fd07146100a357806332ba65aa146100db578063715018a6146101035780638da5cb5b1461010b5780638f32d59b1461012f575b600080fd5b6100c9600480360360208110156100b957600080fd5b50356001600160a01b0316610285565b60408051918252519081900360200190f35b610101600480360360208110156100f157600080fd5b50356001600160a01b03166102b5565b005b61010161031e565b6101136103c1565b604080516001600160a01b039092168252519081900360200190f35b6101376103d1565b604080519115158252519081900360200190f35b6101016004803603602081101561016157600080fd5b50356001600160a01b03166103f7565b6101016004803603602081101561018757600080fd5b8101906020810181356401000000008111156101a257600080fd5b8201836020820111156101b457600080fd5b803590602001918460208302840111640100000000831117156101d657600080fd5b509092509050610403565b6101e9610443565b60408051602080825283518183015283519192839290830191858101910280838360005b8381101561022557818101518382015260200161020d565b505050509050019250505060405180910390f35b6101016004803603602081101561024f57600080fd5b50356001600160a01b03166104a5565b6101016004803603602081101561027557600080fd5b50356001600160a01b0316610596565b6000808061029a60668563ffffffff6105f816565b91509150816102ab576000196102ad565b805b949350505050565b806001600160a01b03166342966c686102cd8361064d565b6040518263ffffffff1660e01b815260040180828152602001915050600060405180830381600087803b15801561030357600080fd5b505af1158015610317573d6000803e3d6000fd5b5050505050565b6103266103d1565b610377576040805162461bcd60e51b815260206004820181905260248201527f4f776e61626c653a2063616c6c6572206973206e6f7420746865206f776e6572604482015290519081900360640190fd5b6033546040516000916001600160a01b0316907f8be0079c531659141344cd1fd0a4f28419497f9722a3daafe3b4186f6b6457e0908390a3603380546001600160a01b0319169055565b6033546001600160a01b03165b90565b6033546000906001600160a01b03166103e86106c9565b6001600160a01b031614905090565b610400816106cd565b50565b61043f82828080602002602001604051908101604052809392919081815260200183836020028082843760009201919091525061073192505050565b5050565b6060606680548060200260200160405190810160405280929190818152602001828054801561049b57602002820191906000526020600020905b81546001600160a01b0316815260019091019060200180831161047d575b5050505050905090565b600054610100900460ff16806104be57506104be610744565b806104cc575060005460ff16155b6105075760405162461bcd60e51b815260040180806020018281038252602e815260200180610c34602e913960400191505060405180910390fd5b600054610100900460ff16158015610532576000805460ff1961ff0019909116610100171660011790555b603380546001600160a01b0319166001600160a01b0384811691909117918290556040519116906000907f8be0079c531659141344cd1fd0a4f28419497f9722a3daafe3b4186f6b6457e0908290a3801561043f576000805461ff00191690555050565b61059e6103d1565b6105ef576040805162461bcd60e51b815260206004820181905260248201527f4f776e61626c653a2063616c6c6572206973206e6f7420746865206f776e6572604482015290519081900360640190fd5b6104008161074a565b6000805b835481101561064657826001600160a01b031684828154811061061b57fe5b6000918252602090912001546001600160a01b0316149150811561063e57610646565b6001016105fc565b9250929050565b604080516370a0823160e01b815230600482015290516000916001600160a01b038416916370a0823191602480820192602092909190829003018186803b15801561069757600080fd5b505afa1580156106ab573d6000803e3d6000fd5b505050506040513d60208110156106c157600080fd5b505192915050565b3390565b6000806106e160668463ffffffff6105f816565b9150915060006106f08461064d565b1115610713578161070e5761070c60668463ffffffff6107eb16565b505b61072c565b811561072c5761072a60668263ffffffff6108d516565b505b505050565b805161043f906066906020840190610b46565b303b1590565b6001600160a01b03811661078f5760405162461bcd60e51b8152600401808060200182810382526026815260200180610c0e6026913960400191505060405180910390fd5b6033546040516001600160a01b038084169216907f8be0079c531659141344cd1fd0a4f28419497f9722a3daafe3b4186f6b6457e090600090a3603380546001600160a01b0319166001600160a01b0392909216919091179055565b60606001600160a01b038216610848576040805162461bcd60e51b815260206004820152601960248201527f454d5054595f414444524553535f4e4f545f414c4c4f57454400000000000000604482015290519081900360640190fd5b8254600181018455600084815260209081902090910180546001600160a01b0319166001600160a01b03851617905583546040805182840281018401909152818152918591908301828280156108c757602002820191906000526020600020905b81546001600160a01b031681526001909101906020018083116108a9575b505050505090505b92915050565b8154606090821061093d5782546040805160208084028201810190925282815291859183018282801561093157602002820191906000526020600020905b81546001600160a01b03168152600190910190602001808311610913575b505050505090506108cf565b8254600019018214156109e15782548390600019810190811061095c57fe5b600091825260209091200180546001600160a01b03191690558254610985846000198301610bab565b50825460408051602080840282018101909252828152918591830182828015610931576020028201919060005260206000209081546001600160a01b0316815260019091019060200180831161091357505050505090506108cf565b8254600090849060001981019081106109f657fe5b60009182526020909120015484546001600160a01b039091169150849084908110610a1d57fe5b60009182526020909120015484546001600160a01b039091169085906000198101908110610a4757fe5b9060005260206000200160006101000a8154816001600160a01b0302191690836001600160a01b0316021790555080848481548110610a8257fe5b600091825260209091200180546001600160a01b0319166001600160a01b0392909216919091179055835484906000198101908110610abd57fe5b600091825260209091200180546001600160a01b03191690558354610ae6856000198301610bab565b50835460408051602080840282018101909252828152918691830182828015610b3857602002820191906000526020600020905b81546001600160a01b03168152600190910190602001808311610b1a575b505050505091505092915050565b828054828255906000526020600020908101928215610b9b579160200282015b82811115610b9b57825182546001600160a01b0319166001600160a01b03909116178255602090920191600190910190610b66565b50610ba7929150610bcf565b5090565b81548183558181111561072c5760008381526020902061072c918101908301610bf3565b6103ce91905b80821115610ba75780546001600160a01b0319168155600101610bd5565b6103ce91905b80821115610ba75760008155600101610bf956fe4f776e61626c653a206e6577206f776e657220697320746865207a65726f2061646472657373436f6e747261637420696e7374616e63652068617320616c7265616479206265656e20696e697469616c697a6564a265627a7a72315820e540cca0ba5539099a042a782a349830443cdd33077854f9ee9183f76a74ae2464736f6c63430005110032",
  "source": "pragma solidity 0.5.17;\n\nimport \"../../base/BaseEscrowDapp.sol\";\nimport \"@openzeppelin/contracts-ethereum-package/contracts/token/ERC20/ERC20Burnable.sol\";\n\ncontract BaseEscrowDappMock is BaseEscrowDapp {\n    function clearBalance(address tokenAddress) external {\n        ERC20Burnable(tokenAddress).burn(_balanceOf(tokenAddress));\n    }\n\n    function externalTokenUpdated(address tokenAddress) external {\n        _tokenUpdated(tokenAddress);\n    }\n\n    function externalSetTokens(address[] calldata tokenList) external {\n        _setTokens(tokenList);\n    }\n}\n",
  "sourcePath": "/Users/guillesalazar/Repos/ZeroCollateral/smart-contracts-v1/contracts/mock/base/BaseEscrowDappMock.sol",
  "compiler": {
    "name": "solc",
    "version": "0.5.17+commit.d19bba13.Emscripten.clang"
  },
  "schemaVersion": "3.2.3",
  "updatedAt": "2020-10-12T14:23:11.511Z",
  "devdoc": {
    "methods": {
      "initialize(address)": {
        "details": "Initializes the contract setting the deployer as the initial owner."
      },
      "isOwner()": {
        "details": "Returns true if the caller is the current owner."
      },
      "owner()": {
        "details": "Returns the address of the current owner."
      },
      "renounceOwnership()": {
        "details": "Leaves the contract without owner. It will not be possible to call `onlyOwner` functions anymore. Can only be called by the current owner.     * > Note: Renouncing ownership will leave the contract without an owner, thereby removing any functionality that is only available to the owner."
      },
      "transferOwnership(address)": {
        "details": "Transfers ownership of the contract to a new account (`newOwner`). Can only be called by the current owner."
      }
    }
  },
  "userdoc": {
    "methods": {}
  }
}