{
  "contractName": "BaseATM",
  "abi": [
    {
      "constant": true,
      "inputs": [],
      "name": "atmSettings",
      "outputs": [
        {
          "internalType": "contract IATMSettings",
          "name": "",
          "type": "address"
        }
      ],
      "payable": false,
      "stateMutability": "view",
      "type": "function"
    }
  ],
  "bytecode": "0x6080604052348015600f57600080fd5b5060938061001e6000396000f3fe6080604052348015600f57600080fd5b506004361060285760003560e01c8063dc21a6a014602d575b600080fd5b6033604f565b604080516001600160a01b039092168252519081900360200190f35b6000546001600160a01b03168156fea265627a7a72315820c54bb781f8cd000f45b03d500f7e1dd79ea9b278963f4912d3081045069857cd64736f6c63430005110032",
  "source": "pragma solidity 0.5.17;\n\nimport \"../settings/IATMSettings.sol\";\n\n/*****************************************************************************************************/\n/**                                             WARNING                                             **/\n/**                         THIS IS A BASE CONTRACT FOR THE ATM CONTRACTS                           **/\n/**  ---------------------------------------------------------------------------------------------  **/\n/**  Do NOT change the order of or ADD ANY storage variables to this or new versions of this        **/\n/**  contract as this will cause the the storage slots to be overwritten on the proxy contract!!    **/\n/**                                                                                                 **/\n/**  Visit https://docs.openzeppelin.com/upgrades/2.6/proxies#upgrading-via-the-proxy-pattern for   **/\n/**  more information.                                                                              **/\n/*****************************************************************************************************/\n/**\n    @notice This acts as a base contract for all the ATM contracts.\n\n    @author develop@teller.finance\n */\ncontract BaseATM {\n    /**\n        @notice It represents the current address for the ATMSettings contract.\n     */\n    IATMSettings public atmSettings;\n\n    /**\n        @notice It requires that the caller is assigned the pauser role within the protocol settings.\n     */\n    modifier onlyPauser() {\n        require(atmSettings.settings().hasPauserRole(msg.sender), \"ONLY_PAUSER\");\n        _;\n    }\n}\n",
  "sourcePath": "/Users/sy/Documents/GitHub/teller-protocol-v1/contracts/atm/BaseATM.sol",
  "compiler": {
    "name": "solc",
    "version": "0.5.17+commit.d19bba13.Emscripten.clang"
  },
  "schemaVersion": "3.0.23",
  "updatedAt": "2020-08-28T22:57:03.807Z",
  "devdoc": {
    "author": "develop@teller.finance",
    "methods": {}
  },
  "userdoc": {
    "methods": {},
    "notice": "This acts as a base contract for all the ATM contracts."
  }
}