{
  "contractName": "Base",
  "abi": [
    {
      "constant": false,
      "inputs": [],
      "name": "initialize",
      "outputs": [],
      "payable": false,
      "stateMutability": "nonpayable",
      "type": "function"
    },
    {
      "constant": true,
      "inputs": [],
      "name": "initialized",
      "outputs": [
        {
          "internalType": "bool",
          "name": "value",
          "type": "bool"
        }
      ],
      "payable": false,
      "stateMutability": "view",
      "type": "function"
    },
    {
      "constant": true,
      "inputs": [],
      "name": "settings",
      "outputs": [
        {
          "internalType": "contract SettingsInterface",
          "name": "",
          "type": "address"
        }
      ],
      "payable": false,
      "stateMutability": "view",
      "type": "function"
    }
  ],
  "bytecode": "0x608060405234801561001057600080fd5b5061020c806100206000396000f3fe608060405234801561001057600080fd5b50600436106100415760003560e01c8063158ef93e146100465780638129fc1c14610062578063e06174e41461006c575b600080fd5b61004e610090565b604080519115158252519081900360200190f35b61006a6100c6565b005b61007461016d565b604080516001600160a01b039092168252519081900360200190f35b604080517f54496e697469616c697a61626c652e6973496e697469616c697a6564000000008152905190819003601c0190205490565b600054610100900460ff16806100df57506100df6101a3565b806100ed575060005460ff16155b6101285760405162461bcd60e51b815260040180806020018281038252602e8152602001806101aa602e913960400191505060405180910390fd5b600054610100900460ff16158015610153576000805460ff1961ff0019909116610100171660011790555b6001603355801561016a576000805461ff00191690555b50565b604080517f426173655570677261646561626c652e73657474696e67730000000000000000815290519081900360180190205490565b303b159056fe436f6e747261637420696e7374616e63652068617320616c7265616479206265656e20696e697469616c697a6564a265627a7a7231582031e72953ce36f8576ffd68196792df802b20d08a81e4c6ae142bda95cbbf301564736f6c63430005110032",
  "source": "pragma solidity 0.5.17;\n\n// Libraries\nimport \"@openzeppelin/contracts-ethereum-package/contracts/utils/ReentrancyGuard.sol\";\nimport \"@openzeppelin/contracts-ethereum-package/contracts/utils/Address.sol\";\nimport \"../util/AddressLib.sol\";\n\n// Commons\nimport \"./TInitializable.sol\";\n\n// Interfaces\nimport \"../interfaces/SettingsInterface.sol\";\nimport \"../interfaces/MarketsStateInterface.sol\";\nimport \"../interfaces/InterestValidatorInterface.sol\";\n\n// Contracts\nimport \"./BaseUpgradeable.sol\";\n\n/*****************************************************************************************************/\n/**                                             WARNING                                             **/\n/**                              THIS CONTRACT IS AN UPGRADEABLE BASE!                              **/\n/**  ---------------------------------------------------------------------------------------------  **/\n/**  Do NOT change the order of, PREPEND, or APPEND any storage variables to this or new versions   **/\n/**  of this contract as this will cause a ripple affect to the storage slots of all child          **/\n/**  contracts that inherit from this contract to be overwritten on the deployed proxy contract!!   **/\n/**                                                                                                 **/\n/**  Visit https://docs.openzeppelin.com/upgrades/2.6/proxies#upgrading-via-the-proxy-pattern for   **/\n/**  more information.                                                                              **/\n/*****************************************************************************************************/\n/**\n    @notice This contract is used as a base contract for most most of the contracts in the platform.\n    @notice It allows contracts to have access to the platform settings, and common modifiers.\n    @notice It implements the reentrancy guard from Open Zeppelin and the TInitializable pattern.\n\n    @author develop@teller.finance.\n */\ncontract Base is TInitializable, BaseUpgradeable, ReentrancyGuard {\n    using AddressLib for address;\n    using Address for address;\n\n    /* State Variables */\n\n    /** Modifiers */\n\n    /**\n        @notice Checks whether the platform is paused or not.\n        @dev It throws a require error if platform is paused.\n     */\n    modifier whenNotPaused() {\n        require(!_isPaused(), \"PLATFORM_IS_PAUSED\");\n        _;\n    }\n\n    /**\n        @notice Checks whether a specific lending pool address is paused or not.\n        @dev It throws a require error if the lending pool is paused.\n        @param lendingPoolAddress lending pool address to check.\n     */\n    modifier whenLendingPoolNotPaused(address lendingPoolAddress) {\n        require(!_isPoolPaused(lendingPoolAddress), \"LENDING_POOL_IS_PAUSED\");\n        _;\n    }\n\n    /**\n        @notice Checks whether the platform is paused or not.\n        @dev It throws a require error if platform is not paused.\n     */\n    modifier whenPaused() {\n        require(_isPaused(), \"PLATFORM_IS_NOT_PAUSED\");\n        _;\n    }\n\n    /**\n        @notice Checks whether a specific lending pool address is paused or not.\n        @dev It throws a require error if the lending pool is not paused.\n        @param lendingPoolAddress lending pool address to check.\n     */\n    modifier whenLendingPoolPaused(address lendingPoolAddress) {\n        require(_isPoolPaused(lendingPoolAddress), \"LENDING_POOL_IS_NOT_PAUSED\");\n        _;\n    }\n\n    /* Constructor */\n\n    /** External Functions */\n\n    /** Internal functions */\n\n    /**\n        @notice It initializes the current contract instance setting the required parameters.\n        @param settingsAddress settings contract address.\n     */\n    function _initialize(address settingsAddress) internal isNotInitialized() {\n        settingsAddress.requireNotEmpty(\"SETTINGS_MUST_BE_PROVIDED\");\n        require(settingsAddress.isContract(), \"SETTINGS_MUST_BE_A_CONTRACT\");\n\n        _initialize();\n        _setSettings(settingsAddress);\n    }\n\n    /**\n        @notice Gets if a specific lending pool address is paused or not.\n        @param poolAddress lending pool address to check.\n        @return true if the lending pool address is  paused. Otherwise it returns false.\n     */\n    function _isPoolPaused(address poolAddress) internal view returns (bool) {\n        return settings().lendingPoolPaused(poolAddress);\n    }\n\n    /**\n        @notice Gets if the platform is paused or not.\n        @return true if platform is paused. Otherwise it returns false.\n     */\n    function _isPaused() internal view returns (bool) {\n        return settings().isPaused();\n    }\n\n    function _markets() internal view returns (MarketsStateInterface) {\n        return settings().marketsState();\n    }\n\n    function _interestValidator() internal view returns (InterestValidatorInterface) {\n        return settings().interestValidator();\n    }\n\n    /** Private functions */\n}\n",
  "sourcePath": "/Users/sy/Documents/GitHub/teller-protocol-v1/contracts/base/Base.sol",
  "compiler": {
    "name": "solc",
    "version": "0.5.17+commit.d19bba13.Emscripten.clang"
  },
  "schemaVersion": "3.0.23",
  "updatedAt": "2020-09-15T23:09:49.663Z",
  "devdoc": {
    "author": "develop@teller.finance.",
    "methods": {
      "initialized()": {
        "return": "true if contract is initialized. Otherwise it returns false."
      },
      "settings()": {
        "details": "This address should NOT change over the time. See details in the _setSettings(...) function."
      }
    }
  },
  "userdoc": {
    "methods": {
      "initialized()": {
        "notice": "Gets if the contract is initialized."
      },
      "settings()": {
        "notice": "The gets the settings contract address from the SETTINGS_SLOT."
      }
    },
    "notice": "This contract is used as a base contract for most most of the contracts in the platform.It allows contracts to have access to the platform settings, and common modifiers.It implements the reentrancy guard from Open Zeppelin and the TInitializable pattern."
  }
}