{
  "contractName": "BaseEscrowDappMock",
  "abi": [
    {
      "anonymous": false,
      "inputs": [
        {
          "indexed": true,
          "internalType": "address",
          "name": "previousOwner",
          "type": "address"
        },
        {
          "indexed": true,
          "internalType": "address",
          "name": "newOwner",
          "type": "address"
        }
      ],
      "name": "OwnershipTransferred",
      "type": "event"
    },
    {
      "constant": true,
      "inputs": [
        {
          "internalType": "address",
          "name": "cTokenAddress",
          "type": "address"
        }
      ],
      "name": "balanceOf",
      "outputs": [
        {
          "internalType": "uint256",
          "name": "",
          "type": "uint256"
        }
      ],
      "payable": false,
      "stateMutability": "view",
      "type": "function"
    },
    {
      "constant": true,
      "inputs": [
        {
          "internalType": "address",
          "name": "tokenAddress",
          "type": "address"
        }
      ],
      "name": "findTokenIndex",
      "outputs": [
        {
          "internalType": "int256",
          "name": "",
          "type": "int256"
        }
      ],
      "payable": false,
      "stateMutability": "view",
      "type": "function"
    },
    {
      "constant": true,
      "inputs": [],
      "name": "getTokens",
      "outputs": [
        {
          "internalType": "address[]",
          "name": "",
          "type": "address[]"
        }
      ],
      "payable": false,
      "stateMutability": "view",
      "type": "function"
    },
    {
      "constant": false,
      "inputs": [
        {
          "internalType": "address",
          "name": "sender",
          "type": "address"
        }
      ],
      "name": "initialize",
      "outputs": [],
      "payable": false,
      "stateMutability": "nonpayable",
      "type": "function"
    },
    {
      "constant": true,
      "inputs": [],
      "name": "isOwner",
      "outputs": [
        {
          "internalType": "bool",
          "name": "",
          "type": "bool"
        }
      ],
      "payable": false,
      "stateMutability": "view",
      "type": "function"
    },
    {
      "constant": true,
      "inputs": [],
      "name": "owner",
      "outputs": [
        {
          "internalType": "address",
          "name": "",
          "type": "address"
        }
      ],
      "payable": false,
      "stateMutability": "view",
      "type": "function"
    },
    {
      "constant": false,
      "inputs": [],
      "name": "renounceOwnership",
      "outputs": [],
      "payable": false,
      "stateMutability": "nonpayable",
      "type": "function"
    },
    {
      "constant": false,
      "inputs": [
        {
          "internalType": "address",
          "name": "newOwner",
          "type": "address"
        }
      ],
      "name": "transferOwnership",
      "outputs": [],
      "payable": false,
      "stateMutability": "nonpayable",
      "type": "function"
    },
    {
      "constant": false,
      "inputs": [
        {
          "internalType": "address",
          "name": "tokenAddress",
          "type": "address"
        }
      ],
      "name": "clearBalance",
      "outputs": [],
      "payable": false,
      "stateMutability": "nonpayable",
      "type": "function"
    },
    {
      "constant": false,
      "inputs": [
        {
          "internalType": "address",
          "name": "tokenAddress",
          "type": "address"
        }
      ],
      "name": "externalTokenUpdated",
      "outputs": [],
      "payable": false,
      "stateMutability": "nonpayable",
      "type": "function"
    },
    {
      "constant": false,
      "inputs": [
        {
          "internalType": "address[]",
          "name": "tokenList",
          "type": "address[]"
        }
      ],
      "name": "externalSetTokens",
      "outputs": [],
      "payable": false,
      "stateMutability": "nonpayable",
      "type": "function"
    }
  ],
  "bytecode": "0x6080604052610cd7806100136000396000f3fe608060405234801561001057600080fd5b50600436106100a95760003560e01c80638f32d59b116100715780638f32d59b1461016057806396f5ac9c1461017c578063974abfc4146101a2578063aa6ca80814610212578063c4d66de81461026a578063f2fde38b14610290576100a9565b80630a11fd07146100ae57806332ba65aa146100e657806370a082311461010e578063715018a6146101345780638da5cb5b1461013c575b600080fd5b6100d4600480360360208110156100c457600080fd5b50356001600160a01b03166102b6565b60408051918252519081900360200190f35b61010c600480360360208110156100fc57600080fd5b50356001600160a01b03166102e6565b005b6100d46004803603602081101561012457600080fd5b50356001600160a01b031661034f565b61010c610360565b610144610403565b604080516001600160a01b039092168252519081900360200190f35b610168610413565b604080519115158252519081900360200190f35b61010c6004803603602081101561019257600080fd5b50356001600160a01b0316610439565b61010c600480360360208110156101b857600080fd5b8101906020810181356401000000008111156101d357600080fd5b8201836020820111156101e557600080fd5b8035906020019184602083028401116401000000008311171561020757600080fd5b509092509050610445565b61021a610485565b60408051602080825283518183015283519192839290830191858101910280838360005b8381101561025657818101518382015260200161023e565b505050509050019250505060405180910390f35b61010c6004803603602081101561028057600080fd5b50356001600160a01b03166104e7565b61010c600480360360208110156102a657600080fd5b50356001600160a01b03166105d8565b600080806102cb60668563ffffffff61063a16565b91509150816102dc576000196102de565b805b949350505050565b806001600160a01b03166342966c686102fe8361068f565b6040518263ffffffff1660e01b815260040180828152602001915050600060405180830381600087803b15801561033457600080fd5b505af1158015610348573d6000803e3d6000fd5b5050505050565b600061035a8261068f565b92915050565b610368610413565b6103b9576040805162461bcd60e51b815260206004820181905260248201527f4f776e61626c653a2063616c6c6572206973206e6f7420746865206f776e6572604482015290519081900360640190fd5b6033546040516000916001600160a01b0316907f8be0079c531659141344cd1fd0a4f28419497f9722a3daafe3b4186f6b6457e0908390a3603380546001600160a01b0319169055565b6033546001600160a01b03165b90565b6033546000906001600160a01b031661042a61070b565b6001600160a01b031614905090565b6104428161070f565b50565b61048182828080602002602001604051908101604052809392919081815260200183836020028082843760009201919091525061077392505050565b5050565b606060668054806020026020016040519081016040528092919081815260200182805480156104dd57602002820191906000526020600020905b81546001600160a01b031681526001909101906020018083116104bf575b5050505050905090565b600054610100900460ff16806105005750610500610786565b8061050e575060005460ff16155b6105495760405162461bcd60e51b815260040180806020018281038252602e815260200180610c75602e913960400191505060405180910390fd5b600054610100900460ff16158015610574576000805460ff1961ff0019909116610100171660011790555b603380546001600160a01b0319166001600160a01b0384811691909117918290556040519116906000907f8be0079c531659141344cd1fd0a4f28419497f9722a3daafe3b4186f6b6457e0908290a38015610481576000805461ff00191690555050565b6105e0610413565b610631576040805162461bcd60e51b815260206004820181905260248201527f4f776e61626c653a2063616c6c6572206973206e6f7420746865206f776e6572604482015290519081900360640190fd5b6104428161078c565b6000805b835481101561068857826001600160a01b031684828154811061065d57fe5b6000918252602090912001546001600160a01b0316149150811561068057610688565b60010161063e565b9250929050565b604080516370a0823160e01b815230600482015290516000916001600160a01b038416916370a0823191602480820192602092909190829003018186803b1580156106d957600080fd5b505afa1580156106ed573d6000803e3d6000fd5b505050506040513d602081101561070357600080fd5b505192915050565b3390565b60008061072360668463ffffffff61063a16565b9150915060006107328461068f565b111561075557816107505761074e60668463ffffffff61082d16565b505b61076e565b811561076e5761076c60668263ffffffff61091616565b505b505050565b8051610481906066906020840190610b87565b303b1590565b6001600160a01b0381166107d15760405162461bcd60e51b8152600401808060200182810382526026815260200180610c4f6026913960400191505060405180910390fd5b6033546040516001600160a01b038084169216907f8be0079c531659141344cd1fd0a4f28419497f9722a3daafe3b4186f6b6457e090600090a3603380546001600160a01b0319166001600160a01b0392909216919091179055565b60606001600160a01b03821661088a576040805162461bcd60e51b815260206004820152601960248201527f454d5054595f414444524553535f4e4f545f414c4c4f57454400000000000000604482015290519081900360640190fd5b8254600181018455600084815260209081902090910180546001600160a01b0319166001600160a01b038516179055835460408051828402810184019091528181529185919083018282801561090957602002820191906000526020600020905b81546001600160a01b031681526001909101906020018083116108eb575b5050505050905092915050565b8154606090821061097e5782546040805160208084028201810190925282815291859183018282801561097257602002820191906000526020600020905b81546001600160a01b03168152600190910190602001808311610954575b5050505050905061035a565b825460001901821415610a225782548390600019810190811061099d57fe5b600091825260209091200180546001600160a01b031916905582546109c6846000198301610bec565b50825460408051602080840282018101909252828152918591830182828015610972576020028201919060005260206000209081546001600160a01b03168152600190910190602001808311610954575050505050905061035a565b825460009084906000198101908110610a3757fe5b60009182526020909120015484546001600160a01b039091169150849084908110610a5e57fe5b60009182526020909120015484546001600160a01b039091169085906000198101908110610a8857fe5b9060005260206000200160006101000a8154816001600160a01b0302191690836001600160a01b0316021790555080848481548110610ac357fe5b600091825260209091200180546001600160a01b0319166001600160a01b0392909216919091179055835484906000198101908110610afe57fe5b600091825260209091200180546001600160a01b03191690558354610b27856000198301610bec565b50835460408051602080840282018101909252828152918691830182828015610b7957602002820191906000526020600020905b81546001600160a01b03168152600190910190602001808311610b5b575b505050505091505092915050565b828054828255906000526020600020908101928215610bdc579160200282015b82811115610bdc57825182546001600160a01b0319166001600160a01b03909116178255602090920191600190910190610ba7565b50610be8929150610c10565b5090565b81548183558181111561076e5760008381526020902061076e918101908301610c34565b61041091905b80821115610be85780546001600160a01b0319168155600101610c16565b61041091905b80821115610be85760008155600101610c3a56fe4f776e61626c653a206e6577206f776e657220697320746865207a65726f2061646472657373436f6e747261637420696e7374616e63652068617320616c7265616479206265656e20696e697469616c697a6564a265627a7a72315820648c4c3e872f21d90f331c9e676fee5ac0bc02ed532c6900ebd70f74b1f48b0064736f6c63430005110032",
  "source": "pragma solidity 0.5.17;\n\nimport \"../../base/BaseEscrowDapp.sol\";\nimport \"@openzeppelin/contracts-ethereum-package/contracts/token/ERC20/ERC20Burnable.sol\";\n\ncontract BaseEscrowDappMock is BaseEscrowDapp {\n    function clearBalance(address tokenAddress) external {\n        ERC20Burnable(tokenAddress).burn(_balanceOf(tokenAddress));\n    }\n\n    function externalTokenUpdated(address tokenAddress) external {\n        _tokenUpdated(tokenAddress);\n    }\n\n    function externalSetTokens(address[] calldata tokenList) external {\n        _setTokens(tokenList);\n    }\n}\n",
  "sourcePath": "/Users/sy/Documents/GitHub/teller-protocol-v1/contracts/mock/base/BaseEscrowDappMock.sol",
  "compiler": {
    "name": "solc",
    "version": "0.5.17+commit.d19bba13.Emscripten.clang"
  },
  "schemaVersion": "3.0.23",
  "updatedAt": "2020-09-15T21:09:31.311Z",
  "devdoc": {
    "methods": {
      "balanceOf(address)": {
        "params": {
          "cTokenAddress": "token address."
        },
        "return": "this contract's balance."
      },
      "initialize(address)": {
        "details": "Initializes the contract setting the deployer as the initial owner."
      },
      "isOwner()": {
        "details": "Returns true if the caller is the current owner."
      },
      "owner()": {
        "details": "Returns the address of the current owner."
      },
      "renounceOwnership()": {
        "details": "Leaves the contract without owner. It will not be possible to call `onlyOwner` functions anymore. Can only be called by the current owner.     * > Note: Renouncing ownership will leave the contract without an owner, thereby removing any functionality that is only available to the owner."
      },
      "transferOwnership(address)": {
        "details": "Transfers ownership of the contract to a new account (`newOwner`). Can only be called by the current owner."
      }
    }
  },
  "userdoc": {
    "methods": {
      "balanceOf(address)": {
        "notice": "Returns this contract's balance for the specified token."
      }
    }
  }
}