{
  "contractName": "BaseEscrowDappMock",
  "abi": [
    {
      "constant": true,
      "inputs": [
        {
          "internalType": "address",
          "name": "tokenAddress",
          "type": "address"
        }
      ],
      "name": "findTokenIndex",
      "outputs": [
        {
          "internalType": "int256",
          "name": "",
          "type": "int256"
        }
      ],
      "payable": false,
      "stateMutability": "view",
      "type": "function"
    },
    {
      "constant": true,
      "inputs": [],
      "name": "getTokens",
      "outputs": [
        {
          "internalType": "address[]",
          "name": "",
          "type": "address[]"
        }
      ],
      "payable": false,
      "stateMutability": "view",
      "type": "function"
    },
    {
      "constant": false,
      "inputs": [
        {
          "internalType": "address",
          "name": "tokenAddress",
          "type": "address"
        }
      ],
      "name": "clearBalance",
      "outputs": [],
      "payable": false,
      "stateMutability": "nonpayable",
      "type": "function"
    },
    {
      "constant": false,
      "inputs": [
        {
          "internalType": "address",
          "name": "tokenAddress",
          "type": "address"
        }
      ],
      "name": "externalTokenUpdated",
      "outputs": [],
      "payable": false,
      "stateMutability": "nonpayable",
      "type": "function"
    },
    {
      "constant": false,
      "inputs": [
        {
          "internalType": "address[]",
          "name": "tokenList",
          "type": "address[]"
        }
      ],
      "name": "externalSetTokens",
      "outputs": [],
      "payable": false,
      "stateMutability": "nonpayable",
      "type": "function"
    }
  ],
  "bytecode": "0x608060405234801561001057600080fd5b5061088f806100206000396000f3fe608060405234801561001057600080fd5b50600436106100575760003560e01c80630a11fd071461005c57806332ba65aa1461009457806396f5ac9c146100bc578063974abfc4146100e2578063aa6ca80814610152575b600080fd5b6100826004803603602081101561007257600080fd5b50356001600160a01b03166101aa565b60408051918252519081900360200190f35b6100ba600480360360208110156100aa57600080fd5b50356001600160a01b03166101d9565b005b6100ba600480360360208110156100d257600080fd5b50356001600160a01b0316610242565b6100ba600480360360208110156100f857600080fd5b81019060208101813564010000000081111561011357600080fd5b82018360208201111561012557600080fd5b8035906020019184602083028401116401000000008311171561014757600080fd5b50909250905061024e565b61015a61028e565b60408051602080825283518183015283519192839290830191858101910280838360005b8381101561019657818101518382015260200161017e565b505050509050019250505060405180910390f35b600080806101be818563ffffffff6102f116565b91509150816101cf576000196101d1565b805b949350505050565b806001600160a01b03166342966c686101f183610346565b6040518263ffffffff1660e01b815260040180828152602001915050600060405180830381600087803b15801561022757600080fd5b505af115801561023b573d6000803e3d6000fd5b5050505050565b61024b816103c2565b50565b61028a82828080602002602001604051908101604052809392919081815260200183836020028082843760009201919091525061042592505050565b5050565b606060008054806020026020016040519081016040528092919081815260200182805480156102e657602002820191906000526020600020905b81546001600160a01b031681526001909101906020018083116102c8575b505050505090505b90565b6000805b835481101561033f57826001600160a01b031684828154811061031457fe5b6000918252602090912001546001600160a01b031614915081156103375761033f565b6001016102f5565b9250929050565b604080516370a0823160e01b815230600482015290516000916001600160a01b038416916370a0823191602480820192602092909190829003018186803b15801561039057600080fd5b505afa1580156103a4573d6000803e3d6000fd5b505050506040513d60208110156103ba57600080fd5b505192915050565b6000806103d5818463ffffffff6102f116565b9150915060006103e484610346565b111561040757816104025761040060008463ffffffff61043816565b505b610420565b81156104205761041e60008263ffffffff61052216565b505b505050565b805161028a906000906020840190610793565b60606001600160a01b038216610495576040805162461bcd60e51b815260206004820152601960248201527f454d5054595f414444524553535f4e4f545f414c4c4f57454400000000000000604482015290519081900360640190fd5b8254600181018455600084815260209081902090910180546001600160a01b0319166001600160a01b038516179055835460408051828402810184019091528181529185919083018282801561051457602002820191906000526020600020905b81546001600160a01b031681526001909101906020018083116104f6575b505050505090505b92915050565b8154606090821061058a5782546040805160208084028201810190925282815291859183018282801561057e57602002820191906000526020600020905b81546001600160a01b03168152600190910190602001808311610560575b5050505050905061051c565b82546000190182141561062e578254839060001981019081106105a957fe5b600091825260209091200180546001600160a01b031916905582546105d28460001983016107f8565b5082546040805160208084028201810190925282815291859183018282801561057e576020028201919060005260206000209081546001600160a01b03168152600190910190602001808311610560575050505050905061051c565b82546000908490600019810190811061064357fe5b60009182526020909120015484546001600160a01b03909116915084908490811061066a57fe5b60009182526020909120015484546001600160a01b03909116908590600019810190811061069457fe5b9060005260206000200160006101000a8154816001600160a01b0302191690836001600160a01b03160217905550808484815481106106cf57fe5b600091825260209091200180546001600160a01b0319166001600160a01b039290921691909117905583548490600019810190811061070a57fe5b600091825260209091200180546001600160a01b031916905583546107338560001983016107f8565b5083546040805160208084028201810190925282815291869183018282801561078557602002820191906000526020600020905b81546001600160a01b03168152600190910190602001808311610767575b505050505091505092915050565b8280548282559060005260206000209081019282156107e8579160200282015b828111156107e857825182546001600160a01b0319166001600160a01b039091161782556020909201916001909101906107b3565b506107f492915061081c565b5090565b81548183558181111561042057600083815260209020610420918101908301610840565b6102ee91905b808211156107f45780546001600160a01b0319168155600101610822565b6102ee91905b808211156107f4576000815560010161084656fea265627a7a7231582065d3aae042ccb994b66d72d5789133b14fd2c46f11205c43e899ed129af6223b64736f6c63430005110032",
  "source": "pragma solidity 0.5.17;\n\nimport \"../../base/BaseEscrowDapp.sol\";\nimport \"@openzeppelin/contracts-ethereum-package/contracts/token/ERC20/ERC20Burnable.sol\";\n\ncontract BaseEscrowDappMock is BaseEscrowDapp {\n    function clearBalance(address tokenAddress) external {\n        ERC20Burnable(tokenAddress).burn(_balanceOf(tokenAddress));\n    }\n\n    function externalTokenUpdated(address tokenAddress) external {\n        _tokenUpdated(tokenAddress);\n    }\n\n    function externalSetTokens(address[] calldata tokenList) external {\n        _setTokens(tokenList);\n    }\n}\n",
  "sourcePath": "/Users/sy/Documents/GitHub/teller-protocol-v1/contracts/mock/base/BaseEscrowDappMock.sol",
  "compiler": {
    "name": "solc",
    "version": "0.5.17+commit.d19bba13.Emscripten.clang"
  },
  "schemaVersion": "3.0.23",
  "updatedAt": "2020-09-06T02:15:12.420Z",
  "devdoc": {
    "methods": {}
  },
  "userdoc": {
    "methods": {}
  }
}