{
  "contractName": "BaseDynamicProxy",
  "abi": [
    {
      "payable": true,
      "stateMutability": "payable",
      "type": "fallback"
    },
    {
      "constant": true,
      "inputs": [],
      "name": "implementation",
      "outputs": [
        {
          "internalType": "address",
          "name": "",
          "type": "address"
        }
      ],
      "payable": false,
      "stateMutability": "view",
      "type": "function"
    },
    {
      "constant": true,
      "inputs": [],
      "name": "settings",
      "outputs": [
        {
          "internalType": "contract SettingsInterface",
          "name": "",
          "type": "address"
        }
      ],
      "payable": false,
      "stateMutability": "view",
      "type": "function"
    }
  ],
  "bytecode": "0x608060405234801561001057600080fd5b50610250806100206000396000f3fe6080604052600436106100295760003560e01c80635c60da1b14610033578063e06174e414610064575b610031610079565b005b34801561003f57600080fd5b50610048610093565b604080516001600160a01b039092168252519081900360200190f35b34801561007057600080fd5b506100486100a2565b610081610091565b61009161008c6100d8565b6101c1565b565b600061009d6100d8565b905090565b604080517f426173655570677261646561626c652e73657474696e67730000000000000000815290519081900360180190205490565b60006100e26100a2565b6001600160a01b031663ea23cb7c6040518163ffffffff1660e01b815260040160206040518083038186803b15801561011a57600080fd5b505afa15801561012e573d6000803e3d6000fd5b505050506040513d602081101561014457600080fd5b50516001600160a01b03166373f1fcf661015c6101e5565b6040518263ffffffff1660e01b81526004018082815260200191505060206040518083038186803b15801561019057600080fd5b505afa1580156101a4573d6000803e3d6000fd5b505050506040513d60208110156101ba57600080fd5b5051905090565b3660008037600080366000845af43d6000803e8080156101e0573d6000f35b3d6000fd5b604080517f426173655570677261646561626c652e6c6f6769634e616d650000000000000081529051908190036019019020549056fea265627a7a7231582057fac2654fa1ac304c09668a8a38190ca3947091e30d15860215d639bd503b7764736f6c63430005110032",
  "source": "pragma solidity 0.5.17;\n\n// Contracts\nimport \"./BaseProxy.sol\";\nimport \"./BaseUpgradeable.sol\";\n\ncontract BaseDynamicProxy is BaseUpgradeable, BaseProxy {\n    /** Internal Functions **/\n\n    /**\n        @notice Returns the current implementation.\n        @dev It uses the LogicVersionsRegistry contract to get the logic address for a given logic name.\n        @return address of the current implementation\n     */\n    function _implementation() internal view returns (address) {\n        return settings().versionsRegistry().getLogicVersionAddress(logicName());\n    }\n}\n",
  "sourcePath": "/Users/guillesalazar/Repos/ZeroCollateral/smart-contracts-v1/contracts/base/BaseDynamicProxy.sol",
  "compiler": {
    "name": "solc",
    "version": "0.5.17+commit.d19bba13.Emscripten.clang"
  },
  "schemaVersion": "3.2.3",
  "updatedAt": "2020-10-12T14:23:11.381Z",
  "devdoc": {
    "methods": {
      "implementation()": {
        "return": "Address of the current implementation"
      },
      "settings()": {
        "details": "This address should NOT change over the time. See details in the _setSettings(...) function."
      }
    }
  },
  "userdoc": {
    "methods": {
      "implementation()": {
        "notice": "Returns the current implementation."
      },
      "settings()": {
        "notice": "The gets the settings contract address from the SETTINGS_SLOT."
      }
    }
  }
}