{
  "contractName": "CDAIMock",
  "abi": [
    {
      "inputs": [
        {
          "internalType": "address",
          "name": "underlyingToken",
          "type": "address"
        },
        {
          "internalType": "uint256",
          "name": "multiplierValue",
          "type": "uint256"
        }
      ],
      "payable": false,
      "stateMutability": "nonpayable",
      "type": "constructor"
    },
    {
      "anonymous": false,
      "inputs": [
        {
          "indexed": true,
          "internalType": "address",
          "name": "owner",
          "type": "address"
        },
        {
          "indexed": true,
          "internalType": "address",
          "name": "spender",
          "type": "address"
        },
        {
          "indexed": false,
          "internalType": "uint256",
          "name": "value",
          "type": "uint256"
        }
      ],
      "name": "Approval",
      "type": "event"
    },
    {
      "anonymous": false,
      "inputs": [
        {
          "indexed": true,
          "internalType": "address",
          "name": "account",
          "type": "address"
        }
      ],
      "name": "MinterAdded",
      "type": "event"
    },
    {
      "anonymous": false,
      "inputs": [
        {
          "indexed": true,
          "internalType": "address",
          "name": "account",
          "type": "address"
        }
      ],
      "name": "MinterRemoved",
      "type": "event"
    },
    {
      "anonymous": false,
      "inputs": [
        {
          "indexed": true,
          "internalType": "address",
          "name": "from",
          "type": "address"
        },
        {
          "indexed": true,
          "internalType": "address",
          "name": "to",
          "type": "address"
        },
        {
          "indexed": false,
          "internalType": "uint256",
          "name": "value",
          "type": "uint256"
        }
      ],
      "name": "Transfer",
      "type": "event"
    },
    {
      "constant": true,
      "inputs": [],
      "name": "CTOKEN_DECIMALS",
      "outputs": [
        {
          "internalType": "uint8",
          "name": "",
          "type": "uint8"
        }
      ],
      "payable": false,
      "stateMutability": "view",
      "type": "function"
    },
    {
      "constant": true,
      "inputs": [],
      "name": "NO_ERROR",
      "outputs": [
        {
          "internalType": "uint256",
          "name": "",
          "type": "uint256"
        }
      ],
      "payable": false,
      "stateMutability": "view",
      "type": "function"
    },
    {
      "constant": true,
      "inputs": [],
      "name": "RETURN_ERROR",
      "outputs": [
        {
          "internalType": "uint256",
          "name": "",
          "type": "uint256"
        }
      ],
      "payable": false,
      "stateMutability": "view",
      "type": "function"
    },
    {
      "constant": true,
      "inputs": [],
      "name": "SIMULATE_COMPOUND_MINT_ERROR",
      "outputs": [
        {
          "internalType": "uint256",
          "name": "",
          "type": "uint256"
        }
      ],
      "payable": false,
      "stateMutability": "view",
      "type": "function"
    },
    {
      "constant": true,
      "inputs": [],
      "name": "SIMULATE_COMPOUND_MINT_RETURN_ERROR",
      "outputs": [
        {
          "internalType": "uint256",
          "name": "",
          "type": "uint256"
        }
      ],
      "payable": false,
      "stateMutability": "view",
      "type": "function"
    },
    {
      "constant": true,
      "inputs": [],
      "name": "SIMULATE_COMPOUND_REDEEM_UNDERLYING_ERROR",
      "outputs": [
        {
          "internalType": "uint256",
          "name": "",
          "type": "uint256"
        }
      ],
      "payable": false,
      "stateMutability": "view",
      "type": "function"
    },
    {
      "constant": true,
      "inputs": [],
      "name": "SIMULATE_COMPOUND_REDEEM_UNDERLYING_RETURN_ERROR",
      "outputs": [
        {
          "internalType": "uint256",
          "name": "",
          "type": "uint256"
        }
      ],
      "payable": false,
      "stateMutability": "view",
      "type": "function"
    },
    {
      "constant": false,
      "inputs": [
        {
          "internalType": "uint256",
          "name": "addAmount",
          "type": "uint256"
        }
      ],
      "name": "_addReserves",
      "outputs": [
        {
          "internalType": "uint256",
          "name": "",
          "type": "uint256"
        }
      ],
      "payable": false,
      "stateMutability": "nonpayable",
      "type": "function"
    },
    {
      "constant": false,
      "inputs": [
        {
          "internalType": "address",
          "name": "account",
          "type": "address"
        }
      ],
      "name": "addMinter",
      "outputs": [],
      "payable": false,
      "stateMutability": "nonpayable",
      "type": "function"
    },
    {
      "constant": true,
      "inputs": [
        {
          "internalType": "address",
          "name": "owner",
          "type": "address"
        },
        {
          "internalType": "address",
          "name": "spender",
          "type": "address"
        }
      ],
      "name": "allowance",
      "outputs": [
        {
          "internalType": "uint256",
          "name": "",
          "type": "uint256"
        }
      ],
      "payable": false,
      "stateMutability": "view",
      "type": "function"
    },
    {
      "constant": false,
      "inputs": [
        {
          "internalType": "address",
          "name": "spender",
          "type": "address"
        },
        {
          "internalType": "uint256",
          "name": "amount",
          "type": "uint256"
        }
      ],
      "name": "approve",
      "outputs": [
        {
          "internalType": "bool",
          "name": "",
          "type": "bool"
        }
      ],
      "payable": false,
      "stateMutability": "nonpayable",
      "type": "function"
    },
    {
      "constant": true,
      "inputs": [
        {
          "internalType": "address",
          "name": "account",
          "type": "address"
        }
      ],
      "name": "balanceOf",
      "outputs": [
        {
          "internalType": "uint256",
          "name": "",
          "type": "uint256"
        }
      ],
      "payable": false,
      "stateMutability": "view",
      "type": "function"
    },
    {
      "constant": true,
      "inputs": [
        {
          "internalType": "address",
          "name": "account",
          "type": "address"
        }
      ],
      "name": "balanceOfUnderlying",
      "outputs": [
        {
          "internalType": "uint256",
          "name": "",
          "type": "uint256"
        }
      ],
      "payable": false,
      "stateMutability": "view",
      "type": "function"
    },
    {
      "constant": false,
      "inputs": [
        {
          "internalType": "uint256",
          "name": "borrowAmount",
          "type": "uint256"
        }
      ],
      "name": "borrow",
      "outputs": [
        {
          "internalType": "uint256",
          "name": "",
          "type": "uint256"
        }
      ],
      "payable": false,
      "stateMutability": "nonpayable",
      "type": "function"
    },
    {
      "constant": false,
      "inputs": [
        {
          "internalType": "uint256",
          "name": "amount",
          "type": "uint256"
        }
      ],
      "name": "burn",
      "outputs": [],
      "payable": false,
      "stateMutability": "nonpayable",
      "type": "function"
    },
    {
      "constant": false,
      "inputs": [
        {
          "internalType": "address",
          "name": "account",
          "type": "address"
        },
        {
          "internalType": "uint256",
          "name": "amount",
          "type": "uint256"
        }
      ],
      "name": "burnFrom",
      "outputs": [],
      "payable": false,
      "stateMutability": "nonpayable",
      "type": "function"
    },
    {
      "constant": true,
      "inputs": [],
      "name": "decimals",
      "outputs": [
        {
          "internalType": "uint8",
          "name": "",
          "type": "uint8"
        }
      ],
      "payable": false,
      "stateMutability": "view",
      "type": "function"
    },
    {
      "constant": false,
      "inputs": [
        {
          "internalType": "address",
          "name": "spender",
          "type": "address"
        },
        {
          "internalType": "uint256",
          "name": "subtractedValue",
          "type": "uint256"
        }
      ],
      "name": "decreaseAllowance",
      "outputs": [
        {
          "internalType": "bool",
          "name": "",
          "type": "bool"
        }
      ],
      "payable": false,
      "stateMutability": "nonpayable",
      "type": "function"
    },
    {
      "constant": true,
      "inputs": [],
      "name": "exchangeRateCurrent",
      "outputs": [
        {
          "internalType": "uint256",
          "name": "",
          "type": "uint256"
        }
      ],
      "payable": false,
      "stateMutability": "view",
      "type": "function"
    },
    {
      "constant": false,
      "inputs": [
        {
          "internalType": "address",
          "name": "spender",
          "type": "address"
        },
        {
          "internalType": "uint256",
          "name": "addedValue",
          "type": "uint256"
        }
      ],
      "name": "increaseAllowance",
      "outputs": [
        {
          "internalType": "bool",
          "name": "",
          "type": "bool"
        }
      ],
      "payable": false,
      "stateMutability": "nonpayable",
      "type": "function"
    },
    {
      "constant": false,
      "inputs": [
        {
          "internalType": "string",
          "name": "name",
          "type": "string"
        },
        {
          "internalType": "string",
          "name": "symbol",
          "type": "string"
        },
        {
          "internalType": "uint8",
          "name": "decimals",
          "type": "uint8"
        }
      ],
      "name": "initialize",
      "outputs": [],
      "payable": false,
      "stateMutability": "nonpayable",
      "type": "function"
    },
    {
      "constant": false,
      "inputs": [
        {
          "internalType": "address",
          "name": "sender",
          "type": "address"
        }
      ],
      "name": "initialize",
      "outputs": [],
      "payable": false,
      "stateMutability": "nonpayable",
      "type": "function"
    },
    {
      "constant": true,
      "inputs": [
        {
          "internalType": "address",
          "name": "account",
          "type": "address"
        }
      ],
      "name": "isMinter",
      "outputs": [
        {
          "internalType": "bool",
          "name": "",
          "type": "bool"
        }
      ],
      "payable": false,
      "stateMutability": "view",
      "type": "function"
    },
    {
      "constant": false,
      "inputs": [
        {
          "internalType": "address",
          "name": "borrower",
          "type": "address"
        },
        {
          "internalType": "uint256",
          "name": "repayAmount",
          "type": "uint256"
        },
        {
          "internalType": "address",
          "name": "cTokenCollateral",
          "type": "address"
        }
      ],
      "name": "liquidateBorrow",
      "outputs": [
        {
          "internalType": "uint256",
          "name": "",
          "type": "uint256"
        }
      ],
      "payable": false,
      "stateMutability": "nonpayable",
      "type": "function"
    },
    {
      "constant": false,
      "inputs": [
        {
          "internalType": "address",
          "name": "account",
          "type": "address"
        },
        {
          "internalType": "uint256",
          "name": "amount",
          "type": "uint256"
        }
      ],
      "name": "mint",
      "outputs": [
        {
          "internalType": "bool",
          "name": "",
          "type": "bool"
        }
      ],
      "payable": false,
      "stateMutability": "nonpayable",
      "type": "function"
    },
    {
      "constant": false,
      "inputs": [
        {
          "internalType": "uint256",
          "name": "mintAmount",
          "type": "uint256"
        }
      ],
      "name": "mint",
      "outputs": [
        {
          "internalType": "uint256",
          "name": "",
          "type": "uint256"
        }
      ],
      "payable": false,
      "stateMutability": "nonpayable",
      "type": "function"
    },
    {
      "constant": false,
      "inputs": [],
      "name": "mockTransferFromReturnFalse",
      "outputs": [],
      "payable": false,
      "stateMutability": "nonpayable",
      "type": "function"
    },
    {
      "constant": true,
      "inputs": [],
      "name": "multiplier",
      "outputs": [
        {
          "internalType": "uint256",
          "name": "",
          "type": "uint256"
        }
      ],
      "payable": false,
      "stateMutability": "view",
      "type": "function"
    },
    {
      "constant": true,
      "inputs": [],
      "name": "name",
      "outputs": [
        {
          "internalType": "string",
          "name": "",
          "type": "string"
        }
      ],
      "payable": false,
      "stateMutability": "view",
      "type": "function"
    },
    {
      "constant": false,
      "inputs": [
        {
          "internalType": "uint256",
          "name": "redeemTokens",
          "type": "uint256"
        }
      ],
      "name": "redeem",
      "outputs": [
        {
          "internalType": "uint256",
          "name": "",
          "type": "uint256"
        }
      ],
      "payable": false,
      "stateMutability": "nonpayable",
      "type": "function"
    },
    {
      "constant": false,
      "inputs": [
        {
          "internalType": "uint256",
          "name": "redeemAmount",
          "type": "uint256"
        }
      ],
      "name": "redeemUnderlying",
      "outputs": [
        {
          "internalType": "uint256",
          "name": "",
          "type": "uint256"
        }
      ],
      "payable": false,
      "stateMutability": "nonpayable",
      "type": "function"
    },
    {
      "constant": false,
      "inputs": [],
      "name": "renounceMinter",
      "outputs": [],
      "payable": false,
      "stateMutability": "nonpayable",
      "type": "function"
    },
    {
      "constant": false,
      "inputs": [
        {
          "internalType": "uint256",
          "name": "repayAmount",
          "type": "uint256"
        }
      ],
      "name": "repayBorrow",
      "outputs": [
        {
          "internalType": "uint256",
          "name": "",
          "type": "uint256"
        }
      ],
      "payable": false,
      "stateMutability": "nonpayable",
      "type": "function"
    },
    {
      "constant": false,
      "inputs": [
        {
          "internalType": "address",
          "name": "borrower",
          "type": "address"
        },
        {
          "internalType": "uint256",
          "name": "repayAmount",
          "type": "uint256"
        }
      ],
      "name": "repayBorrowBehalf",
      "outputs": [
        {
          "internalType": "uint256",
          "name": "",
          "type": "uint256"
        }
      ],
      "payable": false,
      "stateMutability": "nonpayable",
      "type": "function"
    },
    {
      "constant": true,
      "inputs": [],
      "name": "symbol",
      "outputs": [
        {
          "internalType": "string",
          "name": "",
          "type": "string"
        }
      ],
      "payable": false,
      "stateMutability": "view",
      "type": "function"
    },
    {
      "constant": true,
      "inputs": [],
      "name": "totalSupply",
      "outputs": [
        {
          "internalType": "uint256",
          "name": "",
          "type": "uint256"
        }
      ],
      "payable": false,
      "stateMutability": "view",
      "type": "function"
    },
    {
      "constant": false,
      "inputs": [
        {
          "internalType": "address",
          "name": "recipient",
          "type": "address"
        },
        {
          "internalType": "uint256",
          "name": "amount",
          "type": "uint256"
        }
      ],
      "name": "transfer",
      "outputs": [
        {
          "internalType": "bool",
          "name": "",
          "type": "bool"
        }
      ],
      "payable": false,
      "stateMutability": "nonpayable",
      "type": "function"
    },
    {
      "constant": false,
      "inputs": [
        {
          "internalType": "address",
          "name": "sender",
          "type": "address"
        },
        {
          "internalType": "address",
          "name": "recipient",
          "type": "address"
        },
        {
          "internalType": "uint256",
          "name": "amount",
          "type": "uint256"
        }
      ],
      "name": "transferFrom",
      "outputs": [
        {
          "internalType": "bool",
          "name": "",
          "type": "bool"
        }
      ],
      "payable": false,
      "stateMutability": "nonpayable",
      "type": "function"
    },
    {
      "constant": true,
      "inputs": [],
      "name": "underlying",
      "outputs": [
        {
          "internalType": "contract IERC20",
          "name": "",
          "type": "address"
        }
      ],
      "payable": false,
      "stateMutability": "view",
      "type": "function"
    }
  ],
  "bytecode": "0x60806040523480156200001157600080fd5b50604051620023c0380380620023c0833981810160405260408110156200003757600080fd5b5080516020918201516040805180820182526004808252634344414960e01b8287018190528351808501909452908352828601529293919291600890859085908590859085906000906200009a908590859085906200088a620001c2821b17901c565b620000b033620002b360201b62000e841760201c565b620000df33620000c86001600160e01b036200037d16565b60ff16600a0a83026001600160e01b036200038716565b505050506001600160a01b0382166200013f576040805162461bcd60e51b815260206004820152601760248201527f50524f564944455f554e4445524c5949475f544f4b454e000000000000000000604482015290519081900360640190fd5b600081116200018a576040805162461bcd60e51b8152602060048201526012602482015271282927ab24a222afa6aaa62a24a82624a2a960711b604482015290519081900360640190fd5b61013480546001600160a01b0390931661010002610100600160a81b0319909316929092179091556101355550620007cb9350505050565b600054610100900460ff1680620001e75750620001e76001600160e01b036200048c16565b80620001f6575060005460ff16155b620002335760405162461bcd60e51b815260040180806020018281038252602e81526020018062002392602e913960400191505060405180910390fd5b600054610100900460ff161580156200025f576000805460ff1961ff0019909116610100171660011790555b83516200027490603390602087019062000729565b5082516200028a90603490602086019062000729565b506035805460ff191660ff84161790558015620002ad576000805461ff00191690555b50505050565b600054610100900460ff1680620002d85750620002d86001600160e01b036200048c16565b80620002e7575060005460ff16155b620003245760405162461bcd60e51b815260040180806020018281038252602e81526020018062002392602e913960400191505060405180910390fd5b600054610100900460ff1615801562000350576000805460ff1961ff0019909116610100171660011790555b62000366826200049260201b620016f21760201c565b801562000379576000805461ff00191690555b5050565b60355460ff165b90565b6001600160a01b038216620003e3576040805162461bcd60e51b815260206004820152601f60248201527f45524332303a206d696e7420746f20746865207a65726f206164647265737300604482015290519081900360640190fd5b620003ff81606a546200055c60201b620011141790919060201c565b606a556001600160a01b03821660009081526068602090815260409091205462000434918390620011146200055c821b17901c565b6001600160a01b03831660008181526068602090815260408083209490945583518581529351929391927fddf252ad1be2c89b69c2b068fc378daa952ba7f163c4a11628f55a4df523b3ef9281900390910190a35050565b303b1590565b600054610100900460ff1680620004b75750620004b76001600160e01b036200048c16565b80620004c6575060005460ff16155b620005035760405162461bcd60e51b815260040180806020018281038252602e81526020018062002392602e913960400191505060405180910390fd5b600054610100900460ff161580156200052f576000805460ff1961ff0019909116610100171660011790555b62000543826001600160e01b03620005be16565b620003665762000366826001600160e01b03620005e116565b600082820183811015620005b7576040805162461bcd60e51b815260206004820152601b60248201527f536166654d6174683a206164646974696f6e206f766572666c6f770000000000604482015290519081900360640190fd5b9392505050565b6000620005db82609d6200063360201b6200166b1790919060201c565b92915050565b620005fc81609d6200069c60201b620017d71790919060201c565b6040516001600160a01b038216907f6ae172837ea30b801fbfcdd4108aa1d5bf8ff775444fd70256b44e6bf3dfc3f690600090a250565b60006001600160a01b0382166200067c5760405162461bcd60e51b8152600401808060200182810382526022815260200180620023706022913960400191505060405180910390fd5b506001600160a01b03166000908152602091909152604090205460ff1690565b620006b182826001600160e01b036200063316565b1562000704576040805162461bcd60e51b815260206004820152601f60248201527f526f6c65733a206163636f756e7420616c72656164792068617320726f6c6500604482015290519081900360640190fd5b6001600160a01b0316600090815260209190915260409020805460ff19166001179055565b828054600181600116156101000203166002900490600052602060002090601f016020900481019282601f106200076c57805160ff19168380011785556200079c565b828001600101855582156200079c579182015b828111156200079c5782518255916020019190600101906200077f565b50620007aa929150620007ae565b5090565b6200038491905b80821115620007aa5760008155600101620007b5565b611b9580620007db6000396000f3fe608060405234801561001057600080fd5b506004361061023d5760003560e01c806379cc67901161013b578063bd6d894d116100b8578063e0972e5d1161007c578063e0972e5d1461076d578063e70592ff14610775578063ee87d86c1461077d578063f5e3c46214610785578063fac2123c146107bb5761023d565b8063bd6d894d14610711578063c4d66de814610719578063c5ebeaec146102ff578063db006a75146102ff578063dd62ed3e1461073f5761023d565b80639df5a1f2116100ff5780639df5a1f21461066e578063a0712d6814610676578063a457c2d714610693578063a9059cbb146106bf578063aa271e1a146106eb5761023d565b806379cc6790146105ef578063852a12e31461061b57806395d89b4114610638578063983b2d561461064057806398650275146106665761023d565b8063390412e7116101c957806342966c681161018d57806342966c68146105785780635244b4be1461059557806369ab32501461059d5780636f307dc3146105a557806370a08231146105c95761023d565b8063390412e7146104f257806339509351146104fa5780633af9e669146105265780633e941010146102ff57806340c10f191461054c5761023d565b806318160ddd1161021057806318160ddd146104625780631b3ed7221461046a57806323b872dd146104725780632608f818146104a8578063313ce567146104d45761023d565b806306fdde0314610242578063095ea7b3146102bf5780630e752702146102ff5780631624f6c61461032e575b600080fd5b61024a6107c3565b6040805160208082528351818301528351919283929083019185019080838360005b8381101561028457818101518382015260200161026c565b50505050905090810190601f1680156102b15780820380516001836020036101000a031916815260200191505b509250505060405180910390f35b6102eb600480360360408110156102d557600080fd5b506001600160a01b03813516906020013561085a565b604080519115158252519081900360200190f35b61031c6004803603602081101561031557600080fd5b5035610877565b60408051918252519081900360200190f35b6104606004803603606081101561034457600080fd5b81019060208101813564010000000081111561035f57600080fd5b82018360208201111561037157600080fd5b8035906020019184600183028401116401000000008311171561039357600080fd5b91908080601f01602080910402602001604051908101604052809392919081815260200183838082843760009201919091525092959493602081019350359150506401000000008111156103e657600080fd5b8201836020820111156103f857600080fd5b8035906020019184600183028401116401000000008311171561041a57600080fd5b91908080601f0160208091040260200160405190810160405280939291908181526020018383808284376000920191909152509295505050903560ff16915061088a9050565b005b61031c610966565b61031c61096c565b6102eb6004803603606081101561048857600080fd5b506001600160a01b03813581169160208101359091169060400135610973565b61031c600480360360408110156104be57600080fd5b506001600160a01b03813516906020013561099f565b6104dc6109b2565b6040805160ff9092168252519081900360200190f35b61031c6109bb565b6102eb6004803603604081101561051057600080fd5b506001600160a01b0381351690602001356109c3565b61031c6004803603602081101561053c57600080fd5b50356001600160a01b0316610a1c565b6102eb6004803603604081101561056257600080fd5b506001600160a01b038135169060200135610a2d565b6104606004803603602081101561058e57600080fd5b5035610a39565b61031c610a4d565b61031c610a53565b6105ad610a58565b604080516001600160a01b039092168252519081900360200190f35b61031c600480360360208110156105df57600080fd5b50356001600160a01b0316610a6d565b6104606004803603604081101561060557600080fd5b506001600160a01b038135169060200135610a88565b61031c6004803603602081101561063157600080fd5b5035610a96565b61024a610c00565b6104606004803603602081101561065657600080fd5b50356001600160a01b0316610c61565b610460610cb5565b6104dc610cc7565b61031c6004803603602081101561068c57600080fd5b5035610ccc565b6102eb600480360360408110156106a957600080fd5b506001600160a01b038135169060200135610de0565b6102eb600480360360408110156106d557600080fd5b506001600160a01b038135169060200135610e4e565b6102eb6004803603602081101561070157600080fd5b50356001600160a01b0316610e62565b61031c610e75565b6104606004803603602081101561072f57600080fd5b50356001600160a01b0316610e84565b61031c6004803603604081101561075557600080fd5b506001600160a01b0381358116916020013516610f2f565b61031c610f5a565b610460610f62565b61031c610f72565b61031c6004803603606081101561079b57600080fd5b506001600160a01b03813581169160208101359160409091013516610f7a565b61031c610f8e565b60338054604080516020601f600260001961010060018816150201909516949094049384018190048102820181019092528281526060939092909183018282801561084f5780601f106108245761010080835404028352916020019161084f565b820191906000526020600020905b81548152906001019060200180831161083257829003601f168201915b505050505090505b90565b600061086e610867610f96565b8484610f9a565b50600192915050565b6000610881610cc5565b5060005b919050565b600054610100900460ff16806108a357506108a3611086565b806108b1575060005460ff16155b6108ec5760405162461bcd60e51b815260040180806020018281038252602e815260200180611a80602e913960400191505060405180910390fd5b600054610100900460ff16158015610917576000805460ff1961ff0019909116610100171660011790555b835161092a9060339060208701906118bf565b50825161093e9060349060208601906118bf565b506035805460ff191660ff84161790558015610960576000805461ff00191690555b50505050565b606a5490565b6101355481565b6101345460009060ff161561098a57506000610998565b61099584848461108c565b90505b9392505050565b60006109a9610cc5565b50600092915050565b60355460ff1690565b63034fb5e381565b600061086e6109d0610f96565b84610a1785606960006109e1610f96565b6001600160a01b03908116825260208083019390935260409182016000908120918c16815292529020549063ffffffff61111416565b610f9a565b6000610a2782610a6d565b92915050565b600061086e838361116e565b610a4a610a44610f96565b82611260565b50565b61270f81565b600081565b6101345461010090046001600160a01b031681565b6001600160a01b031660009081526068602052604090205490565b610a92828261135c565b5050565b60008163034fb5e31415610aa957600191505b6000610ab4836113b0565b9050610ac03382610e4e565b610b11576040805162461bcd60e51b815260206004820152601a60248201527f554e4445524c59494e475f5452414e534645525f4641494c4544000000000000604482015290519081900360640190fd5b610b1a83610a39565b61013454604080516340c10f1960e01b81523360048201526024810186905290516101009092046001600160a01b0316916340c10f19916044808201926020929091908290030181600087803b158015610b7357600080fd5b505af1158015610b87573d6000803e3d6000fd5b505050506040513d6020811015610b9d57600080fd5b5051610be9576040805162461bcd60e51b815260206004820152601660248201527515539111549316525391d7d352539517d1905253115160521b604482015290519081900360640190fd5b826303f940aa14156109a95761270f915050610885565b60348054604080516020601f600260001961010060018816150201909516949094049384018190048102820181019092528281526060939092909183018282801561084f5780601f106108245761010080835404028352916020019161084f565b610c71610c6c610f96565b610e62565b610cac5760405162461bcd60e51b81526004018080602001828103825260308152602001806119e56030913960400191505060405180910390fd5b610a4a816113d4565b610cc5610cc0610f96565b61141c565b565b600881565b6000816304a2cb711415610cdf57600191505b6000610cea83611464565b61013454604080516323b872dd60e01b81523360048201523060248201526044810187905290519293506101009091046001600160a01b0316916323b872dd916064808201926020929091908290030181600087803b158015610d4c57600080fd5b505af1158015610d60573d6000803e3d6000fd5b505050506040513d6020811015610d7657600080fd5b50610d8390503382610a2d565b610dc9576040805162461bcd60e51b815260206004820152601260248201527110d513d2d15397d352539517d1905253115160721b604482015290519081900360640190fd5b8263054c563814156109a95761270f915050610885565b600061086e610ded610f96565b84610a1785604051806060016040528060258152602001611b3c6025913960696000610e17610f96565b6001600160a01b03908116825260208083019390935260409182016000908120918d1681529252902054919063ffffffff61147616565b600061086e610e5b610f96565b848461150d565b6000610a27609d8363ffffffff61166b16565b6000610e7f6116d2565b905090565b600054610100900460ff1680610e9d5750610e9d611086565b80610eab575060005460ff16155b610ee65760405162461bcd60e51b815260040180806020018281038252602e815260200180611a80602e913960400191505060405180910390fd5b600054610100900460ff16158015610f11576000805460ff1961ff0019909116610100171660011790555b610f1a826116f2565b8015610a92576000805461ff00191690555050565b6001600160a01b03918216600090815260696020908152604080832093909416825291909152205490565b6304a2cb7181565b610134805460ff19166001179055565b63054c563881565b6000610f84610cc5565b5060009392505050565b6303f940aa81565b3390565b6001600160a01b038316610fdf5760405162461bcd60e51b8152600401808060200182810382526024815260200180611b186024913960400191505060405180910390fd5b6001600160a01b0382166110245760405162461bcd60e51b815260040180806020018281038252602281526020018061199d6022913960400191505060405180910390fd5b6001600160a01b03808416600081815260696020908152604080832094871680845294825291829020859055815185815291517f8c5be1e5ebec7d5bd14f71427d1e84f3dd0314c0f7b2291e5b200ac8c7c3b9259281900390910190a3505050565b303b1590565b600061109984848461150d565b61110a846110a5610f96565b610a1785604051806060016040528060288152602001611a36602891396001600160a01b038a166000908152606960205260408120906110e3610f96565b6001600160a01b03168152602081019190915260400160002054919063ffffffff61147616565b5060019392505050565b600082820183811015610998576040805162461bcd60e51b815260206004820152601b60248201527f536166654d6174683a206164646974696f6e206f766572666c6f770000000000604482015290519081900360640190fd5b6001600160a01b0382166111c9576040805162461bcd60e51b815260206004820152601f60248201527f45524332303a206d696e7420746f20746865207a65726f206164647265737300604482015290519081900360640190fd5b606a546111dc908263ffffffff61111416565b606a556001600160a01b038216600090815260686020526040902054611208908263ffffffff61111416565b6001600160a01b03831660008181526068602090815260408083209490945583518581529351929391927fddf252ad1be2c89b69c2b068fc378daa952ba7f163c4a11628f55a4df523b3ef9281900390910190a35050565b6001600160a01b0382166112a55760405162461bcd60e51b8152600401808060200182810382526021815260200180611ad26021913960400191505060405180910390fd5b6112e88160405180606001604052806022815260200161197b602291396001600160a01b038516600090815260686020526040902054919063ffffffff61147616565b6001600160a01b038316600090815260686020526040902055606a54611314908263ffffffff61179516565b606a556040805182815290516000916001600160a01b038516917fddf252ad1be2c89b69c2b068fc378daa952ba7f163c4a11628f55a4df523b3ef9181900360200190a35050565b6113668282611260565b610a9282611372610f96565b610a1784604051806060016040528060248152602001611aae602491396001600160a01b0388166000908152606960205260408120906110e3610f96565b6000806113bb6116d2565b905080156109a9578083816113cc57fe5b049392505050565b6113e5609d8263ffffffff6117d716565b6040516001600160a01b038216907f6ae172837ea30b801fbfcdd4108aa1d5bf8ff775444fd70256b44e6bf3dfc3f690600090a250565b61142d609d8263ffffffff61185816565b6040516001600160a01b038216907fe94479a9f7e1952cc78f2d6baab678adc1b772d936c6583def489e524cb6669290600090a250565b60008161146f6116d2565b0292915050565b600081848411156115055760405162461bcd60e51b81526004018080602001828103825283818151815260200191508051906020019080838360005b838110156114ca5781810151838201526020016114b2565b50505050905090810190601f1680156114f75780820380516001836020036101000a031916815260200191505b509250505060405180910390fd5b505050900390565b6001600160a01b0383166115525760405162461bcd60e51b8152600401808060200182810382526025815260200180611af36025913960400191505060405180910390fd5b6001600160a01b0382166115975760405162461bcd60e51b81526004018080602001828103825260238152602001806119586023913960400191505060405180910390fd5b6115da816040518060600160405280602681526020016119bf602691396001600160a01b038616600090815260686020526040902054919063ffffffff61147616565b6001600160a01b03808516600090815260686020526040808220939093559084168152205461160f908263ffffffff61111416565b6001600160a01b0380841660008181526068602090815260409182902094909455805185815290519193928716927fddf252ad1be2c89b69c2b068fc378daa952ba7f163c4a11628f55a4df523b3ef92918290030190a3505050565b60006001600160a01b0382166116b25760405162461bcd60e51b8152600401808060200182810382526022815260200180611a5e6022913960400191505060405180910390fd5b506001600160a01b03166000908152602091909152604090205460ff1690565b600043156116ec576101355443816116e657fe5b04610e7f565b50600090565b600054610100900460ff168061170b575061170b611086565b80611719575060005460ff16155b6117545760405162461bcd60e51b815260040180806020018281038252602e815260200180611a80602e913960400191505060405180910390fd5b600054610100900460ff1615801561177f576000805460ff1961ff0019909116610100171660011790555b61178882610e62565b610f1a57610f1a826113d4565b600061099883836040518060400160405280601e81526020017f536166654d6174683a207375627472616374696f6e206f766572666c6f770000815250611476565b6117e1828261166b565b15611833576040805162461bcd60e51b815260206004820152601f60248201527f526f6c65733a206163636f756e7420616c72656164792068617320726f6c6500604482015290519081900360640190fd5b6001600160a01b0316600090815260209190915260409020805460ff19166001179055565b611862828261166b565b61189d5760405162461bcd60e51b8152600401808060200182810382526021815260200180611a156021913960400191505060405180910390fd5b6001600160a01b0316600090815260209190915260409020805460ff19169055565b828054600181600116156101000203166002900490600052602060002090601f016020900481019282601f1061190057805160ff191683800117855561192d565b8280016001018555821561192d579182015b8281111561192d578251825591602001919060010190611912565b5061193992915061193d565b5090565b61085791905b80821115611939576000815560010161194356fe45524332303a207472616e7366657220746f20746865207a65726f206164647265737345524332303a206275726e20616d6f756e7420657863656564732062616c616e636545524332303a20617070726f766520746f20746865207a65726f206164647265737345524332303a207472616e7366657220616d6f756e7420657863656564732062616c616e63654d696e746572526f6c653a2063616c6c657220646f6573206e6f74206861766520746865204d696e74657220726f6c65526f6c65733a206163636f756e7420646f6573206e6f74206861766520726f6c6545524332303a207472616e7366657220616d6f756e74206578636565647320616c6c6f77616e6365526f6c65733a206163636f756e7420697320746865207a65726f2061646472657373436f6e747261637420696e7374616e63652068617320616c7265616479206265656e20696e697469616c697a656445524332303a206275726e20616d6f756e74206578636565647320616c6c6f77616e636545524332303a206275726e2066726f6d20746865207a65726f206164647265737345524332303a207472616e736665722066726f6d20746865207a65726f206164647265737345524332303a20617070726f76652066726f6d20746865207a65726f206164647265737345524332303a2064656372656173656420616c6c6f77616e63652062656c6f77207a65726fa265627a7a723158202f5f415915388938a13ab79045d193a4cb39dd61989c242bb8b61a4220faac0c64736f6c63430005110032526f6c65733a206163636f756e7420697320746865207a65726f2061646472657373436f6e747261637420696e7374616e63652068617320616c7265616479206265656e20696e697469616c697a6564",
  "source": "pragma solidity 0.5.17;\n\nimport \"./CERC20Mock.sol\";\n\ncontract CDAIMock is CERC20Mock {\n    constructor(address underlyingToken, uint256 multiplierValue)\n        public\n        CERC20Mock(\"CDAI\", \"CDAI\", CTOKEN_DECIMALS, underlyingToken, multiplierValue)\n    {}\n}\n",
  "sourcePath": "/Users/guillesalazar/Repos/ZeroCollateral/smart-contracts-v1/contracts/mock/providers/compound/CDAIMock.sol",
  "compiler": {
    "name": "solc",
    "version": "0.5.17+commit.d19bba13.Emscripten.clang"
  },
  "schemaVersion": "3.2.3",
  "updatedAt": "2020-10-12T14:23:11.548Z",
  "devdoc": {
    "methods": {
      "allowance(address,address)": {
        "details": "See {IERC20-allowance}."
      },
      "approve(address,uint256)": {
        "details": "See {IERC20-approve}.     * Requirements:     * - `spender` cannot be the zero address."
      },
      "balanceOf(address)": {
        "details": "See {IERC20-balanceOf}."
      },
      "burn(uint256)": {
        "details": "Destroys `amount` tokens from the caller.     * See {ERC20-_burn}."
      },
      "burnFrom(address,uint256)": {
        "details": "See {ERC20-_burnFrom}."
      },
      "decimals()": {
        "details": "Returns the number of decimals used to get its user representation. For example, if `decimals` equals `2`, a balance of `505` tokens should be displayed to a user as `5,05` (`505 / 10 ** 2`).     * Tokens usually opt for a value of 18, imitating the relationship between Ether and Wei.     * NOTE: This information is only used for _display_ purposes: it in no way affects any of the arithmetic of the contract, including {IERC20-balanceOf} and {IERC20-transfer}."
      },
      "decreaseAllowance(address,uint256)": {
        "details": "Atomically decreases the allowance granted to `spender` by the caller.     * This is an alternative to {approve} that can be used as a mitigation for problems described in {IERC20-approve}.     * Emits an {Approval} event indicating the updated allowance.     * Requirements:     * - `spender` cannot be the zero address. - `spender` must have allowance for the caller of at least `subtractedValue`."
      },
      "increaseAllowance(address,uint256)": {
        "details": "Atomically increases the allowance granted to `spender` by the caller.     * This is an alternative to {approve} that can be used as a mitigation for problems described in {IERC20-approve}.     * Emits an {Approval} event indicating the updated allowance.     * Requirements:     * - `spender` cannot be the zero address."
      },
      "initialize(string,string,uint8)": {
        "details": "Sets the values for `name`, `symbol`, and `decimals`. All three of these values are immutable: they can only be set once during construction."
      },
      "name()": {
        "details": "Returns the name of the token."
      },
      "symbol()": {
        "details": "Returns the symbol of the token, usually a shorter version of the name."
      },
      "totalSupply()": {
        "details": "See {IERC20-totalSupply}."
      },
      "transfer(address,uint256)": {
        "details": "See {IERC20-transfer}.     * Requirements:     * - `recipient` cannot be the zero address. - the caller must have a balance of at least `amount`."
      }
    }
  },
  "userdoc": {
    "methods": {
      "_addReserves(uint256)": {
        "notice": "* Admin Functions **"
      }
    }
  }
}