{
  "contractName": "CERC20Mock",
  "abi": [
    {
      "inputs": [
        {
          "internalType": "string",
          "name": "aName",
          "type": "string"
        },
        {
          "internalType": "string",
          "name": "aSymbol",
          "type": "string"
        },
        {
          "internalType": "uint8",
          "name": "aDecimals",
          "type": "uint8"
        },
        {
          "internalType": "address",
          "name": "underlyingToken",
          "type": "address"
        },
        {
          "internalType": "uint256",
          "name": "multiplierValue",
          "type": "uint256"
        }
      ],
      "payable": false,
      "stateMutability": "nonpayable",
      "type": "constructor"
    },
    {
      "anonymous": false,
      "inputs": [
        {
          "indexed": true,
          "internalType": "address",
          "name": "owner",
          "type": "address"
        },
        {
          "indexed": true,
          "internalType": "address",
          "name": "spender",
          "type": "address"
        },
        {
          "indexed": false,
          "internalType": "uint256",
          "name": "value",
          "type": "uint256"
        }
      ],
      "name": "Approval",
      "type": "event"
    },
    {
      "anonymous": false,
      "inputs": [
        {
          "indexed": true,
          "internalType": "address",
          "name": "account",
          "type": "address"
        }
      ],
      "name": "MinterAdded",
      "type": "event"
    },
    {
      "anonymous": false,
      "inputs": [
        {
          "indexed": true,
          "internalType": "address",
          "name": "account",
          "type": "address"
        }
      ],
      "name": "MinterRemoved",
      "type": "event"
    },
    {
      "anonymous": false,
      "inputs": [
        {
          "indexed": true,
          "internalType": "address",
          "name": "from",
          "type": "address"
        },
        {
          "indexed": true,
          "internalType": "address",
          "name": "to",
          "type": "address"
        },
        {
          "indexed": false,
          "internalType": "uint256",
          "name": "value",
          "type": "uint256"
        }
      ],
      "name": "Transfer",
      "type": "event"
    },
    {
      "constant": true,
      "inputs": [],
      "name": "CTOKEN_DECIMALS",
      "outputs": [
        {
          "internalType": "uint8",
          "name": "",
          "type": "uint8"
        }
      ],
      "payable": false,
      "stateMutability": "view",
      "type": "function"
    },
    {
      "constant": true,
      "inputs": [],
      "name": "NO_ERROR",
      "outputs": [
        {
          "internalType": "uint256",
          "name": "",
          "type": "uint256"
        }
      ],
      "payable": false,
      "stateMutability": "view",
      "type": "function"
    },
    {
      "constant": true,
      "inputs": [],
      "name": "RETURN_ERROR",
      "outputs": [
        {
          "internalType": "uint256",
          "name": "",
          "type": "uint256"
        }
      ],
      "payable": false,
      "stateMutability": "view",
      "type": "function"
    },
    {
      "constant": true,
      "inputs": [],
      "name": "SIMULATE_COMPOUND_MINT_ERROR",
      "outputs": [
        {
          "internalType": "uint256",
          "name": "",
          "type": "uint256"
        }
      ],
      "payable": false,
      "stateMutability": "view",
      "type": "function"
    },
    {
      "constant": true,
      "inputs": [],
      "name": "SIMULATE_COMPOUND_MINT_RETURN_ERROR",
      "outputs": [
        {
          "internalType": "uint256",
          "name": "",
          "type": "uint256"
        }
      ],
      "payable": false,
      "stateMutability": "view",
      "type": "function"
    },
    {
      "constant": true,
      "inputs": [],
      "name": "SIMULATE_COMPOUND_REDEEM_UNDERLYING_ERROR",
      "outputs": [
        {
          "internalType": "uint256",
          "name": "",
          "type": "uint256"
        }
      ],
      "payable": false,
      "stateMutability": "view",
      "type": "function"
    },
    {
      "constant": true,
      "inputs": [],
      "name": "SIMULATE_COMPOUND_REDEEM_UNDERLYING_RETURN_ERROR",
      "outputs": [
        {
          "internalType": "uint256",
          "name": "",
          "type": "uint256"
        }
      ],
      "payable": false,
      "stateMutability": "view",
      "type": "function"
    },
    {
      "constant": false,
      "inputs": [
        {
          "internalType": "address",
          "name": "account",
          "type": "address"
        }
      ],
      "name": "addMinter",
      "outputs": [],
      "payable": false,
      "stateMutability": "nonpayable",
      "type": "function"
    },
    {
      "constant": true,
      "inputs": [
        {
          "internalType": "address",
          "name": "owner",
          "type": "address"
        },
        {
          "internalType": "address",
          "name": "spender",
          "type": "address"
        }
      ],
      "name": "allowance",
      "outputs": [
        {
          "internalType": "uint256",
          "name": "",
          "type": "uint256"
        }
      ],
      "payable": false,
      "stateMutability": "view",
      "type": "function"
    },
    {
      "constant": false,
      "inputs": [
        {
          "internalType": "address",
          "name": "spender",
          "type": "address"
        },
        {
          "internalType": "uint256",
          "name": "amount",
          "type": "uint256"
        }
      ],
      "name": "approve",
      "outputs": [
        {
          "internalType": "bool",
          "name": "",
          "type": "bool"
        }
      ],
      "payable": false,
      "stateMutability": "nonpayable",
      "type": "function"
    },
    {
      "constant": true,
      "inputs": [
        {
          "internalType": "address",
          "name": "account",
          "type": "address"
        }
      ],
      "name": "balanceOf",
      "outputs": [
        {
          "internalType": "uint256",
          "name": "",
          "type": "uint256"
        }
      ],
      "payable": false,
      "stateMutability": "view",
      "type": "function"
    },
    {
      "constant": false,
      "inputs": [
        {
          "internalType": "uint256",
          "name": "amount",
          "type": "uint256"
        }
      ],
      "name": "burn",
      "outputs": [],
      "payable": false,
      "stateMutability": "nonpayable",
      "type": "function"
    },
    {
      "constant": false,
      "inputs": [
        {
          "internalType": "address",
          "name": "account",
          "type": "address"
        },
        {
          "internalType": "uint256",
          "name": "amount",
          "type": "uint256"
        }
      ],
      "name": "burnFrom",
      "outputs": [],
      "payable": false,
      "stateMutability": "nonpayable",
      "type": "function"
    },
    {
      "constant": true,
      "inputs": [],
      "name": "decimals",
      "outputs": [
        {
          "internalType": "uint8",
          "name": "",
          "type": "uint8"
        }
      ],
      "payable": false,
      "stateMutability": "view",
      "type": "function"
    },
    {
      "constant": false,
      "inputs": [
        {
          "internalType": "address",
          "name": "spender",
          "type": "address"
        },
        {
          "internalType": "uint256",
          "name": "subtractedValue",
          "type": "uint256"
        }
      ],
      "name": "decreaseAllowance",
      "outputs": [
        {
          "internalType": "bool",
          "name": "",
          "type": "bool"
        }
      ],
      "payable": false,
      "stateMutability": "nonpayable",
      "type": "function"
    },
    {
      "constant": false,
      "inputs": [
        {
          "internalType": "address",
          "name": "spender",
          "type": "address"
        },
        {
          "internalType": "uint256",
          "name": "addedValue",
          "type": "uint256"
        }
      ],
      "name": "increaseAllowance",
      "outputs": [
        {
          "internalType": "bool",
          "name": "",
          "type": "bool"
        }
      ],
      "payable": false,
      "stateMutability": "nonpayable",
      "type": "function"
    },
    {
      "constant": false,
      "inputs": [
        {
          "internalType": "string",
          "name": "name",
          "type": "string"
        },
        {
          "internalType": "string",
          "name": "symbol",
          "type": "string"
        },
        {
          "internalType": "uint8",
          "name": "decimals",
          "type": "uint8"
        }
      ],
      "name": "initialize",
      "outputs": [],
      "payable": false,
      "stateMutability": "nonpayable",
      "type": "function"
    },
    {
      "constant": false,
      "inputs": [
        {
          "internalType": "address",
          "name": "sender",
          "type": "address"
        }
      ],
      "name": "initialize",
      "outputs": [],
      "payable": false,
      "stateMutability": "nonpayable",
      "type": "function"
    },
    {
      "constant": true,
      "inputs": [
        {
          "internalType": "address",
          "name": "account",
          "type": "address"
        }
      ],
      "name": "isMinter",
      "outputs": [
        {
          "internalType": "bool",
          "name": "",
          "type": "bool"
        }
      ],
      "payable": false,
      "stateMutability": "view",
      "type": "function"
    },
    {
      "constant": true,
      "inputs": [],
      "name": "multiplier",
      "outputs": [
        {
          "internalType": "uint256",
          "name": "",
          "type": "uint256"
        }
      ],
      "payable": false,
      "stateMutability": "view",
      "type": "function"
    },
    {
      "constant": true,
      "inputs": [],
      "name": "name",
      "outputs": [
        {
          "internalType": "string",
          "name": "",
          "type": "string"
        }
      ],
      "payable": false,
      "stateMutability": "view",
      "type": "function"
    },
    {
      "constant": false,
      "inputs": [],
      "name": "renounceMinter",
      "outputs": [],
      "payable": false,
      "stateMutability": "nonpayable",
      "type": "function"
    },
    {
      "constant": true,
      "inputs": [],
      "name": "symbol",
      "outputs": [
        {
          "internalType": "string",
          "name": "",
          "type": "string"
        }
      ],
      "payable": false,
      "stateMutability": "view",
      "type": "function"
    },
    {
      "constant": true,
      "inputs": [],
      "name": "totalSupply",
      "outputs": [
        {
          "internalType": "uint256",
          "name": "",
          "type": "uint256"
        }
      ],
      "payable": false,
      "stateMutability": "view",
      "type": "function"
    },
    {
      "constant": false,
      "inputs": [
        {
          "internalType": "address",
          "name": "recipient",
          "type": "address"
        },
        {
          "internalType": "uint256",
          "name": "amount",
          "type": "uint256"
        }
      ],
      "name": "transfer",
      "outputs": [
        {
          "internalType": "bool",
          "name": "",
          "type": "bool"
        }
      ],
      "payable": false,
      "stateMutability": "nonpayable",
      "type": "function"
    },
    {
      "constant": false,
      "inputs": [
        {
          "internalType": "address",
          "name": "sender",
          "type": "address"
        },
        {
          "internalType": "address",
          "name": "recipient",
          "type": "address"
        },
        {
          "internalType": "uint256",
          "name": "amount",
          "type": "uint256"
        }
      ],
      "name": "transferFrom",
      "outputs": [
        {
          "internalType": "bool",
          "name": "",
          "type": "bool"
        }
      ],
      "payable": false,
      "stateMutability": "nonpayable",
      "type": "function"
    },
    {
      "constant": true,
      "inputs": [],
      "name": "underlying",
      "outputs": [
        {
          "internalType": "contract IERC20",
          "name": "",
          "type": "address"
        }
      ],
      "payable": false,
      "stateMutability": "view",
      "type": "function"
    },
    {
      "constant": false,
      "inputs": [
        {
          "internalType": "address",
          "name": "account",
          "type": "address"
        },
        {
          "internalType": "uint256",
          "name": "amount",
          "type": "uint256"
        }
      ],
      "name": "mint",
      "outputs": [
        {
          "internalType": "bool",
          "name": "",
          "type": "bool"
        }
      ],
      "payable": false,
      "stateMutability": "nonpayable",
      "type": "function"
    },
    {
      "constant": false,
      "inputs": [
        {
          "internalType": "uint256",
          "name": "mintAmount",
          "type": "uint256"
        }
      ],
      "name": "mint",
      "outputs": [
        {
          "internalType": "uint256",
          "name": "",
          "type": "uint256"
        }
      ],
      "payable": false,
      "stateMutability": "nonpayable",
      "type": "function"
    },
    {
      "constant": false,
      "inputs": [
        {
          "internalType": "uint256",
          "name": "redeemTokens",
          "type": "uint256"
        }
      ],
      "name": "redeem",
      "outputs": [
        {
          "internalType": "uint256",
          "name": "",
          "type": "uint256"
        }
      ],
      "payable": false,
      "stateMutability": "nonpayable",
      "type": "function"
    },
    {
      "constant": false,
      "inputs": [
        {
          "internalType": "uint256",
          "name": "redeemAmount",
          "type": "uint256"
        }
      ],
      "name": "redeemUnderlying",
      "outputs": [
        {
          "internalType": "uint256",
          "name": "",
          "type": "uint256"
        }
      ],
      "payable": false,
      "stateMutability": "nonpayable",
      "type": "function"
    },
    {
      "constant": false,
      "inputs": [
        {
          "internalType": "uint256",
          "name": "borrowAmount",
          "type": "uint256"
        }
      ],
      "name": "borrow",
      "outputs": [
        {
          "internalType": "uint256",
          "name": "",
          "type": "uint256"
        }
      ],
      "payable": false,
      "stateMutability": "nonpayable",
      "type": "function"
    },
    {
      "constant": false,
      "inputs": [
        {
          "internalType": "uint256",
          "name": "repayAmount",
          "type": "uint256"
        }
      ],
      "name": "repayBorrow",
      "outputs": [
        {
          "internalType": "uint256",
          "name": "",
          "type": "uint256"
        }
      ],
      "payable": false,
      "stateMutability": "nonpayable",
      "type": "function"
    },
    {
      "constant": false,
      "inputs": [
        {
          "internalType": "address",
          "name": "borrower",
          "type": "address"
        },
        {
          "internalType": "uint256",
          "name": "repayAmount",
          "type": "uint256"
        }
      ],
      "name": "repayBorrowBehalf",
      "outputs": [
        {
          "internalType": "uint256",
          "name": "",
          "type": "uint256"
        }
      ],
      "payable": false,
      "stateMutability": "nonpayable",
      "type": "function"
    },
    {
      "constant": false,
      "inputs": [
        {
          "internalType": "address",
          "name": "borrower",
          "type": "address"
        },
        {
          "internalType": "uint256",
          "name": "repayAmount",
          "type": "uint256"
        },
        {
          "internalType": "address",
          "name": "cTokenCollateral",
          "type": "address"
        }
      ],
      "name": "liquidateBorrow",
      "outputs": [
        {
          "internalType": "uint256",
          "name": "",
          "type": "uint256"
        }
      ],
      "payable": false,
      "stateMutability": "nonpayable",
      "type": "function"
    },
    {
      "constant": false,
      "inputs": [
        {
          "internalType": "uint256",
          "name": "addAmount",
          "type": "uint256"
        }
      ],
      "name": "_addReserves",
      "outputs": [
        {
          "internalType": "uint256",
          "name": "",
          "type": "uint256"
        }
      ],
      "payable": false,
      "stateMutability": "nonpayable",
      "type": "function"
    },
    {
      "constant": true,
      "inputs": [],
      "name": "exchangeRateCurrent",
      "outputs": [
        {
          "internalType": "uint256",
          "name": "",
          "type": "uint256"
        }
      ],
      "payable": false,
      "stateMutability": "view",
      "type": "function"
    },
    {
      "constant": true,
      "inputs": [
        {
          "internalType": "address",
          "name": "account",
          "type": "address"
        }
      ],
      "name": "balanceOfUnderlying",
      "outputs": [
        {
          "internalType": "uint256",
          "name": "",
          "type": "uint256"
        }
      ],
      "payable": false,
      "stateMutability": "view",
      "type": "function"
    }
  ],
  "bytecode": "0x60806040523480156200001157600080fd5b50604051620024a1380380620024a1833981810160405260a08110156200003757600080fd5b81019080805160405193929190846401000000008211156200005857600080fd5b9083019060208201858111156200006e57600080fd5b82516401000000008111828201881017156200008957600080fd5b82525081516020918201929091019080838360005b83811015620000b85781810151838201526020016200009e565b50505050905090810190601f168015620000e65780820380516001836020036101000a031916815260200191505b50604052602001805160405193929190846401000000008211156200010a57600080fd5b9083019060208201858111156200012057600080fd5b82516401000000008111828201881017156200013b57600080fd5b82525081516020918201929091019080838360005b838110156200016a57818101518382015260200162000150565b50505050905090810190601f168015620001985780820380516001836020036101000a031916815260200191505b5060409081526020828101519183015160609093015191945091925090859085908590600090620001d89085908590859062000877620002f8821b17901c565b620001ee33620003e960201b62000ec01760201c565b6200021d33620002066001600160e01b03620004b316565b60ff16600a0a83026001600160e01b03620004bd16565b505050506001600160a01b0382166200027d576040805162461bcd60e51b815260206004820152601760248201527f50524f564944455f554e4445524c5949475f544f4b454e000000000000000000604482015290519081900360640190fd5b60008111620002c8576040805162461bcd60e51b8152602060048201526012602482015271282927ab24a222afa6aaa62a24a82624a2a960711b604482015290519081900360640190fd5b61013480546001600160a01b0319166001600160a01b039390931692909217909155610135555062000901915050565b600054610100900460ff16806200031d57506200031d6001600160e01b03620005c216565b806200032c575060005460ff16155b620003695760405162461bcd60e51b815260040180806020018281038252602e81526020018062002473602e913960400191505060405180910390fd5b600054610100900460ff1615801562000395576000805460ff1961ff0019909116610100171660011790555b8351620003aa9060339060208701906200085f565b508251620003c09060349060208601906200085f565b506035805460ff191660ff84161790558015620003e3576000805461ff00191690555b50505050565b600054610100900460ff16806200040e57506200040e6001600160e01b03620005c216565b806200041d575060005460ff16155b6200045a5760405162461bcd60e51b815260040180806020018281038252602e81526020018062002473602e913960400191505060405180910390fd5b600054610100900460ff1615801562000486576000805460ff1961ff0019909116610100171660011790555b6200049c82620005c860201b6200169d1760201c565b8015620004af576000805461ff00191690555b5050565b60355460ff165b90565b6001600160a01b03821662000519576040805162461bcd60e51b815260206004820152601f60248201527f45524332303a206d696e7420746f20746865207a65726f206164647265737300604482015290519081900360640190fd5b6200053581606a546200069260201b620012ad1790919060201c565b606a556001600160a01b0382166000908152606860209081526040909120546200056a918390620012ad62000692821b17901c565b6001600160a01b03831660008181526068602090815260408083209490945583518581529351929391927fddf252ad1be2c89b69c2b068fc378daa952ba7f163c4a11628f55a4df523b3ef9281900390910190a35050565b303b1590565b600054610100900460ff1680620005ed5750620005ed6001600160e01b03620005c216565b80620005fc575060005460ff16155b620006395760405162461bcd60e51b815260040180806020018281038252602e81526020018062002473602e913960400191505060405180910390fd5b600054610100900460ff1615801562000665576000805460ff1961ff0019909116610100171660011790555b62000679826001600160e01b03620006f416565b6200049c576200049c826001600160e01b036200071716565b600082820183811015620006ed576040805162461bcd60e51b815260206004820152601b60248201527f536166654d6174683a206164646974696f6e206f766572666c6f770000000000604482015290519081900360640190fd5b9392505050565b60006200071182609d6200076960201b620016161790919060201c565b92915050565b6200073281609d620007d260201b620017821790919060201c565b6040516001600160a01b038216907f6ae172837ea30b801fbfcdd4108aa1d5bf8ff775444fd70256b44e6bf3dfc3f690600090a250565b60006001600160a01b038216620007b25760405162461bcd60e51b8152600401808060200182810382526022815260200180620024516022913960400191505060405180910390fd5b506001600160a01b03166000908152602091909152604090205460ff1690565b620007e782826001600160e01b036200076916565b156200083a576040805162461bcd60e51b815260206004820152601f60248201527f526f6c65733a206163636f756e7420616c72656164792068617320726f6c6500604482015290519081900360640190fd5b6001600160a01b0316600090815260209190915260409020805460ff19166001179055565b828054600181600116156101000203166002900490600052602060002090601f016020900481019282601f10620008a257805160ff1916838001178555620008d2565b82800160010185558215620008d2579182015b82811115620008d2578251825591602001919060010190620008b5565b50620008e0929150620008e4565b5090565b620004ba91905b80821115620008e05760008155600101620008eb565b611b4080620009116000396000f3fe608060405234801561001057600080fd5b50600436106102325760003560e01c806379cc679011610130578063aa271e1a116100b8578063dd62ed3e1161007c578063dd62ed3e14610734578063e0972e5d14610762578063ee87d86c1461076a578063f5e3c46214610772578063fac2123c146107a857610232565b8063aa271e1a146106e0578063bd6d894d14610706578063c4d66de81461070e578063c5ebeaec146102f4578063db006a75146102f457610232565b806398650275116100ff578063986502751461065b5780639df5a1f214610663578063a0712d681461066b578063a457c2d714610688578063a9059cbb146106b457610232565b806379cc6790146105e4578063852a12e31461061057806395d89b411461062d578063983b2d561461063557610232565b8063390412e7116101be57806342966c681161018257806342966c681461056d5780635244b4be1461058a57806369ab3250146105925780636f307dc31461059a57806370a08231146105be57610232565b8063390412e7146104e757806339509351146104ef5780633af9e6691461051b5780633e941010146102f457806340c10f191461054157610232565b806318160ddd1161020557806318160ddd146104575780631b3ed7221461045f57806323b872dd146104675780632608f8181461049d578063313ce567146104c957610232565b806306fdde0314610237578063095ea7b3146102b45780630e752702146102f45780631624f6c614610323575b600080fd5b61023f6107b0565b6040805160208082528351818301528351919283929083019185019080838360005b83811015610279578181015183820152602001610261565b50505050905090810190601f1680156102a65780820380516001836020036101000a031916815260200191505b509250505060405180910390f35b6102e0600480360360408110156102ca57600080fd5b506001600160a01b038135169060200135610847565b604080519115158252519081900360200190f35b6103116004803603602081101561030a57600080fd5b5035610864565b60408051918252519081900360200190f35b6104556004803603606081101561033957600080fd5b81019060208101813564010000000081111561035457600080fd5b82018360208201111561036657600080fd5b8035906020019184600183028401116401000000008311171561038857600080fd5b91908080601f01602080910402602001604051908101604052809392919081815260200183838082843760009201919091525092959493602081019350359150506401000000008111156103db57600080fd5b8201836020820111156103ed57600080fd5b8035906020019184600183028401116401000000008311171561040f57600080fd5b91908080601f0160208091040260200160405190810160405280939291908181526020018383808284376000920191909152509295505050903560ff1691506108779050565b005b610311610953565b610311610959565b6102e06004803603606081101561047d57600080fd5b506001600160a01b03813581169160208101359091169060400135610960565b610311600480360360408110156104b357600080fd5b506001600160a01b0381351690602001356109ed565b6104d1610a00565b6040805160ff9092168252519081900360200190f35b610311610a09565b6102e06004803603604081101561050557600080fd5b506001600160a01b038135169060200135610a11565b6103116004803603602081101561053157600080fd5b50356001600160a01b0316610a65565b6102e06004803603604081101561055757600080fd5b506001600160a01b038135169060200135610a76565b6104556004803603602081101561058357600080fd5b5035610a82565b610311610a96565b610311610a9c565b6105a2610aa1565b604080516001600160a01b039092168252519081900360200190f35b610311600480360360208110156105d457600080fd5b50356001600160a01b0316610ab1565b610455600480360360408110156105fa57600080fd5b506001600160a01b038135169060200135610acc565b6103116004803603602081101561062657600080fd5b5035610ada565b61023f610c40565b6104556004803603602081101561064b57600080fd5b50356001600160a01b0316610ca1565b610455610cf5565b6104d1610d07565b6103116004803603602081101561068157600080fd5b5035610d0c565b6102e06004803603604081101561069e57600080fd5b506001600160a01b038135169060200135610e1c565b6102e0600480360360408110156106ca57600080fd5b506001600160a01b038135169060200135610e8a565b6102e0600480360360208110156106f657600080fd5b50356001600160a01b0316610e9e565b610311610eb1565b6104556004803603602081101561072457600080fd5b50356001600160a01b0316610ec0565b6103116004803603604081101561074a57600080fd5b506001600160a01b0381358116916020013516610f6b565b610311610f96565b610311610f9e565b6103116004803603606081101561078857600080fd5b506001600160a01b03813581169160208101359160409091013516610fa6565b610311610fba565b60338054604080516020601f600260001961010060018816150201909516949094049384018190048102820181019092528281526060939092909183018282801561083c5780601f106108115761010080835404028352916020019161083c565b820191906000526020600020905b81548152906001019060200180831161081f57829003601f168201915b505050505090505b90565b600061085b610854610fc2565b8484610fc6565b50600192915050565b600061086e610d05565b5060005b919050565b600054610100900460ff168061089057506108906110b2565b8061089e575060005460ff16155b6108d95760405162461bcd60e51b815260040180806020018281038252602e815260200180611a2b602e913960400191505060405180910390fd5b600054610100900460ff16158015610904576000805460ff1961ff0019909116610100171660011790555b835161091790603390602087019061186a565b50825161092b90603490602086019061186a565b506035805460ff191660ff8416179055801561094d576000805461ff00191690555b50505050565b606a5490565b6101355481565b600061096d8484846110b8565b6109e384610979610fc2565b6109de856040518060600160405280602881526020016119e1602891396001600160a01b038a166000908152606960205260408120906109b7610fc2565b6001600160a01b03168152602081019190915260400160002054919063ffffffff61121616565b610fc6565b5060019392505050565b60006109f7610d05565b50600092915050565b60355460ff1690565b63034fb5e381565b600061085b610a1e610fc2565b846109de8560696000610a2f610fc2565b6001600160a01b03908116825260208083019390935260409182016000908120918c16815292529020549063ffffffff6112ad16565b6000610a7082610ab1565b92915050565b600061085b838361130e565b610a93610a8d610fc2565b82611400565b50565b61270f81565b600081565b610134546001600160a01b031681565b6001600160a01b031660009081526068602052604090205490565b610ad682826114fc565b5050565b60008163034fb5e31415610aed57600191505b6000610af883611550565b9050610b043382610e8a565b610b55576040805162461bcd60e51b815260206004820152601a60248201527f554e4445524c59494e475f5452414e534645525f4641494c4544000000000000604482015290519081900360640190fd5b610b5e83610a82565b61013454604080516340c10f1960e01b81523360048201526024810186905290516001600160a01b03909216916340c10f19916044808201926020929091908290030181600087803b158015610bb357600080fd5b505af1158015610bc7573d6000803e3d6000fd5b505050506040513d6020811015610bdd57600080fd5b5051610c29576040805162461bcd60e51b815260206004820152601660248201527515539111549316525391d7d352539517d1905253115160521b604482015290519081900360640190fd5b826303f940aa14156109f75761270f915050610872565b60348054604080516020601f600260001961010060018816150201909516949094049384018190048102820181019092528281526060939092909183018282801561083c5780601f106108115761010080835404028352916020019161083c565b610cb1610cac610fc2565b610e9e565b610cec5760405162461bcd60e51b81526004018080602001828103825260308152602001806119906030913960400191505060405180910390fd5b610a9381611574565b610d05610d00610fc2565b6115bc565b565b600881565b6000816304a2cb711415610d1f57600191505b6000610d2a83611604565b61013454604080516323b872dd60e01b81523360048201523060248201526044810187905290519293506001600160a01b03909116916323b872dd916064808201926020929091908290030181600087803b158015610d8857600080fd5b505af1158015610d9c573d6000803e3d6000fd5b505050506040513d6020811015610db257600080fd5b50610dbf90503382610a76565b610e05576040805162461bcd60e51b815260206004820152601260248201527110d513d2d15397d352539517d1905253115160721b604482015290519081900360640190fd5b8263054c563814156109f75761270f915050610872565b600061085b610e29610fc2565b846109de85604051806060016040528060258152602001611ae76025913960696000610e53610fc2565b6001600160a01b03908116825260208083019390935260409182016000908120918d1681529252902054919063ffffffff61121616565b600061085b610e97610fc2565b84846110b8565b6000610a70609d8363ffffffff61161616565b6000610ebb61167d565b905090565b600054610100900460ff1680610ed95750610ed96110b2565b80610ee7575060005460ff16155b610f225760405162461bcd60e51b815260040180806020018281038252602e815260200180611a2b602e913960400191505060405180910390fd5b600054610100900460ff16158015610f4d576000805460ff1961ff0019909116610100171660011790555b610f568261169d565b8015610ad6576000805461ff00191690555050565b6001600160a01b03918216600090815260696020908152604080832093909416825291909152205490565b6304a2cb7181565b63054c563881565b6000610fb0610d05565b5060009392505050565b6303f940aa81565b3390565b6001600160a01b03831661100b5760405162461bcd60e51b8152600401808060200182810382526024815260200180611ac36024913960400191505060405180910390fd5b6001600160a01b0382166110505760405162461bcd60e51b81526004018080602001828103825260228152602001806119486022913960400191505060405180910390fd5b6001600160a01b03808416600081815260696020908152604080832094871680845294825291829020859055815185815291517f8c5be1e5ebec7d5bd14f71427d1e84f3dd0314c0f7b2291e5b200ac8c7c3b9259281900390910190a3505050565b303b1590565b6001600160a01b0383166110fd5760405162461bcd60e51b8152600401808060200182810382526025815260200180611a9e6025913960400191505060405180910390fd5b6001600160a01b0382166111425760405162461bcd60e51b81526004018080602001828103825260238152602001806119036023913960400191505060405180910390fd5b6111858160405180606001604052806026815260200161196a602691396001600160a01b038616600090815260686020526040902054919063ffffffff61121616565b6001600160a01b0380851660009081526068602052604080822093909355908416815220546111ba908263ffffffff6112ad16565b6001600160a01b0380841660008181526068602090815260409182902094909455805185815290519193928716927fddf252ad1be2c89b69c2b068fc378daa952ba7f163c4a11628f55a4df523b3ef92918290030190a3505050565b600081848411156112a55760405162461bcd60e51b81526004018080602001828103825283818151815260200191508051906020019080838360005b8381101561126a578181015183820152602001611252565b50505050905090810190601f1680156112975780820380516001836020036101000a031916815260200191505b509250505060405180910390fd5b505050900390565b600082820183811015611307576040805162461bcd60e51b815260206004820152601b60248201527f536166654d6174683a206164646974696f6e206f766572666c6f770000000000604482015290519081900360640190fd5b9392505050565b6001600160a01b038216611369576040805162461bcd60e51b815260206004820152601f60248201527f45524332303a206d696e7420746f20746865207a65726f206164647265737300604482015290519081900360640190fd5b606a5461137c908263ffffffff6112ad16565b606a556001600160a01b0382166000908152606860205260409020546113a8908263ffffffff6112ad16565b6001600160a01b03831660008181526068602090815260408083209490945583518581529351929391927fddf252ad1be2c89b69c2b068fc378daa952ba7f163c4a11628f55a4df523b3ef9281900390910190a35050565b6001600160a01b0382166114455760405162461bcd60e51b8152600401808060200182810382526021815260200180611a7d6021913960400191505060405180910390fd5b61148881604051806060016040528060228152602001611926602291396001600160a01b038516600090815260686020526040902054919063ffffffff61121616565b6001600160a01b038316600090815260686020526040902055606a546114b4908263ffffffff61174016565b606a556040805182815290516000916001600160a01b038516917fddf252ad1be2c89b69c2b068fc378daa952ba7f163c4a11628f55a4df523b3ef9181900360200190a35050565b6115068282611400565b610ad682611512610fc2565b6109de84604051806060016040528060248152602001611a59602491396001600160a01b0388166000908152606960205260408120906109b7610fc2565b60008061155b61167d565b905080156109f75780838161156c57fe5b049392505050565b611585609d8263ffffffff61178216565b6040516001600160a01b038216907f6ae172837ea30b801fbfcdd4108aa1d5bf8ff775444fd70256b44e6bf3dfc3f690600090a250565b6115cd609d8263ffffffff61180316565b6040516001600160a01b038216907fe94479a9f7e1952cc78f2d6baab678adc1b772d936c6583def489e524cb6669290600090a250565b60008161160f61167d565b0292915050565b60006001600160a01b03821661165d5760405162461bcd60e51b8152600401808060200182810382526022815260200180611a096022913960400191505060405180910390fd5b506001600160a01b03166000908152602091909152604090205460ff1690565b600043156116975761013554438161169157fe5b04610ebb565b50600090565b600054610100900460ff16806116b657506116b66110b2565b806116c4575060005460ff16155b6116ff5760405162461bcd60e51b815260040180806020018281038252602e815260200180611a2b602e913960400191505060405180910390fd5b600054610100900460ff1615801561172a576000805460ff1961ff0019909116610100171660011790555b61173382610e9e565b610f5657610f5682611574565b600061130783836040518060400160405280601e81526020017f536166654d6174683a207375627472616374696f6e206f766572666c6f770000815250611216565b61178c8282611616565b156117de576040805162461bcd60e51b815260206004820152601f60248201527f526f6c65733a206163636f756e7420616c72656164792068617320726f6c6500604482015290519081900360640190fd5b6001600160a01b0316600090815260209190915260409020805460ff19166001179055565b61180d8282611616565b6118485760405162461bcd60e51b81526004018080602001828103825260218152602001806119c06021913960400191505060405180910390fd5b6001600160a01b0316600090815260209190915260409020805460ff19169055565b828054600181600116156101000203166002900490600052602060002090601f016020900481019282601f106118ab57805160ff19168380011785556118d8565b828001600101855582156118d8579182015b828111156118d85782518255916020019190600101906118bd565b506118e49291506118e8565b5090565b61084491905b808211156118e457600081556001016118ee56fe45524332303a207472616e7366657220746f20746865207a65726f206164647265737345524332303a206275726e20616d6f756e7420657863656564732062616c616e636545524332303a20617070726f766520746f20746865207a65726f206164647265737345524332303a207472616e7366657220616d6f756e7420657863656564732062616c616e63654d696e746572526f6c653a2063616c6c657220646f6573206e6f74206861766520746865204d696e74657220726f6c65526f6c65733a206163636f756e7420646f6573206e6f74206861766520726f6c6545524332303a207472616e7366657220616d6f756e74206578636565647320616c6c6f77616e6365526f6c65733a206163636f756e7420697320746865207a65726f2061646472657373436f6e747261637420696e7374616e63652068617320616c7265616479206265656e20696e697469616c697a656445524332303a206275726e20616d6f756e74206578636565647320616c6c6f77616e636545524332303a206275726e2066726f6d20746865207a65726f206164647265737345524332303a207472616e736665722066726f6d20746865207a65726f206164647265737345524332303a20617070726f76652066726f6d20746865207a65726f206164647265737345524332303a2064656372656173656420616c6c6f77616e63652062656c6f77207a65726fa265627a7a72315820d2968e23504c121871749a5b4a9d8b2bdcaacc2df8c692c72ee589df6ecdb1ed64736f6c63430005110032526f6c65733a206163636f756e7420697320746865207a65726f2061646472657373436f6e747261637420696e7374616e63652068617320616c7265616479206265656e20696e697469616c697a6564",
  "source": "pragma solidity 0.5.17;\n\nimport \"../../token/ERC20Mock.sol\";\n\ncontract CERC20Mock is ERC20Mock {\n    uint8 public constant CTOKEN_DECIMALS = 8;\n    uint256 public constant NO_ERROR = 0;\n    uint256 public constant RETURN_ERROR = 9999;\n    uint256 public constant SIMULATE_COMPOUND_MINT_RETURN_ERROR = 88888888;\n    uint256 public constant SIMULATE_COMPOUND_MINT_ERROR = 77777777;\n    uint256 public constant SIMULATE_COMPOUND_REDEEM_UNDERLYING_RETURN_ERROR = 66666666;\n    uint256 public constant SIMULATE_COMPOUND_REDEEM_UNDERLYING_ERROR = 55555555;\n\n    IERC20 public underlying;\n    uint256 public multiplier;\n\n    constructor(\n        string memory aName,\n        string memory aSymbol,\n        uint8 aDecimals,\n        address underlyingToken,\n        uint256 multiplierValue\n    ) public ERC20Mock(aName, aSymbol, aDecimals, 0) {\n        require(underlyingToken != address(0x0), \"PROVIDE_UNDERLYIG_TOKEN\");\n        require(multiplierValue > 0, \"PROVIDE_MULTIPLIER\");\n        underlying = IERC20(underlyingToken);\n        multiplier = multiplierValue;\n    }\n\n    function mint(uint256 mintAmount) external returns (uint256) {\n        if (SIMULATE_COMPOUND_MINT_ERROR == mintAmount) {\n            mintAmount = 1;\n        }\n        uint256 cAmount = _getCTokensAmount(mintAmount);\n        underlying.transferFrom(msg.sender, address(this), mintAmount);\n        require(super.mint(msg.sender, cAmount), \"CTOKEN_MINT_FAILED\");\n        if (SIMULATE_COMPOUND_MINT_RETURN_ERROR == mintAmount) {\n            return RETURN_ERROR;\n        }\n        return NO_ERROR;\n    }\n\n    function redeem(uint256 redeemTokens) external returns (uint256) {\n        underlying;\n        redeemTokens;\n        _mockChange();\n        return NO_ERROR;\n    }\n\n    // https://compound.finance/docs/ctokens#redeem-underlying\n    function redeemUnderlying(uint256 redeemAmount) external returns (uint256) {\n        if (SIMULATE_COMPOUND_REDEEM_UNDERLYING_ERROR == redeemAmount) {\n            redeemAmount = 1;\n        }\n        uint256 tokenAmount = _getTokensAmount(redeemAmount);\n        require(super.transfer(msg.sender, tokenAmount), \"UNDERLYING_TRANSFER_FAILED\");\n        super.burn(redeemAmount);\n        require(\n            ((ERC20Mock(address(underlying))).mint(msg.sender, redeemAmount)),\n            \"UNDERLYING_MINT_FAILED\"\n        );\n        if (SIMULATE_COMPOUND_REDEEM_UNDERLYING_RETURN_ERROR == redeemAmount) {\n            return RETURN_ERROR;\n        }\n        return NO_ERROR;\n    }\n\n    function borrow(uint256 borrowAmount) external returns (uint256) {\n        underlying;\n        borrowAmount;\n        _mockChange();\n        return NO_ERROR;\n    }\n\n    function repayBorrow(uint256 repayAmount) external returns (uint256) {\n        underlying;\n        repayAmount;\n        _mockChange();\n        return NO_ERROR;\n    }\n\n    function repayBorrowBehalf(address borrower, uint256 repayAmount)\n        external\n        returns (uint256)\n    {\n        underlying;\n        borrower;\n        repayAmount;\n        _mockChange();\n        return NO_ERROR;\n    }\n\n    function liquidateBorrow(\n        address borrower,\n        uint256 repayAmount,\n        address cTokenCollateral\n    ) external returns (uint256) {\n        underlying;\n        borrower;\n        repayAmount;\n        cTokenCollateral;\n        _mockChange();\n        return NO_ERROR;\n    }\n\n    /*** Admin Functions ***/\n\n    function _addReserves(uint256 addAmount) external returns (uint256) {\n        underlying;\n        addAmount;\n        _mockChange();\n        return NO_ERROR;\n    }\n\n    function _getCTokensAmount(uint256 tokenAmount) internal view returns (uint256) {\n        return _exchangeRateCurrent() * tokenAmount;\n    }\n\n    function _getTokensAmount(uint256 cTokenAmount) internal view returns (uint256) {\n        uint256 exchangeRateCurrent = _exchangeRateCurrent();\n        return exchangeRateCurrent == 0 ? 0 : cTokenAmount / exchangeRateCurrent;\n    }\n\n    function _mockChange() internal {}\n\n    function exchangeRateCurrent() external view returns (uint256) {\n        return _exchangeRateCurrent();\n    }\n\n    function _exchangeRateCurrent() internal view returns (uint256) {\n        return block.number == 0 ? 0 : block.number / multiplier;\n    }\n\n    function balanceOfUnderlying(address account) external view returns (uint256) {\n        return balanceOf(account);\n    }\n}\n",
  "sourcePath": "/Users/sy/Documents/GitHub/teller-protocol-v1/contracts/mock/providers/compound/CERC20Mock.sol",
  "compiler": {
    "name": "solc",
    "version": "0.5.17+commit.d19bba13.Emscripten.clang"
  },
  "schemaVersion": "3.0.23",
  "updatedAt": "2020-09-06T02:15:12.526Z",
  "devdoc": {
    "methods": {
      "allowance(address,address)": {
        "details": "See {IERC20-allowance}."
      },
      "approve(address,uint256)": {
        "details": "See {IERC20-approve}.     * Requirements:     * - `spender` cannot be the zero address."
      },
      "balanceOf(address)": {
        "details": "See {IERC20-balanceOf}."
      },
      "burn(uint256)": {
        "details": "Destroys `amount` tokens from the caller.     * See {ERC20-_burn}."
      },
      "burnFrom(address,uint256)": {
        "details": "See {ERC20-_burnFrom}."
      },
      "decimals()": {
        "details": "Returns the number of decimals used to get its user representation. For example, if `decimals` equals `2`, a balance of `505` tokens should be displayed to a user as `5,05` (`505 / 10 ** 2`).     * Tokens usually opt for a value of 18, imitating the relationship between Ether and Wei.     * NOTE: This information is only used for _display_ purposes: it in no way affects any of the arithmetic of the contract, including {IERC20-balanceOf} and {IERC20-transfer}."
      },
      "decreaseAllowance(address,uint256)": {
        "details": "Atomically decreases the allowance granted to `spender` by the caller.     * This is an alternative to {approve} that can be used as a mitigation for problems described in {IERC20-approve}.     * Emits an {Approval} event indicating the updated allowance.     * Requirements:     * - `spender` cannot be the zero address. - `spender` must have allowance for the caller of at least `subtractedValue`."
      },
      "increaseAllowance(address,uint256)": {
        "details": "Atomically increases the allowance granted to `spender` by the caller.     * This is an alternative to {approve} that can be used as a mitigation for problems described in {IERC20-approve}.     * Emits an {Approval} event indicating the updated allowance.     * Requirements:     * - `spender` cannot be the zero address."
      },
      "initialize(string,string,uint8)": {
        "details": "Sets the values for `name`, `symbol`, and `decimals`. All three of these values are immutable: they can only be set once during construction."
      },
      "name()": {
        "details": "Returns the name of the token."
      },
      "symbol()": {
        "details": "Returns the symbol of the token, usually a shorter version of the name."
      },
      "totalSupply()": {
        "details": "See {IERC20-totalSupply}."
      },
      "transfer(address,uint256)": {
        "details": "See {IERC20-transfer}.     * Requirements:     * - `recipient` cannot be the zero address. - the caller must have a balance of at least `amount`."
      },
      "transferFrom(address,address,uint256)": {
        "details": "See {IERC20-transferFrom}.     * Emits an {Approval} event indicating the updated allowance. This is not required by the EIP. See the note at the beginning of {ERC20};     * Requirements: - `sender` and `recipient` cannot be the zero address. - `sender` must have a balance of at least `amount`. - the caller must have allowance for `sender`'s tokens of at least `amount`."
      }
    }
  },
  "userdoc": {
    "methods": {
      "_addReserves(uint256)": {
        "notice": "* Admin Functions **"
      }
    }
  }
}