{
  "contractName": "ChainlinkPairAggregator",
  "abi": [
    {
      "constant": true,
      "inputs": [],
      "name": "aggregator",
      "outputs": [
        {
          "internalType": "contract AggregatorInterface",
          "name": "",
          "type": "address"
        }
      ],
      "payable": false,
      "stateMutability": "view",
      "type": "function"
    },
    {
      "constant": true,
      "inputs": [],
      "name": "collateralDecimals",
      "outputs": [
        {
          "internalType": "uint8",
          "name": "",
          "type": "uint8"
        }
      ],
      "payable": false,
      "stateMutability": "view",
      "type": "function"
    },
    {
      "constant": true,
      "inputs": [],
      "name": "initialized",
      "outputs": [
        {
          "internalType": "bool",
          "name": "value",
          "type": "bool"
        }
      ],
      "payable": false,
      "stateMutability": "view",
      "type": "function"
    },
    {
      "constant": true,
      "inputs": [],
      "name": "inverse",
      "outputs": [
        {
          "internalType": "bool",
          "name": "",
          "type": "bool"
        }
      ],
      "payable": false,
      "stateMutability": "view",
      "type": "function"
    },
    {
      "constant": true,
      "inputs": [],
      "name": "pendingDecimals",
      "outputs": [
        {
          "internalType": "uint8",
          "name": "",
          "type": "uint8"
        }
      ],
      "payable": false,
      "stateMutability": "view",
      "type": "function"
    },
    {
      "constant": true,
      "inputs": [],
      "name": "responseDecimals",
      "outputs": [
        {
          "internalType": "uint8",
          "name": "",
          "type": "uint8"
        }
      ],
      "payable": false,
      "stateMutability": "view",
      "type": "function"
    },
    {
      "constant": true,
      "inputs": [],
      "name": "getLatestAnswer",
      "outputs": [
        {
          "internalType": "int256",
          "name": "",
          "type": "int256"
        }
      ],
      "payable": false,
      "stateMutability": "view",
      "type": "function"
    },
    {
      "constant": true,
      "inputs": [
        {
          "internalType": "uint256",
          "name": "roundsBack",
          "type": "uint256"
        }
      ],
      "name": "getPreviousAnswer",
      "outputs": [
        {
          "internalType": "int256",
          "name": "",
          "type": "int256"
        }
      ],
      "payable": false,
      "stateMutability": "view",
      "type": "function"
    },
    {
      "constant": true,
      "inputs": [],
      "name": "getLatestTimestamp",
      "outputs": [
        {
          "internalType": "uint256",
          "name": "",
          "type": "uint256"
        }
      ],
      "payable": false,
      "stateMutability": "view",
      "type": "function"
    },
    {
      "constant": true,
      "inputs": [],
      "name": "getLatestRound",
      "outputs": [
        {
          "internalType": "uint256",
          "name": "",
          "type": "uint256"
        }
      ],
      "payable": false,
      "stateMutability": "view",
      "type": "function"
    },
    {
      "constant": true,
      "inputs": [
        {
          "internalType": "uint256",
          "name": "roundsBack",
          "type": "uint256"
        }
      ],
      "name": "getPreviousTimestamp",
      "outputs": [
        {
          "internalType": "uint256",
          "name": "",
          "type": "uint256"
        }
      ],
      "payable": false,
      "stateMutability": "view",
      "type": "function"
    },
    {
      "constant": false,
      "inputs": [
        {
          "internalType": "address",
          "name": "aggregatorAddress",
          "type": "address"
        },
        {
          "internalType": "bool",
          "name": "isInverse",
          "type": "bool"
        },
        {
          "internalType": "uint8",
          "name": "responseDecimalsValue",
          "type": "uint8"
        },
        {
          "internalType": "uint8",
          "name": "collateralDecimalsValue",
          "type": "uint8"
        }
      ],
      "name": "initialize",
      "outputs": [],
      "payable": false,
      "stateMutability": "nonpayable",
      "type": "function"
    },
    {
      "constant": true,
      "inputs": [],
      "name": "getInfo",
      "outputs": [
        {
          "internalType": "uint8",
          "name": "response",
          "type": "uint8"
        },
        {
          "internalType": "uint8",
          "name": "collateral",
          "type": "uint8"
        },
        {
          "internalType": "uint8",
          "name": "pending",
          "type": "uint8"
        },
        {
          "internalType": "bool",
          "name": "isInverse",
          "type": "bool"
        }
      ],
      "payable": false,
      "stateMutability": "view",
      "type": "function"
    }
  ],
  "bytecode": "0x608060405234801561001057600080fd5b50610b80806100206000396000f3fe608060405234801561001057600080fd5b50600436106100cf5760003560e01c8063490e93b31161008c57806396237c021161006657806396237c02146101f1578063d8d7e950146101f9578063ec9c6c3014610216578063f43b52cb1461021e576100cf565b8063490e93b3146101aa5780635a9b0b89146101b2578063708fe4df146101e9576100cf565b806303892125146100d4578063117190dd14610103578063158ef93e14610121578063245a7bfc1461013d5780632e6536a81461016157806341650360146101a2575b600080fd5b6100f1600480360360208110156100ea57600080fd5b5035610226565b60408051918252519081900360200190f35b61010b610365565b6040805160ff9092168252519081900360200190f35b610129610375565b604080519115158252519081900360200190f35b6101456103ab565b604080516001600160a01b039092168252519081900360200190f35b6101a06004803603608081101561017757600080fd5b506001600160a01b0381351690602081013515159060ff604082013581169160600135166103ba565b005b6101296105ad565b61010b6105bd565b6101ba6105cd565b6040805160ff958616815293851660208501529190931682820152911515606082015290519081900360800190f35b6100f16105fc565b6100f161067c565b6100f16004803603602081101561020f57600080fd5b50356106fe565b61010b61071c565b6100f161072c565b6000805460408051633345078160e11b8152905183926001600160a01b03169163668a0f02916004808301926020929190829003018186803b15801561026b57600080fd5b505afa15801561027f573d6000803e3d6000fd5b505050506040513d602081101561029557600080fd5b50519050808311156102e3576040805162461bcd60e51b81526020600482015260126024820152714e4f545f454e4f5547485f484953544f525960701b604482015290519081900360640190fd5b60005460408051632d8cd88360e21b8152858403600482015290516001600160a01b039092169163b633620c91602480820192602092909190829003018186803b15801561033057600080fd5b505afa158015610344573d6000803e3d6000fd5b505050506040513d602081101561035a57600080fd5b50519150505b919050565b600054600160a01b900460ff1681565b604080517f54496e697469616c697a61626c652e6973496e697469616c697a6564000000008152905190819003601c0190205490565b6000546001600160a01b031681565b6103c2610375565b15610414576040805162461bcd60e51b815260206004820152601c60248201527f434f4e54524143545f414c52454144595f494e495449414c495a454400000000604482015290519081900360640190fd5b610426846001600160a01b031661077b565b610477576040805162461bcd60e51b815260206004820152601760248201527f41474752454741544f525f4e4f545f434f4e5452414354000000000000000000604482015290519081900360640190fd5b61047f6107b7565b6000805460ff60b81b1916600160b81b85151502176001600160a01b0319166001600160a01b0386161760ff60a01b1916600160a01b60ff85811682029290921760ff60a81b1916600160a81b85841681029190911793849055908304821692041610610517576000805460ff600160a01b82048116600160a81b830482160316600160b01b0260ff60b01b19909116179055610544565b6000805460ff600160a81b82048116600160a01b830482160316600160b01b0260ff60b01b199091161790555b6000546032600160b01b90910460ff1611156105a7576040805162461bcd60e51b815260206004820152601d60248201527f4d41585f50454e44494e475f444543494d414c535f4558434545444544000000604482015290519081900360640190fd5b50505050565b600054600160b81b900460ff1681565b600054600160b01b900460ff1681565b60005460ff600160a01b8204811692600160a81b8304821692600160b01b8104831692600160b81b9091041690565b60008060009054906101000a90046001600160a01b03166001600160a01b031663668a0f026040518163ffffffff1660e01b815260040160206040518083038186803b15801561064b57600080fd5b505afa15801561065f573d6000803e3d6000fd5b505050506040513d602081101561067557600080fd5b5051905090565b60008054604080516350d25bcd60e01b8152905183926001600160a01b0316916350d25bcd916004808301926020929190829003018186803b1580156106c157600080fd5b505afa1580156106d5573d6000803e3d6000fd5b505050506040513d60208110156106eb57600080fd5b505190506106f8816107ef565b91505090565b60008061070a8361088f565b9050610715816107ef565b9392505050565b600054600160a81b900460ff1681565b60008060009054906101000a90046001600160a01b03166001600160a01b0316638205bf6a6040518163ffffffff1660e01b815260040160206040518083038186803b15801561064b57600080fd5b6000813f7fc5d2460186f7233c927e7db2dcc703c0e500b653ca82273b7bfad8045d85a4708181148015906107af57508115155b949350505050565b604080517f54496e697469616c697a61626c652e6973496e697469616c697a6564000000008152905190819003601c01902060019055565b60008054600160b81b900460ff1615610836576000548290600160a81b810460ff908116600a90810a600160a01b90930491909116900a028161082e57fe5b059050610360565b60005460ff600160a01b82048116600160a81b90920416106108745760005461086d908390600160b01b900460ff16600a0a610999565b9050610360565b60005461086d908390600160b01b900460ff16600a0a610a4b565b6000805460408051633345078160e11b8152905183926001600160a01b03169163668a0f02916004808301926020929190829003018186803b1580156108d457600080fd5b505afa1580156108e8573d6000803e3d6000fd5b505050506040513d60208110156108fe57600080fd5b505190508083111561094c576040805162461bcd60e51b81526020600482015260126024820152714e4f545f454e4f5547485f484953544f525960701b604482015290519081900360640190fd5b60005460408051632d6ad63760e21b8152858403600482015290516001600160a01b039092169163b5ab58dc91602480820192602092909190829003018186803b15801561033057600080fd5b6000826109a857506000610a45565b826000191480156109bc5750600160ff1b82145b156109f85760405162461bcd60e51b8152600401808060200182810382526027815260200180610b256027913960400191505060405180910390fd5b82820282848281610a0557fe5b0514610a425760405162461bcd60e51b8152600401808060200182810382526027815260200180610b256027913960400191505060405180910390fd5b90505b92915050565b600081610a9f576040805162461bcd60e51b815260206004820181905260248201527f5369676e6564536166654d6174683a206469766973696f6e206279207a65726f604482015290519081900360640190fd5b81600019148015610ab35750600160ff1b83145b15610aef5760405162461bcd60e51b8152600401808060200182810382526021815260200180610b046021913960400191505060405180910390fd5b6000828481610afa57fe5b0594935050505056fe5369676e6564536166654d6174683a206469766973696f6e206f766572666c6f775369676e6564536166654d6174683a206d756c7469706c69636174696f6e206f766572666c6f77a265627a7a72315820427f68ccfafce13d105cd666968e27a0945856b7c4c3bb1b1a29c4db1d08e28764736f6c63430005110032",
  "source": "pragma solidity 0.5.17;\n\n// Externals\nimport \"@chainlink/contracts/src/v0.5/interfaces/AggregatorInterface.sol\";\n\n// Interfaces\nimport \"../../interfaces/PairAggregatorInterface.sol\";\n\n// Contracts\nimport \"../../base/TInitializable.sol\";\n\n// Libraries\nimport \"@openzeppelin/contracts-ethereum-package/contracts/math/SafeMath.sol\";\nimport \"@openzeppelin/contracts-ethereum-package/contracts/utils/Address.sol\";\nimport \"../openzeppelin/SignedSafeMath.sol\";\n\n/**\n    @notice This is a Chainlink Oracle wrapper implementation. It uses the AggregatorInterface from Chainlink to get data.\n\n    @author develop@teller.finance\n */\ncontract ChainlinkPairAggregator is PairAggregatorInterface, TInitializable {\n    using SafeMath for uint256;\n    using SignedSafeMath for int256;\n    using Address for address;\n\n    uint256 internal constant TEN = 10;\n    uint256 internal constant MAX_POWER_VALUE = 50;\n\n    /**\n        @notice It represents the Chainlink oracle reference used in this pair aggregator instance.\n     */\n    AggregatorInterface public aggregator;\n    /**\n        @notice It represents the decimals included in the Chainlink oracle responses.\n     */\n    uint8 public responseDecimals;\n    /**\n        @notice It represents the decimals in the collateral token used in this pair aggregator.\n     */\n    uint8 public collateralDecimals;\n    /**\n        @notice It represents the difference between reponseDecimals and collateralDecimals.\n        @notice It is used to normalize the amounts.\n     */\n    uint8 public pendingDecimals;\n    /**\n        @notice It defines if this pair aggregator is inverse or not.\n        @dev It is used when Chainlink doesn't support a given market, but they support the inverse one.\n        @dev Example:\n            Not supported:  DAI / LINK\n            Supported:      LINK / DAI.\n            In this case, despite Chainlink doesn't support the  DAI / LINK oracle, we use the LINK / DAI one and make the inverse calculation.\n     */\n    bool public inverse;\n\n    /** External Functions */\n\n    /**\n        @notice Gets the current answer from the Chainlink aggregator oracle.\n        @return a normalized response value.\n     */\n    function getLatestAnswer() external view returns (int256) {\n        int256 latestAnswerInverted = aggregator.latestAnswer();\n        return _normalizeResponse(latestAnswerInverted);\n    }\n\n    /**\n        @notice Gets the past round answer from the Chainlink aggregator oracle.\n        @param roundsBack the answer number to retrieve the answer for\n        @return a normalized response value.\n     */\n    function getPreviousAnswer(uint256 roundsBack) external view returns (int256) {\n        int256 answer = _getPreviousAnswer(roundsBack);\n        return _normalizeResponse(answer);\n    }\n\n    /**\n        @notice Gets the last updated height from the aggregator.\n        @return the latest timestamp.\n     */\n    function getLatestTimestamp() external view returns (uint256) {\n        return aggregator.latestTimestamp();\n    }\n\n    /**\n        @notice Gets the latest completed round where the answer was updated.\n        @return the latest round id.\n    */\n    function getLatestRound() external view returns (uint256) {\n        return aggregator.latestRound();\n    }\n\n    /**\n        @notice Gets block timestamp when an answer was last updated\n        @param roundsBack the answer number to retrieve the updated timestamp for\n        @return the previous timestamp.\n     */\n    function getPreviousTimestamp(uint256 roundsBack) external view returns (uint256) {\n        uint256 latest = aggregator.latestRound();\n        require(roundsBack <= latest, \"NOT_ENOUGH_HISTORY\");\n        return aggregator.getTimestamp(latest - roundsBack);\n    }\n\n    /**\n        @notice It creates a new ChainlinkPairAggregator instance.\n        @param aggregatorAddress to use in this Chainlink pair aggregator.\n        @param isInverse defines whether the aggregator is inverse or not.\n        @param responseDecimalsValue the decimals included in the Chainlink response.\n        @param collateralDecimalsValue the decimals included in the collateral token.\n    */\n    function initialize(\n        address aggregatorAddress,\n        bool isInverse,\n        uint8 responseDecimalsValue,\n        uint8 collateralDecimalsValue\n    ) external isNotInitialized() {\n        require(aggregatorAddress.isContract(), \"AGGREGATOR_NOT_CONTRACT\");\n\n        _initialize();\n\n        inverse = isInverse;\n        aggregator = AggregatorInterface(aggregatorAddress);\n        responseDecimals = responseDecimalsValue;\n        collateralDecimals = collateralDecimalsValue;\n\n        if (collateralDecimals >= responseDecimals) {\n            pendingDecimals = collateralDecimals - responseDecimals;\n        } else {\n            pendingDecimals = responseDecimals - collateralDecimals;\n        }\n        require(pendingDecimals <= MAX_POWER_VALUE, \"MAX_PENDING_DECIMALS_EXCEEDED\");\n    }\n\n    /**\n        @notice It gets the aggregator info associated to this pair aggregator instance.\n        @return response decimals.\n        @return collateral decimals.\n        @return pending decimals (difference between response and collateral).\n        @return isInverse true if it is an inverse pair aggregator. Otherwise it returns false.\n     */\n    function getInfo()\n        external\n        view\n        returns (\n            uint8 response,\n            uint8 collateral,\n            uint8 pending,\n            bool isInverse\n        )\n    {\n        return (responseDecimals, collateralDecimals, pendingDecimals, inverse);\n    }\n\n    /** Internal Functions */\n\n    /**\n        @notice It normalizes a value depending on the collateral and response decimals configured in the contract.\n        @param value to normalize.\n        @return a normalized value.\n     */\n    function _normalizeResponse(int256 value) internal view returns (int256) {\n        if (inverse) {\n            return\n                (int256(TEN**collateralDecimals) * int256(TEN**responseDecimals)) / value;\n        } else {\n            if (collateralDecimals >= responseDecimals) {\n                return value.mul(int256(TEN**pendingDecimals));\n            } else {\n                return value.div(int256(TEN**pendingDecimals));\n            }\n        }\n    }\n\n    /**\n        @notice Gets the past round answer from the Chainlink aggregator oracle.\n        @param roundsBack the answer number to retrieve the answer for\n        @return a non-normalized response value.\n     */\n    function _getPreviousAnswer(uint256 roundsBack) internal view returns (int256) {\n        uint256 latest = aggregator.latestRound();\n        require(roundsBack <= latest, \"NOT_ENOUGH_HISTORY\");\n        return aggregator.getAnswer(latest - roundsBack);\n    }\n}\n",
  "sourcePath": "/Users/guillesalazar/Repos/ZeroCollateral/smart-contracts-v1/contracts/providers/chainlink/ChainlinkPairAggregator.sol",
  "compiler": {
    "name": "solc",
    "version": "0.5.17+commit.d19bba13.Emscripten.clang"
  },
  "schemaVersion": "3.2.3",
  "updatedAt": "2020-10-12T16:12:27.771Z",
  "networkType": "ethereum",
  "devdoc": {
    "author": "develop@teller.finance",
    "methods": {
      "getInfo()": {
        "return": "response decimals.collateral decimals.pending decimals (difference between response and collateral).isInverse true if it is an inverse pair aggregator. Otherwise it returns false."
      },
      "getLatestAnswer()": {
        "return": "a normalized response value."
      },
      "getLatestRound()": {
        "return": "the latest round id."
      },
      "getLatestTimestamp()": {
        "return": "the latest timestamp."
      },
      "getPreviousAnswer(uint256)": {
        "params": {
          "roundsBack": "the answer number to retrieve the answer for"
        },
        "return": "a normalized response value."
      },
      "getPreviousTimestamp(uint256)": {
        "params": {
          "roundsBack": "the answer number to retrieve the updated timestamp for"
        },
        "return": "the previous timestamp."
      },
      "initialize(address,bool,uint8,uint8)": {
        "params": {
          "aggregatorAddress": "to use in this Chainlink pair aggregator.",
          "collateralDecimalsValue": "the decimals included in the collateral token.",
          "isInverse": "defines whether the aggregator is inverse or not.",
          "responseDecimalsValue": "the decimals included in the Chainlink response."
        }
      },
      "initialized()": {
        "return": "true if contract is initialized. Otherwise it returns false."
      }
    }
  },
  "userdoc": {
    "methods": {
      "getInfo()": {
        "notice": "It gets the aggregator info associated to this pair aggregator instance."
      },
      "getLatestAnswer()": {
        "notice": "Gets the current answer from the Chainlink aggregator oracle."
      },
      "getLatestRound()": {
        "notice": "Gets the latest completed round where the answer was updated."
      },
      "getLatestTimestamp()": {
        "notice": "Gets the last updated height from the aggregator."
      },
      "getPreviousAnswer(uint256)": {
        "notice": "Gets the past round answer from the Chainlink aggregator oracle."
      },
      "getPreviousTimestamp(uint256)": {
        "notice": "Gets block timestamp when an answer was last updated"
      },
      "initialize(address,bool,uint8,uint8)": {
        "notice": "It creates a new ChainlinkPairAggregator instance."
      },
      "initialized()": {
        "notice": "Gets if the contract is initialized."
      }
    },
    "notice": "This is a Chainlink Oracle wrapper implementation. It uses the AggregatorInterface from Chainlink to get data."
  }
}