{
  "contractName": "ChainlinkPairAggregatorRegistry",
  "abi": [
    {
      "anonymous": false,
      "inputs": [
        {
          "indexed": true,
          "internalType": "address",
          "name": "sender",
          "type": "address"
        },
        {
          "indexed": true,
          "internalType": "address",
          "name": "baseToken",
          "type": "address"
        },
        {
          "indexed": true,
          "internalType": "address",
          "name": "quoteToken",
          "type": "address"
        },
        {
          "indexed": false,
          "internalType": "address",
          "name": "pairAggregator",
          "type": "address"
        },
        {
          "indexed": false,
          "internalType": "uint8",
          "name": "responseDecimals",
          "type": "uint8"
        },
        {
          "indexed": false,
          "internalType": "uint8",
          "name": "collateralDecimals",
          "type": "uint8"
        },
        {
          "indexed": false,
          "internalType": "bool",
          "name": "inverse",
          "type": "bool"
        }
      ],
      "name": "PairAggregatorRegistered",
      "type": "event"
    },
    {
      "anonymous": false,
      "inputs": [
        {
          "indexed": true,
          "internalType": "address",
          "name": "sender",
          "type": "address"
        },
        {
          "indexed": true,
          "internalType": "address",
          "name": "baseToken",
          "type": "address"
        },
        {
          "indexed": true,
          "internalType": "address",
          "name": "quoteToken",
          "type": "address"
        },
        {
          "indexed": false,
          "internalType": "address",
          "name": "oldPairAggregator",
          "type": "address"
        },
        {
          "indexed": false,
          "internalType": "address",
          "name": "newPairAggregator",
          "type": "address"
        },
        {
          "indexed": false,
          "internalType": "uint8",
          "name": "newResponseDecimals",
          "type": "uint8"
        },
        {
          "indexed": false,
          "internalType": "uint8",
          "name": "newCollateralDecimals",
          "type": "uint8"
        },
        {
          "indexed": false,
          "internalType": "bool",
          "name": "newInverse",
          "type": "bool"
        }
      ],
      "name": "PairAggregatorUpdated",
      "type": "event"
    },
    {
      "constant": true,
      "inputs": [
        {
          "internalType": "address",
          "name": "",
          "type": "address"
        },
        {
          "internalType": "address",
          "name": "",
          "type": "address"
        }
      ],
      "name": "aggregators",
      "outputs": [
        {
          "internalType": "contract PairAggregatorInterface",
          "name": "",
          "type": "address"
        }
      ],
      "payable": false,
      "stateMutability": "view",
      "type": "function"
    },
    {
      "constant": true,
      "inputs": [],
      "name": "initialized",
      "outputs": [
        {
          "internalType": "bool",
          "name": "value",
          "type": "bool"
        }
      ],
      "payable": false,
      "stateMutability": "view",
      "type": "function"
    },
    {
      "constant": true,
      "inputs": [],
      "name": "settings",
      "outputs": [
        {
          "internalType": "contract SettingsInterface",
          "name": "",
          "type": "address"
        }
      ],
      "payable": false,
      "stateMutability": "view",
      "type": "function"
    },
    {
      "constant": false,
      "inputs": [
        {
          "components": [
            {
              "internalType": "address",
              "name": "baseToken",
              "type": "address"
            },
            {
              "internalType": "address",
              "name": "quoteToken",
              "type": "address"
            },
            {
              "internalType": "address",
              "name": "chainlinkAggregatorAddress",
              "type": "address"
            },
            {
              "internalType": "bool",
              "name": "inverse",
              "type": "bool"
            },
            {
              "internalType": "uint8",
              "name": "responseDecimals",
              "type": "uint8"
            },
            {
              "internalType": "uint8",
              "name": "collateralDecimals",
              "type": "uint8"
            }
          ],
          "internalType": "struct TellerCommon.PairAggregatorRegisterRequest[]",
          "name": "requests",
          "type": "tuple[]"
        }
      ],
      "name": "registerPairAggregators",
      "outputs": [
        {
          "internalType": "contract PairAggregatorInterface[]",
          "name": "newAggregators",
          "type": "address[]"
        }
      ],
      "payable": false,
      "stateMutability": "nonpayable",
      "type": "function"
    },
    {
      "constant": false,
      "inputs": [
        {
          "components": [
            {
              "internalType": "address",
              "name": "baseToken",
              "type": "address"
            },
            {
              "internalType": "address",
              "name": "quoteToken",
              "type": "address"
            },
            {
              "internalType": "address",
              "name": "chainlinkAggregatorAddress",
              "type": "address"
            },
            {
              "internalType": "bool",
              "name": "inverse",
              "type": "bool"
            },
            {
              "internalType": "uint8",
              "name": "responseDecimals",
              "type": "uint8"
            },
            {
              "internalType": "uint8",
              "name": "collateralDecimals",
              "type": "uint8"
            }
          ],
          "internalType": "struct TellerCommon.PairAggregatorRegisterRequest",
          "name": "request",
          "type": "tuple"
        }
      ],
      "name": "registerPairAggregator",
      "outputs": [
        {
          "internalType": "contract PairAggregatorInterface",
          "name": "aggregator",
          "type": "address"
        }
      ],
      "payable": false,
      "stateMutability": "nonpayable",
      "type": "function"
    },
    {
      "constant": false,
      "inputs": [
        {
          "components": [
            {
              "internalType": "address",
              "name": "baseToken",
              "type": "address"
            },
            {
              "internalType": "address",
              "name": "quoteToken",
              "type": "address"
            },
            {
              "internalType": "address",
              "name": "chainlinkAggregatorAddress",
              "type": "address"
            },
            {
              "internalType": "bool",
              "name": "inverse",
              "type": "bool"
            },
            {
              "internalType": "uint8",
              "name": "responseDecimals",
              "type": "uint8"
            },
            {
              "internalType": "uint8",
              "name": "collateralDecimals",
              "type": "uint8"
            }
          ],
          "internalType": "struct TellerCommon.PairAggregatorRegisterRequest",
          "name": "request",
          "type": "tuple"
        }
      ],
      "name": "updatePairAggregator",
      "outputs": [
        {
          "internalType": "contract PairAggregatorInterface",
          "name": "aggregator",
          "type": "address"
        }
      ],
      "payable": false,
      "stateMutability": "nonpayable",
      "type": "function"
    },
    {
      "constant": false,
      "inputs": [
        {
          "internalType": "address",
          "name": "settingsAddress",
          "type": "address"
        }
      ],
      "name": "initialize",
      "outputs": [],
      "payable": false,
      "stateMutability": "nonpayable",
      "type": "function"
    },
    {
      "constant": true,
      "inputs": [
        {
          "internalType": "address",
          "name": "baseToken",
          "type": "address"
        },
        {
          "internalType": "address",
          "name": "quoteToken",
          "type": "address"
        }
      ],
      "name": "getPairAggregator",
      "outputs": [
        {
          "internalType": "contract PairAggregatorInterface",
          "name": "",
          "type": "address"
        }
      ],
      "payable": false,
      "stateMutability": "view",
      "type": "function"
    },
    {
      "constant": true,
      "inputs": [
        {
          "internalType": "address",
          "name": "baseToken",
          "type": "address"
        },
        {
          "internalType": "address",
          "name": "quoteToken",
          "type": "address"
        }
      ],
      "name": "hasPairAggregator",
      "outputs": [
        {
          "internalType": "bool",
          "name": "",
          "type": "bool"
        }
      ],
      "payable": false,
      "stateMutability": "view",
      "type": "function"
    }
  ],
  "bytecode": "0x608060405234801561001057600080fd5b50611d89806100206000396000f3fe60806040523480156200001157600080fd5b5060043610620000a05760003560e01c8063c4959317116200006f578063c4959317146200011b578063c4d66de81462000132578063d7775ff1146200014b578063e06174e41462000171578063eef84f00146200017b57620000a0565b8063158ef93e14620000a5578063662a3e5814620000c7578063887b04b914620000de5780638a35ec541462000104575b600080fd5b620000af62000192565b604051620000be91906200154b565b60405180910390f35b620000af620000d836600462000f83565b620001b3565b620000f5620000ef3660046200106b565b620001ca565b604051620000be91906200155b565b620000f56200011536600462000f83565b62000523565b620000f56200012c36600462000f83565b62000546565b620001496200014336600462000f41565b6200056e565b005b620001626200015c36600462000fc2565b620005b0565b604051620000be919062001538565b620000f562000704565b620000f56200018c3660046200106b565b62000728565b600080604051620001a3906200140f565b6040519081900390205492915050565b6000620001c18383620007d3565b90505b92915050565b6000620001d662000192565b620001fe5760405162461bcd60e51b8152600401620001f590620015d7565b60405180910390fd5b6200020862000704565b6001600160a01b031663c095ea27336040518263ffffffff1660e01b815260040162000235919062001429565b60006040518083038186803b1580156200024e57600080fd5b505afa15801562000263573d6000803e3d6000fd5b506200028b92506200027c915050602084018462000f41565b6001600160a01b0316620007fd565b620002aa5760405162461bcd60e51b8152600401620001f5906200158f565b620002c06200027c604084016020850162000f41565b620002df5760405162461bcd60e51b8152600401620001f590620015a1565b620002f56200027c606084016040850162000f41565b620003145760405162461bcd60e51b8152600401620001f5906200156b565b6200033f62000327602084018462000f41565b62000339604085016020860162000f41565b620007d3565b6200035e5760405162461bcd60e51b8152600401620001f590620015b3565b6000808062000371602086018662000f41565b6001600160a01b03166001600160a01b031681526020019081526020016000206000846020016020620003a8919081019062000f41565b6001600160a01b039081168252602082019290925260400160002054169050620003e2620003dc368590038501856200108c565b6200083a565b915081600080620003f7602087018762000f41565b6001600160a01b03166001600160a01b0316815260200190815260200160002060008560200160206200042e919081019062000f41565b6001600160a01b03166001600160a01b0316815260200190815260200160002060006101000a8154816001600160a01b0302191690836001600160a01b0316021790555082602001602062000487919081019062000f41565b6001600160a01b03166200049f602085018562000f41565b6001600160a01b0316337f40d51ab006b90a1c76ff8d75ccaa5a3a095643d483e142576fc6d9818497c6c08486620004de60a08a0160808b01620010ad565b620004f060c08b0160a08c01620010ad565b6200050260808c0160608d0162001008565b6040516200051595949392919062001439565b60405180910390a450919050565b60006020818152928152604080822090935290815220546001600160a01b031681565b6001600160a01b03918216600090815260208181526040808320938516835292905220541690565b6200057862000192565b15620005985760405162461bcd60e51b8152600401620001f590620015e9565b620005a38162000a77565b620005ad62000af3565b50565b6060620005bc62000192565b620005db5760405162461bcd60e51b8152600401620001f590620015d7565b620005e562000704565b6001600160a01b031663c095ea27336040518263ffffffff1660e01b815260040162000612919062001429565b60006040518083038186803b1580156200062b57600080fd5b505afa15801562000640573d6000803e3d6000fd5b5050508215159050620006675760405162461bcd60e51b8152600401620001f590620015c5565b60408051838152602080850282010190915282801562000691578160200160208202803883390190505b50905060005b82811015620006fd57620006cf848483818110620006b157fe5b905060c00201803603620006c991908101906200108c565b62000b13565b828281518110620006dc57fe5b6001600160a01b039092166020928302919091019091015260010162000697565b5092915050565b600080600060405162000717906200141c565b604051908190039020549250505090565b60006200073462000192565b620007535760405162461bcd60e51b8152600401620001f590620015d7565b6200075d62000704565b6001600160a01b031663c095ea27336040518263ffffffff1660e01b81526004016200078a919062001429565b60006040518083038186803b158015620007a357600080fd5b505afa158015620007b8573d6000803e3d6000fd5b50505050620001c482803603620006c991908101906200108c565b6001600160a01b039182166000908152602081815260408083209385168352929052205416151590565b6000813f7fc5d2460186f7233c927e7db2dcc703c0e500b653ca82273b7bfad8045d85a4708181148015906200083257508115155b949350505050565b6000806200084762000704565b6001600160a01b031663ea23cb7c6040518163ffffffff1660e01b815260040160206040518083038186803b1580156200088057600080fd5b505afa15801562000895573d6000803e3d6000fd5b505050506040513d601f19601f82011682018060405250620008bb91908101906200104a565b6001600160a01b031663d86d744e6040518163ffffffff1660e01b8152600401602060405180830381600087803b158015620008f657600080fd5b505af11580156200090b573d6000803e3d6000fd5b505050506040513d601f19601f820116820180604052506200093191908101906200104a565b6001600160a01b031663c4f8f96e6040518163ffffffff1660e01b815260040160206040518083038186803b1580156200096a57600080fd5b505afa1580156200097f573d6000803e3d6000fd5b505050506040513d601f19601f82011682018060405250620009a5919081019062001029565b90506000620009b362000704565b82604051620009c29062000dda565b620009cf929190620014d5565b604051809103906000f080158015620009ec573d6000803e3d6000fd5b5090506000819050809350836001600160a01b0316632e6536a88660400151876060015188608001518960a001516040518563ffffffff1660e01b815260040162000a3b94939291906200148f565b600060405180830381600087803b15801562000a5657600080fd5b505af115801562000a6b573d6000803e3d6000fd5b50505050505050919050565b62000a9462000a8562000704565b6001600160a01b031662000dcc565b1562000aa057620005ad565b62000ab4816001600160a01b0316620007fd565b62000ad35760405162461bcd60e51b8152600401620001f5906200157d565b600060405162000ae3906200141c565b6040519081900390208290555050565b600060405162000b03906200140f565b6040519081900390206001905550565b80516000906001600160a01b031662000b2b62000704565b6001600160a01b031663a734f06e6040518163ffffffff1660e01b815260040160206040518083038186803b15801562000b6457600080fd5b505afa15801562000b79573d6000803e3d6000fd5b505050506040513d601f19601f8201168201806040525062000b9f919081019062000f62565b6001600160a01b0316148062000bc65750815162000bc6906001600160a01b0316620007fd565b62000be55760405162461bcd60e51b8152600401620001f5906200158f565b81602001516001600160a01b031662000bfd62000704565b6001600160a01b031663a734f06e6040518163ffffffff1660e01b815260040160206040518083038186803b15801562000c3657600080fd5b505afa15801562000c4b573d6000803e3d6000fd5b505050506040513d601f19601f8201168201806040525062000c71919081019062000f62565b6001600160a01b0316148062000c9a575062000c9a82602001516001600160a01b0316620007fd565b62000cb95760405162461bcd60e51b8152600401620001f590620015a1565b62000cd182604001516001600160a01b0316620007fd565b62000cf05760405162461bcd60e51b8152600401620001f5906200156b565b62000d0482600001518360200151620007d3565b1562000d245760405162461bcd60e51b8152600401620001f590620015fb565b62000d2f826200083a565b82516001600160a01b0390811660009081526020818152604080832082880180518616855292529182902080546001600160a01b031916858516179055518551608087015160a08801516060890151945196975092851695919094169333937f481bfc49ea4d87774cccc9f6e5b10300dfd9d4d35181edfc89bdf95b04029e819362000dbf9389939290620014fb565b60405180910390a4919050565b6001600160a01b0316151590565b61067580620016d283390190565b8035620001c4816200168e565b8051620001c4816200168e565b60008083601f84011262000e1557600080fd5b50813567ffffffffffffffff81111562000e2e57600080fd5b6020830191508360c082028301111562000e4757600080fd5b9250929050565b8035620001c481620016a5565b8051620001c481620016b0565b8051620001c481620016bb565b600060c0828403121562000e8857600080fd5b50919050565b600060c0828403121562000ea157600080fd5b62000ead60c06200160d565b9050600062000ebd848462000de8565b825250602062000ed08484830162000de8565b602083015250604062000ee68482850162000de8565b604083015250606062000efc8482850162000e4e565b606083015250608062000f128482850162000f34565b60808301525060a062000f288482850162000f34565b60a08301525092915050565b8035620001c481620016c6565b60006020828403121562000f5457600080fd5b600062000832848462000de8565b60006020828403121562000f7557600080fd5b600062000832848462000df5565b6000806040838503121562000f9757600080fd5b600062000fa5858562000de8565b925050602062000fb88582860162000de8565b9150509250929050565b6000806020838503121562000fd657600080fd5b823567ffffffffffffffff81111562000fee57600080fd5b62000ffc8582860162000e02565b92509250509250929050565b6000602082840312156200101b57600080fd5b600062000832848462000e4e565b6000602082840312156200103c57600080fd5b600062000832848462000e5b565b6000602082840312156200105d57600080fd5b600062000832848462000e68565b600060c082840312156200107e57600080fd5b600062000832848462000e75565b600060c082840312156200109f57600080fd5b600062000832848462000e8e565b600060208284031215620010c057600080fd5b600062000832848462000f34565b6000620010dc83836200117b565b505060200190565b620010ef8162001681565b82525050565b620010ef816200164d565b60006200110d826200163b565b6200111981856200163f565b9350620011268362001635565b8060005b838110156200115a578151620011418882620010ce565b97506200114e8362001635565b9250506001016200112a565b509495945050505050565b620010ef816200165a565b620010ef816200165f565b620010ef8162001662565b600062001195601c8362001648565b7f54496e697469616c697a61626c652e6973496e697469616c697a6564000000008152601c0192915050565b6000620011d0601e836200163f565b7f434841494e4c494e4b5f4147475f4d5553545f42455f434f4e54524143540000815260200192915050565b60006200120b601b836200163f565b7f53455454494e47535f4d5553545f42455f415f434f4e54524143540000000000815260200192915050565b600062001246601b836200163f565b7f424153455f544f4b454e5f4d5553545f42455f434f4e54524143540000000000815260200192915050565b600062001281601c836200163f565b7f51554f54455f544f4b454e5f4d5553545f42455f434f4e545241435400000000815260200192915050565b6000620012bc6019836200163f565b7f504149525f41474752454741544f525f4e4f545f455849535400000000000000815260200192915050565b6000620012f760188362001648565b7f426173655570677261646561626c652e73657474696e67730000000000000000815260180192915050565b6000620013326012836200163f565b71524551554553545f4c4953545f454d50545960701b815260200192915050565b6000620013626018836200163f565b7f434f4e54524143545f4e4f545f494e495449414c495a45440000000000000000815260200192915050565b60006200139d601c836200163f565b7f434f4e54524143545f414c52454144595f494e495449414c495a454400000000815260200192915050565b6000620013d8601d836200163f565b7f504149525f41474752454741544f525f414c52454144595f4558495354000000815260200192915050565b620010ef816200167b565b6000620001c48262001186565b6000620001c482620012e8565b60208101620001c48284620010e4565b60a08101620014498288620010f5565b620014586020830187620010f5565b62001467604083018662001404565b62001476606083018562001404565b62001485608083018462001165565b9695505050505050565b608081016200149f8287620010f5565b620014ae602083018662001165565b620014bd604083018562001404565b620014cc606083018462001404565b95945050505050565b60408101620014e58285620010f5565b620014f4602083018462001170565b9392505050565b608081016200150b8287620010f5565b6200151a602083018662001404565b62001529604083018562001404565b620014cc606083018462001165565b60208082528101620001c1818462001100565b60208101620001c4828462001165565b60208101620001c482846200117b565b60208082528101620001c481620011c1565b60208082528101620001c481620011fc565b60208082528101620001c48162001237565b60208082528101620001c48162001272565b60208082528101620001c481620012ad565b60208082528101620001c48162001323565b60208082528101620001c48162001353565b60208082528101620001c4816200138e565b60208082528101620001c481620013c9565b60405181810167ffffffffffffffff811182821017156200162d57600080fd5b604052919050565b60200190565b5190565b90815260200190565b919050565b6000620001c4826200166f565b151590565b90565b6000620001c4826200164d565b6001600160a01b031690565b60ff1690565b6000620001c48262001662565b62001699816200164d565b8114620005ad57600080fd5b62001699816200165a565b62001699816200165f565b620016998162001662565b62001699816200167b56fe608060405234801561001057600080fd5b506040516106753803806106758339818101604052604081101561003357600080fd5b50805160209091015161004e826001600160e01b0361006716565b610060816001600160e01b0361014316565b50506103cc565b61009361007b6001600160e01b0361031616565b6001600160a01b031661034c60201b61021b1760201c565b1561009d57610140565b6100b9816001600160a01b031661035a60201b6102291760201c565b61010a576040805162461bcd60e51b815260206004820152601b60248201527f53455454494e47535f4d5553545f42455f415f434f4e54524143540000000000604482015290519081900360640190fd5b604080517f426173655570677261646561626c652e73657474696e67730000000000000000815290519081900360180190208190555b50565b6101546001600160e01b0361039616565b156101a6576040805162461bcd60e51b815260206004820152601660248201527f4c4f4749435f4e414d455f414c52454144595f53455400000000000000000000604482015290519081900360640190fd5b6101b76001600160e01b0361031616565b6001600160a01b031663ea23cb7c6040518163ffffffff1660e01b815260040160206040518083038186803b1580156101ef57600080fd5b505afa158015610203573d6000803e3d6000fd5b505050506040513d602081101561021957600080fd5b50516040805163b28f5abb60e01b81526004810184905290516001600160a01b039092169163b28f5abb91602480820192602092909190829003018186803b15801561026457600080fd5b505afa158015610278573d6000803e3d6000fd5b505050506040513d602081101561028e57600080fd5b50516102e1576040805162461bcd60e51b815260206004820152601460248201527f4c4f4749435f4e414d455f4e4f545f4558495354000000000000000000000000604482015290519081900360640190fd5b604080517f426173655570677261646561626c652e6c6f6769634e616d65000000000000008152905190819003601901902055565b604080517f426173655570677261646561626c652e73657474696e67730000000000000000815290519081900360180190205490565b6001600160a01b0316151590565b6000813f7fc5d2460186f7233c927e7db2dcc703c0e500b653ca82273b7bfad8045d85a47081811480159061038e57508115155b949350505050565b604080517f426173655570677261646561626c652e6c6f6769634e616d6500000000000000815290519081900360190190205490565b61029a806103db6000396000f3fe6080604052600436106100295760003560e01c80635c60da1b14610033578063e06174e414610064575b610031610079565b005b34801561003f57600080fd5b50610048610093565b604080516001600160a01b039092168252519081900360200190f35b34801561007057600080fd5b506100486100a2565b610081610091565b61009161008c6100d8565b6101c1565b565b600061009d6100d8565b905090565b604080517f426173655570677261646561626c652e73657474696e67730000000000000000815290519081900360180190205490565b60006100e26100a2565b6001600160a01b031663ea23cb7c6040518163ffffffff1660e01b815260040160206040518083038186803b15801561011a57600080fd5b505afa15801561012e573d6000803e3d6000fd5b505050506040513d602081101561014457600080fd5b50516001600160a01b03166373f1fcf661015c6101e5565b6040518263ffffffff1660e01b81526004018082815260200191505060206040518083038186803b15801561019057600080fd5b505afa1580156101a4573d6000803e3d6000fd5b505050506040513d60208110156101ba57600080fd5b5051905090565b3660008037600080366000845af43d6000803e8080156101e0573d6000f35b3d6000fd5b604080517f426173655570677261646561626c652e6c6f6769634e616d6500000000000000815290519081900360190190205490565b6001600160a01b0316151590565b6000813f7fc5d2460186f7233c927e7db2dcc703c0e500b653ca82273b7bfad8045d85a47081811480159061025d57508115155b94935050505056fea265627a7a723158201befd7ed569c1720849784ec6a7e9f5f5ca6adc5544ceb327da092380cfdbb1b64736f6c63430005110032a365627a7a72315820b1b58bda43e31a88faf07770aede92752056a712463e295e9feec982d368e1f26c6578706572696d656e74616cf564736f6c63430005110040",
  "source": "pragma solidity 0.5.17;\npragma experimental ABIEncoderV2;\n\n// Interfaces\nimport \"./IChainlinkPairAggregatorRegistry.sol\";\nimport \"../../base/TInitializable.sol\";\n\n// Contracts\nimport \"../../base/DynamicProxy.sol\";\n\n// Commons\nimport \"../../util/TellerCommon.sol\";\n\n/*****************************************************************************************************/\n/**                                             WARNING                                             **/\n/**                                  THIS CONTRACT IS UPGRADEABLE!                                  **/\n/**  ---------------------------------------------------------------------------------------------  **/\n/**  Do NOT change the order of or PREPEND any storage variables to this or new versions of this    **/\n/**  contract as this will cause the the storage slots to be overwritten on the proxy contract!!    **/\n/**                                                                                                 **/\n/**  Visit https://docs.openzeppelin.com/upgrades/2.6/proxies#upgrading-via-the-proxy-pattern for   **/\n/**  more information.                                                                              **/\n/*****************************************************************************************************/\n/**\n    @notice This contract manages the Chainlink pair aggregator for the platform.\n    @dev It is used by the Escrow Dapps, and the MarketFactory contract.\n\n    @author developer@teller.finance\n */\ncontract ChainlinkPairAggregatorRegistry is\n    TInitializable,\n    BaseUpgradeable,\n    IChainlinkPairAggregatorRegistry\n{\n    using Address for address;\n\n    /**\n        @notice This identifies the pair aggregator for a given market (borrowed / collateral tokens).\n        @dev Examples:\n            address(DAI) => address(ETH) => address(0x1234...5678)\n            address(DAI) => address(LINK) => address(0x2345...789)\n            address(USDC) => address(ETH) => address(0x345...7890)\n            address(USDC) => address(LINK) => address(0x4567...890)\n        @dev It uses 0xEeeeeEeeeEeEeeEeEeEeeEEEeeeeEeeeeeeeEEeE for ETH. See Settings.ETH_ADDRESS()\n     */\n    mapping(address => mapping(address => PairAggregatorInterface)) public aggregators;\n\n    /** Modifiers **/\n\n    /** Public Functions **/\n\n    /**\n        @notice It registers new pair aggregators for given markets.\n        @param requests the input data to register the new pair aggregator.\n        @return the new pair aggregator addresses.\n     */\n    function registerPairAggregators(\n        TellerCommon.PairAggregatorRegisterRequest[] calldata requests\n    )\n        external\n        isInitialized()\n        onlyPauser()\n        returns (PairAggregatorInterface[] memory newAggregators)\n    {\n        require(requests.length > 0, \"REQUEST_LIST_EMPTY\");\n\n        newAggregators = new PairAggregatorInterface[](requests.length);\n\n        for (uint256 index; index < requests.length; index++) {\n            newAggregators[index] = _registerPairAggregator(requests[index]);\n        }\n    }\n\n    /**\n        @notice It registers a new pair aggregator for a given market.\n        @param request the input data to register the new pair aggregator.\n        @return the new pair aggregator created.\n     */\n    function registerPairAggregator(\n        TellerCommon.PairAggregatorRegisterRequest calldata request\n    ) external isInitialized() onlyPauser() returns (PairAggregatorInterface aggregator) {\n        aggregator = _registerPairAggregator(request);\n    }\n\n    /**\n        @notice It updates a current pair aggregator for a given market.\n        @param request the input data to register the new pair aggregator.\n        @return the new pair aggregator created.\n     */\n    function updatePairAggregator(\n        TellerCommon.PairAggregatorRegisterRequest calldata request\n    ) external isInitialized() onlyPauser() returns (PairAggregatorInterface aggregator) {\n        require(request.baseToken.isContract(), \"BASE_TOKEN_MUST_BE_CONTRACT\");\n        require(request.quoteToken.isContract(), \"QUOTE_TOKEN_MUST_BE_CONTRACT\");\n        require(\n            request.chainlinkAggregatorAddress.isContract(),\n            \"CHAINLINK_AGG_MUST_BE_CONTRACT\"\n        );\n        require(\n            _hasPairAggregator(request.baseToken, request.quoteToken),\n            \"PAIR_AGGREGATOR_NOT_EXIST\"\n        );\n\n        address oldPairAggregator = address(\n            aggregators[request.baseToken][request.quoteToken]\n        );\n\n        aggregator = _createPairAggregatorInstance(request);\n\n        aggregators[request.baseToken][request.quoteToken] = aggregator;\n\n        emit PairAggregatorUpdated(\n            msg.sender,\n            request.baseToken,\n            request.quoteToken,\n            oldPairAggregator,\n            address(aggregator),\n            request.responseDecimals,\n            request.collateralDecimals,\n            request.inverse\n        );\n    }\n\n    /**\n        @notice It initializes this registry contract.\n        @param settingsAddress this settings address.\n     */\n    function initialize(address settingsAddress) external isNotInitialized() {\n        _setSettings(settingsAddress);\n\n        _initialize();\n    }\n\n    /**\n        @notice Gets a pair aggregator for a given base and quote tokens (a market).\n        @notice baseToken the base token address.\n        @notice quoteToken the quote token address.\n        @return the pair aggregator address for the given base and quote addresses.\n     */\n    function getPairAggregator(address baseToken, address quoteToken)\n        external\n        view\n        returns (PairAggregatorInterface)\n    {\n        return aggregators[baseToken][quoteToken];\n    }\n\n    /**\n        @notice Tests whether a pair aggregator exists for a given base and quote tokens (a market) or not.\n        @notice baseToken the base token address.\n        @notice quoteToken the quote token address.\n        @return true if the pair aggregator address for the given base and quote tokens is not 0x0. Otherwise it returns false.\n     */\n    function hasPairAggregator(address baseToken, address quoteToken)\n        external\n        view\n        returns (bool)\n    {\n        return _hasPairAggregator(baseToken, quoteToken);\n    }\n\n    /** Internal Functions */\n\n    /**\n        @notice Tests whether a pair aggregator exists for a given base and quote tokens (a market) or not.\n        @notice baseToken the base token address.\n        @notice quoteToken the quote token address.\n        @return true if the pair aggregator address for the given base and quote tokens is not 0x0. Otherwise it returns false.\n     */\n    function _hasPairAggregator(address baseToken, address quoteToken)\n        internal\n        view\n        returns (bool)\n    {\n        return address(aggregators[baseToken][quoteToken]) != address(0x0);\n    }\n\n    function _createPairAggregatorInstance(\n        TellerCommon.PairAggregatorRegisterRequest memory request\n    ) internal returns (PairAggregatorInterface aggregator) {\n        bytes32 logicName = settings()\n            .versionsRegistry()\n            .consts()\n            .CHAINLINK_PAIR_AGGREGATOR_LOGIC_NAME();\n        DynamicProxy pairAggregatorProxy = new DynamicProxy(\n            address(settings()),\n            logicName\n        );\n\n        address pairAggregatorAddress = address(pairAggregatorProxy);\n        aggregator = PairAggregatorInterface(pairAggregatorAddress);\n        aggregator.initialize(\n            request.chainlinkAggregatorAddress,\n            request.inverse,\n            request.responseDecimals,\n            request.collateralDecimals\n        );\n    }\n\n    /**\n        @notice It registers a new pair aggregator for a given market.\n        @param request the input data to register the new pair aggregator.\n        @return the new pair aggregator created.\n     */\n    function _registerPairAggregator(\n        TellerCommon.PairAggregatorRegisterRequest memory request\n    ) internal returns (PairAggregatorInterface aggregator) {\n        require(\n            settings().ETH_ADDRESS() == request.baseToken ||\n                request.baseToken.isContract(),\n            \"BASE_TOKEN_MUST_BE_CONTRACT\"\n        );\n        require(\n            settings().ETH_ADDRESS() == request.quoteToken ||\n                request.quoteToken.isContract(),\n            \"QUOTE_TOKEN_MUST_BE_CONTRACT\"\n        );\n        require(\n            request.chainlinkAggregatorAddress.isContract(),\n            \"CHAINLINK_AGG_MUST_BE_CONTRACT\"\n        );\n        require(\n            !_hasPairAggregator(request.baseToken, request.quoteToken),\n            \"PAIR_AGGREGATOR_ALREADY_EXIST\"\n        );\n\n        aggregator = _createPairAggregatorInstance(request);\n\n        aggregators[request.baseToken][request.quoteToken] = aggregator;\n\n        emit PairAggregatorRegistered(\n            msg.sender,\n            request.baseToken,\n            request.quoteToken,\n            address(aggregator),\n            request.responseDecimals,\n            request.collateralDecimals,\n            request.inverse\n        );\n    }\n}\n",
  "sourcePath": "/Users/guillesalazar/Repos/ZeroCollateral/smart-contracts-v1/contracts/providers/chainlink/ChainlinkPairAggregatorRegistry.sol",
  "compiler": {
    "name": "solc",
    "version": "0.5.17+commit.d19bba13.Emscripten.clang"
  },
  "schemaVersion": "3.2.3",
  "updatedAt": "2020-10-12T16:12:27.766Z",
  "networkType": "ethereum",
  "devdoc": {
    "author": "developer@teller.finance",
    "details": "It is used by the Escrow Dapps, and the MarketFactory contract.",
    "methods": {
      "getPairAggregator(address,address)": {
        "return": "the pair aggregator address for the given base and quote addresses."
      },
      "hasPairAggregator(address,address)": {
        "return": "true if the pair aggregator address for the given base and quote tokens is not 0x0. Otherwise it returns false."
      },
      "initialize(address)": {
        "params": {
          "settingsAddress": "this settings address."
        }
      },
      "initialized()": {
        "return": "true if contract is initialized. Otherwise it returns false."
      },
      "registerPairAggregator((address,address,address,bool,uint8,uint8))": {
        "params": {
          "request": "the input data to register the new pair aggregator."
        },
        "return": "the new pair aggregator created."
      },
      "registerPairAggregators((address,address,address,bool,uint8,uint8)[])": {
        "params": {
          "requests": "the input data to register the new pair aggregator."
        },
        "return": "the new pair aggregator addresses."
      },
      "settings()": {
        "details": "This address should NOT change over the time. See details in the _setSettings(...) function."
      },
      "updatePairAggregator((address,address,address,bool,uint8,uint8))": {
        "params": {
          "request": "the input data to register the new pair aggregator."
        },
        "return": "the new pair aggregator created."
      }
    }
  },
  "userdoc": {
    "methods": {
      "getPairAggregator(address,address)": {
        "notice": "Gets a pair aggregator for a given base and quote tokens (a market).baseToken the base token address.quoteToken the quote token address."
      },
      "hasPairAggregator(address,address)": {
        "notice": "Tests whether a pair aggregator exists for a given base and quote tokens (a market) or not.baseToken the base token address.quoteToken the quote token address."
      },
      "initialize(address)": {
        "notice": "It initializes this registry contract."
      },
      "initialized()": {
        "notice": "Gets if the contract is initialized."
      },
      "registerPairAggregator((address,address,address,bool,uint8,uint8))": {
        "notice": "It registers a new pair aggregator for a given market."
      },
      "registerPairAggregators((address,address,address,bool,uint8,uint8)[])": {
        "notice": "It registers new pair aggregators for given markets."
      },
      "settings()": {
        "notice": "The gets the settings contract address from the SETTINGS_SLOT."
      },
      "updatePairAggregator((address,address,address,bool,uint8,uint8))": {
        "notice": "It updates a current pair aggregator for a given market."
      }
    },
    "notice": "This contract manages the Chainlink pair aggregator for the platform."
  }
}