{
  "contractName": "Compound",
  "abi": [
    {
      "anonymous": false,
      "inputs": [
        {
          "indexed": true,
          "internalType": "address",
          "name": "sender",
          "type": "address"
        },
        {
          "indexed": true,
          "internalType": "address",
          "name": "dappAddress",
          "type": "address"
        },
        {
          "indexed": false,
          "internalType": "uint256",
          "name": "amount",
          "type": "uint256"
        },
        {
          "indexed": true,
          "internalType": "address",
          "name": "cToken",
          "type": "address"
        },
        {
          "indexed": false,
          "internalType": "uint256",
          "name": "cTokenBalance",
          "type": "uint256"
        },
        {
          "indexed": false,
          "internalType": "address",
          "name": "underlyingToken",
          "type": "address"
        },
        {
          "indexed": false,
          "internalType": "uint256",
          "name": "underlyingBalance",
          "type": "uint256"
        }
      ],
      "name": "CompoundLended",
      "type": "event"
    },
    {
      "anonymous": false,
      "inputs": [
        {
          "indexed": true,
          "internalType": "address",
          "name": "sender",
          "type": "address"
        },
        {
          "indexed": true,
          "internalType": "address",
          "name": "dappAddress",
          "type": "address"
        },
        {
          "indexed": false,
          "internalType": "uint256",
          "name": "amount",
          "type": "uint256"
        },
        {
          "indexed": true,
          "internalType": "address",
          "name": "cToken",
          "type": "address"
        },
        {
          "indexed": false,
          "internalType": "uint256",
          "name": "cTokenBalance",
          "type": "uint256"
        },
        {
          "indexed": false,
          "internalType": "address",
          "name": "underlyingToken",
          "type": "address"
        },
        {
          "indexed": false,
          "internalType": "uint256",
          "name": "underlyingBalance",
          "type": "uint256"
        }
      ],
      "name": "CompoundRedeemed",
      "type": "event"
    },
    {
      "anonymous": false,
      "inputs": [
        {
          "indexed": true,
          "internalType": "address",
          "name": "previousOwner",
          "type": "address"
        },
        {
          "indexed": true,
          "internalType": "address",
          "name": "newOwner",
          "type": "address"
        }
      ],
      "name": "OwnershipTransferred",
      "type": "event"
    },
    {
      "constant": true,
      "inputs": [
        {
          "internalType": "address",
          "name": "tokenAddress",
          "type": "address"
        }
      ],
      "name": "findTokenIndex",
      "outputs": [
        {
          "internalType": "int256",
          "name": "",
          "type": "int256"
        }
      ],
      "payable": false,
      "stateMutability": "view",
      "type": "function"
    },
    {
      "constant": true,
      "inputs": [],
      "name": "getTokens",
      "outputs": [
        {
          "internalType": "address[]",
          "name": "",
          "type": "address[]"
        }
      ],
      "payable": false,
      "stateMutability": "view",
      "type": "function"
    },
    {
      "constant": false,
      "inputs": [
        {
          "internalType": "address",
          "name": "sender",
          "type": "address"
        }
      ],
      "name": "initialize",
      "outputs": [],
      "payable": false,
      "stateMutability": "nonpayable",
      "type": "function"
    },
    {
      "constant": true,
      "inputs": [],
      "name": "isOwner",
      "outputs": [
        {
          "internalType": "bool",
          "name": "",
          "type": "bool"
        }
      ],
      "payable": false,
      "stateMutability": "view",
      "type": "function"
    },
    {
      "constant": true,
      "inputs": [],
      "name": "owner",
      "outputs": [
        {
          "internalType": "address",
          "name": "",
          "type": "address"
        }
      ],
      "payable": false,
      "stateMutability": "view",
      "type": "function"
    },
    {
      "constant": false,
      "inputs": [],
      "name": "renounceOwnership",
      "outputs": [],
      "payable": false,
      "stateMutability": "nonpayable",
      "type": "function"
    },
    {
      "constant": false,
      "inputs": [
        {
          "internalType": "address",
          "name": "newOwner",
          "type": "address"
        }
      ],
      "name": "transferOwnership",
      "outputs": [],
      "payable": false,
      "stateMutability": "nonpayable",
      "type": "function"
    },
    {
      "constant": false,
      "inputs": [
        {
          "internalType": "address",
          "name": "cTokenAddress",
          "type": "address"
        },
        {
          "internalType": "uint256",
          "name": "amount",
          "type": "uint256"
        }
      ],
      "name": "lend",
      "outputs": [],
      "payable": false,
      "stateMutability": "nonpayable",
      "type": "function"
    },
    {
      "constant": false,
      "inputs": [
        {
          "internalType": "address",
          "name": "cTokenAddress",
          "type": "address"
        },
        {
          "internalType": "uint256",
          "name": "amount",
          "type": "uint256"
        }
      ],
      "name": "redeem",
      "outputs": [],
      "payable": false,
      "stateMutability": "nonpayable",
      "type": "function"
    },
    {
      "constant": false,
      "inputs": [
        {
          "internalType": "address",
          "name": "cTokenAddress",
          "type": "address"
        }
      ],
      "name": "redeemAll",
      "outputs": [],
      "payable": false,
      "stateMutability": "nonpayable",
      "type": "function"
    }
  ],
  "bytecode": "0x6080604052611581806100136000396000f3fe608060405234801561001057600080fd5b506004361061009e5760003560e01c8063a2fb342d11610066578063a2fb342d14610151578063aa6ca8081461017d578063be399be5146101d5578063c4d66de8146101fb578063f2fde38b146102215761009e565b80630a11fd07146100a35780631e9a6950146100db578063715018a6146101095780638da5cb5b146101115780638f32d59b14610135575b600080fd5b6100c9600480360360208110156100b957600080fd5b50356001600160a01b0316610247565b60408051918252519081900360200190f35b610107600480360360408110156100f157600080fd5b506001600160a01b038135169060200135610277565b005b6101076106ed565b61011961077e565b604080516001600160a01b039092168252519081900360200190f35b61013d61078e565b604080519115158252519081900360200190f35b6101076004803603604081101561016757600080fd5b506001600160a01b0381351690602001356107b4565b610185610d1f565b60408051602080825283518183015283519192839290830191858101910280838360005b838110156101c15781810151838201526020016101a9565b505050509050019250505060405180910390f35b610107600480360360208110156101eb57600080fd5b50356001600160a01b0316610d81565b6101076004803603602081101561021157600080fd5b50356001600160a01b0316610de3565b6101076004803603602081101561023757600080fd5b50356001600160a01b0316610ed4565b6000808061025c60668563ffffffff610f2716565b915091508161026d5760001961026f565b805b949350505050565b61027f61078e565b6102be576040805162461bcd60e51b815260206004820181905260248201526000805160206114ff833981519152604482015290519081900360640190fd5b6102d0826001600160a01b0316610f7c565b610321576040805162461bcd60e51b815260206004820152601f60248201527f43544f4b454e5f414444524553535f4d5553545f42455f434f4e545241435400604482015290519081900360640190fd5b8061032b83610fb5565b101561037e576040805162461bcd60e51b815260206004820152601d60248201527f434f4d504f554e445f494e53554646494349454e545f42414c414e4345000000604482015290519081900360640190fd5b60008290506000816001600160a01b0316636f307dc36040518163ffffffff1660e01b815260040160206040518083038186803b1580156103be57600080fd5b505afa1580156103d2573d6000803e3d6000fd5b505050506040513d60208110156103e857600080fd5b5051604080516370a0823160e01b815230600482015290519192506000916001600160a01b038416916370a08231916024808301926020929190829003018186803b15801561043657600080fd5b505afa15801561044a573d6000803e3d6000fd5b505050506040513d602081101561046057600080fd5b50516040805163852a12e360e01b81526004810187905290519192506000916001600160a01b0386169163852a12e391602480830192602092919082900301818787803b1580156104b057600080fd5b505af11580156104c4573d6000803e3d6000fd5b505050506040513d60208110156104da57600080fd5b505190508015610531576040805162461bcd60e51b815260206004820152601960248201527f434f4d504f554e445f5749544844524157414c5f4552524f5200000000000000604482015290519081900360640190fd5b604080516370a0823160e01b815230600482015290516000916001600160a01b038616916370a0823191602480820192602092909190829003018186803b15801561057b57600080fd5b505afa15801561058f573d6000803e3d6000fd5b505050506040513d60208110156105a557600080fd5b50519050828601811015610600576040805162461bcd60e51b815260206004820152601e60248201527f434f4d504f554e445f42414c414e43455f4e4f545f494e435245415345440000604482015290519081900360640190fd5b61060987611031565b61061284611031565b604080516370a0823160e01b815230600482015290516000916001600160a01b038816916370a0823191602480820192602092909190829003018186803b15801561065c57600080fd5b505afa158015610670573d6000803e3d6000fd5b505050506040513d602081101561068657600080fd5b505160408051898152602081018390526001600160a01b0388811682840152606082018690529151929350908a1691309133917fce453247da721847a3594553f305a8333be81c29872185f0a74444efdfb9983a9181900360800190a45050505050505050565b6106f561078e565b610734576040805162461bcd60e51b815260206004820181905260248201526000805160206114ff833981519152604482015290519081900360640190fd5b6033546040516000916001600160a01b0316907f8be0079c531659141344cd1fd0a4f28419497f9722a3daafe3b4186f6b6457e0908390a3603380546001600160a01b0319169055565b6033546001600160a01b03165b90565b6033546000906001600160a01b03166107a5611095565b6001600160a01b031614905090565b6107bc61078e565b6107fb576040805162461bcd60e51b815260206004820181905260248201526000805160206114ff833981519152604482015290519081900360640190fd5b61080d826001600160a01b0316610f7c565b61085e576040805162461bcd60e51b815260206004820152601f60248201527f43544f4b454e5f414444524553535f4d5553545f42455f434f4e545241435400604482015290519081900360640190fd5b604080516370a0823160e01b8152306004820152905183916000916001600160a01b038416916370a08231916024808301926020929190829003018186803b1580156108a957600080fd5b505afa1580156108bd573d6000803e3d6000fd5b505050506040513d60208110156108d357600080fd5b505160408051636f307dc360e01b815290519192506000916001600160a01b03851691636f307dc3916004808301926020929190829003018186803b15801561091b57600080fd5b505afa15801561092f573d6000803e3d6000fd5b505050506040513d602081101561094557600080fd5b5051604080516370a0823160e01b8152306004820152905191925085916001600160a01b038416916370a08231916024808301926020929190829003018186803b15801561099257600080fd5b505afa1580156109a6573d6000803e3d6000fd5b505050506040513d60208110156109bc57600080fd5b50511015610a11576040805162461bcd60e51b815260206004820181905260248201527f434f4d504f554e445f494e53554646494349454e545f554e4445524c59494e47604482015290519081900360640190fd5b806001600160a01b031663095ea7b386866040518363ffffffff1660e01b815260040180836001600160a01b03166001600160a01b0316815260200182815260200192505050602060405180830381600087803b158015610a7157600080fd5b505af1158015610a85573d6000803e3d6000fd5b505050506040513d6020811015610a9b57600080fd5b50506040805163140e25ad60e31b81526004810186905290516000916001600160a01b0386169163a0712d689160248082019260209290919082900301818787803b158015610ae957600080fd5b505af1158015610afd573d6000803e3d6000fd5b505050506040513d6020811015610b1357600080fd5b505190508015610b63576040805162461bcd60e51b815260206004820152601660248201527521a7a6a827aaa7222fa222a827a9a4aa2fa2a92927a960511b604482015290519081900360640190fd5b604080516370a0823160e01b815230600482015290516000916001600160a01b038716916370a0823191602480820192602092909190829003018186803b158015610bad57600080fd5b505afa158015610bc1573d6000803e3d6000fd5b505050506040513d6020811015610bd757600080fd5b50519050838601811015610c32576040805162461bcd60e51b815260206004820152601e60248201527f434f4d504f554e445f42414c414e43455f4e4f545f494e435245415345440000604482015290519081900360640190fd5b610c3b87611031565b610c4483611031565b604080516370a0823160e01b815230600482015290516000916001600160a01b038616916370a0823191602480820192602092909190829003018186803b158015610c8e57600080fd5b505afa158015610ca2573d6000803e3d6000fd5b505050506040513d6020811015610cb857600080fd5b505160408051898152602081018590526001600160a01b0387811682840152606082018490529151929350908a1691309133917f6d5b94dddb8537b8b8425d31b0fa29456819abe27cb1b43a29ef5809d8e4ffc29181900360800190a45050505050505050565b60606066805480602002602001604051908101604052809291908181526020018280548015610d7757602002820191906000526020600020905b81546001600160a01b03168152600190910190602001808311610d59575b5050505050905090565b610d8961078e565b610dc8576040805162461bcd60e51b815260206004820181905260248201526000805160206114ff833981519152604482015290519081900360640190fd5b6000610dd382610fb5565b9050610ddf8282610277565b5050565b600054610100900460ff1680610dfc5750610dfc611099565b80610e0a575060005460ff16155b610e455760405162461bcd60e51b815260040180806020018281038252602e81526020018061151f602e913960400191505060405180910390fd5b600054610100900460ff16158015610e70576000805460ff1961ff0019909116610100171660011790555b603380546001600160a01b0319166001600160a01b0384811691909117918290556040519116906000907f8be0079c531659141344cd1fd0a4f28419497f9722a3daafe3b4186f6b6457e0908290a38015610ddf576000805461ff00191690555050565b610edc61078e565b610f1b576040805162461bcd60e51b815260206004820181905260248201526000805160206114ff833981519152604482015290519081900360640190fd5b610f248161109f565b50565b6000805b8354811015610f7557826001600160a01b0316848281548110610f4a57fe5b6000918252602090912001546001600160a01b03161491508115610f6d57610f75565b600101610f2b565b9250929050565b6000813f7fc5d2460186f7233c927e7db2dcc703c0e500b653ca82273b7bfad8045d85a47081811480159061026f575050151592915050565b604080516370a0823160e01b815230600482015290516000916001600160a01b038416916370a0823191602480820192602092909190829003018186803b158015610fff57600080fd5b505afa158015611013573d6000803e3d6000fd5b505050506040513d602081101561102957600080fd5b505192915050565b60008061104560668463ffffffff610f2716565b91509150600061105484610fb5565b111561107757816110725761107060668463ffffffff61114016565b505b611090565b81156110905761108e60668263ffffffff61122a16565b505b505050565b3390565b303b1590565b6001600160a01b0381166110e45760405162461bcd60e51b81526004018080602001828103825260268152602001806114d96026913960400191505060405180910390fd5b6033546040516001600160a01b038084169216907f8be0079c531659141344cd1fd0a4f28419497f9722a3daafe3b4186f6b6457e090600090a3603380546001600160a01b0319166001600160a01b0392909216919091179055565b60606001600160a01b03821661119d576040805162461bcd60e51b815260206004820152601960248201527f454d5054595f414444524553535f4e4f545f414c4c4f57454400000000000000604482015290519081900360640190fd5b8254600181018455600084815260209081902090910180546001600160a01b0319166001600160a01b038516179055835460408051828402810184019091528181529185919083018282801561121c57602002820191906000526020600020905b81546001600160a01b031681526001909101906020018083116111fe575b505050505090505b92915050565b815460609082106112925782546040805160208084028201810190925282815291859183018282801561128657602002820191906000526020600020905b81546001600160a01b03168152600190910190602001808311611268575b50505050509050611224565b825460001901821415611336578254839060001981019081106112b157fe5b600091825260209091200180546001600160a01b031916905582546112da84600019830161149b565b50825460408051602080840282018101909252828152918591830182828015611286576020028201919060005260206000209081546001600160a01b031681526001909101906020018083116112685750505050509050611224565b82546000908490600019810190811061134b57fe5b60009182526020909120015484546001600160a01b03909116915084908490811061137257fe5b60009182526020909120015484546001600160a01b03909116908590600019810190811061139c57fe5b9060005260206000200160006101000a8154816001600160a01b0302191690836001600160a01b03160217905550808484815481106113d757fe5b600091825260209091200180546001600160a01b0319166001600160a01b039290921691909117905583548490600019810190811061141257fe5b600091825260209091200180546001600160a01b0319169055835461143b85600019830161149b565b5083546040805160208084028201810190925282815291869183018282801561148d57602002820191906000526020600020905b81546001600160a01b0316815260019091019060200180831161146f575b505050505091505092915050565b8154818355818111156110905760008381526020902061109091810190830161078b91905b808211156114d457600081556001016114c0565b509056fe4f776e61626c653a206e6577206f776e657220697320746865207a65726f20616464726573734f776e61626c653a2063616c6c6572206973206e6f7420746865206f776e6572436f6e747261637420696e7374616e63652068617320616c7265616479206265656e20696e697469616c697a6564a265627a7a72315820fa1cb27bec117c90d73b7c038bc2a1d9672924961f1278951f7323ea1c5b9b5364736f6c63430005110032",
  "source": "pragma solidity 0.5.17;\n\n// External Libraries\nimport \"@openzeppelin/contracts-ethereum-package/contracts/token/ERC20/IERC20.sol\";\nimport \"@openzeppelin/contracts-ethereum-package/contracts/utils/Address.sol\";\n\n// Common\nimport \"../../../util/AddressLib.sol\";\n\n//Contracts\nimport \"../../BaseEscrowDapp.sol\";\n\n// Interfaces\nimport \"./ICompound.sol\";\nimport \"../../../providers/compound/CErc20Interface.sol\";\n\n/*****************************************************************************************************/\n/**                                             WARNING                                             **/\n/**                      DAPP CONTRACT IS AN EXTENSION OF THE ESCROW CONTRACT                       **/\n/**  ---------------------------------------------------------------------------------------------  **/\n/**  Because there are multiple dApp contracts, and they all extend the Escrow contract that is     **/\n/**  itself upgradeable, they cannot have their own storage variables as they would cause the the   **/\n/**  storage slots to be overwritten on the Escrow proxy contract!                                  **/\n/**                                                                                                 **/\n/**  Visit https://docs.openzeppelin.com/upgrades/2.6/proxies#upgrading-via-the-proxy-pattern for   **/\n/**  more information.                                                                              **/\n/*****************************************************************************************************/\n/**\n    @notice This contract is used to define Compound dApp actions available. All dapp actions are invoked via \n        delegatecalls from Escrow contract, so this contract's state is really Escrow. \n    @author develop@teller.finance\n */\ncontract Compound is ICompound, BaseEscrowDapp {\n    using AddressLib for address;\n    using Address for address;\n\n    /* State Variables */\n    // State is shared with Escrow contract as it uses delegateCall() to interact with this contract.\n\n    /**\n        @notice To lend we first have to approve the cToken to access the token balance then mint. \n        @param cTokenAddress address of the token.\n        @param amount amount of tokens to mint. \n    */\n    function lend(address cTokenAddress, uint256 amount) public onlyOwner() {\n        require(cTokenAddress.isContract(), \"CTOKEN_ADDRESS_MUST_BE_CONTRACT\");\n        CErc20Interface cToken = CErc20Interface(cTokenAddress);\n        uint256 balanceBeforeMint = cToken.balanceOf(address(this));\n        IERC20 underlying = IERC20(cToken.underlying());\n        require(\n            underlying.balanceOf(address(this)) >= amount,\n            \"COMPOUND_INSUFFICIENT_UNDERLYING\"\n        );\n\n        underlying.approve(cTokenAddress, amount);\n        uint256 result = cToken.mint(amount);\n        require(result == 0, \"COMPOUND_DEPOSIT_ERROR\");\n\n        uint256 balanceAfterMint = cToken.balanceOf(address(this));\n        require(\n            balanceAfterMint >= (balanceBeforeMint + amount),\n            \"COMPOUND_BALANCE_NOT_INCREASED\"\n        );\n\n        _tokenUpdated(cTokenAddress);\n        _tokenUpdated(address(underlying));\n\n        uint256 underlyingBalance = underlying.balanceOf(address(this));\n        emit CompoundLended(\n            msg.sender,\n            address(this),\n            amount,\n            cTokenAddress,\n            balanceAfterMint,\n            address(underlying),\n            underlyingBalance\n        );\n    }\n\n    /**\n        @notice This function calls Compound redeemUnderlying().\n        @param cTokenAddress address of the token.\n        @param amount amount of underlying tokens to redeem.\n    */\n    function redeem(address cTokenAddress, uint256 amount) public onlyOwner() {\n        require(cTokenAddress.isContract(), \"CTOKEN_ADDRESS_MUST_BE_CONTRACT\");\n        require(_balanceOf(cTokenAddress) >= amount, \"COMPOUND_INSUFFICIENT_BALANCE\");\n        CErc20Interface cToken = CErc20Interface(cTokenAddress);\n        IERC20 underlying = IERC20(cToken.underlying());\n        uint256 balanceBeforeRedeem = underlying.balanceOf(address(this));\n\n        uint256 result = cToken.redeemUnderlying(amount);\n        require(result == 0, \"COMPOUND_WITHDRAWAL_ERROR\");\n\n        uint256 underlyingBalanceAfterRedeem = underlying.balanceOf(address(this));\n        require(\n            underlyingBalanceAfterRedeem >= (balanceBeforeRedeem + amount),\n            \"COMPOUND_BALANCE_NOT_INCREASED\"\n        );\n\n        _tokenUpdated(cTokenAddress);\n        _tokenUpdated(address(underlying));\n\n        uint256 cTokenBalanceAfterRedeem = cToken.balanceOf(address(this));\n        emit CompoundRedeemed(\n            msg.sender,\n            address(this),\n            amount,\n            cTokenAddress,\n            cTokenBalanceAfterRedeem,\n            address(underlying),\n            underlyingBalanceAfterRedeem\n        );\n    }\n\n    /**\n        @notice This function redeems complete token balance.\n        @param cTokenAddress address of the token.\n    */\n    function redeemAll(address cTokenAddress) public onlyOwner() {\n        uint256 amount = _balanceOf(cTokenAddress);\n        redeem(cTokenAddress, amount);\n    }\n}\n",
  "sourcePath": "/Users/guillesalazar/Repos/ZeroCollateral/smart-contracts-v1/contracts/base/escrow/dapps/Compound.sol",
  "compiler": {
    "name": "solc",
    "version": "0.5.17+commit.d19bba13.Emscripten.clang"
  },
  "schemaVersion": "3.2.3",
  "updatedAt": "2020-10-12T16:12:27.730Z",
  "networkType": "ethereum",
  "devdoc": {
    "author": "develop@teller.finance",
    "methods": {
      "initialize(address)": {
        "details": "Initializes the contract setting the deployer as the initial owner."
      },
      "isOwner()": {
        "details": "Returns true if the caller is the current owner."
      },
      "lend(address,uint256)": {
        "params": {
          "amount": "amount of tokens to mint. ",
          "cTokenAddress": "address of the token."
        }
      },
      "owner()": {
        "details": "Returns the address of the current owner."
      },
      "redeem(address,uint256)": {
        "params": {
          "amount": "amount of underlying tokens to redeem.",
          "cTokenAddress": "address of the token."
        }
      },
      "redeemAll(address)": {
        "params": {
          "cTokenAddress": "address of the token."
        }
      },
      "renounceOwnership()": {
        "details": "Leaves the contract without owner. It will not be possible to call `onlyOwner` functions anymore. Can only be called by the current owner.     * > Note: Renouncing ownership will leave the contract without an owner, thereby removing any functionality that is only available to the owner."
      },
      "transferOwnership(address)": {
        "details": "Transfers ownership of the contract to a new account (`newOwner`). Can only be called by the current owner."
      }
    }
  },
  "userdoc": {
    "methods": {
      "lend(address,uint256)": {
        "notice": "To lend we first have to approve the cToken to access the token balance then mint. "
      },
      "redeem(address,uint256)": {
        "notice": "This function calls Compound redeemUnderlying()."
      },
      "redeemAll(address)": {
        "notice": "This function redeems complete token balance."
      }
    },
    "notice": "This contract is used to define Compound dApp actions available. All dapp actions are invoked via  delegatecalls from Escrow contract, so this contract's state is really Escrow. "
  }
}