{
  "contractName": "CompoundMock",
  "abi": [
    {
      "anonymous": false,
      "inputs": [
        {
          "indexed": false,
          "internalType": "bytes32",
          "name": "dappName",
          "type": "bytes32"
        },
        {
          "indexed": false,
          "internalType": "bytes32",
          "name": "action",
          "type": "bytes32"
        }
      ],
      "name": "DappAction",
      "type": "event"
    },
    {
      "payable": true,
      "stateMutability": "payable",
      "type": "fallback"
    },
    {
      "constant": true,
      "inputs": [
        {
          "internalType": "address",
          "name": "cTokenAddress",
          "type": "address"
        }
      ],
      "name": "balance",
      "outputs": [
        {
          "internalType": "uint256",
          "name": "",
          "type": "uint256"
        }
      ],
      "payable": false,
      "stateMutability": "view",
      "type": "function"
    },
    {
      "constant": false,
      "inputs": [
        {
          "internalType": "address",
          "name": "cTokenAddress",
          "type": "address"
        },
        {
          "internalType": "uint256",
          "name": "amount",
          "type": "uint256"
        }
      ],
      "name": "callLend",
      "outputs": [],
      "payable": false,
      "stateMutability": "nonpayable",
      "type": "function"
    },
    {
      "constant": false,
      "inputs": [
        {
          "internalType": "address",
          "name": "cTokenAddress",
          "type": "address"
        },
        {
          "internalType": "uint256",
          "name": "amount",
          "type": "uint256"
        }
      ],
      "name": "callRedeem",
      "outputs": [],
      "payable": false,
      "stateMutability": "nonpayable",
      "type": "function"
    },
    {
      "constant": false,
      "inputs": [
        {
          "internalType": "address",
          "name": "cTokenAddress",
          "type": "address"
        }
      ],
      "name": "callRedeem",
      "outputs": [],
      "payable": false,
      "stateMutability": "nonpayable",
      "type": "function"
    }
  ],
  "bytecode": "0x608060405234801561001057600080fd5b5061066b806100206000396000f3fe60806040526004361061003f5760003560e01c8063857ca423146100415780638d8e3e811461007a578063e3d670d7146100b3578063ead20991146100f8575b005b34801561004d57600080fd5b5061003f6004803603604081101561006457600080fd5b506001600160a01b03813516906020013561012b565b34801561008657600080fd5b5061003f6004803603604081101561009d57600080fd5b506001600160a01b038135169060200135610139565b3480156100bf57600080fd5b506100e6600480360360208110156100d657600080fd5b50356001600160a01b0316610143565b60408051918252519081900360200190f35b34801561010457600080fd5b5061003f6004803603602081101561011b57600080fd5b50356001600160a01b03166101bf565b61013582826101cb565b5050565b61013582826104a6565b604080516370a0823160e01b815230600482015290516000916001600160a01b038416916370a0823191602480820192602092909190829003018186803b15801561018d57600080fd5b505afa1580156101a1573d6000803e3d6000fd5b505050506040513d60208110156101b757600080fd5b505192915050565b6101c88161061f565b50565b60008290506000816001600160a01b0316636f307dc36040518163ffffffff1660e01b815260040160206040518083038186803b15801561020b57600080fd5b505afa15801561021f573d6000803e3d6000fd5b505050506040513d602081101561023557600080fd5b5051604080516370a0823160e01b8152306004820152905191925084916001600160a01b038416916370a08231916024808301926020929190829003018186803b15801561028257600080fd5b505afa158015610296573d6000803e3d6000fd5b505050506040513d60208110156102ac57600080fd5b50511015610301576040805162461bcd60e51b815260206004820181905260248201527f434f4d504f554e445f494e53554646494349454e545f554e4445524c59494e47604482015290519081900360640190fd5b806001600160a01b031663095ea7b385856040518363ffffffff1660e01b815260040180836001600160a01b03166001600160a01b0316815260200182815260200192505050602060405180830381600087803b15801561036157600080fd5b505af1158015610375573d6000803e3d6000fd5b505050506040513d602081101561038b57600080fd5b50506040805163140e25ad60e31b81526004810185905290516000916001600160a01b0385169163a0712d689160248082019260209290919082900301818787803b1580156103d957600080fd5b505af11580156103ed573d6000803e3d6000fd5b505050506040513d602081101561040357600080fd5b505190508015610453576040805162461bcd60e51b815260206004820152601660248201527521a7a6a827aaa7222fa222a827a9a4aa2fa2a92927a960511b604482015290519081900360640190fd5b604080516710dbdb5c1bdd5b9960c21b8152631b195b9960e21b602082015281517fa3ab7b0d2c56274cf6d061d56df487a67bfc8800c0becd9e3a135a04f452bd95929181900390910190a15050505050565b806104b083610143565b1015610503576040805162461bcd60e51b815260206004820152601d60248201527f434f4d504f554e445f494e53554646494349454e545f42414c414e4345000000604482015290519081900360640190fd5b6000826001600160a01b031663852a12e3836040518263ffffffff1660e01b815260040180828152602001915050602060405180830381600087803b15801561054b57600080fd5b505af115801561055f573d6000803e3d6000fd5b505050506040513d602081101561057557600080fd5b5051905080156105cc576040805162461bcd60e51b815260206004820152601960248201527f434f4d504f554e445f5749544844524157414c5f4552524f5200000000000000604482015290519081900360640190fd5b604080516710dbdb5c1bdd5b9960c21b81526572656465656d60d01b602082015281517fa3ab7b0d2c56274cf6d061d56df487a67bfc8800c0becd9e3a135a04f452bd95929181900390910190a1505050565b600061062a82610143565b905061013582826104a656fea265627a7a723158208e61edfe367ec8072616df33ec458483943ac7458da52c2cb4c0556f6697672564736f6c63430005110032",
  "source": "pragma solidity 0.5.17;\n\nimport \"../../../../base/Escrow/Dapps/Compound.sol\";\n\n\ncontract CompoundMock is Compound {\n    function callLend(address cTokenAddress, uint256 amount) external {\n        lend(cTokenAddress, amount);\n    }\n\n    function callRedeem(address cTokenAddress) external {\n        redeem(cTokenAddress);\n    }\n\n    function callRedeem(address cTokenAddress, uint256 amount) external {\n        redeem(cTokenAddress, amount);\n    }\n\n    function() external payable {}\n}\n",
  "sourcePath": "/Users/sy/Documents/GitHub/teller-protocol-v1/contracts/mock/base/Escrow/Dapps/CompoundMock.sol",
  "compiler": {
    "name": "solc",
    "version": "0.5.17+commit.d19bba13.Emscripten.clang"
  },
  "schemaVersion": "3.0.23",
  "updatedAt": "2020-08-19T00:49:50.118Z",
  "devdoc": {
    "methods": {}
  },
  "userdoc": {
    "methods": {}
  }
}