{
  "contractName": "CompoundMock",
  "abi": [
    {
      "inputs": [],
      "payable": false,
      "stateMutability": "nonpayable",
      "type": "constructor"
    },
    {
      "anonymous": false,
      "inputs": [
        {
          "indexed": true,
          "internalType": "address",
          "name": "sender",
          "type": "address"
        },
        {
          "indexed": true,
          "internalType": "address",
          "name": "dappAddress",
          "type": "address"
        },
        {
          "indexed": false,
          "internalType": "uint256",
          "name": "amount",
          "type": "uint256"
        },
        {
          "indexed": true,
          "internalType": "address",
          "name": "cToken",
          "type": "address"
        },
        {
          "indexed": false,
          "internalType": "uint256",
          "name": "cTokenBalance",
          "type": "uint256"
        },
        {
          "indexed": false,
          "internalType": "address",
          "name": "underlyingToken",
          "type": "address"
        },
        {
          "indexed": false,
          "internalType": "uint256",
          "name": "underlyingBalance",
          "type": "uint256"
        }
      ],
      "name": "CompoundLended",
      "type": "event"
    },
    {
      "anonymous": false,
      "inputs": [
        {
          "indexed": true,
          "internalType": "address",
          "name": "sender",
          "type": "address"
        },
        {
          "indexed": true,
          "internalType": "address",
          "name": "dappAddress",
          "type": "address"
        },
        {
          "indexed": false,
          "internalType": "uint256",
          "name": "amount",
          "type": "uint256"
        },
        {
          "indexed": true,
          "internalType": "address",
          "name": "cToken",
          "type": "address"
        },
        {
          "indexed": false,
          "internalType": "uint256",
          "name": "cTokenBalance",
          "type": "uint256"
        },
        {
          "indexed": false,
          "internalType": "address",
          "name": "underlyingToken",
          "type": "address"
        },
        {
          "indexed": false,
          "internalType": "uint256",
          "name": "underlyingBalance",
          "type": "uint256"
        }
      ],
      "name": "CompoundRedeemed",
      "type": "event"
    },
    {
      "anonymous": false,
      "inputs": [
        {
          "indexed": true,
          "internalType": "address",
          "name": "previousOwner",
          "type": "address"
        },
        {
          "indexed": true,
          "internalType": "address",
          "name": "newOwner",
          "type": "address"
        }
      ],
      "name": "OwnershipTransferred",
      "type": "event"
    },
    {
      "constant": true,
      "inputs": [
        {
          "internalType": "address",
          "name": "cTokenAddress",
          "type": "address"
        }
      ],
      "name": "balanceOf",
      "outputs": [
        {
          "internalType": "uint256",
          "name": "",
          "type": "uint256"
        }
      ],
      "payable": false,
      "stateMutability": "view",
      "type": "function"
    },
    {
      "constant": true,
      "inputs": [
        {
          "internalType": "address",
          "name": "tokenAddress",
          "type": "address"
        }
      ],
      "name": "findTokenIndex",
      "outputs": [
        {
          "internalType": "int256",
          "name": "",
          "type": "int256"
        }
      ],
      "payable": false,
      "stateMutability": "view",
      "type": "function"
    },
    {
      "constant": true,
      "inputs": [],
      "name": "getTokens",
      "outputs": [
        {
          "internalType": "address[]",
          "name": "",
          "type": "address[]"
        }
      ],
      "payable": false,
      "stateMutability": "view",
      "type": "function"
    },
    {
      "constant": false,
      "inputs": [
        {
          "internalType": "address",
          "name": "sender",
          "type": "address"
        }
      ],
      "name": "initialize",
      "outputs": [],
      "payable": false,
      "stateMutability": "nonpayable",
      "type": "function"
    },
    {
      "constant": true,
      "inputs": [],
      "name": "isOwner",
      "outputs": [
        {
          "internalType": "bool",
          "name": "",
          "type": "bool"
        }
      ],
      "payable": false,
      "stateMutability": "view",
      "type": "function"
    },
    {
      "constant": false,
      "inputs": [
        {
          "internalType": "address",
          "name": "cTokenAddress",
          "type": "address"
        },
        {
          "internalType": "uint256",
          "name": "amount",
          "type": "uint256"
        }
      ],
      "name": "lend",
      "outputs": [],
      "payable": false,
      "stateMutability": "nonpayable",
      "type": "function"
    },
    {
      "constant": true,
      "inputs": [],
      "name": "owner",
      "outputs": [
        {
          "internalType": "address",
          "name": "",
          "type": "address"
        }
      ],
      "payable": false,
      "stateMutability": "view",
      "type": "function"
    },
    {
      "constant": false,
      "inputs": [
        {
          "internalType": "address",
          "name": "cTokenAddress",
          "type": "address"
        },
        {
          "internalType": "uint256",
          "name": "amount",
          "type": "uint256"
        }
      ],
      "name": "redeem",
      "outputs": [],
      "payable": false,
      "stateMutability": "nonpayable",
      "type": "function"
    },
    {
      "constant": false,
      "inputs": [
        {
          "internalType": "address",
          "name": "cTokenAddress",
          "type": "address"
        }
      ],
      "name": "redeemAll",
      "outputs": [],
      "payable": false,
      "stateMutability": "nonpayable",
      "type": "function"
    },
    {
      "constant": false,
      "inputs": [],
      "name": "renounceOwnership",
      "outputs": [],
      "payable": false,
      "stateMutability": "nonpayable",
      "type": "function"
    },
    {
      "constant": true,
      "inputs": [
        {
          "internalType": "bool",
          "name": "failTransaction",
          "type": "bool"
        }
      ],
      "name": "testFunction",
      "outputs": [],
      "payable": false,
      "stateMutability": "pure",
      "type": "function"
    },
    {
      "constant": false,
      "inputs": [
        {
          "internalType": "address",
          "name": "newOwner",
          "type": "address"
        }
      ],
      "name": "transferOwnership",
      "outputs": [],
      "payable": false,
      "stateMutability": "nonpayable",
      "type": "function"
    }
  ],
  "bytecode": "0x60806040523480156200001157600080fd5b5062000028336200002e60201b62000e9c1760201c565b62000137565b600054610100900460ff1680620000535750620000536001600160e01b036200013116565b8062000062575060005460ff16155b6200009f5760405162461bcd60e51b815260040180806020018281038252602e8152602001806200177d602e913960400191505060405180910390fd5b600054610100900460ff16158015620000cb576000805460ff1961ff0019909116610100171660011790555b603380546001600160a01b0319166001600160a01b0384811691909117918290556040519116906000907f8be0079c531659141344cd1fd0a4f28419497f9722a3daafe3b4186f6b6457e0908290a380156200012d576000805461ff00191690555b5050565b303b1590565b61163680620001476000396000f3fe608060405234801561001057600080fd5b50600436106100b45760003560e01c80638f32d59b116100715780638f32d59b14610190578063a2fb342d146101ac578063aa6ca808146101d8578063be399be514610230578063c4d66de814610256578063f2fde38b1461027c576100b4565b80630a11fd07146100b95780631e9a6950146100f157806370a082311461011f578063715018a6146101455780637216a0961461014d5780638da5cb5b1461016c575b600080fd5b6100df600480360360208110156100cf57600080fd5b50356001600160a01b03166102a2565b60408051918252519081900360200190f35b61011d6004803603604081101561010757600080fd5b506001600160a01b0381351690602001356102d2565b005b6100df6004803603602081101561013557600080fd5b50356001600160a01b0316610748565b61011d610759565b61011d6004803603602081101561016357600080fd5b503515156107ea565b610174610837565b604080516001600160a01b039092168252519081900360200190f35b610198610847565b604080519115158252519081900360200190f35b61011d600480360360408110156101c257600080fd5b506001600160a01b03813516906020013561086d565b6101e0610dd8565b60408051602080825283518183015283519192839290830191858101910280838360005b8381101561021c578181015183820152602001610204565b505050509050019250505060405180910390f35b61011d6004803603602081101561024657600080fd5b50356001600160a01b0316610e3a565b61011d6004803603602081101561026c57600080fd5b50356001600160a01b0316610e9c565b61011d6004803603602081101561029257600080fd5b50356001600160a01b0316610f8d565b600080806102b760668563ffffffff610fdd16565b91509150816102c8576000196102ca565b805b949350505050565b6102da610847565b610319576040805162461bcd60e51b815260206004820181905260248201526000805160206115b4833981519152604482015290519081900360640190fd5b61032b826001600160a01b0316611032565b61037c576040805162461bcd60e51b815260206004820152601f60248201527f43544f4b454e5f414444524553535f4d5553545f42455f434f4e545241435400604482015290519081900360640190fd5b806103868361106b565b10156103d9576040805162461bcd60e51b815260206004820152601d60248201527f434f4d504f554e445f494e53554646494349454e545f42414c414e4345000000604482015290519081900360640190fd5b60008290506000816001600160a01b0316636f307dc36040518163ffffffff1660e01b815260040160206040518083038186803b15801561041957600080fd5b505afa15801561042d573d6000803e3d6000fd5b505050506040513d602081101561044357600080fd5b5051604080516370a0823160e01b815230600482015290519192506000916001600160a01b038416916370a08231916024808301926020929190829003018186803b15801561049157600080fd5b505afa1580156104a5573d6000803e3d6000fd5b505050506040513d60208110156104bb57600080fd5b50516040805163852a12e360e01b81526004810187905290519192506000916001600160a01b0386169163852a12e391602480830192602092919082900301818787803b15801561050b57600080fd5b505af115801561051f573d6000803e3d6000fd5b505050506040513d602081101561053557600080fd5b50519050801561058c576040805162461bcd60e51b815260206004820152601960248201527f434f4d504f554e445f5749544844524157414c5f4552524f5200000000000000604482015290519081900360640190fd5b604080516370a0823160e01b815230600482015290516000916001600160a01b038616916370a0823191602480820192602092909190829003018186803b1580156105d657600080fd5b505afa1580156105ea573d6000803e3d6000fd5b505050506040513d602081101561060057600080fd5b5051905082860181101561065b576040805162461bcd60e51b815260206004820152601e60248201527f434f4d504f554e445f42414c414e43455f4e4f545f494e435245415345440000604482015290519081900360640190fd5b610664876110e7565b61066d846110e7565b604080516370a0823160e01b815230600482015290516000916001600160a01b038816916370a0823191602480820192602092909190829003018186803b1580156106b757600080fd5b505afa1580156106cb573d6000803e3d6000fd5b505050506040513d60208110156106e157600080fd5b505160408051898152602081018390526001600160a01b0388811682840152606082018690529151929350908a1691309133917fce453247da721847a3594553f305a8333be81c29872185f0a74444efdfb9983a9181900360800190a45050505050505050565b60006107538261106b565b92915050565b610761610847565b6107a0576040805162461bcd60e51b815260206004820181905260248201526000805160206115b4833981519152604482015290519081900360640190fd5b6033546040516000916001600160a01b0316907f8be0079c531659141344cd1fd0a4f28419497f9722a3daafe3b4186f6b6457e0908390a3603380546001600160a01b0319169055565b8015610834576040805162461bcd60e51b8152602060048201526014602482015273151154d517d1955390d51253d397d1905253115160621b604482015290519081900360640190fd5b50565b6033546001600160a01b03165b90565b6033546000906001600160a01b031661085e61114b565b6001600160a01b031614905090565b610875610847565b6108b4576040805162461bcd60e51b815260206004820181905260248201526000805160206115b4833981519152604482015290519081900360640190fd5b6108c6826001600160a01b0316611032565b610917576040805162461bcd60e51b815260206004820152601f60248201527f43544f4b454e5f414444524553535f4d5553545f42455f434f4e545241435400604482015290519081900360640190fd5b604080516370a0823160e01b8152306004820152905183916000916001600160a01b038416916370a08231916024808301926020929190829003018186803b15801561096257600080fd5b505afa158015610976573d6000803e3d6000fd5b505050506040513d602081101561098c57600080fd5b505160408051636f307dc360e01b815290519192506000916001600160a01b03851691636f307dc3916004808301926020929190829003018186803b1580156109d457600080fd5b505afa1580156109e8573d6000803e3d6000fd5b505050506040513d60208110156109fe57600080fd5b5051604080516370a0823160e01b8152306004820152905191925085916001600160a01b038416916370a08231916024808301926020929190829003018186803b158015610a4b57600080fd5b505afa158015610a5f573d6000803e3d6000fd5b505050506040513d6020811015610a7557600080fd5b50511015610aca576040805162461bcd60e51b815260206004820181905260248201527f434f4d504f554e445f494e53554646494349454e545f554e4445524c59494e47604482015290519081900360640190fd5b806001600160a01b031663095ea7b386866040518363ffffffff1660e01b815260040180836001600160a01b03166001600160a01b0316815260200182815260200192505050602060405180830381600087803b158015610b2a57600080fd5b505af1158015610b3e573d6000803e3d6000fd5b505050506040513d6020811015610b5457600080fd5b50506040805163140e25ad60e31b81526004810186905290516000916001600160a01b0386169163a0712d689160248082019260209290919082900301818787803b158015610ba257600080fd5b505af1158015610bb6573d6000803e3d6000fd5b505050506040513d6020811015610bcc57600080fd5b505190508015610c1c576040805162461bcd60e51b815260206004820152601660248201527521a7a6a827aaa7222fa222a827a9a4aa2fa2a92927a960511b604482015290519081900360640190fd5b604080516370a0823160e01b815230600482015290516000916001600160a01b038716916370a0823191602480820192602092909190829003018186803b158015610c6657600080fd5b505afa158015610c7a573d6000803e3d6000fd5b505050506040513d6020811015610c9057600080fd5b50519050838601811015610ceb576040805162461bcd60e51b815260206004820152601e60248201527f434f4d504f554e445f42414c414e43455f4e4f545f494e435245415345440000604482015290519081900360640190fd5b610cf4876110e7565b610cfd836110e7565b604080516370a0823160e01b815230600482015290516000916001600160a01b038616916370a0823191602480820192602092909190829003018186803b158015610d4757600080fd5b505afa158015610d5b573d6000803e3d6000fd5b505050506040513d6020811015610d7157600080fd5b505160408051898152602081018590526001600160a01b0387811682840152606082018490529151929350908a1691309133917f6d5b94dddb8537b8b8425d31b0fa29456819abe27cb1b43a29ef5809d8e4ffc29181900360800190a45050505050505050565b60606066805480602002602001604051908101604052809291908181526020018280548015610e3057602002820191906000526020600020905b81546001600160a01b03168152600190910190602001808311610e12575b5050505050905090565b610e42610847565b610e81576040805162461bcd60e51b815260206004820181905260248201526000805160206115b4833981519152604482015290519081900360640190fd5b6000610e8c8261106b565b9050610e9882826102d2565b5050565b600054610100900460ff1680610eb55750610eb561114f565b80610ec3575060005460ff16155b610efe5760405162461bcd60e51b815260040180806020018281038252602e8152602001806115d4602e913960400191505060405180910390fd5b600054610100900460ff16158015610f29576000805460ff1961ff0019909116610100171660011790555b603380546001600160a01b0319166001600160a01b0384811691909117918290556040519116906000907f8be0079c531659141344cd1fd0a4f28419497f9722a3daafe3b4186f6b6457e0908290a38015610e98576000805461ff00191690555050565b610f95610847565b610fd4576040805162461bcd60e51b815260206004820181905260248201526000805160206115b4833981519152604482015290519081900360640190fd5b61083481611155565b6000805b835481101561102b57826001600160a01b031684828154811061100057fe5b6000918252602090912001546001600160a01b031614915081156110235761102b565b600101610fe1565b9250929050565b6000813f7fc5d2460186f7233c927e7db2dcc703c0e500b653ca82273b7bfad8045d85a4708181148015906102ca575050151592915050565b604080516370a0823160e01b815230600482015290516000916001600160a01b038416916370a0823191602480820192602092909190829003018186803b1580156110b557600080fd5b505afa1580156110c9573d6000803e3d6000fd5b505050506040513d60208110156110df57600080fd5b505192915050565b6000806110fb60668463ffffffff610fdd16565b91509150600061110a8461106b565b111561112d57816111285761112660668463ffffffff6111f616565b505b611146565b81156111465761114460668263ffffffff6112df16565b505b505050565b3390565b303b1590565b6001600160a01b03811661119a5760405162461bcd60e51b815260040180806020018281038252602681526020018061158e6026913960400191505060405180910390fd5b6033546040516001600160a01b038084169216907f8be0079c531659141344cd1fd0a4f28419497f9722a3daafe3b4186f6b6457e090600090a3603380546001600160a01b0319166001600160a01b0392909216919091179055565b60606001600160a01b038216611253576040805162461bcd60e51b815260206004820152601960248201527f454d5054595f414444524553535f4e4f545f414c4c4f57454400000000000000604482015290519081900360640190fd5b8254600181018455600084815260209081902090910180546001600160a01b0319166001600160a01b03851617905583546040805182840281018401909152818152918591908301828280156112d257602002820191906000526020600020905b81546001600160a01b031681526001909101906020018083116112b4575b5050505050905092915050565b815460609082106113475782546040805160208084028201810190925282815291859183018282801561133b57602002820191906000526020600020905b81546001600160a01b0316815260019091019060200180831161131d575b50505050509050610753565b8254600019018214156113eb5782548390600019810190811061136657fe5b600091825260209091200180546001600160a01b0319169055825461138f846000198301611550565b5082546040805160208084028201810190925282815291859183018282801561133b576020028201919060005260206000209081546001600160a01b0316815260019091019060200180831161131d5750505050509050610753565b82546000908490600019810190811061140057fe5b60009182526020909120015484546001600160a01b03909116915084908490811061142757fe5b60009182526020909120015484546001600160a01b03909116908590600019810190811061145157fe5b9060005260206000200160006101000a8154816001600160a01b0302191690836001600160a01b031602179055508084848154811061148c57fe5b600091825260209091200180546001600160a01b0319166001600160a01b03929092169190911790558354849060001981019081106114c757fe5b600091825260209091200180546001600160a01b031916905583546114f0856000198301611550565b5083546040805160208084028201810190925282815291869183018282801561154257602002820191906000526020600020905b81546001600160a01b03168152600190910190602001808311611524575b505050505091505092915050565b8154818355818111156111465760008381526020902061114691810190830161084491905b808211156115895760008155600101611575565b509056fe4f776e61626c653a206e6577206f776e657220697320746865207a65726f20616464726573734f776e61626c653a2063616c6c6572206973206e6f7420746865206f776e6572436f6e747261637420696e7374616e63652068617320616c7265616479206265656e20696e697469616c697a6564a265627a7a723158208c36fdf616fb67758f64ba89f43f3f5ac60fcd478587f536e98649d48cc3372b64736f6c63430005110032436f6e747261637420696e7374616e63652068617320616c7265616479206265656e20696e697469616c697a6564",
  "source": "pragma solidity 0.5.17;\n\nimport \"../../../../base/escrow/dapps/Compound.sol\";\nimport \"./DappMock.sol\";\n\n/**\n    @notice This mock is used to expose a payable fallback function on tests.f\n */\ncontract CompoundMock is DappMock, Compound {\n    constructor() public {\n        Ownable.initialize(msg.sender);\n    }\n}\n",
  "sourcePath": "/Users/sy/Documents/GitHub/teller-protocol-v1/contracts/mock/base/escrow/dapps/CompoundMock.sol",
  "compiler": {
    "name": "solc",
    "version": "0.5.17+commit.d19bba13.Emscripten.clang"
  },
  "schemaVersion": "3.0.23",
  "updatedAt": "2020-09-15T21:09:31.344Z",
  "devdoc": {
    "methods": {
      "balanceOf(address)": {
        "params": {
          "cTokenAddress": "token address."
        },
        "return": "this contract's balance."
      },
      "initialize(address)": {
        "details": "Initializes the contract setting the deployer as the initial owner."
      },
      "isOwner()": {
        "details": "Returns true if the caller is the current owner."
      },
      "lend(address,uint256)": {
        "params": {
          "amount": "amount of tokens to mint. ",
          "cTokenAddress": "address of the token."
        }
      },
      "owner()": {
        "details": "Returns the address of the current owner."
      },
      "redeem(address,uint256)": {
        "params": {
          "amount": "amount of underlying tokens to redeem.",
          "cTokenAddress": "address of the token."
        }
      },
      "redeemAll(address)": {
        "params": {
          "cTokenAddress": "address of the token."
        }
      },
      "renounceOwnership()": {
        "details": "Leaves the contract without owner. It will not be possible to call `onlyOwner` functions anymore. Can only be called by the current owner.     * > Note: Renouncing ownership will leave the contract without an owner, thereby removing any functionality that is only available to the owner."
      },
      "transferOwnership(address)": {
        "details": "Transfers ownership of the contract to a new account (`newOwner`). Can only be called by the current owner."
      }
    }
  },
  "userdoc": {
    "methods": {
      "balanceOf(address)": {
        "notice": "Returns this contract's balance for the specified token."
      },
      "lend(address,uint256)": {
        "notice": "To lend we first have to approve the cToken to access the token balance then mint. "
      },
      "redeem(address,uint256)": {
        "notice": "This function calls Compound redeemUnderlying()."
      },
      "redeemAll(address)": {
        "notice": "This function redeems complete token balance."
      }
    },
    "notice": "This mock is used to expose a payable fallback function on tests.f"
  }
}