{
  "contractName": "Compound",
  "abi": [
    {
      "anonymous": false,
      "inputs": [
        {
          "indexed": true,
          "internalType": "address",
          "name": "sender",
          "type": "address"
        },
        {
          "indexed": true,
          "internalType": "address",
          "name": "dappAddress",
          "type": "address"
        },
        {
          "indexed": false,
          "internalType": "uint256",
          "name": "amount",
          "type": "uint256"
        },
        {
          "indexed": true,
          "internalType": "address",
          "name": "cToken",
          "type": "address"
        },
        {
          "indexed": false,
          "internalType": "uint256",
          "name": "cTokenBalance",
          "type": "uint256"
        },
        {
          "indexed": false,
          "internalType": "address",
          "name": "underlyingToken",
          "type": "address"
        },
        {
          "indexed": false,
          "internalType": "uint256",
          "name": "underlyingBalance",
          "type": "uint256"
        }
      ],
      "name": "CompoundLended",
      "type": "event"
    },
    {
      "anonymous": false,
      "inputs": [
        {
          "indexed": true,
          "internalType": "address",
          "name": "sender",
          "type": "address"
        },
        {
          "indexed": true,
          "internalType": "address",
          "name": "dappAddress",
          "type": "address"
        },
        {
          "indexed": false,
          "internalType": "uint256",
          "name": "amount",
          "type": "uint256"
        },
        {
          "indexed": true,
          "internalType": "address",
          "name": "cToken",
          "type": "address"
        },
        {
          "indexed": false,
          "internalType": "uint256",
          "name": "cTokenBalance",
          "type": "uint256"
        },
        {
          "indexed": false,
          "internalType": "address",
          "name": "underlyingToken",
          "type": "address"
        },
        {
          "indexed": false,
          "internalType": "uint256",
          "name": "underlyingBalance",
          "type": "uint256"
        }
      ],
      "name": "CompoundRedeemed",
      "type": "event"
    },
    {
      "anonymous": false,
      "inputs": [
        {
          "indexed": true,
          "internalType": "address",
          "name": "previousOwner",
          "type": "address"
        },
        {
          "indexed": true,
          "internalType": "address",
          "name": "newOwner",
          "type": "address"
        }
      ],
      "name": "OwnershipTransferred",
      "type": "event"
    },
    {
      "constant": true,
      "inputs": [
        {
          "internalType": "address",
          "name": "cTokenAddress",
          "type": "address"
        }
      ],
      "name": "balanceOf",
      "outputs": [
        {
          "internalType": "uint256",
          "name": "",
          "type": "uint256"
        }
      ],
      "payable": false,
      "stateMutability": "view",
      "type": "function"
    },
    {
      "constant": true,
      "inputs": [
        {
          "internalType": "address",
          "name": "tokenAddress",
          "type": "address"
        }
      ],
      "name": "findTokenIndex",
      "outputs": [
        {
          "internalType": "int256",
          "name": "",
          "type": "int256"
        }
      ],
      "payable": false,
      "stateMutability": "view",
      "type": "function"
    },
    {
      "constant": true,
      "inputs": [],
      "name": "getTokens",
      "outputs": [
        {
          "internalType": "address[]",
          "name": "",
          "type": "address[]"
        }
      ],
      "payable": false,
      "stateMutability": "view",
      "type": "function"
    },
    {
      "constant": false,
      "inputs": [
        {
          "internalType": "address",
          "name": "sender",
          "type": "address"
        }
      ],
      "name": "initialize",
      "outputs": [],
      "payable": false,
      "stateMutability": "nonpayable",
      "type": "function"
    },
    {
      "constant": true,
      "inputs": [],
      "name": "isOwner",
      "outputs": [
        {
          "internalType": "bool",
          "name": "",
          "type": "bool"
        }
      ],
      "payable": false,
      "stateMutability": "view",
      "type": "function"
    },
    {
      "constant": true,
      "inputs": [],
      "name": "owner",
      "outputs": [
        {
          "internalType": "address",
          "name": "",
          "type": "address"
        }
      ],
      "payable": false,
      "stateMutability": "view",
      "type": "function"
    },
    {
      "constant": false,
      "inputs": [],
      "name": "renounceOwnership",
      "outputs": [],
      "payable": false,
      "stateMutability": "nonpayable",
      "type": "function"
    },
    {
      "constant": false,
      "inputs": [
        {
          "internalType": "address",
          "name": "newOwner",
          "type": "address"
        }
      ],
      "name": "transferOwnership",
      "outputs": [],
      "payable": false,
      "stateMutability": "nonpayable",
      "type": "function"
    },
    {
      "constant": false,
      "inputs": [
        {
          "internalType": "address",
          "name": "cTokenAddress",
          "type": "address"
        },
        {
          "internalType": "uint256",
          "name": "amount",
          "type": "uint256"
        }
      ],
      "name": "lend",
      "outputs": [],
      "payable": false,
      "stateMutability": "nonpayable",
      "type": "function"
    },
    {
      "constant": false,
      "inputs": [
        {
          "internalType": "address",
          "name": "cTokenAddress",
          "type": "address"
        },
        {
          "internalType": "uint256",
          "name": "amount",
          "type": "uint256"
        }
      ],
      "name": "redeem",
      "outputs": [],
      "payable": false,
      "stateMutability": "nonpayable",
      "type": "function"
    },
    {
      "constant": false,
      "inputs": [
        {
          "internalType": "address",
          "name": "cTokenAddress",
          "type": "address"
        }
      ],
      "name": "redeemAll",
      "outputs": [],
      "payable": false,
      "stateMutability": "nonpayable",
      "type": "function"
    }
  ],
  "bytecode": "0x60806040526115c2806100136000396000f3fe608060405234801561001057600080fd5b50600436106100a95760003560e01c80638f32d59b116100715780638f32d59b14610166578063a2fb342d14610182578063aa6ca808146101ae578063be399be514610206578063c4d66de81461022c578063f2fde38b14610252576100a9565b80630a11fd07146100ae5780631e9a6950146100e657806370a0823114610114578063715018a61461013a5780638da5cb5b14610142575b600080fd5b6100d4600480360360208110156100c457600080fd5b50356001600160a01b0316610278565b60408051918252519081900360200190f35b610112600480360360408110156100fc57600080fd5b506001600160a01b0381351690602001356102a8565b005b6100d46004803603602081101561012a57600080fd5b50356001600160a01b031661071e565b61011261072f565b61014a6107c0565b604080516001600160a01b039092168252519081900360200190f35b61016e6107d0565b604080519115158252519081900360200190f35b6101126004803603604081101561019857600080fd5b506001600160a01b0381351690602001356107f6565b6101b6610d61565b60408051602080825283518183015283519192839290830191858101910280838360005b838110156101f25781810151838201526020016101da565b505050509050019250505060405180910390f35b6101126004803603602081101561021c57600080fd5b50356001600160a01b0316610dc3565b6101126004803603602081101561024257600080fd5b50356001600160a01b0316610e25565b6101126004803603602081101561026857600080fd5b50356001600160a01b0316610f16565b6000808061028d60668563ffffffff610f6916565b915091508161029e576000196102a0565b805b949350505050565b6102b06107d0565b6102ef576040805162461bcd60e51b81526020600482018190526024820152600080516020611540833981519152604482015290519081900360640190fd5b610301826001600160a01b0316610fbe565b610352576040805162461bcd60e51b815260206004820152601f60248201527f43544f4b454e5f414444524553535f4d5553545f42455f434f4e545241435400604482015290519081900360640190fd5b8061035c83610ff7565b10156103af576040805162461bcd60e51b815260206004820152601d60248201527f434f4d504f554e445f494e53554646494349454e545f42414c414e4345000000604482015290519081900360640190fd5b60008290506000816001600160a01b0316636f307dc36040518163ffffffff1660e01b815260040160206040518083038186803b1580156103ef57600080fd5b505afa158015610403573d6000803e3d6000fd5b505050506040513d602081101561041957600080fd5b5051604080516370a0823160e01b815230600482015290519192506000916001600160a01b038416916370a08231916024808301926020929190829003018186803b15801561046757600080fd5b505afa15801561047b573d6000803e3d6000fd5b505050506040513d602081101561049157600080fd5b50516040805163852a12e360e01b81526004810187905290519192506000916001600160a01b0386169163852a12e391602480830192602092919082900301818787803b1580156104e157600080fd5b505af11580156104f5573d6000803e3d6000fd5b505050506040513d602081101561050b57600080fd5b505190508015610562576040805162461bcd60e51b815260206004820152601960248201527f434f4d504f554e445f5749544844524157414c5f4552524f5200000000000000604482015290519081900360640190fd5b604080516370a0823160e01b815230600482015290516000916001600160a01b038616916370a0823191602480820192602092909190829003018186803b1580156105ac57600080fd5b505afa1580156105c0573d6000803e3d6000fd5b505050506040513d60208110156105d657600080fd5b50519050828601811015610631576040805162461bcd60e51b815260206004820152601e60248201527f434f4d504f554e445f42414c414e43455f4e4f545f494e435245415345440000604482015290519081900360640190fd5b61063a87611073565b61064384611073565b604080516370a0823160e01b815230600482015290516000916001600160a01b038816916370a0823191602480820192602092909190829003018186803b15801561068d57600080fd5b505afa1580156106a1573d6000803e3d6000fd5b505050506040513d60208110156106b757600080fd5b505160408051898152602081018390526001600160a01b0388811682840152606082018690529151929350908a1691309133917fce453247da721847a3594553f305a8333be81c29872185f0a74444efdfb9983a9181900360800190a45050505050505050565b600061072982610ff7565b92915050565b6107376107d0565b610776576040805162461bcd60e51b81526020600482018190526024820152600080516020611540833981519152604482015290519081900360640190fd5b6033546040516000916001600160a01b0316907f8be0079c531659141344cd1fd0a4f28419497f9722a3daafe3b4186f6b6457e0908390a3603380546001600160a01b0319169055565b6033546001600160a01b03165b90565b6033546000906001600160a01b03166107e76110d7565b6001600160a01b031614905090565b6107fe6107d0565b61083d576040805162461bcd60e51b81526020600482018190526024820152600080516020611540833981519152604482015290519081900360640190fd5b61084f826001600160a01b0316610fbe565b6108a0576040805162461bcd60e51b815260206004820152601f60248201527f43544f4b454e5f414444524553535f4d5553545f42455f434f4e545241435400604482015290519081900360640190fd5b604080516370a0823160e01b8152306004820152905183916000916001600160a01b038416916370a08231916024808301926020929190829003018186803b1580156108eb57600080fd5b505afa1580156108ff573d6000803e3d6000fd5b505050506040513d602081101561091557600080fd5b505160408051636f307dc360e01b815290519192506000916001600160a01b03851691636f307dc3916004808301926020929190829003018186803b15801561095d57600080fd5b505afa158015610971573d6000803e3d6000fd5b505050506040513d602081101561098757600080fd5b5051604080516370a0823160e01b8152306004820152905191925085916001600160a01b038416916370a08231916024808301926020929190829003018186803b1580156109d457600080fd5b505afa1580156109e8573d6000803e3d6000fd5b505050506040513d60208110156109fe57600080fd5b50511015610a53576040805162461bcd60e51b815260206004820181905260248201527f434f4d504f554e445f494e53554646494349454e545f554e4445524c59494e47604482015290519081900360640190fd5b806001600160a01b031663095ea7b386866040518363ffffffff1660e01b815260040180836001600160a01b03166001600160a01b0316815260200182815260200192505050602060405180830381600087803b158015610ab357600080fd5b505af1158015610ac7573d6000803e3d6000fd5b505050506040513d6020811015610add57600080fd5b50506040805163140e25ad60e31b81526004810186905290516000916001600160a01b0386169163a0712d689160248082019260209290919082900301818787803b158015610b2b57600080fd5b505af1158015610b3f573d6000803e3d6000fd5b505050506040513d6020811015610b5557600080fd5b505190508015610ba5576040805162461bcd60e51b815260206004820152601660248201527521a7a6a827aaa7222fa222a827a9a4aa2fa2a92927a960511b604482015290519081900360640190fd5b604080516370a0823160e01b815230600482015290516000916001600160a01b038716916370a0823191602480820192602092909190829003018186803b158015610bef57600080fd5b505afa158015610c03573d6000803e3d6000fd5b505050506040513d6020811015610c1957600080fd5b50519050838601811015610c74576040805162461bcd60e51b815260206004820152601e60248201527f434f4d504f554e445f42414c414e43455f4e4f545f494e435245415345440000604482015290519081900360640190fd5b610c7d87611073565b610c8683611073565b604080516370a0823160e01b815230600482015290516000916001600160a01b038616916370a0823191602480820192602092909190829003018186803b158015610cd057600080fd5b505afa158015610ce4573d6000803e3d6000fd5b505050506040513d6020811015610cfa57600080fd5b505160408051898152602081018590526001600160a01b0387811682840152606082018490529151929350908a1691309133917f6d5b94dddb8537b8b8425d31b0fa29456819abe27cb1b43a29ef5809d8e4ffc29181900360800190a45050505050505050565b60606066805480602002602001604051908101604052809291908181526020018280548015610db957602002820191906000526020600020905b81546001600160a01b03168152600190910190602001808311610d9b575b5050505050905090565b610dcb6107d0565b610e0a576040805162461bcd60e51b81526020600482018190526024820152600080516020611540833981519152604482015290519081900360640190fd5b6000610e1582610ff7565b9050610e2182826102a8565b5050565b600054610100900460ff1680610e3e5750610e3e6110db565b80610e4c575060005460ff16155b610e875760405162461bcd60e51b815260040180806020018281038252602e815260200180611560602e913960400191505060405180910390fd5b600054610100900460ff16158015610eb2576000805460ff1961ff0019909116610100171660011790555b603380546001600160a01b0319166001600160a01b0384811691909117918290556040519116906000907f8be0079c531659141344cd1fd0a4f28419497f9722a3daafe3b4186f6b6457e0908290a38015610e21576000805461ff00191690555050565b610f1e6107d0565b610f5d576040805162461bcd60e51b81526020600482018190526024820152600080516020611540833981519152604482015290519081900360640190fd5b610f66816110e1565b50565b6000805b8354811015610fb757826001600160a01b0316848281548110610f8c57fe5b6000918252602090912001546001600160a01b03161491508115610faf57610fb7565b600101610f6d565b9250929050565b6000813f7fc5d2460186f7233c927e7db2dcc703c0e500b653ca82273b7bfad8045d85a4708181148015906102a0575050151592915050565b604080516370a0823160e01b815230600482015290516000916001600160a01b038416916370a0823191602480820192602092909190829003018186803b15801561104157600080fd5b505afa158015611055573d6000803e3d6000fd5b505050506040513d602081101561106b57600080fd5b505192915050565b60008061108760668463ffffffff610f6916565b91509150600061109684610ff7565b11156110b957816110b4576110b260668463ffffffff61118216565b505b6110d2565b81156110d2576110d060668263ffffffff61126b16565b505b505050565b3390565b303b1590565b6001600160a01b0381166111265760405162461bcd60e51b815260040180806020018281038252602681526020018061151a6026913960400191505060405180910390fd5b6033546040516001600160a01b038084169216907f8be0079c531659141344cd1fd0a4f28419497f9722a3daafe3b4186f6b6457e090600090a3603380546001600160a01b0319166001600160a01b0392909216919091179055565b60606001600160a01b0382166111df576040805162461bcd60e51b815260206004820152601960248201527f454d5054595f414444524553535f4e4f545f414c4c4f57454400000000000000604482015290519081900360640190fd5b8254600181018455600084815260209081902090910180546001600160a01b0319166001600160a01b038516179055835460408051828402810184019091528181529185919083018282801561125e57602002820191906000526020600020905b81546001600160a01b03168152600190910190602001808311611240575b5050505050905092915050565b815460609082106112d3578254604080516020808402820181019092528281529185918301828280156112c757602002820191906000526020600020905b81546001600160a01b031681526001909101906020018083116112a9575b50505050509050610729565b825460001901821415611377578254839060001981019081106112f257fe5b600091825260209091200180546001600160a01b0319169055825461131b8460001983016114dc565b508254604080516020808402820181019092528281529185918301828280156112c7576020028201919060005260206000209081546001600160a01b031681526001909101906020018083116112a95750505050509050610729565b82546000908490600019810190811061138c57fe5b60009182526020909120015484546001600160a01b0390911691508490849081106113b357fe5b60009182526020909120015484546001600160a01b0390911690859060001981019081106113dd57fe5b9060005260206000200160006101000a8154816001600160a01b0302191690836001600160a01b031602179055508084848154811061141857fe5b600091825260209091200180546001600160a01b0319166001600160a01b039290921691909117905583548490600019810190811061145357fe5b600091825260209091200180546001600160a01b0319169055835461147c8560001983016114dc565b508354604080516020808402820181019092528281529186918301828280156114ce57602002820191906000526020600020905b81546001600160a01b031681526001909101906020018083116114b0575b505050505091505092915050565b8154818355818111156110d2576000838152602090206110d29181019083016107cd91905b808211156115155760008155600101611501565b509056fe4f776e61626c653a206e6577206f776e657220697320746865207a65726f20616464726573734f776e61626c653a2063616c6c6572206973206e6f7420746865206f776e6572436f6e747261637420696e7374616e63652068617320616c7265616479206265656e20696e697469616c697a6564a265627a7a7231582093fbf84b8efce85e97100875525cbf70ea339e7d83d1074f8868059bc2f5ed3064736f6c63430005110032",
  "source": "pragma solidity 0.5.17;\n\n// External Libraries\nimport \"@openzeppelin/contracts-ethereum-package/contracts/token/ERC20/IERC20.sol\";\nimport \"@openzeppelin/contracts-ethereum-package/contracts/utils/Address.sol\";\n\n// Common\nimport \"../../../util/AddressLib.sol\";\n\n//Contracts\nimport \"../../BaseEscrowDapp.sol\";\n\n// Interfaces\nimport \"./ICompound.sol\";\nimport \"../../../providers/compound/CErc20Interface.sol\";\n\n/*****************************************************************************************************/\n/**                                             WARNING                                             **/\n/**                      DAPP CONTRACT IS AN EXTENSION OF THE ESCROW CONTRACT                       **/\n/**  ---------------------------------------------------------------------------------------------  **/\n/**  Because there are multiple dApp contracts, and they all extend the Escrow contract that is     **/\n/**  itself upgradeable, they cannot have their own storage variables as they would cause the the   **/\n/**  storage slots to be overwritten on the Escrow proxy contract!                                  **/\n/**                                                                                                 **/\n/**  Visit https://docs.openzeppelin.com/upgrades/2.6/proxies#upgrading-via-the-proxy-pattern for   **/\n/**  more information.                                                                              **/\n/*****************************************************************************************************/\n/**\n    @notice This contract is used to define Compound dApp actions available. All dapp actions are invoked via \n        delegatecalls from Escrow contract, so this contract's state is really Escrow. \n    @author develop@teller.finance\n */\ncontract Compound is ICompound, BaseEscrowDapp {\n    using AddressLib for address;\n    using Address for address;\n\n    /* State Variables */\n    // State is shared with Escrow contract as it uses delegateCall() to interact with this contract.\n\n    /**\n        @notice To lend we first have to approve the cToken to access the token balance then mint. \n        @param cTokenAddress address of the token.\n        @param amount amount of tokens to mint. \n    */\n    function lend(address cTokenAddress, uint256 amount) public onlyOwner() {\n        require(cTokenAddress.isContract(), \"CTOKEN_ADDRESS_MUST_BE_CONTRACT\");\n        CErc20Interface cToken = CErc20Interface(cTokenAddress);\n        uint256 balanceBeforeMint = cToken.balanceOf(address(this));\n        IERC20 underlying = IERC20(cToken.underlying());\n        require(\n            underlying.balanceOf(address(this)) >= amount,\n            \"COMPOUND_INSUFFICIENT_UNDERLYING\"\n        );\n\n        underlying.approve(cTokenAddress, amount);\n        uint256 result = cToken.mint(amount);\n        require(result == 0, \"COMPOUND_DEPOSIT_ERROR\");\n\n        uint256 balanceAfterMint = cToken.balanceOf(address(this));\n        require(\n            balanceAfterMint >= (balanceBeforeMint + amount),\n            \"COMPOUND_BALANCE_NOT_INCREASED\"\n        );\n\n        _tokenUpdated(cTokenAddress);\n        _tokenUpdated(address(underlying));\n\n        uint256 underlyingBalance = underlying.balanceOf(address(this));\n        emit CompoundLended(\n            msg.sender,\n            address(this),\n            amount,\n            cTokenAddress,\n            balanceAfterMint,\n            address(underlying),\n            underlyingBalance\n        );\n    }\n\n    /**\n        @notice This function calls Compound redeemUnderlying().\n        @param cTokenAddress address of the token.\n        @param amount amount of underlying tokens to redeem.\n    */\n    function redeem(address cTokenAddress, uint256 amount) public onlyOwner() {\n        require(cTokenAddress.isContract(), \"CTOKEN_ADDRESS_MUST_BE_CONTRACT\");\n        require(_balanceOf(cTokenAddress) >= amount, \"COMPOUND_INSUFFICIENT_BALANCE\");\n        CErc20Interface cToken = CErc20Interface(cTokenAddress);\n        IERC20 underlying = IERC20(cToken.underlying());\n        uint256 balanceBeforeRedeem = underlying.balanceOf(address(this));\n\n        uint256 result = cToken.redeemUnderlying(amount);\n        require(result == 0, \"COMPOUND_WITHDRAWAL_ERROR\");\n\n        uint256 underlyingBalanceAfterRedeem = underlying.balanceOf(address(this));\n        require(\n            underlyingBalanceAfterRedeem >= (balanceBeforeRedeem + amount),\n            \"COMPOUND_BALANCE_NOT_INCREASED\"\n        );\n\n        _tokenUpdated(cTokenAddress);\n        _tokenUpdated(address(underlying));\n\n        uint256 cTokenBalanceAfterRedeem = cToken.balanceOf(address(this));\n        emit CompoundRedeemed(\n            msg.sender,\n            address(this),\n            amount,\n            cTokenAddress,\n            cTokenBalanceAfterRedeem,\n            address(underlying),\n            underlyingBalanceAfterRedeem\n        );\n    }\n\n    /**\n        @notice This function redeems complete token balance.\n        @param cTokenAddress address of the token.\n    */\n    function redeemAll(address cTokenAddress) public onlyOwner() {\n        uint256 amount = _balanceOf(cTokenAddress);\n        redeem(cTokenAddress, amount);\n    }\n}\n",
  "sourcePath": "/Users/sy/Documents/GitHub/teller-protocol-v1/contracts/base/escrow/dapps/Compound.sol",
  "compiler": {
    "name": "solc",
    "version": "0.5.17+commit.d19bba13.Emscripten.clang"
  },
  "schemaVersion": "3.0.23",
  "updatedAt": "2020-09-15T21:09:31.245Z",
  "devdoc": {
    "author": "develop@teller.finance",
    "methods": {
      "balanceOf(address)": {
        "params": {
          "cTokenAddress": "token address."
        },
        "return": "this contract's balance."
      },
      "initialize(address)": {
        "details": "Initializes the contract setting the deployer as the initial owner."
      },
      "isOwner()": {
        "details": "Returns true if the caller is the current owner."
      },
      "lend(address,uint256)": {
        "params": {
          "amount": "amount of tokens to mint. ",
          "cTokenAddress": "address of the token."
        }
      },
      "owner()": {
        "details": "Returns the address of the current owner."
      },
      "redeem(address,uint256)": {
        "params": {
          "amount": "amount of underlying tokens to redeem.",
          "cTokenAddress": "address of the token."
        }
      },
      "redeemAll(address)": {
        "params": {
          "cTokenAddress": "address of the token."
        }
      },
      "renounceOwnership()": {
        "details": "Leaves the contract without owner. It will not be possible to call `onlyOwner` functions anymore. Can only be called by the current owner.     * > Note: Renouncing ownership will leave the contract without an owner, thereby removing any functionality that is only available to the owner."
      },
      "transferOwnership(address)": {
        "details": "Transfers ownership of the contract to a new account (`newOwner`). Can only be called by the current owner."
      }
    }
  },
  "userdoc": {
    "methods": {
      "balanceOf(address)": {
        "notice": "Returns this contract's balance for the specified token."
      },
      "lend(address,uint256)": {
        "notice": "To lend we first have to approve the cToken to access the token balance then mint. "
      },
      "redeem(address,uint256)": {
        "notice": "This function calls Compound redeemUnderlying()."
      },
      "redeemAll(address)": {
        "notice": "This function redeems complete token balance."
      }
    },
    "notice": "This contract is used to define Compound dApp actions available. All dapp actions are invoked via  delegatecalls from Escrow contract, so this contract's state is really Escrow. "
  }
}