{
  "contractName": "CompoundMock",
  "abi": [
    {
      "inputs": [],
      "payable": false,
      "stateMutability": "nonpayable",
      "type": "constructor"
    },
    {
      "anonymous": false,
      "inputs": [
        {
          "indexed": true,
          "internalType": "address",
          "name": "sender",
          "type": "address"
        },
        {
          "indexed": true,
          "internalType": "address",
          "name": "dappAddress",
          "type": "address"
        },
        {
          "indexed": false,
          "internalType": "uint256",
          "name": "amount",
          "type": "uint256"
        },
        {
          "indexed": true,
          "internalType": "address",
          "name": "cToken",
          "type": "address"
        },
        {
          "indexed": false,
          "internalType": "uint256",
          "name": "cTokenBalance",
          "type": "uint256"
        },
        {
          "indexed": false,
          "internalType": "address",
          "name": "underlyingToken",
          "type": "address"
        },
        {
          "indexed": false,
          "internalType": "uint256",
          "name": "underlyingBalance",
          "type": "uint256"
        }
      ],
      "name": "CompoundLended",
      "type": "event"
    },
    {
      "anonymous": false,
      "inputs": [
        {
          "indexed": true,
          "internalType": "address",
          "name": "sender",
          "type": "address"
        },
        {
          "indexed": true,
          "internalType": "address",
          "name": "dappAddress",
          "type": "address"
        },
        {
          "indexed": false,
          "internalType": "uint256",
          "name": "amount",
          "type": "uint256"
        },
        {
          "indexed": true,
          "internalType": "address",
          "name": "cToken",
          "type": "address"
        },
        {
          "indexed": false,
          "internalType": "uint256",
          "name": "cTokenBalance",
          "type": "uint256"
        },
        {
          "indexed": false,
          "internalType": "address",
          "name": "underlyingToken",
          "type": "address"
        },
        {
          "indexed": false,
          "internalType": "uint256",
          "name": "underlyingBalance",
          "type": "uint256"
        }
      ],
      "name": "CompoundRedeemed",
      "type": "event"
    },
    {
      "anonymous": false,
      "inputs": [
        {
          "indexed": true,
          "internalType": "address",
          "name": "previousOwner",
          "type": "address"
        },
        {
          "indexed": true,
          "internalType": "address",
          "name": "newOwner",
          "type": "address"
        }
      ],
      "name": "OwnershipTransferred",
      "type": "event"
    },
    {
      "constant": true,
      "inputs": [
        {
          "internalType": "address",
          "name": "tokenAddress",
          "type": "address"
        }
      ],
      "name": "findTokenIndex",
      "outputs": [
        {
          "internalType": "int256",
          "name": "",
          "type": "int256"
        }
      ],
      "payable": false,
      "stateMutability": "view",
      "type": "function"
    },
    {
      "constant": true,
      "inputs": [],
      "name": "getTokens",
      "outputs": [
        {
          "internalType": "address[]",
          "name": "",
          "type": "address[]"
        }
      ],
      "payable": false,
      "stateMutability": "view",
      "type": "function"
    },
    {
      "constant": true,
      "inputs": [],
      "name": "implementation",
      "outputs": [
        {
          "internalType": "address",
          "name": "",
          "type": "address"
        }
      ],
      "payable": false,
      "stateMutability": "view",
      "type": "function"
    },
    {
      "constant": false,
      "inputs": [
        {
          "internalType": "address",
          "name": "sender",
          "type": "address"
        }
      ],
      "name": "initialize",
      "outputs": [],
      "payable": false,
      "stateMutability": "nonpayable",
      "type": "function"
    },
    {
      "constant": true,
      "inputs": [],
      "name": "isOwner",
      "outputs": [
        {
          "internalType": "bool",
          "name": "",
          "type": "bool"
        }
      ],
      "payable": false,
      "stateMutability": "view",
      "type": "function"
    },
    {
      "constant": false,
      "inputs": [
        {
          "internalType": "address",
          "name": "cTokenAddress",
          "type": "address"
        },
        {
          "internalType": "uint256",
          "name": "amount",
          "type": "uint256"
        }
      ],
      "name": "lend",
      "outputs": [],
      "payable": false,
      "stateMutability": "nonpayable",
      "type": "function"
    },
    {
      "constant": true,
      "inputs": [],
      "name": "owner",
      "outputs": [
        {
          "internalType": "address",
          "name": "",
          "type": "address"
        }
      ],
      "payable": false,
      "stateMutability": "view",
      "type": "function"
    },
    {
      "constant": false,
      "inputs": [
        {
          "internalType": "address",
          "name": "cTokenAddress",
          "type": "address"
        },
        {
          "internalType": "uint256",
          "name": "amount",
          "type": "uint256"
        }
      ],
      "name": "redeem",
      "outputs": [],
      "payable": false,
      "stateMutability": "nonpayable",
      "type": "function"
    },
    {
      "constant": false,
      "inputs": [
        {
          "internalType": "address",
          "name": "cTokenAddress",
          "type": "address"
        }
      ],
      "name": "redeemAll",
      "outputs": [],
      "payable": false,
      "stateMutability": "nonpayable",
      "type": "function"
    },
    {
      "constant": false,
      "inputs": [],
      "name": "renounceOwnership",
      "outputs": [],
      "payable": false,
      "stateMutability": "nonpayable",
      "type": "function"
    },
    {
      "constant": true,
      "inputs": [
        {
          "internalType": "bool",
          "name": "failTransaction",
          "type": "bool"
        }
      ],
      "name": "testFunction",
      "outputs": [],
      "payable": false,
      "stateMutability": "pure",
      "type": "function"
    },
    {
      "constant": false,
      "inputs": [
        {
          "internalType": "address",
          "name": "newOwner",
          "type": "address"
        }
      ],
      "name": "transferOwnership",
      "outputs": [],
      "payable": false,
      "stateMutability": "nonpayable",
      "type": "function"
    }
  ],
  "bytecode": "0x60806040523480156200001157600080fd5b5062000028336200002e60201b62000e711760201c565b62000137565b600054610100900460ff1680620000535750620000536001600160e01b036200013116565b8062000062575060005460ff16155b6200009f5760405162461bcd60e51b815260040180806020018281038252602e81526020018062001753602e913960400191505060405180910390fd5b600054610100900460ff16158015620000cb576000805460ff1961ff0019909116610100171660011790555b603380546001600160a01b0319166001600160a01b0384811691909117918290556040519116906000907f8be0079c531659141344cd1fd0a4f28419497f9722a3daafe3b4186f6b6457e0908290a380156200012d576000805461ff00191690555b5050565b303b1590565b61160c80620001476000396000f3fe608060405234801561001057600080fd5b50600436106100b45760003560e01c80638f32d59b116100715780638f32d59b14610172578063a2fb342d1461018e578063aa6ca808146101ba578063be399be514610212578063c4d66de814610238578063f2fde38b1461025e576100b4565b80630a11fd07146100b95780631e9a6950146100f15780635c60da1b1461011f578063715018a6146101435780637216a0961461014b5780638da5cb5b1461016a575b600080fd5b6100df600480360360208110156100cf57600080fd5b50356001600160a01b0316610284565b60408051918252519081900360200190f35b61011d6004803603604081101561010757600080fd5b506001600160a01b0381351690602001356102b4565b005b61012761072a565b604080516001600160a01b039092168252519081900360200190f35b61011d61072f565b61011d6004803603602081101561016157600080fd5b503515156107c0565b61012761080d565b61017a61081c565b604080519115158252519081900360200190f35b61011d600480360360408110156101a457600080fd5b506001600160a01b038135169060200135610842565b6101c2610dad565b60408051602080825283518183015283519192839290830191858101910280838360005b838110156101fe5781810151838201526020016101e6565b505050509050019250505060405180910390f35b61011d6004803603602081101561022857600080fd5b50356001600160a01b0316610e0f565b61011d6004803603602081101561024e57600080fd5b50356001600160a01b0316610e71565b61011d6004803603602081101561027457600080fd5b50356001600160a01b0316610f62565b6000808061029960668563ffffffff610fb216565b91509150816102aa576000196102ac565b805b949350505050565b6102bc61081c565b6102fb576040805162461bcd60e51b8152602060048201819052602482015260008051602061158a833981519152604482015290519081900360640190fd5b61030d826001600160a01b0316611007565b61035e576040805162461bcd60e51b815260206004820152601f60248201527f43544f4b454e5f414444524553535f4d5553545f42455f434f4e545241435400604482015290519081900360640190fd5b8061036883611040565b10156103bb576040805162461bcd60e51b815260206004820152601d60248201527f434f4d504f554e445f494e53554646494349454e545f42414c414e4345000000604482015290519081900360640190fd5b60008290506000816001600160a01b0316636f307dc36040518163ffffffff1660e01b815260040160206040518083038186803b1580156103fb57600080fd5b505afa15801561040f573d6000803e3d6000fd5b505050506040513d602081101561042557600080fd5b5051604080516370a0823160e01b815230600482015290519192506000916001600160a01b038416916370a08231916024808301926020929190829003018186803b15801561047357600080fd5b505afa158015610487573d6000803e3d6000fd5b505050506040513d602081101561049d57600080fd5b50516040805163852a12e360e01b81526004810187905290519192506000916001600160a01b0386169163852a12e391602480830192602092919082900301818787803b1580156104ed57600080fd5b505af1158015610501573d6000803e3d6000fd5b505050506040513d602081101561051757600080fd5b50519050801561056e576040805162461bcd60e51b815260206004820152601960248201527f434f4d504f554e445f5749544844524157414c5f4552524f5200000000000000604482015290519081900360640190fd5b604080516370a0823160e01b815230600482015290516000916001600160a01b038616916370a0823191602480820192602092909190829003018186803b1580156105b857600080fd5b505afa1580156105cc573d6000803e3d6000fd5b505050506040513d60208110156105e257600080fd5b5051905082860181101561063d576040805162461bcd60e51b815260206004820152601e60248201527f434f4d504f554e445f42414c414e43455f4e4f545f494e435245415345440000604482015290519081900360640190fd5b610646876110bc565b61064f846110bc565b604080516370a0823160e01b815230600482015290516000916001600160a01b038816916370a0823191602480820192602092909190829003018186803b15801561069957600080fd5b505afa1580156106ad573d6000803e3d6000fd5b505050506040513d60208110156106c357600080fd5b505160408051898152602081018390526001600160a01b0388811682840152606082018690529151929350908a1691309133917fce453247da721847a3594553f305a8333be81c29872185f0a74444efdfb9983a9181900360800190a45050505050505050565b305b90565b61073761081c565b610776576040805162461bcd60e51b8152602060048201819052602482015260008051602061158a833981519152604482015290519081900360640190fd5b6033546040516000916001600160a01b0316907f8be0079c531659141344cd1fd0a4f28419497f9722a3daafe3b4186f6b6457e0908390a3603380546001600160a01b0319169055565b801561080a576040805162461bcd60e51b8152602060048201526014602482015273151154d517d1955390d51253d397d1905253115160621b604482015290519081900360640190fd5b50565b6033546001600160a01b031690565b6033546000906001600160a01b0316610833611120565b6001600160a01b031614905090565b61084a61081c565b610889576040805162461bcd60e51b8152602060048201819052602482015260008051602061158a833981519152604482015290519081900360640190fd5b61089b826001600160a01b0316611007565b6108ec576040805162461bcd60e51b815260206004820152601f60248201527f43544f4b454e5f414444524553535f4d5553545f42455f434f4e545241435400604482015290519081900360640190fd5b604080516370a0823160e01b8152306004820152905183916000916001600160a01b038416916370a08231916024808301926020929190829003018186803b15801561093757600080fd5b505afa15801561094b573d6000803e3d6000fd5b505050506040513d602081101561096157600080fd5b505160408051636f307dc360e01b815290519192506000916001600160a01b03851691636f307dc3916004808301926020929190829003018186803b1580156109a957600080fd5b505afa1580156109bd573d6000803e3d6000fd5b505050506040513d60208110156109d357600080fd5b5051604080516370a0823160e01b8152306004820152905191925085916001600160a01b038416916370a08231916024808301926020929190829003018186803b158015610a2057600080fd5b505afa158015610a34573d6000803e3d6000fd5b505050506040513d6020811015610a4a57600080fd5b50511015610a9f576040805162461bcd60e51b815260206004820181905260248201527f434f4d504f554e445f494e53554646494349454e545f554e4445524c59494e47604482015290519081900360640190fd5b806001600160a01b031663095ea7b386866040518363ffffffff1660e01b815260040180836001600160a01b03166001600160a01b0316815260200182815260200192505050602060405180830381600087803b158015610aff57600080fd5b505af1158015610b13573d6000803e3d6000fd5b505050506040513d6020811015610b2957600080fd5b50506040805163140e25ad60e31b81526004810186905290516000916001600160a01b0386169163a0712d689160248082019260209290919082900301818787803b158015610b7757600080fd5b505af1158015610b8b573d6000803e3d6000fd5b505050506040513d6020811015610ba157600080fd5b505190508015610bf1576040805162461bcd60e51b815260206004820152601660248201527521a7a6a827aaa7222fa222a827a9a4aa2fa2a92927a960511b604482015290519081900360640190fd5b604080516370a0823160e01b815230600482015290516000916001600160a01b038716916370a0823191602480820192602092909190829003018186803b158015610c3b57600080fd5b505afa158015610c4f573d6000803e3d6000fd5b505050506040513d6020811015610c6557600080fd5b50519050838601811015610cc0576040805162461bcd60e51b815260206004820152601e60248201527f434f4d504f554e445f42414c414e43455f4e4f545f494e435245415345440000604482015290519081900360640190fd5b610cc9876110bc565b610cd2836110bc565b604080516370a0823160e01b815230600482015290516000916001600160a01b038616916370a0823191602480820192602092909190829003018186803b158015610d1c57600080fd5b505afa158015610d30573d6000803e3d6000fd5b505050506040513d6020811015610d4657600080fd5b505160408051898152602081018590526001600160a01b0387811682840152606082018490529151929350908a1691309133917f6d5b94dddb8537b8b8425d31b0fa29456819abe27cb1b43a29ef5809d8e4ffc29181900360800190a45050505050505050565b60606066805480602002602001604051908101604052809291908181526020018280548015610e0557602002820191906000526020600020905b81546001600160a01b03168152600190910190602001808311610de7575b5050505050905090565b610e1761081c565b610e56576040805162461bcd60e51b8152602060048201819052602482015260008051602061158a833981519152604482015290519081900360640190fd5b6000610e6182611040565b9050610e6d82826102b4565b5050565b600054610100900460ff1680610e8a5750610e8a611124565b80610e98575060005460ff16155b610ed35760405162461bcd60e51b815260040180806020018281038252602e8152602001806115aa602e913960400191505060405180910390fd5b600054610100900460ff16158015610efe576000805460ff1961ff0019909116610100171660011790555b603380546001600160a01b0319166001600160a01b0384811691909117918290556040519116906000907f8be0079c531659141344cd1fd0a4f28419497f9722a3daafe3b4186f6b6457e0908290a38015610e6d576000805461ff00191690555050565b610f6a61081c565b610fa9576040805162461bcd60e51b8152602060048201819052602482015260008051602061158a833981519152604482015290519081900360640190fd5b61080a8161112a565b6000805b835481101561100057826001600160a01b0316848281548110610fd557fe5b6000918252602090912001546001600160a01b03161491508115610ff857611000565b600101610fb6565b9250929050565b6000813f7fc5d2460186f7233c927e7db2dcc703c0e500b653ca82273b7bfad8045d85a4708181148015906102ac575050151592915050565b604080516370a0823160e01b815230600482015290516000916001600160a01b038416916370a0823191602480820192602092909190829003018186803b15801561108a57600080fd5b505afa15801561109e573d6000803e3d6000fd5b505050506040513d60208110156110b457600080fd5b505192915050565b6000806110d060668463ffffffff610fb216565b9150915060006110df84611040565b111561110257816110fd576110fb60668463ffffffff6111cb16565b505b61111b565b811561111b5761111960668263ffffffff6112b516565b505b505050565b3390565b303b1590565b6001600160a01b03811661116f5760405162461bcd60e51b81526004018080602001828103825260268152602001806115646026913960400191505060405180910390fd5b6033546040516001600160a01b038084169216907f8be0079c531659141344cd1fd0a4f28419497f9722a3daafe3b4186f6b6457e090600090a3603380546001600160a01b0319166001600160a01b0392909216919091179055565b60606001600160a01b038216611228576040805162461bcd60e51b815260206004820152601960248201527f454d5054595f414444524553535f4e4f545f414c4c4f57454400000000000000604482015290519081900360640190fd5b8254600181018455600084815260209081902090910180546001600160a01b0319166001600160a01b03851617905583546040805182840281018401909152818152918591908301828280156112a757602002820191906000526020600020905b81546001600160a01b03168152600190910190602001808311611289575b505050505090505b92915050565b8154606090821061131d5782546040805160208084028201810190925282815291859183018282801561131157602002820191906000526020600020905b81546001600160a01b031681526001909101906020018083116112f3575b505050505090506112af565b8254600019018214156113c15782548390600019810190811061133c57fe5b600091825260209091200180546001600160a01b03191690558254611365846000198301611526565b50825460408051602080840282018101909252828152918591830182828015611311576020028201919060005260206000209081546001600160a01b031681526001909101906020018083116112f357505050505090506112af565b8254600090849060001981019081106113d657fe5b60009182526020909120015484546001600160a01b0390911691508490849081106113fd57fe5b60009182526020909120015484546001600160a01b03909116908590600019810190811061142757fe5b9060005260206000200160006101000a8154816001600160a01b0302191690836001600160a01b031602179055508084848154811061146257fe5b600091825260209091200180546001600160a01b0319166001600160a01b039290921691909117905583548490600019810190811061149d57fe5b600091825260209091200180546001600160a01b031916905583546114c6856000198301611526565b5083546040805160208084028201810190925282815291869183018282801561151857602002820191906000526020600020905b81546001600160a01b031681526001909101906020018083116114fa575b505050505091505092915050565b81548183558181111561111b5760008381526020902061111b91810190830161072c91905b8082111561155f576000815560010161154b565b509056fe4f776e61626c653a206e6577206f776e657220697320746865207a65726f20616464726573734f776e61626c653a2063616c6c6572206973206e6f7420746865206f776e6572436f6e747261637420696e7374616e63652068617320616c7265616479206265656e20696e697469616c697a6564a265627a7a723158207c1bec52e2017ea454413b5e619e3cf4eec1a1f9c999f7d14e576b59819bae4164736f6c63430005110032436f6e747261637420696e7374616e63652068617320616c7265616479206265656e20696e697469616c697a6564",
  "source": "pragma solidity 0.5.17;\n\nimport \"../../../../base/escrow/dapps/Compound.sol\";\nimport \"./DappMock.sol\";\n\n/**\n    @notice This mock is used to expose a payable fallback function on tests.f\n */\ncontract CompoundMock is DappMock, Compound {\n    constructor() public {\n        Ownable.initialize(msg.sender);\n    }\n}\n",
  "sourcePath": "/Users/guillesalazar/Repos/ZeroCollateral/smart-contracts-v1/contracts/mock/base/escrow/dapps/CompoundMock.sol",
  "compiler": {
    "name": "solc",
    "version": "0.5.17+commit.d19bba13.Emscripten.clang"
  },
  "schemaVersion": "3.2.3",
  "updatedAt": "2020-10-12T14:23:11.540Z",
  "devdoc": {
    "methods": {
      "initialize(address)": {
        "details": "Initializes the contract setting the deployer as the initial owner."
      },
      "isOwner()": {
        "details": "Returns true if the caller is the current owner."
      },
      "lend(address,uint256)": {
        "params": {
          "amount": "amount of tokens to mint. ",
          "cTokenAddress": "address of the token."
        }
      },
      "owner()": {
        "details": "Returns the address of the current owner."
      },
      "redeem(address,uint256)": {
        "params": {
          "amount": "amount of underlying tokens to redeem.",
          "cTokenAddress": "address of the token."
        }
      },
      "redeemAll(address)": {
        "params": {
          "cTokenAddress": "address of the token."
        }
      },
      "renounceOwnership()": {
        "details": "Leaves the contract without owner. It will not be possible to call `onlyOwner` functions anymore. Can only be called by the current owner.     * > Note: Renouncing ownership will leave the contract without an owner, thereby removing any functionality that is only available to the owner."
      },
      "transferOwnership(address)": {
        "details": "Transfers ownership of the contract to a new account (`newOwner`). Can only be called by the current owner."
      }
    }
  },
  "userdoc": {
    "methods": {
      "lend(address,uint256)": {
        "notice": "To lend we first have to approve the cToken to access the token balance then mint. "
      },
      "redeem(address,uint256)": {
        "notice": "This function calls Compound redeemUnderlying()."
      },
      "redeemAll(address)": {
        "notice": "This function redeems complete token balance."
      }
    },
    "notice": "This mock is used to expose a payable fallback function on tests.f"
  }
}