{
  "contractName": "Consensus",
  "abi": [
    {
      "anonymous": false,
      "inputs": [
        {
          "indexed": true,
          "internalType": "address",
          "name": "previousOwner",
          "type": "address"
        },
        {
          "indexed": true,
          "internalType": "address",
          "name": "newOwner",
          "type": "address"
        }
      ],
      "name": "OwnershipTransferred",
      "type": "event"
    },
    {
      "anonymous": false,
      "inputs": [
        {
          "indexed": true,
          "internalType": "address",
          "name": "account",
          "type": "address"
        }
      ],
      "name": "SignerAdded",
      "type": "event"
    },
    {
      "anonymous": false,
      "inputs": [
        {
          "indexed": true,
          "internalType": "address",
          "name": "account",
          "type": "address"
        }
      ],
      "name": "SignerRemoved",
      "type": "event"
    },
    {
      "constant": false,
      "inputs": [
        {
          "internalType": "address",
          "name": "account",
          "type": "address"
        }
      ],
      "name": "addSigner",
      "outputs": [],
      "payable": false,
      "stateMutability": "nonpayable",
      "type": "function"
    },
    {
      "constant": false,
      "inputs": [
        {
          "internalType": "address[]",
          "name": "accounts",
          "type": "address[]"
        }
      ],
      "name": "addSigners",
      "outputs": [],
      "payable": false,
      "stateMutability": "nonpayable",
      "type": "function"
    },
    {
      "constant": true,
      "inputs": [],
      "name": "callerAddress",
      "outputs": [
        {
          "internalType": "address",
          "name": "",
          "type": "address"
        }
      ],
      "payable": false,
      "stateMutability": "view",
      "type": "function"
    },
    {
      "constant": true,
      "inputs": [
        {
          "internalType": "address",
          "name": "",
          "type": "address"
        },
        {
          "internalType": "address",
          "name": "",
          "type": "address"
        },
        {
          "internalType": "uint256",
          "name": "",
          "type": "uint256"
        }
      ],
      "name": "hasSubmitted",
      "outputs": [
        {
          "internalType": "bool",
          "name": "",
          "type": "bool"
        }
      ],
      "payable": false,
      "stateMutability": "view",
      "type": "function"
    },
    {
      "constant": true,
      "inputs": [],
      "name": "initialized",
      "outputs": [
        {
          "internalType": "bool",
          "name": "value",
          "type": "bool"
        }
      ],
      "payable": false,
      "stateMutability": "view",
      "type": "function"
    },
    {
      "constant": true,
      "inputs": [],
      "name": "isOwner",
      "outputs": [
        {
          "internalType": "bool",
          "name": "",
          "type": "bool"
        }
      ],
      "payable": false,
      "stateMutability": "view",
      "type": "function"
    },
    {
      "constant": true,
      "inputs": [
        {
          "internalType": "address",
          "name": "account",
          "type": "address"
        }
      ],
      "name": "isSigner",
      "outputs": [
        {
          "internalType": "bool",
          "name": "",
          "type": "bool"
        }
      ],
      "payable": false,
      "stateMutability": "view",
      "type": "function"
    },
    {
      "constant": true,
      "inputs": [],
      "name": "owner",
      "outputs": [
        {
          "internalType": "address",
          "name": "",
          "type": "address"
        }
      ],
      "payable": false,
      "stateMutability": "view",
      "type": "function"
    },
    {
      "constant": false,
      "inputs": [
        {
          "internalType": "address",
          "name": "account",
          "type": "address"
        }
      ],
      "name": "removeSigner",
      "outputs": [],
      "payable": false,
      "stateMutability": "nonpayable",
      "type": "function"
    },
    {
      "constant": false,
      "inputs": [],
      "name": "renounceOwnership",
      "outputs": [],
      "payable": false,
      "stateMutability": "nonpayable",
      "type": "function"
    },
    {
      "constant": true,
      "inputs": [
        {
          "internalType": "address",
          "name": "",
          "type": "address"
        },
        {
          "internalType": "uint256",
          "name": "",
          "type": "uint256"
        }
      ],
      "name": "requestNonceTaken",
      "outputs": [
        {
          "internalType": "bool",
          "name": "",
          "type": "bool"
        }
      ],
      "payable": false,
      "stateMutability": "view",
      "type": "function"
    },
    {
      "constant": true,
      "inputs": [],
      "name": "settings",
      "outputs": [
        {
          "internalType": "contract SettingsInterface",
          "name": "",
          "type": "address"
        }
      ],
      "payable": false,
      "stateMutability": "view",
      "type": "function"
    },
    {
      "constant": true,
      "inputs": [
        {
          "internalType": "address",
          "name": "",
          "type": "address"
        },
        {
          "internalType": "uint256",
          "name": "",
          "type": "uint256"
        }
      ],
      "name": "signerNonceTaken",
      "outputs": [
        {
          "internalType": "bool",
          "name": "",
          "type": "bool"
        }
      ],
      "payable": false,
      "stateMutability": "view",
      "type": "function"
    },
    {
      "constant": false,
      "inputs": [
        {
          "internalType": "address",
          "name": "newOwner",
          "type": "address"
        }
      ],
      "name": "transferOwnership",
      "outputs": [],
      "payable": false,
      "stateMutability": "nonpayable",
      "type": "function"
    },
    {
      "constant": false,
      "inputs": [],
      "name": "initialize",
      "outputs": [],
      "payable": false,
      "stateMutability": "nonpayable",
      "type": "function"
    },
    {
      "constant": false,
      "inputs": [
        {
          "internalType": "address",
          "name": "owner",
          "type": "address"
        },
        {
          "internalType": "address",
          "name": "aCallerAddress",
          "type": "address"
        },
        {
          "internalType": "address",
          "name": "aSettingAddress",
          "type": "address"
        }
      ],
      "name": "initialize",
      "outputs": [],
      "payable": false,
      "stateMutability": "nonpayable",
      "type": "function"
    },
    {
      "constant": false,
      "inputs": [
        {
          "internalType": "address",
          "name": "sender",
          "type": "address"
        }
      ],
      "name": "initialize",
      "outputs": [],
      "payable": false,
      "stateMutability": "nonpayable",
      "type": "function"
    }
  ],
  "bytecode": "0x6080604052611015806100136000396000f3fe608060405234801561001057600080fd5b506004361061010b5760003560e01c806399ffe065116100a2578063e8906a2d11610071578063e8906a2d1461027e578063eb12d61e14610321578063f2fde38b14610347578063faa8aab11461036d578063fb98d9e2146103755761010b565b806399ffe065146101e2578063c0c53b8b14610218578063c4d66de814610250578063e06174e4146102765761010b565b80637df73e27116100de5780637df73e27146101885780638129fc1c146101ae5780638da5cb5b146101b65780638f32d59b146101da5761010b565b80630e316ab714610110578063158ef93e1461013857806368fcdeb814610154578063715018a614610180575b600080fd5b6101366004803603602081101561012657600080fd5b50356001600160a01b03166103a1565b005b6101406103f4565b604080519115158252519081900360200190f35b6101406004803603604081101561016a57600080fd5b506001600160a01b03813516906020013561042a565b61013661044a565b6101406004803603602081101561019e57600080fd5b50356001600160a01b03166104db565b6101366104f4565b6101be61059a565b604080516001600160a01b039092168252519081900360200190f35b6101406105a9565b610140600480360360608110156101f857600080fd5b506001600160a01b038135811691602081013590911690604001356105cf565b6101366004803603606081101561022e57600080fd5b506001600160a01b0381358116916020810135821691604090910135166105f5565b6101366004803603602081101561026657600080fd5b50356001600160a01b03166106e8565b6101be6107da565b6101366004803603602081101561029457600080fd5b8101906020810181356401000000008111156102af57600080fd5b8201836020820111156102c157600080fd5b803590602001918460208302840111640100000000831117156102e357600080fd5b91908080602002602001604051908101604052809392919081815260200183836020028082843760009201919091525092955061080b945050505050565b6101366004803603602081101561033757600080fd5b50356001600160a01b03166108e1565b6101366004803603602081101561035d57600080fd5b50356001600160a01b0316610931565b6101be610981565b6101406004803603604081101561038b57600080fd5b506001600160a01b038135169060200135610990565b6103a96105a9565b6103e8576040805162461bcd60e51b81526020600482018190526024820152600080516020610f71833981519152604482015290519081900360640190fd5b6103f1816109b0565b50565b604080517f54496e697469616c697a61626c652e6973496e697469616c697a6564000000008152905190819003601c0190205490565b609b60209081526000928352604080842090915290825290205460ff1681565b6104526105a9565b610491576040805162461bcd60e51b81526020600482018190526024820152600080516020610f71833981519152604482015290519081900360640190fd5b6066546040516000916001600160a01b0316907f8be0079c531659141344cd1fd0a4f28419497f9722a3daafe3b4186f6b6457e0908390a3606680546001600160a01b0319169055565b60006104ee60998363ffffffff6109f816565b92915050565b600054610100900460ff168061050d575061050d610a5f565b8061051b575060005460ff16155b6105565760405162461bcd60e51b815260040180806020018281038252602e815260200180610fb3602e913960400191505060405180910390fd5b600054610100900460ff16158015610581576000805460ff1961ff0019909116610100171660011790555b600160335580156103f1576000805461ff001916905550565b6066546001600160a01b031690565b6066546000906001600160a01b03166105c0610a65565b6001600160a01b031614905090565b609a60209081526000938452604080852082529284528284209052825290205460ff1681565b6105fd6103f4565b1561064f576040805162461bcd60e51b815260206004820152601c60248201527f434f4e54524143545f414c52454144595f494e495449414c495a454400000000604482015290519081900360640190fd5b610661826001600160a01b0316610a69565b6106b2576040805162461bcd60e51b815260206004820152601760248201527f43414c4c45525f4d5553545f42455f434f4e5452414354000000000000000000604482015290519081900360640190fd5b6106bb836106e8565b6106c481610aa5565b50609c80546001600160a01b0319166001600160a01b039290921691909117905550565b600054610100900460ff16806107015750610701610a5f565b8061070f575060005460ff16155b61074a5760405162461bcd60e51b815260040180806020018281038252602e815260200180610fb3602e913960400191505060405180910390fd5b600054610100900460ff16158015610775576000805460ff1961ff0019909116610100171660011790555b606680546001600160a01b0319166001600160a01b0384811691909117918290556040519116906000907f8be0079c531659141344cd1fd0a4f28419497f9722a3daafe3b4186f6b6457e0908290a380156107d6576000805461ff00191690555b5050565b6040805177426173655570677261646561626c652e73657474696e677360401b815290519081900360180190205490565b6108136105a9565b610852576040805162461bcd60e51b81526020600482018190526024820152600080516020610f71833981519152604482015290519081900360640190fd5b600081511161089e576040805162461bcd60e51b81526020600482015260136024820152724143434f554e54535f4c4953545f454d50545960681b604482015290519081900360640190fd5b60005b81518110156107d65760008282815181106108b857fe5b602002602001015190506108cb816104db565b6108d8576108d881610bc1565b506001016108a1565b6108e96105a9565b610928576040805162461bcd60e51b81526020600482018190526024820152600080516020610f71833981519152604482015290519081900360640190fd5b6103f181610bc1565b6109396105a9565b610978576040805162461bcd60e51b81526020600482018190526024820152600080516020610f71833981519152604482015290519081900360640190fd5b6103f181610c09565b609c546001600160a01b031681565b609d60209081526000928352604080842090915290825290205460ff1681565b6109c160998263ffffffff610caa16565b6040516001600160a01b038216907f3525e22824a8a7df2c9a6029941c824cf95b6447f1e13d5128fd3826d35afe8b90600090a250565b60006001600160a01b038216610a3f5760405162461bcd60e51b8152600401808060200182810382526022815260200180610f916022913960400191505060405180910390fd5b506001600160a01b03166000908152602091909152604090205460ff1690565b303b1590565b3390565b6000813f7fc5d2460186f7233c927e7db2dcc703c0e500b653ca82273b7bfad8045d85a470818114801590610a9d57508115155b949350505050565b610aad6103f4565b15610aff576040805162461bcd60e51b815260206004820152601c60248201527f434f4e54524143545f414c52454144595f494e495449414c495a454400000000604482015290519081900360640190fd5b60408051808201909152601981527f53455454494e47535f4d5553545f42455f50524f5649444544000000000000006020820152610b4d906001600160a01b0383169063ffffffff610d1116565b610b5f816001600160a01b0316610a69565b610bb0576040805162461bcd60e51b815260206004820152601b60248201527f53455454494e47535f4d5553545f42455f415f434f4e54524143540000000000604482015290519081900360640190fd5b610bb8610da9565b6103f181610de1565b610bd260998263ffffffff610e9a16565b6040516001600160a01b038216907f47d1c22a25bb3a5d4e481b9b1e6944c2eade3181a0a20b495ed61d35b5323f2490600090a250565b6001600160a01b038116610c4e5760405162461bcd60e51b8152600401808060200182810382526026815260200180610f2a6026913960400191505060405180910390fd5b6066546040516001600160a01b038084169216907f8be0079c531659141344cd1fd0a4f28419497f9722a3daafe3b4186f6b6457e090600090a3606680546001600160a01b0319166001600160a01b0392909216919091179055565b610cb482826109f8565b610cef5760405162461bcd60e51b8152600401808060200182810382526021815260200180610f506021913960400191505060405180910390fd5b6001600160a01b0316600090815260209190915260409020805460ff19169055565b610d1a82610f1b565b8190610da45760405162461bcd60e51b81526004018080602001828103825283818151815260200191508051906020019080838360005b83811015610d69578181015183820152602001610d51565b50505050905090810190601f168015610d965780820380516001836020036101000a031916815260200191505b509250505060405180910390fd5b505050565b604080517f54496e697469616c697a61626c652e6973496e697469616c697a6564000000008152905190819003601c01902060019055565b610dfa610dec6107da565b6001600160a01b0316610f1b565b15610e04576103f1565b610e16816001600160a01b0316610a69565b610e67576040805162461bcd60e51b815260206004820152601b60248201527f53455454494e47535f4d5553545f42455f415f434f4e54524143540000000000604482015290519081900360640190fd5b6040805177426173655570677261646561626c652e73657474696e677360401b8152905190819003601801902081905550565b610ea482826109f8565b15610ef6576040805162461bcd60e51b815260206004820152601f60248201527f526f6c65733a206163636f756e7420616c72656164792068617320726f6c6500604482015290519081900360640190fd5b6001600160a01b0316600090815260209190915260409020805460ff19166001179055565b6001600160a01b031615159056fe4f776e61626c653a206e6577206f776e657220697320746865207a65726f2061646472657373526f6c65733a206163636f756e7420646f6573206e6f74206861766520726f6c654f776e61626c653a2063616c6c6572206973206e6f7420746865206f776e6572526f6c65733a206163636f756e7420697320746865207a65726f2061646472657373436f6e747261637420696e7374616e63652068617320616c7265616479206265656e20696e697469616c697a6564a265627a7a72315820ef8959b1c67a4374975364fae8d7e549fc6682c04ceb9f7bc652917ab051c68664736f6c63430005110032",
  "source": "pragma solidity 0.5.17;\n\n// Libraries\nimport \"@openzeppelin/contracts-ethereum-package/contracts/math/SafeMath.sol\";\nimport \"../util/TellerCommon.sol\";\nimport \"../util/NumbersList.sol\";\n\n// Contracts\nimport \"./OwnerSignersRole.sol\";\nimport \"../base/Base.sol\";\n\n/*****************************************************************************************************/\n/**                                             WARNING                                             **/\n/**                              THIS CONTRACT IS AN UPGRADEABLE BASE!                              **/\n/**  ---------------------------------------------------------------------------------------------  **/\n/**  Do NOT change the order of, PREPEND, or APPEND any storage variables to this or new versions   **/\n/**  of this contract as this will cause a ripple affect to the storage slots of all child          **/\n/**  contracts that inherit from this contract to be overwritten on the deployed proxy contract!!   **/\n/**                                                                                                 **/\n/**  Visit https://docs.openzeppelin.com/upgrades/2.6/proxies#upgrading-via-the-proxy-pattern for   **/\n/**  more information.                                                                              **/\n/*****************************************************************************************************/\n/**\n    @notice This contract is used as a base for the consensus contracts.\n    @dev It contains some common internal functions and variables for the consensus contracts.\n\n    @author develop@teller.finance\n */\ncontract Consensus is Base, OwnerSignersRole {\n    using SafeMath for uint256;\n    using NumbersList for NumbersList.Values;\n\n    // Has signer address already submitted their answer for (user, identifier)?\n    mapping(address => mapping(address => mapping(uint256 => bool))) public hasSubmitted;\n\n    // mapping from signer address, to signerNonce, to boolean.\n    // Has the signer already used this nonce?\n    mapping(address => mapping(uint256 => bool)) public signerNonceTaken;\n\n    // the address with permissions to submit a request for processing\n    address public callerAddress;\n\n    /**\n        @notice It tracks each request nonce value that borrower (in LoanTermsConsensus) or lender (in InterestConsensus) used in the loan terms and interest requests.\n\n        @dev The first key represents the address (borrower or lender depending on the consensus contract).\n        @dev The second key represents the request nonce value.\n        @dev The final value represents whether the nonce value for the given address was used (true) or not (false).\n     */\n    mapping(address => mapping(uint256 => bool)) public requestNonceTaken;\n\n    /**\n        @notice Checks whether sender is equal to the caller address.\n        @dev It throws a require error if sender is not equal to caller address.\n        @param sender the sender transaction.\n     */\n    modifier isCaller(address sender) {\n        require(_isCaller(sender), \"SENDER_HASNT_PERMISSIONS\");\n        _;\n    }\n\n    /**\n        @notice It initializes this consensus contract.\n        @dev The caller address must be the loans contract for LoanTermsConsensus, and the lenders contract for InterestConsensus.\n        @param owner the owner address.\n        @param aCallerAddress the contract that will call it.\n        @param aSettingAddress the settings contract address.\n     */\n    function initialize(\n        address owner,\n        address aCallerAddress,\n        address aSettingAddress\n    ) external isNotInitialized() {\n        require(aCallerAddress.isContract(), \"CALLER_MUST_BE_CONTRACT\");\n\n        Ownable.initialize(owner);\n        _initialize(aSettingAddress);\n\n        callerAddress = aCallerAddress;\n    }\n\n    /**\n        @notice It validates whether a signature is valid or not, verifying the signer and nonce.\n        @param signature signature to validate.\n        @param dataHash to use to recover the signer.\n        @param expectedSigner the expected signer address.\n        @return true if the expected signer is equal to the signer. Otherwise it returns false.\n     */\n    function _signatureValid(\n        TellerCommon.Signature memory signature,\n        bytes32 dataHash,\n        address expectedSigner\n    ) internal view returns (bool) {\n        if (!isSigner(expectedSigner)) return false;\n\n        require(\n            !signerNonceTaken[expectedSigner][signature.signerNonce],\n            \"SIGNER_NONCE_TAKEN\"\n        );\n\n        address signer = ecrecover(\n            keccak256(abi.encodePacked(\"\\x19Ethereum Signed Message:\\n32\", dataHash)),\n            signature.v,\n            signature.r,\n            signature.s\n        );\n        return (signer == expectedSigner);\n    }\n\n    /**\n        @notice Gets the consensus value for a list of values (uint values).\n        @notice The values must be in a maximum tolerance range.\n        @return the consensus value.\n     */\n    function _getConsensus(NumbersList.Values storage values)\n        internal\n        view\n        returns (uint256)\n    {\n        require(\n            values.isWithinTolerance(\n                settings().getPlatformSettingValue(\n                    settings().consts().MAXIMUM_TOLERANCE_SETTING()\n                )\n            ),\n            \"RESPONSES_TOO_VARIED\"\n        );\n\n        return values.getAverage();\n    }\n\n    /**\n        @notice It validates a response\n        @param signer signer address.\n        @param user the user address.\n        @param requestIdentifier identifier for the request.\n        @param responseTime time (in seconds) for the response.\n        @param responseHash a hash value that represents the response.\n        @param signature the signature for the response.\n     */\n    function _validateResponse(\n        address signer,\n        address user,\n        uint256 requestIdentifier,\n        uint256 responseTime,\n        bytes32 responseHash,\n        TellerCommon.Signature memory signature\n    ) internal {\n        require(\n            !hasSubmitted[signer][user][requestIdentifier],\n            \"SIGNER_ALREADY_SUBMITTED\"\n        );\n        hasSubmitted[signer][user][requestIdentifier] = true;\n\n        require(\n            responseTime >=\n                now.sub(\n                    settings().getPlatformSettingValue(\n                        settings().consts().RESPONSE_EXPIRY_LENGTH_SETTING()\n                    )\n                ),\n            \"RESPONSE_EXPIRED\"\n        );\n\n        require(_signatureValid(signature, responseHash, signer), \"SIGNATURE_INVALID\");\n        signerNonceTaken[signer][signature.signerNonce] = true;\n    }\n\n    /**\n        @notice Gets the current chain id using the opcode 'chainid()'.\n        @return the current chain id.\n     */\n    function _getChainId() internal view returns (uint256) {\n        this; // silence state mutability warning without generating bytecode - see https://github.com/ethereum/solidity/issues/2691\n        uint256 id;\n        assembly {\n            id := chainid()\n        }\n        return id;\n    }\n\n    /**\n        @notice It tests whether an given address is the initialized caller address.\n        @dev This function is overriden by mock instances.\n     */\n    function _isCaller(address sender) internal view returns (bool) {\n        return callerAddress == sender;\n    }\n}\n",
  "sourcePath": "/Users/guillesalazar/Repos/ZeroCollateral/smart-contracts-v1/contracts/base/Consensus.sol",
  "compiler": {
    "name": "solc",
    "version": "0.5.17+commit.d19bba13.Emscripten.clang"
  },
  "schemaVersion": "3.2.3",
  "updatedAt": "2020-10-12T14:23:11.385Z",
  "devdoc": {
    "author": "develop@teller.finance",
    "details": "It contains some common internal functions and variables for the consensus contracts.",
    "methods": {
      "addSigner(address)": {
        "details": "The sender must be the owner.It throws a require error if the sender is not the owner.",
        "params": {
          "account": "address to add."
        }
      },
      "addSigners(address[])": {
        "details": "The sender must be the owner.It throws a require error if the sender is not the owner.",
        "params": {
          "accounts": "addresses to add."
        }
      },
      "initialize(address)": {
        "details": "Initializes the contract setting the deployer as the initial owner."
      },
      "initialize(address,address,address)": {
        "details": "The caller address must be the loans contract for LoanTermsConsensus, and the lenders contract for InterestConsensus.",
        "params": {
          "aCallerAddress": "the contract that will call it.",
          "aSettingAddress": "the settings contract address.",
          "owner": "the owner address."
        }
      },
      "initialized()": {
        "return": "true if contract is initialized. Otherwise it returns false."
      },
      "isOwner()": {
        "details": "Returns true if the caller is the current owner."
      },
      "isSigner(address)": {
        "params": {
          "account": "address to test."
        },
        "return": "true if account is a signer. Otherwise it returns false."
      },
      "owner()": {
        "details": "Returns the address of the current owner."
      },
      "removeSigner(address)": {
        "details": "The sender must be the owner.It throws a require error if the sender is not the owner.",
        "params": {
          "account": "address to remove."
        }
      },
      "renounceOwnership()": {
        "details": "Leaves the contract without owner. It will not be possible to call `onlyOwner` functions anymore. Can only be called by the current owner.     * > Note: Renouncing ownership will leave the contract without an owner, thereby removing any functionality that is only available to the owner."
      },
      "settings()": {
        "details": "This address should NOT change over the time. See details in the _setSettings(...) function."
      },
      "transferOwnership(address)": {
        "details": "Transfers ownership of the contract to a new account (`newOwner`). Can only be called by the current owner."
      }
    }
  },
  "userdoc": {
    "methods": {
      "addSigner(address)": {
        "notice": "It adds a new account as a signer."
      },
      "addSigners(address[])": {
        "notice": "It adds a list of account as signers."
      },
      "initialize(address,address,address)": {
        "notice": "It initializes this consensus contract."
      },
      "initialized()": {
        "notice": "Gets if the contract is initialized."
      },
      "isSigner(address)": {
        "notice": "Gets whether an account address is a signer or not."
      },
      "removeSigner(address)": {
        "notice": "It removes an account as signer."
      },
      "settings()": {
        "notice": "The gets the settings contract address from the SETTINGS_SLOT."
      }
    },
    "notice": "This contract is used as a base for the consensus contracts."
  }
}