{
  "contractName": "ConsensusModifiersMock",
  "abi": [
    {
      "anonymous": false,
      "inputs": [
        {
          "indexed": true,
          "internalType": "address",
          "name": "previousOwner",
          "type": "address"
        },
        {
          "indexed": true,
          "internalType": "address",
          "name": "newOwner",
          "type": "address"
        }
      ],
      "name": "OwnershipTransferred",
      "type": "event"
    },
    {
      "anonymous": false,
      "inputs": [
        {
          "indexed": true,
          "internalType": "address",
          "name": "account",
          "type": "address"
        }
      ],
      "name": "SignerAdded",
      "type": "event"
    },
    {
      "anonymous": false,
      "inputs": [
        {
          "indexed": true,
          "internalType": "address",
          "name": "account",
          "type": "address"
        }
      ],
      "name": "SignerRemoved",
      "type": "event"
    },
    {
      "constant": false,
      "inputs": [
        {
          "internalType": "address",
          "name": "account",
          "type": "address"
        }
      ],
      "name": "addSigner",
      "outputs": [],
      "payable": false,
      "stateMutability": "nonpayable",
      "type": "function"
    },
    {
      "constant": false,
      "inputs": [
        {
          "internalType": "address[]",
          "name": "accounts",
          "type": "address[]"
        }
      ],
      "name": "addSigners",
      "outputs": [],
      "payable": false,
      "stateMutability": "nonpayable",
      "type": "function"
    },
    {
      "constant": true,
      "inputs": [],
      "name": "callerAddress",
      "outputs": [
        {
          "internalType": "address",
          "name": "",
          "type": "address"
        }
      ],
      "payable": false,
      "stateMutability": "view",
      "type": "function"
    },
    {
      "constant": true,
      "inputs": [
        {
          "internalType": "address",
          "name": "",
          "type": "address"
        },
        {
          "internalType": "address",
          "name": "",
          "type": "address"
        },
        {
          "internalType": "uint256",
          "name": "",
          "type": "uint256"
        }
      ],
      "name": "hasSubmitted",
      "outputs": [
        {
          "internalType": "bool",
          "name": "",
          "type": "bool"
        }
      ],
      "payable": false,
      "stateMutability": "view",
      "type": "function"
    },
    {
      "constant": false,
      "inputs": [],
      "name": "initialize",
      "outputs": [],
      "payable": false,
      "stateMutability": "nonpayable",
      "type": "function"
    },
    {
      "constant": false,
      "inputs": [
        {
          "internalType": "address",
          "name": "owner",
          "type": "address"
        },
        {
          "internalType": "address",
          "name": "aCallerAddress",
          "type": "address"
        },
        {
          "internalType": "address",
          "name": "aSettingAddress",
          "type": "address"
        }
      ],
      "name": "initialize",
      "outputs": [],
      "payable": false,
      "stateMutability": "nonpayable",
      "type": "function"
    },
    {
      "constant": false,
      "inputs": [
        {
          "internalType": "address",
          "name": "sender",
          "type": "address"
        }
      ],
      "name": "initialize",
      "outputs": [],
      "payable": false,
      "stateMutability": "nonpayable",
      "type": "function"
    },
    {
      "constant": true,
      "inputs": [],
      "name": "initialized",
      "outputs": [
        {
          "internalType": "bool",
          "name": "value",
          "type": "bool"
        }
      ],
      "payable": false,
      "stateMutability": "view",
      "type": "function"
    },
    {
      "constant": true,
      "inputs": [],
      "name": "isOwner",
      "outputs": [
        {
          "internalType": "bool",
          "name": "",
          "type": "bool"
        }
      ],
      "payable": false,
      "stateMutability": "view",
      "type": "function"
    },
    {
      "constant": true,
      "inputs": [
        {
          "internalType": "address",
          "name": "account",
          "type": "address"
        }
      ],
      "name": "isSigner",
      "outputs": [
        {
          "internalType": "bool",
          "name": "",
          "type": "bool"
        }
      ],
      "payable": false,
      "stateMutability": "view",
      "type": "function"
    },
    {
      "constant": true,
      "inputs": [],
      "name": "owner",
      "outputs": [
        {
          "internalType": "address",
          "name": "",
          "type": "address"
        }
      ],
      "payable": false,
      "stateMutability": "view",
      "type": "function"
    },
    {
      "constant": false,
      "inputs": [
        {
          "internalType": "address",
          "name": "account",
          "type": "address"
        }
      ],
      "name": "removeSigner",
      "outputs": [],
      "payable": false,
      "stateMutability": "nonpayable",
      "type": "function"
    },
    {
      "constant": false,
      "inputs": [],
      "name": "renounceOwnership",
      "outputs": [],
      "payable": false,
      "stateMutability": "nonpayable",
      "type": "function"
    },
    {
      "constant": true,
      "inputs": [
        {
          "internalType": "address",
          "name": "",
          "type": "address"
        },
        {
          "internalType": "uint256",
          "name": "",
          "type": "uint256"
        }
      ],
      "name": "requestNonceTaken",
      "outputs": [
        {
          "internalType": "bool",
          "name": "",
          "type": "bool"
        }
      ],
      "payable": false,
      "stateMutability": "view",
      "type": "function"
    },
    {
      "constant": true,
      "inputs": [],
      "name": "settings",
      "outputs": [
        {
          "internalType": "contract SettingsInterface",
          "name": "",
          "type": "address"
        }
      ],
      "payable": false,
      "stateMutability": "view",
      "type": "function"
    },
    {
      "constant": true,
      "inputs": [
        {
          "internalType": "address",
          "name": "",
          "type": "address"
        },
        {
          "internalType": "uint256",
          "name": "",
          "type": "uint256"
        }
      ],
      "name": "signerNonceTaken",
      "outputs": [
        {
          "internalType": "bool",
          "name": "",
          "type": "bool"
        }
      ],
      "payable": false,
      "stateMutability": "view",
      "type": "function"
    },
    {
      "constant": false,
      "inputs": [
        {
          "internalType": "address",
          "name": "newOwner",
          "type": "address"
        }
      ],
      "name": "transferOwnership",
      "outputs": [],
      "payable": false,
      "stateMutability": "nonpayable",
      "type": "function"
    },
    {
      "constant": false,
      "inputs": [
        {
          "internalType": "address",
          "name": "sender",
          "type": "address"
        }
      ],
      "name": "externalIsCaller",
      "outputs": [],
      "payable": false,
      "stateMutability": "nonpayable",
      "type": "function"
    }
  ],
  "bytecode": "0x60806040526111f8806100136000396000f3fe608060405234801561001057600080fd5b50600436106101165760003560e01c806399ffe065116100a2578063e8906a2d11610071578063e8906a2d14610202578063eb12d61e14610215578063f2fde38b14610228578063faa8aab11461023b578063fb98d9e21461024357610116565b806399ffe065146101b4578063c0c53b8b146101c7578063c4d66de8146101da578063e06174e4146101ed57610116565b8063715018a6116100e9578063715018a6146101745780637df73e271461017c5780638129fc1c1461018f5780638da5cb5b146101975780638f32d59b146101ac57610116565b806309e309241461011b5780630e316ab714610130578063158ef93e1461014357806368fcdeb814610161575b600080fd5b61012e610129366004610b46565b610256565b005b61012e61013e366004610b46565b610289565b61014b6102b9565b6040516101589190610ff6565b60405180910390f35b61014b61016f366004610bf4565b6102d8565b61012e6102f8565b61014b61018a366004610b46565b610366565b61012e61037f565b61019f610406565b6040516101589190610fe8565b61014b610415565b61014b6101c2366004610bb1565b61043b565b61012e6101d5366004610b64565b610461565b61012e6101e8366004610b46565b6104ea565b6101f56105bc565b6040516101589190611004565b61012e610210366004610c2e565b6105de565b61012e610223366004610b46565b610666565b61012e610236366004610b46565b610693565b61019f6106c0565b61014b610251366004610bf4565b6106cf565b80610260816106ef565b6102855760405162461bcd60e51b815260040161027c906110ba565b60405180910390fd5b5050565b610291610415565b6102ad5760405162461bcd60e51b815260040161027c9061108a565b6102b681610703565b50565b6000806040516102c890610fd2565b6040519081900390205492915050565b609b60209081526000928352604080842090915290825290205460ff1681565b610300610415565b61031c5760405162461bcd60e51b815260040161027c9061108a565b6066546040516000916001600160a01b0316907f8be0079c531659141344cd1fd0a4f28419497f9722a3daafe3b4186f6b6457e0908390a3606680546001600160a01b0319169055565b600061037960998363ffffffff61074b16565b92915050565b600054610100900460ff16806103985750610398610793565b806103a6575060005460ff16155b6103c25760405162461bcd60e51b815260040161027c906110aa565b600054610100900460ff161580156103ed576000805460ff1961ff0019909116610100171660011790555b600160335580156102b6576000805461ff001916905550565b6066546001600160a01b031690565b6066546000906001600160a01b031661042c610799565b6001600160a01b031614905090565b609a60209081526000938452604080852082529284528284209052825290205460ff1681565b6104696102b9565b156104865760405162461bcd60e51b815260040161027c906110ca565b610498826001600160a01b031661079d565b6104b45760405162461bcd60e51b815260040161027c9061106a565b6104bd836104ea565b6104c6816107d9565b50609c80546001600160a01b0319166001600160a01b039290921691909117905550565b600054610100900460ff16806105035750610503610793565b80610511575060005460ff16155b61052d5760405162461bcd60e51b815260040161027c906110aa565b600054610100900460ff16158015610558576000805460ff1961ff0019909116610100171660011790555b606680546001600160a01b0319166001600160a01b0384811691909117918290556040519116906000907f8be0079c531659141344cd1fd0a4f28419497f9722a3daafe3b4186f6b6457e0908290a38015610285576000805461ff00191690555050565b60008060006040516105cd90610fdd565b604051908190039020549250505090565b6105e6610415565b6106025760405162461bcd60e51b815260040161027c9061108a565b60008151116106235760405162461bcd60e51b815260040161027c9061103a565b60005b815181101561028557600082828151811061063d57fe5b6020026020010151905061065081610366565b61065d5761065d8161088b565b50600101610626565b61066e610415565b61068a5760405162461bcd60e51b815260040161027c9061108a565b6102b68161088b565b61069b610415565b6106b75760405162461bcd60e51b815260040161027c9061108a565b6102b6816108d3565b609c546001600160a01b031681565b609d60209081526000928352604080842090915290825290205460ff1681565b609c546001600160a01b0391821691161490565b61071460998263ffffffff61095516565b6040516001600160a01b038216907f3525e22824a8a7df2c9a6029941c824cf95b6447f1e13d5128fd3826d35afe8b90600090a250565b60006001600160a01b0382166107735760405162461bcd60e51b815260040161027c9061109a565b506001600160a01b03166000908152602091909152604090205460ff1690565b303b1590565b3390565b6000813f7fc5d2460186f7233c927e7db2dcc703c0e500b653ca82273b7bfad8045d85a4708181148015906107d157508115155b949350505050565b6107e16102b9565b156107fe5760405162461bcd60e51b815260040161027c906110ca565b60408051808201909152601981527f53455454494e47535f4d5553545f42455f50524f564944454400000000000000602082015261084c906001600160a01b0383169063ffffffff61099d16565b61085e816001600160a01b031661079d565b61087a5760405162461bcd60e51b815260040161027c9061105a565b6108826109ca565b6102b6816109e8565b61089c60998263ffffffff610a5716565b6040516001600160a01b038216907f47d1c22a25bb3a5d4e481b9b1e6944c2eade3181a0a20b495ed61d35b5323f2490600090a250565b6001600160a01b0381166108f95760405162461bcd60e51b815260040161027c9061104a565b6066546040516001600160a01b038084169216907f8be0079c531659141344cd1fd0a4f28419497f9722a3daafe3b4186f6b6457e090600090a3606680546001600160a01b0319166001600160a01b0392909216919091179055565b61095f828261074b565b61097b5760405162461bcd60e51b815260040161027c9061107a565b6001600160a01b0316600090815260209190915260409020805460ff19169055565b6109a682610aa3565b81906109c55760405162461bcd60e51b815260040161027c9190611012565b505050565b60006040516109d890610fd2565b6040519081900390206001905550565b610a016109f36105bc565b6001600160a01b0316610aa3565b15610a0b576102b6565b610a1d816001600160a01b031661079d565b610a395760405162461bcd60e51b815260040161027c9061105a565b6000604051610a4790610fdd565b6040519081900390208290555050565b610a61828261074b565b15610a7e5760405162461bcd60e51b815260040161027c9061102a565b6001600160a01b0316600090815260209190915260409020805460ff19166001179055565b6001600160a01b0316151590565b803561037981611198565b600082601f830112610acd57600080fd5b8135610ae0610adb82611101565b6110da565b91508181835260208401935060208101905083856020840282011115610b0557600080fd5b60005b83811015610b315781610b1b8882610ab1565b8452506020928301929190910190600101610b08565b5050505092915050565b8035610379816111ac565b600060208284031215610b5857600080fd5b60006107d18484610ab1565b600080600060608486031215610b7957600080fd5b6000610b858686610ab1565b9350506020610b9686828701610ab1565b9250506040610ba786828701610ab1565b9150509250925092565b600080600060608486031215610bc657600080fd5b6000610bd28686610ab1565b9350506020610be386828701610ab1565b9250506040610ba786828701610b3b565b60008060408385031215610c0757600080fd5b6000610c138585610ab1565b9250506020610c2485828601610b3b565b9150509250929050565b600060208284031215610c4057600080fd5b813567ffffffffffffffff811115610c5757600080fd5b6107d184828501610abc565b610c6c81611134565b82525050565b610c6c8161113f565b610c6c81611153565b6000610c8f82611122565b610c998185611126565b9350610ca981856020860161115e565b610cb28161118e565b9093019392505050565b6000610cc9601c8361112f565b7f54496e697469616c697a61626c652e6973496e697469616c697a6564000000008152601c0192915050565b6000610d02601f83611126565b7f526f6c65733a206163636f756e7420616c72656164792068617320726f6c6500815260200192915050565b6000610d3b601383611126565b724143434f554e54535f4c4953545f454d50545960681b815260200192915050565b6000610d6a602683611126565b7f4f776e61626c653a206e6577206f776e657220697320746865207a65726f206181526564647265737360d01b602082015260400192915050565b6000610db2601b83611126565b7f53455454494e47535f4d5553545f42455f415f434f4e54524143540000000000815260200192915050565b6000610deb601783611126565b7f43414c4c45525f4d5553545f42455f434f4e5452414354000000000000000000815260200192915050565b6000610e24602183611126565b7f526f6c65733a206163636f756e7420646f6573206e6f74206861766520726f6c8152606560f81b602082015260400192915050565b6000610e67602083611126565b7f4f776e61626c653a2063616c6c6572206973206e6f7420746865206f776e6572815260200192915050565b6000610ea0602283611126565b7f526f6c65733a206163636f756e7420697320746865207a65726f206164647265815261737360f01b602082015260400192915050565b6000610ee4602e83611126565b7f436f6e747261637420696e7374616e63652068617320616c726561647920626581526d195b881a5b9a5d1a585b1a5e995960921b602082015260400192915050565b6000610f34601883611126565b7f53454e4445525f4841534e545f5045524d495353494f4e530000000000000000815260200192915050565b6000610f6d60188361112f565b7f426173655570677261646561626c652e73657474696e67730000000000000000815260180192915050565b6000610fa6601c83611126565b7f434f4e54524143545f414c52454144595f494e495449414c495a454400000000815260200192915050565b600061037982610cbc565b600061037982610f60565b602081016103798284610c63565b602081016103798284610c72565b602081016103798284610c7b565b602080825281016110238184610c84565b9392505050565b6020808252810161037981610cf5565b6020808252810161037981610d2e565b6020808252810161037981610d5d565b6020808252810161037981610da5565b6020808252810161037981610dde565b6020808252810161037981610e17565b6020808252810161037981610e5a565b6020808252810161037981610e93565b6020808252810161037981610ed7565b6020808252810161037981610f27565b6020808252810161037981610f99565b60405181810167ffffffffffffffff811182821017156110f957600080fd5b604052919050565b600067ffffffffffffffff82111561111857600080fd5b5060209081020190565b5190565b90815260200190565b919050565b600061037982611144565b151590565b6001600160a01b031690565b90565b600061037982611134565b60005b83811015611179578181015183820152602001611161565b83811115611188576000848401525b50505050565b601f01601f191690565b6111a181611134565b81146102b657600080fd5b6111a18161115056fea365627a7a723158203d505d374919e0908ab877e49445006c697d545d32b64c5bc832c13f591a12566c6578706572696d656e74616cf564736f6c63430005110040",
  "source": "pragma solidity 0.5.17;\npragma experimental ABIEncoderV2;\n\nimport \"../../base/Consensus.sol\";\n\ncontract ConsensusModifiersMock is Consensus {\n    function externalIsCaller(address sender) external isCaller(sender) {}\n}\n",
  "sourcePath": "/Users/guillesalazar/Repos/ZeroCollateral/smart-contracts-v1/contracts/mock/base/ConsensusModifiersMock.sol",
  "compiler": {
    "name": "solc",
    "version": "0.5.17+commit.d19bba13.Emscripten.clang"
  },
  "schemaVersion": "3.2.3",
  "updatedAt": "2020-10-12T14:23:11.514Z",
  "devdoc": {
    "methods": {
      "addSigner(address)": {
        "details": "The sender must be the owner.It throws a require error if the sender is not the owner.",
        "params": {
          "account": "address to add."
        }
      },
      "addSigners(address[])": {
        "details": "The sender must be the owner.It throws a require error if the sender is not the owner.",
        "params": {
          "accounts": "addresses to add."
        }
      },
      "initialize(address)": {
        "details": "Initializes the contract setting the deployer as the initial owner."
      },
      "initialize(address,address,address)": {
        "details": "The caller address must be the loans contract for LoanTermsConsensus, and the lenders contract for InterestConsensus.",
        "params": {
          "aCallerAddress": "the contract that will call it.",
          "aSettingAddress": "the settings contract address.",
          "owner": "the owner address."
        }
      },
      "initialized()": {
        "return": "true if contract is initialized. Otherwise it returns false."
      },
      "isOwner()": {
        "details": "Returns true if the caller is the current owner."
      },
      "isSigner(address)": {
        "params": {
          "account": "address to test."
        },
        "return": "true if account is a signer. Otherwise it returns false."
      },
      "owner()": {
        "details": "Returns the address of the current owner."
      },
      "removeSigner(address)": {
        "details": "The sender must be the owner.It throws a require error if the sender is not the owner.",
        "params": {
          "account": "address to remove."
        }
      },
      "renounceOwnership()": {
        "details": "Leaves the contract without owner. It will not be possible to call `onlyOwner` functions anymore. Can only be called by the current owner.     * > Note: Renouncing ownership will leave the contract without an owner, thereby removing any functionality that is only available to the owner."
      },
      "settings()": {
        "details": "This address should NOT change over the time. See details in the _setSettings(...) function."
      },
      "transferOwnership(address)": {
        "details": "Transfers ownership of the contract to a new account (`newOwner`). Can only be called by the current owner."
      }
    }
  },
  "userdoc": {
    "methods": {
      "addSigner(address)": {
        "notice": "It adds a new account as a signer."
      },
      "addSigners(address[])": {
        "notice": "It adds a list of account as signers."
      },
      "initialize(address,address,address)": {
        "notice": "It initializes this consensus contract."
      },
      "initialized()": {
        "notice": "Gets if the contract is initialized."
      },
      "isSigner(address)": {
        "notice": "Gets whether an account address is a signer or not."
      },
      "removeSigner(address)": {
        "notice": "It removes an account as signer."
      },
      "settings()": {
        "notice": "The gets the settings contract address from the SETTINGS_SLOT."
      }
    }
  }
}