{
  "contractName": "ConsensusModifiersMock",
  "abi": [
    {
      "anonymous": false,
      "inputs": [
        {
          "indexed": true,
          "internalType": "address",
          "name": "previousOwner",
          "type": "address"
        },
        {
          "indexed": true,
          "internalType": "address",
          "name": "newOwner",
          "type": "address"
        }
      ],
      "name": "OwnershipTransferred",
      "type": "event"
    },
    {
      "anonymous": false,
      "inputs": [
        {
          "indexed": true,
          "internalType": "address",
          "name": "account",
          "type": "address"
        }
      ],
      "name": "SignerAdded",
      "type": "event"
    },
    {
      "anonymous": false,
      "inputs": [
        {
          "indexed": true,
          "internalType": "address",
          "name": "account",
          "type": "address"
        }
      ],
      "name": "SignerRemoved",
      "type": "event"
    },
    {
      "constant": false,
      "inputs": [
        {
          "internalType": "address",
          "name": "account",
          "type": "address"
        }
      ],
      "name": "addSigner",
      "outputs": [],
      "payable": false,
      "stateMutability": "nonpayable",
      "type": "function"
    },
    {
      "constant": false,
      "inputs": [
        {
          "internalType": "address[]",
          "name": "accounts",
          "type": "address[]"
        }
      ],
      "name": "addSigners",
      "outputs": [],
      "payable": false,
      "stateMutability": "nonpayable",
      "type": "function"
    },
    {
      "constant": true,
      "inputs": [],
      "name": "callerAddress",
      "outputs": [
        {
          "internalType": "address",
          "name": "",
          "type": "address"
        }
      ],
      "payable": false,
      "stateMutability": "view",
      "type": "function"
    },
    {
      "constant": true,
      "inputs": [],
      "name": "consts",
      "outputs": [
        {
          "internalType": "contract SettingsConsts",
          "name": "",
          "type": "address"
        }
      ],
      "payable": false,
      "stateMutability": "view",
      "type": "function"
    },
    {
      "constant": true,
      "inputs": [
        {
          "internalType": "address",
          "name": "",
          "type": "address"
        },
        {
          "internalType": "address",
          "name": "",
          "type": "address"
        },
        {
          "internalType": "uint256",
          "name": "",
          "type": "uint256"
        }
      ],
      "name": "hasSubmitted",
      "outputs": [
        {
          "internalType": "bool",
          "name": "",
          "type": "bool"
        }
      ],
      "payable": false,
      "stateMutability": "view",
      "type": "function"
    },
    {
      "constant": false,
      "inputs": [],
      "name": "initialize",
      "outputs": [],
      "payable": false,
      "stateMutability": "nonpayable",
      "type": "function"
    },
    {
      "constant": false,
      "inputs": [
        {
          "internalType": "address",
          "name": "owner",
          "type": "address"
        },
        {
          "internalType": "address",
          "name": "aCallerAddress",
          "type": "address"
        },
        {
          "internalType": "address",
          "name": "aSettingAddress",
          "type": "address"
        }
      ],
      "name": "initialize",
      "outputs": [],
      "payable": false,
      "stateMutability": "nonpayable",
      "type": "function"
    },
    {
      "constant": false,
      "inputs": [
        {
          "internalType": "address",
          "name": "sender",
          "type": "address"
        }
      ],
      "name": "initialize",
      "outputs": [],
      "payable": false,
      "stateMutability": "nonpayable",
      "type": "function"
    },
    {
      "constant": true,
      "inputs": [],
      "name": "initialized",
      "outputs": [
        {
          "internalType": "bool",
          "name": "value",
          "type": "bool"
        }
      ],
      "payable": false,
      "stateMutability": "view",
      "type": "function"
    },
    {
      "constant": true,
      "inputs": [],
      "name": "isOwner",
      "outputs": [
        {
          "internalType": "bool",
          "name": "",
          "type": "bool"
        }
      ],
      "payable": false,
      "stateMutability": "view",
      "type": "function"
    },
    {
      "constant": true,
      "inputs": [
        {
          "internalType": "address",
          "name": "account",
          "type": "address"
        }
      ],
      "name": "isSigner",
      "outputs": [
        {
          "internalType": "bool",
          "name": "",
          "type": "bool"
        }
      ],
      "payable": false,
      "stateMutability": "view",
      "type": "function"
    },
    {
      "constant": true,
      "inputs": [],
      "name": "owner",
      "outputs": [
        {
          "internalType": "address",
          "name": "",
          "type": "address"
        }
      ],
      "payable": false,
      "stateMutability": "view",
      "type": "function"
    },
    {
      "constant": false,
      "inputs": [
        {
          "internalType": "address",
          "name": "account",
          "type": "address"
        }
      ],
      "name": "removeSigner",
      "outputs": [],
      "payable": false,
      "stateMutability": "nonpayable",
      "type": "function"
    },
    {
      "constant": false,
      "inputs": [],
      "name": "renounceOwnership",
      "outputs": [],
      "payable": false,
      "stateMutability": "nonpayable",
      "type": "function"
    },
    {
      "constant": true,
      "inputs": [
        {
          "internalType": "address",
          "name": "",
          "type": "address"
        },
        {
          "internalType": "uint256",
          "name": "",
          "type": "uint256"
        }
      ],
      "name": "requestNonceTaken",
      "outputs": [
        {
          "internalType": "bool",
          "name": "",
          "type": "bool"
        }
      ],
      "payable": false,
      "stateMutability": "view",
      "type": "function"
    },
    {
      "constant": true,
      "inputs": [],
      "name": "settings",
      "outputs": [
        {
          "internalType": "contract SettingsInterface",
          "name": "",
          "type": "address"
        }
      ],
      "payable": false,
      "stateMutability": "view",
      "type": "function"
    },
    {
      "constant": true,
      "inputs": [
        {
          "internalType": "address",
          "name": "",
          "type": "address"
        },
        {
          "internalType": "uint256",
          "name": "",
          "type": "uint256"
        }
      ],
      "name": "signerNonceTaken",
      "outputs": [
        {
          "internalType": "bool",
          "name": "",
          "type": "bool"
        }
      ],
      "payable": false,
      "stateMutability": "view",
      "type": "function"
    },
    {
      "constant": false,
      "inputs": [
        {
          "internalType": "address",
          "name": "newOwner",
          "type": "address"
        }
      ],
      "name": "transferOwnership",
      "outputs": [],
      "payable": false,
      "stateMutability": "nonpayable",
      "type": "function"
    },
    {
      "constant": false,
      "inputs": [
        {
          "internalType": "address",
          "name": "sender",
          "type": "address"
        }
      ],
      "name": "externalIsCaller",
      "outputs": [],
      "payable": false,
      "stateMutability": "nonpayable",
      "type": "function"
    }
  ],
  "bytecode": "0x6080604052611491806100136000396000f3fe608060405234801561001057600080fd5b50600436106101215760003560e01c806399ffe065116100ad578063e8906a2d11610071578063e8906a2d14610215578063eb12d61e14610228578063f2fde38b1461023b578063faa8aab11461024e578063fb98d9e21461025657610121565b806399ffe065146101bf578063c0c53b8b146101d2578063c4d66de8146101e5578063d86d744e146101f8578063e06174e41461020d57610121565b8063715018a6116100f4578063715018a61461017f5780637df73e27146101875780638129fc1c1461019a5780638da5cb5b146101a25780638f32d59b146101b757610121565b806309e30924146101265780630e316ab71461013b578063158ef93e1461014e57806368fcdeb81461016c575b600080fd5b610139610134366004610bb4565b610269565b005b610139610149366004610bb4565b61029c565b6101566102cc565b6040516101639190611064565b60405180910390f35b61015661017a366004610c62565b6102eb565b61013961030b565b610156610195366004610bb4565b610379565b610139610392565b6101aa610419565b6040516101639190611056565b610156610428565b6101566101cd366004610c1f565b61044e565b6101396101e0366004610bd2565b610474565b6101396101f3366004610bb4565b610542565b610200610614565b6040516101639190611072565b610200610623565b610139610223366004610c9c565b610645565b610139610236366004610bb4565b6106cd565b610139610249366004610bb4565b6106fa565b6101aa610727565b610156610264366004610c62565b610736565b8061027381610756565b6102985760405162461bcd60e51b815260040161028f90611128565b60405180910390fd5b5050565b6102a4610428565b6102c05760405162461bcd60e51b815260040161028f906110f8565b6102c98161076a565b50565b6000806040516102db90611040565b6040519081900390205492915050565b609b60209081526000928352604080842090915290825290205460ff1681565b610313610428565b61032f5760405162461bcd60e51b815260040161028f906110f8565b6066546040516000916001600160a01b0316907f8be0079c531659141344cd1fd0a4f28419497f9722a3daafe3b4186f6b6457e0908390a3606680546001600160a01b0319169055565b600061038c60998363ffffffff6107b216565b92915050565b600054610100900460ff16806103ab57506103ab6107fa565b806103b9575060005460ff16155b6103d55760405162461bcd60e51b815260040161028f90611118565b600054610100900460ff16158015610400576000805460ff1961ff0019909116610100171660011790555b600160335580156102c9576000805461ff001916905550565b6066546001600160a01b031690565b6066546000906001600160a01b031661043f610800565b6001600160a01b031614905090565b609a60209081526000938452604080852082529284528284209052825290205460ff1681565b61047c6102cc565b156104995760405162461bcd60e51b815260040161028f90611138565b6104ab826001600160a01b0316610804565b6104c75760405162461bcd60e51b815260040161028f906110d8565b6104d083610542565b6104d981610840565b609c80546001600160a01b0319166001600160a01b03841617905560405161050090610b12565b604051809103906000f08015801561051c573d6000803e3d6000fd5b50609d80546001600160a01b0319166001600160a01b0392909216919091179055505050565b600054610100900460ff168061055b575061055b6107fa565b80610569575060005460ff16155b6105855760405162461bcd60e51b815260040161028f90611118565b600054610100900460ff161580156105b0576000805460ff1961ff0019909116610100171660011790555b606680546001600160a01b0319166001600160a01b0384811691909117918290556040519116906000907f8be0079c531659141344cd1fd0a4f28419497f9722a3daafe3b4186f6b6457e0908290a38015610298576000805461ff00191690555050565b609d546001600160a01b031681565b60008060006040516106349061104b565b604051908190039020549250505090565b61064d610428565b6106695760405162461bcd60e51b815260040161028f906110f8565b600081511161068a5760405162461bcd60e51b815260040161028f906110a8565b60005b81518110156102985760008282815181106106a457fe5b602002602001015190506106b781610379565b6106c4576106c4816108f2565b5060010161068d565b6106d5610428565b6106f15760405162461bcd60e51b815260040161028f906110f8565b6102c9816108f2565b610702610428565b61071e5760405162461bcd60e51b815260040161028f906110f8565b6102c98161093a565b609c546001600160a01b031681565b609e60209081526000928352604080842090915290825290205460ff1681565b609c546001600160a01b0391821691161490565b61077b60998263ffffffff6109bc16565b6040516001600160a01b038216907f3525e22824a8a7df2c9a6029941c824cf95b6447f1e13d5128fd3826d35afe8b90600090a250565b60006001600160a01b0382166107da5760405162461bcd60e51b815260040161028f90611108565b506001600160a01b03166000908152602091909152604090205460ff1690565b303b1590565b3390565b6000813f7fc5d2460186f7233c927e7db2dcc703c0e500b653ca82273b7bfad8045d85a47081811480159061083857508115155b949350505050565b6108486102cc565b156108655760405162461bcd60e51b815260040161028f90611138565b60408051808201909152601981527f53455454494e47535f4d5553545f42455f50524f56494445440000000000000060208201526108b3906001600160a01b0383169063ffffffff610a0416565b6108c5816001600160a01b0316610804565b6108e15760405162461bcd60e51b815260040161028f906110c8565b6108e9610a31565b6102c981610a4f565b61090360998263ffffffff610ab816565b6040516001600160a01b038216907f47d1c22a25bb3a5d4e481b9b1e6944c2eade3181a0a20b495ed61d35b5323f2490600090a250565b6001600160a01b0381166109605760405162461bcd60e51b815260040161028f906110b8565b6066546040516001600160a01b038084169216907f8be0079c531659141344cd1fd0a4f28419497f9722a3daafe3b4186f6b6457e090600090a3606680546001600160a01b0319166001600160a01b0392909216919091179055565b6109c682826107b2565b6109e25760405162461bcd60e51b815260040161028f906110e8565b6001600160a01b0316600090815260209190915260409020805460ff19169055565b610a0d82610b04565b8190610a2c5760405162461bcd60e51b815260040161028f9190611080565b505050565b6000604051610a3f90611040565b6040519081900390206001905550565b6000610a59610623565b6001600160a01b031614610a9a57610a79816001600160a01b0316610804565b610a955760405162461bcd60e51b815260040161028f906110c8565b6102c9565b6000604051610aa89061104b565b6040519081900390208290555050565b610ac282826107b2565b15610adf5760405162461bcd60e51b815260040161028f90611098565b6001600160a01b0316600090815260209190915260409020805460ff19166001179055565b6001600160a01b0316151590565b61022b8061122483390190565b803561038c81611206565b600082601f830112610b3b57600080fd5b8135610b4e610b498261116f565b611148565b91508181835260208401935060208101905083856020840282011115610b7357600080fd5b60005b83811015610b9f5781610b898882610b1f565b8452506020928301929190910190600101610b76565b5050505092915050565b803561038c8161121a565b600060208284031215610bc657600080fd5b60006108388484610b1f565b600080600060608486031215610be757600080fd5b6000610bf38686610b1f565b9350506020610c0486828701610b1f565b9250506040610c1586828701610b1f565b9150509250925092565b600080600060608486031215610c3457600080fd5b6000610c408686610b1f565b9350506020610c5186828701610b1f565b9250506040610c1586828701610ba9565b60008060408385031215610c7557600080fd5b6000610c818585610b1f565b9250506020610c9285828601610ba9565b9150509250929050565b600060208284031215610cae57600080fd5b813567ffffffffffffffff811115610cc557600080fd5b61083884828501610b2a565b610cda816111a2565b82525050565b610cda816111ad565b610cda816111c1565b6000610cfd82611190565b610d078185611194565b9350610d178185602086016111cc565b610d20816111fc565b9093019392505050565b6000610d37601c8361119d565b7f54496e697469616c697a61626c652e6973496e697469616c697a6564000000008152601c0192915050565b6000610d70601f83611194565b7f526f6c65733a206163636f756e7420616c72656164792068617320726f6c6500815260200192915050565b6000610da9601383611194565b724143434f554e54535f4c4953545f454d50545960681b815260200192915050565b6000610dd8602683611194565b7f4f776e61626c653a206e6577206f776e657220697320746865207a65726f206181526564647265737360d01b602082015260400192915050565b6000610e20601b83611194565b7f53455454494e47535f4d5553545f42455f415f434f4e54524143540000000000815260200192915050565b6000610e59601783611194565b7f43414c4c45525f4d5553545f42455f434f4e5452414354000000000000000000815260200192915050565b6000610e92602183611194565b7f526f6c65733a206163636f756e7420646f6573206e6f74206861766520726f6c8152606560f81b602082015260400192915050565b6000610ed5602083611194565b7f4f776e61626c653a2063616c6c6572206973206e6f7420746865206f776e6572815260200192915050565b6000610f0e602283611194565b7f526f6c65733a206163636f756e7420697320746865207a65726f206164647265815261737360f01b602082015260400192915050565b6000610f52602e83611194565b7f436f6e747261637420696e7374616e63652068617320616c726561647920626581526d195b881a5b9a5d1a585b1a5e995960921b602082015260400192915050565b6000610fa2601883611194565b7f53454e4445525f4841534e545f5045524d495353494f4e530000000000000000815260200192915050565b6000610fdb60188361119d565b7f426173655570677261646561626c652e73657474696e67730000000000000000815260180192915050565b6000611014601c83611194565b7f434f4e54524143545f414c52454144595f494e495449414c495a454400000000815260200192915050565b600061038c82610d2a565b600061038c82610fce565b6020810161038c8284610cd1565b6020810161038c8284610ce0565b6020810161038c8284610ce9565b602080825281016110918184610cf2565b9392505050565b6020808252810161038c81610d63565b6020808252810161038c81610d9c565b6020808252810161038c81610dcb565b6020808252810161038c81610e13565b6020808252810161038c81610e4c565b6020808252810161038c81610e85565b6020808252810161038c81610ec8565b6020808252810161038c81610f01565b6020808252810161038c81610f45565b6020808252810161038c81610f95565b6020808252810161038c81611007565b60405181810167ffffffffffffffff8111828210171561116757600080fd5b604052919050565b600067ffffffffffffffff82111561118657600080fd5b5060209081020190565b5190565b90815260200190565b919050565b600061038c826111b2565b151590565b6001600160a01b031690565b90565b600061038c826111a2565b60005b838110156111e75781810151838201526020016111cf565b838111156111f6576000848401525b50505050565b601f01601f191690565b61120f816111a2565b81146102c957600080fd5b61120f816111be56fe608060405234801561001057600080fd5b5061020b806100206000396000f3fe608060405234801561001057600080fd5b50600436106100935760003560e01c80633ff591d9116100665780633ff591d9146100ca578063c41dd8ce146100d2578063cc44cadb146100da578063e00a4615146100e2578063e3f33d00146100ea57610093565b806308b04f62146100985780631139087a146100b257806311880cc8146100ba5780633b98dfdb146100c2575b600080fd5b6100a06100f2565b60408051918252519081900360200190f35b6100a0610109565b6100a0610121565b6100a0610136565b6100a061015a565b6100a0610174565b6100a061018b565b6100a06101a5565b6100a06101bb565b6f21b7b63630ba32b930b6213ab33332b960811b81565b704c6971756964617465457468507269636560781b81565b6d14d859995d1e525b9d195c9d985b60921b81565b7f526571756573744c6f616e5465726d73526174654c696d69740000000000000081565b7252657175697265645375626d697373696f6e7360681b81565b6f4d6178696d756d546f6c6572616e636560801b81565b7226b0bc34b6bab6a637b0b7223ab930ba34b7b760691b81565b6e5465726d7345787069727954696d6560881b81565b730a4cae6e0dedce6ca8af0e0d2e4f298cadccee8d60631b8156fea265627a7a72315820b6cc93d12d39f205ac91b27ee8876405b81cd752a680e010a2828f9ed81bbbb364736f6c63430005110032a365627a7a723158204e94bf6422eb37aee36e330ec87fc0862bb8b1201334a290c4eb99dc8140f2756c6578706572696d656e74616cf564736f6c63430005110040",
  "source": "pragma solidity 0.5.17;\npragma experimental ABIEncoderV2;\n\nimport \"../../base/Consensus.sol\";\n\ncontract ConsensusModifiersMock is Consensus {\n    function externalIsCaller(address sender) external isCaller(sender) {}\n}\n",
  "sourcePath": "/Users/sy/Documents/GitHub/teller-protocol-v1/contracts/mock/base/ConsensusModifiersMock.sol",
  "compiler": {
    "name": "solc",
    "version": "0.5.17+commit.d19bba13.Emscripten.clang"
  },
  "schemaVersion": "3.0.23",
  "updatedAt": "2020-09-06T02:15:12.429Z",
  "devdoc": {
    "methods": {
      "addSigner(address)": {
        "details": "The sender must be the owner.It throws a require error if the sender is not the owner.",
        "params": {
          "account": "address to add."
        }
      },
      "addSigners(address[])": {
        "details": "The sender must be the owner.It throws a require error if the sender is not the owner.",
        "params": {
          "accounts": "addresses to add."
        }
      },
      "initialize(address)": {
        "details": "Initializes the contract setting the deployer as the initial owner."
      },
      "initialize(address,address,address)": {
        "details": "The caller address must be the loans contract for LoanTermsConsensus, and the lenders contract for InterestConsensus.",
        "params": {
          "aCallerAddress": "the contract that will call it.",
          "aSettingAddress": "the settings contract address.",
          "owner": "the owner address."
        }
      },
      "initialized()": {
        "return": "true if contract is initialized. Otherwise it returns false."
      },
      "isOwner()": {
        "details": "Returns true if the caller is the current owner."
      },
      "isSigner(address)": {
        "params": {
          "account": "address to test."
        },
        "return": "true if account is a signer. Otherwise it returns false."
      },
      "owner()": {
        "details": "Returns the address of the current owner."
      },
      "removeSigner(address)": {
        "details": "The sender must be the owner.It throws a require error if the sender is not the owner.",
        "params": {
          "account": "address to remove."
        }
      },
      "renounceOwnership()": {
        "details": "Leaves the contract without owner. It will not be possible to call `onlyOwner` functions anymore. Can only be called by the current owner.     * > Note: Renouncing ownership will leave the contract without an owner, thereby removing any functionality that is only available to the owner."
      },
      "transferOwnership(address)": {
        "details": "Transfers ownership of the contract to a new account (`newOwner`). Can only be called by the current owner."
      }
    }
  },
  "userdoc": {
    "methods": {
      "addSigner(address)": {
        "notice": "It adds a new account as a signer."
      },
      "addSigners(address[])": {
        "notice": "It adds a list of account as signers."
      },
      "initialize(address,address,address)": {
        "notice": "It initializes this consensus contract."
      },
      "initialized()": {
        "notice": "Gets if the contract is initialized."
      },
      "isSigner(address)": {
        "notice": "Gets whether an account address is a signer or not."
      },
      "removeSigner(address)": {
        "notice": "It removes an account as signer."
      },
      "settings()": {
        "notice": "The settings contract."
      }
    }
  }
}