{
  "contractName": "ConsensusMock",
  "abi": [
    {
      "anonymous": false,
      "inputs": [
        {
          "indexed": true,
          "internalType": "address",
          "name": "previousOwner",
          "type": "address"
        },
        {
          "indexed": true,
          "internalType": "address",
          "name": "newOwner",
          "type": "address"
        }
      ],
      "name": "OwnershipTransferred",
      "type": "event"
    },
    {
      "anonymous": false,
      "inputs": [
        {
          "indexed": true,
          "internalType": "address",
          "name": "account",
          "type": "address"
        }
      ],
      "name": "SignerAdded",
      "type": "event"
    },
    {
      "anonymous": false,
      "inputs": [
        {
          "indexed": true,
          "internalType": "address",
          "name": "account",
          "type": "address"
        }
      ],
      "name": "SignerRemoved",
      "type": "event"
    },
    {
      "constant": false,
      "inputs": [
        {
          "internalType": "address",
          "name": "account",
          "type": "address"
        }
      ],
      "name": "addSigner",
      "outputs": [],
      "payable": false,
      "stateMutability": "nonpayable",
      "type": "function"
    },
    {
      "constant": false,
      "inputs": [
        {
          "internalType": "address[]",
          "name": "accounts",
          "type": "address[]"
        }
      ],
      "name": "addSigners",
      "outputs": [],
      "payable": false,
      "stateMutability": "nonpayable",
      "type": "function"
    },
    {
      "constant": true,
      "inputs": [],
      "name": "callerAddress",
      "outputs": [
        {
          "internalType": "address",
          "name": "",
          "type": "address"
        }
      ],
      "payable": false,
      "stateMutability": "view",
      "type": "function"
    },
    {
      "constant": true,
      "inputs": [
        {
          "internalType": "address",
          "name": "",
          "type": "address"
        },
        {
          "internalType": "address",
          "name": "",
          "type": "address"
        },
        {
          "internalType": "uint256",
          "name": "",
          "type": "uint256"
        }
      ],
      "name": "hasSubmitted",
      "outputs": [
        {
          "internalType": "bool",
          "name": "",
          "type": "bool"
        }
      ],
      "payable": false,
      "stateMutability": "view",
      "type": "function"
    },
    {
      "constant": false,
      "inputs": [],
      "name": "initialize",
      "outputs": [],
      "payable": false,
      "stateMutability": "nonpayable",
      "type": "function"
    },
    {
      "constant": false,
      "inputs": [
        {
          "internalType": "address",
          "name": "owner",
          "type": "address"
        },
        {
          "internalType": "address",
          "name": "aCallerAddress",
          "type": "address"
        },
        {
          "internalType": "address",
          "name": "aSettingAddress",
          "type": "address"
        }
      ],
      "name": "initialize",
      "outputs": [],
      "payable": false,
      "stateMutability": "nonpayable",
      "type": "function"
    },
    {
      "constant": false,
      "inputs": [
        {
          "internalType": "address",
          "name": "sender",
          "type": "address"
        }
      ],
      "name": "initialize",
      "outputs": [],
      "payable": false,
      "stateMutability": "nonpayable",
      "type": "function"
    },
    {
      "constant": true,
      "inputs": [],
      "name": "initialized",
      "outputs": [
        {
          "internalType": "bool",
          "name": "value",
          "type": "bool"
        }
      ],
      "payable": false,
      "stateMutability": "view",
      "type": "function"
    },
    {
      "constant": true,
      "inputs": [],
      "name": "isOwner",
      "outputs": [
        {
          "internalType": "bool",
          "name": "",
          "type": "bool"
        }
      ],
      "payable": false,
      "stateMutability": "view",
      "type": "function"
    },
    {
      "constant": true,
      "inputs": [
        {
          "internalType": "address",
          "name": "account",
          "type": "address"
        }
      ],
      "name": "isSigner",
      "outputs": [
        {
          "internalType": "bool",
          "name": "",
          "type": "bool"
        }
      ],
      "payable": false,
      "stateMutability": "view",
      "type": "function"
    },
    {
      "constant": true,
      "inputs": [],
      "name": "owner",
      "outputs": [
        {
          "internalType": "address",
          "name": "",
          "type": "address"
        }
      ],
      "payable": false,
      "stateMutability": "view",
      "type": "function"
    },
    {
      "constant": false,
      "inputs": [
        {
          "internalType": "address",
          "name": "account",
          "type": "address"
        }
      ],
      "name": "removeSigner",
      "outputs": [],
      "payable": false,
      "stateMutability": "nonpayable",
      "type": "function"
    },
    {
      "constant": false,
      "inputs": [],
      "name": "renounceOwnership",
      "outputs": [],
      "payable": false,
      "stateMutability": "nonpayable",
      "type": "function"
    },
    {
      "constant": true,
      "inputs": [
        {
          "internalType": "address",
          "name": "",
          "type": "address"
        },
        {
          "internalType": "uint256",
          "name": "",
          "type": "uint256"
        }
      ],
      "name": "requestNonceTaken",
      "outputs": [
        {
          "internalType": "bool",
          "name": "",
          "type": "bool"
        }
      ],
      "payable": false,
      "stateMutability": "view",
      "type": "function"
    },
    {
      "constant": true,
      "inputs": [],
      "name": "settings",
      "outputs": [
        {
          "internalType": "contract SettingsInterface",
          "name": "",
          "type": "address"
        }
      ],
      "payable": false,
      "stateMutability": "view",
      "type": "function"
    },
    {
      "constant": true,
      "inputs": [
        {
          "internalType": "address",
          "name": "",
          "type": "address"
        },
        {
          "internalType": "uint256",
          "name": "",
          "type": "uint256"
        }
      ],
      "name": "signerNonceTaken",
      "outputs": [
        {
          "internalType": "bool",
          "name": "",
          "type": "bool"
        }
      ],
      "payable": false,
      "stateMutability": "view",
      "type": "function"
    },
    {
      "constant": false,
      "inputs": [
        {
          "internalType": "address",
          "name": "newOwner",
          "type": "address"
        }
      ],
      "name": "transferOwnership",
      "outputs": [],
      "payable": false,
      "stateMutability": "nonpayable",
      "type": "function"
    },
    {
      "constant": true,
      "inputs": [
        {
          "components": [
            {
              "internalType": "uint256",
              "name": "signerNonce",
              "type": "uint256"
            },
            {
              "internalType": "uint8",
              "name": "v",
              "type": "uint8"
            },
            {
              "internalType": "bytes32",
              "name": "r",
              "type": "bytes32"
            },
            {
              "internalType": "bytes32",
              "name": "s",
              "type": "bytes32"
            }
          ],
          "internalType": "struct TellerCommon.Signature",
          "name": "signature",
          "type": "tuple"
        },
        {
          "internalType": "bytes32",
          "name": "dataHash",
          "type": "bytes32"
        },
        {
          "internalType": "address",
          "name": "expectedSigner",
          "type": "address"
        }
      ],
      "name": "externalSignatureValid",
      "outputs": [
        {
          "internalType": "bool",
          "name": "",
          "type": "bool"
        }
      ],
      "payable": false,
      "stateMutability": "view",
      "type": "function"
    }
  ],
  "bytecode": "0x6080604052611483806100136000396000f3fe608060405234801561001057600080fd5b50600436106101165760003560e01c806399ffe065116100a2578063e8906a2d11610071578063e8906a2d14610202578063eb12d61e14610215578063f2fde38b14610228578063faa8aab11461023b578063fb98d9e21461024357610116565b806399ffe065146101b4578063c0c53b8b146101c7578063c4d66de8146101da578063e06174e4146101ed57610116565b8063715018a6116100e9578063715018a6146101745780637df73e271461017c5780638129fc1c1461018f5780638da5cb5b146101975780638f32d59b146101ac57610116565b80630e316ab71461011b578063158ef93e146101305780632d5dc7381461014e57806368fcdeb814610161575b600080fd5b61012e610129366004610cb9565b610256565b005b61013861028f565b604051610145919061123b565b60405180910390f35b61013861015c366004610dd6565b6102ae565b61013861016f366004610d67565b6102d3565b61012e6102f3565b61013861018a366004610cb9565b610361565b61012e61037a565b61019f610401565b604051610145919061122d565b610138610410565b6101386101c2366004610d24565b610436565b61012e6101d5366004610cd7565b61045c565b61012e6101e8366004610cb9565b6104e5565b6101f56105b8565b6040516101459190611287565b61012e610210366004610da1565b6105da565b61012e610223366004610cb9565b610662565b61012e610236366004610cb9565b61068f565b61019f6106bc565b610138610251366004610d67565b6106cb565b61025e610410565b6102835760405162461bcd60e51b815260040161027a90611316565b60405180910390fd5b61028c816106eb565b50565b60008060405161029e906111f7565b6040519081900390205492915050565b60006102c96102c236869003860186610e19565b8484610733565b90505b9392505050565b609b60209081526000928352604080842090915290825290205460ff1681565b6102fb610410565b6103175760405162461bcd60e51b815260040161027a90611316565b6066546040516000916001600160a01b0316907f8be0079c531659141344cd1fd0a4f28419497f9722a3daafe3b4186f6b6457e0908390a3606680546001600160a01b0319169055565b600061037460998363ffffffff61082c16565b92915050565b600054610100900460ff16806103935750610393610874565b806103a1575060005460ff16155b6103bd5760405162461bcd60e51b815260040161027a90611336565b600054610100900460ff161580156103e8576000805460ff1961ff0019909116610100171660011790555b6001603355801561028c576000805461ff001916905550565b6066546001600160a01b031690565b6066546000906001600160a01b031661042761087a565b6001600160a01b031614905090565b609a60209081526000938452604080852082529284528284209052825290205460ff1681565b61046461028f565b156104815760405162461bcd60e51b815260040161027a90611346565b610493826001600160a01b031661087e565b6104af5760405162461bcd60e51b815260040161027a906112e6565b6104b8836104e5565b6104c1816108ba565b50609c80546001600160a01b0319166001600160a01b039290921691909117905550565b600054610100900460ff16806104fe57506104fe610874565b8061050c575060005460ff16155b6105285760405162461bcd60e51b815260040161027a90611336565b600054610100900460ff16158015610553576000805460ff1961ff0019909116610100171660011790555b606680546001600160a01b0319166001600160a01b0384811691909117918290556040519116906000907f8be0079c531659141344cd1fd0a4f28419497f9722a3daafe3b4186f6b6457e0908290a380156105b4576000805461ff00191690555b5050565b60008060006040516105c990611222565b604051908190039020549250505090565b6105e2610410565b6105fe5760405162461bcd60e51b815260040161027a90611316565b600081511161061f5760405162461bcd60e51b815260040161027a906112b6565b60005b81518110156105b457600082828151811061063957fe5b6020026020010151905061064c81610361565b610659576106598161096c565b50600101610622565b61066a610410565b6106865760405162461bcd60e51b815260040161027a90611316565b61028c8161096c565b610697610410565b6106b35760405162461bcd60e51b815260040161027a90611316565b61028c816109b4565b609c546001600160a01b031681565b609d60209081526000928352604080842090915290825290205460ff1681565b6106fc60998263ffffffff610a3616565b6040516001600160a01b038216907f3525e22824a8a7df2c9a6029941c824cf95b6447f1e13d5128fd3826d35afe8b90600090a250565b600061073e82610361565b61074a575060006102cc565b6001600160a01b0382166000908152609b602090815260408083208751845290915290205460ff161561078f5760405162461bcd60e51b815260040161027a906112f6565b60006001846040516020016107a49190611202565b60405160208183030381529060405280519060200120866020015187604001518860600151604051600081526020016040526040516107e69493929190611249565b6020604051602081039080840390855afa158015610808573d6000803e3d6000fd5b5050604051601f1901516001600160a01b0390811690851614925050509392505050565b60006001600160a01b0382166108545760405162461bcd60e51b815260040161027a90611326565b506001600160a01b03166000908152602091909152604090205460ff1690565b303b1590565b3390565b6000813f7fc5d2460186f7233c927e7db2dcc703c0e500b653ca82273b7bfad8045d85a4708181148015906108b257508115155b949350505050565b6108c261028f565b156108df5760405162461bcd60e51b815260040161027a90611346565b60408051808201909152601981527f53455454494e47535f4d5553545f42455f50524f564944454400000000000000602082015261092d906001600160a01b0383169063ffffffff610a7e16565b61093f816001600160a01b031661087e565b61095b5760405162461bcd60e51b815260040161027a906112d6565b610963610aab565b61028c81610ac9565b61097d60998263ffffffff610b3816565b6040516001600160a01b038216907f47d1c22a25bb3a5d4e481b9b1e6944c2eade3181a0a20b495ed61d35b5323f2490600090a250565b6001600160a01b0381166109da5760405162461bcd60e51b815260040161027a906112c6565b6066546040516001600160a01b038084169216907f8be0079c531659141344cd1fd0a4f28419497f9722a3daafe3b4186f6b6457e090600090a3606680546001600160a01b0319166001600160a01b0392909216919091179055565b610a40828261082c565b610a5c5760405162461bcd60e51b815260040161027a90611306565b6001600160a01b0316600090815260209190915260409020805460ff19169055565b610a8782610b84565b8190610aa65760405162461bcd60e51b815260040161027a9190611295565b505050565b6000604051610ab9906111f7565b6040519081900390206001905550565b610ae2610ad46105b8565b6001600160a01b0316610b84565b15610aec5761028c565b610afe816001600160a01b031661087e565b610b1a5760405162461bcd60e51b815260040161027a906112d6565b6000604051610b2890611222565b6040519081900390208290555050565b610b42828261082c565b15610b5f5760405162461bcd60e51b815260040161027a906112a6565b6001600160a01b0316600090815260209190915260409020805460ff19166001179055565b6001600160a01b0316151590565b80356103748161141a565b600082601f830112610bae57600080fd5b8135610bc1610bbc8261137d565b611356565b91508181835260208401935060208101905083856020840282011115610be657600080fd5b60005b83811015610c125781610bfc8882610b92565b8452506020928301929190910190600101610be9565b5050505092915050565b80356103748161142e565b600060808284031215610c3957600080fd5b50919050565b600060808284031215610c5157600080fd5b610c5b6080611356565b90506000610c698484610c1c565b8252506020610c7a84848301610cae565b6020830152506040610c8e84828501610c1c565b6040830152506060610ca284828501610c1c565b60608301525092915050565b803561037481611437565b600060208284031215610ccb57600080fd5b60006108b28484610b92565b600080600060608486031215610cec57600080fd5b6000610cf88686610b92565b9350506020610d0986828701610b92565b9250506040610d1a86828701610b92565b9150509250925092565b600080600060608486031215610d3957600080fd5b6000610d458686610b92565b9350506020610d5686828701610b92565b9250506040610d1a86828701610c1c565b60008060408385031215610d7a57600080fd5b6000610d868585610b92565b9250506020610d9785828601610c1c565b9150509250929050565b600060208284031215610db357600080fd5b813567ffffffffffffffff811115610dca57600080fd5b6108b284828501610b9d565b600080600060c08486031215610deb57600080fd5b6000610df78686610c27565b9350506080610e0886828701610c1c565b92505060a0610d1a86828701610b92565b600060808284031215610e2b57600080fd5b60006108b28484610c3f565b610e40816113b0565b82525050565b610e40816113bb565b610e40816113c0565b610e40610e64826113c0565b6113c0565b610e40816113d5565b6000610e7d8261139e565b610e8781856113a2565b9350610e978185602086016113e0565b610ea081611410565b9093019392505050565b6000610eb7601c836113ab565b7f54496e697469616c697a61626c652e6973496e697469616c697a6564000000008152601c0192915050565b6000610ef0601f836113a2565b7f526f6c65733a206163636f756e7420616c72656164792068617320726f6c6500815260200192915050565b6000610f296013836113a2565b724143434f554e54535f4c4953545f454d50545960681b815260200192915050565b6000610f58601c836113ab565b7f19457468657265756d205369676e6564204d6573736167653a0a3332000000008152601c0192915050565b6000610f916026836113a2565b7f4f776e61626c653a206e6577206f776e657220697320746865207a65726f206181526564647265737360d01b602082015260400192915050565b6000610fd9601b836113a2565b7f53455454494e47535f4d5553545f42455f415f434f4e54524143540000000000815260200192915050565b60006110126017836113a2565b7f43414c4c45525f4d5553545f42455f434f4e5452414354000000000000000000815260200192915050565b600061104b6012836113a2565b7129a4a3a722a92fa727a721a2afaa20a5a2a760711b815260200192915050565b60006110796021836113a2565b7f526f6c65733a206163636f756e7420646f6573206e6f74206861766520726f6c8152606560f81b602082015260400192915050565b60006110bc6020836113a2565b7f4f776e61626c653a2063616c6c6572206973206e6f7420746865206f776e6572815260200192915050565b60006110f56022836113a2565b7f526f6c65733a206163636f756e7420697320746865207a65726f206164647265815261737360f01b602082015260400192915050565b6000611139602e836113a2565b7f436f6e747261637420696e7374616e63652068617320616c726561647920626581526d195b881a5b9a5d1a585b1a5e995960921b602082015260400192915050565b60006111896018836113ab565b7f426173655570677261646561626c652e73657474696e67730000000000000000815260180192915050565b60006111c2601c836113a2565b7f434f4e54524143545f414c52454144595f494e495449414c495a454400000000815260200192915050565b610e40816113cf565b600061037482610eaa565b600061120d82610f4b565b91506112198284610e58565b50602001919050565b60006103748261117c565b602081016103748284610e37565b602081016103748284610e46565b608081016112578287610e4f565b61126460208301866111ee565b6112716040830185610e4f565b61127e6060830184610e4f565b95945050505050565b602081016103748284610e69565b602080825281016102cc8184610e72565b6020808252810161037481610ee3565b6020808252810161037481610f1c565b6020808252810161037481610f84565b6020808252810161037481610fcc565b6020808252810161037481611005565b602080825281016103748161103e565b602080825281016103748161106c565b60208082528101610374816110af565b60208082528101610374816110e8565b602080825281016103748161112c565b60208082528101610374816111b5565b60405181810167ffffffffffffffff8111828210171561137557600080fd5b604052919050565b600067ffffffffffffffff82111561139457600080fd5b5060209081020190565b5190565b90815260200190565b919050565b6000610374826113c3565b151590565b90565b6001600160a01b031690565b60ff1690565b6000610374826113b0565b60005b838110156113fb5781810151838201526020016113e3565b8381111561140a576000848401525b50505050565b601f01601f191690565b611423816113b0565b811461028c57600080fd5b611423816113c0565b611423816113cf56fea365627a7a72315820b2bf774ff47b470e1e67dbc2a98a34b59a0455c9f43bc141892c284e309552d46c6578706572696d656e74616cf564736f6c63430005110040",
  "source": "pragma solidity 0.5.17;\npragma experimental ABIEncoderV2;\n\nimport \"../../base/Consensus.sol\";\n\ncontract ConsensusMock is Consensus {\n    function externalSignatureValid(\n        TellerCommon.Signature calldata signature,\n        bytes32 dataHash,\n        address expectedSigner\n    ) external view returns (bool) {\n        return _signatureValid(signature, dataHash, expectedSigner);\n    }\n}\n",
  "sourcePath": "/Users/sy/Documents/GitHub/teller-protocol-v1/contracts/mock/base/ConsensusMock.sol",
  "compiler": {
    "name": "solc",
    "version": "0.5.17+commit.d19bba13.Emscripten.clang"
  },
  "schemaVersion": "3.0.23",
  "updatedAt": "2020-09-15T23:09:49.881Z",
  "devdoc": {
    "methods": {
      "addSigner(address)": {
        "details": "The sender must be the owner.It throws a require error if the sender is not the owner.",
        "params": {
          "account": "address to add."
        }
      },
      "addSigners(address[])": {
        "details": "The sender must be the owner.It throws a require error if the sender is not the owner.",
        "params": {
          "accounts": "addresses to add."
        }
      },
      "initialize(address)": {
        "details": "Initializes the contract setting the deployer as the initial owner."
      },
      "initialize(address,address,address)": {
        "details": "The caller address must be the loans contract for LoanTermsConsensus, and the lenders contract for InterestConsensus.",
        "params": {
          "aCallerAddress": "the contract that will call it.",
          "aSettingAddress": "the settings contract address.",
          "owner": "the owner address."
        }
      },
      "initialized()": {
        "return": "true if contract is initialized. Otherwise it returns false."
      },
      "isOwner()": {
        "details": "Returns true if the caller is the current owner."
      },
      "isSigner(address)": {
        "params": {
          "account": "address to test."
        },
        "return": "true if account is a signer. Otherwise it returns false."
      },
      "owner()": {
        "details": "Returns the address of the current owner."
      },
      "removeSigner(address)": {
        "details": "The sender must be the owner.It throws a require error if the sender is not the owner.",
        "params": {
          "account": "address to remove."
        }
      },
      "renounceOwnership()": {
        "details": "Leaves the contract without owner. It will not be possible to call `onlyOwner` functions anymore. Can only be called by the current owner.     * > Note: Renouncing ownership will leave the contract without an owner, thereby removing any functionality that is only available to the owner."
      },
      "settings()": {
        "details": "This address should NOT change over the time. See details in the _setSettings(...) function."
      },
      "transferOwnership(address)": {
        "details": "Transfers ownership of the contract to a new account (`newOwner`). Can only be called by the current owner."
      }
    }
  },
  "userdoc": {
    "methods": {
      "addSigner(address)": {
        "notice": "It adds a new account as a signer."
      },
      "addSigners(address[])": {
        "notice": "It adds a list of account as signers."
      },
      "initialize(address,address,address)": {
        "notice": "It initializes this consensus contract."
      },
      "initialized()": {
        "notice": "Gets if the contract is initialized."
      },
      "isSigner(address)": {
        "notice": "Gets whether an account address is a signer or not."
      },
      "removeSigner(address)": {
        "notice": "It removes an account as signer."
      },
      "settings()": {
        "notice": "The gets the settings contract address from the SETTINGS_SLOT."
      }
    }
  }
}