{
  "contractName": "Consensus",
  "abi": [
    {
      "inputs": [
        {
          "internalType": "uint256",
          "name": "initRequiredSubmissions",
          "type": "uint256"
        },
        {
          "internalType": "uint256",
          "name": "initMaximumTolerance",
          "type": "uint256"
        }
      ],
      "payable": false,
      "stateMutability": "nonpayable",
      "type": "constructor"
    },
    {
      "anonymous": false,
      "inputs": [
        {
          "indexed": true,
          "internalType": "address",
          "name": "account",
          "type": "address"
        }
      ],
      "name": "SignerAdded",
      "type": "event"
    },
    {
      "anonymous": false,
      "inputs": [
        {
          "indexed": true,
          "internalType": "address",
          "name": "account",
          "type": "address"
        }
      ],
      "name": "SignerRemoved",
      "type": "event"
    },
    {
      "constant": false,
      "inputs": [
        {
          "internalType": "address",
          "name": "account",
          "type": "address"
        }
      ],
      "name": "addSigner",
      "outputs": [],
      "payable": false,
      "stateMutability": "nonpayable",
      "type": "function"
    },
    {
      "constant": true,
      "inputs": [
        {
          "internalType": "address",
          "name": "",
          "type": "address"
        },
        {
          "internalType": "address",
          "name": "",
          "type": "address"
        },
        {
          "internalType": "uint256",
          "name": "",
          "type": "uint256"
        }
      ],
      "name": "hasSubmitted",
      "outputs": [
        {
          "internalType": "bool",
          "name": "",
          "type": "bool"
        }
      ],
      "payable": false,
      "stateMutability": "view",
      "type": "function"
    },
    {
      "constant": true,
      "inputs": [
        {
          "internalType": "address",
          "name": "account",
          "type": "address"
        }
      ],
      "name": "isSigner",
      "outputs": [
        {
          "internalType": "bool",
          "name": "",
          "type": "bool"
        }
      ],
      "payable": false,
      "stateMutability": "view",
      "type": "function"
    },
    {
      "constant": true,
      "inputs": [],
      "name": "maximumTolerance",
      "outputs": [
        {
          "internalType": "uint256",
          "name": "",
          "type": "uint256"
        }
      ],
      "payable": false,
      "stateMutability": "view",
      "type": "function"
    },
    {
      "constant": false,
      "inputs": [],
      "name": "renounceSigner",
      "outputs": [],
      "payable": false,
      "stateMutability": "nonpayable",
      "type": "function"
    },
    {
      "constant": true,
      "inputs": [],
      "name": "requiredSubmissions",
      "outputs": [
        {
          "internalType": "uint256",
          "name": "",
          "type": "uint256"
        }
      ],
      "payable": false,
      "stateMutability": "view",
      "type": "function"
    },
    {
      "constant": true,
      "inputs": [
        {
          "internalType": "address",
          "name": "",
          "type": "address"
        },
        {
          "internalType": "uint256",
          "name": "",
          "type": "uint256"
        }
      ],
      "name": "signerNonceTaken",
      "outputs": [
        {
          "internalType": "bool",
          "name": "",
          "type": "bool"
        }
      ],
      "payable": false,
      "stateMutability": "view",
      "type": "function"
    }
  ],
  "bytecode": "0x608060405234801561001057600080fd5b50604051610a90380380610a908339818101604052604081101561003357600080fd5b81019080805190602001909291908051906020019092919050505061006a61005f6100f560201b60201c565b6100fd60201b60201c565b600082116100e0576040517f08c379a00000000000000000000000000000000000000000000000000000000081526004018080602001828103825260168152602001807f56414c55455f4d5553545f42455f50524f56494445440000000000000000000081525060200191505060405180910390fd5b8160038190555080600481905550505061031a565b600033905090565b61011581600061015b60201b6105c21790919060201c565b8073ffffffffffffffffffffffffffffffffffffffff167f47d1c22a25bb3a5d4e481b9b1e6944c2eade3181a0a20b495ed61d35b5323f2460405160405180910390a250565b61016b828261023c60201b60201c565b156101de576040517f08c379a000000000000000000000000000000000000000000000000000000000815260040180806020018281038252601f8152602001807f526f6c65733a206163636f756e7420616c72656164792068617320726f6c650081525060200191505060405180910390fd5b60018260000160008373ffffffffffffffffffffffffffffffffffffffff1673ffffffffffffffffffffffffffffffffffffffff16815260200190815260200160002060006101000a81548160ff0219169083151502179055505050565b60008073ffffffffffffffffffffffffffffffffffffffff168273ffffffffffffffffffffffffffffffffffffffff1614156102c3576040517f08c379a0000000000000000000000000000000000000000000000000000000008152600401808060200182810382526022815260200180610a6e6022913960400191505060405180910390fd5b8260000160008373ffffffffffffffffffffffffffffffffffffffff1673ffffffffffffffffffffffffffffffffffffffff16815260200190815260200160002060009054906101000a900460ff16905092915050565b610745806103296000396000f3fe608060405234801561001057600080fd5b506004361061007d5760003560e01c806399ffe0651161005b57806399ffe06514610162578063b9f9e304146101e8578063e5c8b03d14610206578063eb12d61e146102105761007d565b806368fcdeb8146100825780637df73e27146100e85780637f43394314610144575b600080fd5b6100ce6004803603604081101561009857600080fd5b81019080803573ffffffffffffffffffffffffffffffffffffffff16906020019092919080359060200190929190505050610254565b604051808215151515815260200191505060405180910390f35b61012a600480360360208110156100fe57600080fd5b81019080803573ffffffffffffffffffffffffffffffffffffffff169060200190929190505050610283565b604051808215151515815260200191505060405180910390f35b61014c6102a0565b6040518082815260200191505060405180910390f35b6101ce6004803603606081101561017857600080fd5b81019080803573ffffffffffffffffffffffffffffffffffffffff169060200190929190803573ffffffffffffffffffffffffffffffffffffffff169060200190929190803590602001909291905050506102a6565b604051808215151515815260200191505060405180910390f35b6101f06102e2565b6040518082815260200191505060405180910390f35b61020e6102e8565b005b6102526004803603602081101561022657600080fd5b81019080803573ffffffffffffffffffffffffffffffffffffffff1690602001909291905050506102fa565b005b60026020528160005260406000206020528060005260406000206000915091509054906101000a900460ff1681565b600061029982600061036b90919063ffffffff16565b9050919050565b60045481565b6001602052826000526040600020602052816000526040600020602052806000526040600020600092509250509054906101000a900460ff1681565b60035481565b6102f86102f3610449565b610451565b565b61030a610305610449565b610283565b61035f576040517f08c379a00000000000000000000000000000000000000000000000000000000081526004018080602001828103825260308152602001806106e16030913960400191505060405180910390fd5b610368816104ab565b50565b60008073ffffffffffffffffffffffffffffffffffffffff168273ffffffffffffffffffffffffffffffffffffffff1614156103f2576040517f08c379a00000000000000000000000000000000000000000000000000000000081526004018080602001828103825260228152602001806106bf6022913960400191505060405180910390fd5b8260000160008373ffffffffffffffffffffffffffffffffffffffff1673ffffffffffffffffffffffffffffffffffffffff16815260200190815260200160002060009054906101000a900460ff16905092915050565b600033905090565b61046581600061050590919063ffffffff16565b8073ffffffffffffffffffffffffffffffffffffffff167f3525e22824a8a7df2c9a6029941c824cf95b6447f1e13d5128fd3826d35afe8b60405160405180910390a250565b6104bf8160006105c290919063ffffffff16565b8073ffffffffffffffffffffffffffffffffffffffff167f47d1c22a25bb3a5d4e481b9b1e6944c2eade3181a0a20b495ed61d35b5323f2460405160405180910390a250565b61050f828261036b565b610564576040517f08c379a000000000000000000000000000000000000000000000000000000000815260040180806020018281038252602181526020018061069e6021913960400191505060405180910390fd5b60008260000160008373ffffffffffffffffffffffffffffffffffffffff1673ffffffffffffffffffffffffffffffffffffffff16815260200190815260200160002060006101000a81548160ff0219169083151502179055505050565b6105cc828261036b565b1561063f576040517f08c379a000000000000000000000000000000000000000000000000000000000815260040180806020018281038252601f8152602001807f526f6c65733a206163636f756e7420616c72656164792068617320726f6c650081525060200191505060405180910390fd5b60018260000160008373ffffffffffffffffffffffffffffffffffffffff1673ffffffffffffffffffffffffffffffffffffffff16815260200190815260200160002060006101000a81548160ff021916908315150217905550505056fe526f6c65733a206163636f756e7420646f6573206e6f74206861766520726f6c65526f6c65733a206163636f756e7420697320746865207a65726f20616464726573735369676e6572526f6c653a2063616c6c657220646f6573206e6f74206861766520746865205369676e657220726f6c65a265627a7a72315820e442411982c35fa36e969032486c195ac821961c3b329df0cc28e5d34620123b64736f6c63430005110032526f6c65733a206163636f756e7420697320746865207a65726f2061646472657373",
  "source": "/*\n    Copyright 2020 Fabrx Labs Inc.\n\n    Licensed under the Apache License, Version 2.0 (the \"License\");\n    you may not use this file except in compliance with the License.\n    You may obtain a copy of the License at\n\n    http://www.apache.org/licenses/LICENSE-2.0\n\n    Unless required by applicable law or agreed to in writing, software\n    distributed under the License is distributed on an \"AS IS\" BASIS,\n    WITHOUT WARRANTIES OR CONDITIONS OF ANY KIND, either express or implied.\n    See the License for the specific language governing permissions and\n    limitations under the License.\n*/\npragma solidity 0.5.17;\n\n// Libraries\nimport \"openzeppelin-solidity/contracts/math/SafeMath.sol\";\nimport \"../util/ZeroCollateralCommon.sol\";\n\n// Contracts\nimport \"openzeppelin-solidity/contracts/access/roles/SignerRole.sol\";\n\n\ncontract Consensus is SignerRole {\n    using SafeMath for uint256;\n\n    uint256 internal constant PERCENTAGE_TO_DECIMAL = 10000;\n\n    // Has signer address already submitted their answer for (user, identifier)?\n    mapping(address => mapping(address => mapping(uint256 => bool))) public hasSubmitted;\n\n    // mapping from signer address, to signerNonce, to boolean.\n    // Has the signer already used this nonce?\n    mapping(address => mapping(uint256 => bool)) public signerNonceTaken;\n\n    // the total number of submissions required for consensus on a value\n    uint256 public requiredSubmissions;\n\n    // this is a percentage with 2 decimal places\n    // i.e. maximumTolerance of 325 => tolerance of 3.25% => 0.0325 of value\n    uint256 public maximumTolerance;\n\n    constructor(uint256 initRequiredSubmissions, uint256 initMaximumTolerance) public {\n        require(initRequiredSubmissions > 0, \"VALUE_MUST_BE_PROVIDED\");\n        requiredSubmissions = initRequiredSubmissions;\n        maximumTolerance = initMaximumTolerance;\n    }\n\n    function _resultsWithinTolerance(uint256 maximum, uint256 minimum, uint256 average)\n        internal\n        view\n        returns (bool)\n    {\n        // maximumTolerance = 325 => tolerance of 3.25% => 0.0325 of value\n        uint256 toleranceAmount = average.mul(maximumTolerance).div(\n            PERCENTAGE_TO_DECIMAL\n        );\n\n        if (minimum < average.sub(toleranceAmount)) {\n            return false;\n        }\n        if (maximum > average.add(toleranceAmount)) {\n            return false;\n        }\n        return true;\n    }\n\n    function _signatureValid(\n        ZeroCollateralCommon.Signature memory signature,\n        bytes32 dataHash\n    ) internal view returns (bool) {\n        address signer = ecrecover(\n            keccak256(abi.encodePacked(\"\\x19Ethereum Signed Message:\\n32\", dataHash)),\n            signature.v,\n            signature.r,\n            signature.s\n        );\n\n        return (signer == msg.sender);\n    }\n}\n",
  "sourcePath": "/home/jalil/Programs/zero-collateral-v1/contracts/base/Consensus.sol",
  "compiler": {
    "name": "solc",
    "version": "0.5.17+commit.d19bba13.Emscripten.clang"
  },
  "schemaVersion": "3.0.23",
  "updatedAt": "2020-04-29T14:20:38.780Z",
  "devdoc": {
    "methods": {}
  },
  "userdoc": {
    "methods": {}
  }
}