{
  "contractName": "ConsensusMock",
  "abi": [
    {
      "inputs": [
        {
          "internalType": "uint256",
          "name": "initRequiredSubmissions",
          "type": "uint256"
        },
        {
          "internalType": "uint256",
          "name": "initMaximumTolerance",
          "type": "uint256"
        }
      ],
      "payable": false,
      "stateMutability": "nonpayable",
      "type": "constructor"
    },
    {
      "anonymous": false,
      "inputs": [
        {
          "indexed": true,
          "internalType": "address",
          "name": "account",
          "type": "address"
        }
      ],
      "name": "SignerAdded",
      "type": "event"
    },
    {
      "anonymous": false,
      "inputs": [
        {
          "indexed": true,
          "internalType": "address",
          "name": "account",
          "type": "address"
        }
      ],
      "name": "SignerRemoved",
      "type": "event"
    },
    {
      "constant": false,
      "inputs": [
        {
          "internalType": "address",
          "name": "account",
          "type": "address"
        }
      ],
      "name": "addSigner",
      "outputs": [],
      "payable": false,
      "stateMutability": "nonpayable",
      "type": "function"
    },
    {
      "constant": true,
      "inputs": [
        {
          "internalType": "address",
          "name": "",
          "type": "address"
        },
        {
          "internalType": "address",
          "name": "",
          "type": "address"
        },
        {
          "internalType": "uint256",
          "name": "",
          "type": "uint256"
        }
      ],
      "name": "hasSubmitted",
      "outputs": [
        {
          "internalType": "bool",
          "name": "",
          "type": "bool"
        }
      ],
      "payable": false,
      "stateMutability": "view",
      "type": "function"
    },
    {
      "constant": true,
      "inputs": [
        {
          "internalType": "address",
          "name": "account",
          "type": "address"
        }
      ],
      "name": "isSigner",
      "outputs": [
        {
          "internalType": "bool",
          "name": "",
          "type": "bool"
        }
      ],
      "payable": false,
      "stateMutability": "view",
      "type": "function"
    },
    {
      "constant": true,
      "inputs": [],
      "name": "maximumTolerance",
      "outputs": [
        {
          "internalType": "uint256",
          "name": "",
          "type": "uint256"
        }
      ],
      "payable": false,
      "stateMutability": "view",
      "type": "function"
    },
    {
      "constant": false,
      "inputs": [],
      "name": "renounceSigner",
      "outputs": [],
      "payable": false,
      "stateMutability": "nonpayable",
      "type": "function"
    },
    {
      "constant": true,
      "inputs": [],
      "name": "requiredSubmissions",
      "outputs": [
        {
          "internalType": "uint256",
          "name": "",
          "type": "uint256"
        }
      ],
      "payable": false,
      "stateMutability": "view",
      "type": "function"
    },
    {
      "constant": true,
      "inputs": [
        {
          "internalType": "address",
          "name": "",
          "type": "address"
        },
        {
          "internalType": "uint256",
          "name": "",
          "type": "uint256"
        }
      ],
      "name": "signerNonceTaken",
      "outputs": [
        {
          "internalType": "bool",
          "name": "",
          "type": "bool"
        }
      ],
      "payable": false,
      "stateMutability": "view",
      "type": "function"
    },
    {
      "constant": true,
      "inputs": [
        {
          "components": [
            {
              "internalType": "uint256",
              "name": "signerNonce",
              "type": "uint256"
            },
            {
              "internalType": "uint8",
              "name": "v",
              "type": "uint8"
            },
            {
              "internalType": "bytes32",
              "name": "r",
              "type": "bytes32"
            },
            {
              "internalType": "bytes32",
              "name": "s",
              "type": "bytes32"
            }
          ],
          "internalType": "struct ZeroCollateralCommon.Signature",
          "name": "signature",
          "type": "tuple"
        },
        {
          "internalType": "bytes32",
          "name": "dataHash",
          "type": "bytes32"
        }
      ],
      "name": "externalSignatureValid",
      "outputs": [
        {
          "internalType": "bool",
          "name": "",
          "type": "bool"
        }
      ],
      "payable": false,
      "stateMutability": "view",
      "type": "function"
    },
    {
      "constant": true,
      "inputs": [
        {
          "internalType": "uint256",
          "name": "maximum",
          "type": "uint256"
        },
        {
          "internalType": "uint256",
          "name": "minimum",
          "type": "uint256"
        },
        {
          "internalType": "uint256",
          "name": "average",
          "type": "uint256"
        }
      ],
      "name": "externalResultsWithinTolerance",
      "outputs": [
        {
          "internalType": "bool",
          "name": "",
          "type": "bool"
        }
      ],
      "payable": false,
      "stateMutability": "view",
      "type": "function"
    }
  ],
  "bytecode": "0x60806040523480156200001157600080fd5b506040516200162d3803806200162d8339818101604052620000379190810190620002b5565b8181620000596200004d620000b760201b60201c565b620000bf60201b60201c565b600082116200009f576040517f08c379a0000000000000000000000000000000000000000000000000000000008152600401620000969062000426565b60405180910390fd5b8160038190555080600481905550505050506200047d565b600033905090565b620000da8160006200012060201b620007ea1790919060201c565b8073ffffffffffffffffffffffffffffffffffffffff167f47d1c22a25bb3a5d4e481b9b1e6944c2eade3181a0a20b495ed61d35b5323f2460405160405180910390a250565b620001328282620001d360201b60201c565b1562000175576040517f08c379a00000000000000000000000000000000000000000000000000000000081526004016200016c90620003e2565b60405180910390fd5b60018260000160008373ffffffffffffffffffffffffffffffffffffffff1673ffffffffffffffffffffffffffffffffffffffff16815260200190815260200160002060006101000a81548160ff0219169083151502179055505050565b60008073ffffffffffffffffffffffffffffffffffffffff168273ffffffffffffffffffffffffffffffffffffffff16141562000247576040517f08c379a00000000000000000000000000000000000000000000000000000000081526004016200023e9062000404565b60405180910390fd5b8260000160008373ffffffffffffffffffffffffffffffffffffffff1673ffffffffffffffffffffffffffffffffffffffff16815260200190815260200160002060009054906101000a900460ff16905092915050565b600081519050620002af8162000463565b92915050565b60008060408385031215620002c957600080fd5b6000620002d9858286016200029e565b9250506020620002ec858286016200029e565b9150509250929050565b600062000305601f8362000448565b91507f526f6c65733a206163636f756e7420616c72656164792068617320726f6c65006000830152602082019050919050565b60006200034760228362000448565b91507f526f6c65733a206163636f756e7420697320746865207a65726f20616464726560008301527f73730000000000000000000000000000000000000000000000000000000000006020830152604082019050919050565b6000620003af60168362000448565b91507f56414c55455f4d5553545f42455f50524f5649444544000000000000000000006000830152602082019050919050565b60006020820190508181036000830152620003fd81620002f6565b9050919050565b600060208201905081810360008301526200041f8162000338565b9050919050565b600060208201905081810360008301526200044181620003a0565b9050919050565b600082825260208201905092915050565b6000819050919050565b6200046e8162000459565b81146200047a57600080fd5b50565b6111a0806200048d6000396000f3fe608060405234801561001057600080fd5b50600436106100935760003560e01c806399ffe0651161006657806399ffe06514610146578063b9f9e30414610176578063c2e64ce914610194578063e5c8b03d146101c4578063eb12d61e146101ce57610093565b8063681a68ca1461009857806368fcdeb8146100c85780637df73e27146100f85780637f43394314610128575b600080fd5b6100b260048036036100ad9190810190610ae5565b6101ea565b6040516100bf9190610ea3565b60405180910390f35b6100e260048036036100dd9190810190610aa9565b61020e565b6040516100ef9190610ea3565b60405180910390f35b610112600480360361010d9190810190610a31565b61023d565b60405161011f9190610ea3565b60405180910390f35b61013061025a565b60405161013d9190610fe5565b60405180910390f35b610160600480360361015b9190810190610a5a565b610260565b60405161016d9190610ea3565b60405180910390f35b61017e61029c565b60405161018b9190610fe5565b60405180910390f35b6101ae60048036036101a99190810190610b4a565b6102a2565b6040516101bb9190610ea3565b60405180910390f35b6101cc6102b8565b005b6101e860048036036101e39190810190610a31565b6102ca565b005b6000610206838036036102009190810190610b21565b83610325565b905092915050565b60026020528160005260406000206020528060005260406000206000915091509054906101000a900460ff1681565b60006102538260006103e390919063ffffffff16565b9050919050565b60045481565b6001602052826000526040600020602052816000526040600020602052806000526040600020600092509250509054906101000a900460ff1681565b60035481565b60006102af8484846104ab565b90509392505050565b6102c86102c361052e565b610536565b565b6102da6102d561052e565b61023d565b610319576040517f08c379a000000000000000000000000000000000000000000000000000000000815260040161031090610fc5565b60405180910390fd5b61032281610590565b50565b60008060018360405160200161033b9190610e7d565b604051602081830303815290604052805190602001208560200151866040015187606001516040516000815260200160405260405161037d9493929190610ebe565b6020604051602081039080840390855afa15801561039f573d6000803e3d6000fd5b5050506020604051035190503373ffffffffffffffffffffffffffffffffffffffff168173ffffffffffffffffffffffffffffffffffffffff161491505092915050565b60008073ffffffffffffffffffffffffffffffffffffffff168273ffffffffffffffffffffffffffffffffffffffff161415610454576040517f08c379a000000000000000000000000000000000000000000000000000000000815260040161044b90610fa5565b60405180910390fd5b8260000160008373ffffffffffffffffffffffffffffffffffffffff1673ffffffffffffffffffffffffffffffffffffffff16815260200190815260200160002060009054906101000a900460ff16905092915050565b6000806104d76127106104c9600454866105ea90919063ffffffff16565b61065a90919063ffffffff16565b90506104ec81846106a490919063ffffffff16565b8410156104fd576000915050610527565b61051081846106ee90919063ffffffff16565b851115610521576000915050610527565b60019150505b9392505050565b600033905090565b61054a81600061074390919063ffffffff16565b8073ffffffffffffffffffffffffffffffffffffffff167f3525e22824a8a7df2c9a6029941c824cf95b6447f1e13d5128fd3826d35afe8b60405160405180910390a250565b6105a48160006107ea90919063ffffffff16565b8073ffffffffffffffffffffffffffffffffffffffff167f47d1c22a25bb3a5d4e481b9b1e6944c2eade3181a0a20b495ed61d35b5323f2460405160405180910390a250565b6000808314156105fd5760009050610654565b600082840290508284828161060e57fe5b041461064f576040517f08c379a000000000000000000000000000000000000000000000000000000000815260040161064690610f85565b60405180910390fd5b809150505b92915050565b600061069c83836040518060400160405280601a81526020017f536166654d6174683a206469766973696f6e206279207a65726f000000000000815250610892565b905092915050565b60006106e683836040518060400160405280601e81526020017f536166654d6174683a207375627472616374696f6e206f766572666c6f7700008152506108f3565b905092915050565b600080828401905083811015610739576040517f08c379a000000000000000000000000000000000000000000000000000000000815260040161073090610f45565b60405180910390fd5b8091505092915050565b61074d82826103e3565b61078c576040517f08c379a000000000000000000000000000000000000000000000000000000000815260040161078390610f65565b60405180910390fd5b60008260000160008373ffffffffffffffffffffffffffffffffffffffff1673ffffffffffffffffffffffffffffffffffffffff16815260200190815260200160002060006101000a81548160ff0219169083151502179055505050565b6107f482826103e3565b15610834576040517f08c379a000000000000000000000000000000000000000000000000000000000815260040161082b90610f25565b60405180910390fd5b60018260000160008373ffffffffffffffffffffffffffffffffffffffff1673ffffffffffffffffffffffffffffffffffffffff16815260200190815260200160002060006101000a81548160ff0219169083151502179055505050565b600080831182906108d9576040517f08c379a00000000000000000000000000000000000000000000000000000000081526004016108d09190610f03565b60405180910390fd5b5060008385816108e557fe5b049050809150509392505050565b600083831115829061093b576040517f08c379a00000000000000000000000000000000000000000000000000000000081526004016109329190610f03565b60405180910390fd5b5060008385039050809150509392505050565b60008135905061095d81611101565b92915050565b60008135905061097281611118565b92915050565b60006080828403121561098a57600080fd5b81905092915050565b6000608082840312156109a557600080fd5b6109af6080611000565b905060006109bf84828501610a07565b60008301525060206109d384828501610a1c565b60208301525060406109e784828501610963565b60408301525060606109fb84828501610963565b60608301525092915050565b600081359050610a168161112f565b92915050565b600081359050610a2b81611146565b92915050565b600060208284031215610a4357600080fd5b6000610a518482850161094e565b91505092915050565b600080600060608486031215610a6f57600080fd5b6000610a7d8682870161094e565b9350506020610a8e8682870161094e565b9250506040610a9f86828701610a07565b9150509250925092565b60008060408385031215610abc57600080fd5b6000610aca8582860161094e565b9250506020610adb85828601610a07565b9150509250929050565b60008060a08385031215610af857600080fd5b6000610b0685828601610978565b9250506080610b1785828601610963565b9150509250929050565b600060808284031215610b3357600080fd5b6000610b4184828501610993565b91505092915050565b600080600060608486031215610b5f57600080fd5b6000610b6d86828701610a07565b9350506020610b7e86828701610a07565b9250506040610b8f86828701610a07565b9150509250925092565b610ba281611066565b82525050565b610bb181611072565b82525050565b610bc8610bc382611072565b6110e6565b82525050565b6000610bd98261102d565b610be38185611038565b9350610bf38185602086016110b3565b610bfc816110f0565b840191505092915050565b6000610c14601f83611038565b91507f526f6c65733a206163636f756e7420616c72656164792068617320726f6c65006000830152602082019050919050565b6000610c54601c83611049565b91507f19457468657265756d205369676e6564204d6573736167653a0a3332000000006000830152601c82019050919050565b6000610c94601b83611038565b91507f536166654d6174683a206164646974696f6e206f766572666c6f7700000000006000830152602082019050919050565b6000610cd4602183611038565b91507f526f6c65733a206163636f756e7420646f6573206e6f74206861766520726f6c60008301527f65000000000000000000000000000000000000000000000000000000000000006020830152604082019050919050565b6000610d3a602183611038565b91507f536166654d6174683a206d756c7469706c69636174696f6e206f766572666c6f60008301527f77000000000000000000000000000000000000000000000000000000000000006020830152604082019050919050565b6000610da0602283611038565b91507f526f6c65733a206163636f756e7420697320746865207a65726f20616464726560008301527f73730000000000000000000000000000000000000000000000000000000000006020830152604082019050919050565b6000610e06603083611038565b91507f5369676e6572526f6c653a2063616c6c657220646f6573206e6f74206861766560008301527f20746865205369676e657220726f6c65000000000000000000000000000000006020830152604082019050919050565b610e688161109c565b82525050565b610e77816110a6565b82525050565b6000610e8882610c47565b9150610e948284610bb7565b60208201915081905092915050565b6000602082019050610eb86000830184610b99565b92915050565b6000608082019050610ed36000830187610ba8565b610ee06020830186610e6e565b610eed6040830185610ba8565b610efa6060830184610ba8565b95945050505050565b60006020820190508181036000830152610f1d8184610bce565b905092915050565b60006020820190508181036000830152610f3e81610c07565b9050919050565b60006020820190508181036000830152610f5e81610c87565b9050919050565b60006020820190508181036000830152610f7e81610cc7565b9050919050565b60006020820190508181036000830152610f9e81610d2d565b9050919050565b60006020820190508181036000830152610fbe81610d93565b9050919050565b60006020820190508181036000830152610fde81610df9565b9050919050565b6000602082019050610ffa6000830184610e5f565b92915050565b6000604051905081810181811067ffffffffffffffff8211171561102357600080fd5b8060405250919050565b600081519050919050565b600082825260208201905092915050565b600081905092915050565b600061105f8261107c565b9050919050565b60008115159050919050565b6000819050919050565b600073ffffffffffffffffffffffffffffffffffffffff82169050919050565b6000819050919050565b600060ff82169050919050565b60005b838110156110d15780820151818401526020810190506110b6565b838111156110e0576000848401525b50505050565b6000819050919050565b6000601f19601f8301169050919050565b61110a81611054565b811461111557600080fd5b50565b61112181611072565b811461112c57600080fd5b50565b6111388161109c565b811461114357600080fd5b50565b61114f816110a6565b811461115a57600080fd5b5056fea365627a7a723158200b0d5ec66259bb3de88f4266f7003bf46f1015bc44f8fd907382b319f79597e56c6578706572696d656e74616cf564736f6c63430005110040",
  "source": "/*\n    Copyright 2020 Fabrx Labs Inc.\n\n    Licensed under the Apache License, Version 2.0 (the \"License\");\n    you may not use this file except in compliance with the License.\n    You may obtain a copy of the License at\n\n    http://www.apache.org/licenses/LICENSE-2.0\n\n    Unless required by applicable law or agreed to in writing, software\n    distributed under the License is distributed on an \"AS IS\" BASIS,\n    WITHOUT WARRANTIES OR CONDITIONS OF ANY KIND, either express or implied.\n    See the License for the specific language governing permissions and\n    limitations under the License.\n*/\npragma solidity 0.5.17;\npragma experimental ABIEncoderV2;\n\nimport \"../../base/Consensus.sol\";\n\ncontract ConsensusMock is Consensus {\n\n    constructor(\n        uint256 initRequiredSubmissions,\n        uint256 initMaximumTolerance\n    ) public Consensus(\n      initRequiredSubmissions,\n      initMaximumTolerance\n    ){}\n\n    function externalSignatureValid(\n        ZeroCollateralCommon.Signature calldata signature,\n        bytes32 dataHash\n    ) external view returns (bool) {\n        return _signatureValid(signature, dataHash);\n    }\n\n    function externalResultsWithinTolerance(\n      uint256 maximum,\n      uint256 minimum,\n      uint256 average\n    ) external view returns (bool) {\n        return _resultsWithinTolerance(maximum, minimum, average);\n    }\n\n}",
  "sourcePath": "/home/jalil/Programs/zero-collateral-v1/contracts/mock/base/ConsensusMock.sol",
  "compiler": {
    "name": "solc",
    "version": "0.5.17+commit.d19bba13.Emscripten.clang"
  },
  "schemaVersion": "3.0.23",
  "updatedAt": "2020-04-29T14:20:38.804Z",
  "devdoc": {
    "methods": {}
  },
  "userdoc": {
    "methods": {}
  }
}