{
  "contractName": "DappMock",
  "abi": [
    {
      "constant": true,
      "inputs": [
        {
          "internalType": "bool",
          "name": "failTransaction",
          "type": "bool"
        }
      ],
      "name": "testFunction",
      "outputs": [],
      "payable": false,
      "stateMutability": "pure",
      "type": "function"
    },
    {
      "constant": true,
      "inputs": [],
      "name": "implementation",
      "outputs": [
        {
          "internalType": "address",
          "name": "",
          "type": "address"
        }
      ],
      "payable": false,
      "stateMutability": "view",
      "type": "function"
    }
  ],
  "bytecode": "0x608060405234801561001057600080fd5b5060fc8061001f6000396000f3fe6080604052348015600f57600080fd5b506004361060325760003560e01c80635c60da1b1460375780637216a096146059575b600080fd5b603d6077565b604080516001600160a01b039092168252519081900360200190f35b607560048036036020811015606d57600080fd5b50351515607b565b005b3090565b801560c4576040805162461bcd60e51b8152602060048201526014602482015273151154d517d1955390d51253d397d1905253115160621b604482015290519081900360640190fd5b5056fea265627a7a72315820755b673dea026138f0092fdcf30177f9c48d249a5ffffd1c4572627b67aed95d64736f6c63430005110032",
  "source": "pragma solidity 0.5.17;\n\nimport \"../../../../interfaces/IBaseProxy.sol\";\n\ncontract DappMock is IBaseProxy {\n    function testFunction(bool failTransaction) external pure {\n        require(!failTransaction, \"TEST_FUNCTION_FAILED\");\n    }\n\n    function implementation() external view returns (address) {\n        return address(this);\n    }\n}\n",
  "sourcePath": "/Users/guillesalazar/Repos/ZeroCollateral/smart-contracts-v1/contracts/mock/base/escrow/dapps/DappMock.sol",
  "compiler": {
    "name": "solc",
    "version": "0.5.17+commit.d19bba13.Emscripten.clang"
  },
  "schemaVersion": "3.2.3",
  "updatedAt": "2020-10-12T14:23:11.541Z",
  "devdoc": {
    "methods": {}
  },
  "userdoc": {
    "methods": {}
  }
}