{
  "contractName": "DappMock",
  "abi": [
    {
      "constant": true,
      "inputs": [
        {
          "internalType": "bool",
          "name": "failTransaction",
          "type": "bool"
        }
      ],
      "name": "testFunction",
      "outputs": [],
      "payable": false,
      "stateMutability": "pure",
      "type": "function"
    }
  ],
  "bytecode": "0x608060405234801561001057600080fd5b5060cc8061001f6000396000f3fe6080604052348015600f57600080fd5b506004361060285760003560e01c80637216a09614602d575b600080fd5b604960048036036020811015604157600080fd5b50351515604b565b005b80156094576040805162461bcd60e51b8152602060048201526014602482015273151154d517d1955390d51253d397d1905253115160621b604482015290519081900360640190fd5b5056fea265627a7a7231582059f2dd8993bab891f18e1350c1a61b48bbc422b71377c2a415fa98e79cd8fe4664736f6c63430005110032",
  "source": "pragma solidity 0.5.17;\n\ncontract DappMock {\n    function testFunction(bool failTransaction) external pure {\n        require(!failTransaction, \"TEST_FUNCTION_FAILED\");\n    }\n}\n",
  "sourcePath": "/Users/sy/Documents/GitHub/teller-protocol-v1/contracts/mock/base/escrow/dapps/DappMock.sol",
  "compiler": {
    "name": "solc",
    "version": "0.5.17+commit.d19bba13.Emscripten.clang"
  },
  "schemaVersion": "3.0.23",
  "updatedAt": "2020-09-15T21:09:31.437Z",
  "devdoc": {
    "methods": {}
  },
  "userdoc": {
    "methods": {}
  }
}