{
  "contractName": "ERC20DetailedLibMock",
  "abi": [
    {
      "constant": false,
      "inputs": [
        {
          "internalType": "address",
          "name": "tokenAddress",
          "type": "address"
        },
        {
          "internalType": "address",
          "name": "from",
          "type": "address"
        },
        {
          "internalType": "uint256",
          "name": "amount",
          "type": "uint256"
        }
      ],
      "name": "tokenTransferFrom",
      "outputs": [],
      "payable": false,
      "stateMutability": "nonpayable",
      "type": "function"
    },
    {
      "constant": false,
      "inputs": [
        {
          "internalType": "address",
          "name": "tokenAddress",
          "type": "address"
        },
        {
          "internalType": "address",
          "name": "recipient",
          "type": "address"
        },
        {
          "internalType": "uint256",
          "name": "amount",
          "type": "uint256"
        }
      ],
      "name": "tokenTransfer",
      "outputs": [],
      "payable": false,
      "stateMutability": "nonpayable",
      "type": "function"
    },
    {
      "constant": true,
      "inputs": [
        {
          "internalType": "address",
          "name": "tokenAddress",
          "type": "address"
        }
      ],
      "name": "getAWholeToken",
      "outputs": [
        {
          "internalType": "uint256",
          "name": "",
          "type": "uint256"
        }
      ],
      "payable": false,
      "stateMutability": "view",
      "type": "function"
    }
  ],
  "bytecode": "0x608060405234801561001057600080fd5b50610851806100206000396000f3fe608060405234801561001057600080fd5b50600436106100415760003560e01c806315eaef6b1461004657806370284bc11461007e578063961974ba146100b6575b600080fd5b61007c6004803603606081101561005c57600080fd5b506001600160a01b038135811691602081013590911690604001356100ec565b005b6100a46004803603602081101561009457600080fd5b50356001600160a01b031661010b565b60408051918252519081900360200190f35b61007c600480360360608110156100cc57600080fd5b506001600160a01b03813581169160208101359091169060400135610125565b6101066001600160a01b038416838363ffffffff61013f16565b505050565b600061011f826001600160a01b03166103bb565b92915050565b6101066001600160a01b038416838363ffffffff61043016565b604080516370a0823160e01b815230600482015290516000916001600160a01b038616916370a0823191602480820192602092909190829003018186803b15801561018957600080fd5b505afa15801561019d573d6000803e3d6000fd5b505050506040513d60208110156101b357600080fd5b505190508181101561020c576040805162461bcd60e51b815260206004820152601960248201527f4e4f545f454e4f5547485f544f4b454e535f42414c414e434500000000000000604482015290519081900360640190fd5b6040805163a9059cbb60e01b81526001600160a01b03858116600483015260248201859052915160009287169163a9059cbb91604480830192602092919082900301818787803b15801561025f57600080fd5b505af1158015610273573d6000803e3d6000fd5b505050506040513d602081101561028957600080fd5b50519050806102d8576040805162461bcd60e51b81526020600482015260166024820152751513d2d15394d7d514905394d1915497d1905253115160521b604482015290519081900360640190fd5b604080516370a0823160e01b815230600482015290516000916001600160a01b038816916370a0823191602480820192602092909190829003018186803b15801561032257600080fd5b505afa158015610336573d6000803e3d6000fd5b505050506040513d602081101561034c57600080fd5b5051905083610361848363ffffffff61073c16565b146103b3576040805162461bcd60e51b815260206004820152601a60248201527f494e565f42414c414e43455f41465445525f5452414e53464552000000000000604482015290519081900360640190fd5b505050505050565b600080826001600160a01b031663313ce5676040518163ffffffff1660e01b815260040160206040518083038186803b1580156103f757600080fd5b505afa15801561040b573d6000803e3d6000fd5b505050506040513d602081101561042157600080fd5b505160ff16600a0a9392505050565b60408051636eb1769f60e11b81526001600160a01b038481166004830152306024830152915160009286169163dd62ed3e916044808301926020929190829003018186803b15801561048157600080fd5b505afa158015610495573d6000803e3d6000fd5b505050506040513d60208110156104ab57600080fd5b5051905081811015610504576040805162461bcd60e51b815260206004820152601b60248201527f4e4f545f454e4f5547485f544f4b454e535f414c4c4f57414e43450000000000604482015290519081900360640190fd5b604080516370a0823160e01b815230600482015290516000916001600160a01b038716916370a0823191602480820192602092909190829003018186803b15801561054e57600080fd5b505afa158015610562573d6000803e3d6000fd5b505050506040513d602081101561057857600080fd5b5051604080516323b872dd60e01b81526001600160a01b038781166004830152306024830152604482018790529151929350600092918816916323b872dd9160648082019260209290919082900301818787803b1580156105d857600080fd5b505af11580156105ec573d6000803e3d6000fd5b505050506040513d602081101561060257600080fd5b5051905080610658576040805162461bcd60e51b815260206004820152601b60248201527f544f4b454e535f5452414e534645525f46524f4d5f4641494c45440000000000604482015290519081900360640190fd5b604080516370a0823160e01b815230600482015290516000916001600160a01b038916916370a0823191602480820192602092909190829003018186803b1580156106a257600080fd5b505afa1580156106b6573d6000803e3d6000fd5b505050506040513d60208110156106cc57600080fd5b50519050846106e1828563ffffffff61073c16565b14610733576040805162461bcd60e51b815260206004820152601f60248201527f494e565f42414c414e43455f41465445525f5452414e534645525f46524f4d00604482015290519081900360640190fd5b50505050505050565b600061077e83836040518060400160405280601e81526020017f536166654d6174683a207375627472616374696f6e206f766572666c6f770000815250610785565b9392505050565b600081848411156108145760405162461bcd60e51b81526004018080602001828103825283818151815260200191508051906020019080838360005b838110156107d95781810151838201526020016107c1565b50505050905090810190601f1680156108065780820380516001836020036101000a031916815260200191505b509250505060405180910390fd5b50505090039056fea265627a7a72315820b8358d51d2e0b4c2f90f3025b135de1a025a82683cf8bdee89988cde4ccc5bf864736f6c63430005110032",
  "source": "pragma solidity 0.5.17;\n\nimport \"../../util/ERC20DetailedLib.sol\";\nimport \"@openzeppelin/contracts-ethereum-package/contracts/token/ERC20/ERC20Detailed.sol\";\n\ncontract ERC20DetailedLibMock {\n    using ERC20DetailedLib for ERC20Detailed;\n\n    function tokenTransferFrom(\n        address tokenAddress,\n        address from,\n        uint256 amount\n    ) external {\n        ERC20Detailed(tokenAddress).tokenTransferFrom(from, amount);\n    }\n\n    function tokenTransfer(\n        address tokenAddress,\n        address recipient,\n        uint256 amount\n    ) external {\n        ERC20Detailed(tokenAddress).tokenTransfer(recipient, amount);\n    }\n\n    function getAWholeToken(address tokenAddress) external view returns (uint256) {\n        return ERC20Detailed(tokenAddress).getAWholeToken();\n    }\n}\n",
  "sourcePath": "/Users/sy/Documents/GitHub/teller-protocol-v1/contracts/mock/util/ERC20DetailedLibMock.sol",
  "compiler": {
    "name": "solc",
    "version": "0.5.17+commit.d19bba13.Emscripten.clang"
  },
  "schemaVersion": "3.0.23",
  "updatedAt": "2020-09-06T02:15:12.575Z",
  "devdoc": {
    "methods": {}
  },
  "userdoc": {
    "methods": {}
  }
}