{
  "contractName": "EscrowStorage",
  "abi": [
    {
      "constant": true,
      "inputs": [
        {
          "internalType": "string",
          "name": "key",
          "type": "string"
        }
      ],
      "name": "getBytes",
      "outputs": [
        {
          "internalType": "bytes",
          "name": "",
          "type": "bytes"
        }
      ],
      "payable": false,
      "stateMutability": "view",
      "type": "function"
    }
  ],
  "bytecode": "0x608060405234801561001057600080fd5b50610227806100206000396000f3fe608060405234801561001057600080fd5b506004361061002b5760003560e01c8063d8de899d14610030575b600080fd5b6100d66004803603602081101561004657600080fd5b81019060208101813564010000000081111561006157600080fd5b82018360208201111561007357600080fd5b8035906020019184600183028401116401000000008311171561009557600080fd5b91908080601f01602080910402602001604051908101604052809392919081815260200183838082843760009201919091525092955061014b945050505050565b6040805160208082528351818301528351919283929083019185019080838360005b838110156101105781810151838201526020016100f8565b50505050905090810190601f16801561013d5780820380516001836020036101000a031916815260200191505b509250505060405180910390f35b8051602080830191909120600090815280825260409081902080548251601f600260001961010060018616150201909316929092049182018590048502810185019093528083526060938301828280156101e65780601f106101bb576101008083540402835291602001916101e6565b820191906000526020600020905b8154815290600101906020018083116101c957829003601f168201915b5050505050905091905056fea265627a7a7231582016d74c285cabae96691cbfe867e98cfdb6e7c43822f8c0590118174b80215f2964736f6c63430005110032",
  "source": "pragma solidity 0.5.17;\n\nimport \"@openzeppelin/contracts/token/ERC20/IERC20.sol\";\n\n\ncontract EscrowStorage {\n    mapping(bytes32 => bytes) data;\n    IERC20 borrowedAsset;\n\n    function getBytes(string memory key) public view returns (bytes memory) {\n        return data[keccak256(bytes(key))];\n    }\n}\n",
  "sourcePath": "/Users/sy/Documents/GitHub/teller-protocol-v1/contracts/base/escrow/EscrowStorage.sol",
  "compiler": {
    "name": "solc",
    "version": "0.5.17+commit.d19bba13.Emscripten.clang"
  },
  "schemaVersion": "3.0.23",
  "updatedAt": "2020-08-19T00:49:50.090Z",
  "devdoc": {
    "methods": {}
  },
  "userdoc": {
    "methods": {}
  }
}