{
  "contractName": "EscrowFactory",
  "abi": [
    {
      "anonymous": false,
      "inputs": [
        {
          "indexed": true,
          "internalType": "address",
          "name": "sender",
          "type": "address"
        },
        {
          "indexed": true,
          "internalType": "address",
          "name": "dapp",
          "type": "address"
        }
      ],
      "name": "DappRemoved",
      "type": "event"
    },
    {
      "anonymous": false,
      "inputs": [
        {
          "indexed": true,
          "internalType": "address",
          "name": "sender",
          "type": "address"
        },
        {
          "indexed": true,
          "internalType": "address",
          "name": "dapp",
          "type": "address"
        },
        {
          "indexed": false,
          "internalType": "bool",
          "name": "unsecured",
          "type": "bool"
        }
      ],
      "name": "DappUpdated",
      "type": "event"
    },
    {
      "anonymous": false,
      "inputs": [
        {
          "indexed": true,
          "internalType": "address",
          "name": "borrower",
          "type": "address"
        },
        {
          "indexed": true,
          "internalType": "address",
          "name": "loansAddress",
          "type": "address"
        },
        {
          "indexed": true,
          "internalType": "uint256",
          "name": "loanID",
          "type": "uint256"
        },
        {
          "indexed": false,
          "internalType": "address",
          "name": "escrowAddress",
          "type": "address"
        }
      ],
      "name": "EscrowCreated",
      "type": "event"
    },
    {
      "anonymous": false,
      "inputs": [
        {
          "indexed": true,
          "internalType": "address",
          "name": "sender",
          "type": "address"
        },
        {
          "indexed": true,
          "internalType": "address",
          "name": "dapp",
          "type": "address"
        },
        {
          "indexed": false,
          "internalType": "bool",
          "name": "unsecured",
          "type": "bool"
        }
      ],
      "name": "NewDappAdded",
      "type": "event"
    },
    {
      "constant": true,
      "inputs": [
        {
          "internalType": "address",
          "name": "",
          "type": "address"
        }
      ],
      "name": "dapps",
      "outputs": [
        {
          "internalType": "bool",
          "name": "exists",
          "type": "bool"
        },
        {
          "internalType": "bool",
          "name": "unsecured",
          "type": "bool"
        }
      ],
      "payable": false,
      "stateMutability": "view",
      "type": "function"
    },
    {
      "constant": true,
      "inputs": [
        {
          "internalType": "uint256",
          "name": "",
          "type": "uint256"
        }
      ],
      "name": "dappsList",
      "outputs": [
        {
          "internalType": "address",
          "name": "",
          "type": "address"
        }
      ],
      "payable": false,
      "stateMutability": "view",
      "type": "function"
    },
    {
      "constant": true,
      "inputs": [],
      "name": "initialized",
      "outputs": [
        {
          "internalType": "bool",
          "name": "value",
          "type": "bool"
        }
      ],
      "payable": false,
      "stateMutability": "view",
      "type": "function"
    },
    {
      "constant": true,
      "inputs": [],
      "name": "settings",
      "outputs": [
        {
          "internalType": "contract SettingsInterface",
          "name": "",
          "type": "address"
        }
      ],
      "payable": false,
      "stateMutability": "view",
      "type": "function"
    },
    {
      "constant": false,
      "inputs": [
        {
          "internalType": "address",
          "name": "loansAddress",
          "type": "address"
        },
        {
          "internalType": "uint256",
          "name": "loanID",
          "type": "uint256"
        }
      ],
      "name": "createEscrow",
      "outputs": [
        {
          "internalType": "address",
          "name": "escrowAddress",
          "type": "address"
        }
      ],
      "payable": false,
      "stateMutability": "nonpayable",
      "type": "function"
    },
    {
      "constant": false,
      "inputs": [
        {
          "internalType": "address",
          "name": "dapp",
          "type": "address"
        },
        {
          "internalType": "bool",
          "name": "unsecured",
          "type": "bool"
        }
      ],
      "name": "addDapp",
      "outputs": [],
      "payable": false,
      "stateMutability": "nonpayable",
      "type": "function"
    },
    {
      "constant": false,
      "inputs": [
        {
          "internalType": "address",
          "name": "dapp",
          "type": "address"
        },
        {
          "internalType": "bool",
          "name": "unsecured",
          "type": "bool"
        }
      ],
      "name": "updateDapp",
      "outputs": [],
      "payable": false,
      "stateMutability": "nonpayable",
      "type": "function"
    },
    {
      "constant": false,
      "inputs": [
        {
          "internalType": "address",
          "name": "dapp",
          "type": "address"
        }
      ],
      "name": "removeDapp",
      "outputs": [],
      "payable": false,
      "stateMutability": "nonpayable",
      "type": "function"
    },
    {
      "constant": true,
      "inputs": [],
      "name": "getDapps",
      "outputs": [
        {
          "internalType": "address[]",
          "name": "",
          "type": "address[]"
        }
      ],
      "payable": false,
      "stateMutability": "view",
      "type": "function"
    },
    {
      "constant": false,
      "inputs": [
        {
          "internalType": "address",
          "name": "settingsAddress",
          "type": "address"
        }
      ],
      "name": "initialize",
      "outputs": [],
      "payable": false,
      "stateMutability": "nonpayable",
      "type": "function"
    }
  ],
  "bytecode": "0x608060405234801561001057600080fd5b506120ab806100206000396000f3fe60806040523480156200001157600080fd5b5060043610620000ac5760003560e01c8063627c55f6116200006f578063627c55f61462000152578063c4d66de81462000169578063c8ef9daa1462000180578063da3bc9581462000197578063e06174e414620001ae57620000ac565b8063158ef93e14620000b15780632baaed1814620000d35780634614874e14620000ec5780634d3d48a7146200011257806355670f31146200012b575b600080fd5b620000bb620001c7565b604051620000ca919062001844565b60405180910390f35b620000dd620001e8565b604051620000ca919062001831565b62000103620000fd366004620013e3565b6200024d565b604051620000ca9190620017eb565b6200012962000123366004620013a4565b620005ee565b005b620001426200013c36600462001383565b62000713565b604051620000ca92919062001854565b620001296200016336600462001383565b62000731565b620001296200017a36600462001383565b6200088d565b6200012962000191366004620013a4565b62000902565b62000103620001a83660046200149d565b62000a9e565b620001b862000ac6565b604051620000ca919062001873565b600080604051620001d890620017d1565b6040519081900390205492915050565b606060018054806020026020016040519081016040528092919081815260200182805480156200024257602002820191906000526020600020905b81546001600160a01b0316815260019091019060200180831162000223575b505050505090505b90565b600062000259620001c7565b620002815760405162461bcd60e51b8152600401620002789062001901565b60405180910390fd5b6200028b62000ac6565b6001600160a01b031663b187bd266040518163ffffffff1660e01b815260040160206040518083038186803b158015620002c457600080fd5b505afa158015620002d9573d6000803e3d6000fd5b505050506040513d601f19601f82011682018060405250620002ff919081019062001418565b156200031f5760405162461bcd60e51b81526004016200027890620018cb565b620003296200101b565b604051631c3d878d60e31b81526001600160a01b0385169063e1ec3c68906200035790869060040162001925565b6102206040518083038186803b1580156200037157600080fd5b505afa15801562000386573d6000803e3d6000fd5b505050506040513d601f19601f82011682018060405250620003ac91908101906200147b565b6101208101519091506001600160a01b031615620003de5760405162461bcd60e51b8152600401620002789062001895565b6000620003ea62000ac6565b6001600160a01b031663ea23cb7c6040518163ffffffff1660e01b815260040160206040518083038186803b1580156200042357600080fd5b505afa15801562000438573d6000803e3d6000fd5b505050506040513d601f19601f820116820180604052506200045e91908101906200145a565b6001600160a01b031663d86d744e6040518163ffffffff1660e01b8152600401602060405180830381600087803b1580156200049957600080fd5b505af1158015620004ae573d6000803e3d6000fd5b505050506040513d601f19601f82011682018060405250620004d491908101906200145a565b6001600160a01b03166368f6c8926040518163ffffffff1660e01b815260040160206040518083038186803b1580156200050d57600080fd5b505afa15801562000522573d6000803e3d6000fd5b505050506040513d601f19601f8201168201806040525062000548919081019062001439565b90506200055462000ac6565b81604051620005639062001099565b620005709291906200180b565b604051809103906000f0801580156200058d573d6000803e3d6000fd5b50925083856001600160a01b03168360200151600001516001600160a01b03167f1766e5b0843b46e0afea03af5182836a1dc9eae60f592f44b8b4960b08d6521086604051620005de9190620017eb565b60405180910390a4505092915050565b620005f862000ac6565b6001600160a01b031663c095ea27336040518263ffffffff1660e01b8152600401620006259190620017fb565b60006040518083038186803b1580156200063e57600080fd5b505afa15801562000653573d6000803e3d6000fd5b5050505062000661620001c7565b620006805760405162461bcd60e51b8152600401620002789062001901565b6200068b8262000aea565b620006aa5760405162461bcd60e51b8152600401620002789062001883565b6001600160a01b03821660008181526020819052604090819020805461ff001916610100851515021790555133907f35545e76070331728c42b43590666daf63e05dfd4c983f56529263f4e12e63a3906200070790859062001844565b60405180910390a35050565b60006020819052908152604090205460ff8082169161010090041682565b6200073b62000ac6565b6001600160a01b031663c095ea27336040518263ffffffff1660e01b8152600401620007689190620017fb565b60006040518083038186803b1580156200078157600080fd5b505afa15801562000796573d6000803e3d6000fd5b50505050620007a4620001c7565b620007c35760405162461bcd60e51b8152600401620002789062001901565b620007d7816001600160a01b031662000b08565b620007f65760405162461bcd60e51b81526004016200027890620018ef565b620008018162000aea565b620008205760405162461bcd60e51b8152600401620002789062001883565b6001600160a01b0381166000908152602081905260409020805460ff191690556200085360018263ffffffff62000b4516565b506040516001600160a01b0382169033907f1a8ea3d7c69de6346e11b85bcb9433b0525e34353f070a70db9109c9bdf280df90600090a350565b62000897620001c7565b15620008b75760405162461bcd60e51b8152600401620002789062001913565b620008cb816001600160a01b031662000b08565b620008ea5760405162461bcd60e51b81526004016200027890620018a7565b620008f462000bd9565b620008ff8162000bf9565b50565b6200090c62000ac6565b6001600160a01b031663c095ea27336040518263ffffffff1660e01b8152600401620009399190620017fb565b60006040518083038186803b1580156200095257600080fd5b505afa15801562000967573d6000803e3d6000fd5b5050505062000975620001c7565b620009945760405162461bcd60e51b8152600401620002789062001901565b620009a8826001600160a01b031662000b08565b620009c75760405162461bcd60e51b81526004016200027890620018ef565b620009d28262000aea565b15620009f25760405162461bcd60e51b81526004016200027890620018dd565b604080518082018252600180825283151560208084019182526001600160a01b0387166000908152908190529390932091518254935115156101000261ff001991151560ff19909516949094171692909217905562000a58908363ffffffff62000c7516565b50816001600160a01b0316336001600160a01b03167f3a64f490b83f3b0c51d5b823dbe4c69faa017923010ecad249abc2e42dc7c1608360405162000707919062001844565b6001818154811062000aac57fe5b6000918252602090912001546001600160a01b0316905081565b600080600060405162000ad990620017de565b604051908190039020549250505090565b6001600160a01b031660009081526020819052604090205460ff1690565b6000813f7fc5d2460186f7233c927e7db2dcc703c0e500b653ca82273b7bfad8045d85a47081811480159062000b3d57508115155b949350505050565b606060008062000b56858562000d2e565b915091508162000bc25784546040805160208084028201810190925282815291879183018282801562000bb357602002820191906000526020600020905b81546001600160a01b0316815260019091019060200180831162000b94575b50505050509250505062000bd3565b62000bce858262000d88565b925050505b92915050565b600060405162000be990620017d1565b6040519081900390206001905550565b62000c1662000c0762000ac6565b6001600160a01b03166200100d565b1562000c2257620008ff565b62000c36816001600160a01b031662000b08565b62000c555760405162461bcd60e51b81526004016200027890620018a7565b600060405162000c6590620017de565b6040519081900390208290555050565b60606001600160a01b03821662000ca05760405162461bcd60e51b81526004016200027890620018b9565b8254600181018455600084815260209081902090910180546001600160a01b0319166001600160a01b038516179055835460408051828402810184019091528181529185919083018282801562000d2157602002820191906000526020600020905b81546001600160a01b0316815260019091019060200180831162000d02575b5050505050905092915050565b6000805b835481101562000d8157826001600160a01b031684828154811062000d5357fe5b6000918252602090912001546001600160a01b0316149150811562000d785762000d81565b60010162000d32565b9250929050565b8154606090821062000df45782546040805160208084028201810190925282815291859183018282801562000de757602002820191906000526020600020905b81546001600160a01b0316815260019091019060200180831162000dc8575b5050505050905062000bd3565b82546000190182141562000e9f5782548390600019810190811062000e1557fe5b600091825260209091200180546001600160a01b0319169055825462000e40846000198301620010a7565b5082546040805160208084028201810190925282815291859183018282801562000de7576020028201919060005260206000209081546001600160a01b0316815260019091019060200180831162000dc8575050505050905062000bd3565b82546000908490600019810190811062000eb557fe5b60009182526020909120015484546001600160a01b03909116915084908490811062000edd57fe5b60009182526020909120015484546001600160a01b03909116908590600019810190811062000f0857fe5b9060005260206000200160006101000a8154816001600160a01b0302191690836001600160a01b031602179055508084848154811062000f4457fe5b600091825260209091200180546001600160a01b0319166001600160a01b039290921691909117905583548490600019810190811062000f8057fe5b600091825260209091200180546001600160a01b0319169055835462000fab856000198301620010a7565b5083546040805160208084028201810190925282815291869183018282801562000fff57602002820191906000526020600020905b81546001600160a01b0316815260019091019060200180831162000fe0575b505050505091505092915050565b6001600160a01b0316151590565b6040518061018001604052806000815260200162001038620010d3565b81526020016000815260200160008152602001600081526020016000815260200160008152602001600081526020016000815260200160006001600160a01b03168152602001600060038111156200108c57fe5b8152600060209091015290565b61067580620019f483390190565b815481835581811115620010ce57600083815260209020620010ce9181019083016200111b565b505050565b6040518060c0016040528060006001600160a01b0316815260200160006001600160a01b03168152602001600081526020016000815260200160008152602001600081525090565b6200024a91905b8082111562001138576000815560010162001122565b5090565b803562000bd381620019ad565b805162000bd381620019ad565b803562000bd381620019c4565b805162000bd381620019c4565b805162000bd381620019cf565b805162000bd381620019da565b805162000bd381620019e5565b600060c08284031215620011aa57600080fd5b620011b660c062001935565b90506000620011c6848462001149565b8252506020620011d98484830162001149565b6020830152506040620011ef8482850162001170565b6040830152506060620012058482850162001170565b60608301525060806200121b8482850162001170565b60808301525060a0620012318482850162001170565b60a08301525092915050565b600061022082840312156200125157600080fd5b6200125e61018062001935565b905060006200126e848462001170565b8252506020620012818484830162001197565b60208301525060e0620012978482850162001170565b604083015250610100620012ae8482850162001170565b606083015250610120620012c58482850162001170565b608083015250610140620012dc8482850162001170565b60a083015250610160620012f38482850162001170565b60c0830152506101806200130a8482850162001170565b60e0830152506101a0620013218482850162001170565b610100830152506101c0620013398482850162001149565b610120830152506101e062001351848285016200118a565b61014083015250610200620013698482850162001163565b6101608301525092915050565b803562000bd381620019cf565b6000602082840312156200139657600080fd5b600062000b3d84846200113c565b60008060408385031215620013b857600080fd5b6000620013c685856200113c565b9250506020620013d98582860162001156565b9150509250929050565b60008060408385031215620013f757600080fd5b60006200140585856200113c565b9250506020620013d98582860162001376565b6000602082840312156200142b57600080fd5b600062000b3d848462001163565b6000602082840312156200144c57600080fd5b600062000b3d848462001170565b6000602082840312156200146d57600080fd5b600062000b3d84846200117d565b600061022082840312156200148f57600080fd5b600062000b3d84846200123d565b600060208284031215620014b057600080fd5b600062000b3d848462001376565b6000620014cc8383620014e5565b505060200190565b620014df81620019a0565b82525050565b620014df8162001975565b6000620014fd8262001963565b62001509818562001967565b935062001516836200195d565b8060005b838110156200154a578151620015318882620014be565b97506200153e836200195d565b9250506001016200151a565b509495945050505050565b620014df8162001982565b620014df816200024a565b620014df8162001987565b600062001585601c8362001970565b7f54496e697469616c697a61626c652e6973496e697469616c697a6564000000008152601c0192915050565b6000620015c0600e8362001967565b6d1110541417d393d517d1561254d560921b815260200192915050565b6000620015ec601a8362001967565b7f4c4f414e5f455343524f575f414c52454144595f455849535453000000000000815260200192915050565b600062001627601b8362001967565b7f53455454494e47535f4d5553545f42455f415f434f4e54524143540000000000815260200192915050565b60006200166260198362001967565b7f454d5054595f414444524553535f4e4f545f414c4c4f57454400000000000000815260200192915050565b60006200169d60128362001967565b71141310551193d49357d254d7d4105554d15160721b815260200192915050565b6000620016cd60128362001967565b711110541417d053149150511657d1561254d560721b815260200192915050565b6000620016fd60148362001967565b731110541417d254d39517d057d0d3d395149050d560621b815260200192915050565b60006200172f60188362001970565b7f426173655570677261646561626c652e73657474696e67730000000000000000815260180192915050565b60006200176a60188362001967565b7f434f4e54524143545f4e4f545f494e495449414c495a45440000000000000000815260200192915050565b6000620017a5601c8362001967565b7f434f4e54524143545f414c52454144595f494e495449414c495a454400000000815260200192915050565b600062000bd38262001576565b600062000bd38262001720565b6020810162000bd38284620014e5565b6020810162000bd38284620014d4565b604081016200181b8285620014e5565b6200182a602083018462001560565b9392505050565b602080825281016200182a8184620014f0565b6020810162000bd3828462001555565b6040810162001864828562001555565b6200182a602083018462001555565b6020810162000bd382846200156b565b6020808252810162000bd381620015b1565b6020808252810162000bd381620015dd565b6020808252810162000bd38162001618565b6020808252810162000bd38162001653565b6020808252810162000bd3816200168e565b6020808252810162000bd381620016be565b6020808252810162000bd381620016ee565b6020808252810162000bd3816200175b565b6020808252810162000bd38162001796565b6020810162000bd3828462001560565b60405181810167ffffffffffffffff811182821017156200195557600080fd5b604052919050565b60200190565b5190565b90815260200190565b919050565b600062000bd38262001994565b151590565b600062000bd38262001975565b6001600160a01b031690565b600062000bd38262001987565b620019b88162001975565b8114620008ff57600080fd5b620019b88162001982565b620019b8816200024a565b620019b88162001987565b60048110620008ff57600080fdfe608060405234801561001057600080fd5b506040516106753803806106758339818101604052604081101561003357600080fd5b50805160209091015161004e826001600160e01b0361006716565b610060816001600160e01b0361014316565b50506103cc565b61009361007b6001600160e01b0361031616565b6001600160a01b031661034c60201b61021b1760201c565b1561009d57610140565b6100b9816001600160a01b031661035a60201b6102291760201c565b61010a576040805162461bcd60e51b815260206004820152601b60248201527f53455454494e47535f4d5553545f42455f415f434f4e54524143540000000000604482015290519081900360640190fd5b604080517f426173655570677261646561626c652e73657474696e67730000000000000000815290519081900360180190208190555b50565b6101546001600160e01b0361039616565b156101a6576040805162461bcd60e51b815260206004820152601660248201527f4c4f4749435f4e414d455f414c52454144595f53455400000000000000000000604482015290519081900360640190fd5b6101b76001600160e01b0361031616565b6001600160a01b031663ea23cb7c6040518163ffffffff1660e01b815260040160206040518083038186803b1580156101ef57600080fd5b505afa158015610203573d6000803e3d6000fd5b505050506040513d602081101561021957600080fd5b50516040805163b28f5abb60e01b81526004810184905290516001600160a01b039092169163b28f5abb91602480820192602092909190829003018186803b15801561026457600080fd5b505afa158015610278573d6000803e3d6000fd5b505050506040513d602081101561028e57600080fd5b50516102e1576040805162461bcd60e51b815260206004820152601460248201527f4c4f4749435f4e414d455f4e4f545f4558495354000000000000000000000000604482015290519081900360640190fd5b604080517f426173655570677261646561626c652e6c6f6769634e616d65000000000000008152905190819003601901902055565b604080517f426173655570677261646561626c652e73657474696e67730000000000000000815290519081900360180190205490565b6001600160a01b0316151590565b6000813f7fc5d2460186f7233c927e7db2dcc703c0e500b653ca82273b7bfad8045d85a47081811480159061038e57508115155b949350505050565b604080517f426173655570677261646561626c652e6c6f6769634e616d6500000000000000815290519081900360190190205490565b61029a806103db6000396000f3fe6080604052600436106100295760003560e01c80635c60da1b14610033578063e06174e414610064575b610031610079565b005b34801561003f57600080fd5b50610048610093565b604080516001600160a01b039092168252519081900360200190f35b34801561007057600080fd5b506100486100a2565b610081610091565b61009161008c6100d8565b6101c1565b565b600061009d6100d8565b905090565b604080517f426173655570677261646561626c652e73657474696e67730000000000000000815290519081900360180190205490565b60006100e26100a2565b6001600160a01b031663ea23cb7c6040518163ffffffff1660e01b815260040160206040518083038186803b15801561011a57600080fd5b505afa15801561012e573d6000803e3d6000fd5b505050506040513d602081101561014457600080fd5b50516001600160a01b03166373f1fcf661015c6101e5565b6040518263ffffffff1660e01b81526004018082815260200191505060206040518083038186803b15801561019057600080fd5b505afa1580156101a4573d6000803e3d6000fd5b505050506040513d60208110156101ba57600080fd5b5051905090565b3660008037600080366000845af43d6000803e8080156101e0573d6000f35b3d6000fd5b604080517f426173655570677261646561626c652e6c6f6769634e616d6500000000000000815290519081900360190190205490565b6001600160a01b0316151590565b6000813f7fc5d2460186f7233c927e7db2dcc703c0e500b653ca82273b7bfad8045d85a47081811480159061025d57508115155b94935050505056fea265627a7a723158201befd7ed569c1720849784ec6a7e9f5f5ca6adc5544ceb327da092380cfdbb1b64736f6c63430005110032a365627a7a72315820fe38d0c3cee1fe011a267b85d0924c7575c8f91d50ee0f75d90a52078e1a86e96c6578706572696d656e74616cf564736f6c63430005110040",
  "source": "pragma solidity 0.5.17;\npragma experimental ABIEncoderV2;\n\n// Contracts\nimport \"./TInitializable.sol\";\nimport \"./DynamicProxy.sol\";\n\n// Libraries\nimport \"@openzeppelin/contracts-ethereum-package/contracts/utils/Address.sol\";\n\n// Interfaces\nimport \"../interfaces/LoansInterface.sol\";\nimport \"../interfaces/EscrowFactoryInterface.sol\";\nimport \"../interfaces/EscrowInterface.sol\";\n\n// Commons\nimport \"../util/AddressLib.sol\";\nimport \"../util/AddressArrayLib.sol\";\n\n/*****************************************************************************************************/\n/**                                             WARNING                                             **/\n/**                                  THIS CONTRACT IS UPGRADEABLE!                                  **/\n/**  ---------------------------------------------------------------------------------------------  **/\n/**  Do NOT change the order of or PREPEND any storage variables to this or new versions of this    **/\n/**  contract as this will cause the the storage slots to be overwritten on the proxy contract!!    **/\n/**                                                                                                 **/\n/**  Visit https://docs.openzeppelin.com/upgrades/2.6/proxies#upgrading-via-the-proxy-pattern for   **/\n/**  more information.                                                                              **/\n/*****************************************************************************************************/\n/**\n    @notice This contract is used as a factory for the escrow contract that will be owned by the borrowers.\n\n    @author develop@teller.finance\n */\ncontract EscrowFactory is EscrowFactoryInterface, TInitializable, BaseUpgradeable {\n    using AddressArrayLib for address[];\n    using AddressLib for address;\n    using Address for address;\n\n    /* State Variables */\n\n    /**\n        @notice It holds the Dapp's configuration.\n     */\n    mapping(address => TellerCommon.Dapp) public dapps;\n\n    /**\n        @notice It contains all the dapps added in this factory.\n     */\n    address[] public dappsList;\n\n    /* Modifiers */\n\n    /**\n        @notice It checks whether the platform is paused or not.\n        @dev It throws a require error if the platform is used.\n     */\n    modifier isNotPaused() {\n        require(!settings().isPaused(), \"PLATFORM_IS_PAUSED\");\n        _;\n    }\n\n    /**\n        @notice It creates an Escrow contract for a given loan id.\n        @param loansAddress address of the loans contract that is creating an escrow.\n        @param loanID loan id to associate to the new escrow instance.\n        @return the new escrow instance.\n     */\n    function createEscrow(address loansAddress, uint256 loanID)\n        external\n        isInitialized()\n        isNotPaused()\n        returns (address escrowAddress)\n    {\n        TellerCommon.Loan memory loan = LoansInterface(loansAddress).loans(loanID);\n        require(loan.escrow == address(0x0), \"LOAN_ESCROW_ALREADY_EXISTS\");\n\n        bytes32 escrowLogicName = settings()\n            .versionsRegistry()\n            .consts()\n            .ESCROW_LOGIC_NAME();\n        escrowAddress = address(new DynamicProxy(address(settings()), escrowLogicName));\n        emit EscrowCreated(loan.loanTerms.borrower, loansAddress, loanID, escrowAddress);\n    }\n\n    /**\n        @notice It adds a new dapp to the factory.\n        @param dapp address to add in this factory.\n        @param unsecured boolean to describe in the dapp is allowed to be used with unsecured loans.\n     */\n    function addDapp(address dapp, bool unsecured) external onlyPauser() isInitialized() {\n        require(dapp.isContract(), \"DAPP_ISNT_A_CONTRACT\");\n        require(!_isDapp(dapp), \"DAPP_ALREADY_EXIST\");\n\n        dapps[dapp] = TellerCommon.Dapp({exists: true, unsecured: unsecured});\n        dappsList.add(dapp);\n\n        emit NewDappAdded(msg.sender, dapp, unsecured);\n    }\n\n    /**\n        @notice It updates a dapp configuration.\n        @param dapp address to add in this factory.\n        @param unsecured boolean that describes if the dapp can be used by with an unsecured loan.\n     */\n    function updateDapp(address dapp, bool unsecured)\n        external\n        onlyPauser()\n        isInitialized()\n    {\n        require(_isDapp(dapp), \"DAPP_NOT_EXIST\");\n\n        dapps[dapp].unsecured = unsecured;\n\n        emit DappUpdated(msg.sender, dapp, unsecured);\n    }\n\n    /**\n        @notice It removes a current dapp from the factory.\n        @param dapp address to remove.\n     */\n    function removeDapp(address dapp) external onlyPauser() isInitialized() {\n        require(dapp.isContract(), \"DAPP_ISNT_A_CONTRACT\");\n        require(_isDapp(dapp), \"DAPP_NOT_EXIST\");\n\n        dapps[dapp].exists = false;\n        dappsList.remove(dapp);\n\n        emit DappRemoved(msg.sender, dapp);\n    }\n\n    /**\n        @notice Gets all the dapps in the factory.\n        @return an array of dapps (addresses).\n     */\n    function getDapps() external view returns (address[] memory) {\n        return dappsList;\n    }\n\n    /**\n        @notice It initializes this escrow contract factory instance.\n        @param settingsAddress the settings contract address.\n     */\n    function initialize(address settingsAddress) external isNotInitialized() {\n        require(settingsAddress.isContract(), \"SETTINGS_MUST_BE_A_CONTRACT\");\n\n        _initialize();\n        _setSettings(settingsAddress);\n    }\n\n    /** Internal Functions */\n\n    /**\n        @notice It tests whether an address is a dapp or not.\n        @param dapp address to test.\n        @return true if the address is a dapp. Otherwise it returns false.\n     */\n    function _isDapp(address dapp) internal view returns (bool) {\n        return dapps[dapp].exists;\n    }\n}\n",
  "sourcePath": "/Users/guillesalazar/Repos/ZeroCollateral/smart-contracts-v1/contracts/base/EscrowFactory.sol",
  "compiler": {
    "name": "solc",
    "version": "0.5.17+commit.d19bba13.Emscripten.clang"
  },
  "schemaVersion": "3.2.3",
  "updatedAt": "2020-10-12T16:12:27.654Z",
  "networkType": "ethereum",
  "devdoc": {
    "author": "develop@teller.finance",
    "methods": {
      "addDapp(address,bool)": {
        "params": {
          "dapp": "address to add in this factory.",
          "unsecured": "boolean to describe in the dapp is allowed to be used with unsecured loans."
        }
      },
      "createEscrow(address,uint256)": {
        "params": {
          "loanID": "loan id to associate to the new escrow instance.",
          "loansAddress": "address of the loans contract that is creating an escrow."
        },
        "return": "the new escrow instance."
      },
      "getDapps()": {
        "return": "an array of dapps (addresses)."
      },
      "initialize(address)": {
        "params": {
          "settingsAddress": "the settings contract address."
        }
      },
      "initialized()": {
        "return": "true if contract is initialized. Otherwise it returns false."
      },
      "removeDapp(address)": {
        "params": {
          "dapp": "address to remove."
        }
      },
      "settings()": {
        "details": "This address should NOT change over the time. See details in the _setSettings(...) function."
      },
      "updateDapp(address,bool)": {
        "params": {
          "dapp": "address to add in this factory.",
          "unsecured": "boolean that describes if the dapp can be used by with an unsecured loan."
        }
      }
    }
  },
  "userdoc": {
    "methods": {
      "addDapp(address,bool)": {
        "notice": "It adds a new dapp to the factory."
      },
      "createEscrow(address,uint256)": {
        "notice": "It creates an Escrow contract for a given loan id."
      },
      "getDapps()": {
        "notice": "Gets all the dapps in the factory."
      },
      "initialize(address)": {
        "notice": "It initializes this escrow contract factory instance."
      },
      "initialized()": {
        "notice": "Gets if the contract is initialized."
      },
      "removeDapp(address)": {
        "notice": "It removes a current dapp from the factory."
      },
      "settings()": {
        "notice": "The gets the settings contract address from the SETTINGS_SLOT."
      },
      "updateDapp(address,bool)": {
        "notice": "It updates a dapp configuration."
      }
    },
    "notice": "This contract is used as a factory for the escrow contract that will be owned by the borrowers."
  }
}