{
  "contractName": "Escrow",
  "abi": [
    {
      "anonymous": false,
      "inputs": [
        {
          "indexed": true,
          "internalType": "address",
          "name": "previousOwner",
          "type": "address"
        },
        {
          "indexed": true,
          "internalType": "address",
          "name": "newOwner",
          "type": "address"
        }
      ],
      "name": "OwnershipTransferred",
      "type": "event"
    },
    {
      "anonymous": false,
      "inputs": [
        {
          "indexed": false,
          "internalType": "address",
          "name": "recipient",
          "type": "address"
        }
      ],
      "name": "TokensClaimed",
      "type": "event"
    },
    {
      "constant": true,
      "inputs": [],
      "name": "ETH_DECIMALS",
      "outputs": [
        {
          "internalType": "uint8",
          "name": "",
          "type": "uint8"
        }
      ],
      "payable": false,
      "stateMutability": "view",
      "type": "function"
    },
    {
      "constant": true,
      "inputs": [],
      "name": "ONE_HUNDRED_PERCENT",
      "outputs": [
        {
          "internalType": "uint16",
          "name": "",
          "type": "uint16"
        }
      ],
      "payable": false,
      "stateMutability": "view",
      "type": "function"
    },
    {
      "constant": true,
      "inputs": [
        {
          "internalType": "address",
          "name": "tokenAddress",
          "type": "address"
        }
      ],
      "name": "findTokenIndex",
      "outputs": [
        {
          "internalType": "int256",
          "name": "",
          "type": "int256"
        }
      ],
      "payable": false,
      "stateMutability": "view",
      "type": "function"
    },
    {
      "constant": true,
      "inputs": [],
      "name": "getTokens",
      "outputs": [
        {
          "internalType": "address[]",
          "name": "",
          "type": "address[]"
        }
      ],
      "payable": false,
      "stateMutability": "view",
      "type": "function"
    },
    {
      "constant": true,
      "inputs": [],
      "name": "initialized",
      "outputs": [
        {
          "internalType": "bool",
          "name": "value",
          "type": "bool"
        }
      ],
      "payable": false,
      "stateMutability": "view",
      "type": "function"
    },
    {
      "constant": true,
      "inputs": [],
      "name": "isOwner",
      "outputs": [
        {
          "internalType": "bool",
          "name": "",
          "type": "bool"
        }
      ],
      "payable": false,
      "stateMutability": "view",
      "type": "function"
    },
    {
      "constant": true,
      "inputs": [],
      "name": "loanID",
      "outputs": [
        {
          "internalType": "uint256",
          "name": "",
          "type": "uint256"
        }
      ],
      "payable": false,
      "stateMutability": "view",
      "type": "function"
    },
    {
      "constant": true,
      "inputs": [],
      "name": "loans",
      "outputs": [
        {
          "internalType": "contract LoansInterface",
          "name": "",
          "type": "address"
        }
      ],
      "payable": false,
      "stateMutability": "view",
      "type": "function"
    },
    {
      "constant": true,
      "inputs": [],
      "name": "owner",
      "outputs": [
        {
          "internalType": "address",
          "name": "",
          "type": "address"
        }
      ],
      "payable": false,
      "stateMutability": "view",
      "type": "function"
    },
    {
      "constant": false,
      "inputs": [],
      "name": "renounceOwnership",
      "outputs": [],
      "payable": false,
      "stateMutability": "nonpayable",
      "type": "function"
    },
    {
      "constant": true,
      "inputs": [],
      "name": "settings",
      "outputs": [
        {
          "internalType": "contract SettingsInterface",
          "name": "",
          "type": "address"
        }
      ],
      "payable": false,
      "stateMutability": "view",
      "type": "function"
    },
    {
      "constant": false,
      "inputs": [
        {
          "internalType": "address",
          "name": "newOwner",
          "type": "address"
        }
      ],
      "name": "transferOwnership",
      "outputs": [],
      "payable": false,
      "stateMutability": "nonpayable",
      "type": "function"
    },
    {
      "constant": false,
      "inputs": [
        {
          "components": [
            {
              "internalType": "address",
              "name": "location",
              "type": "address"
            },
            {
              "internalType": "bytes",
              "name": "data",
              "type": "bytes"
            }
          ],
          "internalType": "struct TellerCommon.DappData",
          "name": "dappData",
          "type": "tuple"
        }
      ],
      "name": "callDapp",
      "outputs": [],
      "payable": false,
      "stateMutability": "nonpayable",
      "type": "function"
    },
    {
      "constant": true,
      "inputs": [],
      "name": "getBorrower",
      "outputs": [
        {
          "internalType": "address",
          "name": "",
          "type": "address"
        }
      ],
      "payable": false,
      "stateMutability": "view",
      "type": "function"
    },
    {
      "constant": true,
      "inputs": [],
      "name": "getLoan",
      "outputs": [
        {
          "components": [
            {
              "internalType": "uint256",
              "name": "id",
              "type": "uint256"
            },
            {
              "components": [
                {
                  "internalType": "address payable",
                  "name": "borrower",
                  "type": "address"
                },
                {
                  "internalType": "address",
                  "name": "recipient",
                  "type": "address"
                },
                {
                  "internalType": "uint256",
                  "name": "interestRate",
                  "type": "uint256"
                },
                {
                  "internalType": "uint256",
                  "name": "collateralRatio",
                  "type": "uint256"
                },
                {
                  "internalType": "uint256",
                  "name": "maxLoanAmount",
                  "type": "uint256"
                },
                {
                  "internalType": "uint256",
                  "name": "duration",
                  "type": "uint256"
                }
              ],
              "internalType": "struct TellerCommon.LoanTerms",
              "name": "loanTerms",
              "type": "tuple"
            },
            {
              "internalType": "uint256",
              "name": "termsExpiry",
              "type": "uint256"
            },
            {
              "internalType": "uint256",
              "name": "loanStartTime",
              "type": "uint256"
            },
            {
              "internalType": "uint256",
              "name": "collateral",
              "type": "uint256"
            },
            {
              "internalType": "uint256",
              "name": "lastCollateralIn",
              "type": "uint256"
            },
            {
              "internalType": "uint256",
              "name": "principalOwed",
              "type": "uint256"
            },
            {
              "internalType": "uint256",
              "name": "interestOwed",
              "type": "uint256"
            },
            {
              "internalType": "uint256",
              "name": "borrowedAmount",
              "type": "uint256"
            },
            {
              "internalType": "address",
              "name": "escrow",
              "type": "address"
            },
            {
              "internalType": "enum TellerCommon.LoanStatus",
              "name": "status",
              "type": "uint8"
            },
            {
              "internalType": "bool",
              "name": "liquidated",
              "type": "bool"
            }
          ],
          "internalType": "struct TellerCommon.Loan",
          "name": "",
          "type": "tuple"
        }
      ],
      "payable": false,
      "stateMutability": "view",
      "type": "function"
    },
    {
      "constant": true,
      "inputs": [],
      "name": "calculateTotalValue",
      "outputs": [
        {
          "components": [
            {
              "internalType": "uint256",
              "name": "valueInToken",
              "type": "uint256"
            },
            {
              "internalType": "uint256",
              "name": "valueInEth",
              "type": "uint256"
            }
          ],
          "internalType": "struct TellerCommon.EscrowValue",
          "name": "",
          "type": "tuple"
        }
      ],
      "payable": false,
      "stateMutability": "view",
      "type": "function"
    },
    {
      "constant": true,
      "inputs": [],
      "name": "isUnderValued",
      "outputs": [
        {
          "internalType": "bool",
          "name": "",
          "type": "bool"
        }
      ],
      "payable": false,
      "stateMutability": "view",
      "type": "function"
    },
    {
      "constant": false,
      "inputs": [
        {
          "internalType": "uint256",
          "name": "amount",
          "type": "uint256"
        }
      ],
      "name": "repay",
      "outputs": [],
      "payable": false,
      "stateMutability": "nonpayable",
      "type": "function"
    },
    {
      "constant": false,
      "inputs": [
        {
          "internalType": "address",
          "name": "recipient",
          "type": "address"
        }
      ],
      "name": "claimTokens",
      "outputs": [],
      "payable": false,
      "stateMutability": "nonpayable",
      "type": "function"
    },
    {
      "constant": false,
      "inputs": [
        {
          "internalType": "address",
          "name": "sender",
          "type": "address"
        }
      ],
      "name": "initialize",
      "outputs": [],
      "payable": false,
      "stateMutability": "nonpayable",
      "type": "function"
    },
    {
      "constant": false,
      "inputs": [
        {
          "internalType": "address",
          "name": "loansAddress",
          "type": "address"
        },
        {
          "internalType": "uint256",
          "name": "aLoanID",
          "type": "uint256"
        }
      ],
      "name": "initialize",
      "outputs": [],
      "payable": false,
      "stateMutability": "nonpayable",
      "type": "function"
    }
  ],
  "bytecode": "0x608060405261331d806100136000396000f3fe608060405234801561001057600080fd5b50600436106101375760003560e01c806392cd1ff2116100b8578063cd6dc6871161007c578063cd6dc68714610246578063dd0081c714610259578063df8de3e71461026e578063e06174e414610281578063e9946b2014610296578063f2fde38b1461029e57610137565b806392cd1ff2146101e1578063a06101d0146101f6578063aa6ca8081461020b578063b41304b114610220578063c4d66de81461023357610137565b8063415dfa5b116100ff578063415dfa5b146101ac5780634859b3f4146101b4578063715018a6146101c95780638da5cb5b146101d15780638f32d59b146101d957610137565b80630a11fd071461013c578063158ef93e146101655780631cb0c3e71461017a578063215b0dc61461018f578063371fd8e614610197575b600080fd5b61014f61014a3660046126d0565b6102b1565b60405161015c9190613027565b60405180910390f35b61016d6102e3565b60405161015c9190613019565b610182610302565b60405161015c9190612f9c565b61014f610391565b6101aa6101a536600461281a565b610397565b005b61016d6107b1565b6101bc610842565b60405161015c9190613182565b6101aa6108d1565b61018261093f565b61016d61094e565b6101e9610974565b60405161015c91906131ad565b6101fe610979565b60405161015c9190613174565b61021361107b565b60405161015c9190613008565b6101aa61022e3660046127a8565b6110dd565b6101aa6102413660046126d0565b611435565b6101aa610254366004612714565b611508565b610261611681565b60405161015c9190613191565b6101aa61027c3660046126d0565b611687565b61028961187c565b60405161015c9190613035565b61028961189e565b6101aa6102ac3660046126d0565b6118ad565b600080806102c660668563ffffffff6118dd16565b91509150816102d7576000196102d9565b805b925050505b919050565b6000806040516102f290612f86565b6040519081900390205492915050565b606754606854604051631c3d878d60e31b81526000926001600160a01b03169163e1ec3c68916103359190600401613027565b6102206040518083038186803b15801561034e57600080fd5b505afa158015610362573d6000803e3d6000fd5b505050506040513d601f19601f8201168201806040525061038691908101906127fb565b602001515190505b90565b60685481565b61039f61094e565b6103c45760405162461bcd60e51b81526004016103bb906130f4565b60405180910390fd5b6067546040805163155594ab60e31b815290516000926001600160a01b03169163aaaca558916004808301926020929190829003018186803b15801561040957600080fd5b505afa15801561041d573d6000803e3d6000fd5b505050506040513d601f19601f8201168201806040525061044191908101906126f6565b905060006104d3606760009054906101000a90046001600160a01b03166001600160a01b031663aaaca5586040518163ffffffff1660e01b815260040160206040518083038186803b15801561049657600080fd5b505afa1580156104aa573d6000803e3d6000fd5b505050506040513d601f19601f820116820180604052506104ce91908101906126f6565b611932565b606754606854604051623b929360e81b81529293506000926001600160a01b0390921691633b9293009161050991600401613027565b60206040518083038186803b15801561052157600080fd5b505afa158015610535573d6000803e3d6000fd5b505050506040513d601f19601f82011682018060405250610559919081019061276c565b9050808210801561056957508184115b1561063f57600081851161058c57610587858463ffffffff6119b716565b61059c565b61059c828463ffffffff6119b716565b6040516323b872dd60e01b81529091506001600160a01b038516906323b872dd906105cf90339030908690600401612faa565b602060405180830381600087803b1580156105e957600080fd5b505af11580156105fd573d6000803e3d6000fd5b505050506040513d601f19601f82011682018060405250610621919081019061274e565b61063d5760405162461bcd60e51b81526004016103bb906130d4565b505b826001600160a01b031663095ea7b3606760009054906101000a90046001600160a01b03166001600160a01b031663a59a99736040518163ffffffff1660e01b815260040160206040518083038186803b15801561069c57600080fd5b505afa1580156106b0573d6000803e3d6000fd5b505050506040513d601f19601f820116820180604052506106d491908101906126f6565b866040518363ffffffff1660e01b81526004016106f2929190612fed565b602060405180830381600087803b15801561070c57600080fd5b505af1158015610720573d6000803e3d6000fd5b505050506040513d601f19601f82011682018060405250610744919081019061274e565b5060675460685460405163d8aed14560e01b81526001600160a01b039092169163d8aed145916107799188919060040161319f565b600060405180830381600087803b15801561079357600080fd5b505af11580156107a7573d6000803e3d6000fd5b5050505050505050565b606754606854604051623b929360e81b81526000926001600160a01b031691633b929300916107e39190600401613027565b60206040518083038186803b1580156107fb57600080fd5b505afa15801561080f573d6000803e3d6000fd5b505050506040513d601f19601f82011682018060405250610833919081019061276c565b61083b610979565b5110905090565b61084a61232e565b606754606854604051631c3d878d60e31b81526001600160a01b039092169163e1ec3c689161087b91600401613027565b6102206040518083038186803b15801561089457600080fd5b505afa1580156108a8573d6000803e3d6000fd5b505050506040513d601f19601f820116820180604052506108cc91908101906127fb565b905090565b6108d961094e565b6108f55760405162461bcd60e51b81526004016103bb906130f4565b6033546040516000916001600160a01b0316907f8be0079c531659141344cd1fd0a4f28419497f9722a3daafe3b4186f6b6457e0908390a3603380546001600160a01b0319169055565b6033546001600160a01b031690565b6033546000906001600160a01b0316610965611a00565b6001600160a01b031614905090565b601281565b6109816123a9565b606061098b61107b565b90506000805b8251811015610b34576109a261187c565b6001600160a01b031663040141e56040518163ffffffff1660e01b815260040160206040518083038186803b1580156109da57600080fd5b505afa1580156109ee573d6000803e3d6000fd5b505050506040513d601f19601f82011682018060405250610a1291908101906126f6565b6001600160a01b0316838281518110610a2757fe5b60200260200101516001600160a01b03161415610a7157610a6a610a5d848381518110610a5057fe5b6020026020010151611932565b839063ffffffff611a0416565b9150610b2c565b6000610b16848381518110610a8257fe5b6020026020010151610a9261187c565b6001600160a01b031663a734f06e6040518163ffffffff1660e01b815260040160206040518083038186803b158015610aca57600080fd5b505afa158015610ade573d6000803e3d6000fd5b505050506040513d601f19601f82011682018060405250610b0291908101906126f6565b610b11878681518110610a5057fe5b611a29565b9050610b28838263ffffffff611a0416565b9250505b600101610991565b506000610b3f610842565b6080015190506000610b4f610842565b60200151606001511115610d06576000610b6761187c565b6001600160a01b031663269012a0610b7d61187c565b6001600160a01b031663d86d744e6040518163ffffffff1660e01b815260040160206040518083038186803b158015610bb557600080fd5b505afa158015610bc9573d6000803e3d6000fd5b505050506040513d601f19601f82011682018060405250610bed919081019061278a565b6001600160a01b03166308b04f626040518163ffffffff1660e01b815260040160206040518083038186803b158015610c2557600080fd5b505afa158015610c39573d6000803e3d6000fd5b505050506040513d601f19601f82011682018060405250610c5d919081019061276c565b6040518263ffffffff1660e01b8152600401610c799190613027565b60206040518083038186803b158015610c9157600080fd5b505afa158015610ca5573d6000803e3d6000fd5b505050506040513d601f19601f82011682018060405250610cc9919081019061276c565b90506000610cef612710610ce3858563ffffffff611be116565b9063ffffffff611c1b16565b9050610d01838263ffffffff6119b716565b925050505b610d0e61187c565b6001600160a01b031663a734f06e6040518163ffffffff1660e01b815260040160206040518083038186803b158015610d4657600080fd5b505afa158015610d5a573d6000803e3d6000fd5b505050506040513d601f19601f82011682018060405250610d7e91908101906126f6565b6001600160a01b0316606760009054906101000a90046001600160a01b03166001600160a01b031663b2016bd46040518163ffffffff1660e01b815260040160206040518083038186803b158015610dd557600080fd5b505afa158015610de9573d6000803e3d6000fd5b505050506040513d601f19601f82011682018060405250610e0d91908101906126f6565b6001600160a01b03161415610e3357610e2c828263ffffffff611a0416565b9150610f52565b6000610f3c606760009054906101000a90046001600160a01b03166001600160a01b031663b2016bd46040518163ffffffff1660e01b815260040160206040518083038186803b158015610e8657600080fd5b505afa158015610e9a573d6000803e3d6000fd5b505050506040513d601f19601f82011682018060405250610ebe91908101906126f6565b610ec661187c565b6001600160a01b031663a734f06e6040518163ffffffff1660e01b815260040160206040518083038186803b158015610efe57600080fd5b505afa158015610f12573d6000803e3d6000fd5b505050506040513d601f19601f82011682018060405250610f3691908101906126f6565b84611a29565b9050610f4e838263ffffffff611a0416565b9250505b600061105b610f5f61187c565b6001600160a01b031663a734f06e6040518163ffffffff1660e01b815260040160206040518083038186803b158015610f9757600080fd5b505afa158015610fab573d6000803e3d6000fd5b505050506040513d601f19601f82011682018060405250610fcf91908101906126f6565b606760009054906101000a90046001600160a01b03166001600160a01b031663aaaca5586040518163ffffffff1660e01b815260040160206040518083038186803b15801561101d57600080fd5b505afa158015611031573d6000803e3d6000fd5b505050506040513d601f19601f8201168201806040525061105591908101906126f6565b85611a29565b905060405180604001604052808281526020018481525094505050505090565b606060668054806020026020016040519081016040528092919081815260200182805480156110d357602002820191906000526020600020905b81546001600160a01b031681526001909101906020018083116110b5575b5050505050905090565b6110e56102e3565b6111015760405162461bcd60e51b81526004016103bb90613154565b61110961094e565b6111255760405162461bcd60e51b81526004016103bb906130f4565b61112d6123c3565b61113561187c565b6001600160a01b031663bdd1daaa6040518163ffffffff1660e01b815260040160206040518083038186803b15801561116d57600080fd5b505afa158015611181573d6000803e3d6000fd5b505050506040513d601f19601f820116820180604052506111a5919081019061278a565b6001600160a01b03166355670f316111c060208501856126d0565b6040518263ffffffff1660e01b81526004016111dc9190612f9c565b604080518083038186803b1580156111f357600080fd5b505afa158015611207573d6000803e3d6000fd5b505050506040513d601f19601f8201168201806040525061122b91908101906127dd565b805190915061124c5760405162461bcd60e51b81526004016103bb906130b4565b8060200151806112d857506067546068546040516302151da360e61b81526001600160a01b039092169163854768c09161128891600401613027565b60206040518083038186803b1580156112a057600080fd5b505afa1580156112b4573d6000803e3d6000fd5b505050506040513d601f19601f820116820180604052506112d8919081019061274e565b6112f45760405162461bcd60e51b81526004016103bb906130c4565b600061130360208401846126d0565b6001600160a01b0316635c60da1b6040518163ffffffff1660e01b815260040160206040518083038186803b15801561133b57600080fd5b505afa15801561134f573d6000803e3d6000fd5b505050506040513d601f19601f8201168201806040525061137391908101906126f6565b905060006001600160a01b03821684602081018035601e193684900301811261139b57600080fd5b9091016020810191503567ffffffffffffffff8111156113ba57600080fd5b368190038213156113ca57600080fd5b6040516113d8929190612f79565b600060405180830381855af49150503d8060008114611413576040519150601f19603f3d011682016040523d82523d6000602084013e611418565b606091505b50909150508061142f576040513d806000833e8082fd5b50505050565b600054610100900460ff168061144e575061144e611c5d565b8061145c575060005460ff16155b6114785760405162461bcd60e51b81526004016103bb90613104565b600054610100900460ff161580156114a3576000805460ff1961ff0019909116610100171660011790555b603380546001600160a01b0319166001600160a01b0384811691909117918290556040519116906000907f8be0079c531659141344cd1fd0a4f28419497f9722a3daafe3b4186f6b6457e0908290a38015611504576000805461ff00191690555b5050565b6115106102e3565b1561152d5760405162461bcd60e51b81526004016103bb90613164565b61153f826001600160a01b0316611c63565b61155b5760405162461bcd60e51b81526004016103bb90613074565b606780546001600160a01b0319166001600160a01b0384161790556068819055611586610241610302565b61158e611c9c565b611596610842565b61010001516067546040805163155594ab60e31b815290516115e1926001600160a01b03169163aaaca558916004808301926020929190829003018186803b15801561049657600080fd5b146115fe5760405162461bcd60e51b81526004016103bb90613134565b6067546040805163155594ab60e31b81529051611504926001600160a01b03169163aaaca558916004808301926020929190829003018186803b15801561164457600080fd5b505afa158015611658573d6000803e3d6000fd5b505050506040513d601f19601f8201168201806040525061167c91908101906126f6565b611cba565b61271081565b6002611691610842565b610140015160038111156116a157fe5b14156116bf5760405162461bcd60e51b81526004016103bb90613094565b6116c7610842565b610160015115611739576116d9610302565b6001600160a01b0316816001600160a01b0316141561170a5760405162461bcd60e51b81526004016103bb90613054565b6067546001600160a01b031633146117345760405162461bcd60e51b81526004016103bb90613124565b611771565b611741610302565b6001600160a01b0316816001600160a01b0316146117715760405162461bcd60e51b81526004016103bb90613144565b606061177b61107b565b905060005b815181101561184057600061179a838381518110610a5057fe5b90508015611837578282815181106117ae57fe5b60200260200101516001600160a01b031663a9059cbb85836040518363ffffffff1660e01b81526004016117e3929190612fed565b602060405180830381600087803b1580156117fd57600080fd5b505af1158015611811573d6000803e3d6000fd5b505050506040513d601f19601f82011682018060405250611835919081019061274e565b505b50600101611780565b507fb638240958296a5b145c2f18c8ec62f72a20911efab2d38fb48c76695373761f826040516118709190612f9c565b60405180910390a15050565b600080600060405161188d90612f91565b604051908190039020549250505090565b6067546001600160a01b031681565b6118b561094e565b6118d15760405162461bcd60e51b81526004016103bb906130f4565b6118da81611d1c565b50565b6000805b835481101561192b57826001600160a01b031684828154811061190057fe5b6000918252602090912001546001600160a01b031614915081156119235761192b565b6001016118e1565b9250929050565b6040516370a0823160e01b81526000906001600160a01b038316906370a0823190611961903090600401612f9c565b60206040518083038186803b15801561197957600080fd5b505afa15801561198d573d6000803e3d6000fd5b505050506040513d601f19601f820116820180604052506119b1919081019061276c565b92915050565b60006119f983836040518060400160405280601e81526020017f536166654d6174683a207375627472616374696f6e206f766572666c6f770000815250611d9e565b9392505050565b3390565b6000828201838110156119f95760405162461bcd60e51b81526004016103bb90613084565b600080611a3461187c565b6001600160a01b031663a734f06e6040518163ffffffff1660e01b815260040160206040518083038186803b158015611a6c57600080fd5b505afa158015611a80573d6000803e3d6000fd5b505050506040513d601f19601f82011682018060405250611aa491908101906126f6565b6001600160a01b0316856001600160a01b031614611b3257846001600160a01b031663313ce5676040518163ffffffff1660e01b815260040160206040518083038186803b158015611af557600080fd5b505afa158015611b09573d6000803e3d6000fd5b505050506040513d601f19601f82011682018060405250611b2d9190810190612838565b611b35565b60125b90506000611b438686611dca565b90506000816001600160a01b03166396237c026040518163ffffffff1660e01b815260040160206040518083038186803b158015611b8057600080fd5b505afa158015611b94573d6000803e3d6000fd5b505050506040513d601f19601f82011682018060405250611bb8919081019061276c565b905060ff8316600a0a611bd581610ce3888563ffffffff611be116565b98975050505050505050565b600082611bf0575060006119b1565b82820282848281611bfd57fe5b04146119f95760405162461bcd60e51b81526004016103bb906130e4565b60006119f983836040518060400160405280601a81526020017f536166654d6174683a206469766973696f6e206279207a65726f000000000000815250611fd2565b303b1590565b6000813f7fc5d2460186f7233c927e7db2dcc703c0e500b653ca82273b7bfad8045d85a4708181148015906102d9575050151592915050565b6000604051611caa90612f86565b6040519081900390206001905550565b600080611cce60668463ffffffff6118dd16565b915091506000611cdd84611932565b1115611d005781611cfb57611cf960668463ffffffff61200916565b505b611d17565b8115611d175761142f60668263ffffffff6120bd16565b505050565b6001600160a01b038116611d425760405162461bcd60e51b81526004016103bb90613064565b6033546040516001600160a01b038084169216907f8be0079c531659141344cd1fd0a4f28419497f9722a3daafe3b4186f6b6457e090600090a3603380546001600160a01b0319166001600160a01b0392909216919091179055565b60008184841115611dc25760405162461bcd60e51b81526004016103bb9190613043565b505050900390565b6000611dd461187c565b6001600160a01b03166302d58da76040518163ffffffff1660e01b815260040160206040518083038186803b158015611e0c57600080fd5b505afa158015611e20573d6000803e3d6000fd5b505050506040513d601f19601f82011682018060405250611e44919081019061278a565b6001600160a01b031663662a3e5884846040518363ffffffff1660e01b8152600401611e71929190612fd2565b60206040518083038186803b158015611e8957600080fd5b505afa158015611e9d573d6000803e3d6000fd5b505050506040513d601f19601f82011682018060405250611ec1919081019061274e565b611edd5760405162461bcd60e51b81526004016103bb90613114565b611ee561187c565b6001600160a01b03166302d58da76040518163ffffffff1660e01b815260040160206040518083038186803b158015611f1d57600080fd5b505afa158015611f31573d6000803e3d6000fd5b505050506040513d601f19601f82011682018060405250611f55919081019061278a565b6001600160a01b031663c495931784846040518363ffffffff1660e01b8152600401611f82929190612fd2565b60206040518083038186803b158015611f9a57600080fd5b505afa158015611fae573d6000803e3d6000fd5b505050506040513d601f19601f820116820180604052506119f9919081019061278a565b60008183611ff35760405162461bcd60e51b81526004016103bb9190613043565b506000838581611fff57fe5b0495945050505050565b60606001600160a01b0382166120315760405162461bcd60e51b81526004016103bb906130a4565b8254600181018455600084815260209081902090910180546001600160a01b0319166001600160a01b03851617905583546040805182840281018401909152818152918591908301828280156120b057602002820191906000526020600020905b81546001600160a01b03168152600190910190602001808311612092575b5050505050905092915050565b815460609082106121255782546040805160208084028201810190925282815291859183018282801561211957602002820191906000526020600020905b81546001600160a01b031681526001909101906020018083116120fb575b505050505090506119b1565b8254600019018214156121c95782548390600019810190811061214457fe5b600091825260209091200180546001600160a01b0319169055825461216d8460001983016123da565b50825460408051602080840282018101909252828152918591830182828015612119576020028201919060005260206000209081546001600160a01b031681526001909101906020018083116120fb57505050505090506119b1565b8254600090849060001981019081106121de57fe5b60009182526020909120015484546001600160a01b03909116915084908490811061220557fe5b60009182526020909120015484546001600160a01b03909116908590600019810190811061222f57fe5b9060005260206000200160006101000a8154816001600160a01b0302191690836001600160a01b031602179055508084848154811061226a57fe5b600091825260209091200180546001600160a01b0319166001600160a01b03929092169190911790558354849060001981019081106122a557fe5b600091825260209091200180546001600160a01b031916905583546122ce8560001983016123da565b5083546040805160208084028201810190925282815291869183018282801561232057602002820191906000526020600020905b81546001600160a01b03168152600190910190602001808311612302575b505050505091505092915050565b604051806101800160405280600081526020016123496123fe565b81526020016000815260200160008152602001600081526020016000815260200160008152602001600081526020016000815260200160006001600160a01b031681526020016000600381111561239c57fe5b8152600060209091015290565b604051806040016040528060008152602001600081525090565b604080518082019091526000808252602082015290565b815481835581811115611d1757600083815260209020611d17918101908301612446565b6040518060c0016040528060006001600160a01b0316815260200160006001600160a01b03168152602001600081526020016000815260200160008152602001600081525090565b61038e91905b80821115612460576000815560010161244c565b5090565b80356119b181613295565b80516119b181613295565b80516119b1816132a9565b80516119b1816132b2565b80516119b1816132bb565b80516119b1816132c4565b6000604082840312156124b857600080fd5b50919050565b6000604082840312156124d057600080fd5b6124da60406131bb565b905060006124e8848461247a565b82525060206124f98484830161247a565b60208301525092915050565b600060c0828403121561251757600080fd5b61252160c06131bb565b9050600061252f848461246f565b82525060206125408484830161246f565b602083015250604061255484828501612485565b604083015250606061256884828501612485565b606083015250608061257c84828501612485565b60808301525060a061259084828501612485565b60a08301525092915050565b600061022082840312156125af57600080fd5b6125ba6101806131bb565b905060006125c88484612485565b82525060206125d984848301612505565b60208301525060e06125ed84828501612485565b60408301525061010061260284828501612485565b60608301525061012061261784828501612485565b60808301525061014061262c84828501612485565b60a08301525061016061264184828501612485565b60c08301525061018061265684828501612485565b60e0830152506101a061266b84828501612485565b610100830152506101c06126818482850161246f565b610120830152506101e06126978482850161249b565b610140830152506102006126ad8482850161247a565b6101608301525092915050565b80356119b1816132b2565b80516119b1816132d1565b6000602082840312156126e257600080fd5b60006126ee8484612464565b949350505050565b60006020828403121561270857600080fd5b60006126ee848461246f565b6000806040838503121561272757600080fd5b60006127338585612464565b9250506020612744858286016126ba565b9150509250929050565b60006020828403121561276057600080fd5b60006126ee848461247a565b60006020828403121561277e57600080fd5b60006126ee8484612485565b60006020828403121561279c57600080fd5b60006126ee8484612490565b6000602082840312156127ba57600080fd5b813567ffffffffffffffff8111156127d157600080fd5b6126ee848285016124a6565b6000604082840312156127ef57600080fd5b60006126ee84846124be565b6000610220828403121561280e57600080fd5b60006126ee848461259c565b60006020828403121561282c57600080fd5b60006126ee84846126ba565b60006020828403121561284a57600080fd5b60006126ee84846126c5565b60006128628383612879565b505060200190565b61287381613233565b82525050565b612873816131f5565b600061288d826131e8565b61289781856131ec565b93506128a2836131e2565b8060005b838110156128d05781516128ba8882612856565b97506128c5836131e2565b9250506001016128a6565b509495945050505050565b61287381613200565b6128738161038e565b60006128f983856102de565b9350612906838584613249565b50500190565b61287381613205565b6128738161323e565b6000612929826131e8565b61293381856131ec565b9350612943818560208601613255565b61294c81613281565b9093019392505050565b6000612963601c836131ec565b7f524543495049454e545f43414e4e4f545f42455f424f52524f57455200000000815260200192915050565b600061299c601c836102de565b7f54496e697469616c697a61626c652e6973496e697469616c697a6564000000008152601c0192915050565b60006129d56026836131ec565b7f4f776e61626c653a206e6577206f776e657220697320746865207a65726f206181526564647265737360d01b602082015260400192915050565b6000612a1d6018836131ec565b7f4c4f414e535f4d5553545f42455f415f434f4e54524143540000000000000000815260200192915050565b6000612a56601b836131ec565b7f536166654d6174683a206164646974696f6e206f766572666c6f770000000000815260200192915050565b6000612a8f600b836131ec565b6a4c4f414e5f41435449564560a81b815260200192915050565b6000612ab66019836131ec565b7f454d5054595f414444524553535f4e4f545f414c4c4f57454400000000000000815260200192915050565b6000612aef6014836131ec565b731110541417d393d517d5d2125511531254d5115160621b815260200192915050565b6000612b1f601a836131ec565b7f444150505f554e534543555245445f4e4f545f414c4c4f574544000000000000815260200192915050565b6000612b58601b836131ec565b7f455343524f575f5452414e534645525f46524f4d5f4641494c45440000000000815260200192915050565b6000612b916021836131ec565b7f536166654d6174683a206d756c7469706c69636174696f6e206f766572666c6f8152607760f81b602082015260400192915050565b6000612bd46020836131ec565b7f4f776e61626c653a2063616c6c6572206973206e6f7420746865206f776e6572815260200192915050565b6000612c0d602e836131ec565b7f436f6e747261637420696e7374616e63652068617320616c726561647920626581526d195b881a5b9a5d1a585b1a5e995960921b602082015260400192915050565b6000612c5d6024836131ec565b7f434841494e4c494e4b5f504149525f41474752454741544f525f4e4f545f45588152634953545360e01b602082015260400192915050565b6000612ca36014836131ec565b7343414c4c45525f4d5553545f42455f4c4f414e5360601b815260200192915050565b6000612cd3601d836131ec565b7f455343524f575f42414c414e43455f4e4f545f4d415443485f4c4f414e000000815260200192915050565b6000612d0c6018836102de565b7f426173655570677261646561626c652e73657474696e67730000000000000000815260180192915050565b6000612d45601a836131ec565b7f524543495049454e545f4d5553545f42455f424f52524f574552000000000000815260200192915050565b6000612d7e6018836131ec565b7f434f4e54524143545f4e4f545f494e495449414c495a45440000000000000000815260200192915050565b6000612db7601c836131ec565b7f434f4e54524143545f414c52454144595f494e495449414c495a454400000000815260200192915050565b80516040830190612df484826128e4565b50602082015161142f60208501826128e4565b805160c0830190612e188482612879565b506020820151612e2b6020850182612879565b506040820151612e3e60408501826128e4565b506060820151612e5160608501826128e4565b506080820151612e6460808501826128e4565b5060a082015161142f60a08501826128e4565b8051610220830190612e8984826128e4565b506020820151612e9c6020850182612e07565b506040820151612eaf60e08501826128e4565b506060820151612ec36101008501826128e4565b506080820151612ed76101208501826128e4565b5060a0820151612eeb6101408501826128e4565b5060c0820151612eff6101608501826128e4565b5060e0820151612f136101808501826128e4565b50610100820151612f286101a08501826128e4565b50610120820151612f3d6101c0850182612879565b50610140820151612f526101e0850182612915565b5061016082015161142f6102008501826128db565b6128738161321a565b6128738161322d565b60006126ee8284866128ed565b60006119b18261298f565b60006119b182612cff565b602081016119b18284612879565b60608101612fb8828661286a565b612fc56020830185612879565b6126ee60408301846128e4565b60408101612fe08285612879565b6119f96020830184612879565b60408101612ffb8285612879565b6119f960208301846128e4565b602080825281016119f98184612882565b602081016119b182846128db565b602081016119b182846128e4565b602081016119b1828461290c565b602080825281016119f9818461291e565b602080825281016119b181612956565b602080825281016119b1816129c8565b602080825281016119b181612a10565b602080825281016119b181612a49565b602080825281016119b181612a82565b602080825281016119b181612aa9565b602080825281016119b181612ae2565b602080825281016119b181612b12565b602080825281016119b181612b4b565b602080825281016119b181612b84565b602080825281016119b181612bc7565b602080825281016119b181612c00565b602080825281016119b181612c50565b602080825281016119b181612c96565b602080825281016119b181612cc6565b602080825281016119b181612d38565b602080825281016119b181612d71565b602080825281016119b181612daa565b604081016119b18284612de3565b61022081016119b18284612e77565b602081016119b18284612f67565b60408101612ffb82856128e4565b602081016119b18284612f70565b60405181810167ffffffffffffffff811182821017156131da57600080fd5b604052919050565b60200190565b5190565b90815260200190565b60006119b182613221565b151590565b60006119b1826131f5565b806102de8161328b565b61ffff1690565b6001600160a01b031690565b60ff1690565b60006119b182613205565b60006119b182613210565b82818337506000910152565b60005b83811015613270578181015183820152602001613258565b8381111561142f5750506000910152565b601f01601f191690565b600481106118da57fe5b61329e816131f5565b81146118da57600080fd5b61329e81613200565b61329e8161038e565b61329e81613205565b600481106118da57600080fd5b61329e8161322d56fea365627a7a723158202c86e8a5bc0b6f89fc0b5aeb49c05c720a3ba8e6635fd8da832496c1e652918a6c6578706572696d656e74616cf564736f6c63430005110040",
  "source": "pragma solidity 0.5.17;\npragma experimental ABIEncoderV2;\n\n// Contracts\nimport \"./BaseUpgradeable.sol\";\nimport \"./BaseEscrowDapp.sol\";\nimport \"./TInitializable.sol\";\n\n// Interfaces\nimport \"../interfaces/EscrowInterface.sol\";\nimport \"../interfaces/LoansInterface.sol\";\nimport \"../interfaces/PairAggregatorInterface.sol\";\nimport \"../interfaces/IBaseProxy.sol\";\n\n// Libraries\nimport \"@openzeppelin/contracts-ethereum-package/contracts/math/SafeMath.sol\";\nimport \"@openzeppelin/contracts-ethereum-package/contracts/token/ERC20/ERC20Detailed.sol\";\nimport \"../util/SettingsConsts.sol\";\nimport \"../util/TellerCommon.sol\";\nimport \"../providers/openzeppelin/SignedSafeMath.sol\";\n\n/*****************************************************************************************************/\n/**                                             WARNING                                             **/\n/**                                  THIS CONTRACT IS UPGRADEABLE!                                  **/\n/**  ---------------------------------------------------------------------------------------------  **/\n/**  Do NOT change the order of or PREPEND any storage variables to this or new versions of this    **/\n/**  contract as this will cause the the storage slots to be overwritten on the proxy contract!!    **/\n/**                                                                                                 **/\n/**  Visit https://docs.openzeppelin.com/upgrades/2.6/proxies#upgrading-via-the-proxy-pattern for   **/\n/**  more information.                                                                              **/\n/*****************************************************************************************************/\n/**\n    @notice This contract is used by borrowers to call Dapp functions (using delegate calls).\n    @notice This contract should only be constructed using it's upgradeable Proxy contract.\n    @notice In order to call a Dapp function, the Dapp must be added in the EscrowFactory instance.\n    @dev The current Dapp implementations are: Uniswap and Compound.\n\n    @author develop@teller.finance\n */\ncontract Escrow is EscrowInterface, TInitializable, BaseUpgradeable, BaseEscrowDapp {\n    using Address for address;\n    using SafeMath for uint256;\n    using SignedSafeMath for uint256;\n\n    // Numerical representation of 100.00 percent.\n    uint16 public constant ONE_HUNDRED_PERCENT = 10000;\n\n    // Ethereum decimal places.\n    uint8 public constant ETH_DECIMALS = 18;\n\n    /** State Variables **/\n\n    /**\n        @notice It is the current loans contract instance.\n     */\n    LoansInterface public loans;\n\n    /**\n        @notice This loan id refers the loan in the loans contract.\n        @notice This loan was taken out by a borrower.\n     */\n    uint256 public loanID;\n\n    /** Modifiers **/\n\n    /** Public Functions **/\n\n    /**\n        @notice It calls a given dapp using a delegatecall function by a borrower owned the current loan id associated to this escrow contract.\n        @param dappData the current dapp data to be executed.\n     */\n    function callDapp(TellerCommon.DappData calldata dappData)\n        external\n        isInitialized()\n        onlyOwner()\n    {\n        TellerCommon.Dapp memory dapp = settings().escrowFactory().dapps(\n            dappData.location\n        );\n        require(dapp.exists, \"DAPP_NOT_WHITELISTED\");\n        require(\n            dapp.unsecured || loans.isLoanSecured(loanID),\n            \"DAPP_UNSECURED_NOT_ALLOWED\"\n        );\n\n        address _impl = IBaseProxy(dappData.location).implementation();\n        (bool success, ) = _impl.delegatecall(dappData.data);\n\n        if (success == false) {\n            assembly {\n                let ptr := mload(0x40)\n                let size := returndatasize\n                returndatacopy(ptr, 0, size)\n                revert(ptr, size)\n            }\n        }\n    }\n\n    /**\n        @notice Gets the borrower for this Escrow's loan.\n        @return address of this Escrow's loans\n     */\n    function getBorrower() public view returns (address) {\n        return loans.loans(loanID).loanTerms.borrower;\n    }\n\n    /**\n        @notice Returns this Escrow's loan instance. \n     */\n    function getLoan() public view returns (TellerCommon.Loan memory) {\n        return loans.loans(loanID);\n    }\n\n    /**\n        @notice Calculate this Escrow instance total value. \n        @return This Escrow instance total value expressed in ETH and Token value. \n     */\n    function calculateTotalValue() public view returns (TellerCommon.EscrowValue memory) {\n        address[] memory tokens = getTokens();\n\n        uint256 valueInEth = 0;\n\n        for (uint256 i = 0; i < tokens.length; i++) {\n            if (tokens[i] == settings().WETH_ADDRESS()) {\n                valueInEth = valueInEth.add(_balanceOf(tokens[i]));\n            } else {\n                uint256 tokenEthValue = _valueOfIn(\n                    tokens[i],\n                    settings().ETH_ADDRESS(),\n                    _balanceOf(tokens[i])\n                );\n                valueInEth = valueInEth.add(tokenEthValue);\n            }\n        }\n\n        uint256 collateralValue = getLoan().collateral;\n        if (getLoan().loanTerms.collateralRatio > 0) {\n            uint256 bufferPercent = settings().getPlatformSettingValue(\n                settings().consts().COLLATERAL_BUFFER_SETTING()\n            );\n            uint256 buffer = collateralValue.mul(bufferPercent).div(ONE_HUNDRED_PERCENT);\n            collateralValue = collateralValue.sub(buffer);\n        }\n\n        if (loans.collateralToken() == settings().ETH_ADDRESS()) {\n            valueInEth = valueInEth.add(collateralValue);\n        } else {\n            uint256 collateralEthValue = _valueOfIn(\n                loans.collateralToken(),\n                settings().ETH_ADDRESS(),\n                collateralValue\n            );\n            valueInEth = valueInEth.add(collateralEthValue);\n        }\n\n        uint256 valueInToken = _valueOfIn(\n            settings().ETH_ADDRESS(),\n            loans.lendingToken(),\n            valueInEth\n        );\n\n        return\n            TellerCommon.EscrowValue({\n                valueInEth: valueInEth,\n                valueInToken: valueInToken\n            });\n    }\n\n    /**\n        @notice Checks if this Escrow loan value is undervalued based its token price.\n        @return true if this escrow loan is undervalued based on its token price.\n     */\n    function isUnderValued() external view returns (bool) {\n        return calculateTotalValue().valueInToken < loans.getTotalOwed(loanID);\n    }\n\n    /**\n        @notice Repay this Escrow's loan.\n        @dev If the Escrow's balance of the borrowed token is less than the amount to repay, transfer tokens from the sender's wallet.\n        @dev Only the owner of the Escrow can call this. If someone else wants to make a payment, they should call the loans contract directly.\n     */\n    function repay(uint256 amount) external onlyOwner {\n        IERC20 token = IERC20(loans.lendingToken());\n        uint256 balance = _balanceOf(loans.lendingToken());\n        uint256 totalOwed = loans.getTotalOwed(loanID);\n        if (balance < totalOwed && amount > balance) {\n            uint256 amountNeeded = amount > totalOwed\n                ? totalOwed.sub(balance)\n                : amount.sub(balance);\n\n            require(\n                token.transferFrom(msg.sender, address(this), amountNeeded),\n                \"ESCROW_TRANSFER_FROM_FAILED\"\n            );\n        }\n        token.approve(loans.lendingPool(), amount);\n\n        loans.repay(amount, loanID);\n    }\n\n    /**\n        @notice Sends the tokens owned by this escrow to the recipient.\n        @dev The loan must not be active.\n        @dev The recipient must either be the loan borrower OR the loan must be already liquidated.\n        @param recipient address to send the tokens to.\n    */\n    function claimTokens(address recipient) external {\n        require(getLoan().status != TellerCommon.LoanStatus.Active, \"LOAN_ACTIVE\");\n        if (getLoan().liquidated) {\n            require(recipient != getBorrower(), \"RECIPIENT_CANNOT_BE_BORROWER\");\n            require(msg.sender == address(loans), \"CALLER_MUST_BE_LOANS\");\n        } else {\n            require(recipient == getBorrower(), \"RECIPIENT_MUST_BE_BORROWER\");\n        }\n\n        address[] memory tokens = getTokens();\n        for (uint256 i = 0; i < tokens.length; i++) {\n            uint256 balance = _balanceOf(tokens[i]);\n            if (balance > 0) {\n                IERC20(tokens[i]).transfer(recipient, balance);\n            }\n        }\n\n        emit TokensClaimed(recipient);\n    }\n\n    /**\n        @notice It initializes this escrow instance for a given loans address and loan id.\n        @param loansAddress loans contract address.\n        @param aLoanID the loan ID associated to this escrow instance.\n     */\n    function initialize(address loansAddress, uint256 aLoanID) public isNotInitialized() {\n        require(loansAddress.isContract(), \"LOANS_MUST_BE_A_CONTRACT\");\n\n        loans = LoansInterface(loansAddress);\n        loanID = aLoanID;\n\n        Ownable.initialize(getBorrower());\n        TInitializable._initialize();\n\n        // Initialize tokens list with the borrowed token.\n        require(\n            _balanceOf(loans.lendingToken()) == getLoan().borrowedAmount,\n            \"ESCROW_BALANCE_NOT_MATCH_LOAN\"\n        );\n        _tokenUpdated(loans.lendingToken());\n    }\n\n    /** Internal Functions */\n\n    /**\n        @notice Calculate this Escrow instance loan value in ETH or Token price.\n        @return Loan value in ETH or Token price based on baseAddress.\n        @param baseAddress base token or ETH address.\n        @param quoteAddress quote token address.\n        @param baseAmount amount of base token or ETH.\n    */\n    function _valueOfIn(\n        address baseAddress,\n        address quoteAddress,\n        uint256 baseAmount\n    ) internal view returns (uint256) {\n        uint8 baseDecimals = baseAddress == settings().ETH_ADDRESS()\n            ? ETH_DECIMALS\n            : ERC20Detailed(baseAddress).decimals();\n        PairAggregatorInterface aggregator = _getAggregatorFor(baseAddress, quoteAddress);\n        uint256 oneTokenPrice = uint256(aggregator.getLatestAnswer());\n        uint256 oneUnit = uint256(10)**baseDecimals;\n        return baseAmount.mul(oneTokenPrice).div(oneUnit);\n    }\n\n    /**\n        @notice Returns Chainlink pair aggregator for token or revert if not found.\n        @param base base token address.\n        @param quote quote token address.\n        @return PairAggregator instance found for this tokens pair.\n     */\n    function _getAggregatorFor(address base, address quote)\n        internal\n        view\n        returns (PairAggregatorInterface)\n    {\n        require(\n            settings().pairAggregatorRegistry().hasPairAggregator(base, quote),\n            \"CHAINLINK_PAIR_AGGREGATOR_NOT_EXISTS\"\n        );\n\n        return settings().pairAggregatorRegistry().getPairAggregator(base, quote);\n    }\n}\n",
  "sourcePath": "/Users/guillesalazar/Repos/ZeroCollateral/smart-contracts-v1/contracts/base/Escrow.sol",
  "compiler": {
    "name": "solc",
    "version": "0.5.17+commit.d19bba13.Emscripten.clang"
  },
  "schemaVersion": "3.2.3",
  "updatedAt": "2020-10-12T16:12:27.680Z",
  "networkType": "ethereum",
  "devdoc": {
    "author": "develop@teller.finance",
    "details": "The current Dapp implementations are: Uniswap and Compound.",
    "methods": {
      "calculateTotalValue()": {
        "return": "This Escrow instance total value expressed in ETH and Token value. "
      },
      "callDapp((address,bytes))": {
        "params": {
          "dappData": "the current dapp data to be executed."
        }
      },
      "claimTokens(address)": {
        "details": "The loan must not be active.The recipient must either be the loan borrower OR the loan must be already liquidated.",
        "params": {
          "recipient": "address to send the tokens to."
        }
      },
      "getBorrower()": {
        "return": "address of this Escrow's loans"
      },
      "initialize(address)": {
        "details": "Initializes the contract setting the deployer as the initial owner."
      },
      "initialize(address,uint256)": {
        "params": {
          "aLoanID": "the loan ID associated to this escrow instance.",
          "loansAddress": "loans contract address."
        }
      },
      "initialized()": {
        "return": "true if contract is initialized. Otherwise it returns false."
      },
      "isOwner()": {
        "details": "Returns true if the caller is the current owner."
      },
      "isUnderValued()": {
        "return": "true if this escrow loan is undervalued based on its token price."
      },
      "owner()": {
        "details": "Returns the address of the current owner."
      },
      "renounceOwnership()": {
        "details": "Leaves the contract without owner. It will not be possible to call `onlyOwner` functions anymore. Can only be called by the current owner.     * > Note: Renouncing ownership will leave the contract without an owner, thereby removing any functionality that is only available to the owner."
      },
      "repay(uint256)": {
        "details": "If the Escrow's balance of the borrowed token is less than the amount to repay, transfer tokens from the sender's wallet.Only the owner of the Escrow can call this. If someone else wants to make a payment, they should call the loans contract directly."
      },
      "settings()": {
        "details": "This address should NOT change over the time. See details in the _setSettings(...) function."
      },
      "transferOwnership(address)": {
        "details": "Transfers ownership of the contract to a new account (`newOwner`). Can only be called by the current owner."
      }
    }
  },
  "userdoc": {
    "methods": {
      "calculateTotalValue()": {
        "notice": "Calculate this Escrow instance total value. "
      },
      "callDapp((address,bytes))": {
        "notice": "It calls a given dapp using a delegatecall function by a borrower owned the current loan id associated to this escrow contract."
      },
      "claimTokens(address)": {
        "notice": "Sends the tokens owned by this escrow to the recipient."
      },
      "getBorrower()": {
        "notice": "Gets the borrower for this Escrow's loan."
      },
      "getLoan()": {
        "notice": "Returns this Escrow's loan instance. "
      },
      "initialize(address,uint256)": {
        "notice": "It initializes this escrow instance for a given loans address and loan id."
      },
      "initialized()": {
        "notice": "Gets if the contract is initialized."
      },
      "isUnderValued()": {
        "notice": "Checks if this Escrow loan value is undervalued based its token price."
      },
      "repay(uint256)": {
        "notice": "Repay this Escrow's loan."
      },
      "settings()": {
        "notice": "The gets the settings contract address from the SETTINGS_SLOT."
      }
    },
    "notice": "This contract is used by borrowers to call Dapp functions (using delegate calls).This contract should only be constructed using it's upgradeable Proxy contract.In order to call a Dapp function, the Dapp must be added in the EscrowFactory instance."
  }
}