{
  "contractName": "EscrowMock",
  "abi": [
    {
      "anonymous": false,
      "inputs": [
        {
          "indexed": true,
          "internalType": "address",
          "name": "previousOwner",
          "type": "address"
        },
        {
          "indexed": true,
          "internalType": "address",
          "name": "newOwner",
          "type": "address"
        }
      ],
      "name": "OwnershipTransferred",
      "type": "event"
    },
    {
      "constant": true,
      "inputs": [],
      "name": "COLLATERAL_BUFFER_SETTING",
      "outputs": [
        {
          "internalType": "bytes32",
          "name": "",
          "type": "bytes32"
        }
      ],
      "payable": false,
      "stateMutability": "view",
      "type": "function"
    },
    {
      "constant": true,
      "inputs": [],
      "name": "LIQUIDATE_ETH_PRICE_SETTING",
      "outputs": [
        {
          "internalType": "bytes32",
          "name": "",
          "type": "bytes32"
        }
      ],
      "payable": false,
      "stateMutability": "view",
      "type": "function"
    },
    {
      "constant": true,
      "inputs": [],
      "name": "MAXIMUM_LOAN_DURATION_SETTING",
      "outputs": [
        {
          "internalType": "bytes32",
          "name": "",
          "type": "bytes32"
        }
      ],
      "payable": false,
      "stateMutability": "view",
      "type": "function"
    },
    {
      "constant": true,
      "inputs": [],
      "name": "MAXIMUM_TOLERANCE_SETTING",
      "outputs": [
        {
          "internalType": "bytes32",
          "name": "",
          "type": "bytes32"
        }
      ],
      "payable": false,
      "stateMutability": "view",
      "type": "function"
    },
    {
      "constant": true,
      "inputs": [],
      "name": "REQUEST_LOAN_TERMS_RATE_LIMIT_SETTING",
      "outputs": [
        {
          "internalType": "bytes32",
          "name": "",
          "type": "bytes32"
        }
      ],
      "payable": false,
      "stateMutability": "view",
      "type": "function"
    },
    {
      "constant": true,
      "inputs": [],
      "name": "REQUIRED_SUBMISSIONS_SETTING",
      "outputs": [
        {
          "internalType": "bytes32",
          "name": "",
          "type": "bytes32"
        }
      ],
      "payable": false,
      "stateMutability": "view",
      "type": "function"
    },
    {
      "constant": true,
      "inputs": [],
      "name": "RESPONSE_EXPIRY_LENGTH_SETTING",
      "outputs": [
        {
          "internalType": "bytes32",
          "name": "",
          "type": "bytes32"
        }
      ],
      "payable": false,
      "stateMutability": "view",
      "type": "function"
    },
    {
      "constant": true,
      "inputs": [],
      "name": "SAFETY_INTERVAL_SETTING",
      "outputs": [
        {
          "internalType": "bytes32",
          "name": "",
          "type": "bytes32"
        }
      ],
      "payable": false,
      "stateMutability": "view",
      "type": "function"
    },
    {
      "constant": true,
      "inputs": [],
      "name": "TERMS_EXPIRY_TIME_SETTING",
      "outputs": [
        {
          "internalType": "bytes32",
          "name": "",
          "type": "bytes32"
        }
      ],
      "payable": false,
      "stateMutability": "view",
      "type": "function"
    },
    {
      "constant": true,
      "inputs": [],
      "name": "_borrower",
      "outputs": [
        {
          "internalType": "address",
          "name": "",
          "type": "address"
        }
      ],
      "payable": false,
      "stateMutability": "view",
      "type": "function"
    },
    {
      "constant": true,
      "inputs": [],
      "name": "_isOwner",
      "outputs": [
        {
          "internalType": "bool",
          "name": "",
          "type": "bool"
        }
      ],
      "payable": false,
      "stateMutability": "view",
      "type": "function"
    },
    {
      "constant": true,
      "inputs": [],
      "name": "_loanStatus",
      "outputs": [
        {
          "internalType": "enum TellerCommon.LoanStatus",
          "name": "",
          "type": "uint8"
        }
      ],
      "payable": false,
      "stateMutability": "view",
      "type": "function"
    },
    {
      "constant": true,
      "inputs": [
        {
          "internalType": "address",
          "name": "",
          "type": "address"
        },
        {
          "internalType": "address",
          "name": "",
          "type": "address"
        }
      ],
      "name": "_valueOfInMapMock",
      "outputs": [
        {
          "internalType": "uint256",
          "name": "",
          "type": "uint256"
        }
      ],
      "payable": false,
      "stateMutability": "view",
      "type": "function"
    },
    {
      "constant": true,
      "inputs": [],
      "name": "calculateTotalValue",
      "outputs": [
        {
          "components": [
            {
              "internalType": "uint256",
              "name": "valueInToken",
              "type": "uint256"
            },
            {
              "internalType": "uint256",
              "name": "valueInEth",
              "type": "uint256"
            }
          ],
          "internalType": "struct TellerCommon.EscrowValue",
          "name": "",
          "type": "tuple"
        }
      ],
      "payable": false,
      "stateMutability": "view",
      "type": "function"
    },
    {
      "constant": false,
      "inputs": [
        {
          "components": [
            {
              "internalType": "address",
              "name": "location",
              "type": "address"
            },
            {
              "internalType": "bytes",
              "name": "data",
              "type": "bytes"
            }
          ],
          "internalType": "struct TellerCommon.DappData",
          "name": "dappData",
          "type": "tuple"
        }
      ],
      "name": "callDapp",
      "outputs": [],
      "payable": false,
      "stateMutability": "nonpayable",
      "type": "function"
    },
    {
      "constant": true,
      "inputs": [],
      "name": "canPurchase",
      "outputs": [
        {
          "internalType": "bool",
          "name": "",
          "type": "bool"
        }
      ],
      "payable": false,
      "stateMutability": "view",
      "type": "function"
    },
    {
      "constant": false,
      "inputs": [
        {
          "internalType": "address",
          "name": "tokenAddress",
          "type": "address"
        }
      ],
      "name": "clearBalance",
      "outputs": [],
      "payable": false,
      "stateMutability": "nonpayable",
      "type": "function"
    },
    {
      "constant": false,
      "inputs": [
        {
          "internalType": "address[]",
          "name": "tokenList",
          "type": "address[]"
        }
      ],
      "name": "externalSetTokens",
      "outputs": [],
      "payable": false,
      "stateMutability": "nonpayable",
      "type": "function"
    },
    {
      "constant": false,
      "inputs": [
        {
          "internalType": "address",
          "name": "tokenAddress",
          "type": "address"
        }
      ],
      "name": "externalTokenUpdated",
      "outputs": [],
      "payable": false,
      "stateMutability": "nonpayable",
      "type": "function"
    },
    {
      "constant": true,
      "inputs": [
        {
          "internalType": "address",
          "name": "tokenAddress",
          "type": "address"
        }
      ],
      "name": "findTokenIndex",
      "outputs": [
        {
          "internalType": "int256",
          "name": "",
          "type": "int256"
        }
      ],
      "payable": false,
      "stateMutability": "view",
      "type": "function"
    },
    {
      "constant": true,
      "inputs": [],
      "name": "getLoan",
      "outputs": [
        {
          "components": [
            {
              "internalType": "uint256",
              "name": "id",
              "type": "uint256"
            },
            {
              "components": [
                {
                  "internalType": "address payable",
                  "name": "borrower",
                  "type": "address"
                },
                {
                  "internalType": "address",
                  "name": "recipient",
                  "type": "address"
                },
                {
                  "internalType": "uint256",
                  "name": "interestRate",
                  "type": "uint256"
                },
                {
                  "internalType": "uint256",
                  "name": "collateralRatio",
                  "type": "uint256"
                },
                {
                  "internalType": "uint256",
                  "name": "maxLoanAmount",
                  "type": "uint256"
                },
                {
                  "internalType": "uint256",
                  "name": "duration",
                  "type": "uint256"
                }
              ],
              "internalType": "struct TellerCommon.LoanTerms",
              "name": "loanTerms",
              "type": "tuple"
            },
            {
              "internalType": "uint256",
              "name": "termsExpiry",
              "type": "uint256"
            },
            {
              "internalType": "uint256",
              "name": "loanStartTime",
              "type": "uint256"
            },
            {
              "internalType": "uint256",
              "name": "collateral",
              "type": "uint256"
            },
            {
              "internalType": "uint256",
              "name": "lastCollateralIn",
              "type": "uint256"
            },
            {
              "internalType": "uint256",
              "name": "principalOwed",
              "type": "uint256"
            },
            {
              "internalType": "uint256",
              "name": "interestOwed",
              "type": "uint256"
            },
            {
              "internalType": "uint256",
              "name": "borrowedAmount",
              "type": "uint256"
            },
            {
              "internalType": "address",
              "name": "escrow",
              "type": "address"
            },
            {
              "internalType": "enum TellerCommon.LoanStatus",
              "name": "status",
              "type": "uint8"
            },
            {
              "internalType": "bool",
              "name": "liquidated",
              "type": "bool"
            }
          ],
          "internalType": "struct TellerCommon.Loan",
          "name": "",
          "type": "tuple"
        }
      ],
      "payable": false,
      "stateMutability": "view",
      "type": "function"
    },
    {
      "constant": true,
      "inputs": [],
      "name": "getTokens",
      "outputs": [
        {
          "internalType": "address[]",
          "name": "",
          "type": "address[]"
        }
      ],
      "payable": false,
      "stateMutability": "view",
      "type": "function"
    },
    {
      "constant": false,
      "inputs": [
        {
          "internalType": "address",
          "name": "sender",
          "type": "address"
        }
      ],
      "name": "initialize",
      "outputs": [],
      "payable": false,
      "stateMutability": "nonpayable",
      "type": "function"
    },
    {
      "constant": false,
      "inputs": [
        {
          "internalType": "address",
          "name": "loansAddress",
          "type": "address"
        },
        {
          "internalType": "uint256",
          "name": "aLoanID",
          "type": "uint256"
        }
      ],
      "name": "initialize",
      "outputs": [],
      "payable": false,
      "stateMutability": "nonpayable",
      "type": "function"
    },
    {
      "constant": true,
      "inputs": [],
      "name": "initialized",
      "outputs": [
        {
          "internalType": "bool",
          "name": "value",
          "type": "bool"
        }
      ],
      "payable": false,
      "stateMutability": "view",
      "type": "function"
    },
    {
      "constant": true,
      "inputs": [],
      "name": "isLoanActive",
      "outputs": [
        {
          "internalType": "bool",
          "name": "",
          "type": "bool"
        }
      ],
      "payable": false,
      "stateMutability": "view",
      "type": "function"
    },
    {
      "constant": true,
      "inputs": [],
      "name": "isUnderValued",
      "outputs": [
        {
          "internalType": "bool",
          "name": "",
          "type": "bool"
        }
      ],
      "payable": false,
      "stateMutability": "view",
      "type": "function"
    },
    {
      "constant": true,
      "inputs": [],
      "name": "loanID",
      "outputs": [
        {
          "internalType": "uint256",
          "name": "",
          "type": "uint256"
        }
      ],
      "payable": false,
      "stateMutability": "view",
      "type": "function"
    },
    {
      "constant": true,
      "inputs": [],
      "name": "loans",
      "outputs": [
        {
          "internalType": "contract LoansInterface",
          "name": "",
          "type": "address"
        }
      ],
      "payable": false,
      "stateMutability": "view",
      "type": "function"
    },
    {
      "constant": true,
      "inputs": [],
      "name": "owner",
      "outputs": [
        {
          "internalType": "address",
          "name": "",
          "type": "address"
        }
      ],
      "payable": false,
      "stateMutability": "view",
      "type": "function"
    },
    {
      "constant": false,
      "inputs": [],
      "name": "purchaseLoanDebt",
      "outputs": [],
      "payable": true,
      "stateMutability": "payable",
      "type": "function"
    },
    {
      "constant": false,
      "inputs": [],
      "name": "renounceOwnership",
      "outputs": [],
      "payable": false,
      "stateMutability": "nonpayable",
      "type": "function"
    },
    {
      "constant": true,
      "inputs": [],
      "name": "settings",
      "outputs": [
        {
          "internalType": "contract SettingsInterface",
          "name": "",
          "type": "address"
        }
      ],
      "payable": false,
      "stateMutability": "view",
      "type": "function"
    },
    {
      "constant": false,
      "inputs": [
        {
          "internalType": "address",
          "name": "newOwner",
          "type": "address"
        }
      ],
      "name": "transferOwnership",
      "outputs": [],
      "payable": false,
      "stateMutability": "nonpayable",
      "type": "function"
    },
    {
      "constant": false,
      "inputs": [
        {
          "internalType": "address",
          "name": "settingsAddress",
          "type": "address"
        }
      ],
      "name": "externalSetSettings",
      "outputs": [],
      "payable": false,
      "stateMutability": "nonpayable",
      "type": "function"
    },
    {
      "constant": false,
      "inputs": [
        {
          "internalType": "bool",
          "name": "mockIsAOwner",
          "type": "bool"
        },
        {
          "internalType": "bool",
          "name": "isAOwner",
          "type": "bool"
        }
      ],
      "name": "mockIsOwner",
      "outputs": [],
      "payable": false,
      "stateMutability": "nonpayable",
      "type": "function"
    },
    {
      "constant": true,
      "inputs": [],
      "name": "getBorrower",
      "outputs": [
        {
          "internalType": "address",
          "name": "",
          "type": "address"
        }
      ],
      "payable": false,
      "stateMutability": "view",
      "type": "function"
    },
    {
      "constant": false,
      "inputs": [
        {
          "internalType": "address",
          "name": "settingsAddress",
          "type": "address"
        }
      ],
      "name": "mockSettings",
      "outputs": [],
      "payable": false,
      "stateMutability": "nonpayable",
      "type": "function"
    },
    {
      "constant": false,
      "inputs": [
        {
          "internalType": "address",
          "name": "borrower",
          "type": "address"
        },
        {
          "internalType": "enum TellerCommon.LoanStatus",
          "name": "loanStatus",
          "type": "uint8"
        }
      ],
      "name": "mockBorrowerAndStatus",
      "outputs": [],
      "payable": false,
      "stateMutability": "nonpayable",
      "type": "function"
    },
    {
      "constant": true,
      "inputs": [],
      "name": "isOwner",
      "outputs": [
        {
          "internalType": "bool",
          "name": "",
          "type": "bool"
        }
      ],
      "payable": false,
      "stateMutability": "view",
      "type": "function"
    },
    {
      "constant": false,
      "inputs": [],
      "name": "externalIsOwner",
      "outputs": [],
      "payable": false,
      "stateMutability": "nonpayable",
      "type": "function"
    },
    {
      "constant": true,
      "inputs": [
        {
          "internalType": "uint256",
          "name": "num1",
          "type": "uint256"
        },
        {
          "internalType": "uint256",
          "name": "num2",
          "type": "uint256"
        }
      ],
      "name": "testImplementationFunctionMultiply",
      "outputs": [
        {
          "internalType": "uint256",
          "name": "",
          "type": "uint256"
        }
      ],
      "payable": false,
      "stateMutability": "pure",
      "type": "function"
    },
    {
      "constant": false,
      "inputs": [
        {
          "internalType": "address",
          "name": "loansAddress",
          "type": "address"
        }
      ],
      "name": "mockLoans",
      "outputs": [],
      "payable": false,
      "stateMutability": "nonpayable",
      "type": "function"
    },
    {
      "constant": false,
      "inputs": [],
      "name": "mockCanPurchase",
      "outputs": [],
      "payable": false,
      "stateMutability": "nonpayable",
      "type": "function"
    },
    {
      "constant": false,
      "inputs": [
        {
          "internalType": "address",
          "name": "loansAddress",
          "type": "address"
        },
        {
          "internalType": "uint256",
          "name": "aLoanID",
          "type": "uint256"
        }
      ],
      "name": "mockInitialize",
      "outputs": [],
      "payable": false,
      "stateMutability": "nonpayable",
      "type": "function"
    },
    {
      "constant": false,
      "inputs": [
        {
          "internalType": "address",
          "name": "base",
          "type": "address"
        },
        {
          "internalType": "address",
          "name": "quote",
          "type": "address"
        },
        {
          "internalType": "uint256",
          "name": "value",
          "type": "uint256"
        }
      ],
      "name": "mockValueOfIn",
      "outputs": [],
      "payable": false,
      "stateMutability": "nonpayable",
      "type": "function"
    },
    {
      "constant": false,
      "inputs": [
        {
          "internalType": "address",
          "name": "baseAddress",
          "type": "address"
        },
        {
          "internalType": "address",
          "name": "quoteAddress",
          "type": "address"
        },
        {
          "internalType": "uint256",
          "name": "baseAmount",
          "type": "uint256"
        }
      ],
      "name": "externalValueOfIn",
      "outputs": [
        {
          "internalType": "uint256",
          "name": "",
          "type": "uint256"
        }
      ],
      "payable": false,
      "stateMutability": "nonpayable",
      "type": "function"
    },
    {
      "constant": false,
      "inputs": [
        {
          "internalType": "address",
          "name": "aggregatorAddress",
          "type": "address"
        }
      ],
      "name": "mockGetAggregatorFor",
      "outputs": [],
      "payable": false,
      "stateMutability": "nonpayable",
      "type": "function"
    },
    {
      "constant": false,
      "inputs": [
        {
          "internalType": "address",
          "name": "base",
          "type": "address"
        },
        {
          "internalType": "address",
          "name": "quote",
          "type": "address"
        }
      ],
      "name": "externalGetAggregatorFor",
      "outputs": [
        {
          "internalType": "contract PairAggregatorInterface",
          "name": "",
          "type": "address"
        }
      ],
      "payable": false,
      "stateMutability": "nonpayable",
      "type": "function"
    }
  ],
  "bytecode": "0x60806040526135a9806100136000396000f3fe6080604052600436106102ae5760003560e01c8063705caf5f11610175578063b41304b1116100dc578063cc44cadb11610095578063e06174e41161006f578063e06174e41461077b578063e3f33d0014610790578063e9946b20146107a5578063f2fde38b146107ba576102ae565b8063cc44cadb14610731578063cd6dc68714610746578063e00a461514610766576102ae565b8063b41304b114610685578063b5a4e240146106a5578063b798ad83146106c7578063c41dd8ce146106e7578063c4d66de8146106fc578063c6f8e6491461071c576102ae565b806396f5ac9c1161012e57806396f5ac9c146105d9578063974abfc4146105f9578063a06101d014610619578063aa6ca8081461063b578063ab794d211461065d578063af22d0d414610665576102ae565b8063705caf5f14610550578063715018a6146105655780637fd6a1c51461057a5780638da5cb5b1461058f5780638f32d59b146105a457806395ea3887146105b9576102ae565b806334a6d83211610219578063450bd5a9116101d2578063450bd5a9146104ac5780634859b3f4146104cc57806352494a14146104ee5780635cfaaaf51461050357806368c22007146103c15780636ce8d99a14610530576102ae565b806334a6d832146104185780633b98dfdb1461042d5780633fe9f52f146104425780633ff591d914610462578063412179bc14610477578063415dfa5b14610497576102ae565b8063158ef93e1161026b578063158ef93e146103685780631cb0c3e71461038a578063215b0dc6146103ac578063283bf816146103c15780632efb15de146103e357806332ba65aa146103f8576102ae565b806305ae2d54146102b357806308b04f62146102e95780630a11fd07146102fe5780630fcce0ec1461031e5780631139087a1461033e57806311880cc814610353575b600080fd5b3480156102bf57600080fd5b506102d36102ce366004612a16565b6107da565b6040516102e091906132f6565b60405180910390f35b3480156102f557600080fd5b506102d36107f1565b34801561030a57600080fd5b506102d3610319366004612998565b610808565b34801561032a57600080fd5b506102d36103393660046129dc565b61083a565b34801561034a57600080fd5b506102d3610857565b34801561035f57600080fd5b506102d361086f565b34801561037457600080fd5b5061037d610884565b6040516102e091906132e8565b34801561039657600080fd5b5061039f6108a3565b6040516102e091906132ae565b3480156103b857600080fd5b506102d36108b9565b3480156103cd57600080fd5b506103e16103dc366004612998565b6108bf565b005b3480156103ef57600080fd5b5061037d6108cb565b34801561040457600080fd5b506103e1610413366004612998565b6108ed565b34801561042457600080fd5b5061037d610956565b34801561043957600080fd5b506102d36109de565b34801561044e57600080fd5b506103e161045d366004612a16565b610a02565b34801561046e57600080fd5b506102d3610a41565b34801561048357600080fd5b506103e1610492366004612b23565b610a5b565b3480156104a357600080fd5b5061037d610a7e565b3480156104b857600080fd5b506103e16104c7366004612a93565b610b0f565b3480156104d857600080fd5b506104e1610b44565b6040516102e0919061342f565b3480156104fa57600080fd5b5061037d610bce565b34801561050f57600080fd5b5061052361051e3660046129dc565b610bdc565b6040516102e09190613304565b34801561053c57600080fd5b506103e161054b366004612a63565b610bf1565b34801561055c57600080fd5b5061039f610c38565b34801561057157600080fd5b506103e1610c4d565b34801561058657600080fd5b506103e1610cc4565b34801561059b57600080fd5b5061039f610cea565b3480156105b057600080fd5b5061037d610cf9565b3480156105c557600080fd5b506103e16105d4366004612998565b610d27565b3480156105e557600080fd5b506103e16105f4366004612998565b610d49565b34801561060557600080fd5b506103e1610614366004612ac3565b610d52565b34801561062557600080fd5b5061062e610d8e565b6040516102e09190613421565b34801561064757600080fd5b506106506112cc565b6040516102e091906132d7565b6103e161132e565b34801561067157600080fd5b506103e1610680366004612998565b611435565b34801561069157600080fd5b506103e16106a0366004612b8f565b611457565b3480156106b157600080fd5b506106ba61168a565b6040516102e09190613312565b3480156106d357600080fd5b506102d36106e2366004612be3565b61169a565b3480156106f357600080fd5b506102d361169e565b34801561070857600080fd5b506103e1610717366004612998565b6116b5565b34801561072857600080fd5b506103e1611787565b34801561073d57600080fd5b506102d361179c565b34801561075257600080fd5b506103e1610761366004612a93565b6117b6565b34801561077257600080fd5b506102d361196c565b34801561078757600080fd5b50610523611982565b34801561079c57600080fd5b506102d36119a4565b3480156107b157600080fd5b506105236119bf565b3480156107c657600080fd5b506103e16107d5366004612998565b6119ce565b60006107e78484846119fb565b90505b9392505050565b6f21b7b63630ba32b930b6213ab33332b960811b81565b6000808061081d60668563ffffffff611bbd16565b915091508161082e57600019610830565b805b925050505b919050565b606b60209081526000928352604080842090915290825290205481565b704c6971756964617465457468507269636560781b81565b6d14d859995d1e525b9d195c9d985b60921b81565b60008060405161089390613298565b6040519081900390205492915050565b6069546201000090046001600160a01b03165b90565b60685481565b6108c881611c12565b50565b600060026108d7610b44565b610140015160038111156108e757fe5b14905090565b806001600160a01b03166342966c6861090583611c7b565b6040518263ffffffff1660e01b815260040161092191906132f6565b600060405180830381600087803b15801561093b57600080fd5b505af115801561094f573d6000803e3d6000fd5b5050505050565b606754606854604051636948f32b60e01b81526000926001600160a01b031691636948f32b9161098991906004016132f6565b60206040518083038186803b1580156109a157600080fd5b505afa1580156109b5573d6000803e3d6000fd5b505050506040513d601f19601f820116820180604052506109d99190810190612b05565b905090565b7f526571756573744c6f616e5465726d73526174654c696d69740000000000000081565b606a805460ff60a81b1916600160a81b1790556001600160a01b039283166000908152606b602090815260408083209490951682529290925291902055565b7252657175697265645375626d697373696f6e7360681b81565b6069805460ff19169215159290921761ff00191661010091151591909102179055565b606754606854604051623b929360e81b81526000926001600160a01b031691633b92930091610ab091906004016132f6565b60206040518083038186803b158015610ac857600080fd5b505afa158015610adc573d6000803e3d6000fd5b505050506040513d601f19601f82011682018060405250610b009190810190612b71565b610b08610d8e565b5110905090565b606780546001600160a01b0319166001600160a01b0384161790556068819055610b38336116b5565b610b40611cfa565b5050565b610b4c612577565b606754606854604051631c3d878d60e31b81526001600160a01b039092169163e1ec3c6891610b7d916004016132f6565b6102206040518083038186803b158015610b9657600080fd5b505afa158015610baa573d6000803e3d6000fd5b505050506040513d601f19601f820116820180604052506109d99190810190612bc4565b606954610100900460ff1681565b6000610be88383611d18565b90505b92915050565b6069805462010000600160b01b031916620100006001600160a01b038516021780825582919060ff60b01b1916600160b01b836003811115610c2f57fe5b02179055505050565b6069546201000090046001600160a01b031681565b610c55610cf9565b610c7a5760405162461bcd60e51b8152600401610c71906133b1565b60405180910390fd5b6033546040516000916001600160a01b0316907f8be0079c531659141344cd1fd0a4f28419497f9722a3daafe3b4186f6b6457e0908390a3603380546001600160a01b0319169055565b610ccc610cf9565b610ce85760405162461bcd60e51b8152600401610c71906133b1565b565b6033546001600160a01b031690565b60695460009060ff1615610d185750606954610100900460ff166108b6565b610d20611d4f565b90506108b6565b606780546001600160a01b0319166001600160a01b0392909216919091179055565b6108c881611d75565b610b40828280806020026020016040519081016040528093929190818152602001838360200280828437600092019190915250611dd992505050565b610d966125f2565b6060610da06112cc565b90506000805b8251811015610e7e576000610e61848381518110610dc057fe5b6020026020010151610dd0611982565b6001600160a01b031663a734f06e6040518163ffffffff1660e01b815260040160206040518083038186803b158015610e0857600080fd5b505afa158015610e1c573d6000803e3d6000fd5b505050506040513d601f19601f82011682018060405250610e4091908101906129be565b610e5c878681518110610e4f57fe5b6020026020010151611c7b565b611dec565b9050610e73838263ffffffff611e3f16565b925050600101610da6565b506000610e89610b44565b6080015190506000610e99610b44565b60200151606001511115610f57576000610eb1611982565b6001600160a01b031663269012a06f21b7b63630ba32b930b6213ab33332b960811b6040518263ffffffff1660e01b8152600401610eef91906132f6565b60206040518083038186803b158015610f0757600080fd5b505afa158015610f1b573d6000803e3d6000fd5b505050506040513d601f19601f82011682018060405250610f3f9190810190612b71565b905061271082820204610f528382611e64565b925050505b610f5f611982565b6001600160a01b031663a734f06e6040518163ffffffff1660e01b815260040160206040518083038186803b158015610f9757600080fd5b505afa158015610fab573d6000803e3d6000fd5b505050506040513d601f19601f82011682018060405250610fcf91908101906129be565b6001600160a01b0316606760009054906101000a90046001600160a01b03166001600160a01b031663b2016bd46040518163ffffffff1660e01b815260040160206040518083038186803b15801561102657600080fd5b505afa15801561103a573d6000803e3d6000fd5b505050506040513d601f19601f8201168201806040525061105e91908101906129be565b6001600160a01b031614156110845761107d828263ffffffff611e3f16565b91506111a3565b600061118d606760009054906101000a90046001600160a01b03166001600160a01b031663b2016bd46040518163ffffffff1660e01b815260040160206040518083038186803b1580156110d757600080fd5b505afa1580156110eb573d6000803e3d6000fd5b505050506040513d601f19601f8201168201806040525061110f91908101906129be565b611117611982565b6001600160a01b031663a734f06e6040518163ffffffff1660e01b815260040160206040518083038186803b15801561114f57600080fd5b505afa158015611163573d6000803e3d6000fd5b505050506040513d601f19601f8201168201806040525061118791908101906129be565b84611dec565b905061119f838263ffffffff611e3f16565b9250505b60006112ac6111b0611982565b6001600160a01b031663a734f06e6040518163ffffffff1660e01b815260040160206040518083038186803b1580156111e857600080fd5b505afa1580156111fc573d6000803e3d6000fd5b505050506040513d601f19601f8201168201806040525061122091908101906129be565b606760009054906101000a90046001600160a01b03166001600160a01b031663aaaca5586040518163ffffffff1660e01b815260040160206040518083038186803b15801561126e57600080fd5b505afa158015611282573d6000803e3d6000fd5b505050506040513d601f19601f820116820180604052506112a691908101906129be565b85611dec565b905060405180604001604052808281526020018481525094505050505090565b6060606680548060200260200160405190810160405280929190818152602001828054801561132457602002820191906000526020600020905b81546001600160a01b03168152600190910190602001808311611306575b5050505050905090565b611336610956565b6113525760405162461bcd60e51b8152600401610c71906133e1565b606754606854604051623b929360e81b81526001600160a01b039092169163d8aed145918391633b9293009161138a916004016132f6565b60206040518083038186803b1580156113a257600080fd5b505afa1580156113b6573d6000803e3d6000fd5b505050506040513d601f19601f820116820180604052506113da9190810190612b71565b6068546040518363ffffffff1660e01b81526004016113fa92919061343e565b600060405180830381600087803b15801561141457600080fd5b505af1158015611428573d6000803e3d6000fd5b50505050610ce833611ea6565b606a80546001600160a01b0319166001600160a01b0392909216919091179055565b61145f610884565b61147b5760405162461bcd60e51b8152600401610c7190613401565b611483610cf9565b61149f5760405162461bcd60e51b8152600401610c71906133b1565b6114a7611982565b6001600160a01b031663bdd1daaa6040518163ffffffff1660e01b815260040160206040518083038186803b1580156114df57600080fd5b505afa1580156114f3573d6000803e3d6000fd5b505050506040513d601f19601f820116820180604052506115179190810190612b53565b6001600160a01b031663e52c35586115326020840184612998565b6040518263ffffffff1660e01b815260040161154e91906132ae565b60206040518083038186803b15801561156657600080fd5b505afa15801561157a573d6000803e3d6000fd5b505050506040513d601f19601f8201168201806040525061159e9190810190612b05565b6115ba5760405162461bcd60e51b8152600401610c7190613391565b60006115c96020830183612998565b6001600160a01b031682602081018035601e19368490030181126115ec57600080fd5b9091016020810191503567ffffffffffffffff81111561160b57600080fd5b3681900382131561161b57600080fd5b60405161162992919061328b565b600060405180830381855af49150503d8060008114611664576040519150601f19603f3d011682016040523d82523d6000602084013e611669565b606091505b5050905080610b405760405162461bcd60e51b8152600401610c7190613341565b606954600160b01b900460ff1681565b0290565b6f4d6178696d756d546f6c6572616e636560801b81565b600054610100900460ff16806116ce57506116ce611f28565b806116dc575060005460ff16155b6116f85760405162461bcd60e51b8152600401610c71906133c1565b600054610100900460ff16158015611723576000805460ff1961ff0019909116610100171660011790555b603380546001600160a01b0319166001600160a01b0384811691909117918290556040519116906000907f8be0079c531659141344cd1fd0a4f28419497f9722a3daafe3b4186f6b6457e0908290a38015610b40576000805461ff00191690555050565b606a805460ff60a01b1916600160a01b179055565b7226b0bc34b6bab6a637b0b7223ab930ba34b7b760691b81565b6117be610884565b156117db5760405162461bcd60e51b8152600401610c7190613411565b6117ed826001600160a01b0316611f2e565b6118095760405162461bcd60e51b8152600401610c7190613351565b606780546001600160a01b0319166001600160a01b03841617905560688190556118346107176108a3565b61183c611cfa565b611844610b44565b61010001516067546040805163155594ab60e31b815290516118cc926001600160a01b03169163aaaca558916004808301926020929190829003018186803b15801561188f57600080fd5b505afa1580156118a3573d6000803e3d6000fd5b505050506040513d601f19601f820116820180604052506118c791908101906129be565b611c7b565b146118e95760405162461bcd60e51b8152600401610c71906133f1565b6067546040805163155594ab60e31b81529051610b40926001600160a01b03169163aaaca558916004808301926020929190829003018186803b15801561192f57600080fd5b505afa158015611943573d6000803e3d6000fd5b505050506040513d601f19601f8201168201806040525061196791908101906129be565b611d75565b6e5465726d7345787069727954696d6560881b81565b6000806000604051611993906132a3565b604051908190039020549250505090565b730a4cae6e0dedce6ca8af0e0d2e4f298cadccee8d60631b81565b6067546001600160a01b031681565b6119d6610cf9565b6119f25760405162461bcd60e51b8152600401610c71906133b1565b6108c881611ea6565b600080611a06611982565b6001600160a01b031663a734f06e6040518163ffffffff1660e01b815260040160206040518083038186803b158015611a3e57600080fd5b505afa158015611a52573d6000803e3d6000fd5b505050506040513d601f19601f82011682018060405250611a7691908101906129be565b6001600160a01b0316856001600160a01b031614611b0457846001600160a01b031663313ce5676040518163ffffffff1660e01b815260040160206040518083038186803b158015611ac757600080fd5b505afa158015611adb573d6000803e3d6000fd5b505050506040513d601f19601f82011682018060405250611aff9190810190612c02565b611b07565b60125b90506000611b158686611d18565b90506000816001600160a01b03166396237c026040518163ffffffff1660e01b815260040160206040518083038186803b158015611b5257600080fd5b505afa158015611b66573d6000803e3d6000fd5b505050506040513d601f19601f82011682018060405250611b8a9190810190612b71565b9050611bb260ff8416600a0a611ba6878463ffffffff611f6716565b9063ffffffff611fa116565b979650505050505050565b6000805b8354811015611c0b57826001600160a01b0316848281548110611be057fe5b6000918252602090912001546001600160a01b03161491508115611c0357611c0b565b600101611bc1565b9250929050565b6000611c1c611982565b6001600160a01b031614611c5d57611c3c816001600160a01b0316611f2e565b611c585760405162461bcd60e51b8152600401610c7190613371565b6108c8565b6000604051611c6b906132a3565b6040519081900390208290555050565b6040516370a0823160e01b81526000906001600160a01b038316906370a0823190611caa9030906004016132ae565b60206040518083038186803b158015611cc257600080fd5b505afa158015611cd6573d6000803e3d6000fd5b505050506040513d601f19601f82011682018060405250610beb9190810190612b71565b6000604051611d0890613298565b6040519081900390206001905550565b606a546000906001600160a01b031615611d3e5750606a546001600160a01b0316610beb565b611d488383611fe3565b9050610beb565b6033546000906001600160a01b0316611d666121eb565b6001600160a01b031614905090565b600080611d8960668463ffffffff611bbd16565b915091506000611d9884611c7b565b1115611dbb5781611db657611db460668463ffffffff6121ef16565b505b611dd4565b8115611dd457611dd260668263ffffffff6122a316565b505b505050565b8051610b4090606690602084019061260c565b606a54600090600160a81b900460ff1615611e2d57506001600160a01b038084166000908152606b60209081526040808320938616835292905220546107ea565b611e388484846119fb565b90506107ea565b600082820183811015610be85760405162461bcd60e51b8152600401610c7190613361565b6000610be883836040518060400160405280601e81526020017f536166654d6174683a207375627472616374696f6e206f766572666c6f770000815250612514565b6001600160a01b038116611ecc5760405162461bcd60e51b8152600401610c7190613331565b6033546040516001600160a01b038084169216907f8be0079c531659141344cd1fd0a4f28419497f9722a3daafe3b4186f6b6457e090600090a3603380546001600160a01b0319166001600160a01b0392909216919091179055565b303b1590565b6000813f7fc5d2460186f7233c927e7db2dcc703c0e500b653ca82273b7bfad8045d85a470818114801590610830575050151592915050565b600082611f7657506000610beb565b82820282848281611f8357fe5b0414610be85760405162461bcd60e51b8152600401610c71906133a1565b6000610be883836040518060400160405280601a81526020017f536166654d6174683a206469766973696f6e206279207a65726f000000000000815250612540565b6000611fed611982565b6001600160a01b03166302d58da76040518163ffffffff1660e01b815260040160206040518083038186803b15801561202557600080fd5b505afa158015612039573d6000803e3d6000fd5b505050506040513d601f19601f8201168201806040525061205d9190810190612b53565b6001600160a01b031663662a3e5884846040518363ffffffff1660e01b815260040161208a9291906132bc565b60206040518083038186803b1580156120a257600080fd5b505afa1580156120b6573d6000803e3d6000fd5b505050506040513d601f19601f820116820180604052506120da9190810190612b05565b6120f65760405162461bcd60e51b8152600401610c71906133d1565b6120fe611982565b6001600160a01b03166302d58da76040518163ffffffff1660e01b815260040160206040518083038186803b15801561213657600080fd5b505afa15801561214a573d6000803e3d6000fd5b505050506040513d601f19601f8201168201806040525061216e9190810190612b53565b6001600160a01b031663c495931784846040518363ffffffff1660e01b815260040161219b9291906132bc565b60206040518083038186803b1580156121b357600080fd5b505afa1580156121c7573d6000803e3d6000fd5b505050506040513d601f19601f82011682018060405250610be89190810190612b53565b3390565b60606001600160a01b0382166122175760405162461bcd60e51b8152600401610c7190613381565b8254600181018455600084815260209081902090910180546001600160a01b0319166001600160a01b038516179055835460408051828402810184019091528181529185919083018282801561229657602002820191906000526020600020905b81546001600160a01b03168152600190910190602001808311612278575b5050505050905092915050565b8154606090821061230b578254604080516020808402820181019092528281529185918301828280156122ff57602002820191906000526020600020905b81546001600160a01b031681526001909101906020018083116122e1575b50505050509050610beb565b8254600019018214156123af5782548390600019810190811061232a57fe5b600091825260209091200180546001600160a01b03191690558254612353846000198301612671565b508254604080516020808402820181019092528281529185918301828280156122ff576020028201919060005260206000209081546001600160a01b031681526001909101906020018083116122e15750505050509050610beb565b8254600090849060001981019081106123c457fe5b60009182526020909120015484546001600160a01b0390911691508490849081106123eb57fe5b60009182526020909120015484546001600160a01b03909116908590600019810190811061241557fe5b9060005260206000200160006101000a8154816001600160a01b0302191690836001600160a01b031602179055508084848154811061245057fe5b600091825260209091200180546001600160a01b0319166001600160a01b039290921691909117905583548490600019810190811061248b57fe5b600091825260209091200180546001600160a01b031916905583546124b4856000198301612671565b5083546040805160208084028201810190925282815291869183018282801561250657602002820191906000526020600020905b81546001600160a01b031681526001909101906020018083116124e8575b505050505091505092915050565b600081848411156125385760405162461bcd60e51b8152600401610c719190613320565b505050900390565b600081836125615760405162461bcd60e51b8152600401610c719190613320565b50600083858161256d57fe5b0495945050505050565b60405180610180016040528060008152602001612592612695565b81526020016000815260200160008152602001600081526020016000815260200160008152602001600081526020016000815260200160006001600160a01b03168152602001600060038111156125e557fe5b8152600060209091015290565b604051806040016040528060008152602001600081525090565b828054828255906000526020600020908101928215612661579160200282015b8281111561266157825182546001600160a01b0319166001600160a01b0390911617825560209092019160019091019061262c565b5061266d9291506126dd565b5090565b815481835581811115611dd457600083815260209020611dd4918101908301612701565b6040518060c0016040528060006001600160a01b0316815260200160006001600160a01b03168152602001600081526020016000815260200160008152602001600081525090565b6108b691905b8082111561266d5780546001600160a01b03191681556001016126e3565b6108b691905b8082111561266d5760008155600101612707565b8035610beb81613521565b8051610beb81613521565b60008083601f84011261274357600080fd5b50813567ffffffffffffffff81111561275b57600080fd5b602083019150836020820283011115611c0b57600080fd5b8035610beb81613535565b8051610beb81613535565b8051610beb8161353e565b8035610beb81613547565b8051610beb81613547565b8051610beb81613554565b6000604082840312156127c757600080fd5b50919050565b600060c082840312156127df57600080fd5b6127e960c0613459565b905060006127f78484612726565b825250602061280884848301612726565b602083015250604061281c848285016127aa565b6040830152506060612830848285016127aa565b6060830152506080612844848285016127aa565b60808301525060a0612858848285016127aa565b60a08301525092915050565b6000610220828403121561287757600080fd5b612882610180613459565b9050600061289084846127aa565b82525060206128a1848483016127cd565b60208301525060e06128b5848285016127aa565b6040830152506101006128ca848285016127aa565b6060830152506101206128df848285016127aa565b6080830152506101406128f4848285016127aa565b60a083015250610160612909848285016127aa565b60c08301525061018061291e848285016127aa565b60e0830152506101a0612933848285016127aa565b610100830152506101c061294984828501612726565b610120830152506101e061295f8482850161279f565b610140830152506102006129758482850161277e565b6101608301525092915050565b8035610beb81613554565b8051610beb8161355d565b6000602082840312156129aa57600080fd5b60006129b6848461271b565b949350505050565b6000602082840312156129d057600080fd5b60006129b68484612726565b600080604083850312156129ef57600080fd5b60006129fb858561271b565b9250506020612a0c8582860161271b565b9150509250929050565b600080600060608486031215612a2b57600080fd5b6000612a37868661271b565b9350506020612a488682870161271b565b9250506040612a5986828701612982565b9150509250925092565b60008060408385031215612a7657600080fd5b6000612a82858561271b565b9250506020612a0c85828601612794565b60008060408385031215612aa657600080fd5b6000612ab2858561271b565b9250506020612a0c85828601612982565b60008060208385031215612ad657600080fd5b823567ffffffffffffffff811115612aed57600080fd5b612af985828601612731565b92509250509250929050565b600060208284031215612b1757600080fd5b60006129b6848461277e565b60008060408385031215612b3657600080fd5b6000612b428585612773565b9250506020612a0c85828601612773565b600060208284031215612b6557600080fd5b60006129b68484612789565b600060208284031215612b8357600080fd5b60006129b684846127aa565b600060208284031215612ba157600080fd5b813567ffffffffffffffff811115612bb857600080fd5b6129b6848285016127b5565b60006102208284031215612bd757600080fd5b60006129b68484612864565b60008060408385031215612bf657600080fd5b6000612ab28585612982565b600060208284031215612c1457600080fd5b60006129b6848461298d565b6000612c2c8383612c34565b505060200190565b612c3d81613493565b82525050565b6000612c4e82613486565b612c58818561348a565b9350612c6383613480565b8060005b83811015612c91578151612c7b8882612c20565b9750612c8683613480565b925050600101612c67565b509495945050505050565b612c3d8161349e565b612c3d816108b6565b6000612cba8385610835565b9350612cc78385846134d5565b50500190565b612c3d816134a3565b612c3d816134ca565b6000612cea82613486565b612cf4818561348a565b9350612d048185602086016134e1565b612d0d8161350d565b9093019392505050565b6000612d24601c83610835565b7f54496e697469616c697a61626c652e6973496e697469616c697a6564000000008152601c0192915050565b6000612d5d60268361348a565b7f4f776e61626c653a206e6577206f776e657220697320746865207a65726f206181526564647265737360d01b602082015260400192915050565b6000612da560108361348a565b6f1110541417d0d0531317d1905253115160821b815260200192915050565b6000612dd160188361348a565b7f4c4f414e535f4d5553545f42455f415f434f4e54524143540000000000000000815260200192915050565b6000612e0a601b8361348a565b7f536166654d6174683a206164646974696f6e206f766572666c6f770000000000815260200192915050565b6000612e43601b8361348a565b7f53455454494e47535f4d5553545f42455f415f434f4e54524143540000000000815260200192915050565b6000612e7c60198361348a565b7f454d5054595f414444524553535f4e4f545f414c4c4f57454400000000000000815260200192915050565b6000612eb560148361348a565b731110541417d393d517d5d2125511531254d5115160621b815260200192915050565b6000612ee560218361348a565b7f536166654d6174683a206d756c7469706c69636174696f6e206f766572666c6f8152607760f81b602082015260400192915050565b6000612f2860208361348a565b7f4f776e61626c653a2063616c6c6572206973206e6f7420746865206f776e6572815260200192915050565b6000612f61602e8361348a565b7f436f6e747261637420696e7374616e63652068617320616c726561647920626581526d195b881a5b9a5d1a585b1a5e995960921b602082015260400192915050565b6000612fb160248361348a565b7f434841494e4c494e4b5f504149525f41474752454741544f525f4e4f545f45588152634953545360e01b602082015260400192915050565b6000612ff7601d8361348a565b7f455343524f575f494e454c494749424c455f544f5f5055524348415345000000815260200192915050565b6000613030601d8361348a565b7f455343524f575f42414c414e43455f4e4f545f4d415443485f4c4f414e000000815260200192915050565b6000613069601883610835565b7f426173655570677261646561626c652e73657474696e67730000000000000000815260180192915050565b60006130a260188361348a565b7f434f4e54524143545f4e4f545f494e495449414c495a45440000000000000000815260200192915050565b60006130db601c8361348a565b7f434f4e54524143545f414c52454144595f494e495449414c495a454400000000815260200192915050565b805160408301906131188482612ca5565b506020820151611dd26020850182612ca5565b805160c083019061313c8482612c34565b50602082015161314f6020850182612c34565b5060408201516131626040850182612ca5565b5060608201516131756060850182612ca5565b5060808201516131886080850182612ca5565b5060a0820151611dd260a0850182612ca5565b80516102208301906131ad8482612ca5565b5060208201516131c0602085018261312b565b5060408201516131d360e0850182612ca5565b5060608201516131e7610100850182612ca5565b5060808201516131fb610120850182612ca5565b5060a082015161320f610140850182612ca5565b5060c0820151613223610160850182612ca5565b5060e0820151613237610180850182612ca5565b5061010082015161324c6101a0850182612ca5565b506101208201516132616101c0850182612c34565b506101408201516132766101e0850182612cd6565b50610160820151611dd2610200850182612c9c565b60006129b6828486612cae565b6000610beb82612d17565b6000610beb8261305c565b60208101610beb8284612c34565b604081016132ca8285612c34565b6107ea6020830184612c34565b60208082528101610be88184612c43565b60208101610beb8284612c9c565b60208101610beb8284612ca5565b60208101610beb8284612ccd565b60208101610beb8284612cd6565b60208082528101610be88184612cdf565b60208082528101610beb81612d50565b60208082528101610beb81612d98565b60208082528101610beb81612dc4565b60208082528101610beb81612dfd565b60208082528101610beb81612e36565b60208082528101610beb81612e6f565b60208082528101610beb81612ea8565b60208082528101610beb81612ed8565b60208082528101610beb81612f1b565b60208082528101610beb81612f54565b60208082528101610beb81612fa4565b60208082528101610beb81612fea565b60208082528101610beb81613023565b60208082528101610beb81613095565b60208082528101610beb816130ce565b60408101610beb8284613107565b6102208101610beb828461319b565b6040810161344c8285612ca5565b6107ea6020830184612ca5565b60405181810167ffffffffffffffff8111828210171561347857600080fd5b604052919050565b60200190565b5190565b90815260200190565b6000610beb826134b8565b151590565b6000610beb82613493565b8061083581613517565b6001600160a01b031690565b60ff1690565b6000610beb826134ae565b82818337506000910152565b60005b838110156134fc5781810151838201526020016134e4565b83811115611dd25750506000910152565b601f01601f191690565b600481106108c857fe5b61352a81613493565b81146108c857600080fd5b61352a8161349e565b61352a816134a3565b600481106108c857600080fd5b61352a816108b6565b61352a816134c456fea365627a7a7231582060f52df6f923ec64cc5e42f465e322e31289d09e7cb31a32e3600dd78d8607a56c6578706572696d656e74616cf564736f6c63430005110040",
  "source": "pragma solidity 0.5.17;\npragma experimental ABIEncoderV2;\n\nimport \"../../base/Escrow.sol\";\nimport \"../../util/TellerCommon.sol\";\nimport \"./BaseEscrowDappMock.sol\";\n\ncontract EscrowMock is Escrow, BaseEscrowDappMock {\n    bool private _mockIsOwner;\n    bool public _isOwner;\n    address public _borrower;\n    TellerCommon.LoanStatus public _loanStatus;\n    address internal mockedAggregator;\n    bool internal mockedCanPurchase;\n\n    bool private _mockValueOfIn;\n\n    mapping(address => mapping(address => uint256)) public _valueOfInMapMock;\n\n    function externalSetSettings(address settingsAddress) external {\n        _setSettings(settingsAddress);\n    }\n\n    function mockIsOwner(bool mockIsAOwner, bool isAOwner) external {\n        _mockIsOwner = mockIsAOwner;\n        _isOwner = isAOwner;\n    }\n\n    function getBorrower() public view returns (address) {\n        return _borrower;\n    }\n\n    function mockSettings(address settingsAddress) public {\n        _setSettings(settingsAddress);\n    }\n\n    function mockBorrowerAndStatus(address borrower, TellerCommon.LoanStatus loanStatus)\n        public\n    {\n        _borrower = borrower;\n        _loanStatus = loanStatus;\n    }\n\n    function isOwner() public view returns (bool) {\n        if (_mockIsOwner) {\n            return _isOwner;\n        } else {\n            return super.isOwner();\n        }\n    }\n\n    function externalIsOwner() external onlyOwner() {}\n\n    function testImplementationFunctionMultiply(uint256 num1, uint256 num2)\n        external\n        pure\n        returns (uint256)\n    {\n        return num1 * num2;\n    }\n\n    function mockLoans(address loansAddress) external {\n        loans = LoansInterface(loansAddress);\n    }\n\n    function mockCanPurchase() external {\n        mockedCanPurchase = true;\n    }\n\n    function mockInitialize(address loansAddress, uint256 aLoanID) external {\n        loans = LoansInterface(loansAddress);\n        loanID = aLoanID;\n\n        Ownable.initialize(msg.sender);\n        TInitializable._initialize();\n    }\n\n    function mockValueOfIn(\n        address base,\n        address quote,\n        uint256 value\n    ) external {\n        _mockValueOfIn = true;\n        _valueOfInMapMock[base][quote] = value;\n    }\n\n    function externalValueOfIn(\n        address baseAddress,\n        address quoteAddress,\n        uint256 baseAmount\n    ) external returns (uint256) {\n        return super._valueOfIn(baseAddress, quoteAddress, baseAmount);\n    }\n\n    function _valueOfIn(\n        address baseAddress,\n        address quoteAddress,\n        uint256 baseAmount\n    ) internal view returns (uint256) {\n        if (_mockValueOfIn) {\n            return _valueOfInMapMock[baseAddress][quoteAddress];\n        } else {\n            return Escrow._valueOfIn(baseAddress, quoteAddress, baseAmount);\n        }\n    }\n\n    function mockGetAggregatorFor(address aggregatorAddress) external {\n        mockedAggregator = aggregatorAddress;\n    }\n\n    function _getAggregatorFor(address base, address quote)\n        internal\n        view\n        returns (PairAggregatorInterface)\n    {\n        if (mockedAggregator != address(0x0)) {\n            return PairAggregatorInterface(mockedAggregator);\n        } else {\n            return super._getAggregatorFor(base, quote);\n        }\n    }\n\n    function externalGetAggregatorFor(address base, address quote)\n        external\n        returns (PairAggregatorInterface)\n    {\n        return _getAggregatorFor(base, quote);\n    }\n}\n",
  "sourcePath": "/Users/sy/Documents/GitHub/teller-protocol-v1/contracts/mock/base/EscrowMock.sol",
  "compiler": {
    "name": "solc",
    "version": "0.5.17+commit.d19bba13.Emscripten.clang"
  },
  "schemaVersion": "3.0.23",
  "updatedAt": "2020-09-06T02:15:12.445Z",
  "devdoc": {
    "methods": {
      "callDapp((address,bytes))": {
        "params": {
          "dappData": "the current dapp data to be executed."
        }
      },
      "initialize(address)": {
        "details": "Initializes the contract setting the deployer as the initial owner."
      },
      "initialize(address,uint256)": {
        "params": {
          "aLoanID": "the loan ID associated to this escrow instance.",
          "loansAddress": "loans contract address."
        }
      },
      "initialized()": {
        "return": "true if contract is initialized. Otherwise it returns false."
      },
      "owner()": {
        "details": "Returns the address of the current owner."
      },
      "renounceOwnership()": {
        "details": "Leaves the contract without owner. It will not be possible to call `onlyOwner` functions anymore. Can only be called by the current owner.     * > Note: Renouncing ownership will leave the contract without an owner, thereby removing any functionality that is only available to the owner."
      },
      "transferOwnership(address)": {
        "details": "Transfers ownership of the contract to a new account (`newOwner`). Can only be called by the current owner."
      }
    }
  },
  "userdoc": {
    "methods": {
      "callDapp((address,bytes))": {
        "notice": "It calls a given dapp using a delegatecall function by a borrower owned the current loan id associated to this escrow contract."
      },
      "initialize(address,uint256)": {
        "notice": "It initializes this escrow instance for a given loans address and loan id."
      },
      "initialized()": {
        "notice": "Gets if the contract is initialized."
      },
      "isLoanActive()": {
        "notice": "Public Functions *"
      },
      "settings()": {
        "notice": "The settings contract."
      }
    }
  }
}