{
  "contractName": "EscrowMock",
  "abi": [
    {
      "anonymous": false,
      "inputs": [
        {
          "indexed": true,
          "internalType": "address",
          "name": "previousOwner",
          "type": "address"
        },
        {
          "indexed": true,
          "internalType": "address",
          "name": "newOwner",
          "type": "address"
        }
      ],
      "name": "OwnershipTransferred",
      "type": "event"
    },
    {
      "anonymous": false,
      "inputs": [
        {
          "indexed": false,
          "internalType": "address",
          "name": "recipient",
          "type": "address"
        }
      ],
      "name": "TokensClaimed",
      "type": "event"
    },
    {
      "constant": true,
      "inputs": [],
      "name": "ETH_DECIMALS",
      "outputs": [
        {
          "internalType": "uint8",
          "name": "",
          "type": "uint8"
        }
      ],
      "payable": false,
      "stateMutability": "view",
      "type": "function"
    },
    {
      "constant": true,
      "inputs": [],
      "name": "ONE_HUNDRED_PERCENT",
      "outputs": [
        {
          "internalType": "uint16",
          "name": "",
          "type": "uint16"
        }
      ],
      "payable": false,
      "stateMutability": "view",
      "type": "function"
    },
    {
      "constant": true,
      "inputs": [],
      "name": "_borrower",
      "outputs": [
        {
          "internalType": "address",
          "name": "",
          "type": "address"
        }
      ],
      "payable": false,
      "stateMutability": "view",
      "type": "function"
    },
    {
      "constant": true,
      "inputs": [],
      "name": "_isOwner",
      "outputs": [
        {
          "internalType": "bool",
          "name": "",
          "type": "bool"
        }
      ],
      "payable": false,
      "stateMutability": "view",
      "type": "function"
    },
    {
      "constant": true,
      "inputs": [],
      "name": "_loanStatus",
      "outputs": [
        {
          "internalType": "enum TellerCommon.LoanStatus",
          "name": "",
          "type": "uint8"
        }
      ],
      "payable": false,
      "stateMutability": "view",
      "type": "function"
    },
    {
      "constant": true,
      "inputs": [
        {
          "internalType": "address",
          "name": "",
          "type": "address"
        },
        {
          "internalType": "address",
          "name": "",
          "type": "address"
        }
      ],
      "name": "_valueOfInMapMock",
      "outputs": [
        {
          "internalType": "uint256",
          "name": "",
          "type": "uint256"
        }
      ],
      "payable": false,
      "stateMutability": "view",
      "type": "function"
    },
    {
      "constant": false,
      "inputs": [
        {
          "components": [
            {
              "internalType": "address",
              "name": "location",
              "type": "address"
            },
            {
              "internalType": "bytes",
              "name": "data",
              "type": "bytes"
            }
          ],
          "internalType": "struct TellerCommon.DappData",
          "name": "dappData",
          "type": "tuple"
        }
      ],
      "name": "callDapp",
      "outputs": [],
      "payable": false,
      "stateMutability": "nonpayable",
      "type": "function"
    },
    {
      "constant": false,
      "inputs": [
        {
          "internalType": "address",
          "name": "recipient",
          "type": "address"
        }
      ],
      "name": "claimTokens",
      "outputs": [],
      "payable": false,
      "stateMutability": "nonpayable",
      "type": "function"
    },
    {
      "constant": false,
      "inputs": [
        {
          "internalType": "address",
          "name": "tokenAddress",
          "type": "address"
        }
      ],
      "name": "clearBalance",
      "outputs": [],
      "payable": false,
      "stateMutability": "nonpayable",
      "type": "function"
    },
    {
      "constant": false,
      "inputs": [
        {
          "internalType": "address[]",
          "name": "tokenList",
          "type": "address[]"
        }
      ],
      "name": "externalSetTokens",
      "outputs": [],
      "payable": false,
      "stateMutability": "nonpayable",
      "type": "function"
    },
    {
      "constant": false,
      "inputs": [
        {
          "internalType": "address",
          "name": "tokenAddress",
          "type": "address"
        }
      ],
      "name": "externalTokenUpdated",
      "outputs": [],
      "payable": false,
      "stateMutability": "nonpayable",
      "type": "function"
    },
    {
      "constant": true,
      "inputs": [
        {
          "internalType": "address",
          "name": "tokenAddress",
          "type": "address"
        }
      ],
      "name": "findTokenIndex",
      "outputs": [
        {
          "internalType": "int256",
          "name": "",
          "type": "int256"
        }
      ],
      "payable": false,
      "stateMutability": "view",
      "type": "function"
    },
    {
      "constant": true,
      "inputs": [],
      "name": "getLoan",
      "outputs": [
        {
          "components": [
            {
              "internalType": "uint256",
              "name": "id",
              "type": "uint256"
            },
            {
              "components": [
                {
                  "internalType": "address payable",
                  "name": "borrower",
                  "type": "address"
                },
                {
                  "internalType": "address",
                  "name": "recipient",
                  "type": "address"
                },
                {
                  "internalType": "uint256",
                  "name": "interestRate",
                  "type": "uint256"
                },
                {
                  "internalType": "uint256",
                  "name": "collateralRatio",
                  "type": "uint256"
                },
                {
                  "internalType": "uint256",
                  "name": "maxLoanAmount",
                  "type": "uint256"
                },
                {
                  "internalType": "uint256",
                  "name": "duration",
                  "type": "uint256"
                }
              ],
              "internalType": "struct TellerCommon.LoanTerms",
              "name": "loanTerms",
              "type": "tuple"
            },
            {
              "internalType": "uint256",
              "name": "termsExpiry",
              "type": "uint256"
            },
            {
              "internalType": "uint256",
              "name": "loanStartTime",
              "type": "uint256"
            },
            {
              "internalType": "uint256",
              "name": "collateral",
              "type": "uint256"
            },
            {
              "internalType": "uint256",
              "name": "lastCollateralIn",
              "type": "uint256"
            },
            {
              "internalType": "uint256",
              "name": "principalOwed",
              "type": "uint256"
            },
            {
              "internalType": "uint256",
              "name": "interestOwed",
              "type": "uint256"
            },
            {
              "internalType": "uint256",
              "name": "borrowedAmount",
              "type": "uint256"
            },
            {
              "internalType": "address",
              "name": "escrow",
              "type": "address"
            },
            {
              "internalType": "enum TellerCommon.LoanStatus",
              "name": "status",
              "type": "uint8"
            },
            {
              "internalType": "bool",
              "name": "liquidated",
              "type": "bool"
            }
          ],
          "internalType": "struct TellerCommon.Loan",
          "name": "",
          "type": "tuple"
        }
      ],
      "payable": false,
      "stateMutability": "view",
      "type": "function"
    },
    {
      "constant": true,
      "inputs": [],
      "name": "getTokens",
      "outputs": [
        {
          "internalType": "address[]",
          "name": "",
          "type": "address[]"
        }
      ],
      "payable": false,
      "stateMutability": "view",
      "type": "function"
    },
    {
      "constant": false,
      "inputs": [
        {
          "internalType": "address",
          "name": "sender",
          "type": "address"
        }
      ],
      "name": "initialize",
      "outputs": [],
      "payable": false,
      "stateMutability": "nonpayable",
      "type": "function"
    },
    {
      "constant": false,
      "inputs": [
        {
          "internalType": "address",
          "name": "loansAddress",
          "type": "address"
        },
        {
          "internalType": "uint256",
          "name": "aLoanID",
          "type": "uint256"
        }
      ],
      "name": "initialize",
      "outputs": [],
      "payable": false,
      "stateMutability": "nonpayable",
      "type": "function"
    },
    {
      "constant": true,
      "inputs": [],
      "name": "initialized",
      "outputs": [
        {
          "internalType": "bool",
          "name": "value",
          "type": "bool"
        }
      ],
      "payable": false,
      "stateMutability": "view",
      "type": "function"
    },
    {
      "constant": true,
      "inputs": [],
      "name": "isUnderValued",
      "outputs": [
        {
          "internalType": "bool",
          "name": "",
          "type": "bool"
        }
      ],
      "payable": false,
      "stateMutability": "view",
      "type": "function"
    },
    {
      "constant": true,
      "inputs": [],
      "name": "loanID",
      "outputs": [
        {
          "internalType": "uint256",
          "name": "",
          "type": "uint256"
        }
      ],
      "payable": false,
      "stateMutability": "view",
      "type": "function"
    },
    {
      "constant": true,
      "inputs": [],
      "name": "loans",
      "outputs": [
        {
          "internalType": "contract LoansInterface",
          "name": "",
          "type": "address"
        }
      ],
      "payable": false,
      "stateMutability": "view",
      "type": "function"
    },
    {
      "constant": true,
      "inputs": [],
      "name": "owner",
      "outputs": [
        {
          "internalType": "address",
          "name": "",
          "type": "address"
        }
      ],
      "payable": false,
      "stateMutability": "view",
      "type": "function"
    },
    {
      "constant": false,
      "inputs": [],
      "name": "renounceOwnership",
      "outputs": [],
      "payable": false,
      "stateMutability": "nonpayable",
      "type": "function"
    },
    {
      "constant": false,
      "inputs": [
        {
          "internalType": "uint256",
          "name": "amount",
          "type": "uint256"
        }
      ],
      "name": "repay",
      "outputs": [],
      "payable": false,
      "stateMutability": "nonpayable",
      "type": "function"
    },
    {
      "constant": true,
      "inputs": [],
      "name": "settings",
      "outputs": [
        {
          "internalType": "contract SettingsInterface",
          "name": "",
          "type": "address"
        }
      ],
      "payable": false,
      "stateMutability": "view",
      "type": "function"
    },
    {
      "constant": true,
      "inputs": [],
      "name": "totalValue",
      "outputs": [
        {
          "internalType": "uint256",
          "name": "valueInToken",
          "type": "uint256"
        },
        {
          "internalType": "uint256",
          "name": "valueInEth",
          "type": "uint256"
        }
      ],
      "payable": false,
      "stateMutability": "view",
      "type": "function"
    },
    {
      "constant": false,
      "inputs": [
        {
          "internalType": "address",
          "name": "newOwner",
          "type": "address"
        }
      ],
      "name": "transferOwnership",
      "outputs": [],
      "payable": false,
      "stateMutability": "nonpayable",
      "type": "function"
    },
    {
      "constant": false,
      "inputs": [
        {
          "internalType": "address",
          "name": "settingsAddress",
          "type": "address"
        }
      ],
      "name": "externalSetSettings",
      "outputs": [],
      "payable": false,
      "stateMutability": "nonpayable",
      "type": "function"
    },
    {
      "constant": false,
      "inputs": [
        {
          "internalType": "bool",
          "name": "mockIsAOwner",
          "type": "bool"
        },
        {
          "internalType": "bool",
          "name": "isAOwner",
          "type": "bool"
        }
      ],
      "name": "mockIsOwner",
      "outputs": [],
      "payable": false,
      "stateMutability": "nonpayable",
      "type": "function"
    },
    {
      "constant": true,
      "inputs": [],
      "name": "getBorrower",
      "outputs": [
        {
          "internalType": "address",
          "name": "",
          "type": "address"
        }
      ],
      "payable": false,
      "stateMutability": "view",
      "type": "function"
    },
    {
      "constant": false,
      "inputs": [
        {
          "internalType": "address",
          "name": "settingsAddress",
          "type": "address"
        }
      ],
      "name": "mockSettings",
      "outputs": [],
      "payable": false,
      "stateMutability": "nonpayable",
      "type": "function"
    },
    {
      "constant": false,
      "inputs": [
        {
          "internalType": "address",
          "name": "borrower",
          "type": "address"
        }
      ],
      "name": "mockBorrower",
      "outputs": [],
      "payable": false,
      "stateMutability": "nonpayable",
      "type": "function"
    },
    {
      "constant": true,
      "inputs": [],
      "name": "isOwner",
      "outputs": [
        {
          "internalType": "bool",
          "name": "",
          "type": "bool"
        }
      ],
      "payable": false,
      "stateMutability": "view",
      "type": "function"
    },
    {
      "constant": false,
      "inputs": [],
      "name": "externalIsOwner",
      "outputs": [],
      "payable": false,
      "stateMutability": "nonpayable",
      "type": "function"
    },
    {
      "constant": true,
      "inputs": [
        {
          "internalType": "uint256",
          "name": "num1",
          "type": "uint256"
        },
        {
          "internalType": "uint256",
          "name": "num2",
          "type": "uint256"
        }
      ],
      "name": "testImplementationFunctionMultiply",
      "outputs": [
        {
          "internalType": "uint256",
          "name": "",
          "type": "uint256"
        }
      ],
      "payable": false,
      "stateMutability": "pure",
      "type": "function"
    },
    {
      "constant": false,
      "inputs": [
        {
          "internalType": "address",
          "name": "loansAddress",
          "type": "address"
        }
      ],
      "name": "mockLoans",
      "outputs": [],
      "payable": false,
      "stateMutability": "nonpayable",
      "type": "function"
    },
    {
      "constant": false,
      "inputs": [
        {
          "components": [
            {
              "internalType": "uint256",
              "name": "valueInToken",
              "type": "uint256"
            },
            {
              "internalType": "uint256",
              "name": "valueInEth",
              "type": "uint256"
            }
          ],
          "internalType": "struct TellerCommon.EscrowValue",
          "name": "aTotalValue",
          "type": "tuple"
        }
      ],
      "name": "mockCalculateTotalValue",
      "outputs": [],
      "payable": false,
      "stateMutability": "nonpayable",
      "type": "function"
    },
    {
      "constant": true,
      "inputs": [],
      "name": "calculateTotalValue",
      "outputs": [
        {
          "components": [
            {
              "internalType": "uint256",
              "name": "valueInToken",
              "type": "uint256"
            },
            {
              "internalType": "uint256",
              "name": "valueInEth",
              "type": "uint256"
            }
          ],
          "internalType": "struct TellerCommon.EscrowValue",
          "name": "",
          "type": "tuple"
        }
      ],
      "payable": false,
      "stateMutability": "view",
      "type": "function"
    },
    {
      "constant": false,
      "inputs": [],
      "name": "mockCanPurchase",
      "outputs": [],
      "payable": false,
      "stateMutability": "nonpayable",
      "type": "function"
    },
    {
      "constant": false,
      "inputs": [
        {
          "internalType": "address",
          "name": "loansAddress",
          "type": "address"
        },
        {
          "internalType": "uint256",
          "name": "aLoanID",
          "type": "uint256"
        }
      ],
      "name": "mockInitialize",
      "outputs": [],
      "payable": false,
      "stateMutability": "nonpayable",
      "type": "function"
    },
    {
      "constant": false,
      "inputs": [
        {
          "internalType": "address",
          "name": "base",
          "type": "address"
        },
        {
          "internalType": "address",
          "name": "quote",
          "type": "address"
        },
        {
          "internalType": "uint256",
          "name": "value",
          "type": "uint256"
        }
      ],
      "name": "mockValueOfIn",
      "outputs": [],
      "payable": false,
      "stateMutability": "nonpayable",
      "type": "function"
    },
    {
      "constant": true,
      "inputs": [
        {
          "internalType": "address",
          "name": "baseAddress",
          "type": "address"
        },
        {
          "internalType": "address",
          "name": "quoteAddress",
          "type": "address"
        },
        {
          "internalType": "uint256",
          "name": "baseAmount",
          "type": "uint256"
        }
      ],
      "name": "externalValueOfIn",
      "outputs": [
        {
          "internalType": "uint256",
          "name": "",
          "type": "uint256"
        }
      ],
      "payable": false,
      "stateMutability": "view",
      "type": "function"
    },
    {
      "constant": false,
      "inputs": [
        {
          "internalType": "address",
          "name": "aggregatorAddress",
          "type": "address"
        }
      ],
      "name": "mockGetAggregatorFor",
      "outputs": [],
      "payable": false,
      "stateMutability": "nonpayable",
      "type": "function"
    },
    {
      "constant": true,
      "inputs": [
        {
          "internalType": "address",
          "name": "base",
          "type": "address"
        },
        {
          "internalType": "address",
          "name": "quote",
          "type": "address"
        }
      ],
      "name": "externalGetAggregatorFor",
      "outputs": [
        {
          "internalType": "contract PairAggregatorInterface",
          "name": "",
          "type": "address"
        }
      ],
      "payable": false,
      "stateMutability": "view",
      "type": "function"
    }
  ],
  "bytecode": "0x6080604052613c9a806100136000396000f3fe608060405234801561001057600080fd5b50600436106102695760003560e01c80638da5cb5b11610151578063b798ad83116100c3578063d4c3eea011610087578063d4c3eea0146104ea578063dd0081c714610500578063df8de3e714610515578063e06174e414610528578063e9946b2014610530578063f2fde38b1461053857610269565b8063b798ad8314610496578063c2b5b0fa146104a9578063c4d66de8146104bc578063c6f8e649146104cf578063cd6dc687146104d757610269565b8063974abfc411610115578063974abfc41461041e578063a06101d014610431578063aa6ca80814610446578063af22d0d41461045b578063b41304b11461046e578063b5a4e2401461048157610269565b80638da5cb5b146103d35780638f32d59b146103db57806392cd1ff2146103e357806395ea3887146103f857806396f5ac9c1461040b57610269565b8063412179bc116101ea57806352494a14116101ae57806352494a14146103935780635cfaaaf51461039b57806368c22007146102ef578063705caf5f146103bb578063715018a6146103c35780637fd6a1c5146103cb57610269565b8063412179bc1461033d578063415dfa5b14610350578063450bd5a91461035857806346df44e31461036b5780634859b3f41461037e57610269565b8063215b0dc611610231578063215b0dc6146102e7578063283bf816146102ef57806332ba65aa14610304578063371fd8e6146103175780633fe9f52f1461032a57610269565b806305ae2d541461026e5780630a11fd07146102975780630fcce0ec146102aa578063158ef93e146102bd5780631cb0c3e7146102d2575b600080fd5b61028161027c366004612f48565b61054b565b60405161028e9190613986565b60405180910390f35b6102816102a5366004612eca565b610562565b6102816102b8366004612f0e565b610594565b6102c56105b1565b60405161028e9190613978565b6102da6105d0565b60405161028e91906138fb565b61028161060f565b6103026102fd366004612eca565b610615565b005b610302610312366004612eca565b610621565b610302610325366004613121565b61068a565b610302610338366004612f48565b610aa4565b61030261034b366004613025565b610ae3565b6102c5610b06565b610302610366366004612f95565b610b97565b610302610379366004612eca565b610bcc565b610386610bf6565b60405161028e9190613aff565b6102c5610c80565b6103ae6103a9366004612f0e565b610c8e565b60405161028e9190613994565b6102da610ca3565b610302610cb8565b610302610d26565b6102da610d4c565b6102c5610d5b565b6103eb610d89565b60405161028e9190613b2a565b610302610406366004612eca565b610d8e565b610302610419366004612eca565b610db0565b61030261042c366004612fc5565b610db9565b610439610df5565b60405161028e9190613af1565b61044e610e34565b60405161028e9190613967565b610302610469366004612eca565b610e96565b61030261047c366004613091565b610eb8565b610489611210565b60405161028e91906139a2565b6102816104a436600461313f565b611220565b6103026104b73660046130e4565b611224565b6103026104ca366004612eca565b611245565b610302611317565b6103026104e5366004612f95565b61132c565b6104f26114a5565b60405161028e929190613b1c565b6105086114ae565b60405161028e9190613b0e565b610302610523366004612eca565b6114b4565b6103ae6116b6565b6103ae6116d8565b610302610546366004612eca565b6116e7565b6000610558848484611714565b90505b9392505050565b6000808061057760668563ffffffff6118d816565b91509150816105885760001961058a565b805b925050505b919050565b606d60209081526000928352604080842090915290825290205481565b6000806040516105c0906138e5565b6040519081900390205492915050565b6069546000906201000090046001600160a01b031615610601576069546201000090046001600160a01b0316610609565b61060961192d565b90505b90565b60685481565b61061e816119bb565b50565b806001600160a01b03166342966c6861063983611a2a565b6040518263ffffffff1660e01b81526004016106559190613986565b600060405180830381600087803b15801561066f57600080fd5b505af1158015610683573d6000803e3d6000fd5b5050505050565b610692610d5b565b6106b75760405162461bcd60e51b81526004016106ae90613a71565b60405180910390fd5b6067546040805163155594ab60e31b815290516000926001600160a01b03169163aaaca558916004808301926020929190829003018186803b1580156106fc57600080fd5b505afa158015610710573d6000803e3d6000fd5b505050506040513d601f19601f820116820180604052506107349190810190612ef0565b905060006107c6606760009054906101000a90046001600160a01b03166001600160a01b031663aaaca5586040518163ffffffff1660e01b815260040160206040518083038186803b15801561078957600080fd5b505afa15801561079d573d6000803e3d6000fd5b505050506040513d601f19601f820116820180604052506107c19190810190612ef0565b611a2a565b606754606854604051623b929360e81b81529293506000926001600160a01b0390921691633b929300916107fc91600401613986565b60206040518083038186803b15801561081457600080fd5b505afa158015610828573d6000803e3d6000fd5b505050506040513d601f19601f8201168201806040525061084c9190810190613055565b9050808210801561085c57508184115b1561093257600081851161087f5761087a858463ffffffff611aa916565b61088f565b61088f828463ffffffff611aa916565b6040516323b872dd60e01b81529091506001600160a01b038516906323b872dd906108c290339030908690600401613909565b602060405180830381600087803b1580156108dc57600080fd5b505af11580156108f0573d6000803e3d6000fd5b505050506040513d601f19601f820116820180604052506109149190810190613007565b6109305760405162461bcd60e51b81526004016106ae90613a51565b505b826001600160a01b031663095ea7b3606760009054906101000a90046001600160a01b03166001600160a01b031663a59a99736040518163ffffffff1660e01b815260040160206040518083038186803b15801561098f57600080fd5b505afa1580156109a3573d6000803e3d6000fd5b505050506040513d601f19601f820116820180604052506109c79190810190612ef0565b866040518363ffffffff1660e01b81526004016109e592919061394c565b602060405180830381600087803b1580156109ff57600080fd5b505af1158015610a13573d6000803e3d6000fd5b505050506040513d601f19601f82011682018060405250610a379190810190613007565b5060675460685460405163d8aed14560e01b81526001600160a01b039092169163d8aed14591610a6c91889190600401613b1c565b600060405180830381600087803b158015610a8657600080fd5b505af1158015610a9a573d6000803e3d6000fd5b5050505050505050565b606a805460ff60a81b1916600160a81b1790556001600160a01b039283166000908152606d602090815260408083209490951682529290925291902055565b6069805460ff19169215159290921761ff00191661010091151591909102179055565b606754606854604051623b929360e81b81526000926001600160a01b031691633b92930091610b389190600401613986565b60206040518083038186803b158015610b5057600080fd5b505afa158015610b64573d6000803e3d6000fd5b505050506040513d601f19601f82011682018060405250610b889190810190613055565b610b90610df5565b5110905090565b606780546001600160a01b0319166001600160a01b0384161790556068819055610bc033611245565b610bc8611aeb565b5050565b606980546001600160a01b03909216620100000262010000600160b01b0319909216919091179055565b610bfe612a1b565b606754606854604051631c3d878d60e31b81526001600160a01b039092169163e1ec3c6891610c2f91600401613986565b6102206040518083038186803b158015610c4857600080fd5b505afa158015610c5c573d6000803e3d6000fd5b505050506040513d601f19601f820116820180604052506106099190810190613102565b606954610100900460ff1681565b6000610c9a8383611b09565b90505b92915050565b6069546201000090046001600160a01b031681565b610cc0610d5b565b610cdc5760405162461bcd60e51b81526004016106ae90613a71565b6033546040516000916001600160a01b0316907f8be0079c531659141344cd1fd0a4f28419497f9722a3daafe3b4186f6b6457e0908390a3603380546001600160a01b0319169055565b610d2e610d5b565b610d4a5760405162461bcd60e51b81526004016106ae90613a71565b565b6033546001600160a01b031690565b60695460009060ff1615610d7a5750606954610100900460ff1661060c565b610d82611b40565b905061060c565b601281565b606780546001600160a01b0319166001600160a01b0392909216919091179055565b61061e81611b66565b610bc8828280806020026020016040519081016040528093929190818152602001838360200280828437600092019190915250611bc892505050565b610dfd612a96565b606a54600160b01b900460ff1615610e2c575060408051808201909152606b548152606c54602082015261060c565b610d82611bdb565b60606066805480602002602001604051908101604052809291908181526020018280548015610e8c57602002820191906000526020600020905b81546001600160a01b03168152600190910190602001808311610e6e575b5050505050905090565b606a80546001600160a01b0319166001600160a01b0392909216919091179055565b610ec06105b1565b610edc5760405162461bcd60e51b81526004016106ae90613ad1565b610ee4610d5b565b610f005760405162461bcd60e51b81526004016106ae90613a71565b610f08612ab0565b610f106116b6565b6001600160a01b031663bdd1daaa6040518163ffffffff1660e01b815260040160206040518083038186803b158015610f4857600080fd5b505afa158015610f5c573d6000803e3d6000fd5b505050506040513d601f19601f82011682018060405250610f809190810190613073565b6001600160a01b03166355670f31610f9b6020850185612eca565b6040518263ffffffff1660e01b8152600401610fb791906138fb565b604080518083038186803b158015610fce57600080fd5b505afa158015610fe2573d6000803e3d6000fd5b505050506040513d601f19601f8201168201806040525061100691908101906130c6565b80519091506110275760405162461bcd60e51b81526004016106ae90613a31565b8060200151806110b357506067546068546040516302151da360e61b81526001600160a01b039092169163854768c09161106391600401613986565b60206040518083038186803b15801561107b57600080fd5b505afa15801561108f573d6000803e3d6000fd5b505050506040513d601f19601f820116820180604052506110b39190810190613007565b6110cf5760405162461bcd60e51b81526004016106ae90613a41565b60006110de6020840184612eca565b6001600160a01b0316635c60da1b6040518163ffffffff1660e01b815260040160206040518083038186803b15801561111657600080fd5b505afa15801561112a573d6000803e3d6000fd5b505050506040513d601f19601f8201168201806040525061114e9190810190612ef0565b905060006001600160a01b03821684602081018035601e193684900301811261117657600080fd5b9091016020810191503567ffffffffffffffff81111561119557600080fd5b368190038213156111a557600080fd5b6040516111b39291906138d8565b600060405180830381855af49150503d80600081146111ee576040519150601f19603f3d011682016040523d82523d6000602084013e6111f3565b606091505b50909150508061120a576040513d806000833e8082fd5b50505050565b606954600160b01b900460ff1681565b0290565b606a805460ff60b01b1916600160b01b1790558051606b5560200151606c55565b600054610100900460ff168061125e575061125e6122c4565b8061126c575060005460ff16155b6112885760405162461bcd60e51b81526004016106ae90613a81565b600054610100900460ff161580156112b3576000805460ff1961ff0019909116610100171660011790555b603380546001600160a01b0319166001600160a01b0384811691909117918290556040519116906000907f8be0079c531659141344cd1fd0a4f28419497f9722a3daafe3b4186f6b6457e0908290a38015610bc8576000805461ff00191690555050565b606a805460ff60a01b1916600160a01b179055565b6113346105b1565b156113515760405162461bcd60e51b81526004016106ae90613ae1565b611363826001600160a01b03166122ca565b61137f5760405162461bcd60e51b81526004016106ae906139e1565b606780546001600160a01b0319166001600160a01b03841617905560688190556113aa6104ca6105d0565b6113b2611aeb565b6113ba610bf6565b61010001516067546040805163155594ab60e31b81529051611405926001600160a01b03169163aaaca558916004808301926020929190829003018186803b15801561078957600080fd5b146114225760405162461bcd60e51b81526004016106ae90613ab1565b6067546040805163155594ab60e31b81529051610bc8926001600160a01b03169163aaaca558916004808301926020929190829003018186803b15801561146857600080fd5b505afa15801561147c573d6000803e3d6000fd5b505050506040513d601f19601f820116820180604052506114a09190810190612ef0565b611b66565b606b54606c5482565b61271081565b60026114be610bf6565b610140015160038111156114ce57fe5b14156114ec5760405162461bcd60e51b81526004016106ae90613a11565b6114f4610bf6565b610160015115611566576115066105d0565b6001600160a01b0316816001600160a01b031614156115375760405162461bcd60e51b81526004016106ae906139c1565b6067546001600160a01b031633146115615760405162461bcd60e51b81526004016106ae90613aa1565b61159e565b61156e6105d0565b6001600160a01b0316816001600160a01b03161461159e5760405162461bcd60e51b81526004016106ae90613ac1565b60606115a8610e34565b905060005b815181101561167a5760006115d48383815181106115c757fe5b6020026020010151611a2a565b90508015611671578282815181106115e857fe5b60200260200101516001600160a01b031663a9059cbb85836040518363ffffffff1660e01b815260040161161d92919061394c565b602060405180830381600087803b15801561163757600080fd5b505af115801561164b573d6000803e3d6000fd5b505050506040513d601f19601f8201168201806040525061166f9190810190613007565b505b506001016115ad565b507fb638240958296a5b145c2f18c8ec62f72a20911efab2d38fb48c76695373761f826040516116aa91906138fb565b60405180910390a15050565b60008060006040516116c7906138f0565b604051908190039020549250505090565b6067546001600160a01b031681565b6116ef610d5b565b61170b5760405162461bcd60e51b81526004016106ae90613a71565b61061e81612303565b60008061171f6116b6565b6001600160a01b031663a734f06e6040518163ffffffff1660e01b815260040160206040518083038186803b15801561175757600080fd5b505afa15801561176b573d6000803e3d6000fd5b505050506040513d601f19601f8201168201806040525061178f9190810190612ef0565b6001600160a01b0316856001600160a01b03161461181d57846001600160a01b031663313ce5676040518163ffffffff1660e01b815260040160206040518083038186803b1580156117e057600080fd5b505afa1580156117f4573d6000803e3d6000fd5b505050506040513d601f19601f82011682018060405250611818919081019061315e565b611820565b60125b9050600061182e8686611b09565b90506000816001600160a01b03166396237c026040518163ffffffff1660e01b815260040160206040518083038186803b15801561186b57600080fd5b505afa15801561187f573d6000803e3d6000fd5b505050506040513d601f19601f820116820180604052506118a39190810190613055565b905060ff8316600a0a6118cc816118c0888563ffffffff61238516565b9063ffffffff6123bf16565b98975050505050505050565b6000805b835481101561192657826001600160a01b03168482815481106118fb57fe5b6000918252602090912001546001600160a01b0316149150811561191e57611926565b6001016118dc565b9250929050565b606754606854604051631c3d878d60e31b81526000926001600160a01b03169163e1ec3c68916119609190600401613986565b6102206040518083038186803b15801561197957600080fd5b505afa15801561198d573d6000803e3d6000fd5b505050506040513d601f19601f820116820180604052506119b19190810190613102565b6020015151905090565b6119d46119c66116b6565b6001600160a01b0316612401565b156119de5761061e565b6119f0816001600160a01b03166122ca565b611a0c5760405162461bcd60e51b81526004016106ae90613a01565b6000604051611a1a906138f0565b6040519081900390208290555050565b6040516370a0823160e01b81526000906001600160a01b038316906370a0823190611a599030906004016138fb565b60206040518083038186803b158015611a7157600080fd5b505afa158015611a85573d6000803e3d6000fd5b505050506040513d601f19601f82011682018060405250610c9d9190810190613055565b6000610c9a83836040518060400160405280601e81526020017f536166654d6174683a207375627472616374696f6e206f766572666c6f77000081525061240f565b6000604051611af9906138e5565b6040519081900390206001905550565b606a546000906001600160a01b031615611b2f5750606a546001600160a01b0316610c9d565b611b39838361243b565b9050610c9d565b6033546000906001600160a01b0316611b57612643565b6001600160a01b031614905090565b600080611b7a60668463ffffffff6118d816565b915091506000611b8984611a2a565b1115611bac5781611ba757611ba560668463ffffffff61264716565b505b611bc3565b8115611bc35761120a60668263ffffffff6126fb16565b505050565b8051610bc8906066906020840190612ac7565b611be3612a96565b6060611bed610e34565b90506000805b8251811015611d8957611c046116b6565b6001600160a01b031663040141e56040518163ffffffff1660e01b815260040160206040518083038186803b158015611c3c57600080fd5b505afa158015611c50573d6000803e3d6000fd5b505050506040513d601f19601f82011682018060405250611c749190810190612ef0565b6001600160a01b0316838281518110611c8957fe5b60200260200101516001600160a01b03161415611cc657611cbf611cb28483815181106115c757fe5b839063ffffffff61296c16565b9150611d81565b6000611d6b848381518110611cd757fe5b6020026020010151611ce76116b6565b6001600160a01b031663a734f06e6040518163ffffffff1660e01b815260040160206040518083038186803b158015611d1f57600080fd5b505afa158015611d33573d6000803e3d6000fd5b505050506040513d601f19601f82011682018060405250611d579190810190612ef0565b611d668786815181106115c757fe5b612991565b9050611d7d838263ffffffff61296c16565b9250505b600101611bf3565b506000611d94610bf6565b6080015190506000611da4610bf6565b60200151606001511115611f4f576000611dbc6116b6565b6001600160a01b031663269012a0611dd26116b6565b6001600160a01b031663d86d744e6040518163ffffffff1660e01b815260040160206040518083038186803b158015611e0a57600080fd5b505afa158015611e1e573d6000803e3d6000fd5b505050506040513d601f19601f82011682018060405250611e429190810190613073565b6001600160a01b03166308b04f626040518163ffffffff1660e01b815260040160206040518083038186803b158015611e7a57600080fd5b505afa158015611e8e573d6000803e3d6000fd5b505050506040513d601f19601f82011682018060405250611eb29190810190613055565b6040518263ffffffff1660e01b8152600401611ece9190613986565b60206040518083038186803b158015611ee657600080fd5b505afa158015611efa573d6000803e3d6000fd5b505050506040513d601f19601f82011682018060405250611f1e9190810190613055565b90506000611f386127106118c0858563ffffffff61238516565b9050611f4a838263ffffffff611aa916565b925050505b611f576116b6565b6001600160a01b031663a734f06e6040518163ffffffff1660e01b815260040160206040518083038186803b158015611f8f57600080fd5b505afa158015611fa3573d6000803e3d6000fd5b505050506040513d601f19601f82011682018060405250611fc79190810190612ef0565b6001600160a01b0316606760009054906101000a90046001600160a01b03166001600160a01b031663b2016bd46040518163ffffffff1660e01b815260040160206040518083038186803b15801561201e57600080fd5b505afa158015612032573d6000803e3d6000fd5b505050506040513d601f19601f820116820180604052506120569190810190612ef0565b6001600160a01b0316141561207c57612075828263ffffffff61296c16565b915061219b565b6000612185606760009054906101000a90046001600160a01b03166001600160a01b031663b2016bd46040518163ffffffff1660e01b815260040160206040518083038186803b1580156120cf57600080fd5b505afa1580156120e3573d6000803e3d6000fd5b505050506040513d601f19601f820116820180604052506121079190810190612ef0565b61210f6116b6565b6001600160a01b031663a734f06e6040518163ffffffff1660e01b815260040160206040518083038186803b15801561214757600080fd5b505afa15801561215b573d6000803e3d6000fd5b505050506040513d601f19601f8201168201806040525061217f9190810190612ef0565b84612991565b9050612197838263ffffffff61296c16565b9250505b60006122a46121a86116b6565b6001600160a01b031663a734f06e6040518163ffffffff1660e01b815260040160206040518083038186803b1580156121e057600080fd5b505afa1580156121f4573d6000803e3d6000fd5b505050506040513d601f19601f820116820180604052506122189190810190612ef0565b606760009054906101000a90046001600160a01b03166001600160a01b031663aaaca5586040518163ffffffff1660e01b815260040160206040518083038186803b15801561226657600080fd5b505afa15801561227a573d6000803e3d6000fd5b505050506040513d601f19601f8201168201806040525061229e9190810190612ef0565b85612991565b905060405180604001604052808281526020018481525094505050505090565b303b1590565b6000813f7fc5d2460186f7233c927e7db2dcc703c0e500b653ca82273b7bfad8045d85a47081811480159061058a575050151592915050565b6001600160a01b0381166123295760405162461bcd60e51b81526004016106ae906139d1565b6033546040516001600160a01b038084169216907f8be0079c531659141344cd1fd0a4f28419497f9722a3daafe3b4186f6b6457e090600090a3603380546001600160a01b0319166001600160a01b0392909216919091179055565b60008261239457506000610c9d565b828202828482816123a157fe5b0414610c9a5760405162461bcd60e51b81526004016106ae90613a61565b6000610c9a83836040518060400160405280601a81526020017f536166654d6174683a206469766973696f6e206279207a65726f0000000000008152506129e4565b6001600160a01b0316151590565b600081848411156124335760405162461bcd60e51b81526004016106ae91906139b0565b505050900390565b60006124456116b6565b6001600160a01b03166302d58da76040518163ffffffff1660e01b815260040160206040518083038186803b15801561247d57600080fd5b505afa158015612491573d6000803e3d6000fd5b505050506040513d601f19601f820116820180604052506124b59190810190613073565b6001600160a01b031663662a3e5884846040518363ffffffff1660e01b81526004016124e2929190613931565b60206040518083038186803b1580156124fa57600080fd5b505afa15801561250e573d6000803e3d6000fd5b505050506040513d601f19601f820116820180604052506125329190810190613007565b61254e5760405162461bcd60e51b81526004016106ae90613a91565b6125566116b6565b6001600160a01b03166302d58da76040518163ffffffff1660e01b815260040160206040518083038186803b15801561258e57600080fd5b505afa1580156125a2573d6000803e3d6000fd5b505050506040513d601f19601f820116820180604052506125c69190810190613073565b6001600160a01b031663c495931784846040518363ffffffff1660e01b81526004016125f3929190613931565b60206040518083038186803b15801561260b57600080fd5b505afa15801561261f573d6000803e3d6000fd5b505050506040513d601f19601f82011682018060405250610c9a9190810190613073565b3390565b60606001600160a01b03821661266f5760405162461bcd60e51b81526004016106ae90613a21565b8254600181018455600084815260209081902090910180546001600160a01b0319166001600160a01b03851617905583546040805182840281018401909152818152918591908301828280156126ee57602002820191906000526020600020905b81546001600160a01b031681526001909101906020018083116126d0575b5050505050905092915050565b815460609082106127635782546040805160208084028201810190925282815291859183018282801561275757602002820191906000526020600020905b81546001600160a01b03168152600190910190602001808311612739575b50505050509050610c9d565b8254600019018214156128075782548390600019810190811061278257fe5b600091825260209091200180546001600160a01b031916905582546127ab846000198301612b2c565b50825460408051602080840282018101909252828152918591830182828015612757576020028201919060005260206000209081546001600160a01b031681526001909101906020018083116127395750505050509050610c9d565b82546000908490600019810190811061281c57fe5b60009182526020909120015484546001600160a01b03909116915084908490811061284357fe5b60009182526020909120015484546001600160a01b03909116908590600019810190811061286d57fe5b9060005260206000200160006101000a8154816001600160a01b0302191690836001600160a01b03160217905550808484815481106128a857fe5b600091825260209091200180546001600160a01b0319166001600160a01b03929092169190911790558354849060001981019081106128e357fe5b600091825260209091200180546001600160a01b0319169055835461290c856000198301612b2c565b5083546040805160208084028201810190925282815291869183018282801561295e57602002820191906000526020600020905b81546001600160a01b03168152600190910190602001808311612940575b505050505091505092915050565b600082820183811015610c9a5760405162461bcd60e51b81526004016106ae906139f1565b606a54600090600160a81b900460ff16156129d257506001600160a01b038084166000908152606d602090815260408083209386168352929052205461055b565b6129dd848484611714565b905061055b565b60008183612a055760405162461bcd60e51b81526004016106ae91906139b0565b506000838581612a1157fe5b0495945050505050565b60405180610180016040528060008152602001612a36612b50565b81526020016000815260200160008152602001600081526020016000815260200160008152602001600081526020016000815260200160006001600160a01b0316815260200160006003811115612a8957fe5b8152600060209091015290565b604051806040016040528060008152602001600081525090565b604080518082019091526000808252602082015290565b828054828255906000526020600020908101928215612b1c579160200282015b82811115612b1c57825182546001600160a01b0319166001600160a01b03909116178255602090920191600190910190612ae7565b50612b28929150612b98565b5090565b815481835581811115611bc357600083815260209020611bc3918101908301612bbc565b6040518060c0016040528060006001600160a01b0316815260200160006001600160a01b03168152602001600081526020016000815260200160008152602001600081525090565b61060c91905b80821115612b285780546001600160a01b0319168155600101612b9e565b61060c91905b80821115612b285760008155600101612bc2565b8035610c9d81613c12565b8051610c9d81613c12565b60008083601f840112612bfe57600080fd5b50813567ffffffffffffffff811115612c1657600080fd5b60208301915083602082028301111561192657600080fd5b8035610c9d81613c26565b8051610c9d81613c26565b8051610c9d81613c2f565b8051610c9d81613c38565b8051610c9d81613c41565b600060408284031215612c7757600080fd5b50919050565b600060408284031215612c8f57600080fd5b612c996040613b38565b90506000612ca78484612c39565b8252506020612cb884848301612c39565b60208301525092915050565b600060408284031215612cd657600080fd5b612ce06040613b38565b90506000612cee8484612eb4565b8252506020612cb884848301612eb4565b600060c08284031215612d1157600080fd5b612d1b60c0613b38565b90506000612d298484612be1565b8252506020612d3a84848301612be1565b6020830152506040612d4e84828501612c44565b6040830152506060612d6284828501612c44565b6060830152506080612d7684828501612c44565b60808301525060a0612d8a84828501612c44565b60a08301525092915050565b60006102208284031215612da957600080fd5b612db4610180613b38565b90506000612dc28484612c44565b8252506020612dd384848301612cff565b60208301525060e0612de784828501612c44565b604083015250610100612dfc84828501612c44565b606083015250610120612e1184828501612c44565b608083015250610140612e2684828501612c44565b60a083015250610160612e3b84828501612c44565b60c083015250610180612e5084828501612c44565b60e0830152506101a0612e6584828501612c44565b610100830152506101c0612e7b84828501612be1565b610120830152506101e0612e9184828501612c5a565b61014083015250610200612ea784828501612c39565b6101608301525092915050565b8035610c9d81613c2f565b8051610c9d81613c4e565b600060208284031215612edc57600080fd5b6000612ee88484612bd6565b949350505050565b600060208284031215612f0257600080fd5b6000612ee88484612be1565b60008060408385031215612f2157600080fd5b6000612f2d8585612bd6565b9250506020612f3e85828601612bd6565b9150509250929050565b600080600060608486031215612f5d57600080fd5b6000612f698686612bd6565b9350506020612f7a86828701612bd6565b9250506040612f8b86828701612eb4565b9150509250925092565b60008060408385031215612fa857600080fd5b6000612fb48585612bd6565b9250506020612f3e85828601612eb4565b60008060208385031215612fd857600080fd5b823567ffffffffffffffff811115612fef57600080fd5b612ffb85828601612bec565b92509250509250929050565b60006020828403121561301957600080fd5b6000612ee88484612c39565b6000806040838503121561303857600080fd5b60006130448585612c2e565b9250506020612f3e85828601612c2e565b60006020828403121561306757600080fd5b6000612ee88484612c44565b60006020828403121561308557600080fd5b6000612ee88484612c4f565b6000602082840312156130a357600080fd5b813567ffffffffffffffff8111156130ba57600080fd5b612ee884828501612c65565b6000604082840312156130d857600080fd5b6000612ee88484612c7d565b6000604082840312156130f657600080fd5b6000612ee88484612cc4565b6000610220828403121561311557600080fd5b6000612ee88484612d96565b60006020828403121561313357600080fd5b6000612ee88484612eb4565b6000806040838503121561315257600080fd5b6000612fb48585612eb4565b60006020828403121561317057600080fd5b6000612ee88484612ebf565b6000613188838361319f565b505060200190565b61319981613bb0565b82525050565b61319981613b72565b60006131b382613b65565b6131bd8185613b69565b93506131c883613b5f565b8060005b838110156131f65781516131e0888261317c565b97506131eb83613b5f565b9250506001016131cc565b509495945050505050565b61319981613b7d565b6131998161060c565b600061321f838561058f565b935061322c838584613bc6565b50500190565b61319981613b82565b61319981613bbb565b600061324f82613b65565b6132598185613b69565b9350613269818560208601613bd2565b61327281613bfe565b9093019392505050565b6000613289601c83613b69565b7f524543495049454e545f43414e4e4f545f42455f424f52524f57455200000000815260200192915050565b60006132c2601c8361058f565b7f54496e697469616c697a61626c652e6973496e697469616c697a6564000000008152601c0192915050565b60006132fb602683613b69565b7f4f776e61626c653a206e6577206f776e657220697320746865207a65726f206181526564647265737360d01b602082015260400192915050565b6000613343601883613b69565b7f4c4f414e535f4d5553545f42455f415f434f4e54524143540000000000000000815260200192915050565b600061337c601b83613b69565b7f536166654d6174683a206164646974696f6e206f766572666c6f770000000000815260200192915050565b60006133b5601b83613b69565b7f53455454494e47535f4d5553545f42455f415f434f4e54524143540000000000815260200192915050565b60006133ee600b83613b69565b6a4c4f414e5f41435449564560a81b815260200192915050565b6000613415601983613b69565b7f454d5054595f414444524553535f4e4f545f414c4c4f57454400000000000000815260200192915050565b600061344e601483613b69565b731110541417d393d517d5d2125511531254d5115160621b815260200192915050565b600061347e601a83613b69565b7f444150505f554e534543555245445f4e4f545f414c4c4f574544000000000000815260200192915050565b60006134b7601b83613b69565b7f455343524f575f5452414e534645525f46524f4d5f4641494c45440000000000815260200192915050565b60006134f0602183613b69565b7f536166654d6174683a206d756c7469706c69636174696f6e206f766572666c6f8152607760f81b602082015260400192915050565b6000613533602083613b69565b7f4f776e61626c653a2063616c6c6572206973206e6f7420746865206f776e6572815260200192915050565b600061356c602e83613b69565b7f436f6e747261637420696e7374616e63652068617320616c726561647920626581526d195b881a5b9a5d1a585b1a5e995960921b602082015260400192915050565b60006135bc602483613b69565b7f434841494e4c494e4b5f504149525f41474752454741544f525f4e4f545f45588152634953545360e01b602082015260400192915050565b6000613602601483613b69565b7343414c4c45525f4d5553545f42455f4c4f414e5360601b815260200192915050565b6000613632601d83613b69565b7f455343524f575f42414c414e43455f4e4f545f4d415443485f4c4f414e000000815260200192915050565b600061366b60188361058f565b7f426173655570677261646561626c652e73657474696e67730000000000000000815260180192915050565b60006136a4601a83613b69565b7f524543495049454e545f4d5553545f42455f424f52524f574552000000000000815260200192915050565b60006136dd601883613b69565b7f434f4e54524143545f4e4f545f494e495449414c495a45440000000000000000815260200192915050565b6000613716601c83613b69565b7f434f4e54524143545f414c52454144595f494e495449414c495a454400000000815260200192915050565b80516040830190613753848261320a565b50602082015161120a602085018261320a565b805160c0830190613777848261319f565b50602082015161378a602085018261319f565b50604082015161379d604085018261320a565b5060608201516137b0606085018261320a565b5060808201516137c3608085018261320a565b5060a082015161120a60a085018261320a565b80516102208301906137e8848261320a565b5060208201516137fb6020850182613766565b50604082015161380e60e085018261320a565b50606082015161382261010085018261320a565b50608082015161383661012085018261320a565b5060a082015161384a61014085018261320a565b5060c082015161385e61016085018261320a565b5060e082015161387261018085018261320a565b506101008201516138876101a085018261320a565b5061012082015161389c6101c085018261319f565b506101408201516138b16101e085018261323b565b5061016082015161120a610200850182613201565b61319981613b97565b61319981613baa565b6000612ee8828486613213565b6000610c9d826132b5565b6000610c9d8261365e565b60208101610c9d828461319f565b606081016139178286613190565b613924602083018561319f565b612ee8604083018461320a565b6040810161393f828561319f565b61055b602083018461319f565b6040810161395a828561319f565b61055b602083018461320a565b60208082528101610c9a81846131a8565b60208101610c9d8284613201565b60208101610c9d828461320a565b60208101610c9d8284613232565b60208101610c9d828461323b565b60208082528101610c9a8184613244565b60208082528101610c9d8161327c565b60208082528101610c9d816132ee565b60208082528101610c9d81613336565b60208082528101610c9d8161336f565b60208082528101610c9d816133a8565b60208082528101610c9d816133e1565b60208082528101610c9d81613408565b60208082528101610c9d81613441565b60208082528101610c9d81613471565b60208082528101610c9d816134aa565b60208082528101610c9d816134e3565b60208082528101610c9d81613526565b60208082528101610c9d8161355f565b60208082528101610c9d816135af565b60208082528101610c9d816135f5565b60208082528101610c9d81613625565b60208082528101610c9d81613697565b60208082528101610c9d816136d0565b60208082528101610c9d81613709565b60408101610c9d8284613742565b6102208101610c9d82846137d6565b60208101610c9d82846138c6565b6040810161395a828561320a565b60208101610c9d82846138cf565b60405181810167ffffffffffffffff81118282101715613b5757600080fd5b604052919050565b60200190565b5190565b90815260200190565b6000610c9d82613b9e565b151590565b6000610c9d82613b72565b8061058f81613c08565b61ffff1690565b6001600160a01b031690565b60ff1690565b6000610c9d82613b82565b6000610c9d82613b8d565b82818337506000910152565b60005b83811015613bed578181015183820152602001613bd5565b8381111561120a5750506000910152565b601f01601f191690565b6004811061061e57fe5b613c1b81613b72565b811461061e57600080fd5b613c1b81613b7d565b613c1b8161060c565b613c1b81613b82565b6004811061061e57600080fd5b613c1b81613baa56fea365627a7a7231582001faa2151c311917aa31ca6b82b45283b39ae40f6be142b845dd326cedc1bb166c6578706572696d656e74616cf564736f6c63430005110040",
  "source": "pragma solidity 0.5.17;\npragma experimental ABIEncoderV2;\n\nimport \"../../base/Escrow.sol\";\nimport \"../../util/TellerCommon.sol\";\nimport \"./BaseEscrowDappMock.sol\";\n\ncontract EscrowMock is Escrow, BaseEscrowDappMock {\n    bool private _mockIsOwner;\n    bool public _isOwner;\n    address public _borrower;\n    TellerCommon.LoanStatus public _loanStatus;\n    address internal mockedAggregator;\n    bool internal mockedCanPurchase;\n\n    bool private _mockValueOfIn;\n    bool private mockedCalculateTotalValue;\n    TellerCommon.EscrowValue public totalValue;\n\n    mapping(address => mapping(address => uint256)) public _valueOfInMapMock;\n\n    function externalSetSettings(address settingsAddress) external {\n        _setSettings(settingsAddress);\n    }\n\n    function mockIsOwner(bool mockIsAOwner, bool isAOwner) external {\n        _mockIsOwner = mockIsAOwner;\n        _isOwner = isAOwner;\n    }\n\n    function getBorrower() public view returns (address) {\n        return address(_borrower) == address(0x0) ? super.getBorrower() : _borrower;\n    }\n\n    function mockSettings(address settingsAddress) public {\n        _setSettings(settingsAddress);\n    }\n\n    function mockBorrower(address borrower) public {\n        _borrower = borrower;\n    }\n\n    function isOwner() public view returns (bool) {\n        if (_mockIsOwner) {\n            return _isOwner;\n        } else {\n            return super.isOwner();\n        }\n    }\n\n    function externalIsOwner() external onlyOwner() {}\n\n    function testImplementationFunctionMultiply(uint256 num1, uint256 num2)\n        external\n        pure\n        returns (uint256)\n    {\n        return num1 * num2;\n    }\n\n    function mockLoans(address loansAddress) external {\n        loans = LoansInterface(loansAddress);\n    }\n\n    function mockCalculateTotalValue(TellerCommon.EscrowValue memory aTotalValue) public {\n        mockedCalculateTotalValue = true;\n        totalValue = aTotalValue;\n    }\n\n    function calculateTotalValue() public view returns (TellerCommon.EscrowValue memory) {\n        if (mockedCalculateTotalValue) {\n            return totalValue;\n        } else {\n            return super.calculateTotalValue();\n        }\n    }\n\n    function mockCanPurchase() external {\n        mockedCanPurchase = true;\n    }\n\n    function mockInitialize(address loansAddress, uint256 aLoanID) external {\n        loans = LoansInterface(loansAddress);\n        loanID = aLoanID;\n\n        Ownable.initialize(msg.sender);\n        TInitializable._initialize();\n    }\n\n    function mockValueOfIn(\n        address base,\n        address quote,\n        uint256 value\n    ) external {\n        _mockValueOfIn = true;\n        _valueOfInMapMock[base][quote] = value;\n    }\n\n    function externalValueOfIn(\n        address baseAddress,\n        address quoteAddress,\n        uint256 baseAmount\n    ) external view returns (uint256) {\n        return super._valueOfIn(baseAddress, quoteAddress, baseAmount);\n    }\n\n    function _valueOfIn(\n        address baseAddress,\n        address quoteAddress,\n        uint256 baseAmount\n    ) internal view returns (uint256) {\n        if (_mockValueOfIn) {\n            return _valueOfInMapMock[baseAddress][quoteAddress];\n        } else {\n            return Escrow._valueOfIn(baseAddress, quoteAddress, baseAmount);\n        }\n    }\n\n    function mockGetAggregatorFor(address aggregatorAddress) external {\n        mockedAggregator = aggregatorAddress;\n    }\n\n    function _getAggregatorFor(address base, address quote)\n        internal\n        view\n        returns (PairAggregatorInterface)\n    {\n        if (mockedAggregator != address(0x0)) {\n            return PairAggregatorInterface(mockedAggregator);\n        } else {\n            return super._getAggregatorFor(base, quote);\n        }\n    }\n\n    function externalGetAggregatorFor(address base, address quote)\n        external\n        view\n        returns (PairAggregatorInterface)\n    {\n        return _getAggregatorFor(base, quote);\n    }\n}\n",
  "sourcePath": "/Users/guillesalazar/Repos/ZeroCollateral/smart-contracts-v1/contracts/mock/base/EscrowMock.sol",
  "compiler": {
    "name": "solc",
    "version": "0.5.17+commit.d19bba13.Emscripten.clang"
  },
  "schemaVersion": "3.2.3",
  "updatedAt": "2020-10-12T14:23:11.515Z",
  "devdoc": {
    "methods": {
      "callDapp((address,bytes))": {
        "params": {
          "dappData": "the current dapp data to be executed."
        }
      },
      "claimTokens(address)": {
        "details": "The loan must not be active.The recipient must either be the loan borrower OR the loan must be already liquidated.",
        "params": {
          "recipient": "address to send the tokens to."
        }
      },
      "initialize(address)": {
        "details": "Initializes the contract setting the deployer as the initial owner."
      },
      "initialize(address,uint256)": {
        "params": {
          "aLoanID": "the loan ID associated to this escrow instance.",
          "loansAddress": "loans contract address."
        }
      },
      "initialized()": {
        "return": "true if contract is initialized. Otherwise it returns false."
      },
      "isUnderValued()": {
        "return": "true if this escrow loan is undervalued based on its token price."
      },
      "owner()": {
        "details": "Returns the address of the current owner."
      },
      "renounceOwnership()": {
        "details": "Leaves the contract without owner. It will not be possible to call `onlyOwner` functions anymore. Can only be called by the current owner.     * > Note: Renouncing ownership will leave the contract without an owner, thereby removing any functionality that is only available to the owner."
      },
      "repay(uint256)": {
        "details": "If the Escrow's balance of the borrowed token is less than the amount to repay, transfer tokens from the sender's wallet.Only the owner of the Escrow can call this. If someone else wants to make a payment, they should call the loans contract directly."
      },
      "settings()": {
        "details": "This address should NOT change over the time. See details in the _setSettings(...) function."
      },
      "transferOwnership(address)": {
        "details": "Transfers ownership of the contract to a new account (`newOwner`). Can only be called by the current owner."
      }
    }
  },
  "userdoc": {
    "methods": {
      "callDapp((address,bytes))": {
        "notice": "It calls a given dapp using a delegatecall function by a borrower owned the current loan id associated to this escrow contract."
      },
      "claimTokens(address)": {
        "notice": "Sends the tokens owned by this escrow to the recipient."
      },
      "getLoan()": {
        "notice": "Returns this Escrow's loan instance. "
      },
      "initialize(address,uint256)": {
        "notice": "It initializes this escrow instance for a given loans address and loan id."
      },
      "initialized()": {
        "notice": "Gets if the contract is initialized."
      },
      "isUnderValued()": {
        "notice": "Checks if this Escrow loan value is undervalued based its token price."
      },
      "repay(uint256)": {
        "notice": "Repay this Escrow's loan."
      },
      "settings()": {
        "notice": "The gets the settings contract address from the SETTINGS_SLOT."
      }
    }
  }
}