{
  "contractName": "Escrow",
  "abi": [
    {
      "anonymous": false,
      "inputs": [
        {
          "indexed": true,
          "internalType": "address",
          "name": "previousOwner",
          "type": "address"
        },
        {
          "indexed": true,
          "internalType": "address",
          "name": "newOwner",
          "type": "address"
        }
      ],
      "name": "OwnershipTransferred",
      "type": "event"
    },
    {
      "constant": true,
      "inputs": [],
      "name": "COLLATERAL_BUFFER_SETTING",
      "outputs": [
        {
          "internalType": "bytes32",
          "name": "",
          "type": "bytes32"
        }
      ],
      "payable": false,
      "stateMutability": "view",
      "type": "function"
    },
    {
      "constant": true,
      "inputs": [],
      "name": "LIQUIDATE_ETH_PRICE_SETTING",
      "outputs": [
        {
          "internalType": "bytes32",
          "name": "",
          "type": "bytes32"
        }
      ],
      "payable": false,
      "stateMutability": "view",
      "type": "function"
    },
    {
      "constant": true,
      "inputs": [],
      "name": "MAXIMUM_LOAN_DURATION_SETTING",
      "outputs": [
        {
          "internalType": "bytes32",
          "name": "",
          "type": "bytes32"
        }
      ],
      "payable": false,
      "stateMutability": "view",
      "type": "function"
    },
    {
      "constant": true,
      "inputs": [],
      "name": "MAXIMUM_TOLERANCE_SETTING",
      "outputs": [
        {
          "internalType": "bytes32",
          "name": "",
          "type": "bytes32"
        }
      ],
      "payable": false,
      "stateMutability": "view",
      "type": "function"
    },
    {
      "constant": true,
      "inputs": [],
      "name": "REQUEST_LOAN_TERMS_RATE_LIMIT_SETTING",
      "outputs": [
        {
          "internalType": "bytes32",
          "name": "",
          "type": "bytes32"
        }
      ],
      "payable": false,
      "stateMutability": "view",
      "type": "function"
    },
    {
      "constant": true,
      "inputs": [],
      "name": "REQUIRED_SUBMISSIONS_SETTING",
      "outputs": [
        {
          "internalType": "bytes32",
          "name": "",
          "type": "bytes32"
        }
      ],
      "payable": false,
      "stateMutability": "view",
      "type": "function"
    },
    {
      "constant": true,
      "inputs": [],
      "name": "RESPONSE_EXPIRY_LENGTH_SETTING",
      "outputs": [
        {
          "internalType": "bytes32",
          "name": "",
          "type": "bytes32"
        }
      ],
      "payable": false,
      "stateMutability": "view",
      "type": "function"
    },
    {
      "constant": true,
      "inputs": [],
      "name": "SAFETY_INTERVAL_SETTING",
      "outputs": [
        {
          "internalType": "bytes32",
          "name": "",
          "type": "bytes32"
        }
      ],
      "payable": false,
      "stateMutability": "view",
      "type": "function"
    },
    {
      "constant": true,
      "inputs": [],
      "name": "TERMS_EXPIRY_TIME_SETTING",
      "outputs": [
        {
          "internalType": "bytes32",
          "name": "",
          "type": "bytes32"
        }
      ],
      "payable": false,
      "stateMutability": "view",
      "type": "function"
    },
    {
      "constant": true,
      "inputs": [
        {
          "internalType": "address",
          "name": "tokenAddress",
          "type": "address"
        }
      ],
      "name": "findTokenIndex",
      "outputs": [
        {
          "internalType": "int256",
          "name": "",
          "type": "int256"
        }
      ],
      "payable": false,
      "stateMutability": "view",
      "type": "function"
    },
    {
      "constant": true,
      "inputs": [],
      "name": "getTokens",
      "outputs": [
        {
          "internalType": "address[]",
          "name": "",
          "type": "address[]"
        }
      ],
      "payable": false,
      "stateMutability": "view",
      "type": "function"
    },
    {
      "constant": true,
      "inputs": [],
      "name": "initialized",
      "outputs": [
        {
          "internalType": "bool",
          "name": "value",
          "type": "bool"
        }
      ],
      "payable": false,
      "stateMutability": "view",
      "type": "function"
    },
    {
      "constant": true,
      "inputs": [],
      "name": "isOwner",
      "outputs": [
        {
          "internalType": "bool",
          "name": "",
          "type": "bool"
        }
      ],
      "payable": false,
      "stateMutability": "view",
      "type": "function"
    },
    {
      "constant": true,
      "inputs": [],
      "name": "loanID",
      "outputs": [
        {
          "internalType": "uint256",
          "name": "",
          "type": "uint256"
        }
      ],
      "payable": false,
      "stateMutability": "view",
      "type": "function"
    },
    {
      "constant": true,
      "inputs": [],
      "name": "loans",
      "outputs": [
        {
          "internalType": "contract LoansInterface",
          "name": "",
          "type": "address"
        }
      ],
      "payable": false,
      "stateMutability": "view",
      "type": "function"
    },
    {
      "constant": true,
      "inputs": [],
      "name": "owner",
      "outputs": [
        {
          "internalType": "address",
          "name": "",
          "type": "address"
        }
      ],
      "payable": false,
      "stateMutability": "view",
      "type": "function"
    },
    {
      "constant": false,
      "inputs": [],
      "name": "renounceOwnership",
      "outputs": [],
      "payable": false,
      "stateMutability": "nonpayable",
      "type": "function"
    },
    {
      "constant": true,
      "inputs": [],
      "name": "settings",
      "outputs": [
        {
          "internalType": "contract SettingsInterface",
          "name": "",
          "type": "address"
        }
      ],
      "payable": false,
      "stateMutability": "view",
      "type": "function"
    },
    {
      "constant": false,
      "inputs": [
        {
          "internalType": "address",
          "name": "newOwner",
          "type": "address"
        }
      ],
      "name": "transferOwnership",
      "outputs": [],
      "payable": false,
      "stateMutability": "nonpayable",
      "type": "function"
    },
    {
      "constant": true,
      "inputs": [],
      "name": "isLoanActive",
      "outputs": [
        {
          "internalType": "bool",
          "name": "",
          "type": "bool"
        }
      ],
      "payable": false,
      "stateMutability": "view",
      "type": "function"
    },
    {
      "constant": false,
      "inputs": [
        {
          "components": [
            {
              "internalType": "address",
              "name": "location",
              "type": "address"
            },
            {
              "internalType": "bytes",
              "name": "data",
              "type": "bytes"
            }
          ],
          "internalType": "struct TellerCommon.DappData",
          "name": "dappData",
          "type": "tuple"
        }
      ],
      "name": "callDapp",
      "outputs": [],
      "payable": false,
      "stateMutability": "nonpayable",
      "type": "function"
    },
    {
      "constant": true,
      "inputs": [],
      "name": "getBorrower",
      "outputs": [
        {
          "internalType": "address",
          "name": "",
          "type": "address"
        }
      ],
      "payable": false,
      "stateMutability": "view",
      "type": "function"
    },
    {
      "constant": true,
      "inputs": [],
      "name": "getLoan",
      "outputs": [
        {
          "components": [
            {
              "internalType": "uint256",
              "name": "id",
              "type": "uint256"
            },
            {
              "components": [
                {
                  "internalType": "address payable",
                  "name": "borrower",
                  "type": "address"
                },
                {
                  "internalType": "address",
                  "name": "recipient",
                  "type": "address"
                },
                {
                  "internalType": "uint256",
                  "name": "interestRate",
                  "type": "uint256"
                },
                {
                  "internalType": "uint256",
                  "name": "collateralRatio",
                  "type": "uint256"
                },
                {
                  "internalType": "uint256",
                  "name": "maxLoanAmount",
                  "type": "uint256"
                },
                {
                  "internalType": "uint256",
                  "name": "duration",
                  "type": "uint256"
                }
              ],
              "internalType": "struct TellerCommon.LoanTerms",
              "name": "loanTerms",
              "type": "tuple"
            },
            {
              "internalType": "uint256",
              "name": "termsExpiry",
              "type": "uint256"
            },
            {
              "internalType": "uint256",
              "name": "loanStartTime",
              "type": "uint256"
            },
            {
              "internalType": "uint256",
              "name": "collateral",
              "type": "uint256"
            },
            {
              "internalType": "uint256",
              "name": "lastCollateralIn",
              "type": "uint256"
            },
            {
              "internalType": "uint256",
              "name": "principalOwed",
              "type": "uint256"
            },
            {
              "internalType": "uint256",
              "name": "interestOwed",
              "type": "uint256"
            },
            {
              "internalType": "uint256",
              "name": "borrowedAmount",
              "type": "uint256"
            },
            {
              "internalType": "address",
              "name": "escrow",
              "type": "address"
            },
            {
              "internalType": "enum TellerCommon.LoanStatus",
              "name": "status",
              "type": "uint8"
            },
            {
              "internalType": "bool",
              "name": "liquidated",
              "type": "bool"
            }
          ],
          "internalType": "struct TellerCommon.Loan",
          "name": "",
          "type": "tuple"
        }
      ],
      "payable": false,
      "stateMutability": "view",
      "type": "function"
    },
    {
      "constant": true,
      "inputs": [],
      "name": "calculateTotalValue",
      "outputs": [
        {
          "components": [
            {
              "internalType": "uint256",
              "name": "valueInToken",
              "type": "uint256"
            },
            {
              "internalType": "uint256",
              "name": "valueInEth",
              "type": "uint256"
            }
          ],
          "internalType": "struct TellerCommon.EscrowValue",
          "name": "",
          "type": "tuple"
        }
      ],
      "payable": false,
      "stateMutability": "view",
      "type": "function"
    },
    {
      "constant": true,
      "inputs": [],
      "name": "canPurchase",
      "outputs": [
        {
          "internalType": "bool",
          "name": "",
          "type": "bool"
        }
      ],
      "payable": false,
      "stateMutability": "view",
      "type": "function"
    },
    {
      "constant": true,
      "inputs": [],
      "name": "isUnderValued",
      "outputs": [
        {
          "internalType": "bool",
          "name": "",
          "type": "bool"
        }
      ],
      "payable": false,
      "stateMutability": "view",
      "type": "function"
    },
    {
      "constant": false,
      "inputs": [],
      "name": "purchaseLoanDebt",
      "outputs": [],
      "payable": true,
      "stateMutability": "payable",
      "type": "function"
    },
    {
      "constant": false,
      "inputs": [
        {
          "internalType": "address",
          "name": "sender",
          "type": "address"
        }
      ],
      "name": "initialize",
      "outputs": [],
      "payable": false,
      "stateMutability": "nonpayable",
      "type": "function"
    },
    {
      "constant": false,
      "inputs": [
        {
          "internalType": "address",
          "name": "loansAddress",
          "type": "address"
        },
        {
          "internalType": "uint256",
          "name": "aLoanID",
          "type": "uint256"
        }
      ],
      "name": "initialize",
      "outputs": [],
      "payable": false,
      "stateMutability": "nonpayable",
      "type": "function"
    }
  ],
  "bytecode": "0x6080604052612cd4806100136000396000f3fe6080604052600436106101c25760003560e01c80638da5cb5b116100f7578063c4d66de811610095578063e06174e411610064578063e06174e41461044c578063e3f33d001461046e578063e9946b2014610483578063f2fde38b14610498576101c2565b8063c4d66de8146103e2578063cc44cadb14610402578063cd6dc68714610417578063e00a461514610437576101c2565b8063aa6ca808116100d1578063aa6ca80814610383578063ab794d21146103a5578063b41304b1146103ad578063c41dd8ce146103cd576101c2565b80638da5cb5b146103375780638f32d59b1461034c578063a06101d014610361576101c2565b80632efb15de116101645780633ff591d91161013e5780633ff591d9146102d4578063415dfa5b146102e95780634859b3f4146102fe578063715018a614610320576101c2565b80632efb15de1461029557806334a6d832146102aa5780633b98dfdb146102bf576101c2565b806311880cc8116101a057806311880cc814610227578063158ef93e1461023c5780631cb0c3e71461025e578063215b0dc614610280576101c2565b806308b04f62146101c75780630a11fd07146101f25780631139087a14610212575b600080fd5b3480156101d357600080fd5b506101dc6104b8565b6040516101e99190612a3f565b60405180910390f35b3480156101fe57600080fd5b506101dc61020d366004612258565b6104cf565b34801561021e57600080fd5b506101dc610501565b34801561023357600080fd5b506101dc610519565b34801561024857600080fd5b5061025161052e565b6040516101e99190612a31565b34801561026a57600080fd5b5061027361054d565b6040516101e991906129f7565b34801561028c57600080fd5b506101dc6105dc565b3480156102a157600080fd5b506102516105e2565b3480156102b657600080fd5b50610251610604565b3480156102cb57600080fd5b506101dc61068c565b3480156102e057600080fd5b506101dc6106b0565b3480156102f557600080fd5b506102516106ca565b34801561030a57600080fd5b5061031361075b565b6040516101e99190612b5a565b34801561032c57600080fd5b506103356107e5565b005b34801561034357600080fd5b5061027361085c565b34801561035857600080fd5b5061025161086b565b34801561036d57600080fd5b50610376610891565b6040516101e99190612b4c565b34801561038f57600080fd5b50610398610dcf565b6040516101e99190612a20565b610335610e31565b3480156103b957600080fd5b506103356103c8366004612330565b610f3a565b3480156103d957600080fd5b506101dc611171565b3480156103ee57600080fd5b506103356103fd366004612258565b611188565b34801561040e57600080fd5b506101dc61125a565b34801561042357600080fd5b5061033561043236600461229c565b611274565b34801561044357600080fd5b506101dc61142a565b34801561045857600080fd5b50610461611440565b6040516101e99190612a4d565b34801561047a57600080fd5b506101dc611462565b34801561048f57600080fd5b5061046161147d565b3480156104a457600080fd5b506103356104b3366004612258565b61148c565b6f21b7b63630ba32b930b6213ab33332b960811b81565b600080806104e460668563ffffffff6114bc16565b91509150816104f5576000196104f7565b805b925050505b919050565b704c6971756964617465457468507269636560781b81565b6d14d859995d1e525b9d195c9d985b60921b81565b60008060405161053d906129e1565b6040519081900390205492915050565b606754606854604051631c3d878d60e31b81526000926001600160a01b03169163e1ec3c68916105809190600401612a3f565b6102206040518083038186803b15801561059957600080fd5b505afa1580156105ad573d6000803e3d6000fd5b505050506040513d601f19601f820116820180604052506105d19190810190612365565b602001515190505b90565b60685481565b600060026105ee61075b565b610140015160038111156105fe57fe5b14905090565b606754606854604051636948f32b60e01b81526000926001600160a01b031691636948f32b916106379190600401612a3f565b60206040518083038186803b15801561064f57600080fd5b505afa158015610663573d6000803e3d6000fd5b505050506040513d601f19601f8201168201806040525061068791908101906122d6565b905090565b7f526571756573744c6f616e5465726d73526174654c696d69740000000000000081565b7252657175697265645375626d697373696f6e7360681b81565b606754606854604051623b929360e81b81526000926001600160a01b031691633b929300916106fc9190600401612a3f565b60206040518083038186803b15801561071457600080fd5b505afa158015610728573d6000803e3d6000fd5b505050506040513d601f19601f8201168201806040525061074c9190810190612312565b610754610891565b5110905090565b610763611f14565b606754606854604051631c3d878d60e31b81526001600160a01b039092169163e1ec3c689161079491600401612a3f565b6102206040518083038186803b1580156107ad57600080fd5b505afa1580156107c1573d6000803e3d6000fd5b505050506040513d601f19601f820116820180604052506106879190810190612365565b6107ed61086b565b6108125760405162461bcd60e51b815260040161080990612adc565b60405180910390fd5b6033546040516000916001600160a01b0316907f8be0079c531659141344cd1fd0a4f28419497f9722a3daafe3b4186f6b6457e0908390a3603380546001600160a01b0319169055565b6033546001600160a01b031690565b6033546000906001600160a01b0316610882611511565b6001600160a01b031614905090565b610899611f8f565b60606108a3610dcf565b90506000805b82518110156109815760006109648483815181106108c357fe5b60200260200101516108d3611440565b6001600160a01b031663a734f06e6040518163ffffffff1660e01b815260040160206040518083038186803b15801561090b57600080fd5b505afa15801561091f573d6000803e3d6000fd5b505050506040513d601f19601f82011682018060405250610943919081019061227e565b61095f87868151811061095257fe5b6020026020010151611515565b61159a565b9050610976838263ffffffff61175e16565b9250506001016108a9565b50600061098c61075b565b608001519050600061099c61075b565b60200151606001511115610a5a5760006109b4611440565b6001600160a01b031663269012a06f21b7b63630ba32b930b6213ab33332b960811b6040518263ffffffff1660e01b81526004016109f29190612a3f565b60206040518083038186803b158015610a0a57600080fd5b505afa158015610a1e573d6000803e3d6000fd5b505050506040513d601f19601f82011682018060405250610a429190810190612312565b905061271082820204610a558382611783565b925050505b610a62611440565b6001600160a01b031663a734f06e6040518163ffffffff1660e01b815260040160206040518083038186803b158015610a9a57600080fd5b505afa158015610aae573d6000803e3d6000fd5b505050506040513d601f19601f82011682018060405250610ad2919081019061227e565b6001600160a01b0316606760009054906101000a90046001600160a01b03166001600160a01b031663b2016bd46040518163ffffffff1660e01b815260040160206040518083038186803b158015610b2957600080fd5b505afa158015610b3d573d6000803e3d6000fd5b505050506040513d601f19601f82011682018060405250610b61919081019061227e565b6001600160a01b03161415610b8757610b80828263ffffffff61175e16565b9150610ca6565b6000610c90606760009054906101000a90046001600160a01b03166001600160a01b031663b2016bd46040518163ffffffff1660e01b815260040160206040518083038186803b158015610bda57600080fd5b505afa158015610bee573d6000803e3d6000fd5b505050506040513d601f19601f82011682018060405250610c12919081019061227e565b610c1a611440565b6001600160a01b031663a734f06e6040518163ffffffff1660e01b815260040160206040518083038186803b158015610c5257600080fd5b505afa158015610c66573d6000803e3d6000fd5b505050506040513d601f19601f82011682018060405250610c8a919081019061227e565b8461159a565b9050610ca2838263ffffffff61175e16565b9250505b6000610daf610cb3611440565b6001600160a01b031663a734f06e6040518163ffffffff1660e01b815260040160206040518083038186803b158015610ceb57600080fd5b505afa158015610cff573d6000803e3d6000fd5b505050506040513d601f19601f82011682018060405250610d23919081019061227e565b606760009054906101000a90046001600160a01b03166001600160a01b031663aaaca5586040518163ffffffff1660e01b815260040160206040518083038186803b158015610d7157600080fd5b505afa158015610d85573d6000803e3d6000fd5b505050506040513d601f19601f82011682018060405250610da9919081019061227e565b8561159a565b905060405180604001604052808281526020018481525094505050505090565b60606066805480602002602001604051908101604052809291908181526020018280548015610e2757602002820191906000526020600020905b81546001600160a01b03168152600190910190602001808311610e09575b5050505050905090565b610e39610604565b610e555760405162461bcd60e51b815260040161080990612b0c565b606754606854604051623b929360e81b81526001600160a01b039092169163d8aed145918391633b92930091610e8d91600401612a3f565b60206040518083038186803b158015610ea557600080fd5b505afa158015610eb9573d6000803e3d6000fd5b505050506040513d601f19601f82011682018060405250610edd9190810190612312565b6068546040518363ffffffff1660e01b8152600401610efd929190612b69565b600060405180830381600087803b158015610f1757600080fd5b505af1158015610f2b573d6000803e3d6000fd5b50505050610f38336117c5565b565b610f4261052e565b610f5e5760405162461bcd60e51b815260040161080990612b2c565b610f6661086b565b610f825760405162461bcd60e51b815260040161080990612adc565b610f8a611440565b6001600160a01b031663bdd1daaa6040518163ffffffff1660e01b815260040160206040518083038186803b158015610fc257600080fd5b505afa158015610fd6573d6000803e3d6000fd5b505050506040513d601f19601f82011682018060405250610ffa91908101906122f4565b6001600160a01b031663e52c35586110156020840184612258565b6040518263ffffffff1660e01b815260040161103191906129f7565b60206040518083038186803b15801561104957600080fd5b505afa15801561105d573d6000803e3d6000fd5b505050506040513d601f19601f8201168201806040525061108191908101906122d6565b61109d5760405162461bcd60e51b815260040161080990612abc565b60006110ac6020830183612258565b6001600160a01b031682602081018035601e19368490030181126110cf57600080fd5b9091016020810191503567ffffffffffffffff8111156110ee57600080fd5b368190038213156110fe57600080fd5b60405161110c9291906129d4565b600060405180830381855af49150503d8060008114611147576040519150601f19603f3d011682016040523d82523d6000602084013e61114c565b606091505b505090508061116d5760405162461bcd60e51b815260040161080990612a7c565b5050565b6f4d6178696d756d546f6c6572616e636560801b81565b600054610100900460ff16806111a157506111a1611847565b806111af575060005460ff16155b6111cb5760405162461bcd60e51b815260040161080990612aec565b600054610100900460ff161580156111f6576000805460ff1961ff0019909116610100171660011790555b603380546001600160a01b0319166001600160a01b0384811691909117918290556040519116906000907f8be0079c531659141344cd1fd0a4f28419497f9722a3daafe3b4186f6b6457e0908290a3801561116d576000805461ff00191690555050565b7226b0bc34b6bab6a637b0b7223ab930ba34b7b760691b81565b61127c61052e565b156112995760405162461bcd60e51b815260040161080990612b3c565b6112ab826001600160a01b031661184d565b6112c75760405162461bcd60e51b815260040161080990612a8c565b606780546001600160a01b0319166001600160a01b03841617905560688190556112f26103fd61054d565b6112fa611886565b61130261075b565b61010001516067546040805163155594ab60e31b8152905161138a926001600160a01b03169163aaaca558916004808301926020929190829003018186803b15801561134d57600080fd5b505afa158015611361573d6000803e3d6000fd5b505050506040513d601f19601f82011682018060405250611385919081019061227e565b611515565b146113a75760405162461bcd60e51b815260040161080990612b1c565b6067546040805163155594ab60e31b8152905161116d926001600160a01b03169163aaaca558916004808301926020929190829003018186803b1580156113ed57600080fd5b505afa158015611401573d6000803e3d6000fd5b505050506040513d601f19601f82011682018060405250611425919081019061227e565b6118a4565b6e5465726d7345787069727954696d6560881b81565b6000806000604051611451906129ec565b604051908190039020549250505090565b730a4cae6e0dedce6ca8af0e0d2e4f298cadccee8d60631b81565b6067546001600160a01b031681565b61149461086b565b6114b05760405162461bcd60e51b815260040161080990612adc565b6114b9816117c5565b50565b6000805b835481101561150a57826001600160a01b03168482815481106114df57fe5b6000918252602090912001546001600160a01b031614915081156115025761150a565b6001016114c0565b9250929050565b3390565b6040516370a0823160e01b81526000906001600160a01b038316906370a08231906115449030906004016129f7565b60206040518083038186803b15801561155c57600080fd5b505afa158015611570573d6000803e3d6000fd5b505050506040513d601f19601f820116820180604052506115949190810190612312565b92915050565b6000806115a5611440565b6001600160a01b031663a734f06e6040518163ffffffff1660e01b815260040160206040518083038186803b1580156115dd57600080fd5b505afa1580156115f1573d6000803e3d6000fd5b505050506040513d601f19601f82011682018060405250611615919081019061227e565b6001600160a01b0316856001600160a01b0316146116a357846001600160a01b031663313ce5676040518163ffffffff1660e01b815260040160206040518083038186803b15801561166657600080fd5b505afa15801561167a573d6000803e3d6000fd5b505050506040513d601f19601f8201168201806040525061169e9190810190612384565b6116a6565b60125b905060006116b48686611908565b90506000816001600160a01b03166396237c026040518163ffffffff1660e01b815260040160206040518083038186803b1580156116f157600080fd5b505afa158015611705573d6000803e3d6000fd5b505050506040513d601f19601f820116820180604052506117299190810190612312565b905061175160ff8416600a0a611745878463ffffffff611b1016565b9063ffffffff611b4a16565b93505050505b9392505050565b6000828201838110156117575760405162461bcd60e51b815260040161080990612a9c565b600061175783836040518060400160405280601e81526020017f536166654d6174683a207375627472616374696f6e206f766572666c6f770000815250611b8c565b6001600160a01b0381166117eb5760405162461bcd60e51b815260040161080990612a6c565b6033546040516001600160a01b038084169216907f8be0079c531659141344cd1fd0a4f28419497f9722a3daafe3b4186f6b6457e090600090a3603380546001600160a01b0319166001600160a01b0392909216919091179055565b303b1590565b6000813f7fc5d2460186f7233c927e7db2dcc703c0e500b653ca82273b7bfad8045d85a4708181148015906104f7575050151592915050565b6000604051611894906129e1565b6040519081900390206001905550565b6000806118b860668463ffffffff6114bc16565b9150915060006118c784611515565b11156118ea57816118e5576118e360668463ffffffff611bb816565b505b611903565b81156119035761190160668263ffffffff611c6c16565b505b505050565b6000611912611440565b6001600160a01b03166302d58da76040518163ffffffff1660e01b815260040160206040518083038186803b15801561194a57600080fd5b505afa15801561195e573d6000803e3d6000fd5b505050506040513d601f19601f8201168201806040525061198291908101906122f4565b6001600160a01b031663662a3e5884846040518363ffffffff1660e01b81526004016119af929190612a05565b60206040518083038186803b1580156119c757600080fd5b505afa1580156119db573d6000803e3d6000fd5b505050506040513d601f19601f820116820180604052506119ff91908101906122d6565b611a1b5760405162461bcd60e51b815260040161080990612afc565b611a23611440565b6001600160a01b03166302d58da76040518163ffffffff1660e01b815260040160206040518083038186803b158015611a5b57600080fd5b505afa158015611a6f573d6000803e3d6000fd5b505050506040513d601f19601f82011682018060405250611a9391908101906122f4565b6001600160a01b031663c495931784846040518363ffffffff1660e01b8152600401611ac0929190612a05565b60206040518083038186803b158015611ad857600080fd5b505afa158015611aec573d6000803e3d6000fd5b505050506040513d601f19601f8201168201806040525061175791908101906122f4565b600082611b1f57506000611594565b82820282848281611b2c57fe5b04146117575760405162461bcd60e51b815260040161080990612acc565b600061175783836040518060400160405280601a81526020017f536166654d6174683a206469766973696f6e206279207a65726f000000000000815250611edd565b60008184841115611bb05760405162461bcd60e51b81526004016108099190612a5b565b505050900390565b60606001600160a01b038216611be05760405162461bcd60e51b815260040161080990612aac565b8254600181018455600084815260209081902090910180546001600160a01b0319166001600160a01b0385161790558354604080518284028101840190915281815291859190830182828015611c5f57602002820191906000526020600020905b81546001600160a01b03168152600190910190602001808311611c41575b5050505050905092915050565b81546060908210611cd457825460408051602080840282018101909252828152918591830182828015611cc857602002820191906000526020600020905b81546001600160a01b03168152600190910190602001808311611caa575b50505050509050611594565b825460001901821415611d7857825483906000198101908110611cf357fe5b600091825260209091200180546001600160a01b03191690558254611d1c846000198301611fa9565b50825460408051602080840282018101909252828152918591830182828015611cc8576020028201919060005260206000209081546001600160a01b03168152600190910190602001808311611caa5750505050509050611594565b825460009084906000198101908110611d8d57fe5b60009182526020909120015484546001600160a01b039091169150849084908110611db457fe5b60009182526020909120015484546001600160a01b039091169085906000198101908110611dde57fe5b9060005260206000200160006101000a8154816001600160a01b0302191690836001600160a01b0316021790555080848481548110611e1957fe5b600091825260209091200180546001600160a01b0319166001600160a01b0392909216919091179055835484906000198101908110611e5457fe5b600091825260209091200180546001600160a01b03191690558354611e7d856000198301611fa9565b50835460408051602080840282018101909252828152918691830182828015611ecf57602002820191906000526020600020905b81546001600160a01b03168152600190910190602001808311611eb1575b505050505091505092915050565b60008183611efe5760405162461bcd60e51b81526004016108099190612a5b565b506000838581611f0a57fe5b0495945050505050565b60405180610180016040528060008152602001611f2f611fcd565b81526020016000815260200160008152602001600081526020016000815260200160008152602001600081526020016000815260200160006001600160a01b0316815260200160006003811115611f8257fe5b8152600060209091015290565b604051806040016040528060008152602001600081525090565b81548183558181111561190357600083815260209020611903918101908301612015565b6040518060c0016040528060006001600160a01b0316815260200160006001600160a01b03168152602001600081526020016000815260200160008152602001600081525090565b6105d991905b8082111561202f576000815560010161201b565b5090565b803561159481612c4c565b805161159481612c4c565b805161159481612c60565b805161159481612c69565b805161159481612c72565b805161159481612c7f565b60006040828403121561208757600080fd5b50919050565b600060c0828403121561209f57600080fd5b6120a960c0612b84565b905060006120b7848461203e565b82525060206120c88484830161203e565b60208301525060406120dc8482850161206a565b60408301525060606120f08482850161206a565b60608301525060806121048482850161206a565b60808301525060a06121188482850161206a565b60a08301525092915050565b6000610220828403121561213757600080fd5b612142610180612b84565b90506000612150848461206a565b82525060206121618484830161208d565b60208301525060e06121758482850161206a565b60408301525061010061218a8482850161206a565b60608301525061012061219f8482850161206a565b6080830152506101406121b48482850161206a565b60a0830152506101606121c98482850161206a565b60c0830152506101806121de8482850161206a565b60e0830152506101a06121f38482850161206a565b610100830152506101c06122098482850161203e565b610120830152506101e061221f8482850161205f565b6101408301525061020061223584828501612049565b6101608301525092915050565b803561159481612c7f565b805161159481612c88565b60006020828403121561226a57600080fd5b60006122768484612033565b949350505050565b60006020828403121561229057600080fd5b6000612276848461203e565b600080604083850312156122af57600080fd5b60006122bb8585612033565b92505060206122cc85828601612242565b9150509250929050565b6000602082840312156122e857600080fd5b60006122768484612049565b60006020828403121561230657600080fd5b60006122768484612054565b60006020828403121561232457600080fd5b6000612276848461206a565b60006020828403121561234257600080fd5b813567ffffffffffffffff81111561235957600080fd5b61227684828501612075565b6000610220828403121561237857600080fd5b60006122768484612124565b60006020828403121561239657600080fd5b6000612276848461224d565b60006123ae83836123b6565b505060200190565b6123bf81612bbe565b82525050565b60006123d082612bb1565b6123da8185612bb5565b93506123e583612bab565b8060005b838110156124135781516123fd88826123a2565b975061240883612bab565b9250506001016123e9565b509495945050505050565b6123bf81612bc9565b6123bf816105d9565b600061243c83856104fc565b9350612449838584612c00565b50500190565b6123bf81612bce565b6123bf81612bf5565b600061246c82612bb1565b6124768185612bb5565b9350612486818560208601612c0c565b61248f81612c38565b9093019392505050565b60006124a6601c836104fc565b7f54496e697469616c697a61626c652e6973496e697469616c697a6564000000008152601c0192915050565b60006124df602683612bb5565b7f4f776e61626c653a206e6577206f776e657220697320746865207a65726f206181526564647265737360d01b602082015260400192915050565b6000612527601083612bb5565b6f1110541417d0d0531317d1905253115160821b815260200192915050565b6000612553601883612bb5565b7f4c4f414e535f4d5553545f42455f415f434f4e54524143540000000000000000815260200192915050565b600061258c601b83612bb5565b7f536166654d6174683a206164646974696f6e206f766572666c6f770000000000815260200192915050565b60006125c5601983612bb5565b7f454d5054595f414444524553535f4e4f545f414c4c4f57454400000000000000815260200192915050565b60006125fe601483612bb5565b731110541417d393d517d5d2125511531254d5115160621b815260200192915050565b600061262e602183612bb5565b7f536166654d6174683a206d756c7469706c69636174696f6e206f766572666c6f8152607760f81b602082015260400192915050565b6000612671602083612bb5565b7f4f776e61626c653a2063616c6c6572206973206e6f7420746865206f776e6572815260200192915050565b60006126aa602e83612bb5565b7f436f6e747261637420696e7374616e63652068617320616c726561647920626581526d195b881a5b9a5d1a585b1a5e995960921b602082015260400192915050565b60006126fa602483612bb5565b7f434841494e4c494e4b5f504149525f41474752454741544f525f4e4f545f45588152634953545360e01b602082015260400192915050565b6000612740601d83612bb5565b7f455343524f575f494e454c494749424c455f544f5f5055524348415345000000815260200192915050565b6000612779601d83612bb5565b7f455343524f575f42414c414e43455f4e4f545f4d415443485f4c4f414e000000815260200192915050565b60006127b26018836104fc565b7f426173655570677261646561626c652e73657474696e67730000000000000000815260180192915050565b60006127eb601883612bb5565b7f434f4e54524143545f4e4f545f494e495449414c495a45440000000000000000815260200192915050565b6000612824601c83612bb5565b7f434f4e54524143545f414c52454144595f494e495449414c495a454400000000815260200192915050565b805160408301906128618482612427565b5060208201516119016020850182612427565b805160c083019061288584826123b6565b50602082015161289860208501826123b6565b5060408201516128ab6040850182612427565b5060608201516128be6060850182612427565b5060808201516128d16080850182612427565b5060a082015161190160a0850182612427565b80516102208301906128f68482612427565b5060208201516129096020850182612874565b50604082015161291c60e0850182612427565b506060820151612930610100850182612427565b506080820151612944610120850182612427565b5060a0820151612958610140850182612427565b5060c082015161296c610160850182612427565b5060e0820151612980610180850182612427565b506101008201516129956101a0850182612427565b506101208201516129aa6101c08501826123b6565b506101408201516129bf6101e0850182612458565b5061016082015161190161020085018261241e565b6000612276828486612430565b600061159482612499565b6000611594826127a5565b6020810161159482846123b6565b60408101612a1382856123b6565b61175760208301846123b6565b6020808252810161175781846123c5565b60208101611594828461241e565b602081016115948284612427565b60208101611594828461244f565b602080825281016117578184612461565b60208082528101611594816124d2565b602080825281016115948161251a565b6020808252810161159481612546565b602080825281016115948161257f565b60208082528101611594816125b8565b60208082528101611594816125f1565b6020808252810161159481612621565b6020808252810161159481612664565b602080825281016115948161269d565b60208082528101611594816126ed565b6020808252810161159481612733565b602080825281016115948161276c565b60208082528101611594816127de565b6020808252810161159481612817565b604081016115948284612850565b610220810161159482846128e4565b60408101612b778285612427565b6117576020830184612427565b60405181810167ffffffffffffffff81118282101715612ba357600080fd5b604052919050565b60200190565b5190565b90815260200190565b600061159482612be3565b151590565b600061159482612bbe565b806104fc81612c42565b6001600160a01b031690565b60ff1690565b600061159482612bd9565b82818337506000910152565b60005b83811015612c27578181015183820152602001612c0f565b838111156119015750506000910152565b601f01601f191690565b600481106114b957fe5b612c5581612bbe565b81146114b957600080fd5b612c5581612bc9565b612c5581612bce565b600481106114b957600080fd5b612c55816105d9565b612c5581612bef56fea365627a7a7231582088610654c6e77fac7ba795c94f4835410c2e8a8205ed4dc94d51ecf1cb6fdd796c6578706572696d656e74616cf564736f6c63430005110040",
  "source": "pragma solidity 0.5.17;\npragma experimental ABIEncoderV2;\n\n// Contracts\nimport \"@openzeppelin/contracts-ethereum-package/contracts/ownership/Ownable.sol\";\nimport \"./BaseUpgradeable.sol\";\nimport \"./BaseEscrowDapp.sol\";\nimport \"./TInitializable.sol\";\n\n// Interfaces\nimport \"../interfaces/EscrowInterface.sol\";\nimport \"../interfaces/LoansInterface.sol\";\nimport \"../interfaces/PairAggregatorInterface.sol\";\n\n// Libraries\nimport \"@openzeppelin/contracts-ethereum-package/contracts/math/SafeMath.sol\";\nimport \"@openzeppelin/contracts-ethereum-package/contracts/token/ERC20/ERC20Detailed.sol\";\nimport \"../util/SettingsConsts.sol\";\nimport \"../util/TellerCommon.sol\";\n\n/*****************************************************************************************************/\n/**                                             WARNING                                             **/\n/**                                  THIS CONTRACT IS UPGRADEABLE!                                  **/\n/**  ---------------------------------------------------------------------------------------------  **/\n/**  Do NOT change the order of or PREPEND any storage variables to this or new versions of this    **/\n/**  contract as this will cause the the storage slots to be overwritten on the proxy contract!!    **/\n/**                                                                                                 **/\n/**  Visit https://docs.openzeppelin.com/upgrades/2.6/proxies#upgrading-via-the-proxy-pattern for   **/\n/**  more information.                                                                              **/\n/*****************************************************************************************************/\n/**\n    @notice This contract is used by borrowers to call DApp functions (using delegate calls).\n    @notice This contract should only be constructed using it's upgradeable Proxy contract.\n    @notice In order to call a DApp function, the DApp must be added in the EscrowFactory instance.\n    @dev The current DApp implementations are: Uniswap and Compound.\n\n    @author develop@teller.finance\n */\ncontract Escrow is\n    EscrowInterface,\n    TInitializable,\n    Ownable,\n    BaseUpgradeable,\n    BaseEscrowDapp,\n    SettingsConsts\n{\n    using Address for address;\n    using SafeMath for uint256;\n\n    /** State Variables **/\n\n    /**\n        @notice It is the current loans contract instance.\n     */\n    LoansInterface public loans;\n\n    /**\n        @notice This loan id refers the loan in the loans contract.\n        @notice This loan was taken out by a borrower.\n     */\n    uint256 public loanID;\n\n    /** Modifiers **/\n\n    /** Public Functions **/\n\n    function isLoanActive() public view returns (bool) {\n        return getLoan().status == TellerCommon.LoanStatus.Active;\n    }\n\n    /**\n        @notice It calls a given dapp using a delegatecall function by a borrower owned the current loan id associated to this escrow contract.\n        @param dappData the current dapp data to be executed.\n     */\n    function callDapp(TellerCommon.DappData calldata dappData)\n        external\n        isInitialized()\n        onlyOwner()\n    {\n        require(\n            settings().escrowFactory().isDapp(dappData.location),\n            \"DAPP_NOT_WHITELISTED\"\n        );\n\n        (bool success, ) = dappData.location.delegatecall(dappData.data);\n\n        require(success, \"DAPP_CALL_FAILED\");\n    }\n\n    /**\n        @notice Gets the borrower for this Escrow's loan.\n        @return address of this Escrow's loans\n     */\n    function getBorrower() public view returns (address) {\n        return loans.loans(loanID).loanTerms.borrower;\n    }\n\n    function getLoan() public view returns (TellerCommon.Loan memory) {\n        return loans.loans(loanID);\n    }\n\n    function calculateTotalValue() public view returns (TellerCommon.EscrowValue memory) {\n        address[] memory tokens = getTokens();\n\n        uint256 valueInEth = 0;\n\n        for (uint256 i = 0; i < tokens.length; i++) {\n            uint256 tokenEthValue = _valueOfIn(\n                tokens[i],\n                settings().ETH_ADDRESS(),\n                _balanceOf(tokens[i])\n            );\n            valueInEth = valueInEth.add(tokenEthValue);\n        }\n\n        uint256 collateralValue = getLoan().collateral;\n        if (getLoan().loanTerms.collateralRatio > 0) {\n            uint256 bufferPercent = settings().getPlatformSettingValue(\n                COLLATERAL_BUFFER_SETTING\n            );\n            uint256 buffer = (collateralValue * bufferPercent) / 10000;\n            collateralValue = collateralValue.sub(buffer);\n        }\n\n        if (loans.collateralToken() == settings().ETH_ADDRESS()) {\n            valueInEth = valueInEth.add(collateralValue);\n        } else {\n            uint256 collateralEthValue = _valueOfIn(\n                loans.collateralToken(),\n                settings().ETH_ADDRESS(),\n                collateralValue\n            );\n            valueInEth = valueInEth.add(collateralEthValue);\n        }\n\n        uint256 valueInToken = _valueOfIn(\n            settings().ETH_ADDRESS(),\n            loans.lendingToken(),\n            valueInEth\n        );\n\n        return\n            TellerCommon.EscrowValue({\n                valueInEth: valueInEth,\n                valueInToken: valueInToken\n            });\n    }\n\n    function canPurchase() public view returns (bool) {\n        return loans.canLiquidateLoan(loanID);\n    }\n\n    function isUnderValued() external view returns (bool) {\n        return calculateTotalValue().valueInToken < loans.getTotalOwed(loanID);\n    }\n\n    function purchaseLoanDebt() external payable {\n        require(canPurchase(), \"ESCROW_INELIGIBLE_TO_PURCHASE\");\n\n        loans.repay(loans.getTotalOwed(loanID), loanID);\n\n        _transferOwnership(msg.sender);\n    }\n\n    /**\n        @notice It initializes this escrow instance for a given loans address and loan id.\n        @param loansAddress loans contract address.\n        @param aLoanID the loan ID associated to this escrow instance.\n     */\n    function initialize(address loansAddress, uint256 aLoanID) public isNotInitialized() {\n        require(loansAddress.isContract(), \"LOANS_MUST_BE_A_CONTRACT\");\n\n        loans = LoansInterface(loansAddress);\n        loanID = aLoanID;\n\n        Ownable.initialize(getBorrower());\n        TInitializable._initialize();\n\n        // Initialize tokens list with the borrowed token.\n        require(\n            _balanceOf(loans.lendingToken()) == getLoan().borrowedAmount,\n            \"ESCROW_BALANCE_NOT_MATCH_LOAN\"\n        );\n        _tokenUpdated(loans.lendingToken());\n    }\n\n    /** Internal Functions */\n\n    function _valueOfIn(\n        address baseAddress,\n        address quoteAddress,\n        uint256 baseAmount\n    ) internal view returns (uint256) {\n        uint8 baseDecimals = baseAddress == settings().ETH_ADDRESS()\n            ? 18\n            : ERC20Detailed(baseAddress).decimals();\n        PairAggregatorInterface aggregator = _getAggregatorFor(baseAddress, quoteAddress);\n        uint256 oneTokenPrice = uint256(aggregator.getLatestAnswer());\n        // TODO: better way with SafeMath?\n        return baseAmount.mul(oneTokenPrice).div(uint256(10)**baseDecimals);\n    }\n\n    function _getAggregatorFor(address base, address quote)\n        internal\n        view\n        returns (PairAggregatorInterface)\n    {\n        require(\n            settings().pairAggregatorRegistry().hasPairAggregator(base, quote),\n            \"CHAINLINK_PAIR_AGGREGATOR_NOT_EXISTS\"\n        );\n\n        return settings().pairAggregatorRegistry().getPairAggregator(base, quote);\n    }\n}\n",
  "sourcePath": "/Users/sy/Documents/GitHub/teller-protocol-v1/contracts/base/Escrow.sol",
  "compiler": {
    "name": "solc",
    "version": "0.5.17+commit.d19bba13.Emscripten.clang"
  },
  "schemaVersion": "3.0.23",
  "updatedAt": "2020-09-06T02:15:12.156Z",
  "devdoc": {
    "author": "develop@teller.finance",
    "details": "The current DApp implementations are: Uniswap and Compound.",
    "methods": {
      "callDapp((address,bytes))": {
        "params": {
          "dappData": "the current dapp data to be executed."
        }
      },
      "getBorrower()": {
        "return": "address of this Escrow's loans"
      },
      "initialize(address)": {
        "details": "Initializes the contract setting the deployer as the initial owner."
      },
      "initialize(address,uint256)": {
        "params": {
          "aLoanID": "the loan ID associated to this escrow instance.",
          "loansAddress": "loans contract address."
        }
      },
      "initialized()": {
        "return": "true if contract is initialized. Otherwise it returns false."
      },
      "isOwner()": {
        "details": "Returns true if the caller is the current owner."
      },
      "owner()": {
        "details": "Returns the address of the current owner."
      },
      "renounceOwnership()": {
        "details": "Leaves the contract without owner. It will not be possible to call `onlyOwner` functions anymore. Can only be called by the current owner.     * > Note: Renouncing ownership will leave the contract without an owner, thereby removing any functionality that is only available to the owner."
      },
      "transferOwnership(address)": {
        "details": "Transfers ownership of the contract to a new account (`newOwner`). Can only be called by the current owner."
      }
    }
  },
  "userdoc": {
    "methods": {
      "callDapp((address,bytes))": {
        "notice": "It calls a given dapp using a delegatecall function by a borrower owned the current loan id associated to this escrow contract."
      },
      "getBorrower()": {
        "notice": "Gets the borrower for this Escrow's loan."
      },
      "initialize(address,uint256)": {
        "notice": "It initializes this escrow instance for a given loans address and loan id."
      },
      "initialized()": {
        "notice": "Gets if the contract is initialized."
      },
      "isLoanActive()": {
        "notice": "Public Functions *"
      },
      "settings()": {
        "notice": "The settings contract."
      }
    },
    "notice": "This contract is used by borrowers to call DApp functions (using delegate calls).This contract should only be constructed using it's upgradeable Proxy contract.In order to call a DApp function, the DApp must be added in the EscrowFactory instance."
  }
}