{
  "contractName": "EscrowFactoryMock",
  "abi": [
    {
      "inputs": [
        {
          "internalType": "address",
          "name": "_escrowLibrary",
          "type": "address"
        }
      ],
      "payable": false,
      "stateMutability": "nonpayable",
      "type": "constructor"
    },
    {
      "anonymous": false,
      "inputs": [
        {
          "indexed": false,
          "internalType": "address",
          "name": "borrower",
          "type": "address"
        },
        {
          "indexed": false,
          "internalType": "address",
          "name": "loansAddress",
          "type": "address"
        },
        {
          "indexed": false,
          "internalType": "uint256",
          "name": "loanID",
          "type": "uint256"
        },
        {
          "indexed": false,
          "internalType": "address",
          "name": "escrowAddress",
          "type": "address"
        }
      ],
      "name": "EscrowCreated",
      "type": "event"
    },
    {
      "anonymous": false,
      "inputs": [
        {
          "indexed": false,
          "internalType": "address",
          "name": "account",
          "type": "address"
        }
      ],
      "name": "Paused",
      "type": "event"
    },
    {
      "anonymous": false,
      "inputs": [
        {
          "indexed": true,
          "internalType": "address",
          "name": "account",
          "type": "address"
        }
      ],
      "name": "PauserAdded",
      "type": "event"
    },
    {
      "anonymous": false,
      "inputs": [
        {
          "indexed": true,
          "internalType": "address",
          "name": "account",
          "type": "address"
        }
      ],
      "name": "PauserRemoved",
      "type": "event"
    },
    {
      "anonymous": false,
      "inputs": [
        {
          "indexed": false,
          "internalType": "address",
          "name": "account",
          "type": "address"
        }
      ],
      "name": "Unpaused",
      "type": "event"
    },
    {
      "constant": false,
      "inputs": [
        {
          "internalType": "address",
          "name": "dapp",
          "type": "address"
        }
      ],
      "name": "addDapp",
      "outputs": [],
      "payable": false,
      "stateMutability": "nonpayable",
      "type": "function"
    },
    {
      "constant": false,
      "inputs": [
        {
          "internalType": "address",
          "name": "account",
          "type": "address"
        }
      ],
      "name": "addPauser",
      "outputs": [],
      "payable": false,
      "stateMutability": "nonpayable",
      "type": "function"
    },
    {
      "constant": false,
      "inputs": [
        {
          "internalType": "uint256",
          "name": "loanID",
          "type": "uint256"
        }
      ],
      "name": "computeEscrowAddress",
      "outputs": [
        {
          "internalType": "address",
          "name": "result",
          "type": "address"
        }
      ],
      "payable": false,
      "stateMutability": "nonpayable",
      "type": "function"
    },
    {
      "constant": false,
      "inputs": [
        {
          "internalType": "uint256",
          "name": "loanID",
          "type": "uint256"
        }
      ],
      "name": "computeEscrowSalt",
      "outputs": [
        {
          "internalType": "bytes32",
          "name": "",
          "type": "bytes32"
        }
      ],
      "payable": false,
      "stateMutability": "nonpayable",
      "type": "function"
    },
    {
      "constant": false,
      "inputs": [
        {
          "internalType": "uint256",
          "name": "loanID",
          "type": "uint256"
        }
      ],
      "name": "createEscrow",
      "outputs": [
        {
          "internalType": "address",
          "name": "cloneAddress",
          "type": "address"
        }
      ],
      "payable": false,
      "stateMutability": "nonpayable",
      "type": "function"
    },
    {
      "constant": true,
      "inputs": [],
      "name": "escrowLibrary",
      "outputs": [
        {
          "internalType": "address",
          "name": "",
          "type": "address"
        }
      ],
      "payable": false,
      "stateMutability": "view",
      "type": "function"
    },
    {
      "constant": true,
      "inputs": [],
      "name": "getEscrowBytecode",
      "outputs": [
        {
          "internalType": "bytes",
          "name": "",
          "type": "bytes"
        }
      ],
      "payable": false,
      "stateMutability": "view",
      "type": "function"
    },
    {
      "constant": true,
      "inputs": [
        {
          "internalType": "address",
          "name": "dapp",
          "type": "address"
        }
      ],
      "name": "isDappWhitelisted",
      "outputs": [
        {
          "internalType": "bool",
          "name": "",
          "type": "bool"
        }
      ],
      "payable": false,
      "stateMutability": "view",
      "type": "function"
    },
    {
      "constant": true,
      "inputs": [
        {
          "internalType": "address",
          "name": "account",
          "type": "address"
        }
      ],
      "name": "isPauser",
      "outputs": [
        {
          "internalType": "bool",
          "name": "",
          "type": "bool"
        }
      ],
      "payable": false,
      "stateMutability": "view",
      "type": "function"
    },
    {
      "constant": false,
      "inputs": [],
      "name": "pause",
      "outputs": [],
      "payable": false,
      "stateMutability": "nonpayable",
      "type": "function"
    },
    {
      "constant": true,
      "inputs": [],
      "name": "paused",
      "outputs": [
        {
          "internalType": "bool",
          "name": "",
          "type": "bool"
        }
      ],
      "payable": false,
      "stateMutability": "view",
      "type": "function"
    },
    {
      "constant": false,
      "inputs": [
        {
          "internalType": "address",
          "name": "dapp",
          "type": "address"
        }
      ],
      "name": "removeDapp",
      "outputs": [],
      "payable": false,
      "stateMutability": "nonpayable",
      "type": "function"
    },
    {
      "constant": false,
      "inputs": [],
      "name": "renouncePauser",
      "outputs": [],
      "payable": false,
      "stateMutability": "nonpayable",
      "type": "function"
    },
    {
      "constant": false,
      "inputs": [],
      "name": "unpause",
      "outputs": [],
      "payable": false,
      "stateMutability": "nonpayable",
      "type": "function"
    },
    {
      "constant": true,
      "inputs": [
        {
          "internalType": "address",
          "name": "",
          "type": "address"
        }
      ],
      "name": "whitelistedDapps",
      "outputs": [
        {
          "internalType": "bool",
          "name": "",
          "type": "bool"
        }
      ],
      "payable": false,
      "stateMutability": "view",
      "type": "function"
    },
    {
      "constant": false,
      "inputs": [
        {
          "internalType": "address",
          "name": "dapp",
          "type": "address"
        }
      ],
      "name": "enableDapp",
      "outputs": [],
      "payable": false,
      "stateMutability": "nonpayable",
      "type": "function"
    }
  ],
  "bytecode": "0x60806040523480156200001157600080fd5b50604051620012ba380380620012ba8339810160408190526200003491620001a1565b806200005b6200004c6001600160e01b036200008c16565b6001600160e01b036200009016565b6001805460ff19169055600380546001600160a01b0319166001600160a01b039290921691909117905550620002a4565b3390565b620000ab816000620000e260201b620008511790919060201c565b6040516001600160a01b038216907f6719d08c1888103bea251a4ed56406bd0c3e69723c8a1686e017e7bbe159b6f890600090a250565b620000f782826001600160e01b036200014516565b15620001205760405162461bcd60e51b815260040162000117906200024b565b60405180910390fd5b6001600160a01b0316600090815260209190915260409020805460ff19166001179055565b60006001600160a01b038216620001705760405162461bcd60e51b815260040162000117906200025d565b506001600160a01b03811660009081526020839052604090205460ff165b92915050565b80516200018e816200028a565b600060208284031215620001b457600080fd5b6000620001c2848462000194565b949350505050565b6000620001d9601f836200026f565b7f526f6c65733a206163636f756e7420616c72656164792068617320726f6c6500815260200192915050565b6000620002146022836200026f565b7f526f6c65733a206163636f756e7420697320746865207a65726f206164647265815261737360f01b602082015260400192915050565b602080825281016200018e81620001ca565b602080825281016200018e8162000205565b90815260200190565b60006001600160a01b0382166200018e565b620002958162000278565b8114620002a157600080fd5b50565b61100680620002b46000396000f3fe608060405234801561001057600080fd5b50600436106101005760003560e01c80636ef8d66d1161009757806395d6a95d1161006657806395d6a95d146101d757806396bfe097146101ec578063e749d6a61461020c578063efd67c271461021f57610100565b80636ef8d66d146101a157806382dc1ec4146101a95780638456cb59146101bc5780638da2c873146101c457610100565b80635afbf958116100d35780635afbf9581461016b5780635c975abb1461017e578063627c55f61461018657806367f31fbb1461019957610100565b806327b7ca5f146101055780633f4ba83a1461011a57806346fbf68e14610122578063499392f71461014b575b600080fd5b610118610113366004610a7e565b610232565b005b6101186102ac565b610135610130366004610a7e565b61033f565b6040516101429190610e21565b60405180910390f35b61015e610159366004610ac3565b610357565b6040516101429190610da5565b610135610179366004610a7e565b6103b5565b6101356103d3565b610118610194366004610a7e565b6103dc565b61015e610449565b610118610458565b6101186101b7366004610a7e565b61046a565b61011861049d565b61015e6101d2366004610ac3565b61051c565b6101df61066c565b6040516101429190610e3d565b6101ff6101fa366004610ac3565b6106e6565b6040516101429190610e2f565b61013561021a366004610a7e565b610718565b61011861022d366004610a7e565b610288565b61023d61013061072d565b6102625760405162461bcd60e51b815260040161025990610e7e565b60405180910390fd5b61026b816103b5565b156102885760405162461bcd60e51b815260040161025990610ebe565b6001600160a01b03166000908152600260205260409020805460ff19166001179055565b6102b761013061072d565b6102d35760405162461bcd60e51b815260040161025990610e7e565b60015460ff166102f55760405162461bcd60e51b815260040161025990610e5e565b6001805460ff191690557f5db9ee0a495bf2e6ff9c91a7834c1ba4fdd244a5e8aa4e537bd38aeae4b073aa61032861072d565b6040516103359190610db3565b60405180910390a1565b6000610351818363ffffffff61073116565b92915050565b6000806001600160f81b03193061036d856106e6565b61037561066c565b805160209182012060405161038d9594939201610d5d565b60408051808303601f1901815291905280516020909101206001600160a01b03169392505050565b6001600160a01b031660009081526002602052604090205460ff1690565b60015460ff1690565b6103e761013061072d565b6104035760405162461bcd60e51b815260040161025990610e7e565b61040c816103b5565b6104285760405162461bcd60e51b815260040161025990610e4e565b6001600160a01b03166000908152600260205260409020805460ff19169055565b6003546001600160a01b031681565b61046861046361072d565b610779565b565b61047561013061072d565b6104915760405162461bcd60e51b815260040161025990610e7e565b61049a816107c1565b50565b6104a861013061072d565b6104c45760405162461bcd60e51b815260040161025990610e7e565b60015460ff16156104e75760405162461bcd60e51b815260040161025990610e8e565b6001805460ff1916811790557f62e78cea01bee320cd4e420270b5ea74000d11b0c9f74754ebdbfc544b05a25861032861072d565b600080610528836106e6565b9050606061053461066c565b9050818151602083016000f5604051637f6d015b60e11b815290935083906001600160a01b0382169063feda02b6906105739033908990600401610dc1565b600060405180830381600087803b15801561058d57600080fd5b505af11580156105a1573d6000803e3d6000fd5b5050604051631c3d878d60e31b81526000925033915063e1ec3c68906105cb908990600401610e2f565b6102006040518083038186803b1580156105e457600080fd5b505afa1580156105f8573d6000803e3d6000fd5b505050506040513d601f19601f8201168201806040525061061c9190810190610aa4565b602001516000015190507f1766e5b0843b46e0afea03af5182836a1dc9eae60f592f44b8b4960b08d652108133888860405161065b9493929190610de3565b60405180910390a150505050919050565b60035460408051603780825260608083019093529192831b6bffffffffffffffffffffffff1916918391906020820181803883395050733d602d80600a3d3981f3363d3d373d3d3d363d7360601b6020830152506034810192909252506e5af43d82803e903d91602b57fd5bf360881b6048820152919050565b600033826040516020016106fb929190610d37565b604051602081830303815290604052805190602001209050919050565b60026020526000908152604090205460ff1681565b3390565b60006001600160a01b0382166107595760405162461bcd60e51b815260040161025990610eae565b506001600160a01b03166000908152602091909152604090205460ff1690565b61078a60008263ffffffff61080916565b6040516001600160a01b038216907fcd265ebaf09df2871cc7bd4133404a235ba12eff2041bb89d9c714a2621c7c7e90600090a250565b6107d260008263ffffffff61085116565b6040516001600160a01b038216907f6719d08c1888103bea251a4ed56406bd0c3e69723c8a1686e017e7bbe159b6f890600090a250565b6108138282610731565b61082f5760405162461bcd60e51b815260040161025990610e9e565b6001600160a01b0316600090815260209190915260409020805460ff19169055565b61085b8282610731565b156108785760405162461bcd60e51b815260040161025990610e6e565b6001600160a01b0316600090815260209190915260409020805460ff19166001179055565b803561035181610f90565b805161035181610f90565b805161035181610fa4565b805161035181610fad565b600060c082840312156108db57600080fd5b6108e560c0610ece565b905060006108f384846108a8565b8252506020610904848483016108a8565b602083015250604061091884828501610a73565b604083015250606061092c84828501610a73565b606083015250608061094084828501610a73565b60808301525060a061095484828501610a73565b60a08301525092915050565b6000610200828403121561097357600080fd5b61097e610160610ece565b9050600061098c8484610a73565b825250602061099d848483016108c9565b60208301525060e06109b184828501610a73565b6040830152506101006109c684828501610a73565b6060830152506101206109db84828501610a73565b6080830152506101406109f084828501610a73565b60a083015250610160610a0584828501610a73565b60c083015250610180610a1a84828501610a73565b60e0830152506101a0610a2f84828501610a73565b610100830152506101c0610a45848285016108be565b610120830152506101e0610a5b848285016108b3565b6101408301525092915050565b803561035181610fba565b805161035181610fba565b600060208284031215610a9057600080fd5b6000610a9c848461089d565b949350505050565b60006102008284031215610ab757600080fd5b6000610a9c8484610960565b600060208284031215610ad557600080fd5b6000610a9c8484610a68565b610aea81610f2e565b82525050565b610aea610afc82610f02565b610f6f565b610aea81610f02565b610aea81610f0d565b610aea610b1f82610f12565b610f1f565b610aea81610f1f565b610aea610b1f82610f1f565b6000610b4482610ef5565b610b4e8185610ef9565b9350610b5e818560208601610f3f565b610b6781610f80565b9093019392505050565b6000610b7e600e83610ef9565b6d1110541417d393d517d1561254d560921b815260200192915050565b6000610ba8601483610ef9565b7314185d5cd8589b194e881b9bdd081c185d5cd95960621b815260200192915050565b6000610bd8601f83610ef9565b7f526f6c65733a206163636f756e7420616c72656164792068617320726f6c6500815260200192915050565b6000610c11603083610ef9565b7f506175736572526f6c653a2063616c6c657220646f6573206e6f74206861766581526f207468652050617573657220726f6c6560801b602082015260400192915050565b6000610c63601083610ef9565b6f14185d5cd8589b194e881c185d5cd95960821b815260200192915050565b6000610c8f602183610ef9565b7f526f6c65733a206163636f756e7420646f6573206e6f74206861766520726f6c8152606560f81b602082015260400192915050565b6000610cd2602283610ef9565b7f526f6c65733a206163636f756e7420697320746865207a65726f206164647265815261737360f01b602082015260400192915050565b6000610d16601283610ef9565b711110541417d053149150511657d1561254d560721b815260200192915050565b6000610d438285610af0565b601482019150610d538284610b2d565b5060200192915050565b6000610d698287610b13565b600182019150610d798286610af0565b601482019150610d898285610b2d565b602082019150610d998284610b2d565b50602001949350505050565b602081016103518284610b01565b602081016103518284610ae1565b60408101610dcf8285610ae1565b610ddc6020830184610b24565b9392505050565b60808101610df18287610b01565b610dfe6020830186610ae1565b610e0b6040830185610b24565b610e186060830184610b01565b95945050505050565b602081016103518284610b0a565b602081016103518284610b24565b60208082528101610ddc8184610b39565b6020808252810161035181610b71565b6020808252810161035181610b9b565b6020808252810161035181610bcb565b6020808252810161035181610c04565b6020808252810161035181610c56565b6020808252810161035181610c82565b6020808252810161035181610cc5565b6020808252810161035181610d09565b60405181810167ffffffffffffffff81118282101715610eed57600080fd5b604052919050565b5190565b90815260200190565b600061035182610f22565b151590565b6001600160f81b03191690565b90565b6001600160a01b031690565b600061035182600061035182610f02565b60005b83811015610f5a578181015183820152602001610f42565b83811115610f69576000848401525b50505050565b600061035182600061035182610f8a565b601f01601f191690565b60601b90565b610f9981610f02565b811461049a57600080fd5b610f9981610f0d565b6004811061049a57600080fd5b610f9981610f1f56fea365627a7a723158209ceccafbc157742b9801d05a5229056a72bde3374951934b4d6f4523d5a93d4d6c6578706572696d656e74616cf564736f6c63430005110040",
  "source": "pragma solidity 0.5.17;\npragma experimental ABIEncoderV2;\n\nimport \"../../base/EscrowFactory.sol\";\n\n\ncontract EscrowFactoryMock is EscrowFactory {\n    constructor(address _escrowLibrary) public EscrowFactory(_escrowLibrary) {}\n\n    function enableDapp(address dapp) external {\n        whitelistedDapps[dapp] = true;\n    }\n}\n",
  "sourcePath": "/Users/sy/Documents/GitHub/teller-protocol-v1/contracts/mock/base/EscrowFactoryMock.sol",
  "compiler": {
    "name": "solc",
    "version": "0.5.17+commit.d19bba13.Emscripten.clang"
  },
  "schemaVersion": "3.0.23",
  "updatedAt": "2020-08-19T00:49:50.120Z",
  "devdoc": {
    "methods": {
      "pause()": {
        "details": "Called by a pauser to pause, triggers stopped state."
      },
      "paused()": {
        "details": "Returns true if the contract is paused, and false otherwise."
      },
      "unpause()": {
        "details": "Called by a pauser to unpause, returns to normal state."
      }
    }
  },
  "userdoc": {
    "methods": {}
  }
}