{
  "contractName": "EscrowFactory",
  "abi": [
    {
      "anonymous": false,
      "inputs": [
        {
          "indexed": true,
          "internalType": "address",
          "name": "sender",
          "type": "address"
        },
        {
          "indexed": true,
          "internalType": "address",
          "name": "dapp",
          "type": "address"
        }
      ],
      "name": "DAppRemoved",
      "type": "event"
    },
    {
      "anonymous": false,
      "inputs": [
        {
          "indexed": true,
          "internalType": "address",
          "name": "borrower",
          "type": "address"
        },
        {
          "indexed": true,
          "internalType": "address",
          "name": "loansAddress",
          "type": "address"
        },
        {
          "indexed": true,
          "internalType": "uint256",
          "name": "loanID",
          "type": "uint256"
        },
        {
          "indexed": false,
          "internalType": "address",
          "name": "escrowAddress",
          "type": "address"
        }
      ],
      "name": "EscrowCreated",
      "type": "event"
    },
    {
      "anonymous": false,
      "inputs": [
        {
          "indexed": true,
          "internalType": "address",
          "name": "sender",
          "type": "address"
        },
        {
          "indexed": true,
          "internalType": "address",
          "name": "dapp",
          "type": "address"
        }
      ],
      "name": "NewDAppAdded",
      "type": "event"
    },
    {
      "constant": true,
      "inputs": [
        {
          "internalType": "address",
          "name": "",
          "type": "address"
        }
      ],
      "name": "dapps",
      "outputs": [
        {
          "internalType": "bool",
          "name": "",
          "type": "bool"
        }
      ],
      "payable": false,
      "stateMutability": "view",
      "type": "function"
    },
    {
      "constant": true,
      "inputs": [
        {
          "internalType": "uint256",
          "name": "",
          "type": "uint256"
        }
      ],
      "name": "dappsList",
      "outputs": [
        {
          "internalType": "address",
          "name": "",
          "type": "address"
        }
      ],
      "payable": false,
      "stateMutability": "view",
      "type": "function"
    },
    {
      "constant": true,
      "inputs": [],
      "name": "initialized",
      "outputs": [
        {
          "internalType": "bool",
          "name": "value",
          "type": "bool"
        }
      ],
      "payable": false,
      "stateMutability": "view",
      "type": "function"
    },
    {
      "constant": true,
      "inputs": [],
      "name": "settings",
      "outputs": [
        {
          "internalType": "contract SettingsInterface",
          "name": "",
          "type": "address"
        }
      ],
      "payable": false,
      "stateMutability": "view",
      "type": "function"
    },
    {
      "constant": false,
      "inputs": [
        {
          "internalType": "address",
          "name": "loansAddress",
          "type": "address"
        },
        {
          "internalType": "uint256",
          "name": "loanID",
          "type": "uint256"
        }
      ],
      "name": "createEscrow",
      "outputs": [
        {
          "internalType": "address",
          "name": "escrowAddress",
          "type": "address"
        }
      ],
      "payable": false,
      "stateMutability": "nonpayable",
      "type": "function"
    },
    {
      "constant": true,
      "inputs": [
        {
          "internalType": "address",
          "name": "dapp",
          "type": "address"
        }
      ],
      "name": "isDapp",
      "outputs": [
        {
          "internalType": "bool",
          "name": "",
          "type": "bool"
        }
      ],
      "payable": false,
      "stateMutability": "view",
      "type": "function"
    },
    {
      "constant": false,
      "inputs": [
        {
          "internalType": "address",
          "name": "dapp",
          "type": "address"
        }
      ],
      "name": "addDapp",
      "outputs": [],
      "payable": false,
      "stateMutability": "nonpayable",
      "type": "function"
    },
    {
      "constant": false,
      "inputs": [
        {
          "internalType": "address",
          "name": "dapp",
          "type": "address"
        }
      ],
      "name": "removeDapp",
      "outputs": [],
      "payable": false,
      "stateMutability": "nonpayable",
      "type": "function"
    },
    {
      "constant": true,
      "inputs": [],
      "name": "getDapps",
      "outputs": [
        {
          "internalType": "address[]",
          "name": "",
          "type": "address[]"
        }
      ],
      "payable": false,
      "stateMutability": "view",
      "type": "function"
    },
    {
      "constant": false,
      "inputs": [
        {
          "internalType": "address",
          "name": "settingsAddress",
          "type": "address"
        }
      ],
      "name": "initialize",
      "outputs": [],
      "payable": false,
      "stateMutability": "nonpayable",
      "type": "function"
    }
  ],
  "bytecode": "0x608060405234801561001057600080fd5b50611ee3806100206000396000f3fe60806040523480156200001157600080fd5b5060043610620000ac5760003560e01c8063627c55f6116200006f578063627c55f61462000142578063c4d66de81462000159578063da3bc9581462000170578063e06174e41462000187578063e52c355814620001a057620000ac565b8063158ef93e14620000b157806327b7ca5f14620000d35780632baaed1814620000ec5780634614874e146200010557806355670f31146200012b575b600080fd5b620000bb620001b7565b604051620000ca91906200169b565b60405180910390f35b620000ea620000e43660046200120f565b620001d8565b005b620000f662000343565b604051620000ca919062001688565b6200011c6200011636600462001230565b620003a8565b604051620000ca919062001642565b620000bb6200013c3660046200120f565b62000740565b620000ea620001533660046200120f565b62000755565b620000ea6200016a3660046200120f565b620008b1565b6200011c62000181366004620012f4565b62000926565b620001916200094e565b604051620000ca9190620016ab565b620000bb620001b13660046200120f565b62000972565b600080604051620001c89062001628565b6040519081900390205492915050565b620001e26200094e565b6001600160a01b031663c095ea27336040518263ffffffff1660e01b81526004016200020f919062001652565b60006040518083038186803b1580156200022857600080fd5b505afa1580156200023d573d6000803e3d6000fd5b505050506200024b620001b7565b620002735760405162461bcd60e51b81526004016200026a9062001739565b60405180910390fd5b62000287816001600160a01b031662000985565b620002a65760405162461bcd60e51b81526004016200026a9062001727565b620002b181620009c2565b15620002d15760405162461bcd60e51b81526004016200026a9062001715565b6001600160a01b0381166000908152602081905260409020805460ff1916600190811790915562000309908263ffffffff620009e016565b506040516001600160a01b0382169033907f74487267a352065c083ba7c6311bbff7f1e489f9b0cedffec11fb8398e3cf84790600090a350565b606060018054806020026020016040519081016040528092919081815260200182805480156200039d57602002820191906000526020600020905b81546001600160a01b031681526001909101906020018083116200037e575b505050505090505b90565b6000620003b4620001b7565b620003d35760405162461bcd60e51b81526004016200026a9062001739565b620003dd6200094e565b6001600160a01b031663b187bd266040518163ffffffff1660e01b815260040160206040518083038186803b1580156200041657600080fd5b505afa1580156200042b573d6000803e3d6000fd5b505050506040513d601f19601f820116820180604052506200045191908101906200126f565b15620004715760405162461bcd60e51b81526004016200026a9062001703565b6200047b62000eb4565b604051631c3d878d60e31b81526001600160a01b0385169063e1ec3c6890620004a99086906004016200175d565b6102206040518083038186803b158015620004c357600080fd5b505afa158015620004d8573d6000803e3d6000fd5b505050506040513d601f19601f82011682018060405250620004fe9190810190620012d2565b6101208101519091506001600160a01b031615620005305760405162461bcd60e51b81526004016200026a90620016cd565b60006200053c6200094e565b6001600160a01b031663ea23cb7c6040518163ffffffff1660e01b815260040160206040518083038186803b1580156200057557600080fd5b505afa1580156200058a573d6000803e3d6000fd5b505050506040513d601f19601f82011682018060405250620005b09190810190620012b1565b6001600160a01b031663d86d744e6040518163ffffffff1660e01b8152600401602060405180830381600087803b158015620005eb57600080fd5b505af115801562000600573d6000803e3d6000fd5b505050506040513d601f19601f82011682018060405250620006269190810190620012b1565b6001600160a01b03166368f6c8926040518163ffffffff1660e01b815260040160206040518083038186803b1580156200065f57600080fd5b505afa15801562000674573d6000803e3d6000fd5b505050506040513d601f19601f820116820180604052506200069a919081019062001290565b9050620006a66200094e565b81604051620006b59062000f32565b620006c292919062001662565b604051809103906000f080158015620006df573d6000803e3d6000fd5b50925083856001600160a01b03168360200151600001516001600160a01b03167f1766e5b0843b46e0afea03af5182836a1dc9eae60f592f44b8b4960b08d652108660405162000730919062001642565b60405180910390a4505092915050565b60006020819052908152604090205460ff1681565b6200075f6200094e565b6001600160a01b031663c095ea27336040518263ffffffff1660e01b81526004016200078c919062001652565b60006040518083038186803b158015620007a557600080fd5b505afa158015620007ba573d6000803e3d6000fd5b50505050620007c8620001b7565b620007e75760405162461bcd60e51b81526004016200026a9062001739565b620007fb816001600160a01b031662000985565b6200081a5760405162461bcd60e51b81526004016200026a9062001727565b6200082581620009c2565b620008445760405162461bcd60e51b81526004016200026a90620016bb565b6001600160a01b0381166000908152602081905260409020805460ff191690556200087760018263ffffffff62000a9916565b506040516001600160a01b0382169033907f42468ef83dfb738c057e8f7819d8f2ee9f323cfbe87871287770222c4cb1182390600090a350565b620008bb620001b7565b15620008db5760405162461bcd60e51b81526004016200026a906200174b565b620008ef816001600160a01b031662000985565b6200090e5760405162461bcd60e51b81526004016200026a90620016df565b6200091862000b2b565b620009238162000b4b565b50565b600181815481106200093457fe5b6000918252602090912001546001600160a01b0316905081565b6000806000604051620009619062001635565b604051908190039020549250505090565b60006200097f82620009c2565b92915050565b6000813f7fc5d2460186f7233c927e7db2dcc703c0e500b653ca82273b7bfad8045d85a470818114801590620009ba57508115155b949350505050565b6001600160a01b031660009081526020819052604090205460ff1690565b60606001600160a01b03821662000a0b5760405162461bcd60e51b81526004016200026a90620016f1565b8254600181018455600084815260209081902090910180546001600160a01b0319166001600160a01b038516179055835460408051828402810184019091528181529185919083018282801562000a8c57602002820191906000526020600020905b81546001600160a01b0316815260019091019060200180831162000a6d575b5050505050905092915050565b606060008062000aaa858562000bc7565b915091508162000b165784546040805160208084028201810190925282815291879183018282801562000b0757602002820191906000526020600020905b81546001600160a01b0316815260019091019060200180831162000ae8575b5050505050925050506200097f565b62000b22858262000c21565b95945050505050565b600060405162000b3b9062001628565b6040519081900390206001905550565b62000b6862000b596200094e565b6001600160a01b031662000ea6565b1562000b745762000923565b62000b88816001600160a01b031662000985565b62000ba75760405162461bcd60e51b81526004016200026a90620016df565b600060405162000bb79062001635565b6040519081900390208290555050565b6000805b835481101562000c1a57826001600160a01b031684828154811062000bec57fe5b6000918252602090912001546001600160a01b0316149150811562000c115762000c1a565b60010162000bcb565b9250929050565b8154606090821062000c8d5782546040805160208084028201810190925282815291859183018282801562000c8057602002820191906000526020600020905b81546001600160a01b0316815260019091019060200180831162000c61575b505050505090506200097f565b82546000190182141562000d385782548390600019810190811062000cae57fe5b600091825260209091200180546001600160a01b0319169055825462000cd984600019830162000f40565b5082546040805160208084028201810190925282815291859183018282801562000c80576020028201919060005260206000209081546001600160a01b0316815260019091019060200180831162000c6157505050505090506200097f565b82546000908490600019810190811062000d4e57fe5b60009182526020909120015484546001600160a01b03909116915084908490811062000d7657fe5b60009182526020909120015484546001600160a01b03909116908590600019810190811062000da157fe5b9060005260206000200160006101000a8154816001600160a01b0302191690836001600160a01b031602179055508084848154811062000ddd57fe5b600091825260209091200180546001600160a01b0319166001600160a01b039290921691909117905583548490600019810190811062000e1957fe5b600091825260209091200180546001600160a01b0319169055835462000e4485600019830162000f40565b5083546040805160208084028201810190925282815291869183018282801562000e9857602002820191906000526020600020905b81546001600160a01b0316815260019091019060200180831162000e79575b505050505091505092915050565b6001600160a01b0316151590565b6040518061018001604052806000815260200162000ed162000f6c565b81526020016000815260200160008152602001600081526020016000815260200160008152602001600081526020016000815260200160006001600160a01b031681526020016000600381111562000f2557fe5b8152600060209091015290565b610675806200182c83390190565b81548183558181111562000f675760008381526020902062000f6791810190830162000fb4565b505050565b6040518060c0016040528060006001600160a01b0316815260200160006001600160a01b03168152602001600081526020016000815260200160008152602001600081525090565b620003a591905b8082111562000fd1576000815560010162000fbb565b5090565b80356200097f81620017e5565b80516200097f81620017e5565b80516200097f81620017fc565b80516200097f8162001807565b80516200097f8162001812565b80516200097f816200181d565b600060c082840312156200103657600080fd5b6200104260c06200176d565b9050600062001052848462000fe2565b8252506020620010658484830162000fe2565b60208301525060406200107b8482850162000ffc565b6040830152506060620010918482850162000ffc565b6060830152506080620010a78482850162000ffc565b60808301525060a0620010bd8482850162000ffc565b60a08301525092915050565b60006102208284031215620010dd57600080fd5b620010ea6101806200176d565b90506000620010fa848462000ffc565b82525060206200110d8484830162001023565b60208301525060e0620011238482850162000ffc565b6040830152506101006200113a8482850162000ffc565b606083015250610120620011518482850162000ffc565b608083015250610140620011688482850162000ffc565b60a0830152506101606200117f8482850162000ffc565b60c083015250610180620011968482850162000ffc565b60e0830152506101a0620011ad8482850162000ffc565b610100830152506101c0620011c58482850162000fe2565b610120830152506101e0620011dd8482850162001016565b61014083015250610200620011f58482850162000fef565b6101608301525092915050565b80356200097f8162001807565b6000602082840312156200122257600080fd5b6000620009ba848462000fd5565b600080604083850312156200124457600080fd5b600062001252858562000fd5565b9250506020620012658582860162001202565b9150509250929050565b6000602082840312156200128257600080fd5b6000620009ba848462000fef565b600060208284031215620012a357600080fd5b6000620009ba848462000ffc565b600060208284031215620012c457600080fd5b6000620009ba848462001009565b60006102208284031215620012e657600080fd5b6000620009ba8484620010c9565b6000602082840312156200130757600080fd5b6000620009ba848462001202565b60006200132383836200133c565b505060200190565b6200133681620017d8565b82525050565b6200133681620017ad565b600062001354826200179b565b6200136081856200179f565b93506200136d8362001795565b8060005b83811015620013a157815162001388888262001315565b9750620013958362001795565b92505060010162001371565b509495945050505050565b6200133681620017ba565b6200133681620003a5565b6200133681620017bf565b6000620013dc601c83620017a8565b7f54496e697469616c697a61626c652e6973496e697469616c697a6564000000008152601c0192915050565b600062001417600e836200179f565b6d1110541417d393d517d1561254d560921b815260200192915050565b600062001443601a836200179f565b7f4c4f414e5f455343524f575f414c52454144595f455849535453000000000000815260200192915050565b60006200147e601b836200179f565b7f53455454494e47535f4d5553545f42455f415f434f4e54524143540000000000815260200192915050565b6000620014b96019836200179f565b7f454d5054595f414444524553535f4e4f545f414c4c4f57454400000000000000815260200192915050565b6000620014f46012836200179f565b71141310551193d49357d254d7d4105554d15160721b815260200192915050565b6000620015246012836200179f565b711110541417d053149150511657d1561254d560721b815260200192915050565b6000620015546014836200179f565b731110541417d254d39517d057d0d3d395149050d560621b815260200192915050565b600062001586601883620017a8565b7f426173655570677261646561626c652e73657474696e67730000000000000000815260180192915050565b6000620015c16018836200179f565b7f434f4e54524143545f4e4f545f494e495449414c495a45440000000000000000815260200192915050565b6000620015fc601c836200179f565b7f434f4e54524143545f414c52454144595f494e495449414c495a454400000000815260200192915050565b60006200097f82620013cd565b60006200097f8262001577565b602081016200097f82846200133c565b602081016200097f82846200132b565b604081016200167282856200133c565b620016816020830184620013b7565b9392505050565b6020808252810162001681818462001347565b602081016200097f8284620013ac565b602081016200097f8284620013c2565b602080825281016200097f8162001408565b602080825281016200097f8162001434565b602080825281016200097f816200146f565b602080825281016200097f81620014aa565b602080825281016200097f81620014e5565b602080825281016200097f8162001515565b602080825281016200097f8162001545565b602080825281016200097f81620015b2565b602080825281016200097f81620015ed565b602081016200097f8284620013b7565b60405181810167ffffffffffffffff811182821017156200178d57600080fd5b604052919050565b60200190565b5190565b90815260200190565b919050565b60006200097f82620017cc565b151590565b60006200097f82620017ad565b6001600160a01b031690565b60006200097f82620017bf565b620017f081620017ad565b81146200092357600080fd5b620017f081620017ba565b620017f081620003a5565b620017f081620017bf565b600481106200092357600080fdfe608060405234801561001057600080fd5b506040516106753803806106758339818101604052604081101561003357600080fd5b50805160209091015161004e826001600160e01b0361006716565b610060816001600160e01b0361014316565b50506103cc565b61009361007b6001600160e01b0361031616565b6001600160a01b031661034c60201b61021b1760201c565b1561009d57610140565b6100b9816001600160a01b031661035a60201b6102291760201c565b61010a576040805162461bcd60e51b815260206004820152601b60248201527f53455454494e47535f4d5553545f42455f415f434f4e54524143540000000000604482015290519081900360640190fd5b604080517f426173655570677261646561626c652e73657474696e67730000000000000000815290519081900360180190208190555b50565b6101546001600160e01b0361039616565b156101a6576040805162461bcd60e51b815260206004820152601660248201527f4c4f4749435f4e414d455f414c52454144595f53455400000000000000000000604482015290519081900360640190fd5b6101b76001600160e01b0361031616565b6001600160a01b031663ea23cb7c6040518163ffffffff1660e01b815260040160206040518083038186803b1580156101ef57600080fd5b505afa158015610203573d6000803e3d6000fd5b505050506040513d602081101561021957600080fd5b50516040805163b28f5abb60e01b81526004810184905290516001600160a01b039092169163b28f5abb91602480820192602092909190829003018186803b15801561026457600080fd5b505afa158015610278573d6000803e3d6000fd5b505050506040513d602081101561028e57600080fd5b50516102e1576040805162461bcd60e51b815260206004820152601460248201527f4c4f4749435f4e414d455f4e4f545f4558495354000000000000000000000000604482015290519081900360640190fd5b604080517f426173655570677261646561626c652e6c6f6769634e616d65000000000000008152905190819003601901902055565b604080517f426173655570677261646561626c652e73657474696e67730000000000000000815290519081900360180190205490565b6001600160a01b0316151590565b6000813f7fc5d2460186f7233c927e7db2dcc703c0e500b653ca82273b7bfad8045d85a47081811480159061038e57508115155b949350505050565b604080517f426173655570677261646561626c652e6c6f6769634e616d6500000000000000815290519081900360190190205490565b61029a806103db6000396000f3fe6080604052600436106100295760003560e01c80635c60da1b14610033578063e06174e414610064575b610031610079565b005b34801561003f57600080fd5b50610048610093565b604080516001600160a01b039092168252519081900360200190f35b34801561007057600080fd5b506100486100a2565b610081610091565b61009161008c6100d8565b6101c1565b565b600061009d6100d8565b905090565b604080517f426173655570677261646561626c652e73657474696e67730000000000000000815290519081900360180190205490565b60006100e26100a2565b6001600160a01b031663ea23cb7c6040518163ffffffff1660e01b815260040160206040518083038186803b15801561011a57600080fd5b505afa15801561012e573d6000803e3d6000fd5b505050506040513d602081101561014457600080fd5b50516001600160a01b03166373f1fcf661015c6101e5565b6040518263ffffffff1660e01b81526004018082815260200191505060206040518083038186803b15801561019057600080fd5b505afa1580156101a4573d6000803e3d6000fd5b505050506040513d60208110156101ba57600080fd5b5051905090565b3660008037600080366000845af43d6000803e8080156101e0573d6000f35b3d6000fd5b604080517f426173655570677261646561626c652e6c6f6769634e616d6500000000000000815290519081900360190190205490565b6001600160a01b0316151590565b6000813f7fc5d2460186f7233c927e7db2dcc703c0e500b653ca82273b7bfad8045d85a47081811480159061025d57508115155b94935050505056fea265627a7a723158209abc930bf400a682d5e11c25f1ba256ae89b4ce766e410dcff2c716d1f6c668e64736f6c63430005110032a365627a7a72315820a0671715243da770063846d9708247ee4d175fc735dabb2e7f16925ed70fa52f6c6578706572696d656e74616cf564736f6c63430005110040",
  "source": "pragma solidity 0.5.17;\npragma experimental ABIEncoderV2;\n\n// Contracts\nimport \"./TInitializable.sol\";\nimport \"./DynamicProxy.sol\";\n\n// Libraries\nimport \"@openzeppelin/contracts-ethereum-package/contracts/utils/Address.sol\";\n\n// Interfaces\nimport \"../interfaces/LoansInterface.sol\";\nimport \"../interfaces/EscrowFactoryInterface.sol\";\nimport \"../interfaces/EscrowInterface.sol\";\n\n// Commons\nimport \"../util/AddressLib.sol\";\nimport \"../util/AddressArrayLib.sol\";\n\n/*****************************************************************************************************/\n/**                                             WARNING                                             **/\n/**                                  THIS CONTRACT IS UPGRADEABLE!                                  **/\n/**  ---------------------------------------------------------------------------------------------  **/\n/**  Do NOT change the order of or PREPEND any storage variables to this or new versions of this    **/\n/**  contract as this will cause the the storage slots to be overwritten on the proxy contract!!    **/\n/**                                                                                                 **/\n/**  Visit https://docs.openzeppelin.com/upgrades/2.6/proxies#upgrading-via-the-proxy-pattern for   **/\n/**  more information.                                                                              **/\n/*****************************************************************************************************/\n/**\n    @notice This contract is used as a factory for the escrow contract that will be owned by the borrowers.\n\n    @author develop@teller.finance\n */\ncontract EscrowFactory is EscrowFactoryInterface, TInitializable, BaseUpgradeable {\n    using AddressArrayLib for address[];\n    using AddressLib for address;\n    using Address for address;\n\n    /* State Variables */\n\n    /**\n        @notice It defines whether a DApp exists or not.\n        Example:\n            address(0x123...456) => true\n            address(0x456...789) => false\n     */\n    mapping(address => bool) public dapps;\n\n    /**\n        @notice It contains all the dapps added in this factory.\n     */\n    address[] public dappsList;\n\n    /* Modifiers */\n\n    /**\n        @notice It checks whether the platform is paused or not.\n        @dev It throws a require error if the platform is used.\n     */\n    modifier isNotPaused() {\n        require(!settings().isPaused(), \"PLATFORM_IS_PAUSED\");\n        _;\n    }\n\n    /**\n        @notice It creates an Escrow contract for a given loan id.\n        @param loansAddress address of the loans contract that is creating an escrow.\n        @param loanID loan id to associate to the new escrow instance.\n        @return the new escrow instance.\n     */\n    function createEscrow(address loansAddress, uint256 loanID)\n        external\n        isInitialized()\n        isNotPaused()\n        returns (address escrowAddress)\n    {\n        TellerCommon.Loan memory loan = LoansInterface(loansAddress).loans(loanID);\n        require(loan.escrow == address(0x0), \"LOAN_ESCROW_ALREADY_EXISTS\");\n\n        bytes32 escrowLogicName = settings()\n            .versionsRegistry()\n            .consts()\n            .ESCROW_LOGIC_NAME();\n        escrowAddress = address(new DynamicProxy(address(settings()), escrowLogicName));\n        emit EscrowCreated(loan.loanTerms.borrower, loansAddress, loanID, escrowAddress);\n    }\n\n    /**\n        @notice It tests whether an address is a dapp or not.\n        @param dapp address to test.\n        @return true if the address is a dapp. Otherwise it returns false.\n     */\n    function isDapp(address dapp) external view returns (bool) {\n        return _isDapp(dapp);\n    }\n\n    /**\n        @notice It adds a new dapp to the factory.\n        @param dapp address to add in this factory.\n     */\n    function addDapp(address dapp) external onlyPauser() isInitialized() {\n        require(dapp.isContract(), \"DAPP_ISNT_A_CONTRACT\");\n        require(!_isDapp(dapp), \"DAPP_ALREADY_EXIST\");\n\n        dapps[dapp] = true;\n        dappsList.add(dapp);\n\n        emit NewDAppAdded(msg.sender, dapp);\n    }\n\n    /**\n        @notice It removes a current dapp from the factory.\n        @param dapp address to remove.\n     */\n    function removeDapp(address dapp) external onlyPauser() isInitialized() {\n        require(dapp.isContract(), \"DAPP_ISNT_A_CONTRACT\");\n        require(_isDapp(dapp), \"DAPP_NOT_EXIST\");\n\n        dapps[dapp] = false;\n        dappsList.remove(dapp);\n\n        emit DAppRemoved(msg.sender, dapp);\n    }\n\n    /**\n        @notice Gets all the dapps in the factory.\n        @return an array of dapps (addresses).\n     */\n    function getDapps() external view returns (address[] memory) {\n        return dappsList;\n    }\n\n    /**\n        @notice It initializes this escrow contract factory instance.\n        @param settingsAddress the settings contract address.\n     */\n    function initialize(address settingsAddress) external isNotInitialized() {\n        require(settingsAddress.isContract(), \"SETTINGS_MUST_BE_A_CONTRACT\");\n\n        _initialize();\n        _setSettings(settingsAddress);\n    }\n\n    /** Internal Functions */\n\n    /**\n        @notice It tests whether an address is a dapp or not.\n        @param dapp address to test.\n        @return true if the address is a dapp. Otherwise it returns false.\n     */\n    function _isDapp(address dapp) internal view returns (bool) {\n        return dapps[dapp];\n    }\n}\n",
  "sourcePath": "/Users/sy/Documents/GitHub/teller-protocol-v1/contracts/base/EscrowFactory.sol",
  "compiler": {
    "name": "solc",
    "version": "0.5.17+commit.d19bba13.Emscripten.clang"
  },
  "schemaVersion": "3.0.23",
  "updatedAt": "2020-09-15T23:09:49.698Z",
  "devdoc": {
    "author": "develop@teller.finance",
    "methods": {
      "addDapp(address)": {
        "params": {
          "dapp": "address to add in this factory."
        }
      },
      "createEscrow(address,uint256)": {
        "params": {
          "loanID": "loan id to associate to the new escrow instance.",
          "loansAddress": "address of the loans contract that is creating an escrow."
        },
        "return": "the new escrow instance."
      },
      "getDapps()": {
        "return": "an array of dapps (addresses)."
      },
      "initialize(address)": {
        "params": {
          "settingsAddress": "the settings contract address."
        }
      },
      "initialized()": {
        "return": "true if contract is initialized. Otherwise it returns false."
      },
      "isDapp(address)": {
        "params": {
          "dapp": "address to test."
        },
        "return": "true if the address is a dapp. Otherwise it returns false."
      },
      "removeDapp(address)": {
        "params": {
          "dapp": "address to remove."
        }
      },
      "settings()": {
        "details": "This address should NOT change over the time. See details in the _setSettings(...) function."
      }
    }
  },
  "userdoc": {
    "methods": {
      "addDapp(address)": {
        "notice": "It adds a new dapp to the factory."
      },
      "createEscrow(address,uint256)": {
        "notice": "It creates an Escrow contract for a given loan id."
      },
      "getDapps()": {
        "notice": "Gets all the dapps in the factory."
      },
      "initialize(address)": {
        "notice": "It initializes this escrow contract factory instance."
      },
      "initialized()": {
        "notice": "Gets if the contract is initialized."
      },
      "isDapp(address)": {
        "notice": "It tests whether an address is a dapp or not."
      },
      "removeDapp(address)": {
        "notice": "It removes a current dapp from the factory."
      },
      "settings()": {
        "notice": "The gets the settings contract address from the SETTINGS_SLOT."
      }
    },
    "notice": "This contract is used as a factory for the escrow contract that will be owned by the borrowers."
  }
}