{
  "contractName": "Escrow",
  "abi": [
    {
      "anonymous": false,
      "inputs": [
        {
          "indexed": true,
          "internalType": "address",
          "name": "previousOwner",
          "type": "address"
        },
        {
          "indexed": true,
          "internalType": "address",
          "name": "newOwner",
          "type": "address"
        }
      ],
      "name": "OwnershipTransferred",
      "type": "event"
    },
    {
      "constant": true,
      "inputs": [],
      "name": "ETH_DECIMALS",
      "outputs": [
        {
          "internalType": "uint8",
          "name": "",
          "type": "uint8"
        }
      ],
      "payable": false,
      "stateMutability": "view",
      "type": "function"
    },
    {
      "constant": true,
      "inputs": [],
      "name": "ONE_HUNDRED_PERCENT",
      "outputs": [
        {
          "internalType": "uint16",
          "name": "",
          "type": "uint16"
        }
      ],
      "payable": false,
      "stateMutability": "view",
      "type": "function"
    },
    {
      "constant": true,
      "inputs": [
        {
          "internalType": "address",
          "name": "cTokenAddress",
          "type": "address"
        }
      ],
      "name": "balanceOf",
      "outputs": [
        {
          "internalType": "uint256",
          "name": "",
          "type": "uint256"
        }
      ],
      "payable": false,
      "stateMutability": "view",
      "type": "function"
    },
    {
      "constant": true,
      "inputs": [
        {
          "internalType": "address",
          "name": "tokenAddress",
          "type": "address"
        }
      ],
      "name": "findTokenIndex",
      "outputs": [
        {
          "internalType": "int256",
          "name": "",
          "type": "int256"
        }
      ],
      "payable": false,
      "stateMutability": "view",
      "type": "function"
    },
    {
      "constant": true,
      "inputs": [],
      "name": "getTokens",
      "outputs": [
        {
          "internalType": "address[]",
          "name": "",
          "type": "address[]"
        }
      ],
      "payable": false,
      "stateMutability": "view",
      "type": "function"
    },
    {
      "constant": true,
      "inputs": [],
      "name": "initialized",
      "outputs": [
        {
          "internalType": "bool",
          "name": "value",
          "type": "bool"
        }
      ],
      "payable": false,
      "stateMutability": "view",
      "type": "function"
    },
    {
      "constant": true,
      "inputs": [],
      "name": "isOwner",
      "outputs": [
        {
          "internalType": "bool",
          "name": "",
          "type": "bool"
        }
      ],
      "payable": false,
      "stateMutability": "view",
      "type": "function"
    },
    {
      "constant": true,
      "inputs": [],
      "name": "loanID",
      "outputs": [
        {
          "internalType": "uint256",
          "name": "",
          "type": "uint256"
        }
      ],
      "payable": false,
      "stateMutability": "view",
      "type": "function"
    },
    {
      "constant": true,
      "inputs": [],
      "name": "loans",
      "outputs": [
        {
          "internalType": "contract LoansInterface",
          "name": "",
          "type": "address"
        }
      ],
      "payable": false,
      "stateMutability": "view",
      "type": "function"
    },
    {
      "constant": true,
      "inputs": [],
      "name": "owner",
      "outputs": [
        {
          "internalType": "address",
          "name": "",
          "type": "address"
        }
      ],
      "payable": false,
      "stateMutability": "view",
      "type": "function"
    },
    {
      "constant": false,
      "inputs": [],
      "name": "renounceOwnership",
      "outputs": [],
      "payable": false,
      "stateMutability": "nonpayable",
      "type": "function"
    },
    {
      "constant": true,
      "inputs": [],
      "name": "settings",
      "outputs": [
        {
          "internalType": "contract SettingsInterface",
          "name": "",
          "type": "address"
        }
      ],
      "payable": false,
      "stateMutability": "view",
      "type": "function"
    },
    {
      "constant": false,
      "inputs": [
        {
          "internalType": "address",
          "name": "newOwner",
          "type": "address"
        }
      ],
      "name": "transferOwnership",
      "outputs": [],
      "payable": false,
      "stateMutability": "nonpayable",
      "type": "function"
    },
    {
      "constant": true,
      "inputs": [],
      "name": "isLoanActive",
      "outputs": [
        {
          "internalType": "bool",
          "name": "",
          "type": "bool"
        }
      ],
      "payable": false,
      "stateMutability": "view",
      "type": "function"
    },
    {
      "constant": false,
      "inputs": [
        {
          "components": [
            {
              "internalType": "address",
              "name": "location",
              "type": "address"
            },
            {
              "internalType": "bytes",
              "name": "data",
              "type": "bytes"
            }
          ],
          "internalType": "struct TellerCommon.DappData",
          "name": "dappData",
          "type": "tuple"
        }
      ],
      "name": "callDapp",
      "outputs": [],
      "payable": false,
      "stateMutability": "nonpayable",
      "type": "function"
    },
    {
      "constant": true,
      "inputs": [],
      "name": "getBorrower",
      "outputs": [
        {
          "internalType": "address",
          "name": "",
          "type": "address"
        }
      ],
      "payable": false,
      "stateMutability": "view",
      "type": "function"
    },
    {
      "constant": true,
      "inputs": [],
      "name": "getLoan",
      "outputs": [
        {
          "components": [
            {
              "internalType": "uint256",
              "name": "id",
              "type": "uint256"
            },
            {
              "components": [
                {
                  "internalType": "address payable",
                  "name": "borrower",
                  "type": "address"
                },
                {
                  "internalType": "address",
                  "name": "recipient",
                  "type": "address"
                },
                {
                  "internalType": "uint256",
                  "name": "interestRate",
                  "type": "uint256"
                },
                {
                  "internalType": "uint256",
                  "name": "collateralRatio",
                  "type": "uint256"
                },
                {
                  "internalType": "uint256",
                  "name": "maxLoanAmount",
                  "type": "uint256"
                },
                {
                  "internalType": "uint256",
                  "name": "duration",
                  "type": "uint256"
                }
              ],
              "internalType": "struct TellerCommon.LoanTerms",
              "name": "loanTerms",
              "type": "tuple"
            },
            {
              "internalType": "uint256",
              "name": "termsExpiry",
              "type": "uint256"
            },
            {
              "internalType": "uint256",
              "name": "loanStartTime",
              "type": "uint256"
            },
            {
              "internalType": "uint256",
              "name": "collateral",
              "type": "uint256"
            },
            {
              "internalType": "uint256",
              "name": "lastCollateralIn",
              "type": "uint256"
            },
            {
              "internalType": "uint256",
              "name": "principalOwed",
              "type": "uint256"
            },
            {
              "internalType": "uint256",
              "name": "interestOwed",
              "type": "uint256"
            },
            {
              "internalType": "uint256",
              "name": "borrowedAmount",
              "type": "uint256"
            },
            {
              "internalType": "address",
              "name": "escrow",
              "type": "address"
            },
            {
              "internalType": "enum TellerCommon.LoanStatus",
              "name": "status",
              "type": "uint8"
            },
            {
              "internalType": "bool",
              "name": "liquidated",
              "type": "bool"
            }
          ],
          "internalType": "struct TellerCommon.Loan",
          "name": "",
          "type": "tuple"
        }
      ],
      "payable": false,
      "stateMutability": "view",
      "type": "function"
    },
    {
      "constant": true,
      "inputs": [],
      "name": "calculateTotalValue",
      "outputs": [
        {
          "components": [
            {
              "internalType": "uint256",
              "name": "valueInToken",
              "type": "uint256"
            },
            {
              "internalType": "uint256",
              "name": "valueInEth",
              "type": "uint256"
            }
          ],
          "internalType": "struct TellerCommon.EscrowValue",
          "name": "",
          "type": "tuple"
        }
      ],
      "payable": false,
      "stateMutability": "view",
      "type": "function"
    },
    {
      "constant": true,
      "inputs": [],
      "name": "canPurchase",
      "outputs": [
        {
          "internalType": "bool",
          "name": "",
          "type": "bool"
        }
      ],
      "payable": false,
      "stateMutability": "view",
      "type": "function"
    },
    {
      "constant": true,
      "inputs": [],
      "name": "isUnderValued",
      "outputs": [
        {
          "internalType": "bool",
          "name": "",
          "type": "bool"
        }
      ],
      "payable": false,
      "stateMutability": "view",
      "type": "function"
    },
    {
      "constant": false,
      "inputs": [],
      "name": "purchaseLoanDebt",
      "outputs": [],
      "payable": true,
      "stateMutability": "payable",
      "type": "function"
    },
    {
      "constant": false,
      "inputs": [
        {
          "internalType": "address",
          "name": "sender",
          "type": "address"
        }
      ],
      "name": "initialize",
      "outputs": [],
      "payable": false,
      "stateMutability": "nonpayable",
      "type": "function"
    },
    {
      "constant": false,
      "inputs": [
        {
          "internalType": "address",
          "name": "loansAddress",
          "type": "address"
        },
        {
          "internalType": "uint256",
          "name": "aLoanID",
          "type": "uint256"
        }
      ],
      "name": "initialize",
      "outputs": [],
      "payable": false,
      "stateMutability": "nonpayable",
      "type": "function"
    }
  ],
  "bytecode": "0x6080604052612c4f806100136000396000f3fe6080604052600436106101405760003560e01c80638f32d59b116100b6578063c4d66de81161006f578063c4d66de814610324578063cd6dc68714610344578063dd0081c714610364578063e06174e414610386578063e9946b20146103a8578063f2fde38b146103bd57610140565b80638f32d59b1461028157806392cd1ff214610296578063a06101d0146102b8578063aa6ca808146102da578063ab794d21146102fc578063b41304b11461030457610140565b806334a6d8321161010857806334a6d832146101e9578063415dfa5b146101fe5780634859b3f41461021357806370a0823114610235578063715018a6146102555780638da5cb5b1461026c57610140565b80630a11fd0714610145578063158ef93e1461017b5780631cb0c3e71461019d578063215b0dc6146101bf5780632efb15de146101d4575b600080fd5b34801561015157600080fd5b5061016561016036600461219e565b6103dd565b6040516101729190612997565b60405180910390f35b34801561018757600080fd5b5061019061040f565b6040516101729190612989565b3480156101a957600080fd5b506101b261042e565b604051610172919061294f565b3480156101cb57600080fd5b506101656104bd565b3480156101e057600080fd5b506101906104c3565b3480156101f557600080fd5b506101906104e5565b34801561020a57600080fd5b5061019061056d565b34801561021f57600080fd5b506102286105fe565b6040516101729190612ab2565b34801561024157600080fd5b5061016561025036600461219e565b610688565b34801561026157600080fd5b5061026a610699565b005b34801561027857600080fd5b506101b2610710565b34801561028d57600080fd5b5061019061071f565b3480156102a257600080fd5b506102ab610745565b6040516101729190612aea565b3480156102c457600080fd5b506102cd61074a565b6040516101729190612aa4565b3480156102e657600080fd5b506102ef610d81565b6040516101729190612978565b61026a610de3565b34801561031057600080fd5b5061026a61031f366004612276565b610eec565b34801561033057600080fd5b5061026a61033f36600461219e565b611123565b34801561035057600080fd5b5061026a61035f3660046121e2565b6111f5565b34801561037057600080fd5b506103796113ab565b6040516101729190612ac1565b34801561039257600080fd5b5061039b6113b1565b60405161017291906129a5565b3480156103b457600080fd5b5061039b6113d3565b3480156103c957600080fd5b5061026a6103d836600461219e565b6113e2565b600080806103f260668563ffffffff61141216565b915091508161040357600019610405565b805b925050505b919050565b60008060405161041e90612939565b6040519081900390205492915050565b606754606854604051631c3d878d60e31b81526000926001600160a01b03169163e1ec3c68916104619190600401612997565b6102206040518083038186803b15801561047a57600080fd5b505afa15801561048e573d6000803e3d6000fd5b505050506040513d601f19601f820116820180604052506104b291908101906122ab565b602001515190505b90565b60685481565b600060026104cf6105fe565b610140015160038111156104df57fe5b14905090565b606754606854604051636948f32b60e01b81526000926001600160a01b031691636948f32b916105189190600401612997565b60206040518083038186803b15801561053057600080fd5b505afa158015610544573d6000803e3d6000fd5b505050506040513d601f19601f82011682018060405250610568919081019061221c565b905090565b606754606854604051623b929360e81b81526000926001600160a01b031691633b9293009161059f9190600401612997565b60206040518083038186803b1580156105b757600080fd5b505afa1580156105cb573d6000803e3d6000fd5b505050506040513d601f19601f820116820180604052506105ef919081019061223a565b6105f761074a565b5110905090565b610606611e5a565b606754606854604051631c3d878d60e31b81526001600160a01b039092169163e1ec3c689161063791600401612997565b6102206040518083038186803b15801561065057600080fd5b505afa158015610664573d6000803e3d6000fd5b505050506040513d601f19601f8201168201806040525061056891908101906122ab565b600061069382611467565b92915050565b6106a161071f565b6106c65760405162461bcd60e51b81526004016106bd90612a34565b60405180910390fd5b6033546040516000916001600160a01b0316907f8be0079c531659141344cd1fd0a4f28419497f9722a3daafe3b4186f6b6457e0908390a3603380546001600160a01b0319169055565b6033546001600160a01b031690565b6033546000906001600160a01b03166107366114e6565b6001600160a01b031614905090565b601281565b610752611ed5565b606061075c610d81565b90506000805b825181101561083a57600061081d84838151811061077c57fe5b602002602001015161078c6113b1565b6001600160a01b031663a734f06e6040518163ffffffff1660e01b815260040160206040518083038186803b1580156107c457600080fd5b505afa1580156107d8573d6000803e3d6000fd5b505050506040513d601f19601f820116820180604052506107fc91908101906121c4565b61081887868151811061080b57fe5b6020026020010151611467565b6114ea565b905061082f838263ffffffff6116a416565b925050600101610762565b5060006108456105fe565b60800151905060006108556105fe565b60200151606001511115610a0c57600061086d6113b1565b6001600160a01b031663269012a06108836113b1565b6001600160a01b031663d86d744e6040518163ffffffff1660e01b815260040160206040518083038186803b1580156108bb57600080fd5b505afa1580156108cf573d6000803e3d6000fd5b505050506040513d601f19601f820116820180604052506108f39190810190612258565b6001600160a01b03166308b04f626040518163ffffffff1660e01b815260040160206040518083038186803b15801561092b57600080fd5b505afa15801561093f573d6000803e3d6000fd5b505050506040513d601f19601f82011682018060405250610963919081019061223a565b6040518263ffffffff1660e01b815260040161097f9190612997565b60206040518083038186803b15801561099757600080fd5b505afa1580156109ab573d6000803e3d6000fd5b505050506040513d601f19601f820116820180604052506109cf919081019061223a565b905060006109f56127106109e9858563ffffffff6116c916565b9063ffffffff61170316565b9050610a07838263ffffffff61174516565b925050505b610a146113b1565b6001600160a01b031663a734f06e6040518163ffffffff1660e01b815260040160206040518083038186803b158015610a4c57600080fd5b505afa158015610a60573d6000803e3d6000fd5b505050506040513d601f19601f82011682018060405250610a8491908101906121c4565b6001600160a01b0316606760009054906101000a90046001600160a01b03166001600160a01b031663b2016bd46040518163ffffffff1660e01b815260040160206040518083038186803b158015610adb57600080fd5b505afa158015610aef573d6000803e3d6000fd5b505050506040513d601f19601f82011682018060405250610b1391908101906121c4565b6001600160a01b03161415610b3957610b32828263ffffffff6116a416565b9150610c58565b6000610c42606760009054906101000a90046001600160a01b03166001600160a01b031663b2016bd46040518163ffffffff1660e01b815260040160206040518083038186803b158015610b8c57600080fd5b505afa158015610ba0573d6000803e3d6000fd5b505050506040513d601f19601f82011682018060405250610bc491908101906121c4565b610bcc6113b1565b6001600160a01b031663a734f06e6040518163ffffffff1660e01b815260040160206040518083038186803b158015610c0457600080fd5b505afa158015610c18573d6000803e3d6000fd5b505050506040513d601f19601f82011682018060405250610c3c91908101906121c4565b846114ea565b9050610c54838263ffffffff6116a416565b9250505b6000610d61610c656113b1565b6001600160a01b031663a734f06e6040518163ffffffff1660e01b815260040160206040518083038186803b158015610c9d57600080fd5b505afa158015610cb1573d6000803e3d6000fd5b505050506040513d601f19601f82011682018060405250610cd591908101906121c4565b606760009054906101000a90046001600160a01b03166001600160a01b031663aaaca5586040518163ffffffff1660e01b815260040160206040518083038186803b158015610d2357600080fd5b505afa158015610d37573d6000803e3d6000fd5b505050506040513d601f19601f82011682018060405250610d5b91908101906121c4565b856114ea565b905060405180604001604052808281526020018481525094505050505090565b60606066805480602002602001604051908101604052809291908181526020018280548015610dd957602002820191906000526020600020905b81546001600160a01b03168152600190910190602001808311610dbb575b5050505050905090565b610deb6104e5565b610e075760405162461bcd60e51b81526004016106bd90612a64565b606754606854604051623b929360e81b81526001600160a01b039092169163d8aed145918391633b92930091610e3f91600401612997565b60206040518083038186803b158015610e5757600080fd5b505afa158015610e6b573d6000803e3d6000fd5b505050506040513d601f19601f82011682018060405250610e8f919081019061223a565b6068546040518363ffffffff1660e01b8152600401610eaf929190612acf565b600060405180830381600087803b158015610ec957600080fd5b505af1158015610edd573d6000803e3d6000fd5b50505050610eea33611787565b565b610ef461040f565b610f105760405162461bcd60e51b81526004016106bd90612a84565b610f1861071f565b610f345760405162461bcd60e51b81526004016106bd90612a34565b610f3c6113b1565b6001600160a01b031663bdd1daaa6040518163ffffffff1660e01b815260040160206040518083038186803b158015610f7457600080fd5b505afa158015610f88573d6000803e3d6000fd5b505050506040513d601f19601f82011682018060405250610fac9190810190612258565b6001600160a01b031663e52c3558610fc7602084018461219e565b6040518263ffffffff1660e01b8152600401610fe3919061294f565b60206040518083038186803b158015610ffb57600080fd5b505afa15801561100f573d6000803e3d6000fd5b505050506040513d601f19601f82011682018060405250611033919081019061221c565b61104f5760405162461bcd60e51b81526004016106bd90612a14565b600061105e602083018361219e565b6001600160a01b031682602081018035601e193684900301811261108157600080fd5b9091016020810191503567ffffffffffffffff8111156110a057600080fd5b368190038213156110b057600080fd5b6040516110be92919061292c565b600060405180830381855af49150503d80600081146110f9576040519150601f19603f3d011682016040523d82523d6000602084013e6110fe565b606091505b505090508061111f5760405162461bcd60e51b81526004016106bd906129d4565b5050565b600054610100900460ff168061113c575061113c611809565b8061114a575060005460ff16155b6111665760405162461bcd60e51b81526004016106bd90612a44565b600054610100900460ff16158015611191576000805460ff1961ff0019909116610100171660011790555b603380546001600160a01b0319166001600160a01b0384811691909117918290556040519116906000907f8be0079c531659141344cd1fd0a4f28419497f9722a3daafe3b4186f6b6457e0908290a3801561111f576000805461ff00191690555050565b6111fd61040f565b1561121a5760405162461bcd60e51b81526004016106bd90612a94565b61122c826001600160a01b031661180f565b6112485760405162461bcd60e51b81526004016106bd906129e4565b606780546001600160a01b0319166001600160a01b038416179055606881905561127361033f61042e565b61127b611848565b6112836105fe565b61010001516067546040805163155594ab60e31b8152905161130b926001600160a01b03169163aaaca558916004808301926020929190829003018186803b1580156112ce57600080fd5b505afa1580156112e2573d6000803e3d6000fd5b505050506040513d601f19601f8201168201806040525061130691908101906121c4565b611467565b146113285760405162461bcd60e51b81526004016106bd90612a74565b6067546040805163155594ab60e31b8152905161111f926001600160a01b03169163aaaca558916004808301926020929190829003018186803b15801561136e57600080fd5b505afa158015611382573d6000803e3d6000fd5b505050506040513d601f19601f820116820180604052506113a691908101906121c4565b611866565b61271081565b60008060006040516113c290612944565b604051908190039020549250505090565b6067546001600160a01b031681565b6113ea61071f565b6114065760405162461bcd60e51b81526004016106bd90612a34565b61140f81611787565b50565b6000805b835481101561146057826001600160a01b031684828154811061143557fe5b6000918252602090912001546001600160a01b0316149150811561145857611460565b600101611416565b9250929050565b6040516370a0823160e01b81526000906001600160a01b038316906370a082319061149690309060040161294f565b60206040518083038186803b1580156114ae57600080fd5b505afa1580156114c2573d6000803e3d6000fd5b505050506040513d601f19601f82011682018060405250610693919081019061223a565b3390565b6000806114f56113b1565b6001600160a01b031663a734f06e6040518163ffffffff1660e01b815260040160206040518083038186803b15801561152d57600080fd5b505afa158015611541573d6000803e3d6000fd5b505050506040513d601f19601f8201168201806040525061156591908101906121c4565b6001600160a01b0316856001600160a01b0316146115f357846001600160a01b031663313ce5676040518163ffffffff1660e01b815260040160206040518083038186803b1580156115b657600080fd5b505afa1580156115ca573d6000803e3d6000fd5b505050506040513d601f19601f820116820180604052506115ee91908101906122ca565b6115f6565b60125b9050600061160486866118ca565b90506000816001600160a01b03166396237c026040518163ffffffff1660e01b815260040160206040518083038186803b15801561164157600080fd5b505afa158015611655573d6000803e3d6000fd5b505050506040513d601f19601f82011682018060405250611679919081019061223a565b905060ff8316600a0a611696816109e9888563ffffffff6116c916565b9450505050505b9392505050565b60008282018381101561169d5760405162461bcd60e51b81526004016106bd906129f4565b6000826116d857506000610693565b828202828482816116e557fe5b041461169d5760405162461bcd60e51b81526004016106bd90612a24565b600061169d83836040518060400160405280601a81526020017f536166654d6174683a206469766973696f6e206279207a65726f000000000000815250611ad2565b600061169d83836040518060400160405280601e81526020017f536166654d6174683a207375627472616374696f6e206f766572666c6f770000815250611b09565b6001600160a01b0381166117ad5760405162461bcd60e51b81526004016106bd906129c4565b6033546040516001600160a01b038084169216907f8be0079c531659141344cd1fd0a4f28419497f9722a3daafe3b4186f6b6457e090600090a3603380546001600160a01b0319166001600160a01b0392909216919091179055565b303b1590565b6000813f7fc5d2460186f7233c927e7db2dcc703c0e500b653ca82273b7bfad8045d85a470818114801590610405575050151592915050565b600060405161185690612939565b6040519081900390206001905550565b60008061187a60668463ffffffff61141216565b91509150600061188984611467565b11156118ac57816118a7576118a560668463ffffffff611b3516565b505b6118c5565b81156118c5576118c360668263ffffffff611be916565b505b505050565b60006118d46113b1565b6001600160a01b03166302d58da76040518163ffffffff1660e01b815260040160206040518083038186803b15801561190c57600080fd5b505afa158015611920573d6000803e3d6000fd5b505050506040513d601f19601f820116820180604052506119449190810190612258565b6001600160a01b031663662a3e5884846040518363ffffffff1660e01b815260040161197192919061295d565b60206040518083038186803b15801561198957600080fd5b505afa15801561199d573d6000803e3d6000fd5b505050506040513d601f19601f820116820180604052506119c1919081019061221c565b6119dd5760405162461bcd60e51b81526004016106bd90612a54565b6119e56113b1565b6001600160a01b03166302d58da76040518163ffffffff1660e01b815260040160206040518083038186803b158015611a1d57600080fd5b505afa158015611a31573d6000803e3d6000fd5b505050506040513d601f19601f82011682018060405250611a559190810190612258565b6001600160a01b031663c495931784846040518363ffffffff1660e01b8152600401611a8292919061295d565b60206040518083038186803b158015611a9a57600080fd5b505afa158015611aae573d6000803e3d6000fd5b505050506040513d601f19601f8201168201806040525061169d9190810190612258565b60008183611af35760405162461bcd60e51b81526004016106bd91906129b3565b506000838581611aff57fe5b0495945050505050565b60008184841115611b2d5760405162461bcd60e51b81526004016106bd91906129b3565b505050900390565b60606001600160a01b038216611b5d5760405162461bcd60e51b81526004016106bd90612a04565b8254600181018455600084815260209081902090910180546001600160a01b0319166001600160a01b0385161790558354604080518284028101840190915281815291859190830182828015611bdc57602002820191906000526020600020905b81546001600160a01b03168152600190910190602001808311611bbe575b5050505050905092915050565b81546060908210611c5157825460408051602080840282018101909252828152918591830182828015611c4557602002820191906000526020600020905b81546001600160a01b03168152600190910190602001808311611c27575b50505050509050610693565b825460001901821415611cf557825483906000198101908110611c7057fe5b600091825260209091200180546001600160a01b03191690558254611c99846000198301611eef565b50825460408051602080840282018101909252828152918591830182828015611c45576020028201919060005260206000209081546001600160a01b03168152600190910190602001808311611c275750505050509050610693565b825460009084906000198101908110611d0a57fe5b60009182526020909120015484546001600160a01b039091169150849084908110611d3157fe5b60009182526020909120015484546001600160a01b039091169085906000198101908110611d5b57fe5b9060005260206000200160006101000a8154816001600160a01b0302191690836001600160a01b0316021790555080848481548110611d9657fe5b600091825260209091200180546001600160a01b0319166001600160a01b0392909216919091179055835484906000198101908110611dd157fe5b600091825260209091200180546001600160a01b03191690558354611dfa856000198301611eef565b50835460408051602080840282018101909252828152918691830182828015611e4c57602002820191906000526020600020905b81546001600160a01b03168152600190910190602001808311611e2e575b505050505091505092915050565b60405180610180016040528060008152602001611e75611f13565b81526020016000815260200160008152602001600081526020016000815260200160008152602001600081526020016000815260200160006001600160a01b0316815260200160006003811115611ec857fe5b8152600060209091015290565b604051806040016040528060008152602001600081525090565b8154818355818111156118c5576000838152602090206118c5918101908301611f5b565b6040518060c0016040528060006001600160a01b0316815260200160006001600160a01b03168152602001600081526020016000815260200160008152602001600081525090565b6104ba91905b80821115611f755760008155600101611f61565b5090565b803561069381612bc7565b805161069381612bc7565b805161069381612bdb565b805161069381612be4565b805161069381612bed565b805161069381612bf6565b600060408284031215611fcd57600080fd5b50919050565b600060c08284031215611fe557600080fd5b611fef60c0612af8565b90506000611ffd8484611f84565b825250602061200e84848301611f84565b602083015250604061202284828501611f9a565b604083015250606061203684828501611f9a565b606083015250608061204a84828501611f9a565b60808301525060a061205e84828501611f9a565b60a08301525092915050565b6000610220828403121561207d57600080fd5b612088610180612af8565b905060006120968484611f9a565b82525060206120a784848301611fd3565b60208301525060e06120bb84828501611f9a565b6040830152506101006120d084828501611f9a565b6060830152506101206120e584828501611f9a565b6080830152506101406120fa84828501611f9a565b60a08301525061016061210f84828501611f9a565b60c08301525061018061212484828501611f9a565b60e0830152506101a061213984828501611f9a565b610100830152506101c061214f84828501611f84565b610120830152506101e061216584828501611fb0565b6101408301525061020061217b84828501611f8f565b6101608301525092915050565b803561069381612be4565b805161069381612c03565b6000602082840312156121b057600080fd5b60006121bc8484611f79565b949350505050565b6000602082840312156121d657600080fd5b60006121bc8484611f84565b600080604083850312156121f557600080fd5b60006122018585611f79565b925050602061221285828601612188565b9150509250929050565b60006020828403121561222e57600080fd5b60006121bc8484611f8f565b60006020828403121561224c57600080fd5b60006121bc8484611f9a565b60006020828403121561226a57600080fd5b60006121bc8484611fa5565b60006020828403121561228857600080fd5b813567ffffffffffffffff81111561229f57600080fd5b6121bc84828501611fbb565b600061022082840312156122be57600080fd5b60006121bc848461206a565b6000602082840312156122dc57600080fd5b60006121bc8484612193565b60006122f483836122fc565b505060200190565b61230581612b32565b82525050565b600061231682612b25565b6123208185612b29565b935061232b83612b1f565b8060005b8381101561235957815161234388826122e8565b975061234e83612b1f565b92505060010161232f565b509495945050505050565b61230581612b3d565b612305816104ba565b6000612382838561040a565b935061238f838584612b7b565b50500190565b61230581612b42565b61230581612b70565b60006123b282612b25565b6123bc8185612b29565b93506123cc818560208601612b87565b6123d581612bb3565b9093019392505050565b60006123ec601c8361040a565b7f54496e697469616c697a61626c652e6973496e697469616c697a6564000000008152601c0192915050565b6000612425602683612b29565b7f4f776e61626c653a206e6577206f776e657220697320746865207a65726f206181526564647265737360d01b602082015260400192915050565b600061246d601083612b29565b6f1110541417d0d0531317d1905253115160821b815260200192915050565b6000612499601883612b29565b7f4c4f414e535f4d5553545f42455f415f434f4e54524143540000000000000000815260200192915050565b60006124d2601b83612b29565b7f536166654d6174683a206164646974696f6e206f766572666c6f770000000000815260200192915050565b600061250b601983612b29565b7f454d5054595f414444524553535f4e4f545f414c4c4f57454400000000000000815260200192915050565b6000612544601483612b29565b731110541417d393d517d5d2125511531254d5115160621b815260200192915050565b6000612574602183612b29565b7f536166654d6174683a206d756c7469706c69636174696f6e206f766572666c6f8152607760f81b602082015260400192915050565b60006125b7602083612b29565b7f4f776e61626c653a2063616c6c6572206973206e6f7420746865206f776e6572815260200192915050565b60006125f0602e83612b29565b7f436f6e747261637420696e7374616e63652068617320616c726561647920626581526d195b881a5b9a5d1a585b1a5e995960921b602082015260400192915050565b6000612640602483612b29565b7f434841494e4c494e4b5f504149525f41474752454741544f525f4e4f545f45588152634953545360e01b602082015260400192915050565b6000612686601d83612b29565b7f455343524f575f494e454c494749424c455f544f5f5055524348415345000000815260200192915050565b60006126bf601d83612b29565b7f455343524f575f42414c414e43455f4e4f545f4d415443485f4c4f414e000000815260200192915050565b60006126f860188361040a565b7f426173655570677261646561626c652e73657474696e67730000000000000000815260180192915050565b6000612731601883612b29565b7f434f4e54524143545f4e4f545f494e495449414c495a45440000000000000000815260200192915050565b600061276a601c83612b29565b7f434f4e54524143545f414c52454144595f494e495449414c495a454400000000815260200192915050565b805160408301906127a7848261236d565b5060208201516118c3602085018261236d565b805160c08301906127cb84826122fc565b5060208201516127de60208501826122fc565b5060408201516127f1604085018261236d565b506060820151612804606085018261236d565b506080820151612817608085018261236d565b5060a08201516118c360a085018261236d565b805161022083019061283c848261236d565b50602082015161284f60208501826127ba565b50604082015161286260e085018261236d565b50606082015161287661010085018261236d565b50608082015161288a61012085018261236d565b5060a082015161289e61014085018261236d565b5060c08201516128b261016085018261236d565b5060e08201516128c661018085018261236d565b506101008201516128db6101a085018261236d565b506101208201516128f06101c08501826122fc565b506101408201516129056101e085018261239e565b506101608201516118c3610200850182612364565b61230581612b57565b61230581612b6a565b60006121bc828486612376565b6000610693826123df565b6000610693826126eb565b6020810161069382846122fc565b6040810161296b82856122fc565b61169d60208301846122fc565b6020808252810161169d818461230b565b602081016106938284612364565b60208101610693828461236d565b602081016106938284612395565b6020808252810161169d81846123a7565b6020808252810161069381612418565b6020808252810161069381612460565b602080825281016106938161248c565b60208082528101610693816124c5565b60208082528101610693816124fe565b6020808252810161069381612537565b6020808252810161069381612567565b60208082528101610693816125aa565b60208082528101610693816125e3565b6020808252810161069381612633565b6020808252810161069381612679565b60208082528101610693816126b2565b6020808252810161069381612724565b602080825281016106938161275d565b604081016106938284612796565b6102208101610693828461282a565b60208101610693828461291a565b60408101612add828561236d565b61169d602083018461236d565b602081016106938284612923565b60405181810167ffffffffffffffff81118282101715612b1757600080fd5b604052919050565b60200190565b5190565b90815260200190565b600061069382612b5e565b151590565b600061069382612b32565b8061040a81612bbd565b61ffff1690565b6001600160a01b031690565b60ff1690565b600061069382612b4d565b82818337506000910152565b60005b83811015612ba2578181015183820152602001612b8a565b838111156118c35750506000910152565b601f01601f191690565b6004811061140f57fe5b612bd081612b32565b811461140f57600080fd5b612bd081612b3d565b612bd0816104ba565b612bd081612b42565b6004811061140f57600080fd5b612bd081612b6a56fea365627a7a7231582078acf6c5987c60d1479d8ef578a5c2255da7bfc97557fd670422e1a26a8449836c6578706572696d656e74616cf564736f6c63430005110040",
  "source": "pragma solidity 0.5.17;\npragma experimental ABIEncoderV2;\n\n// Contracts\nimport \"./BaseUpgradeable.sol\";\nimport \"./BaseEscrowDapp.sol\";\nimport \"./TInitializable.sol\";\n\n// Interfaces\nimport \"../interfaces/EscrowInterface.sol\";\nimport \"../interfaces/LoansInterface.sol\";\nimport \"../interfaces/PairAggregatorInterface.sol\";\n\n// Libraries\nimport \"@openzeppelin/contracts-ethereum-package/contracts/math/SafeMath.sol\";\nimport \"@openzeppelin/contracts-ethereum-package/contracts/token/ERC20/ERC20Detailed.sol\";\nimport \"../util/SettingsConsts.sol\";\nimport \"../util/TellerCommon.sol\";\nimport \"../providers/openzeppelin/SignedSafeMath.sol\";\n\n/*****************************************************************************************************/\n/**                                             WARNING                                             **/\n/**                                  THIS CONTRACT IS UPGRADEABLE!                                  **/\n/**  ---------------------------------------------------------------------------------------------  **/\n/**  Do NOT change the order of or PREPEND any storage variables to this or new versions of this    **/\n/**  contract as this will cause the the storage slots to be overwritten on the proxy contract!!    **/\n/**                                                                                                 **/\n/**  Visit https://docs.openzeppelin.com/upgrades/2.6/proxies#upgrading-via-the-proxy-pattern for   **/\n/**  more information.                                                                              **/\n/*****************************************************************************************************/\n/**\n    @notice This contract is used by borrowers to call DApp functions (using delegate calls).\n    @notice This contract should only be constructed using it's upgradeable Proxy contract.\n    @notice In order to call a DApp function, the DApp must be added in the EscrowFactory instance.\n    @dev The current DApp implementations are: Uniswap and Compound.\n\n    @author develop@teller.finance\n */\ncontract Escrow is EscrowInterface, TInitializable, BaseUpgradeable, BaseEscrowDapp {\n    using Address for address;\n    using SafeMath for uint256;\n    using SignedSafeMath for uint256;\n\n    // Numerical representation of 100.00 percent.\n    uint16 public constant ONE_HUNDRED_PERCENT = 10000;\n\n    // Ethereum decimal places.\n    uint8 public constant ETH_DECIMALS = 18;\n\n    /** State Variables **/\n\n    /**\n        @notice It is the current loans contract instance.\n     */\n    LoansInterface public loans;\n\n    /**\n        @notice This loan id refers the loan in the loans contract.\n        @notice This loan was taken out by a borrower.\n     */\n    uint256 public loanID;\n\n    /** Modifiers **/\n\n    /** Public Functions **/\n\n    /**\n        @notice Checks if loan is active. \n        @return true in case loan is active.  \n     */\n    function isLoanActive() public view returns (bool) {\n        return getLoan().status == TellerCommon.LoanStatus.Active;\n    }\n\n    /**\n        @notice It calls a given dapp using a delegatecall function by a borrower owned the current loan id associated to this escrow contract.\n        @param dappData the current dapp data to be executed.\n     */\n    function callDapp(TellerCommon.DappData calldata dappData)\n        external\n        isInitialized()\n        onlyOwner()\n    {\n        require(\n            settings().escrowFactory().isDapp(dappData.location),\n            \"DAPP_NOT_WHITELISTED\"\n        );\n\n        (bool success, ) = dappData.location.delegatecall(dappData.data);\n\n        require(success, \"DAPP_CALL_FAILED\");\n    }\n\n    /**\n        @notice Gets the borrower for this Escrow's loan.\n        @return address of this Escrow's loans\n     */\n    function getBorrower() public view returns (address) {\n        return loans.loans(loanID).loanTerms.borrower;\n    }\n\n    /**\n        @notice Returns this Escrow's loan instance. \n     */\n    function getLoan() public view returns (TellerCommon.Loan memory) {\n        return loans.loans(loanID);\n    }\n\n    /**\n        @notice Calculate this Escrow instance total value. \n        @return This Escrow instance total value expressed in ETH and Token value. \n     */\n    function calculateTotalValue() public view returns (TellerCommon.EscrowValue memory) {\n        address[] memory tokens = getTokens();\n\n        uint256 valueInEth = 0;\n\n        for (uint256 i = 0; i < tokens.length; i++) {\n            uint256 tokenEthValue = _valueOfIn(\n                tokens[i],\n                settings().ETH_ADDRESS(),\n                _balanceOf(tokens[i])\n            );\n            valueInEth = valueInEth.add(tokenEthValue);\n        }\n\n        uint256 collateralValue = getLoan().collateral;\n        if (getLoan().loanTerms.collateralRatio > 0) {\n            uint256 bufferPercent = settings().getPlatformSettingValue(\n                settings().consts().COLLATERAL_BUFFER_SETTING()\n            );\n            uint256 buffer = collateralValue.mul(bufferPercent).div(ONE_HUNDRED_PERCENT);\n            collateralValue = collateralValue.sub(buffer);\n        }\n\n        if (loans.collateralToken() == settings().ETH_ADDRESS()) {\n            valueInEth = valueInEth.add(collateralValue);\n        } else {\n            uint256 collateralEthValue = _valueOfIn(\n                loans.collateralToken(),\n                settings().ETH_ADDRESS(),\n                collateralValue\n            );\n            valueInEth = valueInEth.add(collateralEthValue);\n        }\n\n        uint256 valueInToken = _valueOfIn(\n            settings().ETH_ADDRESS(),\n            loans.lendingToken(),\n            valueInEth\n        );\n\n        return\n            TellerCommon.EscrowValue({\n                valueInEth: valueInEth,\n                valueInToken: valueInToken\n            });\n    }\n\n    /**\n        @notice Checks if current Escrow instance loan can be liquidated.\n        @return true if loan can be liquidated.\n     */\n    function canPurchase() public view returns (bool) {\n        return loans.canLiquidateLoan(loanID);\n    }\n\n    /**\n        @notice Checks if this Escrow loan value is undervalued based its token price.\n        @return true if this escrow loan is undervalued based on its token price.\n     */\n    function isUnderValued() external view returns (bool) {\n        return calculateTotalValue().valueInToken < loans.getTotalOwed(loanID);\n    }\n\n    /**\n        @notice Purchase this Escrow's loan if it is eligible to liquidate and transfers ownership\n            to msg.sender.\n        @dev Events are emitted when repay() and _transferOwnership().\n     */\n    function purchaseLoanDebt() external payable {\n        require(canPurchase(), \"ESCROW_INELIGIBLE_TO_PURCHASE\");\n\n        loans.repay(loans.getTotalOwed(loanID), loanID);\n\n        _transferOwnership(msg.sender);\n    }\n\n    /**\n        @notice It initializes this escrow instance for a given loans address and loan id.\n        @param loansAddress loans contract address.\n        @param aLoanID the loan ID associated to this escrow instance.\n     */\n    function initialize(address loansAddress, uint256 aLoanID) public isNotInitialized() {\n        require(loansAddress.isContract(), \"LOANS_MUST_BE_A_CONTRACT\");\n\n        loans = LoansInterface(loansAddress);\n        loanID = aLoanID;\n\n        Ownable.initialize(getBorrower());\n        TInitializable._initialize();\n\n        // Initialize tokens list with the borrowed token.\n        require(\n            _balanceOf(loans.lendingToken()) == getLoan().borrowedAmount,\n            \"ESCROW_BALANCE_NOT_MATCH_LOAN\"\n        );\n        _tokenUpdated(loans.lendingToken());\n    }\n\n    /** Internal Functions */\n\n    /**\n        @notice Calculate this Escrow instance loan value in ETH or Token price.\n        @return Loan value in ETH or Token price based on baseAddress.\n        @param baseAddress base token or ETH address.\n        @param quoteAddress quote token address.\n        @param baseAmount amount of base token or ETH.\n    */\n    function _valueOfIn(\n        address baseAddress,\n        address quoteAddress,\n        uint256 baseAmount\n    ) internal view returns (uint256) {\n        uint8 baseDecimals = baseAddress == settings().ETH_ADDRESS()\n            ? ETH_DECIMALS\n            : ERC20Detailed(baseAddress).decimals();\n        PairAggregatorInterface aggregator = _getAggregatorFor(baseAddress, quoteAddress);\n        uint256 oneTokenPrice = uint256(aggregator.getLatestAnswer());\n        uint256 oneUnit = uint256(10)**baseDecimals;\n        return baseAmount.mul(oneTokenPrice).div(oneUnit);\n    }\n\n    /**\n        @notice Returns Chainlink pair aggregator for token or revert if not found.\n        @param base base token address.\n        @param quote quote token address.\n        @return PairAggregator instance found for this tokens pair.\n     */\n    function _getAggregatorFor(address base, address quote)\n        internal\n        view\n        returns (PairAggregatorInterface)\n    {\n        require(\n            settings().pairAggregatorRegistry().hasPairAggregator(base, quote),\n            \"CHAINLINK_PAIR_AGGREGATOR_NOT_EXISTS\"\n        );\n\n        return settings().pairAggregatorRegistry().getPairAggregator(base, quote);\n    }\n}\n",
  "sourcePath": "/Users/sy/Documents/GitHub/teller-protocol-v1/contracts/base/Escrow.sol",
  "compiler": {
    "name": "solc",
    "version": "0.5.17+commit.d19bba13.Emscripten.clang"
  },
  "schemaVersion": "3.0.23",
  "updatedAt": "2020-09-15T23:09:49.688Z",
  "devdoc": {
    "author": "develop@teller.finance",
    "details": "The current DApp implementations are: Uniswap and Compound.",
    "methods": {
      "balanceOf(address)": {
        "params": {
          "cTokenAddress": "token address."
        },
        "return": "this contract's balance."
      },
      "calculateTotalValue()": {
        "return": "This Escrow instance total value expressed in ETH and Token value. "
      },
      "callDapp((address,bytes))": {
        "params": {
          "dappData": "the current dapp data to be executed."
        }
      },
      "canPurchase()": {
        "return": "true if loan can be liquidated."
      },
      "getBorrower()": {
        "return": "address of this Escrow's loans"
      },
      "initialize(address)": {
        "details": "Initializes the contract setting the deployer as the initial owner."
      },
      "initialize(address,uint256)": {
        "params": {
          "aLoanID": "the loan ID associated to this escrow instance.",
          "loansAddress": "loans contract address."
        }
      },
      "initialized()": {
        "return": "true if contract is initialized. Otherwise it returns false."
      },
      "isLoanActive()": {
        "return": "true in case loan is active.  "
      },
      "isOwner()": {
        "details": "Returns true if the caller is the current owner."
      },
      "isUnderValued()": {
        "return": "true if this escrow loan is undervalued based on its token price."
      },
      "owner()": {
        "details": "Returns the address of the current owner."
      },
      "purchaseLoanDebt()": {
        "details": "Events are emitted when repay() and _transferOwnership()."
      },
      "renounceOwnership()": {
        "details": "Leaves the contract without owner. It will not be possible to call `onlyOwner` functions anymore. Can only be called by the current owner.     * > Note: Renouncing ownership will leave the contract without an owner, thereby removing any functionality that is only available to the owner."
      },
      "settings()": {
        "details": "This address should NOT change over the time. See details in the _setSettings(...) function."
      },
      "transferOwnership(address)": {
        "details": "Transfers ownership of the contract to a new account (`newOwner`). Can only be called by the current owner."
      }
    }
  },
  "userdoc": {
    "methods": {
      "balanceOf(address)": {
        "notice": "Returns this contract's balance for the specified token."
      },
      "calculateTotalValue()": {
        "notice": "Calculate this Escrow instance total value. "
      },
      "callDapp((address,bytes))": {
        "notice": "It calls a given dapp using a delegatecall function by a borrower owned the current loan id associated to this escrow contract."
      },
      "canPurchase()": {
        "notice": "Checks if current Escrow instance loan can be liquidated."
      },
      "getBorrower()": {
        "notice": "Gets the borrower for this Escrow's loan."
      },
      "getLoan()": {
        "notice": "Returns this Escrow's loan instance. "
      },
      "initialize(address,uint256)": {
        "notice": "It initializes this escrow instance for a given loans address and loan id."
      },
      "initialized()": {
        "notice": "Gets if the contract is initialized."
      },
      "isLoanActive()": {
        "notice": "Checks if loan is active. "
      },
      "isUnderValued()": {
        "notice": "Checks if this Escrow loan value is undervalued based its token price."
      },
      "purchaseLoanDebt()": {
        "notice": "Purchase this Escrow's loan if it is eligible to liquidate and transfers ownership to msg.sender."
      },
      "settings()": {
        "notice": "The gets the settings contract address from the SETTINGS_SLOT."
      }
    },
    "notice": "This contract is used by borrowers to call DApp functions (using delegate calls).This contract should only be constructed using it's upgradeable Proxy contract.In order to call a DApp function, the DApp must be added in the EscrowFactory instance."
  }
}