{
  "contractName": "EscrowMock",
  "abi": [
    {
      "anonymous": false,
      "inputs": [
        {
          "indexed": true,
          "internalType": "address",
          "name": "previousOwner",
          "type": "address"
        },
        {
          "indexed": true,
          "internalType": "address",
          "name": "newOwner",
          "type": "address"
        }
      ],
      "name": "OwnershipTransferred",
      "type": "event"
    },
    {
      "constant": true,
      "inputs": [],
      "name": "ETH_DECIMALS",
      "outputs": [
        {
          "internalType": "uint8",
          "name": "",
          "type": "uint8"
        }
      ],
      "payable": false,
      "stateMutability": "view",
      "type": "function"
    },
    {
      "constant": true,
      "inputs": [],
      "name": "ONE_HUNDRED_PERCENT",
      "outputs": [
        {
          "internalType": "uint16",
          "name": "",
          "type": "uint16"
        }
      ],
      "payable": false,
      "stateMutability": "view",
      "type": "function"
    },
    {
      "constant": true,
      "inputs": [],
      "name": "_borrower",
      "outputs": [
        {
          "internalType": "address",
          "name": "",
          "type": "address"
        }
      ],
      "payable": false,
      "stateMutability": "view",
      "type": "function"
    },
    {
      "constant": true,
      "inputs": [],
      "name": "_isOwner",
      "outputs": [
        {
          "internalType": "bool",
          "name": "",
          "type": "bool"
        }
      ],
      "payable": false,
      "stateMutability": "view",
      "type": "function"
    },
    {
      "constant": true,
      "inputs": [],
      "name": "_loanStatus",
      "outputs": [
        {
          "internalType": "enum TellerCommon.LoanStatus",
          "name": "",
          "type": "uint8"
        }
      ],
      "payable": false,
      "stateMutability": "view",
      "type": "function"
    },
    {
      "constant": true,
      "inputs": [
        {
          "internalType": "address",
          "name": "",
          "type": "address"
        },
        {
          "internalType": "address",
          "name": "",
          "type": "address"
        }
      ],
      "name": "_valueOfInMapMock",
      "outputs": [
        {
          "internalType": "uint256",
          "name": "",
          "type": "uint256"
        }
      ],
      "payable": false,
      "stateMutability": "view",
      "type": "function"
    },
    {
      "constant": true,
      "inputs": [
        {
          "internalType": "address",
          "name": "cTokenAddress",
          "type": "address"
        }
      ],
      "name": "balanceOf",
      "outputs": [
        {
          "internalType": "uint256",
          "name": "",
          "type": "uint256"
        }
      ],
      "payable": false,
      "stateMutability": "view",
      "type": "function"
    },
    {
      "constant": true,
      "inputs": [],
      "name": "calculateTotalValue",
      "outputs": [
        {
          "components": [
            {
              "internalType": "uint256",
              "name": "valueInToken",
              "type": "uint256"
            },
            {
              "internalType": "uint256",
              "name": "valueInEth",
              "type": "uint256"
            }
          ],
          "internalType": "struct TellerCommon.EscrowValue",
          "name": "",
          "type": "tuple"
        }
      ],
      "payable": false,
      "stateMutability": "view",
      "type": "function"
    },
    {
      "constant": false,
      "inputs": [
        {
          "components": [
            {
              "internalType": "address",
              "name": "location",
              "type": "address"
            },
            {
              "internalType": "bytes",
              "name": "data",
              "type": "bytes"
            }
          ],
          "internalType": "struct TellerCommon.DappData",
          "name": "dappData",
          "type": "tuple"
        }
      ],
      "name": "callDapp",
      "outputs": [],
      "payable": false,
      "stateMutability": "nonpayable",
      "type": "function"
    },
    {
      "constant": true,
      "inputs": [],
      "name": "canPurchase",
      "outputs": [
        {
          "internalType": "bool",
          "name": "",
          "type": "bool"
        }
      ],
      "payable": false,
      "stateMutability": "view",
      "type": "function"
    },
    {
      "constant": false,
      "inputs": [
        {
          "internalType": "address",
          "name": "tokenAddress",
          "type": "address"
        }
      ],
      "name": "clearBalance",
      "outputs": [],
      "payable": false,
      "stateMutability": "nonpayable",
      "type": "function"
    },
    {
      "constant": false,
      "inputs": [
        {
          "internalType": "address[]",
          "name": "tokenList",
          "type": "address[]"
        }
      ],
      "name": "externalSetTokens",
      "outputs": [],
      "payable": false,
      "stateMutability": "nonpayable",
      "type": "function"
    },
    {
      "constant": false,
      "inputs": [
        {
          "internalType": "address",
          "name": "tokenAddress",
          "type": "address"
        }
      ],
      "name": "externalTokenUpdated",
      "outputs": [],
      "payable": false,
      "stateMutability": "nonpayable",
      "type": "function"
    },
    {
      "constant": true,
      "inputs": [
        {
          "internalType": "address",
          "name": "tokenAddress",
          "type": "address"
        }
      ],
      "name": "findTokenIndex",
      "outputs": [
        {
          "internalType": "int256",
          "name": "",
          "type": "int256"
        }
      ],
      "payable": false,
      "stateMutability": "view",
      "type": "function"
    },
    {
      "constant": true,
      "inputs": [],
      "name": "getLoan",
      "outputs": [
        {
          "components": [
            {
              "internalType": "uint256",
              "name": "id",
              "type": "uint256"
            },
            {
              "components": [
                {
                  "internalType": "address payable",
                  "name": "borrower",
                  "type": "address"
                },
                {
                  "internalType": "address",
                  "name": "recipient",
                  "type": "address"
                },
                {
                  "internalType": "uint256",
                  "name": "interestRate",
                  "type": "uint256"
                },
                {
                  "internalType": "uint256",
                  "name": "collateralRatio",
                  "type": "uint256"
                },
                {
                  "internalType": "uint256",
                  "name": "maxLoanAmount",
                  "type": "uint256"
                },
                {
                  "internalType": "uint256",
                  "name": "duration",
                  "type": "uint256"
                }
              ],
              "internalType": "struct TellerCommon.LoanTerms",
              "name": "loanTerms",
              "type": "tuple"
            },
            {
              "internalType": "uint256",
              "name": "termsExpiry",
              "type": "uint256"
            },
            {
              "internalType": "uint256",
              "name": "loanStartTime",
              "type": "uint256"
            },
            {
              "internalType": "uint256",
              "name": "collateral",
              "type": "uint256"
            },
            {
              "internalType": "uint256",
              "name": "lastCollateralIn",
              "type": "uint256"
            },
            {
              "internalType": "uint256",
              "name": "principalOwed",
              "type": "uint256"
            },
            {
              "internalType": "uint256",
              "name": "interestOwed",
              "type": "uint256"
            },
            {
              "internalType": "uint256",
              "name": "borrowedAmount",
              "type": "uint256"
            },
            {
              "internalType": "address",
              "name": "escrow",
              "type": "address"
            },
            {
              "internalType": "enum TellerCommon.LoanStatus",
              "name": "status",
              "type": "uint8"
            },
            {
              "internalType": "bool",
              "name": "liquidated",
              "type": "bool"
            }
          ],
          "internalType": "struct TellerCommon.Loan",
          "name": "",
          "type": "tuple"
        }
      ],
      "payable": false,
      "stateMutability": "view",
      "type": "function"
    },
    {
      "constant": true,
      "inputs": [],
      "name": "getTokens",
      "outputs": [
        {
          "internalType": "address[]",
          "name": "",
          "type": "address[]"
        }
      ],
      "payable": false,
      "stateMutability": "view",
      "type": "function"
    },
    {
      "constant": false,
      "inputs": [
        {
          "internalType": "address",
          "name": "sender",
          "type": "address"
        }
      ],
      "name": "initialize",
      "outputs": [],
      "payable": false,
      "stateMutability": "nonpayable",
      "type": "function"
    },
    {
      "constant": false,
      "inputs": [
        {
          "internalType": "address",
          "name": "loansAddress",
          "type": "address"
        },
        {
          "internalType": "uint256",
          "name": "aLoanID",
          "type": "uint256"
        }
      ],
      "name": "initialize",
      "outputs": [],
      "payable": false,
      "stateMutability": "nonpayable",
      "type": "function"
    },
    {
      "constant": true,
      "inputs": [],
      "name": "initialized",
      "outputs": [
        {
          "internalType": "bool",
          "name": "value",
          "type": "bool"
        }
      ],
      "payable": false,
      "stateMutability": "view",
      "type": "function"
    },
    {
      "constant": true,
      "inputs": [],
      "name": "isLoanActive",
      "outputs": [
        {
          "internalType": "bool",
          "name": "",
          "type": "bool"
        }
      ],
      "payable": false,
      "stateMutability": "view",
      "type": "function"
    },
    {
      "constant": true,
      "inputs": [],
      "name": "isUnderValued",
      "outputs": [
        {
          "internalType": "bool",
          "name": "",
          "type": "bool"
        }
      ],
      "payable": false,
      "stateMutability": "view",
      "type": "function"
    },
    {
      "constant": true,
      "inputs": [],
      "name": "loanID",
      "outputs": [
        {
          "internalType": "uint256",
          "name": "",
          "type": "uint256"
        }
      ],
      "payable": false,
      "stateMutability": "view",
      "type": "function"
    },
    {
      "constant": true,
      "inputs": [],
      "name": "loans",
      "outputs": [
        {
          "internalType": "contract LoansInterface",
          "name": "",
          "type": "address"
        }
      ],
      "payable": false,
      "stateMutability": "view",
      "type": "function"
    },
    {
      "constant": true,
      "inputs": [],
      "name": "owner",
      "outputs": [
        {
          "internalType": "address",
          "name": "",
          "type": "address"
        }
      ],
      "payable": false,
      "stateMutability": "view",
      "type": "function"
    },
    {
      "constant": false,
      "inputs": [],
      "name": "purchaseLoanDebt",
      "outputs": [],
      "payable": true,
      "stateMutability": "payable",
      "type": "function"
    },
    {
      "constant": false,
      "inputs": [],
      "name": "renounceOwnership",
      "outputs": [],
      "payable": false,
      "stateMutability": "nonpayable",
      "type": "function"
    },
    {
      "constant": true,
      "inputs": [],
      "name": "settings",
      "outputs": [
        {
          "internalType": "contract SettingsInterface",
          "name": "",
          "type": "address"
        }
      ],
      "payable": false,
      "stateMutability": "view",
      "type": "function"
    },
    {
      "constant": false,
      "inputs": [
        {
          "internalType": "address",
          "name": "newOwner",
          "type": "address"
        }
      ],
      "name": "transferOwnership",
      "outputs": [],
      "payable": false,
      "stateMutability": "nonpayable",
      "type": "function"
    },
    {
      "constant": false,
      "inputs": [
        {
          "internalType": "address",
          "name": "settingsAddress",
          "type": "address"
        }
      ],
      "name": "externalSetSettings",
      "outputs": [],
      "payable": false,
      "stateMutability": "nonpayable",
      "type": "function"
    },
    {
      "constant": false,
      "inputs": [
        {
          "internalType": "bool",
          "name": "mockIsAOwner",
          "type": "bool"
        },
        {
          "internalType": "bool",
          "name": "isAOwner",
          "type": "bool"
        }
      ],
      "name": "mockIsOwner",
      "outputs": [],
      "payable": false,
      "stateMutability": "nonpayable",
      "type": "function"
    },
    {
      "constant": true,
      "inputs": [],
      "name": "getBorrower",
      "outputs": [
        {
          "internalType": "address",
          "name": "",
          "type": "address"
        }
      ],
      "payable": false,
      "stateMutability": "view",
      "type": "function"
    },
    {
      "constant": false,
      "inputs": [
        {
          "internalType": "address",
          "name": "settingsAddress",
          "type": "address"
        }
      ],
      "name": "mockSettings",
      "outputs": [],
      "payable": false,
      "stateMutability": "nonpayable",
      "type": "function"
    },
    {
      "constant": false,
      "inputs": [
        {
          "internalType": "address",
          "name": "borrower",
          "type": "address"
        },
        {
          "internalType": "enum TellerCommon.LoanStatus",
          "name": "loanStatus",
          "type": "uint8"
        }
      ],
      "name": "mockBorrowerAndStatus",
      "outputs": [],
      "payable": false,
      "stateMutability": "nonpayable",
      "type": "function"
    },
    {
      "constant": true,
      "inputs": [],
      "name": "isOwner",
      "outputs": [
        {
          "internalType": "bool",
          "name": "",
          "type": "bool"
        }
      ],
      "payable": false,
      "stateMutability": "view",
      "type": "function"
    },
    {
      "constant": false,
      "inputs": [],
      "name": "externalIsOwner",
      "outputs": [],
      "payable": false,
      "stateMutability": "nonpayable",
      "type": "function"
    },
    {
      "constant": true,
      "inputs": [
        {
          "internalType": "uint256",
          "name": "num1",
          "type": "uint256"
        },
        {
          "internalType": "uint256",
          "name": "num2",
          "type": "uint256"
        }
      ],
      "name": "testImplementationFunctionMultiply",
      "outputs": [
        {
          "internalType": "uint256",
          "name": "",
          "type": "uint256"
        }
      ],
      "payable": false,
      "stateMutability": "pure",
      "type": "function"
    },
    {
      "constant": false,
      "inputs": [
        {
          "internalType": "address",
          "name": "loansAddress",
          "type": "address"
        }
      ],
      "name": "mockLoans",
      "outputs": [],
      "payable": false,
      "stateMutability": "nonpayable",
      "type": "function"
    },
    {
      "constant": false,
      "inputs": [],
      "name": "mockCanPurchase",
      "outputs": [],
      "payable": false,
      "stateMutability": "nonpayable",
      "type": "function"
    },
    {
      "constant": false,
      "inputs": [
        {
          "internalType": "address",
          "name": "loansAddress",
          "type": "address"
        },
        {
          "internalType": "uint256",
          "name": "aLoanID",
          "type": "uint256"
        }
      ],
      "name": "mockInitialize",
      "outputs": [],
      "payable": false,
      "stateMutability": "nonpayable",
      "type": "function"
    },
    {
      "constant": false,
      "inputs": [
        {
          "internalType": "address",
          "name": "base",
          "type": "address"
        },
        {
          "internalType": "address",
          "name": "quote",
          "type": "address"
        },
        {
          "internalType": "uint256",
          "name": "value",
          "type": "uint256"
        }
      ],
      "name": "mockValueOfIn",
      "outputs": [],
      "payable": false,
      "stateMutability": "nonpayable",
      "type": "function"
    },
    {
      "constant": true,
      "inputs": [
        {
          "internalType": "address",
          "name": "baseAddress",
          "type": "address"
        },
        {
          "internalType": "address",
          "name": "quoteAddress",
          "type": "address"
        },
        {
          "internalType": "uint256",
          "name": "baseAmount",
          "type": "uint256"
        }
      ],
      "name": "externalValueOfIn",
      "outputs": [
        {
          "internalType": "uint256",
          "name": "",
          "type": "uint256"
        }
      ],
      "payable": false,
      "stateMutability": "view",
      "type": "function"
    },
    {
      "constant": false,
      "inputs": [
        {
          "internalType": "address",
          "name": "aggregatorAddress",
          "type": "address"
        }
      ],
      "name": "mockGetAggregatorFor",
      "outputs": [],
      "payable": false,
      "stateMutability": "nonpayable",
      "type": "function"
    },
    {
      "constant": true,
      "inputs": [
        {
          "internalType": "address",
          "name": "base",
          "type": "address"
        },
        {
          "internalType": "address",
          "name": "quote",
          "type": "address"
        }
      ],
      "name": "externalGetAggregatorFor",
      "outputs": [
        {
          "internalType": "contract PairAggregatorInterface",
          "name": "",
          "type": "address"
        }
      ],
      "payable": false,
      "stateMutability": "view",
      "type": "function"
    }
  ],
  "bytecode": "0x6080604052613568806100136000396000f3fe60806040526004361061025c5760003560e01c8063715018a611610144578063af22d0d4116100b6578063c6f8e6491161007a578063c6f8e6491461068e578063cd6dc687146106a3578063dd0081c7146106c3578063e06174e4146106e5578063e9946b20146106fa578063f2fde38b1461070f5761025c565b8063af22d0d4146105ec578063b41304b11461060c578063b5a4e2401461062c578063b798ad831461064e578063c4d66de81461066e5761025c565b806395ea38871161010857806395ea38871461054057806396f5ac9c14610560578063974abfc414610580578063a06101d0146105a0578063aa6ca808146105c2578063ab794d21146105e45761025c565b8063715018a6146104ca5780637fd6a1c5146104df5780638da5cb5b146104f45780638f32d59b1461050957806392cd1ff21461051e5761025c565b80633fe9f52f116101dd57806352494a14116101a157806352494a14146104335780635cfaaaf51461044857806368c22007146103305780636ce8d99a14610475578063705caf5f1461049557806370a08231146104aa5761025c565b80633fe9f52f1461039c578063412179bc146103bc578063415dfa5b146103dc578063450bd5a9146103f15780634859b3f4146104115761025c565b8063215b0dc611610224578063215b0dc61461031b578063283bf816146103305780632efb15de1461035257806332ba65aa1461036757806334a6d832146103875761025c565b806305ae2d54146102615780630a11fd07146102975780630fcce0ec146102b7578063158ef93e146102d75780631cb0c3e7146102f9575b600080fd5b34801561026d57600080fd5b5061028161027c3660046129a0565b61072f565b60405161028e9190613292565b60405180910390f35b3480156102a357600080fd5b506102816102b2366004612922565b610746565b3480156102c357600080fd5b506102816102d2366004612966565b610778565b3480156102e357600080fd5b506102ec610795565b60405161028e9190613284565b34801561030557600080fd5b5061030e6107b4565b60405161028e919061324a565b34801561032757600080fd5b506102816107ca565b34801561033c57600080fd5b5061035061034b366004612922565b6107d0565b005b34801561035e57600080fd5b506102ec6107dc565b34801561037357600080fd5b50610350610382366004612922565b6107fe565b34801561039357600080fd5b506102ec610867565b3480156103a857600080fd5b506103506103b73660046129a0565b6108ef565b3480156103c857600080fd5b506103506103d7366004612aad565b61092e565b3480156103e857600080fd5b506102ec610951565b3480156103fd57600080fd5b5061035061040c366004612a1d565b6109e2565b34801561041d57600080fd5b50610426610a17565b60405161028e91906133cb565b34801561043f57600080fd5b506102ec610aa1565b34801561045457600080fd5b50610468610463366004612966565b610aaf565b60405161028e91906132a0565b34801561048157600080fd5b506103506104903660046129ed565b610ac4565b3480156104a157600080fd5b5061030e610b0b565b3480156104b657600080fd5b506102816104c5366004612922565b610b20565b3480156104d657600080fd5b50610350610b2b565b3480156104eb57600080fd5b50610350610ba2565b34801561050057600080fd5b5061030e610bc8565b34801561051557600080fd5b506102ec610bd7565b34801561052a57600080fd5b50610533610c05565b60405161028e9190613403565b34801561054c57600080fd5b5061035061055b366004612922565b610c0a565b34801561056c57600080fd5b5061035061057b366004612922565b610c2c565b34801561058c57600080fd5b5061035061059b366004612a4d565b610c35565b3480156105ac57600080fd5b506105b5610c71565b60405161028e91906133bd565b3480156105ce57600080fd5b506105d76112a8565b60405161028e9190613273565b61035061130a565b3480156105f857600080fd5b50610350610607366004612922565b611411565b34801561061857600080fd5b50610350610627366004612b19565b611433565b34801561063857600080fd5b50610641611666565b60405161028e91906132ae565b34801561065a57600080fd5b50610281610669366004612b6d565b611676565b34801561067a57600080fd5b50610350610689366004612922565b61167a565b34801561069a57600080fd5b5061035061174c565b3480156106af57600080fd5b506103506106be366004612a1d565b611761565b3480156106cf57600080fd5b506106d8611917565b60405161028e91906133da565b3480156106f157600080fd5b5061046861191d565b34801561070657600080fd5b5061046861193f565b34801561071b57600080fd5b5061035061072a366004612922565b61194e565b600061073c84848461197b565b90505b9392505050565b6000808061075b60668563ffffffff611b3316565b915091508161076c5760001961076e565b805b925050505b919050565b606b60209081526000928352604080842090915290825290205481565b6000806040516107a490613234565b6040519081900390205492915050565b6069546201000090046001600160a01b03165b90565b60685481565b6107d981611b88565b50565b600060026107e8610a17565b610140015160038111156107f857fe5b14905090565b806001600160a01b03166342966c6861081683611bf7565b6040518263ffffffff1660e01b81526004016108329190613292565b600060405180830381600087803b15801561084c57600080fd5b505af1158015610860573d6000803e3d6000fd5b5050505050565b606754606854604051636948f32b60e01b81526000926001600160a01b031691636948f32b9161089a9190600401613292565b60206040518083038186803b1580156108b257600080fd5b505afa1580156108c6573d6000803e3d6000fd5b505050506040513d601f19601f820116820180604052506108ea9190810190612a8f565b905090565b606a805460ff60a81b1916600160a81b1790556001600160a01b039283166000908152606b602090815260408083209490951682529290925291902055565b6069805460ff19169215159290921761ff00191661010091151591909102179055565b606754606854604051623b929360e81b81526000926001600160a01b031691633b929300916109839190600401613292565b60206040518083038186803b15801561099b57600080fd5b505afa1580156109af573d6000803e3d6000fd5b505050506040513d601f19601f820116820180604052506109d39190810190612add565b6109db610c71565b5110905090565b606780546001600160a01b0319166001600160a01b0384161790556068819055610a0b3361167a565b610a13611c76565b5050565b610a1f612501565b606754606854604051631c3d878d60e31b81526001600160a01b039092169163e1ec3c6891610a5091600401613292565b6102206040518083038186803b158015610a6957600080fd5b505afa158015610a7d573d6000803e3d6000fd5b505050506040513d601f19601f820116820180604052506108ea9190810190612b4e565b606954610100900460ff1681565b6000610abb8383611c94565b90505b92915050565b6069805462010000600160b01b031916620100006001600160a01b038516021780825582919060ff60b01b1916600160b01b836003811115610b0257fe5b02179055505050565b6069546201000090046001600160a01b031681565b6000610abe82611bf7565b610b33610bd7565b610b585760405162461bcd60e51b8152600401610b4f9061334d565b60405180910390fd5b6033546040516000916001600160a01b0316907f8be0079c531659141344cd1fd0a4f28419497f9722a3daafe3b4186f6b6457e0908390a3603380546001600160a01b0319169055565b610baa610bd7565b610bc65760405162461bcd60e51b8152600401610b4f9061334d565b565b6033546001600160a01b031690565b60695460009060ff1615610bf65750606954610100900460ff166107c7565b610bfe611ccb565b90506107c7565b601281565b606780546001600160a01b0319166001600160a01b0392909216919091179055565b6107d981611cf1565b610a13828280806020026020016040519081016040528093929190818152602001838360200280828437600092019190915250611d5592505050565b610c7961257c565b6060610c836112a8565b90506000805b8251811015610d61576000610d44848381518110610ca357fe5b6020026020010151610cb361191d565b6001600160a01b031663a734f06e6040518163ffffffff1660e01b815260040160206040518083038186803b158015610ceb57600080fd5b505afa158015610cff573d6000803e3d6000fd5b505050506040513d601f19601f82011682018060405250610d239190810190612948565b610d3f878681518110610d3257fe5b6020026020010151611bf7565b611d68565b9050610d56838263ffffffff611dbb16565b925050600101610c89565b506000610d6c610a17565b6080015190506000610d7c610a17565b60200151606001511115610f33576000610d9461191d565b6001600160a01b031663269012a0610daa61191d565b6001600160a01b031663d86d744e6040518163ffffffff1660e01b815260040160206040518083038186803b158015610de257600080fd5b505afa158015610df6573d6000803e3d6000fd5b505050506040513d601f19601f82011682018060405250610e1a9190810190612afb565b6001600160a01b03166308b04f626040518163ffffffff1660e01b815260040160206040518083038186803b158015610e5257600080fd5b505afa158015610e66573d6000803e3d6000fd5b505050506040513d601f19601f82011682018060405250610e8a9190810190612add565b6040518263ffffffff1660e01b8152600401610ea69190613292565b60206040518083038186803b158015610ebe57600080fd5b505afa158015610ed2573d6000803e3d6000fd5b505050506040513d601f19601f82011682018060405250610ef69190810190612add565b90506000610f1c612710610f10858563ffffffff611de016565b9063ffffffff611e1a16565b9050610f2e838263ffffffff611e5c16565b925050505b610f3b61191d565b6001600160a01b031663a734f06e6040518163ffffffff1660e01b815260040160206040518083038186803b158015610f7357600080fd5b505afa158015610f87573d6000803e3d6000fd5b505050506040513d601f19601f82011682018060405250610fab9190810190612948565b6001600160a01b0316606760009054906101000a90046001600160a01b03166001600160a01b031663b2016bd46040518163ffffffff1660e01b815260040160206040518083038186803b15801561100257600080fd5b505afa158015611016573d6000803e3d6000fd5b505050506040513d601f19601f8201168201806040525061103a9190810190612948565b6001600160a01b0316141561106057611059828263ffffffff611dbb16565b915061117f565b6000611169606760009054906101000a90046001600160a01b03166001600160a01b031663b2016bd46040518163ffffffff1660e01b815260040160206040518083038186803b1580156110b357600080fd5b505afa1580156110c7573d6000803e3d6000fd5b505050506040513d601f19601f820116820180604052506110eb9190810190612948565b6110f361191d565b6001600160a01b031663a734f06e6040518163ffffffff1660e01b815260040160206040518083038186803b15801561112b57600080fd5b505afa15801561113f573d6000803e3d6000fd5b505050506040513d601f19601f820116820180604052506111639190810190612948565b84611d68565b905061117b838263ffffffff611dbb16565b9250505b600061128861118c61191d565b6001600160a01b031663a734f06e6040518163ffffffff1660e01b815260040160206040518083038186803b1580156111c457600080fd5b505afa1580156111d8573d6000803e3d6000fd5b505050506040513d601f19601f820116820180604052506111fc9190810190612948565b606760009054906101000a90046001600160a01b03166001600160a01b031663aaaca5586040518163ffffffff1660e01b815260040160206040518083038186803b15801561124a57600080fd5b505afa15801561125e573d6000803e3d6000fd5b505050506040513d601f19601f820116820180604052506112829190810190612948565b85611d68565b905060405180604001604052808281526020018481525094505050505090565b6060606680548060200260200160405190810160405280929190818152602001828054801561130057602002820191906000526020600020905b81546001600160a01b031681526001909101906020018083116112e2575b5050505050905090565b611312610867565b61132e5760405162461bcd60e51b8152600401610b4f9061337d565b606754606854604051623b929360e81b81526001600160a01b039092169163d8aed145918391633b9293009161136691600401613292565b60206040518083038186803b15801561137e57600080fd5b505afa158015611392573d6000803e3d6000fd5b505050506040513d601f19601f820116820180604052506113b69190810190612add565b6068546040518363ffffffff1660e01b81526004016113d69291906133e8565b600060405180830381600087803b1580156113f057600080fd5b505af1158015611404573d6000803e3d6000fd5b50505050610bc633611e9e565b606a80546001600160a01b0319166001600160a01b0392909216919091179055565b61143b610795565b6114575760405162461bcd60e51b8152600401610b4f9061339d565b61145f610bd7565b61147b5760405162461bcd60e51b8152600401610b4f9061334d565b61148361191d565b6001600160a01b031663bdd1daaa6040518163ffffffff1660e01b815260040160206040518083038186803b1580156114bb57600080fd5b505afa1580156114cf573d6000803e3d6000fd5b505050506040513d601f19601f820116820180604052506114f39190810190612afb565b6001600160a01b031663e52c355861150e6020840184612922565b6040518263ffffffff1660e01b815260040161152a919061324a565b60206040518083038186803b15801561154257600080fd5b505afa158015611556573d6000803e3d6000fd5b505050506040513d601f19601f8201168201806040525061157a9190810190612a8f565b6115965760405162461bcd60e51b8152600401610b4f9061332d565b60006115a56020830183612922565b6001600160a01b031682602081018035601e19368490030181126115c857600080fd5b9091016020810191503567ffffffffffffffff8111156115e757600080fd5b368190038213156115f757600080fd5b604051611605929190613227565b600060405180830381855af49150503d8060008114611640576040519150601f19603f3d011682016040523d82523d6000602084013e611645565b606091505b5050905080610a135760405162461bcd60e51b8152600401610b4f906132dd565b606954600160b01b900460ff1681565b0290565b600054610100900460ff16806116935750611693611f20565b806116a1575060005460ff16155b6116bd5760405162461bcd60e51b8152600401610b4f9061335d565b600054610100900460ff161580156116e8576000805460ff1961ff0019909116610100171660011790555b603380546001600160a01b0319166001600160a01b0384811691909117918290556040519116906000907f8be0079c531659141344cd1fd0a4f28419497f9722a3daafe3b4186f6b6457e0908290a38015610a13576000805461ff00191690555050565b606a805460ff60a01b1916600160a01b179055565b611769610795565b156117865760405162461bcd60e51b8152600401610b4f906133ad565b611798826001600160a01b0316611f26565b6117b45760405162461bcd60e51b8152600401610b4f906132ed565b606780546001600160a01b0319166001600160a01b03841617905560688190556117df6106896107b4565b6117e7611c76565b6117ef610a17565b61010001516067546040805163155594ab60e31b81529051611877926001600160a01b03169163aaaca558916004808301926020929190829003018186803b15801561183a57600080fd5b505afa15801561184e573d6000803e3d6000fd5b505050506040513d601f19601f820116820180604052506118729190810190612948565b611bf7565b146118945760405162461bcd60e51b8152600401610b4f9061338d565b6067546040805163155594ab60e31b81529051610a13926001600160a01b03169163aaaca558916004808301926020929190829003018186803b1580156118da57600080fd5b505afa1580156118ee573d6000803e3d6000fd5b505050506040513d601f19601f820116820180604052506119129190810190612948565b611cf1565b61271081565b600080600060405161192e9061323f565b604051908190039020549250505090565b6067546001600160a01b031681565b611956610bd7565b6119725760405162461bcd60e51b8152600401610b4f9061334d565b6107d981611e9e565b60008061198661191d565b6001600160a01b031663a734f06e6040518163ffffffff1660e01b815260040160206040518083038186803b1580156119be57600080fd5b505afa1580156119d2573d6000803e3d6000fd5b505050506040513d601f19601f820116820180604052506119f69190810190612948565b6001600160a01b0316856001600160a01b031614611a8457846001600160a01b031663313ce5676040518163ffffffff1660e01b815260040160206040518083038186803b158015611a4757600080fd5b505afa158015611a5b573d6000803e3d6000fd5b505050506040513d601f19601f82011682018060405250611a7f9190810190612b8c565b611a87565b60125b90506000611a958686611c94565b90506000816001600160a01b03166396237c026040518163ffffffff1660e01b815260040160206040518083038186803b158015611ad257600080fd5b505afa158015611ae6573d6000803e3d6000fd5b505050506040513d601f19601f82011682018060405250611b0a9190810190612add565b905060ff8316600a0a611b2781610f10888563ffffffff611de016565b98975050505050505050565b6000805b8354811015611b8157826001600160a01b0316848281548110611b5657fe5b6000918252602090912001546001600160a01b03161491508115611b7957611b81565b600101611b37565b9250929050565b611ba1611b9361191d565b6001600160a01b0316611f5f565b15611bab576107d9565b611bbd816001600160a01b0316611f26565b611bd95760405162461bcd60e51b8152600401610b4f9061330d565b6000604051611be79061323f565b6040519081900390208290555050565b6040516370a0823160e01b81526000906001600160a01b038316906370a0823190611c2690309060040161324a565b60206040518083038186803b158015611c3e57600080fd5b505afa158015611c52573d6000803e3d6000fd5b505050506040513d601f19601f82011682018060405250610abe9190810190612add565b6000604051611c8490613234565b6040519081900390206001905550565b606a546000906001600160a01b031615611cba5750606a546001600160a01b0316610abe565b611cc48383611f6d565b9050610abe565b6033546000906001600160a01b0316611ce2612175565b6001600160a01b031614905090565b600080611d0560668463ffffffff611b3316565b915091506000611d1484611bf7565b1115611d375781611d3257611d3060668463ffffffff61217916565b505b611d50565b8115611d5057611d4e60668263ffffffff61222d16565b505b505050565b8051610a13906066906020840190612596565b606a54600090600160a81b900460ff1615611da957506001600160a01b038084166000908152606b602090815260408083209386168352929052205461073f565b611db484848461197b565b905061073f565b600082820183811015610abb5760405162461bcd60e51b8152600401610b4f906132fd565b600082611def57506000610abe565b82820282848281611dfc57fe5b0414610abb5760405162461bcd60e51b8152600401610b4f9061333d565b6000610abb83836040518060400160405280601a81526020017f536166654d6174683a206469766973696f6e206279207a65726f00000000000081525061249e565b6000610abb83836040518060400160405280601e81526020017f536166654d6174683a207375627472616374696f6e206f766572666c6f7700008152506124d5565b6001600160a01b038116611ec45760405162461bcd60e51b8152600401610b4f906132cd565b6033546040516001600160a01b038084169216907f8be0079c531659141344cd1fd0a4f28419497f9722a3daafe3b4186f6b6457e090600090a3603380546001600160a01b0319166001600160a01b0392909216919091179055565b303b1590565b6000813f7fc5d2460186f7233c927e7db2dcc703c0e500b653ca82273b7bfad8045d85a47081811480159061076e575050151592915050565b6001600160a01b0316151590565b6000611f7761191d565b6001600160a01b03166302d58da76040518163ffffffff1660e01b815260040160206040518083038186803b158015611faf57600080fd5b505afa158015611fc3573d6000803e3d6000fd5b505050506040513d601f19601f82011682018060405250611fe79190810190612afb565b6001600160a01b031663662a3e5884846040518363ffffffff1660e01b8152600401612014929190613258565b60206040518083038186803b15801561202c57600080fd5b505afa158015612040573d6000803e3d6000fd5b505050506040513d601f19601f820116820180604052506120649190810190612a8f565b6120805760405162461bcd60e51b8152600401610b4f9061336d565b61208861191d565b6001600160a01b03166302d58da76040518163ffffffff1660e01b815260040160206040518083038186803b1580156120c057600080fd5b505afa1580156120d4573d6000803e3d6000fd5b505050506040513d601f19601f820116820180604052506120f89190810190612afb565b6001600160a01b031663c495931784846040518363ffffffff1660e01b8152600401612125929190613258565b60206040518083038186803b15801561213d57600080fd5b505afa158015612151573d6000803e3d6000fd5b505050506040513d601f19601f82011682018060405250610abb9190810190612afb565b3390565b60606001600160a01b0382166121a15760405162461bcd60e51b8152600401610b4f9061331d565b8254600181018455600084815260209081902090910180546001600160a01b0319166001600160a01b038516179055835460408051828402810184019091528181529185919083018282801561222057602002820191906000526020600020905b81546001600160a01b03168152600190910190602001808311612202575b5050505050905092915050565b815460609082106122955782546040805160208084028201810190925282815291859183018282801561228957602002820191906000526020600020905b81546001600160a01b0316815260019091019060200180831161226b575b50505050509050610abe565b825460001901821415612339578254839060001981019081106122b457fe5b600091825260209091200180546001600160a01b031916905582546122dd8460001983016125fb565b50825460408051602080840282018101909252828152918591830182828015612289576020028201919060005260206000209081546001600160a01b0316815260019091019060200180831161226b5750505050509050610abe565b82546000908490600019810190811061234e57fe5b60009182526020909120015484546001600160a01b03909116915084908490811061237557fe5b60009182526020909120015484546001600160a01b03909116908590600019810190811061239f57fe5b9060005260206000200160006101000a8154816001600160a01b0302191690836001600160a01b03160217905550808484815481106123da57fe5b600091825260209091200180546001600160a01b0319166001600160a01b039290921691909117905583548490600019810190811061241557fe5b600091825260209091200180546001600160a01b0319169055835461243e8560001983016125fb565b5083546040805160208084028201810190925282815291869183018282801561249057602002820191906000526020600020905b81546001600160a01b03168152600190910190602001808311612472575b505050505091505092915050565b600081836124bf5760405162461bcd60e51b8152600401610b4f91906132bc565b5060008385816124cb57fe5b0495945050505050565b600081848411156124f95760405162461bcd60e51b8152600401610b4f91906132bc565b505050900390565b6040518061018001604052806000815260200161251c61261f565b81526020016000815260200160008152602001600081526020016000815260200160008152602001600081526020016000815260200160006001600160a01b031681526020016000600381111561256f57fe5b8152600060209091015290565b604051806040016040528060008152602001600081525090565b8280548282559060005260206000209081019282156125eb579160200282015b828111156125eb57825182546001600160a01b0319166001600160a01b039091161782556020909201916001909101906125b6565b506125f7929150612667565b5090565b815481835581811115611d5057600083815260209020611d5091810190830161268b565b6040518060c0016040528060006001600160a01b0316815260200160006001600160a01b03168152602001600081526020016000815260200160008152602001600081525090565b6107c791905b808211156125f75780546001600160a01b031916815560010161266d565b6107c791905b808211156125f75760008155600101612691565b8035610abe816134e0565b8051610abe816134e0565b60008083601f8401126126cd57600080fd5b50813567ffffffffffffffff8111156126e557600080fd5b602083019150836020820283011115611b8157600080fd5b8035610abe816134f4565b8051610abe816134f4565b8051610abe816134fd565b8051610abe81613506565b8035610abe8161350f565b8051610abe8161350f565b60006040828403121561275157600080fd5b50919050565b600060c0828403121561276957600080fd5b61277360c0613411565b9050600061278184846126b0565b8252506020612792848483016126b0565b60208301525060406127a684828501612713565b60408301525060606127ba84828501612713565b60608301525060806127ce84828501612713565b60808301525060a06127e284828501612713565b60a08301525092915050565b6000610220828403121561280157600080fd5b61280c610180613411565b9050600061281a8484612713565b825250602061282b84848301612757565b60208301525060e061283f84828501612713565b60408301525061010061285484828501612713565b60608301525061012061286984828501612713565b60808301525061014061287e84828501612713565b60a08301525061016061289384828501612713565b60c0830152506101806128a884828501612713565b60e0830152506101a06128bd84828501612713565b610100830152506101c06128d3848285016126b0565b610120830152506101e06128e984828501612734565b610140830152506102006128ff84828501612708565b6101608301525092915050565b8035610abe816134fd565b8051610abe8161351c565b60006020828403121561293457600080fd5b600061294084846126a5565b949350505050565b60006020828403121561295a57600080fd5b600061294084846126b0565b6000806040838503121561297957600080fd5b600061298585856126a5565b9250506020612996858286016126a5565b9150509250929050565b6000806000606084860312156129b557600080fd5b60006129c186866126a5565b93505060206129d2868287016126a5565b92505060406129e38682870161290c565b9150509250925092565b60008060408385031215612a0057600080fd5b6000612a0c85856126a5565b925050602061299685828601612729565b60008060408385031215612a3057600080fd5b6000612a3c85856126a5565b92505060206129968582860161290c565b60008060208385031215612a6057600080fd5b823567ffffffffffffffff811115612a7757600080fd5b612a83858286016126bb565b92509250509250929050565b600060208284031215612aa157600080fd5b60006129408484612708565b60008060408385031215612ac057600080fd5b6000612acc85856126fd565b9250506020612996858286016126fd565b600060208284031215612aef57600080fd5b60006129408484612713565b600060208284031215612b0d57600080fd5b6000612940848461271e565b600060208284031215612b2b57600080fd5b813567ffffffffffffffff811115612b4257600080fd5b6129408482850161273f565b60006102208284031215612b6157600080fd5b600061294084846127ee565b60008060408385031215612b8057600080fd5b6000612a3c858561290c565b600060208284031215612b9e57600080fd5b60006129408484612917565b6000612bb68383612bbe565b505060200190565b612bc78161344b565b82525050565b6000612bd88261343e565b612be28185613442565b9350612bed83613438565b8060005b83811015612c1b578151612c058882612baa565b9750612c1083613438565b925050600101612bf1565b509495945050505050565b612bc781613456565b612bc7816107c7565b6000612c448385610773565b9350612c51838584613494565b50500190565b612bc78161345b565b612bc781613489565b6000612c748261343e565b612c7e8185613442565b9350612c8e8185602086016134a0565b612c97816134cc565b9093019392505050565b6000612cae601c83610773565b7f54496e697469616c697a61626c652e6973496e697469616c697a6564000000008152601c0192915050565b6000612ce7602683613442565b7f4f776e61626c653a206e6577206f776e657220697320746865207a65726f206181526564647265737360d01b602082015260400192915050565b6000612d2f601083613442565b6f1110541417d0d0531317d1905253115160821b815260200192915050565b6000612d5b601883613442565b7f4c4f414e535f4d5553545f42455f415f434f4e54524143540000000000000000815260200192915050565b6000612d94601b83613442565b7f536166654d6174683a206164646974696f6e206f766572666c6f770000000000815260200192915050565b6000612dcd601b83613442565b7f53455454494e47535f4d5553545f42455f415f434f4e54524143540000000000815260200192915050565b6000612e06601983613442565b7f454d5054595f414444524553535f4e4f545f414c4c4f57454400000000000000815260200192915050565b6000612e3f601483613442565b731110541417d393d517d5d2125511531254d5115160621b815260200192915050565b6000612e6f602183613442565b7f536166654d6174683a206d756c7469706c69636174696f6e206f766572666c6f8152607760f81b602082015260400192915050565b6000612eb2602083613442565b7f4f776e61626c653a2063616c6c6572206973206e6f7420746865206f776e6572815260200192915050565b6000612eeb602e83613442565b7f436f6e747261637420696e7374616e63652068617320616c726561647920626581526d195b881a5b9a5d1a585b1a5e995960921b602082015260400192915050565b6000612f3b602483613442565b7f434841494e4c494e4b5f504149525f41474752454741544f525f4e4f545f45588152634953545360e01b602082015260400192915050565b6000612f81601d83613442565b7f455343524f575f494e454c494749424c455f544f5f5055524348415345000000815260200192915050565b6000612fba601d83613442565b7f455343524f575f42414c414e43455f4e4f545f4d415443485f4c4f414e000000815260200192915050565b6000612ff3601883610773565b7f426173655570677261646561626c652e73657474696e67730000000000000000815260180192915050565b600061302c601883613442565b7f434f4e54524143545f4e4f545f494e495449414c495a45440000000000000000815260200192915050565b6000613065601c83613442565b7f434f4e54524143545f414c52454144595f494e495449414c495a454400000000815260200192915050565b805160408301906130a28482612c2f565b506020820151611d4e6020850182612c2f565b805160c08301906130c68482612bbe565b5060208201516130d96020850182612bbe565b5060408201516130ec6040850182612c2f565b5060608201516130ff6060850182612c2f565b5060808201516131126080850182612c2f565b5060a0820151611d4e60a0850182612c2f565b80516102208301906131378482612c2f565b50602082015161314a60208501826130b5565b50604082015161315d60e0850182612c2f565b506060820151613171610100850182612c2f565b506080820151613185610120850182612c2f565b5060a0820151613199610140850182612c2f565b5060c08201516131ad610160850182612c2f565b5060e08201516131c1610180850182612c2f565b506101008201516131d66101a0850182612c2f565b506101208201516131eb6101c0850182612bbe565b506101408201516132006101e0850182612c60565b50610160820151611d4e610200850182612c26565b612bc781613470565b612bc781613483565b6000612940828486612c38565b6000610abe82612ca1565b6000610abe82612fe6565b60208101610abe8284612bbe565b604081016132668285612bbe565b61073f6020830184612bbe565b60208082528101610abb8184612bcd565b60208101610abe8284612c26565b60208101610abe8284612c2f565b60208101610abe8284612c57565b60208101610abe8284612c60565b60208082528101610abb8184612c69565b60208082528101610abe81612cda565b60208082528101610abe81612d22565b60208082528101610abe81612d4e565b60208082528101610abe81612d87565b60208082528101610abe81612dc0565b60208082528101610abe81612df9565b60208082528101610abe81612e32565b60208082528101610abe81612e62565b60208082528101610abe81612ea5565b60208082528101610abe81612ede565b60208082528101610abe81612f2e565b60208082528101610abe81612f74565b60208082528101610abe81612fad565b60208082528101610abe8161301f565b60208082528101610abe81613058565b60408101610abe8284613091565b6102208101610abe8284613125565b60208101610abe8284613215565b604081016133f68285612c2f565b61073f6020830184612c2f565b60208101610abe828461321e565b60405181810167ffffffffffffffff8111828210171561343057600080fd5b604052919050565b60200190565b5190565b90815260200190565b6000610abe82613477565b151590565b6000610abe8261344b565b80610773816134d6565b61ffff1690565b6001600160a01b031690565b60ff1690565b6000610abe82613466565b82818337506000910152565b60005b838110156134bb5781810151838201526020016134a3565b83811115611d4e5750506000910152565b601f01601f191690565b600481106107d957fe5b6134e98161344b565b81146107d957600080fd5b6134e981613456565b6134e9816107c7565b6134e98161345b565b600481106107d957600080fd5b6134e98161348356fea365627a7a72315820202bc0fe2327ceb9d6438ae5399666af7ad4d4bfaa5e370eed5fe3eb31b32f066c6578706572696d656e74616cf564736f6c63430005110040",
  "source": "pragma solidity 0.5.17;\npragma experimental ABIEncoderV2;\n\nimport \"../../base/Escrow.sol\";\nimport \"../../util/TellerCommon.sol\";\nimport \"./BaseEscrowDappMock.sol\";\n\ncontract EscrowMock is Escrow, BaseEscrowDappMock {\n    bool private _mockIsOwner;\n    bool public _isOwner;\n    address public _borrower;\n    TellerCommon.LoanStatus public _loanStatus;\n    address internal mockedAggregator;\n    bool internal mockedCanPurchase;\n\n    bool private _mockValueOfIn;\n\n    mapping(address => mapping(address => uint256)) public _valueOfInMapMock;\n\n    function externalSetSettings(address settingsAddress) external {\n        _setSettings(settingsAddress);\n    }\n\n    function mockIsOwner(bool mockIsAOwner, bool isAOwner) external {\n        _mockIsOwner = mockIsAOwner;\n        _isOwner = isAOwner;\n    }\n\n    function getBorrower() public view returns (address) {\n        return _borrower;\n    }\n\n    function mockSettings(address settingsAddress) public {\n        _setSettings(settingsAddress);\n    }\n\n    function mockBorrowerAndStatus(address borrower, TellerCommon.LoanStatus loanStatus)\n        public\n    {\n        _borrower = borrower;\n        _loanStatus = loanStatus;\n    }\n\n    function isOwner() public view returns (bool) {\n        if (_mockIsOwner) {\n            return _isOwner;\n        } else {\n            return super.isOwner();\n        }\n    }\n\n    function externalIsOwner() external onlyOwner() {}\n\n    function testImplementationFunctionMultiply(uint256 num1, uint256 num2)\n        external\n        pure\n        returns (uint256)\n    {\n        return num1 * num2;\n    }\n\n    function mockLoans(address loansAddress) external {\n        loans = LoansInterface(loansAddress);\n    }\n\n    function mockCanPurchase() external {\n        mockedCanPurchase = true;\n    }\n\n    function mockInitialize(address loansAddress, uint256 aLoanID) external {\n        loans = LoansInterface(loansAddress);\n        loanID = aLoanID;\n\n        Ownable.initialize(msg.sender);\n        TInitializable._initialize();\n    }\n\n    function mockValueOfIn(\n        address base,\n        address quote,\n        uint256 value\n    ) external {\n        _mockValueOfIn = true;\n        _valueOfInMapMock[base][quote] = value;\n    }\n\n    function externalValueOfIn(\n        address baseAddress,\n        address quoteAddress,\n        uint256 baseAmount\n    ) external view returns (uint256) {\n        return super._valueOfIn(baseAddress, quoteAddress, baseAmount);\n    }\n\n    function _valueOfIn(\n        address baseAddress,\n        address quoteAddress,\n        uint256 baseAmount\n    ) internal view returns (uint256) {\n        if (_mockValueOfIn) {\n            return _valueOfInMapMock[baseAddress][quoteAddress];\n        } else {\n            return Escrow._valueOfIn(baseAddress, quoteAddress, baseAmount);\n        }\n    }\n\n    function mockGetAggregatorFor(address aggregatorAddress) external {\n        mockedAggregator = aggregatorAddress;\n    }\n\n    function _getAggregatorFor(address base, address quote)\n        internal\n        view\n        returns (PairAggregatorInterface)\n    {\n        if (mockedAggregator != address(0x0)) {\n            return PairAggregatorInterface(mockedAggregator);\n        } else {\n            return super._getAggregatorFor(base, quote);\n        }\n    }\n\n    function externalGetAggregatorFor(address base, address quote)\n        external\n        view\n        returns (PairAggregatorInterface)\n    {\n        return _getAggregatorFor(base, quote);\n    }\n}\n",
  "sourcePath": "/Users/sy/Documents/GitHub/teller-protocol-v1/contracts/mock/base/EscrowMock.sol",
  "compiler": {
    "name": "solc",
    "version": "0.5.17+commit.d19bba13.Emscripten.clang"
  },
  "schemaVersion": "3.0.23",
  "updatedAt": "2020-09-15T23:09:49.887Z",
  "devdoc": {
    "methods": {
      "balanceOf(address)": {
        "params": {
          "cTokenAddress": "token address."
        },
        "return": "this contract's balance."
      },
      "calculateTotalValue()": {
        "return": "This Escrow instance total value expressed in ETH and Token value. "
      },
      "callDapp((address,bytes))": {
        "params": {
          "dappData": "the current dapp data to be executed."
        }
      },
      "canPurchase()": {
        "return": "true if loan can be liquidated."
      },
      "initialize(address)": {
        "details": "Initializes the contract setting the deployer as the initial owner."
      },
      "initialize(address,uint256)": {
        "params": {
          "aLoanID": "the loan ID associated to this escrow instance.",
          "loansAddress": "loans contract address."
        }
      },
      "initialized()": {
        "return": "true if contract is initialized. Otherwise it returns false."
      },
      "isLoanActive()": {
        "return": "true in case loan is active.  "
      },
      "isUnderValued()": {
        "return": "true if this escrow loan is undervalued based on its token price."
      },
      "owner()": {
        "details": "Returns the address of the current owner."
      },
      "purchaseLoanDebt()": {
        "details": "Events are emitted when repay() and _transferOwnership()."
      },
      "renounceOwnership()": {
        "details": "Leaves the contract without owner. It will not be possible to call `onlyOwner` functions anymore. Can only be called by the current owner.     * > Note: Renouncing ownership will leave the contract without an owner, thereby removing any functionality that is only available to the owner."
      },
      "settings()": {
        "details": "This address should NOT change over the time. See details in the _setSettings(...) function."
      },
      "transferOwnership(address)": {
        "details": "Transfers ownership of the contract to a new account (`newOwner`). Can only be called by the current owner."
      }
    }
  },
  "userdoc": {
    "methods": {
      "balanceOf(address)": {
        "notice": "Returns this contract's balance for the specified token."
      },
      "calculateTotalValue()": {
        "notice": "Calculate this Escrow instance total value. "
      },
      "callDapp((address,bytes))": {
        "notice": "It calls a given dapp using a delegatecall function by a borrower owned the current loan id associated to this escrow contract."
      },
      "canPurchase()": {
        "notice": "Checks if current Escrow instance loan can be liquidated."
      },
      "getLoan()": {
        "notice": "Returns this Escrow's loan instance. "
      },
      "initialize(address,uint256)": {
        "notice": "It initializes this escrow instance for a given loans address and loan id."
      },
      "initialized()": {
        "notice": "Gets if the contract is initialized."
      },
      "isLoanActive()": {
        "notice": "Checks if loan is active. "
      },
      "isUnderValued()": {
        "notice": "Checks if this Escrow loan value is undervalued based its token price."
      },
      "purchaseLoanDebt()": {
        "notice": "Purchase this Escrow's loan if it is eligible to liquidate and transfers ownership to msg.sender."
      },
      "settings()": {
        "notice": "The gets the settings contract address from the SETTINGS_SLOT."
      }
    }
  }
}