{
  "contractName": "EtherCollateralLoans",
  "abi": [
    {
      "anonymous": false,
      "inputs": [
        {
          "indexed": true,
          "internalType": "uint256",
          "name": "loanID",
          "type": "uint256"
        },
        {
          "indexed": true,
          "internalType": "address",
          "name": "borrower",
          "type": "address"
        },
        {
          "indexed": false,
          "internalType": "uint256",
          "name": "depositAmount",
          "type": "uint256"
        }
      ],
      "name": "CollateralDeposited",
      "type": "event"
    },
    {
      "anonymous": false,
      "inputs": [
        {
          "indexed": true,
          "internalType": "uint256",
          "name": "loanID",
          "type": "uint256"
        },
        {
          "indexed": true,
          "internalType": "address",
          "name": "borrower",
          "type": "address"
        },
        {
          "indexed": false,
          "internalType": "uint256",
          "name": "withdrawalAmount",
          "type": "uint256"
        }
      ],
      "name": "CollateralWithdrawn",
      "type": "event"
    },
    {
      "anonymous": false,
      "inputs": [
        {
          "indexed": true,
          "internalType": "uint256",
          "name": "loanID",
          "type": "uint256"
        },
        {
          "indexed": true,
          "internalType": "address",
          "name": "borrower",
          "type": "address"
        },
        {
          "indexed": false,
          "internalType": "address",
          "name": "liquidator",
          "type": "address"
        },
        {
          "indexed": false,
          "internalType": "uint256",
          "name": "collateralOut",
          "type": "uint256"
        },
        {
          "indexed": false,
          "internalType": "uint256",
          "name": "tokensIn",
          "type": "uint256"
        }
      ],
      "name": "LoanLiquidated",
      "type": "event"
    },
    {
      "anonymous": false,
      "inputs": [
        {
          "indexed": true,
          "internalType": "uint256",
          "name": "loanID",
          "type": "uint256"
        },
        {
          "indexed": true,
          "internalType": "address",
          "name": "borrower",
          "type": "address"
        },
        {
          "indexed": false,
          "internalType": "uint256",
          "name": "amountPaid",
          "type": "uint256"
        },
        {
          "indexed": false,
          "internalType": "address",
          "name": "payer",
          "type": "address"
        },
        {
          "indexed": false,
          "internalType": "uint256",
          "name": "totalOwed",
          "type": "uint256"
        }
      ],
      "name": "LoanRepaid",
      "type": "event"
    },
    {
      "anonymous": false,
      "inputs": [
        {
          "indexed": true,
          "internalType": "uint256",
          "name": "loanID",
          "type": "uint256"
        },
        {
          "indexed": true,
          "internalType": "address",
          "name": "borrower",
          "type": "address"
        },
        {
          "indexed": true,
          "internalType": "address",
          "name": "escrow",
          "type": "address"
        },
        {
          "indexed": false,
          "internalType": "uint256",
          "name": "amountBorrowed",
          "type": "uint256"
        }
      ],
      "name": "LoanTakenOut",
      "type": "event"
    },
    {
      "anonymous": false,
      "inputs": [
        {
          "indexed": true,
          "internalType": "uint256",
          "name": "loanID",
          "type": "uint256"
        },
        {
          "indexed": true,
          "internalType": "address",
          "name": "borrower",
          "type": "address"
        },
        {
          "indexed": true,
          "internalType": "address",
          "name": "recipient",
          "type": "address"
        },
        {
          "indexed": false,
          "internalType": "uint256",
          "name": "interestRate",
          "type": "uint256"
        },
        {
          "indexed": false,
          "internalType": "uint256",
          "name": "collateralRatio",
          "type": "uint256"
        },
        {
          "indexed": false,
          "internalType": "uint256",
          "name": "maxLoanAmount",
          "type": "uint256"
        },
        {
          "indexed": false,
          "internalType": "uint256",
          "name": "duration",
          "type": "uint256"
        },
        {
          "indexed": false,
          "internalType": "uint256",
          "name": "termsExpiry",
          "type": "uint256"
        }
      ],
      "name": "LoanTermsSet",
      "type": "event"
    },
    {
      "anonymous": false,
      "inputs": [
        {
          "indexed": true,
          "internalType": "address",
          "name": "sender",
          "type": "address"
        },
        {
          "indexed": true,
          "internalType": "address",
          "name": "oldPriceOracle",
          "type": "address"
        },
        {
          "indexed": true,
          "internalType": "address",
          "name": "newPriceOracle",
          "type": "address"
        }
      ],
      "name": "PriceOracleUpdated",
      "type": "event"
    },
    {
      "constant": true,
      "inputs": [
        {
          "internalType": "address",
          "name": "",
          "type": "address"
        },
        {
          "internalType": "uint256",
          "name": "",
          "type": "uint256"
        }
      ],
      "name": "borrowerLoans",
      "outputs": [
        {
          "internalType": "uint256",
          "name": "",
          "type": "uint256"
        }
      ],
      "payable": false,
      "stateMutability": "view",
      "type": "function"
    },
    {
      "constant": true,
      "inputs": [],
      "name": "cToken",
      "outputs": [
        {
          "internalType": "address",
          "name": "",
          "type": "address"
        }
      ],
      "payable": false,
      "stateMutability": "view",
      "type": "function"
    },
    {
      "constant": true,
      "inputs": [
        {
          "internalType": "uint256",
          "name": "loanID",
          "type": "uint256"
        }
      ],
      "name": "canLiquidateLoan",
      "outputs": [
        {
          "internalType": "bool",
          "name": "",
          "type": "bool"
        }
      ],
      "payable": false,
      "stateMutability": "view",
      "type": "function"
    },
    {
      "constant": true,
      "inputs": [],
      "name": "collateralToken",
      "outputs": [
        {
          "internalType": "address",
          "name": "",
          "type": "address"
        }
      ],
      "payable": false,
      "stateMutability": "view",
      "type": "function"
    },
    {
      "constant": true,
      "inputs": [
        {
          "internalType": "address",
          "name": "borrower",
          "type": "address"
        }
      ],
      "name": "getBorrowerLoans",
      "outputs": [
        {
          "internalType": "uint256[]",
          "name": "",
          "type": "uint256[]"
        }
      ],
      "payable": false,
      "stateMutability": "view",
      "type": "function"
    },
    {
      "constant": true,
      "inputs": [
        {
          "internalType": "uint256",
          "name": "loanID",
          "type": "uint256"
        }
      ],
      "name": "getCollateralInfo",
      "outputs": [
        {
          "components": [
            {
              "internalType": "uint256",
              "name": "collateral",
              "type": "uint256"
            },
            {
              "internalType": "uint256",
              "name": "neededInLendingTokens",
              "type": "uint256"
            },
            {
              "internalType": "uint256",
              "name": "neededInCollateralTokens",
              "type": "uint256"
            },
            {
              "internalType": "bool",
              "name": "moreCollateralRequired",
              "type": "bool"
            }
          ],
          "internalType": "struct TellerCommon.LoanCollateralInfo",
          "name": "",
          "type": "tuple"
        }
      ],
      "payable": false,
      "stateMutability": "view",
      "type": "function"
    },
    {
      "constant": true,
      "inputs": [
        {
          "internalType": "uint256",
          "name": "loanID",
          "type": "uint256"
        }
      ],
      "name": "getTotalOwed",
      "outputs": [
        {
          "internalType": "uint256",
          "name": "",
          "type": "uint256"
        }
      ],
      "payable": false,
      "stateMutability": "view",
      "type": "function"
    },
    {
      "constant": true,
      "inputs": [],
      "name": "initialized",
      "outputs": [
        {
          "internalType": "bool",
          "name": "value",
          "type": "bool"
        }
      ],
      "payable": false,
      "stateMutability": "view",
      "type": "function"
    },
    {
      "constant": true,
      "inputs": [],
      "name": "lendingPool",
      "outputs": [
        {
          "internalType": "contract LendingPoolInterface",
          "name": "",
          "type": "address"
        }
      ],
      "payable": false,
      "stateMutability": "view",
      "type": "function"
    },
    {
      "constant": true,
      "inputs": [],
      "name": "lendingToken",
      "outputs": [
        {
          "internalType": "address",
          "name": "",
          "type": "address"
        }
      ],
      "payable": false,
      "stateMutability": "view",
      "type": "function"
    },
    {
      "constant": false,
      "inputs": [
        {
          "internalType": "uint256",
          "name": "loanID",
          "type": "uint256"
        }
      ],
      "name": "liquidateLoan",
      "outputs": [],
      "payable": false,
      "stateMutability": "nonpayable",
      "type": "function"
    },
    {
      "constant": true,
      "inputs": [],
      "name": "loanIDCounter",
      "outputs": [
        {
          "internalType": "uint256",
          "name": "",
          "type": "uint256"
        }
      ],
      "payable": false,
      "stateMutability": "view",
      "type": "function"
    },
    {
      "constant": true,
      "inputs": [],
      "name": "loanTermsConsensus",
      "outputs": [
        {
          "internalType": "contract LoanTermsConsensusInterface",
          "name": "",
          "type": "address"
        }
      ],
      "payable": false,
      "stateMutability": "view",
      "type": "function"
    },
    {
      "constant": true,
      "inputs": [
        {
          "internalType": "uint256",
          "name": "",
          "type": "uint256"
        }
      ],
      "name": "loans",
      "outputs": [
        {
          "internalType": "uint256",
          "name": "id",
          "type": "uint256"
        },
        {
          "components": [
            {
              "internalType": "address payable",
              "name": "borrower",
              "type": "address"
            },
            {
              "internalType": "address",
              "name": "recipient",
              "type": "address"
            },
            {
              "internalType": "uint256",
              "name": "interestRate",
              "type": "uint256"
            },
            {
              "internalType": "uint256",
              "name": "collateralRatio",
              "type": "uint256"
            },
            {
              "internalType": "uint256",
              "name": "maxLoanAmount",
              "type": "uint256"
            },
            {
              "internalType": "uint256",
              "name": "duration",
              "type": "uint256"
            }
          ],
          "internalType": "struct TellerCommon.LoanTerms",
          "name": "loanTerms",
          "type": "tuple"
        },
        {
          "internalType": "uint256",
          "name": "termsExpiry",
          "type": "uint256"
        },
        {
          "internalType": "uint256",
          "name": "loanStartTime",
          "type": "uint256"
        },
        {
          "internalType": "uint256",
          "name": "collateral",
          "type": "uint256"
        },
        {
          "internalType": "uint256",
          "name": "lastCollateralIn",
          "type": "uint256"
        },
        {
          "internalType": "uint256",
          "name": "principalOwed",
          "type": "uint256"
        },
        {
          "internalType": "uint256",
          "name": "interestOwed",
          "type": "uint256"
        },
        {
          "internalType": "uint256",
          "name": "borrowedAmount",
          "type": "uint256"
        },
        {
          "internalType": "address",
          "name": "escrow",
          "type": "address"
        },
        {
          "internalType": "enum TellerCommon.LoanStatus",
          "name": "status",
          "type": "uint8"
        },
        {
          "internalType": "bool",
          "name": "liquidated",
          "type": "bool"
        }
      ],
      "payable": false,
      "stateMutability": "view",
      "type": "function"
    },
    {
      "constant": true,
      "inputs": [],
      "name": "priceOracle",
      "outputs": [
        {
          "internalType": "address",
          "name": "",
          "type": "address"
        }
      ],
      "payable": false,
      "stateMutability": "view",
      "type": "function"
    },
    {
      "constant": false,
      "inputs": [
        {
          "internalType": "uint256",
          "name": "amount",
          "type": "uint256"
        },
        {
          "internalType": "uint256",
          "name": "loanID",
          "type": "uint256"
        }
      ],
      "name": "repay",
      "outputs": [],
      "payable": false,
      "stateMutability": "nonpayable",
      "type": "function"
    },
    {
      "constant": false,
      "inputs": [
        {
          "internalType": "address",
          "name": "newPriceOracle",
          "type": "address"
        }
      ],
      "name": "setPriceOracle",
      "outputs": [],
      "payable": false,
      "stateMutability": "nonpayable",
      "type": "function"
    },
    {
      "constant": true,
      "inputs": [],
      "name": "settings",
      "outputs": [
        {
          "internalType": "contract SettingsInterface",
          "name": "",
          "type": "address"
        }
      ],
      "payable": false,
      "stateMutability": "view",
      "type": "function"
    },
    {
      "constant": true,
      "inputs": [],
      "name": "tToken",
      "outputs": [
        {
          "internalType": "address",
          "name": "",
          "type": "address"
        }
      ],
      "payable": false,
      "stateMutability": "view",
      "type": "function"
    },
    {
      "constant": false,
      "inputs": [
        {
          "internalType": "uint256",
          "name": "loanID",
          "type": "uint256"
        },
        {
          "internalType": "uint256",
          "name": "amountBorrow",
          "type": "uint256"
        }
      ],
      "name": "takeOutLoan",
      "outputs": [],
      "payable": false,
      "stateMutability": "nonpayable",
      "type": "function"
    },
    {
      "constant": true,
      "inputs": [],
      "name": "totalCollateral",
      "outputs": [
        {
          "internalType": "uint256",
          "name": "",
          "type": "uint256"
        }
      ],
      "payable": false,
      "stateMutability": "view",
      "type": "function"
    },
    {
      "constant": false,
      "inputs": [
        {
          "internalType": "uint256",
          "name": "amount",
          "type": "uint256"
        },
        {
          "internalType": "uint256",
          "name": "loanID",
          "type": "uint256"
        }
      ],
      "name": "withdrawCollateral",
      "outputs": [],
      "payable": false,
      "stateMutability": "nonpayable",
      "type": "function"
    },
    {
      "constant": false,
      "inputs": [
        {
          "internalType": "address",
          "name": "borrower",
          "type": "address"
        },
        {
          "internalType": "uint256",
          "name": "loanID",
          "type": "uint256"
        },
        {
          "internalType": "uint256",
          "name": "amount",
          "type": "uint256"
        }
      ],
      "name": "depositCollateral",
      "outputs": [],
      "payable": true,
      "stateMutability": "payable",
      "type": "function"
    },
    {
      "constant": false,
      "inputs": [
        {
          "components": [
            {
              "internalType": "address payable",
              "name": "borrower",
              "type": "address"
            },
            {
              "internalType": "address",
              "name": "recipient",
              "type": "address"
            },
            {
              "internalType": "address",
              "name": "consensusAddress",
              "type": "address"
            },
            {
              "internalType": "uint256",
              "name": "requestNonce",
              "type": "uint256"
            },
            {
              "internalType": "uint256",
              "name": "amount",
              "type": "uint256"
            },
            {
              "internalType": "uint256",
              "name": "duration",
              "type": "uint256"
            },
            {
              "internalType": "uint256",
              "name": "requestTime",
              "type": "uint256"
            }
          ],
          "internalType": "struct TellerCommon.LoanRequest",
          "name": "request",
          "type": "tuple"
        },
        {
          "components": [
            {
              "internalType": "address",
              "name": "signer",
              "type": "address"
            },
            {
              "internalType": "address",
              "name": "consensusAddress",
              "type": "address"
            },
            {
              "internalType": "uint256",
              "name": "responseTime",
              "type": "uint256"
            },
            {
              "internalType": "uint256",
              "name": "interestRate",
              "type": "uint256"
            },
            {
              "internalType": "uint256",
              "name": "collateralRatio",
              "type": "uint256"
            },
            {
              "internalType": "uint256",
              "name": "maxLoanAmount",
              "type": "uint256"
            },
            {
              "components": [
                {
                  "internalType": "uint256",
                  "name": "signerNonce",
                  "type": "uint256"
                },
                {
                  "internalType": "uint8",
                  "name": "v",
                  "type": "uint8"
                },
                {
                  "internalType": "bytes32",
                  "name": "r",
                  "type": "bytes32"
                },
                {
                  "internalType": "bytes32",
                  "name": "s",
                  "type": "bytes32"
                }
              ],
              "internalType": "struct TellerCommon.Signature",
              "name": "signature",
              "type": "tuple"
            }
          ],
          "internalType": "struct TellerCommon.LoanResponse[]",
          "name": "responses",
          "type": "tuple[]"
        },
        {
          "internalType": "uint256",
          "name": "collateralAmount",
          "type": "uint256"
        }
      ],
      "name": "createLoanWithTerms",
      "outputs": [],
      "payable": true,
      "stateMutability": "payable",
      "type": "function"
    },
    {
      "constant": false,
      "inputs": [
        {
          "internalType": "address",
          "name": "priceOracleAddress",
          "type": "address"
        },
        {
          "internalType": "address",
          "name": "lendingPoolAddress",
          "type": "address"
        },
        {
          "internalType": "address",
          "name": "loanTermsConsensusAddress",
          "type": "address"
        },
        {
          "internalType": "address",
          "name": "settingsAddress",
          "type": "address"
        },
        {
          "internalType": "address",
          "name": "",
          "type": "address"
        }
      ],
      "name": "initialize",
      "outputs": [],
      "payable": false,
      "stateMutability": "nonpayable",
      "type": "function"
    },
    {
      "constant": false,
      "inputs": [],
      "name": "initialize",
      "outputs": [],
      "payable": false,
      "stateMutability": "nonpayable",
      "type": "function"
    }
  ],
  "bytecode": "0x608060405234801561001057600080fd5b50614c1f806100206000396000f3fe6080604052600436106101815760003560e01c80638129fc1c116100d1578063c35d64ea1161008a578063e06174e411610064578063e06174e4146103ff578063e1ec3c6814610414578063e3ed19021461044c578063eee8b7ff1461046c57610181565b8063c35d64ea146103aa578063ccdd9f5d146103bf578063d8aed145146103df57610181565b80638129fc1c14610316578063934b5d131461032b578063a59a997314610358578063a5c5c7b21461036d578063aaaca55814610380578063b2016bd41461039557610181565b80634ac8eb5f1161013e57806358895e3d1161011857806358895e3d1461029f5780636948f32b146102c157806369e527da146102e1578063767a7b05146102f657610181565b80634ac8eb5f14610255578063513484541461026a578063530e784f1461027f57610181565b806302bc2cdb146101865780631459457a146101a8578063158ef93e146101c85780631a74856b146101f35780632630c12f146102065780633b92930014610228575b600080fd5b34801561019257600080fd5b506101a66101a1366004613b71565b610499565b005b3480156101b457600080fd5b506101a66101c3366004613973565b610b7b565b3480156101d457600080fd5b506101dd610c4b565b6040516101ea919061471f565b60405180910390f35b6101a6610201366004613a22565b610c6a565b34801561021257600080fd5b5061021b610e2b565b6040516101ea9190614679565b34801561023457600080fd5b50610248610243366004613b53565b610e3a565b6040516101ea919061472d565b34801561026157600080fd5b50610248610e6a565b34801561027657600080fd5b50610248610e70565b34801561028b57600080fd5b506101a661029a366004613937565b610e76565b3480156102ab57600080fd5b506102b4610fd4565b6040516101ea919061473b565b3480156102cd57600080fd5b506101dd6102dc366004613b53565b610fe3565b3480156102ed57600080fd5b5061021b61113c565b34801561030257600080fd5b506101a6610311366004613b71565b6111be565b34801561032257600080fd5b506101a66113d7565b34801561033757600080fd5b5061034b610346366004613b53565b61145f565b6040516101ea919061492a565b34801561036457600080fd5b506102b4611470565b6101a661037b366004613ac9565b61147f565b34801561038c57600080fd5b5061021b611a74565b3480156103a157600080fd5b5061021b611ab9565b3480156103b657600080fd5b5061021b611ac8565b3480156103cb57600080fd5b506101a66103da366004613b53565b611b0d565b3480156103eb57600080fd5b506101a66103fa366004613b71565b611ebd565b34801561040b57600080fd5b506102b46122c3565b34801561042057600080fd5b5061043461042f366004613b53565b6122e5565b6040516101ea9c9b9a9998979695949392919061499e565b34801561045857600080fd5b506102486104673660046139e8565b61239d565b34801561047857600080fd5b5061048c610487366004613937565b6123cb565b6040516101ea919061470e565b8160016000828152606d60205260409020600e0154600160a01b900460ff1660038111156104c357fe5b146104e95760405162461bcd60e51b81526004016104e0906148fa565b60405180910390fd5b6104f1610c4b565b61050d5760405162461bcd60e51b81526004016104e0906148ea565b610515612437565b156105325760405162461bcd60e51b81526004016104e09061482a565b606a546001600160a01b0316610547816124b1565b156105645760405162461bcd60e51b81526004016104e09061477a565b603380546001908101918290556000868152606d6020526040902001546001600160a01b03163381146105a95760405162461bcd60e51b81526004016104e0906148ba565b6000868152606d60205260409020600501548511156105da5760405162461bcd60e51b81526004016104e09061479a565b6000868152606d602052604090206007015442111561060b5760405162461bcd60e51b81526004016104e09061486a565b6107856106166122c3565b6001600160a01b031663269012a061062c6122c3565b6001600160a01b031663d86d744e6040518163ffffffff1660e01b815260040160206040518083038186803b15801561066457600080fd5b505afa158015610678573d6000803e3d6000fd5b505050506040513d601f19601f8201168201806040525061069c9190810190613aab565b6001600160a01b03166311880cc86040518163ffffffff1660e01b815260040160206040518083038186803b1580156106d457600080fd5b505afa1580156106e8573d6000803e3d6000fd5b505050506040513d601f19601f8201168201806040525061070c9190810190613a8d565b6040518263ffffffff1660e01b8152600401610728919061472d565b60206040518083038186803b15801561074057600080fd5b505afa158015610754573d6000803e3d6000fd5b505050506040513d601f19601f820116820180604052506107789190810190613a8d565b429063ffffffff61253616565b6000878152606d60205260409020600a015411156107b55760405162461bcd60e51b81526004016104e09061485a565b6000868152606d60205260409020600d8101869055600b8101869055600681015460039091015461081a916301e133809161080e9161271091839190610802908c9063ffffffff61258116565b9063ffffffff61258116565b9063ffffffff6125bb16565b6000878152606d60205260409020600c01556108346136e5565b61083d876125fd565b90508060600151156108615760405162461bcd60e51b81526004016104e09061483a565b6000878152606d60205260409020426008820155600e01805460ff60a01b1916600160a11b1790556108928761264e565b6000888152606d602052604090819020600e0180546001600160a01b0319166001600160a01b039384161790819055606a549151631397424760e11b81529183169263272e848e926108ea928b92169060040161495a565b600060405180830381600087803b15801561090457600080fd5b505af1158015610918573d6000803e3d6000fd5b5050506000888152606d602052604090819020600e0154905163cd6dc68760e01b81526001600160a01b03909116915063cd6dc6879061095e9030908b906004016146f3565b600060405180830381600087803b15801561097857600080fd5b505af115801561098c573d6000803e3d6000fd5b50505050610998612747565b6001600160a01b031663c7bbb113606a60009054906101000a90046001600160a01b03166001600160a01b031663aaaca5586040518163ffffffff1660e01b815260040160206040518083038186803b1580156109f457600080fd5b505afa158015610a08573d6000803e3d6000fd5b505050506040513d601f19601f82011682018060405250610a2c9190810190613955565b306001600160a01b031663b2016bd46040518163ffffffff1660e01b815260040160206040518083038186803b158015610a6557600080fd5b505afa158015610a79573d6000803e3d6000fd5b505050506040513d601f19601f82011682018060405250610a9d9190810190613955565b896040518463ffffffff1660e01b8152600401610abc939291906146d8565b600060405180830381600087803b158015610ad657600080fd5b505af1158015610aea573d6000803e3d6000fd5b5050506000888152606d602052604090819020600e81015460019091015491516001600160a01b03918216935091169089907f85b5516a17ce775661a4b967b1fb30c852678f6598d86d9f3c99b7b60ff2d0ce90610b49908b9061472d565b60405180910390a450506033548114610b745760405162461bcd60e51b81526004016104e09061490a565b5050505050565b610b83610c4b565b15610ba05760405162461bcd60e51b81526004016104e09061491a565b610bac858585856127c1565b610bb46122c3565b6001600160a01b031663a734f06e6040518163ffffffff1660e01b815260040160206040518083038186803b158015610bec57600080fd5b505afa158015610c00573d6000803e3d6000fd5b505050506040513d601f19601f82011682018060405250610c249190810190613955565b606780546001600160a01b0319166001600160a01b03929092169190911790555050505050565b600080604051610c5a90614663565b6040519081900390205492915050565b8160016000828152606d60205260409020600e0154600160a01b900460ff166003811115610c9457fe5b1480610cc6575060026000828152606d60205260409020600e0154600160a01b900460ff166003811115610cc457fe5b145b610ce25760405162461bcd60e51b81526004016104e0906147da565b610cea610c4b565b610d065760405162461bcd60e51b81526004016104e0906148ea565b610d0e612437565b15610d2b5760405162461bcd60e51b81526004016104e09061482a565b606a546001600160a01b0316610d40816124b1565b15610d5d5760405162461bcd60e51b81526004016104e09061477a565b6000848152606d60205260409020600101546001600160a01b03868116911614610d995760405162461bcd60e51b81526004016104e0906147ba565b823414610db85760405162461bcd60e51b81526004016104e0906147ca565b60003411610dd85760405162461bcd60e51b81526004016104e09061489a565b610de28484612912565b846001600160a01b0316847feec2f3feb835e2f2fd44281034b04700a1ddda63dd402949d470a25a7c40b36c85604051610e1c919061472d565b60405180910390a35050505050565b6069546001600160a01b031681565b6000818152606d60205260408120600b810154600c90910154610e629163ffffffff61296b16565b90505b919050565b60665481565b60685481565b610e7e610c4b565b610e9a5760405162461bcd60e51b81526004016104e0906148ea565b610ea26122c3565b6001600160a01b031663c095ea27336040518263ffffffff1660e01b8152600401610ecd9190614687565b60006040518083038186803b158015610ee557600080fd5b505afa158015610ef9573d6000803e3d6000fd5b50505050610f0f816001600160a01b0316612990565b610f2b5760405162461bcd60e51b81526004016104e0906148aa565b60695460408051808201909152601b81527f4e45575f4f5241434c455f4d5553545f42455f50524f5649444544000000000060208201526001600160a01b0390911690610f81908290849063ffffffff6129cc16565b606980546001600160a01b0319166001600160a01b03848116918217909255604051909183169033907ff51f0fffc8121ee3747e0536c487d894894cdba960ccfb4ab385a88d51b16fed90600090a45050565b606b546001600160a01b031681565b6000610fed612437565b806110085750606a54611008906001600160a01b03166124b1565b8061103a575060026000838152606d60205260409020600e0154600160a01b900460ff16600381111561103757fe5b14155b1561104757506000610e65565b6000828152606d602052604081206008810154600690910154909142611073848463ffffffff61296b16565b10905080156110885760019350505050610e65565b6000858152606d60205260409020600e01546001600160a01b0316801561112557806001600160a01b031663415dfa5b6040518163ffffffff1660e01b815260040160206040518083038186803b1580156110e257600080fd5b505afa1580156110f6573d6000803e3d6000fd5b505050506040513d601f19601f8201168201806040525061111a9190810190613a6f565b945050505050610e65565b61112e866125fd565b606001519695505050505050565b606a54604080516334f293ed60e11b815290516000926001600160a01b0316916369e527da916004808301926020929190829003018186803b15801561118157600080fd5b505afa158015611195573d6000803e3d6000fd5b505050506040513d601f19601f820116820180604052506111b99190810190613955565b905090565b8060016000828152606d60205260409020600e0154600160a01b900460ff1660038111156111e857fe5b148061121a575060026000828152606d60205260409020600e0154600160a01b900460ff16600381111561121857fe5b145b6112365760405162461bcd60e51b81526004016104e0906147da565b61123e610c4b565b61125a5760405162461bcd60e51b81526004016104e0906148ea565b611262612437565b1561127f5760405162461bcd60e51b81526004016104e09061482a565b606a546001600160a01b0316611294816124b1565b156112b15760405162461bcd60e51b81526004016104e09061477a565b603380546001908101918290556000858152606d6020526040902001546001600160a01b031633146112f55760405162461bcd60e51b81526004016104e0906148ca565b600085116113155760405162461bcd60e51b81526004016104e09061481a565b6000611320856129f5565b9050600061132d82612a2c565b6000878152606d602052604081206009015491925090611353908363ffffffff61253616565b9050878111156113605750865b801561137157611371878233612b71565b336001600160a01b0316877f7c5e5cb62e5ed3caf3764e4b0afedfedef533e27809d43367799787ad2abcd41836040516113ab919061472d565b60405180910390a35050506033548114610b745760405162461bcd60e51b81526004016104e09061490a565b600054610100900460ff16806113f057506113f0612bf2565b806113fe575060005460ff16155b61141a5760405162461bcd60e51b81526004016104e09061487a565b600054610100900460ff16158015611445576000805460ff1961ff0019909116610100171660011790555b6001603355801561145c576000805461ff00191690555b50565b6114676136e5565b610e62826125fd565b606a546001600160a01b031681565b611487610c4b565b6114a35760405162461bcd60e51b81526004016104e0906148ea565b6114ab612437565b156114c85760405162461bcd60e51b81526004016104e09061482a565b6114d56020850185613937565b336001600160a01b038216146114fd5760405162461bcd60e51b81526004016104e0906148ba565b61150c36869003860186613b35565b60006115166122c3565b6001600160a01b031663269012a061152c6122c3565b6001600160a01b031663d86d744e6040518163ffffffff1660e01b815260040160206040518083038186803b15801561156457600080fd5b505afa158015611578573d6000803e3d6000fd5b505050506040513d601f19601f8201168201806040525061159c9190810190613aab565b6001600160a01b031663cc44cadb6040518163ffffffff1660e01b815260040160206040518083038186803b1580156115d457600080fd5b505afa1580156115e8573d6000803e3d6000fd5b505050506040513d601f19601f8201168201806040525061160c9190810190613a8d565b6040518263ffffffff1660e01b8152600401611628919061472d565b60206040518083038186803b15801561164057600080fd5b505afa158015611654573d6000803e3d6000fd5b505050506040513d601f19601f820116820180604052506116789190810190613a8d565b90508160a0015181101561169e5760405162461bcd60e51b81526004016104e09061475a565b60006116a86122c3565b6001600160a01b03166369ff7744606a60009054906101000a90046001600160a01b03166001600160a01b031663aaaca5586040518163ffffffff1660e01b815260040160206040518083038186803b15801561170457600080fd5b505afa158015611718573d6000803e3d6000fd5b505050506040513d601f19601f8201168201806040525061173c9190810190613955565b85608001516040518363ffffffff1660e01b815260040161175e9291906146f3565b60206040518083038186803b15801561177657600080fd5b505afa15801561178a573d6000803e3d6000fd5b505050506040513d601f19601f820116820180604052506117ae9190810190613a6f565b905080156117ce5760405162461bcd60e51b81526004016104e09061478a565b6117db8360800151612bf8565b6117f75760405162461bcd60e51b81526004016104e0906148da565b8434146118165760405162461bcd60e51b81526004016104e0906147ca565b6000611820612f68565b606b5460405163064e5d4960e01b8152919250600091829182916001600160a01b039091169063064e5d499061185e908f908f908f90600401614938565b606060405180830381600087803b15801561187857600080fd5b505af115801561188c573d6000803e3d6000fd5b505050506040513d601f19601f820116820180604052506118b09190810190613b90565b919450925090506118d2846118ca368f90038f018f613b35565b858585612f82565b6000858152606d6020908152604091829020835181558382015180516001830180546001600160a01b03199081166001600160a01b0393841617909155938201516002840180548616918316919091179055818501516003808501919091556060808401516004860155608080850151600587015560a0948501516006870155968801516007860155870151600885015594860151600984015590850151600a83015560c0850151600b83015560e0850151600c830155610100850151600d830155610120850151600e83018054909416911617808355610140850151919391929160ff60a01b1990911690600160a01b9084908111156119cf57fe5b02179055506101609190910151600e9091018054911515600160a81b0260ff60a81b199092169190911790553415611a0b57611a0b8434612912565b606c6000611a1c60208f018f613937565b6001600160a01b031681526020808201929092526040016000908120805460018101825590825291902001849055611a6684611a5d368f90038f018f613b35565b858585346131d1565b505050505050505050505050565b606a546040805163155594ab60e31b815290516000926001600160a01b03169163aaaca558916004808301926020929190829003018186803b15801561118157600080fd5b6067546001600160a01b031681565b606a54604080516361aeb27560e11b815290516000926001600160a01b03169163c35d64ea916004808301926020929190829003018186803b15801561118157600080fd5b8060026000828152606d60205260409020600e0154600160a01b900460ff166003811115611b3757fe5b14611b545760405162461bcd60e51b81526004016104e09061480a565b611b5c610c4b565b611b785760405162461bcd60e51b81526004016104e0906148ea565b611b80612437565b15611b9d5760405162461bcd60e51b81526004016104e09061482a565b606a546001600160a01b0316611bb2816124b1565b15611bcf5760405162461bcd60e51b81526004016104e09061477a565b6033805460010190819055611be384610fe3565b611bff5760405162461bcd60e51b81526004016104e0906147fa565b6000848152606d60205260408120600e8101805460ff60a01b1916600360a01b1760ff60a81b1916600160a81b1790556009015490611c3d8261329c565b9050611c4a868333612b71565b6000611c546122c3565b6001600160a01b031663269012a0611c6a6122c3565b6001600160a01b031663d86d744e6040518163ffffffff1660e01b815260040160206040518083038186803b158015611ca257600080fd5b505afa158015611cb6573d6000803e3d6000fd5b505050506040513d601f19601f82011682018060405250611cda9190810190613aab565b6001600160a01b0316631139087a6040518163ffffffff1660e01b815260040160206040518083038186803b158015611d1257600080fd5b505afa158015611d26573d6000803e3d6000fd5b505050506040513d601f19601f82011682018060405250611d4a9190810190613a8d565b6040518263ffffffff1660e01b8152600401611d66919061472d565b60206040518083038186803b158015611d7e57600080fd5b505afa158015611d92573d6000803e3d6000fd5b505050506040513d601f19601f82011682018060405250611db69190810190613a8d565b90506000611dd061271061080e858563ffffffff61258116565b606a546040516382f7b02760e01b81529192506001600160a01b0316906382f7b02790611e039084903390600401614968565b600060405180830381600087803b158015611e1d57600080fd5b505af1158015611e31573d6000803e3d6000fd5b5050506000898152606d6020526040908190206001015490516001600160a01b03909116915089907f9950a0562c02382e2e840daa73082d5be7660ce37601f28fa4c84089c11e8a0690611e8a90339089908790614695565b60405180910390a3505050506033548114611eb75760405162461bcd60e51b81526004016104e09061490a565b50505050565b8060026000828152606d60205260409020600e0154600160a01b900460ff166003811115611ee757fe5b14611f045760405162461bcd60e51b81526004016104e09061480a565b611f0c610c4b565b611f285760405162461bcd60e51b81526004016104e0906148ea565b611f30612437565b15611f4d5760405162461bcd60e51b81526004016104e09061482a565b606a546001600160a01b0316611f62816124b1565b15611f7f5760405162461bcd60e51b81526004016104e09061477a565b603380546001019081905584611fa75760405162461bcd60e51b81526004016104e09061476a565b846000611fb386610e3a565b905081811015611fc1578091505b611fd1818363ffffffff61253616565b9050611fdd8683613390565b80612081576000868152606d60205260409020600e8101805460ff60a01b1916600360a01b179055600981015460019091015461202690889083906001600160a01b0316612b71565b6000878152606d6020526040908190206001015490516001600160a01b039091169088907f7c5e5cb62e5ed3caf3764e4b0afedfedef533e27809d43367799787ad2abcd419061207790859061472d565b60405180910390a3505b606a5460405163acb7081560e01b81526001600160a01b039091169063acb70815906120b39085903390600401614968565b600060405180830381600087803b1580156120cd57600080fd5b505af11580156120e1573d6000803e3d6000fd5b505050506120ed612747565b6001600160a01b03166362e269ef606a60009054906101000a90046001600160a01b03166001600160a01b031663aaaca5586040518163ffffffff1660e01b815260040160206040518083038186803b15801561214957600080fd5b505afa15801561215d573d6000803e3d6000fd5b505050506040513d601f19601f820116820180604052506121819190810190613955565b306001600160a01b031663b2016bd46040518163ffffffff1660e01b815260040160206040518083038186803b1580156121ba57600080fd5b505afa1580156121ce573d6000803e3d6000fd5b505050506040513d601f19601f820116820180604052506121f29190810190613955565b856040518463ffffffff1660e01b8152600401612211939291906146d8565b600060405180830381600087803b15801561222b57600080fd5b505af115801561223f573d6000803e3d6000fd5b5050506000878152606d6020526040908190206001015490516001600160a01b03909116915087907f20a1f2ec363af45dc5ee7d9d622f2dd68b52501c382126c7f04b53663c4c69bf9061229890869033908790614983565b60405180910390a350506033548114610b745760405162461bcd60e51b81526004016104e09061490a565b60008060006040516122d49061466e565b604051908190039020549250505090565b606d602090815260009182526040918290208054835160c08101855260018301546001600160a01b03908116825260028401548116948201949094526003830154948101949094526004820154606085015260058201546080850152600682015460a0850152600782015460088301546009840154600a850154600b860154600c870154600d880154600e9098015496999895979496939592949193909281169060ff600160a01b8204811691600160a81b9004168c565b606c60205281600052604060002081815481106123b657fe5b90600052602060002001600091509150505481565b6001600160a01b0381166000908152606c602090815260409182902080548351818402810184019094528084526060939283018282801561242b57602002820191906000526020600020905b815481526020019060010190808311612417575b50505050509050919050565b60006124416122c3565b6001600160a01b031663b187bd266040518163ffffffff1660e01b815260040160206040518083038186803b15801561247957600080fd5b505afa15801561248d573d6000803e3d6000fd5b505050506040513d601f19601f820116820180604052506111b99190810190613a6f565b60006124bb6122c3565b6001600160a01b0316633b668321836040518263ffffffff1660e01b81526004016124e69190614679565b60206040518083038186803b1580156124fe57600080fd5b505afa158015612512573d6000803e3d6000fd5b505050506040513d601f19601f82011682018060405250610e629190810190613a6f565b600061257883836040518060400160405280601e81526020017f536166654d6174683a207375627472616374696f6e206f766572666c6f77000081525061344c565b90505b92915050565b6000826125905750600061257b565b8282028284828161259d57fe5b04146125785760405162461bcd60e51b81526004016104e09061484a565b600061257883836040518060400160405280601a81526020017f536166654d6174683a206469766973696f6e206279207a65726f00000000000081525061347d565b6126056136e5565b6000828152606d60205260408120600901549080612622856134b4565b604080516080810182528681526020810193909352820181905293909311606084015250909392505050565b60006126586122c3565b6001600160a01b031663bdd1daaa6040518163ffffffff1660e01b815260040160206040518083038186803b15801561269057600080fd5b505afa1580156126a4573d6000803e3d6000fd5b505050506040513d601f19601f820116820180604052506126c89190810190613aab565b6001600160a01b0316634614874e30846040518363ffffffff1660e01b81526004016126f59291906146f3565b602060405180830381600087803b15801561270f57600080fd5b505af1158015612723573d6000803e3d6000fd5b505050506040513d601f19601f82011682018060405250610e629190810190613955565b60006127516122c3565b6001600160a01b0316631390f8d76040518163ffffffff1660e01b815260040160206040518083038186803b15801561278957600080fd5b505afa15801561279d573d6000803e3d6000fd5b505050506040513d601f19601f820116820180604052506111b99190810190613aab565b6127c9610c4b565b156127e65760405162461bcd60e51b81526004016104e09061491a565b60408051808201909152601681527550524f564944455f4f5241434c455f4144445245535360501b602082015261282d906001600160a01b0386169063ffffffff6134d816565b60408051808201909152601c81527f50524f564944455f4c454e44494e475f504f4f4c5f4144445245535300000000602082015261287b906001600160a01b0385169063ffffffff6134d816565b60408051808201909152601b81527f50524f56494445445f4c4f414e5f5445524d535f41444452455353000000000060208201526128c9906001600160a01b0384169063ffffffff6134d816565b6128d281613505565b50606980546001600160a01b039485166001600160a01b031991821617909155606a805493851693821693909317909255606b8054919093169116179055565b606654612925908263ffffffff61296b16565b6066556000828152606d602052604090206009015461294a908263ffffffff61296b16565b6000928352606d602052604090922060098101929092555042600a90910155565b6000828201838110156125785760405162461bcd60e51b81526004016104e0906147aa565b6000813f7fc5d2460186f7233c927e7db2dcc703c0e500b653ca82273b7bfad8045d85a4708181148015906129c457508115155b949350505050565b6129d683836135b7565b8190611eb75760405162461bcd60e51b81526004016104e09190614749565b600080612a0183610e3a565b6000848152606d60205260409020600401549091506129c461271061080e848463ffffffff61258116565b600080612ac6606a60009054906101000a90046001600160a01b03166001600160a01b031663aaaca5586040518163ffffffff1660e01b815260040160206040518083038186803b158015612a8057600080fd5b505afa158015612a94573d6000803e3d6000fd5b505050506040513d601f19601f82011682018060405250612ab89190810190613955565b6001600160a01b03166135c9565b90506000606960009054906101000a90046001600160a01b03166001600160a01b03166396237c026040518163ffffffff1660e01b815260040160206040518083038186803b158015612b1857600080fd5b505afa158015612b2c573d6000803e3d6000fd5b505050506040513d601f19601f82011682018060405250612b509190810190613a8d565b90506000612b688361080e878563ffffffff61258116565b95945050505050565b606654612b84908363ffffffff61253616565b6066556000838152606d6020526040902060090154612ba9908363ffffffff61253616565b6000848152606d60205260408082206009019290925590516001600160a01b0383169184156108fc02918591818181858888f19350505050158015611eb7573d6000803e3d6000fd5b303b1590565b600080612c036122c3565b6001600160a01b031663dc21a6a06040518163ffffffff1660e01b815260040160206040518083038186803b158015612c3b57600080fd5b505afa158015612c4f573d6000803e3d6000fd5b505050506040513d601f19601f82011682018060405250612c739190810190613aab565b6001600160a01b0316631fb7cec9606a60009054906101000a90046001600160a01b03166001600160a01b031663aaaca5586040518163ffffffff1660e01b815260040160206040518083038186803b158015612ccf57600080fd5b505afa158015612ce3573d6000803e3d6000fd5b505050506040513d601f19601f82011682018060405250612d079190810190613955565b6067546040516001600160e01b031960e085901b168152612d3592916001600160a01b0316906004016146bd565b60206040518083038186803b158015612d4d57600080fd5b505afa158015612d61573d6000803e3d6000fd5b505050506040513d601f19601f82011682018060405250612d859190810190613955565b90506001600160a01b038116612dad5760405162461bcd60e51b81526004016104e09061488a565b604051632319178560e11b81526000906001600160a01b038316906346322f0a90612deb906b14dd5c1c1b1e551bd119589d60a21b9060040161472d565b60206040518083038186803b158015612e0357600080fd5b505afa158015612e17573d6000803e3d6000fd5b505050506040513d601f19601f82011682018060405250612e3b9190810190613a8d565b90506000612e47612747565b6001600160a01b031663db63323e606a60009054906101000a90046001600160a01b03166001600160a01b031663aaaca5586040518163ffffffff1660e01b815260040160206040518083038186803b158015612ea357600080fd5b505afa158015612eb7573d6000803e3d6000fd5b505050506040513d601f19601f82011682018060405250612edb9190810190613955565b6067546040516001600160e01b031960e085901b168152612f0b92916001600160a01b0316908a906004016146d8565b60206040518083038186803b158015612f2357600080fd5b505afa158015612f37573d6000803e3d6000fd5b505050506040513d601f19601f82011682018060405250612f5b9190810190613a8d565b9190911115949350505050565b606854612f7c81600163ffffffff61296b16565b60685590565b612f8a61370f565b6000612f946122c3565b6001600160a01b031663269012a0612faa6122c3565b6001600160a01b031663d86d744e6040518163ffffffff1660e01b815260040160206040518083038186803b158015612fe257600080fd5b505afa158015612ff6573d6000803e3d6000fd5b505050506040513d601f19601f8201168201806040525061301a9190810190613aab565b6001600160a01b031663e00a46156040518163ffffffff1660e01b815260040160206040518083038186803b15801561305257600080fd5b505afa158015613066573d6000803e3d6000fd5b505050506040513d601f19601f8201168201806040525061308a9190810190613a8d565b6040518263ffffffff1660e01b81526004016130a6919061472d565b60206040518083038186803b1580156130be57600080fd5b505afa1580156130d2573d6000803e3d6000fd5b505050506040513d601f19601f820116820180604052506130f69190810190613a8d565b9050600061310a428363ffffffff61296b16565b90506040518061018001604052808981526020016040518060c001604052808a600001516001600160a01b031681526020018a602001516001600160a01b031681526020018981526020018881526020018781526020018a60a00151815250815260200182815260200160008152602001600081526020016000815260200160008152602001600081526020016000815260200160006001600160a01b03168152602001600160038111156131bb57fe5b8152600060209091015298975050505050505050565b84602001516001600160a01b031685600001516001600160a01b0316877f0358f509931cba53bbb6a94b7f05a5178220a0c7ddb54b1a1722df9e6ed6aa098787878b60a00151606d60008f81526020019081526020016000206007015460405161323f959493929190614a56565b60405180910390a480156132945784600001516001600160a01b0316867feec2f3feb835e2f2fd44281034b04700a1ddda63dd402949d470a25a7c40b36c8360405161328b919061472d565b60405180910390a35b505050505050565b6000806132f0606a60009054906101000a90046001600160a01b03166001600160a01b031663aaaca5586040518163ffffffff1660e01b815260040160206040518083038186803b158015612a8057600080fd5b90506000606960009054906101000a90046001600160a01b03166001600160a01b03166396237c026040518163ffffffff1660e01b815260040160206040518083038186803b15801561334257600080fd5b505afa158015613356573d6000803e3d6000fd5b505050506040513d601f19601f8201168201806040525061337a9190810190613a8d565b90506129c48161080e868563ffffffff61258116565b6000828152606d60205260409020600b0154811115613413576000828152606d60205260409020600b015481906133ce90829063ffffffff61253616565b6000848152606d60205260408120600b810191909155600c01549091506133fb908263ffffffff61253616565b6000848152606d60205260409020600c015550613448565b6000828152606d60205260409020600b0154613435908263ffffffff61253616565b6000838152606d60205260409020600b01555b5050565b600081848411156134705760405162461bcd60e51b81526004016104e09190614749565b50508183035b9392505050565b6000818361349e5760405162461bcd60e51b81526004016104e09190614749565b5060008385816134aa57fe5b0495945050505050565b60008060006134c2846129f5565b9050806134ce82612a2c565b9250925050915091565b6134e18261364a565b81906135005760405162461bcd60e51b81526004016104e09190614749565b505050565b61350d610c4b565b1561352a5760405162461bcd60e51b81526004016104e09061491a565b60408051808201909152601981527f53455454494e47535f4d5553545f42455f50524f5649444544000000000000006020820152613578906001600160a01b0383169063ffffffff6134d816565b61358a816001600160a01b0316612990565b6135a65760405162461bcd60e51b81526004016104e0906147ea565b6135ae613658565b61145c81613676565b6001600160a01b039081169116141590565b600080826001600160a01b031663313ce5676040518163ffffffff1660e01b815260040160206040518083038186803b15801561360557600080fd5b505afa158015613619573d6000803e3d6000fd5b505050506040513d601f19601f8201168201806040525061363d9190810190613bd3565b60ff16600a0a9392505050565b6001600160a01b0316151590565b600060405161366690614663565b6040519081900390206001905550565b61368f6136816122c3565b6001600160a01b031661364a565b156136995761145c565b6136ab816001600160a01b0316612990565b6136c75760405162461bcd60e51b81526004016104e0906147ea565b60006040516136d59061466e565b6040519081900390208290555050565b60405180608001604052806000815260200160008152602001600081526020016000151581525090565b6040518061018001604052806000815260200161372a61378a565b81526020016000815260200160008152602001600081526020016000815260200160008152602001600081526020016000815260200160006001600160a01b031681526020016000600381111561377d57fe5b8152600060209091015290565b6040518060c0016040528060006001600160a01b0316815260200160006001600160a01b03168152602001600081526020016000815260200160008152602001600081525090565b803561257b81614ba4565b805161257b81614ba4565b60008083601f8401126137fa57600080fd5b50813567ffffffffffffffff81111561381257600080fd5b6020830191508361014082028301111561382b57600080fd5b9250929050565b805161257b81614bb8565b803561257b81614bc1565b805161257b81614bc1565b805161257b81614bca565b600060e0828403121561387057600080fd5b50919050565b600060e0828403121561388857600080fd5b61389260e0614aa2565b905060006138a084846137d2565b82525060206138b1848483016137d2565b60208301525060406138c5848285016137d2565b60408301525060606138d98482850161383d565b60608301525060806138ed8482850161383d565b60808301525060a06139018482850161383d565b60a08301525060c06139158482850161383d565b60c08301525092915050565b803561257b81614bd3565b805161257b81614bd3565b60006020828403121561394957600080fd5b60006129c484846137d2565b60006020828403121561396757600080fd5b60006129c484846137dd565b600080600080600060a0868803121561398b57600080fd5b600061399788886137d2565b95505060206139a8888289016137d2565b94505060406139b9888289016137d2565b93505060606139ca888289016137d2565b92505060806139db888289016137d2565b9150509295509295909350565b600080604083850312156139fb57600080fd5b6000613a0785856137d2565b9250506020613a188582860161383d565b9150509250929050565b600080600060608486031215613a3757600080fd5b6000613a4386866137d2565b9350506020613a548682870161383d565b9250506040613a658682870161383d565b9150509250925092565b600060208284031215613a8157600080fd5b60006129c48484613832565b600060208284031215613a9f57600080fd5b60006129c48484613848565b600060208284031215613abd57600080fd5b60006129c48484613853565b6000806000806101208587031215613ae057600080fd5b6000613aec878761385e565b94505060e085013567ffffffffffffffff811115613b0957600080fd5b613b15878288016137e8565b9350935050610100613b298782880161383d565b91505092959194509250565b600060e08284031215613b4757600080fd5b60006129c48484613876565b600060208284031215613b6557600080fd5b60006129c4848461383d565b60008060408385031215613b8457600080fd5b6000613a07858561383d565b600080600060608486031215613ba557600080fd5b6000613bb18686613848565b9350506020613bc286828701613848565b9250506040613a6586828701613848565b600060208284031215613be557600080fd5b60006129c4848461392c565b6000613bfd83836144c6565b50506101400190565b6000613c128383613ce1565b505060200190565b613c2381614b4e565b82525050565b613c2381614b17565b6000613c3e8385614add565b9350613c4982614ac9565b8060005b85811015613c7f57613c5f8284614b04565b613c698882613bf1565b9750613c7483614ad6565b925050600101613c4d565b509495945050505050565b6000613c9582614ad2565b613c9f8185614add565b9350613caa83614acc565b8060005b83811015613c7f578151613cc28882613c06565b9750613ccd83614acc565b925050600101613cae565b613c2381614b22565b613c2381614ac9565b613c2381614b27565b613c2381614b59565b6000613d0782614ad2565b613d118185614add565b9350613d21818560208601614b64565b613d2a81614b90565b9093019392505050565b6000613d41601d83614add565b7f4455524154494f4e5f455843454544535f4d41585f4455524154494f4e000000815260200192915050565b6000613d7a601c83610e65565b7f54496e697469616c697a61626c652e6973496e697469616c697a6564000000008152601c0192915050565b6000613db3601583614add565b74105353d5539517d59053155157d491545552549151605a1b815260200192915050565b6000613de4601683614add565b7513115391125391d7d413d3d317d254d7d4105554d15160521b815260200192915050565b6000613e16601983614add565b7f414d4f554e545f455843454544535f4d41585f414d4f554e5400000000000000815260200192915050565b6000613e4f601183614add565b7013505617d313d05397d15610d151511151607a1b815260200192915050565b6000613e7c601b83614add565b7f536166654d6174683a206164646974696f6e206f766572666c6f770000000000815260200192915050565b6000613eb5601983614add565b7f424f52524f5745525f4c4f414e5f49445f4d49534d4154434800000000000000815260200192915050565b6000613eee601483614add565b73125390d3d4949150d517d1551217d05353d5539560621b815260200192915050565b6000613f1e601683614add565b751313d05397d393d517d050d512559157d3d497d4d15560521b815260200192915050565b6000613f50601b83614add565b7f53455454494e47535f4d5553545f42455f415f434f4e54524143540000000000815260200192915050565b6000613f89601783614add565b7f444f45534e545f4e4545445f4c49515549444154494f4e000000000000000000815260200192915050565b6000613fc2600f83614add565b6e4c4f414e5f4e4f545f41435449564560881b815260200192915050565b6000613fed601483614add565b7343414e4e4f545f57495448445241575f5a45524f60601b815260200192915050565b600061401d601283614add565b71141310551193d49357d254d7d4105554d15160721b815260200192915050565b600061404b601883614add565b7f4d4f52455f434f4c4c41544552414c5f52455155495245440000000000000000815260200192915050565b6000614084602183614add565b7f536166654d6174683a206d756c7469706c69636174696f6e206f766572666c6f8152607760f81b602082015260400192915050565b60006140c7601d83614add565b7f434f4c4c41544552414c5f4445504f53495445445f524543454e544c59000000815260200192915050565b6000614100601283614add565b711313d05397d511549354d7d156141254915160721b815260200192915050565b600061412e602e83614add565b7f436f6e747261637420696e7374616e63652068617320616c726561647920626581526d195b881a5b9a5d1a585b1a5e995960921b602082015260400192915050565b600061417e601883614add565b7f41544d5f4e4f545f464f554e445f464f525f4d41524b45540000000000000000815260200192915050565b60006141b7601383614add565b7243414e4e4f545f4445504f5349545f5a45524f60681b815260200192915050565b60006141e6601e83614add565b7f4f5241434c455f4d5553545f434f4e54524143545f4e4f545f454d5054590000815260200192915050565b600061421f601783614add565b7f424f52524f5745525f4d5553545f42455f53454e444552000000000000000000815260200192915050565b6000614258601683614add565b7521a0a62622a92fa227a2a9a72a2fa7aba72fa627a0a760511b815260200192915050565b600061428a601883610e65565b7f426173655570677261646561626c652e73657474696e67730000000000000000815260180192915050565b60006142c3601a83614add565b7f535550504c595f544f5f444542545f455843454544535f4d4158000000000000815260200192915050565b60006142fc601883614add565b7f434f4e54524143545f4e4f545f494e495449414c495a45440000000000000000815260200192915050565b6000614335600c83614add565b6b1313d05397d393d517d4d15560a21b815260200192915050565b600061435d601f83614add565b7f5265656e7472616e637947756172643a207265656e7472616e742063616c6c00815260200192915050565b6000614396601c83614add565b7f434f4e54524143545f414c52454144595f494e495449414c495a454400000000815260200192915050565b805160808301906143d38482613ce1565b5060208201516143e66020850182613ce1565b5060408201516143f96040850182613ce1565b506060820151611eb76060850182613cd8565b60e0820161441a8280614ae6565b6144248482613c29565b506144326020830183614ae6565b61443f6020850182613c29565b5061444d6040830183614ae6565b61445a6040850182613c29565b506144686060830183614af5565b6144756060850182613ce1565b506144836080830183614af5565b6144906080850182613ce1565b5061449e60a0830183614af5565b6144ab60a0850182613ce1565b506144b960c0830183614af5565b611eb760c0850182613ce1565b61014082016144d58280614ae6565b6144df8482613c29565b506144ed6020830183614ae6565b6144fa6020850182613c29565b506145086040830183614af5565b6145156040850182613ce1565b506145236060830183614af5565b6145306060850182613ce1565b5061453e6080830183614af5565b61454b6080850182613ce1565b5061455960a0830183614af5565b61456660a0850182613ce1565b5061457460c0830183614b04565b611eb760c08501826145f1565b805160c08301906145928482613c29565b5060208201516145a56020850182613c29565b5060408201516145b86040850182613ce1565b5060608201516145cb6060850182613ce1565b5060808201516145de6080850182613ce1565b5060a0820151611eb760a0850182613ce1565b608082016145ff8280614af5565b6146098482613ce1565b506146176020830183614b08565b614624602085018261465a565b506146326040830183614af5565b61463f6040850182613ce1565b5061464d6060830183614af5565b611eb76060850182613ce1565b613c2381614b48565b600061257b82613d6d565b600061257b8261427d565b6020810161257b8284613c29565b6020810161257b8284613c1a565b606081016146a38286613c1a565b6146b06020830185613ce1565b6129c46040830184613ce1565b604081016146cb8285613c29565b6134766020830184613c29565b606081016146e68286613c29565b6146b06020830185613c29565b604081016147018285613c29565b6134766020830184613ce1565b602080825281016125788184613c8a565b6020810161257b8284613cd8565b6020810161257b8284613ce1565b6020810161257b8284613cea565b602080825281016125788184613cfc565b60208082528101610e6281613d34565b60208082528101610e6281613da6565b60208082528101610e6281613dd7565b60208082528101610e6281613e09565b60208082528101610e6281613e42565b60208082528101610e6281613e6f565b60208082528101610e6281613ea8565b60208082528101610e6281613ee1565b60208082528101610e6281613f11565b60208082528101610e6281613f43565b60208082528101610e6281613f7c565b60208082528101610e6281613fb5565b60208082528101610e6281613fe0565b60208082528101610e6281614010565b60208082528101610e628161403e565b60208082528101610e6281614077565b60208082528101610e62816140ba565b60208082528101610e62816140f3565b60208082528101610e6281614121565b60208082528101610e6281614171565b60208082528101610e62816141aa565b60208082528101610e62816141d9565b60208082528101610e6281614212565b60208082528101610e628161424b565b60208082528101610e62816142b6565b60208082528101610e62816142ef565b60208082528101610e6281614328565b60208082528101610e6281614350565b60208082528101610e6281614389565b6080810161257b82846143c2565b6101008101614947828661440c565b81810360e0830152612b68818486613c32565b604081016146cb8285613ce1565b604081016149768285613ce1565b6134766020830184613c1a565b606081016149918286613ce1565b6146b06020830185613c1a565b61022081016149ad828f613ce1565b6149ba602083018e614581565b6149c760e083018d613ce1565b6149d561010083018c613ce1565b6149e361012083018b613ce1565b6149f161014083018a613ce1565b6149ff610160830189613ce1565b614a0d610180830188613ce1565b614a1b6101a0830187613ce1565b614a296101c0830186613c29565b614a376101e0830185613cf3565b614a45610200830184613cd8565b9d9c50505050505050505050505050565b60a08101614a648288613ce1565b614a716020830187613ce1565b614a7e6040830186613ce1565b614a8b6060830185613ce1565b614a986080830184613ce1565b9695505050505050565b60405181810167ffffffffffffffff81118282101715614ac157600080fd5b604052919050565b90565b60200190565b5190565b6101400190565b90815260200190565b600061257860208401846137d2565b6000612578602084018461383d565b5090565b60006125786020840184613921565b6000610e6282614b3c565b151590565b6000610e6282614b17565b80610e6581614b9a565b6001600160a01b031690565b60ff1690565b6000610e6282614b27565b6000610e6282614b32565b60005b83811015614b7f578181015183820152602001614b67565b83811115611eb75750506000910152565b601f01601f191690565b6004811061145c57fe5b614bad81614b17565b811461145c57600080fd5b614bad81614b22565b614bad81614ac9565b614bad81614b27565b614bad81614b4856fea365627a7a72315820e55f3dd0705a350feeddde15009289b8d6fefdaf03e3128df733a83ff5d5193d6c6578706572696d656e74616cf564736f6c63430005110040",
  "source": "pragma solidity 0.5.17;\npragma experimental ABIEncoderV2;\n\n// Contracts\nimport \"./LoansBase.sol\";\n\n/*****************************************************************************************************/\n/**                                             WARNING                                             **/\n/**                                  THIS CONTRACT IS UPGRADEABLE!                                  **/\n/**  ---------------------------------------------------------------------------------------------  **/\n/**  Do NOT change the order of or PREPEND any storage variables to this or new versions of this    **/\n/**  contract as this will cause the the storage slots to be overwritten on the proxy contract!!    **/\n/**                                                                                                 **/\n/**  Visit https://docs.openzeppelin.com/upgrades/2.6/proxies#upgrading-via-the-proxy-pattern for   **/\n/**  more information.                                                                              **/\n/*****************************************************************************************************/\n/**\n    @notice This contract is used as a basis for the creation of Ether based loans across the platform\n    @notice It implements the LoansBase contract from Teller\n\n    @author develop@teller.finance\n */\ncontract EtherCollateralLoans is LoansBase {\n    /**\n     * @notice Deposit collateral into a loan\n     * @param borrower The address of the loan borrower.\n     * @param loanID The ID of the loan the collateral is for\n     */\n    function depositCollateral(\n        address borrower,\n        uint256 loanID,\n        uint256 amount\n    )\n        external\n        payable\n        loanActiveOrSet(loanID)\n        isInitialized()\n        whenNotPaused()\n        whenLendingPoolNotPaused(address(lendingPool))\n    {\n        require(\n            loans[loanID].loanTerms.borrower == borrower,\n            \"BORROWER_LOAN_ID_MISMATCH\"\n        );\n        require(msg.value == amount, \"INCORRECT_ETH_AMOUNT\");\n        require(msg.value > 0, \"CANNOT_DEPOSIT_ZERO\");\n\n        // Update the contract total and the loan collateral total\n        _payInCollateral(loanID, amount);\n\n        emit CollateralDeposited(loanID, borrower, amount);\n    }\n\n    /**\n        @notice Creates a loan with the loan request and terms\n        @param request Struct of the protocol loan request\n        @param responses List of structs of the protocol loan responses\n        @param collateralAmount Amount of collateral required for the loan\n     */\n    function createLoanWithTerms(\n        TellerCommon.LoanRequest calldata request,\n        TellerCommon.LoanResponse[] calldata responses,\n        uint256 collateralAmount\n    )\n        external\n        payable\n        isInitialized()\n        whenNotPaused()\n        isBorrower(request.borrower)\n        withValidLoanRequest(request)\n    {\n        require(msg.value == collateralAmount, \"INCORRECT_ETH_AMOUNT\");\n\n        uint256 loanID = getAndIncrementLoanID();\n        (\n            uint256 interestRate,\n            uint256 collateralRatio,\n            uint256 maxLoanAmount\n        ) = loanTermsConsensus.processRequest(request, responses);\n\n        loans[loanID] = createLoan(\n            loanID,\n            request,\n            interestRate,\n            collateralRatio,\n            maxLoanAmount\n        );\n\n        if (msg.value > 0) {\n            // Update collateral, totalCollateral, and lastCollateralIn\n            _payInCollateral(loanID, msg.value);\n        }\n\n        borrowerLoans[request.borrower].push(loanID);\n\n        _emitLoanTermsSetAndCollateralDepositedEventsIfApplicable(\n            loanID,\n            request,\n            interestRate,\n            collateralRatio,\n            maxLoanAmount,\n            msg.value\n        );\n    }\n\n    /**\n        @notice Initializes the current contract instance setting the required parameters\n        @param priceOracleAddress Contract address of the price oracle\n        @param lendingPoolAddress Contract address of the lending pool\n        @param loanTermsConsensusAddress Contract adddress for loan term consensus\n        @param settingsAddress Contract address for the configuration of the platform\n     */\n    function initialize(\n        address priceOracleAddress,\n        address lendingPoolAddress,\n        address loanTermsConsensusAddress,\n        address settingsAddress,\n        address\n    ) external isNotInitialized() {\n        _initialize(\n            priceOracleAddress,\n            lendingPoolAddress,\n            loanTermsConsensusAddress,\n            settingsAddress\n        );\n\n        collateralToken = settings().ETH_ADDRESS();\n    }\n\n    /** Internal Functions */\n    /**\n        @notice Pays out collateral for the associated loan\n        @param loanID The ID of the loan the collateral is for\n        @param amount The amount of collateral to be paid\n        @param recipient address that will receive the given amount.\n     */\n    function _payOutCollateral(\n        uint256 loanID,\n        uint256 amount,\n        address payable recipient\n    ) internal {\n        totalCollateral = totalCollateral.sub(amount);\n        loans[loanID].collateral = loans[loanID].collateral.sub(amount);\n        recipient.transfer(amount);\n    }\n}\n",
  "sourcePath": "/Users/sy/Documents/GitHub/teller-protocol-v1/contracts/base/EtherCollateralLoans.sol",
  "compiler": {
    "name": "solc",
    "version": "0.5.17+commit.d19bba13.Emscripten.clang"
  },
  "schemaVersion": "3.0.23",
  "updatedAt": "2020-09-16T17:44:36.523Z",
  "devdoc": {
    "author": "develop@teller.finance",
    "methods": {
      "cToken()": {
        "return": "Address of the cToken"
      },
      "canLiquidateLoan(uint256)": {
        "params": {
          "loanID": "The ID of the loan to check"
        },
        "return": "bool weather the loan can be liquidated"
      },
      "createLoanWithTerms((address,address,address,uint256,uint256,uint256,uint256),(address,address,uint256,uint256,uint256,uint256,(uint256,uint8,bytes32,bytes32))[],uint256)": {
        "params": {
          "collateralAmount": "Amount of collateral required for the loan",
          "request": "Struct of the protocol loan request",
          "responses": "List of structs of the protocol loan responses"
        }
      },
      "depositCollateral(address,uint256,uint256)": {
        "params": {
          "borrower": "The address of the loan borrower.",
          "loanID": "The ID of the loan the collateral is for"
        }
      },
      "getBorrowerLoans(address)": {
        "params": {
          "borrower": "The borrower's address"
        }
      },
      "getCollateralInfo(uint256)": {
        "params": {
          "loanID": "of the loan to get info for"
        },
        "return": "memory TellerCommon.LoanCollateralInfo Collateral information of the loan"
      },
      "getTotalOwed(uint256)": {
        "params": {
          "loanID": "The ID of the loan to be queried"
        },
        "return": "uint256 The total amount owed remaining"
      },
      "initialize(address,address,address,address,address)": {
        "params": {
          "lendingPoolAddress": "Contract address of the lending pool",
          "loanTermsConsensusAddress": "Contract adddress for loan term consensus",
          "priceOracleAddress": "Contract address of the price oracle",
          "settingsAddress": "Contract address for the configuration of the platform"
        }
      },
      "initialized()": {
        "return": "true if contract is initialized. Otherwise it returns false."
      },
      "lendingToken()": {
        "return": "Address of the lending token"
      },
      "liquidateLoan(uint256)": {
        "params": {
          "loanID": "The ID of the loan to be liquidated"
        }
      },
      "repay(uint256,uint256)": {
        "params": {
          "amount": "The amount of tokens to pay back to the loan",
          "loanID": "The ID of the loan the payment is for"
        }
      },
      "setPriceOracle(address)": {
        "details": "It throws a require error if sender is not allowed.It throws a require error if new address is empty (0x0) or not a contract.",
        "params": {
          "newPriceOracle": "the new price oracle address."
        }
      },
      "settings()": {
        "details": "This address should NOT change over the time. See details in the _setSettings(...) function."
      },
      "tToken()": {
        "return": "Address of the tToken"
      },
      "takeOutLoan(uint256,uint256)": {
        "details": "collateral ratio is a percentage of the loan amount that's required in collateralthe percentage will be *(10**2). I.e. collateralRatio of 5244 means 52.44% collateralis required in the loan. Interest rate is also a percentage with 2 decimal points."
      },
      "withdrawCollateral(uint256,uint256)": {
        "params": {
          "amount": "The amount of collateral token or ether the caller is hoping to withdraw.",
          "loanID": "The ID of the loan the collateral is for"
        }
      }
    }
  },
  "userdoc": {
    "methods": {
      "cToken()": {
        "notice": "Returns the cToken in the lending pool"
      },
      "canLiquidateLoan(uint256)": {
        "notice": "A loan can be liquidated if it is: under collateralized or expired"
      },
      "createLoanWithTerms((address,address,address,uint256,uint256,uint256,uint256),(address,address,uint256,uint256,uint256,uint256,(uint256,uint8,bytes32,bytes32))[],uint256)": {
        "notice": "Creates a loan with the loan request and terms"
      },
      "depositCollateral(address,uint256,uint256)": {
        "notice": "Deposit collateral into a loan"
      },
      "getBorrowerLoans(address)": {
        "notice": "Get a list of all loans for a borrower"
      },
      "getCollateralInfo(uint256)": {
        "notice": "Get collateral information of a specific loan"
      },
      "getTotalOwed(uint256)": {
        "notice": "Returns the total owed amount remaining for a specified loan"
      },
      "initialize(address,address,address,address,address)": {
        "notice": "Initializes the current contract instance setting the required parameters"
      },
      "initialized()": {
        "notice": "Gets if the contract is initialized."
      },
      "lendingToken()": {
        "notice": "Returns the lending token in the lending pool"
      },
      "liquidateLoan(uint256)": {
        "notice": "Liquidate a loan if it is expired or under collateralized"
      },
      "repay(uint256,uint256)": {
        "notice": "Make a payment to a loan"
      },
      "setPriceOracle(address)": {
        "notice": "Updates the current price oracle instance."
      },
      "settings()": {
        "notice": "The gets the settings contract address from the SETTINGS_SLOT."
      },
      "tToken()": {
        "notice": "Returns the tToken in the lending pool"
      },
      "takeOutLoan(uint256,uint256)": {
        "notice": "Take out a loan"
      },
      "withdrawCollateral(uint256,uint256)": {
        "notice": "Withdraw collateral from a loan, unless this isn't allowed"
      }
    },
    "notice": "This contract is used as a basis for the creation of Ether based loans across the platformIt implements the LoansBase contract from Teller"
  }
}