{
  "contractName": "EtherCollateralLoansMock",
  "abi": [
    {
      "anonymous": false,
      "inputs": [
        {
          "indexed": true,
          "internalType": "uint256",
          "name": "loanID",
          "type": "uint256"
        },
        {
          "indexed": true,
          "internalType": "address",
          "name": "borrower",
          "type": "address"
        },
        {
          "indexed": false,
          "internalType": "uint256",
          "name": "depositAmount",
          "type": "uint256"
        }
      ],
      "name": "CollateralDeposited",
      "type": "event"
    },
    {
      "anonymous": false,
      "inputs": [
        {
          "indexed": true,
          "internalType": "uint256",
          "name": "loanID",
          "type": "uint256"
        },
        {
          "indexed": true,
          "internalType": "address",
          "name": "borrower",
          "type": "address"
        },
        {
          "indexed": false,
          "internalType": "uint256",
          "name": "withdrawalAmount",
          "type": "uint256"
        }
      ],
      "name": "CollateralWithdrawn",
      "type": "event"
    },
    {
      "anonymous": false,
      "inputs": [
        {
          "indexed": true,
          "internalType": "uint256",
          "name": "loanID",
          "type": "uint256"
        },
        {
          "indexed": true,
          "internalType": "address",
          "name": "borrower",
          "type": "address"
        },
        {
          "indexed": false,
          "internalType": "address",
          "name": "liquidator",
          "type": "address"
        },
        {
          "indexed": false,
          "internalType": "uint256",
          "name": "collateralOut",
          "type": "uint256"
        },
        {
          "indexed": false,
          "internalType": "uint256",
          "name": "tokensIn",
          "type": "uint256"
        }
      ],
      "name": "LoanLiquidated",
      "type": "event"
    },
    {
      "anonymous": false,
      "inputs": [
        {
          "indexed": true,
          "internalType": "uint256",
          "name": "loanID",
          "type": "uint256"
        },
        {
          "indexed": true,
          "internalType": "address",
          "name": "borrower",
          "type": "address"
        },
        {
          "indexed": false,
          "internalType": "uint256",
          "name": "amountPaid",
          "type": "uint256"
        },
        {
          "indexed": false,
          "internalType": "address",
          "name": "payer",
          "type": "address"
        },
        {
          "indexed": false,
          "internalType": "uint256",
          "name": "totalOwed",
          "type": "uint256"
        }
      ],
      "name": "LoanRepaid",
      "type": "event"
    },
    {
      "anonymous": false,
      "inputs": [
        {
          "indexed": true,
          "internalType": "uint256",
          "name": "loanID",
          "type": "uint256"
        },
        {
          "indexed": true,
          "internalType": "address",
          "name": "borrower",
          "type": "address"
        },
        {
          "indexed": true,
          "internalType": "address",
          "name": "escrow",
          "type": "address"
        },
        {
          "indexed": false,
          "internalType": "uint256",
          "name": "amountBorrowed",
          "type": "uint256"
        }
      ],
      "name": "LoanTakenOut",
      "type": "event"
    },
    {
      "anonymous": false,
      "inputs": [
        {
          "indexed": true,
          "internalType": "uint256",
          "name": "loanID",
          "type": "uint256"
        },
        {
          "indexed": true,
          "internalType": "address",
          "name": "borrower",
          "type": "address"
        },
        {
          "indexed": true,
          "internalType": "address",
          "name": "recipient",
          "type": "address"
        },
        {
          "indexed": false,
          "internalType": "uint256",
          "name": "interestRate",
          "type": "uint256"
        },
        {
          "indexed": false,
          "internalType": "uint256",
          "name": "collateralRatio",
          "type": "uint256"
        },
        {
          "indexed": false,
          "internalType": "uint256",
          "name": "maxLoanAmount",
          "type": "uint256"
        },
        {
          "indexed": false,
          "internalType": "uint256",
          "name": "duration",
          "type": "uint256"
        },
        {
          "indexed": false,
          "internalType": "uint256",
          "name": "termsExpiry",
          "type": "uint256"
        }
      ],
      "name": "LoanTermsSet",
      "type": "event"
    },
    {
      "anonymous": false,
      "inputs": [
        {
          "indexed": true,
          "internalType": "address",
          "name": "sender",
          "type": "address"
        },
        {
          "indexed": true,
          "internalType": "address",
          "name": "oldPriceOracle",
          "type": "address"
        },
        {
          "indexed": true,
          "internalType": "address",
          "name": "newPriceOracle",
          "type": "address"
        }
      ],
      "name": "PriceOracleUpdated",
      "type": "event"
    },
    {
      "payable": true,
      "stateMutability": "payable",
      "type": "fallback"
    },
    {
      "constant": true,
      "inputs": [
        {
          "internalType": "address",
          "name": "",
          "type": "address"
        },
        {
          "internalType": "uint256",
          "name": "",
          "type": "uint256"
        }
      ],
      "name": "borrowerLoans",
      "outputs": [
        {
          "internalType": "uint256",
          "name": "",
          "type": "uint256"
        }
      ],
      "payable": false,
      "stateMutability": "view",
      "type": "function"
    },
    {
      "constant": true,
      "inputs": [],
      "name": "cToken",
      "outputs": [
        {
          "internalType": "address",
          "name": "",
          "type": "address"
        }
      ],
      "payable": false,
      "stateMutability": "view",
      "type": "function"
    },
    {
      "constant": true,
      "inputs": [
        {
          "internalType": "uint256",
          "name": "loanID",
          "type": "uint256"
        }
      ],
      "name": "canLiquidateLoan",
      "outputs": [
        {
          "internalType": "bool",
          "name": "",
          "type": "bool"
        }
      ],
      "payable": false,
      "stateMutability": "view",
      "type": "function"
    },
    {
      "constant": true,
      "inputs": [],
      "name": "collateralToken",
      "outputs": [
        {
          "internalType": "address",
          "name": "",
          "type": "address"
        }
      ],
      "payable": false,
      "stateMutability": "view",
      "type": "function"
    },
    {
      "constant": false,
      "inputs": [
        {
          "components": [
            {
              "internalType": "address payable",
              "name": "borrower",
              "type": "address"
            },
            {
              "internalType": "address",
              "name": "recipient",
              "type": "address"
            },
            {
              "internalType": "address",
              "name": "consensusAddress",
              "type": "address"
            },
            {
              "internalType": "uint256",
              "name": "requestNonce",
              "type": "uint256"
            },
            {
              "internalType": "uint256",
              "name": "amount",
              "type": "uint256"
            },
            {
              "internalType": "uint256",
              "name": "duration",
              "type": "uint256"
            },
            {
              "internalType": "uint256",
              "name": "requestTime",
              "type": "uint256"
            }
          ],
          "internalType": "struct TellerCommon.LoanRequest",
          "name": "request",
          "type": "tuple"
        },
        {
          "components": [
            {
              "internalType": "address",
              "name": "signer",
              "type": "address"
            },
            {
              "internalType": "address",
              "name": "consensusAddress",
              "type": "address"
            },
            {
              "internalType": "uint256",
              "name": "responseTime",
              "type": "uint256"
            },
            {
              "internalType": "uint256",
              "name": "interestRate",
              "type": "uint256"
            },
            {
              "internalType": "uint256",
              "name": "collateralRatio",
              "type": "uint256"
            },
            {
              "internalType": "uint256",
              "name": "maxLoanAmount",
              "type": "uint256"
            },
            {
              "components": [
                {
                  "internalType": "uint256",
                  "name": "signerNonce",
                  "type": "uint256"
                },
                {
                  "internalType": "uint8",
                  "name": "v",
                  "type": "uint8"
                },
                {
                  "internalType": "bytes32",
                  "name": "r",
                  "type": "bytes32"
                },
                {
                  "internalType": "bytes32",
                  "name": "s",
                  "type": "bytes32"
                }
              ],
              "internalType": "struct TellerCommon.Signature",
              "name": "signature",
              "type": "tuple"
            }
          ],
          "internalType": "struct TellerCommon.LoanResponse[]",
          "name": "responses",
          "type": "tuple[]"
        },
        {
          "internalType": "uint256",
          "name": "collateralAmount",
          "type": "uint256"
        }
      ],
      "name": "createLoanWithTerms",
      "outputs": [],
      "payable": true,
      "stateMutability": "payable",
      "type": "function"
    },
    {
      "constant": false,
      "inputs": [
        {
          "internalType": "address",
          "name": "borrower",
          "type": "address"
        },
        {
          "internalType": "uint256",
          "name": "loanID",
          "type": "uint256"
        },
        {
          "internalType": "uint256",
          "name": "amount",
          "type": "uint256"
        }
      ],
      "name": "depositCollateral",
      "outputs": [],
      "payable": true,
      "stateMutability": "payable",
      "type": "function"
    },
    {
      "constant": true,
      "inputs": [
        {
          "internalType": "address",
          "name": "borrower",
          "type": "address"
        }
      ],
      "name": "getBorrowerLoans",
      "outputs": [
        {
          "internalType": "uint256[]",
          "name": "",
          "type": "uint256[]"
        }
      ],
      "payable": false,
      "stateMutability": "view",
      "type": "function"
    },
    {
      "constant": true,
      "inputs": [
        {
          "internalType": "uint256",
          "name": "loanID",
          "type": "uint256"
        }
      ],
      "name": "getCollateralInfo",
      "outputs": [
        {
          "components": [
            {
              "internalType": "uint256",
              "name": "collateral",
              "type": "uint256"
            },
            {
              "internalType": "uint256",
              "name": "neededInLendingTokens",
              "type": "uint256"
            },
            {
              "internalType": "uint256",
              "name": "neededInCollateralTokens",
              "type": "uint256"
            },
            {
              "internalType": "bool",
              "name": "moreCollateralRequired",
              "type": "bool"
            }
          ],
          "internalType": "struct TellerCommon.LoanCollateralInfo",
          "name": "",
          "type": "tuple"
        }
      ],
      "payable": false,
      "stateMutability": "view",
      "type": "function"
    },
    {
      "constant": true,
      "inputs": [
        {
          "internalType": "uint256",
          "name": "loanID",
          "type": "uint256"
        }
      ],
      "name": "getTotalOwed",
      "outputs": [
        {
          "internalType": "uint256",
          "name": "",
          "type": "uint256"
        }
      ],
      "payable": false,
      "stateMutability": "view",
      "type": "function"
    },
    {
      "constant": false,
      "inputs": [
        {
          "internalType": "address",
          "name": "priceOracleAddress",
          "type": "address"
        },
        {
          "internalType": "address",
          "name": "lendingPoolAddress",
          "type": "address"
        },
        {
          "internalType": "address",
          "name": "loanTermsConsensusAddress",
          "type": "address"
        },
        {
          "internalType": "address",
          "name": "settingsAddress",
          "type": "address"
        },
        {
          "internalType": "address",
          "name": "",
          "type": "address"
        }
      ],
      "name": "initialize",
      "outputs": [],
      "payable": false,
      "stateMutability": "nonpayable",
      "type": "function"
    },
    {
      "constant": false,
      "inputs": [],
      "name": "initialize",
      "outputs": [],
      "payable": false,
      "stateMutability": "nonpayable",
      "type": "function"
    },
    {
      "constant": true,
      "inputs": [],
      "name": "initialized",
      "outputs": [
        {
          "internalType": "bool",
          "name": "value",
          "type": "bool"
        }
      ],
      "payable": false,
      "stateMutability": "view",
      "type": "function"
    },
    {
      "constant": true,
      "inputs": [],
      "name": "lendingPool",
      "outputs": [
        {
          "internalType": "contract LendingPoolInterface",
          "name": "",
          "type": "address"
        }
      ],
      "payable": false,
      "stateMutability": "view",
      "type": "function"
    },
    {
      "constant": true,
      "inputs": [],
      "name": "lendingToken",
      "outputs": [
        {
          "internalType": "address",
          "name": "",
          "type": "address"
        }
      ],
      "payable": false,
      "stateMutability": "view",
      "type": "function"
    },
    {
      "constant": false,
      "inputs": [
        {
          "internalType": "uint256",
          "name": "loanID",
          "type": "uint256"
        }
      ],
      "name": "liquidateLoan",
      "outputs": [],
      "payable": false,
      "stateMutability": "nonpayable",
      "type": "function"
    },
    {
      "constant": true,
      "inputs": [],
      "name": "loanIDCounter",
      "outputs": [
        {
          "internalType": "uint256",
          "name": "",
          "type": "uint256"
        }
      ],
      "payable": false,
      "stateMutability": "view",
      "type": "function"
    },
    {
      "constant": true,
      "inputs": [],
      "name": "loanTermsConsensus",
      "outputs": [
        {
          "internalType": "contract LoanTermsConsensusInterface",
          "name": "",
          "type": "address"
        }
      ],
      "payable": false,
      "stateMutability": "view",
      "type": "function"
    },
    {
      "constant": true,
      "inputs": [
        {
          "internalType": "uint256",
          "name": "",
          "type": "uint256"
        }
      ],
      "name": "loans",
      "outputs": [
        {
          "internalType": "uint256",
          "name": "id",
          "type": "uint256"
        },
        {
          "components": [
            {
              "internalType": "address payable",
              "name": "borrower",
              "type": "address"
            },
            {
              "internalType": "address",
              "name": "recipient",
              "type": "address"
            },
            {
              "internalType": "uint256",
              "name": "interestRate",
              "type": "uint256"
            },
            {
              "internalType": "uint256",
              "name": "collateralRatio",
              "type": "uint256"
            },
            {
              "internalType": "uint256",
              "name": "maxLoanAmount",
              "type": "uint256"
            },
            {
              "internalType": "uint256",
              "name": "duration",
              "type": "uint256"
            }
          ],
          "internalType": "struct TellerCommon.LoanTerms",
          "name": "loanTerms",
          "type": "tuple"
        },
        {
          "internalType": "uint256",
          "name": "termsExpiry",
          "type": "uint256"
        },
        {
          "internalType": "uint256",
          "name": "loanStartTime",
          "type": "uint256"
        },
        {
          "internalType": "uint256",
          "name": "collateral",
          "type": "uint256"
        },
        {
          "internalType": "uint256",
          "name": "lastCollateralIn",
          "type": "uint256"
        },
        {
          "internalType": "uint256",
          "name": "principalOwed",
          "type": "uint256"
        },
        {
          "internalType": "uint256",
          "name": "interestOwed",
          "type": "uint256"
        },
        {
          "internalType": "uint256",
          "name": "borrowedAmount",
          "type": "uint256"
        },
        {
          "internalType": "address",
          "name": "escrow",
          "type": "address"
        },
        {
          "internalType": "enum TellerCommon.LoanStatus",
          "name": "status",
          "type": "uint8"
        },
        {
          "internalType": "bool",
          "name": "liquidated",
          "type": "bool"
        }
      ],
      "payable": false,
      "stateMutability": "view",
      "type": "function"
    },
    {
      "constant": true,
      "inputs": [],
      "name": "priceOracle",
      "outputs": [
        {
          "internalType": "address",
          "name": "",
          "type": "address"
        }
      ],
      "payable": false,
      "stateMutability": "view",
      "type": "function"
    },
    {
      "constant": false,
      "inputs": [
        {
          "internalType": "uint256",
          "name": "amount",
          "type": "uint256"
        },
        {
          "internalType": "uint256",
          "name": "loanID",
          "type": "uint256"
        }
      ],
      "name": "repay",
      "outputs": [],
      "payable": false,
      "stateMutability": "nonpayable",
      "type": "function"
    },
    {
      "constant": false,
      "inputs": [
        {
          "internalType": "address",
          "name": "newPriceOracle",
          "type": "address"
        }
      ],
      "name": "setPriceOracle",
      "outputs": [],
      "payable": false,
      "stateMutability": "nonpayable",
      "type": "function"
    },
    {
      "constant": true,
      "inputs": [],
      "name": "settings",
      "outputs": [
        {
          "internalType": "contract SettingsInterface",
          "name": "",
          "type": "address"
        }
      ],
      "payable": false,
      "stateMutability": "view",
      "type": "function"
    },
    {
      "constant": true,
      "inputs": [],
      "name": "tToken",
      "outputs": [
        {
          "internalType": "address",
          "name": "",
          "type": "address"
        }
      ],
      "payable": false,
      "stateMutability": "view",
      "type": "function"
    },
    {
      "constant": false,
      "inputs": [
        {
          "internalType": "uint256",
          "name": "loanID",
          "type": "uint256"
        },
        {
          "internalType": "uint256",
          "name": "amountBorrow",
          "type": "uint256"
        }
      ],
      "name": "takeOutLoan",
      "outputs": [],
      "payable": false,
      "stateMutability": "nonpayable",
      "type": "function"
    },
    {
      "constant": true,
      "inputs": [],
      "name": "totalCollateral",
      "outputs": [
        {
          "internalType": "uint256",
          "name": "",
          "type": "uint256"
        }
      ],
      "payable": false,
      "stateMutability": "view",
      "type": "function"
    },
    {
      "constant": false,
      "inputs": [
        {
          "internalType": "uint256",
          "name": "amount",
          "type": "uint256"
        },
        {
          "internalType": "uint256",
          "name": "loanID",
          "type": "uint256"
        }
      ],
      "name": "withdrawCollateral",
      "outputs": [],
      "payable": false,
      "stateMutability": "nonpayable",
      "type": "function"
    },
    {
      "constant": false,
      "inputs": [
        {
          "internalType": "uint256",
          "name": "newLoanIdCounter",
          "type": "uint256"
        }
      ],
      "name": "setLoanIDCounter",
      "outputs": [],
      "payable": false,
      "stateMutability": "nonpayable",
      "type": "function"
    },
    {
      "constant": false,
      "inputs": [
        {
          "internalType": "address",
          "name": "borrower",
          "type": "address"
        },
        {
          "internalType": "uint256[]",
          "name": "loanIDs",
          "type": "uint256[]"
        }
      ],
      "name": "setBorrowerLoans",
      "outputs": [],
      "payable": false,
      "stateMutability": "nonpayable",
      "type": "function"
    },
    {
      "constant": false,
      "inputs": [
        {
          "internalType": "uint256",
          "name": "amount",
          "type": "uint256"
        }
      ],
      "name": "setTotalCollateral",
      "outputs": [],
      "payable": false,
      "stateMutability": "nonpayable",
      "type": "function"
    },
    {
      "constant": false,
      "inputs": [
        {
          "internalType": "uint256",
          "name": "loanID",
          "type": "uint256"
        },
        {
          "internalType": "address",
          "name": "escrowAddress",
          "type": "address"
        }
      ],
      "name": "setEscrowForLoan",
      "outputs": [],
      "payable": false,
      "stateMutability": "nonpayable",
      "type": "function"
    },
    {
      "constant": false,
      "inputs": [
        {
          "internalType": "uint256",
          "name": "id",
          "type": "uint256"
        },
        {
          "components": [
            {
              "internalType": "address payable",
              "name": "borrower",
              "type": "address"
            },
            {
              "internalType": "address",
              "name": "recipient",
              "type": "address"
            },
            {
              "internalType": "uint256",
              "name": "interestRate",
              "type": "uint256"
            },
            {
              "internalType": "uint256",
              "name": "collateralRatio",
              "type": "uint256"
            },
            {
              "internalType": "uint256",
              "name": "maxLoanAmount",
              "type": "uint256"
            },
            {
              "internalType": "uint256",
              "name": "duration",
              "type": "uint256"
            }
          ],
          "internalType": "struct TellerCommon.LoanTerms",
          "name": "loanTerms",
          "type": "tuple"
        },
        {
          "internalType": "uint256",
          "name": "termsExpiry",
          "type": "uint256"
        },
        {
          "internalType": "uint256",
          "name": "loanStartTime",
          "type": "uint256"
        },
        {
          "internalType": "uint256",
          "name": "collateral",
          "type": "uint256"
        },
        {
          "internalType": "uint256",
          "name": "lastCollateralIn",
          "type": "uint256"
        },
        {
          "internalType": "uint256",
          "name": "principalOwed",
          "type": "uint256"
        },
        {
          "internalType": "uint256",
          "name": "interestOwed",
          "type": "uint256"
        },
        {
          "internalType": "uint256",
          "name": "borrowedAmount",
          "type": "uint256"
        },
        {
          "internalType": "enum TellerCommon.LoanStatus",
          "name": "status",
          "type": "uint8"
        },
        {
          "internalType": "bool",
          "name": "liquidated",
          "type": "bool"
        }
      ],
      "name": "setLoan",
      "outputs": [],
      "payable": false,
      "stateMutability": "nonpayable",
      "type": "function"
    },
    {
      "constant": false,
      "inputs": [
        {
          "internalType": "uint256",
          "name": "loanID",
          "type": "uint256"
        }
      ],
      "name": "externalCreateEscrow",
      "outputs": [
        {
          "internalType": "address",
          "name": "",
          "type": "address"
        }
      ],
      "payable": false,
      "stateMutability": "nonpayable",
      "type": "function"
    },
    {
      "constant": false,
      "inputs": [
        {
          "internalType": "address",
          "name": "settingsAddress",
          "type": "address"
        }
      ],
      "name": "externalSetSettings",
      "outputs": [],
      "payable": false,
      "stateMutability": "nonpayable",
      "type": "function"
    }
  ],
  "bytecode": "0x608060405234801561001057600080fd5b506152f5806100206000396000f3fe6080604052600436106101ee5760003560e01c8063721405651161010d578063aaaca558116100a0578063d8aed1451161006f578063d8aed14514610527578063e06174e414610547578063e1ec3c681461055c578063e3ed190214610594578063eee8b7ff146105b4576101ee565b8063aaaca558146104c8578063b2016bd4146104dd578063c35d64ea146104f2578063ccdd9f5d14610507576101ee565b806391d71457116100dc57806391d7145714610453578063934b5d1314610473578063a59a9973146104a0578063a5c5c7b2146104b5576101ee565b806372140565146103de578063767a7b05146103fe578063803a08821461041e5780638129fc1c1461043e576101ee565b80634ac8eb5f116101855780636479445911610154578063647944591461036957806368c22007146103895780636948f32b146103a957806369e527da146103c9576101ee565b80634ac8eb5f146102fd5780635134845414610312578063530e784f1461032757806358895e3d14610347576101ee565b80631a74856b116101c15780631a74856b1461027b5780632630c12f1461028e5780633b929300146102b057806342c3c0fb146102dd576101ee565b806302bc2cdb146101f05780631459457a14610210578063158ef93e1461023057806319e8b2b31461025b575b005b3480156101fc57600080fd5b506101ee61020b3660046141f8565b6105e1565b34801561021c57600080fd5b506101ee61022b366004613e63565b610cc3565b34801561023c57600080fd5b50610245610d93565b6040516102529190614ddf565b60405180910390f35b34801561026757600080fd5b506101ee610276366004613ed8565b610db2565b6101ee610289366004613f68565b610ddb565b34801561029a57600080fd5b506102a3610f9c565b6040516102529190614d39565b3480156102bc57600080fd5b506102d06102cb3660046140b7565b610fab565b6040516102529190614ded565b3480156102e957600080fd5b506101ee6102f83660046140b7565b610fdb565b34801561030957600080fd5b506102d0610fe0565b34801561031e57600080fd5b506102d0610fe6565b34801561033357600080fd5b506101ee610342366004613e27565b610fec565b34801561035357600080fd5b5061035c61114a565b6040516102529190614dfb565b34801561037557600080fd5b506101ee6103843660046140b7565b611159565b34801561039557600080fd5b506101ee6103a4366004613e27565b61115e565b3480156103b557600080fd5b506102456103c43660046140b7565b61116a565b3480156103d557600080fd5b506102a36112c3565b3480156103ea57600080fd5b506101ee6103f9366004614105565b611346565b34801561040a57600080fd5b506101ee6104193660046141f8565b61151c565b34801561042a57600080fd5b506102a36104393660046140b7565b611735565b34801561044a57600080fd5b506101ee611740565b34801561045f57600080fd5b506101ee61046e3660046140d5565b6117c7565b34801561047f57600080fd5b5061049361048e3660046140b7565b6117f8565b6040516102529190614ffa565b3480156104ac57600080fd5b5061035c611809565b6101ee6104c336600461400f565b611818565b3480156104d457600080fd5b506102a3611e0d565b3480156104e957600080fd5b506102a3611e52565b3480156104fe57600080fd5b506102a3611e61565b34801561051357600080fd5b506101ee6105223660046140b7565b611ea6565b34801561053357600080fd5b506101ee6105423660046141f8565b612250565b34801561055357600080fd5b5061035c612656565b34801561056857600080fd5b5061057c6105773660046140b7565b612678565b6040516102529c9b9a9998979695949392919061506e565b3480156105a057600080fd5b506102d06105af366004613f2e565b612730565b3480156105c057600080fd5b506105d46105cf366004613e27565b61275e565b6040516102529190614dce565b8160016000828152606d60205260409020600e0154600160a01b900460ff16600381111561060b57fe5b146106315760405162461bcd60e51b815260040161062890614fca565b60405180910390fd5b610639610d93565b6106555760405162461bcd60e51b815260040161062890614fba565b61065d6127ca565b1561067a5760405162461bcd60e51b815260040161062890614efa565b606a546001600160a01b031661068f81612844565b156106ac5760405162461bcd60e51b815260040161062890614e3a565b603380546001908101918290556000868152606d6020526040902001546001600160a01b03163381146106f15760405162461bcd60e51b815260040161062890614f8a565b6000868152606d60205260409020600501548511156107225760405162461bcd60e51b815260040161062890614e5a565b6000868152606d60205260409020600701544211156107535760405162461bcd60e51b815260040161062890614f3a565b6108cd61075e612656565b6001600160a01b031663269012a0610774612656565b6001600160a01b031663d86d744e6040518163ffffffff1660e01b815260040160206040518083038186803b1580156107ac57600080fd5b505afa1580156107c0573d6000803e3d6000fd5b505050506040513d601f19601f820116820180604052506107e49190810190613ff1565b6001600160a01b03166311880cc86040518163ffffffff1660e01b815260040160206040518083038186803b15801561081c57600080fd5b505afa158015610830573d6000803e3d6000fd5b505050506040513d601f19601f820116820180604052506108549190810190613fd3565b6040518263ffffffff1660e01b81526004016108709190614ded565b60206040518083038186803b15801561088857600080fd5b505afa15801561089c573d6000803e3d6000fd5b505050506040513d601f19601f820116820180604052506108c09190810190613fd3565b429063ffffffff6128c916565b6000878152606d60205260409020600a015411156108fd5760405162461bcd60e51b815260040161062890614f2a565b6000868152606d60205260409020600d8101869055600b81018690556006810154600390910154610962916301e1338091610956916127109183919061094a908c9063ffffffff61291416565b9063ffffffff61291416565b9063ffffffff61294e16565b6000878152606d60205260409020600c015561097c613a6f565b61098587612990565b90508060600151156109a95760405162461bcd60e51b815260040161062890614f0a565b6000878152606d60205260409020426008820155600e01805460ff60a01b1916600160a11b1790556109da876129e1565b6000888152606d602052604090819020600e0180546001600160a01b0319166001600160a01b039384161790819055606a549151631397424760e11b81529183169263272e848e92610a32928b92169060040161502a565b600060405180830381600087803b158015610a4c57600080fd5b505af1158015610a60573d6000803e3d6000fd5b5050506000888152606d602052604090819020600e0154905163cd6dc68760e01b81526001600160a01b03909116915063cd6dc68790610aa69030908b90600401614db3565b600060405180830381600087803b158015610ac057600080fd5b505af1158015610ad4573d6000803e3d6000fd5b50505050610ae0612ada565b6001600160a01b031663c7bbb113606a60009054906101000a90046001600160a01b03166001600160a01b031663aaaca5586040518163ffffffff1660e01b815260040160206040518083038186803b158015610b3c57600080fd5b505afa158015610b50573d6000803e3d6000fd5b505050506040513d601f19601f82011682018060405250610b749190810190613e45565b306001600160a01b031663b2016bd46040518163ffffffff1660e01b815260040160206040518083038186803b158015610bad57600080fd5b505afa158015610bc1573d6000803e3d6000fd5b505050506040513d601f19601f82011682018060405250610be59190810190613e45565b896040518463ffffffff1660e01b8152600401610c0493929190614d98565b600060405180830381600087803b158015610c1e57600080fd5b505af1158015610c32573d6000803e3d6000fd5b5050506000888152606d602052604090819020600e81015460019091015491516001600160a01b03918216935091169089907f85b5516a17ce775661a4b967b1fb30c852678f6598d86d9f3c99b7b60ff2d0ce90610c91908b90614ded565b60405180910390a450506033548114610cbc5760405162461bcd60e51b815260040161062890614fda565b5050505050565b610ccb610d93565b15610ce85760405162461bcd60e51b815260040161062890614fea565b610cf485858585612b54565b610cfc612656565b6001600160a01b031663a734f06e6040518163ffffffff1660e01b815260040160206040518083038186803b158015610d3457600080fd5b505afa158015610d48573d6000803e3d6000fd5b505050506040513d601f19601f82011682018060405250610d6c9190810190613e45565b606780546001600160a01b0319166001600160a01b03929092169190911790555050505050565b600080604051610da290614d23565b6040519081900390205492915050565b6001600160a01b0383166000908152606c60205260409020610dd5908383613a99565b50505050565b8160016000828152606d60205260409020600e0154600160a01b900460ff166003811115610e0557fe5b1480610e37575060026000828152606d60205260409020600e0154600160a01b900460ff166003811115610e3557fe5b145b610e535760405162461bcd60e51b815260040161062890614e9a565b610e5b610d93565b610e775760405162461bcd60e51b815260040161062890614fba565b610e7f6127ca565b15610e9c5760405162461bcd60e51b815260040161062890614efa565b606a546001600160a01b0316610eb181612844565b15610ece5760405162461bcd60e51b815260040161062890614e3a565b6000848152606d60205260409020600101546001600160a01b03868116911614610f0a5760405162461bcd60e51b815260040161062890614e7a565b823414610f295760405162461bcd60e51b815260040161062890614e8a565b60003411610f495760405162461bcd60e51b815260040161062890614f6a565b610f538484612ca5565b846001600160a01b0316847feec2f3feb835e2f2fd44281034b04700a1ddda63dd402949d470a25a7c40b36c85604051610f8d9190614ded565b60405180910390a35050505050565b6069546001600160a01b031681565b6000818152606d60205260408120600b810154600c90910154610fd39163ffffffff612cfe16565b90505b919050565b606855565b60665481565b60685481565b610ff4610d93565b6110105760405162461bcd60e51b815260040161062890614fba565b611018612656565b6001600160a01b031663c095ea27336040518263ffffffff1660e01b81526004016110439190614d47565b60006040518083038186803b15801561105b57600080fd5b505afa15801561106f573d6000803e3d6000fd5b50505050611085816001600160a01b0316612d23565b6110a15760405162461bcd60e51b815260040161062890614f7a565b60695460408051808201909152601b81527f4e45575f4f5241434c455f4d5553545f42455f50524f5649444544000000000060208201526001600160a01b03909116906110f7908290849063ffffffff612d5f16565b606980546001600160a01b0319166001600160a01b03848116918217909255604051909183169033907ff51f0fffc8121ee3747e0536c487d894894cdba960ccfb4ab385a88d51b16fed90600090a45050565b606b546001600160a01b031681565b606655565b61116781612d88565b50565b60006111746127ca565b8061118f5750606a5461118f906001600160a01b0316612844565b806111c1575060026000838152606d60205260409020600e0154600160a01b900460ff1660038111156111be57fe5b14155b156111ce57506000610fd6565b6000828152606d6020526040812060088101546006909101549091426111fa848463ffffffff612cfe16565b109050801561120f5760019350505050610fd6565b6000858152606d60205260409020600e01546001600160a01b031680156112ac57806001600160a01b031663415dfa5b6040518163ffffffff1660e01b815260040160206040518083038186803b15801561126957600080fd5b505afa15801561127d573d6000803e3d6000fd5b505050506040513d601f19601f820116820180604052506112a19190810190613fb5565b945050505050610fd6565b6112b586612990565b606001519695505050505050565b606a54604080516334f293ed60e11b815290516000926001600160a01b0316916369e527da916004808301926020929190829003018186803b15801561130857600080fd5b505afa15801561131c573d6000803e3d6000fd5b505050506040513d601f19601f820116820180604052506113409190810190613e45565b90505b90565b828a60800135101561136a5760405162461bcd60e51b815260040161062890614eda565b60668054880190556040805161018081019091528b815260208101611394368d90038d018d614099565b81526020018a815260200189815260200188815260200187815260200186815260200185815260200184815260200160006001600160a01b031681526020018360038111156113df57fe5b815282151560209182015260008d8152606d8252604090819020835181558383015180516001830180546001600160a01b03199081166001600160a01b0393841617909155948201516002840180548716918316919091179055818401516003808501919091556060808401516004860155608080850151600587015560a0948501516006870155958801516007860155870151600885015593860151600984015590850151600a83015560c0850151600b83015560e0850151600c830155610100850151600d830155610120850151600e830180549095169116178084556101408501519193919260ff60a01b1990911690600160a01b9084908111156114e357fe5b02179055506101609190910151600e9091018054911515600160a81b0260ff60a81b199092169190911790555050505050505050505050565b8060016000828152606d60205260409020600e0154600160a01b900460ff16600381111561154657fe5b1480611578575060026000828152606d60205260409020600e0154600160a01b900460ff16600381111561157657fe5b145b6115945760405162461bcd60e51b815260040161062890614e9a565b61159c610d93565b6115b85760405162461bcd60e51b815260040161062890614fba565b6115c06127ca565b156115dd5760405162461bcd60e51b815260040161062890614efa565b606a546001600160a01b03166115f281612844565b1561160f5760405162461bcd60e51b815260040161062890614e3a565b603380546001908101918290556000858152606d6020526040902001546001600160a01b031633146116535760405162461bcd60e51b815260040161062890614f9a565b600085116116735760405162461bcd60e51b815260040161062890614eea565b600061167e85612df7565b9050600061168b82612e2e565b6000878152606d6020526040812060090154919250906116b1908363ffffffff6128c916565b9050878111156116be5750865b80156116cf576116cf878233612f73565b336001600160a01b0316877f7c5e5cb62e5ed3caf3764e4b0afedfedef533e27809d43367799787ad2abcd41836040516117099190614ded565b60405180910390a35050506033548114610cbc5760405162461bcd60e51b815260040161062890614fda565b6000610fd3826129e1565b600054610100900460ff16806117595750611759612ff4565b80611767575060005460ff16155b6117835760405162461bcd60e51b815260040161062890614f4a565b600054610100900460ff161580156117ae576000805460ff1961ff0019909116610100171660011790555b60016033558015611167576000805461ff001916905550565b6000918252606d6020526040909120600e0180546001600160a01b0319166001600160a01b03909216919091179055565b611800613a6f565b610fd382612990565b606a546001600160a01b031681565b611820610d93565b61183c5760405162461bcd60e51b815260040161062890614fba565b6118446127ca565b156118615760405162461bcd60e51b815260040161062890614efa565b61186e6020850185613e27565b336001600160a01b038216146118965760405162461bcd60e51b815260040161062890614f8a565b6118a53686900386018661407b565b60006118af612656565b6001600160a01b031663269012a06118c5612656565b6001600160a01b031663d86d744e6040518163ffffffff1660e01b815260040160206040518083038186803b1580156118fd57600080fd5b505afa158015611911573d6000803e3d6000fd5b505050506040513d601f19601f820116820180604052506119359190810190613ff1565b6001600160a01b031663cc44cadb6040518163ffffffff1660e01b815260040160206040518083038186803b15801561196d57600080fd5b505afa158015611981573d6000803e3d6000fd5b505050506040513d601f19601f820116820180604052506119a59190810190613fd3565b6040518263ffffffff1660e01b81526004016119c19190614ded565b60206040518083038186803b1580156119d957600080fd5b505afa1580156119ed573d6000803e3d6000fd5b505050506040513d601f19601f82011682018060405250611a119190810190613fd3565b90508160a00151811015611a375760405162461bcd60e51b815260040161062890614e1a565b6000611a41612656565b6001600160a01b03166369ff7744606a60009054906101000a90046001600160a01b03166001600160a01b031663aaaca5586040518163ffffffff1660e01b815260040160206040518083038186803b158015611a9d57600080fd5b505afa158015611ab1573d6000803e3d6000fd5b505050506040513d601f19601f82011682018060405250611ad59190810190613e45565b85608001516040518363ffffffff1660e01b8152600401611af7929190614db3565b60206040518083038186803b158015611b0f57600080fd5b505afa158015611b23573d6000803e3d6000fd5b505050506040513d601f19601f82011682018060405250611b479190810190613fb5565b90508015611b675760405162461bcd60e51b815260040161062890614e4a565b611b748360800151612ffa565b611b905760405162461bcd60e51b815260040161062890614faa565b843414611baf5760405162461bcd60e51b815260040161062890614e8a565b6000611bb961336a565b606b5460405163064e5d4960e01b8152919250600091829182916001600160a01b039091169063064e5d4990611bf7908f908f908f90600401615008565b606060405180830381600087803b158015611c1157600080fd5b505af1158015611c25573d6000803e3d6000fd5b505050506040513d601f19601f82011682018060405250611c499190810190614217565b91945092509050611c6b84611c63368f90038f018f61407b565b858585613384565b6000858152606d6020908152604091829020835181558382015180516001830180546001600160a01b03199081166001600160a01b0393841617909155938201516002840180548616918316919091179055818501516003808501919091556060808401516004860155608080850151600587015560a0948501516006870155968801516007860155870151600885015594860151600984015590850151600a83015560c0850151600b83015560e0850151600c830155610100850151600d830155610120850151600e83018054909416911617808355610140850151919391929160ff60a01b1990911690600160a01b908490811115611d6857fe5b02179055506101609190910151600e9091018054911515600160a81b0260ff60a81b199092169190911790553415611da457611da48434612ca5565b606c6000611db560208f018f613e27565b6001600160a01b031681526020808201929092526040016000908120805460018101825590825291902001849055611dff84611df6368f90038f018f61407b565b858585346135d3565b505050505050505050505050565b606a546040805163155594ab60e31b815290516000926001600160a01b03169163aaaca558916004808301926020929190829003018186803b15801561130857600080fd5b6067546001600160a01b031681565b606a54604080516361aeb27560e11b815290516000926001600160a01b03169163c35d64ea916004808301926020929190829003018186803b15801561130857600080fd5b8060026000828152606d60205260409020600e0154600160a01b900460ff166003811115611ed057fe5b14611eed5760405162461bcd60e51b815260040161062890614eca565b611ef5610d93565b611f115760405162461bcd60e51b815260040161062890614fba565b611f196127ca565b15611f365760405162461bcd60e51b815260040161062890614efa565b606a546001600160a01b0316611f4b81612844565b15611f685760405162461bcd60e51b815260040161062890614e3a565b6033805460010190819055611f7c8461116a565b611f985760405162461bcd60e51b815260040161062890614eba565b6000848152606d60205260408120600e8101805460ff60a01b1916600360a01b1760ff60a81b1916600160a81b1790556009015490611fd68261369e565b9050611fe3868333612f73565b6000611fed612656565b6001600160a01b031663269012a0612003612656565b6001600160a01b031663d86d744e6040518163ffffffff1660e01b815260040160206040518083038186803b15801561203b57600080fd5b505afa15801561204f573d6000803e3d6000fd5b505050506040513d601f19601f820116820180604052506120739190810190613ff1565b6001600160a01b0316631139087a6040518163ffffffff1660e01b815260040160206040518083038186803b1580156120ab57600080fd5b505afa1580156120bf573d6000803e3d6000fd5b505050506040513d601f19601f820116820180604052506120e39190810190613fd3565b6040518263ffffffff1660e01b81526004016120ff9190614ded565b60206040518083038186803b15801561211757600080fd5b505afa15801561212b573d6000803e3d6000fd5b505050506040513d601f19601f8201168201806040525061214f9190810190613fd3565b90506000612169612710610956858563ffffffff61291416565b606a546040516382f7b02760e01b81529192506001600160a01b0316906382f7b0279061219c9084903390600401615038565b600060405180830381600087803b1580156121b657600080fd5b505af11580156121ca573d6000803e3d6000fd5b5050506000898152606d6020526040908190206001015490516001600160a01b03909116915089907f9950a0562c02382e2e840daa73082d5be7660ce37601f28fa4c84089c11e8a069061222390339089908790614d55565b60405180910390a3505050506033548114610dd55760405162461bcd60e51b815260040161062890614fda565b8060026000828152606d60205260409020600e0154600160a01b900460ff16600381111561227a57fe5b146122975760405162461bcd60e51b815260040161062890614eca565b61229f610d93565b6122bb5760405162461bcd60e51b815260040161062890614fba565b6122c36127ca565b156122e05760405162461bcd60e51b815260040161062890614efa565b606a546001600160a01b03166122f581612844565b156123125760405162461bcd60e51b815260040161062890614e3a565b60338054600101908190558461233a5760405162461bcd60e51b815260040161062890614e2a565b84600061234686610fab565b905081811015612354578091505b612364818363ffffffff6128c916565b90506123708683613792565b80612414576000868152606d60205260409020600e8101805460ff60a01b1916600360a01b17905560098101546001909101546123b990889083906001600160a01b0316612f73565b6000878152606d6020526040908190206001015490516001600160a01b039091169088907f7c5e5cb62e5ed3caf3764e4b0afedfedef533e27809d43367799787ad2abcd419061240a908590614ded565b60405180910390a3505b606a5460405163acb7081560e01b81526001600160a01b039091169063acb70815906124469085903390600401615038565b600060405180830381600087803b15801561246057600080fd5b505af1158015612474573d6000803e3d6000fd5b50505050612480612ada565b6001600160a01b03166362e269ef606a60009054906101000a90046001600160a01b03166001600160a01b031663aaaca5586040518163ffffffff1660e01b815260040160206040518083038186803b1580156124dc57600080fd5b505afa1580156124f0573d6000803e3d6000fd5b505050506040513d601f19601f820116820180604052506125149190810190613e45565b306001600160a01b031663b2016bd46040518163ffffffff1660e01b815260040160206040518083038186803b15801561254d57600080fd5b505afa158015612561573d6000803e3d6000fd5b505050506040513d601f19601f820116820180604052506125859190810190613e45565b856040518463ffffffff1660e01b81526004016125a493929190614d98565b600060405180830381600087803b1580156125be57600080fd5b505af11580156125d2573d6000803e3d6000fd5b5050506000878152606d6020526040908190206001015490516001600160a01b03909116915087907f20a1f2ec363af45dc5ee7d9d622f2dd68b52501c382126c7f04b53663c4c69bf9061262b90869033908790615053565b60405180910390a350506033548114610cbc5760405162461bcd60e51b815260040161062890614fda565b600080600060405161266790614d2e565b604051908190039020549250505090565b606d602090815260009182526040918290208054835160c08101855260018301546001600160a01b03908116825260028401548116948201949094526003830154948101949094526004820154606085015260058201546080850152600682015460a0850152600782015460088301546009840154600a850154600b860154600c870154600d880154600e9098015496999895979496939592949193909281169060ff600160a01b8204811691600160a81b9004168c565b606c602052816000526040600020818154811061274957fe5b90600052602060002001600091509150505481565b6001600160a01b0381166000908152606c60209081526040918290208054835181840281018401909452808452606093928301828280156127be57602002820191906000526020600020905b8154815260200190600101908083116127aa575b50505050509050919050565b60006127d4612656565b6001600160a01b031663b187bd266040518163ffffffff1660e01b815260040160206040518083038186803b15801561280c57600080fd5b505afa158015612820573d6000803e3d6000fd5b505050506040513d601f19601f820116820180604052506113409190810190613fb5565b600061284e612656565b6001600160a01b0316633b668321836040518263ffffffff1660e01b81526004016128799190614d39565b60206040518083038186803b15801561289157600080fd5b505afa1580156128a5573d6000803e3d6000fd5b505050506040513d601f19601f82011682018060405250610fd39190810190613fb5565b600061290b83836040518060400160405280601e81526020017f536166654d6174683a207375627472616374696f6e206f766572666c6f77000081525061384e565b90505b92915050565b6000826129235750600061290e565b8282028284828161293057fe5b041461290b5760405162461bcd60e51b815260040161062890614f1a565b600061290b83836040518060400160405280601a81526020017f536166654d6174683a206469766973696f6e206279207a65726f00000000000081525061387f565b612998613a6f565b6000828152606d602052604081206009015490806129b5856138b6565b604080516080810182528681526020810193909352820181905293909311606084015250909392505050565b60006129eb612656565b6001600160a01b031663bdd1daaa6040518163ffffffff1660e01b815260040160206040518083038186803b158015612a2357600080fd5b505afa158015612a37573d6000803e3d6000fd5b505050506040513d601f19601f82011682018060405250612a5b9190810190613ff1565b6001600160a01b0316634614874e30846040518363ffffffff1660e01b8152600401612a88929190614db3565b602060405180830381600087803b158015612aa257600080fd5b505af1158015612ab6573d6000803e3d6000fd5b505050506040513d601f19601f82011682018060405250610fd39190810190613e45565b6000612ae4612656565b6001600160a01b0316631390f8d76040518163ffffffff1660e01b815260040160206040518083038186803b158015612b1c57600080fd5b505afa158015612b30573d6000803e3d6000fd5b505050506040513d601f19601f820116820180604052506113409190810190613ff1565b612b5c610d93565b15612b795760405162461bcd60e51b815260040161062890614fea565b60408051808201909152601681527550524f564944455f4f5241434c455f4144445245535360501b6020820152612bc0906001600160a01b0386169063ffffffff6138da16565b60408051808201909152601c81527f50524f564944455f4c454e44494e475f504f4f4c5f41444452455353000000006020820152612c0e906001600160a01b0385169063ffffffff6138da16565b60408051808201909152601b81527f50524f56494445445f4c4f414e5f5445524d535f4144445245535300000000006020820152612c5c906001600160a01b0384169063ffffffff6138da16565b612c6581613907565b50606980546001600160a01b039485166001600160a01b031991821617909155606a805493851693821693909317909255606b8054919093169116179055565b606654612cb8908263ffffffff612cfe16565b6066556000828152606d6020526040902060090154612cdd908263ffffffff612cfe16565b6000928352606d602052604090922060098101929092555042600a90910155565b60008282018381101561290b5760405162461bcd60e51b815260040161062890614e6a565b6000813f7fc5d2460186f7233c927e7db2dcc703c0e500b653ca82273b7bfad8045d85a470818114801590612d5757508115155b949350505050565b612d6983836139b0565b8190610dd55760405162461bcd60e51b81526004016106289190614e09565b612da1612d93612656565b6001600160a01b03166139c2565b15612dab57611167565b612dbd816001600160a01b0316612d23565b612dd95760405162461bcd60e51b815260040161062890614eaa565b6000604051612de790614d2e565b6040519081900390208290555050565b600080612e0383610fab565b6000848152606d6020526040902060040154909150612d57612710610956848463ffffffff61291416565b600080612ec8606a60009054906101000a90046001600160a01b03166001600160a01b031663aaaca5586040518163ffffffff1660e01b815260040160206040518083038186803b158015612e8257600080fd5b505afa158015612e96573d6000803e3d6000fd5b505050506040513d601f19601f82011682018060405250612eba9190810190613e45565b6001600160a01b03166139d0565b90506000606960009054906101000a90046001600160a01b03166001600160a01b03166396237c026040518163ffffffff1660e01b815260040160206040518083038186803b158015612f1a57600080fd5b505afa158015612f2e573d6000803e3d6000fd5b505050506040513d601f19601f82011682018060405250612f529190810190613fd3565b90506000612f6a83610956878563ffffffff61291416565b95945050505050565b606654612f86908363ffffffff6128c916565b6066556000838152606d6020526040902060090154612fab908363ffffffff6128c916565b6000848152606d60205260408082206009019290925590516001600160a01b0383169184156108fc02918591818181858888f19350505050158015610dd5573d6000803e3d6000fd5b303b1590565b600080613005612656565b6001600160a01b031663dc21a6a06040518163ffffffff1660e01b815260040160206040518083038186803b15801561303d57600080fd5b505afa158015613051573d6000803e3d6000fd5b505050506040513d601f19601f820116820180604052506130759190810190613ff1565b6001600160a01b0316631fb7cec9606a60009054906101000a90046001600160a01b03166001600160a01b031663aaaca5586040518163ffffffff1660e01b815260040160206040518083038186803b1580156130d157600080fd5b505afa1580156130e5573d6000803e3d6000fd5b505050506040513d601f19601f820116820180604052506131099190810190613e45565b6067546040516001600160e01b031960e085901b16815261313792916001600160a01b031690600401614d7d565b60206040518083038186803b15801561314f57600080fd5b505afa158015613163573d6000803e3d6000fd5b505050506040513d601f19601f820116820180604052506131879190810190613e45565b90506001600160a01b0381166131af5760405162461bcd60e51b815260040161062890614f5a565b604051632319178560e11b81526000906001600160a01b038316906346322f0a906131ed906b14dd5c1c1b1e551bd119589d60a21b90600401614ded565b60206040518083038186803b15801561320557600080fd5b505afa158015613219573d6000803e3d6000fd5b505050506040513d601f19601f8201168201806040525061323d9190810190613fd3565b90506000613249612ada565b6001600160a01b031663db63323e606a60009054906101000a90046001600160a01b03166001600160a01b031663aaaca5586040518163ffffffff1660e01b815260040160206040518083038186803b1580156132a557600080fd5b505afa1580156132b9573d6000803e3d6000fd5b505050506040513d601f19601f820116820180604052506132dd9190810190613e45565b6067546040516001600160e01b031960e085901b16815261330d92916001600160a01b0316908a90600401614d98565b60206040518083038186803b15801561332557600080fd5b505afa158015613339573d6000803e3d6000fd5b505050506040513d601f19601f8201168201806040525061335d9190810190613fd3565b9190911115949350505050565b60685461337e81600163ffffffff612cfe16565b60685590565b61338c613ae4565b6000613396612656565b6001600160a01b031663269012a06133ac612656565b6001600160a01b031663d86d744e6040518163ffffffff1660e01b815260040160206040518083038186803b1580156133e457600080fd5b505afa1580156133f8573d6000803e3d6000fd5b505050506040513d601f19601f8201168201806040525061341c9190810190613ff1565b6001600160a01b031663e00a46156040518163ffffffff1660e01b815260040160206040518083038186803b15801561345457600080fd5b505afa158015613468573d6000803e3d6000fd5b505050506040513d601f19601f8201168201806040525061348c9190810190613fd3565b6040518263ffffffff1660e01b81526004016134a89190614ded565b60206040518083038186803b1580156134c057600080fd5b505afa1580156134d4573d6000803e3d6000fd5b505050506040513d601f19601f820116820180604052506134f89190810190613fd3565b9050600061350c428363ffffffff612cfe16565b90506040518061018001604052808981526020016040518060c001604052808a600001516001600160a01b031681526020018a602001516001600160a01b031681526020018981526020018881526020018781526020018a60a00151815250815260200182815260200160008152602001600081526020016000815260200160008152602001600081526020016000815260200160006001600160a01b03168152602001600160038111156135bd57fe5b8152600060209091015298975050505050505050565b84602001516001600160a01b031685600001516001600160a01b0316877f0358f509931cba53bbb6a94b7f05a5178220a0c7ddb54b1a1722df9e6ed6aa098787878b60a00151606d60008f815260200190815260200160002060070154604051613641959493929190615126565b60405180910390a480156136965784600001516001600160a01b0316867feec2f3feb835e2f2fd44281034b04700a1ddda63dd402949d470a25a7c40b36c8360405161368d9190614ded565b60405180910390a35b505050505050565b6000806136f2606a60009054906101000a90046001600160a01b03166001600160a01b031663aaaca5586040518163ffffffff1660e01b815260040160206040518083038186803b158015612e8257600080fd5b90506000606960009054906101000a90046001600160a01b03166001600160a01b03166396237c026040518163ffffffff1660e01b815260040160206040518083038186803b15801561374457600080fd5b505afa158015613758573d6000803e3d6000fd5b505050506040513d601f19601f8201168201806040525061377c9190810190613fd3565b9050612d5781610956868563ffffffff61291416565b6000828152606d60205260409020600b0154811115613815576000828152606d60205260409020600b015481906137d090829063ffffffff6128c916565b6000848152606d60205260408120600b810191909155600c01549091506137fd908263ffffffff6128c916565b6000848152606d60205260409020600c01555061384a565b6000828152606d60205260409020600b0154613837908263ffffffff6128c916565b6000838152606d60205260409020600b01555b5050565b600081848411156138725760405162461bcd60e51b81526004016106289190614e09565b50508183035b9392505050565b600081836138a05760405162461bcd60e51b81526004016106289190614e09565b5060008385816138ac57fe5b0495945050505050565b60008060006138c484612df7565b9050806138d082612e2e565b9250925050915091565b6138e3826139c2565b81906139025760405162461bcd60e51b81526004016106289190614e09565b505050565b61390f610d93565b1561392c5760405162461bcd60e51b815260040161062890614fea565b60408051808201909152601981527f53455454494e47535f4d5553545f42455f50524f564944454400000000000000602082015261397a906001600160a01b0383169063ffffffff6138da16565b61398c816001600160a01b0316612d23565b6139a85760405162461bcd60e51b815260040161062890614eaa565b61115e613a51565b6001600160a01b039081169116141590565b6001600160a01b0316151590565b600080826001600160a01b031663313ce5676040518163ffffffff1660e01b815260040160206040518083038186803b158015613a0c57600080fd5b505afa158015613a20573d6000803e3d6000fd5b505050506040513d601f19601f82011682018060405250613a44919081019061425a565b60ff16600a0a9392505050565b6000604051613a5f90614d23565b6040519081900390206001905550565b60405180608001604052806000815260200160008152602001600081526020016000151581525090565b828054828255906000526020600020908101928215613ad4579160200282015b82811115613ad4578235825591602001919060010190613ab9565b50613ae0929150613b5f565b5090565b60405180610180016040528060008152602001613aff613b79565b81526020016000815260200160008152602001600081526020016000815260200160008152602001600081526020016000815260200160006001600160a01b0316815260200160006003811115613b5257fe5b8152600060209091015290565b61134391905b80821115613ae05760008155600101613b65565b6040518060c0016040528060006001600160a01b0316815260200160006001600160a01b03168152602001600081526020016000815260200160008152602001600081525090565b803561290e8161526d565b805161290e8161526d565b60008083601f840112613be957600080fd5b50813567ffffffffffffffff811115613c0157600080fd5b60208301915083610140820283011115613c1a57600080fd5b9250929050565b60008083601f840112613c3357600080fd5b50813567ffffffffffffffff811115613c4b57600080fd5b602083019150836020820283011115613c1a57600080fd5b803561290e81615281565b805161290e81615281565b803561290e8161528a565b805161290e8161528a565b805161290e81615293565b803561290e8161529c565b600060e08284031215613cb757600080fd5b50919050565b600060e08284031215613ccf57600080fd5b613cd960e0615172565b90506000613ce78484613bc1565b8252506020613cf884848301613bc1565b6020830152506040613d0c84828501613bc1565b6040830152506060613d2084828501613c79565b6060830152506080613d3484828501613c79565b60808301525060a0613d4884828501613c79565b60a08301525060c0613d5c84828501613c79565b60c08301525092915050565b600060c08284031215613cb757600080fd5b600060c08284031215613d8c57600080fd5b613d9660c0615172565b90506000613da48484613bc1565b8252506020613db584848301613bc1565b6020830152506040613dc984828501613c79565b6040830152506060613ddd84828501613c79565b6060830152506080613df184828501613c79565b60808301525060a0613e0584828501613c79565b60a08301525092915050565b803561290e816152a9565b805161290e816152a9565b600060208284031215613e3957600080fd5b6000612d578484613bc1565b600060208284031215613e5757600080fd5b6000612d578484613bcc565b600080600080600060a08688031215613e7b57600080fd5b6000613e878888613bc1565b9550506020613e9888828901613bc1565b9450506040613ea988828901613bc1565b9350506060613eba88828901613bc1565b9250506080613ecb88828901613bc1565b9150509295509295909350565b600080600060408486031215613eed57600080fd5b6000613ef98686613bc1565b935050602084013567ffffffffffffffff811115613f1657600080fd5b613f2286828701613c21565b92509250509250925092565b60008060408385031215613f4157600080fd5b6000613f4d8585613bc1565b9250506020613f5e85828601613c79565b9150509250929050565b600080600060608486031215613f7d57600080fd5b6000613f898686613bc1565b9350506020613f9a86828701613c79565b9250506040613fab86828701613c79565b9150509250925092565b600060208284031215613fc757600080fd5b6000612d578484613c6e565b600060208284031215613fe557600080fd5b6000612d578484613c84565b60006020828403121561400357600080fd5b6000612d578484613c8f565b600080600080610120858703121561402657600080fd5b60006140328787613ca5565b94505060e085013567ffffffffffffffff81111561404f57600080fd5b61405b87828801613bd7565b935093505061010061406f87828801613c79565b91505092959194509250565b600060e0828403121561408d57600080fd5b6000612d578484613cbd565b600060c082840312156140ab57600080fd5b6000612d578484613d7a565b6000602082840312156140c957600080fd5b6000612d578484613c79565b600080604083850312156140e857600080fd5b60006140f48585613c79565b9250506020613f5e85828601613bc1565b60008060008060008060008060008060006102008c8e03121561412757600080fd5b60006141338e8e613c79565b9b505060206141448e828f01613d68565b9a505060e06141558e828f01613c79565b9950506101006141678e828f01613c79565b9850506101206141798e828f01613c79565b97505061014061418b8e828f01613c79565b96505061016061419d8e828f01613c79565b9550506101806141af8e828f01613c79565b9450506101a06141c18e828f01613c79565b9350506101c06141d38e828f01613c9a565b9250506101e06141e58e828f01613c63565b9150509295989b509295989b9093969950565b6000806040838503121561420b57600080fd5b6000613f4d8585613c79565b60008060006060848603121561422c57600080fd5b60006142388686613c84565b935050602061424986828701613c84565b9250506040613fab86828701613c84565b60006020828403121561426c57600080fd5b6000612d578484613e1c565b60006142848383614b86565b50506101400190565b60006142998383614368565b505060200190565b6142aa81615217565b82525050565b6142aa816151e0565b60006142c583856151aa565b93506142d082611343565b8060005b85811015614306576142e68284613ae0565b6142f08882614278565b97506142fb836151a3565b9250506001016142d4565b509495945050505050565b600061431c8261519f565b61432681856151aa565b935061433183615199565b8060005b83811015614306578151614349888261428d565b975061435483615199565b925050600101614335565b6142aa816151eb565b6142aa81611343565b6142aa816151f0565b6142aa81615222565b600061438e8261519f565b61439881856151aa565b93506143a881856020860161522d565b6143b181615259565b9093019392505050565b60006143c8601d836151aa565b7f4455524154494f4e5f455843454544535f4d41585f4455524154494f4e000000815260200192915050565b6000614401601c83610fd6565b7f54496e697469616c697a61626c652e6973496e697469616c697a6564000000008152601c0192915050565b600061443a6015836151aa565b74105353d5539517d59053155157d491545552549151605a1b815260200192915050565b600061446b6016836151aa565b7513115391125391d7d413d3d317d254d7d4105554d15160521b815260200192915050565b600061449d6019836151aa565b7f414d4f554e545f455843454544535f4d41585f414d4f554e5400000000000000815260200192915050565b60006144d66011836151aa565b7013505617d313d05397d15610d151511151607a1b815260200192915050565b6000614503601b836151aa565b7f536166654d6174683a206164646974696f6e206f766572666c6f770000000000815260200192915050565b600061453c6019836151aa565b7f424f52524f5745525f4c4f414e5f49445f4d49534d4154434800000000000000815260200192915050565b60006145756014836151aa565b73125390d3d4949150d517d1551217d05353d5539560621b815260200192915050565b60006145a56016836151aa565b751313d05397d393d517d050d512559157d3d497d4d15560521b815260200192915050565b60006145d7601b836151aa565b7f53455454494e47535f4d5553545f42455f415f434f4e54524143540000000000815260200192915050565b60006146106017836151aa565b7f444f45534e545f4e4545445f4c49515549444154494f4e000000000000000000815260200192915050565b6000614649600f836151aa565b6e4c4f414e5f4e4f545f41435449564560881b815260200192915050565b6000614674601b836151aa565b7f424f52524f5745445f414d4f554e545f455843454544535f4d41580000000000815260200192915050565b60006146ad6014836151aa565b7343414e4e4f545f57495448445241575f5a45524f60601b815260200192915050565b60006146dd6012836151aa565b71141310551193d49357d254d7d4105554d15160721b815260200192915050565b600061470b6018836151aa565b7f4d4f52455f434f4c4c41544552414c5f52455155495245440000000000000000815260200192915050565b60006147446021836151aa565b7f536166654d6174683a206d756c7469706c69636174696f6e206f766572666c6f8152607760f81b602082015260400192915050565b6000614787601d836151aa565b7f434f4c4c41544552414c5f4445504f53495445445f524543454e544c59000000815260200192915050565b60006147c06012836151aa565b711313d05397d511549354d7d156141254915160721b815260200192915050565b60006147ee602e836151aa565b7f436f6e747261637420696e7374616e63652068617320616c726561647920626581526d195b881a5b9a5d1a585b1a5e995960921b602082015260400192915050565b600061483e6018836151aa565b7f41544d5f4e4f545f464f554e445f464f525f4d41524b45540000000000000000815260200192915050565b60006148776013836151aa565b7243414e4e4f545f4445504f5349545f5a45524f60681b815260200192915050565b60006148a6601e836151aa565b7f4f5241434c455f4d5553545f434f4e54524143545f4e4f545f454d5054590000815260200192915050565b60006148df6017836151aa565b7f424f52524f5745525f4d5553545f42455f53454e444552000000000000000000815260200192915050565b60006149186016836151aa565b7521a0a62622a92fa227a2a9a72a2fa7aba72fa627a0a760511b815260200192915050565b600061494a601883610fd6565b7f426173655570677261646561626c652e73657474696e67730000000000000000815260180192915050565b6000614983601a836151aa565b7f535550504c595f544f5f444542545f455843454544535f4d4158000000000000815260200192915050565b60006149bc6018836151aa565b7f434f4e54524143545f4e4f545f494e495449414c495a45440000000000000000815260200192915050565b60006149f5600c836151aa565b6b1313d05397d393d517d4d15560a21b815260200192915050565b6000614a1d601f836151aa565b7f5265656e7472616e637947756172643a207265656e7472616e742063616c6c00815260200192915050565b6000614a56601c836151aa565b7f434f4e54524143545f414c52454144595f494e495449414c495a454400000000815260200192915050565b80516080830190614a938482614368565b506020820151614aa66020850182614368565b506040820151614ab96040850182614368565b506060820151610dd5606085018261435f565b60e08201614ada82806151b3565b614ae484826142b0565b50614af260208301836151b3565b614aff60208501826142b0565b50614b0d60408301836151b3565b614b1a60408501826142b0565b50614b2860608301836151c2565b614b356060850182614368565b50614b4360808301836151c2565b614b506080850182614368565b50614b5e60a08301836151c2565b614b6b60a0850182614368565b50614b7960c08301836151c2565b610dd560c0850182614368565b6101408201614b9582806151b3565b614b9f84826142b0565b50614bad60208301836151b3565b614bba60208501826142b0565b50614bc860408301836151c2565b614bd56040850182614368565b50614be360608301836151c2565b614bf06060850182614368565b50614bfe60808301836151c2565b614c0b6080850182614368565b50614c1960a08301836151c2565b614c2660a0850182614368565b50614c3460c0830183613ae0565b610dd560c0850182614cb1565b805160c0830190614c5284826142b0565b506020820151614c6560208501826142b0565b506040820151614c786040850182614368565b506060820151614c8b6060850182614368565b506080820151614c9e6080850182614368565b5060a0820151610dd560a0850182614368565b60808201614cbf82806151c2565b614cc98482614368565b50614cd760208301836151d1565b614ce46020850182614d1a565b50614cf260408301836151c2565b614cff6040850182614368565b50614d0d60608301836151c2565b610dd56060850182614368565b6142aa81615211565b600061290e826143f4565b600061290e8261493d565b6020810161290e82846142b0565b6020810161290e82846142a1565b60608101614d6382866142a1565b614d706020830185614368565b612d576040830184614368565b60408101614d8b82856142b0565b61387860208301846142b0565b60608101614da682866142b0565b614d7060208301856142b0565b60408101614dc182856142b0565b6138786020830184614368565b6020808252810161290b8184614311565b6020810161290e828461435f565b6020810161290e8284614368565b6020810161290e8284614371565b6020808252810161290b8184614383565b60208082528101610fd3816143bb565b60208082528101610fd38161442d565b60208082528101610fd38161445e565b60208082528101610fd381614490565b60208082528101610fd3816144c9565b60208082528101610fd3816144f6565b60208082528101610fd38161452f565b60208082528101610fd381614568565b60208082528101610fd381614598565b60208082528101610fd3816145ca565b60208082528101610fd381614603565b60208082528101610fd38161463c565b60208082528101610fd381614667565b60208082528101610fd3816146a0565b60208082528101610fd3816146d0565b60208082528101610fd3816146fe565b60208082528101610fd381614737565b60208082528101610fd38161477a565b60208082528101610fd3816147b3565b60208082528101610fd3816147e1565b60208082528101610fd381614831565b60208082528101610fd38161486a565b60208082528101610fd381614899565b60208082528101610fd3816148d2565b60208082528101610fd38161490b565b60208082528101610fd381614976565b60208082528101610fd3816149af565b60208082528101610fd3816149e8565b60208082528101610fd381614a10565b60208082528101610fd381614a49565b6080810161290e8284614a82565b61010081016150178286614acc565b81810360e0830152612f6a8184866142b9565b60408101614d8b8285614368565b604081016150468285614368565b61387860208301846142a1565b606081016150618286614368565b614d7060208301856142a1565b610220810161507d828f614368565b61508a602083018e614c41565b61509760e083018d614368565b6150a561010083018c614368565b6150b361012083018b614368565b6150c161014083018a614368565b6150cf610160830189614368565b6150dd610180830188614368565b6150eb6101a0830187614368565b6150f96101c08301866142b0565b6151076101e083018561437a565b61511561020083018461435f565b9d9c50505050505050505050505050565b60a081016151348288614368565b6151416020830187614368565b61514e6040830186614368565b61515b6060830185614368565b6151686080830184614368565b9695505050505050565b60405181810167ffffffffffffffff8111828210171561519157600080fd5b604052919050565b60200190565b5190565b6101400190565b90815260200190565b600061290b6020840184613bc1565b600061290b6020840184613c79565b600061290b6020840184613e11565b6000610fd382615205565b151590565b6000610fd3826151e0565b80610fd681615263565b6001600160a01b031690565b60ff1690565b6000610fd3826151f0565b6000610fd3826151fb565b60005b83811015615248578181015183820152602001615230565b83811115610dd55750506000910152565b601f01601f191690565b6004811061116757fe5b615276816151e0565b811461116757600080fd5b615276816151eb565b61527681611343565b615276816151f0565b6004811061116757600080fd5b6152768161521156fea365627a7a72315820044718ad5498b0aa0bd7079523f832b8b997706b9ad8cce4656fbd2bfb6a29076c6578706572696d656e74616cf564736f6c63430005110040",
  "source": "pragma solidity 0.5.17;\npragma experimental ABIEncoderV2;\n\nimport \"../../base/EtherCollateralLoans.sol\";\nimport \"./LoansBaseMock.sol\";\n\ncontract EtherCollateralLoansMock is EtherCollateralLoans {\n    function setLoanIDCounter(uint256 newLoanIdCounter) external {\n        loanIDCounter = newLoanIdCounter;\n    }\n\n    function setBorrowerLoans(address borrower, uint256[] calldata loanIDs) external {\n        borrowerLoans[borrower] = loanIDs;\n    }\n\n    function setTotalCollateral(uint256 amount) external {\n        totalCollateral = amount;\n    }\n\n    function setEscrowForLoan(uint256 loanID, address escrowAddress) external {\n        loans[loanID].escrow = escrowAddress;\n    }\n\n    function setLoan(\n        uint256 id,\n        TellerCommon.LoanTerms calldata loanTerms,\n        uint256 termsExpiry,\n        uint256 loanStartTime,\n        uint256 collateral,\n        uint256 lastCollateralIn,\n        uint256 principalOwed,\n        uint256 interestOwed,\n        uint256 borrowedAmount,\n        TellerCommon.LoanStatus status,\n        bool liquidated\n    ) external {\n        require(loanTerms.maxLoanAmount >= borrowedAmount, \"BORROWED_AMOUNT_EXCEEDS_MAX\");\n        totalCollateral += collateral;\n        loans[id] = TellerCommon.Loan({\n            id: id,\n            loanTerms: loanTerms,\n            termsExpiry: termsExpiry,\n            loanStartTime: loanStartTime,\n            collateral: collateral,\n            lastCollateralIn: lastCollateralIn,\n            principalOwed: principalOwed,\n            interestOwed: interestOwed,\n            borrowedAmount: borrowedAmount,\n            escrow: address(0x0),\n            status: status,\n            liquidated: liquidated\n        });\n    }\n\n    function externalCreateEscrow(uint256 loanID) external returns (address) {\n        return super._createEscrow(loanID);\n    }\n\n    function externalSetSettings(address settingsAddress) external {\n        _setSettings(settingsAddress);\n    }\n\n    function() external payable {}\n}\n",
  "sourcePath": "/Users/sy/Documents/GitHub/teller-protocol-v1/contracts/mock/base/EtherCollateralLoansMock.sol",
  "compiler": {
    "name": "solc",
    "version": "0.5.17+commit.d19bba13.Emscripten.clang"
  },
  "schemaVersion": "3.0.23",
  "updatedAt": "2020-09-16T17:44:36.705Z",
  "devdoc": {
    "methods": {
      "cToken()": {
        "return": "Address of the cToken"
      },
      "canLiquidateLoan(uint256)": {
        "params": {
          "loanID": "The ID of the loan to check"
        },
        "return": "bool weather the loan can be liquidated"
      },
      "createLoanWithTerms((address,address,address,uint256,uint256,uint256,uint256),(address,address,uint256,uint256,uint256,uint256,(uint256,uint8,bytes32,bytes32))[],uint256)": {
        "params": {
          "collateralAmount": "Amount of collateral required for the loan",
          "request": "Struct of the protocol loan request",
          "responses": "List of structs of the protocol loan responses"
        }
      },
      "depositCollateral(address,uint256,uint256)": {
        "params": {
          "borrower": "The address of the loan borrower.",
          "loanID": "The ID of the loan the collateral is for"
        }
      },
      "getBorrowerLoans(address)": {
        "params": {
          "borrower": "The borrower's address"
        }
      },
      "getCollateralInfo(uint256)": {
        "params": {
          "loanID": "of the loan to get info for"
        },
        "return": "memory TellerCommon.LoanCollateralInfo Collateral information of the loan"
      },
      "getTotalOwed(uint256)": {
        "params": {
          "loanID": "The ID of the loan to be queried"
        },
        "return": "uint256 The total amount owed remaining"
      },
      "initialize(address,address,address,address,address)": {
        "params": {
          "lendingPoolAddress": "Contract address of the lending pool",
          "loanTermsConsensusAddress": "Contract adddress for loan term consensus",
          "priceOracleAddress": "Contract address of the price oracle",
          "settingsAddress": "Contract address for the configuration of the platform"
        }
      },
      "initialized()": {
        "return": "true if contract is initialized. Otherwise it returns false."
      },
      "lendingToken()": {
        "return": "Address of the lending token"
      },
      "liquidateLoan(uint256)": {
        "params": {
          "loanID": "The ID of the loan to be liquidated"
        }
      },
      "repay(uint256,uint256)": {
        "params": {
          "amount": "The amount of tokens to pay back to the loan",
          "loanID": "The ID of the loan the payment is for"
        }
      },
      "setPriceOracle(address)": {
        "details": "It throws a require error if sender is not allowed.It throws a require error if new address is empty (0x0) or not a contract.",
        "params": {
          "newPriceOracle": "the new price oracle address."
        }
      },
      "settings()": {
        "details": "This address should NOT change over the time. See details in the _setSettings(...) function."
      },
      "tToken()": {
        "return": "Address of the tToken"
      },
      "takeOutLoan(uint256,uint256)": {
        "details": "collateral ratio is a percentage of the loan amount that's required in collateralthe percentage will be *(10**2). I.e. collateralRatio of 5244 means 52.44% collateralis required in the loan. Interest rate is also a percentage with 2 decimal points."
      },
      "withdrawCollateral(uint256,uint256)": {
        "params": {
          "amount": "The amount of collateral token or ether the caller is hoping to withdraw.",
          "loanID": "The ID of the loan the collateral is for"
        }
      }
    }
  },
  "userdoc": {
    "methods": {
      "cToken()": {
        "notice": "Returns the cToken in the lending pool"
      },
      "canLiquidateLoan(uint256)": {
        "notice": "A loan can be liquidated if it is: under collateralized or expired"
      },
      "createLoanWithTerms((address,address,address,uint256,uint256,uint256,uint256),(address,address,uint256,uint256,uint256,uint256,(uint256,uint8,bytes32,bytes32))[],uint256)": {
        "notice": "Creates a loan with the loan request and terms"
      },
      "depositCollateral(address,uint256,uint256)": {
        "notice": "Deposit collateral into a loan"
      },
      "getBorrowerLoans(address)": {
        "notice": "Get a list of all loans for a borrower"
      },
      "getCollateralInfo(uint256)": {
        "notice": "Get collateral information of a specific loan"
      },
      "getTotalOwed(uint256)": {
        "notice": "Returns the total owed amount remaining for a specified loan"
      },
      "initialize(address,address,address,address,address)": {
        "notice": "Initializes the current contract instance setting the required parameters"
      },
      "initialized()": {
        "notice": "Gets if the contract is initialized."
      },
      "lendingToken()": {
        "notice": "Returns the lending token in the lending pool"
      },
      "liquidateLoan(uint256)": {
        "notice": "Liquidate a loan if it is expired or under collateralized"
      },
      "repay(uint256,uint256)": {
        "notice": "Make a payment to a loan"
      },
      "setPriceOracle(address)": {
        "notice": "Updates the current price oracle instance."
      },
      "settings()": {
        "notice": "The gets the settings contract address from the SETTINGS_SLOT."
      },
      "tToken()": {
        "notice": "Returns the tToken in the lending pool"
      },
      "takeOutLoan(uint256,uint256)": {
        "notice": "Take out a loan"
      },
      "withdrawCollateral(uint256,uint256)": {
        "notice": "Withdraw collateral from a loan, unless this isn't allowed"
      }
    }
  }
}