{
  "contractName": "EtherCollateralLoans",
  "abi": [
    {
      "anonymous": false,
      "inputs": [
        {
          "indexed": true,
          "internalType": "uint256",
          "name": "loanID",
          "type": "uint256"
        },
        {
          "indexed": true,
          "internalType": "address",
          "name": "borrower",
          "type": "address"
        },
        {
          "indexed": false,
          "internalType": "uint256",
          "name": "depositAmount",
          "type": "uint256"
        }
      ],
      "name": "CollateralDeposited",
      "type": "event"
    },
    {
      "anonymous": false,
      "inputs": [
        {
          "indexed": true,
          "internalType": "uint256",
          "name": "loanID",
          "type": "uint256"
        },
        {
          "indexed": true,
          "internalType": "address",
          "name": "borrower",
          "type": "address"
        },
        {
          "indexed": false,
          "internalType": "uint256",
          "name": "withdrawalAmount",
          "type": "uint256"
        }
      ],
      "name": "CollateralWithdrawn",
      "type": "event"
    },
    {
      "anonymous": false,
      "inputs": [
        {
          "indexed": true,
          "internalType": "uint256",
          "name": "loanID",
          "type": "uint256"
        },
        {
          "indexed": true,
          "internalType": "address",
          "name": "borrower",
          "type": "address"
        },
        {
          "indexed": false,
          "internalType": "address",
          "name": "liquidator",
          "type": "address"
        },
        {
          "indexed": false,
          "internalType": "uint256",
          "name": "collateralOut",
          "type": "uint256"
        },
        {
          "indexed": false,
          "internalType": "uint256",
          "name": "tokensIn",
          "type": "uint256"
        }
      ],
      "name": "LoanLiquidated",
      "type": "event"
    },
    {
      "anonymous": false,
      "inputs": [
        {
          "indexed": true,
          "internalType": "uint256",
          "name": "loanID",
          "type": "uint256"
        },
        {
          "indexed": true,
          "internalType": "address",
          "name": "borrower",
          "type": "address"
        },
        {
          "indexed": false,
          "internalType": "uint256",
          "name": "amountPaid",
          "type": "uint256"
        },
        {
          "indexed": false,
          "internalType": "address",
          "name": "payer",
          "type": "address"
        },
        {
          "indexed": false,
          "internalType": "uint256",
          "name": "totalOwed",
          "type": "uint256"
        }
      ],
      "name": "LoanRepaid",
      "type": "event"
    },
    {
      "anonymous": false,
      "inputs": [
        {
          "indexed": true,
          "internalType": "uint256",
          "name": "loanID",
          "type": "uint256"
        },
        {
          "indexed": true,
          "internalType": "address",
          "name": "borrower",
          "type": "address"
        },
        {
          "indexed": true,
          "internalType": "address",
          "name": "escrow",
          "type": "address"
        },
        {
          "indexed": false,
          "internalType": "uint256",
          "name": "amountBorrowed",
          "type": "uint256"
        }
      ],
      "name": "LoanTakenOut",
      "type": "event"
    },
    {
      "anonymous": false,
      "inputs": [
        {
          "indexed": true,
          "internalType": "uint256",
          "name": "loanID",
          "type": "uint256"
        },
        {
          "indexed": true,
          "internalType": "address",
          "name": "borrower",
          "type": "address"
        },
        {
          "indexed": true,
          "internalType": "address",
          "name": "recipient",
          "type": "address"
        },
        {
          "indexed": false,
          "internalType": "uint256",
          "name": "interestRate",
          "type": "uint256"
        },
        {
          "indexed": false,
          "internalType": "uint256",
          "name": "collateralRatio",
          "type": "uint256"
        },
        {
          "indexed": false,
          "internalType": "uint256",
          "name": "maxLoanAmount",
          "type": "uint256"
        },
        {
          "indexed": false,
          "internalType": "uint256",
          "name": "duration",
          "type": "uint256"
        },
        {
          "indexed": false,
          "internalType": "uint256",
          "name": "termsExpiry",
          "type": "uint256"
        }
      ],
      "name": "LoanTermsSet",
      "type": "event"
    },
    {
      "anonymous": false,
      "inputs": [
        {
          "indexed": true,
          "internalType": "address",
          "name": "sender",
          "type": "address"
        },
        {
          "indexed": true,
          "internalType": "address",
          "name": "oldPriceOracle",
          "type": "address"
        },
        {
          "indexed": true,
          "internalType": "address",
          "name": "newPriceOracle",
          "type": "address"
        }
      ],
      "name": "PriceOracleUpdated",
      "type": "event"
    },
    {
      "constant": true,
      "inputs": [
        {
          "internalType": "address",
          "name": "",
          "type": "address"
        },
        {
          "internalType": "uint256",
          "name": "",
          "type": "uint256"
        }
      ],
      "name": "borrowerLoans",
      "outputs": [
        {
          "internalType": "uint256",
          "name": "",
          "type": "uint256"
        }
      ],
      "payable": false,
      "stateMutability": "view",
      "type": "function"
    },
    {
      "constant": true,
      "inputs": [],
      "name": "cToken",
      "outputs": [
        {
          "internalType": "address",
          "name": "",
          "type": "address"
        }
      ],
      "payable": false,
      "stateMutability": "view",
      "type": "function"
    },
    {
      "constant": true,
      "inputs": [
        {
          "internalType": "uint256",
          "name": "loanID",
          "type": "uint256"
        }
      ],
      "name": "canLiquidateLoan",
      "outputs": [
        {
          "internalType": "bool",
          "name": "",
          "type": "bool"
        }
      ],
      "payable": false,
      "stateMutability": "view",
      "type": "function"
    },
    {
      "constant": true,
      "inputs": [],
      "name": "collateralToken",
      "outputs": [
        {
          "internalType": "address",
          "name": "",
          "type": "address"
        }
      ],
      "payable": false,
      "stateMutability": "view",
      "type": "function"
    },
    {
      "constant": true,
      "inputs": [
        {
          "internalType": "address",
          "name": "borrower",
          "type": "address"
        }
      ],
      "name": "getBorrowerLoans",
      "outputs": [
        {
          "internalType": "uint256[]",
          "name": "",
          "type": "uint256[]"
        }
      ],
      "payable": false,
      "stateMutability": "view",
      "type": "function"
    },
    {
      "constant": true,
      "inputs": [
        {
          "internalType": "uint256",
          "name": "loanID",
          "type": "uint256"
        }
      ],
      "name": "getCollateralInfo",
      "outputs": [
        {
          "components": [
            {
              "internalType": "uint256",
              "name": "collateral",
              "type": "uint256"
            },
            {
              "internalType": "uint256",
              "name": "neededInLendingTokens",
              "type": "uint256"
            },
            {
              "internalType": "uint256",
              "name": "neededInCollateralTokens",
              "type": "uint256"
            },
            {
              "internalType": "bool",
              "name": "moreCollateralRequired",
              "type": "bool"
            }
          ],
          "internalType": "struct TellerCommon.LoanCollateralInfo",
          "name": "",
          "type": "tuple"
        }
      ],
      "payable": false,
      "stateMutability": "view",
      "type": "function"
    },
    {
      "constant": true,
      "inputs": [
        {
          "internalType": "uint256",
          "name": "loanID",
          "type": "uint256"
        }
      ],
      "name": "getLiquidationInfo",
      "outputs": [
        {
          "components": [
            {
              "internalType": "uint256",
              "name": "collateral",
              "type": "uint256"
            },
            {
              "internalType": "uint256",
              "name": "collateralInTokens",
              "type": "uint256"
            },
            {
              "internalType": "uint256",
              "name": "amountToLiquidate",
              "type": "uint256"
            },
            {
              "internalType": "bool",
              "name": "liquidable",
              "type": "bool"
            }
          ],
          "internalType": "struct TellerCommon.LoanLiquidationInfo",
          "name": "liquidationInfo",
          "type": "tuple"
        }
      ],
      "payable": false,
      "stateMutability": "view",
      "type": "function"
    },
    {
      "constant": true,
      "inputs": [
        {
          "internalType": "uint256",
          "name": "loanID",
          "type": "uint256"
        }
      ],
      "name": "getTotalOwed",
      "outputs": [
        {
          "internalType": "uint256",
          "name": "",
          "type": "uint256"
        }
      ],
      "payable": false,
      "stateMutability": "view",
      "type": "function"
    },
    {
      "constant": true,
      "inputs": [],
      "name": "initialized",
      "outputs": [
        {
          "internalType": "bool",
          "name": "value",
          "type": "bool"
        }
      ],
      "payable": false,
      "stateMutability": "view",
      "type": "function"
    },
    {
      "constant": true,
      "inputs": [
        {
          "internalType": "uint256",
          "name": "loanID",
          "type": "uint256"
        }
      ],
      "name": "isLoanSecured",
      "outputs": [
        {
          "internalType": "bool",
          "name": "",
          "type": "bool"
        }
      ],
      "payable": false,
      "stateMutability": "view",
      "type": "function"
    },
    {
      "constant": true,
      "inputs": [],
      "name": "lendingPool",
      "outputs": [
        {
          "internalType": "contract LendingPoolInterface",
          "name": "",
          "type": "address"
        }
      ],
      "payable": false,
      "stateMutability": "view",
      "type": "function"
    },
    {
      "constant": true,
      "inputs": [],
      "name": "lendingToken",
      "outputs": [
        {
          "internalType": "address",
          "name": "",
          "type": "address"
        }
      ],
      "payable": false,
      "stateMutability": "view",
      "type": "function"
    },
    {
      "constant": false,
      "inputs": [
        {
          "internalType": "uint256",
          "name": "loanID",
          "type": "uint256"
        }
      ],
      "name": "liquidateLoan",
      "outputs": [],
      "payable": false,
      "stateMutability": "nonpayable",
      "type": "function"
    },
    {
      "constant": true,
      "inputs": [],
      "name": "loanIDCounter",
      "outputs": [
        {
          "internalType": "uint256",
          "name": "",
          "type": "uint256"
        }
      ],
      "payable": false,
      "stateMutability": "view",
      "type": "function"
    },
    {
      "constant": true,
      "inputs": [],
      "name": "loanTermsConsensus",
      "outputs": [
        {
          "internalType": "contract LoanTermsConsensusInterface",
          "name": "",
          "type": "address"
        }
      ],
      "payable": false,
      "stateMutability": "view",
      "type": "function"
    },
    {
      "constant": true,
      "inputs": [
        {
          "internalType": "uint256",
          "name": "",
          "type": "uint256"
        }
      ],
      "name": "loans",
      "outputs": [
        {
          "internalType": "uint256",
          "name": "id",
          "type": "uint256"
        },
        {
          "components": [
            {
              "internalType": "address payable",
              "name": "borrower",
              "type": "address"
            },
            {
              "internalType": "address",
              "name": "recipient",
              "type": "address"
            },
            {
              "internalType": "uint256",
              "name": "interestRate",
              "type": "uint256"
            },
            {
              "internalType": "uint256",
              "name": "collateralRatio",
              "type": "uint256"
            },
            {
              "internalType": "uint256",
              "name": "maxLoanAmount",
              "type": "uint256"
            },
            {
              "internalType": "uint256",
              "name": "duration",
              "type": "uint256"
            }
          ],
          "internalType": "struct TellerCommon.LoanTerms",
          "name": "loanTerms",
          "type": "tuple"
        },
        {
          "internalType": "uint256",
          "name": "termsExpiry",
          "type": "uint256"
        },
        {
          "internalType": "uint256",
          "name": "loanStartTime",
          "type": "uint256"
        },
        {
          "internalType": "uint256",
          "name": "collateral",
          "type": "uint256"
        },
        {
          "internalType": "uint256",
          "name": "lastCollateralIn",
          "type": "uint256"
        },
        {
          "internalType": "uint256",
          "name": "principalOwed",
          "type": "uint256"
        },
        {
          "internalType": "uint256",
          "name": "interestOwed",
          "type": "uint256"
        },
        {
          "internalType": "uint256",
          "name": "borrowedAmount",
          "type": "uint256"
        },
        {
          "internalType": "address",
          "name": "escrow",
          "type": "address"
        },
        {
          "internalType": "enum TellerCommon.LoanStatus",
          "name": "status",
          "type": "uint8"
        },
        {
          "internalType": "bool",
          "name": "liquidated",
          "type": "bool"
        }
      ],
      "payable": false,
      "stateMutability": "view",
      "type": "function"
    },
    {
      "constant": true,
      "inputs": [],
      "name": "priceOracle",
      "outputs": [
        {
          "internalType": "address",
          "name": "",
          "type": "address"
        }
      ],
      "payable": false,
      "stateMutability": "view",
      "type": "function"
    },
    {
      "constant": false,
      "inputs": [
        {
          "internalType": "uint256",
          "name": "amount",
          "type": "uint256"
        },
        {
          "internalType": "uint256",
          "name": "loanID",
          "type": "uint256"
        }
      ],
      "name": "repay",
      "outputs": [],
      "payable": false,
      "stateMutability": "nonpayable",
      "type": "function"
    },
    {
      "constant": false,
      "inputs": [
        {
          "internalType": "address",
          "name": "newPriceOracle",
          "type": "address"
        }
      ],
      "name": "setPriceOracle",
      "outputs": [],
      "payable": false,
      "stateMutability": "nonpayable",
      "type": "function"
    },
    {
      "constant": true,
      "inputs": [],
      "name": "settings",
      "outputs": [
        {
          "internalType": "contract SettingsInterface",
          "name": "",
          "type": "address"
        }
      ],
      "payable": false,
      "stateMutability": "view",
      "type": "function"
    },
    {
      "constant": true,
      "inputs": [],
      "name": "tToken",
      "outputs": [
        {
          "internalType": "address",
          "name": "",
          "type": "address"
        }
      ],
      "payable": false,
      "stateMutability": "view",
      "type": "function"
    },
    {
      "constant": false,
      "inputs": [
        {
          "internalType": "uint256",
          "name": "loanID",
          "type": "uint256"
        },
        {
          "internalType": "uint256",
          "name": "amountBorrow",
          "type": "uint256"
        }
      ],
      "name": "takeOutLoan",
      "outputs": [],
      "payable": false,
      "stateMutability": "nonpayable",
      "type": "function"
    },
    {
      "constant": true,
      "inputs": [],
      "name": "totalCollateral",
      "outputs": [
        {
          "internalType": "uint256",
          "name": "",
          "type": "uint256"
        }
      ],
      "payable": false,
      "stateMutability": "view",
      "type": "function"
    },
    {
      "constant": false,
      "inputs": [
        {
          "internalType": "uint256",
          "name": "amount",
          "type": "uint256"
        },
        {
          "internalType": "uint256",
          "name": "loanID",
          "type": "uint256"
        }
      ],
      "name": "withdrawCollateral",
      "outputs": [],
      "payable": false,
      "stateMutability": "nonpayable",
      "type": "function"
    },
    {
      "constant": false,
      "inputs": [
        {
          "internalType": "address",
          "name": "borrower",
          "type": "address"
        },
        {
          "internalType": "uint256",
          "name": "loanID",
          "type": "uint256"
        },
        {
          "internalType": "uint256",
          "name": "amount",
          "type": "uint256"
        }
      ],
      "name": "depositCollateral",
      "outputs": [],
      "payable": true,
      "stateMutability": "payable",
      "type": "function"
    },
    {
      "constant": false,
      "inputs": [
        {
          "components": [
            {
              "internalType": "address payable",
              "name": "borrower",
              "type": "address"
            },
            {
              "internalType": "address",
              "name": "recipient",
              "type": "address"
            },
            {
              "internalType": "address",
              "name": "consensusAddress",
              "type": "address"
            },
            {
              "internalType": "uint256",
              "name": "requestNonce",
              "type": "uint256"
            },
            {
              "internalType": "uint256",
              "name": "amount",
              "type": "uint256"
            },
            {
              "internalType": "uint256",
              "name": "duration",
              "type": "uint256"
            },
            {
              "internalType": "uint256",
              "name": "requestTime",
              "type": "uint256"
            }
          ],
          "internalType": "struct TellerCommon.LoanRequest",
          "name": "request",
          "type": "tuple"
        },
        {
          "components": [
            {
              "internalType": "address",
              "name": "signer",
              "type": "address"
            },
            {
              "internalType": "address",
              "name": "consensusAddress",
              "type": "address"
            },
            {
              "internalType": "uint256",
              "name": "responseTime",
              "type": "uint256"
            },
            {
              "internalType": "uint256",
              "name": "interestRate",
              "type": "uint256"
            },
            {
              "internalType": "uint256",
              "name": "collateralRatio",
              "type": "uint256"
            },
            {
              "internalType": "uint256",
              "name": "maxLoanAmount",
              "type": "uint256"
            },
            {
              "components": [
                {
                  "internalType": "uint256",
                  "name": "signerNonce",
                  "type": "uint256"
                },
                {
                  "internalType": "uint8",
                  "name": "v",
                  "type": "uint8"
                },
                {
                  "internalType": "bytes32",
                  "name": "r",
                  "type": "bytes32"
                },
                {
                  "internalType": "bytes32",
                  "name": "s",
                  "type": "bytes32"
                }
              ],
              "internalType": "struct TellerCommon.Signature",
              "name": "signature",
              "type": "tuple"
            }
          ],
          "internalType": "struct TellerCommon.LoanResponse[]",
          "name": "responses",
          "type": "tuple[]"
        },
        {
          "internalType": "uint256",
          "name": "collateralAmount",
          "type": "uint256"
        }
      ],
      "name": "createLoanWithTerms",
      "outputs": [],
      "payable": true,
      "stateMutability": "payable",
      "type": "function"
    },
    {
      "constant": false,
      "inputs": [
        {
          "internalType": "address",
          "name": "priceOracleAddress",
          "type": "address"
        },
        {
          "internalType": "address",
          "name": "lendingPoolAddress",
          "type": "address"
        },
        {
          "internalType": "address",
          "name": "loanTermsConsensusAddress",
          "type": "address"
        },
        {
          "internalType": "address",
          "name": "settingsAddress",
          "type": "address"
        },
        {
          "internalType": "address",
          "name": "",
          "type": "address"
        }
      ],
      "name": "initialize",
      "outputs": [],
      "payable": false,
      "stateMutability": "nonpayable",
      "type": "function"
    },
    {
      "constant": false,
      "inputs": [],
      "name": "initialize",
      "outputs": [],
      "payable": false,
      "stateMutability": "nonpayable",
      "type": "function"
    }
  ],
  "bytecode": "0x608060405234801561001057600080fd5b50614fae806100206000396000f3fe6080604052600436106101b75760003560e01c80638129fc1c116100ec578063c35d64ea1161008a578063e06174e411610064578063e06174e414610475578063e1ec3c681461048a578063e3ed1902146104c2578063eee8b7ff146104e2576101b7565b8063c35d64ea14610420578063ccdd9f5d14610435578063d8aed14514610455576101b7565b8063a59a9973116100c6578063a59a9973146103ce578063a5c5c7b2146103e3578063aaaca558146103f6578063b2016bd41461040b576101b7565b80638129fc1c14610379578063854768c01461038e578063934b5d13146103ae576101b7565b806350ef5c351161015957806358895e3d1161013357806358895e3d146103025780636948f32b1461032457806369e527da14610344578063767a7b0514610359576101b7565b806350ef5c35146102a057806351348454146102cd578063530e784f146102e2576101b7565b80631a74856b116101955780631a74856b146102295780632630c12f1461023c5780633b9293001461025e5780634ac8eb5f1461028b576101b7565b806302bc2cdb146101bc5780631459457a146101de578063158ef93e146101fe575b600080fd5b3480156101c857600080fd5b506101dc6101d7366004613eb7565b61050f565b005b3480156101ea57600080fd5b506101dc6101f9366004613cb9565b610bf6565b34801561020a57600080fd5b50610213610cc6565b6040516102209190614a9e565b60405180910390f35b6101dc610237366004613d68565b610ce5565b34801561024857600080fd5b50610251610ea6565b60405161022091906149f8565b34801561026a57600080fd5b5061027e610279366004613e99565b610eb5565b6040516102209190614aac565b34801561029757600080fd5b5061027e610ee5565b3480156102ac57600080fd5b506102c06102bb366004613e99565b610eeb565b6040516102209190614cb9565b3480156102d957600080fd5b5061027e610efc565b3480156102ee57600080fd5b506101dc6102fd366004613c7d565b610f02565b34801561030e57600080fd5b50610317611060565b6040516102209190614aba565b34801561033057600080fd5b5061021361033f366004613e99565b61106f565b34801561035057600080fd5b506102516111c8565b34801561036557600080fd5b506101dc610374366004613eb7565b61124a565b34801561038557600080fd5b506101dc611460565b34801561039a57600080fd5b506102136103a9366004613e99565b6114e8565b3480156103ba57600080fd5b506102c06103c9366004613e99565b61166f565b3480156103da57600080fd5b50610317611680565b6101dc6103f1366004613e0f565b61168f565b34801561040257600080fd5b50610251611c84565b34801561041757600080fd5b50610251611cc9565b34801561042c57600080fd5b50610251611cd8565b34801561044157600080fd5b506101dc610450366004613e99565b611d1d565b34801561046157600080fd5b506101dc610470366004613eb7565b611f4b565b34801561048157600080fd5b50610317612326565b34801561049657600080fd5b506104aa6104a5366004613e99565b612348565b6040516102209c9b9a99989796959493929190614d2d565b3480156104ce57600080fd5b5061027e6104dd366004613d2e565b612400565b3480156104ee57600080fd5b506105026104fd366004613c7d565b61242e565b6040516102209190614a8d565b8160016000828152606d60205260409020600e0154600160a01b900460ff16600381111561053957fe5b1461055f5760405162461bcd60e51b815260040161055690614c89565b60405180910390fd5b610567610cc6565b6105835760405162461bcd60e51b815260040161055690614c79565b61058b61249a565b156105a85760405162461bcd60e51b815260040161055690614ba9565b606a546001600160a01b03166105bd81612514565b156105da5760405162461bcd60e51b815260040161055690614af9565b603380546001908101918290556000868152606d6020526040902001546001600160a01b031633811461061f5760405162461bcd60e51b815260040161055690614c49565b6000868152606d60205260409020600501548511156106505760405162461bcd60e51b815260040161055690614b19565b6000868152606d60205260409020600701544211156106815760405162461bcd60e51b815260040161055690614bf9565b6107fb61068c612326565b6001600160a01b031663269012a06106a2612326565b6001600160a01b031663d86d744e6040518163ffffffff1660e01b815260040160206040518083038186803b1580156106da57600080fd5b505afa1580156106ee573d6000803e3d6000fd5b505050506040513d601f19601f820116820180604052506107129190810190613df1565b6001600160a01b03166311880cc86040518163ffffffff1660e01b815260040160206040518083038186803b15801561074a57600080fd5b505afa15801561075e573d6000803e3d6000fd5b505050506040513d601f19601f820116820180604052506107829190810190613dd3565b6040518263ffffffff1660e01b815260040161079e9190614aac565b60206040518083038186803b1580156107b657600080fd5b505afa1580156107ca573d6000803e3d6000fd5b505050506040513d601f19601f820116820180604052506107ee9190810190613dd3565b429063ffffffff61259916565b6000878152606d60205260409020600a0154111561082b5760405162461bcd60e51b815260040161055690614bd9565b6000868152606d60205260409020600d8101869055600b81018690556006810154600390910154610890916301e13380916108849161271091839190610878908c9063ffffffff6125e416565b9063ffffffff6125e416565b9063ffffffff61261e16565b6000878152606d60205260409020600c810191909155600e01805460ff60a01b1916600160a11b1790556108c2613a2b565b6108cb87612660565b90508060600151156108ef5760405162461bcd60e51b815260040161055690614bb9565b6000878152606d602052604090204260089091015561090d876126b1565b6000888152606d602052604090819020600e0180546001600160a01b0319166001600160a01b039384161790819055606a549151631397424760e11b81529183169263272e848e92610965928b921690600401614ce9565b600060405180830381600087803b15801561097f57600080fd5b505af1158015610993573d6000803e3d6000fd5b5050506000888152606d602052604090819020600e0154905163cd6dc68760e01b81526001600160a01b03909116915063cd6dc687906109d99030908b90600401614a72565b600060405180830381600087803b1580156109f357600080fd5b505af1158015610a07573d6000803e3d6000fd5b50505050610a136127aa565b6001600160a01b031663c7bbb113606a60009054906101000a90046001600160a01b03166001600160a01b031663aaaca5586040518163ffffffff1660e01b815260040160206040518083038186803b158015610a6f57600080fd5b505afa158015610a83573d6000803e3d6000fd5b505050506040513d601f19601f82011682018060405250610aa79190810190613c9b565b306001600160a01b031663b2016bd46040518163ffffffff1660e01b815260040160206040518083038186803b158015610ae057600080fd5b505afa158015610af4573d6000803e3d6000fd5b505050506040513d601f19601f82011682018060405250610b189190810190613c9b565b896040518463ffffffff1660e01b8152600401610b3793929190614a57565b600060405180830381600087803b158015610b5157600080fd5b505af1158015610b65573d6000803e3d6000fd5b5050506000888152606d602052604090819020600e81015460019091015491516001600160a01b03918216935091169089907f85b5516a17ce775661a4b967b1fb30c852678f6598d86d9f3c99b7b60ff2d0ce90610bc4908b90614aac565b60405180910390a450506033548114610bef5760405162461bcd60e51b815260040161055690614c99565b5050505050565b610bfe610cc6565b15610c1b5760405162461bcd60e51b815260040161055690614ca9565b610c2785858585612824565b610c2f612326565b6001600160a01b031663a734f06e6040518163ffffffff1660e01b815260040160206040518083038186803b158015610c6757600080fd5b505afa158015610c7b573d6000803e3d6000fd5b505050506040513d601f19601f82011682018060405250610c9f9190810190613c9b565b606780546001600160a01b0319166001600160a01b03929092169190911790555050505050565b600080604051610cd5906149e2565b6040519081900390205492915050565b8160016000828152606d60205260409020600e0154600160a01b900460ff166003811115610d0f57fe5b1480610d41575060026000828152606d60205260409020600e0154600160a01b900460ff166003811115610d3f57fe5b145b610d5d5760405162461bcd60e51b815260040161055690614b59565b610d65610cc6565b610d815760405162461bcd60e51b815260040161055690614c79565b610d8961249a565b15610da65760405162461bcd60e51b815260040161055690614ba9565b606a546001600160a01b0316610dbb81612514565b15610dd85760405162461bcd60e51b815260040161055690614af9565b6000848152606d60205260409020600101546001600160a01b03868116911614610e145760405162461bcd60e51b815260040161055690614b39565b823414610e335760405162461bcd60e51b815260040161055690614b49565b60003411610e535760405162461bcd60e51b815260040161055690614c29565b610e5d8484612975565b846001600160a01b0316847feec2f3feb835e2f2fd44281034b04700a1ddda63dd402949d470a25a7c40b36c85604051610e979190614aac565b60405180910390a35050505050565b6069546001600160a01b031681565b6000818152606d60205260408120600b810154600c90910154610edd9163ffffffff6129ce16565b90505b919050565b60665481565b610ef3613a2b565b610edd826129f3565b60685481565b610f0a610cc6565b610f265760405162461bcd60e51b815260040161055690614c79565b610f2e612326565b6001600160a01b031663c095ea27336040518263ffffffff1660e01b8152600401610f599190614a06565b60006040518083038186803b158015610f7157600080fd5b505afa158015610f85573d6000803e3d6000fd5b50505050610f9b816001600160a01b0316612bcf565b610fb75760405162461bcd60e51b815260040161055690614c39565b60695460408051808201909152601b81527f4e45575f4f5241434c455f4d5553545f42455f50524f5649444544000000000060208201526001600160a01b039091169061100d908290849063ffffffff612c0b16565b606980546001600160a01b0319166001600160a01b03848116918217909255604051909183169033907ff51f0fffc8121ee3747e0536c487d894894cdba960ccfb4ab385a88d51b16fed90600090a45050565b606b546001600160a01b031681565b600061107961249a565b806110945750606a54611094906001600160a01b0316612514565b806110c6575060026000838152606d60205260409020600e0154600160a01b900460ff1660038111156110c357fe5b14155b156110d357506000610ee0565b6000828152606d6020526040812060088101546006909101549091426110ff848463ffffffff6129ce16565b10905080156111145760019350505050610ee0565b6000858152606d60205260409020600e01546001600160a01b031680156111b157806001600160a01b031663415dfa5b6040518163ffffffff1660e01b815260040160206040518083038186803b15801561116e57600080fd5b505afa158015611182573d6000803e3d6000fd5b505050506040513d601f19601f820116820180604052506111a69190810190613db5565b945050505050610ee0565b6111ba86612660565b606001519695505050505050565b606a54604080516334f293ed60e11b815290516000926001600160a01b0316916369e527da916004808301926020929190829003018186803b15801561120d57600080fd5b505afa158015611221573d6000803e3d6000fd5b505050506040513d601f19601f820116820180604052506112459190810190613c9b565b905090565b8060016000828152606d60205260409020600e0154600160a01b900460ff16600381111561127457fe5b14806112a6575060026000828152606d60205260409020600e0154600160a01b900460ff1660038111156112a457fe5b145b6112c25760405162461bcd60e51b815260040161055690614b59565b6112ca610cc6565b6112e65760405162461bcd60e51b815260040161055690614c79565b6112ee61249a565b1561130b5760405162461bcd60e51b815260040161055690614ba9565b606a546001600160a01b031661132081612514565b1561133d5760405162461bcd60e51b815260040161055690614af9565b603380546001908101918290556000858152606d6020526040902001546001600160a01b031633146113815760405162461bcd60e51b815260040161055690614c59565b600085116113a15760405162461bcd60e51b815260040161055690614b99565b6113a9613a2b565b6113b285612660565b604081015181519192506000916113ce9163ffffffff61259916565b9050868110156113f05760405162461bcd60e51b815260040161055690614be9565b6113fb868833612c34565b336001600160a01b0316867f7c5e5cb62e5ed3caf3764e4b0afedfedef533e27809d43367799787ad2abcd41896040516114359190614aac565b60405180910390a350506033548114610bef5760405162461bcd60e51b815260040161055690614c99565b600054610100900460ff16806114795750611479612cb5565b80611487575060005460ff16155b6114a35760405162461bcd60e51b815260040161055690614c09565b600054610100900460ff161580156114ce576000805460ff1961ff0019909116610100171660011790555b600160335580156114e5576000805461ff00191690555b50565b60006114f2612326565b6001600160a01b031663269012a0611508612326565b6001600160a01b031663d86d744e6040518163ffffffff1660e01b815260040160206040518083038186803b15801561154057600080fd5b505afa158015611554573d6000803e3d6000fd5b505050506040513d601f19601f820116820180604052506115789190810190613df1565b6001600160a01b03166308b04f626040518163ffffffff1660e01b815260040160206040518083038186803b1580156115b057600080fd5b505afa1580156115c4573d6000803e3d6000fd5b505050506040513d601f19601f820116820180604052506115e89190810190613dd3565b6040518263ffffffff1660e01b81526004016116049190614aac565b60206040518083038186803b15801561161c57600080fd5b505afa158015611630573d6000803e3d6000fd5b505050506040513d601f19601f820116820180604052506116549190810190613dd3565b6000838152606d602052604090206004015410159050919050565b611677613a2b565b610edd82612660565b606a546001600160a01b031681565b611697610cc6565b6116b35760405162461bcd60e51b815260040161055690614c79565b6116bb61249a565b156116d85760405162461bcd60e51b815260040161055690614ba9565b6116e56020850185613c7d565b336001600160a01b0382161461170d5760405162461bcd60e51b815260040161055690614c49565b61171c36869003860186613e7b565b6000611726612326565b6001600160a01b031663269012a061173c612326565b6001600160a01b031663d86d744e6040518163ffffffff1660e01b815260040160206040518083038186803b15801561177457600080fd5b505afa158015611788573d6000803e3d6000fd5b505050506040513d601f19601f820116820180604052506117ac9190810190613df1565b6001600160a01b031663cc44cadb6040518163ffffffff1660e01b815260040160206040518083038186803b1580156117e457600080fd5b505afa1580156117f8573d6000803e3d6000fd5b505050506040513d601f19601f8201168201806040525061181c9190810190613dd3565b6040518263ffffffff1660e01b81526004016118389190614aac565b60206040518083038186803b15801561185057600080fd5b505afa158015611864573d6000803e3d6000fd5b505050506040513d601f19601f820116820180604052506118889190810190613dd3565b90508160a001518110156118ae5760405162461bcd60e51b815260040161055690614ad9565b60006118b8612326565b6001600160a01b03166369ff7744606a60009054906101000a90046001600160a01b03166001600160a01b031663aaaca5586040518163ffffffff1660e01b815260040160206040518083038186803b15801561191457600080fd5b505afa158015611928573d6000803e3d6000fd5b505050506040513d601f19601f8201168201806040525061194c9190810190613c9b565b85608001516040518363ffffffff1660e01b815260040161196e929190614a72565b60206040518083038186803b15801561198657600080fd5b505afa15801561199a573d6000803e3d6000fd5b505050506040513d601f19601f820116820180604052506119be9190810190613db5565b905080156119de5760405162461bcd60e51b815260040161055690614b09565b6119eb8360800151612cbb565b611a075760405162461bcd60e51b815260040161055690614c69565b843414611a265760405162461bcd60e51b815260040161055690614b49565b6000611a3061302b565b606b5460405163064e5d4960e01b8152919250600091829182916001600160a01b039091169063064e5d4990611a6e908f908f908f90600401614cc7565b606060405180830381600087803b158015611a8857600080fd5b505af1158015611a9c573d6000803e3d6000fd5b505050506040513d601f19601f82011682018060405250611ac09190810190613ed6565b91945092509050611ae284611ada368f90038f018f613e7b565b858585613045565b6000858152606d6020908152604091829020835181558382015180516001830180546001600160a01b03199081166001600160a01b0393841617909155938201516002840180548616918316919091179055818501516003808501919091556060808401516004860155608080850151600587015560a0948501516006870155968801516007860155870151600885015594860151600984015590850151600a83015560c0850151600b83015560e0850151600c830155610100850151600d830155610120850151600e83018054909416911617808355610140850151919391929160ff60a01b1990911690600160a01b908490811115611bdf57fe5b02179055506101609190910151600e9091018054911515600160a81b0260ff60a81b199092169190911790553415611c1b57611c1b8434612975565b606c6000611c2c60208f018f613c7d565b6001600160a01b031681526020808201929092526040016000908120805460018101825590825291902001849055611c7684611c6d368f90038f018f613e7b565b85858534613294565b505050505050505050505050565b606a546040805163155594ab60e31b815290516000926001600160a01b03169163aaaca558916004808301926020929190829003018186803b15801561120d57600080fd5b6067546001600160a01b031681565b606a54604080516361aeb27560e11b815290516000926001600160a01b03169163c35d64ea916004808301926020929190829003018186803b15801561120d57600080fd5b8060026000828152606d60205260409020600e0154600160a01b900460ff166003811115611d4757fe5b14611d645760405162461bcd60e51b815260040161055690614b89565b611d6c610cc6565b611d885760405162461bcd60e51b815260040161055690614c79565b611d9061249a565b15611dad5760405162461bcd60e51b815260040161055690614ba9565b606a546001600160a01b0316611dc281612514565b15611ddf5760405162461bcd60e51b815260040161055690614af9565b6033805460010190819055611df2613a2b565b611dfb856129f3565b90508060600151611e1e5760405162461bcd60e51b815260040161055690614b79565b6000858152606d60205260409020600e01805460ff60a01b1916600360a01b1760ff60a81b1916600160a81b1790558051611e5b9086903361335f565b606a5460408083015190516382f7b02760e01b81526001600160a01b03909216916382f7b02791611e90913390600401614cf7565b600060405180830381600087803b158015611eaa57600080fd5b505af1158015611ebe573d6000803e3d6000fd5b5050506000868152606d6020526040908190206001015483518483015192516001600160a01b03909216935088927f9950a0562c02382e2e840daa73082d5be7660ce37601f28fa4c84089c11e8a0692611f1b9233929091614a14565b60405180910390a3506033548114611f455760405162461bcd60e51b815260040161055690614c99565b50505050565b8060026000828152606d60205260409020600e0154600160a01b900460ff166003811115611f7557fe5b14611f925760405162461bcd60e51b815260040161055690614b89565b611f9a610cc6565b611fb65760405162461bcd60e51b815260040161055690614c79565b611fbe61249a565b15611fdb5760405162461bcd60e51b815260040161055690614ba9565b606a546001600160a01b0316611ff081612514565b1561200d5760405162461bcd60e51b815260040161055690614af9565b6033805460010190819055846120355760405162461bcd60e51b815260040161055690614ae9565b84600061204186610eb5565b90508181101561204f578091505b61205f818363ffffffff61259916565b905061206b8683613402565b8061210f576000868152606d60205260409020600e8101805460ff60a01b1916600360a01b17905560098101546001909101546120b490889083906001600160a01b0316612c34565b6000878152606d6020526040908190206001015490516001600160a01b039091169088907f7c5e5cb62e5ed3caf3764e4b0afedfedef533e27809d43367799787ad2abcd4190612105908590614aac565b60405180910390a3505b606a5460405163acb7081560e01b81526001600160a01b039091169063acb70815906121419085903390600401614cf7565b600060405180830381600087803b15801561215b57600080fd5b505af115801561216f573d6000803e3d6000fd5b5050505061217b6127aa565b6001600160a01b03166362e269ef606a60009054906101000a90046001600160a01b03166001600160a01b031663aaaca5586040518163ffffffff1660e01b815260040160206040518083038186803b1580156121d757600080fd5b505afa1580156121eb573d6000803e3d6000fd5b505050506040513d601f19601f8201168201806040525061220f9190810190613c9b565b306001600160a01b031663b2016bd46040518163ffffffff1660e01b815260040160206040518083038186803b15801561224857600080fd5b505afa15801561225c573d6000803e3d6000fd5b505050506040513d601f19601f820116820180604052506122809190810190613c9b565b856040518463ffffffff1660e01b815260040161229f93929190614a57565b600060405180830381600087803b1580156122b957600080fd5b505af11580156122cd573d6000803e3d6000fd5b5050506000878152606d6020526040908190206001015490516001600160a01b03909116915087907f20a1f2ec363af45dc5ee7d9d622f2dd68b52501c382126c7f04b53663c4c69bf9061143590869033908790614d12565b6000806000604051612337906149ed565b604051908190039020549250505090565b606d602090815260009182526040918290208054835160c08101855260018301546001600160a01b03908116825260028401548116948201949094526003830154948101949094526004820154606085015260058201546080850152600682015460a0850152600782015460088301546009840154600a850154600b860154600c870154600d880154600e9098015496999895979496939592949193909281169060ff600160a01b8204811691600160a81b9004168c565b606c602052816000526040600020818154811061241957fe5b90600052602060002001600091509150505481565b6001600160a01b0381166000908152606c602090815260409182902080548351818402810184019094528084526060939283018282801561248e57602002820191906000526020600020905b81548152602001906001019080831161247a575b50505050509050919050565b60006124a4612326565b6001600160a01b031663b187bd266040518163ffffffff1660e01b815260040160206040518083038186803b1580156124dc57600080fd5b505afa1580156124f0573d6000803e3d6000fd5b505050506040513d601f19601f820116820180604052506112459190810190613db5565b600061251e612326565b6001600160a01b0316633b668321836040518263ffffffff1660e01b815260040161254991906149f8565b60206040518083038186803b15801561256157600080fd5b505afa158015612575573d6000803e3d6000fd5b505050506040513d601f19601f82011682018060405250610edd9190810190613db5565b60006125db83836040518060400160405280601e81526020017f536166654d6174683a207375627472616374696f6e206f766572666c6f7700008152506134be565b90505b92915050565b6000826125f3575060006125de565b8282028284828161260057fe5b04146125db5760405162461bcd60e51b815260040161055690614bc9565b60006125db83836040518060400160405280601a81526020017f536166654d6174683a206469766973696f6e206279207a65726f0000000000008152506134ef565b612668613a2b565b6000828152606d6020526040812060090154908061268585613526565b604080516080810182528681526020810193909352820181905293909311606084015250909392505050565b60006126bb612326565b6001600160a01b031663bdd1daaa6040518163ffffffff1660e01b815260040160206040518083038186803b1580156126f357600080fd5b505afa158015612707573d6000803e3d6000fd5b505050506040513d601f19601f8201168201806040525061272b9190810190613df1565b6001600160a01b0316634614874e30846040518363ffffffff1660e01b8152600401612758929190614a72565b602060405180830381600087803b15801561277257600080fd5b505af1158015612786573d6000803e3d6000fd5b505050506040513d601f19601f82011682018060405250610edd9190810190613c9b565b60006127b4612326565b6001600160a01b0316631390f8d76040518163ffffffff1660e01b815260040160206040518083038186803b1580156127ec57600080fd5b505afa158015612800573d6000803e3d6000fd5b505050506040513d601f19601f820116820180604052506112459190810190613df1565b61282c610cc6565b156128495760405162461bcd60e51b815260040161055690614ca9565b60408051808201909152601681527550524f564944455f4f5241434c455f4144445245535360501b6020820152612890906001600160a01b0386169063ffffffff61354a16565b60408051808201909152601c81527f50524f564944455f4c454e44494e475f504f4f4c5f414444524553530000000060208201526128de906001600160a01b0385169063ffffffff61354a16565b60408051808201909152601b81527f50524f56494445445f4c4f414e5f5445524d535f414444524553530000000000602082015261292c906001600160a01b0384169063ffffffff61354a16565b61293581613572565b50606980546001600160a01b039485166001600160a01b031991821617909155606a805493851693821693909317909255606b8054919093169116179055565b606654612988908263ffffffff6129ce16565b6066556000828152606d60205260409020600901546129ad908263ffffffff6129ce16565b6000928352606d602052604090922060098101929092555042600a90910155565b6000828201838110156125db5760405162461bcd60e51b815260040161055690614b29565b6129fb613a2b565b6000828152606d602052604081206009015490612a16612326565b6001600160a01b031663269012a0612a2c612326565b6001600160a01b031663d86d744e6040518163ffffffff1660e01b815260040160206040518083038186803b158015612a6457600080fd5b505afa158015612a78573d6000803e3d6000fd5b505050506040513d601f19601f82011682018060405250612a9c9190810190613df1565b6001600160a01b0316631139087a6040518163ffffffff1660e01b815260040160206040518083038186803b158015612ad457600080fd5b505afa158015612ae8573d6000803e3d6000fd5b505050506040513d601f19601f82011682018060405250612b0c9190810190613dd3565b6040518263ffffffff1660e01b8152600401612b289190614aac565b60206040518083038186803b158015612b4057600080fd5b505afa158015612b54573d6000803e3d6000fd5b505050506040513d601f19601f82011682018060405250612b789190810190613dd3565b90506000612b8583613624565b60408051608081018252858152602081018390529192508101612bb4612710610884858763ffffffff6125e416565b8152602001612bc28761106f565b1515905295945050505050565b6000813f7fc5d2460186f7233c927e7db2dcc703c0e500b653ca82273b7bfad8045d85a470818114801590612c0357508115155b949350505050565b612c15838361375e565b8190611f455760405162461bcd60e51b81526004016105569190614ac8565b606654612c47908363ffffffff61259916565b6066556000838152606d6020526040902060090154612c6c908363ffffffff61259916565b6000848152606d60205260408082206009019290925590516001600160a01b0383169184156108fc02918591818181858888f19350505050158015611f45573d6000803e3d6000fd5b303b1590565b600080612cc6612326565b6001600160a01b031663dc21a6a06040518163ffffffff1660e01b815260040160206040518083038186803b158015612cfe57600080fd5b505afa158015612d12573d6000803e3d6000fd5b505050506040513d601f19601f82011682018060405250612d369190810190613df1565b6001600160a01b0316631fb7cec9606a60009054906101000a90046001600160a01b03166001600160a01b031663aaaca5586040518163ffffffff1660e01b815260040160206040518083038186803b158015612d9257600080fd5b505afa158015612da6573d6000803e3d6000fd5b505050506040513d601f19601f82011682018060405250612dca9190810190613c9b565b6067546040516001600160e01b031960e085901b168152612df892916001600160a01b031690600401614a3c565b60206040518083038186803b158015612e1057600080fd5b505afa158015612e24573d6000803e3d6000fd5b505050506040513d601f19601f82011682018060405250612e489190810190613c9b565b90506001600160a01b038116612e705760405162461bcd60e51b815260040161055690614c19565b604051632319178560e11b81526000906001600160a01b038316906346322f0a90612eae906b14dd5c1c1b1e551bd119589d60a21b90600401614aac565b60206040518083038186803b158015612ec657600080fd5b505afa158015612eda573d6000803e3d6000fd5b505050506040513d601f19601f82011682018060405250612efe9190810190613dd3565b90506000612f0a6127aa565b6001600160a01b031663db63323e606a60009054906101000a90046001600160a01b03166001600160a01b031663aaaca5586040518163ffffffff1660e01b815260040160206040518083038186803b158015612f6657600080fd5b505afa158015612f7a573d6000803e3d6000fd5b505050506040513d601f19601f82011682018060405250612f9e9190810190613c9b565b6067546040516001600160e01b031960e085901b168152612fce92916001600160a01b0316908a90600401614a57565b60206040518083038186803b158015612fe657600080fd5b505afa158015612ffa573d6000803e3d6000fd5b505050506040513d601f19601f8201168201806040525061301e9190810190613dd3565b9190911115949350505050565b60685461303f81600163ffffffff6129ce16565b60685590565b61304d613a55565b6000613057612326565b6001600160a01b031663269012a061306d612326565b6001600160a01b031663d86d744e6040518163ffffffff1660e01b815260040160206040518083038186803b1580156130a557600080fd5b505afa1580156130b9573d6000803e3d6000fd5b505050506040513d601f19601f820116820180604052506130dd9190810190613df1565b6001600160a01b031663e00a46156040518163ffffffff1660e01b815260040160206040518083038186803b15801561311557600080fd5b505afa158015613129573d6000803e3d6000fd5b505050506040513d601f19601f8201168201806040525061314d9190810190613dd3565b6040518263ffffffff1660e01b81526004016131699190614aac565b60206040518083038186803b15801561318157600080fd5b505afa158015613195573d6000803e3d6000fd5b505050506040513d601f19601f820116820180604052506131b99190810190613dd3565b905060006131cd428363ffffffff6129ce16565b90506040518061018001604052808981526020016040518060c001604052808a600001516001600160a01b031681526020018a602001516001600160a01b031681526020018981526020018881526020018781526020018a60a00151815250815260200182815260200160008152602001600081526020016000815260200160008152602001600081526020016000815260200160006001600160a01b031681526020016001600381111561327e57fe5b8152600060209091015298975050505050505050565b84602001516001600160a01b031685600001516001600160a01b0316877f0358f509931cba53bbb6a94b7f05a5178220a0c7ddb54b1a1722df9e6ed6aa098787878b60a00151606d60008f815260200190815260200160002060070154604051613302959493929190614de5565b60405180910390a480156133575784600001516001600160a01b0316867feec2f3feb835e2f2fd44281034b04700a1ddda63dd402949d470a25a7c40b36c8360405161334e9190614aac565b60405180910390a35b505050505050565b6000838152606d60205260409020600e01546001600160a01b0316156133f2576000838152606d602052604090819020600e0154905163df8de3e760e01b81526001600160a01b039091169063df8de3e7906133bf908490600401614a06565b600060405180830381600087803b1580156133d957600080fd5b505af11580156133ed573d6000803e3d6000fd5b505050505b6133fd838383612c34565b505050565b6000828152606d60205260409020600b0154811115613485576000828152606d60205260409020600b0154819061344090829063ffffffff61259916565b6000848152606d60205260408120600b810191909155600c015490915061346d908263ffffffff61259916565b6000848152606d60205260409020600c0155506134ba565b6000828152606d60205260409020600b01546134a7908263ffffffff61259916565b6000838152606d60205260409020600b01555b5050565b600081848411156134e25760405162461bcd60e51b81526004016105569190614ac8565b50508183035b9392505050565b600081836135105760405162461bcd60e51b81526004016105569190614ac8565b50600083858161351c57fe5b0495945050505050565b600080600061353484613770565b90508061354082613819565b9250925050915091565b6135538261390f565b81906133fd5760405162461bcd60e51b81526004016105569190614ac8565b61357a610cc6565b156135975760405162461bcd60e51b815260040161055690614ca9565b60408051808201909152601981527f53455454494e47535f4d5553545f42455f50524f56494445440000000000000060208201526135e5906001600160a01b0383169063ffffffff61354a16565b6135f7816001600160a01b0316612bcf565b6136135760405162461bcd60e51b815260040161055690614b69565b61361b61391d565b6114e58161393b565b6000806136be606a60009054906101000a90046001600160a01b03166001600160a01b031663aaaca5586040518163ffffffff1660e01b815260040160206040518083038186803b15801561367857600080fd5b505afa15801561368c573d6000803e3d6000fd5b505050506040513d601f19601f820116820180604052506136b09190810190613c9b565b6001600160a01b03166139aa565b90506000606960009054906101000a90046001600160a01b03166001600160a01b03166396237c026040518163ffffffff1660e01b815260040160206040518083038186803b15801561371057600080fd5b505afa158015613724573d6000803e3d6000fd5b505050506040513d601f19601f820116820180604052506137489190810190613dd3565b9050612c0381610884868563ffffffff6125e416565b6001600160a01b039081169116141590565b6000818152606d60205260408120600e0154600160a01b900460ff1681600182600381111561379b57fe5b14156137b957506000838152606d60205260409020600501546137e8565b60028260038111156137c757fe5b14156137dd576137d684610eb5565b90506137e8565b600092505050610ee0565b6000848152606d6020526040902060040154613810612710610884848463ffffffff6125e416565b95945050505050565b60008061386d606a60009054906101000a90046001600160a01b03166001600160a01b031663aaaca5586040518163ffffffff1660e01b815260040160206040518083038186803b15801561367857600080fd5b90506000606960009054906101000a90046001600160a01b03166001600160a01b03166396237c026040518163ffffffff1660e01b815260040160206040518083038186803b1580156138bf57600080fd5b505afa1580156138d3573d6000803e3d6000fd5b505050506040513d601f19601f820116820180604052506138f79190810190613dd3565b9050600061381083610884878563ffffffff6125e416565b6001600160a01b0316151590565b600060405161392b906149e2565b6040519081900390206001905550565b613954613946612326565b6001600160a01b031661390f565b1561395e576114e5565b613970816001600160a01b0316612bcf565b61398c5760405162461bcd60e51b815260040161055690614b69565b600060405161399a906149ed565b6040519081900390208290555050565b600080826001600160a01b031663313ce5676040518163ffffffff1660e01b815260040160206040518083038186803b1580156139e657600080fd5b505afa1580156139fa573d6000803e3d6000fd5b505050506040513d601f19601f82011682018060405250613a1e9190810190613f19565b60ff16600a0a9392505050565b60405180608001604052806000815260200160008152602001600081526020016000151581525090565b60405180610180016040528060008152602001613a70613ad0565b81526020016000815260200160008152602001600081526020016000815260200160008152602001600081526020016000815260200160006001600160a01b0316815260200160006003811115613ac357fe5b8152600060209091015290565b6040518060c0016040528060006001600160a01b0316815260200160006001600160a01b03168152602001600081526020016000815260200160008152602001600081525090565b80356125de81614f33565b80516125de81614f33565b60008083601f840112613b4057600080fd5b50813567ffffffffffffffff811115613b5857600080fd5b60208301915083610140820283011115613b7157600080fd5b9250929050565b80516125de81614f47565b80356125de81614f50565b80516125de81614f50565b80516125de81614f59565b600060e08284031215613bb657600080fd5b50919050565b600060e08284031215613bce57600080fd5b613bd860e0614e31565b90506000613be68484613b18565b8252506020613bf784848301613b18565b6020830152506040613c0b84828501613b18565b6040830152506060613c1f84828501613b83565b6060830152506080613c3384828501613b83565b60808301525060a0613c4784828501613b83565b60a08301525060c0613c5b84828501613b83565b60c08301525092915050565b80356125de81614f62565b80516125de81614f62565b600060208284031215613c8f57600080fd5b6000612c038484613b18565b600060208284031215613cad57600080fd5b6000612c038484613b23565b600080600080600060a08688031215613cd157600080fd5b6000613cdd8888613b18565b9550506020613cee88828901613b18565b9450506040613cff88828901613b18565b9350506060613d1088828901613b18565b9250506080613d2188828901613b18565b9150509295509295909350565b60008060408385031215613d4157600080fd5b6000613d4d8585613b18565b9250506020613d5e85828601613b83565b9150509250929050565b600080600060608486031215613d7d57600080fd5b6000613d898686613b18565b9350506020613d9a86828701613b83565b9250506040613dab86828701613b83565b9150509250925092565b600060208284031215613dc757600080fd5b6000612c038484613b78565b600060208284031215613de557600080fd5b6000612c038484613b8e565b600060208284031215613e0357600080fd5b6000612c038484613b99565b6000806000806101208587031215613e2657600080fd5b6000613e328787613ba4565b94505060e085013567ffffffffffffffff811115613e4f57600080fd5b613e5b87828801613b2e565b9350935050610100613e6f87828801613b83565b91505092959194509250565b600060e08284031215613e8d57600080fd5b6000612c038484613bbc565b600060208284031215613eab57600080fd5b6000612c038484613b83565b60008060408385031215613eca57600080fd5b6000613d4d8585613b83565b600080600060608486031215613eeb57600080fd5b6000613ef78686613b8e565b9350506020613f0886828701613b8e565b9250506040613dab86828701613b8e565b600060208284031215613f2b57600080fd5b6000612c038484613c72565b6000613f438383614845565b50506101400190565b6000613f588383614027565b505060200190565b613f6981614edd565b82525050565b613f6981614ea6565b6000613f848385614e6c565b9350613f8f82614e58565b8060005b85811015613fc557613fa58284614e93565b613faf8882613f37565b9750613fba83614e65565b925050600101613f93565b509495945050505050565b6000613fdb82614e61565b613fe58185614e6c565b9350613ff083614e5b565b8060005b83811015613fc55781516140088882613f4c565b975061401383614e5b565b925050600101613ff4565b613f6981614eb1565b613f6981614e58565b613f6981614eb6565b613f6981614ee8565b600061404d82614e61565b6140578185614e6c565b9350614067818560208601614ef3565b61407081614f1f565b9093019392505050565b6000614087601d83614e6c565b7f4455524154494f4e5f455843454544535f4d41585f4455524154494f4e000000815260200192915050565b60006140c0601c83610ee0565b7f54496e697469616c697a61626c652e6973496e697469616c697a6564000000008152601c0192915050565b60006140f9601583614e6c565b74105353d5539517d59053155157d491545552549151605a1b815260200192915050565b600061412a601683614e6c565b7513115391125391d7d413d3d317d254d7d4105554d15160521b815260200192915050565b600061415c601983614e6c565b7f414d4f554e545f455843454544535f4d41585f414d4f554e5400000000000000815260200192915050565b6000614195601183614e6c565b7013505617d313d05397d15610d151511151607a1b815260200192915050565b60006141c2601b83614e6c565b7f536166654d6174683a206164646974696f6e206f766572666c6f770000000000815260200192915050565b60006141fb601983614e6c565b7f424f52524f5745525f4c4f414e5f49445f4d49534d4154434800000000000000815260200192915050565b6000614234601483614e6c565b73125390d3d4949150d517d1551217d05353d5539560621b815260200192915050565b6000614264601683614e6c565b751313d05397d393d517d050d512559157d3d497d4d15560521b815260200192915050565b6000614296601b83614e6c565b7f53455454494e47535f4d5553545f42455f415f434f4e54524143540000000000815260200192915050565b60006142cf601783614e6c565b7f444f45534e545f4e4545445f4c49515549444154494f4e000000000000000000815260200192915050565b6000614308600f83614e6c565b6e4c4f414e5f4e4f545f41435449564560881b815260200192915050565b6000614333601483614e6c565b7343414e4e4f545f57495448445241575f5a45524f60601b815260200192915050565b6000614363601283614e6c565b71141310551193d49357d254d7d4105554d15160721b815260200192915050565b6000614391601883614e6c565b7f4d4f52455f434f4c4c41544552414c5f52455155495245440000000000000000815260200192915050565b60006143ca602183614e6c565b7f536166654d6174683a206d756c7469706c69636174696f6e206f766572666c6f8152607760f81b602082015260400192915050565b600061440d601d83614e6c565b7f434f4c4c41544552414c5f4445504f53495445445f524543454e544c59000000815260200192915050565b6000614446601a83614e6c565b7f434f4c4c41544552414c5f414d4f554e545f544f4f5f48494748000000000000815260200192915050565b600061447f601283614e6c565b711313d05397d511549354d7d156141254915160721b815260200192915050565b60006144ad602e83614e6c565b7f436f6e747261637420696e7374616e63652068617320616c726561647920626581526d195b881a5b9a5d1a585b1a5e995960921b602082015260400192915050565b60006144fd601883614e6c565b7f41544d5f4e4f545f464f554e445f464f525f4d41524b45540000000000000000815260200192915050565b6000614536601383614e6c565b7243414e4e4f545f4445504f5349545f5a45524f60681b815260200192915050565b6000614565601e83614e6c565b7f4f5241434c455f4d5553545f434f4e54524143545f4e4f545f454d5054590000815260200192915050565b600061459e601783614e6c565b7f424f52524f5745525f4d5553545f42455f53454e444552000000000000000000815260200192915050565b60006145d7601683614e6c565b7521a0a62622a92fa227a2a9a72a2fa7aba72fa627a0a760511b815260200192915050565b6000614609601883610ee0565b7f426173655570677261646561626c652e73657474696e67730000000000000000815260180192915050565b6000614642601a83614e6c565b7f535550504c595f544f5f444542545f455843454544535f4d4158000000000000815260200192915050565b600061467b601883614e6c565b7f434f4e54524143545f4e4f545f494e495449414c495a45440000000000000000815260200192915050565b60006146b4600c83614e6c565b6b1313d05397d393d517d4d15560a21b815260200192915050565b60006146dc601f83614e6c565b7f5265656e7472616e637947756172643a207265656e7472616e742063616c6c00815260200192915050565b6000614715601c83614e6c565b7f434f4e54524143545f414c52454144595f494e495449414c495a454400000000815260200192915050565b805160808301906147528482614027565b5060208201516147656020850182614027565b5060408201516147786040850182614027565b506060820151611f45606085018261401e565b60e082016147998280614e75565b6147a38482613f6f565b506147b16020830183614e75565b6147be6020850182613f6f565b506147cc6040830183614e75565b6147d96040850182613f6f565b506147e76060830183614e84565b6147f46060850182614027565b506148026080830183614e84565b61480f6080850182614027565b5061481d60a0830183614e84565b61482a60a0850182614027565b5061483860c0830183614e84565b611f4560c0850182614027565b61014082016148548280614e75565b61485e8482613f6f565b5061486c6020830183614e75565b6148796020850182613f6f565b506148876040830183614e84565b6148946040850182614027565b506148a26060830183614e84565b6148af6060850182614027565b506148bd6080830183614e84565b6148ca6080850182614027565b506148d860a0830183614e84565b6148e560a0850182614027565b506148f360c0830183614e93565b611f4560c0850182614970565b805160c08301906149118482613f6f565b5060208201516149246020850182613f6f565b5060408201516149376040850182614027565b50606082015161494a6060850182614027565b50608082015161495d6080850182614027565b5060a0820151611f4560a0850182614027565b6080820161497e8280614e84565b6149888482614027565b506149966020830183614e97565b6149a360208501826149d9565b506149b16040830183614e84565b6149be6040850182614027565b506149cc6060830183614e84565b611f456060850182614027565b613f6981614ed7565b60006125de826140b3565b60006125de826145fc565b602081016125de8284613f6f565b602081016125de8284613f60565b60608101614a228286613f60565b614a2f6020830185614027565b612c036040830184614027565b60408101614a4a8285613f6f565b6134e86020830184613f6f565b60608101614a658286613f6f565b614a2f6020830185613f6f565b60408101614a808285613f6f565b6134e86020830184614027565b602080825281016125db8184613fd0565b602081016125de828461401e565b602081016125de8284614027565b602081016125de8284614030565b602080825281016125db8184614042565b60208082528101610edd8161407a565b60208082528101610edd816140ec565b60208082528101610edd8161411d565b60208082528101610edd8161414f565b60208082528101610edd81614188565b60208082528101610edd816141b5565b60208082528101610edd816141ee565b60208082528101610edd81614227565b60208082528101610edd81614257565b60208082528101610edd81614289565b60208082528101610edd816142c2565b60208082528101610edd816142fb565b60208082528101610edd81614326565b60208082528101610edd81614356565b60208082528101610edd81614384565b60208082528101610edd816143bd565b60208082528101610edd81614400565b60208082528101610edd81614439565b60208082528101610edd81614472565b60208082528101610edd816144a0565b60208082528101610edd816144f0565b60208082528101610edd81614529565b60208082528101610edd81614558565b60208082528101610edd81614591565b60208082528101610edd816145ca565b60208082528101610edd81614635565b60208082528101610edd8161466e565b60208082528101610edd816146a7565b60208082528101610edd816146cf565b60208082528101610edd81614708565b608081016125de8284614741565b6101008101614cd6828661478b565b81810360e0830152613810818486613f78565b60408101614a4a8285614027565b60408101614d058285614027565b6134e86020830184613f60565b60608101614d208286614027565b614a2f6020830185613f60565b6102208101614d3c828f614027565b614d49602083018e614900565b614d5660e083018d614027565b614d6461010083018c614027565b614d7261012083018b614027565b614d8061014083018a614027565b614d8e610160830189614027565b614d9c610180830188614027565b614daa6101a0830187614027565b614db86101c0830186613f6f565b614dc66101e0830185614039565b614dd461020083018461401e565b9d9c50505050505050505050505050565b60a08101614df38288614027565b614e006020830187614027565b614e0d6040830186614027565b614e1a6060830185614027565b614e276080830184614027565b9695505050505050565b60405181810167ffffffffffffffff81118282101715614e5057600080fd5b604052919050565b90565b60200190565b5190565b6101400190565b90815260200190565b60006125db6020840184613b18565b60006125db6020840184613b83565b5090565b60006125db6020840184613c67565b6000610edd82614ecb565b151590565b6000610edd82614ea6565b80610ee081614f29565b6001600160a01b031690565b60ff1690565b6000610edd82614eb6565b6000610edd82614ec1565b60005b83811015614f0e578181015183820152602001614ef6565b83811115611f455750506000910152565b601f01601f191690565b600481106114e557fe5b614f3c81614ea6565b81146114e557600080fd5b614f3c81614eb1565b614f3c81614e58565b614f3c81614eb6565b614f3c81614ed756fea365627a7a723158207220a6cb35c502d93c0bbfbb40a69c69c57aaee0d97c2c363e92821a380aace56c6578706572696d656e74616cf564736f6c63430005110040",
  "source": "pragma solidity 0.5.17;\npragma experimental ABIEncoderV2;\n\n// Contracts\nimport \"./LoansBase.sol\";\n\n/*****************************************************************************************************/\n/**                                             WARNING                                             **/\n/**                                  THIS CONTRACT IS UPGRADEABLE!                                  **/\n/**  ---------------------------------------------------------------------------------------------  **/\n/**  Do NOT change the order of or PREPEND any storage variables to this or new versions of this    **/\n/**  contract as this will cause the the storage slots to be overwritten on the proxy contract!!    **/\n/**                                                                                                 **/\n/**  Visit https://docs.openzeppelin.com/upgrades/2.6/proxies#upgrading-via-the-proxy-pattern for   **/\n/**  more information.                                                                              **/\n/*****************************************************************************************************/\n/**\n    @notice This contract is used as a basis for the creation of Ether based loans across the platform\n    @notice It implements the LoansBase contract from Teller\n\n    @author develop@teller.finance\n */\ncontract EtherCollateralLoans is LoansBase {\n    /**\n     * @notice Deposit collateral into a loan\n     * @param borrower The address of the loan borrower.\n     * @param loanID The ID of the loan the collateral is for\n     */\n    function depositCollateral(\n        address borrower,\n        uint256 loanID,\n        uint256 amount\n    )\n        external\n        payable\n        loanActiveOrSet(loanID)\n        isInitialized()\n        whenNotPaused()\n        whenLendingPoolNotPaused(address(lendingPool))\n    {\n        require(\n            loans[loanID].loanTerms.borrower == borrower,\n            \"BORROWER_LOAN_ID_MISMATCH\"\n        );\n        require(msg.value == amount, \"INCORRECT_ETH_AMOUNT\");\n        require(msg.value > 0, \"CANNOT_DEPOSIT_ZERO\");\n\n        // Update the contract total and the loan collateral total\n        _payInCollateral(loanID, amount);\n\n        emit CollateralDeposited(loanID, borrower, amount);\n    }\n\n    /**\n        @notice Creates a loan with the loan request and terms\n        @param request Struct of the protocol loan request\n        @param responses List of structs of the protocol loan responses\n        @param collateralAmount Amount of collateral required for the loan\n     */\n    function createLoanWithTerms(\n        TellerCommon.LoanRequest calldata request,\n        TellerCommon.LoanResponse[] calldata responses,\n        uint256 collateralAmount\n    )\n        external\n        payable\n        isInitialized()\n        whenNotPaused()\n        isBorrower(request.borrower)\n        withValidLoanRequest(request)\n    {\n        require(msg.value == collateralAmount, \"INCORRECT_ETH_AMOUNT\");\n\n        uint256 loanID = _getAndIncrementLoanID();\n        (\n            uint256 interestRate,\n            uint256 collateralRatio,\n            uint256 maxLoanAmount\n        ) = loanTermsConsensus.processRequest(request, responses);\n\n        loans[loanID] = createLoan(\n            loanID,\n            request,\n            interestRate,\n            collateralRatio,\n            maxLoanAmount\n        );\n\n        if (msg.value > 0) {\n            // Update collateral, totalCollateral, and lastCollateralIn\n            _payInCollateral(loanID, msg.value);\n        }\n\n        borrowerLoans[request.borrower].push(loanID);\n\n        _emitLoanTermsSetAndCollateralDepositedEventsIfApplicable(\n            loanID,\n            request,\n            interestRate,\n            collateralRatio,\n            maxLoanAmount,\n            msg.value\n        );\n    }\n\n    /**\n        @notice Initializes the current contract instance setting the required parameters\n        @param priceOracleAddress Contract address of the price oracle\n        @param lendingPoolAddress Contract address of the lending pool\n        @param loanTermsConsensusAddress Contract adddress for loan term consensus\n        @param settingsAddress Contract address for the configuration of the platform\n     */\n    function initialize(\n        address priceOracleAddress,\n        address lendingPoolAddress,\n        address loanTermsConsensusAddress,\n        address settingsAddress,\n        address\n    ) external isNotInitialized() {\n        _initialize(\n            priceOracleAddress,\n            lendingPoolAddress,\n            loanTermsConsensusAddress,\n            settingsAddress\n        );\n\n        collateralToken = settings().ETH_ADDRESS();\n    }\n\n    /** Internal Functions */\n    /**\n        @notice Pays out collateral for the associated loan\n        @param loanID The ID of the loan the collateral is for\n        @param amount The amount of collateral to be paid\n        @param recipient address that will receive the given amount.\n     */\n    function _payOutCollateral(\n        uint256 loanID,\n        uint256 amount,\n        address payable recipient\n    ) internal {\n        totalCollateral = totalCollateral.sub(amount);\n        loans[loanID].collateral = loans[loanID].collateral.sub(amount);\n        recipient.transfer(amount);\n    }\n}\n",
  "sourcePath": "/Users/guillesalazar/Repos/ZeroCollateral/smart-contracts-v1/contracts/base/EtherCollateralLoans.sol",
  "compiler": {
    "name": "solc",
    "version": "0.5.17+commit.d19bba13.Emscripten.clang"
  },
  "schemaVersion": "3.2.3",
  "updatedAt": "2020-10-12T16:12:27.694Z",
  "networkType": "ethereum",
  "devdoc": {
    "author": "develop@teller.finance",
    "methods": {
      "cToken()": {
        "return": "Address of the cToken"
      },
      "canLiquidateLoan(uint256)": {
        "params": {
          "loanID": "The ID of the loan to check"
        },
        "return": "bool weather the loan can be liquidated"
      },
      "createLoanWithTerms((address,address,address,uint256,uint256,uint256,uint256),(address,address,uint256,uint256,uint256,uint256,(uint256,uint8,bytes32,bytes32))[],uint256)": {
        "params": {
          "collateralAmount": "Amount of collateral required for the loan",
          "request": "Struct of the protocol loan request",
          "responses": "List of structs of the protocol loan responses"
        }
      },
      "depositCollateral(address,uint256,uint256)": {
        "params": {
          "borrower": "The address of the loan borrower.",
          "loanID": "The ID of the loan the collateral is for"
        }
      },
      "getBorrowerLoans(address)": {
        "params": {
          "borrower": "The borrower's address"
        }
      },
      "getCollateralInfo(uint256)": {
        "params": {
          "loanID": "of the loan to get info for"
        },
        "return": "memory TellerCommon.LoanCollateralInfo Collateral information of the loan"
      },
      "getLiquidationInfo(uint256)": {
        "params": {
          "loanID": "loan id to get the info."
        },
        "return": "liquidationInfo get current liquidation info for the given loan id."
      },
      "getTotalOwed(uint256)": {
        "params": {
          "loanID": "The ID of the loan to be queried"
        },
        "return": "uint256 The total amount owed remaining"
      },
      "initialize(address,address,address,address,address)": {
        "params": {
          "lendingPoolAddress": "Contract address of the lending pool",
          "loanTermsConsensusAddress": "Contract adddress for loan term consensus",
          "priceOracleAddress": "Contract address of the price oracle",
          "settingsAddress": "Contract address for the configuration of the platform"
        }
      },
      "initialized()": {
        "return": "true if contract is initialized. Otherwise it returns false."
      },
      "isLoanSecured(uint256)": {
        "return": "bool value of it being secured or not."
      },
      "lendingToken()": {
        "return": "Address of the lending token"
      },
      "liquidateLoan(uint256)": {
        "params": {
          "loanID": "The ID of the loan to be liquidated"
        }
      },
      "repay(uint256,uint256)": {
        "params": {
          "amount": "The amount of tokens to pay back to the loan",
          "loanID": "The ID of the loan the payment is for"
        }
      },
      "setPriceOracle(address)": {
        "details": "It throws a require error if sender is not allowed.It throws a require error if new address is empty (0x0) or not a contract.",
        "params": {
          "newPriceOracle": "the new price oracle address."
        }
      },
      "settings()": {
        "details": "This address should NOT change over the time. See details in the _setSettings(...) function."
      },
      "tToken()": {
        "return": "Address of the tToken"
      },
      "takeOutLoan(uint256,uint256)": {
        "details": "collateral ratio is a percentage of the loan amount that's required in collateralthe percentage will be *(10**2). I.e. collateralRatio of 5244 means 52.44% collateralis required in the loan. Interest rate is also a percentage with 2 decimal points."
      },
      "withdrawCollateral(uint256,uint256)": {
        "params": {
          "amount": "The amount of collateral token or ether the caller is hoping to withdraw.",
          "loanID": "The ID of the loan the collateral is for"
        }
      }
    }
  },
  "userdoc": {
    "methods": {
      "cToken()": {
        "notice": "Returns the cToken in the lending pool"
      },
      "canLiquidateLoan(uint256)": {
        "notice": "A loan can be liquidated if it is: under collateralized or expired"
      },
      "createLoanWithTerms((address,address,address,uint256,uint256,uint256,uint256),(address,address,uint256,uint256,uint256,uint256,(uint256,uint8,bytes32,bytes32))[],uint256)": {
        "notice": "Creates a loan with the loan request and terms"
      },
      "depositCollateral(address,uint256,uint256)": {
        "notice": "Deposit collateral into a loan"
      },
      "getBorrowerLoans(address)": {
        "notice": "Get a list of all loans for a borrower"
      },
      "getCollateralInfo(uint256)": {
        "notice": "Get collateral information of a specific loan"
      },
      "getLiquidationInfo(uint256)": {
        "notice": "It getss the current liquidation info for a given loan id."
      },
      "getTotalOwed(uint256)": {
        "notice": "Returns the total owed amount remaining for a specified loan"
      },
      "initialize(address,address,address,address,address)": {
        "notice": "Initializes the current contract instance setting the required parameters"
      },
      "initialized()": {
        "notice": "Gets if the contract is initialized."
      },
      "isLoanSecured(uint256)": {
        "notice": "Checks wheather the loan's collateral ratio is considered to be secured based on the settings collateral buffer value."
      },
      "lendingToken()": {
        "notice": "Returns the lending token in the lending pool"
      },
      "liquidateLoan(uint256)": {
        "notice": "Liquidate a loan if it is expired or under collateralized"
      },
      "repay(uint256,uint256)": {
        "notice": "Make a payment to a loan"
      },
      "setPriceOracle(address)": {
        "notice": "Updates the current price oracle instance."
      },
      "settings()": {
        "notice": "The gets the settings contract address from the SETTINGS_SLOT."
      },
      "tToken()": {
        "notice": "Returns the tToken in the lending pool"
      },
      "takeOutLoan(uint256,uint256)": {
        "notice": "Take out a loan"
      },
      "withdrawCollateral(uint256,uint256)": {
        "notice": "Withdraw collateral from a loan, unless this isn't allowed"
      }
    },
    "notice": "This contract is used as a basis for the creation of Ether based loans across the platformIt implements the LoansBase contract from Teller"
  }
}