{
  "contractName": "EtherUsdAggregator",
  "abi": [
    {
      "inputs": [
        {
          "internalType": "address",
          "name": "aggregatorAddress",
          "type": "address"
        }
      ],
      "payable": false,
      "stateMutability": "nonpayable",
      "type": "constructor"
    },
    {
      "constant": true,
      "inputs": [],
      "name": "aggregator",
      "outputs": [
        {
          "internalType": "contract AggregatorInterface",
          "name": "",
          "type": "address"
        }
      ],
      "payable": false,
      "stateMutability": "view",
      "type": "function"
    },
    {
      "constant": true,
      "inputs": [],
      "name": "getLatestAnswer",
      "outputs": [
        {
          "internalType": "int256",
          "name": "",
          "type": "int256"
        }
      ],
      "payable": false,
      "stateMutability": "view",
      "type": "function"
    },
    {
      "constant": true,
      "inputs": [],
      "name": "getLatestTimestamp",
      "outputs": [
        {
          "internalType": "uint256",
          "name": "",
          "type": "uint256"
        }
      ],
      "payable": false,
      "stateMutability": "view",
      "type": "function"
    },
    {
      "constant": true,
      "inputs": [
        {
          "internalType": "uint256",
          "name": "timestampBack",
          "type": "uint256"
        }
      ],
      "name": "getPreviousAnswer",
      "outputs": [
        {
          "internalType": "int256",
          "name": "",
          "type": "int256"
        }
      ],
      "payable": false,
      "stateMutability": "view",
      "type": "function"
    },
    {
      "constant": true,
      "inputs": [
        {
          "internalType": "uint256",
          "name": "timestampBack",
          "type": "uint256"
        }
      ],
      "name": "getPreviousTimestamp",
      "outputs": [
        {
          "internalType": "uint256",
          "name": "",
          "type": "uint256"
        }
      ],
      "payable": false,
      "stateMutability": "view",
      "type": "function"
    }
  ],
  "bytecode": "0x608060405234801561001057600080fd5b506040516107f13803806107f18339818101604052602081101561003357600080fd5b8101908080519060200190929190505050600073ffffffffffffffffffffffffffffffffffffffff168173ffffffffffffffffffffffffffffffffffffffff1614156100e7576040517f08c379a000000000000000000000000000000000000000000000000000000000815260040180806020018281038252601f8152602001807f41676772656761746f7220616464726573732069732072657175697265642e0081525060200191505060405180910390fd5b806000806101000a81548173ffffffffffffffffffffffffffffffffffffffff021916908373ffffffffffffffffffffffffffffffffffffffff160217905550506106ba806101376000396000f3fe608060405234801561001057600080fd5b50600436106100575760003560e01c8063038921251461005c578063245a7bfc1461009e57806396237c02146100e8578063d8d7e95014610106578063f43b52cb14610148575b600080fd5b6100886004803603602081101561007257600080fd5b8101908080359060200190929190505050610166565b6040518082815260200191505060405180910390f35b6100a661033a565b604051808273ffffffffffffffffffffffffffffffffffffffff1673ffffffffffffffffffffffffffffffffffffffff16815260200191505060405180910390f35b6100f061035f565b6040518082815260200191505060405180910390f35b6101326004803603602081101561011c57600080fd5b8101908080359060200190929190505050610408565b6040518082815260200191505060405180910390f35b6101506105dc565b6040518082815260200191505060405180910390f35b6000806000809054906101000a900473ffffffffffffffffffffffffffffffffffffffff1673ffffffffffffffffffffffffffffffffffffffff1663668a0f026040518163ffffffff1660e01b815260040160206040518083038186803b1580156101d057600080fd5b505afa1580156101e4573d6000803e3d6000fd5b505050506040513d60208110156101fa57600080fd5b8101908080519060200190929190505050905080831115610283576040517f08c379a00000000000000000000000000000000000000000000000000000000081526004018080602001828103825260128152602001807f4e6f7420656e6f75676820686973746f7279000000000000000000000000000081525060200191505060405180910390fd5b6000809054906101000a900473ffffffffffffffffffffffffffffffffffffffff1673ffffffffffffffffffffffffffffffffffffffff1663b633620c8483036040518263ffffffff1660e01b81526004018082815260200191505060206040518083038186803b1580156102f757600080fd5b505afa15801561030b573d6000803e3d6000fd5b505050506040513d602081101561032157600080fd5b8101908080519060200190929190505050915050919050565b6000809054906101000a900473ffffffffffffffffffffffffffffffffffffffff1681565b60008060009054906101000a900473ffffffffffffffffffffffffffffffffffffffff1673ffffffffffffffffffffffffffffffffffffffff166350d25bcd6040518163ffffffff1660e01b815260040160206040518083038186803b1580156103c857600080fd5b505afa1580156103dc573d6000803e3d6000fd5b505050506040513d60208110156103f257600080fd5b8101908080519060200190929190505050905090565b6000806000809054906101000a900473ffffffffffffffffffffffffffffffffffffffff1673ffffffffffffffffffffffffffffffffffffffff1663668a0f026040518163ffffffff1660e01b815260040160206040518083038186803b15801561047257600080fd5b505afa158015610486573d6000803e3d6000fd5b505050506040513d602081101561049c57600080fd5b8101908080519060200190929190505050905080831115610525576040517f08c379a00000000000000000000000000000000000000000000000000000000081526004018080602001828103825260128152602001807f4e6f7420656e6f75676820686973746f7279000000000000000000000000000081525060200191505060405180910390fd5b6000809054906101000a900473ffffffffffffffffffffffffffffffffffffffff1673ffffffffffffffffffffffffffffffffffffffff1663b5ab58dc8483036040518263ffffffff1660e01b81526004018082815260200191505060206040518083038186803b15801561059957600080fd5b505afa1580156105ad573d6000803e3d6000fd5b505050506040513d60208110156105c357600080fd5b8101908080519060200190929190505050915050919050565b60008060009054906101000a900473ffffffffffffffffffffffffffffffffffffffff1673ffffffffffffffffffffffffffffffffffffffff16638205bf6a6040518163ffffffff1660e01b815260040160206040518083038186803b15801561064557600080fd5b505afa158015610659573d6000803e3d6000fd5b505050506040513d602081101561066f57600080fd5b810190808051906020019092919050505090509056fea265627a7a7231582091117b0bb2fd8bf6a42dee81cd12209da92eec7a59e07555c8794fbb96134af864736f6c63430005110032",
  "source": "pragma solidity 0.5.17;\n\nimport \"@chainlink/contracts/src/v0.5/dev/AggregatorInterface.sol\";\nimport \"../../interfaces/PairAggregatorInterface.sol\";\n\ncontract EtherUsdAggregator is PairAggregatorInterface {\n    AggregatorInterface public aggregator;\n\n    constructor(address aggregatorAddress) public {\n        require(aggregatorAddress != address(0x0), \"Aggregator address is required.\");\n        aggregator = AggregatorInterface(aggregatorAddress);\n    }\n\n    function getLatestAnswer() external view returns (int256) {\n        return aggregator.latestAnswer();\n    }\n\n    function getLatestTimestamp() external view returns (uint256) {\n        return aggregator.latestTimestamp();\n    }\n\n    function getPreviousAnswer(uint256 timestampBack) external view returns (int256) {\n        uint256 latest = aggregator.latestRound();\n        require(timestampBack <= latest, \"Not enough history\");\n        return aggregator.getAnswer(latest - timestampBack);\n    }\n\n    function getPreviousTimestamp(uint256 timestampBack) external view returns (uint256) {\n        uint256 latest = aggregator.latestRound();\n        require(timestampBack <= latest, \"Not enough history\");\n        return aggregator.getTimestamp(latest - timestampBack);\n    }\n}\n",
  "sourcePath": "/home/jalil/Programs/zero-collateral-v1/contracts/providers/chainlink/EtherUsdAggregator.sol",
  "compiler": {
    "name": "solc",
    "version": "0.5.17+commit.d19bba13.Emscripten.clang"
  },
  "schemaVersion": "3.0.23",
  "updatedAt": "2020-04-29T14:20:38.810Z",
  "devdoc": {
    "methods": {}
  },
  "userdoc": {
    "methods": {}
  }
}