{
  "contractName": "EtherCollateralLoans",
  "abi": [
    {
      "anonymous": false,
      "inputs": [
        {
          "indexed": true,
          "internalType": "uint256",
          "name": "loanID",
          "type": "uint256"
        },
        {
          "indexed": true,
          "internalType": "address",
          "name": "borrower",
          "type": "address"
        },
        {
          "indexed": false,
          "internalType": "uint256",
          "name": "depositAmount",
          "type": "uint256"
        }
      ],
      "name": "CollateralDeposited",
      "type": "event"
    },
    {
      "anonymous": false,
      "inputs": [
        {
          "indexed": true,
          "internalType": "uint256",
          "name": "loanID",
          "type": "uint256"
        },
        {
          "indexed": true,
          "internalType": "address",
          "name": "borrower",
          "type": "address"
        },
        {
          "indexed": false,
          "internalType": "uint256",
          "name": "withdrawalAmount",
          "type": "uint256"
        }
      ],
      "name": "CollateralWithdrawn",
      "type": "event"
    },
    {
      "anonymous": false,
      "inputs": [
        {
          "indexed": true,
          "internalType": "uint256",
          "name": "loanID",
          "type": "uint256"
        },
        {
          "indexed": true,
          "internalType": "address",
          "name": "borrower",
          "type": "address"
        },
        {
          "indexed": false,
          "internalType": "address",
          "name": "liquidator",
          "type": "address"
        },
        {
          "indexed": false,
          "internalType": "uint256",
          "name": "collateralOut",
          "type": "uint256"
        },
        {
          "indexed": false,
          "internalType": "uint256",
          "name": "tokensIn",
          "type": "uint256"
        }
      ],
      "name": "LoanLiquidated",
      "type": "event"
    },
    {
      "anonymous": false,
      "inputs": [
        {
          "indexed": true,
          "internalType": "uint256",
          "name": "loanID",
          "type": "uint256"
        },
        {
          "indexed": true,
          "internalType": "address",
          "name": "borrower",
          "type": "address"
        },
        {
          "indexed": false,
          "internalType": "uint256",
          "name": "amountPaid",
          "type": "uint256"
        },
        {
          "indexed": false,
          "internalType": "address",
          "name": "payer",
          "type": "address"
        },
        {
          "indexed": false,
          "internalType": "uint256",
          "name": "totalOwed",
          "type": "uint256"
        }
      ],
      "name": "LoanRepaid",
      "type": "event"
    },
    {
      "anonymous": false,
      "inputs": [
        {
          "indexed": true,
          "internalType": "uint256",
          "name": "loanID",
          "type": "uint256"
        },
        {
          "indexed": true,
          "internalType": "address",
          "name": "borrower",
          "type": "address"
        },
        {
          "indexed": true,
          "internalType": "address",
          "name": "escrow",
          "type": "address"
        },
        {
          "indexed": false,
          "internalType": "uint256",
          "name": "amountBorrowed",
          "type": "uint256"
        }
      ],
      "name": "LoanTakenOut",
      "type": "event"
    },
    {
      "anonymous": false,
      "inputs": [
        {
          "indexed": true,
          "internalType": "uint256",
          "name": "loanID",
          "type": "uint256"
        },
        {
          "indexed": true,
          "internalType": "address",
          "name": "borrower",
          "type": "address"
        },
        {
          "indexed": true,
          "internalType": "address",
          "name": "recipient",
          "type": "address"
        },
        {
          "indexed": false,
          "internalType": "uint256",
          "name": "interestRate",
          "type": "uint256"
        },
        {
          "indexed": false,
          "internalType": "uint256",
          "name": "collateralRatio",
          "type": "uint256"
        },
        {
          "indexed": false,
          "internalType": "uint256",
          "name": "maxLoanAmount",
          "type": "uint256"
        },
        {
          "indexed": false,
          "internalType": "uint256",
          "name": "duration",
          "type": "uint256"
        },
        {
          "indexed": false,
          "internalType": "uint256",
          "name": "termsExpiry",
          "type": "uint256"
        }
      ],
      "name": "LoanTermsSet",
      "type": "event"
    },
    {
      "anonymous": false,
      "inputs": [
        {
          "indexed": true,
          "internalType": "address",
          "name": "sender",
          "type": "address"
        },
        {
          "indexed": true,
          "internalType": "address",
          "name": "oldPriceOracle",
          "type": "address"
        },
        {
          "indexed": true,
          "internalType": "address",
          "name": "newPriceOracle",
          "type": "address"
        }
      ],
      "name": "PriceOracleUpdated",
      "type": "event"
    },
    {
      "constant": true,
      "inputs": [
        {
          "internalType": "address",
          "name": "",
          "type": "address"
        },
        {
          "internalType": "uint256",
          "name": "",
          "type": "uint256"
        }
      ],
      "name": "borrowerLoans",
      "outputs": [
        {
          "internalType": "uint256",
          "name": "",
          "type": "uint256"
        }
      ],
      "payable": false,
      "stateMutability": "view",
      "type": "function"
    },
    {
      "constant": true,
      "inputs": [
        {
          "internalType": "uint256",
          "name": "loanID",
          "type": "uint256"
        }
      ],
      "name": "canLiquidateLoan",
      "outputs": [
        {
          "internalType": "bool",
          "name": "",
          "type": "bool"
        }
      ],
      "payable": false,
      "stateMutability": "view",
      "type": "function"
    },
    {
      "constant": true,
      "inputs": [],
      "name": "collateralToken",
      "outputs": [
        {
          "internalType": "address",
          "name": "",
          "type": "address"
        }
      ],
      "payable": false,
      "stateMutability": "view",
      "type": "function"
    },
    {
      "constant": true,
      "inputs": [],
      "name": "consts",
      "outputs": [
        {
          "internalType": "contract SettingsConsts",
          "name": "",
          "type": "address"
        }
      ],
      "payable": false,
      "stateMutability": "view",
      "type": "function"
    },
    {
      "constant": true,
      "inputs": [
        {
          "internalType": "address",
          "name": "borrower",
          "type": "address"
        }
      ],
      "name": "getBorrowerLoans",
      "outputs": [
        {
          "internalType": "uint256[]",
          "name": "",
          "type": "uint256[]"
        }
      ],
      "payable": false,
      "stateMutability": "view",
      "type": "function"
    },
    {
      "constant": true,
      "inputs": [
        {
          "internalType": "uint256",
          "name": "loanID",
          "type": "uint256"
        }
      ],
      "name": "getCollateralInfo",
      "outputs": [
        {
          "components": [
            {
              "internalType": "uint256",
              "name": "collateral",
              "type": "uint256"
            },
            {
              "internalType": "uint256",
              "name": "neededInLendingTokens",
              "type": "uint256"
            },
            {
              "internalType": "uint256",
              "name": "neededInCollateralTokens",
              "type": "uint256"
            },
            {
              "internalType": "bool",
              "name": "moreCollateralRequired",
              "type": "bool"
            }
          ],
          "internalType": "struct TellerCommon.LoanCollateralInfo",
          "name": "",
          "type": "tuple"
        }
      ],
      "payable": false,
      "stateMutability": "view",
      "type": "function"
    },
    {
      "constant": true,
      "inputs": [
        {
          "internalType": "uint256",
          "name": "loanID",
          "type": "uint256"
        }
      ],
      "name": "getTotalOwed",
      "outputs": [
        {
          "internalType": "uint256",
          "name": "",
          "type": "uint256"
        }
      ],
      "payable": false,
      "stateMutability": "view",
      "type": "function"
    },
    {
      "constant": true,
      "inputs": [],
      "name": "initialized",
      "outputs": [
        {
          "internalType": "bool",
          "name": "value",
          "type": "bool"
        }
      ],
      "payable": false,
      "stateMutability": "view",
      "type": "function"
    },
    {
      "constant": true,
      "inputs": [],
      "name": "lendingPool",
      "outputs": [
        {
          "internalType": "contract LendingPoolInterface",
          "name": "",
          "type": "address"
        }
      ],
      "payable": false,
      "stateMutability": "view",
      "type": "function"
    },
    {
      "constant": true,
      "inputs": [],
      "name": "lendingToken",
      "outputs": [
        {
          "internalType": "address",
          "name": "",
          "type": "address"
        }
      ],
      "payable": false,
      "stateMutability": "view",
      "type": "function"
    },
    {
      "constant": false,
      "inputs": [
        {
          "internalType": "uint256",
          "name": "loanID",
          "type": "uint256"
        }
      ],
      "name": "liquidateLoan",
      "outputs": [],
      "payable": false,
      "stateMutability": "nonpayable",
      "type": "function"
    },
    {
      "constant": true,
      "inputs": [],
      "name": "loanIDCounter",
      "outputs": [
        {
          "internalType": "uint256",
          "name": "",
          "type": "uint256"
        }
      ],
      "payable": false,
      "stateMutability": "view",
      "type": "function"
    },
    {
      "constant": true,
      "inputs": [],
      "name": "loanTermsConsensus",
      "outputs": [
        {
          "internalType": "contract LoanTermsConsensusInterface",
          "name": "",
          "type": "address"
        }
      ],
      "payable": false,
      "stateMutability": "view",
      "type": "function"
    },
    {
      "constant": true,
      "inputs": [
        {
          "internalType": "uint256",
          "name": "",
          "type": "uint256"
        }
      ],
      "name": "loans",
      "outputs": [
        {
          "internalType": "uint256",
          "name": "id",
          "type": "uint256"
        },
        {
          "components": [
            {
              "internalType": "address payable",
              "name": "borrower",
              "type": "address"
            },
            {
              "internalType": "address",
              "name": "recipient",
              "type": "address"
            },
            {
              "internalType": "uint256",
              "name": "interestRate",
              "type": "uint256"
            },
            {
              "internalType": "uint256",
              "name": "collateralRatio",
              "type": "uint256"
            },
            {
              "internalType": "uint256",
              "name": "maxLoanAmount",
              "type": "uint256"
            },
            {
              "internalType": "uint256",
              "name": "duration",
              "type": "uint256"
            }
          ],
          "internalType": "struct TellerCommon.LoanTerms",
          "name": "loanTerms",
          "type": "tuple"
        },
        {
          "internalType": "uint256",
          "name": "termsExpiry",
          "type": "uint256"
        },
        {
          "internalType": "uint256",
          "name": "loanStartTime",
          "type": "uint256"
        },
        {
          "internalType": "uint256",
          "name": "collateral",
          "type": "uint256"
        },
        {
          "internalType": "uint256",
          "name": "lastCollateralIn",
          "type": "uint256"
        },
        {
          "internalType": "uint256",
          "name": "principalOwed",
          "type": "uint256"
        },
        {
          "internalType": "uint256",
          "name": "interestOwed",
          "type": "uint256"
        },
        {
          "internalType": "uint256",
          "name": "borrowedAmount",
          "type": "uint256"
        },
        {
          "internalType": "address",
          "name": "escrow",
          "type": "address"
        },
        {
          "internalType": "enum TellerCommon.LoanStatus",
          "name": "status",
          "type": "uint8"
        },
        {
          "internalType": "bool",
          "name": "liquidated",
          "type": "bool"
        }
      ],
      "payable": false,
      "stateMutability": "view",
      "type": "function"
    },
    {
      "constant": true,
      "inputs": [],
      "name": "priceOracle",
      "outputs": [
        {
          "internalType": "address",
          "name": "",
          "type": "address"
        }
      ],
      "payable": false,
      "stateMutability": "view",
      "type": "function"
    },
    {
      "constant": false,
      "inputs": [
        {
          "internalType": "uint256",
          "name": "amount",
          "type": "uint256"
        },
        {
          "internalType": "uint256",
          "name": "loanID",
          "type": "uint256"
        }
      ],
      "name": "repay",
      "outputs": [],
      "payable": false,
      "stateMutability": "nonpayable",
      "type": "function"
    },
    {
      "constant": false,
      "inputs": [
        {
          "internalType": "address",
          "name": "newPriceOracle",
          "type": "address"
        }
      ],
      "name": "setPriceOracle",
      "outputs": [],
      "payable": false,
      "stateMutability": "nonpayable",
      "type": "function"
    },
    {
      "constant": true,
      "inputs": [],
      "name": "settings",
      "outputs": [
        {
          "internalType": "contract SettingsInterface",
          "name": "",
          "type": "address"
        }
      ],
      "payable": false,
      "stateMutability": "view",
      "type": "function"
    },
    {
      "constant": false,
      "inputs": [
        {
          "internalType": "uint256",
          "name": "loanID",
          "type": "uint256"
        },
        {
          "internalType": "uint256",
          "name": "amountBorrow",
          "type": "uint256"
        }
      ],
      "name": "takeOutLoan",
      "outputs": [],
      "payable": false,
      "stateMutability": "nonpayable",
      "type": "function"
    },
    {
      "constant": true,
      "inputs": [],
      "name": "totalCollateral",
      "outputs": [
        {
          "internalType": "uint256",
          "name": "",
          "type": "uint256"
        }
      ],
      "payable": false,
      "stateMutability": "view",
      "type": "function"
    },
    {
      "constant": false,
      "inputs": [
        {
          "internalType": "uint256",
          "name": "amount",
          "type": "uint256"
        },
        {
          "internalType": "uint256",
          "name": "loanID",
          "type": "uint256"
        }
      ],
      "name": "withdrawCollateral",
      "outputs": [],
      "payable": false,
      "stateMutability": "nonpayable",
      "type": "function"
    },
    {
      "constant": false,
      "inputs": [
        {
          "internalType": "address",
          "name": "borrower",
          "type": "address"
        },
        {
          "internalType": "uint256",
          "name": "loanID",
          "type": "uint256"
        },
        {
          "internalType": "uint256",
          "name": "amount",
          "type": "uint256"
        }
      ],
      "name": "depositCollateral",
      "outputs": [],
      "payable": true,
      "stateMutability": "payable",
      "type": "function"
    },
    {
      "constant": false,
      "inputs": [
        {
          "components": [
            {
              "internalType": "address payable",
              "name": "borrower",
              "type": "address"
            },
            {
              "internalType": "address",
              "name": "recipient",
              "type": "address"
            },
            {
              "internalType": "address",
              "name": "consensusAddress",
              "type": "address"
            },
            {
              "internalType": "uint256",
              "name": "requestNonce",
              "type": "uint256"
            },
            {
              "internalType": "uint256",
              "name": "amount",
              "type": "uint256"
            },
            {
              "internalType": "uint256",
              "name": "duration",
              "type": "uint256"
            },
            {
              "internalType": "uint256",
              "name": "requestTime",
              "type": "uint256"
            }
          ],
          "internalType": "struct TellerCommon.LoanRequest",
          "name": "request",
          "type": "tuple"
        },
        {
          "components": [
            {
              "internalType": "address",
              "name": "signer",
              "type": "address"
            },
            {
              "internalType": "address",
              "name": "consensusAddress",
              "type": "address"
            },
            {
              "internalType": "uint256",
              "name": "responseTime",
              "type": "uint256"
            },
            {
              "internalType": "uint256",
              "name": "interestRate",
              "type": "uint256"
            },
            {
              "internalType": "uint256",
              "name": "collateralRatio",
              "type": "uint256"
            },
            {
              "internalType": "uint256",
              "name": "maxLoanAmount",
              "type": "uint256"
            },
            {
              "components": [
                {
                  "internalType": "uint256",
                  "name": "signerNonce",
                  "type": "uint256"
                },
                {
                  "internalType": "uint8",
                  "name": "v",
                  "type": "uint8"
                },
                {
                  "internalType": "bytes32",
                  "name": "r",
                  "type": "bytes32"
                },
                {
                  "internalType": "bytes32",
                  "name": "s",
                  "type": "bytes32"
                }
              ],
              "internalType": "struct TellerCommon.Signature",
              "name": "signature",
              "type": "tuple"
            }
          ],
          "internalType": "struct TellerCommon.LoanResponse[]",
          "name": "responses",
          "type": "tuple[]"
        },
        {
          "internalType": "uint256",
          "name": "collateralAmount",
          "type": "uint256"
        }
      ],
      "name": "createLoanWithTerms",
      "outputs": [],
      "payable": true,
      "stateMutability": "payable",
      "type": "function"
    },
    {
      "constant": false,
      "inputs": [
        {
          "internalType": "address",
          "name": "priceOracleAddress",
          "type": "address"
        },
        {
          "internalType": "address",
          "name": "lendingPoolAddress",
          "type": "address"
        },
        {
          "internalType": "address",
          "name": "loanTermsConsensusAddress",
          "type": "address"
        },
        {
          "internalType": "address",
          "name": "settingsAddress",
          "type": "address"
        },
        {
          "internalType": "address",
          "name": "",
          "type": "address"
        }
      ],
      "name": "initialize",
      "outputs": [],
      "payable": false,
      "stateMutability": "nonpayable",
      "type": "function"
    },
    {
      "constant": false,
      "inputs": [],
      "name": "initialize",
      "outputs": [],
      "payable": false,
      "stateMutability": "nonpayable",
      "type": "function"
    }
  ],
  "bytecode": "0x608060405234801561001057600080fd5b50614c49806100206000396000f3fe6080604052600436106101665760003560e01c80638129fc1c116100d1578063ccdd9f5d1161008a578063e06174e411610064578063e06174e4146103cf578063e1ec3c68146103e4578063e3ed19021461041c578063eee8b7ff1461043c57610166565b8063ccdd9f5d1461037a578063d86d744e1461039a578063d8aed145146103af57610166565b80638129fc1c146102e6578063934b5d13146102fb578063a59a997314610328578063a5c5c7b21461033d578063aaaca55814610350578063b2016bd41461036557610166565b80634ac8eb5f116101235780634ac8eb5f1461023a578063513484541461024f578063530e784f1461026457806358895e3d146102845780636948f32b146102a6578063767a7b05146102c657610166565b806302bc2cdb1461016b5780631459457a1461018d578063158ef93e146101ad5780631a74856b146101d85780632630c12f146101eb5780633b9293001461020d575b600080fd5b34801561017757600080fd5b5061018b610186366004613970565b610469565b005b34801561019957600080fd5b5061018b6101a8366004613772565b610ae8565b3480156101b957600080fd5b506101c2610bb8565b6040516101cf919061451e565b60405180910390f35b61018b6101e6366004613821565b610bd7565b3480156101f757600080fd5b50610200610d98565b6040516101cf9190614478565b34801561021957600080fd5b5061022d610228366004613952565b610da7565b6040516101cf919061452c565b34801561024657600080fd5b5061022d610dd7565b34801561025b57600080fd5b5061022d610ddd565b34801561027057600080fd5b5061018b61027f366004613736565b610de3565b34801561029057600080fd5b50610299610f41565b6040516101cf919061453a565b3480156102b257600080fd5b506101c26102c1366004613952565b610f50565b3480156102d257600080fd5b5061018b6102e1366004613970565b6110a9565b3480156102f257600080fd5b5061018b6112c2565b34801561030757600080fd5b5061031b610316366004613952565b61134a565b6040516101cf9190614729565b34801561033457600080fd5b5061029961135b565b61018b61034b3660046138c8565b61136a565b34801561035c57600080fd5b506102006118f1565b34801561037157600080fd5b50610200611973565b34801561038657600080fd5b5061018b610395366004613952565b611982565b3480156103a657600080fd5b50610299611ccb565b3480156103bb57600080fd5b5061018b6103ca366004613970565b611cda565b3480156103db57600080fd5b506102996120e0565b3480156103f057600080fd5b506104046103ff366004613952565b612102565b6040516101cf9c9b9a9998979695949392919061479d565b34801561042857600080fd5b5061022d6104373660046137e7565b6121ba565b34801561044857600080fd5b5061045c610457366004613736565b6121e8565b6040516101cf919061450d565b8160016000828152606d60205260409020600e0154600160a01b900460ff16600381111561049357fe5b146104b95760405162461bcd60e51b81526004016104b0906146f9565b60405180910390fd5b6104c1610bb8565b6104dd5760405162461bcd60e51b81526004016104b0906146e9565b6104e5612254565b156105025760405162461bcd60e51b81526004016104b090614629565b606a546001600160a01b0316610517816122ce565b156105345760405162461bcd60e51b81526004016104b090614579565b603380546001908101918290556000868152606d6020526040902001546001600160a01b03163381146105795760405162461bcd60e51b81526004016104b0906146b9565b6000868152606d60205260409020600501548511156105aa5760405162461bcd60e51b81526004016104b090614599565b6000868152606d60205260409020600701544211156105db5760405162461bcd60e51b81526004016104b090614669565b6106f36105e66120e0565b6001600160a01b031663269012a0606e60009054906101000a90046001600160a01b03166001600160a01b03166311880cc86040518163ffffffff1660e01b815260040160206040518083038186803b15801561064257600080fd5b505afa158015610656573d6000803e3d6000fd5b505050506040513d601f19601f8201168201806040525061067a919081019061388c565b6040518263ffffffff1660e01b8152600401610696919061452c565b60206040518083038186803b1580156106ae57600080fd5b505afa1580156106c2573d6000803e3d6000fd5b505050506040513d601f19601f820116820180604052506106e6919081019061388c565b429063ffffffff61235316565b6000878152606d60205260409020600a015411156107235760405162461bcd60e51b81526004016104b090614659565b6000868152606d60205260409020600d8101869055600b81018690556006810154600390910154610787916237b1d09161077b916127109183919061076f908c9063ffffffff61239e16565b9063ffffffff61239e16565b9063ffffffff6123d816565b6000878152606d60205260409020600c01556107a16134d7565b6107aa8761241a565b90508060600151156107ce5760405162461bcd60e51b81526004016104b090614639565b6000878152606d60205260409020426008820155600e01805460ff60a01b1916600160a11b1790556107ff8761246b565b6000888152606d602052604090819020600e0180546001600160a01b0319166001600160a01b039384161790819055606a549151631397424760e11b81529183169263272e848e92610857928b921690600401614759565b600060405180830381600087803b15801561087157600080fd5b505af1158015610885573d6000803e3d6000fd5b5050506000888152606d602052604090819020600e0154905163cd6dc68760e01b81526001600160a01b03909116915063cd6dc687906108cb9030908b906004016144f2565b600060405180830381600087803b1580156108e557600080fd5b505af11580156108f9573d6000803e3d6000fd5b50505050610905612564565b6001600160a01b031663c7bbb113606a60009054906101000a90046001600160a01b03166001600160a01b031663aaaca5586040518163ffffffff1660e01b815260040160206040518083038186803b15801561096157600080fd5b505afa158015610975573d6000803e3d6000fd5b505050506040513d601f19601f820116820180604052506109999190810190613754565b306001600160a01b031663b2016bd46040518163ffffffff1660e01b815260040160206040518083038186803b1580156109d257600080fd5b505afa1580156109e6573d6000803e3d6000fd5b505050506040513d601f19601f82011682018060405250610a0a9190810190613754565b896040518463ffffffff1660e01b8152600401610a29939291906144d7565b600060405180830381600087803b158015610a4357600080fd5b505af1158015610a57573d6000803e3d6000fd5b5050506000888152606d602052604090819020600e81015460019091015491516001600160a01b03918216935091169089907f85b5516a17ce775661a4b967b1fb30c852678f6598d86d9f3c99b7b60ff2d0ce90610ab6908b9061452c565b60405180910390a450506033548114610ae15760405162461bcd60e51b81526004016104b090614709565b5050505050565b610af0610bb8565b15610b0d5760405162461bcd60e51b81526004016104b090614719565b610b19858585856125de565b610b216120e0565b6001600160a01b031663a734f06e6040518163ffffffff1660e01b815260040160206040518083038186803b158015610b5957600080fd5b505afa158015610b6d573d6000803e3d6000fd5b505050506040513d601f19601f82011682018060405250610b919190810190613754565b606780546001600160a01b0319166001600160a01b03929092169190911790555050505050565b600080604051610bc790614462565b6040519081900390205492915050565b8160016000828152606d60205260409020600e0154600160a01b900460ff166003811115610c0157fe5b1480610c33575060026000828152606d60205260409020600e0154600160a01b900460ff166003811115610c3157fe5b145b610c4f5760405162461bcd60e51b81526004016104b0906145d9565b610c57610bb8565b610c735760405162461bcd60e51b81526004016104b0906146e9565b610c7b612254565b15610c985760405162461bcd60e51b81526004016104b090614629565b606a546001600160a01b0316610cad816122ce565b15610cca5760405162461bcd60e51b81526004016104b090614579565b6000848152606d60205260409020600101546001600160a01b03868116911614610d065760405162461bcd60e51b81526004016104b0906145b9565b823414610d255760405162461bcd60e51b81526004016104b0906145c9565b60003411610d455760405162461bcd60e51b81526004016104b090614699565b610d4f848461277b565b846001600160a01b0316847feec2f3feb835e2f2fd44281034b04700a1ddda63dd402949d470a25a7c40b36c85604051610d89919061452c565b60405180910390a35050505050565b6069546001600160a01b031681565b6000818152606d60205260408120600b810154600c90910154610dcf9163ffffffff6127d416565b90505b919050565b60665481565b60685481565b610deb610bb8565b610e075760405162461bcd60e51b81526004016104b0906146e9565b610e0f6120e0565b6001600160a01b031663c095ea27336040518263ffffffff1660e01b8152600401610e3a9190614486565b60006040518083038186803b158015610e5257600080fd5b505afa158015610e66573d6000803e3d6000fd5b50505050610e7c816001600160a01b03166127f9565b610e985760405162461bcd60e51b81526004016104b0906146a9565b60695460408051808201909152601b81527f4e45575f4f5241434c455f4d5553545f42455f50524f5649444544000000000060208201526001600160a01b0390911690610eee908290849063ffffffff61283516565b606980546001600160a01b0319166001600160a01b03848116918217909255604051909183169033907ff51f0fffc8121ee3747e0536c487d894894cdba960ccfb4ab385a88d51b16fed90600090a45050565b606b546001600160a01b031681565b6000610f5a612254565b80610f755750606a54610f75906001600160a01b03166122ce565b80610fa7575060026000838152606d60205260409020600e0154600160a01b900460ff166003811115610fa457fe5b14155b15610fb457506000610dd2565b6000828152606d602052604081206008810154600690910154909142610fe0848463ffffffff6127d416565b1090508015610ff55760019350505050610dd2565b6000858152606d60205260409020600e01546001600160a01b0316801561109257806001600160a01b031663415dfa5b6040518163ffffffff1660e01b815260040160206040518083038186803b15801561104f57600080fd5b505afa158015611063573d6000803e3d6000fd5b505050506040513d601f19601f82011682018060405250611087919081019061386e565b945050505050610dd2565b61109b8661241a565b606001519695505050505050565b8060016000828152606d60205260409020600e0154600160a01b900460ff1660038111156110d357fe5b1480611105575060026000828152606d60205260409020600e0154600160a01b900460ff16600381111561110357fe5b145b6111215760405162461bcd60e51b81526004016104b0906145d9565b611129610bb8565b6111455760405162461bcd60e51b81526004016104b0906146e9565b61114d612254565b1561116a5760405162461bcd60e51b81526004016104b090614629565b606a546001600160a01b031661117f816122ce565b1561119c5760405162461bcd60e51b81526004016104b090614579565b603380546001908101918290556000858152606d6020526040902001546001600160a01b031633146111e05760405162461bcd60e51b81526004016104b0906146c9565b600085116112005760405162461bcd60e51b81526004016104b090614619565b600061120b8561285e565b9050600061121882612895565b6000878152606d60205260408120600901549192509061123e908363ffffffff61235316565b90508781111561124b5750865b801561125c5761125c8782336129da565b336001600160a01b0316877f7c5e5cb62e5ed3caf3764e4b0afedfedef533e27809d43367799787ad2abcd4183604051611296919061452c565b60405180910390a35050506033548114610ae15760405162461bcd60e51b81526004016104b090614709565b600054610100900460ff16806112db57506112db612a5b565b806112e9575060005460ff16155b6113055760405162461bcd60e51b81526004016104b090614679565b600054610100900460ff16158015611330576000805460ff1961ff0019909116610100171660011790555b60016033558015611347576000805461ff00191690555b50565b6113526134d7565b610dcf8261241a565b606a546001600160a01b031681565b611372610bb8565b61138e5760405162461bcd60e51b81526004016104b0906146e9565b611396612254565b156113b35760405162461bcd60e51b81526004016104b090614629565b6113c06020850185613736565b336001600160a01b038216146113e85760405162461bcd60e51b81526004016104b0906146b9565b6113f736869003860186613934565b8060a001516114046120e0565b6001600160a01b031663269012a0606e60009054906101000a90046001600160a01b03166001600160a01b031663cc44cadb6040518163ffffffff1660e01b815260040160206040518083038186803b15801561146057600080fd5b505afa158015611474573d6000803e3d6000fd5b505050506040513d601f19601f82011682018060405250611498919081019061388c565b6040518263ffffffff1660e01b81526004016114b4919061452c565b60206040518083038186803b1580156114cc57600080fd5b505afa1580156114e0573d6000803e3d6000fd5b505050506040513d601f19601f82011682018060405250611504919081019061388c565b10156115225760405162461bcd60e51b81526004016104b090614559565b61152a6120e0565b6001600160a01b03166369ff7744606a60009054906101000a90046001600160a01b03166001600160a01b031663aaaca5586040518163ffffffff1660e01b815260040160206040518083038186803b15801561158657600080fd5b505afa15801561159a573d6000803e3d6000fd5b505050506040513d601f19601f820116820180604052506115be9190810190613754565b83608001516040518363ffffffff1660e01b81526004016115e09291906144f2565b60206040518083038186803b1580156115f857600080fd5b505afa15801561160c573d6000803e3d6000fd5b505050506040513d601f19601f82011682018060405250611630919081019061386e565b1561164d5760405162461bcd60e51b81526004016104b090614589565b61165a8160800151612a61565b6116765760405162461bcd60e51b81526004016104b0906146d9565b8234146116955760405162461bcd60e51b81526004016104b0906145c9565b600061169f612dd1565b606b5460405163064e5d4960e01b8152919250600091829182916001600160a01b039091169063064e5d49906116dd908d908d908d90600401614737565b606060405180830381600087803b1580156116f757600080fd5b505af115801561170b573d6000803e3d6000fd5b505050506040513d601f19601f8201168201806040525061172f919081019061398f565b9194509250905061175184611749368d90038d018d613934565b858585612ddf565b6000858152606d6020908152604091829020835181558382015180516001830180546001600160a01b03199081166001600160a01b0393841617909155938201516002840180548616918316919091179055818501516003808501919091556060808401516004860155608080850151600587015560a0948501516006870155968801516007860155870151600885015594860151600984015590850151600a83015560c0850151600b83015560e0850151600c830155610100850151600d830155610120850151600e83018054909416911617808355610140850151919391929160ff60a01b1990911690600160a01b90849081111561184e57fe5b02179055506101609190910151600e9091018054911515600160a81b0260ff60a81b19909216919091179055341561188a5761188a843461277b565b606c600061189b60208d018d613736565b6001600160a01b0316815260208082019290925260400160009081208054600181018255908252919020018490556118e5846118dc368d90038d018d613934565b85858534612fc7565b50505050505050505050565b606a546040805163155594ab60e31b815290516000926001600160a01b03169163aaaca558916004808301926020929190829003018186803b15801561193657600080fd5b505afa15801561194a573d6000803e3d6000fd5b505050506040513d601f19601f8201168201806040525061196e9190810190613754565b905090565b6067546001600160a01b031681565b8060026000828152606d60205260409020600e0154600160a01b900460ff1660038111156119ac57fe5b146119c95760405162461bcd60e51b81526004016104b090614609565b6119d1610bb8565b6119ed5760405162461bcd60e51b81526004016104b0906146e9565b6119f5612254565b15611a125760405162461bcd60e51b81526004016104b090614629565b606a546001600160a01b0316611a27816122ce565b15611a445760405162461bcd60e51b81526004016104b090614579565b6033805460010190819055611a5884610f50565b611a745760405162461bcd60e51b81526004016104b0906145f9565b6000848152606d60205260408120600e8101805460ff60a01b1916600360a01b1760ff60a81b1916600160a81b1790556009015490611ab282613092565b9050611abf8683336129da565b6000611bdf61271061077b611ad26120e0565b6001600160a01b031663269012a0606e60009054906101000a90046001600160a01b03166001600160a01b0316631139087a6040518163ffffffff1660e01b815260040160206040518083038186803b158015611b2e57600080fd5b505afa158015611b42573d6000803e3d6000fd5b505050506040513d601f19601f82011682018060405250611b66919081019061388c565b6040518263ffffffff1660e01b8152600401611b82919061452c565b60206040518083038186803b158015611b9a57600080fd5b505afa158015611bae573d6000803e3d6000fd5b505050506040513d601f19601f82011682018060405250611bd2919081019061388c565b859063ffffffff61239e16565b606a546040516382f7b02760e01b81529192506001600160a01b0316906382f7b02790611c129084903390600401614767565b600060405180830381600087803b158015611c2c57600080fd5b505af1158015611c40573d6000803e3d6000fd5b5050506000888152606d6020526040908190206001015490516001600160a01b03909116915088907f9950a0562c02382e2e840daa73082d5be7660ce37601f28fa4c84089c11e8a0690611c9990339088908790614494565b60405180910390a35050506033548114611cc55760405162461bcd60e51b81526004016104b090614709565b50505050565b606e546001600160a01b031681565b8060026000828152606d60205260409020600e0154600160a01b900460ff166003811115611d0457fe5b14611d215760405162461bcd60e51b81526004016104b090614609565b611d29610bb8565b611d455760405162461bcd60e51b81526004016104b0906146e9565b611d4d612254565b15611d6a5760405162461bcd60e51b81526004016104b090614629565b606a546001600160a01b0316611d7f816122ce565b15611d9c5760405162461bcd60e51b81526004016104b090614579565b603380546001019081905584611dc45760405162461bcd60e51b81526004016104b090614569565b846000611dd086610da7565b905081811015611dde578091505b611dee818363ffffffff61235316565b9050611dfa8683613188565b80611e9e576000868152606d60205260409020600e8101805460ff60a01b1916600360a01b1790556009810154600190910154611e4390889083906001600160a01b03166129da565b6000878152606d6020526040908190206001015490516001600160a01b039091169088907f7c5e5cb62e5ed3caf3764e4b0afedfedef533e27809d43367799787ad2abcd4190611e9490859061452c565b60405180910390a3505b606a5460405163acb7081560e01b81526001600160a01b039091169063acb7081590611ed09085903390600401614767565b600060405180830381600087803b158015611eea57600080fd5b505af1158015611efe573d6000803e3d6000fd5b50505050611f0a612564565b6001600160a01b03166362e269ef606a60009054906101000a90046001600160a01b03166001600160a01b031663aaaca5586040518163ffffffff1660e01b815260040160206040518083038186803b158015611f6657600080fd5b505afa158015611f7a573d6000803e3d6000fd5b505050506040513d601f19601f82011682018060405250611f9e9190810190613754565b306001600160a01b031663b2016bd46040518163ffffffff1660e01b815260040160206040518083038186803b158015611fd757600080fd5b505afa158015611feb573d6000803e3d6000fd5b505050506040513d601f19601f8201168201806040525061200f9190810190613754565b856040518463ffffffff1660e01b815260040161202e939291906144d7565b600060405180830381600087803b15801561204857600080fd5b505af115801561205c573d6000803e3d6000fd5b5050506000878152606d6020526040908190206001015490516001600160a01b03909116915087907f20a1f2ec363af45dc5ee7d9d622f2dd68b52501c382126c7f04b53663c4c69bf906120b590869033908790614782565b60405180910390a350506033548114610ae15760405162461bcd60e51b81526004016104b090614709565b60008060006040516120f19061446d565b604051908190039020549250505090565b606d602090815260009182526040918290208054835160c08101855260018301546001600160a01b03908116825260028401548116948201949094526003830154948101949094526004820154606085015260058201546080850152600682015460a0850152600782015460088301546009840154600a850154600b860154600c870154600d880154600e9098015496999895979496939592949193909281169060ff600160a01b8204811691600160a81b9004168c565b606c60205281600052604060002081815481106121d357fe5b90600052602060002001600091509150505481565b6001600160a01b0381166000908152606c602090815260409182902080548351818402810184019094528084526060939283018282801561224857602002820191906000526020600020905b815481526020019060010190808311612234575b50505050509050919050565b600061225e6120e0565b6001600160a01b031663b187bd266040518163ffffffff1660e01b815260040160206040518083038186803b15801561229657600080fd5b505afa1580156122aa573d6000803e3d6000fd5b505050506040513d601f19601f8201168201806040525061196e919081019061386e565b60006122d86120e0565b6001600160a01b0316633b668321836040518263ffffffff1660e01b81526004016123039190614478565b60206040518083038186803b15801561231b57600080fd5b505afa15801561232f573d6000803e3d6000fd5b505050506040513d601f19601f82011682018060405250610dcf919081019061386e565b600061239583836040518060400160405280601e81526020017f536166654d6174683a207375627472616374696f6e206f766572666c6f770000815250613244565b90505b92915050565b6000826123ad57506000612398565b828202828482816123ba57fe5b04146123955760405162461bcd60e51b81526004016104b090614649565b600061239583836040518060400160405280601a81526020017f536166654d6174683a206469766973696f6e206279207a65726f000000000000815250613275565b6124226134d7565b6000828152606d6020526040812060090154908061243f856132ac565b604080516080810182528681526020810193909352820181905293909311606084015250909392505050565b60006124756120e0565b6001600160a01b031663bdd1daaa6040518163ffffffff1660e01b815260040160206040518083038186803b1580156124ad57600080fd5b505afa1580156124c1573d6000803e3d6000fd5b505050506040513d601f19601f820116820180604052506124e591908101906138aa565b6001600160a01b0316634614874e30846040518363ffffffff1660e01b81526004016125129291906144f2565b602060405180830381600087803b15801561252c57600080fd5b505af1158015612540573d6000803e3d6000fd5b505050506040513d601f19601f82011682018060405250610dcf9190810190613754565b600061256e6120e0565b6001600160a01b0316631390f8d76040518163ffffffff1660e01b815260040160206040518083038186803b1580156125a657600080fd5b505afa1580156125ba573d6000803e3d6000fd5b505050506040513d601f19601f8201168201806040525061196e91908101906138aa565b6125e6610bb8565b156126035760405162461bcd60e51b81526004016104b090614719565b60408051808201909152601681527550524f564944455f4f5241434c455f4144445245535360501b602082015261264a906001600160a01b0386169063ffffffff6132d016565b60408051808201909152601c81527f50524f564944455f4c454e44494e475f504f4f4c5f41444452455353000000006020820152612698906001600160a01b0385169063ffffffff6132d016565b60408051808201909152601b81527f50524f56494445445f4c4f414e5f5445524d535f41444452455353000000000060208201526126e6906001600160a01b0384169063ffffffff6132d016565b6126ef816132fd565b606980546001600160a01b038087166001600160a01b031992831617909255606a8054868416908316179055606b80549285169290911691909117905560405161273890613501565b604051809103906000f080158015612754573d6000803e3d6000fd5b50606e80546001600160a01b0319166001600160a01b039290921691909117905550505050565b60665461278e908263ffffffff6127d416565b6066556000828152606d60205260409020600901546127b3908263ffffffff6127d416565b6000928352606d602052604090922060098101929092555042600a90910155565b6000828201838110156123955760405162461bcd60e51b81526004016104b0906145a9565b6000813f7fc5d2460186f7233c927e7db2dcc703c0e500b653ca82273b7bfad8045d85a47081811480159061282d57508115155b949350505050565b61283f83836133af565b8190611cc55760405162461bcd60e51b81526004016104b09190614548565b60008061286a83610da7565b6000848152606d602052604090206004015490915061282d61271061077b848463ffffffff61239e16565b60008061292f606a60009054906101000a90046001600160a01b03166001600160a01b031663aaaca5586040518163ffffffff1660e01b815260040160206040518083038186803b1580156128e957600080fd5b505afa1580156128fd573d6000803e3d6000fd5b505050506040513d601f19601f820116820180604052506129219190810190613754565b6001600160a01b03166133c1565b90506000606960009054906101000a90046001600160a01b03166001600160a01b03166396237c026040518163ffffffff1660e01b815260040160206040518083038186803b15801561298157600080fd5b505afa158015612995573d6000803e3d6000fd5b505050506040513d601f19601f820116820180604052506129b9919081019061388c565b905060006129d18361077b878563ffffffff61239e16565b95945050505050565b6066546129ed908363ffffffff61235316565b6066556000838152606d6020526040902060090154612a12908363ffffffff61235316565b6000848152606d60205260408082206009019290925590516001600160a01b0383169184156108fc02918591818181858888f19350505050158015611cc5573d6000803e3d6000fd5b303b1590565b600080612a6c6120e0565b6001600160a01b031663dc21a6a06040518163ffffffff1660e01b815260040160206040518083038186803b158015612aa457600080fd5b505afa158015612ab8573d6000803e3d6000fd5b505050506040513d601f19601f82011682018060405250612adc91908101906138aa565b6001600160a01b0316631fb7cec9606a60009054906101000a90046001600160a01b03166001600160a01b031663aaaca5586040518163ffffffff1660e01b815260040160206040518083038186803b158015612b3857600080fd5b505afa158015612b4c573d6000803e3d6000fd5b505050506040513d601f19601f82011682018060405250612b709190810190613754565b6067546040516001600160e01b031960e085901b168152612b9e92916001600160a01b0316906004016144bc565b60206040518083038186803b158015612bb657600080fd5b505afa158015612bca573d6000803e3d6000fd5b505050506040513d601f19601f82011682018060405250612bee9190810190613754565b90506001600160a01b038116612c165760405162461bcd60e51b81526004016104b090614689565b604051632319178560e11b81526000906001600160a01b038316906346322f0a90612c54906b14dd5c1c1b1e551bd119589d60a21b9060040161452c565b60206040518083038186803b158015612c6c57600080fd5b505afa158015612c80573d6000803e3d6000fd5b505050506040513d601f19601f82011682018060405250612ca4919081019061388c565b90506000612cb0612564565b6001600160a01b031663db63323e606a60009054906101000a90046001600160a01b03166001600160a01b031663aaaca5586040518163ffffffff1660e01b815260040160206040518083038186803b158015612d0c57600080fd5b505afa158015612d20573d6000803e3d6000fd5b505050506040513d601f19601f82011682018060405250612d449190810190613754565b6067546040516001600160e01b031960e085901b168152612d7492916001600160a01b0316908a906004016144d7565b60206040518083038186803b158015612d8c57600080fd5b505afa158015612da0573d6000803e3d6000fd5b505050506040513d601f19601f82011682018060405250612dc4919081019061388c565b9190911115949350505050565b606880546001810190915590565b612de761350e565b6000612f01612df46120e0565b6001600160a01b031663269012a0606e60009054906101000a90046001600160a01b03166001600160a01b031663e00a46156040518163ffffffff1660e01b815260040160206040518083038186803b158015612e5057600080fd5b505afa158015612e64573d6000803e3d6000fd5b505050506040513d601f19601f82011682018060405250612e88919081019061388c565b6040518263ffffffff1660e01b8152600401612ea4919061452c565b60206040518083038186803b158015612ebc57600080fd5b505afa158015612ed0573d6000803e3d6000fd5b505050506040513d601f19601f82011682018060405250612ef4919081019061388c565b429063ffffffff6127d416565b90506040518061018001604052808881526020016040518060c0016040528089600001516001600160a01b0316815260200189602001516001600160a01b031681526020018881526020018781526020018681526020018960a00151815250815260200182815260200160008152602001600081526020016000815260200160008152602001600081526020016000815260200160006001600160a01b0316815260200160016003811115612fb257fe5b81526000602090910152979650505050505050565b84602001516001600160a01b031685600001516001600160a01b0316877f0358f509931cba53bbb6a94b7f05a5178220a0c7ddb54b1a1722df9e6ed6aa098787878b60a00151606d60008f815260200190815260200160002060070154604051613035959493929190614855565b60405180910390a4801561308a5784600001516001600160a01b0316867feec2f3feb835e2f2fd44281034b04700a1ddda63dd402949d470a25a7c40b36c83604051613081919061452c565b60405180910390a35b505050505050565b6000806130e6606a60009054906101000a90046001600160a01b03166001600160a01b031663aaaca5586040518163ffffffff1660e01b815260040160206040518083038186803b1580156128e957600080fd5b90506000606960009054906101000a90046001600160a01b03166001600160a01b03166396237c026040518163ffffffff1660e01b815260040160206040518083038186803b15801561313857600080fd5b505afa15801561314c573d6000803e3d6000fd5b505050506040513d601f19601f82011682018060405250613170919081019061388c565b905060006129d18261077b878663ffffffff61239e16565b6000828152606d60205260409020600b015481111561320b576000828152606d60205260409020600b015481906131c690829063ffffffff61235316565b6000848152606d60205260408120600b810191909155600c01549091506131f3908263ffffffff61235316565b6000848152606d60205260409020600c015550613240565b6000828152606d60205260409020600b015461322d908263ffffffff61235316565b6000838152606d60205260409020600b01555b5050565b600081848411156132685760405162461bcd60e51b81526004016104b09190614548565b50508183035b9392505050565b600081836132965760405162461bcd60e51b81526004016104b09190614548565b5060008385816132a257fe5b0495945050505050565b60008060006132ba8461285e565b9050806132c682612895565b9250925050915091565b6132d982613442565b81906132f85760405162461bcd60e51b81526004016104b09190614548565b505050565b613305610bb8565b156133225760405162461bcd60e51b81526004016104b090614719565b60408051808201909152601981527f53455454494e47535f4d5553545f42455f50524f5649444544000000000000006020820152613370906001600160a01b0383169063ffffffff6132d016565b613382816001600160a01b03166127f9565b61339e5760405162461bcd60e51b81526004016104b0906145e9565b6133a6613450565b6113478161346e565b6001600160a01b039081169116141590565b600080826001600160a01b031663313ce5676040518163ffffffff1660e01b815260040160206040518083038186803b1580156133fd57600080fd5b505afa158015613411573d6000803e3d6000fd5b505050506040513d601f19601f8201168201806040525061343591908101906139d2565b60ff16600a0a9392505050565b6001600160a01b0316151590565b600060405161345e90614462565b6040519081900390206001905550565b60006134786120e0565b6001600160a01b0316146134b957613498816001600160a01b03166127f9565b6134b45760405162461bcd60e51b81526004016104b0906145e9565b611347565b60006040516134c79061446d565b6040519081900390208290555050565b60405180608001604052806000815260200160008152602001600081526020016000151581525090565b61022b806149dc83390190565b60405180610180016040528060008152602001613529613589565b81526020016000815260200160008152602001600081526020016000815260200160008152602001600081526020016000815260200160006001600160a01b031681526020016000600381111561357c57fe5b8152600060209091015290565b6040518060c0016040528060006001600160a01b0316815260200160006001600160a01b03168152602001600081526020016000815260200160008152602001600081525090565b8035612398816149a3565b8051612398816149a3565b60008083601f8401126135f957600080fd5b50813567ffffffffffffffff81111561361157600080fd5b6020830191508361014082028301111561362a57600080fd5b9250929050565b8051612398816149b7565b8035612398816149c0565b8051612398816149c0565b8051612398816149c9565b600060e0828403121561366f57600080fd5b50919050565b600060e0828403121561368757600080fd5b61369160e06148a1565b9050600061369f84846135d1565b82525060206136b0848483016135d1565b60208301525060406136c4848285016135d1565b60408301525060606136d88482850161363c565b60608301525060806136ec8482850161363c565b60808301525060a06137008482850161363c565b60a08301525060c06137148482850161363c565b60c08301525092915050565b8035612398816149d2565b8051612398816149d2565b60006020828403121561374857600080fd5b600061282d84846135d1565b60006020828403121561376657600080fd5b600061282d84846135dc565b600080600080600060a0868803121561378a57600080fd5b600061379688886135d1565b95505060206137a7888289016135d1565b94505060406137b8888289016135d1565b93505060606137c9888289016135d1565b92505060806137da888289016135d1565b9150509295509295909350565b600080604083850312156137fa57600080fd5b600061380685856135d1565b92505060206138178582860161363c565b9150509250929050565b60008060006060848603121561383657600080fd5b600061384286866135d1565b93505060206138538682870161363c565b92505060406138648682870161363c565b9150509250925092565b60006020828403121561388057600080fd5b600061282d8484613631565b60006020828403121561389e57600080fd5b600061282d8484613647565b6000602082840312156138bc57600080fd5b600061282d8484613652565b60008060008061012085870312156138df57600080fd5b60006138eb878761365d565b94505060e085013567ffffffffffffffff81111561390857600080fd5b613914878288016135e7565b93509350506101006139288782880161363c565b91505092959194509250565b600060e0828403121561394657600080fd5b600061282d8484613675565b60006020828403121561396457600080fd5b600061282d848461363c565b6000806040838503121561398357600080fd5b6000613806858561363c565b6000806000606084860312156139a457600080fd5b60006139b08686613647565b93505060206139c186828701613647565b925050604061386486828701613647565b6000602082840312156139e457600080fd5b600061282d848461372b565b60006139fc83836142c5565b50506101400190565b6000613a118383613ae0565b505060200190565b613a228161494d565b82525050565b613a2281614916565b6000613a3d83856148dc565b9350613a48826148c8565b8060005b85811015613a7e57613a5e8284614903565b613a6888826139f0565b9750613a73836148d5565b925050600101613a4c565b509495945050505050565b6000613a94826148d1565b613a9e81856148dc565b9350613aa9836148cb565b8060005b83811015613a7e578151613ac18882613a05565b9750613acc836148cb565b925050600101613aad565b613a2281614921565b613a22816148c8565b613a2281614926565b613a2281614958565b6000613b06826148d1565b613b1081856148dc565b9350613b20818560208601614963565b613b298161498f565b9093019392505050565b6000613b40601d836148dc565b7f4455524154494f4e5f455843454544535f4d41585f4455524154494f4e000000815260200192915050565b6000613b79601c83610dd2565b7f54496e697469616c697a61626c652e6973496e697469616c697a6564000000008152601c0192915050565b6000613bb26015836148dc565b74105353d5539517d59053155157d491545552549151605a1b815260200192915050565b6000613be36016836148dc565b7513115391125391d7d413d3d317d254d7d4105554d15160521b815260200192915050565b6000613c156019836148dc565b7f414d4f554e545f455843454544535f4d41585f414d4f554e5400000000000000815260200192915050565b6000613c4e6011836148dc565b7013505617d313d05397d15610d151511151607a1b815260200192915050565b6000613c7b601b836148dc565b7f536166654d6174683a206164646974696f6e206f766572666c6f770000000000815260200192915050565b6000613cb46019836148dc565b7f424f52524f5745525f4c4f414e5f49445f4d49534d4154434800000000000000815260200192915050565b6000613ced6014836148dc565b73125390d3d4949150d517d1551217d05353d5539560621b815260200192915050565b6000613d1d6016836148dc565b751313d05397d393d517d050d512559157d3d497d4d15560521b815260200192915050565b6000613d4f601b836148dc565b7f53455454494e47535f4d5553545f42455f415f434f4e54524143540000000000815260200192915050565b6000613d886017836148dc565b7f444f45534e545f4e4545445f4c49515549444154494f4e000000000000000000815260200192915050565b6000613dc1600f836148dc565b6e4c4f414e5f4e4f545f41435449564560881b815260200192915050565b6000613dec6014836148dc565b7343414e4e4f545f57495448445241575f5a45524f60601b815260200192915050565b6000613e1c6012836148dc565b71141310551193d49357d254d7d4105554d15160721b815260200192915050565b6000613e4a6018836148dc565b7f4d4f52455f434f4c4c41544552414c5f52455155495245440000000000000000815260200192915050565b6000613e836021836148dc565b7f536166654d6174683a206d756c7469706c69636174696f6e206f766572666c6f8152607760f81b602082015260400192915050565b6000613ec6601d836148dc565b7f434f4c4c41544552414c5f4445504f53495445445f524543454e544c59000000815260200192915050565b6000613eff6012836148dc565b711313d05397d511549354d7d156141254915160721b815260200192915050565b6000613f2d602e836148dc565b7f436f6e747261637420696e7374616e63652068617320616c726561647920626581526d195b881a5b9a5d1a585b1a5e995960921b602082015260400192915050565b6000613f7d6018836148dc565b7f41544d5f4e4f545f464f554e445f464f525f4d41524b45540000000000000000815260200192915050565b6000613fb66013836148dc565b7243414e4e4f545f4445504f5349545f5a45524f60681b815260200192915050565b6000613fe5601e836148dc565b7f4f5241434c455f4d5553545f434f4e54524143545f4e4f545f454d5054590000815260200192915050565b600061401e6017836148dc565b7f424f52524f5745525f4d5553545f42455f53454e444552000000000000000000815260200192915050565b60006140576016836148dc565b7521a0a62622a92fa227a2a9a72a2fa7aba72fa627a0a760511b815260200192915050565b6000614089601883610dd2565b7f426173655570677261646561626c652e73657474696e67730000000000000000815260180192915050565b60006140c2601a836148dc565b7f535550504c595f544f5f444542545f455843454544535f4d4158000000000000815260200192915050565b60006140fb6018836148dc565b7f434f4e54524143545f4e4f545f494e495449414c495a45440000000000000000815260200192915050565b6000614134600c836148dc565b6b1313d05397d393d517d4d15560a21b815260200192915050565b600061415c601f836148dc565b7f5265656e7472616e637947756172643a207265656e7472616e742063616c6c00815260200192915050565b6000614195601c836148dc565b7f434f4e54524143545f414c52454144595f494e495449414c495a454400000000815260200192915050565b805160808301906141d28482613ae0565b5060208201516141e56020850182613ae0565b5060408201516141f86040850182613ae0565b506060820151611cc56060850182613ad7565b60e0820161421982806148e5565b6142238482613a28565b5061423160208301836148e5565b61423e6020850182613a28565b5061424c60408301836148e5565b6142596040850182613a28565b5061426760608301836148f4565b6142746060850182613ae0565b5061428260808301836148f4565b61428f6080850182613ae0565b5061429d60a08301836148f4565b6142aa60a0850182613ae0565b506142b860c08301836148f4565b611cc560c0850182613ae0565b61014082016142d482806148e5565b6142de8482613a28565b506142ec60208301836148e5565b6142f96020850182613a28565b5061430760408301836148f4565b6143146040850182613ae0565b5061432260608301836148f4565b61432f6060850182613ae0565b5061433d60808301836148f4565b61434a6080850182613ae0565b5061435860a08301836148f4565b61436560a0850182613ae0565b5061437360c0830183614903565b611cc560c08501826143f0565b805160c08301906143918482613a28565b5060208201516143a46020850182613a28565b5060408201516143b76040850182613ae0565b5060608201516143ca6060850182613ae0565b5060808201516143dd6080850182613ae0565b5060a0820151611cc560a0850182613ae0565b608082016143fe82806148f4565b6144088482613ae0565b506144166020830183614907565b6144236020850182614459565b5061443160408301836148f4565b61443e6040850182613ae0565b5061444c60608301836148f4565b611cc56060850182613ae0565b613a2281614947565b600061239882613b6c565b60006123988261407c565b602081016123988284613a28565b602081016123988284613a19565b606081016144a28286613a19565b6144af6020830185613ae0565b61282d6040830184613ae0565b604081016144ca8285613a28565b61326e6020830184613a28565b606081016144e58286613a28565b6144af6020830185613a28565b604081016145008285613a28565b61326e6020830184613ae0565b602080825281016123958184613a89565b602081016123988284613ad7565b602081016123988284613ae0565b602081016123988284613ae9565b602080825281016123958184613afb565b60208082528101610dcf81613b33565b60208082528101610dcf81613ba5565b60208082528101610dcf81613bd6565b60208082528101610dcf81613c08565b60208082528101610dcf81613c41565b60208082528101610dcf81613c6e565b60208082528101610dcf81613ca7565b60208082528101610dcf81613ce0565b60208082528101610dcf81613d10565b60208082528101610dcf81613d42565b60208082528101610dcf81613d7b565b60208082528101610dcf81613db4565b60208082528101610dcf81613ddf565b60208082528101610dcf81613e0f565b60208082528101610dcf81613e3d565b60208082528101610dcf81613e76565b60208082528101610dcf81613eb9565b60208082528101610dcf81613ef2565b60208082528101610dcf81613f20565b60208082528101610dcf81613f70565b60208082528101610dcf81613fa9565b60208082528101610dcf81613fd8565b60208082528101610dcf81614011565b60208082528101610dcf8161404a565b60208082528101610dcf816140b5565b60208082528101610dcf816140ee565b60208082528101610dcf81614127565b60208082528101610dcf8161414f565b60208082528101610dcf81614188565b6080810161239882846141c1565b6101008101614746828661420b565b81810360e08301526129d1818486613a31565b604081016144ca8285613ae0565b604081016147758285613ae0565b61326e6020830184613a19565b606081016147908286613ae0565b6144af6020830185613a19565b61022081016147ac828f613ae0565b6147b9602083018e614380565b6147c660e083018d613ae0565b6147d461010083018c613ae0565b6147e261012083018b613ae0565b6147f061014083018a613ae0565b6147fe610160830189613ae0565b61480c610180830188613ae0565b61481a6101a0830187613ae0565b6148286101c0830186613a28565b6148366101e0830185613af2565b614844610200830184613ad7565b9d9c50505050505050505050505050565b60a081016148638288613ae0565b6148706020830187613ae0565b61487d6040830186613ae0565b61488a6060830185613ae0565b6148976080830184613ae0565b9695505050505050565b60405181810167ffffffffffffffff811182821017156148c057600080fd5b604052919050565b90565b60200190565b5190565b6101400190565b90815260200190565b600061239560208401846135d1565b6000612395602084018461363c565b5090565b60006123956020840184613720565b6000610dcf8261493b565b151590565b6000610dcf82614916565b80610dd281614999565b6001600160a01b031690565b60ff1690565b6000610dcf82614926565b6000610dcf82614931565b60005b8381101561497e578181015183820152602001614966565b83811115611cc55750506000910152565b601f01601f191690565b6004811061134757fe5b6149ac81614916565b811461134757600080fd5b6149ac81614921565b6149ac816148c8565b6149ac81614926565b6149ac8161494756fe608060405234801561001057600080fd5b5061020b806100206000396000f3fe608060405234801561001057600080fd5b50600436106100935760003560e01c80633ff591d9116100665780633ff591d9146100ca578063c41dd8ce146100d2578063cc44cadb146100da578063e00a4615146100e2578063e3f33d00146100ea57610093565b806308b04f62146100985780631139087a146100b257806311880cc8146100ba5780633b98dfdb146100c2575b600080fd5b6100a06100f2565b60408051918252519081900360200190f35b6100a0610109565b6100a0610121565b6100a0610136565b6100a061015a565b6100a0610174565b6100a061018b565b6100a06101a5565b6100a06101bb565b6f21b7b63630ba32b930b6213ab33332b960811b81565b704c6971756964617465457468507269636560781b81565b6d14d859995d1e525b9d195c9d985b60921b81565b7f526571756573744c6f616e5465726d73526174654c696d69740000000000000081565b7252657175697265645375626d697373696f6e7360681b81565b6f4d6178696d756d546f6c6572616e636560801b81565b7226b0bc34b6bab6a637b0b7223ab930ba34b7b760691b81565b6e5465726d7345787069727954696d6560881b81565b730a4cae6e0dedce6ca8af0e0d2e4f298cadccee8d60631b8156fea265627a7a72315820b6cc93d12d39f205ac91b27ee8876405b81cd752a680e010a2828f9ed81bbbb364736f6c63430005110032a365627a7a72315820063dbd5abca9eef8097d9e6dd74ec037f39829b98fdf7f7d247806f8946d36616c6578706572696d656e74616cf564736f6c63430005110040",
  "source": "pragma solidity 0.5.17;\npragma experimental ABIEncoderV2;\n\n// Contracts\nimport \"./LoansBase.sol\";\n\n/*****************************************************************************************************/\n/**                                             WARNING                                             **/\n/**                                  THIS CONTRACT IS UPGRADEABLE!                                  **/\n/**  ---------------------------------------------------------------------------------------------  **/\n/**  Do NOT change the order of or PREPEND any storage variables to this or new versions of this    **/\n/**  contract as this will cause the the storage slots to be overwritten on the proxy contract!!    **/\n/**                                                                                                 **/\n/**  Visit https://docs.openzeppelin.com/upgrades/2.6/proxies#upgrading-via-the-proxy-pattern for   **/\n/**  more information.                                                                              **/\n/*****************************************************************************************************/\n/**\n    @notice This contract is used as a basis for the creation of Ether based loans across the platform\n    @notice It implements the LoansBase contract from Teller\n\n    @author develop@teller.finance\n */\ncontract EtherCollateralLoans is LoansBase {\n    /**\n     * @notice Deposit collateral into a loan\n     * @param borrower The address of the loan borrower.\n     * @param loanID The ID of the loan the collateral is for\n     */\n    function depositCollateral(\n        address borrower,\n        uint256 loanID,\n        uint256 amount\n    )\n        external\n        payable\n        loanActiveOrSet(loanID)\n        isInitialized()\n        whenNotPaused()\n        whenLendingPoolNotPaused(address(lendingPool))\n    {\n        require(\n            loans[loanID].loanTerms.borrower == borrower,\n            \"BORROWER_LOAN_ID_MISMATCH\"\n        );\n        require(msg.value == amount, \"INCORRECT_ETH_AMOUNT\");\n        require(msg.value > 0, \"CANNOT_DEPOSIT_ZERO\");\n\n        // Update the contract total and the loan collateral total\n        _payInCollateral(loanID, amount);\n\n        emit CollateralDeposited(loanID, borrower, amount);\n    }\n\n    /**\n        @notice Creates a loan with the loan request and terms\n        @param request Struct of the protocol loan request\n        @param responses List of structs of the protocol loan responses\n        @param collateralAmount Amount of collateral required for the loan\n     */\n    function createLoanWithTerms(\n        TellerCommon.LoanRequest calldata request,\n        TellerCommon.LoanResponse[] calldata responses,\n        uint256 collateralAmount\n    )\n        external\n        payable\n        isInitialized()\n        whenNotPaused()\n        isBorrower(request.borrower)\n        withValidLoanRequest(request)\n    {\n        require(msg.value == collateralAmount, \"INCORRECT_ETH_AMOUNT\");\n\n        uint256 loanID = getAndIncrementLoanID();\n        (\n            uint256 interestRate,\n            uint256 collateralRatio,\n            uint256 maxLoanAmount\n        ) = loanTermsConsensus.processRequest(request, responses);\n\n        loans[loanID] = createLoan(\n            loanID,\n            request,\n            interestRate,\n            collateralRatio,\n            maxLoanAmount\n        );\n\n        if (msg.value > 0) {\n            // Update collateral, totalCollateral, and lastCollateralIn\n            _payInCollateral(loanID, msg.value);\n        }\n\n        borrowerLoans[request.borrower].push(loanID);\n\n        _emitLoanTermsSetAndCollateralDepositedEventsIfApplicable(\n            loanID,\n            request,\n            interestRate,\n            collateralRatio,\n            maxLoanAmount,\n            msg.value\n        );\n    }\n\n    /**\n        @notice Initializes the current contract instance setting the required parameters\n        @param priceOracleAddress Contract address of the price oracle\n        @param lendingPoolAddress Contract address of the lending pool\n        @param loanTermsConsensusAddress Contract adddress for loan term consensus\n        @param settingsAddress Contract address for the configuration of the platform\n     */\n    function initialize(\n        address priceOracleAddress,\n        address lendingPoolAddress,\n        address loanTermsConsensusAddress,\n        address settingsAddress,\n        address\n    ) external isNotInitialized() {\n        _initialize(\n            priceOracleAddress,\n            lendingPoolAddress,\n            loanTermsConsensusAddress,\n            settingsAddress\n        );\n\n        collateralToken = settings().ETH_ADDRESS();\n    }\n\n    /** Internal Functions */\n    /**\n        @notice Pays out collateral for the associated loan\n        @param loanID The ID of the loan the collateral is for\n        @param amount The amount of collateral to be paid\n        @param recipient address that will receive the given amount.\n     */\n    function _payOutCollateral(\n        uint256 loanID,\n        uint256 amount,\n        address payable recipient\n    ) internal {\n        totalCollateral = totalCollateral.sub(amount);\n        loans[loanID].collateral = loans[loanID].collateral.sub(amount);\n        recipient.transfer(amount);\n    }\n}\n",
  "sourcePath": "/Users/sy/Documents/GitHub/teller-protocol-v1/contracts/base/EtherCollateralLoans.sol",
  "compiler": {
    "name": "solc",
    "version": "0.5.17+commit.d19bba13.Emscripten.clang"
  },
  "schemaVersion": "3.0.23",
  "updatedAt": "2020-09-06T02:15:12.200Z",
  "devdoc": {
    "author": "develop@teller.finance",
    "methods": {
      "canLiquidateLoan(uint256)": {
        "params": {
          "loanID": "The ID of the loan to check"
        },
        "return": "bool weather the loan can be liquidated"
      },
      "createLoanWithTerms((address,address,address,uint256,uint256,uint256,uint256),(address,address,uint256,uint256,uint256,uint256,(uint256,uint8,bytes32,bytes32))[],uint256)": {
        "params": {
          "collateralAmount": "Amount of collateral required for the loan",
          "request": "Struct of the protocol loan request",
          "responses": "List of structs of the protocol loan responses"
        }
      },
      "depositCollateral(address,uint256,uint256)": {
        "params": {
          "borrower": "The address of the loan borrower.",
          "loanID": "The ID of the loan the collateral is for"
        }
      },
      "getBorrowerLoans(address)": {
        "params": {
          "borrower": "The borrower's address"
        }
      },
      "getCollateralInfo(uint256)": {
        "params": {
          "loanID": "of the loan to get info for"
        },
        "return": "memory TellerCommon.LoanCollateralInfo Collateral information of the loan"
      },
      "getTotalOwed(uint256)": {
        "params": {
          "loanID": "The ID of the loan to be queried"
        },
        "return": "uint256 The total amount owed remaining"
      },
      "initialize(address,address,address,address,address)": {
        "params": {
          "lendingPoolAddress": "Contract address of the lending pool",
          "loanTermsConsensusAddress": "Contract adddress for loan term consensus",
          "priceOracleAddress": "Contract address of the price oracle",
          "settingsAddress": "Contract address for the configuration of the platform"
        }
      },
      "initialized()": {
        "return": "true if contract is initialized. Otherwise it returns false."
      },
      "lendingToken()": {
        "return": "Address of the lending token"
      },
      "liquidateLoan(uint256)": {
        "params": {
          "loanID": "The ID of the loan to be liquidated"
        }
      },
      "repay(uint256,uint256)": {
        "params": {
          "amount": "The amount of tokens to pay back to the loan",
          "loanID": "The ID of the loan the payment is for"
        }
      },
      "setPriceOracle(address)": {
        "details": "It throws a require error if sender is not allowed.It throws a require error if new address is empty (0x0) or not a contract.",
        "params": {
          "newPriceOracle": "the new price oracle address."
        }
      },
      "takeOutLoan(uint256,uint256)": {
        "details": "collateral ratio is a percentage of the loan amount that's required in collateralthe percentage will be *(10**2). I.e. collateralRatio of 5244 means 52.44% collateralis required in the loan. Interest rate is also a percentage with 2 decimal points."
      },
      "withdrawCollateral(uint256,uint256)": {
        "params": {
          "amount": "The amount of collateral token or ether the caller is hoping to withdraw.",
          "loanID": "The ID of the loan the collateral is for"
        }
      }
    }
  },
  "userdoc": {
    "methods": {
      "canLiquidateLoan(uint256)": {
        "notice": "A loan can be liquidated if it is: under collateralized or expired"
      },
      "createLoanWithTerms((address,address,address,uint256,uint256,uint256,uint256),(address,address,uint256,uint256,uint256,uint256,(uint256,uint8,bytes32,bytes32))[],uint256)": {
        "notice": "Creates a loan with the loan request and terms"
      },
      "depositCollateral(address,uint256,uint256)": {
        "notice": "Deposit collateral into a loan"
      },
      "getBorrowerLoans(address)": {
        "notice": "Get a list of all loans for a borrower"
      },
      "getCollateralInfo(uint256)": {
        "notice": "Get collateral information of a specific loan"
      },
      "getTotalOwed(uint256)": {
        "notice": "Returns the total owed amount remaining for a specified loan"
      },
      "initialize(address,address,address,address,address)": {
        "notice": "Initializes the current contract instance setting the required parameters"
      },
      "initialized()": {
        "notice": "Gets if the contract is initialized."
      },
      "lendingToken()": {
        "notice": "Returns the lending token in the lending pool"
      },
      "liquidateLoan(uint256)": {
        "notice": "Liquidate a loan if it is expired or under collateralized"
      },
      "repay(uint256,uint256)": {
        "notice": "Make a payment to a loan"
      },
      "setPriceOracle(address)": {
        "notice": "Updates the current price oracle instance."
      },
      "settings()": {
        "notice": "The settings contract."
      },
      "takeOutLoan(uint256,uint256)": {
        "notice": "Take out a loan"
      },
      "withdrawCollateral(uint256,uint256)": {
        "notice": "Withdraw collateral from a loan, unless this isn't allowed"
      }
    },
    "notice": "This contract is used as a basis for the creation of Ether based loans across the platformIt implements the LoansBase contract from Teller"
  }
}