{
  "contractName": "EtherCollateralLoansMock",
  "abi": [
    {
      "anonymous": false,
      "inputs": [
        {
          "indexed": true,
          "internalType": "uint256",
          "name": "loanID",
          "type": "uint256"
        },
        {
          "indexed": true,
          "internalType": "address",
          "name": "borrower",
          "type": "address"
        },
        {
          "indexed": false,
          "internalType": "uint256",
          "name": "depositAmount",
          "type": "uint256"
        }
      ],
      "name": "CollateralDeposited",
      "type": "event"
    },
    {
      "anonymous": false,
      "inputs": [
        {
          "indexed": true,
          "internalType": "uint256",
          "name": "loanID",
          "type": "uint256"
        },
        {
          "indexed": true,
          "internalType": "address",
          "name": "borrower",
          "type": "address"
        },
        {
          "indexed": false,
          "internalType": "uint256",
          "name": "withdrawalAmount",
          "type": "uint256"
        }
      ],
      "name": "CollateralWithdrawn",
      "type": "event"
    },
    {
      "anonymous": false,
      "inputs": [
        {
          "indexed": true,
          "internalType": "uint256",
          "name": "loanID",
          "type": "uint256"
        },
        {
          "indexed": true,
          "internalType": "address",
          "name": "borrower",
          "type": "address"
        },
        {
          "indexed": false,
          "internalType": "address",
          "name": "liquidator",
          "type": "address"
        },
        {
          "indexed": false,
          "internalType": "uint256",
          "name": "collateralOut",
          "type": "uint256"
        },
        {
          "indexed": false,
          "internalType": "uint256",
          "name": "tokensIn",
          "type": "uint256"
        }
      ],
      "name": "LoanLiquidated",
      "type": "event"
    },
    {
      "anonymous": false,
      "inputs": [
        {
          "indexed": true,
          "internalType": "uint256",
          "name": "loanID",
          "type": "uint256"
        },
        {
          "indexed": true,
          "internalType": "address",
          "name": "borrower",
          "type": "address"
        },
        {
          "indexed": false,
          "internalType": "uint256",
          "name": "amountPaid",
          "type": "uint256"
        },
        {
          "indexed": false,
          "internalType": "address",
          "name": "payer",
          "type": "address"
        },
        {
          "indexed": false,
          "internalType": "uint256",
          "name": "totalOwed",
          "type": "uint256"
        }
      ],
      "name": "LoanRepaid",
      "type": "event"
    },
    {
      "anonymous": false,
      "inputs": [
        {
          "indexed": true,
          "internalType": "uint256",
          "name": "loanID",
          "type": "uint256"
        },
        {
          "indexed": true,
          "internalType": "address",
          "name": "borrower",
          "type": "address"
        },
        {
          "indexed": true,
          "internalType": "address",
          "name": "escrow",
          "type": "address"
        },
        {
          "indexed": false,
          "internalType": "uint256",
          "name": "amountBorrowed",
          "type": "uint256"
        }
      ],
      "name": "LoanTakenOut",
      "type": "event"
    },
    {
      "anonymous": false,
      "inputs": [
        {
          "indexed": true,
          "internalType": "uint256",
          "name": "loanID",
          "type": "uint256"
        },
        {
          "indexed": true,
          "internalType": "address",
          "name": "borrower",
          "type": "address"
        },
        {
          "indexed": true,
          "internalType": "address",
          "name": "recipient",
          "type": "address"
        },
        {
          "indexed": false,
          "internalType": "uint256",
          "name": "interestRate",
          "type": "uint256"
        },
        {
          "indexed": false,
          "internalType": "uint256",
          "name": "collateralRatio",
          "type": "uint256"
        },
        {
          "indexed": false,
          "internalType": "uint256",
          "name": "maxLoanAmount",
          "type": "uint256"
        },
        {
          "indexed": false,
          "internalType": "uint256",
          "name": "duration",
          "type": "uint256"
        },
        {
          "indexed": false,
          "internalType": "uint256",
          "name": "termsExpiry",
          "type": "uint256"
        }
      ],
      "name": "LoanTermsSet",
      "type": "event"
    },
    {
      "anonymous": false,
      "inputs": [
        {
          "indexed": true,
          "internalType": "address",
          "name": "sender",
          "type": "address"
        },
        {
          "indexed": true,
          "internalType": "address",
          "name": "oldPriceOracle",
          "type": "address"
        },
        {
          "indexed": true,
          "internalType": "address",
          "name": "newPriceOracle",
          "type": "address"
        }
      ],
      "name": "PriceOracleUpdated",
      "type": "event"
    },
    {
      "payable": true,
      "stateMutability": "payable",
      "type": "fallback"
    },
    {
      "constant": true,
      "inputs": [
        {
          "internalType": "address",
          "name": "",
          "type": "address"
        },
        {
          "internalType": "uint256",
          "name": "",
          "type": "uint256"
        }
      ],
      "name": "borrowerLoans",
      "outputs": [
        {
          "internalType": "uint256",
          "name": "",
          "type": "uint256"
        }
      ],
      "payable": false,
      "stateMutability": "view",
      "type": "function"
    },
    {
      "constant": true,
      "inputs": [],
      "name": "cToken",
      "outputs": [
        {
          "internalType": "address",
          "name": "",
          "type": "address"
        }
      ],
      "payable": false,
      "stateMutability": "view",
      "type": "function"
    },
    {
      "constant": true,
      "inputs": [
        {
          "internalType": "uint256",
          "name": "loanID",
          "type": "uint256"
        }
      ],
      "name": "canLiquidateLoan",
      "outputs": [
        {
          "internalType": "bool",
          "name": "",
          "type": "bool"
        }
      ],
      "payable": false,
      "stateMutability": "view",
      "type": "function"
    },
    {
      "constant": true,
      "inputs": [],
      "name": "collateralToken",
      "outputs": [
        {
          "internalType": "address",
          "name": "",
          "type": "address"
        }
      ],
      "payable": false,
      "stateMutability": "view",
      "type": "function"
    },
    {
      "constant": false,
      "inputs": [
        {
          "components": [
            {
              "internalType": "address payable",
              "name": "borrower",
              "type": "address"
            },
            {
              "internalType": "address",
              "name": "recipient",
              "type": "address"
            },
            {
              "internalType": "address",
              "name": "consensusAddress",
              "type": "address"
            },
            {
              "internalType": "uint256",
              "name": "requestNonce",
              "type": "uint256"
            },
            {
              "internalType": "uint256",
              "name": "amount",
              "type": "uint256"
            },
            {
              "internalType": "uint256",
              "name": "duration",
              "type": "uint256"
            },
            {
              "internalType": "uint256",
              "name": "requestTime",
              "type": "uint256"
            }
          ],
          "internalType": "struct TellerCommon.LoanRequest",
          "name": "request",
          "type": "tuple"
        },
        {
          "components": [
            {
              "internalType": "address",
              "name": "signer",
              "type": "address"
            },
            {
              "internalType": "address",
              "name": "consensusAddress",
              "type": "address"
            },
            {
              "internalType": "uint256",
              "name": "responseTime",
              "type": "uint256"
            },
            {
              "internalType": "uint256",
              "name": "interestRate",
              "type": "uint256"
            },
            {
              "internalType": "uint256",
              "name": "collateralRatio",
              "type": "uint256"
            },
            {
              "internalType": "uint256",
              "name": "maxLoanAmount",
              "type": "uint256"
            },
            {
              "components": [
                {
                  "internalType": "uint256",
                  "name": "signerNonce",
                  "type": "uint256"
                },
                {
                  "internalType": "uint8",
                  "name": "v",
                  "type": "uint8"
                },
                {
                  "internalType": "bytes32",
                  "name": "r",
                  "type": "bytes32"
                },
                {
                  "internalType": "bytes32",
                  "name": "s",
                  "type": "bytes32"
                }
              ],
              "internalType": "struct TellerCommon.Signature",
              "name": "signature",
              "type": "tuple"
            }
          ],
          "internalType": "struct TellerCommon.LoanResponse[]",
          "name": "responses",
          "type": "tuple[]"
        },
        {
          "internalType": "uint256",
          "name": "collateralAmount",
          "type": "uint256"
        }
      ],
      "name": "createLoanWithTerms",
      "outputs": [],
      "payable": true,
      "stateMutability": "payable",
      "type": "function"
    },
    {
      "constant": false,
      "inputs": [
        {
          "internalType": "address",
          "name": "borrower",
          "type": "address"
        },
        {
          "internalType": "uint256",
          "name": "loanID",
          "type": "uint256"
        },
        {
          "internalType": "uint256",
          "name": "amount",
          "type": "uint256"
        }
      ],
      "name": "depositCollateral",
      "outputs": [],
      "payable": true,
      "stateMutability": "payable",
      "type": "function"
    },
    {
      "constant": true,
      "inputs": [
        {
          "internalType": "address",
          "name": "borrower",
          "type": "address"
        }
      ],
      "name": "getBorrowerLoans",
      "outputs": [
        {
          "internalType": "uint256[]",
          "name": "",
          "type": "uint256[]"
        }
      ],
      "payable": false,
      "stateMutability": "view",
      "type": "function"
    },
    {
      "constant": true,
      "inputs": [
        {
          "internalType": "uint256",
          "name": "loanID",
          "type": "uint256"
        }
      ],
      "name": "getCollateralInfo",
      "outputs": [
        {
          "components": [
            {
              "internalType": "uint256",
              "name": "collateral",
              "type": "uint256"
            },
            {
              "internalType": "uint256",
              "name": "neededInLendingTokens",
              "type": "uint256"
            },
            {
              "internalType": "uint256",
              "name": "neededInCollateralTokens",
              "type": "uint256"
            },
            {
              "internalType": "bool",
              "name": "moreCollateralRequired",
              "type": "bool"
            }
          ],
          "internalType": "struct TellerCommon.LoanCollateralInfo",
          "name": "",
          "type": "tuple"
        }
      ],
      "payable": false,
      "stateMutability": "view",
      "type": "function"
    },
    {
      "constant": true,
      "inputs": [
        {
          "internalType": "uint256",
          "name": "loanID",
          "type": "uint256"
        }
      ],
      "name": "getLiquidationInfo",
      "outputs": [
        {
          "components": [
            {
              "internalType": "uint256",
              "name": "collateral",
              "type": "uint256"
            },
            {
              "internalType": "uint256",
              "name": "collateralInTokens",
              "type": "uint256"
            },
            {
              "internalType": "uint256",
              "name": "amountToLiquidate",
              "type": "uint256"
            },
            {
              "internalType": "bool",
              "name": "liquidable",
              "type": "bool"
            }
          ],
          "internalType": "struct TellerCommon.LoanLiquidationInfo",
          "name": "liquidationInfo",
          "type": "tuple"
        }
      ],
      "payable": false,
      "stateMutability": "view",
      "type": "function"
    },
    {
      "constant": true,
      "inputs": [
        {
          "internalType": "uint256",
          "name": "loanID",
          "type": "uint256"
        }
      ],
      "name": "getTotalOwed",
      "outputs": [
        {
          "internalType": "uint256",
          "name": "",
          "type": "uint256"
        }
      ],
      "payable": false,
      "stateMutability": "view",
      "type": "function"
    },
    {
      "constant": false,
      "inputs": [
        {
          "internalType": "address",
          "name": "priceOracleAddress",
          "type": "address"
        },
        {
          "internalType": "address",
          "name": "lendingPoolAddress",
          "type": "address"
        },
        {
          "internalType": "address",
          "name": "loanTermsConsensusAddress",
          "type": "address"
        },
        {
          "internalType": "address",
          "name": "settingsAddress",
          "type": "address"
        },
        {
          "internalType": "address",
          "name": "",
          "type": "address"
        }
      ],
      "name": "initialize",
      "outputs": [],
      "payable": false,
      "stateMutability": "nonpayable",
      "type": "function"
    },
    {
      "constant": false,
      "inputs": [],
      "name": "initialize",
      "outputs": [],
      "payable": false,
      "stateMutability": "nonpayable",
      "type": "function"
    },
    {
      "constant": true,
      "inputs": [],
      "name": "initialized",
      "outputs": [
        {
          "internalType": "bool",
          "name": "value",
          "type": "bool"
        }
      ],
      "payable": false,
      "stateMutability": "view",
      "type": "function"
    },
    {
      "constant": true,
      "inputs": [
        {
          "internalType": "uint256",
          "name": "loanID",
          "type": "uint256"
        }
      ],
      "name": "isLoanSecured",
      "outputs": [
        {
          "internalType": "bool",
          "name": "",
          "type": "bool"
        }
      ],
      "payable": false,
      "stateMutability": "view",
      "type": "function"
    },
    {
      "constant": true,
      "inputs": [],
      "name": "lendingPool",
      "outputs": [
        {
          "internalType": "contract LendingPoolInterface",
          "name": "",
          "type": "address"
        }
      ],
      "payable": false,
      "stateMutability": "view",
      "type": "function"
    },
    {
      "constant": true,
      "inputs": [],
      "name": "lendingToken",
      "outputs": [
        {
          "internalType": "address",
          "name": "",
          "type": "address"
        }
      ],
      "payable": false,
      "stateMutability": "view",
      "type": "function"
    },
    {
      "constant": false,
      "inputs": [
        {
          "internalType": "uint256",
          "name": "loanID",
          "type": "uint256"
        }
      ],
      "name": "liquidateLoan",
      "outputs": [],
      "payable": false,
      "stateMutability": "nonpayable",
      "type": "function"
    },
    {
      "constant": true,
      "inputs": [],
      "name": "loanIDCounter",
      "outputs": [
        {
          "internalType": "uint256",
          "name": "",
          "type": "uint256"
        }
      ],
      "payable": false,
      "stateMutability": "view",
      "type": "function"
    },
    {
      "constant": true,
      "inputs": [],
      "name": "loanTermsConsensus",
      "outputs": [
        {
          "internalType": "contract LoanTermsConsensusInterface",
          "name": "",
          "type": "address"
        }
      ],
      "payable": false,
      "stateMutability": "view",
      "type": "function"
    },
    {
      "constant": true,
      "inputs": [
        {
          "internalType": "uint256",
          "name": "",
          "type": "uint256"
        }
      ],
      "name": "loans",
      "outputs": [
        {
          "internalType": "uint256",
          "name": "id",
          "type": "uint256"
        },
        {
          "components": [
            {
              "internalType": "address payable",
              "name": "borrower",
              "type": "address"
            },
            {
              "internalType": "address",
              "name": "recipient",
              "type": "address"
            },
            {
              "internalType": "uint256",
              "name": "interestRate",
              "type": "uint256"
            },
            {
              "internalType": "uint256",
              "name": "collateralRatio",
              "type": "uint256"
            },
            {
              "internalType": "uint256",
              "name": "maxLoanAmount",
              "type": "uint256"
            },
            {
              "internalType": "uint256",
              "name": "duration",
              "type": "uint256"
            }
          ],
          "internalType": "struct TellerCommon.LoanTerms",
          "name": "loanTerms",
          "type": "tuple"
        },
        {
          "internalType": "uint256",
          "name": "termsExpiry",
          "type": "uint256"
        },
        {
          "internalType": "uint256",
          "name": "loanStartTime",
          "type": "uint256"
        },
        {
          "internalType": "uint256",
          "name": "collateral",
          "type": "uint256"
        },
        {
          "internalType": "uint256",
          "name": "lastCollateralIn",
          "type": "uint256"
        },
        {
          "internalType": "uint256",
          "name": "principalOwed",
          "type": "uint256"
        },
        {
          "internalType": "uint256",
          "name": "interestOwed",
          "type": "uint256"
        },
        {
          "internalType": "uint256",
          "name": "borrowedAmount",
          "type": "uint256"
        },
        {
          "internalType": "address",
          "name": "escrow",
          "type": "address"
        },
        {
          "internalType": "enum TellerCommon.LoanStatus",
          "name": "status",
          "type": "uint8"
        },
        {
          "internalType": "bool",
          "name": "liquidated",
          "type": "bool"
        }
      ],
      "payable": false,
      "stateMutability": "view",
      "type": "function"
    },
    {
      "constant": true,
      "inputs": [],
      "name": "priceOracle",
      "outputs": [
        {
          "internalType": "address",
          "name": "",
          "type": "address"
        }
      ],
      "payable": false,
      "stateMutability": "view",
      "type": "function"
    },
    {
      "constant": false,
      "inputs": [
        {
          "internalType": "uint256",
          "name": "amount",
          "type": "uint256"
        },
        {
          "internalType": "uint256",
          "name": "loanID",
          "type": "uint256"
        }
      ],
      "name": "repay",
      "outputs": [],
      "payable": false,
      "stateMutability": "nonpayable",
      "type": "function"
    },
    {
      "constant": false,
      "inputs": [
        {
          "internalType": "address",
          "name": "newPriceOracle",
          "type": "address"
        }
      ],
      "name": "setPriceOracle",
      "outputs": [],
      "payable": false,
      "stateMutability": "nonpayable",
      "type": "function"
    },
    {
      "constant": true,
      "inputs": [],
      "name": "settings",
      "outputs": [
        {
          "internalType": "contract SettingsInterface",
          "name": "",
          "type": "address"
        }
      ],
      "payable": false,
      "stateMutability": "view",
      "type": "function"
    },
    {
      "constant": true,
      "inputs": [],
      "name": "tToken",
      "outputs": [
        {
          "internalType": "address",
          "name": "",
          "type": "address"
        }
      ],
      "payable": false,
      "stateMutability": "view",
      "type": "function"
    },
    {
      "constant": false,
      "inputs": [
        {
          "internalType": "uint256",
          "name": "loanID",
          "type": "uint256"
        },
        {
          "internalType": "uint256",
          "name": "amountBorrow",
          "type": "uint256"
        }
      ],
      "name": "takeOutLoan",
      "outputs": [],
      "payable": false,
      "stateMutability": "nonpayable",
      "type": "function"
    },
    {
      "constant": true,
      "inputs": [],
      "name": "totalCollateral",
      "outputs": [
        {
          "internalType": "uint256",
          "name": "",
          "type": "uint256"
        }
      ],
      "payable": false,
      "stateMutability": "view",
      "type": "function"
    },
    {
      "constant": false,
      "inputs": [
        {
          "internalType": "uint256",
          "name": "amount",
          "type": "uint256"
        },
        {
          "internalType": "uint256",
          "name": "loanID",
          "type": "uint256"
        }
      ],
      "name": "withdrawCollateral",
      "outputs": [],
      "payable": false,
      "stateMutability": "nonpayable",
      "type": "function"
    },
    {
      "constant": false,
      "inputs": [
        {
          "internalType": "uint256",
          "name": "newLoanIdCounter",
          "type": "uint256"
        }
      ],
      "name": "setLoanIDCounter",
      "outputs": [],
      "payable": false,
      "stateMutability": "nonpayable",
      "type": "function"
    },
    {
      "constant": false,
      "inputs": [
        {
          "internalType": "address",
          "name": "borrower",
          "type": "address"
        },
        {
          "internalType": "uint256[]",
          "name": "loanIDs",
          "type": "uint256[]"
        }
      ],
      "name": "setBorrowerLoans",
      "outputs": [],
      "payable": false,
      "stateMutability": "nonpayable",
      "type": "function"
    },
    {
      "constant": false,
      "inputs": [
        {
          "internalType": "uint256",
          "name": "amount",
          "type": "uint256"
        }
      ],
      "name": "setTotalCollateral",
      "outputs": [],
      "payable": false,
      "stateMutability": "nonpayable",
      "type": "function"
    },
    {
      "constant": false,
      "inputs": [
        {
          "internalType": "uint256",
          "name": "loanID",
          "type": "uint256"
        },
        {
          "internalType": "address",
          "name": "escrowAddress",
          "type": "address"
        }
      ],
      "name": "setEscrowForLoan",
      "outputs": [],
      "payable": false,
      "stateMutability": "nonpayable",
      "type": "function"
    },
    {
      "constant": false,
      "inputs": [
        {
          "internalType": "uint256",
          "name": "id",
          "type": "uint256"
        },
        {
          "components": [
            {
              "internalType": "address payable",
              "name": "borrower",
              "type": "address"
            },
            {
              "internalType": "address",
              "name": "recipient",
              "type": "address"
            },
            {
              "internalType": "uint256",
              "name": "interestRate",
              "type": "uint256"
            },
            {
              "internalType": "uint256",
              "name": "collateralRatio",
              "type": "uint256"
            },
            {
              "internalType": "uint256",
              "name": "maxLoanAmount",
              "type": "uint256"
            },
            {
              "internalType": "uint256",
              "name": "duration",
              "type": "uint256"
            }
          ],
          "internalType": "struct TellerCommon.LoanTerms",
          "name": "loanTerms",
          "type": "tuple"
        },
        {
          "internalType": "uint256",
          "name": "termsExpiry",
          "type": "uint256"
        },
        {
          "internalType": "uint256",
          "name": "loanStartTime",
          "type": "uint256"
        },
        {
          "internalType": "uint256",
          "name": "collateral",
          "type": "uint256"
        },
        {
          "internalType": "uint256",
          "name": "lastCollateralIn",
          "type": "uint256"
        },
        {
          "internalType": "uint256",
          "name": "principalOwed",
          "type": "uint256"
        },
        {
          "internalType": "uint256",
          "name": "interestOwed",
          "type": "uint256"
        },
        {
          "internalType": "uint256",
          "name": "borrowedAmount",
          "type": "uint256"
        },
        {
          "internalType": "enum TellerCommon.LoanStatus",
          "name": "status",
          "type": "uint8"
        },
        {
          "internalType": "bool",
          "name": "liquidated",
          "type": "bool"
        }
      ],
      "name": "setLoan",
      "outputs": [],
      "payable": false,
      "stateMutability": "nonpayable",
      "type": "function"
    },
    {
      "constant": false,
      "inputs": [
        {
          "internalType": "uint256",
          "name": "loanID",
          "type": "uint256"
        }
      ],
      "name": "externalCreateEscrow",
      "outputs": [
        {
          "internalType": "address",
          "name": "",
          "type": "address"
        }
      ],
      "payable": false,
      "stateMutability": "nonpayable",
      "type": "function"
    },
    {
      "constant": false,
      "inputs": [
        {
          "internalType": "address",
          "name": "settingsAddress",
          "type": "address"
        }
      ],
      "name": "externalSetSettings",
      "outputs": [],
      "payable": false,
      "stateMutability": "nonpayable",
      "type": "function"
    }
  ],
  "bytecode": "0x608060405234801561001057600080fd5b5061566480620000216000396000f3fe6080604052600436106102045760003560e01c80637214056511610118578063aaaca558116100a0578063d8aed1451161006f578063d8aed1451461057d578063e06174e41461059d578063e1ec3c68146105b2578063e3ed1902146105ea578063eee8b7ff1461060a57610204565b8063aaaca5581461051e578063b2016bd414610533578063c35d64ea14610548578063ccdd9f5d1461055d57610204565b8063854768c0116100e7578063854768c01461049657806391d71457146104b6578063934b5d13146104d6578063a59a9973146104f6578063a5c5c7b21461050b57610204565b80637214056514610421578063767a7b0514610441578063803a0882146104615780638129fc1c1461048157610204565b80634ac8eb5f1161019b57806358895e3d1161016a57806358895e3d1461038a57806364794459146103ac57806368c22007146103cc5780636948f32b146103ec57806369e527da1461040c57610204565b80634ac8eb5f1461031357806350ef5c35146103285780635134845414610355578063530e784f1461036a57610204565b80631a74856b116101d75780631a74856b146102915780632630c12f146102a45780633b929300146102c657806342c3c0fb146102f357610204565b806302bc2cdb146102065780631459457a14610226578063158ef93e1461024657806319e8b2b314610271575b005b34801561021257600080fd5b5061020461022136600461451e565b610637565b34801561023257600080fd5b50610204610241366004614189565b610d1e565b34801561025257600080fd5b5061025b610dee565b604051610268919061513e565b60405180910390f35b34801561027d57600080fd5b5061020461028c3660046141fe565b610e0d565b61020461029f36600461428e565b610e36565b3480156102b057600080fd5b506102b9610ff7565b6040516102689190615098565b3480156102d257600080fd5b506102e66102e13660046143dd565b611006565b604051610268919061514c565b3480156102ff57600080fd5b5061020461030e3660046143dd565b611036565b34801561031f57600080fd5b506102e661103b565b34801561033457600080fd5b506103486103433660046143dd565b611041565b6040516102689190615369565b34801561036157600080fd5b506102e6611052565b34801561037657600080fd5b5061020461038536600461414d565b611058565b34801561039657600080fd5b5061039f6111b6565b604051610268919061515a565b3480156103b857600080fd5b506102046103c73660046143dd565b6111c5565b3480156103d857600080fd5b506102046103e736600461414d565b6111ca565b3480156103f857600080fd5b5061025b6104073660046143dd565b6111d6565b34801561041857600080fd5b506102b961132f565b34801561042d57600080fd5b5061020461043c36600461442b565b6113b2565b34801561044d57600080fd5b5061020461045c36600461451e565b611588565b34801561046d57600080fd5b506102b961047c3660046143dd565b61179e565b34801561048d57600080fd5b506102046117a9565b3480156104a257600080fd5b5061025b6104b13660046143dd565b611830565b3480156104c257600080fd5b506102046104d13660046143fb565b6119b7565b3480156104e257600080fd5b506103486104f13660046143dd565b6119e8565b34801561050257600080fd5b5061039f6119f9565b610204610519366004614335565b611a08565b34801561052a57600080fd5b506102b9611ffd565b34801561053f57600080fd5b506102b9612042565b34801561055457600080fd5b506102b9612051565b34801561056957600080fd5b506102046105783660046143dd565b612096565b34801561058957600080fd5b5061020461059836600461451e565b6122be565b3480156105a957600080fd5b5061039f612699565b3480156105be57600080fd5b506105d26105cd3660046143dd565b6126bb565b6040516102689c9b9a999897969594939291906153dd565b3480156105f657600080fd5b506102e6610605366004614254565b612773565b34801561061657600080fd5b5061062a61062536600461414d565b6127a1565b604051610268919061512d565b8160016000828152606d60205260409020600e0154600160a01b900460ff16600381111561066157fe5b146106875760405162461bcd60e51b815260040161067e90615339565b60405180910390fd5b61068f610dee565b6106ab5760405162461bcd60e51b815260040161067e90615329565b6106b361280d565b156106d05760405162461bcd60e51b815260040161067e90615259565b606a546001600160a01b03166106e581612887565b156107025760405162461bcd60e51b815260040161067e90615199565b603380546001908101918290556000868152606d6020526040902001546001600160a01b03163381146107475760405162461bcd60e51b815260040161067e906152f9565b6000868152606d60205260409020600501548511156107785760405162461bcd60e51b815260040161067e906151b9565b6000868152606d60205260409020600701544211156107a95760405162461bcd60e51b815260040161067e906152a9565b6109236107b4612699565b6001600160a01b031663269012a06107ca612699565b6001600160a01b031663d86d744e6040518163ffffffff1660e01b815260040160206040518083038186803b15801561080257600080fd5b505afa158015610816573d6000803e3d6000fd5b505050506040513d601f19601f8201168201806040525061083a9190810190614317565b6001600160a01b03166311880cc86040518163ffffffff1660e01b815260040160206040518083038186803b15801561087257600080fd5b505afa158015610886573d6000803e3d6000fd5b505050506040513d601f19601f820116820180604052506108aa91908101906142f9565b6040518263ffffffff1660e01b81526004016108c6919061514c565b60206040518083038186803b1580156108de57600080fd5b505afa1580156108f2573d6000803e3d6000fd5b505050506040513d601f19601f8201168201806040525061091691908101906142f9565b429063ffffffff61290c16565b6000878152606d60205260409020600a015411156109535760405162461bcd60e51b815260040161067e90615289565b6000868152606d60205260409020600d8101869055600b810186905560068101546003909101546109b8916301e13380916109ac91612710918391906109a0908c9063ffffffff61295716565b9063ffffffff61295716565b9063ffffffff61299116565b6000878152606d60205260409020600c810191909155600e01805460ff60a01b1916600160a11b1790556109ea613d95565b6109f3876129d3565b9050806060015115610a175760405162461bcd60e51b815260040161067e90615269565b6000878152606d6020526040902042600890910155610a3587612a24565b6000888152606d602052604090819020600e0180546001600160a01b0319166001600160a01b039384161790819055606a549151631397424760e11b81529183169263272e848e92610a8d928b921690600401615399565b600060405180830381600087803b158015610aa757600080fd5b505af1158015610abb573d6000803e3d6000fd5b5050506000888152606d602052604090819020600e0154905163cd6dc68760e01b81526001600160a01b03909116915063cd6dc68790610b019030908b90600401615112565b600060405180830381600087803b158015610b1b57600080fd5b505af1158015610b2f573d6000803e3d6000fd5b50505050610b3b612b1d565b6001600160a01b031663c7bbb113606a60009054906101000a90046001600160a01b03166001600160a01b031663aaaca5586040518163ffffffff1660e01b815260040160206040518083038186803b158015610b9757600080fd5b505afa158015610bab573d6000803e3d6000fd5b505050506040513d601f19601f82011682018060405250610bcf919081019061416b565b306001600160a01b031663b2016bd46040518163ffffffff1660e01b815260040160206040518083038186803b158015610c0857600080fd5b505afa158015610c1c573d6000803e3d6000fd5b505050506040513d601f19601f82011682018060405250610c40919081019061416b565b896040518463ffffffff1660e01b8152600401610c5f939291906150f7565b600060405180830381600087803b158015610c7957600080fd5b505af1158015610c8d573d6000803e3d6000fd5b5050506000888152606d602052604090819020600e81015460019091015491516001600160a01b03918216935091169089907f85b5516a17ce775661a4b967b1fb30c852678f6598d86d9f3c99b7b60ff2d0ce90610cec908b9061514c565b60405180910390a450506033548114610d175760405162461bcd60e51b815260040161067e90615349565b5050505050565b610d26610dee565b15610d435760405162461bcd60e51b815260040161067e90615359565b610d4f85858585612b97565b610d57612699565b6001600160a01b031663a734f06e6040518163ffffffff1660e01b815260040160206040518083038186803b158015610d8f57600080fd5b505afa158015610da3573d6000803e3d6000fd5b505050506040513d601f19601f82011682018060405250610dc7919081019061416b565b606780546001600160a01b0319166001600160a01b03929092169190911790555050505050565b600080604051610dfd90615082565b6040519081900390205492915050565b6001600160a01b0383166000908152606c60205260409020610e30908383613dbf565b50505050565b8160016000828152606d60205260409020600e0154600160a01b900460ff166003811115610e6057fe5b1480610e92575060026000828152606d60205260409020600e0154600160a01b900460ff166003811115610e9057fe5b145b610eae5760405162461bcd60e51b815260040161067e906151f9565b610eb6610dee565b610ed25760405162461bcd60e51b815260040161067e90615329565b610eda61280d565b15610ef75760405162461bcd60e51b815260040161067e90615259565b606a546001600160a01b0316610f0c81612887565b15610f295760405162461bcd60e51b815260040161067e90615199565b6000848152606d60205260409020600101546001600160a01b03868116911614610f655760405162461bcd60e51b815260040161067e906151d9565b823414610f845760405162461bcd60e51b815260040161067e906151e9565b60003411610fa45760405162461bcd60e51b815260040161067e906152d9565b610fae8484612ce8565b846001600160a01b0316847feec2f3feb835e2f2fd44281034b04700a1ddda63dd402949d470a25a7c40b36c85604051610fe8919061514c565b60405180910390a35050505050565b6069546001600160a01b031681565b6000818152606d60205260408120600b810154600c9091015461102e9163ffffffff612d4116565b90505b919050565b606855565b60665481565b611049613d95565b61102e82612d66565b60685481565b611060610dee565b61107c5760405162461bcd60e51b815260040161067e90615329565b611084612699565b6001600160a01b031663c095ea27336040518263ffffffff1660e01b81526004016110af91906150a6565b60006040518083038186803b1580156110c757600080fd5b505afa1580156110db573d6000803e3d6000fd5b505050506110f1816001600160a01b0316612f42565b61110d5760405162461bcd60e51b815260040161067e906152e9565b60695460408051808201909152601b81527f4e45575f4f5241434c455f4d5553545f42455f50524f5649444544000000000060208201526001600160a01b0390911690611163908290849063ffffffff612f7e16565b606980546001600160a01b0319166001600160a01b03848116918217909255604051909183169033907ff51f0fffc8121ee3747e0536c487d894894cdba960ccfb4ab385a88d51b16fed90600090a45050565b606b546001600160a01b031681565b606655565b6111d381612fa7565b50565b60006111e061280d565b806111fb5750606a546111fb906001600160a01b0316612887565b8061122d575060026000838152606d60205260409020600e0154600160a01b900460ff16600381111561122a57fe5b14155b1561123a57506000611031565b6000828152606d602052604081206008810154600690910154909142611266848463ffffffff612d4116565b109050801561127b5760019350505050611031565b6000858152606d60205260409020600e01546001600160a01b0316801561131857806001600160a01b031663415dfa5b6040518163ffffffff1660e01b815260040160206040518083038186803b1580156112d557600080fd5b505afa1580156112e9573d6000803e3d6000fd5b505050506040513d601f19601f8201168201806040525061130d91908101906142db565b945050505050611031565b611321866129d3565b606001519695505050505050565b606a54604080516334f293ed60e11b815290516000926001600160a01b0316916369e527da916004808301926020929190829003018186803b15801561137457600080fd5b505afa158015611388573d6000803e3d6000fd5b505050506040513d601f19601f820116820180604052506113ac919081019061416b565b90505b90565b828a6080013510156113d65760405162461bcd60e51b815260040161067e90615239565b60668054880190556040805161018081019091528b815260208101611400368d90038d018d6143bf565b81526020018a815260200189815260200188815260200187815260200186815260200185815260200184815260200160006001600160a01b0316815260200183600381111561144b57fe5b815282151560209182015260008d8152606d8252604090819020835181558383015180516001830180546001600160a01b03199081166001600160a01b0393841617909155948201516002840180548716918316919091179055818401516003808501919091556060808401516004860155608080850151600587015560a0948501516006870155958801516007860155870151600885015593860151600984015590850151600a83015560c0850151600b83015560e0850151600c830155610100850151600d830155610120850151600e830180549095169116178084556101408501519193919260ff60a01b1990911690600160a01b90849081111561154f57fe5b02179055506101609190910151600e9091018054911515600160a81b0260ff60a81b199092169190911790555050505050505050505050565b8060016000828152606d60205260409020600e0154600160a01b900460ff1660038111156115b257fe5b14806115e4575060026000828152606d60205260409020600e0154600160a01b900460ff1660038111156115e257fe5b145b6116005760405162461bcd60e51b815260040161067e906151f9565b611608610dee565b6116245760405162461bcd60e51b815260040161067e90615329565b61162c61280d565b156116495760405162461bcd60e51b815260040161067e90615259565b606a546001600160a01b031661165e81612887565b1561167b5760405162461bcd60e51b815260040161067e90615199565b603380546001908101918290556000858152606d6020526040902001546001600160a01b031633146116bf5760405162461bcd60e51b815260040161067e90615309565b600085116116df5760405162461bcd60e51b815260040161067e90615249565b6116e7613d95565b6116f0856129d3565b6040810151815191925060009161170c9163ffffffff61290c16565b90508681101561172e5760405162461bcd60e51b815260040161067e90615299565b611739868833613016565b336001600160a01b0316867f7c5e5cb62e5ed3caf3764e4b0afedfedef533e27809d43367799787ad2abcd4189604051611773919061514c565b60405180910390a350506033548114610d175760405162461bcd60e51b815260040161067e90615349565b600061102e82612a24565b600054610100900460ff16806117c257506117c2613097565b806117d0575060005460ff16155b6117ec5760405162461bcd60e51b815260040161067e906152b9565b600054610100900460ff16158015611817576000805460ff1961ff0019909116610100171660011790555b600160335580156111d3576000805461ff001916905550565b600061183a612699565b6001600160a01b031663269012a0611850612699565b6001600160a01b031663d86d744e6040518163ffffffff1660e01b815260040160206040518083038186803b15801561188857600080fd5b505afa15801561189c573d6000803e3d6000fd5b505050506040513d601f19601f820116820180604052506118c09190810190614317565b6001600160a01b03166308b04f626040518163ffffffff1660e01b815260040160206040518083038186803b1580156118f857600080fd5b505afa15801561190c573d6000803e3d6000fd5b505050506040513d601f19601f8201168201806040525061193091908101906142f9565b6040518263ffffffff1660e01b815260040161194c919061514c565b60206040518083038186803b15801561196457600080fd5b505afa158015611978573d6000803e3d6000fd5b505050506040513d601f19601f8201168201806040525061199c91908101906142f9565b6000838152606d602052604090206004015410159050919050565b6000918252606d6020526040909120600e0180546001600160a01b0319166001600160a01b03909216919091179055565b6119f0613d95565b61102e826129d3565b606a546001600160a01b031681565b611a10610dee565b611a2c5760405162461bcd60e51b815260040161067e90615329565b611a3461280d565b15611a515760405162461bcd60e51b815260040161067e90615259565b611a5e602085018561414d565b336001600160a01b03821614611a865760405162461bcd60e51b815260040161067e906152f9565b611a95368690038601866143a1565b6000611a9f612699565b6001600160a01b031663269012a0611ab5612699565b6001600160a01b031663d86d744e6040518163ffffffff1660e01b815260040160206040518083038186803b158015611aed57600080fd5b505afa158015611b01573d6000803e3d6000fd5b505050506040513d601f19601f82011682018060405250611b259190810190614317565b6001600160a01b031663cc44cadb6040518163ffffffff1660e01b815260040160206040518083038186803b158015611b5d57600080fd5b505afa158015611b71573d6000803e3d6000fd5b505050506040513d601f19601f82011682018060405250611b9591908101906142f9565b6040518263ffffffff1660e01b8152600401611bb1919061514c565b60206040518083038186803b158015611bc957600080fd5b505afa158015611bdd573d6000803e3d6000fd5b505050506040513d601f19601f82011682018060405250611c0191908101906142f9565b90508160a00151811015611c275760405162461bcd60e51b815260040161067e90615179565b6000611c31612699565b6001600160a01b03166369ff7744606a60009054906101000a90046001600160a01b03166001600160a01b031663aaaca5586040518163ffffffff1660e01b815260040160206040518083038186803b158015611c8d57600080fd5b505afa158015611ca1573d6000803e3d6000fd5b505050506040513d601f19601f82011682018060405250611cc5919081019061416b565b85608001516040518363ffffffff1660e01b8152600401611ce7929190615112565b60206040518083038186803b158015611cff57600080fd5b505afa158015611d13573d6000803e3d6000fd5b505050506040513d601f19601f82011682018060405250611d3791908101906142db565b90508015611d575760405162461bcd60e51b815260040161067e906151a9565b611d64836080015161309d565b611d805760405162461bcd60e51b815260040161067e90615319565b843414611d9f5760405162461bcd60e51b815260040161067e906151e9565b6000611da961340d565b606b5460405163064e5d4960e01b8152919250600091829182916001600160a01b039091169063064e5d4990611de7908f908f908f90600401615377565b606060405180830381600087803b158015611e0157600080fd5b505af1158015611e15573d6000803e3d6000fd5b505050506040513d601f19601f82011682018060405250611e39919081019061453d565b91945092509050611e5b84611e53368f90038f018f6143a1565b858585613427565b6000858152606d6020908152604091829020835181558382015180516001830180546001600160a01b03199081166001600160a01b0393841617909155938201516002840180548616918316919091179055818501516003808501919091556060808401516004860155608080850151600587015560a0948501516006870155968801516007860155870151600885015594860151600984015590850151600a83015560c0850151600b83015560e0850151600c830155610100850151600d830155610120850151600e83018054909416911617808355610140850151919391929160ff60a01b1990911690600160a01b908490811115611f5857fe5b02179055506101609190910151600e9091018054911515600160a81b0260ff60a81b199092169190911790553415611f9457611f948434612ce8565b606c6000611fa560208f018f61414d565b6001600160a01b031681526020808201929092526040016000908120805460018101825590825291902001849055611fef84611fe6368f90038f018f6143a1565b85858534613676565b505050505050505050505050565b606a546040805163155594ab60e31b815290516000926001600160a01b03169163aaaca558916004808301926020929190829003018186803b15801561137457600080fd5b6067546001600160a01b031681565b606a54604080516361aeb27560e11b815290516000926001600160a01b03169163c35d64ea916004808301926020929190829003018186803b15801561137457600080fd5b8060026000828152606d60205260409020600e0154600160a01b900460ff1660038111156120c057fe5b146120dd5760405162461bcd60e51b815260040161067e90615229565b6120e5610dee565b6121015760405162461bcd60e51b815260040161067e90615329565b61210961280d565b156121265760405162461bcd60e51b815260040161067e90615259565b606a546001600160a01b031661213b81612887565b156121585760405162461bcd60e51b815260040161067e90615199565b603380546001019081905561216b613d95565b61217485612d66565b905080606001516121975760405162461bcd60e51b815260040161067e90615219565b6000858152606d60205260409020600e01805460ff60a01b1916600360a01b1760ff60a81b1916600160a81b17905580516121d490869033613741565b606a5460408083015190516382f7b02760e01b81526001600160a01b03909216916382f7b027916122099133906004016153a7565b600060405180830381600087803b15801561222357600080fd5b505af1158015612237573d6000803e3d6000fd5b5050506000868152606d6020526040908190206001015483518483015192516001600160a01b03909216935088927f9950a0562c02382e2e840daa73082d5be7660ce37601f28fa4c84089c11e8a069261229492339290916150b4565b60405180910390a3506033548114610e305760405162461bcd60e51b815260040161067e90615349565b8060026000828152606d60205260409020600e0154600160a01b900460ff1660038111156122e857fe5b146123055760405162461bcd60e51b815260040161067e90615229565b61230d610dee565b6123295760405162461bcd60e51b815260040161067e90615329565b61233161280d565b1561234e5760405162461bcd60e51b815260040161067e90615259565b606a546001600160a01b031661236381612887565b156123805760405162461bcd60e51b815260040161067e90615199565b6033805460010190819055846123a85760405162461bcd60e51b815260040161067e90615189565b8460006123b486611006565b9050818110156123c2578091505b6123d2818363ffffffff61290c16565b90506123de86836137e4565b80612482576000868152606d60205260409020600e8101805460ff60a01b1916600360a01b179055600981015460019091015461242790889083906001600160a01b0316613016565b6000878152606d6020526040908190206001015490516001600160a01b039091169088907f7c5e5cb62e5ed3caf3764e4b0afedfedef533e27809d43367799787ad2abcd419061247890859061514c565b60405180910390a3505b606a5460405163acb7081560e01b81526001600160a01b039091169063acb70815906124b490859033906004016153a7565b600060405180830381600087803b1580156124ce57600080fd5b505af11580156124e2573d6000803e3d6000fd5b505050506124ee612b1d565b6001600160a01b03166362e269ef606a60009054906101000a90046001600160a01b03166001600160a01b031663aaaca5586040518163ffffffff1660e01b815260040160206040518083038186803b15801561254a57600080fd5b505afa15801561255e573d6000803e3d6000fd5b505050506040513d601f19601f82011682018060405250612582919081019061416b565b306001600160a01b031663b2016bd46040518163ffffffff1660e01b815260040160206040518083038186803b1580156125bb57600080fd5b505afa1580156125cf573d6000803e3d6000fd5b505050506040513d601f19601f820116820180604052506125f3919081019061416b565b856040518463ffffffff1660e01b8152600401612612939291906150f7565b600060405180830381600087803b15801561262c57600080fd5b505af1158015612640573d6000803e3d6000fd5b5050506000878152606d6020526040908190206001015490516001600160a01b03909116915087907f20a1f2ec363af45dc5ee7d9d622f2dd68b52501c382126c7f04b53663c4c69bf90611773908690339087906153c2565b60008060006040516126aa9061508d565b604051908190039020549250505090565b606d602090815260009182526040918290208054835160c08101855260018301546001600160a01b03908116825260028401548116948201949094526003830154948101949094526004820154606085015260058201546080850152600682015460a0850152600782015460088301546009840154600a850154600b860154600c870154600d880154600e9098015496999895979496939592949193909281169060ff600160a01b8204811691600160a81b9004168c565b606c602052816000526040600020818154811061278c57fe5b90600052602060002001600091509150505481565b6001600160a01b0381166000908152606c602090815260409182902080548351818402810184019094528084526060939283018282801561280157602002820191906000526020600020905b8154815260200190600101908083116127ed575b50505050509050919050565b6000612817612699565b6001600160a01b031663b187bd266040518163ffffffff1660e01b815260040160206040518083038186803b15801561284f57600080fd5b505afa158015612863573d6000803e3d6000fd5b505050506040513d601f19601f820116820180604052506113ac91908101906142db565b6000612891612699565b6001600160a01b0316633b668321836040518263ffffffff1660e01b81526004016128bc9190615098565b60206040518083038186803b1580156128d457600080fd5b505afa1580156128e8573d6000803e3d6000fd5b505050506040513d601f19601f8201168201806040525061102e91908101906142db565b600061294e83836040518060400160405280601e81526020017f536166654d6174683a207375627472616374696f6e206f766572666c6f7700008152506138a0565b90505b92915050565b60008261296657506000612951565b8282028284828161297357fe5b041461294e5760405162461bcd60e51b815260040161067e90615279565b600061294e83836040518060400160405280601a81526020017f536166654d6174683a206469766973696f6e206279207a65726f0000000000008152506138d1565b6129db613d95565b6000828152606d602052604081206009015490806129f885613908565b604080516080810182528681526020810193909352820181905293909311606084015250909392505050565b6000612a2e612699565b6001600160a01b031663bdd1daaa6040518163ffffffff1660e01b815260040160206040518083038186803b158015612a6657600080fd5b505afa158015612a7a573d6000803e3d6000fd5b505050506040513d601f19601f82011682018060405250612a9e9190810190614317565b6001600160a01b0316634614874e30846040518363ffffffff1660e01b8152600401612acb929190615112565b602060405180830381600087803b158015612ae557600080fd5b505af1158015612af9573d6000803e3d6000fd5b505050506040513d601f19601f8201168201806040525061102e919081019061416b565b6000612b27612699565b6001600160a01b0316631390f8d76040518163ffffffff1660e01b815260040160206040518083038186803b158015612b5f57600080fd5b505afa158015612b73573d6000803e3d6000fd5b505050506040513d601f19601f820116820180604052506113ac9190810190614317565b612b9f610dee565b15612bbc5760405162461bcd60e51b815260040161067e90615359565b60408051808201909152601681527550524f564944455f4f5241434c455f4144445245535360501b6020820152612c03906001600160a01b0386169063ffffffff61392c16565b60408051808201909152601c81527f50524f564944455f4c454e44494e475f504f4f4c5f41444452455353000000006020820152612c51906001600160a01b0385169063ffffffff61392c16565b60408051808201909152601b81527f50524f56494445445f4c4f414e5f5445524d535f4144445245535300000000006020820152612c9f906001600160a01b0384169063ffffffff61392c16565b612ca881613954565b50606980546001600160a01b039485166001600160a01b031991821617909155606a805493851693821693909317909255606b8054919093169116179055565b606654612cfb908263ffffffff612d4116565b6066556000828152606d6020526040902060090154612d20908263ffffffff612d4116565b6000928352606d602052604090922060098101929092555042600a90910155565b60008282018381101561294e5760405162461bcd60e51b815260040161067e906151c9565b612d6e613d95565b6000828152606d602052604081206009015490612d89612699565b6001600160a01b031663269012a0612d9f612699565b6001600160a01b031663d86d744e6040518163ffffffff1660e01b815260040160206040518083038186803b158015612dd757600080fd5b505afa158015612deb573d6000803e3d6000fd5b505050506040513d601f19601f82011682018060405250612e0f9190810190614317565b6001600160a01b0316631139087a6040518163ffffffff1660e01b815260040160206040518083038186803b158015612e4757600080fd5b505afa158015612e5b573d6000803e3d6000fd5b505050506040513d601f19601f82011682018060405250612e7f91908101906142f9565b6040518263ffffffff1660e01b8152600401612e9b919061514c565b60206040518083038186803b158015612eb357600080fd5b505afa158015612ec7573d6000803e3d6000fd5b505050506040513d601f19601f82011682018060405250612eeb91908101906142f9565b90506000612ef8836139fd565b60408051608081018252858152602081018390529192508101612f276127106109ac858763ffffffff61295716565b8152602001612f35876111d6565b1515905295945050505050565b6000813f7fc5d2460186f7233c927e7db2dcc703c0e500b653ca82273b7bfad8045d85a470818114801590612f7657508115155b949350505050565b612f888383613b37565b8190610e305760405162461bcd60e51b815260040161067e9190615168565b612fc0612fb2612699565b6001600160a01b0316613b49565b15612fca576111d3565b612fdc816001600160a01b0316612f42565b612ff85760405162461bcd60e51b815260040161067e90615209565b60006040516130069061508d565b6040519081900390208290555050565b606654613029908363ffffffff61290c16565b6066556000838152606d602052604090206009015461304e908363ffffffff61290c16565b6000848152606d60205260408082206009019290925590516001600160a01b0383169184156108fc02918591818181858888f19350505050158015610e30573d6000803e3d6000fd5b303b1590565b6000806130a8612699565b6001600160a01b031663dc21a6a06040518163ffffffff1660e01b815260040160206040518083038186803b1580156130e057600080fd5b505afa1580156130f4573d6000803e3d6000fd5b505050506040513d601f19601f820116820180604052506131189190810190614317565b6001600160a01b0316631fb7cec9606a60009054906101000a90046001600160a01b03166001600160a01b031663aaaca5586040518163ffffffff1660e01b815260040160206040518083038186803b15801561317457600080fd5b505afa158015613188573d6000803e3d6000fd5b505050506040513d601f19601f820116820180604052506131ac919081019061416b565b6067546040516001600160e01b031960e085901b1681526131da92916001600160a01b0316906004016150dc565b60206040518083038186803b1580156131f257600080fd5b505afa158015613206573d6000803e3d6000fd5b505050506040513d601f19601f8201168201806040525061322a919081019061416b565b90506001600160a01b0381166132525760405162461bcd60e51b815260040161067e906152c9565b604051632319178560e11b81526000906001600160a01b038316906346322f0a90613290906b14dd5c1c1b1e551bd119589d60a21b9060040161514c565b60206040518083038186803b1580156132a857600080fd5b505afa1580156132bc573d6000803e3d6000fd5b505050506040513d601f19601f820116820180604052506132e091908101906142f9565b905060006132ec612b1d565b6001600160a01b031663db63323e606a60009054906101000a90046001600160a01b03166001600160a01b031663aaaca5586040518163ffffffff1660e01b815260040160206040518083038186803b15801561334857600080fd5b505afa15801561335c573d6000803e3d6000fd5b505050506040513d601f19601f82011682018060405250613380919081019061416b565b6067546040516001600160e01b031960e085901b1681526133b092916001600160a01b0316908a906004016150f7565b60206040518083038186803b1580156133c857600080fd5b505afa1580156133dc573d6000803e3d6000fd5b505050506040513d601f19601f8201168201806040525061340091908101906142f9565b9190911115949350505050565b60685461342181600163ffffffff612d4116565b60685590565b61342f613e0a565b6000613439612699565b6001600160a01b031663269012a061344f612699565b6001600160a01b031663d86d744e6040518163ffffffff1660e01b815260040160206040518083038186803b15801561348757600080fd5b505afa15801561349b573d6000803e3d6000fd5b505050506040513d601f19601f820116820180604052506134bf9190810190614317565b6001600160a01b031663e00a46156040518163ffffffff1660e01b815260040160206040518083038186803b1580156134f757600080fd5b505afa15801561350b573d6000803e3d6000fd5b505050506040513d601f19601f8201168201806040525061352f91908101906142f9565b6040518263ffffffff1660e01b815260040161354b919061514c565b60206040518083038186803b15801561356357600080fd5b505afa158015613577573d6000803e3d6000fd5b505050506040513d601f19601f8201168201806040525061359b91908101906142f9565b905060006135af428363ffffffff612d4116565b90506040518061018001604052808981526020016040518060c001604052808a600001516001600160a01b031681526020018a602001516001600160a01b031681526020018981526020018881526020018781526020018a60a00151815250815260200182815260200160008152602001600081526020016000815260200160008152602001600081526020016000815260200160006001600160a01b031681526020016001600381111561366057fe5b8152600060209091015298975050505050505050565b84602001516001600160a01b031685600001516001600160a01b0316877f0358f509931cba53bbb6a94b7f05a5178220a0c7ddb54b1a1722df9e6ed6aa098787878b60a00151606d60008f8152602001908152602001600020600701546040516136e4959493929190615495565b60405180910390a480156137395784600001516001600160a01b0316867feec2f3feb835e2f2fd44281034b04700a1ddda63dd402949d470a25a7c40b36c83604051613730919061514c565b60405180910390a35b505050505050565b6000838152606d60205260409020600e01546001600160a01b0316156137d4576000838152606d602052604090819020600e0154905163df8de3e760e01b81526001600160a01b039091169063df8de3e7906137a19084906004016150a6565b600060405180830381600087803b1580156137bb57600080fd5b505af11580156137cf573d6000803e3d6000fd5b505050505b6137df838383613016565b505050565b6000828152606d60205260409020600b0154811115613867576000828152606d60205260409020600b0154819061382290829063ffffffff61290c16565b6000848152606d60205260408120600b810191909155600c015490915061384f908263ffffffff61290c16565b6000848152606d60205260409020600c01555061389c565b6000828152606d60205260409020600b0154613889908263ffffffff61290c16565b6000838152606d60205260409020600b01555b5050565b600081848411156138c45760405162461bcd60e51b815260040161067e9190615168565b50508183035b9392505050565b600081836138f25760405162461bcd60e51b815260040161067e9190615168565b5060008385816138fe57fe5b0495945050505050565b600080600061391684613b57565b90508061392282613c00565b9250925050915091565b61393582613b49565b81906137df5760405162461bcd60e51b815260040161067e9190615168565b61395c610dee565b156139795760405162461bcd60e51b815260040161067e90615359565b60408051808201909152601981527f53455454494e47535f4d5553545f42455f50524f56494445440000000000000060208201526139c7906001600160a01b0383169063ffffffff61392c16565b6139d9816001600160a01b0316612f42565b6139f55760405162461bcd60e51b815260040161067e90615209565b6111ca613cf6565b600080613a97606a60009054906101000a90046001600160a01b03166001600160a01b031663aaaca5586040518163ffffffff1660e01b815260040160206040518083038186803b158015613a5157600080fd5b505afa158015613a65573d6000803e3d6000fd5b505050506040513d601f19601f82011682018060405250613a89919081019061416b565b6001600160a01b0316613d14565b90506000606960009054906101000a90046001600160a01b03166001600160a01b03166396237c026040518163ffffffff1660e01b815260040160206040518083038186803b158015613ae957600080fd5b505afa158015613afd573d6000803e3d6000fd5b505050506040513d601f19601f82011682018060405250613b2191908101906142f9565b9050612f76816109ac868563ffffffff61295716565b6001600160a01b039081169116141590565b6001600160a01b0316151590565b6000818152606d60205260408120600e0154600160a01b900460ff16816001826003811115613b8257fe5b1415613ba057506000838152606d6020526040902060050154613bcf565b6002826003811115613bae57fe5b1415613bc457613bbd84611006565b9050613bcf565b600092505050611031565b6000848152606d6020526040902060040154613bf76127106109ac848463ffffffff61295716565b95945050505050565b600080613c54606a60009054906101000a90046001600160a01b03166001600160a01b031663aaaca5586040518163ffffffff1660e01b815260040160206040518083038186803b158015613a5157600080fd5b90506000606960009054906101000a90046001600160a01b03166001600160a01b03166396237c026040518163ffffffff1660e01b815260040160206040518083038186803b158015613ca657600080fd5b505afa158015613cba573d6000803e3d6000fd5b505050506040513d601f19601f82011682018060405250613cde91908101906142f9565b90506000613bf7836109ac878563ffffffff61295716565b6000604051613d0490615082565b6040519081900390206001905550565b600080826001600160a01b031663313ce5676040518163ffffffff1660e01b815260040160206040518083038186803b158015613d5057600080fd5b505afa158015613d64573d6000803e3d6000fd5b505050506040513d601f19601f82011682018060405250613d889190810190614580565b60ff16600a0a9392505050565b60405180608001604052806000815260200160008152602001600081526020016000151581525090565b828054828255906000526020600020908101928215613dfa579160200282015b82811115613dfa578235825591602001919060010190613ddf565b50613e06929150613e85565b5090565b60405180610180016040528060008152602001613e25613e9f565b81526020016000815260200160008152602001600081526020016000815260200160008152602001600081526020016000815260200160006001600160a01b0316815260200160006003811115613e7857fe5b8152600060209091015290565b6113af91905b80821115613e065760008155600101613e8b565b6040518060c0016040528060006001600160a01b0316815260200160006001600160a01b03168152602001600081526020016000815260200160008152602001600081525090565b8035612951816155dc565b8051612951816155dc565b60008083601f840112613f0f57600080fd5b50813567ffffffffffffffff811115613f2757600080fd5b60208301915083610140820283011115613f4057600080fd5b9250929050565b60008083601f840112613f5957600080fd5b50813567ffffffffffffffff811115613f7157600080fd5b602083019150836020820283011115613f4057600080fd5b8035612951816155f0565b8051612951816155f0565b8035612951816155f9565b8051612951816155f9565b805161295181615602565b80356129518161560b565b600060e08284031215613fdd57600080fd5b50919050565b600060e08284031215613ff557600080fd5b613fff60e06154e1565b9050600061400d8484613ee7565b825250602061401e84848301613ee7565b602083015250604061403284828501613ee7565b604083015250606061404684828501613f9f565b606083015250608061405a84828501613f9f565b60808301525060a061406e84828501613f9f565b60a08301525060c061408284828501613f9f565b60c08301525092915050565b600060c08284031215613fdd57600080fd5b600060c082840312156140b257600080fd5b6140bc60c06154e1565b905060006140ca8484613ee7565b82525060206140db84848301613ee7565b60208301525060406140ef84828501613f9f565b604083015250606061410384828501613f9f565b606083015250608061411784828501613f9f565b60808301525060a061412b84828501613f9f565b60a08301525092915050565b803561295181615618565b805161295181615618565b60006020828403121561415f57600080fd5b6000612f768484613ee7565b60006020828403121561417d57600080fd5b6000612f768484613ef2565b600080600080600060a086880312156141a157600080fd5b60006141ad8888613ee7565b95505060206141be88828901613ee7565b94505060406141cf88828901613ee7565b93505060606141e088828901613ee7565b92505060806141f188828901613ee7565b9150509295509295909350565b60008060006040848603121561421357600080fd5b600061421f8686613ee7565b935050602084013567ffffffffffffffff81111561423c57600080fd5b61424886828701613f47565b92509250509250925092565b6000806040838503121561426757600080fd5b60006142738585613ee7565b925050602061428485828601613f9f565b9150509250929050565b6000806000606084860312156142a357600080fd5b60006142af8686613ee7565b93505060206142c086828701613f9f565b92505060406142d186828701613f9f565b9150509250925092565b6000602082840312156142ed57600080fd5b6000612f768484613f94565b60006020828403121561430b57600080fd5b6000612f768484613faa565b60006020828403121561432957600080fd5b6000612f768484613fb5565b600080600080610120858703121561434c57600080fd5b60006143588787613fcb565b94505060e085013567ffffffffffffffff81111561437557600080fd5b61438187828801613efd565b935093505061010061439587828801613f9f565b91505092959194509250565b600060e082840312156143b357600080fd5b6000612f768484613fe3565b600060c082840312156143d157600080fd5b6000612f7684846140a0565b6000602082840312156143ef57600080fd5b6000612f768484613f9f565b6000806040838503121561440e57600080fd5b600061441a8585613f9f565b925050602061428485828601613ee7565b60008060008060008060008060008060006102008c8e03121561444d57600080fd5b60006144598e8e613f9f565b9b5050602061446a8e828f0161408e565b9a505060e061447b8e828f01613f9f565b99505061010061448d8e828f01613f9f565b98505061012061449f8e828f01613f9f565b9750506101406144b18e828f01613f9f565b9650506101606144c38e828f01613f9f565b9550506101806144d58e828f01613f9f565b9450506101a06144e78e828f01613f9f565b9350506101c06144f98e828f01613fc0565b9250506101e061450b8e828f01613f89565b9150509295989b509295989b9093969950565b6000806040838503121561453157600080fd5b60006142738585613f9f565b60008060006060848603121561455257600080fd5b600061455e8686613faa565b935050602061456f86828701613faa565b92505060406142d186828701613faa565b60006020828403121561459257600080fd5b6000612f768484614142565b60006145aa8383614ee5565b50506101400190565b60006145bf838361468e565b505060200190565b6145d081615586565b82525050565b6145d08161554f565b60006145eb8385615519565b93506145f6826113af565b8060005b8581101561462c5761460c8284613e06565b614616888261459e565b975061462183615512565b9250506001016145fa565b509495945050505050565b60006146428261550e565b61464c8185615519565b935061465783615508565b8060005b8381101561462c57815161466f88826145b3565b975061467a83615508565b92505060010161465b565b6145d08161555a565b6145d0816113af565b6145d08161555f565b6145d081615591565b60006146b48261550e565b6146be8185615519565b93506146ce81856020860161559c565b6146d7816155c8565b9093019392505050565b60006146ee601d83615519565b7f4455524154494f4e5f455843454544535f4d41585f4455524154494f4e000000815260200192915050565b6000614727601c83611031565b7f54496e697469616c697a61626c652e6973496e697469616c697a6564000000008152601c0192915050565b6000614760601583615519565b74105353d5539517d59053155157d491545552549151605a1b815260200192915050565b6000614791601683615519565b7513115391125391d7d413d3d317d254d7d4105554d15160521b815260200192915050565b60006147c3601983615519565b7f414d4f554e545f455843454544535f4d41585f414d4f554e5400000000000000815260200192915050565b60006147fc601183615519565b7013505617d313d05397d15610d151511151607a1b815260200192915050565b6000614829601b83615519565b7f536166654d6174683a206164646974696f6e206f766572666c6f770000000000815260200192915050565b6000614862601983615519565b7f424f52524f5745525f4c4f414e5f49445f4d49534d4154434800000000000000815260200192915050565b600061489b601483615519565b73125390d3d4949150d517d1551217d05353d5539560621b815260200192915050565b60006148cb601683615519565b751313d05397d393d517d050d512559157d3d497d4d15560521b815260200192915050565b60006148fd601b83615519565b7f53455454494e47535f4d5553545f42455f415f434f4e54524143540000000000815260200192915050565b6000614936601783615519565b7f444f45534e545f4e4545445f4c49515549444154494f4e000000000000000000815260200192915050565b600061496f600f83615519565b6e4c4f414e5f4e4f545f41435449564560881b815260200192915050565b600061499a601b83615519565b7f424f52524f5745445f414d4f554e545f455843454544535f4d41580000000000815260200192915050565b60006149d3601483615519565b7343414e4e4f545f57495448445241575f5a45524f60601b815260200192915050565b6000614a03601283615519565b71141310551193d49357d254d7d4105554d15160721b815260200192915050565b6000614a31601883615519565b7f4d4f52455f434f4c4c41544552414c5f52455155495245440000000000000000815260200192915050565b6000614a6a602183615519565b7f536166654d6174683a206d756c7469706c69636174696f6e206f766572666c6f8152607760f81b602082015260400192915050565b6000614aad601d83615519565b7f434f4c4c41544552414c5f4445504f53495445445f524543454e544c59000000815260200192915050565b6000614ae6601a83615519565b7f434f4c4c41544552414c5f414d4f554e545f544f4f5f48494748000000000000815260200192915050565b6000614b1f601283615519565b711313d05397d511549354d7d156141254915160721b815260200192915050565b6000614b4d602e83615519565b7f436f6e747261637420696e7374616e63652068617320616c726561647920626581526d195b881a5b9a5d1a585b1a5e995960921b602082015260400192915050565b6000614b9d601883615519565b7f41544d5f4e4f545f464f554e445f464f525f4d41524b45540000000000000000815260200192915050565b6000614bd6601383615519565b7243414e4e4f545f4445504f5349545f5a45524f60681b815260200192915050565b6000614c05601e83615519565b7f4f5241434c455f4d5553545f434f4e54524143545f4e4f545f454d5054590000815260200192915050565b6000614c3e601783615519565b7f424f52524f5745525f4d5553545f42455f53454e444552000000000000000000815260200192915050565b6000614c77601683615519565b7521a0a62622a92fa227a2a9a72a2fa7aba72fa627a0a760511b815260200192915050565b6000614ca9601883611031565b7f426173655570677261646561626c652e73657474696e67730000000000000000815260180192915050565b6000614ce2601a83615519565b7f535550504c595f544f5f444542545f455843454544535f4d4158000000000000815260200192915050565b6000614d1b601883615519565b7f434f4e54524143545f4e4f545f494e495449414c495a45440000000000000000815260200192915050565b6000614d54600c83615519565b6b1313d05397d393d517d4d15560a21b815260200192915050565b6000614d7c601f83615519565b7f5265656e7472616e637947756172643a207265656e7472616e742063616c6c00815260200192915050565b6000614db5601c83615519565b7f434f4e54524143545f414c52454144595f494e495449414c495a454400000000815260200192915050565b80516080830190614df2848261468e565b506020820151614e05602085018261468e565b506040820151614e18604085018261468e565b506060820151610e306060850182614685565b60e08201614e398280615522565b614e4384826145d6565b50614e516020830183615522565b614e5e60208501826145d6565b50614e6c6040830183615522565b614e7960408501826145d6565b50614e876060830183615531565b614e94606085018261468e565b50614ea26080830183615531565b614eaf608085018261468e565b50614ebd60a0830183615531565b614eca60a085018261468e565b50614ed860c0830183615531565b610e3060c085018261468e565b6101408201614ef48280615522565b614efe84826145d6565b50614f0c6020830183615522565b614f1960208501826145d6565b50614f276040830183615531565b614f34604085018261468e565b50614f426060830183615531565b614f4f606085018261468e565b50614f5d6080830183615531565b614f6a608085018261468e565b50614f7860a0830183615531565b614f8560a085018261468e565b50614f9360c0830183613e06565b610e3060c0850182615010565b805160c0830190614fb184826145d6565b506020820151614fc460208501826145d6565b506040820151614fd7604085018261468e565b506060820151614fea606085018261468e565b506080820151614ffd608085018261468e565b5060a0820151610e3060a085018261468e565b6080820161501e8280615531565b615028848261468e565b506150366020830183615540565b6150436020850182615079565b506150516040830183615531565b61505e604085018261468e565b5061506c6060830183615531565b610e30606085018261468e565b6145d081615580565b60006129518261471a565b600061295182614c9c565b6020810161295182846145d6565b6020810161295182846145c7565b606081016150c282866145c7565b6150cf602083018561468e565b612f76604083018461468e565b604081016150ea82856145d6565b6138ca60208301846145d6565b6060810161510582866145d6565b6150cf60208301856145d6565b6040810161512082856145d6565b6138ca602083018461468e565b6020808252810161294e8184614637565b602081016129518284614685565b60208101612951828461468e565b602081016129518284614697565b6020808252810161294e81846146a9565b6020808252810161102e816146e1565b6020808252810161102e81614753565b6020808252810161102e81614784565b6020808252810161102e816147b6565b6020808252810161102e816147ef565b6020808252810161102e8161481c565b6020808252810161102e81614855565b6020808252810161102e8161488e565b6020808252810161102e816148be565b6020808252810161102e816148f0565b6020808252810161102e81614929565b6020808252810161102e81614962565b6020808252810161102e8161498d565b6020808252810161102e816149c6565b6020808252810161102e816149f6565b6020808252810161102e81614a24565b6020808252810161102e81614a5d565b6020808252810161102e81614aa0565b6020808252810161102e81614ad9565b6020808252810161102e81614b12565b6020808252810161102e81614b40565b6020808252810161102e81614b90565b6020808252810161102e81614bc9565b6020808252810161102e81614bf8565b6020808252810161102e81614c31565b6020808252810161102e81614c6a565b6020808252810161102e81614cd5565b6020808252810161102e81614d0e565b6020808252810161102e81614d47565b6020808252810161102e81614d6f565b6020808252810161102e81614da8565b608081016129518284614de1565b61010081016153868286614e2b565b81810360e0830152613bf78184866145df565b604081016150ea828561468e565b604081016153b5828561468e565b6138ca60208301846145c7565b606081016153d0828661468e565b6150cf60208301856145c7565b61022081016153ec828f61468e565b6153f9602083018e614fa0565b61540660e083018d61468e565b61541461010083018c61468e565b61542261012083018b61468e565b61543061014083018a61468e565b61543e61016083018961468e565b61544c61018083018861468e565b61545a6101a083018761468e565b6154686101c08301866145d6565b6154766101e08301856146a0565b615484610200830184614685565b9d9c50505050505050505050505050565b60a081016154a3828861468e565b6154b0602083018761468e565b6154bd604083018661468e565b6154ca606083018561468e565b6154d7608083018461468e565b9695505050505050565b60405181810167ffffffffffffffff8111828210171561550057600080fd5b604052919050565b60200190565b5190565b6101400190565b90815260200190565b600061294e6020840184613ee7565b600061294e6020840184613f9f565b600061294e6020840184614137565b600061102e82615574565b151590565b600061102e8261554f565b80611031816155d2565b6001600160a01b031690565b60ff1690565b600061102e8261555f565b600061102e8261556a565b60005b838110156155b757818101518382015260200161559f565b83811115610e305750506000910152565b601f01601f191690565b600481106111d357fe5b6155e58161554f565b81146111d357600080fd5b6155e58161555a565b6155e5816113af565b6155e58161555f565b600481106111d357600080fd5b6155e58161558056fea365627a7a72315820cdc0a437c19e6990e871cc308a5c41e1a01c52f12220d5458e0517aa981adf186c6578706572696d656e74616cf564736f6c63430005110040",
  "source": "pragma solidity 0.5.17;\npragma experimental ABIEncoderV2;\n\nimport \"../../base/EtherCollateralLoans.sol\";\nimport \"./LoansBaseMock.sol\";\n\ncontract EtherCollateralLoansMock is EtherCollateralLoans {\n    function setLoanIDCounter(uint256 newLoanIdCounter) external {\n        loanIDCounter = newLoanIdCounter;\n    }\n\n    function setBorrowerLoans(address borrower, uint256[] calldata loanIDs) external {\n        borrowerLoans[borrower] = loanIDs;\n    }\n\n    function setTotalCollateral(uint256 amount) external {\n        totalCollateral = amount;\n    }\n\n    function setEscrowForLoan(uint256 loanID, address escrowAddress) external {\n        loans[loanID].escrow = escrowAddress;\n    }\n\n    function setLoan(\n        uint256 id,\n        TellerCommon.LoanTerms calldata loanTerms,\n        uint256 termsExpiry,\n        uint256 loanStartTime,\n        uint256 collateral,\n        uint256 lastCollateralIn,\n        uint256 principalOwed,\n        uint256 interestOwed,\n        uint256 borrowedAmount,\n        TellerCommon.LoanStatus status,\n        bool liquidated\n    ) external {\n        require(loanTerms.maxLoanAmount >= borrowedAmount, \"BORROWED_AMOUNT_EXCEEDS_MAX\");\n        totalCollateral += collateral;\n        loans[id] = TellerCommon.Loan({\n            id: id,\n            loanTerms: loanTerms,\n            termsExpiry: termsExpiry,\n            loanStartTime: loanStartTime,\n            collateral: collateral,\n            lastCollateralIn: lastCollateralIn,\n            principalOwed: principalOwed,\n            interestOwed: interestOwed,\n            borrowedAmount: borrowedAmount,\n            escrow: address(0x0),\n            status: status,\n            liquidated: liquidated\n        });\n    }\n\n    function externalCreateEscrow(uint256 loanID) external returns (address) {\n        return super._createEscrow(loanID);\n    }\n\n    function externalSetSettings(address settingsAddress) external {\n        _setSettings(settingsAddress);\n    }\n\n    function() external payable {}\n}\n",
  "sourcePath": "/Users/guillesalazar/Repos/ZeroCollateral/smart-contracts-v1/contracts/mock/base/EtherCollateralLoansMock.sol",
  "compiler": {
    "name": "solc",
    "version": "0.5.17+commit.d19bba13.Emscripten.clang"
  },
  "schemaVersion": "3.2.3",
  "updatedAt": "2020-10-12T14:23:11.520Z",
  "devdoc": {
    "methods": {
      "cToken()": {
        "return": "Address of the cToken"
      },
      "canLiquidateLoan(uint256)": {
        "params": {
          "loanID": "The ID of the loan to check"
        },
        "return": "bool weather the loan can be liquidated"
      },
      "createLoanWithTerms((address,address,address,uint256,uint256,uint256,uint256),(address,address,uint256,uint256,uint256,uint256,(uint256,uint8,bytes32,bytes32))[],uint256)": {
        "params": {
          "collateralAmount": "Amount of collateral required for the loan",
          "request": "Struct of the protocol loan request",
          "responses": "List of structs of the protocol loan responses"
        }
      },
      "depositCollateral(address,uint256,uint256)": {
        "params": {
          "borrower": "The address of the loan borrower.",
          "loanID": "The ID of the loan the collateral is for"
        }
      },
      "getBorrowerLoans(address)": {
        "params": {
          "borrower": "The borrower's address"
        }
      },
      "getCollateralInfo(uint256)": {
        "params": {
          "loanID": "of the loan to get info for"
        },
        "return": "memory TellerCommon.LoanCollateralInfo Collateral information of the loan"
      },
      "getLiquidationInfo(uint256)": {
        "params": {
          "loanID": "loan id to get the info."
        },
        "return": "liquidationInfo get current liquidation info for the given loan id."
      },
      "getTotalOwed(uint256)": {
        "params": {
          "loanID": "The ID of the loan to be queried"
        },
        "return": "uint256 The total amount owed remaining"
      },
      "initialize(address,address,address,address,address)": {
        "params": {
          "lendingPoolAddress": "Contract address of the lending pool",
          "loanTermsConsensusAddress": "Contract adddress for loan term consensus",
          "priceOracleAddress": "Contract address of the price oracle",
          "settingsAddress": "Contract address for the configuration of the platform"
        }
      },
      "initialized()": {
        "return": "true if contract is initialized. Otherwise it returns false."
      },
      "isLoanSecured(uint256)": {
        "return": "bool value of it being secured or not."
      },
      "lendingToken()": {
        "return": "Address of the lending token"
      },
      "liquidateLoan(uint256)": {
        "params": {
          "loanID": "The ID of the loan to be liquidated"
        }
      },
      "repay(uint256,uint256)": {
        "params": {
          "amount": "The amount of tokens to pay back to the loan",
          "loanID": "The ID of the loan the payment is for"
        }
      },
      "setPriceOracle(address)": {
        "details": "It throws a require error if sender is not allowed.It throws a require error if new address is empty (0x0) or not a contract.",
        "params": {
          "newPriceOracle": "the new price oracle address."
        }
      },
      "settings()": {
        "details": "This address should NOT change over the time. See details in the _setSettings(...) function."
      },
      "tToken()": {
        "return": "Address of the tToken"
      },
      "takeOutLoan(uint256,uint256)": {
        "details": "collateral ratio is a percentage of the loan amount that's required in collateralthe percentage will be *(10**2). I.e. collateralRatio of 5244 means 52.44% collateralis required in the loan. Interest rate is also a percentage with 2 decimal points."
      },
      "withdrawCollateral(uint256,uint256)": {
        "params": {
          "amount": "The amount of collateral token or ether the caller is hoping to withdraw.",
          "loanID": "The ID of the loan the collateral is for"
        }
      }
    }
  },
  "userdoc": {
    "methods": {
      "cToken()": {
        "notice": "Returns the cToken in the lending pool"
      },
      "canLiquidateLoan(uint256)": {
        "notice": "A loan can be liquidated if it is: under collateralized or expired"
      },
      "createLoanWithTerms((address,address,address,uint256,uint256,uint256,uint256),(address,address,uint256,uint256,uint256,uint256,(uint256,uint8,bytes32,bytes32))[],uint256)": {
        "notice": "Creates a loan with the loan request and terms"
      },
      "depositCollateral(address,uint256,uint256)": {
        "notice": "Deposit collateral into a loan"
      },
      "getBorrowerLoans(address)": {
        "notice": "Get a list of all loans for a borrower"
      },
      "getCollateralInfo(uint256)": {
        "notice": "Get collateral information of a specific loan"
      },
      "getLiquidationInfo(uint256)": {
        "notice": "It getss the current liquidation info for a given loan id."
      },
      "getTotalOwed(uint256)": {
        "notice": "Returns the total owed amount remaining for a specified loan"
      },
      "initialize(address,address,address,address,address)": {
        "notice": "Initializes the current contract instance setting the required parameters"
      },
      "initialized()": {
        "notice": "Gets if the contract is initialized."
      },
      "isLoanSecured(uint256)": {
        "notice": "Checks wheather the loan's collateral ratio is considered to be secured based on the settings collateral buffer value."
      },
      "lendingToken()": {
        "notice": "Returns the lending token in the lending pool"
      },
      "liquidateLoan(uint256)": {
        "notice": "Liquidate a loan if it is expired or under collateralized"
      },
      "repay(uint256,uint256)": {
        "notice": "Make a payment to a loan"
      },
      "setPriceOracle(address)": {
        "notice": "Updates the current price oracle instance."
      },
      "settings()": {
        "notice": "The gets the settings contract address from the SETTINGS_SLOT."
      },
      "tToken()": {
        "notice": "Returns the tToken in the lending pool"
      },
      "takeOutLoan(uint256,uint256)": {
        "notice": "Take out a loan"
      },
      "withdrawCollateral(uint256,uint256)": {
        "notice": "Withdraw collateral from a loan, unless this isn't allowed"
      }
    }
  }
}