{
  "contractName": "EtherCollateralLoansMock",
  "abi": [
    {
      "anonymous": false,
      "inputs": [
        {
          "indexed": true,
          "internalType": "uint256",
          "name": "loanID",
          "type": "uint256"
        },
        {
          "indexed": true,
          "internalType": "address",
          "name": "borrower",
          "type": "address"
        },
        {
          "indexed": false,
          "internalType": "uint256",
          "name": "depositAmount",
          "type": "uint256"
        }
      ],
      "name": "CollateralDeposited",
      "type": "event"
    },
    {
      "anonymous": false,
      "inputs": [
        {
          "indexed": true,
          "internalType": "uint256",
          "name": "loanID",
          "type": "uint256"
        },
        {
          "indexed": true,
          "internalType": "address",
          "name": "borrower",
          "type": "address"
        },
        {
          "indexed": false,
          "internalType": "uint256",
          "name": "withdrawalAmount",
          "type": "uint256"
        }
      ],
      "name": "CollateralWithdrawn",
      "type": "event"
    },
    {
      "anonymous": false,
      "inputs": [
        {
          "indexed": true,
          "internalType": "uint256",
          "name": "loanID",
          "type": "uint256"
        },
        {
          "indexed": true,
          "internalType": "address",
          "name": "borrower",
          "type": "address"
        },
        {
          "indexed": false,
          "internalType": "address",
          "name": "liquidator",
          "type": "address"
        },
        {
          "indexed": false,
          "internalType": "uint256",
          "name": "collateralOut",
          "type": "uint256"
        },
        {
          "indexed": false,
          "internalType": "uint256",
          "name": "tokensIn",
          "type": "uint256"
        }
      ],
      "name": "LoanLiquidated",
      "type": "event"
    },
    {
      "anonymous": false,
      "inputs": [
        {
          "indexed": true,
          "internalType": "uint256",
          "name": "loanID",
          "type": "uint256"
        },
        {
          "indexed": true,
          "internalType": "address",
          "name": "borrower",
          "type": "address"
        },
        {
          "indexed": false,
          "internalType": "uint256",
          "name": "amountPaid",
          "type": "uint256"
        },
        {
          "indexed": false,
          "internalType": "address",
          "name": "payer",
          "type": "address"
        },
        {
          "indexed": false,
          "internalType": "uint256",
          "name": "totalOwed",
          "type": "uint256"
        }
      ],
      "name": "LoanRepaid",
      "type": "event"
    },
    {
      "anonymous": false,
      "inputs": [
        {
          "indexed": true,
          "internalType": "uint256",
          "name": "loanID",
          "type": "uint256"
        },
        {
          "indexed": true,
          "internalType": "address",
          "name": "borrower",
          "type": "address"
        },
        {
          "indexed": true,
          "internalType": "address",
          "name": "escrow",
          "type": "address"
        },
        {
          "indexed": false,
          "internalType": "uint256",
          "name": "amountBorrowed",
          "type": "uint256"
        }
      ],
      "name": "LoanTakenOut",
      "type": "event"
    },
    {
      "anonymous": false,
      "inputs": [
        {
          "indexed": true,
          "internalType": "uint256",
          "name": "loanID",
          "type": "uint256"
        },
        {
          "indexed": true,
          "internalType": "address",
          "name": "borrower",
          "type": "address"
        },
        {
          "indexed": true,
          "internalType": "address",
          "name": "recipient",
          "type": "address"
        },
        {
          "indexed": false,
          "internalType": "uint256",
          "name": "interestRate",
          "type": "uint256"
        },
        {
          "indexed": false,
          "internalType": "uint256",
          "name": "collateralRatio",
          "type": "uint256"
        },
        {
          "indexed": false,
          "internalType": "uint256",
          "name": "maxLoanAmount",
          "type": "uint256"
        },
        {
          "indexed": false,
          "internalType": "uint256",
          "name": "duration",
          "type": "uint256"
        },
        {
          "indexed": false,
          "internalType": "uint256",
          "name": "termsExpiry",
          "type": "uint256"
        }
      ],
      "name": "LoanTermsSet",
      "type": "event"
    },
    {
      "anonymous": false,
      "inputs": [
        {
          "indexed": true,
          "internalType": "address",
          "name": "sender",
          "type": "address"
        },
        {
          "indexed": true,
          "internalType": "address",
          "name": "oldPriceOracle",
          "type": "address"
        },
        {
          "indexed": true,
          "internalType": "address",
          "name": "newPriceOracle",
          "type": "address"
        }
      ],
      "name": "PriceOracleUpdated",
      "type": "event"
    },
    {
      "payable": true,
      "stateMutability": "payable",
      "type": "fallback"
    },
    {
      "constant": true,
      "inputs": [
        {
          "internalType": "address",
          "name": "",
          "type": "address"
        },
        {
          "internalType": "uint256",
          "name": "",
          "type": "uint256"
        }
      ],
      "name": "borrowerLoans",
      "outputs": [
        {
          "internalType": "uint256",
          "name": "",
          "type": "uint256"
        }
      ],
      "payable": false,
      "stateMutability": "view",
      "type": "function"
    },
    {
      "constant": true,
      "inputs": [
        {
          "internalType": "uint256",
          "name": "loanID",
          "type": "uint256"
        }
      ],
      "name": "canLiquidateLoan",
      "outputs": [
        {
          "internalType": "bool",
          "name": "",
          "type": "bool"
        }
      ],
      "payable": false,
      "stateMutability": "view",
      "type": "function"
    },
    {
      "constant": true,
      "inputs": [],
      "name": "collateralToken",
      "outputs": [
        {
          "internalType": "address",
          "name": "",
          "type": "address"
        }
      ],
      "payable": false,
      "stateMutability": "view",
      "type": "function"
    },
    {
      "constant": true,
      "inputs": [],
      "name": "consts",
      "outputs": [
        {
          "internalType": "contract SettingsConsts",
          "name": "",
          "type": "address"
        }
      ],
      "payable": false,
      "stateMutability": "view",
      "type": "function"
    },
    {
      "constant": false,
      "inputs": [
        {
          "components": [
            {
              "internalType": "address payable",
              "name": "borrower",
              "type": "address"
            },
            {
              "internalType": "address",
              "name": "recipient",
              "type": "address"
            },
            {
              "internalType": "address",
              "name": "consensusAddress",
              "type": "address"
            },
            {
              "internalType": "uint256",
              "name": "requestNonce",
              "type": "uint256"
            },
            {
              "internalType": "uint256",
              "name": "amount",
              "type": "uint256"
            },
            {
              "internalType": "uint256",
              "name": "duration",
              "type": "uint256"
            },
            {
              "internalType": "uint256",
              "name": "requestTime",
              "type": "uint256"
            }
          ],
          "internalType": "struct TellerCommon.LoanRequest",
          "name": "request",
          "type": "tuple"
        },
        {
          "components": [
            {
              "internalType": "address",
              "name": "signer",
              "type": "address"
            },
            {
              "internalType": "address",
              "name": "consensusAddress",
              "type": "address"
            },
            {
              "internalType": "uint256",
              "name": "responseTime",
              "type": "uint256"
            },
            {
              "internalType": "uint256",
              "name": "interestRate",
              "type": "uint256"
            },
            {
              "internalType": "uint256",
              "name": "collateralRatio",
              "type": "uint256"
            },
            {
              "internalType": "uint256",
              "name": "maxLoanAmount",
              "type": "uint256"
            },
            {
              "components": [
                {
                  "internalType": "uint256",
                  "name": "signerNonce",
                  "type": "uint256"
                },
                {
                  "internalType": "uint8",
                  "name": "v",
                  "type": "uint8"
                },
                {
                  "internalType": "bytes32",
                  "name": "r",
                  "type": "bytes32"
                },
                {
                  "internalType": "bytes32",
                  "name": "s",
                  "type": "bytes32"
                }
              ],
              "internalType": "struct TellerCommon.Signature",
              "name": "signature",
              "type": "tuple"
            }
          ],
          "internalType": "struct TellerCommon.LoanResponse[]",
          "name": "responses",
          "type": "tuple[]"
        },
        {
          "internalType": "uint256",
          "name": "collateralAmount",
          "type": "uint256"
        }
      ],
      "name": "createLoanWithTerms",
      "outputs": [],
      "payable": true,
      "stateMutability": "payable",
      "type": "function"
    },
    {
      "constant": false,
      "inputs": [
        {
          "internalType": "address",
          "name": "borrower",
          "type": "address"
        },
        {
          "internalType": "uint256",
          "name": "loanID",
          "type": "uint256"
        },
        {
          "internalType": "uint256",
          "name": "amount",
          "type": "uint256"
        }
      ],
      "name": "depositCollateral",
      "outputs": [],
      "payable": true,
      "stateMutability": "payable",
      "type": "function"
    },
    {
      "constant": true,
      "inputs": [
        {
          "internalType": "address",
          "name": "borrower",
          "type": "address"
        }
      ],
      "name": "getBorrowerLoans",
      "outputs": [
        {
          "internalType": "uint256[]",
          "name": "",
          "type": "uint256[]"
        }
      ],
      "payable": false,
      "stateMutability": "view",
      "type": "function"
    },
    {
      "constant": true,
      "inputs": [
        {
          "internalType": "uint256",
          "name": "loanID",
          "type": "uint256"
        }
      ],
      "name": "getCollateralInfo",
      "outputs": [
        {
          "components": [
            {
              "internalType": "uint256",
              "name": "collateral",
              "type": "uint256"
            },
            {
              "internalType": "uint256",
              "name": "neededInLendingTokens",
              "type": "uint256"
            },
            {
              "internalType": "uint256",
              "name": "neededInCollateralTokens",
              "type": "uint256"
            },
            {
              "internalType": "bool",
              "name": "moreCollateralRequired",
              "type": "bool"
            }
          ],
          "internalType": "struct TellerCommon.LoanCollateralInfo",
          "name": "",
          "type": "tuple"
        }
      ],
      "payable": false,
      "stateMutability": "view",
      "type": "function"
    },
    {
      "constant": true,
      "inputs": [
        {
          "internalType": "uint256",
          "name": "loanID",
          "type": "uint256"
        }
      ],
      "name": "getTotalOwed",
      "outputs": [
        {
          "internalType": "uint256",
          "name": "",
          "type": "uint256"
        }
      ],
      "payable": false,
      "stateMutability": "view",
      "type": "function"
    },
    {
      "constant": false,
      "inputs": [
        {
          "internalType": "address",
          "name": "priceOracleAddress",
          "type": "address"
        },
        {
          "internalType": "address",
          "name": "lendingPoolAddress",
          "type": "address"
        },
        {
          "internalType": "address",
          "name": "loanTermsConsensusAddress",
          "type": "address"
        },
        {
          "internalType": "address",
          "name": "settingsAddress",
          "type": "address"
        },
        {
          "internalType": "address",
          "name": "",
          "type": "address"
        }
      ],
      "name": "initialize",
      "outputs": [],
      "payable": false,
      "stateMutability": "nonpayable",
      "type": "function"
    },
    {
      "constant": false,
      "inputs": [],
      "name": "initialize",
      "outputs": [],
      "payable": false,
      "stateMutability": "nonpayable",
      "type": "function"
    },
    {
      "constant": true,
      "inputs": [],
      "name": "initialized",
      "outputs": [
        {
          "internalType": "bool",
          "name": "value",
          "type": "bool"
        }
      ],
      "payable": false,
      "stateMutability": "view",
      "type": "function"
    },
    {
      "constant": true,
      "inputs": [],
      "name": "lendingPool",
      "outputs": [
        {
          "internalType": "contract LendingPoolInterface",
          "name": "",
          "type": "address"
        }
      ],
      "payable": false,
      "stateMutability": "view",
      "type": "function"
    },
    {
      "constant": true,
      "inputs": [],
      "name": "lendingToken",
      "outputs": [
        {
          "internalType": "address",
          "name": "",
          "type": "address"
        }
      ],
      "payable": false,
      "stateMutability": "view",
      "type": "function"
    },
    {
      "constant": false,
      "inputs": [
        {
          "internalType": "uint256",
          "name": "loanID",
          "type": "uint256"
        }
      ],
      "name": "liquidateLoan",
      "outputs": [],
      "payable": false,
      "stateMutability": "nonpayable",
      "type": "function"
    },
    {
      "constant": true,
      "inputs": [],
      "name": "loanIDCounter",
      "outputs": [
        {
          "internalType": "uint256",
          "name": "",
          "type": "uint256"
        }
      ],
      "payable": false,
      "stateMutability": "view",
      "type": "function"
    },
    {
      "constant": true,
      "inputs": [],
      "name": "loanTermsConsensus",
      "outputs": [
        {
          "internalType": "contract LoanTermsConsensusInterface",
          "name": "",
          "type": "address"
        }
      ],
      "payable": false,
      "stateMutability": "view",
      "type": "function"
    },
    {
      "constant": true,
      "inputs": [
        {
          "internalType": "uint256",
          "name": "",
          "type": "uint256"
        }
      ],
      "name": "loans",
      "outputs": [
        {
          "internalType": "uint256",
          "name": "id",
          "type": "uint256"
        },
        {
          "components": [
            {
              "internalType": "address payable",
              "name": "borrower",
              "type": "address"
            },
            {
              "internalType": "address",
              "name": "recipient",
              "type": "address"
            },
            {
              "internalType": "uint256",
              "name": "interestRate",
              "type": "uint256"
            },
            {
              "internalType": "uint256",
              "name": "collateralRatio",
              "type": "uint256"
            },
            {
              "internalType": "uint256",
              "name": "maxLoanAmount",
              "type": "uint256"
            },
            {
              "internalType": "uint256",
              "name": "duration",
              "type": "uint256"
            }
          ],
          "internalType": "struct TellerCommon.LoanTerms",
          "name": "loanTerms",
          "type": "tuple"
        },
        {
          "internalType": "uint256",
          "name": "termsExpiry",
          "type": "uint256"
        },
        {
          "internalType": "uint256",
          "name": "loanStartTime",
          "type": "uint256"
        },
        {
          "internalType": "uint256",
          "name": "collateral",
          "type": "uint256"
        },
        {
          "internalType": "uint256",
          "name": "lastCollateralIn",
          "type": "uint256"
        },
        {
          "internalType": "uint256",
          "name": "principalOwed",
          "type": "uint256"
        },
        {
          "internalType": "uint256",
          "name": "interestOwed",
          "type": "uint256"
        },
        {
          "internalType": "uint256",
          "name": "borrowedAmount",
          "type": "uint256"
        },
        {
          "internalType": "address",
          "name": "escrow",
          "type": "address"
        },
        {
          "internalType": "enum TellerCommon.LoanStatus",
          "name": "status",
          "type": "uint8"
        },
        {
          "internalType": "bool",
          "name": "liquidated",
          "type": "bool"
        }
      ],
      "payable": false,
      "stateMutability": "view",
      "type": "function"
    },
    {
      "constant": true,
      "inputs": [],
      "name": "priceOracle",
      "outputs": [
        {
          "internalType": "address",
          "name": "",
          "type": "address"
        }
      ],
      "payable": false,
      "stateMutability": "view",
      "type": "function"
    },
    {
      "constant": false,
      "inputs": [
        {
          "internalType": "uint256",
          "name": "amount",
          "type": "uint256"
        },
        {
          "internalType": "uint256",
          "name": "loanID",
          "type": "uint256"
        }
      ],
      "name": "repay",
      "outputs": [],
      "payable": false,
      "stateMutability": "nonpayable",
      "type": "function"
    },
    {
      "constant": false,
      "inputs": [
        {
          "internalType": "address",
          "name": "newPriceOracle",
          "type": "address"
        }
      ],
      "name": "setPriceOracle",
      "outputs": [],
      "payable": false,
      "stateMutability": "nonpayable",
      "type": "function"
    },
    {
      "constant": true,
      "inputs": [],
      "name": "settings",
      "outputs": [
        {
          "internalType": "contract SettingsInterface",
          "name": "",
          "type": "address"
        }
      ],
      "payable": false,
      "stateMutability": "view",
      "type": "function"
    },
    {
      "constant": false,
      "inputs": [
        {
          "internalType": "uint256",
          "name": "loanID",
          "type": "uint256"
        },
        {
          "internalType": "uint256",
          "name": "amountBorrow",
          "type": "uint256"
        }
      ],
      "name": "takeOutLoan",
      "outputs": [],
      "payable": false,
      "stateMutability": "nonpayable",
      "type": "function"
    },
    {
      "constant": true,
      "inputs": [],
      "name": "totalCollateral",
      "outputs": [
        {
          "internalType": "uint256",
          "name": "",
          "type": "uint256"
        }
      ],
      "payable": false,
      "stateMutability": "view",
      "type": "function"
    },
    {
      "constant": false,
      "inputs": [
        {
          "internalType": "uint256",
          "name": "amount",
          "type": "uint256"
        },
        {
          "internalType": "uint256",
          "name": "loanID",
          "type": "uint256"
        }
      ],
      "name": "withdrawCollateral",
      "outputs": [],
      "payable": false,
      "stateMutability": "nonpayable",
      "type": "function"
    },
    {
      "constant": false,
      "inputs": [
        {
          "internalType": "uint256",
          "name": "newLoanIdCounter",
          "type": "uint256"
        }
      ],
      "name": "setLoanIDCounter",
      "outputs": [],
      "payable": false,
      "stateMutability": "nonpayable",
      "type": "function"
    },
    {
      "constant": false,
      "inputs": [
        {
          "internalType": "address",
          "name": "borrower",
          "type": "address"
        },
        {
          "internalType": "uint256[]",
          "name": "loanIDs",
          "type": "uint256[]"
        }
      ],
      "name": "setBorrowerLoans",
      "outputs": [],
      "payable": false,
      "stateMutability": "nonpayable",
      "type": "function"
    },
    {
      "constant": false,
      "inputs": [
        {
          "internalType": "uint256",
          "name": "amount",
          "type": "uint256"
        }
      ],
      "name": "setTotalCollateral",
      "outputs": [],
      "payable": false,
      "stateMutability": "nonpayable",
      "type": "function"
    },
    {
      "constant": false,
      "inputs": [
        {
          "internalType": "uint256",
          "name": "loanID",
          "type": "uint256"
        },
        {
          "internalType": "address",
          "name": "escrowAddress",
          "type": "address"
        }
      ],
      "name": "setEscrowForLoan",
      "outputs": [],
      "payable": false,
      "stateMutability": "nonpayable",
      "type": "function"
    },
    {
      "constant": false,
      "inputs": [
        {
          "internalType": "uint256",
          "name": "id",
          "type": "uint256"
        },
        {
          "components": [
            {
              "internalType": "address payable",
              "name": "borrower",
              "type": "address"
            },
            {
              "internalType": "address",
              "name": "recipient",
              "type": "address"
            },
            {
              "internalType": "uint256",
              "name": "interestRate",
              "type": "uint256"
            },
            {
              "internalType": "uint256",
              "name": "collateralRatio",
              "type": "uint256"
            },
            {
              "internalType": "uint256",
              "name": "maxLoanAmount",
              "type": "uint256"
            },
            {
              "internalType": "uint256",
              "name": "duration",
              "type": "uint256"
            }
          ],
          "internalType": "struct TellerCommon.LoanTerms",
          "name": "loanTerms",
          "type": "tuple"
        },
        {
          "internalType": "uint256",
          "name": "termsExpiry",
          "type": "uint256"
        },
        {
          "internalType": "uint256",
          "name": "loanStartTime",
          "type": "uint256"
        },
        {
          "internalType": "uint256",
          "name": "collateral",
          "type": "uint256"
        },
        {
          "internalType": "uint256",
          "name": "lastCollateralIn",
          "type": "uint256"
        },
        {
          "internalType": "uint256",
          "name": "principalOwed",
          "type": "uint256"
        },
        {
          "internalType": "uint256",
          "name": "interestOwed",
          "type": "uint256"
        },
        {
          "internalType": "uint256",
          "name": "borrowedAmount",
          "type": "uint256"
        },
        {
          "internalType": "enum TellerCommon.LoanStatus",
          "name": "status",
          "type": "uint8"
        },
        {
          "internalType": "bool",
          "name": "liquidated",
          "type": "bool"
        }
      ],
      "name": "setLoan",
      "outputs": [],
      "payable": false,
      "stateMutability": "nonpayable",
      "type": "function"
    },
    {
      "constant": false,
      "inputs": [
        {
          "internalType": "uint256",
          "name": "loanID",
          "type": "uint256"
        }
      ],
      "name": "externalCreateEscrow",
      "outputs": [
        {
          "internalType": "address",
          "name": "",
          "type": "address"
        }
      ],
      "payable": false,
      "stateMutability": "nonpayable",
      "type": "function"
    },
    {
      "constant": false,
      "inputs": [
        {
          "internalType": "address",
          "name": "settingsAddress",
          "type": "address"
        }
      ],
      "name": "externalSetSettings",
      "outputs": [],
      "payable": false,
      "stateMutability": "nonpayable",
      "type": "function"
    }
  ],
  "bytecode": "0x608060405234801561001057600080fd5b5061532f806100206000396000f3fe6080604052600436106101e35760003560e01c8063767a7b0511610102578063b2016bd411610095578063e06174e411610064578063e06174e414610527578063e1ec3c681461053c578063e3ed190214610574578063eee8b7ff14610594576101e3565b8063b2016bd4146104bd578063ccdd9f5d146104d2578063d86d744e146104f2578063d8aed14514610507576101e3565b8063934b5d13116100d1578063934b5d1314610453578063a59a997314610480578063a5c5c7b214610495578063aaaca558146104a8576101e3565b8063767a7b05146103de578063803a0882146103fe5780638129fc1c1461041e57806391d7145714610433576101e3565b80634ac8eb5f1161017a5780636479445911610149578063647944591461035e57806368c220071461037e5780636948f32b1461039e57806372140565146103be576101e3565b80634ac8eb5f146102f25780635134845414610307578063530e784f1461031c57806358895e3d1461033c576101e3565b80631a74856b116101b65780631a74856b146102705780632630c12f146102835780633b929300146102a557806342c3c0fb146102d2576101e3565b806302bc2cdb146101e55780631459457a14610205578063158ef93e1461022557806319e8b2b314610250575b005b3480156101f157600080fd5b506101e3610200366004614007565b6105c1565b34801561021157600080fd5b506101e3610220366004613c72565b610c40565b34801561023157600080fd5b5061023a610d10565b6040516102479190614bee565b60405180910390f35b34801561025c57600080fd5b506101e361026b366004613ce7565b610d2f565b6101e361027e366004613d77565b610d58565b34801561028f57600080fd5b50610298610f19565b6040516102479190614b48565b3480156102b157600080fd5b506102c56102c0366004613ec6565b610f28565b6040516102479190614bfc565b3480156102de57600080fd5b506101e36102ed366004613ec6565b610f58565b3480156102fe57600080fd5b506102c5610f5d565b34801561031357600080fd5b506102c5610f63565b34801561032857600080fd5b506101e3610337366004613c36565b610f69565b34801561034857600080fd5b506103516110c7565b6040516102479190614c0a565b34801561036a57600080fd5b506101e3610379366004613ec6565b6110d6565b34801561038a57600080fd5b506101e3610399366004613c36565b6110db565b3480156103aa57600080fd5b5061023a6103b9366004613ec6565b6110e7565b3480156103ca57600080fd5b506101e36103d9366004613f14565b611240565b3480156103ea57600080fd5b506101e36103f9366004614007565b611416565b34801561040a57600080fd5b50610298610419366004613ec6565b61162f565b34801561042a57600080fd5b506101e361163a565b34801561043f57600080fd5b506101e361044e366004613ee4565b6116c1565b34801561045f57600080fd5b5061047361046e366004613ec6565b6116f2565b6040516102479190614e09565b34801561048c57600080fd5b50610351611703565b6101e36104a3366004613e1e565b611712565b3480156104b457600080fd5b50610298611c99565b3480156104c957600080fd5b50610298611d1c565b3480156104de57600080fd5b506101e36104ed366004613ec6565b611d2b565b3480156104fe57600080fd5b5061035161206e565b34801561051357600080fd5b506101e3610522366004614007565b61207d565b34801561053357600080fd5b50610351612483565b34801561054857600080fd5b5061055c610557366004613ec6565b6124a5565b6040516102479c9b9a99989796959493929190614e7d565b34801561058057600080fd5b506102c561058f366004613d3d565b61255d565b3480156105a057600080fd5b506105b46105af366004613c36565b61258b565b6040516102479190614bdd565b8160016000828152606d60205260409020600e0154600160a01b900460ff1660038111156105eb57fe5b146106115760405162461bcd60e51b815260040161060890614dd9565b60405180910390fd5b610619610d10565b6106355760405162461bcd60e51b815260040161060890614dc9565b61063d6125f7565b1561065a5760405162461bcd60e51b815260040161060890614d09565b606a546001600160a01b031661066f81612671565b1561068c5760405162461bcd60e51b815260040161060890614c49565b603380546001908101918290556000868152606d6020526040902001546001600160a01b03163381146106d15760405162461bcd60e51b815260040161060890614d99565b6000868152606d60205260409020600501548511156107025760405162461bcd60e51b815260040161060890614c69565b6000868152606d60205260409020600701544211156107335760405162461bcd60e51b815260040161060890614d49565b61084b61073e612483565b6001600160a01b031663269012a0606e60009054906101000a90046001600160a01b03166001600160a01b03166311880cc86040518163ffffffff1660e01b815260040160206040518083038186803b15801561079a57600080fd5b505afa1580156107ae573d6000803e3d6000fd5b505050506040513d601f19601f820116820180604052506107d29190810190613de2565b6040518263ffffffff1660e01b81526004016107ee9190614bfc565b60206040518083038186803b15801561080657600080fd5b505afa15801561081a573d6000803e3d6000fd5b505050506040513d601f19601f8201168201806040525061083e9190810190613de2565b429063ffffffff6126f616565b6000878152606d60205260409020600a0154111561087b5760405162461bcd60e51b815260040161060890614d39565b6000868152606d60205260409020600d8101869055600b810186905560068101546003909101546108df916237b1d0916108d391612710918391906108c7908c9063ffffffff61274116565b9063ffffffff61274116565b9063ffffffff61277b16565b6000878152606d60205260409020600c01556108f9613871565b610902876127bd565b90508060600151156109265760405162461bcd60e51b815260040161060890614d19565b6000878152606d60205260409020426008820155600e01805460ff60a01b1916600160a11b1790556109578761280e565b6000888152606d602052604090819020600e0180546001600160a01b0319166001600160a01b039384161790819055606a549151631397424760e11b81529183169263272e848e926109af928b921690600401614e39565b600060405180830381600087803b1580156109c957600080fd5b505af11580156109dd573d6000803e3d6000fd5b5050506000888152606d602052604090819020600e0154905163cd6dc68760e01b81526001600160a01b03909116915063cd6dc68790610a239030908b90600401614bc2565b600060405180830381600087803b158015610a3d57600080fd5b505af1158015610a51573d6000803e3d6000fd5b50505050610a5d612907565b6001600160a01b031663c7bbb113606a60009054906101000a90046001600160a01b03166001600160a01b031663aaaca5586040518163ffffffff1660e01b815260040160206040518083038186803b158015610ab957600080fd5b505afa158015610acd573d6000803e3d6000fd5b505050506040513d601f19601f82011682018060405250610af19190810190613c54565b306001600160a01b031663b2016bd46040518163ffffffff1660e01b815260040160206040518083038186803b158015610b2a57600080fd5b505afa158015610b3e573d6000803e3d6000fd5b505050506040513d601f19601f82011682018060405250610b629190810190613c54565b896040518463ffffffff1660e01b8152600401610b8193929190614ba7565b600060405180830381600087803b158015610b9b57600080fd5b505af1158015610baf573d6000803e3d6000fd5b5050506000888152606d602052604090819020600e81015460019091015491516001600160a01b03918216935091169089907f85b5516a17ce775661a4b967b1fb30c852678f6598d86d9f3c99b7b60ff2d0ce90610c0e908b90614bfc565b60405180910390a450506033548114610c395760405162461bcd60e51b815260040161060890614de9565b5050505050565b610c48610d10565b15610c655760405162461bcd60e51b815260040161060890614df9565b610c7185858585612981565b610c79612483565b6001600160a01b031663a734f06e6040518163ffffffff1660e01b815260040160206040518083038186803b158015610cb157600080fd5b505afa158015610cc5573d6000803e3d6000fd5b505050506040513d601f19601f82011682018060405250610ce99190810190613c54565b606780546001600160a01b0319166001600160a01b03929092169190911790555050505050565b600080604051610d1f90614b32565b6040519081900390205492915050565b6001600160a01b0383166000908152606c60205260409020610d5290838361389b565b50505050565b8160016000828152606d60205260409020600e0154600160a01b900460ff166003811115610d8257fe5b1480610db4575060026000828152606d60205260409020600e0154600160a01b900460ff166003811115610db257fe5b145b610dd05760405162461bcd60e51b815260040161060890614ca9565b610dd8610d10565b610df45760405162461bcd60e51b815260040161060890614dc9565b610dfc6125f7565b15610e195760405162461bcd60e51b815260040161060890614d09565b606a546001600160a01b0316610e2e81612671565b15610e4b5760405162461bcd60e51b815260040161060890614c49565b6000848152606d60205260409020600101546001600160a01b03868116911614610e875760405162461bcd60e51b815260040161060890614c89565b823414610ea65760405162461bcd60e51b815260040161060890614c99565b60003411610ec65760405162461bcd60e51b815260040161060890614d79565b610ed08484612b1e565b846001600160a01b0316847feec2f3feb835e2f2fd44281034b04700a1ddda63dd402949d470a25a7c40b36c85604051610f0a9190614bfc565b60405180910390a35050505050565b6069546001600160a01b031681565b6000818152606d60205260408120600b810154600c90910154610f509163ffffffff612b7716565b90505b919050565b606855565b60665481565b60685481565b610f71610d10565b610f8d5760405162461bcd60e51b815260040161060890614dc9565b610f95612483565b6001600160a01b031663c095ea27336040518263ffffffff1660e01b8152600401610fc09190614b56565b60006040518083038186803b158015610fd857600080fd5b505afa158015610fec573d6000803e3d6000fd5b50505050611002816001600160a01b0316612b9c565b61101e5760405162461bcd60e51b815260040161060890614d89565b60695460408051808201909152601b81527f4e45575f4f5241434c455f4d5553545f42455f50524f5649444544000000000060208201526001600160a01b0390911690611074908290849063ffffffff612bd816565b606980546001600160a01b0319166001600160a01b03848116918217909255604051909183169033907ff51f0fffc8121ee3747e0536c487d894894cdba960ccfb4ab385a88d51b16fed90600090a45050565b606b546001600160a01b031681565b606655565b6110e481612c01565b50565b60006110f16125f7565b8061110c5750606a5461110c906001600160a01b0316612671565b8061113e575060026000838152606d60205260409020600e0154600160a01b900460ff16600381111561113b57fe5b14155b1561114b57506000610f53565b6000828152606d602052604081206008810154600690910154909142611177848463ffffffff612b7716565b109050801561118c5760019350505050610f53565b6000858152606d60205260409020600e01546001600160a01b0316801561122957806001600160a01b031663415dfa5b6040518163ffffffff1660e01b815260040160206040518083038186803b1580156111e657600080fd5b505afa1580156111fa573d6000803e3d6000fd5b505050506040513d601f19601f8201168201806040525061121e9190810190613dc4565b945050505050610f53565b611232866127bd565b606001519695505050505050565b828a6080013510156112645760405162461bcd60e51b815260040161060890614ce9565b60668054880190556040805161018081019091528b81526020810161128e368d90038d018d613ea8565b81526020018a815260200189815260200188815260200187815260200186815260200185815260200184815260200160006001600160a01b031681526020018360038111156112d957fe5b815282151560209182015260008d8152606d8252604090819020835181558383015180516001830180546001600160a01b03199081166001600160a01b0393841617909155948201516002840180548716918316919091179055818401516003808501919091556060808401516004860155608080850151600587015560a0948501516006870155958801516007860155870151600885015593860151600984015590850151600a83015560c0850151600b83015560e0850151600c830155610100850151600d830155610120850151600e830180549095169116178084556101408501519193919260ff60a01b1990911690600160a01b9084908111156113dd57fe5b02179055506101609190910151600e9091018054911515600160a81b0260ff60a81b199092169190911790555050505050505050505050565b8060016000828152606d60205260409020600e0154600160a01b900460ff16600381111561144057fe5b1480611472575060026000828152606d60205260409020600e0154600160a01b900460ff16600381111561147057fe5b145b61148e5760405162461bcd60e51b815260040161060890614ca9565b611496610d10565b6114b25760405162461bcd60e51b815260040161060890614dc9565b6114ba6125f7565b156114d75760405162461bcd60e51b815260040161060890614d09565b606a546001600160a01b03166114ec81612671565b156115095760405162461bcd60e51b815260040161060890614c49565b603380546001908101918290556000858152606d6020526040902001546001600160a01b0316331461154d5760405162461bcd60e51b815260040161060890614da9565b6000851161156d5760405162461bcd60e51b815260040161060890614cf9565b600061157885612c6a565b9050600061158582612ca1565b6000878152606d6020526040812060090154919250906115ab908363ffffffff6126f616565b9050878111156115b85750865b80156115c9576115c9878233612de6565b336001600160a01b0316877f7c5e5cb62e5ed3caf3764e4b0afedfedef533e27809d43367799787ad2abcd41836040516116039190614bfc565b60405180910390a35050506033548114610c395760405162461bcd60e51b815260040161060890614de9565b6000610f508261280e565b600054610100900460ff16806116535750611653612e67565b80611661575060005460ff16155b61167d5760405162461bcd60e51b815260040161060890614d59565b600054610100900460ff161580156116a8576000805460ff1961ff0019909116610100171660011790555b600160335580156110e4576000805461ff001916905550565b6000918252606d6020526040909120600e0180546001600160a01b0319166001600160a01b03909216919091179055565b6116fa613871565b610f50826127bd565b606a546001600160a01b031681565b61171a610d10565b6117365760405162461bcd60e51b815260040161060890614dc9565b61173e6125f7565b1561175b5760405162461bcd60e51b815260040161060890614d09565b6117686020850185613c36565b336001600160a01b038216146117905760405162461bcd60e51b815260040161060890614d99565b61179f36869003860186613e8a565b8060a001516117ac612483565b6001600160a01b031663269012a0606e60009054906101000a90046001600160a01b03166001600160a01b031663cc44cadb6040518163ffffffff1660e01b815260040160206040518083038186803b15801561180857600080fd5b505afa15801561181c573d6000803e3d6000fd5b505050506040513d601f19601f820116820180604052506118409190810190613de2565b6040518263ffffffff1660e01b815260040161185c9190614bfc565b60206040518083038186803b15801561187457600080fd5b505afa158015611888573d6000803e3d6000fd5b505050506040513d601f19601f820116820180604052506118ac9190810190613de2565b10156118ca5760405162461bcd60e51b815260040161060890614c29565b6118d2612483565b6001600160a01b03166369ff7744606a60009054906101000a90046001600160a01b03166001600160a01b031663aaaca5586040518163ffffffff1660e01b815260040160206040518083038186803b15801561192e57600080fd5b505afa158015611942573d6000803e3d6000fd5b505050506040513d601f19601f820116820180604052506119669190810190613c54565b83608001516040518363ffffffff1660e01b8152600401611988929190614bc2565b60206040518083038186803b1580156119a057600080fd5b505afa1580156119b4573d6000803e3d6000fd5b505050506040513d601f19601f820116820180604052506119d89190810190613dc4565b156119f55760405162461bcd60e51b815260040161060890614c59565b611a028160800151612e6d565b611a1e5760405162461bcd60e51b815260040161060890614db9565b823414611a3d5760405162461bcd60e51b815260040161060890614c99565b6000611a476131dd565b606b5460405163064e5d4960e01b8152919250600091829182916001600160a01b039091169063064e5d4990611a85908d908d908d90600401614e17565b606060405180830381600087803b158015611a9f57600080fd5b505af1158015611ab3573d6000803e3d6000fd5b505050506040513d601f19601f82011682018060405250611ad79190810190614026565b91945092509050611af984611af1368d90038d018d613e8a565b8585856131eb565b6000858152606d6020908152604091829020835181558382015180516001830180546001600160a01b03199081166001600160a01b0393841617909155938201516002840180548616918316919091179055818501516003808501919091556060808401516004860155608080850151600587015560a0948501516006870155968801516007860155870151600885015594860151600984015590850151600a83015560c0850151600b83015560e0850151600c830155610100850151600d830155610120850151600e83018054909416911617808355610140850151919391929160ff60a01b1990911690600160a01b908490811115611bf657fe5b02179055506101609190910151600e9091018054911515600160a81b0260ff60a81b199092169190911790553415611c3257611c328434612b1e565b606c6000611c4360208d018d613c36565b6001600160a01b031681526020808201929092526040016000908120805460018101825590825291902001849055611c8d84611c84368d90038d018d613e8a565b858585346133d3565b50505050505050505050565b606a546040805163155594ab60e31b815290516000926001600160a01b03169163aaaca558916004808301926020929190829003018186803b158015611cde57600080fd5b505afa158015611cf2573d6000803e3d6000fd5b505050506040513d601f19601f82011682018060405250611d169190810190613c54565b90505b90565b6067546001600160a01b031681565b8060026000828152606d60205260409020600e0154600160a01b900460ff166003811115611d5557fe5b14611d725760405162461bcd60e51b815260040161060890614cd9565b611d7a610d10565b611d965760405162461bcd60e51b815260040161060890614dc9565b611d9e6125f7565b15611dbb5760405162461bcd60e51b815260040161060890614d09565b606a546001600160a01b0316611dd081612671565b15611ded5760405162461bcd60e51b815260040161060890614c49565b6033805460010190819055611e01846110e7565b611e1d5760405162461bcd60e51b815260040161060890614cc9565b6000848152606d60205260408120600e8101805460ff60a01b1916600360a01b1760ff60a81b1916600160a81b1790556009015490611e5b8261349e565b9050611e68868333612de6565b6000611f886127106108d3611e7b612483565b6001600160a01b031663269012a0606e60009054906101000a90046001600160a01b03166001600160a01b0316631139087a6040518163ffffffff1660e01b815260040160206040518083038186803b158015611ed757600080fd5b505afa158015611eeb573d6000803e3d6000fd5b505050506040513d601f19601f82011682018060405250611f0f9190810190613de2565b6040518263ffffffff1660e01b8152600401611f2b9190614bfc565b60206040518083038186803b158015611f4357600080fd5b505afa158015611f57573d6000803e3d6000fd5b505050506040513d601f19601f82011682018060405250611f7b9190810190613de2565b859063ffffffff61274116565b606a546040516382f7b02760e01b81529192506001600160a01b0316906382f7b02790611fbb9084903390600401614e47565b600060405180830381600087803b158015611fd557600080fd5b505af1158015611fe9573d6000803e3d6000fd5b5050506000888152606d6020526040908190206001015490516001600160a01b03909116915088907f9950a0562c02382e2e840daa73082d5be7660ce37601f28fa4c84089c11e8a069061204290339088908790614b64565b60405180910390a35050506033548114610d525760405162461bcd60e51b815260040161060890614de9565b606e546001600160a01b031681565b8060026000828152606d60205260409020600e0154600160a01b900460ff1660038111156120a757fe5b146120c45760405162461bcd60e51b815260040161060890614cd9565b6120cc610d10565b6120e85760405162461bcd60e51b815260040161060890614dc9565b6120f06125f7565b1561210d5760405162461bcd60e51b815260040161060890614d09565b606a546001600160a01b031661212281612671565b1561213f5760405162461bcd60e51b815260040161060890614c49565b6033805460010190819055846121675760405162461bcd60e51b815260040161060890614c39565b84600061217386610f28565b905081811015612181578091505b612191818363ffffffff6126f616565b905061219d8683613594565b80612241576000868152606d60205260409020600e8101805460ff60a01b1916600360a01b17905560098101546001909101546121e690889083906001600160a01b0316612de6565b6000878152606d6020526040908190206001015490516001600160a01b039091169088907f7c5e5cb62e5ed3caf3764e4b0afedfedef533e27809d43367799787ad2abcd4190612237908590614bfc565b60405180910390a3505b606a5460405163acb7081560e01b81526001600160a01b039091169063acb70815906122739085903390600401614e47565b600060405180830381600087803b15801561228d57600080fd5b505af11580156122a1573d6000803e3d6000fd5b505050506122ad612907565b6001600160a01b03166362e269ef606a60009054906101000a90046001600160a01b03166001600160a01b031663aaaca5586040518163ffffffff1660e01b815260040160206040518083038186803b15801561230957600080fd5b505afa15801561231d573d6000803e3d6000fd5b505050506040513d601f19601f820116820180604052506123419190810190613c54565b306001600160a01b031663b2016bd46040518163ffffffff1660e01b815260040160206040518083038186803b15801561237a57600080fd5b505afa15801561238e573d6000803e3d6000fd5b505050506040513d601f19601f820116820180604052506123b29190810190613c54565b856040518463ffffffff1660e01b81526004016123d193929190614ba7565b600060405180830381600087803b1580156123eb57600080fd5b505af11580156123ff573d6000803e3d6000fd5b5050506000878152606d6020526040908190206001015490516001600160a01b03909116915087907f20a1f2ec363af45dc5ee7d9d622f2dd68b52501c382126c7f04b53663c4c69bf9061245890869033908790614e62565b60405180910390a350506033548114610c395760405162461bcd60e51b815260040161060890614de9565b600080600060405161249490614b3d565b604051908190039020549250505090565b606d602090815260009182526040918290208054835160c08101855260018301546001600160a01b03908116825260028401548116948201949094526003830154948101949094526004820154606085015260058201546080850152600682015460a0850152600782015460088301546009840154600a850154600b860154600c870154600d880154600e9098015496999895979496939592949193909281169060ff600160a01b8204811691600160a81b9004168c565b606c602052816000526040600020818154811061257657fe5b90600052602060002001600091509150505481565b6001600160a01b0381166000908152606c60209081526040918290208054835181840281018401909452808452606093928301828280156125eb57602002820191906000526020600020905b8154815260200190600101908083116125d7575b50505050509050919050565b6000612601612483565b6001600160a01b031663b187bd266040518163ffffffff1660e01b815260040160206040518083038186803b15801561263957600080fd5b505afa15801561264d573d6000803e3d6000fd5b505050506040513d601f19601f82011682018060405250611d169190810190613dc4565b600061267b612483565b6001600160a01b0316633b668321836040518263ffffffff1660e01b81526004016126a69190614b48565b60206040518083038186803b1580156126be57600080fd5b505afa1580156126d2573d6000803e3d6000fd5b505050506040513d601f19601f82011682018060405250610f509190810190613dc4565b600061273883836040518060400160405280601e81526020017f536166654d6174683a207375627472616374696f6e206f766572666c6f770000815250613650565b90505b92915050565b6000826127505750600061273b565b8282028284828161275d57fe5b04146127385760405162461bcd60e51b815260040161060890614d29565b600061273883836040518060400160405280601a81526020017f536166654d6174683a206469766973696f6e206279207a65726f000000000000815250613681565b6127c5613871565b6000828152606d602052604081206009015490806127e2856136b8565b604080516080810182528681526020810193909352820181905293909311606084015250909392505050565b6000612818612483565b6001600160a01b031663bdd1daaa6040518163ffffffff1660e01b815260040160206040518083038186803b15801561285057600080fd5b505afa158015612864573d6000803e3d6000fd5b505050506040513d601f19601f820116820180604052506128889190810190613e00565b6001600160a01b0316634614874e30846040518363ffffffff1660e01b81526004016128b5929190614bc2565b602060405180830381600087803b1580156128cf57600080fd5b505af11580156128e3573d6000803e3d6000fd5b505050506040513d601f19601f82011682018060405250610f509190810190613c54565b6000612911612483565b6001600160a01b0316631390f8d76040518163ffffffff1660e01b815260040160206040518083038186803b15801561294957600080fd5b505afa15801561295d573d6000803e3d6000fd5b505050506040513d601f19601f82011682018060405250611d169190810190613e00565b612989610d10565b156129a65760405162461bcd60e51b815260040161060890614df9565b60408051808201909152601681527550524f564944455f4f5241434c455f4144445245535360501b60208201526129ed906001600160a01b0386169063ffffffff6136dc16565b60408051808201909152601c81527f50524f564944455f4c454e44494e475f504f4f4c5f41444452455353000000006020820152612a3b906001600160a01b0385169063ffffffff6136dc16565b60408051808201909152601b81527f50524f56494445445f4c4f414e5f5445524d535f4144445245535300000000006020820152612a89906001600160a01b0384169063ffffffff6136dc16565b612a9281613709565b606980546001600160a01b038087166001600160a01b031992831617909255606a8054868416908316179055606b805492851692909116919091179055604051612adb906138e6565b604051809103906000f080158015612af7573d6000803e3d6000fd5b50606e80546001600160a01b0319166001600160a01b039290921691909117905550505050565b606654612b31908263ffffffff612b7716565b6066556000828152606d6020526040902060090154612b56908263ffffffff612b7716565b6000928352606d602052604090922060098101929092555042600a90910155565b6000828201838110156127385760405162461bcd60e51b815260040161060890614c79565b6000813f7fc5d2460186f7233c927e7db2dcc703c0e500b653ca82273b7bfad8045d85a470818114801590612bd057508115155b949350505050565b612be283836137b2565b8190610d525760405162461bcd60e51b81526004016106089190614c18565b6000612c0b612483565b6001600160a01b031614612c4c57612c2b816001600160a01b0316612b9c565b612c475760405162461bcd60e51b815260040161060890614cb9565b6110e4565b6000604051612c5a90614b3d565b6040519081900390208290555050565b600080612c7683610f28565b6000848152606d6020526040902060040154909150612bd06127106108d3848463ffffffff61274116565b600080612d3b606a60009054906101000a90046001600160a01b03166001600160a01b031663aaaca5586040518163ffffffff1660e01b815260040160206040518083038186803b158015612cf557600080fd5b505afa158015612d09573d6000803e3d6000fd5b505050506040513d601f19601f82011682018060405250612d2d9190810190613c54565b6001600160a01b03166137c4565b90506000606960009054906101000a90046001600160a01b03166001600160a01b03166396237c026040518163ffffffff1660e01b815260040160206040518083038186803b158015612d8d57600080fd5b505afa158015612da1573d6000803e3d6000fd5b505050506040513d601f19601f82011682018060405250612dc59190810190613de2565b90506000612ddd836108d3878563ffffffff61274116565b95945050505050565b606654612df9908363ffffffff6126f616565b6066556000838152606d6020526040902060090154612e1e908363ffffffff6126f616565b6000848152606d60205260408082206009019290925590516001600160a01b0383169184156108fc02918591818181858888f19350505050158015610d52573d6000803e3d6000fd5b303b1590565b600080612e78612483565b6001600160a01b031663dc21a6a06040518163ffffffff1660e01b815260040160206040518083038186803b158015612eb057600080fd5b505afa158015612ec4573d6000803e3d6000fd5b505050506040513d601f19601f82011682018060405250612ee89190810190613e00565b6001600160a01b0316631fb7cec9606a60009054906101000a90046001600160a01b03166001600160a01b031663aaaca5586040518163ffffffff1660e01b815260040160206040518083038186803b158015612f4457600080fd5b505afa158015612f58573d6000803e3d6000fd5b505050506040513d601f19601f82011682018060405250612f7c9190810190613c54565b6067546040516001600160e01b031960e085901b168152612faa92916001600160a01b031690600401614b8c565b60206040518083038186803b158015612fc257600080fd5b505afa158015612fd6573d6000803e3d6000fd5b505050506040513d601f19601f82011682018060405250612ffa9190810190613c54565b90506001600160a01b0381166130225760405162461bcd60e51b815260040161060890614d69565b604051632319178560e11b81526000906001600160a01b038316906346322f0a90613060906b14dd5c1c1b1e551bd119589d60a21b90600401614bfc565b60206040518083038186803b15801561307857600080fd5b505afa15801561308c573d6000803e3d6000fd5b505050506040513d601f19601f820116820180604052506130b09190810190613de2565b905060006130bc612907565b6001600160a01b031663db63323e606a60009054906101000a90046001600160a01b03166001600160a01b031663aaaca5586040518163ffffffff1660e01b815260040160206040518083038186803b15801561311857600080fd5b505afa15801561312c573d6000803e3d6000fd5b505050506040513d601f19601f820116820180604052506131509190810190613c54565b6067546040516001600160e01b031960e085901b16815261318092916001600160a01b0316908a90600401614ba7565b60206040518083038186803b15801561319857600080fd5b505afa1580156131ac573d6000803e3d6000fd5b505050506040513d601f19601f820116820180604052506131d09190810190613de2565b9190911115949350505050565b606880546001810190915590565b6131f36138f3565b600061330d613200612483565b6001600160a01b031663269012a0606e60009054906101000a90046001600160a01b03166001600160a01b031663e00a46156040518163ffffffff1660e01b815260040160206040518083038186803b15801561325c57600080fd5b505afa158015613270573d6000803e3d6000fd5b505050506040513d601f19601f820116820180604052506132949190810190613de2565b6040518263ffffffff1660e01b81526004016132b09190614bfc565b60206040518083038186803b1580156132c857600080fd5b505afa1580156132dc573d6000803e3d6000fd5b505050506040513d601f19601f820116820180604052506133009190810190613de2565b429063ffffffff612b7716565b90506040518061018001604052808881526020016040518060c0016040528089600001516001600160a01b0316815260200189602001516001600160a01b031681526020018881526020018781526020018681526020018960a00151815250815260200182815260200160008152602001600081526020016000815260200160008152602001600081526020016000815260200160006001600160a01b03168152602001600160038111156133be57fe5b81526000602090910152979650505050505050565b84602001516001600160a01b031685600001516001600160a01b0316877f0358f509931cba53bbb6a94b7f05a5178220a0c7ddb54b1a1722df9e6ed6aa098787878b60a00151606d60008f815260200190815260200160002060070154604051613441959493929190614f35565b60405180910390a480156134965784600001516001600160a01b0316867feec2f3feb835e2f2fd44281034b04700a1ddda63dd402949d470a25a7c40b36c8360405161348d9190614bfc565b60405180910390a35b505050505050565b6000806134f2606a60009054906101000a90046001600160a01b03166001600160a01b031663aaaca5586040518163ffffffff1660e01b815260040160206040518083038186803b158015612cf557600080fd5b90506000606960009054906101000a90046001600160a01b03166001600160a01b03166396237c026040518163ffffffff1660e01b815260040160206040518083038186803b15801561354457600080fd5b505afa158015613558573d6000803e3d6000fd5b505050506040513d601f19601f8201168201806040525061357c9190810190613de2565b90506000612ddd826108d3878663ffffffff61274116565b6000828152606d60205260409020600b0154811115613617576000828152606d60205260409020600b015481906135d290829063ffffffff6126f616565b6000848152606d60205260408120600b810191909155600c01549091506135ff908263ffffffff6126f616565b6000848152606d60205260409020600c01555061364c565b6000828152606d60205260409020600b0154613639908263ffffffff6126f616565b6000838152606d60205260409020600b01555b5050565b600081848411156136745760405162461bcd60e51b81526004016106089190614c18565b50508183035b9392505050565b600081836136a25760405162461bcd60e51b81526004016106089190614c18565b5060008385816136ae57fe5b0495945050505050565b60008060006136c684612c6a565b9050806136d282612ca1565b9250925050915091565b6136e582613845565b81906137045760405162461bcd60e51b81526004016106089190614c18565b505050565b613711610d10565b1561372e5760405162461bcd60e51b815260040161060890614df9565b60408051808201909152601981527f53455454494e47535f4d5553545f42455f50524f564944454400000000000000602082015261377c906001600160a01b0383169063ffffffff6136dc16565b61378e816001600160a01b0316612b9c565b6137aa5760405162461bcd60e51b815260040161060890614cb9565b6110db613853565b6001600160a01b039081169116141590565b600080826001600160a01b031663313ce5676040518163ffffffff1660e01b815260040160206040518083038186803b15801561380057600080fd5b505afa158015613814573d6000803e3d6000fd5b505050506040513d601f19601f820116820180604052506138389190810190614069565b60ff16600a0a9392505050565b6001600160a01b0316151590565b600060405161386190614b32565b6040519081900390206001905550565b60405180608001604052806000815260200160008152602001600081526020016000151581525090565b8280548282559060005260206000209081019282156138d6579160200282015b828111156138d65782358255916020019190600101906138bb565b506138e292915061396e565b5090565b61022b806150c283390190565b6040518061018001604052806000815260200161390e613988565b81526020016000815260200160008152602001600081526020016000815260200160008152602001600081526020016000815260200160006001600160a01b031681526020016000600381111561396157fe5b8152600060209091015290565b611d1991905b808211156138e25760008155600101613974565b6040518060c0016040528060006001600160a01b0316815260200160006001600160a01b03168152602001600081526020016000815260200160008152602001600081525090565b803561273b8161507c565b805161273b8161507c565b60008083601f8401126139f857600080fd5b50813567ffffffffffffffff811115613a1057600080fd5b60208301915083610140820283011115613a2957600080fd5b9250929050565b60008083601f840112613a4257600080fd5b50813567ffffffffffffffff811115613a5a57600080fd5b602083019150836020820283011115613a2957600080fd5b803561273b81615090565b805161273b81615090565b803561273b81615099565b805161273b81615099565b805161273b816150a2565b803561273b816150ab565b600060e08284031215613ac657600080fd5b50919050565b600060e08284031215613ade57600080fd5b613ae860e0614f81565b90506000613af684846139d0565b8252506020613b07848483016139d0565b6020830152506040613b1b848285016139d0565b6040830152506060613b2f84828501613a88565b6060830152506080613b4384828501613a88565b60808301525060a0613b5784828501613a88565b60a08301525060c0613b6b84828501613a88565b60c08301525092915050565b600060c08284031215613ac657600080fd5b600060c08284031215613b9b57600080fd5b613ba560c0614f81565b90506000613bb384846139d0565b8252506020613bc4848483016139d0565b6020830152506040613bd884828501613a88565b6040830152506060613bec84828501613a88565b6060830152506080613c0084828501613a88565b60808301525060a0613c1484828501613a88565b60a08301525092915050565b803561273b816150b8565b805161273b816150b8565b600060208284031215613c4857600080fd5b6000612bd084846139d0565b600060208284031215613c6657600080fd5b6000612bd084846139db565b600080600080600060a08688031215613c8a57600080fd5b6000613c9688886139d0565b9550506020613ca7888289016139d0565b9450506040613cb8888289016139d0565b9350506060613cc9888289016139d0565b9250506080613cda888289016139d0565b9150509295509295909350565b600080600060408486031215613cfc57600080fd5b6000613d0886866139d0565b935050602084013567ffffffffffffffff811115613d2557600080fd5b613d3186828701613a30565b92509250509250925092565b60008060408385031215613d5057600080fd5b6000613d5c85856139d0565b9250506020613d6d85828601613a88565b9150509250929050565b600080600060608486031215613d8c57600080fd5b6000613d9886866139d0565b9350506020613da986828701613a88565b9250506040613dba86828701613a88565b9150509250925092565b600060208284031215613dd657600080fd5b6000612bd08484613a7d565b600060208284031215613df457600080fd5b6000612bd08484613a93565b600060208284031215613e1257600080fd5b6000612bd08484613a9e565b6000806000806101208587031215613e3557600080fd5b6000613e418787613ab4565b94505060e085013567ffffffffffffffff811115613e5e57600080fd5b613e6a878288016139e6565b9350935050610100613e7e87828801613a88565b91505092959194509250565b600060e08284031215613e9c57600080fd5b6000612bd08484613acc565b600060c08284031215613eba57600080fd5b6000612bd08484613b89565b600060208284031215613ed857600080fd5b6000612bd08484613a88565b60008060408385031215613ef757600080fd5b6000613f038585613a88565b9250506020613d6d858286016139d0565b60008060008060008060008060008060006102008c8e031215613f3657600080fd5b6000613f428e8e613a88565b9b50506020613f538e828f01613b77565b9a505060e0613f648e828f01613a88565b995050610100613f768e828f01613a88565b985050610120613f888e828f01613a88565b975050610140613f9a8e828f01613a88565b965050610160613fac8e828f01613a88565b955050610180613fbe8e828f01613a88565b9450506101a0613fd08e828f01613a88565b9350506101c0613fe28e828f01613aa9565b9250506101e0613ff48e828f01613a72565b9150509295989b509295989b9093969950565b6000806040838503121561401a57600080fd5b6000613d5c8585613a88565b60008060006060848603121561403b57600080fd5b60006140478686613a93565b935050602061405886828701613a93565b9250506040613dba86828701613a93565b60006020828403121561407b57600080fd5b6000612bd08484613c2b565b60006140938383614995565b50506101400190565b60006140a88383614177565b505060200190565b6140b981615026565b82525050565b6140b981614fef565b60006140d48385614fb9565b93506140df82611d19565b8060005b85811015614115576140f582846138e2565b6140ff8882614087565b975061410a83614fb2565b9250506001016140e3565b509495945050505050565b600061412b82614fae565b6141358185614fb9565b935061414083614fa8565b8060005b83811015614115578151614158888261409c565b975061416383614fa8565b925050600101614144565b6140b981614ffa565b6140b981611d19565b6140b981614fff565b6140b981615031565b600061419d82614fae565b6141a78185614fb9565b93506141b781856020860161503c565b6141c081615068565b9093019392505050565b60006141d7601d83614fb9565b7f4455524154494f4e5f455843454544535f4d41585f4455524154494f4e000000815260200192915050565b6000614210601c83610f53565b7f54496e697469616c697a61626c652e6973496e697469616c697a6564000000008152601c0192915050565b6000614249601583614fb9565b74105353d5539517d59053155157d491545552549151605a1b815260200192915050565b600061427a601683614fb9565b7513115391125391d7d413d3d317d254d7d4105554d15160521b815260200192915050565b60006142ac601983614fb9565b7f414d4f554e545f455843454544535f4d41585f414d4f554e5400000000000000815260200192915050565b60006142e5601183614fb9565b7013505617d313d05397d15610d151511151607a1b815260200192915050565b6000614312601b83614fb9565b7f536166654d6174683a206164646974696f6e206f766572666c6f770000000000815260200192915050565b600061434b601983614fb9565b7f424f52524f5745525f4c4f414e5f49445f4d49534d4154434800000000000000815260200192915050565b6000614384601483614fb9565b73125390d3d4949150d517d1551217d05353d5539560621b815260200192915050565b60006143b4601683614fb9565b751313d05397d393d517d050d512559157d3d497d4d15560521b815260200192915050565b60006143e6601b83614fb9565b7f53455454494e47535f4d5553545f42455f415f434f4e54524143540000000000815260200192915050565b600061441f601783614fb9565b7f444f45534e545f4e4545445f4c49515549444154494f4e000000000000000000815260200192915050565b6000614458600f83614fb9565b6e4c4f414e5f4e4f545f41435449564560881b815260200192915050565b6000614483601b83614fb9565b7f424f52524f5745445f414d4f554e545f455843454544535f4d41580000000000815260200192915050565b60006144bc601483614fb9565b7343414e4e4f545f57495448445241575f5a45524f60601b815260200192915050565b60006144ec601283614fb9565b71141310551193d49357d254d7d4105554d15160721b815260200192915050565b600061451a601883614fb9565b7f4d4f52455f434f4c4c41544552414c5f52455155495245440000000000000000815260200192915050565b6000614553602183614fb9565b7f536166654d6174683a206d756c7469706c69636174696f6e206f766572666c6f8152607760f81b602082015260400192915050565b6000614596601d83614fb9565b7f434f4c4c41544552414c5f4445504f53495445445f524543454e544c59000000815260200192915050565b60006145cf601283614fb9565b711313d05397d511549354d7d156141254915160721b815260200192915050565b60006145fd602e83614fb9565b7f436f6e747261637420696e7374616e63652068617320616c726561647920626581526d195b881a5b9a5d1a585b1a5e995960921b602082015260400192915050565b600061464d601883614fb9565b7f41544d5f4e4f545f464f554e445f464f525f4d41524b45540000000000000000815260200192915050565b6000614686601383614fb9565b7243414e4e4f545f4445504f5349545f5a45524f60681b815260200192915050565b60006146b5601e83614fb9565b7f4f5241434c455f4d5553545f434f4e54524143545f4e4f545f454d5054590000815260200192915050565b60006146ee601783614fb9565b7f424f52524f5745525f4d5553545f42455f53454e444552000000000000000000815260200192915050565b6000614727601683614fb9565b7521a0a62622a92fa227a2a9a72a2fa7aba72fa627a0a760511b815260200192915050565b6000614759601883610f53565b7f426173655570677261646561626c652e73657474696e67730000000000000000815260180192915050565b6000614792601a83614fb9565b7f535550504c595f544f5f444542545f455843454544535f4d4158000000000000815260200192915050565b60006147cb601883614fb9565b7f434f4e54524143545f4e4f545f494e495449414c495a45440000000000000000815260200192915050565b6000614804600c83614fb9565b6b1313d05397d393d517d4d15560a21b815260200192915050565b600061482c601f83614fb9565b7f5265656e7472616e637947756172643a207265656e7472616e742063616c6c00815260200192915050565b6000614865601c83614fb9565b7f434f4e54524143545f414c52454144595f494e495449414c495a454400000000815260200192915050565b805160808301906148a28482614177565b5060208201516148b56020850182614177565b5060408201516148c86040850182614177565b506060820151610d52606085018261416e565b60e082016148e98280614fc2565b6148f384826140bf565b506149016020830183614fc2565b61490e60208501826140bf565b5061491c6040830183614fc2565b61492960408501826140bf565b506149376060830183614fd1565b6149446060850182614177565b506149526080830183614fd1565b61495f6080850182614177565b5061496d60a0830183614fd1565b61497a60a0850182614177565b5061498860c0830183614fd1565b610d5260c0850182614177565b61014082016149a48280614fc2565b6149ae84826140bf565b506149bc6020830183614fc2565b6149c960208501826140bf565b506149d76040830183614fd1565b6149e46040850182614177565b506149f26060830183614fd1565b6149ff6060850182614177565b50614a0d6080830183614fd1565b614a1a6080850182614177565b50614a2860a0830183614fd1565b614a3560a0850182614177565b50614a4360c08301836138e2565b610d5260c0850182614ac0565b805160c0830190614a6184826140bf565b506020820151614a7460208501826140bf565b506040820151614a876040850182614177565b506060820151614a9a6060850182614177565b506080820151614aad6080850182614177565b5060a0820151610d5260a0850182614177565b60808201614ace8280614fd1565b614ad88482614177565b50614ae66020830183614fe0565b614af36020850182614b29565b50614b016040830183614fd1565b614b0e6040850182614177565b50614b1c6060830183614fd1565b610d526060850182614177565b6140b981615020565b600061273b82614203565b600061273b8261474c565b6020810161273b82846140bf565b6020810161273b82846140b0565b60608101614b7282866140b0565b614b7f6020830185614177565b612bd06040830184614177565b60408101614b9a82856140bf565b61367a60208301846140bf565b60608101614bb582866140bf565b614b7f60208301856140bf565b60408101614bd082856140bf565b61367a6020830184614177565b602080825281016127388184614120565b6020810161273b828461416e565b6020810161273b8284614177565b6020810161273b8284614180565b602080825281016127388184614192565b60208082528101610f50816141ca565b60208082528101610f508161423c565b60208082528101610f508161426d565b60208082528101610f508161429f565b60208082528101610f50816142d8565b60208082528101610f5081614305565b60208082528101610f508161433e565b60208082528101610f5081614377565b60208082528101610f50816143a7565b60208082528101610f50816143d9565b60208082528101610f5081614412565b60208082528101610f508161444b565b60208082528101610f5081614476565b60208082528101610f50816144af565b60208082528101610f50816144df565b60208082528101610f508161450d565b60208082528101610f5081614546565b60208082528101610f5081614589565b60208082528101610f50816145c2565b60208082528101610f50816145f0565b60208082528101610f5081614640565b60208082528101610f5081614679565b60208082528101610f50816146a8565b60208082528101610f50816146e1565b60208082528101610f508161471a565b60208082528101610f5081614785565b60208082528101610f50816147be565b60208082528101610f50816147f7565b60208082528101610f508161481f565b60208082528101610f5081614858565b6080810161273b8284614891565b6101008101614e2682866148db565b81810360e0830152612ddd8184866140c8565b60408101614b9a8285614177565b60408101614e558285614177565b61367a60208301846140b0565b60608101614e708286614177565b614b7f60208301856140b0565b6102208101614e8c828f614177565b614e99602083018e614a50565b614ea660e083018d614177565b614eb461010083018c614177565b614ec261012083018b614177565b614ed061014083018a614177565b614ede610160830189614177565b614eec610180830188614177565b614efa6101a0830187614177565b614f086101c08301866140bf565b614f166101e0830185614189565b614f2461020083018461416e565b9d9c50505050505050505050505050565b60a08101614f438288614177565b614f506020830187614177565b614f5d6040830186614177565b614f6a6060830185614177565b614f776080830184614177565b9695505050505050565b60405181810167ffffffffffffffff81118282101715614fa057600080fd5b604052919050565b60200190565b5190565b6101400190565b90815260200190565b600061273860208401846139d0565b60006127386020840184613a88565b60006127386020840184613c20565b6000610f5082615014565b151590565b6000610f5082614fef565b80610f5381615072565b6001600160a01b031690565b60ff1690565b6000610f5082614fff565b6000610f508261500a565b60005b8381101561505757818101518382015260200161503f565b83811115610d525750506000910152565b601f01601f191690565b600481106110e457fe5b61508581614fef565b81146110e457600080fd5b61508581614ffa565b61508581611d19565b61508581614fff565b600481106110e457600080fd5b6150858161502056fe608060405234801561001057600080fd5b5061020b806100206000396000f3fe608060405234801561001057600080fd5b50600436106100935760003560e01c80633ff591d9116100665780633ff591d9146100ca578063c41dd8ce146100d2578063cc44cadb146100da578063e00a4615146100e2578063e3f33d00146100ea57610093565b806308b04f62146100985780631139087a146100b257806311880cc8146100ba5780633b98dfdb146100c2575b600080fd5b6100a06100f2565b60408051918252519081900360200190f35b6100a0610109565b6100a0610121565b6100a0610136565b6100a061015a565b6100a0610174565b6100a061018b565b6100a06101a5565b6100a06101bb565b6f21b7b63630ba32b930b6213ab33332b960811b81565b704c6971756964617465457468507269636560781b81565b6d14d859995d1e525b9d195c9d985b60921b81565b7f526571756573744c6f616e5465726d73526174654c696d69740000000000000081565b7252657175697265645375626d697373696f6e7360681b81565b6f4d6178696d756d546f6c6572616e636560801b81565b7226b0bc34b6bab6a637b0b7223ab930ba34b7b760691b81565b6e5465726d7345787069727954696d6560881b81565b730a4cae6e0dedce6ca8af0e0d2e4f298cadccee8d60631b8156fea265627a7a72315820b6cc93d12d39f205ac91b27ee8876405b81cd752a680e010a2828f9ed81bbbb364736f6c63430005110032a365627a7a7231582089a9cb09623dbd214a7bbd360b92322b566dfae88488ed13090e6871e33784e26c6578706572696d656e74616cf564736f6c63430005110040",
  "source": "pragma solidity 0.5.17;\npragma experimental ABIEncoderV2;\n\nimport \"../../base/EtherCollateralLoans.sol\";\nimport \"./LoansBaseMock.sol\";\n\ncontract EtherCollateralLoansMock is EtherCollateralLoans {\n    function setLoanIDCounter(uint256 newLoanIdCounter) external {\n        loanIDCounter = newLoanIdCounter;\n    }\n\n    function setBorrowerLoans(address borrower, uint256[] calldata loanIDs) external {\n        borrowerLoans[borrower] = loanIDs;\n    }\n\n    function setTotalCollateral(uint256 amount) external {\n        totalCollateral = amount;\n    }\n\n    function setEscrowForLoan(uint256 loanID, address escrowAddress) external {\n        loans[loanID].escrow = escrowAddress;\n    }\n\n    function setLoan(\n        uint256 id,\n        TellerCommon.LoanTerms calldata loanTerms,\n        uint256 termsExpiry,\n        uint256 loanStartTime,\n        uint256 collateral,\n        uint256 lastCollateralIn,\n        uint256 principalOwed,\n        uint256 interestOwed,\n        uint256 borrowedAmount,\n        TellerCommon.LoanStatus status,\n        bool liquidated\n    ) external {\n        require(loanTerms.maxLoanAmount >= borrowedAmount, \"BORROWED_AMOUNT_EXCEEDS_MAX\");\n        totalCollateral += collateral;\n        loans[id] = TellerCommon.Loan({\n            id: id,\n            loanTerms: loanTerms,\n            termsExpiry: termsExpiry,\n            loanStartTime: loanStartTime,\n            collateral: collateral,\n            lastCollateralIn: lastCollateralIn,\n            principalOwed: principalOwed,\n            interestOwed: interestOwed,\n            borrowedAmount: borrowedAmount,\n            escrow: address(0x0),\n            status: status,\n            liquidated: liquidated\n        });\n    }\n\n    function externalCreateEscrow(uint256 loanID) external returns (address) {\n        return super._createEscrow(loanID);\n    }\n\n    function externalSetSettings(address settingsAddress) external {\n        _setSettings(settingsAddress);\n    }\n\n    function() external payable {}\n}\n",
  "sourcePath": "/Users/sy/Documents/GitHub/teller-protocol-v1/contracts/mock/base/EtherCollateralLoansMock.sol",
  "compiler": {
    "name": "solc",
    "version": "0.5.17+commit.d19bba13.Emscripten.clang"
  },
  "schemaVersion": "3.0.23",
  "updatedAt": "2020-09-06T02:15:12.456Z",
  "devdoc": {
    "methods": {
      "canLiquidateLoan(uint256)": {
        "params": {
          "loanID": "The ID of the loan to check"
        },
        "return": "bool weather the loan can be liquidated"
      },
      "createLoanWithTerms((address,address,address,uint256,uint256,uint256,uint256),(address,address,uint256,uint256,uint256,uint256,(uint256,uint8,bytes32,bytes32))[],uint256)": {
        "params": {
          "collateralAmount": "Amount of collateral required for the loan",
          "request": "Struct of the protocol loan request",
          "responses": "List of structs of the protocol loan responses"
        }
      },
      "depositCollateral(address,uint256,uint256)": {
        "params": {
          "borrower": "The address of the loan borrower.",
          "loanID": "The ID of the loan the collateral is for"
        }
      },
      "getBorrowerLoans(address)": {
        "params": {
          "borrower": "The borrower's address"
        }
      },
      "getCollateralInfo(uint256)": {
        "params": {
          "loanID": "of the loan to get info for"
        },
        "return": "memory TellerCommon.LoanCollateralInfo Collateral information of the loan"
      },
      "getTotalOwed(uint256)": {
        "params": {
          "loanID": "The ID of the loan to be queried"
        },
        "return": "uint256 The total amount owed remaining"
      },
      "initialize(address,address,address,address,address)": {
        "params": {
          "lendingPoolAddress": "Contract address of the lending pool",
          "loanTermsConsensusAddress": "Contract adddress for loan term consensus",
          "priceOracleAddress": "Contract address of the price oracle",
          "settingsAddress": "Contract address for the configuration of the platform"
        }
      },
      "initialized()": {
        "return": "true if contract is initialized. Otherwise it returns false."
      },
      "lendingToken()": {
        "return": "Address of the lending token"
      },
      "liquidateLoan(uint256)": {
        "params": {
          "loanID": "The ID of the loan to be liquidated"
        }
      },
      "repay(uint256,uint256)": {
        "params": {
          "amount": "The amount of tokens to pay back to the loan",
          "loanID": "The ID of the loan the payment is for"
        }
      },
      "setPriceOracle(address)": {
        "details": "It throws a require error if sender is not allowed.It throws a require error if new address is empty (0x0) or not a contract.",
        "params": {
          "newPriceOracle": "the new price oracle address."
        }
      },
      "takeOutLoan(uint256,uint256)": {
        "details": "collateral ratio is a percentage of the loan amount that's required in collateralthe percentage will be *(10**2). I.e. collateralRatio of 5244 means 52.44% collateralis required in the loan. Interest rate is also a percentage with 2 decimal points."
      },
      "withdrawCollateral(uint256,uint256)": {
        "params": {
          "amount": "The amount of collateral token or ether the caller is hoping to withdraw.",
          "loanID": "The ID of the loan the collateral is for"
        }
      }
    }
  },
  "userdoc": {
    "methods": {
      "canLiquidateLoan(uint256)": {
        "notice": "A loan can be liquidated if it is: under collateralized or expired"
      },
      "createLoanWithTerms((address,address,address,uint256,uint256,uint256,uint256),(address,address,uint256,uint256,uint256,uint256,(uint256,uint8,bytes32,bytes32))[],uint256)": {
        "notice": "Creates a loan with the loan request and terms"
      },
      "depositCollateral(address,uint256,uint256)": {
        "notice": "Deposit collateral into a loan"
      },
      "getBorrowerLoans(address)": {
        "notice": "Get a list of all loans for a borrower"
      },
      "getCollateralInfo(uint256)": {
        "notice": "Get collateral information of a specific loan"
      },
      "getTotalOwed(uint256)": {
        "notice": "Returns the total owed amount remaining for a specified loan"
      },
      "initialize(address,address,address,address,address)": {
        "notice": "Initializes the current contract instance setting the required parameters"
      },
      "initialized()": {
        "notice": "Gets if the contract is initialized."
      },
      "lendingToken()": {
        "notice": "Returns the lending token in the lending pool"
      },
      "liquidateLoan(uint256)": {
        "notice": "Liquidate a loan if it is expired or under collateralized"
      },
      "repay(uint256,uint256)": {
        "notice": "Make a payment to a loan"
      },
      "setPriceOracle(address)": {
        "notice": "Updates the current price oracle instance."
      },
      "settings()": {
        "notice": "The settings contract."
      },
      "takeOutLoan(uint256,uint256)": {
        "notice": "Take out a loan"
      },
      "withdrawCollateral(uint256,uint256)": {
        "notice": "Withdraw collateral from a loan, unless this isn't allowed"
      }
    }
  }
}