{
  "contractName": "InitializableModifiersMock",
  "abi": [
    {
      "constant": false,
      "inputs": [],
      "name": "externalIsNotInitialized",
      "outputs": [],
      "payable": false,
      "stateMutability": "nonpayable",
      "type": "function"
    },
    {
      "constant": false,
      "inputs": [],
      "name": "externalIsInitialized",
      "outputs": [],
      "payable": false,
      "stateMutability": "nonpayable",
      "type": "function"
    },
    {
      "constant": false,
      "inputs": [],
      "name": "externalInitialize",
      "outputs": [],
      "payable": false,
      "stateMutability": "nonpayable",
      "type": "function"
    }
  ],
  "bytecode": "0x608060405234801561001057600080fd5b506101c6806100206000396000f3fe608060405234801561001057600080fd5b50600436106100415760003560e01c80636543837b146100465780637e02810c146100505780638395e87d1461005a575b600080fd5b61004e610064565b005b6100586100e8565b005b61006261016b565b005b6000809054906101000a900460ff16156100e6576040517f08c379a000000000000000000000000000000000000000000000000000000000815260040180806020018281038252601a8152602001807f497420697320616c726561647920696e697469616c697a65642e00000000000081525060200191505060405180910390fd5b565b6000809054906101000a900460ff16610169576040517f08c379a00000000000000000000000000000000000000000000000000000000081526004018080602001828103825260168152602001807f4974206973206e6f7420696e697469616c697a65642e0000000000000000000081525060200191505060405180910390fd5b565b610173610175565b565b60016000806101000a81548160ff02191690831515021790555056fea265627a7a72315820e4f35d1bd8481efcfa5d7637b3ad7dd75f38b56796f847df2c13d531f2b898fa64736f6c63430005110032",
  "source": "/*\n    Copyright 2020 Fabrx Labs Inc.\n\n    Licensed under the Apache License, Version 2.0 (the \"License\");\n    you may not use this file except in compliance with the License.\n    You may obtain a copy of the License at\n\n    http://www.apache.org/licenses/LICENSE-2.0\n\n    Unless required by applicable law or agreed to in writing, software\n    distributed under the License is distributed on an \"AS IS\" BASIS,\n    WITHOUT WARRANTIES OR CONDITIONS OF ANY KIND, either express or implied.\n    See the License for the specific language governing permissions and\n    limitations under the License.\n*/\npragma solidity 0.5.17;\n\nimport \"../../base/Initializable.sol\";\n\n/**\n    This contract is created ONLY for testing purposes.\n */\ncontract InitializableModifiersMock is Initializable {\n    \n    /** State Variables */\n\n    /** Constructor */\n\n    function externalIsNotInitialized() isNotInitialized() external {}\n\n    function externalIsInitialized() isInitialized() external {}\n\n    function externalInitialize() external {\n        initialize();\n    }\n\n}\n",
  "sourcePath": "/home/jalil/Programs/zero-collateral-v1/contracts/mock/base/InitializableModifiersMock.sol",
  "compiler": {
    "name": "solc",
    "version": "0.5.17+commit.d19bba13.Emscripten.clang"
  },
  "schemaVersion": "3.0.23",
  "updatedAt": "2020-04-29T14:20:38.805Z",
  "devdoc": {
    "methods": {}
  },
  "userdoc": {
    "methods": {
      "externalIsNotInitialized()": {
        "notice": "Constructor "
      }
    },
    "notice": "This contract is created ONLY for testing purposes."
  }
}