{
  "contractName": "InitializeableDynamicProxy",
  "abi": [
    {
      "anonymous": false,
      "inputs": [
        {
          "indexed": true,
          "internalType": "address",
          "name": "implementation",
          "type": "address"
        }
      ],
      "name": "Upgraded",
      "type": "event"
    },
    {
      "payable": true,
      "stateMutability": "payable",
      "type": "fallback"
    },
    {
      "constant": true,
      "inputs": [],
      "name": "implementation",
      "outputs": [
        {
          "internalType": "address",
          "name": "",
          "type": "address"
        }
      ],
      "payable": false,
      "stateMutability": "view",
      "type": "function"
    },
    {
      "constant": true,
      "inputs": [],
      "name": "settings",
      "outputs": [
        {
          "internalType": "contract SettingsInterface",
          "name": "",
          "type": "address"
        }
      ],
      "payable": false,
      "stateMutability": "view",
      "type": "function"
    },
    {
      "constant": false,
      "inputs": [
        {
          "internalType": "address",
          "name": "settingsAddress",
          "type": "address"
        },
        {
          "internalType": "bytes32",
          "name": "aLogicName",
          "type": "bytes32"
        }
      ],
      "name": "initializeProxy",
      "outputs": [],
      "payable": false,
      "stateMutability": "nonpayable",
      "type": "function"
    },
    {
      "constant": true,
      "inputs": [],
      "name": "__isInitialized",
      "outputs": [
        {
          "internalType": "bool",
          "name": "",
          "type": "bool"
        }
      ],
      "payable": false,
      "stateMutability": "view",
      "type": "function"
    }
  ],
  "bytecode": "0x608060405234801561001057600080fd5b50610647806100206000396000f3fe60806040526004361061003f5760003560e01c80635c60da1b146100495780638e5f33941461007a578063b329b45a146100a3578063e06174e4146100dc575b6100476100f1565b005b34801561005557600080fd5b5061005e61010b565b604080516001600160a01b039092168252519081900360200190f35b34801561008657600080fd5b5061008f61011b565b604080519115158252519081900360200190f35b3480156100af57600080fd5b50610047600480360360408110156100c657600080fd5b506001600160a01b038135169060200135610136565b3480156100e857600080fd5b5061005e6101a6565b6100f9610109565b6101096101046101d7565b6101fd565b565b60006101156101d7565b90505b90565b6000806101266101a6565b6001600160a01b03161415905090565b61013e61011b565b15610190576040805162461bcd60e51b815260206004820152601d60248201527f44594e5f50524f58595f414c52454144595f494e495449414c495a4544000000604482015290519081900360640190fd5b61019982610221565b6101a2816102db565b5050565b6040805177426173655570677261646561626c652e73657474696e677360401b815290519081900360180190205490565b60006101e161011b565b156101f5576101ee610488565b9050610118565b6101ee610571565b3660008037600080366000845af43d6000803e80801561021c573d6000f35b3d6000fd5b61023a61022c6101a6565b6001600160a01b0316610596565b15610244576102d8565b610256816001600160a01b03166105a4565b6102a7576040805162461bcd60e51b815260206004820152601b60248201527f53455454494e47535f4d5553545f42455f415f434f4e54524143540000000000604482015290519081900360640190fd5b6040805177426173655570677261646561626c652e73657474696e677360401b815290519081900360180190208190555b50565b6102e36105e0565b1561032e576040805162461bcd60e51b81526020600482015260166024820152751313d1d250d7d390535157d053149150511657d4d15560521b604482015290519081900360640190fd5b6103366101a6565b6001600160a01b031663ea23cb7c6040518163ffffffff1660e01b815260040160206040518083038186803b15801561036e57600080fd5b505afa158015610382573d6000803e3d6000fd5b505050506040513d602081101561039857600080fd5b50516040805163b28f5abb60e01b81526004810184905290516001600160a01b039092169163b28f5abb91602480820192602092909190829003018186803b1580156103e357600080fd5b505afa1580156103f7573d6000803e3d6000fd5b505050506040513d602081101561040d57600080fd5b5051610457576040805162461bcd60e51b81526020600482015260146024820152731313d1d250d7d390535157d393d517d1561254d560621b604482015290519081900360640190fd5b6040805178426173655570677261646561626c652e6c6f6769634e616d6560381b8152905190819003601901902055565b60006104926101a6565b6001600160a01b031663ea23cb7c6040518163ffffffff1660e01b815260040160206040518083038186803b1580156104ca57600080fd5b505afa1580156104de573d6000803e3d6000fd5b505050506040513d60208110156104f457600080fd5b50516001600160a01b03166373f1fcf661050c6105e0565b6040518263ffffffff1660e01b81526004018082815260200191505060206040518083038186803b15801561054057600080fd5b505afa158015610554573d6000803e3d6000fd5b505050506040513d602081101561056a57600080fd5b5051905090565b7f360894a13ba1a3210667c828492db98dca3e2076cc3735a920a3ca505d382bbc5490565b6001600160a01b0316151590565b6000813f7fc5d2460186f7233c927e7db2dcc703c0e500b653ca82273b7bfad8045d85a4708181148015906105d857508115155b949350505050565b6040805178426173655570677261646561626c652e6c6f6769634e616d6560381b81529051908190036019019020549056fea265627a7a7231582004fb24e8c7475e3c63fefc9e3a4bada336f92483e4846086ec90c69dd844df5064736f6c63430005110032",
  "source": "pragma solidity 0.5.17;\n\n// Contracts\nimport \"@openzeppelin/upgrades/contracts/upgradeability/BaseUpgradeabilityProxy.sol\";\nimport \"./BaseDynamicProxy.sol\";\n\n/**\n    @notice This is used as a proxy contract in the deployment process, allowing to us to make upgreadable the contracts. \n    @dev The platform uses two types of proxies:\n    - BaseDynamicProxy\n    - BaseUpgradeabilityProxy (from OpenZeppelin).\n\n    @author develop@teller.finance\n */\ncontract InitializeableDynamicProxy is BaseDynamicProxy, BaseUpgradeabilityProxy {\n    /**\n        @notice It initializes this proxy instance with a settings contract and a logic name.\n        @param settingsAddress the settings contract address to use.\n        @param aLogicName the logic name to use.\n     */\n    function initializeProxy(address settingsAddress, bytes32 aLogicName) public {\n        require(!__isInitialized(), \"DYN_PROXY_ALREADY_INITIALIZED\");\n\n        _setSettings(settingsAddress);\n        _setLogicName(aLogicName);\n    }\n\n    /**\n        @notice It returns if the proxy was initialized.\n        @notice Uses double underscore (__) to avoid any collision in implementation contracts.\n     */\n    function __isInitialized() public view returns (bool) {\n        return address(settings()) != address(0x0);\n    }\n\n    /**\n        @dev Returns the current implementation.\n        @return Address of the current implementation\n     */\n    function _implementation() internal view returns (address) {\n        if (__isInitialized()) {\n            return BaseDynamicProxy._implementation();\n        } else {\n            return BaseUpgradeabilityProxy._implementation();\n        }\n    }\n}\n",
  "sourcePath": "/Users/guillesalazar/Repos/ZeroCollateral/smart-contracts-v1/contracts/base/InitializeableDynamicProxy.sol",
  "compiler": {
    "name": "solc",
    "version": "0.5.17+commit.d19bba13.Emscripten.clang"
  },
  "schemaVersion": "3.2.3",
  "updatedAt": "2020-10-12T16:12:27.619Z",
  "networkType": "ethereum",
  "devdoc": {
    "author": "develop@teller.finance",
    "details": "The platform uses two types of proxies: - BaseDynamicProxy - BaseUpgradeabilityProxy (from OpenZeppelin).",
    "methods": {
      "implementation()": {
        "return": "Address of the current implementation"
      },
      "initializeProxy(address,bytes32)": {
        "params": {
          "aLogicName": "the logic name to use.",
          "settingsAddress": "the settings contract address to use."
        }
      },
      "settings()": {
        "details": "This address should NOT change over the time. See details in the _setSettings(...) function."
      }
    }
  },
  "userdoc": {
    "methods": {
      "__isInitialized()": {
        "notice": "It returns if the proxy was initialized.Uses double underscore (__) to avoid any collision in implementation contracts."
      },
      "implementation()": {
        "notice": "Returns the current implementation."
      },
      "initializeProxy(address,bytes32)": {
        "notice": "It initializes this proxy instance with a settings contract and a logic name."
      },
      "settings()": {
        "notice": "The gets the settings contract address from the SETTINGS_SLOT."
      }
    },
    "notice": "This is used as a proxy contract in the deployment process, allowing to us to make upgreadable the contracts. "
  }
}