{
  "contractName": "InitializeableDynamicProxyMock",
  "abi": [
    {
      "anonymous": false,
      "inputs": [
        {
          "indexed": true,
          "internalType": "address",
          "name": "implementation",
          "type": "address"
        }
      ],
      "name": "Upgraded",
      "type": "event"
    },
    {
      "payable": true,
      "stateMutability": "payable",
      "type": "fallback"
    },
    {
      "constant": true,
      "inputs": [],
      "name": "__isInitialized",
      "outputs": [
        {
          "internalType": "bool",
          "name": "",
          "type": "bool"
        }
      ],
      "payable": false,
      "stateMutability": "view",
      "type": "function"
    },
    {
      "constant": true,
      "inputs": [],
      "name": "implementation",
      "outputs": [
        {
          "internalType": "address",
          "name": "",
          "type": "address"
        }
      ],
      "payable": false,
      "stateMutability": "view",
      "type": "function"
    },
    {
      "constant": false,
      "inputs": [
        {
          "internalType": "address",
          "name": "settingsAddress",
          "type": "address"
        },
        {
          "internalType": "bytes32",
          "name": "aLogicName",
          "type": "bytes32"
        }
      ],
      "name": "initializeProxy",
      "outputs": [],
      "payable": false,
      "stateMutability": "nonpayable",
      "type": "function"
    },
    {
      "constant": true,
      "inputs": [],
      "name": "settings",
      "outputs": [
        {
          "internalType": "contract SettingsInterface",
          "name": "",
          "type": "address"
        }
      ],
      "payable": false,
      "stateMutability": "view",
      "type": "function"
    },
    {
      "constant": true,
      "inputs": [],
      "name": "externalLogicName",
      "outputs": [
        {
          "internalType": "bytes32",
          "name": "name",
          "type": "bytes32"
        }
      ],
      "payable": false,
      "stateMutability": "view",
      "type": "function"
    },
    {
      "constant": false,
      "inputs": [
        {
          "internalType": "address",
          "name": "newImplementation",
          "type": "address"
        }
      ],
      "name": "externalSetImplementation",
      "outputs": [],
      "payable": false,
      "stateMutability": "nonpayable",
      "type": "function"
    }
  ],
  "bytecode": "0x608060405234801561001057600080fd5b50610775806100206000396000f3fe6080604052600436106100555760003560e01c80633e6a00eb1461005f5780635c60da1b146100925780638e5f3394146100c3578063ac606a86146100ec578063b329b45a14610113578063e06174e41461014c575b61005d610161565b005b34801561006b57600080fd5b5061005d6004803603602081101561008257600080fd5b50356001600160a01b031661017b565b34801561009e57600080fd5b506100a7610187565b604080516001600160a01b039092168252519081900360200190f35b3480156100cf57600080fd5b506100d8610197565b604080519115158252519081900360200190f35b3480156100f857600080fd5b506101016101b2565b60408051918252519081900360200190f35b34801561011f57600080fd5b5061005d6004803603604081101561013657600080fd5b506001600160a01b0381351690602001356101bc565b34801561015857600080fd5b506100a761022c565b610169610179565b61017961017461025d565b610283565b565b610184816102a7565b50565b600061019161025d565b90505b90565b6000806101a261022c565b6001600160a01b03161415905090565b600061019161030f565b6101c4610197565b15610216576040805162461bcd60e51b815260206004820152601d60248201527f44594e5f50524f58595f414c52454144595f494e495449414c495a4544000000604482015290519081900360640190fd5b61021f82610341565b610228816103fa565b5050565b6040805177426173655570677261646561626c652e73657474696e677360401b815290519081900360180190205490565b6000610267610197565b1561027b576102746105a7565b9050610194565b610274610690565b3660008037600080366000845af43d6000803e8080156102a2573d6000f35b3d6000fd5b6102b0816106b5565b6102eb5760405162461bcd60e51b815260040180806020018281038252603b815260200180610706603b913960400191505060405180910390fd5b7f360894a13ba1a3210667c828492db98dca3e2076cc3735a920a3ca505d382bbc55565b6040805178426173655570677261646561626c652e6c6f6769634e616d6560381b815290519081900360190190205490565b61035a61034c61022c565b6001600160a01b03166106bb565b1561036457610184565b610376816001600160a01b03166106c9565b6103c7576040805162461bcd60e51b815260206004820152601b60248201527f53455454494e47535f4d5553545f42455f415f434f4e54524143540000000000604482015290519081900360640190fd5b6040805177426173655570677261646561626c652e73657474696e677360401b8152905190819003601801902081905550565b61040261030f565b1561044d576040805162461bcd60e51b81526020600482015260166024820152751313d1d250d7d390535157d053149150511657d4d15560521b604482015290519081900360640190fd5b61045561022c565b6001600160a01b031663ea23cb7c6040518163ffffffff1660e01b815260040160206040518083038186803b15801561048d57600080fd5b505afa1580156104a1573d6000803e3d6000fd5b505050506040513d60208110156104b757600080fd5b50516040805163b28f5abb60e01b81526004810184905290516001600160a01b039092169163b28f5abb91602480820192602092909190829003018186803b15801561050257600080fd5b505afa158015610516573d6000803e3d6000fd5b505050506040513d602081101561052c57600080fd5b5051610576576040805162461bcd60e51b81526020600482015260146024820152731313d1d250d7d390535157d393d517d1561254d560621b604482015290519081900360640190fd5b6040805178426173655570677261646561626c652e6c6f6769634e616d6560381b8152905190819003601901902055565b60006105b161022c565b6001600160a01b031663ea23cb7c6040518163ffffffff1660e01b815260040160206040518083038186803b1580156105e957600080fd5b505afa1580156105fd573d6000803e3d6000fd5b505050506040513d602081101561061357600080fd5b50516001600160a01b03166373f1fcf661062b61030f565b6040518263ffffffff1660e01b81526004018082815260200191505060206040518083038186803b15801561065f57600080fd5b505afa158015610673573d6000803e3d6000fd5b505050506040513d602081101561068957600080fd5b5051905090565b7f360894a13ba1a3210667c828492db98dca3e2076cc3735a920a3ca505d382bbc5490565b3b151590565b6001600160a01b0316151590565b6000813f7fc5d2460186f7233c927e7db2dcc703c0e500b653ca82273b7bfad8045d85a4708181148015906106fd57508115155b94935050505056fe43616e6e6f742073657420612070726f787920696d706c656d656e746174696f6e20746f2061206e6f6e2d636f6e74726163742061646472657373a265627a7a7231582011992f170397b8e2b8ccec9a1b29332590383b735ac5d880b5265537abbf741f64736f6c63430005110032",
  "source": "pragma solidity 0.5.17;\n\nimport \"@openzeppelin/upgrades/contracts/upgradeability/BaseUpgradeabilityProxy.sol\";\nimport \"../../base/InitializeableDynamicProxy.sol\";\n\ncontract InitializeableDynamicProxyMock is InitializeableDynamicProxy {\n    function externalLogicName() external view returns (bytes32 name) {\n        return logicName();\n    }\n\n    function externalSetImplementation(address newImplementation) external {\n        return BaseUpgradeabilityProxy._setImplementation(newImplementation);\n    }\n}\n",
  "sourcePath": "/Users/guillesalazar/Repos/ZeroCollateral/smart-contracts-v1/contracts/mock/base/InitializeableDynamicProxyMock.sol",
  "compiler": {
    "name": "solc",
    "version": "0.5.17+commit.d19bba13.Emscripten.clang"
  },
  "schemaVersion": "3.2.3",
  "updatedAt": "2020-10-12T14:23:11.522Z",
  "devdoc": {
    "methods": {
      "implementation()": {
        "return": "Address of the current implementation"
      },
      "initializeProxy(address,bytes32)": {
        "params": {
          "aLogicName": "the logic name to use.",
          "settingsAddress": "the settings contract address to use."
        }
      },
      "settings()": {
        "details": "This address should NOT change over the time. See details in the _setSettings(...) function."
      }
    }
  },
  "userdoc": {
    "methods": {
      "__isInitialized()": {
        "notice": "It returns if the proxy was initialized.Uses double underscore (__) to avoid any collision in implementation contracts."
      },
      "implementation()": {
        "notice": "Returns the current implementation."
      },
      "initializeProxy(address,bytes32)": {
        "notice": "It initializes this proxy instance with a settings contract and a logic name."
      },
      "settings()": {
        "notice": "The gets the settings contract address from the SETTINGS_SLOT."
      }
    }
  }
}