{
  "contractName": "InitializeableDynamicProxy",
  "abi": [
    {
      "anonymous": false,
      "inputs": [
        {
          "indexed": true,
          "internalType": "address",
          "name": "implementation",
          "type": "address"
        }
      ],
      "name": "Upgraded",
      "type": "event"
    },
    {
      "payable": true,
      "stateMutability": "payable",
      "type": "fallback"
    },
    {
      "constant": true,
      "inputs": [],
      "name": "implementation",
      "outputs": [
        {
          "internalType": "address",
          "name": "",
          "type": "address"
        }
      ],
      "payable": false,
      "stateMutability": "view",
      "type": "function"
    },
    {
      "constant": true,
      "inputs": [],
      "name": "settings",
      "outputs": [
        {
          "internalType": "contract SettingsInterface",
          "name": "",
          "type": "address"
        }
      ],
      "payable": false,
      "stateMutability": "view",
      "type": "function"
    },
    {
      "constant": false,
      "inputs": [
        {
          "internalType": "address",
          "name": "settingsAddress",
          "type": "address"
        },
        {
          "internalType": "bytes32",
          "name": "aLogicName",
          "type": "bytes32"
        }
      ],
      "name": "initializeProxy",
      "outputs": [],
      "payable": false,
      "stateMutability": "nonpayable",
      "type": "function"
    },
    {
      "constant": true,
      "inputs": [],
      "name": "__isInitialized",
      "outputs": [
        {
          "internalType": "bool",
          "name": "",
          "type": "bool"
        }
      ],
      "payable": false,
      "stateMutability": "view",
      "type": "function"
    }
  ],
  "bytecode": "0x608060405234801561001057600080fd5b506105eb806100206000396000f3fe60806040526004361061003f5760003560e01c80635c60da1b146100495780638e5f33941461007a578063b329b45a146100a3578063e06174e4146100dc575b6100476100f1565b005b34801561005557600080fd5b5061005e61010b565b604080516001600160a01b039092168252519081900360200190f35b34801561008657600080fd5b5061008f61011b565b604080519115158252519081900360200190f35b3480156100af57600080fd5b50610047600480360360408110156100c657600080fd5b506001600160a01b038135169060200135610136565b3480156100e857600080fd5b5061005e610190565b6100f9610109565b6101096101046101c1565b6101e7565b565b60006101156101c1565b90505b90565b600080610126610190565b6001600160a01b03161415905090565b61013e61011b565b1561017a5760405162461bcd60e51b81526004018080602001828103825260218152602001806105966021913960400191505060405180910390fd5b6101838261020b565b61018c816102bf565b5050565b6040805177426173655570677261646561626c652e73657474696e677360401b815290519081900360180190205490565b60006101cb61011b565b156101df576101d8610419565b9050610118565b6101d8610502565b3660008037600080366000845af43d6000803e808015610206573d6000f35b3d6000fd5b6000610215610190565b6001600160a01b03161461028b57610235816001600160a01b0316610527565b610286576040805162461bcd60e51b815260206004820152601b60248201527f53455454494e47535f4d5553545f42455f415f434f4e54524143540000000000604482015290519081900360640190fd5b6102bc565b6040805177426173655570677261646561626c652e73657474696e677360401b815290519081900360180190208190555b50565b6102c7610190565b6001600160a01b031663ea23cb7c6040518163ffffffff1660e01b815260040160206040518083038186803b1580156102ff57600080fd5b505afa158015610313573d6000803e3d6000fd5b505050506040513d602081101561032957600080fd5b50516040805163b28f5abb60e01b81526004810184905290516001600160a01b039092169163b28f5abb91602480820192602092909190829003018186803b15801561037457600080fd5b505afa158015610388573d6000803e3d6000fd5b505050506040513d602081101561039e57600080fd5b50516103e8576040805162461bcd60e51b81526020600482015260146024820152731313d1d250d7d390535157d393d517d1561254d560621b604482015290519081900360640190fd5b6040805178426173655570677261646561626c652e6c6f6769634e616d6560381b8152905190819003601901902055565b6000610423610190565b6001600160a01b031663ea23cb7c6040518163ffffffff1660e01b815260040160206040518083038186803b15801561045b57600080fd5b505afa15801561046f573d6000803e3d6000fd5b505050506040513d602081101561048557600080fd5b50516001600160a01b03166373f1fcf661049d610563565b6040518263ffffffff1660e01b81526004018082815260200191505060206040518083038186803b1580156104d157600080fd5b505afa1580156104e5573d6000803e3d6000fd5b505050506040513d60208110156104fb57600080fd5b5051905090565b7f360894a13ba1a3210667c828492db98dca3e2076cc3735a920a3ca505d382bbc5490565b6000813f7fc5d2460186f7233c927e7db2dcc703c0e500b653ca82273b7bfad8045d85a47081811480159061055b57508115155b949350505050565b6040805178426173655570677261646561626c652e6c6f6769634e616d6560381b81529051908190036019019020549056fe44594e414d49435f50524f58595f414c52454144595f494e495449414c495a4544a265627a7a72315820052f460f9f12adfd670081a5cdb1ec671786a6e955ac7efe7cdcbd40313f728264736f6c63430005110032",
  "source": "pragma solidity 0.5.17;\n\n// Contracts\nimport \"@openzeppelin/upgrades/contracts/upgradeability/BaseUpgradeabilityProxy.sol\";\nimport \"./BaseDynamicProxy.sol\";\n\ncontract InitializeableDynamicProxy is BaseDynamicProxy, BaseUpgradeabilityProxy {\n    function initializeProxy(address settingsAddress, bytes32 aLogicName) public {\n        require(!__isInitialized(), \"DYNAMIC_PROXY_ALREADY_INITIALIZED\");\n\n        _setSettings(settingsAddress);\n        _setLogicName(aLogicName);\n    }\n\n    /**\n        @notice It returns if the proxy was initialized.\n        @notice Uses double underscore (__) to avoid any collision in implementation contracts.\n     */\n    function __isInitialized() public view returns (bool) {\n        return address(settings()) != address(0x0);\n    }\n\n    /**\n        @dev Returns the current implementation.\n        @return Address of the current implementation\n     */\n    function _implementation() internal view returns (address) {\n        if (__isInitialized()) {\n            return BaseDynamicProxy._implementation();\n        } else {\n            return BaseUpgradeabilityProxy._implementation();\n        }\n    }\n}\n",
  "sourcePath": "/Users/sy/Documents/GitHub/teller-protocol-v1/contracts/base/InitializeableDynamicProxy.sol",
  "compiler": {
    "name": "solc",
    "version": "0.5.17+commit.d19bba13.Emscripten.clang"
  },
  "schemaVersion": "3.0.23",
  "updatedAt": "2020-09-06T02:15:12.205Z",
  "devdoc": {
    "methods": {
      "implementation()": {
        "return": "Address of the current implementation"
      }
    }
  },
  "userdoc": {
    "methods": {
      "__isInitialized()": {
        "notice": "It returns if the proxy was initialized.Uses double underscore (__) to avoid any collision in implementation contracts."
      },
      "implementation()": {
        "notice": "Returns the current implementation."
      },
      "settings()": {
        "notice": "The settings contract."
      }
    }
  }
}