{
  "contractName": "InterestConsensusMock",
  "abi": [
    {
      "anonymous": false,
      "inputs": [
        {
          "indexed": true,
          "internalType": "address",
          "name": "lender",
          "type": "address"
        },
        {
          "indexed": false,
          "internalType": "uint256",
          "name": "requestNonce",
          "type": "uint256"
        },
        {
          "indexed": false,
          "internalType": "uint256",
          "name": "endTime",
          "type": "uint256"
        },
        {
          "indexed": false,
          "internalType": "uint256",
          "name": "interest",
          "type": "uint256"
        }
      ],
      "name": "InterestAccepted",
      "type": "event"
    },
    {
      "anonymous": false,
      "inputs": [
        {
          "indexed": true,
          "internalType": "address",
          "name": "signer",
          "type": "address"
        },
        {
          "indexed": true,
          "internalType": "address",
          "name": "lender",
          "type": "address"
        },
        {
          "indexed": false,
          "internalType": "uint256",
          "name": "requestNonce",
          "type": "uint256"
        },
        {
          "indexed": false,
          "internalType": "uint256",
          "name": "endTime",
          "type": "uint256"
        },
        {
          "indexed": false,
          "internalType": "uint256",
          "name": "interest",
          "type": "uint256"
        }
      ],
      "name": "InterestSubmitted",
      "type": "event"
    },
    {
      "anonymous": false,
      "inputs": [
        {
          "indexed": true,
          "internalType": "address",
          "name": "previousOwner",
          "type": "address"
        },
        {
          "indexed": true,
          "internalType": "address",
          "name": "newOwner",
          "type": "address"
        }
      ],
      "name": "OwnershipTransferred",
      "type": "event"
    },
    {
      "anonymous": false,
      "inputs": [
        {
          "indexed": true,
          "internalType": "address",
          "name": "account",
          "type": "address"
        }
      ],
      "name": "SignerAdded",
      "type": "event"
    },
    {
      "anonymous": false,
      "inputs": [
        {
          "indexed": true,
          "internalType": "address",
          "name": "account",
          "type": "address"
        }
      ],
      "name": "SignerRemoved",
      "type": "event"
    },
    {
      "constant": false,
      "inputs": [
        {
          "internalType": "address",
          "name": "account",
          "type": "address"
        }
      ],
      "name": "addSigner",
      "outputs": [],
      "payable": false,
      "stateMutability": "nonpayable",
      "type": "function"
    },
    {
      "constant": false,
      "inputs": [
        {
          "internalType": "address[]",
          "name": "accounts",
          "type": "address[]"
        }
      ],
      "name": "addSigners",
      "outputs": [],
      "payable": false,
      "stateMutability": "nonpayable",
      "type": "function"
    },
    {
      "constant": true,
      "inputs": [],
      "name": "callerAddress",
      "outputs": [
        {
          "internalType": "address",
          "name": "",
          "type": "address"
        }
      ],
      "payable": false,
      "stateMutability": "view",
      "type": "function"
    },
    {
      "constant": true,
      "inputs": [
        {
          "internalType": "address",
          "name": "",
          "type": "address"
        },
        {
          "internalType": "address",
          "name": "",
          "type": "address"
        },
        {
          "internalType": "uint256",
          "name": "",
          "type": "uint256"
        }
      ],
      "name": "hasSubmitted",
      "outputs": [
        {
          "internalType": "bool",
          "name": "",
          "type": "bool"
        }
      ],
      "payable": false,
      "stateMutability": "view",
      "type": "function"
    },
    {
      "constant": false,
      "inputs": [],
      "name": "initialize",
      "outputs": [],
      "payable": false,
      "stateMutability": "nonpayable",
      "type": "function"
    },
    {
      "constant": false,
      "inputs": [
        {
          "internalType": "address",
          "name": "owner",
          "type": "address"
        },
        {
          "internalType": "address",
          "name": "aCallerAddress",
          "type": "address"
        },
        {
          "internalType": "address",
          "name": "aSettingAddress",
          "type": "address"
        }
      ],
      "name": "initialize",
      "outputs": [],
      "payable": false,
      "stateMutability": "nonpayable",
      "type": "function"
    },
    {
      "constant": false,
      "inputs": [
        {
          "internalType": "address",
          "name": "sender",
          "type": "address"
        }
      ],
      "name": "initialize",
      "outputs": [],
      "payable": false,
      "stateMutability": "nonpayable",
      "type": "function"
    },
    {
      "constant": true,
      "inputs": [],
      "name": "initialized",
      "outputs": [
        {
          "internalType": "bool",
          "name": "value",
          "type": "bool"
        }
      ],
      "payable": false,
      "stateMutability": "view",
      "type": "function"
    },
    {
      "constant": true,
      "inputs": [
        {
          "internalType": "address",
          "name": "",
          "type": "address"
        },
        {
          "internalType": "uint256",
          "name": "",
          "type": "uint256"
        }
      ],
      "name": "interestSubmissions",
      "outputs": [
        {
          "internalType": "uint256",
          "name": "count",
          "type": "uint256"
        },
        {
          "internalType": "uint256",
          "name": "max",
          "type": "uint256"
        },
        {
          "internalType": "uint256",
          "name": "min",
          "type": "uint256"
        },
        {
          "internalType": "uint256",
          "name": "sum",
          "type": "uint256"
        }
      ],
      "payable": false,
      "stateMutability": "view",
      "type": "function"
    },
    {
      "constant": true,
      "inputs": [],
      "name": "isOwner",
      "outputs": [
        {
          "internalType": "bool",
          "name": "",
          "type": "bool"
        }
      ],
      "payable": false,
      "stateMutability": "view",
      "type": "function"
    },
    {
      "constant": true,
      "inputs": [
        {
          "internalType": "address",
          "name": "account",
          "type": "address"
        }
      ],
      "name": "isSigner",
      "outputs": [
        {
          "internalType": "bool",
          "name": "",
          "type": "bool"
        }
      ],
      "payable": false,
      "stateMutability": "view",
      "type": "function"
    },
    {
      "constant": true,
      "inputs": [],
      "name": "owner",
      "outputs": [
        {
          "internalType": "address",
          "name": "",
          "type": "address"
        }
      ],
      "payable": false,
      "stateMutability": "view",
      "type": "function"
    },
    {
      "constant": false,
      "inputs": [
        {
          "components": [
            {
              "internalType": "address",
              "name": "lender",
              "type": "address"
            },
            {
              "internalType": "address",
              "name": "consensusAddress",
              "type": "address"
            },
            {
              "internalType": "uint256",
              "name": "requestNonce",
              "type": "uint256"
            },
            {
              "internalType": "uint256",
              "name": "startTime",
              "type": "uint256"
            },
            {
              "internalType": "uint256",
              "name": "endTime",
              "type": "uint256"
            },
            {
              "internalType": "uint256",
              "name": "requestTime",
              "type": "uint256"
            }
          ],
          "internalType": "struct TellerCommon.InterestRequest",
          "name": "request",
          "type": "tuple"
        },
        {
          "components": [
            {
              "internalType": "address",
              "name": "signer",
              "type": "address"
            },
            {
              "internalType": "address",
              "name": "consensusAddress",
              "type": "address"
            },
            {
              "internalType": "uint256",
              "name": "responseTime",
              "type": "uint256"
            },
            {
              "internalType": "uint256",
              "name": "interest",
              "type": "uint256"
            },
            {
              "components": [
                {
                  "internalType": "uint256",
                  "name": "signerNonce",
                  "type": "uint256"
                },
                {
                  "internalType": "uint8",
                  "name": "v",
                  "type": "uint8"
                },
                {
                  "internalType": "bytes32",
                  "name": "r",
                  "type": "bytes32"
                },
                {
                  "internalType": "bytes32",
                  "name": "s",
                  "type": "bytes32"
                }
              ],
              "internalType": "struct TellerCommon.Signature",
              "name": "signature",
              "type": "tuple"
            }
          ],
          "internalType": "struct TellerCommon.InterestResponse[]",
          "name": "responses",
          "type": "tuple[]"
        }
      ],
      "name": "processRequest",
      "outputs": [
        {
          "internalType": "uint256",
          "name": "",
          "type": "uint256"
        }
      ],
      "payable": false,
      "stateMutability": "nonpayable",
      "type": "function"
    },
    {
      "constant": false,
      "inputs": [
        {
          "internalType": "address",
          "name": "account",
          "type": "address"
        }
      ],
      "name": "removeSigner",
      "outputs": [],
      "payable": false,
      "stateMutability": "nonpayable",
      "type": "function"
    },
    {
      "constant": false,
      "inputs": [],
      "name": "renounceOwnership",
      "outputs": [],
      "payable": false,
      "stateMutability": "nonpayable",
      "type": "function"
    },
    {
      "constant": true,
      "inputs": [
        {
          "internalType": "address",
          "name": "",
          "type": "address"
        },
        {
          "internalType": "uint256",
          "name": "",
          "type": "uint256"
        }
      ],
      "name": "requestNonceTaken",
      "outputs": [
        {
          "internalType": "bool",
          "name": "",
          "type": "bool"
        }
      ],
      "payable": false,
      "stateMutability": "view",
      "type": "function"
    },
    {
      "constant": true,
      "inputs": [],
      "name": "settings",
      "outputs": [
        {
          "internalType": "contract SettingsInterface",
          "name": "",
          "type": "address"
        }
      ],
      "payable": false,
      "stateMutability": "view",
      "type": "function"
    },
    {
      "constant": true,
      "inputs": [
        {
          "internalType": "address",
          "name": "",
          "type": "address"
        },
        {
          "internalType": "uint256",
          "name": "",
          "type": "uint256"
        }
      ],
      "name": "signerNonceTaken",
      "outputs": [
        {
          "internalType": "bool",
          "name": "",
          "type": "bool"
        }
      ],
      "payable": false,
      "stateMutability": "view",
      "type": "function"
    },
    {
      "constant": false,
      "inputs": [
        {
          "internalType": "address",
          "name": "newOwner",
          "type": "address"
        }
      ],
      "name": "transferOwnership",
      "outputs": [],
      "payable": false,
      "stateMutability": "nonpayable",
      "type": "function"
    },
    {
      "constant": false,
      "inputs": [
        {
          "internalType": "address",
          "name": "lender",
          "type": "address"
        },
        {
          "internalType": "uint256",
          "name": "endTime",
          "type": "uint256"
        },
        {
          "internalType": "uint256",
          "name": "totalSubmissions",
          "type": "uint256"
        },
        {
          "internalType": "uint256",
          "name": "maxValue",
          "type": "uint256"
        },
        {
          "internalType": "uint256",
          "name": "minValue",
          "type": "uint256"
        },
        {
          "internalType": "uint256",
          "name": "sumOfValues",
          "type": "uint256"
        }
      ],
      "name": "mockInterestSubmissions",
      "outputs": [],
      "payable": false,
      "stateMutability": "nonpayable",
      "type": "function"
    },
    {
      "constant": false,
      "inputs": [
        {
          "internalType": "address",
          "name": "signer",
          "type": "address"
        },
        {
          "internalType": "address",
          "name": "lender",
          "type": "address"
        },
        {
          "internalType": "uint256",
          "name": "blockNumber",
          "type": "uint256"
        },
        {
          "internalType": "bool",
          "name": "hasSub",
          "type": "bool"
        }
      ],
      "name": "mockHasSubmitted",
      "outputs": [],
      "payable": false,
      "stateMutability": "nonpayable",
      "type": "function"
    },
    {
      "constant": false,
      "inputs": [
        {
          "internalType": "address",
          "name": "signer",
          "type": "address"
        },
        {
          "internalType": "uint256",
          "name": "signerNonce",
          "type": "uint256"
        },
        {
          "internalType": "bool",
          "name": "taken",
          "type": "bool"
        }
      ],
      "name": "mockSignerNonce",
      "outputs": [],
      "payable": false,
      "stateMutability": "nonpayable",
      "type": "function"
    },
    {
      "constant": false,
      "inputs": [
        {
          "internalType": "uint256",
          "name": "newChainId",
          "type": "uint256"
        }
      ],
      "name": "mockChainId",
      "outputs": [],
      "payable": false,
      "stateMutability": "nonpayable",
      "type": "function"
    },
    {
      "constant": false,
      "inputs": [
        {
          "components": [
            {
              "internalType": "address",
              "name": "lender",
              "type": "address"
            },
            {
              "internalType": "address",
              "name": "consensusAddress",
              "type": "address"
            },
            {
              "internalType": "uint256",
              "name": "requestNonce",
              "type": "uint256"
            },
            {
              "internalType": "uint256",
              "name": "startTime",
              "type": "uint256"
            },
            {
              "internalType": "uint256",
              "name": "endTime",
              "type": "uint256"
            },
            {
              "internalType": "uint256",
              "name": "requestTime",
              "type": "uint256"
            }
          ],
          "internalType": "struct TellerCommon.InterestRequest",
          "name": "request",
          "type": "tuple"
        },
        {
          "components": [
            {
              "internalType": "address",
              "name": "signer",
              "type": "address"
            },
            {
              "internalType": "address",
              "name": "consensusAddress",
              "type": "address"
            },
            {
              "internalType": "uint256",
              "name": "responseTime",
              "type": "uint256"
            },
            {
              "internalType": "uint256",
              "name": "interest",
              "type": "uint256"
            },
            {
              "components": [
                {
                  "internalType": "uint256",
                  "name": "signerNonce",
                  "type": "uint256"
                },
                {
                  "internalType": "uint8",
                  "name": "v",
                  "type": "uint8"
                },
                {
                  "internalType": "bytes32",
                  "name": "r",
                  "type": "bytes32"
                },
                {
                  "internalType": "bytes32",
                  "name": "s",
                  "type": "bytes32"
                }
              ],
              "internalType": "struct TellerCommon.Signature",
              "name": "signature",
              "type": "tuple"
            }
          ],
          "internalType": "struct TellerCommon.InterestResponse",
          "name": "response",
          "type": "tuple"
        },
        {
          "internalType": "bytes32",
          "name": "requestHash",
          "type": "bytes32"
        }
      ],
      "name": "externalProcessResponse",
      "outputs": [],
      "payable": false,
      "stateMutability": "nonpayable",
      "type": "function"
    },
    {
      "constant": true,
      "inputs": [
        {
          "components": [
            {
              "internalType": "address",
              "name": "signer",
              "type": "address"
            },
            {
              "internalType": "address",
              "name": "consensusAddress",
              "type": "address"
            },
            {
              "internalType": "uint256",
              "name": "responseTime",
              "type": "uint256"
            },
            {
              "internalType": "uint256",
              "name": "interest",
              "type": "uint256"
            },
            {
              "components": [
                {
                  "internalType": "uint256",
                  "name": "signerNonce",
                  "type": "uint256"
                },
                {
                  "internalType": "uint8",
                  "name": "v",
                  "type": "uint8"
                },
                {
                  "internalType": "bytes32",
                  "name": "r",
                  "type": "bytes32"
                },
                {
                  "internalType": "bytes32",
                  "name": "s",
                  "type": "bytes32"
                }
              ],
              "internalType": "struct TellerCommon.Signature",
              "name": "signature",
              "type": "tuple"
            }
          ],
          "internalType": "struct TellerCommon.InterestResponse",
          "name": "response",
          "type": "tuple"
        },
        {
          "internalType": "bytes32",
          "name": "requestHash",
          "type": "bytes32"
        }
      ],
      "name": "externalHashResponse",
      "outputs": [
        {
          "internalType": "bytes32",
          "name": "",
          "type": "bytes32"
        }
      ],
      "payable": false,
      "stateMutability": "view",
      "type": "function"
    },
    {
      "constant": true,
      "inputs": [
        {
          "components": [
            {
              "internalType": "address",
              "name": "lender",
              "type": "address"
            },
            {
              "internalType": "address",
              "name": "consensusAddress",
              "type": "address"
            },
            {
              "internalType": "uint256",
              "name": "requestNonce",
              "type": "uint256"
            },
            {
              "internalType": "uint256",
              "name": "startTime",
              "type": "uint256"
            },
            {
              "internalType": "uint256",
              "name": "endTime",
              "type": "uint256"
            },
            {
              "internalType": "uint256",
              "name": "requestTime",
              "type": "uint256"
            }
          ],
          "internalType": "struct TellerCommon.InterestRequest",
          "name": "request",
          "type": "tuple"
        }
      ],
      "name": "externalHashRequest",
      "outputs": [
        {
          "internalType": "bytes32",
          "name": "",
          "type": "bytes32"
        }
      ],
      "payable": false,
      "stateMutability": "view",
      "type": "function"
    },
    {
      "constant": false,
      "inputs": [
        {
          "internalType": "address",
          "name": "lender",
          "type": "address"
        },
        {
          "internalType": "uint256",
          "name": "requestNonce",
          "type": "uint256"
        },
        {
          "internalType": "bool",
          "name": "taken",
          "type": "bool"
        }
      ],
      "name": "mockRequestNonce",
      "outputs": [],
      "payable": false,
      "stateMutability": "nonpayable",
      "type": "function"
    }
  ],
  "bytecode": "0x60806040526001609f55612b37806100186000396000f3fe608060405234801561001057600080fd5b50600436106101a85760003560e01c806399ffe065116100f9578063e684926711610097578063f2fde38b11610071578063f2fde38b1461036f578063f76a5ab314610382578063faa8aab114610395578063fb98d9e21461039d576101a8565b8063e684926714610336578063e8906a2d14610349578063eb12d61e1461035c576101a8565b8063c4d66de8116100d3578063c4d66de8146102e8578063db43f259146102fb578063de0ddd3f1461030e578063e06174e414610321576101a8565b806399ffe065146102af578063a4f1e309146102c2578063c0c53b8b146102d5576101a8565b806368fcdeb8116101665780637df73e27116101405780637df73e27146102775780638129fc1c1461028a5780638da5cb5b146102925780638f32d59b146102a7576101a8565b806368fcdeb8146102495780636b083c361461025c578063715018a61461026f576101a8565b80627ab3ba146101ad5780630e316ab7146101c2578063158ef93e146101d55780631d37e882146101f357806365e8eb8e1461020657806367136b3514610229575b600080fd5b6101c06101bb366004611e74565b6103b0565b005b6101c06101d0366004611d2b565b6103e5565b6101dd61041e565b6040516101ea91906127ec565b60405180910390f35b6101c0610201366004611dd9565b61043d565b610219610214366004611e3a565b610481565b6040516101ea94939291906129dd565b61023c610237366004611fcd565b6104b3565b6040516101ea91906127fa565b6101dd610257366004611e3a565b61084b565b6101c061026a366004612023565b61086b565b6101c0610897565b6101dd610285366004611d2b565b610905565b6101c061091e565b61029a6109a5565b6040516101ea919061270d565b6101dd6109b4565b6101dd6102bd366004611d96565b6109da565b61023c6102d0366004612086565b610a00565b6101c06102e3366004611d49565b610a21565b6101c06102f6366004611d2b565b610aaa565b6101c0610309366004611e74565b610b7d565b61023c61031c366004611faf565b610bb2565b610329610bc6565b6040516101ea9190612846565b6101c0610344366004611eb7565b610be8565b6101c0610357366004611f3e565b610c47565b6101c061036a366004611d2b565b610ccf565b6101c061037d366004611d2b565b610cfc565b6101c06103903660046120d7565b610d29565b61029a610d2e565b6101dd6103ab366004611e3a565b610d3d565b6001600160a01b03929092166000908152609d6020908152604080832093835292905220805460ff1916911515919091179055565b6103ed6109b4565b6104125760405162461bcd60e51b815260040161040990612925565b60405180910390fd5b61041b81610d5d565b50565b60008060405161042d906126d7565b6040519081900390205492915050565b6001600160a01b039384166000908152609a602090815260408083209590961682529384528481209281529190925291909120805460ff1916911515919091179055565b609e60209081526000928352604080842090915290825290208054600182015460028301546003909301549192909184565b60006104bd61041e565b6104d95760405162461bcd60e51b815260040161040990612985565b336104e381610da5565b6104ff5760405162461bcd60e51b815260040161040990612975565b610507610bc6565b6001600160a01b031663269012a061051d610bc6565b6001600160a01b031663d86d744e6040518163ffffffff1660e01b815260040160206040518083038186803b15801561055557600080fd5b505afa158015610569573d6000803e3d6000fd5b505050506040513d601f19601f8201168201806040525061058d9190810190611f91565b6001600160a01b0316633ff591d96040518163ffffffff1660e01b815260040160206040518083038186803b1580156105c557600080fd5b505afa1580156105d9573d6000803e3d6000fd5b505050506040513d601f19601f820116820180604052506105fd9190810190611f73565b6040518263ffffffff1660e01b815260040161061991906127fa565b60206040518083038186803b15801561063157600080fd5b505afa158015610645573d6000803e3d6000fd5b505050506040513d601f19601f820116820180604052506106699190810190611f73565b8310156106885760405162461bcd60e51b8152600401610409906129a5565b609d60006106996020880188611d2b565b6001600160a01b031681526020808201929092526040908101600090812088830135825290925290205460ff16156106e35760405162461bcd60e51b815260040161040990612905565b6001609d60006106f66020890189611d2b565b6001600160a01b03168152602080820192909252604090810160009081208983013582529092528120805460ff19169215159290921790915561074661074136889003880188612068565b610dab565b905060005b848110156107965761078e61076536899003890189612068565b87878481811061077157fe5b9050610100020180360361078891908101906120b8565b84610e17565b60010161074b565b5060006107e6609e826107ac60208b018b611d2b565b6001600160a01b03166001600160a01b03168152602001908152602001600020600089608001358152602001908152602001600020610eec565b90506107f56020880188611d2b565b6001600160a01b03167f3ae9cc3885aef787ea70c8cdfc77b61a78c7b546f8d22ea80fa0aeb7b0894b148860400135896080013584604051610839939291906129b5565b60405180910390a29695505050505050565b609b60209081526000928352604080842090915290825290205460ff1681565b61089261087d36859003850185612068565b61088c368590038501856120b8565b83610e17565b505050565b61089f6109b4565b6108bb5760405162461bcd60e51b815260040161040990612925565b6066546040516000916001600160a01b0316907f8be0079c531659141344cd1fd0a4f28419497f9722a3daafe3b4186f6b6457e0908390a3606680546001600160a01b0319169055565b600061091860998363ffffffff61108d16565b92915050565b600054610100900460ff168061093757506109376110d5565b80610945575060005460ff16155b6109615760405162461bcd60e51b815260040161040990612945565b600054610100900460ff1615801561098c576000805460ff1961ff0019909116610100171660011790555b6001603355801561041b576000805461ff001916905550565b6066546001600160a01b031690565b6066546000906001600160a01b03166109cb6110db565b6001600160a01b031614905090565b609a60209081526000938452604080852082529284528284209052825290205460ff1681565b6000610a1a610a14368590038501856120b8565b836110df565b9392505050565b610a2961041e565b15610a465760405162461bcd60e51b815260040161040990612995565b610a58826001600160a01b0316611135565b610a745760405162461bcd60e51b8152600401610409906128d5565b610a7d83610aaa565b610a8681611171565b50609c80546001600160a01b0319166001600160a01b039290921691909117905550565b600054610100900460ff1680610ac35750610ac36110d5565b80610ad1575060005460ff16155b610aed5760405162461bcd60e51b815260040161040990612945565b600054610100900460ff16158015610b18576000805460ff1961ff0019909116610100171660011790555b606680546001600160a01b0319166001600160a01b0384811691909117918290556040519116906000907f8be0079c531659141344cd1fd0a4f28419497f9722a3daafe3b4186f6b6457e0908290a38015610b79576000805461ff00191690555b5050565b6001600160a01b03929092166000908152609b6020908152604080832093835292905220805460ff1916911515919091179055565b600061091861074136849003840184612068565b6000806000604051610bd790612702565b604051908190039020549250505090565b604080516080810182529485526020808601948552858201938452606086019283526001600160a01b039097166000908152609e8852818120968152959096529490932091518255516001820155905160028201559051600390910155565b610c4f6109b4565b610c6b5760405162461bcd60e51b815260040161040990612925565b6000815111610c8c5760405162461bcd60e51b815260040161040990612875565b60005b8151811015610b79576000828281518110610ca657fe5b60200260200101519050610cb981610905565b610cc657610cc681611223565b50600101610c8f565b610cd76109b4565b610cf35760405162461bcd60e51b815260040161040990612925565b61041b81611223565b610d046109b4565b610d205760405162461bcd60e51b815260040161040990612925565b61041b8161126b565b609f55565b609c546001600160a01b031681565b609d60209081526000928352604080842090915290825290205460ff1681565b610d6e60998263ffffffff6112ed16565b6040516001600160a01b038216907f3525e22824a8a7df2c9a6029941c824cf95b6447f1e13d5128fd3826d35afe8b90600090a250565b50600190565b609c548151602083015160408401516060850151608086015160a08701516000966001600160a01b0316959493929190610de3611335565b604051602001610dfa98979695949392919061271b565b604051602081830303815290604052805190602001209050919050565b6000610e2383836110df565b9050610e47836000015185600001518660800151866040015185886080015161133b565b606083015184516001600160a01b03166000908152609e60209081526040808320608089015184529091529020610e839163ffffffff6115b916565b83600001516001600160a01b031683600001516001600160a01b03167f6f00cb8f849a2a1b231819b8145a2da4a16ffffe806e5e39787bc79ca276097c866040015187608001518760600151604051610ede939291906129b5565b60405180910390a350505050565b6000611068610ef9610bc6565b6001600160a01b031663269012a0610f0f610bc6565b6001600160a01b031663d86d744e6040518163ffffffff1660e01b815260040160206040518083038186803b158015610f4757600080fd5b505afa158015610f5b573d6000803e3d6000fd5b505050506040513d601f19601f82011682018060405250610f7f9190810190611f91565b6001600160a01b031663c41dd8ce6040518163ffffffff1660e01b815260040160206040518083038186803b158015610fb757600080fd5b505afa158015610fcb573d6000803e3d6000fd5b505050506040513d601f19601f82011682018060405250610fef9190810190611f73565b6040518263ffffffff1660e01b815260040161100b91906127fa565b60206040518083038186803b15801561102357600080fd5b505afa158015611037573d6000803e3d6000fd5b505050506040513d601f19601f8201168201806040525061105b9190810190611f73565b839063ffffffff61161e16565b6110845760405162461bcd60e51b8152600401610409906128a5565b610918826116cf565b60006001600160a01b0382166110b55760405162461bcd60e51b815260040161040990612935565b506001600160a01b03166000908152602091909152604090205460ff1690565b303b1590565b3390565b6000826020015183604001518460600151856080015160000151611101611335565b8660405160200161111796959493929190612792565b60405160208183030381529060405280519060200120905092915050565b6000813f7fc5d2460186f7233c927e7db2dcc703c0e500b653ca82273b7bfad8045d85a47081811480159061116957508115155b949350505050565b61117961041e565b156111965760405162461bcd60e51b815260040161040990612995565b60408051808201909152601981527f53455454494e47535f4d5553545f42455f50524f56494445440000000000000060208201526111e4906001600160a01b0383169063ffffffff61170816565b6111f6816001600160a01b0316611135565b6112125760405162461bcd60e51b8152600401610409906128c5565b61121a611730565b61041b8161174e565b61123460998263ffffffff6117bd16565b6040516001600160a01b038216907f47d1c22a25bb3a5d4e481b9b1e6944c2eade3181a0a20b495ed61d35b5323f2490600090a250565b6001600160a01b0381166112915760405162461bcd60e51b815260040161040990612895565b6066546040516001600160a01b038084169216907f8be0079c531659141344cd1fd0a4f28419497f9722a3daafe3b4186f6b6457e090600090a3606680546001600160a01b0319166001600160a01b0392909216919091179055565b6112f7828261108d565b6113135760405162461bcd60e51b8152600401610409906128f5565b6001600160a01b0316600090815260209190915260409020805460ff19169055565b609f5490565b6001600160a01b038087166000908152609a6020908152604080832093891683529281528282208783529052205460ff16156113895760405162461bcd60e51b815260040161040990612885565b6001600160a01b038087166000908152609a602090815260408083209389168352928152828220878352905220805460ff1916600117905561153b6113cc610bc6565b6001600160a01b031663269012a06113e2610bc6565b6001600160a01b031663d86d744e6040518163ffffffff1660e01b815260040160206040518083038186803b15801561141a57600080fd5b505afa15801561142e573d6000803e3d6000fd5b505050506040513d601f19601f820116820180604052506114529190810190611f91565b6001600160a01b031663e3f33d006040518163ffffffff1660e01b815260040160206040518083038186803b15801561148a57600080fd5b505afa15801561149e573d6000803e3d6000fd5b505050506040513d601f19601f820116820180604052506114c29190810190611f73565b6040518263ffffffff1660e01b81526004016114de91906127fa565b60206040518083038186803b1580156114f657600080fd5b505afa15801561150a573d6000803e3d6000fd5b505050506040513d601f19601f8201168201806040525061152e9190810190611f73565b429063ffffffff61180916565b83101561155a5760405162461bcd60e51b815260040161040990612955565b61156581838861184b565b6115815760405162461bcd60e51b815260040161040990612965565b6001600160a01b039095166000908152609b602090815260408083209751835296905294909420805460ff1916600117905550505050565b80826001015410156115cd57600182018190555b80826002015411806115de57508154155b156115eb57600282018190555b6003820154611600908263ffffffff61194316565b6003830155815461161890600163ffffffff61194316565b90915550565b600061162983611968565b1561163657506000610918565b6000611641846116cf565b9050600061166761271061165b848763ffffffff61197a16565b9063ffffffff6119b416565b9050600061167b838363ffffffff61180916565b905080866002015410156116955760009350505050610918565b60006116a7848463ffffffff61194316565b905080876001015411156116c2576000945050505050610918565b5060019695505050505050565b60006116da82611968565b611700576116fb6116ea836119f6565b60038401549063ffffffff6119b416565b610918565b506000919050565b611711826119fa565b81906108925760405162461bcd60e51b81526004016104099190612854565b600060405161173e906126d7565b6040519081900390206001905550565b611767611759610bc6565b6001600160a01b03166119fa565b156117715761041b565b611783816001600160a01b0316611135565b61179f5760405162461bcd60e51b8152600401610409906128c5565b60006040516117ad90612702565b6040519081900390208290555050565b6117c7828261108d565b156117e45760405162461bcd60e51b815260040161040990612865565b6001600160a01b0316600090815260209190915260409020805460ff19166001179055565b6000610a1a83836040518060400160405280601e81526020017f536166654d6174683a207375627472616374696f6e206f766572666c6f770000815250611a08565b600061185682610905565b61186257506000610a1a565b6001600160a01b0382166000908152609b602090815260408083208751845290915290205460ff16156118a75760405162461bcd60e51b8152600401610409906128e5565b60006001846040516020016118bc91906126e2565b60405160208183030381529060405280519060200120866020015187604001518860600151604051600081526020016040526040516118fe9493929190612808565b6020604051602081039080840390855afa158015611920573d6000803e3d6000fd5b5050604051601f1901516001600160a01b03858116911614925050509392505050565b600082820183811015610a1a5760405162461bcd60e51b8152600401610409906128b5565b6000611973826119f6565b1592915050565b60008261198957506000610918565b8282028284828161199657fe5b0414610a1a5760405162461bcd60e51b815260040161040990612915565b6000610a1a83836040518060400160405280601a81526020017f536166654d6174683a206469766973696f6e206279207a65726f000000000000815250611a34565b5490565b6001600160a01b0316151590565b60008184841115611a2c5760405162461bcd60e51b81526004016104099190612854565b505050900390565b60008183611a555760405162461bcd60e51b81526004016104099190612854565b506000838581611a6157fe5b0495945050505050565b803561091881612abc565b600082601f830112611a8757600080fd5b8135611a9a611a9582612a1f565b6129f8565b91508181835260208401935060208101905083856020840282011115611abf57600080fd5b60005b83811015611aeb5781611ad58882611a6b565b8452506020928301929190910190600101611ac2565b5050505092915050565b60008083601f840112611b0757600080fd5b50813567ffffffffffffffff811115611b1f57600080fd5b60208301915083610100820283011115611b3857600080fd5b9250929050565b803561091881612ad0565b803561091881612ad9565b805161091881612ad9565b805161091881612ae2565b600060c08284031215611b7d57600080fd5b50919050565b600060c08284031215611b9557600080fd5b611b9f60c06129f8565b90506000611bad8484611a6b565b8252506020611bbe84848301611a6b565b6020830152506040611bd284828501611b4a565b6040830152506060611be684828501611b4a565b6060830152506080611bfa84828501611b4a565b60808301525060a0611c0e84828501611b4a565b60a08301525092915050565b60006101008284031215611b7d57600080fd5b60006101008284031215611c4057600080fd5b611c4a60a06129f8565b90506000611c588484611a6b565b8252506020611c6984848301611a6b565b6020830152506040611c7d84828501611b4a565b6040830152506060611c9184828501611b4a565b6060830152506080611ca584828501611cb1565b60808301525092915050565b600060808284031215611cc357600080fd5b611ccd60806129f8565b90506000611cdb8484611b4a565b8252506020611cec84848301611d20565b6020830152506040611d0084828501611b4a565b6040830152506060611d1484828501611b4a565b60608301525092915050565b803561091881612aeb565b600060208284031215611d3d57600080fd5b60006111698484611a6b565b600080600060608486031215611d5e57600080fd5b6000611d6a8686611a6b565b9350506020611d7b86828701611a6b565b9250506040611d8c86828701611a6b565b9150509250925092565b600080600060608486031215611dab57600080fd5b6000611db78686611a6b565b9350506020611dc886828701611a6b565b9250506040611d8c86828701611b4a565b60008060008060808587031215611def57600080fd5b6000611dfb8787611a6b565b9450506020611e0c87828801611a6b565b9350506040611e1d87828801611b4a565b9250506060611e2e87828801611b3f565b91505092959194509250565b60008060408385031215611e4d57600080fd5b6000611e598585611a6b565b9250506020611e6a85828601611b4a565b9150509250929050565b600080600060608486031215611e8957600080fd5b6000611e958686611a6b565b9350506020611ea686828701611b4a565b9250506040611d8c86828701611b3f565b60008060008060008060c08789031215611ed057600080fd5b6000611edc8989611a6b565b9650506020611eed89828a01611b4a565b9550506040611efe89828a01611b4a565b9450506060611f0f89828a01611b4a565b9350506080611f2089828a01611b4a565b92505060a0611f3189828a01611b4a565b9150509295509295509295565b600060208284031215611f5057600080fd5b813567ffffffffffffffff811115611f6757600080fd5b61116984828501611a76565b600060208284031215611f8557600080fd5b60006111698484611b55565b600060208284031215611fa357600080fd5b60006111698484611b60565b600060c08284031215611fc157600080fd5b60006111698484611b6b565b600080600060e08486031215611fe257600080fd5b6000611fee8686611b6b565b93505060c084013567ffffffffffffffff81111561200b57600080fd5b61201786828701611af5565b92509250509250925092565b60008060006101e0848603121561203957600080fd5b60006120458686611b6b565b93505060c061205686828701611c1a565b9250506101c0611d8c86828701611b4a565b600060c0828403121561207a57600080fd5b60006111698484611b83565b600080610120838503121561209a57600080fd5b60006120a68585611c1a565b925050610100611e6a85828601611b4a565b600061010082840312156120cb57600080fd5b60006111698484611c2d565b6000602082840312156120e957600080fd5b60006111698484611b4a565b6120fe81612a52565b82525050565b6120fe81612a5d565b6120fe81612a62565b6120fe61212282612a62565b612a62565b6120fe81612a65565b600061213b82612a40565b6121458185612a44565b9350612155818560208601612a82565b61215e81612ab2565b9093019392505050565b6000612175601c83612a4d565b7f54496e697469616c697a61626c652e6973496e697469616c697a6564000000008152601c0192915050565b60006121ae601f83612a44565b7f526f6c65733a206163636f756e7420616c72656164792068617320726f6c6500815260200192915050565b60006121e7601383612a44565b724143434f554e54535f4c4953545f454d50545960681b815260200192915050565b6000612216601c83612a4d565b7f19457468657265756d205369676e6564204d6573736167653a0a3332000000008152601c0192915050565b600061224f601883612a44565b7f5349474e45525f414c52454144595f5355424d49545445440000000000000000815260200192915050565b6000612288602683612a44565b7f4f776e61626c653a206e6577206f776e657220697320746865207a65726f206181526564647265737360d01b602082015260400192915050565b60006122d0601483612a44565b73149154d413d394d154d7d513d3d7d5905492515160621b815260200192915050565b6000612300601b83612a44565b7f536166654d6174683a206164646974696f6e206f766572666c6f770000000000815260200192915050565b6000612339601b83612a44565b7f53455454494e47535f4d5553545f42455f415f434f4e54524143540000000000815260200192915050565b6000612372601783612a44565b7f43414c4c45525f4d5553545f42455f434f4e5452414354000000000000000000815260200192915050565b60006123ab601283612a44565b7129a4a3a722a92fa727a721a2afaa20a5a2a760711b815260200192915050565b60006123d9602183612a44565b7f526f6c65733a206163636f756e7420646f6573206e6f74206861766520726f6c8152606560f81b602082015260400192915050565b600061241c601c83612a44565b7f494e5445524553545f524551554553545f4e4f4e43455f54414b454e00000000815260200192915050565b6000612455602183612a44565b7f536166654d6174683a206d756c7469706c69636174696f6e206f766572666c6f8152607760f81b602082015260400192915050565b6000612498602083612a44565b7f4f776e61626c653a2063616c6c6572206973206e6f7420746865206f776e6572815260200192915050565b60006124d1602283612a44565b7f526f6c65733a206163636f756e7420697320746865207a65726f206164647265815261737360f01b602082015260400192915050565b6000612515602e83612a44565b7f436f6e747261637420696e7374616e63652068617320616c726561647920626581526d195b881a5b9a5d1a585b1a5e995960921b602082015260400192915050565b6000612565601083612a44565b6f149154d413d394d157d156141254915160821b815260200192915050565b6000612591601183612a44565b7014d251d3905515549157d2539590531251607a1b815260200192915050565b60006125be601883612a44565b7f53454e4445525f4841534e545f5045524d495353494f4e530000000000000000815260200192915050565b60006125f7601883612a4d565b7f426173655570677261646561626c652e73657474696e67730000000000000000815260180192915050565b6000612630601883612a44565b7f434f4e54524143545f4e4f545f494e495449414c495a45440000000000000000815260200192915050565b6000612669601c83612a44565b7f434f4e54524143545f414c52454144595f494e495449414c495a454400000000815260200192915050565b60006126a2601f83612a44565b7f494e5445524553545f494e53554646494349454e545f524553504f4e53455300815260200192915050565b6120fe81612a7c565b600061091882612168565b60006126ed82612209565b91506126f98284612116565b50602001919050565b6000610918826125ea565b6020810161091882846120f5565b610100810161272a828b6120f5565b612737602083018a6120f5565b61274460408301896120f5565b612751606083018861210d565b61275e608083018761210d565b61276b60a083018661210d565b61277860c083018561210d565b61278560e083018461210d565b9998505050505050505050565b60c081016127a082896120f5565b6127ad602083018861210d565b6127ba604083018761210d565b6127c7606083018661210d565b6127d4608083018561210d565b6127e160a083018461210d565b979650505050505050565b602081016109188284612104565b60208101610918828461210d565b60808101612816828761210d565b61282360208301866126ce565b612830604083018561210d565b61283d606083018461210d565b95945050505050565b602081016109188284612127565b60208082528101610a1a8184612130565b60208082528101610918816121a1565b60208082528101610918816121da565b6020808252810161091881612242565b602080825281016109188161227b565b60208082528101610918816122c3565b60208082528101610918816122f3565b602080825281016109188161232c565b6020808252810161091881612365565b602080825281016109188161239e565b60208082528101610918816123cc565b602080825281016109188161240f565b6020808252810161091881612448565b602080825281016109188161248b565b60208082528101610918816124c4565b6020808252810161091881612508565b6020808252810161091881612558565b6020808252810161091881612584565b60208082528101610918816125b1565b6020808252810161091881612623565b602080825281016109188161265c565b6020808252810161091881612695565b606081016129c3828661210d565b6129d0602083018561210d565b611169604083018461210d565b608081016129eb828761210d565b612823602083018661210d565b60405181810167ffffffffffffffff81118282101715612a1757600080fd5b604052919050565b600067ffffffffffffffff821115612a3657600080fd5b5060209081020190565b5190565b90815260200190565b919050565b600061091882612a70565b151590565b90565b600061091882612a52565b6001600160a01b031690565b60ff1690565b60005b83811015612a9d578181015183820152602001612a85565b83811115612aac576000848401525b50505050565b601f01601f191690565b612ac581612a52565b811461041b57600080fd5b612ac581612a5d565b612ac581612a62565b612ac581612a65565b612ac581612a7c56fea365627a7a72315820e648fa3f49a9e2c03e3013ab9f0d45fc9c06c3c8d4e8bee3cc1555b50fe1337e6c6578706572696d656e74616cf564736f6c63430005110040",
  "source": "pragma solidity 0.5.17;\npragma experimental ABIEncoderV2;\n\nimport \"../../base/InterestConsensus.sol\";\n\ncontract InterestConsensusMock is InterestConsensus {\n    uint256 private _mockChainId = 1; // Mainnet\n\n    function mockInterestSubmissions(\n        address lender,\n        uint256 endTime,\n        uint256 totalSubmissions,\n        uint256 maxValue,\n        uint256 minValue,\n        uint256 sumOfValues\n    ) external {\n        interestSubmissions[lender][endTime] = NumbersList.Values({\n            count: totalSubmissions,\n            min: minValue,\n            max: maxValue,\n            sum: sumOfValues\n        });\n    }\n\n    function mockHasSubmitted(\n        address signer,\n        address lender,\n        uint256 blockNumber,\n        bool hasSub\n    ) external {\n        hasSubmitted[signer][lender][blockNumber] = hasSub;\n    }\n\n    function mockSignerNonce(\n        address signer,\n        uint256 signerNonce,\n        bool taken\n    ) external {\n        signerNonceTaken[signer][signerNonce] = taken;\n    }\n\n    function mockChainId(uint256 newChainId) external {\n        _mockChainId = newChainId;\n    }\n\n    function externalProcessResponse(\n        TellerCommon.InterestRequest calldata request,\n        TellerCommon.InterestResponse calldata response,\n        bytes32 requestHash\n    ) external {\n        _processResponse(request, response, requestHash);\n    }\n\n    function externalHashResponse(\n        TellerCommon.InterestResponse calldata response,\n        bytes32 requestHash\n    ) external view returns (bytes32) {\n        return _hashResponse(response, requestHash);\n    }\n\n    function externalHashRequest(TellerCommon.InterestRequest calldata request)\n        external\n        view\n        returns (bytes32)\n    {\n        return _hashRequest(request);\n    }\n\n    function _getChainId() internal view returns (uint256) {\n        return _mockChainId;\n    }\n\n    function mockRequestNonce(\n        address lender,\n        uint256 requestNonce,\n        bool taken\n    ) external {\n        requestNonceTaken[lender][requestNonce] = taken;\n    }\n\n    function _isCaller(address) internal view returns (bool) {\n        return true;\n    }\n}\n",
  "sourcePath": "/Users/sy/Documents/GitHub/teller-protocol-v1/contracts/mock/base/InterestConsensusMock.sol",
  "compiler": {
    "name": "solc",
    "version": "0.5.17+commit.d19bba13.Emscripten.clang"
  },
  "schemaVersion": "3.0.23",
  "updatedAt": "2020-09-15T23:09:49.902Z",
  "devdoc": {
    "methods": {
      "addSigner(address)": {
        "details": "The sender must be the owner.It throws a require error if the sender is not the owner.",
        "params": {
          "account": "address to add."
        }
      },
      "addSigners(address[])": {
        "details": "The sender must be the owner.It throws a require error if the sender is not the owner.",
        "params": {
          "accounts": "addresses to add."
        }
      },
      "initialize(address)": {
        "details": "Initializes the contract setting the deployer as the initial owner."
      },
      "initialize(address,address,address)": {
        "details": "The caller address must be the loans contract for LoanTermsConsensus, and the lenders contract for InterestConsensus.",
        "params": {
          "aCallerAddress": "the contract that will call it.",
          "aSettingAddress": "the settings contract address.",
          "owner": "the owner address."
        }
      },
      "initialized()": {
        "return": "true if contract is initialized. Otherwise it returns false."
      },
      "isOwner()": {
        "details": "Returns true if the caller is the current owner."
      },
      "isSigner(address)": {
        "params": {
          "account": "address to test."
        },
        "return": "true if account is a signer. Otherwise it returns false."
      },
      "owner()": {
        "details": "Returns the address of the current owner."
      },
      "processRequest((address,address,uint256,uint256,uint256,uint256),(address,address,uint256,uint256,(uint256,uint8,bytes32,bytes32))[])": {
        "params": {
          "request": "the interest request sent by the lender.",
          "responses": "all node responses to process."
        },
        "return": "the consensus interest."
      },
      "removeSigner(address)": {
        "details": "The sender must be the owner.It throws a require error if the sender is not the owner.",
        "params": {
          "account": "address to remove."
        }
      },
      "renounceOwnership()": {
        "details": "Leaves the contract without owner. It will not be possible to call `onlyOwner` functions anymore. Can only be called by the current owner.     * > Note: Renouncing ownership will leave the contract without an owner, thereby removing any functionality that is only available to the owner."
      },
      "settings()": {
        "details": "This address should NOT change over the time. See details in the _setSettings(...) function."
      },
      "transferOwnership(address)": {
        "details": "Transfers ownership of the contract to a new account (`newOwner`). Can only be called by the current owner."
      }
    }
  },
  "userdoc": {
    "methods": {
      "addSigner(address)": {
        "notice": "It adds a new account as a signer."
      },
      "addSigners(address[])": {
        "notice": "It adds a list of account as signers."
      },
      "initialize(address,address,address)": {
        "notice": "It initializes this consensus contract."
      },
      "initialized()": {
        "notice": "Gets if the contract is initialized."
      },
      "isSigner(address)": {
        "notice": "Gets whether an account address is a signer or not."
      },
      "processRequest((address,address,uint256,uint256,uint256,uint256),(address,address,uint256,uint256,(uint256,uint8,bytes32,bytes32))[])": {
        "notice": "It processes all the node responses for a request in order to get a consensus value."
      },
      "removeSigner(address)": {
        "notice": "It removes an account as signer."
      },
      "settings()": {
        "notice": "The gets the settings contract address from the SETTINGS_SLOT."
      }
    }
  }
}