{
  "contractName": "InterestConsensus",
  "abi": [
    {
      "anonymous": false,
      "inputs": [
        {
          "indexed": true,
          "internalType": "address",
          "name": "lender",
          "type": "address"
        },
        {
          "indexed": false,
          "internalType": "uint256",
          "name": "requestNonce",
          "type": "uint256"
        },
        {
          "indexed": false,
          "internalType": "uint256",
          "name": "endTime",
          "type": "uint256"
        },
        {
          "indexed": false,
          "internalType": "uint256",
          "name": "interest",
          "type": "uint256"
        }
      ],
      "name": "InterestAccepted",
      "type": "event"
    },
    {
      "anonymous": false,
      "inputs": [
        {
          "indexed": true,
          "internalType": "address",
          "name": "signer",
          "type": "address"
        },
        {
          "indexed": true,
          "internalType": "address",
          "name": "lender",
          "type": "address"
        },
        {
          "indexed": false,
          "internalType": "uint256",
          "name": "requestNonce",
          "type": "uint256"
        },
        {
          "indexed": false,
          "internalType": "uint256",
          "name": "endTime",
          "type": "uint256"
        },
        {
          "indexed": false,
          "internalType": "uint256",
          "name": "interest",
          "type": "uint256"
        }
      ],
      "name": "InterestSubmitted",
      "type": "event"
    },
    {
      "anonymous": false,
      "inputs": [
        {
          "indexed": true,
          "internalType": "address",
          "name": "previousOwner",
          "type": "address"
        },
        {
          "indexed": true,
          "internalType": "address",
          "name": "newOwner",
          "type": "address"
        }
      ],
      "name": "OwnershipTransferred",
      "type": "event"
    },
    {
      "anonymous": false,
      "inputs": [
        {
          "indexed": true,
          "internalType": "address",
          "name": "account",
          "type": "address"
        }
      ],
      "name": "SignerAdded",
      "type": "event"
    },
    {
      "anonymous": false,
      "inputs": [
        {
          "indexed": true,
          "internalType": "address",
          "name": "account",
          "type": "address"
        }
      ],
      "name": "SignerRemoved",
      "type": "event"
    },
    {
      "constant": false,
      "inputs": [
        {
          "internalType": "address",
          "name": "account",
          "type": "address"
        }
      ],
      "name": "addSigner",
      "outputs": [],
      "payable": false,
      "stateMutability": "nonpayable",
      "type": "function"
    },
    {
      "constant": false,
      "inputs": [
        {
          "internalType": "address[]",
          "name": "accounts",
          "type": "address[]"
        }
      ],
      "name": "addSigners",
      "outputs": [],
      "payable": false,
      "stateMutability": "nonpayable",
      "type": "function"
    },
    {
      "constant": true,
      "inputs": [],
      "name": "callerAddress",
      "outputs": [
        {
          "internalType": "address",
          "name": "",
          "type": "address"
        }
      ],
      "payable": false,
      "stateMutability": "view",
      "type": "function"
    },
    {
      "constant": true,
      "inputs": [
        {
          "internalType": "address",
          "name": "",
          "type": "address"
        },
        {
          "internalType": "address",
          "name": "",
          "type": "address"
        },
        {
          "internalType": "uint256",
          "name": "",
          "type": "uint256"
        }
      ],
      "name": "hasSubmitted",
      "outputs": [
        {
          "internalType": "bool",
          "name": "",
          "type": "bool"
        }
      ],
      "payable": false,
      "stateMutability": "view",
      "type": "function"
    },
    {
      "constant": false,
      "inputs": [],
      "name": "initialize",
      "outputs": [],
      "payable": false,
      "stateMutability": "nonpayable",
      "type": "function"
    },
    {
      "constant": false,
      "inputs": [
        {
          "internalType": "address",
          "name": "owner",
          "type": "address"
        },
        {
          "internalType": "address",
          "name": "aCallerAddress",
          "type": "address"
        },
        {
          "internalType": "address",
          "name": "aSettingAddress",
          "type": "address"
        }
      ],
      "name": "initialize",
      "outputs": [],
      "payable": false,
      "stateMutability": "nonpayable",
      "type": "function"
    },
    {
      "constant": false,
      "inputs": [
        {
          "internalType": "address",
          "name": "sender",
          "type": "address"
        }
      ],
      "name": "initialize",
      "outputs": [],
      "payable": false,
      "stateMutability": "nonpayable",
      "type": "function"
    },
    {
      "constant": true,
      "inputs": [],
      "name": "initialized",
      "outputs": [
        {
          "internalType": "bool",
          "name": "value",
          "type": "bool"
        }
      ],
      "payable": false,
      "stateMutability": "view",
      "type": "function"
    },
    {
      "constant": true,
      "inputs": [
        {
          "internalType": "address",
          "name": "",
          "type": "address"
        },
        {
          "internalType": "uint256",
          "name": "",
          "type": "uint256"
        }
      ],
      "name": "interestSubmissions",
      "outputs": [
        {
          "internalType": "uint256",
          "name": "count",
          "type": "uint256"
        },
        {
          "internalType": "uint256",
          "name": "max",
          "type": "uint256"
        },
        {
          "internalType": "uint256",
          "name": "min",
          "type": "uint256"
        },
        {
          "internalType": "uint256",
          "name": "sum",
          "type": "uint256"
        }
      ],
      "payable": false,
      "stateMutability": "view",
      "type": "function"
    },
    {
      "constant": true,
      "inputs": [],
      "name": "isOwner",
      "outputs": [
        {
          "internalType": "bool",
          "name": "",
          "type": "bool"
        }
      ],
      "payable": false,
      "stateMutability": "view",
      "type": "function"
    },
    {
      "constant": true,
      "inputs": [
        {
          "internalType": "address",
          "name": "account",
          "type": "address"
        }
      ],
      "name": "isSigner",
      "outputs": [
        {
          "internalType": "bool",
          "name": "",
          "type": "bool"
        }
      ],
      "payable": false,
      "stateMutability": "view",
      "type": "function"
    },
    {
      "constant": true,
      "inputs": [],
      "name": "owner",
      "outputs": [
        {
          "internalType": "address",
          "name": "",
          "type": "address"
        }
      ],
      "payable": false,
      "stateMutability": "view",
      "type": "function"
    },
    {
      "constant": false,
      "inputs": [
        {
          "internalType": "address",
          "name": "account",
          "type": "address"
        }
      ],
      "name": "removeSigner",
      "outputs": [],
      "payable": false,
      "stateMutability": "nonpayable",
      "type": "function"
    },
    {
      "constant": false,
      "inputs": [],
      "name": "renounceOwnership",
      "outputs": [],
      "payable": false,
      "stateMutability": "nonpayable",
      "type": "function"
    },
    {
      "constant": true,
      "inputs": [
        {
          "internalType": "address",
          "name": "",
          "type": "address"
        },
        {
          "internalType": "uint256",
          "name": "",
          "type": "uint256"
        }
      ],
      "name": "requestNonceTaken",
      "outputs": [
        {
          "internalType": "bool",
          "name": "",
          "type": "bool"
        }
      ],
      "payable": false,
      "stateMutability": "view",
      "type": "function"
    },
    {
      "constant": true,
      "inputs": [],
      "name": "settings",
      "outputs": [
        {
          "internalType": "contract SettingsInterface",
          "name": "",
          "type": "address"
        }
      ],
      "payable": false,
      "stateMutability": "view",
      "type": "function"
    },
    {
      "constant": true,
      "inputs": [
        {
          "internalType": "address",
          "name": "",
          "type": "address"
        },
        {
          "internalType": "uint256",
          "name": "",
          "type": "uint256"
        }
      ],
      "name": "signerNonceTaken",
      "outputs": [
        {
          "internalType": "bool",
          "name": "",
          "type": "bool"
        }
      ],
      "payable": false,
      "stateMutability": "view",
      "type": "function"
    },
    {
      "constant": false,
      "inputs": [
        {
          "internalType": "address",
          "name": "newOwner",
          "type": "address"
        }
      ],
      "name": "transferOwnership",
      "outputs": [],
      "payable": false,
      "stateMutability": "nonpayable",
      "type": "function"
    },
    {
      "constant": false,
      "inputs": [
        {
          "components": [
            {
              "internalType": "address",
              "name": "lender",
              "type": "address"
            },
            {
              "internalType": "address",
              "name": "consensusAddress",
              "type": "address"
            },
            {
              "internalType": "uint256",
              "name": "requestNonce",
              "type": "uint256"
            },
            {
              "internalType": "uint256",
              "name": "startTime",
              "type": "uint256"
            },
            {
              "internalType": "uint256",
              "name": "endTime",
              "type": "uint256"
            },
            {
              "internalType": "uint256",
              "name": "requestTime",
              "type": "uint256"
            }
          ],
          "internalType": "struct TellerCommon.InterestRequest",
          "name": "request",
          "type": "tuple"
        },
        {
          "components": [
            {
              "internalType": "address",
              "name": "signer",
              "type": "address"
            },
            {
              "internalType": "address",
              "name": "consensusAddress",
              "type": "address"
            },
            {
              "internalType": "uint256",
              "name": "responseTime",
              "type": "uint256"
            },
            {
              "internalType": "uint256",
              "name": "interest",
              "type": "uint256"
            },
            {
              "components": [
                {
                  "internalType": "uint256",
                  "name": "signerNonce",
                  "type": "uint256"
                },
                {
                  "internalType": "uint8",
                  "name": "v",
                  "type": "uint8"
                },
                {
                  "internalType": "bytes32",
                  "name": "r",
                  "type": "bytes32"
                },
                {
                  "internalType": "bytes32",
                  "name": "s",
                  "type": "bytes32"
                }
              ],
              "internalType": "struct TellerCommon.Signature",
              "name": "signature",
              "type": "tuple"
            }
          ],
          "internalType": "struct TellerCommon.InterestResponse[]",
          "name": "responses",
          "type": "tuple[]"
        }
      ],
      "name": "processRequest",
      "outputs": [
        {
          "internalType": "uint256",
          "name": "",
          "type": "uint256"
        }
      ],
      "payable": false,
      "stateMutability": "nonpayable",
      "type": "function"
    }
  ],
  "bytecode": "0x60806040526126b8806100136000396000f3fe608060405234801561001057600080fd5b50600436106101215760003560e01c80638f32d59b116100ad578063e8906a2d11610071578063e8906a2d1461023d578063eb12d61e14610250578063f2fde38b14610263578063faa8aab114610276578063fb98d9e21461027e57610121565b80638f32d59b146101e757806399ffe065146101ef578063c0c53b8b14610202578063c4d66de814610215578063e06174e41461022857610121565b806368fcdeb8116100f457806368fcdeb81461019c578063715018a6146101af5780637df73e27146101b75780638129fc1c146101ca5780638da5cb5b146101d257610121565b80630e316ab714610126578063158ef93e1461013b57806365e8eb8e1461015957806367136b351461017c575b600080fd5b610139610134366004611a93565b610291565b005b6101436102ca565b6040516101509190612376565b60405180910390f35b61016c610167366004611b41565b6102e9565b6040516101509493929190612567565b61018f61018a366004611bec565b61031b565b6040516101509190612384565b6101436101aa366004611b41565b6106b3565b6101396106d3565b6101436101c5366004611a93565b610741565b61013961075a565b6101da6107e1565b6040516101509190612297565b6101436107f0565b6101436101fd366004611afe565b610816565b610139610210366004611ab1565b61083c565b610139610223366004611a93565b6108c5565b610230610998565b60405161015091906123d0565b61013961024b366004611b7b565b6109ba565b61013961025e366004611a93565b610a42565b610139610271366004611a93565b610a6f565b6101da610a9c565b61014361028c366004611b41565b610aab565b6102996107f0565b6102be5760405162461bcd60e51b81526004016102b5906124af565b60405180910390fd5b6102c781610acb565b50565b6000806040516102d990612261565b6040519081900390205492915050565b609e60209081526000928352604080842090915290825290208054600182015460028301546003909301549192909184565b60006103256102ca565b6103415760405162461bcd60e51b81526004016102b59061250f565b3361034b81610b13565b6103675760405162461bcd60e51b81526004016102b5906124ff565b61036f610998565b6001600160a01b031663269012a0610385610998565b6001600160a01b031663d86d744e6040518163ffffffff1660e01b815260040160206040518083038186803b1580156103bd57600080fd5b505afa1580156103d1573d6000803e3d6000fd5b505050506040513d601f19601f820116820180604052506103f59190810190611bce565b6001600160a01b0316633ff591d96040518163ffffffff1660e01b815260040160206040518083038186803b15801561042d57600080fd5b505afa158015610441573d6000803e3d6000fd5b505050506040513d601f19601f820116820180604052506104659190810190611bb0565b6040518263ffffffff1660e01b81526004016104819190612384565b60206040518083038186803b15801561049957600080fd5b505afa1580156104ad573d6000803e3d6000fd5b505050506040513d601f19601f820116820180604052506104d19190810190611bb0565b8310156104f05760405162461bcd60e51b81526004016102b59061252f565b609d60006105016020880188611a93565b6001600160a01b031681526020808201929092526040908101600090812088830135825290925290205460ff161561054b5760405162461bcd60e51b81526004016102b59061248f565b6001609d600061055e6020890189611a93565b6001600160a01b03168152602080820192909252604090810160009081208983013582529092528120805460ff1916921515929092179091556105ae6105a936889003880188611c42565b610b27565b905060005b848110156105fe576105f66105cd36899003890189611c42565b8787848181106105d957fe5b905061010002018036036105f09190810190611c60565b84610b93565b6001016105b3565b50600061064e609e8261061460208b018b611a93565b6001600160a01b03166001600160a01b03168152602001908152602001600020600089608001358152602001908152602001600020610c68565b905061065d6020880188611a93565b6001600160a01b03167f3ae9cc3885aef787ea70c8cdfc77b61a78c7b546f8d22ea80fa0aeb7b0894b1488604001358960800135846040516106a19392919061253f565b60405180910390a29695505050505050565b609b60209081526000928352604080842090915290825290205460ff1681565b6106db6107f0565b6106f75760405162461bcd60e51b81526004016102b5906124af565b6066546040516000916001600160a01b0316907f8be0079c531659141344cd1fd0a4f28419497f9722a3daafe3b4186f6b6457e0908390a3606680546001600160a01b0319169055565b600061075460998363ffffffff610e0916565b92915050565b600054610100900460ff16806107735750610773610e51565b80610781575060005460ff16155b61079d5760405162461bcd60e51b81526004016102b5906124cf565b600054610100900460ff161580156107c8576000805460ff1961ff0019909116610100171660011790555b600160335580156102c7576000805461ff001916905550565b6066546001600160a01b031690565b6066546000906001600160a01b0316610807610e57565b6001600160a01b031614905090565b609a60209081526000938452604080852082529284528284209052825290205460ff1681565b6108446102ca565b156108615760405162461bcd60e51b81526004016102b59061251f565b610873826001600160a01b0316610e5b565b61088f5760405162461bcd60e51b81526004016102b59061245f565b610898836108c5565b6108a181610e97565b50609c80546001600160a01b0319166001600160a01b039290921691909117905550565b600054610100900460ff16806108de57506108de610e51565b806108ec575060005460ff16155b6109085760405162461bcd60e51b81526004016102b5906124cf565b600054610100900460ff16158015610933576000805460ff1961ff0019909116610100171660011790555b606680546001600160a01b0319166001600160a01b0384811691909117918290556040519116906000907f8be0079c531659141344cd1fd0a4f28419497f9722a3daafe3b4186f6b6457e0908290a38015610994576000805461ff00191690555b5050565b60008060006040516109a99061228c565b604051908190039020549250505090565b6109c26107f0565b6109de5760405162461bcd60e51b81526004016102b5906124af565b60008151116109ff5760405162461bcd60e51b81526004016102b5906123ff565b60005b8151811015610994576000828281518110610a1957fe5b60200260200101519050610a2c81610741565b610a3957610a3981610f49565b50600101610a02565b610a4a6107f0565b610a665760405162461bcd60e51b81526004016102b5906124af565b6102c781610f49565b610a776107f0565b610a935760405162461bcd60e51b81526004016102b5906124af565b6102c781610f91565b609c546001600160a01b031681565b609d60209081526000928352604080842090915290825290205460ff1681565b610adc60998263ffffffff61101316565b6040516001600160a01b038216907f3525e22824a8a7df2c9a6029941c824cf95b6447f1e13d5128fd3826d35afe8b90600090a250565b609c546001600160a01b0391821691161490565b609c548151602083015160408401516060850151608086015160a08701516000966001600160a01b0316959493929190610b5f61105b565b604051602001610b769897969594939291906122a5565b604051602081830303815290604052805190602001209050919050565b6000610b9f838361105f565b9050610bc383600001518560000151866080015186604001518588608001516110b5565b606083015184516001600160a01b03166000908152609e60209081526040808320608089015184529091529020610bff9163ffffffff61133316565b83600001516001600160a01b031683600001516001600160a01b03167f6f00cb8f849a2a1b231819b8145a2da4a16ffffe806e5e39787bc79ca276097c866040015187608001518760600151604051610c5a9392919061253f565b60405180910390a350505050565b6000610de4610c75610998565b6001600160a01b031663269012a0610c8b610998565b6001600160a01b031663d86d744e6040518163ffffffff1660e01b815260040160206040518083038186803b158015610cc357600080fd5b505afa158015610cd7573d6000803e3d6000fd5b505050506040513d601f19601f82011682018060405250610cfb9190810190611bce565b6001600160a01b031663c41dd8ce6040518163ffffffff1660e01b815260040160206040518083038186803b158015610d3357600080fd5b505afa158015610d47573d6000803e3d6000fd5b505050506040513d601f19601f82011682018060405250610d6b9190810190611bb0565b6040518263ffffffff1660e01b8152600401610d879190612384565b60206040518083038186803b158015610d9f57600080fd5b505afa158015610db3573d6000803e3d6000fd5b505050506040513d601f19601f82011682018060405250610dd79190810190611bb0565b839063ffffffff61139816565b610e005760405162461bcd60e51b81526004016102b59061242f565b61075482611449565b60006001600160a01b038216610e315760405162461bcd60e51b81526004016102b5906124bf565b506001600160a01b03166000908152602091909152604090205460ff1690565b303b1590565b3390565b6000813f7fc5d2460186f7233c927e7db2dcc703c0e500b653ca82273b7bfad8045d85a470818114801590610e8f57508115155b949350505050565b610e9f6102ca565b15610ebc5760405162461bcd60e51b81526004016102b59061251f565b60408051808201909152601981527f53455454494e47535f4d5553545f42455f50524f5649444544000000000000006020820152610f0a906001600160a01b0383169063ffffffff61148216565b610f1c816001600160a01b0316610e5b565b610f385760405162461bcd60e51b81526004016102b59061244f565b610f406114af565b6102c7816114cd565b610f5a60998263ffffffff61153c16565b6040516001600160a01b038216907f47d1c22a25bb3a5d4e481b9b1e6944c2eade3181a0a20b495ed61d35b5323f2490600090a250565b6001600160a01b038116610fb75760405162461bcd60e51b81526004016102b59061241f565b6066546040516001600160a01b038084169216907f8be0079c531659141344cd1fd0a4f28419497f9722a3daafe3b4186f6b6457e090600090a3606680546001600160a01b0319166001600160a01b0392909216919091179055565b61101d8282610e09565b6110395760405162461bcd60e51b81526004016102b59061247f565b6001600160a01b0316600090815260209190915260409020805460ff19169055565b4690565b600082602001518360400151846060015185608001516000015161108161105b565b866040516020016110979695949392919061231c565b60405160208183030381529060405280519060200120905092915050565b6001600160a01b038087166000908152609a6020908152604080832093891683529281528282208783529052205460ff16156111035760405162461bcd60e51b81526004016102b59061240f565b6001600160a01b038087166000908152609a602090815260408083209389168352928152828220878352905220805460ff191660011790556112b5611146610998565b6001600160a01b031663269012a061115c610998565b6001600160a01b031663d86d744e6040518163ffffffff1660e01b815260040160206040518083038186803b15801561119457600080fd5b505afa1580156111a8573d6000803e3d6000fd5b505050506040513d601f19601f820116820180604052506111cc9190810190611bce565b6001600160a01b031663e3f33d006040518163ffffffff1660e01b815260040160206040518083038186803b15801561120457600080fd5b505afa158015611218573d6000803e3d6000fd5b505050506040513d601f19601f8201168201806040525061123c9190810190611bb0565b6040518263ffffffff1660e01b81526004016112589190612384565b60206040518083038186803b15801561127057600080fd5b505afa158015611284573d6000803e3d6000fd5b505050506040513d601f19601f820116820180604052506112a89190810190611bb0565b429063ffffffff61158816565b8310156112d45760405162461bcd60e51b81526004016102b5906124df565b6112df8183886115d1565b6112fb5760405162461bcd60e51b81526004016102b5906124ef565b6001600160a01b039095166000908152609b602090815260408083209751835296905294909420805460ff1916600117905550505050565b808260010154101561134757600182018190555b808260020154118061135857508154155b1561136557600282018190555b600382015461137a908263ffffffff6116c916565b6003830155815461139290600163ffffffff6116c916565b90915550565b60006113a3836116ee565b156113b057506000610754565b60006113bb84611449565b905060006113e16127106113d5848763ffffffff61170016565b9063ffffffff61173a16565b905060006113f5838363ffffffff61158816565b9050808660020154101561140f5760009350505050610754565b6000611421848463ffffffff6116c916565b9050808760010154111561143c576000945050505050610754565b5060019695505050505050565b6000611454826116ee565b61147a576114756114648361177c565b60038401549063ffffffff61173a16565b610754565b506000919050565b61148b82611780565b81906114aa5760405162461bcd60e51b81526004016102b591906123de565b505050565b60006040516114bd90612261565b6040519081900390206001905550565b6114e66114d8610998565b6001600160a01b0316611780565b156114f0576102c7565b611502816001600160a01b0316610e5b565b61151e5760405162461bcd60e51b81526004016102b59061244f565b600060405161152c9061228c565b6040519081900390208290555050565b6115468282610e09565b156115635760405162461bcd60e51b81526004016102b5906123ef565b6001600160a01b0316600090815260209190915260409020805460ff19166001179055565b60006115ca83836040518060400160405280601e81526020017f536166654d6174683a207375627472616374696f6e206f766572666c6f77000081525061178e565b9392505050565b60006115dc82610741565b6115e8575060006115ca565b6001600160a01b0382166000908152609b602090815260408083208751845290915290205460ff161561162d5760405162461bcd60e51b81526004016102b59061246f565b6000600184604051602001611642919061226c565b60405160208183030381529060405280519060200120866020015187604001518860600151604051600081526020016040526040516116849493929190612392565b6020604051602081039080840390855afa1580156116a6573d6000803e3d6000fd5b5050604051601f1901516001600160a01b03858116911614925050509392505050565b6000828201838110156115ca5760405162461bcd60e51b81526004016102b59061243f565b60006116f98261177c565b1592915050565b60008261170f57506000610754565b8282028284828161171c57fe5b04146115ca5760405162461bcd60e51b81526004016102b59061249f565b60006115ca83836040518060400160405280601a81526020017f536166654d6174683a206469766973696f6e206279207a65726f0000000000008152506117ba565b5490565b6001600160a01b0316151590565b600081848411156117b25760405162461bcd60e51b81526004016102b591906123de565b505050900390565b600081836117db5760405162461bcd60e51b81526004016102b591906123de565b5060008385816117e757fe5b0495945050505050565b803561075481612646565b600082601f83011261180d57600080fd5b813561182061181b826125a9565b612582565b9150818183526020840193506020810190508385602084028201111561184557600080fd5b60005b83811015611871578161185b88826117f1565b8452506020928301929190910190600101611848565b5050505092915050565b60008083601f84011261188d57600080fd5b50813567ffffffffffffffff8111156118a557600080fd5b602083019150836101008202830111156118be57600080fd5b9250929050565b80356107548161265a565b80516107548161265a565b805161075481612663565b600060c082840312156118f857600080fd5b50919050565b600060c0828403121561191057600080fd5b61191a60c0612582565b9050600061192884846117f1565b8252506020611939848483016117f1565b602083015250604061194d848285016118c5565b6040830152506060611961848285016118c5565b6060830152506080611975848285016118c5565b60808301525060a0611989848285016118c5565b60a08301525092915050565b600061010082840312156119a857600080fd5b6119b260a0612582565b905060006119c084846117f1565b82525060206119d1848483016117f1565b60208301525060406119e5848285016118c5565b60408301525060606119f9848285016118c5565b6060830152506080611a0d84828501611a19565b60808301525092915050565b600060808284031215611a2b57600080fd5b611a356080612582565b90506000611a4384846118c5565b8252506020611a5484848301611a88565b6020830152506040611a68848285016118c5565b6040830152506060611a7c848285016118c5565b60608301525092915050565b80356107548161266c565b600060208284031215611aa557600080fd5b6000610e8f84846117f1565b600080600060608486031215611ac657600080fd5b6000611ad286866117f1565b9350506020611ae3868287016117f1565b9250506040611af4868287016117f1565b9150509250925092565b600080600060608486031215611b1357600080fd5b6000611b1f86866117f1565b9350506020611b30868287016117f1565b9250506040611af4868287016118c5565b60008060408385031215611b5457600080fd5b6000611b6085856117f1565b9250506020611b71858286016118c5565b9150509250929050565b600060208284031215611b8d57600080fd5b813567ffffffffffffffff811115611ba457600080fd5b610e8f848285016117fc565b600060208284031215611bc257600080fd5b6000610e8f84846118d0565b600060208284031215611be057600080fd5b6000610e8f84846118db565b600080600060e08486031215611c0157600080fd5b6000611c0d86866118e6565b93505060c084013567ffffffffffffffff811115611c2a57600080fd5b611c368682870161187b565b92509250509250925092565b600060c08284031215611c5457600080fd5b6000610e8f84846118fe565b60006101008284031215611c7357600080fd5b6000610e8f8484611995565b611c88816125dc565b82525050565b611c88816125e7565b611c88816125ec565b611c88611cac826125ec565b6125ec565b611c88816125ef565b6000611cc5826125ca565b611ccf81856125ce565b9350611cdf81856020860161260c565b611ce88161263c565b9093019392505050565b6000611cff601c836125d7565b7f54496e697469616c697a61626c652e6973496e697469616c697a6564000000008152601c0192915050565b6000611d38601f836125ce565b7f526f6c65733a206163636f756e7420616c72656164792068617320726f6c6500815260200192915050565b6000611d716013836125ce565b724143434f554e54535f4c4953545f454d50545960681b815260200192915050565b6000611da0601c836125d7565b7f19457468657265756d205369676e6564204d6573736167653a0a3332000000008152601c0192915050565b6000611dd96018836125ce565b7f5349474e45525f414c52454144595f5355424d49545445440000000000000000815260200192915050565b6000611e126026836125ce565b7f4f776e61626c653a206e6577206f776e657220697320746865207a65726f206181526564647265737360d01b602082015260400192915050565b6000611e5a6014836125ce565b73149154d413d394d154d7d513d3d7d5905492515160621b815260200192915050565b6000611e8a601b836125ce565b7f536166654d6174683a206164646974696f6e206f766572666c6f770000000000815260200192915050565b6000611ec3601b836125ce565b7f53455454494e47535f4d5553545f42455f415f434f4e54524143540000000000815260200192915050565b6000611efc6017836125ce565b7f43414c4c45525f4d5553545f42455f434f4e5452414354000000000000000000815260200192915050565b6000611f356012836125ce565b7129a4a3a722a92fa727a721a2afaa20a5a2a760711b815260200192915050565b6000611f636021836125ce565b7f526f6c65733a206163636f756e7420646f6573206e6f74206861766520726f6c8152606560f81b602082015260400192915050565b6000611fa6601c836125ce565b7f494e5445524553545f524551554553545f4e4f4e43455f54414b454e00000000815260200192915050565b6000611fdf6021836125ce565b7f536166654d6174683a206d756c7469706c69636174696f6e206f766572666c6f8152607760f81b602082015260400192915050565b60006120226020836125ce565b7f4f776e61626c653a2063616c6c6572206973206e6f7420746865206f776e6572815260200192915050565b600061205b6022836125ce565b7f526f6c65733a206163636f756e7420697320746865207a65726f206164647265815261737360f01b602082015260400192915050565b600061209f602e836125ce565b7f436f6e747261637420696e7374616e63652068617320616c726561647920626581526d195b881a5b9a5d1a585b1a5e995960921b602082015260400192915050565b60006120ef6010836125ce565b6f149154d413d394d157d156141254915160821b815260200192915050565b600061211b6011836125ce565b7014d251d3905515549157d2539590531251607a1b815260200192915050565b60006121486018836125ce565b7f53454e4445525f4841534e545f5045524d495353494f4e530000000000000000815260200192915050565b60006121816018836125d7565b7f426173655570677261646561626c652e73657474696e67730000000000000000815260180192915050565b60006121ba6018836125ce565b7f434f4e54524143545f4e4f545f494e495449414c495a45440000000000000000815260200192915050565b60006121f3601c836125ce565b7f434f4e54524143545f414c52454144595f494e495449414c495a454400000000815260200192915050565b600061222c601f836125ce565b7f494e5445524553545f494e53554646494349454e545f524553504f4e53455300815260200192915050565b611c8881612606565b600061075482611cf2565b600061227782611d93565b91506122838284611ca0565b50602001919050565b600061075482612174565b602081016107548284611c7f565b61010081016122b4828b611c7f565b6122c1602083018a611c7f565b6122ce6040830189611c7f565b6122db6060830188611c97565b6122e86080830187611c97565b6122f560a0830186611c97565b61230260c0830185611c97565b61230f60e0830184611c97565b9998505050505050505050565b60c0810161232a8289611c7f565b6123376020830188611c97565b6123446040830187611c97565b6123516060830186611c97565b61235e6080830185611c97565b61236b60a0830184611c97565b979650505050505050565b602081016107548284611c8e565b602081016107548284611c97565b608081016123a08287611c97565b6123ad6020830186612258565b6123ba6040830185611c97565b6123c76060830184611c97565b95945050505050565b602081016107548284611cb1565b602080825281016115ca8184611cba565b6020808252810161075481611d2b565b6020808252810161075481611d64565b6020808252810161075481611dcc565b6020808252810161075481611e05565b6020808252810161075481611e4d565b6020808252810161075481611e7d565b6020808252810161075481611eb6565b6020808252810161075481611eef565b6020808252810161075481611f28565b6020808252810161075481611f56565b6020808252810161075481611f99565b6020808252810161075481611fd2565b6020808252810161075481612015565b602080825281016107548161204e565b6020808252810161075481612092565b60208082528101610754816120e2565b602080825281016107548161210e565b602080825281016107548161213b565b60208082528101610754816121ad565b60208082528101610754816121e6565b602080825281016107548161221f565b6060810161254d8286611c97565b61255a6020830185611c97565b610e8f6040830184611c97565b608081016125758287611c97565b6123ad6020830186611c97565b60405181810167ffffffffffffffff811182821017156125a157600080fd5b604052919050565b600067ffffffffffffffff8211156125c057600080fd5b5060209081020190565b5190565b90815260200190565b919050565b6000610754826125fa565b151590565b90565b6000610754826125dc565b6001600160a01b031690565b60ff1690565b60005b8381101561262757818101518382015260200161260f565b83811115612636576000848401525b50505050565b601f01601f191690565b61264f816125dc565b81146102c757600080fd5b61264f816125ec565b61264f816125ef565b61264f8161260656fea365627a7a72315820968e1c7b8e60bb72c207e47955c5ffbc131a50bc33a5ef1126b19b29610146056c6578706572696d656e74616cf564736f6c63430005110040",
  "source": "pragma solidity 0.5.17;\npragma experimental ABIEncoderV2;\n\n// Libraries\n\n// Interfaces\nimport \"../interfaces/InterestConsensusInterface.sol\";\n\n// Contracts\nimport \"./Consensus.sol\";\n\n/*****************************************************************************************************/\n/**                                             WARNING                                             **/\n/**                                  THIS CONTRACT IS UPGRADEABLE!                                  **/\n/**  ---------------------------------------------------------------------------------------------  **/\n/**  Do NOT change the order of or PREPEND any storage variables to this or new versions of this    **/\n/**  contract as this will cause the the storage slots to be overwritten on the proxy contract!!    **/\n/**                                                                                                 **/\n/**  Visit https://docs.openzeppelin.com/upgrades/2.6/proxies#upgrading-via-the-proxy-pattern for   **/\n/**  more information.                                                                              **/\n/*****************************************************************************************************/\n/**\n    @notice This contract processes the node responses to get consensus in the lender interest.\n\n    @author develop@teller.finance\n */\ncontract InterestConsensus is InterestConsensusInterface, Consensus {\n    /* State Variables */\n\n    // mapping of (lender, endTime) to the aggregated node submissions for their request\n    mapping(address => mapping(uint256 => NumbersList.Values)) public interestSubmissions;\n\n    /** Modifiers */\n\n    /* Constructor */\n\n    /* External Functions */\n    /**\n        @notice It processes all the node responses for a request in order to get a consensus value.\n        @param request the interest request sent by the lender.\n        @param responses all node responses to process.\n        @return the consensus interest.\n     */\n    function processRequest(\n        TellerCommon.InterestRequest calldata request,\n        TellerCommon.InterestResponse[] calldata responses\n    ) external isInitialized() isCaller(msg.sender) returns (uint256) {\n        require(\n            responses.length >=\n                settings().getPlatformSettingValue(\n                    settings().consts().REQUIRED_SUBMISSIONS_SETTING()\n                ),\n            \"INTEREST_INSUFFICIENT_RESPONSES\"\n        );\n        require(\n            !requestNonceTaken[request.lender][request.requestNonce],\n            \"INTEREST_REQUEST_NONCE_TAKEN\"\n        );\n        requestNonceTaken[request.lender][request.requestNonce] = true;\n\n        bytes32 requestHash = _hashRequest(request);\n\n        for (uint256 i = 0; i < responses.length; i++) {\n            _processResponse(request, responses[i], requestHash);\n        }\n\n        uint256 interestAccrued = _getConsensus(\n            interestSubmissions[request.lender][request.endTime]\n        );\n\n        emit InterestAccepted(\n            request.lender,\n            request.requestNonce,\n            request.endTime,\n            interestAccrued\n        );\n\n        return interestAccrued;\n    }\n\n    /** Internal Functions */\n\n    /**\n        @notice It processes a node response.\n        @param request the interest request sent by the lender.\n        @param response a node response.\n     */\n    function _processResponse(\n        TellerCommon.InterestRequest memory request,\n        TellerCommon.InterestResponse memory response,\n        bytes32 requestHash\n    ) internal {\n        bytes32 responseHash = _hashResponse(response, requestHash);\n\n        _validateResponse(\n            response.signer,\n            request.lender,\n            request.endTime,\n            response.responseTime,\n            responseHash,\n            response.signature\n        );\n\n        interestSubmissions[request.lender][request.endTime].addValue(response.interest);\n\n        emit InterestSubmitted(\n            response.signer,\n            request.lender,\n            request.requestNonce,\n            request.endTime,\n            response.interest\n        );\n    }\n\n    /**\n        @notice It creates a hash based on a node response and lender request.\n        @param response a node response.\n        @param requestHash a hash value that represents the lender request.\n        @return a hash value.\n     */\n    function _hashResponse(\n        TellerCommon.InterestResponse memory response,\n        bytes32 requestHash\n    ) internal view returns (bytes32) {\n        return\n            keccak256(\n                abi.encode(\n                    response.consensusAddress,\n                    response.responseTime,\n                    response.interest,\n                    response.signature.signerNonce,\n                    _getChainId(),\n                    requestHash\n                )\n            );\n    }\n\n    /**\n        @notice It creates a hash value based on the lender request.\n        @param request the interest request sent by the lender.\n        @return a hash value.\n     */\n    function _hashRequest(TellerCommon.InterestRequest memory request)\n        internal\n        view\n        returns (bytes32)\n    {\n        return\n            keccak256(\n                abi.encode(\n                    callerAddress,\n                    request.lender,\n                    request.consensusAddress,\n                    request.requestNonce,\n                    request.startTime,\n                    request.endTime,\n                    request.requestTime,\n                    _getChainId()\n                )\n            );\n    }\n}\n",
  "sourcePath": "/Users/sy/Documents/GitHub/teller-protocol-v1/contracts/base/InterestConsensus.sol",
  "compiler": {
    "name": "solc",
    "version": "0.5.17+commit.d19bba13.Emscripten.clang"
  },
  "schemaVersion": "3.0.23",
  "updatedAt": "2020-09-15T23:09:49.728Z",
  "devdoc": {
    "author": "develop@teller.finance",
    "methods": {
      "addSigner(address)": {
        "details": "The sender must be the owner.It throws a require error if the sender is not the owner.",
        "params": {
          "account": "address to add."
        }
      },
      "addSigners(address[])": {
        "details": "The sender must be the owner.It throws a require error if the sender is not the owner.",
        "params": {
          "accounts": "addresses to add."
        }
      },
      "initialize(address)": {
        "details": "Initializes the contract setting the deployer as the initial owner."
      },
      "initialize(address,address,address)": {
        "details": "The caller address must be the loans contract for LoanTermsConsensus, and the lenders contract for InterestConsensus.",
        "params": {
          "aCallerAddress": "the contract that will call it.",
          "aSettingAddress": "the settings contract address.",
          "owner": "the owner address."
        }
      },
      "initialized()": {
        "return": "true if contract is initialized. Otherwise it returns false."
      },
      "isOwner()": {
        "details": "Returns true if the caller is the current owner."
      },
      "isSigner(address)": {
        "params": {
          "account": "address to test."
        },
        "return": "true if account is a signer. Otherwise it returns false."
      },
      "owner()": {
        "details": "Returns the address of the current owner."
      },
      "processRequest((address,address,uint256,uint256,uint256,uint256),(address,address,uint256,uint256,(uint256,uint8,bytes32,bytes32))[])": {
        "params": {
          "request": "the interest request sent by the lender.",
          "responses": "all node responses to process."
        },
        "return": "the consensus interest."
      },
      "removeSigner(address)": {
        "details": "The sender must be the owner.It throws a require error if the sender is not the owner.",
        "params": {
          "account": "address to remove."
        }
      },
      "renounceOwnership()": {
        "details": "Leaves the contract without owner. It will not be possible to call `onlyOwner` functions anymore. Can only be called by the current owner.     * > Note: Renouncing ownership will leave the contract without an owner, thereby removing any functionality that is only available to the owner."
      },
      "settings()": {
        "details": "This address should NOT change over the time. See details in the _setSettings(...) function."
      },
      "transferOwnership(address)": {
        "details": "Transfers ownership of the contract to a new account (`newOwner`). Can only be called by the current owner."
      }
    }
  },
  "userdoc": {
    "methods": {
      "addSigner(address)": {
        "notice": "It adds a new account as a signer."
      },
      "addSigners(address[])": {
        "notice": "It adds a list of account as signers."
      },
      "initialize(address,address,address)": {
        "notice": "It initializes this consensus contract."
      },
      "initialized()": {
        "notice": "Gets if the contract is initialized."
      },
      "isSigner(address)": {
        "notice": "Gets whether an account address is a signer or not."
      },
      "processRequest((address,address,uint256,uint256,uint256,uint256),(address,address,uint256,uint256,(uint256,uint8,bytes32,bytes32))[])": {
        "notice": "It processes all the node responses for a request in order to get a consensus value."
      },
      "removeSigner(address)": {
        "notice": "It removes an account as signer."
      },
      "settings()": {
        "notice": "The gets the settings contract address from the SETTINGS_SLOT."
      }
    },
    "notice": "This contract processes the node responses to get consensus in the lender interest."
  }
}