{
  "contractName": "InterestConsensus",
  "abi": [
    {
      "inputs": [
        {
          "internalType": "uint256",
          "name": "initRequiredSubmissions",
          "type": "uint256"
        },
        {
          "internalType": "uint256",
          "name": "initMaximumTolerance",
          "type": "uint256"
        }
      ],
      "payable": false,
      "stateMutability": "nonpayable",
      "type": "constructor"
    },
    {
      "anonymous": false,
      "inputs": [
        {
          "indexed": false,
          "internalType": "address",
          "name": "lender",
          "type": "address"
        },
        {
          "indexed": false,
          "internalType": "uint256",
          "name": "blockNumber",
          "type": "uint256"
        },
        {
          "indexed": false,
          "internalType": "uint256",
          "name": "interest",
          "type": "uint256"
        }
      ],
      "name": "InterestAccepted",
      "type": "event"
    },
    {
      "anonymous": false,
      "inputs": [
        {
          "indexed": false,
          "internalType": "address",
          "name": "signer",
          "type": "address"
        },
        {
          "indexed": false,
          "internalType": "address",
          "name": "lender",
          "type": "address"
        },
        {
          "indexed": false,
          "internalType": "uint256",
          "name": "blockNumber",
          "type": "uint256"
        },
        {
          "indexed": false,
          "internalType": "uint256",
          "name": "interest",
          "type": "uint256"
        }
      ],
      "name": "InterestSubmitted",
      "type": "event"
    },
    {
      "anonymous": false,
      "inputs": [
        {
          "indexed": true,
          "internalType": "address",
          "name": "account",
          "type": "address"
        }
      ],
      "name": "SignerAdded",
      "type": "event"
    },
    {
      "anonymous": false,
      "inputs": [
        {
          "indexed": true,
          "internalType": "address",
          "name": "account",
          "type": "address"
        }
      ],
      "name": "SignerRemoved",
      "type": "event"
    },
    {
      "constant": false,
      "inputs": [
        {
          "internalType": "address",
          "name": "account",
          "type": "address"
        }
      ],
      "name": "addSigner",
      "outputs": [],
      "payable": false,
      "stateMutability": "nonpayable",
      "type": "function"
    },
    {
      "constant": true,
      "inputs": [
        {
          "internalType": "address",
          "name": "",
          "type": "address"
        },
        {
          "internalType": "address",
          "name": "",
          "type": "address"
        },
        {
          "internalType": "uint256",
          "name": "",
          "type": "uint256"
        }
      ],
      "name": "hasSubmitted",
      "outputs": [
        {
          "internalType": "bool",
          "name": "",
          "type": "bool"
        }
      ],
      "payable": false,
      "stateMutability": "view",
      "type": "function"
    },
    {
      "constant": true,
      "inputs": [
        {
          "internalType": "address",
          "name": "account",
          "type": "address"
        }
      ],
      "name": "isSigner",
      "outputs": [
        {
          "internalType": "bool",
          "name": "",
          "type": "bool"
        }
      ],
      "payable": false,
      "stateMutability": "view",
      "type": "function"
    },
    {
      "constant": true,
      "inputs": [],
      "name": "lenders",
      "outputs": [
        {
          "internalType": "contract LendersInterface",
          "name": "",
          "type": "address"
        }
      ],
      "payable": false,
      "stateMutability": "view",
      "type": "function"
    },
    {
      "constant": true,
      "inputs": [],
      "name": "maximumTolerance",
      "outputs": [
        {
          "internalType": "uint256",
          "name": "",
          "type": "uint256"
        }
      ],
      "payable": false,
      "stateMutability": "view",
      "type": "function"
    },
    {
      "constant": true,
      "inputs": [
        {
          "internalType": "address",
          "name": "",
          "type": "address"
        },
        {
          "internalType": "uint256",
          "name": "",
          "type": "uint256"
        }
      ],
      "name": "nodeSubmissions",
      "outputs": [
        {
          "internalType": "uint256",
          "name": "totalSubmissions",
          "type": "uint256"
        },
        {
          "internalType": "uint256",
          "name": "maxValue",
          "type": "uint256"
        },
        {
          "internalType": "uint256",
          "name": "minValue",
          "type": "uint256"
        },
        {
          "internalType": "uint256",
          "name": "sumOfValues",
          "type": "uint256"
        },
        {
          "internalType": "bool",
          "name": "finalized",
          "type": "bool"
        }
      ],
      "payable": false,
      "stateMutability": "view",
      "type": "function"
    },
    {
      "constant": false,
      "inputs": [],
      "name": "renounceSigner",
      "outputs": [],
      "payable": false,
      "stateMutability": "nonpayable",
      "type": "function"
    },
    {
      "constant": true,
      "inputs": [],
      "name": "requiredSubmissions",
      "outputs": [
        {
          "internalType": "uint256",
          "name": "",
          "type": "uint256"
        }
      ],
      "payable": false,
      "stateMutability": "view",
      "type": "function"
    },
    {
      "constant": true,
      "inputs": [
        {
          "internalType": "address",
          "name": "",
          "type": "address"
        },
        {
          "internalType": "uint256",
          "name": "",
          "type": "uint256"
        }
      ],
      "name": "signerNonceTaken",
      "outputs": [
        {
          "internalType": "bool",
          "name": "",
          "type": "bool"
        }
      ],
      "payable": false,
      "stateMutability": "view",
      "type": "function"
    },
    {
      "constant": false,
      "inputs": [
        {
          "internalType": "address",
          "name": "lendersAddress",
          "type": "address"
        }
      ],
      "name": "initialize",
      "outputs": [],
      "payable": false,
      "stateMutability": "nonpayable",
      "type": "function"
    },
    {
      "constant": false,
      "inputs": [
        {
          "components": [
            {
              "internalType": "uint256",
              "name": "signerNonce",
              "type": "uint256"
            },
            {
              "internalType": "uint8",
              "name": "v",
              "type": "uint8"
            },
            {
              "internalType": "bytes32",
              "name": "r",
              "type": "bytes32"
            },
            {
              "internalType": "bytes32",
              "name": "s",
              "type": "bytes32"
            }
          ],
          "internalType": "struct ZeroCollateralCommon.Signature",
          "name": "signature",
          "type": "tuple"
        },
        {
          "internalType": "address",
          "name": "lender",
          "type": "address"
        },
        {
          "internalType": "uint256",
          "name": "blockNumber",
          "type": "uint256"
        },
        {
          "internalType": "uint256",
          "name": "interest",
          "type": "uint256"
        }
      ],
      "name": "submitInterestResult",
      "outputs": [],
      "payable": false,
      "stateMutability": "nonpayable",
      "type": "function"
    }
  ],
  "bytecode": "0x60806040523480156200001157600080fd5b506040516200263e3803806200263e8339818101604052620000379190810190620002b5565b8181620000596200004d620000b760201b60201c565b620000bf60201b60201c565b600082116200009f576040517f08c379a0000000000000000000000000000000000000000000000000000000008152600401620000969062000426565b60405180910390fd5b8160048190555080600581905550505050506200047d565b600033905090565b620000da8160016200012060201b620011bb1790919060201c565b8073ffffffffffffffffffffffffffffffffffffffff167f47d1c22a25bb3a5d4e481b9b1e6944c2eade3181a0a20b495ed61d35b5323f2460405160405180910390a250565b620001328282620001d360201b60201c565b1562000175576040517f08c379a00000000000000000000000000000000000000000000000000000000081526004016200016c90620003e2565b60405180910390fd5b60018260000160008373ffffffffffffffffffffffffffffffffffffffff1673ffffffffffffffffffffffffffffffffffffffff16815260200190815260200160002060006101000a81548160ff0219169083151502179055505050565b60008073ffffffffffffffffffffffffffffffffffffffff168273ffffffffffffffffffffffffffffffffffffffff16141562000247576040517f08c379a00000000000000000000000000000000000000000000000000000000081526004016200023e9062000404565b60405180910390fd5b8260000160008373ffffffffffffffffffffffffffffffffffffffff1673ffffffffffffffffffffffffffffffffffffffff16815260200190815260200160002060009054906101000a900460ff16905092915050565b600081519050620002af8162000463565b92915050565b60008060408385031215620002c957600080fd5b6000620002d9858286016200029e565b9250506020620002ec858286016200029e565b9150509250929050565b600062000305601f8362000448565b91507f526f6c65733a206163636f756e7420616c72656164792068617320726f6c65006000830152602082019050919050565b60006200034760228362000448565b91507f526f6c65733a206163636f756e7420697320746865207a65726f20616464726560008301527f73730000000000000000000000000000000000000000000000000000000000006020830152604082019050919050565b6000620003af60168362000448565b91507f56414c55455f4d5553545f42455f50524f5649444544000000000000000000006000830152602082019050919050565b60006020820190508181036000830152620003fd81620002f6565b9050919050565b600060208201905081810360008301526200041f8162000338565b9050919050565b600060208201905081810360008301526200044181620003a0565b9050919050565b600082825260208201905092915050565b6000819050919050565b6200046e8162000459565b81146200047a57600080fd5b50565b6121b1806200048d6000396000f3fe608060405234801561001057600080fd5b50600436106100a95760003560e01c806399ffe0651161007157806399ffe0651461017e578063b9f9e304146101ae578063c4d66de8146101cc578063e5c8b03d146101e8578063eb12d61e146101f2578063f0efe81f1461020e576100a9565b8063051e6ca5146100ae5780631c2fd3b0146100cc57806368fcdeb8146101005780637df73e27146101305780637f43394314610160575b600080fd5b6100b661022a565b6040516100c39190611d2c565b60405180910390f35b6100e660048036036100e1919081019061157a565b610250565b6040516100f7959493929190611f64565b60405180910390f35b61011a6004803603610115919081019061157a565b6102a0565b6040516101279190611ccc565b60405180910390f35b61014a60048036036101459190810190611502565b6102cf565b6040516101579190611ccc565b60405180910390f35b6101686102ec565b6040516101759190611f49565b60405180910390f35b6101986004803603610193919081019061152b565b6102f2565b6040516101a59190611ccc565b60405180910390f35b6101b661032e565b6040516101c39190611f49565b60405180910390f35b6101e660048036036101e19190810190611502565b610334565b005b6101f061043f565b005b61020c60048036036102079190810190611502565b610451565b005b610228600480360361022391908101906115b6565b6104ac565b005b600660009054906101000a900473ffffffffffffffffffffffffffffffffffffffff1681565b6007602052816000526040600020602052806000526040600020600091509150508060000154908060010154908060020154908060030154908060040160009054906101000a900460ff16905085565b60036020528160005260406000206020528060005260406000206000915091509054906101000a900460ff1681565b60006102e5826001610d5990919063ffffffff16565b9050919050565b60055481565b6002602052826000526040600020602052816000526040600020602052806000526040600020600092509250509054906101000a900460ff1681565b60045481565b6000809054906101000a900460ff1615610383576040517f08c379a000000000000000000000000000000000000000000000000000000000815260040161037a90611f09565b60405180910390fd5b600073ffffffffffffffffffffffffffffffffffffffff168173ffffffffffffffffffffffffffffffffffffffff1614156103f3576040517f08c379a00000000000000000000000000000000000000000000000000000000081526004016103ea90611d89565b60405180910390fd5b6103fb610e21565b80600660006101000a81548173ffffffffffffffffffffffffffffffffffffffff021916908373ffffffffffffffffffffffffffffffffffffffff16021790555050565b61044f61044a610e3d565b610e45565b565b61046161045c610e3d565b6102cf565b6104a0576040517f08c379a000000000000000000000000000000000000000000000000000000000815260040161049790611ec9565b60405180910390fd5b6104a981610e9f565b50565b6104bc6104b7610e3d565b6102cf565b6104fb576040517f08c379a00000000000000000000000000000000000000000000000000000000081526004016104f290611ec9565b60405180910390fd5b6000809054906101000a900460ff16610549576040517f08c379a000000000000000000000000000000000000000000000000000000000815260040161054090611e69565b60405180910390fd5b600260003373ffffffffffffffffffffffffffffffffffffffff1673ffffffffffffffffffffffffffffffffffffffff16815260200190815260200160002060008473ffffffffffffffffffffffffffffffffffffffff1673ffffffffffffffffffffffffffffffffffffffff168152602001908152602001600020600083815260200190815260200160002060009054906101000a900460ff1615610624576040517f08c379a000000000000000000000000000000000000000000000000000000000815260040161061b90611dc9565b60405180910390fd5b6001600260003373ffffffffffffffffffffffffffffffffffffffff1673ffffffffffffffffffffffffffffffffffffffff16815260200190815260200160002060008573ffffffffffffffffffffffffffffffffffffffff1673ffffffffffffffffffffffffffffffffffffffff168152602001908152602001600020600084815260200190815260200160002060006101000a81548160ff021916908315150217905550600360003373ffffffffffffffffffffffffffffffffffffffff1673ffffffffffffffffffffffffffffffffffffffff16815260200190815260200160002060008560000135815260200190815260200160002060009054906101000a900460ff161561076c576040517f08c379a000000000000000000000000000000000000000000000000000000000815260040161076390611e09565b60405180910390fd5b6001600360003373ffffffffffffffffffffffffffffffffffffffff1673ffffffffffffffffffffffffffffffffffffffff16815260200190815260200160002060008660000135815260200190815260200160002060006101000a81548160ff02191690831515021790555081600660009054906101000a900473ffffffffffffffffffffffffffffffffffffffff1673ffffffffffffffffffffffffffffffffffffffff1663ba485be5856040518263ffffffff1660e01b81526004016108359190611be2565b602060405180830381600087803b15801561084f57600080fd5b505af1158015610863573d6000803e3d6000fd5b505050506040513d601f19601f820116820180604052506108879190810190611642565b146108c7576040517f08c379a00000000000000000000000000000000000000000000000000000000081526004016108be90611d69565b60405180910390fd5b600760008473ffffffffffffffffffffffffffffffffffffffff1673ffffffffffffffffffffffffffffffffffffffff168152602001908152602001600020600083815260200190815260200160002060040160009054906101000a900460ff1615610968576040517f08c379a000000000000000000000000000000000000000000000000000000000815260040161095f90611ee9565b60405180910390fd5b600061097a8484848860000135610ef9565b9050610996858036036109909190810190611619565b82610f34565b6109d5576040517f08c379a00000000000000000000000000000000000000000000000000000000081526004016109cc90611ea9565b60405180910390fd5b6109dd6113d9565b600760008673ffffffffffffffffffffffffffffffffffffffff1673ffffffffffffffffffffffffffffffffffffffff16815260200190815260200160002060008581526020019081526020016000206040518060a0016040529081600082015481526020016001820154815260200160028201548152602001600382015481526020016004820160009054906101000a900460ff1615151515815250509050600081600001511415610abc576040518060a0016040528060018152602001848152602001848152602001848152602001600015158152509050610b1b565b8060400151831015610ad357828160400181815250505b8060200151831115610aea57828160200181815250505b610b01838260600151610ff290919063ffffffff16565b816060018181525050806000018051809190600101815250505b7f7d6550a9878cfdfddce2de5f82f7d7854eafcde6282730dcea0a67618b29dffc33868686604051610b509493929190611bfd565b60405180910390a1600454816000015110610cb55760018160800190151590811515815250506000610b938260000151836060015161104790919063ffffffff16565b9050610ba88260200151836040015183611091565b610be7576040517f08c379a0000000000000000000000000000000000000000000000000000000008152600401610bde90611f29565b60405180910390fd5b600660009054906101000a900473ffffffffffffffffffffffffffffffffffffffff1673ffffffffffffffffffffffffffffffffffffffff1663c23bedb48787846040518463ffffffff1660e01b8152600401610c4693929190611c95565b600060405180830381600087803b158015610c6057600080fd5b505af1158015610c74573d6000803e3d6000fd5b505050507fdd7b2ba0e06056c821cd1dd8902de23fcaaf6ab1f1eb11e44cf31f95799a4ed0868683604051610cab93929190611c95565b60405180910390a1505b80600760008773ffffffffffffffffffffffffffffffffffffffff1673ffffffffffffffffffffffffffffffffffffffff16815260200190815260200160002060008681526020019081526020016000206000820151816000015560208201518160010155604082015181600201556060820151816003015560808201518160040160006101000a81548160ff021916908315150217905550905050505050505050565b60008073ffffffffffffffffffffffffffffffffffffffff168273ffffffffffffffffffffffffffffffffffffffff161415610dca576040517f08c379a0000000000000000000000000000000000000000000000000000000008152600401610dc190611e89565b60405180910390fd5b8260000160008373ffffffffffffffffffffffffffffffffffffffff1673ffffffffffffffffffffffffffffffffffffffff16815260200190815260200160002060009054906101000a900460ff16905092915050565b60016000806101000a81548160ff021916908315150217905550565b600033905090565b610e5981600161111490919063ffffffff16565b8073ffffffffffffffffffffffffffffffffffffffff167f3525e22824a8a7df2c9a6029941c824cf95b6447f1e13d5128fd3826d35afe8b60405160405180910390a250565b610eb38160016111bb90919063ffffffff16565b8073ffffffffffffffffffffffffffffffffffffffff167f47d1c22a25bb3a5d4e481b9b1e6944c2eade3181a0a20b495ed61d35b5323f2460405160405180910390a250565b60003085858585604051602001610f14959493929190611c42565b604051602081830303815290604052805190602001209050949350505050565b600080600183604051602001610f4a9190611bbc565b6040516020818303038152906040528051906020012085602001518660400151876060015160405160008152602001604052604051610f8c9493929190611ce7565b6020604051602081039080840390855afa158015610fae573d6000803e3d6000fd5b5050506020604051035190503373ffffffffffffffffffffffffffffffffffffffff168173ffffffffffffffffffffffffffffffffffffffff161491505092915050565b60008082840190508381101561103d576040517f08c379a000000000000000000000000000000000000000000000000000000000815260040161103490611de9565b60405180910390fd5b8091505092915050565b600061108983836040518060400160405280601a81526020017f536166654d6174683a206469766973696f6e206279207a65726f000000000000815250611263565b905092915050565b6000806110bd6127106110af600554866112c490919063ffffffff16565b61104790919063ffffffff16565b90506110d2818461133490919063ffffffff16565b8410156110e357600091505061110d565b6110f68184610ff290919063ffffffff16565b85111561110757600091505061110d565b60019150505b9392505050565b61111e8282610d59565b61115d576040517f08c379a000000000000000000000000000000000000000000000000000000000815260040161115490611e29565b60405180910390fd5b60008260000160008373ffffffffffffffffffffffffffffffffffffffff1673ffffffffffffffffffffffffffffffffffffffff16815260200190815260200160002060006101000a81548160ff0219169083151502179055505050565b6111c58282610d59565b15611205576040517f08c379a00000000000000000000000000000000000000000000000000000000081526004016111fc90611da9565b60405180910390fd5b60018260000160008373ffffffffffffffffffffffffffffffffffffffff1673ffffffffffffffffffffffffffffffffffffffff16815260200190815260200160002060006101000a81548160ff0219169083151502179055505050565b600080831182906112aa576040517f08c379a00000000000000000000000000000000000000000000000000000000081526004016112a19190611d47565b60405180910390fd5b5060008385816112b657fe5b049050809150509392505050565b6000808314156112d7576000905061132e565b60008284029050828482816112e857fe5b0414611329576040517f08c379a000000000000000000000000000000000000000000000000000000000815260040161132090611e49565b60405180910390fd5b809150505b92915050565b600061137683836040518060400160405280601e81526020017f536166654d6174683a207375627472616374696f6e206f766572666c6f77000081525061137e565b905092915050565b60008383111582906113c6576040517f08c379a00000000000000000000000000000000000000000000000000000000081526004016113bd9190611d47565b60405180910390fd5b5060008385039050809150509392505050565b6040518060a00160405280600081526020016000815260200160008152602001600081526020016000151581525090565b60008135905061141981612112565b92915050565b60008135905061142e81612129565b92915050565b60006080828403121561144657600080fd5b81905092915050565b60006080828403121561146157600080fd5b61146b6080611fb7565b9050600061147b848285016114c3565b600083015250602061148f848285016114ed565b60208301525060406114a38482850161141f565b60408301525060606114b78482850161141f565b60608301525092915050565b6000813590506114d281612140565b92915050565b6000815190506114e781612140565b92915050565b6000813590506114fc81612157565b92915050565b60006020828403121561151457600080fd5b60006115228482850161140a565b91505092915050565b60008060006060848603121561154057600080fd5b600061154e8682870161140a565b935050602061155f8682870161140a565b9250506040611570868287016114c3565b9150509250925092565b6000806040838503121561158d57600080fd5b600061159b8582860161140a565b92505060206115ac858286016114c3565b9150509250929050565b60008060008060e085870312156115cc57600080fd5b60006115da87828801611434565b94505060806115eb8782880161140a565b93505060a06115fc878288016114c3565b92505060c061160d878288016114c3565b91505092959194509250565b60006080828403121561162b57600080fd5b60006116398482850161144f565b91505092915050565b60006020828403121561165457600080fd5b6000611662848285016114d8565b91505092915050565b6116748161206a565b82525050565b6116838161200b565b82525050565b6116928161201d565b82525050565b6116a181612029565b82525050565b6116b86116b382612029565b6120f7565b82525050565b6116c78161207c565b82525050565b60006116d882611fe4565b6116e28185611fef565b93506116f28185602086016120c4565b6116fb81612101565b840191505092915050565b6000611713601683611fef565b91507f494e5445524553545f4e4f545f524551554553544544000000000000000000006000830152602082019050919050565b6000611753601883611fef565b91507f4d5553545f50524f564944455f4c454e4445525f494e464f00000000000000006000830152602082019050919050565b6000611793601f83611fef565b91507f526f6c65733a206163636f756e7420616c72656164792068617320726f6c65006000830152602082019050919050565b60006117d3601c83612000565b91507f19457468657265756d205369676e6564204d6573736167653a0a3332000000006000830152601c82019050919050565b6000611813601883611fef565b91507f5349474e45525f414c52454144595f5355424d495454454400000000000000006000830152602082019050919050565b6000611853601b83611fef565b91507f536166654d6174683a206164646974696f6e206f766572666c6f7700000000006000830152602082019050919050565b6000611893601283611fef565b91507f5349474e45525f4e4f4e43455f54414b454e00000000000000000000000000006000830152602082019050919050565b60006118d3602183611fef565b91507f526f6c65733a206163636f756e7420646f6573206e6f74206861766520726f6c60008301527f65000000000000000000000000000000000000000000000000000000000000006020830152604082019050919050565b6000611939602183611fef565b91507f536166654d6174683a206d756c7469706c69636174696f6e206f766572666c6f60008301527f77000000000000000000000000000000000000000000000000000000000000006020830152604082019050919050565b600061199f601683611fef565b91507f4974206973206e6f7420696e697469616c697a65642e000000000000000000006000830152602082019050919050565b60006119df602283611fef565b91507f526f6c65733a206163636f756e7420697320746865207a65726f20616464726560008301527f73730000000000000000000000000000000000000000000000000000000000006020830152604082019050919050565b6000611a45601383611fef565b91507f5349474e41545552455f4e4f545f56414c4944000000000000000000000000006000830152602082019050919050565b6000611a85603083611fef565b91507f5369676e6572526f6c653a2063616c6c657220646f6573206e6f74206861766560008301527f20746865205369676e657220726f6c65000000000000000000000000000000006020830152604082019050919050565b6000611aeb601a83611fef565b91507f494e5445524553545f414c52454144595f46494e414c495a45440000000000006000830152602082019050919050565b6000611b2b601a83611fef565b91507f497420697320616c726561647920696e697469616c697a65642e0000000000006000830152602082019050919050565b6000611b6b601b83611fef565b91507f4d4158494d554d5f544f4c4552414e43455f53555250415353454400000000006000830152602082019050919050565b611ba781612053565b82525050565b611bb68161205d565b82525050565b6000611bc7826117c6565b9150611bd382846116a7565b60208201915081905092915050565b6000602082019050611bf7600083018461167a565b92915050565b6000608082019050611c12600083018761166b565b611c1f602083018661167a565b611c2c6040830185611b9e565b611c396060830184611b9e565b95945050505050565b600060a082019050611c57600083018861167a565b611c64602083018761167a565b611c716040830186611b9e565b611c7e6060830185611b9e565b611c8b6080830184611b9e565b9695505050505050565b6000606082019050611caa600083018661167a565b611cb76020830185611b9e565b611cc46040830184611b9e565b949350505050565b6000602082019050611ce16000830184611689565b92915050565b6000608082019050611cfc6000830187611698565b611d096020830186611bad565b611d166040830185611698565b611d236060830184611698565b95945050505050565b6000602082019050611d4160008301846116be565b92915050565b60006020820190508181036000830152611d6181846116cd565b905092915050565b60006020820190508181036000830152611d8281611706565b9050919050565b60006020820190508181036000830152611da281611746565b9050919050565b60006020820190508181036000830152611dc281611786565b9050919050565b60006020820190508181036000830152611de281611806565b9050919050565b60006020820190508181036000830152611e0281611846565b9050919050565b60006020820190508181036000830152611e2281611886565b9050919050565b60006020820190508181036000830152611e42816118c6565b9050919050565b60006020820190508181036000830152611e628161192c565b9050919050565b60006020820190508181036000830152611e8281611992565b9050919050565b60006020820190508181036000830152611ea2816119d2565b9050919050565b60006020820190508181036000830152611ec281611a38565b9050919050565b60006020820190508181036000830152611ee281611a78565b9050919050565b60006020820190508181036000830152611f0281611ade565b9050919050565b60006020820190508181036000830152611f2281611b1e565b9050919050565b60006020820190508181036000830152611f4281611b5e565b9050919050565b6000602082019050611f5e6000830184611b9e565b92915050565b600060a082019050611f796000830188611b9e565b611f866020830187611b9e565b611f936040830186611b9e565b611fa06060830185611b9e565b611fad6080830184611689565b9695505050505050565b6000604051905081810181811067ffffffffffffffff82111715611fda57600080fd5b8060405250919050565b600081519050919050565b600082825260208201905092915050565b600081905092915050565b600061201682612033565b9050919050565b60008115159050919050565b6000819050919050565b600073ffffffffffffffffffffffffffffffffffffffff82169050919050565b6000819050919050565b600060ff82169050919050565b6000612075826120a0565b9050919050565b60006120878261208e565b9050919050565b600061209982612033565b9050919050565b60006120ab826120b2565b9050919050565b60006120bd82612033565b9050919050565b60005b838110156120e25780820151818401526020810190506120c7565b838111156120f1576000848401525b50505050565b6000819050919050565b6000601f19601f8301169050919050565b61211b8161200b565b811461212657600080fd5b50565b61213281612029565b811461213d57600080fd5b50565b61214981612053565b811461215457600080fd5b50565b6121608161205d565b811461216b57600080fd5b5056fea365627a7a7231582032fdd5e19d65a63c6ec551288061b3ee9e4985b3d24dd98f7420c0c2645abbbb6c6578706572696d656e74616cf564736f6c63430005110040",
  "source": "/*\n    Copyright 2020 Fabrx Labs Inc.\n\n    Licensed under the Apache License, Version 2.0 (the \"License\");\n    you may not use this file except in compliance with the License.\n    You may obtain a copy of the License at\n\n    http://www.apache.org/licenses/LICENSE-2.0\n\n    Unless required by applicable law or agreed to in writing, software\n    distributed under the License is distributed on an \"AS IS\" BASIS,\n    WITHOUT WARRANTIES OR CONDITIONS OF ANY KIND, either express or implied.\n    See the License for the specific language governing permissions and\n    limitations under the License.\n*/\npragma solidity 0.5.17;\npragma experimental ABIEncoderV2;\n\n// Libraries\nimport \"openzeppelin-solidity/contracts/math/SafeMath.sol\";\n\n// Interfaces\nimport \"../interfaces/LendersInterface.sol\";\nimport \"../interfaces/InterestConsensusInterface.sol\";\n\n// Contracts\nimport \"./Initializable.sol\";\nimport \"./Consensus.sol\";\n\n\ncontract InterestConsensus is Initializable, Consensus, InterestConsensusInterface {\n    using SafeMath for uint256;\n\n    LendersInterface public lenders;\n\n    // mapping of (lender, blockNumber) to the aggregated node submissions for their request\n    mapping(address => mapping(uint256 => ZeroCollateralCommon.AggregatedInterest)) public nodeSubmissions;\n\n    constructor(uint256 initRequiredSubmissions, uint256 initMaximumTolerance)\n        public\n        Consensus(initRequiredSubmissions, initMaximumTolerance)\n    {}\n\n    function initialize(address lendersAddress) public isNotInitialized() {\n        require(lendersAddress != address(0), \"MUST_PROVIDE_LENDER_INFO\");\n\n        initialize();\n\n        lenders = LendersInterface(lendersAddress);\n    }\n\n    function submitInterestResult(\n        ZeroCollateralCommon.Signature calldata signature,\n        address lender,\n        uint256 blockNumber,\n        uint256 interest\n    ) external onlySigner() isInitialized() {\n        require(\n            !hasSubmitted[msg.sender][lender][blockNumber],\n            \"SIGNER_ALREADY_SUBMITTED\"\n        );\n        hasSubmitted[msg.sender][lender][blockNumber] = true;\n\n        require(\n            !signerNonceTaken[msg.sender][signature.signerNonce],\n            \"SIGNER_NONCE_TAKEN\"\n        );\n        signerNonceTaken[msg.sender][signature.signerNonce] = true;\n\n        require(\n            lenders.requestedInterestUpdate(lender) == blockNumber,\n            \"INTEREST_NOT_REQUESTED\"\n        );\n\n        require(\n            !nodeSubmissions[lender][blockNumber].finalized,\n            \"INTEREST_ALREADY_FINALIZED\"\n        );\n\n        bytes32 hashedData = _hashData(\n            lender,\n            blockNumber,\n            interest,\n            signature.signerNonce\n        );\n        require(_signatureValid(signature, hashedData), \"SIGNATURE_NOT_VALID\");\n\n\n            ZeroCollateralCommon.AggregatedInterest memory aggregatedData\n         = nodeSubmissions[lender][blockNumber];\n\n        // if this is the first submission for this request\n        if (aggregatedData.totalSubmissions == 0) {\n            aggregatedData = ZeroCollateralCommon.AggregatedInterest({\n                totalSubmissions: 1,\n                minValue: interest,\n                maxValue: interest,\n                sumOfValues: interest,\n                finalized: false\n            });\n        } else {\n            if (interest < aggregatedData.minValue) {\n                aggregatedData.minValue = interest;\n            }\n            if (interest > aggregatedData.maxValue) {\n                aggregatedData.maxValue = interest;\n            }\n\n            aggregatedData.sumOfValues = aggregatedData.sumOfValues.add(interest);\n            aggregatedData.totalSubmissions++;\n        }\n\n        emit InterestSubmitted(msg.sender, lender, blockNumber, interest);\n\n        if (aggregatedData.totalSubmissions >= requiredSubmissions) {\n            aggregatedData.finalized = true;\n\n            // average the submissions\n            uint256 finalInterest = aggregatedData.sumOfValues.div(\n                aggregatedData.totalSubmissions\n            );\n\n            require(\n                _resultsWithinTolerance(\n                    aggregatedData.maxValue,\n                    aggregatedData.minValue,\n                    finalInterest\n                ),\n                \"MAXIMUM_TOLERANCE_SURPASSED\"\n            );\n\n            lenders.setAccruedInterest(lender, blockNumber, finalInterest);\n\n            emit InterestAccepted(lender, blockNumber, finalInterest);\n        }\n\n        nodeSubmissions[lender][blockNumber] = aggregatedData;\n    }\n\n    function _hashData(\n        address lender,\n        uint256 blockNumber,\n        uint256 interest,\n        uint256 signerNonce\n    ) internal view returns (bytes32) {\n        return\n            keccak256(\n                abi.encode(address(this), lender, blockNumber, interest, signerNonce)\n            );\n    }\n}\n",
  "sourcePath": "/home/jalil/Programs/zero-collateral-v1/contracts/base/InterestConsensus.sol",
  "compiler": {
    "name": "solc",
    "version": "0.5.17+commit.d19bba13.Emscripten.clang"
  },
  "schemaVersion": "3.0.23",
  "updatedAt": "2020-04-29T14:20:38.782Z",
  "devdoc": {
    "methods": {}
  },
  "userdoc": {
    "methods": {}
  }
}