{
  "contractName": "InterestConsensusMock",
  "abi": [
    {
      "inputs": [
        {
          "internalType": "uint256",
          "name": "initRequiredSubmissions",
          "type": "uint256"
        },
        {
          "internalType": "uint256",
          "name": "initMaximumTolerance",
          "type": "uint256"
        }
      ],
      "payable": false,
      "stateMutability": "nonpayable",
      "type": "constructor"
    },
    {
      "anonymous": false,
      "inputs": [
        {
          "indexed": false,
          "internalType": "address",
          "name": "lender",
          "type": "address"
        },
        {
          "indexed": false,
          "internalType": "uint256",
          "name": "blockNumber",
          "type": "uint256"
        },
        {
          "indexed": false,
          "internalType": "uint256",
          "name": "interest",
          "type": "uint256"
        }
      ],
      "name": "InterestAccepted",
      "type": "event"
    },
    {
      "anonymous": false,
      "inputs": [
        {
          "indexed": false,
          "internalType": "address",
          "name": "signer",
          "type": "address"
        },
        {
          "indexed": false,
          "internalType": "address",
          "name": "lender",
          "type": "address"
        },
        {
          "indexed": false,
          "internalType": "uint256",
          "name": "blockNumber",
          "type": "uint256"
        },
        {
          "indexed": false,
          "internalType": "uint256",
          "name": "interest",
          "type": "uint256"
        }
      ],
      "name": "InterestSubmitted",
      "type": "event"
    },
    {
      "anonymous": false,
      "inputs": [
        {
          "indexed": true,
          "internalType": "address",
          "name": "account",
          "type": "address"
        }
      ],
      "name": "SignerAdded",
      "type": "event"
    },
    {
      "anonymous": false,
      "inputs": [
        {
          "indexed": true,
          "internalType": "address",
          "name": "account",
          "type": "address"
        }
      ],
      "name": "SignerRemoved",
      "type": "event"
    },
    {
      "constant": false,
      "inputs": [
        {
          "internalType": "address",
          "name": "account",
          "type": "address"
        }
      ],
      "name": "addSigner",
      "outputs": [],
      "payable": false,
      "stateMutability": "nonpayable",
      "type": "function"
    },
    {
      "constant": true,
      "inputs": [
        {
          "internalType": "address",
          "name": "",
          "type": "address"
        },
        {
          "internalType": "address",
          "name": "",
          "type": "address"
        },
        {
          "internalType": "uint256",
          "name": "",
          "type": "uint256"
        }
      ],
      "name": "hasSubmitted",
      "outputs": [
        {
          "internalType": "bool",
          "name": "",
          "type": "bool"
        }
      ],
      "payable": false,
      "stateMutability": "view",
      "type": "function"
    },
    {
      "constant": false,
      "inputs": [
        {
          "internalType": "address",
          "name": "lendersAddress",
          "type": "address"
        }
      ],
      "name": "initialize",
      "outputs": [],
      "payable": false,
      "stateMutability": "nonpayable",
      "type": "function"
    },
    {
      "constant": true,
      "inputs": [
        {
          "internalType": "address",
          "name": "account",
          "type": "address"
        }
      ],
      "name": "isSigner",
      "outputs": [
        {
          "internalType": "bool",
          "name": "",
          "type": "bool"
        }
      ],
      "payable": false,
      "stateMutability": "view",
      "type": "function"
    },
    {
      "constant": true,
      "inputs": [],
      "name": "lenders",
      "outputs": [
        {
          "internalType": "contract LendersInterface",
          "name": "",
          "type": "address"
        }
      ],
      "payable": false,
      "stateMutability": "view",
      "type": "function"
    },
    {
      "constant": true,
      "inputs": [],
      "name": "maximumTolerance",
      "outputs": [
        {
          "internalType": "uint256",
          "name": "",
          "type": "uint256"
        }
      ],
      "payable": false,
      "stateMutability": "view",
      "type": "function"
    },
    {
      "constant": true,
      "inputs": [
        {
          "internalType": "address",
          "name": "",
          "type": "address"
        },
        {
          "internalType": "uint256",
          "name": "",
          "type": "uint256"
        }
      ],
      "name": "nodeSubmissions",
      "outputs": [
        {
          "internalType": "uint256",
          "name": "totalSubmissions",
          "type": "uint256"
        },
        {
          "internalType": "uint256",
          "name": "maxValue",
          "type": "uint256"
        },
        {
          "internalType": "uint256",
          "name": "minValue",
          "type": "uint256"
        },
        {
          "internalType": "uint256",
          "name": "sumOfValues",
          "type": "uint256"
        },
        {
          "internalType": "bool",
          "name": "finalized",
          "type": "bool"
        }
      ],
      "payable": false,
      "stateMutability": "view",
      "type": "function"
    },
    {
      "constant": false,
      "inputs": [],
      "name": "renounceSigner",
      "outputs": [],
      "payable": false,
      "stateMutability": "nonpayable",
      "type": "function"
    },
    {
      "constant": true,
      "inputs": [],
      "name": "requiredSubmissions",
      "outputs": [
        {
          "internalType": "uint256",
          "name": "",
          "type": "uint256"
        }
      ],
      "payable": false,
      "stateMutability": "view",
      "type": "function"
    },
    {
      "constant": true,
      "inputs": [
        {
          "internalType": "address",
          "name": "",
          "type": "address"
        },
        {
          "internalType": "uint256",
          "name": "",
          "type": "uint256"
        }
      ],
      "name": "signerNonceTaken",
      "outputs": [
        {
          "internalType": "bool",
          "name": "",
          "type": "bool"
        }
      ],
      "payable": false,
      "stateMutability": "view",
      "type": "function"
    },
    {
      "constant": false,
      "inputs": [
        {
          "components": [
            {
              "internalType": "uint256",
              "name": "signerNonce",
              "type": "uint256"
            },
            {
              "internalType": "uint8",
              "name": "v",
              "type": "uint8"
            },
            {
              "internalType": "bytes32",
              "name": "r",
              "type": "bytes32"
            },
            {
              "internalType": "bytes32",
              "name": "s",
              "type": "bytes32"
            }
          ],
          "internalType": "struct ZeroCollateralCommon.Signature",
          "name": "signature",
          "type": "tuple"
        },
        {
          "internalType": "address",
          "name": "lender",
          "type": "address"
        },
        {
          "internalType": "uint256",
          "name": "blockNumber",
          "type": "uint256"
        },
        {
          "internalType": "uint256",
          "name": "interest",
          "type": "uint256"
        }
      ],
      "name": "submitInterestResult",
      "outputs": [],
      "payable": false,
      "stateMutability": "nonpayable",
      "type": "function"
    },
    {
      "constant": false,
      "inputs": [
        {
          "internalType": "address",
          "name": "lender",
          "type": "address"
        },
        {
          "internalType": "uint256",
          "name": "blockNumber",
          "type": "uint256"
        },
        {
          "internalType": "uint256",
          "name": "totalSubmissions",
          "type": "uint256"
        },
        {
          "internalType": "uint256",
          "name": "maxValue",
          "type": "uint256"
        },
        {
          "internalType": "uint256",
          "name": "minValue",
          "type": "uint256"
        },
        {
          "internalType": "uint256",
          "name": "sumOfValues",
          "type": "uint256"
        },
        {
          "internalType": "bool",
          "name": "finalized",
          "type": "bool"
        }
      ],
      "name": "mockNodeSubmissions",
      "outputs": [],
      "payable": false,
      "stateMutability": "nonpayable",
      "type": "function"
    },
    {
      "constant": false,
      "inputs": [
        {
          "internalType": "address",
          "name": "signer",
          "type": "address"
        },
        {
          "internalType": "address",
          "name": "lender",
          "type": "address"
        },
        {
          "internalType": "uint256",
          "name": "blockNumber",
          "type": "uint256"
        },
        {
          "internalType": "bool",
          "name": "hasSub",
          "type": "bool"
        }
      ],
      "name": "mockHasSubmitted",
      "outputs": [],
      "payable": false,
      "stateMutability": "nonpayable",
      "type": "function"
    },
    {
      "constant": false,
      "inputs": [
        {
          "internalType": "address",
          "name": "signer",
          "type": "address"
        },
        {
          "internalType": "uint256",
          "name": "signerNonce",
          "type": "uint256"
        },
        {
          "internalType": "bool",
          "name": "taken",
          "type": "bool"
        }
      ],
      "name": "mockSignerNonce",
      "outputs": [],
      "payable": false,
      "stateMutability": "nonpayable",
      "type": "function"
    },
    {
      "constant": true,
      "inputs": [
        {
          "internalType": "address",
          "name": "lender",
          "type": "address"
        },
        {
          "internalType": "uint256",
          "name": "blockNumber",
          "type": "uint256"
        },
        {
          "internalType": "uint256",
          "name": "interest",
          "type": "uint256"
        },
        {
          "internalType": "uint256",
          "name": "signerNonce",
          "type": "uint256"
        }
      ],
      "name": "externalHashData",
      "outputs": [
        {
          "internalType": "bytes32",
          "name": "",
          "type": "bytes32"
        }
      ],
      "payable": false,
      "stateMutability": "view",
      "type": "function"
    }
  ],
  "bytecode": "0x60806040523480156200001157600080fd5b5060405162002b0938038062002b098339818101604052620000379190810190620002b9565b818181816200005b6200004f620000bb60201b60201c565b620000c360201b60201c565b60008211620000a1576040517f08c379a000000000000000000000000000000000000000000000000000000000815260040162000098906200042a565b60405180910390fd5b816004819055508060058190555050505050505062000481565b600033905090565b620000de8160016200012460201b620014881790919060201c565b8073ffffffffffffffffffffffffffffffffffffffff167f47d1c22a25bb3a5d4e481b9b1e6944c2eade3181a0a20b495ed61d35b5323f2460405160405180910390a250565b620001368282620001d760201b60201c565b1562000179576040517f08c379a00000000000000000000000000000000000000000000000000000000081526004016200017090620003e6565b60405180910390fd5b60018260000160008373ffffffffffffffffffffffffffffffffffffffff1673ffffffffffffffffffffffffffffffffffffffff16815260200190815260200160002060006101000a81548160ff0219169083151502179055505050565b60008073ffffffffffffffffffffffffffffffffffffffff168273ffffffffffffffffffffffffffffffffffffffff1614156200024b576040517f08c379a0000000000000000000000000000000000000000000000000000000008152600401620002429062000408565b60405180910390fd5b8260000160008373ffffffffffffffffffffffffffffffffffffffff1673ffffffffffffffffffffffffffffffffffffffff16815260200190815260200160002060009054906101000a900460ff16905092915050565b600081519050620002b38162000467565b92915050565b60008060408385031215620002cd57600080fd5b6000620002dd85828601620002a2565b9250506020620002f085828601620002a2565b9150509250929050565b600062000309601f836200044c565b91507f526f6c65733a206163636f756e7420616c72656164792068617320726f6c65006000830152602082019050919050565b60006200034b6022836200044c565b91507f526f6c65733a206163636f756e7420697320746865207a65726f20616464726560008301527f73730000000000000000000000000000000000000000000000000000000000006020830152604082019050919050565b6000620003b36016836200044c565b91507f56414c55455f4d5553545f42455f50524f5649444544000000000000000000006000830152602082019050919050565b600060208201905081810360008301526200040181620002fa565b9050919050565b6000602082019050818103600083015262000423816200033c565b9050919050565b600060208201905081810360008301526200044581620003a4565b9050919050565b600082825260208201905092915050565b6000819050919050565b62000472816200045d565b81146200047e57600080fd5b50565b61267880620004916000396000f3fe608060405234801561001057600080fd5b50600436106100f55760003560e01c806399ffe06511610097578063db43f25911610066578063db43f2591461029c578063e5c8b03d146102b8578063eb12d61e146102c2578063f0efe81f146102de576100f5565b806399ffe06514610216578063b9f9e30414610246578063c4d66de814610264578063d43fae9a14610280576100f5565b80635f29b05b116100d35780635f29b05b1461016857806368fcdeb8146101985780637df73e27146101c85780637f433943146101f8576100f5565b8063051e6ca5146100fa5780631c2fd3b0146101185780631d37e8821461014c575b600080fd5b6101026102fa565b60405161010f91906121dc565b60405180910390f35b610132600480360361012d91908101906118bf565b610320565b604051610143959493929190612414565b60405180910390f35b6101666004803603610161919081019061185c565b610370565b005b610182600480360361017d919081019061194a565b61041b565b60405161018f919061217c565b60405180910390f35b6101b260048036036101ad91908101906118bf565b610433565b6040516101bf9190612161565b60405180910390f35b6101e260048036036101dd91908101906117e4565b610462565b6040516101ef9190612161565b60405180910390f35b61020061047f565b60405161020d91906123f9565b60405180910390f35b610230600480360361022b919081019061180d565b610485565b60405161023d9190612161565b60405180910390f35b61024e6104c1565b60405161025b91906123f9565b60405180910390f35b61027e600480360361027991908101906117e4565b6104c7565b005b61029a600480360361029591908101906119ad565b6105d2565b005b6102b660048036036102b191908101906118fb565b61069f565b005b6102c061070c565b005b6102dc60048036036102d791908101906117e4565b61071e565b005b6102f860048036036102f39190810190611a4b565b610779565b005b600660009054906101000a900473ffffffffffffffffffffffffffffffffffffffff1681565b6007602052816000526040600020602052806000526040600020600091509150508060000154908060010154908060020154908060030154908060040160009054906101000a900460ff16905085565b80600260008673ffffffffffffffffffffffffffffffffffffffff1673ffffffffffffffffffffffffffffffffffffffff16815260200190815260200160002060008573ffffffffffffffffffffffffffffffffffffffff1673ffffffffffffffffffffffffffffffffffffffff168152602001908152602001600020600084815260200190815260200160002060006101000a81548160ff02191690831515021790555050505050565b600061042985858585611026565b9050949350505050565b60036020528160005260406000206020528060005260406000206000915091509054906101000a900460ff1681565b600061047882600161106190919063ffffffff16565b9050919050565b60055481565b6002602052826000526040600020602052816000526040600020602052806000526040600020600092509250509054906101000a900460ff1681565b60045481565b6000809054906101000a900460ff1615610516576040517f08c379a000000000000000000000000000000000000000000000000000000000815260040161050d906123b9565b60405180910390fd5b600073ffffffffffffffffffffffffffffffffffffffff168173ffffffffffffffffffffffffffffffffffffffff161415610586576040517f08c379a000000000000000000000000000000000000000000000000000000000815260040161057d90612239565b60405180910390fd5b61058e611129565b80600660006101000a81548173ffffffffffffffffffffffffffffffffffffffff021916908373ffffffffffffffffffffffffffffffffffffffff16021790555050565b6040518060a00160405280868152602001858152602001848152602001838152602001821515815250600760008973ffffffffffffffffffffffffffffffffffffffff1673ffffffffffffffffffffffffffffffffffffffff16815260200190815260200160002060008881526020019081526020016000206000820151816000015560208201518160010155604082015181600201556060820151816003015560808201518160040160006101000a81548160ff02191690831515021790555090505050505050505050565b80600360008573ffffffffffffffffffffffffffffffffffffffff1673ffffffffffffffffffffffffffffffffffffffff168152602001908152602001600020600084815260200190815260200160002060006101000a81548160ff021916908315150217905550505050565b61071c610717611145565b61114d565b565b61072e610729611145565b610462565b61076d576040517f08c379a000000000000000000000000000000000000000000000000000000000815260040161076490612379565b60405180910390fd5b610776816111a7565b50565b610789610784611145565b610462565b6107c8576040517f08c379a00000000000000000000000000000000000000000000000000000000081526004016107bf90612379565b60405180910390fd5b6000809054906101000a900460ff16610816576040517f08c379a000000000000000000000000000000000000000000000000000000000815260040161080d90612319565b60405180910390fd5b600260003373ffffffffffffffffffffffffffffffffffffffff1673ffffffffffffffffffffffffffffffffffffffff16815260200190815260200160002060008473ffffffffffffffffffffffffffffffffffffffff1673ffffffffffffffffffffffffffffffffffffffff168152602001908152602001600020600083815260200190815260200160002060009054906101000a900460ff16156108f1576040517f08c379a00000000000000000000000000000000000000000000000000000000081526004016108e890612279565b60405180910390fd5b6001600260003373ffffffffffffffffffffffffffffffffffffffff1673ffffffffffffffffffffffffffffffffffffffff16815260200190815260200160002060008573ffffffffffffffffffffffffffffffffffffffff1673ffffffffffffffffffffffffffffffffffffffff168152602001908152602001600020600084815260200190815260200160002060006101000a81548160ff021916908315150217905550600360003373ffffffffffffffffffffffffffffffffffffffff1673ffffffffffffffffffffffffffffffffffffffff16815260200190815260200160002060008560000135815260200190815260200160002060009054906101000a900460ff1615610a39576040517f08c379a0000000000000000000000000000000000000000000000000000000008152600401610a30906122b9565b60405180910390fd5b6001600360003373ffffffffffffffffffffffffffffffffffffffff1673ffffffffffffffffffffffffffffffffffffffff16815260200190815260200160002060008660000135815260200190815260200160002060006101000a81548160ff02191690831515021790555081600660009054906101000a900473ffffffffffffffffffffffffffffffffffffffff1673ffffffffffffffffffffffffffffffffffffffff1663ba485be5856040518263ffffffff1660e01b8152600401610b029190612077565b602060405180830381600087803b158015610b1c57600080fd5b505af1158015610b30573d6000803e3d6000fd5b505050506040513d601f19601f82011682018060405250610b549190810190611ad7565b14610b94576040517f08c379a0000000000000000000000000000000000000000000000000000000008152600401610b8b90612219565b60405180910390fd5b600760008473ffffffffffffffffffffffffffffffffffffffff1673ffffffffffffffffffffffffffffffffffffffff168152602001908152602001600020600083815260200190815260200160002060040160009054906101000a900460ff1615610c35576040517f08c379a0000000000000000000000000000000000000000000000000000000008152600401610c2c90612399565b60405180910390fd5b6000610c478484848860000135611026565b9050610c6385803603610c5d9190810190611aae565b82611201565b610ca2576040517f08c379a0000000000000000000000000000000000000000000000000000000008152600401610c9990612359565b60405180910390fd5b610caa6116a6565b600760008673ffffffffffffffffffffffffffffffffffffffff1673ffffffffffffffffffffffffffffffffffffffff16815260200190815260200160002060008581526020019081526020016000206040518060a0016040529081600082015481526020016001820154815260200160028201548152602001600382015481526020016004820160009054906101000a900460ff1615151515815250509050600081600001511415610d89576040518060a0016040528060018152602001848152602001848152602001848152602001600015158152509050610de8565b8060400151831015610da057828160400181815250505b8060200151831115610db757828160200181815250505b610dce8382606001516112bf90919063ffffffff16565b816060018181525050806000018051809190600101815250505b7f7d6550a9878cfdfddce2de5f82f7d7854eafcde6282730dcea0a67618b29dffc33868686604051610e1d9493929190612092565b60405180910390a1600454816000015110610f825760018160800190151590811515815250506000610e608260000151836060015161131490919063ffffffff16565b9050610e75826020015183604001518361135e565b610eb4576040517f08c379a0000000000000000000000000000000000000000000000000000000008152600401610eab906123d9565b60405180910390fd5b600660009054906101000a900473ffffffffffffffffffffffffffffffffffffffff1673ffffffffffffffffffffffffffffffffffffffff1663c23bedb48787846040518463ffffffff1660e01b8152600401610f139392919061212a565b600060405180830381600087803b158015610f2d57600080fd5b505af1158015610f41573d6000803e3d6000fd5b505050507fdd7b2ba0e06056c821cd1dd8902de23fcaaf6ab1f1eb11e44cf31f95799a4ed0868683604051610f789392919061212a565b60405180910390a1505b80600760008773ffffffffffffffffffffffffffffffffffffffff1673ffffffffffffffffffffffffffffffffffffffff16815260200190815260200160002060008681526020019081526020016000206000820151816000015560208201518160010155604082015181600201556060820151816003015560808201518160040160006101000a81548160ff021916908315150217905550905050505050505050565b600030858585856040516020016110419594939291906120d7565b604051602081830303815290604052805190602001209050949350505050565b60008073ffffffffffffffffffffffffffffffffffffffff168273ffffffffffffffffffffffffffffffffffffffff1614156110d2576040517f08c379a00000000000000000000000000000000000000000000000000000000081526004016110c990612339565b60405180910390fd5b8260000160008373ffffffffffffffffffffffffffffffffffffffff1673ffffffffffffffffffffffffffffffffffffffff16815260200190815260200160002060009054906101000a900460ff16905092915050565b60016000806101000a81548160ff021916908315150217905550565b600033905090565b6111618160016113e190919063ffffffff16565b8073ffffffffffffffffffffffffffffffffffffffff167f3525e22824a8a7df2c9a6029941c824cf95b6447f1e13d5128fd3826d35afe8b60405160405180910390a250565b6111bb81600161148890919063ffffffff16565b8073ffffffffffffffffffffffffffffffffffffffff167f47d1c22a25bb3a5d4e481b9b1e6944c2eade3181a0a20b495ed61d35b5323f2460405160405180910390a250565b6000806001836040516020016112179190612051565b60405160208183030381529060405280519060200120856020015186604001518760600151604051600081526020016040526040516112599493929190612197565b6020604051602081039080840390855afa15801561127b573d6000803e3d6000fd5b5050506020604051035190503373ffffffffffffffffffffffffffffffffffffffff168173ffffffffffffffffffffffffffffffffffffffff161491505092915050565b60008082840190508381101561130a576040517f08c379a000000000000000000000000000000000000000000000000000000000815260040161130190612299565b60405180910390fd5b8091505092915050565b600061135683836040518060400160405280601a81526020017f536166654d6174683a206469766973696f6e206279207a65726f000000000000815250611530565b905092915050565b60008061138a61271061137c6005548661159190919063ffffffff16565b61131490919063ffffffff16565b905061139f818461160190919063ffffffff16565b8410156113b05760009150506113da565b6113c381846112bf90919063ffffffff16565b8511156113d45760009150506113da565b60019150505b9392505050565b6113eb8282611061565b61142a576040517f08c379a0000000000000000000000000000000000000000000000000000000008152600401611421906122d9565b60405180910390fd5b60008260000160008373ffffffffffffffffffffffffffffffffffffffff1673ffffffffffffffffffffffffffffffffffffffff16815260200190815260200160002060006101000a81548160ff0219169083151502179055505050565b6114928282611061565b156114d2576040517f08c379a00000000000000000000000000000000000000000000000000000000081526004016114c990612259565b60405180910390fd5b60018260000160008373ffffffffffffffffffffffffffffffffffffffff1673ffffffffffffffffffffffffffffffffffffffff16815260200190815260200160002060006101000a81548160ff0219169083151502179055505050565b60008083118290611577576040517f08c379a000000000000000000000000000000000000000000000000000000000815260040161156e91906121f7565b60405180910390fd5b50600083858161158357fe5b049050809150509392505050565b6000808314156115a457600090506115fb565b60008284029050828482816115b557fe5b04146115f6576040517f08c379a00000000000000000000000000000000000000000000000000000000081526004016115ed906122f9565b60405180910390fd5b809150505b92915050565b600061164383836040518060400160405280601e81526020017f536166654d6174683a207375627472616374696f6e206f766572666c6f77000081525061164b565b905092915050565b6000838311158290611693576040517f08c379a000000000000000000000000000000000000000000000000000000000815260040161168a91906121f7565b60405180910390fd5b5060008385039050809150509392505050565b6040518060a00160405280600081526020016000815260200160008152602001600081526020016000151581525090565b6000813590506116e6816125c2565b92915050565b6000813590506116fb816125d9565b92915050565b600081359050611710816125f0565b92915050565b60006080828403121561172857600080fd5b81905092915050565b60006080828403121561174357600080fd5b61174d6080612467565b9050600061175d848285016117a5565b6000830152506020611771848285016117cf565b602083015250604061178584828501611701565b604083015250606061179984828501611701565b60608301525092915050565b6000813590506117b481612607565b92915050565b6000815190506117c981612607565b92915050565b6000813590506117de8161261e565b92915050565b6000602082840312156117f657600080fd5b6000611804848285016116d7565b91505092915050565b60008060006060848603121561182257600080fd5b6000611830868287016116d7565b9350506020611841868287016116d7565b9250506040611852868287016117a5565b9150509250925092565b6000806000806080858703121561187257600080fd5b6000611880878288016116d7565b9450506020611891878288016116d7565b93505060406118a2878288016117a5565b92505060606118b3878288016116ec565b91505092959194509250565b600080604083850312156118d257600080fd5b60006118e0858286016116d7565b92505060206118f1858286016117a5565b9150509250929050565b60008060006060848603121561191057600080fd5b600061191e868287016116d7565b935050602061192f868287016117a5565b9250506040611940868287016116ec565b9150509250925092565b6000806000806080858703121561196057600080fd5b600061196e878288016116d7565b945050602061197f878288016117a5565b9350506040611990878288016117a5565b92505060606119a1878288016117a5565b91505092959194509250565b600080600080600080600060e0888a0312156119c857600080fd5b60006119d68a828b016116d7565b97505060206119e78a828b016117a5565b96505060406119f88a828b016117a5565b9550506060611a098a828b016117a5565b9450506080611a1a8a828b016117a5565b93505060a0611a2b8a828b016117a5565b92505060c0611a3c8a828b016116ec565b91505092959891949750929550565b60008060008060e08587031215611a6157600080fd5b6000611a6f87828801611716565b9450506080611a80878288016116d7565b93505060a0611a91878288016117a5565b92505060c0611aa2878288016117a5565b91505092959194509250565b600060808284031215611ac057600080fd5b6000611ace84828501611731565b91505092915050565b600060208284031215611ae957600080fd5b6000611af7848285016117ba565b91505092915050565b611b098161251a565b82525050565b611b18816124bb565b82525050565b611b27816124cd565b82525050565b611b36816124d9565b82525050565b611b4d611b48826124d9565b6125a7565b82525050565b611b5c8161252c565b82525050565b6000611b6d82612494565b611b77818561249f565b9350611b87818560208601612574565b611b90816125b1565b840191505092915050565b6000611ba860168361249f565b91507f494e5445524553545f4e4f545f524551554553544544000000000000000000006000830152602082019050919050565b6000611be860188361249f565b91507f4d5553545f50524f564944455f4c454e4445525f494e464f00000000000000006000830152602082019050919050565b6000611c28601f8361249f565b91507f526f6c65733a206163636f756e7420616c72656164792068617320726f6c65006000830152602082019050919050565b6000611c68601c836124b0565b91507f19457468657265756d205369676e6564204d6573736167653a0a3332000000006000830152601c82019050919050565b6000611ca860188361249f565b91507f5349474e45525f414c52454144595f5355424d495454454400000000000000006000830152602082019050919050565b6000611ce8601b8361249f565b91507f536166654d6174683a206164646974696f6e206f766572666c6f7700000000006000830152602082019050919050565b6000611d2860128361249f565b91507f5349474e45525f4e4f4e43455f54414b454e00000000000000000000000000006000830152602082019050919050565b6000611d6860218361249f565b91507f526f6c65733a206163636f756e7420646f6573206e6f74206861766520726f6c60008301527f65000000000000000000000000000000000000000000000000000000000000006020830152604082019050919050565b6000611dce60218361249f565b91507f536166654d6174683a206d756c7469706c69636174696f6e206f766572666c6f60008301527f77000000000000000000000000000000000000000000000000000000000000006020830152604082019050919050565b6000611e3460168361249f565b91507f4974206973206e6f7420696e697469616c697a65642e000000000000000000006000830152602082019050919050565b6000611e7460228361249f565b91507f526f6c65733a206163636f756e7420697320746865207a65726f20616464726560008301527f73730000000000000000000000000000000000000000000000000000000000006020830152604082019050919050565b6000611eda60138361249f565b91507f5349474e41545552455f4e4f545f56414c4944000000000000000000000000006000830152602082019050919050565b6000611f1a60308361249f565b91507f5369676e6572526f6c653a2063616c6c657220646f6573206e6f74206861766560008301527f20746865205369676e657220726f6c65000000000000000000000000000000006020830152604082019050919050565b6000611f80601a8361249f565b91507f494e5445524553545f414c52454144595f46494e414c495a45440000000000006000830152602082019050919050565b6000611fc0601a8361249f565b91507f497420697320616c726561647920696e697469616c697a65642e0000000000006000830152602082019050919050565b6000612000601b8361249f565b91507f4d4158494d554d5f544f4c4552414e43455f53555250415353454400000000006000830152602082019050919050565b61203c81612503565b82525050565b61204b8161250d565b82525050565b600061205c82611c5b565b91506120688284611b3c565b60208201915081905092915050565b600060208201905061208c6000830184611b0f565b92915050565b60006080820190506120a76000830187611b00565b6120b46020830186611b0f565b6120c16040830185612033565b6120ce6060830184612033565b95945050505050565b600060a0820190506120ec6000830188611b0f565b6120f96020830187611b0f565b6121066040830186612033565b6121136060830185612033565b6121206080830184612033565b9695505050505050565b600060608201905061213f6000830186611b0f565b61214c6020830185612033565b6121596040830184612033565b949350505050565b60006020820190506121766000830184611b1e565b92915050565b60006020820190506121916000830184611b2d565b92915050565b60006080820190506121ac6000830187611b2d565b6121b96020830186612042565b6121c66040830185611b2d565b6121d36060830184611b2d565b95945050505050565b60006020820190506121f16000830184611b53565b92915050565b600060208201905081810360008301526122118184611b62565b905092915050565b6000602082019050818103600083015261223281611b9b565b9050919050565b6000602082019050818103600083015261225281611bdb565b9050919050565b6000602082019050818103600083015261227281611c1b565b9050919050565b6000602082019050818103600083015261229281611c9b565b9050919050565b600060208201905081810360008301526122b281611cdb565b9050919050565b600060208201905081810360008301526122d281611d1b565b9050919050565b600060208201905081810360008301526122f281611d5b565b9050919050565b6000602082019050818103600083015261231281611dc1565b9050919050565b6000602082019050818103600083015261233281611e27565b9050919050565b6000602082019050818103600083015261235281611e67565b9050919050565b6000602082019050818103600083015261237281611ecd565b9050919050565b6000602082019050818103600083015261239281611f0d565b9050919050565b600060208201905081810360008301526123b281611f73565b9050919050565b600060208201905081810360008301526123d281611fb3565b9050919050565b600060208201905081810360008301526123f281611ff3565b9050919050565b600060208201905061240e6000830184612033565b92915050565b600060a0820190506124296000830188612033565b6124366020830187612033565b6124436040830186612033565b6124506060830185612033565b61245d6080830184611b1e565b9695505050505050565b6000604051905081810181811067ffffffffffffffff8211171561248a57600080fd5b8060405250919050565b600081519050919050565b600082825260208201905092915050565b600081905092915050565b60006124c6826124e3565b9050919050565b60008115159050919050565b6000819050919050565b600073ffffffffffffffffffffffffffffffffffffffff82169050919050565b6000819050919050565b600060ff82169050919050565b600061252582612550565b9050919050565b60006125378261253e565b9050919050565b6000612549826124e3565b9050919050565b600061255b82612562565b9050919050565b600061256d826124e3565b9050919050565b60005b83811015612592578082015181840152602081019050612577565b838111156125a1576000848401525b50505050565b6000819050919050565b6000601f19601f8301169050919050565b6125cb816124bb565b81146125d657600080fd5b50565b6125e2816124cd565b81146125ed57600080fd5b50565b6125f9816124d9565b811461260457600080fd5b50565b61261081612503565b811461261b57600080fd5b50565b6126278161250d565b811461263257600080fd5b5056fea365627a7a723158204ea93232a31ca4dd783ff00c6ad0344e9730d4602f38a92528ebc0d2b99707416c6578706572696d656e74616cf564736f6c63430005110040",
  "source": "/*\n    Copyright 2020 Fabrx Labs Inc.\n\n    Licensed under the Apache License, Version 2.0 (the \"License\");\n    you may not use this file except in compliance with the License.\n    You may obtain a copy of the License at\n\n    http://www.apache.org/licenses/LICENSE-2.0\n\n    Unless required by applicable law or agreed to in writing, software\n    distributed under the License is distributed on an \"AS IS\" BASIS,\n    WITHOUT WARRANTIES OR CONDITIONS OF ANY KIND, either express or implied.\n    See the License for the specific language governing permissions and\n    limitations under the License.\n*/\npragma solidity 0.5.17;\npragma experimental ABIEncoderV2;\n\nimport \"../../base/InterestConsensus.sol\";\n\ncontract InterestConsensusMock is InterestConsensus {\n\n    constructor(\n        uint256 initRequiredSubmissions,\n        uint256 initMaximumTolerance\n    ) public InterestConsensus(\n        initRequiredSubmissions,\n        initMaximumTolerance\n    ){}\n\n    function mockNodeSubmissions(\n        address lender,\n        uint256 blockNumber,\n        uint256 totalSubmissions,\n        uint256 maxValue,\n        uint256 minValue,\n        uint256 sumOfValues,\n        bool finalized\n    ) external {\n        nodeSubmissions[lender][blockNumber] = ZeroCollateralCommon.AggregatedInterest({\n            totalSubmissions: totalSubmissions,\n            minValue: minValue,\n            maxValue: maxValue,\n            sumOfValues: sumOfValues,\n            finalized: finalized\n        });\n    }\n\n    function mockHasSubmitted(\n        address signer,\n        address lender,\n        uint256 blockNumber,\n        bool hasSub\n    ) external {\n        hasSubmitted[signer][lender][blockNumber] = hasSub;\n    }\n\n    function mockSignerNonce(\n        address signer,\n        uint256 signerNonce,\n        bool taken\n    ) external {\n        signerNonceTaken[signer][signerNonce] = taken;\n    }\n\n    function externalHashData(\n        address lender,\n        uint256 blockNumber,\n        uint256 interest,\n        uint256 signerNonce\n    ) external view returns (bytes32) {\n        return _hashData(lender, blockNumber, interest, signerNonce);\n    }\n\n}",
  "sourcePath": "/home/jalil/Programs/zero-collateral-v1/contracts/mock/base/InterestConsensusMock.sol",
  "compiler": {
    "name": "solc",
    "version": "0.5.17+commit.d19bba13.Emscripten.clang"
  },
  "schemaVersion": "3.0.23",
  "updatedAt": "2020-04-29T14:20:38.805Z",
  "devdoc": {
    "methods": {}
  },
  "userdoc": {
    "methods": {}
  }
}