{
  "contractName": "InterestConsensusMock",
  "abi": [
    {
      "anonymous": false,
      "inputs": [
        {
          "indexed": true,
          "internalType": "address",
          "name": "lender",
          "type": "address"
        },
        {
          "indexed": false,
          "internalType": "uint256",
          "name": "requestNonce",
          "type": "uint256"
        },
        {
          "indexed": false,
          "internalType": "uint256",
          "name": "endTime",
          "type": "uint256"
        },
        {
          "indexed": false,
          "internalType": "uint256",
          "name": "interest",
          "type": "uint256"
        }
      ],
      "name": "InterestAccepted",
      "type": "event"
    },
    {
      "anonymous": false,
      "inputs": [
        {
          "indexed": true,
          "internalType": "address",
          "name": "signer",
          "type": "address"
        },
        {
          "indexed": true,
          "internalType": "address",
          "name": "lender",
          "type": "address"
        },
        {
          "indexed": false,
          "internalType": "uint256",
          "name": "requestNonce",
          "type": "uint256"
        },
        {
          "indexed": false,
          "internalType": "uint256",
          "name": "endTime",
          "type": "uint256"
        },
        {
          "indexed": false,
          "internalType": "uint256",
          "name": "interest",
          "type": "uint256"
        }
      ],
      "name": "InterestSubmitted",
      "type": "event"
    },
    {
      "anonymous": false,
      "inputs": [
        {
          "indexed": true,
          "internalType": "address",
          "name": "previousOwner",
          "type": "address"
        },
        {
          "indexed": true,
          "internalType": "address",
          "name": "newOwner",
          "type": "address"
        }
      ],
      "name": "OwnershipTransferred",
      "type": "event"
    },
    {
      "anonymous": false,
      "inputs": [
        {
          "indexed": true,
          "internalType": "address",
          "name": "account",
          "type": "address"
        }
      ],
      "name": "SignerAdded",
      "type": "event"
    },
    {
      "anonymous": false,
      "inputs": [
        {
          "indexed": true,
          "internalType": "address",
          "name": "account",
          "type": "address"
        }
      ],
      "name": "SignerRemoved",
      "type": "event"
    },
    {
      "constant": false,
      "inputs": [
        {
          "internalType": "address",
          "name": "account",
          "type": "address"
        }
      ],
      "name": "addSigner",
      "outputs": [],
      "payable": false,
      "stateMutability": "nonpayable",
      "type": "function"
    },
    {
      "constant": false,
      "inputs": [
        {
          "internalType": "address[]",
          "name": "accounts",
          "type": "address[]"
        }
      ],
      "name": "addSigners",
      "outputs": [],
      "payable": false,
      "stateMutability": "nonpayable",
      "type": "function"
    },
    {
      "constant": true,
      "inputs": [],
      "name": "callerAddress",
      "outputs": [
        {
          "internalType": "address",
          "name": "",
          "type": "address"
        }
      ],
      "payable": false,
      "stateMutability": "view",
      "type": "function"
    },
    {
      "constant": true,
      "inputs": [],
      "name": "consts",
      "outputs": [
        {
          "internalType": "contract SettingsConsts",
          "name": "",
          "type": "address"
        }
      ],
      "payable": false,
      "stateMutability": "view",
      "type": "function"
    },
    {
      "constant": true,
      "inputs": [
        {
          "internalType": "address",
          "name": "",
          "type": "address"
        },
        {
          "internalType": "address",
          "name": "",
          "type": "address"
        },
        {
          "internalType": "uint256",
          "name": "",
          "type": "uint256"
        }
      ],
      "name": "hasSubmitted",
      "outputs": [
        {
          "internalType": "bool",
          "name": "",
          "type": "bool"
        }
      ],
      "payable": false,
      "stateMutability": "view",
      "type": "function"
    },
    {
      "constant": false,
      "inputs": [],
      "name": "initialize",
      "outputs": [],
      "payable": false,
      "stateMutability": "nonpayable",
      "type": "function"
    },
    {
      "constant": false,
      "inputs": [
        {
          "internalType": "address",
          "name": "owner",
          "type": "address"
        },
        {
          "internalType": "address",
          "name": "aCallerAddress",
          "type": "address"
        },
        {
          "internalType": "address",
          "name": "aSettingAddress",
          "type": "address"
        }
      ],
      "name": "initialize",
      "outputs": [],
      "payable": false,
      "stateMutability": "nonpayable",
      "type": "function"
    },
    {
      "constant": false,
      "inputs": [
        {
          "internalType": "address",
          "name": "sender",
          "type": "address"
        }
      ],
      "name": "initialize",
      "outputs": [],
      "payable": false,
      "stateMutability": "nonpayable",
      "type": "function"
    },
    {
      "constant": true,
      "inputs": [],
      "name": "initialized",
      "outputs": [
        {
          "internalType": "bool",
          "name": "value",
          "type": "bool"
        }
      ],
      "payable": false,
      "stateMutability": "view",
      "type": "function"
    },
    {
      "constant": true,
      "inputs": [
        {
          "internalType": "address",
          "name": "",
          "type": "address"
        },
        {
          "internalType": "uint256",
          "name": "",
          "type": "uint256"
        }
      ],
      "name": "interestSubmissions",
      "outputs": [
        {
          "internalType": "uint256",
          "name": "count",
          "type": "uint256"
        },
        {
          "internalType": "uint256",
          "name": "max",
          "type": "uint256"
        },
        {
          "internalType": "uint256",
          "name": "min",
          "type": "uint256"
        },
        {
          "internalType": "uint256",
          "name": "sum",
          "type": "uint256"
        }
      ],
      "payable": false,
      "stateMutability": "view",
      "type": "function"
    },
    {
      "constant": true,
      "inputs": [],
      "name": "isOwner",
      "outputs": [
        {
          "internalType": "bool",
          "name": "",
          "type": "bool"
        }
      ],
      "payable": false,
      "stateMutability": "view",
      "type": "function"
    },
    {
      "constant": true,
      "inputs": [
        {
          "internalType": "address",
          "name": "account",
          "type": "address"
        }
      ],
      "name": "isSigner",
      "outputs": [
        {
          "internalType": "bool",
          "name": "",
          "type": "bool"
        }
      ],
      "payable": false,
      "stateMutability": "view",
      "type": "function"
    },
    {
      "constant": true,
      "inputs": [],
      "name": "owner",
      "outputs": [
        {
          "internalType": "address",
          "name": "",
          "type": "address"
        }
      ],
      "payable": false,
      "stateMutability": "view",
      "type": "function"
    },
    {
      "constant": false,
      "inputs": [
        {
          "components": [
            {
              "internalType": "address",
              "name": "lender",
              "type": "address"
            },
            {
              "internalType": "address",
              "name": "consensusAddress",
              "type": "address"
            },
            {
              "internalType": "uint256",
              "name": "requestNonce",
              "type": "uint256"
            },
            {
              "internalType": "uint256",
              "name": "startTime",
              "type": "uint256"
            },
            {
              "internalType": "uint256",
              "name": "endTime",
              "type": "uint256"
            },
            {
              "internalType": "uint256",
              "name": "requestTime",
              "type": "uint256"
            }
          ],
          "internalType": "struct TellerCommon.InterestRequest",
          "name": "request",
          "type": "tuple"
        },
        {
          "components": [
            {
              "internalType": "address",
              "name": "signer",
              "type": "address"
            },
            {
              "internalType": "address",
              "name": "consensusAddress",
              "type": "address"
            },
            {
              "internalType": "uint256",
              "name": "responseTime",
              "type": "uint256"
            },
            {
              "internalType": "uint256",
              "name": "interest",
              "type": "uint256"
            },
            {
              "components": [
                {
                  "internalType": "uint256",
                  "name": "signerNonce",
                  "type": "uint256"
                },
                {
                  "internalType": "uint8",
                  "name": "v",
                  "type": "uint8"
                },
                {
                  "internalType": "bytes32",
                  "name": "r",
                  "type": "bytes32"
                },
                {
                  "internalType": "bytes32",
                  "name": "s",
                  "type": "bytes32"
                }
              ],
              "internalType": "struct TellerCommon.Signature",
              "name": "signature",
              "type": "tuple"
            }
          ],
          "internalType": "struct TellerCommon.InterestResponse[]",
          "name": "responses",
          "type": "tuple[]"
        }
      ],
      "name": "processRequest",
      "outputs": [
        {
          "internalType": "uint256",
          "name": "",
          "type": "uint256"
        }
      ],
      "payable": false,
      "stateMutability": "nonpayable",
      "type": "function"
    },
    {
      "constant": false,
      "inputs": [
        {
          "internalType": "address",
          "name": "account",
          "type": "address"
        }
      ],
      "name": "removeSigner",
      "outputs": [],
      "payable": false,
      "stateMutability": "nonpayable",
      "type": "function"
    },
    {
      "constant": false,
      "inputs": [],
      "name": "renounceOwnership",
      "outputs": [],
      "payable": false,
      "stateMutability": "nonpayable",
      "type": "function"
    },
    {
      "constant": true,
      "inputs": [
        {
          "internalType": "address",
          "name": "",
          "type": "address"
        },
        {
          "internalType": "uint256",
          "name": "",
          "type": "uint256"
        }
      ],
      "name": "requestNonceTaken",
      "outputs": [
        {
          "internalType": "bool",
          "name": "",
          "type": "bool"
        }
      ],
      "payable": false,
      "stateMutability": "view",
      "type": "function"
    },
    {
      "constant": true,
      "inputs": [],
      "name": "settings",
      "outputs": [
        {
          "internalType": "contract SettingsInterface",
          "name": "",
          "type": "address"
        }
      ],
      "payable": false,
      "stateMutability": "view",
      "type": "function"
    },
    {
      "constant": true,
      "inputs": [
        {
          "internalType": "address",
          "name": "",
          "type": "address"
        },
        {
          "internalType": "uint256",
          "name": "",
          "type": "uint256"
        }
      ],
      "name": "signerNonceTaken",
      "outputs": [
        {
          "internalType": "bool",
          "name": "",
          "type": "bool"
        }
      ],
      "payable": false,
      "stateMutability": "view",
      "type": "function"
    },
    {
      "constant": false,
      "inputs": [
        {
          "internalType": "address",
          "name": "newOwner",
          "type": "address"
        }
      ],
      "name": "transferOwnership",
      "outputs": [],
      "payable": false,
      "stateMutability": "nonpayable",
      "type": "function"
    },
    {
      "constant": false,
      "inputs": [
        {
          "internalType": "address",
          "name": "lender",
          "type": "address"
        },
        {
          "internalType": "uint256",
          "name": "endTime",
          "type": "uint256"
        },
        {
          "internalType": "uint256",
          "name": "totalSubmissions",
          "type": "uint256"
        },
        {
          "internalType": "uint256",
          "name": "maxValue",
          "type": "uint256"
        },
        {
          "internalType": "uint256",
          "name": "minValue",
          "type": "uint256"
        },
        {
          "internalType": "uint256",
          "name": "sumOfValues",
          "type": "uint256"
        }
      ],
      "name": "mockInterestSubmissions",
      "outputs": [],
      "payable": false,
      "stateMutability": "nonpayable",
      "type": "function"
    },
    {
      "constant": false,
      "inputs": [
        {
          "internalType": "address",
          "name": "signer",
          "type": "address"
        },
        {
          "internalType": "address",
          "name": "lender",
          "type": "address"
        },
        {
          "internalType": "uint256",
          "name": "blockNumber",
          "type": "uint256"
        },
        {
          "internalType": "bool",
          "name": "hasSub",
          "type": "bool"
        }
      ],
      "name": "mockHasSubmitted",
      "outputs": [],
      "payable": false,
      "stateMutability": "nonpayable",
      "type": "function"
    },
    {
      "constant": false,
      "inputs": [
        {
          "internalType": "address",
          "name": "signer",
          "type": "address"
        },
        {
          "internalType": "uint256",
          "name": "signerNonce",
          "type": "uint256"
        },
        {
          "internalType": "bool",
          "name": "taken",
          "type": "bool"
        }
      ],
      "name": "mockSignerNonce",
      "outputs": [],
      "payable": false,
      "stateMutability": "nonpayable",
      "type": "function"
    },
    {
      "constant": false,
      "inputs": [
        {
          "internalType": "uint256",
          "name": "newChainId",
          "type": "uint256"
        }
      ],
      "name": "mockChainId",
      "outputs": [],
      "payable": false,
      "stateMutability": "nonpayable",
      "type": "function"
    },
    {
      "constant": false,
      "inputs": [
        {
          "components": [
            {
              "internalType": "address",
              "name": "lender",
              "type": "address"
            },
            {
              "internalType": "address",
              "name": "consensusAddress",
              "type": "address"
            },
            {
              "internalType": "uint256",
              "name": "requestNonce",
              "type": "uint256"
            },
            {
              "internalType": "uint256",
              "name": "startTime",
              "type": "uint256"
            },
            {
              "internalType": "uint256",
              "name": "endTime",
              "type": "uint256"
            },
            {
              "internalType": "uint256",
              "name": "requestTime",
              "type": "uint256"
            }
          ],
          "internalType": "struct TellerCommon.InterestRequest",
          "name": "request",
          "type": "tuple"
        },
        {
          "components": [
            {
              "internalType": "address",
              "name": "signer",
              "type": "address"
            },
            {
              "internalType": "address",
              "name": "consensusAddress",
              "type": "address"
            },
            {
              "internalType": "uint256",
              "name": "responseTime",
              "type": "uint256"
            },
            {
              "internalType": "uint256",
              "name": "interest",
              "type": "uint256"
            },
            {
              "components": [
                {
                  "internalType": "uint256",
                  "name": "signerNonce",
                  "type": "uint256"
                },
                {
                  "internalType": "uint8",
                  "name": "v",
                  "type": "uint8"
                },
                {
                  "internalType": "bytes32",
                  "name": "r",
                  "type": "bytes32"
                },
                {
                  "internalType": "bytes32",
                  "name": "s",
                  "type": "bytes32"
                }
              ],
              "internalType": "struct TellerCommon.Signature",
              "name": "signature",
              "type": "tuple"
            }
          ],
          "internalType": "struct TellerCommon.InterestResponse",
          "name": "response",
          "type": "tuple"
        },
        {
          "internalType": "bytes32",
          "name": "requestHash",
          "type": "bytes32"
        }
      ],
      "name": "externalProcessResponse",
      "outputs": [],
      "payable": false,
      "stateMutability": "nonpayable",
      "type": "function"
    },
    {
      "constant": true,
      "inputs": [
        {
          "components": [
            {
              "internalType": "address",
              "name": "signer",
              "type": "address"
            },
            {
              "internalType": "address",
              "name": "consensusAddress",
              "type": "address"
            },
            {
              "internalType": "uint256",
              "name": "responseTime",
              "type": "uint256"
            },
            {
              "internalType": "uint256",
              "name": "interest",
              "type": "uint256"
            },
            {
              "components": [
                {
                  "internalType": "uint256",
                  "name": "signerNonce",
                  "type": "uint256"
                },
                {
                  "internalType": "uint8",
                  "name": "v",
                  "type": "uint8"
                },
                {
                  "internalType": "bytes32",
                  "name": "r",
                  "type": "bytes32"
                },
                {
                  "internalType": "bytes32",
                  "name": "s",
                  "type": "bytes32"
                }
              ],
              "internalType": "struct TellerCommon.Signature",
              "name": "signature",
              "type": "tuple"
            }
          ],
          "internalType": "struct TellerCommon.InterestResponse",
          "name": "response",
          "type": "tuple"
        },
        {
          "internalType": "bytes32",
          "name": "requestHash",
          "type": "bytes32"
        }
      ],
      "name": "externalHashResponse",
      "outputs": [
        {
          "internalType": "bytes32",
          "name": "",
          "type": "bytes32"
        }
      ],
      "payable": false,
      "stateMutability": "view",
      "type": "function"
    },
    {
      "constant": true,
      "inputs": [
        {
          "components": [
            {
              "internalType": "address",
              "name": "lender",
              "type": "address"
            },
            {
              "internalType": "address",
              "name": "consensusAddress",
              "type": "address"
            },
            {
              "internalType": "uint256",
              "name": "requestNonce",
              "type": "uint256"
            },
            {
              "internalType": "uint256",
              "name": "startTime",
              "type": "uint256"
            },
            {
              "internalType": "uint256",
              "name": "endTime",
              "type": "uint256"
            },
            {
              "internalType": "uint256",
              "name": "requestTime",
              "type": "uint256"
            }
          ],
          "internalType": "struct TellerCommon.InterestRequest",
          "name": "request",
          "type": "tuple"
        }
      ],
      "name": "externalHashRequest",
      "outputs": [
        {
          "internalType": "bytes32",
          "name": "",
          "type": "bytes32"
        }
      ],
      "payable": false,
      "stateMutability": "view",
      "type": "function"
    },
    {
      "constant": false,
      "inputs": [
        {
          "internalType": "address",
          "name": "lender",
          "type": "address"
        },
        {
          "internalType": "uint256",
          "name": "requestNonce",
          "type": "uint256"
        },
        {
          "internalType": "bool",
          "name": "taken",
          "type": "bool"
        }
      ],
      "name": "mockRequestNonce",
      "outputs": [],
      "payable": false,
      "stateMutability": "nonpayable",
      "type": "function"
    }
  ],
  "bytecode": "0x6080604052600160a055612c88806100186000396000f3fe608060405234801561001057600080fd5b50600436106101c35760003560e01c8063a4f1e309116100f9578063e684926711610097578063f2fde38b11610071578063f2fde38b14610392578063f76a5ab3146103a5578063faa8aab1146103b8578063fb98d9e2146103c0576101c3565b8063e684926714610359578063e8906a2d1461036c578063eb12d61e1461037f576101c3565b8063d86d744e116100d3578063d86d744e14610316578063db43f2591461032b578063de0ddd3f1461033e578063e06174e414610351576101c3565b8063a4f1e309146102dd578063c0c53b8b146102f0578063c4d66de814610303576101c3565b80636b083c36116101665780638129fc1c116101405780638129fc1c146102a55780638da5cb5b146102ad5780638f32d59b146102c257806399ffe065146102ca576101c3565b80636b083c3614610277578063715018a61461028a5780637df73e2714610292576101c3565b80631d37e882116101a25780631d37e8821461020e57806365e8eb8e1461022157806367136b351461024457806368fcdeb814610264576101c3565b80627ab3ba146101c85780630e316ab7146101dd578063158ef93e146101f0575b600080fd5b6101db6101d6366004611dc1565b6103d3565b005b6101db6101eb366004611c78565b610408565b6101f8610441565b604051610205919061271b565b60405180910390f35b6101db61021c366004611d26565b610460565b61023461022f366004611d87565b6104a4565b604051610205949392919061290c565b610257610252366004611efc565b6104d6565b6040516102059190612729565b6101f8610272366004611d87565b61080c565b6101db610285366004611f52565b61082c565b6101db610858565b6101f86102a0366004611c78565b6108c6565b6101db6108df565b6102b5610966565b604051610205919061263c565b6101f8610975565b6101f86102d8366004611ce3565b61099b565b6102576102eb366004611fb5565b6109c1565b6101db6102fe366004611c96565b6109e2565b6101db610311366004611c78565b610ab0565b61031e610b83565b6040516102059190612775565b6101db610339366004611dc1565b610b92565b61025761034c366004611ede565b610bc7565b61031e610bdb565b6101db610367366004611e04565b610bfd565b6101db61037a366004611e8b565b610c5c565b6101db61038d366004611c78565b610ce4565b6101db6103a0366004611c78565b610d11565b6101db6103b3366004612006565b610d3e565b6102b5610d43565b6101f86103ce366004611d87565b610d52565b6001600160a01b03929092166000908152609e6020908152604080832093835292905220805460ff1916911515919091179055565b610410610975565b6104355760405162461bcd60e51b815260040161042c90612854565b60405180910390fd5b61043e81610d72565b50565b60008060405161045090612606565b6040519081900390205492915050565b6001600160a01b039384166000908152609a602090815260408083209590961682529384528481209281529190925291909120805460ff1916911515919091179055565b609f60209081526000928352604080842090915290825290208054600182015460028301546003909301549192909184565b60006104e0610441565b6104fc5760405162461bcd60e51b815260040161042c906128b4565b3361050681610dba565b6105225760405162461bcd60e51b815260040161042c906128a4565b61052a610bdb565b6001600160a01b031663269012a0609d60009054906101000a90046001600160a01b03166001600160a01b0316633ff591d96040518163ffffffff1660e01b815260040160206040518083038186803b15801561058657600080fd5b505afa15801561059a573d6000803e3d6000fd5b505050506040513d601f19601f820116820180604052506105be9190810190611ec0565b6040518263ffffffff1660e01b81526004016105da9190612729565b60206040518083038186803b1580156105f257600080fd5b505afa158015610606573d6000803e3d6000fd5b505050506040513d601f19601f8201168201806040525061062a9190810190611ec0565b8310156106495760405162461bcd60e51b815260040161042c906128d4565b609e600061065a6020880188611c78565b6001600160a01b031681526020808201929092526040908101600090812088830135825290925290205460ff16156106a45760405162461bcd60e51b815260040161042c90612834565b6001609e60006106b76020890189611c78565b6001600160a01b03168152602080820192909252604090810160009081208983013582529092528120805460ff19169215159290921790915561070761070236889003880188611f97565b610dc0565b905060005b848110156107575761074f61072636899003890189611f97565b87878481811061073257fe5b905061010002018036036107499190810190611fe7565b84610e2c565b60010161070c565b5060006107a7609f8261076d60208b018b611c78565b6001600160a01b03166001600160a01b03168152602001908152602001600020600089608001358152602001908152602001600020610f01565b90506107b66020880188611c78565b6001600160a01b03167f3ae9cc3885aef787ea70c8cdfc77b61a78c7b546f8d22ea80fa0aeb7b0894b1488604001358960800135846040516107fa939291906128e4565b60405180910390a29695505050505050565b609b60209081526000928352604080842090915290825290205460ff1681565b61085361083e36859003850185611f97565b61084d36859003850185611fe7565b83610e2c565b505050565b610860610975565b61087c5760405162461bcd60e51b815260040161042c90612854565b6066546040516000916001600160a01b0316907f8be0079c531659141344cd1fd0a4f28419497f9722a3daafe3b4186f6b6457e0908390a3606680546001600160a01b0319169055565b60006108d960998363ffffffff61104016565b92915050565b600054610100900460ff16806108f857506108f8611088565b80610906575060005460ff16155b6109225760405162461bcd60e51b815260040161042c90612874565b600054610100900460ff1615801561094d576000805460ff1961ff0019909116610100171660011790555b6001603355801561043e576000805461ff001916905550565b6066546001600160a01b031690565b6066546000906001600160a01b031661098c61108e565b6001600160a01b031614905090565b609a60209081526000938452604080852082529284528284209052825290205460ff1681565b60006109db6109d536859003850185611fe7565b83611092565b9392505050565b6109ea610441565b15610a075760405162461bcd60e51b815260040161042c906128c4565b610a19826001600160a01b03166110e8565b610a355760405162461bcd60e51b815260040161042c90612804565b610a3e83610ab0565b610a4781611124565b609c80546001600160a01b0319166001600160a01b038416179055604051610a6e906119b6565b604051809103906000f080158015610a8a573d6000803e3d6000fd5b50609d80546001600160a01b0319166001600160a01b0392909216919091179055505050565b600054610100900460ff1680610ac95750610ac9611088565b80610ad7575060005460ff16155b610af35760405162461bcd60e51b815260040161042c90612874565b600054610100900460ff16158015610b1e576000805460ff1961ff0019909116610100171660011790555b606680546001600160a01b0319166001600160a01b0384811691909117918290556040519116906000907f8be0079c531659141344cd1fd0a4f28419497f9722a3daafe3b4186f6b6457e0908290a38015610b7f576000805461ff00191690555b5050565b609d546001600160a01b031681565b6001600160a01b03929092166000908152609b6020908152604080832093835292905220805460ff1916911515919091179055565b60006108d961070236849003840184611f97565b6000806000604051610bec90612631565b604051908190039020549250505090565b604080516080810182529485526020808601948552858201938452606086019283526001600160a01b039097166000908152609f8852818120968152959096529490932091518255516001820155905160028201559051600390910155565b610c64610975565b610c805760405162461bcd60e51b815260040161042c90612854565b6000815111610ca15760405162461bcd60e51b815260040161042c906127a4565b60005b8151811015610b7f576000828281518110610cbb57fe5b60200260200101519050610cce816108c6565b610cdb57610cdb816111d6565b50600101610ca4565b610cec610975565b610d085760405162461bcd60e51b815260040161042c90612854565b61043e816111d6565b610d19610975565b610d355760405162461bcd60e51b815260040161042c90612854565b61043e8161121e565b60a055565b609c546001600160a01b031681565b609e60209081526000928352604080842090915290825290205460ff1681565b610d8360998263ffffffff6112a016565b6040516001600160a01b038216907f3525e22824a8a7df2c9a6029941c824cf95b6447f1e13d5128fd3826d35afe8b90600090a250565b50600190565b609c548151602083015160408401516060850151608086015160a08701516000966001600160a01b0316959493929190610df86112e8565b604051602001610e0f98979695949392919061264a565b604051602081830303815290604052805190602001209050919050565b6000610e388383611092565b9050610e5c83600001518560000151866080015186604001518588608001516112ee565b606083015184516001600160a01b03166000908152609f60209081526040808320608089015184529091529020610e989163ffffffff61150a16565b83600001516001600160a01b031683600001516001600160a01b03167f6f00cb8f849a2a1b231819b8145a2da4a16ffffe806e5e39787bc79ca276097c866040015187608001518760600151604051610ef3939291906128e4565b60405180910390a350505050565b600061101b610f0e610bdb565b6001600160a01b031663269012a0609d60009054906101000a90046001600160a01b03166001600160a01b031663c41dd8ce6040518163ffffffff1660e01b815260040160206040518083038186803b158015610f6a57600080fd5b505afa158015610f7e573d6000803e3d6000fd5b505050506040513d601f19601f82011682018060405250610fa29190810190611ec0565b6040518263ffffffff1660e01b8152600401610fbe9190612729565b60206040518083038186803b158015610fd657600080fd5b505afa158015610fea573d6000803e3d6000fd5b505050506040513d601f19601f8201168201806040525061100e9190810190611ec0565b839063ffffffff61156f16565b6110375760405162461bcd60e51b815260040161042c906127d4565b6108d982611620565b60006001600160a01b0382166110685760405162461bcd60e51b815260040161042c90612864565b506001600160a01b03166000908152602091909152604090205460ff1690565b303b1590565b3390565b60008260200151836040015184606001518560800151600001516110b46112e8565b866040516020016110ca969594939291906126c1565b60405160208183030381529060405280519060200120905092915050565b6000813f7fc5d2460186f7233c927e7db2dcc703c0e500b653ca82273b7bfad8045d85a47081811480159061111c57508115155b949350505050565b61112c610441565b156111495760405162461bcd60e51b815260040161042c906128c4565b60408051808201909152601981527f53455454494e47535f4d5553545f42455f50524f5649444544000000000000006020820152611197906001600160a01b0383169063ffffffff61165916565b6111a9816001600160a01b03166110e8565b6111c55760405162461bcd60e51b815260040161042c906127f4565b6111cd611681565b61043e8161169f565b6111e760998263ffffffff61170816565b6040516001600160a01b038216907f47d1c22a25bb3a5d4e481b9b1e6944c2eade3181a0a20b495ed61d35b5323f2490600090a250565b6001600160a01b0381166112445760405162461bcd60e51b815260040161042c906127c4565b6066546040516001600160a01b038084169216907f8be0079c531659141344cd1fd0a4f28419497f9722a3daafe3b4186f6b6457e090600090a3606680546001600160a01b0319166001600160a01b0392909216919091179055565b6112aa8282611040565b6112c65760405162461bcd60e51b815260040161042c90612824565b6001600160a01b0316600090815260209190915260409020805460ff19169055565b60a05490565b6001600160a01b038087166000908152609a6020908152604080832093891683529281528282208783529052205460ff161561133c5760405162461bcd60e51b815260040161042c906127b4565b6001600160a01b038087166000908152609a602090815260408083209389168352928152828220878352905220805460ff1916600117905561148c61137f610bdb565b6001600160a01b031663269012a0609d60009054906101000a90046001600160a01b03166001600160a01b031663e3f33d006040518163ffffffff1660e01b815260040160206040518083038186803b1580156113db57600080fd5b505afa1580156113ef573d6000803e3d6000fd5b505050506040513d601f19601f820116820180604052506114139190810190611ec0565b6040518263ffffffff1660e01b815260040161142f9190612729565b60206040518083038186803b15801561144757600080fd5b505afa15801561145b573d6000803e3d6000fd5b505050506040513d601f19601f8201168201806040525061147f9190810190611ec0565b429063ffffffff61175416565b8310156114ab5760405162461bcd60e51b815260040161042c90612884565b6114b6818388611796565b6114d25760405162461bcd60e51b815260040161042c90612894565b6001600160a01b039095166000908152609b602090815260408083209751835296905294909420805460ff1916600117905550505050565b808260010154101561151e57600182018190555b808260020154118061152f57508154155b1561153c57600282018190555b6003820154611551908263ffffffff61188e16565b6003830155815461156990600163ffffffff61188e16565b90915550565b600061157a836118b3565b15611587575060006108d9565b600061159284611620565b905060006115b86127106115ac848763ffffffff6118c516565b9063ffffffff6118ff16565b905060006115cc838363ffffffff61175416565b905080866002015410156115e657600093505050506108d9565b60006115f8848463ffffffff61188e16565b905080876001015411156116135760009450505050506108d9565b5060019695505050505050565b600061162b826118b3565b6116515761164c61163b83611941565b60038401549063ffffffff6118ff16565b6108d9565b506000919050565b61166282611945565b81906108535760405162461bcd60e51b815260040161042c9190612783565b600060405161168f90612606565b6040519081900390206001905550565b60006116a9610bdb565b6001600160a01b0316146116ea576116c9816001600160a01b03166110e8565b6116e55760405162461bcd60e51b815260040161042c906127f4565b61043e565b60006040516116f890612631565b6040519081900390208290555050565b6117128282611040565b1561172f5760405162461bcd60e51b815260040161042c90612794565b6001600160a01b0316600090815260209190915260409020805460ff19166001179055565b60006109db83836040518060400160405280601e81526020017f536166654d6174683a207375627472616374696f6e206f766572666c6f770000815250611953565b60006117a1826108c6565b6117ad575060006109db565b6001600160a01b0382166000908152609b602090815260408083208751845290915290205460ff16156117f25760405162461bcd60e51b815260040161042c90612814565b60006001846040516020016118079190612611565b60405160208183030381529060405280519060200120866020015187604001518860600151604051600081526020016040526040516118499493929190612737565b6020604051602081039080840390855afa15801561186b573d6000803e3d6000fd5b5050604051601f1901516001600160a01b03858116911614925050509392505050565b6000828201838110156109db5760405162461bcd60e51b815260040161042c906127e4565b60006118be82611941565b1592915050565b6000826118d4575060006108d9565b828202828482816118e157fe5b04146109db5760405162461bcd60e51b815260040161042c90612844565b60006109db83836040518060400160405280601a81526020017f536166654d6174683a206469766973696f6e206279207a65726f00000000000081525061197f565b5490565b6001600160a01b0316151590565b600081848411156119775760405162461bcd60e51b815260040161042c9190612783565b505050900390565b600081836119a05760405162461bcd60e51b815260040161042c9190612783565b5060008385816119ac57fe5b0495945050505050565b61022b80612a1b83390190565b80356108d9816129eb565b600082601f8301126119df57600080fd5b81356119f26119ed8261294e565b612927565b91508181835260208401935060208101905083856020840282011115611a1757600080fd5b60005b83811015611a435781611a2d88826119c3565b8452506020928301929190910190600101611a1a565b5050505092915050565b60008083601f840112611a5f57600080fd5b50813567ffffffffffffffff811115611a7757600080fd5b60208301915083610100820283011115611a9057600080fd5b9250929050565b80356108d9816129ff565b80356108d981612a08565b80516108d981612a08565b600060c08284031215611aca57600080fd5b50919050565b600060c08284031215611ae257600080fd5b611aec60c0612927565b90506000611afa84846119c3565b8252506020611b0b848483016119c3565b6020830152506040611b1f84828501611aa2565b6040830152506060611b3384828501611aa2565b6060830152506080611b4784828501611aa2565b60808301525060a0611b5b84828501611aa2565b60a08301525092915050565b60006101008284031215611aca57600080fd5b60006101008284031215611b8d57600080fd5b611b9760a0612927565b90506000611ba584846119c3565b8252506020611bb6848483016119c3565b6020830152506040611bca84828501611aa2565b6040830152506060611bde84828501611aa2565b6060830152506080611bf284828501611bfe565b60808301525092915050565b600060808284031215611c1057600080fd5b611c1a6080612927565b90506000611c288484611aa2565b8252506020611c3984848301611c6d565b6020830152506040611c4d84828501611aa2565b6040830152506060611c6184828501611aa2565b60608301525092915050565b80356108d981612a11565b600060208284031215611c8a57600080fd5b600061111c84846119c3565b600080600060608486031215611cab57600080fd5b6000611cb786866119c3565b9350506020611cc8868287016119c3565b9250506040611cd9868287016119c3565b9150509250925092565b600080600060608486031215611cf857600080fd5b6000611d0486866119c3565b9350506020611d15868287016119c3565b9250506040611cd986828701611aa2565b60008060008060808587031215611d3c57600080fd5b6000611d4887876119c3565b9450506020611d59878288016119c3565b9350506040611d6a87828801611aa2565b9250506060611d7b87828801611a97565b91505092959194509250565b60008060408385031215611d9a57600080fd5b6000611da685856119c3565b9250506020611db785828601611aa2565b9150509250929050565b600080600060608486031215611dd657600080fd5b6000611de286866119c3565b9350506020611df386828701611aa2565b9250506040611cd986828701611a97565b60008060008060008060c08789031215611e1d57600080fd5b6000611e2989896119c3565b9650506020611e3a89828a01611aa2565b9550506040611e4b89828a01611aa2565b9450506060611e5c89828a01611aa2565b9350506080611e6d89828a01611aa2565b92505060a0611e7e89828a01611aa2565b9150509295509295509295565b600060208284031215611e9d57600080fd5b813567ffffffffffffffff811115611eb457600080fd5b61111c848285016119ce565b600060208284031215611ed257600080fd5b600061111c8484611aad565b600060c08284031215611ef057600080fd5b600061111c8484611ab8565b600080600060e08486031215611f1157600080fd5b6000611f1d8686611ab8565b93505060c084013567ffffffffffffffff811115611f3a57600080fd5b611f4686828701611a4d565b92509250509250925092565b60008060006101e08486031215611f6857600080fd5b6000611f748686611ab8565b93505060c0611f8586828701611b67565b9250506101c0611cd986828701611aa2565b600060c08284031215611fa957600080fd5b600061111c8484611ad0565b6000806101208385031215611fc957600080fd5b6000611fd58585611b67565b925050610100611db785828601611aa2565b60006101008284031215611ffa57600080fd5b600061111c8484611b7a565b60006020828403121561201857600080fd5b600061111c8484611aa2565b61202d81612981565b82525050565b61202d8161298c565b61202d81612991565b61202d61205182612991565b612991565b61202d816129a6565b600061206a8261296f565b6120748185612973565b93506120848185602086016129b1565b61208d816129e1565b9093019392505050565b60006120a4601c8361297c565b7f54496e697469616c697a61626c652e6973496e697469616c697a6564000000008152601c0192915050565b60006120dd601f83612973565b7f526f6c65733a206163636f756e7420616c72656164792068617320726f6c6500815260200192915050565b6000612116601383612973565b724143434f554e54535f4c4953545f454d50545960681b815260200192915050565b6000612145601c8361297c565b7f19457468657265756d205369676e6564204d6573736167653a0a3332000000008152601c0192915050565b600061217e601883612973565b7f5349474e45525f414c52454144595f5355424d49545445440000000000000000815260200192915050565b60006121b7602683612973565b7f4f776e61626c653a206e6577206f776e657220697320746865207a65726f206181526564647265737360d01b602082015260400192915050565b60006121ff601483612973565b73149154d413d394d154d7d513d3d7d5905492515160621b815260200192915050565b600061222f601b83612973565b7f536166654d6174683a206164646974696f6e206f766572666c6f770000000000815260200192915050565b6000612268601b83612973565b7f53455454494e47535f4d5553545f42455f415f434f4e54524143540000000000815260200192915050565b60006122a1601783612973565b7f43414c4c45525f4d5553545f42455f434f4e5452414354000000000000000000815260200192915050565b60006122da601283612973565b7129a4a3a722a92fa727a721a2afaa20a5a2a760711b815260200192915050565b6000612308602183612973565b7f526f6c65733a206163636f756e7420646f6573206e6f74206861766520726f6c8152606560f81b602082015260400192915050565b600061234b601c83612973565b7f494e5445524553545f524551554553545f4e4f4e43455f54414b454e00000000815260200192915050565b6000612384602183612973565b7f536166654d6174683a206d756c7469706c69636174696f6e206f766572666c6f8152607760f81b602082015260400192915050565b60006123c7602083612973565b7f4f776e61626c653a2063616c6c6572206973206e6f7420746865206f776e6572815260200192915050565b6000612400602283612973565b7f526f6c65733a206163636f756e7420697320746865207a65726f206164647265815261737360f01b602082015260400192915050565b6000612444602e83612973565b7f436f6e747261637420696e7374616e63652068617320616c726561647920626581526d195b881a5b9a5d1a585b1a5e995960921b602082015260400192915050565b6000612494601083612973565b6f149154d413d394d157d156141254915160821b815260200192915050565b60006124c0601183612973565b7014d251d3905515549157d2539590531251607a1b815260200192915050565b60006124ed601883612973565b7f53454e4445525f4841534e545f5045524d495353494f4e530000000000000000815260200192915050565b600061252660188361297c565b7f426173655570677261646561626c652e73657474696e67730000000000000000815260180192915050565b600061255f601883612973565b7f434f4e54524143545f4e4f545f494e495449414c495a45440000000000000000815260200192915050565b6000612598601c83612973565b7f434f4e54524143545f414c52454144595f494e495449414c495a454400000000815260200192915050565b60006125d1601f83612973565b7f494e5445524553545f494e53554646494349454e545f524553504f4e53455300815260200192915050565b61202d816129a0565b60006108d982612097565b600061261c82612138565b91506126288284612045565b50602001919050565b60006108d982612519565b602081016108d98284612024565b6101008101612659828b612024565b612666602083018a612024565b6126736040830189612024565b612680606083018861203c565b61268d608083018761203c565b61269a60a083018661203c565b6126a760c083018561203c565b6126b460e083018461203c565b9998505050505050505050565b60c081016126cf8289612024565b6126dc602083018861203c565b6126e9604083018761203c565b6126f6606083018661203c565b612703608083018561203c565b61271060a083018461203c565b979650505050505050565b602081016108d98284612033565b602081016108d9828461203c565b60808101612745828761203c565b61275260208301866125fd565b61275f604083018561203c565b61276c606083018461203c565b95945050505050565b602081016108d98284612056565b602080825281016109db818461205f565b602080825281016108d9816120d0565b602080825281016108d981612109565b602080825281016108d981612171565b602080825281016108d9816121aa565b602080825281016108d9816121f2565b602080825281016108d981612222565b602080825281016108d98161225b565b602080825281016108d981612294565b602080825281016108d9816122cd565b602080825281016108d9816122fb565b602080825281016108d98161233e565b602080825281016108d981612377565b602080825281016108d9816123ba565b602080825281016108d9816123f3565b602080825281016108d981612437565b602080825281016108d981612487565b602080825281016108d9816124b3565b602080825281016108d9816124e0565b602080825281016108d981612552565b602080825281016108d98161258b565b602080825281016108d9816125c4565b606081016128f2828661203c565b6128ff602083018561203c565b61111c604083018461203c565b6080810161291a828761203c565b612752602083018661203c565b60405181810167ffffffffffffffff8111828210171561294657600080fd5b604052919050565b600067ffffffffffffffff82111561296557600080fd5b5060209081020190565b5190565b90815260200190565b919050565b60006108d982612994565b151590565b90565b6001600160a01b031690565b60ff1690565b60006108d982612981565b60005b838110156129cc5781810151838201526020016129b4565b838111156129db576000848401525b50505050565b601f01601f191690565b6129f481612981565b811461043e57600080fd5b6129f48161298c565b6129f481612991565b6129f4816129a056fe608060405234801561001057600080fd5b5061020b806100206000396000f3fe608060405234801561001057600080fd5b50600436106100935760003560e01c80633ff591d9116100665780633ff591d9146100ca578063c41dd8ce146100d2578063cc44cadb146100da578063e00a4615146100e2578063e3f33d00146100ea57610093565b806308b04f62146100985780631139087a146100b257806311880cc8146100ba5780633b98dfdb146100c2575b600080fd5b6100a06100f2565b60408051918252519081900360200190f35b6100a0610109565b6100a0610121565b6100a0610136565b6100a061015a565b6100a0610174565b6100a061018b565b6100a06101a5565b6100a06101bb565b6f21b7b63630ba32b930b6213ab33332b960811b81565b704c6971756964617465457468507269636560781b81565b6d14d859995d1e525b9d195c9d985b60921b81565b7f526571756573744c6f616e5465726d73526174654c696d69740000000000000081565b7252657175697265645375626d697373696f6e7360681b81565b6f4d6178696d756d546f6c6572616e636560801b81565b7226b0bc34b6bab6a637b0b7223ab930ba34b7b760691b81565b6e5465726d7345787069727954696d6560881b81565b730a4cae6e0dedce6ca8af0e0d2e4f298cadccee8d60631b8156fea265627a7a72315820b6cc93d12d39f205ac91b27ee8876405b81cd752a680e010a2828f9ed81bbbb364736f6c63430005110032a365627a7a723158203545a348e76c9a4372aaf051bc7a88e5569f61927a9ae0a438e76d32dd0ca1066c6578706572696d656e74616cf564736f6c63430005110040",
  "source": "pragma solidity 0.5.17;\npragma experimental ABIEncoderV2;\n\nimport \"../../base/InterestConsensus.sol\";\n\ncontract InterestConsensusMock is InterestConsensus {\n    uint256 private _mockChainId = 1; // Mainnet\n\n    function mockInterestSubmissions(\n        address lender,\n        uint256 endTime,\n        uint256 totalSubmissions,\n        uint256 maxValue,\n        uint256 minValue,\n        uint256 sumOfValues\n    ) external {\n        interestSubmissions[lender][endTime] = NumbersList.Values({\n            count: totalSubmissions,\n            min: minValue,\n            max: maxValue,\n            sum: sumOfValues\n        });\n    }\n\n    function mockHasSubmitted(\n        address signer,\n        address lender,\n        uint256 blockNumber,\n        bool hasSub\n    ) external {\n        hasSubmitted[signer][lender][blockNumber] = hasSub;\n    }\n\n    function mockSignerNonce(\n        address signer,\n        uint256 signerNonce,\n        bool taken\n    ) external {\n        signerNonceTaken[signer][signerNonce] = taken;\n    }\n\n    function mockChainId(uint256 newChainId) external {\n        _mockChainId = newChainId;\n    }\n\n    function externalProcessResponse(\n        TellerCommon.InterestRequest calldata request,\n        TellerCommon.InterestResponse calldata response,\n        bytes32 requestHash\n    ) external {\n        _processResponse(request, response, requestHash);\n    }\n\n    function externalHashResponse(\n        TellerCommon.InterestResponse calldata response,\n        bytes32 requestHash\n    ) external view returns (bytes32) {\n        return _hashResponse(response, requestHash);\n    }\n\n    function externalHashRequest(TellerCommon.InterestRequest calldata request)\n        external\n        view\n        returns (bytes32)\n    {\n        return _hashRequest(request);\n    }\n\n    function _getChainId() internal view returns (uint256) {\n        return _mockChainId;\n    }\n\n    function mockRequestNonce(\n        address lender,\n        uint256 requestNonce,\n        bool taken\n    ) external {\n        requestNonceTaken[lender][requestNonce] = taken;\n    }\n\n    function _isCaller(address) internal view returns (bool) {\n        return true;\n    }\n}\n",
  "sourcePath": "/Users/sy/Documents/GitHub/teller-protocol-v1/contracts/mock/base/InterestConsensusMock.sol",
  "compiler": {
    "name": "solc",
    "version": "0.5.17+commit.d19bba13.Emscripten.clang"
  },
  "schemaVersion": "3.0.23",
  "updatedAt": "2020-09-06T02:15:12.465Z",
  "devdoc": {
    "methods": {
      "addSigner(address)": {
        "details": "The sender must be the owner.It throws a require error if the sender is not the owner.",
        "params": {
          "account": "address to add."
        }
      },
      "addSigners(address[])": {
        "details": "The sender must be the owner.It throws a require error if the sender is not the owner.",
        "params": {
          "accounts": "addresses to add."
        }
      },
      "initialize(address)": {
        "details": "Initializes the contract setting the deployer as the initial owner."
      },
      "initialize(address,address,address)": {
        "details": "The caller address must be the loans contract for LoanTermsConsensus, and the lenders contract for InterestConsensus.",
        "params": {
          "aCallerAddress": "the contract that will call it.",
          "aSettingAddress": "the settings contract address.",
          "owner": "the owner address."
        }
      },
      "initialized()": {
        "return": "true if contract is initialized. Otherwise it returns false."
      },
      "isOwner()": {
        "details": "Returns true if the caller is the current owner."
      },
      "isSigner(address)": {
        "params": {
          "account": "address to test."
        },
        "return": "true if account is a signer. Otherwise it returns false."
      },
      "owner()": {
        "details": "Returns the address of the current owner."
      },
      "processRequest((address,address,uint256,uint256,uint256,uint256),(address,address,uint256,uint256,(uint256,uint8,bytes32,bytes32))[])": {
        "params": {
          "request": "the interest request sent by the lender.",
          "responses": "all node responses to process."
        },
        "return": "the consensus interest."
      },
      "removeSigner(address)": {
        "details": "The sender must be the owner.It throws a require error if the sender is not the owner.",
        "params": {
          "account": "address to remove."
        }
      },
      "renounceOwnership()": {
        "details": "Leaves the contract without owner. It will not be possible to call `onlyOwner` functions anymore. Can only be called by the current owner.     * > Note: Renouncing ownership will leave the contract without an owner, thereby removing any functionality that is only available to the owner."
      },
      "transferOwnership(address)": {
        "details": "Transfers ownership of the contract to a new account (`newOwner`). Can only be called by the current owner."
      }
    }
  },
  "userdoc": {
    "methods": {
      "addSigner(address)": {
        "notice": "It adds a new account as a signer."
      },
      "addSigners(address[])": {
        "notice": "It adds a list of account as signers."
      },
      "initialize(address,address,address)": {
        "notice": "It initializes this consensus contract."
      },
      "initialized()": {
        "notice": "Gets if the contract is initialized."
      },
      "isSigner(address)": {
        "notice": "Gets whether an account address is a signer or not."
      },
      "processRequest((address,address,uint256,uint256,uint256,uint256),(address,address,uint256,uint256,(uint256,uint8,bytes32,bytes32))[])": {
        "notice": "It processes all the node responses for a request in order to get a consensus value."
      },
      "removeSigner(address)": {
        "notice": "It removes an account as signer."
      },
      "settings()": {
        "notice": "The settings contract."
      }
    }
  }
}