{
  "contractName": "InterestConsensus",
  "abi": [
    {
      "anonymous": false,
      "inputs": [
        {
          "indexed": true,
          "internalType": "address",
          "name": "lender",
          "type": "address"
        },
        {
          "indexed": false,
          "internalType": "uint256",
          "name": "requestNonce",
          "type": "uint256"
        },
        {
          "indexed": false,
          "internalType": "uint256",
          "name": "endTime",
          "type": "uint256"
        },
        {
          "indexed": false,
          "internalType": "uint256",
          "name": "interest",
          "type": "uint256"
        }
      ],
      "name": "InterestAccepted",
      "type": "event"
    },
    {
      "anonymous": false,
      "inputs": [
        {
          "indexed": true,
          "internalType": "address",
          "name": "signer",
          "type": "address"
        },
        {
          "indexed": true,
          "internalType": "address",
          "name": "lender",
          "type": "address"
        },
        {
          "indexed": false,
          "internalType": "uint256",
          "name": "requestNonce",
          "type": "uint256"
        },
        {
          "indexed": false,
          "internalType": "uint256",
          "name": "endTime",
          "type": "uint256"
        },
        {
          "indexed": false,
          "internalType": "uint256",
          "name": "interest",
          "type": "uint256"
        }
      ],
      "name": "InterestSubmitted",
      "type": "event"
    },
    {
      "anonymous": false,
      "inputs": [
        {
          "indexed": true,
          "internalType": "address",
          "name": "previousOwner",
          "type": "address"
        },
        {
          "indexed": true,
          "internalType": "address",
          "name": "newOwner",
          "type": "address"
        }
      ],
      "name": "OwnershipTransferred",
      "type": "event"
    },
    {
      "anonymous": false,
      "inputs": [
        {
          "indexed": true,
          "internalType": "address",
          "name": "account",
          "type": "address"
        }
      ],
      "name": "SignerAdded",
      "type": "event"
    },
    {
      "anonymous": false,
      "inputs": [
        {
          "indexed": true,
          "internalType": "address",
          "name": "account",
          "type": "address"
        }
      ],
      "name": "SignerRemoved",
      "type": "event"
    },
    {
      "constant": false,
      "inputs": [
        {
          "internalType": "address",
          "name": "account",
          "type": "address"
        }
      ],
      "name": "addSigner",
      "outputs": [],
      "payable": false,
      "stateMutability": "nonpayable",
      "type": "function"
    },
    {
      "constant": false,
      "inputs": [
        {
          "internalType": "address[]",
          "name": "accounts",
          "type": "address[]"
        }
      ],
      "name": "addSigners",
      "outputs": [],
      "payable": false,
      "stateMutability": "nonpayable",
      "type": "function"
    },
    {
      "constant": true,
      "inputs": [],
      "name": "callerAddress",
      "outputs": [
        {
          "internalType": "address",
          "name": "",
          "type": "address"
        }
      ],
      "payable": false,
      "stateMutability": "view",
      "type": "function"
    },
    {
      "constant": true,
      "inputs": [],
      "name": "consts",
      "outputs": [
        {
          "internalType": "contract SettingsConsts",
          "name": "",
          "type": "address"
        }
      ],
      "payable": false,
      "stateMutability": "view",
      "type": "function"
    },
    {
      "constant": true,
      "inputs": [
        {
          "internalType": "address",
          "name": "",
          "type": "address"
        },
        {
          "internalType": "address",
          "name": "",
          "type": "address"
        },
        {
          "internalType": "uint256",
          "name": "",
          "type": "uint256"
        }
      ],
      "name": "hasSubmitted",
      "outputs": [
        {
          "internalType": "bool",
          "name": "",
          "type": "bool"
        }
      ],
      "payable": false,
      "stateMutability": "view",
      "type": "function"
    },
    {
      "constant": false,
      "inputs": [],
      "name": "initialize",
      "outputs": [],
      "payable": false,
      "stateMutability": "nonpayable",
      "type": "function"
    },
    {
      "constant": false,
      "inputs": [
        {
          "internalType": "address",
          "name": "owner",
          "type": "address"
        },
        {
          "internalType": "address",
          "name": "aCallerAddress",
          "type": "address"
        },
        {
          "internalType": "address",
          "name": "aSettingAddress",
          "type": "address"
        }
      ],
      "name": "initialize",
      "outputs": [],
      "payable": false,
      "stateMutability": "nonpayable",
      "type": "function"
    },
    {
      "constant": false,
      "inputs": [
        {
          "internalType": "address",
          "name": "sender",
          "type": "address"
        }
      ],
      "name": "initialize",
      "outputs": [],
      "payable": false,
      "stateMutability": "nonpayable",
      "type": "function"
    },
    {
      "constant": true,
      "inputs": [],
      "name": "initialized",
      "outputs": [
        {
          "internalType": "bool",
          "name": "value",
          "type": "bool"
        }
      ],
      "payable": false,
      "stateMutability": "view",
      "type": "function"
    },
    {
      "constant": true,
      "inputs": [
        {
          "internalType": "address",
          "name": "",
          "type": "address"
        },
        {
          "internalType": "uint256",
          "name": "",
          "type": "uint256"
        }
      ],
      "name": "interestSubmissions",
      "outputs": [
        {
          "internalType": "uint256",
          "name": "count",
          "type": "uint256"
        },
        {
          "internalType": "uint256",
          "name": "max",
          "type": "uint256"
        },
        {
          "internalType": "uint256",
          "name": "min",
          "type": "uint256"
        },
        {
          "internalType": "uint256",
          "name": "sum",
          "type": "uint256"
        }
      ],
      "payable": false,
      "stateMutability": "view",
      "type": "function"
    },
    {
      "constant": true,
      "inputs": [],
      "name": "isOwner",
      "outputs": [
        {
          "internalType": "bool",
          "name": "",
          "type": "bool"
        }
      ],
      "payable": false,
      "stateMutability": "view",
      "type": "function"
    },
    {
      "constant": true,
      "inputs": [
        {
          "internalType": "address",
          "name": "account",
          "type": "address"
        }
      ],
      "name": "isSigner",
      "outputs": [
        {
          "internalType": "bool",
          "name": "",
          "type": "bool"
        }
      ],
      "payable": false,
      "stateMutability": "view",
      "type": "function"
    },
    {
      "constant": true,
      "inputs": [],
      "name": "owner",
      "outputs": [
        {
          "internalType": "address",
          "name": "",
          "type": "address"
        }
      ],
      "payable": false,
      "stateMutability": "view",
      "type": "function"
    },
    {
      "constant": false,
      "inputs": [
        {
          "internalType": "address",
          "name": "account",
          "type": "address"
        }
      ],
      "name": "removeSigner",
      "outputs": [],
      "payable": false,
      "stateMutability": "nonpayable",
      "type": "function"
    },
    {
      "constant": false,
      "inputs": [],
      "name": "renounceOwnership",
      "outputs": [],
      "payable": false,
      "stateMutability": "nonpayable",
      "type": "function"
    },
    {
      "constant": true,
      "inputs": [
        {
          "internalType": "address",
          "name": "",
          "type": "address"
        },
        {
          "internalType": "uint256",
          "name": "",
          "type": "uint256"
        }
      ],
      "name": "requestNonceTaken",
      "outputs": [
        {
          "internalType": "bool",
          "name": "",
          "type": "bool"
        }
      ],
      "payable": false,
      "stateMutability": "view",
      "type": "function"
    },
    {
      "constant": true,
      "inputs": [],
      "name": "settings",
      "outputs": [
        {
          "internalType": "contract SettingsInterface",
          "name": "",
          "type": "address"
        }
      ],
      "payable": false,
      "stateMutability": "view",
      "type": "function"
    },
    {
      "constant": true,
      "inputs": [
        {
          "internalType": "address",
          "name": "",
          "type": "address"
        },
        {
          "internalType": "uint256",
          "name": "",
          "type": "uint256"
        }
      ],
      "name": "signerNonceTaken",
      "outputs": [
        {
          "internalType": "bool",
          "name": "",
          "type": "bool"
        }
      ],
      "payable": false,
      "stateMutability": "view",
      "type": "function"
    },
    {
      "constant": false,
      "inputs": [
        {
          "internalType": "address",
          "name": "newOwner",
          "type": "address"
        }
      ],
      "name": "transferOwnership",
      "outputs": [],
      "payable": false,
      "stateMutability": "nonpayable",
      "type": "function"
    },
    {
      "constant": false,
      "inputs": [
        {
          "components": [
            {
              "internalType": "address",
              "name": "lender",
              "type": "address"
            },
            {
              "internalType": "address",
              "name": "consensusAddress",
              "type": "address"
            },
            {
              "internalType": "uint256",
              "name": "requestNonce",
              "type": "uint256"
            },
            {
              "internalType": "uint256",
              "name": "startTime",
              "type": "uint256"
            },
            {
              "internalType": "uint256",
              "name": "endTime",
              "type": "uint256"
            },
            {
              "internalType": "uint256",
              "name": "requestTime",
              "type": "uint256"
            }
          ],
          "internalType": "struct TellerCommon.InterestRequest",
          "name": "request",
          "type": "tuple"
        },
        {
          "components": [
            {
              "internalType": "address",
              "name": "signer",
              "type": "address"
            },
            {
              "internalType": "address",
              "name": "consensusAddress",
              "type": "address"
            },
            {
              "internalType": "uint256",
              "name": "responseTime",
              "type": "uint256"
            },
            {
              "internalType": "uint256",
              "name": "interest",
              "type": "uint256"
            },
            {
              "components": [
                {
                  "internalType": "uint256",
                  "name": "signerNonce",
                  "type": "uint256"
                },
                {
                  "internalType": "uint8",
                  "name": "v",
                  "type": "uint8"
                },
                {
                  "internalType": "bytes32",
                  "name": "r",
                  "type": "bytes32"
                },
                {
                  "internalType": "bytes32",
                  "name": "s",
                  "type": "bytes32"
                }
              ],
              "internalType": "struct TellerCommon.Signature",
              "name": "signature",
              "type": "tuple"
            }
          ],
          "internalType": "struct TellerCommon.InterestResponse[]",
          "name": "responses",
          "type": "tuple[]"
        }
      ],
      "name": "processRequest",
      "outputs": [
        {
          "internalType": "uint256",
          "name": "",
          "type": "uint256"
        }
      ],
      "payable": false,
      "stateMutability": "nonpayable",
      "type": "function"
    }
  ],
  "bytecode": "0x60806040526127f9806100136000396000f3fe608060405234801561001057600080fd5b506004361061012c5760003560e01c806399ffe065116100ad578063e8906a2d11610071578063e8906a2d14610250578063eb12d61e14610263578063f2fde38b14610276578063faa8aab114610289578063fb98d9e2146102915761012c565b806399ffe065146101fa578063c0c53b8b1461020d578063c4d66de814610220578063d86d744e14610233578063e06174e4146102485761012c565b8063715018a6116100f4578063715018a6146101ba5780637df73e27146101c25780638129fc1c146101d55780638da5cb5b146101dd5780638f32d59b146101f25761012c565b80630e316ab714610131578063158ef93e1461014657806365e8eb8e1461016457806367136b351461018757806368fcdeb8146101a7575b600080fd5b61014461013f3660046119d0565b6102a4565b005b61014e6102dd565b60405161015b9190612295565b60405180910390f35b610177610172366004611a7e565b6102fc565b60405161015b9493929190612486565b61019a610195366004611b0b565b61032e565b60405161015b91906122a3565b61014e6101b5366004611a7e565b610664565b610144610684565b61014e6101d03660046119d0565b6106f2565b61014461070b565b6101e5610792565b60405161015b91906121b6565b61014e6107a1565b61014e610208366004611a3b565b6107c7565b61014461021b3660046119ee565b6107ed565b61014461022e3660046119d0565b6108bb565b61023b61098e565b60405161015b91906122ef565b61023b61099d565b61014461025e366004611ab8565b6109bf565b6101446102713660046119d0565b610a47565b6101446102843660046119d0565b610a74565b6101e5610aa1565b61014e61029f366004611a7e565b610ab0565b6102ac6107a1565b6102d15760405162461bcd60e51b81526004016102c8906123ce565b60405180910390fd5b6102da81610ad0565b50565b6000806040516102ec90612180565b6040519081900390205492915050565b609f60209081526000928352604080842090915290825290208054600182015460028301546003909301549192909184565b60006103386102dd565b6103545760405162461bcd60e51b81526004016102c89061242e565b3361035e81610b18565b61037a5760405162461bcd60e51b81526004016102c89061241e565b61038261099d565b6001600160a01b031663269012a0609d60009054906101000a90046001600160a01b03166001600160a01b0316633ff591d96040518163ffffffff1660e01b815260040160206040518083038186803b1580156103de57600080fd5b505afa1580156103f2573d6000803e3d6000fd5b505050506040513d601f19601f820116820180604052506104169190810190611aed565b6040518263ffffffff1660e01b815260040161043291906122a3565b60206040518083038186803b15801561044a57600080fd5b505afa15801561045e573d6000803e3d6000fd5b505050506040513d601f19601f820116820180604052506104829190810190611aed565b8310156104a15760405162461bcd60e51b81526004016102c89061244e565b609e60006104b260208801886119d0565b6001600160a01b031681526020808201929092526040908101600090812088830135825290925290205460ff16156104fc5760405162461bcd60e51b81526004016102c8906123ae565b6001609e600061050f60208901896119d0565b6001600160a01b03168152602080820192909252604090810160009081208983013582529092528120805460ff19169215159290921790915561055f61055a36889003880188611b61565b610b2c565b905060005b848110156105af576105a761057e36899003890189611b61565b87878481811061058a57fe5b905061010002018036036105a19190810190611b7f565b84610b98565b600101610564565b5060006105ff609f826105c560208b018b6119d0565b6001600160a01b03166001600160a01b03168152602001908152602001600020600089608001358152602001908152602001600020610c6d565b905061060e60208801886119d0565b6001600160a01b03167f3ae9cc3885aef787ea70c8cdfc77b61a78c7b546f8d22ea80fa0aeb7b0894b1488604001358960800135846040516106529392919061245e565b60405180910390a29695505050505050565b609b60209081526000928352604080842090915290825290205460ff1681565b61068c6107a1565b6106a85760405162461bcd60e51b81526004016102c8906123ce565b6066546040516000916001600160a01b0316907f8be0079c531659141344cd1fd0a4f28419497f9722a3daafe3b4186f6b6457e0908390a3606680546001600160a01b0319169055565b600061070560998363ffffffff610dac16565b92915050565b600054610100900460ff16806107245750610724610df4565b80610732575060005460ff16155b61074e5760405162461bcd60e51b81526004016102c8906123ee565b600054610100900460ff16158015610779576000805460ff1961ff0019909116610100171660011790555b600160335580156102da576000805461ff001916905550565b6066546001600160a01b031690565b6066546000906001600160a01b03166107b8610dfa565b6001600160a01b031614905090565b609a60209081526000938452604080852082529284528284209052825290205460ff1681565b6107f56102dd565b156108125760405162461bcd60e51b81526004016102c89061243e565b610824826001600160a01b0316610dfe565b6108405760405162461bcd60e51b81526004016102c89061237e565b610849836108bb565b61085281610e3a565b609c80546001600160a01b0319166001600160a01b0384161790556040516108799061172c565b604051809103906000f080158015610895573d6000803e3d6000fd5b50609d80546001600160a01b0319166001600160a01b0392909216919091179055505050565b600054610100900460ff16806108d457506108d4610df4565b806108e2575060005460ff16155b6108fe5760405162461bcd60e51b81526004016102c8906123ee565b600054610100900460ff16158015610929576000805460ff1961ff0019909116610100171660011790555b606680546001600160a01b0319166001600160a01b0384811691909117918290556040519116906000907f8be0079c531659141344cd1fd0a4f28419497f9722a3daafe3b4186f6b6457e0908290a3801561098a576000805461ff00191690555b5050565b609d546001600160a01b031681565b60008060006040516109ae906121ab565b604051908190039020549250505090565b6109c76107a1565b6109e35760405162461bcd60e51b81526004016102c8906123ce565b6000815111610a045760405162461bcd60e51b81526004016102c89061231e565b60005b815181101561098a576000828281518110610a1e57fe5b60200260200101519050610a31816106f2565b610a3e57610a3e81610eec565b50600101610a07565b610a4f6107a1565b610a6b5760405162461bcd60e51b81526004016102c8906123ce565b6102da81610eec565b610a7c6107a1565b610a985760405162461bcd60e51b81526004016102c8906123ce565b6102da81610f34565b609c546001600160a01b031681565b609e60209081526000928352604080842090915290825290205460ff1681565b610ae160998263ffffffff610fb616565b6040516001600160a01b038216907f3525e22824a8a7df2c9a6029941c824cf95b6447f1e13d5128fd3826d35afe8b90600090a250565b609c546001600160a01b0391821691161490565b609c548151602083015160408401516060850151608086015160a08701516000966001600160a01b0316959493929190610b64610ffe565b604051602001610b7b9897969594939291906121c4565b604051602081830303815290604052805190602001209050919050565b6000610ba48383611002565b9050610bc88360000151856000015186608001518660400151858860800151611058565b606083015184516001600160a01b03166000908152609f60209081526040808320608089015184529091529020610c049163ffffffff61127416565b83600001516001600160a01b031683600001516001600160a01b03167f6f00cb8f849a2a1b231819b8145a2da4a16ffffe806e5e39787bc79ca276097c866040015187608001518760600151604051610c5f9392919061245e565b60405180910390a350505050565b6000610d87610c7a61099d565b6001600160a01b031663269012a0609d60009054906101000a90046001600160a01b03166001600160a01b031663c41dd8ce6040518163ffffffff1660e01b815260040160206040518083038186803b158015610cd657600080fd5b505afa158015610cea573d6000803e3d6000fd5b505050506040513d601f19601f82011682018060405250610d0e9190810190611aed565b6040518263ffffffff1660e01b8152600401610d2a91906122a3565b60206040518083038186803b158015610d4257600080fd5b505afa158015610d56573d6000803e3d6000fd5b505050506040513d601f19601f82011682018060405250610d7a9190810190611aed565b839063ffffffff6112d916565b610da35760405162461bcd60e51b81526004016102c89061234e565b6107058261138a565b60006001600160a01b038216610dd45760405162461bcd60e51b81526004016102c8906123de565b506001600160a01b03166000908152602091909152604090205460ff1690565b303b1590565b3390565b6000813f7fc5d2460186f7233c927e7db2dcc703c0e500b653ca82273b7bfad8045d85a470818114801590610e3257508115155b949350505050565b610e426102dd565b15610e5f5760405162461bcd60e51b81526004016102c89061243e565b60408051808201909152601981527f53455454494e47535f4d5553545f42455f50524f5649444544000000000000006020820152610ead906001600160a01b0383169063ffffffff6113c316565b610ebf816001600160a01b0316610dfe565b610edb5760405162461bcd60e51b81526004016102c89061236e565b610ee36113f0565b6102da8161140e565b610efd60998263ffffffff61147716565b6040516001600160a01b038216907f47d1c22a25bb3a5d4e481b9b1e6944c2eade3181a0a20b495ed61d35b5323f2490600090a250565b6001600160a01b038116610f5a5760405162461bcd60e51b81526004016102c89061233e565b6066546040516001600160a01b038084169216907f8be0079c531659141344cd1fd0a4f28419497f9722a3daafe3b4186f6b6457e090600090a3606680546001600160a01b0319166001600160a01b0392909216919091179055565b610fc08282610dac565b610fdc5760405162461bcd60e51b81526004016102c89061239e565b6001600160a01b0316600090815260209190915260409020805460ff19169055565b4690565b6000826020015183604001518460600151856080015160000151611024610ffe565b8660405160200161103a9695949392919061223b565b60405160208183030381529060405280519060200120905092915050565b6001600160a01b038087166000908152609a6020908152604080832093891683529281528282208783529052205460ff16156110a65760405162461bcd60e51b81526004016102c89061232e565b6001600160a01b038087166000908152609a602090815260408083209389168352928152828220878352905220805460ff191660011790556111f66110e961099d565b6001600160a01b031663269012a0609d60009054906101000a90046001600160a01b03166001600160a01b031663e3f33d006040518163ffffffff1660e01b815260040160206040518083038186803b15801561114557600080fd5b505afa158015611159573d6000803e3d6000fd5b505050506040513d601f19601f8201168201806040525061117d9190810190611aed565b6040518263ffffffff1660e01b815260040161119991906122a3565b60206040518083038186803b1580156111b157600080fd5b505afa1580156111c5573d6000803e3d6000fd5b505050506040513d601f19601f820116820180604052506111e99190810190611aed565b429063ffffffff6114c316565b8310156112155760405162461bcd60e51b81526004016102c8906123fe565b61122081838861150c565b61123c5760405162461bcd60e51b81526004016102c89061240e565b6001600160a01b039095166000908152609b602090815260408083209751835296905294909420805460ff1916600117905550505050565b808260010154101561128857600182018190555b808260020154118061129957508154155b156112a657600282018190555b60038201546112bb908263ffffffff61160416565b600383015581546112d390600163ffffffff61160416565b90915550565b60006112e483611629565b156112f157506000610705565b60006112fc8461138a565b90506000611322612710611316848763ffffffff61163b16565b9063ffffffff61167516565b90506000611336838363ffffffff6114c316565b905080866002015410156113505760009350505050610705565b6000611362848463ffffffff61160416565b9050808760010154111561137d576000945050505050610705565b5060019695505050505050565b600061139582611629565b6113bb576113b66113a5836116b7565b60038401549063ffffffff61167516565b610705565b506000919050565b6113cc826116bb565b81906113eb5760405162461bcd60e51b81526004016102c891906122fd565b505050565b60006040516113fe90612180565b6040519081900390206001905550565b600061141861099d565b6001600160a01b03161461145957611438816001600160a01b0316610dfe565b6114545760405162461bcd60e51b81526004016102c89061236e565b6102da565b6000604051611467906121ab565b6040519081900390208290555050565b6114818282610dac565b1561149e5760405162461bcd60e51b81526004016102c89061230e565b6001600160a01b0316600090815260209190915260409020805460ff19166001179055565b600061150583836040518060400160405280601e81526020017f536166654d6174683a207375627472616374696f6e206f766572666c6f7700008152506116c9565b9392505050565b6000611517826106f2565b61152357506000611505565b6001600160a01b0382166000908152609b602090815260408083208751845290915290205460ff16156115685760405162461bcd60e51b81526004016102c89061238e565b600060018460405160200161157d919061218b565b60405160208183030381529060405280519060200120866020015187604001518860600151604051600081526020016040526040516115bf94939291906122b1565b6020604051602081039080840390855afa1580156115e1573d6000803e3d6000fd5b5050604051601f1901516001600160a01b03858116911614925050509392505050565b6000828201838110156115055760405162461bcd60e51b81526004016102c89061235e565b6000611634826116b7565b1592915050565b60008261164a57506000610705565b8282028284828161165757fe5b04146115055760405162461bcd60e51b81526004016102c8906123be565b600061150583836040518060400160405280601a81526020017f536166654d6174683a206469766973696f6e206279207a65726f0000000000008152506116f5565b5490565b6001600160a01b0316151590565b600081848411156116ed5760405162461bcd60e51b81526004016102c891906122fd565b505050900390565b600081836117165760405162461bcd60e51b81526004016102c891906122fd565b50600083858161172257fe5b0495945050505050565b61022b8061258c83390190565b803561070581612565565b600082601f83011261175557600080fd5b8135611768611763826124c8565b6124a1565b9150818183526020840193506020810190508385602084028201111561178d57600080fd5b60005b838110156117b957816117a38882611739565b8452506020928301929190910190600101611790565b5050505092915050565b60008083601f8401126117d557600080fd5b50813567ffffffffffffffff8111156117ed57600080fd5b6020830191508361010082028301111561180657600080fd5b9250929050565b803561070581612579565b805161070581612579565b600060c0828403121561183557600080fd5b50919050565b600060c0828403121561184d57600080fd5b61185760c06124a1565b905060006118658484611739565b825250602061187684848301611739565b602083015250604061188a8482850161180d565b604083015250606061189e8482850161180d565b60608301525060806118b28482850161180d565b60808301525060a06118c68482850161180d565b60a08301525092915050565b600061010082840312156118e557600080fd5b6118ef60a06124a1565b905060006118fd8484611739565b825250602061190e84848301611739565b60208301525060406119228482850161180d565b60408301525060606119368482850161180d565b606083015250608061194a84828501611956565b60808301525092915050565b60006080828403121561196857600080fd5b61197260806124a1565b90506000611980848461180d565b8252506020611991848483016119c5565b60208301525060406119a58482850161180d565b60408301525060606119b98482850161180d565b60608301525092915050565b803561070581612582565b6000602082840312156119e257600080fd5b6000610e328484611739565b600080600060608486031215611a0357600080fd5b6000611a0f8686611739565b9350506020611a2086828701611739565b9250506040611a3186828701611739565b9150509250925092565b600080600060608486031215611a5057600080fd5b6000611a5c8686611739565b9350506020611a6d86828701611739565b9250506040611a318682870161180d565b60008060408385031215611a9157600080fd5b6000611a9d8585611739565b9250506020611aae8582860161180d565b9150509250929050565b600060208284031215611aca57600080fd5b813567ffffffffffffffff811115611ae157600080fd5b610e3284828501611744565b600060208284031215611aff57600080fd5b6000610e328484611818565b600080600060e08486031215611b2057600080fd5b6000611b2c8686611823565b93505060c084013567ffffffffffffffff811115611b4957600080fd5b611b55868287016117c3565b92509250509250925092565b600060c08284031215611b7357600080fd5b6000610e32848461183b565b60006101008284031215611b9257600080fd5b6000610e3284846118d2565b611ba7816124fb565b82525050565b611ba781612506565b611ba78161250b565b611ba7611bcb8261250b565b61250b565b611ba781612520565b6000611be4826124e9565b611bee81856124ed565b9350611bfe81856020860161252b565b611c078161255b565b9093019392505050565b6000611c1e601c836124f6565b7f54496e697469616c697a61626c652e6973496e697469616c697a6564000000008152601c0192915050565b6000611c57601f836124ed565b7f526f6c65733a206163636f756e7420616c72656164792068617320726f6c6500815260200192915050565b6000611c906013836124ed565b724143434f554e54535f4c4953545f454d50545960681b815260200192915050565b6000611cbf601c836124f6565b7f19457468657265756d205369676e6564204d6573736167653a0a3332000000008152601c0192915050565b6000611cf86018836124ed565b7f5349474e45525f414c52454144595f5355424d49545445440000000000000000815260200192915050565b6000611d316026836124ed565b7f4f776e61626c653a206e6577206f776e657220697320746865207a65726f206181526564647265737360d01b602082015260400192915050565b6000611d796014836124ed565b73149154d413d394d154d7d513d3d7d5905492515160621b815260200192915050565b6000611da9601b836124ed565b7f536166654d6174683a206164646974696f6e206f766572666c6f770000000000815260200192915050565b6000611de2601b836124ed565b7f53455454494e47535f4d5553545f42455f415f434f4e54524143540000000000815260200192915050565b6000611e1b6017836124ed565b7f43414c4c45525f4d5553545f42455f434f4e5452414354000000000000000000815260200192915050565b6000611e546012836124ed565b7129a4a3a722a92fa727a721a2afaa20a5a2a760711b815260200192915050565b6000611e826021836124ed565b7f526f6c65733a206163636f756e7420646f6573206e6f74206861766520726f6c8152606560f81b602082015260400192915050565b6000611ec5601c836124ed565b7f494e5445524553545f524551554553545f4e4f4e43455f54414b454e00000000815260200192915050565b6000611efe6021836124ed565b7f536166654d6174683a206d756c7469706c69636174696f6e206f766572666c6f8152607760f81b602082015260400192915050565b6000611f416020836124ed565b7f4f776e61626c653a2063616c6c6572206973206e6f7420746865206f776e6572815260200192915050565b6000611f7a6022836124ed565b7f526f6c65733a206163636f756e7420697320746865207a65726f206164647265815261737360f01b602082015260400192915050565b6000611fbe602e836124ed565b7f436f6e747261637420696e7374616e63652068617320616c726561647920626581526d195b881a5b9a5d1a585b1a5e995960921b602082015260400192915050565b600061200e6010836124ed565b6f149154d413d394d157d156141254915160821b815260200192915050565b600061203a6011836124ed565b7014d251d3905515549157d2539590531251607a1b815260200192915050565b60006120676018836124ed565b7f53454e4445525f4841534e545f5045524d495353494f4e530000000000000000815260200192915050565b60006120a06018836124f6565b7f426173655570677261646561626c652e73657474696e67730000000000000000815260180192915050565b60006120d96018836124ed565b7f434f4e54524143545f4e4f545f494e495449414c495a45440000000000000000815260200192915050565b6000612112601c836124ed565b7f434f4e54524143545f414c52454144595f494e495449414c495a454400000000815260200192915050565b600061214b601f836124ed565b7f494e5445524553545f494e53554646494349454e545f524553504f4e53455300815260200192915050565b611ba78161251a565b600061070582611c11565b600061219682611cb2565b91506121a28284611bbf565b50602001919050565b600061070582612093565b602081016107058284611b9e565b61010081016121d3828b611b9e565b6121e0602083018a611b9e565b6121ed6040830189611b9e565b6121fa6060830188611bb6565b6122076080830187611bb6565b61221460a0830186611bb6565b61222160c0830185611bb6565b61222e60e0830184611bb6565b9998505050505050505050565b60c081016122498289611b9e565b6122566020830188611bb6565b6122636040830187611bb6565b6122706060830186611bb6565b61227d6080830185611bb6565b61228a60a0830184611bb6565b979650505050505050565b602081016107058284611bad565b602081016107058284611bb6565b608081016122bf8287611bb6565b6122cc6020830186612177565b6122d96040830185611bb6565b6122e66060830184611bb6565b95945050505050565b602081016107058284611bd0565b602080825281016115058184611bd9565b6020808252810161070581611c4a565b6020808252810161070581611c83565b6020808252810161070581611ceb565b6020808252810161070581611d24565b6020808252810161070581611d6c565b6020808252810161070581611d9c565b6020808252810161070581611dd5565b6020808252810161070581611e0e565b6020808252810161070581611e47565b6020808252810161070581611e75565b6020808252810161070581611eb8565b6020808252810161070581611ef1565b6020808252810161070581611f34565b6020808252810161070581611f6d565b6020808252810161070581611fb1565b6020808252810161070581612001565b602080825281016107058161202d565b602080825281016107058161205a565b60208082528101610705816120cc565b6020808252810161070581612105565b602080825281016107058161213e565b6060810161246c8286611bb6565b6124796020830185611bb6565b610e326040830184611bb6565b608081016124948287611bb6565b6122cc6020830186611bb6565b60405181810167ffffffffffffffff811182821017156124c057600080fd5b604052919050565b600067ffffffffffffffff8211156124df57600080fd5b5060209081020190565b5190565b90815260200190565b919050565b60006107058261250e565b151590565b90565b6001600160a01b031690565b60ff1690565b6000610705826124fb565b60005b8381101561254657818101518382015260200161252e565b83811115612555576000848401525b50505050565b601f01601f191690565b61256e816124fb565b81146102da57600080fd5b61256e8161250b565b61256e8161251a56fe608060405234801561001057600080fd5b5061020b806100206000396000f3fe608060405234801561001057600080fd5b50600436106100935760003560e01c80633ff591d9116100665780633ff591d9146100ca578063c41dd8ce146100d2578063cc44cadb146100da578063e00a4615146100e2578063e3f33d00146100ea57610093565b806308b04f62146100985780631139087a146100b257806311880cc8146100ba5780633b98dfdb146100c2575b600080fd5b6100a06100f2565b60408051918252519081900360200190f35b6100a0610109565b6100a0610121565b6100a0610136565b6100a061015a565b6100a0610174565b6100a061018b565b6100a06101a5565b6100a06101bb565b6f21b7b63630ba32b930b6213ab33332b960811b81565b704c6971756964617465457468507269636560781b81565b6d14d859995d1e525b9d195c9d985b60921b81565b7f526571756573744c6f616e5465726d73526174654c696d69740000000000000081565b7252657175697265645375626d697373696f6e7360681b81565b6f4d6178696d756d546f6c6572616e636560801b81565b7226b0bc34b6bab6a637b0b7223ab930ba34b7b760691b81565b6e5465726d7345787069727954696d6560881b81565b730a4cae6e0dedce6ca8af0e0d2e4f298cadccee8d60631b8156fea265627a7a72315820b6cc93d12d39f205ac91b27ee8876405b81cd752a680e010a2828f9ed81bbbb364736f6c63430005110032a365627a7a7231582064a6210b5122a4c9cd16c821f64caff039cf48de831aab24769f0b136d6dd0a76c6578706572696d656e74616cf564736f6c63430005110040",
  "source": "pragma solidity 0.5.17;\npragma experimental ABIEncoderV2;\n\n// Libraries\n\n// Interfaces\nimport \"../interfaces/InterestConsensusInterface.sol\";\n\n// Contracts\nimport \"./Consensus.sol\";\n\n/*****************************************************************************************************/\n/**                                             WARNING                                             **/\n/**                                  THIS CONTRACT IS UPGRADEABLE!                                  **/\n/**  ---------------------------------------------------------------------------------------------  **/\n/**  Do NOT change the order of or PREPEND any storage variables to this or new versions of this    **/\n/**  contract as this will cause the the storage slots to be overwritten on the proxy contract!!    **/\n/**                                                                                                 **/\n/**  Visit https://docs.openzeppelin.com/upgrades/2.6/proxies#upgrading-via-the-proxy-pattern for   **/\n/**  more information.                                                                              **/\n/*****************************************************************************************************/\n/**\n    @notice This contract processes the node responses to get consensus in the lender interest.\n\n    @author develop@teller.finance\n */\ncontract InterestConsensus is InterestConsensusInterface, Consensus {\n    /* State Variables */\n\n    // mapping of (lender, endTime) to the aggregated node submissions for their request\n    mapping(address => mapping(uint256 => NumbersList.Values)) public interestSubmissions;\n\n    /** Modifiers */\n\n    /* Constructor */\n\n    /* External Functions */\n    /**\n        @notice It processes all the node responses for a request in order to get a consensus value.\n        @param request the interest request sent by the lender.\n        @param responses all node responses to process.\n        @return the consensus interest.\n     */\n    function processRequest(\n        TellerCommon.InterestRequest calldata request,\n        TellerCommon.InterestResponse[] calldata responses\n    ) external isInitialized() isCaller(msg.sender) returns (uint256) {\n        require(\n            responses.length >=\n                settings().getPlatformSettingValue(consts.REQUIRED_SUBMISSIONS_SETTING()),\n            \"INTEREST_INSUFFICIENT_RESPONSES\"\n        );\n        require(\n            !requestNonceTaken[request.lender][request.requestNonce],\n            \"INTEREST_REQUEST_NONCE_TAKEN\"\n        );\n        requestNonceTaken[request.lender][request.requestNonce] = true;\n\n        bytes32 requestHash = _hashRequest(request);\n\n        for (uint256 i = 0; i < responses.length; i++) {\n            _processResponse(request, responses[i], requestHash);\n        }\n\n        uint256 interestAccrued = _getConsensus(\n            interestSubmissions[request.lender][request.endTime]\n        );\n\n        emit InterestAccepted(\n            request.lender,\n            request.requestNonce,\n            request.endTime,\n            interestAccrued\n        );\n\n        return interestAccrued;\n    }\n\n    /** Internal Functions */\n\n    /**\n        @notice It processes a node response.\n        @param request the interest request sent by the lender.\n        @param response a node response.\n     */\n    function _processResponse(\n        TellerCommon.InterestRequest memory request,\n        TellerCommon.InterestResponse memory response,\n        bytes32 requestHash\n    ) internal {\n        bytes32 responseHash = _hashResponse(response, requestHash);\n\n        _validateResponse(\n            response.signer,\n            request.lender,\n            request.endTime,\n            response.responseTime,\n            responseHash,\n            response.signature\n        );\n\n        interestSubmissions[request.lender][request.endTime].addValue(response.interest);\n\n        emit InterestSubmitted(\n            response.signer,\n            request.lender,\n            request.requestNonce,\n            request.endTime,\n            response.interest\n        );\n    }\n\n    /**\n        @notice It creates a hash based on a node response and lender request.\n        @param response a node response.\n        @param requestHash a hash value that represents the lender request.\n        @return a hash value.\n     */\n    function _hashResponse(\n        TellerCommon.InterestResponse memory response,\n        bytes32 requestHash\n    ) internal view returns (bytes32) {\n        return\n            keccak256(\n                abi.encode(\n                    response.consensusAddress,\n                    response.responseTime,\n                    response.interest,\n                    response.signature.signerNonce,\n                    _getChainId(),\n                    requestHash\n                )\n            );\n    }\n\n    /**\n        @notice It creates a hash value based on the lender request.\n        @param request the interest request sent by the lender.\n        @return a hash value.\n     */\n    function _hashRequest(TellerCommon.InterestRequest memory request)\n        internal\n        view\n        returns (bytes32)\n    {\n        return\n            keccak256(\n                abi.encode(\n                    callerAddress,\n                    request.lender,\n                    request.consensusAddress,\n                    request.requestNonce,\n                    request.startTime,\n                    request.endTime,\n                    request.requestTime,\n                    _getChainId()\n                )\n            );\n    }\n}\n",
  "sourcePath": "/Users/sy/Documents/GitHub/teller-protocol-v1/contracts/base/InterestConsensus.sol",
  "compiler": {
    "name": "solc",
    "version": "0.5.17+commit.d19bba13.Emscripten.clang"
  },
  "schemaVersion": "3.0.23",
  "updatedAt": "2020-09-06T02:15:12.209Z",
  "devdoc": {
    "author": "develop@teller.finance",
    "methods": {
      "addSigner(address)": {
        "details": "The sender must be the owner.It throws a require error if the sender is not the owner.",
        "params": {
          "account": "address to add."
        }
      },
      "addSigners(address[])": {
        "details": "The sender must be the owner.It throws a require error if the sender is not the owner.",
        "params": {
          "accounts": "addresses to add."
        }
      },
      "initialize(address)": {
        "details": "Initializes the contract setting the deployer as the initial owner."
      },
      "initialize(address,address,address)": {
        "details": "The caller address must be the loans contract for LoanTermsConsensus, and the lenders contract for InterestConsensus.",
        "params": {
          "aCallerAddress": "the contract that will call it.",
          "aSettingAddress": "the settings contract address.",
          "owner": "the owner address."
        }
      },
      "initialized()": {
        "return": "true if contract is initialized. Otherwise it returns false."
      },
      "isOwner()": {
        "details": "Returns true if the caller is the current owner."
      },
      "isSigner(address)": {
        "params": {
          "account": "address to test."
        },
        "return": "true if account is a signer. Otherwise it returns false."
      },
      "owner()": {
        "details": "Returns the address of the current owner."
      },
      "processRequest((address,address,uint256,uint256,uint256,uint256),(address,address,uint256,uint256,(uint256,uint8,bytes32,bytes32))[])": {
        "params": {
          "request": "the interest request sent by the lender.",
          "responses": "all node responses to process."
        },
        "return": "the consensus interest."
      },
      "removeSigner(address)": {
        "details": "The sender must be the owner.It throws a require error if the sender is not the owner.",
        "params": {
          "account": "address to remove."
        }
      },
      "renounceOwnership()": {
        "details": "Leaves the contract without owner. It will not be possible to call `onlyOwner` functions anymore. Can only be called by the current owner.     * > Note: Renouncing ownership will leave the contract without an owner, thereby removing any functionality that is only available to the owner."
      },
      "transferOwnership(address)": {
        "details": "Transfers ownership of the contract to a new account (`newOwner`). Can only be called by the current owner."
      }
    }
  },
  "userdoc": {
    "methods": {
      "addSigner(address)": {
        "notice": "It adds a new account as a signer."
      },
      "addSigners(address[])": {
        "notice": "It adds a list of account as signers."
      },
      "initialize(address,address,address)": {
        "notice": "It initializes this consensus contract."
      },
      "initialized()": {
        "notice": "Gets if the contract is initialized."
      },
      "isSigner(address)": {
        "notice": "Gets whether an account address is a signer or not."
      },
      "processRequest((address,address,uint256,uint256,uint256,uint256),(address,address,uint256,uint256,(uint256,uint8,bytes32,bytes32))[])": {
        "notice": "It processes all the node responses for a request in order to get a consensus value."
      },
      "removeSigner(address)": {
        "notice": "It removes an account as signer."
      },
      "settings()": {
        "notice": "The settings contract."
      }
    },
    "notice": "This contract processes the node responses to get consensus in the lender interest."
  }
}