{
  "contractName": "InverseChainlinkPairAggregator",
  "abi": [
    {
      "inputs": [
        {
          "internalType": "address",
          "name": "aggregatorAddress",
          "type": "address"
        },
        {
          "internalType": "uint8",
          "name": "responseDecimalsValue",
          "type": "uint8"
        },
        {
          "internalType": "uint8",
          "name": "collateralDecimalsValue",
          "type": "uint8"
        }
      ],
      "payable": false,
      "stateMutability": "nonpayable",
      "type": "constructor"
    },
    {
      "constant": true,
      "inputs": [],
      "name": "aggregator",
      "outputs": [
        {
          "internalType": "contract AggregatorInterface",
          "name": "",
          "type": "address"
        }
      ],
      "payable": false,
      "stateMutability": "view",
      "type": "function"
    },
    {
      "constant": true,
      "inputs": [],
      "name": "collateralDecimals",
      "outputs": [
        {
          "internalType": "uint8",
          "name": "",
          "type": "uint8"
        }
      ],
      "payable": false,
      "stateMutability": "view",
      "type": "function"
    },
    {
      "constant": true,
      "inputs": [],
      "name": "getLatestAnswer",
      "outputs": [
        {
          "internalType": "int256",
          "name": "",
          "type": "int256"
        }
      ],
      "payable": false,
      "stateMutability": "view",
      "type": "function"
    },
    {
      "constant": true,
      "inputs": [],
      "name": "getLatestRound",
      "outputs": [
        {
          "internalType": "uint256",
          "name": "",
          "type": "uint256"
        }
      ],
      "payable": false,
      "stateMutability": "view",
      "type": "function"
    },
    {
      "constant": true,
      "inputs": [],
      "name": "getLatestTimestamp",
      "outputs": [
        {
          "internalType": "uint256",
          "name": "",
          "type": "uint256"
        }
      ],
      "payable": false,
      "stateMutability": "view",
      "type": "function"
    },
    {
      "constant": true,
      "inputs": [
        {
          "internalType": "uint256",
          "name": "roundsBack",
          "type": "uint256"
        }
      ],
      "name": "getPreviousAnswer",
      "outputs": [
        {
          "internalType": "int256",
          "name": "",
          "type": "int256"
        }
      ],
      "payable": false,
      "stateMutability": "view",
      "type": "function"
    },
    {
      "constant": true,
      "inputs": [
        {
          "internalType": "uint256",
          "name": "roundsBack",
          "type": "uint256"
        }
      ],
      "name": "getPreviousTimestamp",
      "outputs": [
        {
          "internalType": "uint256",
          "name": "",
          "type": "uint256"
        }
      ],
      "payable": false,
      "stateMutability": "view",
      "type": "function"
    },
    {
      "constant": true,
      "inputs": [],
      "name": "pendingDecimals",
      "outputs": [
        {
          "internalType": "uint8",
          "name": "",
          "type": "uint8"
        }
      ],
      "payable": false,
      "stateMutability": "view",
      "type": "function"
    },
    {
      "constant": true,
      "inputs": [],
      "name": "responseDecimals",
      "outputs": [
        {
          "internalType": "uint8",
          "name": "",
          "type": "uint8"
        }
      ],
      "payable": false,
      "stateMutability": "view",
      "type": "function"
    }
  ],
  "bytecode": "0x608060405234801561001057600080fd5b5060405161078b38038061078b8339818101604052606081101561003357600080fd5b50805160208201516040909201519091908282826001600160a01b0383166100a2576040805162461bcd60e51b815260206004820152601a60248201527f50524f564944455f41474752454741544f525f41444452455353000000000000604482015290519081900360640190fd5b600080546001600160a01b0319166001600160a01b0385161760ff60a01b1916600160a01b60ff85811682029290921760ff60a81b1916600160a81b85841681029190911793849055908304821692041610610129576000805460ff600160a01b82048116600160a81b830482160316600160b01b0260ff60b01b19909116179055610156565b6000805460ff600160a81b82048116600160a01b830482160316600160b01b0260ff60b01b199091161790555b6000546032600160b01b90910460ff1611156101b9576040805162461bcd60e51b815260206004820152601d60248201527f4d41585f50454e44494e475f444543494d414c535f4558434545444544000000604482015290519081900360640190fd5b5050505050506105bd806101ce6000396000f3fe608060405234801561001057600080fd5b50600436106100935760003560e01c8063708fe4df11610066578063708fe4df1461011157806396237c0214610119578063d8d7e95014610121578063ec9c6c301461013e578063f43b52cb1461014657610093565b80630389212514610098578063117190dd146100c7578063245a7bfc146100e5578063490e93b314610109575b600080fd5b6100b5600480360360208110156100ae57600080fd5b503561014e565b60408051918252519081900360200190f35b6100cf61028b565b6040805160ff9092168252519081900360200190f35b6100ed61029b565b604080516001600160a01b039092168252519081900360200190f35b6100cf6102aa565b6100b56102ba565b6100b561033a565b6100b56004803603602081101561013757600080fd5b50356103bc565b6100cf6103da565b6100b56103ea565b6000805460408051633345078160e11b8152905183926001600160a01b03169163668a0f02916004808301926020929190829003018186803b15801561019357600080fd5b505afa1580156101a7573d6000803e3d6000fd5b505050506040513d60208110156101bd57600080fd5b505190508083111561020b576040805162461bcd60e51b81526020600482015260126024820152714e4f545f454e4f5547485f484953544f525960701b604482015290519081900360640190fd5b60005460408051632d8cd88360e21b8152858403600482015290516001600160a01b039092169163b633620c91602480820192602092909190829003018186803b15801561025857600080fd5b505afa15801561026c573d6000803e3d6000fd5b505050506040513d602081101561028257600080fd5b50519392505050565b600054600160a01b900460ff1681565b6000546001600160a01b031681565b600054600160b01b900460ff1681565b60008060009054906101000a90046001600160a01b03166001600160a01b031663668a0f026040518163ffffffff1660e01b815260040160206040518083038186803b15801561030957600080fd5b505afa15801561031d573d6000803e3d6000fd5b505050506040513d602081101561033357600080fd5b5051905090565b60008054604080516350d25bcd60e01b8152905183926001600160a01b0316916350d25bcd916004808301926020929190829003018186803b15801561037f57600080fd5b505afa158015610393573d6000803e3d6000fd5b505050506040513d60208110156103a957600080fd5b505190506103b681610439565b91505090565b6000806103c88361044a565b90506103d381610439565b9392505050565b600054600160a81b900460ff1681565b60008060009054906101000a90046001600160a01b03166001600160a01b0316638205bf6a6040518163ffffffff1660e01b815260040160206040518083038186803b15801561030957600080fd5b600061044482610554565b92915050565b6000805460408051633345078160e11b8152905183926001600160a01b03169163668a0f02916004808301926020929190829003018186803b15801561048f57600080fd5b505afa1580156104a3573d6000803e3d6000fd5b505050506040513d60208110156104b957600080fd5b5051905080831115610507576040805162461bcd60e51b81526020600482015260126024820152714e4f545f454e4f5547485f484953544f525960701b604482015290519081900360640190fd5b60005460408051632d6ad63760e21b8152858403600482015290516001600160a01b039092169163b5ab58dc91602480820192602092909190829003018186803b15801561025857600080fd5b600080548290600160a81b810460ff908116600a90810a600160a01b90930491909116900a028161058157fe5b059291505056fea265627a7a72315820b235d9996fbacb07e44713fe7922fad2db4e452d397f06a67e8e9d9c95f186ca64736f6c63430005110032",
  "source": "pragma solidity 0.5.17;\n\nimport \"./ChainlinkPairAggregator.sol\";\n\n\n/**\n    @notice This pair aggregator is used to inverse the pair oracle feed.\n    @notice As chainlink doesn't have some price oracles, sometimes instead of getting an oracle for 1 lending token = x collateral tokens, we have to get one for 1 collateral token = x lending tokens. But we still want the price returned as 1 WHOLE lending token, in collateral UNITS.\n    @author develop@teller.finance\n */\ncontract InverseChainlinkPairAggregator is ChainlinkPairAggregator {\n    /**\n        @notice It creates a new InverseChainlinkPairAggregator instance.\n        @param aggregatorAddress to use in this Chainlink pair aggregator.\n        @param responseDecimalsValue the decimals included in the Chainlink response.\n        @param collateralDecimalsValue the decimals included in the collateral token.\n    */\n    constructor(\n        address aggregatorAddress,\n        uint8 responseDecimalsValue,\n        uint8 collateralDecimalsValue\n    )\n        public\n        ChainlinkPairAggregator(\n            aggregatorAddress,\n            responseDecimalsValue,\n            collateralDecimalsValue\n        )\n    {}\n\n    /** External Functions */\n\n    /** Internal Functions */\n\n    /**\n        @notice It overrides the regular ChainlinkPairAggregator. It only inverses the response.\n        @param response to inverse.\n        @return a inversed value.\n     */\n    function _normalizeResponse(int256 response) internal view returns (int256) {\n        return _inverseValue(response);\n    }\n\n    /**\n        @notice It inverses the value from the Chainlink.\n        @dev See more details in our Gitbook website.\n        @return an inversed value.\n     */\n    function _inverseValue(int256 value) internal view returns (int256) {\n        return (int256(TEN**collateralDecimals) * int256(TEN**responseDecimals)) / value;\n    }\n}\n",
  "sourcePath": "/Users/sy/Documents/GitHub/teller-protocol-v1/contracts/providers/chainlink/InverseChainlinkPairAggregator.sol",
  "compiler": {
    "name": "solc",
    "version": "0.5.17+commit.d19bba13.Emscripten.clang"
  },
  "schemaVersion": "3.0.23",
  "updatedAt": "2020-08-28T22:57:04.059Z",
  "devdoc": {
    "author": "develop@teller.finance",
    "methods": {
      "constructor": {
        "params": {
          "aggregatorAddress": "to use in this Chainlink pair aggregator.",
          "collateralDecimalsValue": "the decimals included in the collateral token.",
          "responseDecimalsValue": "the decimals included in the Chainlink response."
        }
      },
      "getLatestAnswer()": {
        "return": "a normalized response value."
      },
      "getLatestRound()": {
        "return": "the latest round id."
      },
      "getLatestTimestamp()": {
        "return": "the latest timestamp."
      },
      "getPreviousAnswer(uint256)": {
        "params": {
          "roundsBack": "the answer number to retrieve the answer for"
        },
        "return": "a normalized response value."
      },
      "getPreviousTimestamp(uint256)": {
        "params": {
          "roundsBack": "the answer number to retrieve the updated timestamp for"
        },
        "return": "the previous timestamp."
      }
    }
  },
  "userdoc": {
    "methods": {
      "constructor": "It creates a new InverseChainlinkPairAggregator instance.",
      "getLatestAnswer()": {
        "notice": "Gets the current answer from the Chainlink aggregator oracle."
      },
      "getLatestRound()": {
        "notice": "Gets the latest completed round where the answer was updated."
      },
      "getLatestTimestamp()": {
        "notice": "Gets the last updated height from the aggregator."
      },
      "getPreviousAnswer(uint256)": {
        "notice": "Gets the past round answer from the Chainlink aggregator oracle."
      },
      "getPreviousTimestamp(uint256)": {
        "notice": "Gets block timestamp when an answer was last updated"
      }
    },
    "notice": "This pair aggregator is used to inverse the pair oracle feed.As chainlink doesn't have some price oracles, sometimes instead of getting an oracle for 1 lending token = x collateral tokens, we have to get one for 1 collateral token = x lending tokens. But we still want the price returned as 1 WHOLE lending token, in collateral UNITS."
  }
}