{
  "contractName": "Lenders",
  "abi": [
    {
      "anonymous": false,
      "inputs": [
        {
          "indexed": true,
          "internalType": "address",
          "name": "lender",
          "type": "address"
        },
        {
          "indexed": false,
          "internalType": "uint256",
          "name": "totalNotWithdrawn",
          "type": "uint256"
        },
        {
          "indexed": false,
          "internalType": "uint256",
          "name": "totalAccruedInterest",
          "type": "uint256"
        }
      ],
      "name": "AccruedInterestUpdated",
      "type": "event"
    },
    {
      "anonymous": false,
      "inputs": [
        {
          "indexed": true,
          "internalType": "address",
          "name": "recipient",
          "type": "address"
        },
        {
          "indexed": false,
          "internalType": "uint256",
          "name": "amount",
          "type": "uint256"
        }
      ],
      "name": "AccruedInterestWithdrawn",
      "type": "event"
    },
    {
      "constant": true,
      "inputs": [
        {
          "internalType": "address",
          "name": "",
          "type": "address"
        }
      ],
      "name": "accruedInterest",
      "outputs": [
        {
          "internalType": "uint256",
          "name": "totalAccruedInterest",
          "type": "uint256"
        },
        {
          "internalType": "uint256",
          "name": "totalNotWithdrawn",
          "type": "uint256"
        },
        {
          "internalType": "uint256",
          "name": "timeLastAccrued",
          "type": "uint256"
        }
      ],
      "payable": false,
      "stateMutability": "view",
      "type": "function"
    },
    {
      "constant": true,
      "inputs": [],
      "name": "initialized",
      "outputs": [
        {
          "internalType": "bool",
          "name": "value",
          "type": "bool"
        }
      ],
      "payable": false,
      "stateMutability": "view",
      "type": "function"
    },
    {
      "constant": true,
      "inputs": [],
      "name": "interestConsensus",
      "outputs": [
        {
          "internalType": "contract InterestConsensusInterface",
          "name": "",
          "type": "address"
        }
      ],
      "payable": false,
      "stateMutability": "view",
      "type": "function"
    },
    {
      "constant": true,
      "inputs": [],
      "name": "lendingPool",
      "outputs": [
        {
          "internalType": "address",
          "name": "",
          "type": "address"
        }
      ],
      "payable": false,
      "stateMutability": "view",
      "type": "function"
    },
    {
      "constant": true,
      "inputs": [],
      "name": "settings",
      "outputs": [
        {
          "internalType": "contract SettingsInterface",
          "name": "",
          "type": "address"
        }
      ],
      "payable": false,
      "stateMutability": "view",
      "type": "function"
    },
    {
      "constant": true,
      "inputs": [],
      "name": "tToken",
      "outputs": [
        {
          "internalType": "address",
          "name": "",
          "type": "address"
        }
      ],
      "payable": false,
      "stateMutability": "view",
      "type": "function"
    },
    {
      "constant": false,
      "inputs": [
        {
          "components": [
            {
              "internalType": "address",
              "name": "lender",
              "type": "address"
            },
            {
              "internalType": "address",
              "name": "consensusAddress",
              "type": "address"
            },
            {
              "internalType": "uint256",
              "name": "requestNonce",
              "type": "uint256"
            },
            {
              "internalType": "uint256",
              "name": "startTime",
              "type": "uint256"
            },
            {
              "internalType": "uint256",
              "name": "endTime",
              "type": "uint256"
            },
            {
              "internalType": "uint256",
              "name": "requestTime",
              "type": "uint256"
            }
          ],
          "internalType": "struct TellerCommon.InterestRequest",
          "name": "request",
          "type": "tuple"
        },
        {
          "components": [
            {
              "internalType": "address",
              "name": "signer",
              "type": "address"
            },
            {
              "internalType": "address",
              "name": "consensusAddress",
              "type": "address"
            },
            {
              "internalType": "uint256",
              "name": "responseTime",
              "type": "uint256"
            },
            {
              "internalType": "uint256",
              "name": "interest",
              "type": "uint256"
            },
            {
              "components": [
                {
                  "internalType": "uint256",
                  "name": "signerNonce",
                  "type": "uint256"
                },
                {
                  "internalType": "uint8",
                  "name": "v",
                  "type": "uint8"
                },
                {
                  "internalType": "bytes32",
                  "name": "r",
                  "type": "bytes32"
                },
                {
                  "internalType": "bytes32",
                  "name": "s",
                  "type": "bytes32"
                }
              ],
              "internalType": "struct TellerCommon.Signature",
              "name": "signature",
              "type": "tuple"
            }
          ],
          "internalType": "struct TellerCommon.InterestResponse[]",
          "name": "responses",
          "type": "tuple[]"
        }
      ],
      "name": "setAccruedInterest",
      "outputs": [],
      "payable": false,
      "stateMutability": "nonpayable",
      "type": "function"
    },
    {
      "constant": false,
      "inputs": [
        {
          "internalType": "address",
          "name": "recipient",
          "type": "address"
        },
        {
          "internalType": "uint256",
          "name": "amount",
          "type": "uint256"
        }
      ],
      "name": "withdrawInterest",
      "outputs": [
        {
          "internalType": "uint256",
          "name": "",
          "type": "uint256"
        }
      ],
      "payable": false,
      "stateMutability": "nonpayable",
      "type": "function"
    },
    {
      "constant": false,
      "inputs": [],
      "name": "initialize",
      "outputs": [],
      "payable": false,
      "stateMutability": "nonpayable",
      "type": "function"
    },
    {
      "constant": false,
      "inputs": [
        {
          "internalType": "address",
          "name": "tTokenAddress",
          "type": "address"
        },
        {
          "internalType": "address",
          "name": "lendingPoolAddress",
          "type": "address"
        },
        {
          "internalType": "address",
          "name": "interestConsensusAddress",
          "type": "address"
        },
        {
          "internalType": "address",
          "name": "settingAddress",
          "type": "address"
        }
      ],
      "name": "initialize",
      "outputs": [],
      "payable": false,
      "stateMutability": "nonpayable",
      "type": "function"
    }
  ],
  "bytecode": "0x608060405234801561001057600080fd5b506116f1806100206000396000f3fe608060405234801561001057600080fd5b506004361061009e5760003560e01c80638129fc1c116100665780638129fc1c1461012d578063a59a997314610135578063c35d64ea1461014a578063e06174e414610152578063f8c8765e1461015a5761009e565b8063158ef93e146100a357806319d92f0e146100c15780631b2f9e29146100d65780635b730e69146100eb57806377267ec31461010b575b600080fd5b6100ab61016d565b6040516100b89190611457565b60405180910390f35b6100c961018c565b6040516100b89190611465565b6100e96100e4366004610e21565b61019b565b005b6100fe6100f9366004610dc9565b61055c565b6040516100b8919061157e565b61011e610119366004610d4a565b6106e4565b6040516100b8939291906115a7565b6100e9610705565b61013d61078d565b6040516100b89190611449565b61013d61079c565b6100c96107ab565b6100e9610168366004610d68565b6107cd565b60008060405161017c90611433565b6040519081900390205492915050565b6067546001600160a01b031681565b6101a361016d565b6101c85760405162461bcd60e51b81526004016101bf90611524565b60405180910390fd5b6101d0610925565b156101ed5760405162461bcd60e51b81526004016101bf906114f4565b6066546001600160a01b0316610202816109a4565b1561021f5760405162461bcd60e51b81526004016101bf90611484565b606960006102306020870187610d4a565b6001600160a01b031681526020810191909152604001600020600201541580610290575060608401356069600061026a6020880188610d4a565b6001600160a01b03166001600160a01b0316815260200190815260200160002060020154145b6102ac5760405162461bcd60e51b81526004016101bf90611514565b83606001358460800135116102d35760405162461bcd60e51b81526004016101bf90611544565b83608001358460a0013510156102fb5760405162461bcd60e51b81526004016101bf906114d4565b6067546040516367136b3560e01b81526000916001600160a01b0316906367136b359061033090889088908890600401611554565b602060405180830381600087803b15801561034a57600080fd5b505af115801561035e573d6000803e3d6000fd5b505050506040513d601f19601f820116820180604052506103829190810190610e77565b90506103bf816069600061039960208a018a610d4a565b6001600160a01b031681526020810191909152604001600020549063ffffffff610a2f16565b606960006103d06020890189610d4a565b6001600160a01b0316815260208082019290925260400160009081209290925561042f91839160699190610406908a018a610d4a565b6001600160a01b031681526020810191909152604001600020600101549063ffffffff610a2f16565b606960006104406020890189610d4a565b6001600160a01b0316815260208082019290925260400160009081206001019290925560808701359160699161047890890189610d4a565b6001600160a01b03168152602080820192909252604001600020600201919091556104a590860186610d4a565b6001600160a01b03167f6a48f7e1420006e30421b757d8fbba2f41e8599f2aa19d2339c942a734512162606960006104e060208a018a610d4a565b6001600160a01b03166001600160a01b03168152602001908152602001600020600101546069600089600001602061051b9190810190610d4a565b6001600160a01b03166001600160a01b031681526020019081526020016000206000015460405161054d92919061158c565b60405180910390a25050505050565b606654600090610575906001600160a01b031633610a5b565b6105915760405162461bcd60e51b81526004016101bf906114a4565b826105d960405180604001604052806013815260200172105111149154d4d7d254d7d491545552549151606a1b815250826001600160a01b0316610a7690919063ffffffff16565b6105e161016d565b6105fd5760405162461bcd60e51b81526004016101bf90611524565b6000831161061d5760405162461bcd60e51b81526004016101bf906114e4565b6001600160a01b0384166000908152606960205260409020600101548311156106585760405162461bcd60e51b81526004016101bf906114c4565b6001600160a01b038416600090815260696020526040902060010154610684908463ffffffff610aa316565b6001600160a01b038516600081815260696020526040908190206001019290925590517f881aac5f23fb14361bd73229af2077b33386b9f5467a2a779dccf2917c83a433906106d490869061157e565b60405180910390a2509092915050565b60696020526000908152604090208054600182015460029092015490919083565b600054610100900460ff168061071e575061071e610ae5565b8061072c575060005460ff16155b6107485760405162461bcd60e51b81526004016101bf90611504565b600054610100900460ff16158015610773576000805460ff1961ff0019909116610100171660011790555b6001603355801561078a576000805461ff00191690555b50565b6066546001600160a01b031681565b6068546001600160a01b031681565b60008060006040516107bc9061143e565b604051908190039020549250505090565b6107d561016d565b156107f25760405162461bcd60e51b81526004016101bf90611534565b60408051808201909152601781527f54544f4b454e5f4d5553545f42455f50524f56494445440000000000000000006020820152610840906001600160a01b0386169063ffffffff610a7616565b60408051808201909152601d81527f4c454e44494e475f504f4f4c5f4d5553545f42455f50524f5649444544000000602082015261088e906001600160a01b0385169063ffffffff610a7616565b60408051808201909152601a81527f434f4e53454e5355535f4d5553545f42455f50524f564944454400000000000060208201526108dc906001600160a01b0384169063ffffffff610a7616565b6108e581610aeb565b50606880546001600160a01b039485166001600160a01b031991821617909155606680549385169382169390931790925560678054919093169116179055565b600061092f6107ab565b6001600160a01b031663b187bd266040518163ffffffff1660e01b815260040160206040518083038186803b15801561096757600080fd5b505afa15801561097b573d6000803e3d6000fd5b505050506040513d601f19601f8201168201806040525061099f9190810190610e03565b905090565b60006109ae6107ab565b6001600160a01b0316633b668321836040518263ffffffff1660e01b81526004016109d99190611449565b60206040518083038186803b1580156109f157600080fd5b505afa158015610a05573d6000803e3d6000fd5b505050506040513d601f19601f82011682018060405250610a299190810190610e03565b92915050565b600082820183811015610a545760405162461bcd60e51b81526004016101bf90611494565b9392505050565b6000610a546001600160a01b0384168363ffffffff610b9d16565b610a7f82610bae565b8190610a9e5760405162461bcd60e51b81526004016101bf9190611473565b505050565b6000610a5483836040518060400160405280601e81526020017f536166654d6174683a207375627472616374696f6e206f766572666c6f770000815250610bbc565b303b1590565b610af361016d565b15610b105760405162461bcd60e51b81526004016101bf90611534565b60408051808201909152601981527f53455454494e47535f4d5553545f42455f50524f5649444544000000000000006020820152610b5e906001600160a01b0383169063ffffffff610a7616565b610b70816001600160a01b0316610be8565b610b8c5760405162461bcd60e51b81526004016101bf906114b4565b610b94610c24565b61078a81610c42565b6001600160a01b0390811691161490565b6001600160a01b0316151590565b60008184841115610be05760405162461bcd60e51b81526004016101bf9190611473565b505050900390565b6000813f7fc5d2460186f7233c927e7db2dcc703c0e500b653ca82273b7bfad8045d85a470818114801590610c1c57508115155b949350505050565b6000604051610c3290611433565b6040519081900390206001905550565b610c5b610c4d6107ab565b6001600160a01b0316610bae565b15610c655761078a565b610c77816001600160a01b0316610be8565b610c935760405162461bcd60e51b81526004016101bf906114b4565b6000604051610ca19061143e565b6040519081900390208290555050565b8035610a298161167f565b60008083601f840112610cce57600080fd5b50813567ffffffffffffffff811115610ce657600080fd5b60208301915083610100820283011115610cff57600080fd5b9250929050565b8051610a2981611693565b8035610a298161169c565b600060c08284031215610d2e57600080fd5b50919050565b8051610a298161169c565b8035610a29816116a5565b600060208284031215610d5c57600080fd5b6000610c1c8484610cb1565b60008060008060808587031215610d7e57600080fd5b6000610d8a8787610cb1565b9450506020610d9b87828801610cb1565b9350506040610dac87828801610cb1565b9250506060610dbd87828801610cb1565b91505092959194509250565b60008060408385031215610ddc57600080fd5b6000610de88585610cb1565b9250506020610df985828601610d11565b9150509250929050565b600060208284031215610e1557600080fd5b6000610c1c8484610d06565b600080600060e08486031215610e3657600080fd5b6000610e428686610d1c565b93505060c084013567ffffffffffffffff811115610e5f57600080fd5b610e6b86828701610cbc565b92509250509250925092565b600060208284031215610e8957600080fd5b6000610c1c8484610d34565b6000610ea18383611341565b50506101000190565b610eb38161161c565b82525050565b6000610ec583856115dd565b9350610ed0826115cf565b8060005b85811015610f0657610ee68284611609565b610ef08882610e95565b9750610efb836115d6565b925050600101610ed4565b509495945050505050565b610eb381611627565b610eb3816115cf565b610eb38161163e565b6000610f37826115d2565b610f4181856115dd565b9350610f51818560208601611649565b610f5a81611675565b9093019392505050565b6000610f71601c836115e6565b7f54496e697469616c697a61626c652e6973496e697469616c697a6564000000008152601c0192915050565b6000610faa6016836115dd565b7513115391125391d7d413d3d317d254d7d4105554d15160521b815260200192915050565b6000610fdc601b836115dd565b7f536166654d6174683a206164646974696f6e206f766572666c6f770000000000815260200192915050565b60006110156018836115dd565b7f53454e4445525f49534e545f4c454e44494e475f504f4f4c0000000000000000815260200192915050565b600061104e601b836115dd565b7f53455454494e47535f4d5553545f42455f415f434f4e54524143540000000000815260200192915050565b6000611087601f836115dd565b7f414d4f554e545f455843454544535f415641494c41424c455f414d4f554e5400815260200192915050565b60006110c0600f836115dd565b6e1253959053125117d49154555154d5608a1b815260200192915050565b60006110eb6014836115dd565b7343414e4e4f545f57495448445241575f5a45524f60601b815260200192915050565b600061111b6012836115dd565b71141310551193d49357d254d7d4105554d15160721b815260200192915050565b6000611149602e836115dd565b7f436f6e747261637420696e7374616e63652068617320616c726561647920626581526d195b881a5b9a5d1a585b1a5e995960921b602082015260400192915050565b60006111996018836115e6565b7f426173655570677261646561626c652e73657474696e67730000000000000000815260180192915050565b60006111d26017836115dd565b7f4741505f494e5f494e5445524553545f4143435255414c000000000000000000815260200192915050565b600061120b6018836115dd565b7f434f4e54524143545f4e4f545f494e495449414c495a45440000000000000000815260200192915050565b6000611244601c836115dd565b7f434f4e54524143545f414c52454144595f494e495449414c495a454400000000815260200192915050565b600061127d6010836115dd565b6f1253959053125117d25395115495905360821b815260200192915050565b60c082016112aa82806115eb565b6112b48482610eaa565b506112c260208301836115eb565b6112cf6020850182610eaa565b506112dd60408301836115fa565b6112ea6040850182610f1a565b506112f860608301836115fa565b6113056060850182610f1a565b5061131360808301836115fa565b6113206080850182610f1a565b5061132e60a08301836115fa565b61133b60a0850182610f1a565b50505050565b610100820161135082806115eb565b61135a8482610eaa565b5061136860208301836115eb565b6113756020850182610eaa565b5061138360408301836115fa565b6113906040850182610f1a565b5061139e60608301836115fa565b6113ab6060850182610f1a565b506113b96080830183611609565b61133b6080850182608082016113cf82806115fa565b6113d98482610f1a565b506113e7602083018361160d565b6113f4602085018261142a565b5061140260408301836115fa565b61140f6040850182610f1a565b5061141d60608301836115fa565b61133b6060850182610f1a565b610eb381611638565b6000610a2982610f64565b6000610a298261118c565b60208101610a298284610eaa565b60208101610a298284610f11565b60208101610a298284610f23565b60208082528101610a548184610f2c565b60208082528101610a2981610f9d565b60208082528101610a2981610fcf565b60208082528101610a2981611008565b60208082528101610a2981611041565b60208082528101610a298161107a565b60208082528101610a29816110b3565b60208082528101610a29816110de565b60208082528101610a298161110e565b60208082528101610a298161113c565b60208082528101610a29816111c5565b60208082528101610a29816111fe565b60208082528101610a2981611237565b60208082528101610a2981611270565b60e08101611562828661129c565b81810360c0830152611575818486610eb9565b95945050505050565b60208101610a298284610f1a565b6040810161159a8285610f1a565b610a546020830184610f1a565b606081016115b58286610f1a565b6115c26020830185610f1a565b610c1c6040830184610f1a565b90565b5190565b6101000190565b90815260200190565b919050565b6000610a546020840184610cb1565b6000610a546020840184610d11565b5090565b6000610a546020840184610d3f565b6000610a298261162c565b151590565b6001600160a01b031690565b60ff1690565b6000610a298261161c565b60005b8381101561166457818101518382015260200161164c565b8381111561133b5750506000910152565b601f01601f191690565b6116888161161c565b811461078a57600080fd5b61168881611627565b611688816115cf565b6116888161163856fea365627a7a723158205c17561628c63b388653a3f2c104b5a9ef10dcd495200b9bbd9ecccb2e1458ba6c6578706572696d656e74616cf564736f6c63430005110040",
  "source": "pragma solidity 0.5.17;\npragma experimental ABIEncoderV2;\n\n// Contracts\nimport \"../base/Base.sol\";\n\n// Libraries\nimport \"../util/AddressLib.sol\";\nimport \"@openzeppelin/contracts-ethereum-package/contracts/math/SafeMath.sol\";\n\n// Interfaces\nimport \"../interfaces/LendersInterface.sol\";\nimport \"../interfaces/InterestConsensusInterface.sol\";\n\n/*****************************************************************************************************/\n/**                                             WARNING                                             **/\n/**                                  THIS CONTRACT IS UPGRADEABLE!                                  **/\n/**  ---------------------------------------------------------------------------------------------  **/\n/**  Do NOT change the order of or PREPEND any storage variables to this or new versions of this    **/\n/**  contract as this will cause the the storage slots to be overwritten on the proxy contract!!    **/\n/**                                                                                                 **/\n/**  Visit https://docs.openzeppelin.com/upgrades/2.6/proxies#upgrading-via-the-proxy-pattern for   **/\n/**  more information.                                                                              **/\n/*****************************************************************************************************/\n/**\n    @notice This contract interacts with the LendingPool contract to ensure token balances and interest owed is kept up to date. It tracks the interest for lenders.\n\n    @author develop@teller.finance\n */\ncontract Lenders is Base, LendersInterface {\n    using AddressLib for address;\n    using SafeMath for uint256;\n\n    /* State Variables */\n\n    address public lendingPool;\n    InterestConsensusInterface public interestConsensus;\n\n    address public tToken;\n\n    // The total interest that has not yet been withdrawn by a lender\n    mapping(address => TellerCommon.AccruedInterest) public accruedInterest;\n\n    /** Modifiers */\n\n    /**\n        @notice It checks sender is the tToken address.\n     */\n    modifier isTToken() {\n        require(_areAddressesEqual(tToken, msg.sender), \"SENDER_ISNT_TTOKEN\");\n        _;\n    }\n\n    /**\n        @notice It checks sender is the lending pool address.\n     */\n    modifier isLendingPool() {\n        require(_areAddressesEqual(lendingPool, msg.sender), \"SENDER_ISNT_LENDING_POOL\");\n        _;\n    }\n\n    /**\n        @notice It checks an address is not empty.\n     */\n    modifier isValid(address anAddress) {\n        anAddress.requireNotEmpty(\"ADDRESS_IS_REQUIRED\");\n        _;\n    }\n\n    /* Constructor */\n\n    /** External Functions */\n\n    /**\n        @notice It sets the accrued interest for a lender based on the node responses.\n        @param request interest request sent by the lender.\n        @param responses all node responses to get a consensus value for the accrued interest.\n     */\n    function setAccruedInterest(\n        TellerCommon.InterestRequest calldata request,\n        TellerCommon.InterestResponse[] calldata responses\n    ) external isInitialized() whenNotPaused() whenLendingPoolNotPaused(lendingPool) {\n        require(\n            accruedInterest[request.lender].timeLastAccrued == 0 ||\n                accruedInterest[request.lender].timeLastAccrued == request.startTime,\n            \"GAP_IN_INTEREST_ACCRUAL\"\n        );\n        require(request.endTime > request.startTime, \"INVALID_INTERVAL\");\n        require(request.requestTime >= request.endTime, \"INVALID_REQUEST\");\n\n        uint256 amount = interestConsensus.processRequest(request, responses);\n\n        accruedInterest[request.lender].totalAccruedInterest = accruedInterest[request\n            .lender]\n            .totalAccruedInterest\n            .add(amount);\n\n        accruedInterest[request.lender].totalNotWithdrawn = accruedInterest[request\n            .lender]\n            .totalNotWithdrawn\n            .add(amount);\n\n        accruedInterest[request.lender].timeLastAccrued = request.endTime;\n\n        emit AccruedInterestUpdated(\n            request.lender,\n            accruedInterest[request.lender].totalNotWithdrawn,\n            accruedInterest[request.lender].totalAccruedInterest\n        );\n    }\n\n    /**\n        @notice It tracks the interest amount for a recipient/lender.\n        @param recipient address.\n        @param amount to track.\n        @return the interest amount to withdraw.\n     */\n    function withdrawInterest(address recipient, uint256 amount)\n        external\n        isLendingPool()\n        isValid(recipient)\n        isInitialized()\n        returns (uint256)\n    {\n        require(amount > 0, \"CANNOT_WITHDRAW_ZERO\");\n        require(\n            accruedInterest[recipient].totalNotWithdrawn >= amount,\n            \"AMOUNT_EXCEEDS_AVAILABLE_AMOUNT\"\n        );\n\n        accruedInterest[recipient].totalNotWithdrawn = accruedInterest[recipient]\n            .totalNotWithdrawn\n            .sub(amount);\n\n        emit AccruedInterestWithdrawn(recipient, amount);\n\n        return amount;\n    }\n\n    /**\n        @notice It initializes this contract instance.\n        @param tTokenAddress tToken contract address.\n        @param lendingPoolAddress lending pool contract address.\n        @param interestConsensusAddress interest consensus contract address.\n        @param settingAddress settings contract address.\n     */\n    function initialize(\n        address tTokenAddress,\n        address lendingPoolAddress,\n        address interestConsensusAddress,\n        address settingAddress\n    ) external isNotInitialized() {\n        tTokenAddress.requireNotEmpty(\"TTOKEN_MUST_BE_PROVIDED\");\n        lendingPoolAddress.requireNotEmpty(\"LENDING_POOL_MUST_BE_PROVIDED\");\n        interestConsensusAddress.requireNotEmpty(\"CONSENSUS_MUST_BE_PROVIDED\");\n\n        _initialize(settingAddress);\n\n        tToken = tTokenAddress;\n        lendingPool = lendingPoolAddress;\n        interestConsensus = InterestConsensusInterface(interestConsensusAddress);\n    }\n\n    /** Internal Functions */\n\n    /**\n        @notice It verifies if both param addresses are equal or not.\n        @param leftAddress address to compare.\n        @param rightAddress address to compare.\n        @return true if both addresses are equal. Otherwise it returns false.\n     */\n    function _areAddressesEqual(address leftAddress, address rightAddress)\n        internal\n        view\n        returns (bool)\n    {\n        this; // silence state mutability warning without generating bytecode - see https://github.com/ethereum/solidity/issues/2691\n        return leftAddress.isEqualTo(rightAddress);\n    }\n\n    /** Private Functions */\n}\n",
  "sourcePath": "/Users/guillesalazar/Repos/ZeroCollateral/smart-contracts-v1/contracts/base/Lenders.sol",
  "compiler": {
    "name": "solc",
    "version": "0.5.17+commit.d19bba13.Emscripten.clang"
  },
  "schemaVersion": "3.2.3",
  "updatedAt": "2020-10-12T16:12:27.690Z",
  "networkType": "ethereum",
  "devdoc": {
    "author": "develop@teller.finance",
    "methods": {
      "initialize(address,address,address,address)": {
        "params": {
          "interestConsensusAddress": "interest consensus contract address.",
          "lendingPoolAddress": "lending pool contract address.",
          "settingAddress": "settings contract address.",
          "tTokenAddress": "tToken contract address."
        }
      },
      "initialized()": {
        "return": "true if contract is initialized. Otherwise it returns false."
      },
      "setAccruedInterest((address,address,uint256,uint256,uint256,uint256),(address,address,uint256,uint256,(uint256,uint8,bytes32,bytes32))[])": {
        "params": {
          "request": "interest request sent by the lender.",
          "responses": "all node responses to get a consensus value for the accrued interest."
        }
      },
      "settings()": {
        "details": "This address should NOT change over the time. See details in the _setSettings(...) function."
      },
      "withdrawInterest(address,uint256)": {
        "params": {
          "amount": "to track.",
          "recipient": "address."
        },
        "return": "the interest amount to withdraw."
      }
    }
  },
  "userdoc": {
    "methods": {
      "initialize(address,address,address,address)": {
        "notice": "It initializes this contract instance."
      },
      "initialized()": {
        "notice": "Gets if the contract is initialized."
      },
      "setAccruedInterest((address,address,uint256,uint256,uint256,uint256),(address,address,uint256,uint256,(uint256,uint8,bytes32,bytes32))[])": {
        "notice": "It sets the accrued interest for a lender based on the node responses."
      },
      "settings()": {
        "notice": "The gets the settings contract address from the SETTINGS_SLOT."
      },
      "withdrawInterest(address,uint256)": {
        "notice": "It tracks the interest amount for a recipient/lender."
      }
    },
    "notice": "This contract interacts with the LendingPool contract to ensure token balances and interest owed is kept up to date. It tracks the interest for lenders."
  }
}