{
  "contractName": "Lenders",
  "abi": [
    {
      "inputs": [
        {
          "internalType": "address",
          "name": "zTokenAddress",
          "type": "address"
        },
        {
          "internalType": "address",
          "name": "lendingPoolAddress",
          "type": "address"
        },
        {
          "internalType": "address",
          "name": "interestConsensusAddress",
          "type": "address"
        }
      ],
      "payable": false,
      "stateMutability": "nonpayable",
      "type": "constructor"
    },
    {
      "anonymous": false,
      "inputs": [
        {
          "indexed": true,
          "internalType": "address",
          "name": "lender",
          "type": "address"
        },
        {
          "indexed": false,
          "internalType": "uint256",
          "name": "totalNotWithdrawn",
          "type": "uint256"
        },
        {
          "indexed": false,
          "internalType": "uint256",
          "name": "totalAccruedInterest",
          "type": "uint256"
        }
      ],
      "name": "AccruedInterestUpdated",
      "type": "event"
    },
    {
      "anonymous": false,
      "inputs": [
        {
          "indexed": true,
          "internalType": "address",
          "name": "recipient",
          "type": "address"
        },
        {
          "indexed": false,
          "internalType": "uint256",
          "name": "amount",
          "type": "uint256"
        }
      ],
      "name": "AccruedInterestWithdrawn",
      "type": "event"
    },
    {
      "anonymous": false,
      "inputs": [
        {
          "indexed": true,
          "internalType": "address",
          "name": "lender",
          "type": "address"
        },
        {
          "indexed": false,
          "internalType": "uint256",
          "name": "blockNumber",
          "type": "uint256"
        }
      ],
      "name": "CancelInterestUpdate",
      "type": "event"
    },
    {
      "anonymous": false,
      "inputs": [
        {
          "indexed": true,
          "internalType": "address",
          "name": "lender",
          "type": "address"
        },
        {
          "indexed": false,
          "internalType": "uint256",
          "name": "blockNumber",
          "type": "uint256"
        }
      ],
      "name": "InterestUpdateRequested",
      "type": "event"
    },
    {
      "constant": true,
      "inputs": [
        {
          "internalType": "address",
          "name": "",
          "type": "address"
        }
      ],
      "name": "accruedInterest",
      "outputs": [
        {
          "internalType": "uint256",
          "name": "totalAccruedInterest",
          "type": "uint256"
        },
        {
          "internalType": "uint256",
          "name": "totalNotWithdrawn",
          "type": "uint256"
        },
        {
          "internalType": "uint256",
          "name": "blockLastAccrued",
          "type": "uint256"
        }
      ],
      "payable": false,
      "stateMutability": "view",
      "type": "function"
    },
    {
      "constant": true,
      "inputs": [],
      "name": "interestConsensus",
      "outputs": [
        {
          "internalType": "address",
          "name": "",
          "type": "address"
        }
      ],
      "payable": false,
      "stateMutability": "view",
      "type": "function"
    },
    {
      "constant": true,
      "inputs": [],
      "name": "lendingPool",
      "outputs": [
        {
          "internalType": "address",
          "name": "",
          "type": "address"
        }
      ],
      "payable": false,
      "stateMutability": "view",
      "type": "function"
    },
    {
      "constant": true,
      "inputs": [
        {
          "internalType": "address",
          "name": "",
          "type": "address"
        }
      ],
      "name": "requestedInterestUpdate",
      "outputs": [
        {
          "internalType": "uint256",
          "name": "",
          "type": "uint256"
        }
      ],
      "payable": false,
      "stateMutability": "view",
      "type": "function"
    },
    {
      "constant": true,
      "inputs": [],
      "name": "zToken",
      "outputs": [
        {
          "internalType": "contract ZTokenInterface",
          "name": "",
          "type": "address"
        }
      ],
      "payable": false,
      "stateMutability": "view",
      "type": "function"
    },
    {
      "constant": false,
      "inputs": [
        {
          "internalType": "address",
          "name": "sender",
          "type": "address"
        },
        {
          "internalType": "address",
          "name": "",
          "type": "address"
        },
        {
          "internalType": "uint256",
          "name": "",
          "type": "uint256"
        }
      ],
      "name": "zTokenTransfer",
      "outputs": [],
      "payable": false,
      "stateMutability": "nonpayable",
      "type": "function"
    },
    {
      "constant": false,
      "inputs": [
        {
          "internalType": "address",
          "name": "recipient",
          "type": "address"
        },
        {
          "internalType": "uint256",
          "name": "",
          "type": "uint256"
        }
      ],
      "name": "zTokenBurnt",
      "outputs": [],
      "payable": false,
      "stateMutability": "nonpayable",
      "type": "function"
    },
    {
      "constant": false,
      "inputs": [],
      "name": "updateAccruedInterest",
      "outputs": [],
      "payable": false,
      "stateMutability": "nonpayable",
      "type": "function"
    },
    {
      "constant": false,
      "inputs": [
        {
          "internalType": "address",
          "name": "lender",
          "type": "address"
        },
        {
          "internalType": "uint256",
          "name": "endBlock",
          "type": "uint256"
        },
        {
          "internalType": "uint256",
          "name": "amount",
          "type": "uint256"
        }
      ],
      "name": "setAccruedInterest",
      "outputs": [],
      "payable": false,
      "stateMutability": "nonpayable",
      "type": "function"
    },
    {
      "constant": false,
      "inputs": [
        {
          "internalType": "address",
          "name": "recipient",
          "type": "address"
        },
        {
          "internalType": "uint256",
          "name": "amount",
          "type": "uint256"
        }
      ],
      "name": "withdrawInterest",
      "outputs": [
        {
          "internalType": "uint256",
          "name": "",
          "type": "uint256"
        }
      ],
      "payable": false,
      "stateMutability": "nonpayable",
      "type": "function"
    }
  ],
  "bytecode": "0x608060405234801561001057600080fd5b5060405161152a38038061152a8339818101604052606081101561003357600080fd5b81019080805190602001909291908051906020019092919080519060200190929190505050600073ffffffffffffffffffffffffffffffffffffffff168373ffffffffffffffffffffffffffffffffffffffff1614156100fb576040517f08c379a000000000000000000000000000000000000000000000000000000000815260040180806020018281038252601b8152602001807f7a546f6b656e20616464726573732069732072657175697265642e000000000081525060200191505060405180910390fd5b600073ffffffffffffffffffffffffffffffffffffffff168273ffffffffffffffffffffffffffffffffffffffff16141561019e576040517f08c379a00000000000000000000000000000000000000000000000000000000081526004018080602001828103825260208152602001807f4c656e64696e67506f6f6c20616464726573732069732072657175697265642e81525060200191505060405180910390fd5b600073ffffffffffffffffffffffffffffffffffffffff168173ffffffffffffffffffffffffffffffffffffffff161415610241576040517f08c379a000000000000000000000000000000000000000000000000000000000815260040180806020018281038252601e8152602001807f436f6e73656e73757320616464726573732069732072657175697265642e000081525060200191505060405180910390fd5b82600260006101000a81548173ffffffffffffffffffffffffffffffffffffffff021916908373ffffffffffffffffffffffffffffffffffffffff160217905550816000806101000a81548173ffffffffffffffffffffffffffffffffffffffff021916908373ffffffffffffffffffffffffffffffffffffffff16021790555080600160006101000a81548173ffffffffffffffffffffffffffffffffffffffff021916908373ffffffffffffffffffffffffffffffffffffffff160217905550505050611215806103156000396000f3fe608060405234801561001057600080fd5b506004361061009e5760003560e01c8063a59a997311610066578063a59a99731461024d578063a6059f7d14610297578063b87ec3e814610305578063ba485be51461030f578063c23bedb4146103675761009e565b806314c46cc0146100a357806319d92f0e146100f15780635b730e691461013b57806377267ec31461019d5780639cac6f6314610203575b600080fd5b6100ef600480360360408110156100b957600080fd5b81019080803573ffffffffffffffffffffffffffffffffffffffff169060200190929190803590602001909291905050506103bf565b005b6100f961047b565b604051808273ffffffffffffffffffffffffffffffffffffffff1673ffffffffffffffffffffffffffffffffffffffff16815260200191505060405180910390f35b6101876004803603604081101561015157600080fd5b81019080803573ffffffffffffffffffffffffffffffffffffffff169060200190929190803590602001909291905050506104a1565b6040518082815260200191505060405180910390f35b6101df600480360360208110156101b357600080fd5b81019080803573ffffffffffffffffffffffffffffffffffffffff1690602001909291905050506106ca565b60405180848152602001838152602001828152602001935050505060405180910390f35b61020b6106f4565b604051808273ffffffffffffffffffffffffffffffffffffffff1673ffffffffffffffffffffffffffffffffffffffff16815260200191505060405180910390f35b61025561071a565b604051808273ffffffffffffffffffffffffffffffffffffffff1673ffffffffffffffffffffffffffffffffffffffff16815260200191505060405180910390f35b610303600480360360608110156102ad57600080fd5b81019080803573ffffffffffffffffffffffffffffffffffffffff169060200190929190803573ffffffffffffffffffffffffffffffffffffffff1690602001909291908035906020019092919050505061073f565b005b61030d6107fd565b005b6103516004803603602081101561032557600080fd5b81019080803573ffffffffffffffffffffffffffffffffffffffff169060200190929190505050610886565b6040518082815260200191505060405180910390f35b6103bd6004803603606081101561037d57600080fd5b81019080803573ffffffffffffffffffffffffffffffffffffffff169060200190929190803590602001909291908035906020019092919050505061089e565b005b6103ea6000809054906101000a900473ffffffffffffffffffffffffffffffffffffffff1633610c91565b61045c576040517f08c379a000000000000000000000000000000000000000000000000000000000815260040180806020018281038252601b8152602001807f4164647265737320686173206e6f207065726d697373696f6e732e000000000081525060200191505060405180910390fd5b600061046783610cc4565b14156104775761047682610da7565b5b5050565b600160009054906101000a900473ffffffffffffffffffffffffffffffffffffffff1681565b60006104ce6000809054906101000a900473ffffffffffffffffffffffffffffffffffffffff1633610c91565b610540576040517f08c379a000000000000000000000000000000000000000000000000000000000815260040180806020018281038252601b8152602001807f4164647265737320686173206e6f207065726d697373696f6e732e000000000081525060200191505060405180910390fd5b8261059f6040518060400160405280601481526020017f416464726573732069732072657175697265642e0000000000000000000000008152508273ffffffffffffffffffffffffffffffffffffffff16610f1f90919063ffffffff16565b60008390506000600360008773ffffffffffffffffffffffffffffffffffffffff1673ffffffffffffffffffffffffffffffffffffffff16815260200190815260200160002060010154905060008114806105fa5750600082145b1561060a576000935050506106c3565b81811015610616578091505b6106298282610fd490919063ffffffff16565b600360008873ffffffffffffffffffffffffffffffffffffffff1673ffffffffffffffffffffffffffffffffffffffff168152602001908152602001600020600101819055508573ffffffffffffffffffffffffffffffffffffffff167f881aac5f23fb14361bd73229af2077b33386b9f5467a2a779dccf2917c83a433836040518082815260200191505060405180910390a281935050505b5092915050565b60036020528060005260406000206000915090508060000154908060010154908060020154905083565b600260009054906101000a900473ffffffffffffffffffffffffffffffffffffffff1681565b6000809054906101000a900473ffffffffffffffffffffffffffffffffffffffff1681565b61076b600260009054906101000a900473ffffffffffffffffffffffffffffffffffffffff1633610c91565b6107dd576040517f08c379a000000000000000000000000000000000000000000000000000000000815260040180806020018281038252601b8152602001807f4164647265737320686173206e6f207065726d697373696f6e732e000000000081525060200191505060405180910390fd5b60006107e884610cc4565b14156107f8576107f783610da7565b5b505050565b600061080833610cc4565b1161087b576040517f08c379a00000000000000000000000000000000000000000000000000000000081526004018080602001828103825260148152602001807f53454e4445525f49535f4e4f545f4c454e44455200000000000000000000000081525060200191505060405180910390fd5b61088433610da7565b565b60046020528060005260406000206000915090505481565b6108ca600160009054906101000a900473ffffffffffffffffffffffffffffffffffffffff1633610c91565b61093c576040517f08c379a000000000000000000000000000000000000000000000000000000000815260040180806020018281038252601b8152602001807f4164647265737320686173206e6f207065726d697373696f6e732e000000000081525060200191505060405180910390fd5b81600460008573ffffffffffffffffffffffffffffffffffffffff1673ffffffffffffffffffffffffffffffffffffffff16815260200190815260200160002054146109f0576040517f08c379a00000000000000000000000000000000000000000000000000000000081526004018080602001828103825260138152602001807f494e434f52524543545f454e445f424c4f434b0000000000000000000000000081525060200191505060405180910390fd5b6000600460008573ffffffffffffffffffffffffffffffffffffffff1673ffffffffffffffffffffffffffffffffffffffff16815260200190815260200160002081905550610a8a81600360008673ffffffffffffffffffffffffffffffffffffffff1673ffffffffffffffffffffffffffffffffffffffff1681526020019081526020016000206000015461101e90919063ffffffff16565b600360008573ffffffffffffffffffffffffffffffffffffffff1673ffffffffffffffffffffffffffffffffffffffff16815260200190815260200160002060000181905550610b2581600360008673ffffffffffffffffffffffffffffffffffffffff1673ffffffffffffffffffffffffffffffffffffffff1681526020019081526020016000206001015461101e90919063ffffffff16565b600360008573ffffffffffffffffffffffffffffffffffffffff1673ffffffffffffffffffffffffffffffffffffffff1681526020019081526020016000206001018190555081600360008573ffffffffffffffffffffffffffffffffffffffff1673ffffffffffffffffffffffffffffffffffffffff168152602001908152602001600020600201819055508273ffffffffffffffffffffffffffffffffffffffff167f6a48f7e1420006e30421b757d8fbba2f41e8599f2aa19d2339c942a734512162600360008673ffffffffffffffffffffffffffffffffffffffff1673ffffffffffffffffffffffffffffffffffffffff16815260200190815260200160002060010154600360008773ffffffffffffffffffffffffffffffffffffffff1673ffffffffffffffffffffffffffffffffffffffff16815260200190815260200160002060000154604051808381526020018281526020019250505060405180910390a2505050565b6000610cbc828473ffffffffffffffffffffffffffffffffffffffff166110a690919063ffffffff16565b905092915050565b6000600260009054906101000a900473ffffffffffffffffffffffffffffffffffffffff1673ffffffffffffffffffffffffffffffffffffffff166370a08231836040518263ffffffff1660e01b8152600401808273ffffffffffffffffffffffffffffffffffffffff1673ffffffffffffffffffffffffffffffffffffffff16815260200191505060206040518083038186803b158015610d6557600080fd5b505afa158015610d79573d6000803e3d6000fd5b505050506040513d6020811015610d8f57600080fd5b81019080805190602001909291905050509050919050565b6000600460008373ffffffffffffffffffffffffffffffffffffffff1673ffffffffffffffffffffffffffffffffffffffff1681526020019081526020016000205414610e7c578073ffffffffffffffffffffffffffffffffffffffff167f7d6c572eef9b55d8b6a5a357a809fd5ff263507c0540da5bcc9eea01ca43d889600460008473ffffffffffffffffffffffffffffffffffffffff1673ffffffffffffffffffffffffffffffffffffffff168152602001908152602001600020546040518082815260200191505060405180910390a25b610e846110df565b600460008373ffffffffffffffffffffffffffffffffffffffff1673ffffffffffffffffffffffffffffffffffffffff168152602001908152602001600020819055508073ffffffffffffffffffffffffffffffffffffffff167ffd36273f7042bbe4d799ed95c5bf0decfe187196fc3efed5287adc591c43edb8610f076110df565b6040518082815260200191505060405180910390a250565b610f28826110e7565b8190610fcf576040517f08c379a00000000000000000000000000000000000000000000000000000000081526004018080602001828103825283818151815260200191508051906020019080838360005b83811015610f94578082015181840152602081019050610f79565b50505050905090810190601f168015610fc15780820380516001836020036101000a031916815260200191505b509250505060405180910390fd5b505050565b600061101683836040518060400160405280601e81526020017f536166654d6174683a207375627472616374696f6e206f766572666c6f770000815250611120565b905092915050565b60008082840190508381101561109c576040517f08c379a000000000000000000000000000000000000000000000000000000000815260040180806020018281038252601b8152602001807f536166654d6174683a206164646974696f6e206f766572666c6f77000000000081525060200191505060405180910390fd5b8091505092915050565b60008173ffffffffffffffffffffffffffffffffffffffff168373ffffffffffffffffffffffffffffffffffffffff1614905092915050565b600043905090565b60008073ffffffffffffffffffffffffffffffffffffffff168273ffffffffffffffffffffffffffffffffffffffff1614159050919050565b60008383111582906111cd576040517f08c379a00000000000000000000000000000000000000000000000000000000081526004018080602001828103825283818151815260200191508051906020019080838360005b83811015611192578082015181840152602081019050611177565b50505050905090810190601f1680156111bf5780820380516001836020036101000a031916815260200191505b509250505060405180910390fd5b506000838503905080915050939250505056fea265627a7a72315820a69fa278864fcc9756c93691afac5d7ae41cf318740502148fbeceb6faa24c3264736f6c63430005110032",
  "source": "/*\n    Copyright 2020 Fabrx Labs Inc.\n\n    Licensed under the Apache License, Version 2.0 (the \"License\");\n    you may not use this file except in compliance with the License.\n    You may obtain a copy of the License at\n\n    http://www.apache.org/licenses/LICENSE-2.0\n\n    Unless required by applicable law or agreed to in writing, software\n    distributed under the License is distributed on an \"AS IS\" BASIS,\n    WITHOUT WARRANTIES OR CONDITIONS OF ANY KIND, either express or implied.\n    See the License for the specific language governing permissions and\n    limitations under the License.\n*/\npragma solidity 0.5.17;\n\n// Libraries\nimport \"../util/AddressLib.sol\";\nimport \"openzeppelin-solidity/contracts/math/SafeMath.sol\";\n\n// Commons\nimport \"../util/ZeroCollateralCommon.sol\";\n\n// Interfaces\nimport \"../interfaces/LendersInterface.sol\";\nimport \"../interfaces/ZTokenInterface.sol\";\n\n\ncontract Lenders is LendersInterface {\n    using AddressLib for address;\n    using SafeMath for uint256;\n\n    /* State Variables */\n\n    address public lendingPool;\n    address public interestConsensus;\n\n    ZTokenInterface public zToken;\n\n    // The total interest that has not yet been withdrawn by a lender\n    mapping(address => ZeroCollateralCommon.AccruedInterest) public accruedInterest;\n\n    // The block number at which an address requested an interest update.\n    // If the interest has been updated, this reverts to 0.\n    mapping(address => uint256) public requestedInterestUpdate;\n\n    /** Modifiers */\n    modifier isZToken() {\n        require(\n            _areAddressesEqual(address(zToken), msg.sender),\n            \"Address has no permissions.\"\n        );\n        _;\n    }\n\n    modifier isLendingPool() {\n        require(\n            _areAddressesEqual(lendingPool, msg.sender),\n            \"Address has no permissions.\"\n        );\n        _;\n    }\n\n    modifier isConsensus() {\n        require(\n            _areAddressesEqual(interestConsensus, msg.sender),\n            \"Address has no permissions.\"\n        );\n        _;\n    }\n\n    modifier isValid(address anAddress) {\n        anAddress.requireNotEmpty(\"Address is required.\");\n        _;\n    }\n\n    /* Constructor */\n\n    constructor(\n        address zTokenAddress,\n        address lendingPoolAddress,\n        address interestConsensusAddress\n    ) public {\n        require(zTokenAddress != address(0x0), \"zToken address is required.\");\n        require(lendingPoolAddress != address(0x0), \"LendingPool address is required.\");\n        require(\n            interestConsensusAddress != address(0x0),\n            \"Consensus address is required.\"\n        );\n        zToken = ZTokenInterface(zTokenAddress);\n        lendingPool = lendingPoolAddress;\n        interestConsensus = interestConsensusAddress;\n    }\n\n    /** External Functions */\n\n    function zTokenTransfer(address sender, address, uint256) external isZToken() {\n        if (_getZTokenBalanceOf(sender) == 0) {\n            _updateAccruedInterestFor(sender);\n        }\n    }\n\n    function zTokenBurnt(address recipient, uint256) external isLendingPool() {\n        // Updating accrued interest for zToken recipient.\n        if (_getZTokenBalanceOf(recipient) == 0) {\n            _updateAccruedInterestFor(recipient);\n        }\n    }\n\n    function updateAccruedInterest() external {\n        require(_getZTokenBalanceOf(msg.sender) > 0, \"SENDER_IS_NOT_LENDER\");\n\n        _updateAccruedInterestFor(msg.sender);\n    }\n\n    function setAccruedInterest(address lender, uint256 endBlock, uint256 amount)\n        external\n        isConsensus()\n    {\n        require(requestedInterestUpdate[lender] == endBlock, \"INCORRECT_END_BLOCK\");\n\n        requestedInterestUpdate[lender] = 0;\n\n        accruedInterest[lender].totalAccruedInterest = accruedInterest[lender]\n            .totalAccruedInterest\n            .add(amount);\n\n        accruedInterest[lender].totalNotWithdrawn = accruedInterest[lender]\n            .totalNotWithdrawn\n            .add(amount);\n\n        accruedInterest[lender].blockLastAccrued = endBlock;\n\n        emit AccruedInterestUpdated(\n            lender,\n            accruedInterest[lender].totalNotWithdrawn,\n            accruedInterest[lender].totalAccruedInterest\n        );\n    }\n\n    function withdrawInterest(address recipient, uint256 amount)\n        external\n        isLendingPool()\n        isValid(recipient)\n        returns (uint256)\n    {\n        uint256 amountToWithdraw = amount;\n        uint256 withdrawableInterest = accruedInterest[recipient].totalNotWithdrawn;\n\n        if (withdrawableInterest == 0 || amountToWithdraw == 0) return 0;\n\n        if (withdrawableInterest < amountToWithdraw) {\n            amountToWithdraw = withdrawableInterest;\n        }\n\n        accruedInterest[recipient].totalNotWithdrawn = withdrawableInterest.sub(\n            amountToWithdraw\n        );\n\n        emit AccruedInterestWithdrawn(recipient, amountToWithdraw);\n\n        return amountToWithdraw;\n    }\n\n    /** Internal Functions */\n\n    function _updateAccruedInterestFor(address lender) internal {\n        if (requestedInterestUpdate[lender] != 0) {\n            emit CancelInterestUpdate(lender, requestedInterestUpdate[lender]);\n        }\n\n        requestedInterestUpdate[lender] = _getCurrentBlockNumber();\n\n        emit InterestUpdateRequested(lender, _getCurrentBlockNumber());\n    }\n\n    function _areAddressesEqual(address leftAddress, address rightAddress)\n        internal\n        view\n        returns (bool)\n    {\n        this; // silence state mutability warning without generating bytecode - see https://github.com/ethereum/solidity/issues/2691\n        return leftAddress.isEqualTo(rightAddress);\n    }\n\n    /** Private Functions */\n\n    function _getZTokenBalanceOf(address anAddress) private view returns (uint256) {\n        return zToken.balanceOf(anAddress);\n    }\n\n    function _getCurrentBlockNumber() private view returns (uint256) {\n        return block.number;\n    }\n}\n",
  "sourcePath": "/home/jalil/Programs/zero-collateral-v1/contracts/base/Lenders.sol",
  "compiler": {
    "name": "solc",
    "version": "0.5.17+commit.d19bba13.Emscripten.clang"
  },
  "schemaVersion": "3.0.23",
  "updatedAt": "2020-04-29T14:20:38.786Z",
  "devdoc": {
    "methods": {}
  },
  "userdoc": {
    "methods": {
      "zTokenTransfer(address,address,uint256)": {
        "notice": "External Functions "
      }
    }
  }
}