{
  "contractName": "Lenders",
  "abi": [
    {
      "anonymous": false,
      "inputs": [
        {
          "indexed": true,
          "internalType": "address",
          "name": "lender",
          "type": "address"
        },
        {
          "indexed": false,
          "internalType": "uint256",
          "name": "totalNotWithdrawn",
          "type": "uint256"
        },
        {
          "indexed": false,
          "internalType": "uint256",
          "name": "totalAccruedInterest",
          "type": "uint256"
        }
      ],
      "name": "AccruedInterestUpdated",
      "type": "event"
    },
    {
      "anonymous": false,
      "inputs": [
        {
          "indexed": true,
          "internalType": "address",
          "name": "recipient",
          "type": "address"
        },
        {
          "indexed": false,
          "internalType": "uint256",
          "name": "amount",
          "type": "uint256"
        }
      ],
      "name": "AccruedInterestWithdrawn",
      "type": "event"
    },
    {
      "constant": true,
      "inputs": [
        {
          "internalType": "address",
          "name": "",
          "type": "address"
        }
      ],
      "name": "accruedInterest",
      "outputs": [
        {
          "internalType": "uint256",
          "name": "totalAccruedInterest",
          "type": "uint256"
        },
        {
          "internalType": "uint256",
          "name": "totalNotWithdrawn",
          "type": "uint256"
        },
        {
          "internalType": "uint256",
          "name": "timeLastAccrued",
          "type": "uint256"
        }
      ],
      "payable": false,
      "stateMutability": "view",
      "type": "function"
    },
    {
      "constant": true,
      "inputs": [],
      "name": "initialized",
      "outputs": [
        {
          "internalType": "bool",
          "name": "value",
          "type": "bool"
        }
      ],
      "payable": false,
      "stateMutability": "view",
      "type": "function"
    },
    {
      "constant": true,
      "inputs": [],
      "name": "interestConsensus",
      "outputs": [
        {
          "internalType": "contract InterestConsensusInterface",
          "name": "",
          "type": "address"
        }
      ],
      "payable": false,
      "stateMutability": "view",
      "type": "function"
    },
    {
      "constant": true,
      "inputs": [],
      "name": "lendingPool",
      "outputs": [
        {
          "internalType": "address",
          "name": "",
          "type": "address"
        }
      ],
      "payable": false,
      "stateMutability": "view",
      "type": "function"
    },
    {
      "constant": true,
      "inputs": [],
      "name": "settings",
      "outputs": [
        {
          "internalType": "contract SettingsInterface",
          "name": "",
          "type": "address"
        }
      ],
      "payable": false,
      "stateMutability": "view",
      "type": "function"
    },
    {
      "constant": true,
      "inputs": [],
      "name": "tToken",
      "outputs": [
        {
          "internalType": "address",
          "name": "",
          "type": "address"
        }
      ],
      "payable": false,
      "stateMutability": "view",
      "type": "function"
    },
    {
      "constant": false,
      "inputs": [
        {
          "components": [
            {
              "internalType": "address",
              "name": "lender",
              "type": "address"
            },
            {
              "internalType": "address",
              "name": "consensusAddress",
              "type": "address"
            },
            {
              "internalType": "uint256",
              "name": "requestNonce",
              "type": "uint256"
            },
            {
              "internalType": "uint256",
              "name": "startTime",
              "type": "uint256"
            },
            {
              "internalType": "uint256",
              "name": "endTime",
              "type": "uint256"
            },
            {
              "internalType": "uint256",
              "name": "requestTime",
              "type": "uint256"
            }
          ],
          "internalType": "struct TellerCommon.InterestRequest",
          "name": "request",
          "type": "tuple"
        },
        {
          "components": [
            {
              "internalType": "address",
              "name": "signer",
              "type": "address"
            },
            {
              "internalType": "address",
              "name": "consensusAddress",
              "type": "address"
            },
            {
              "internalType": "uint256",
              "name": "responseTime",
              "type": "uint256"
            },
            {
              "internalType": "uint256",
              "name": "interest",
              "type": "uint256"
            },
            {
              "components": [
                {
                  "internalType": "uint256",
                  "name": "signerNonce",
                  "type": "uint256"
                },
                {
                  "internalType": "uint8",
                  "name": "v",
                  "type": "uint8"
                },
                {
                  "internalType": "bytes32",
                  "name": "r",
                  "type": "bytes32"
                },
                {
                  "internalType": "bytes32",
                  "name": "s",
                  "type": "bytes32"
                }
              ],
              "internalType": "struct TellerCommon.Signature",
              "name": "signature",
              "type": "tuple"
            }
          ],
          "internalType": "struct TellerCommon.InterestResponse[]",
          "name": "responses",
          "type": "tuple[]"
        }
      ],
      "name": "setAccruedInterest",
      "outputs": [],
      "payable": false,
      "stateMutability": "nonpayable",
      "type": "function"
    },
    {
      "constant": false,
      "inputs": [
        {
          "internalType": "address",
          "name": "recipient",
          "type": "address"
        },
        {
          "internalType": "uint256",
          "name": "amount",
          "type": "uint256"
        }
      ],
      "name": "withdrawInterest",
      "outputs": [
        {
          "internalType": "uint256",
          "name": "",
          "type": "uint256"
        }
      ],
      "payable": false,
      "stateMutability": "nonpayable",
      "type": "function"
    },
    {
      "constant": false,
      "inputs": [],
      "name": "initialize",
      "outputs": [],
      "payable": false,
      "stateMutability": "nonpayable",
      "type": "function"
    },
    {
      "constant": false,
      "inputs": [
        {
          "internalType": "address",
          "name": "tTokenAddress",
          "type": "address"
        },
        {
          "internalType": "address",
          "name": "lendingPoolAddress",
          "type": "address"
        },
        {
          "internalType": "address",
          "name": "interestConsensusAddress",
          "type": "address"
        },
        {
          "internalType": "address",
          "name": "settingAddress",
          "type": "address"
        }
      ],
      "name": "initialize",
      "outputs": [],
      "payable": false,
      "stateMutability": "nonpayable",
      "type": "function"
    }
  ],
  "bytecode": "0x608060405234801561001057600080fd5b506116eb806100206000396000f3fe608060405234801561001057600080fd5b506004361061009e5760003560e01c80638129fc1c116100665780638129fc1c1461012d578063a59a997314610135578063c35d64ea1461014a578063e06174e414610152578063f8c8765e1461015a5761009e565b8063158ef93e146100a357806319d92f0e146100c15780631b2f9e29146100d65780635b730e69146100eb57806377267ec31461010b575b600080fd5b6100ab61016d565b6040516100b89190611451565b60405180910390f35b6100c961018c565b6040516100b8919061145f565b6100e96100e4366004610e1b565b61019b565b005b6100fe6100f9366004610dc3565b61055c565b6040516100b89190611578565b61011e610119366004610d44565b6106e4565b6040516100b8939291906115a1565b6100e9610705565b61013d61078d565b6040516100b89190611443565b61013d61079c565b6100c96107ab565b6100e9610168366004610d62565b6107cd565b60008060405161017c9061142d565b6040519081900390205492915050565b6067546001600160a01b031681565b6101a361016d565b6101c85760405162461bcd60e51b81526004016101bf9061151e565b60405180910390fd5b6101d0610925565b156101ed5760405162461bcd60e51b81526004016101bf906114ee565b6066546001600160a01b0316610202816109a4565b1561021f5760405162461bcd60e51b81526004016101bf9061147e565b606960006102306020870187610d44565b6001600160a01b031681526020810191909152604001600020600201541580610290575060608401356069600061026a6020880188610d44565b6001600160a01b03166001600160a01b0316815260200190815260200160002060020154145b6102ac5760405162461bcd60e51b81526004016101bf9061150e565b83606001358460800135116102d35760405162461bcd60e51b81526004016101bf9061153e565b83608001358460a0013510156102fb5760405162461bcd60e51b81526004016101bf906114ce565b6067546040516367136b3560e01b81526000916001600160a01b0316906367136b35906103309088908890889060040161154e565b602060405180830381600087803b15801561034a57600080fd5b505af115801561035e573d6000803e3d6000fd5b505050506040513d601f19601f820116820180604052506103829190810190610e71565b90506103bf816069600061039960208a018a610d44565b6001600160a01b031681526020810191909152604001600020549063ffffffff610a2f16565b606960006103d06020890189610d44565b6001600160a01b0316815260208082019290925260400160009081209290925561042f91839160699190610406908a018a610d44565b6001600160a01b031681526020810191909152604001600020600101549063ffffffff610a2f16565b606960006104406020890189610d44565b6001600160a01b0316815260208082019290925260400160009081206001019290925560808701359160699161047890890189610d44565b6001600160a01b03168152602080820192909252604001600020600201919091556104a590860186610d44565b6001600160a01b03167f6a48f7e1420006e30421b757d8fbba2f41e8599f2aa19d2339c942a734512162606960006104e060208a018a610d44565b6001600160a01b03166001600160a01b03168152602001908152602001600020600101546069600089600001602061051b9190810190610d44565b6001600160a01b03166001600160a01b031681526020019081526020016000206000015460405161054d929190611586565b60405180910390a25050505050565b606654600090610575906001600160a01b031633610a5b565b6105915760405162461bcd60e51b81526004016101bf9061149e565b826105d960405180604001604052806013815260200172105111149154d4d7d254d7d491545552549151606a1b815250826001600160a01b0316610a7690919063ffffffff16565b6105e161016d565b6105fd5760405162461bcd60e51b81526004016101bf9061151e565b6000831161061d5760405162461bcd60e51b81526004016101bf906114de565b6001600160a01b0384166000908152606960205260409020600101548311156106585760405162461bcd60e51b81526004016101bf906114be565b6001600160a01b038416600090815260696020526040902060010154610684908463ffffffff610aa316565b6001600160a01b038516600081815260696020526040908190206001019290925590517f881aac5f23fb14361bd73229af2077b33386b9f5467a2a779dccf2917c83a433906106d4908690611578565b60405180910390a2509092915050565b60696020526000908152604090208054600182015460029092015490919083565b600054610100900460ff168061071e575061071e610ae5565b8061072c575060005460ff16155b6107485760405162461bcd60e51b81526004016101bf906114fe565b600054610100900460ff16158015610773576000805460ff1961ff0019909116610100171660011790555b6001603355801561078a576000805461ff00191690555b50565b6066546001600160a01b031681565b6068546001600160a01b031681565b60008060006040516107bc90611438565b604051908190039020549250505090565b6107d561016d565b156107f25760405162461bcd60e51b81526004016101bf9061152e565b60408051808201909152601781527f54544f4b454e5f4d5553545f42455f50524f56494445440000000000000000006020820152610840906001600160a01b0386169063ffffffff610a7616565b60408051808201909152601d81527f4c454e44494e475f504f4f4c5f4d5553545f42455f50524f5649444544000000602082015261088e906001600160a01b0385169063ffffffff610a7616565b60408051808201909152601a81527f434f4e53454e5355535f4d5553545f42455f50524f564944454400000000000060208201526108dc906001600160a01b0384169063ffffffff610a7616565b6108e581610aeb565b50606880546001600160a01b039485166001600160a01b031991821617909155606680549385169382169390931790925560678054919093169116179055565b600061092f6107ab565b6001600160a01b031663b187bd266040518163ffffffff1660e01b815260040160206040518083038186803b15801561096757600080fd5b505afa15801561097b573d6000803e3d6000fd5b505050506040513d601f19601f8201168201806040525061099f9190810190610dfd565b905090565b60006109ae6107ab565b6001600160a01b0316633b668321836040518263ffffffff1660e01b81526004016109d99190611443565b60206040518083038186803b1580156109f157600080fd5b505afa158015610a05573d6000803e3d6000fd5b505050506040513d601f19601f82011682018060405250610a299190810190610dfd565b92915050565b600082820183811015610a545760405162461bcd60e51b81526004016101bf9061148e565b9392505050565b6000610a546001600160a01b0384168363ffffffff610b9d16565b610a7f82610bae565b8190610a9e5760405162461bcd60e51b81526004016101bf919061146d565b505050565b6000610a5483836040518060400160405280601e81526020017f536166654d6174683a207375627472616374696f6e206f766572666c6f770000815250610bbc565b303b1590565b610af361016d565b15610b105760405162461bcd60e51b81526004016101bf9061152e565b60408051808201909152601981527f53455454494e47535f4d5553545f42455f50524f5649444544000000000000006020820152610b5e906001600160a01b0383169063ffffffff610a7616565b610b70816001600160a01b0316610be8565b610b8c5760405162461bcd60e51b81526004016101bf906114ae565b610b94610c24565b61078a81610c42565b6001600160a01b0390811691161490565b6001600160a01b0316151590565b60008184841115610be05760405162461bcd60e51b81526004016101bf919061146d565b505050900390565b6000813f7fc5d2460186f7233c927e7db2dcc703c0e500b653ca82273b7bfad8045d85a470818114801590610c1c57508115155b949350505050565b6000604051610c329061142d565b6040519081900390206001905550565b6000610c4c6107ab565b6001600160a01b031614610c8d57610c6c816001600160a01b0316610be8565b610c885760405162461bcd60e51b81526004016101bf906114ae565b61078a565b6000604051610c9b90611438565b6040519081900390208290555050565b8035610a2981611679565b60008083601f840112610cc857600080fd5b50813567ffffffffffffffff811115610ce057600080fd5b60208301915083610100820283011115610cf957600080fd5b9250929050565b8051610a298161168d565b8035610a2981611696565b600060c08284031215610d2857600080fd5b50919050565b8051610a2981611696565b8035610a298161169f565b600060208284031215610d5657600080fd5b6000610c1c8484610cab565b60008060008060808587031215610d7857600080fd5b6000610d848787610cab565b9450506020610d9587828801610cab565b9350506040610da687828801610cab565b9250506060610db787828801610cab565b91505092959194509250565b60008060408385031215610dd657600080fd5b6000610de28585610cab565b9250506020610df385828601610d0b565b9150509250929050565b600060208284031215610e0f57600080fd5b6000610c1c8484610d00565b600080600060e08486031215610e3057600080fd5b6000610e3c8686610d16565b93505060c084013567ffffffffffffffff811115610e5957600080fd5b610e6586828701610cb6565b92509250509250925092565b600060208284031215610e8357600080fd5b6000610c1c8484610d2e565b6000610e9b838361133b565b50506101000190565b610ead81611616565b82525050565b6000610ebf83856115d7565b9350610eca826115c9565b8060005b85811015610f0057610ee08284611603565b610eea8882610e8f565b9750610ef5836115d0565b925050600101610ece565b509495945050505050565b610ead81611621565b610ead816115c9565b610ead81611638565b6000610f31826115cc565b610f3b81856115d7565b9350610f4b818560208601611643565b610f548161166f565b9093019392505050565b6000610f6b601c836115e0565b7f54496e697469616c697a61626c652e6973496e697469616c697a6564000000008152601c0192915050565b6000610fa46016836115d7565b7513115391125391d7d413d3d317d254d7d4105554d15160521b815260200192915050565b6000610fd6601b836115d7565b7f536166654d6174683a206164646974696f6e206f766572666c6f770000000000815260200192915050565b600061100f6018836115d7565b7f53454e4445525f49534e545f4c454e44494e475f504f4f4c0000000000000000815260200192915050565b6000611048601b836115d7565b7f53455454494e47535f4d5553545f42455f415f434f4e54524143540000000000815260200192915050565b6000611081601f836115d7565b7f414d4f554e545f455843454544535f415641494c41424c455f414d4f554e5400815260200192915050565b60006110ba600f836115d7565b6e1253959053125117d49154555154d5608a1b815260200192915050565b60006110e56014836115d7565b7343414e4e4f545f57495448445241575f5a45524f60601b815260200192915050565b60006111156012836115d7565b71141310551193d49357d254d7d4105554d15160721b815260200192915050565b6000611143602e836115d7565b7f436f6e747261637420696e7374616e63652068617320616c726561647920626581526d195b881a5b9a5d1a585b1a5e995960921b602082015260400192915050565b60006111936018836115e0565b7f426173655570677261646561626c652e73657474696e67730000000000000000815260180192915050565b60006111cc6017836115d7565b7f4741505f494e5f494e5445524553545f4143435255414c000000000000000000815260200192915050565b60006112056018836115d7565b7f434f4e54524143545f4e4f545f494e495449414c495a45440000000000000000815260200192915050565b600061123e601c836115d7565b7f434f4e54524143545f414c52454144595f494e495449414c495a454400000000815260200192915050565b60006112776010836115d7565b6f1253959053125117d25395115495905360821b815260200192915050565b60c082016112a482806115e5565b6112ae8482610ea4565b506112bc60208301836115e5565b6112c96020850182610ea4565b506112d760408301836115f4565b6112e46040850182610f14565b506112f260608301836115f4565b6112ff6060850182610f14565b5061130d60808301836115f4565b61131a6080850182610f14565b5061132860a08301836115f4565b61133560a0850182610f14565b50505050565b610100820161134a82806115e5565b6113548482610ea4565b5061136260208301836115e5565b61136f6020850182610ea4565b5061137d60408301836115f4565b61138a6040850182610f14565b5061139860608301836115f4565b6113a56060850182610f14565b506113b36080830183611603565b6113356080850182608082016113c982806115f4565b6113d38482610f14565b506113e16020830183611607565b6113ee6020850182611424565b506113fc60408301836115f4565b6114096040850182610f14565b5061141760608301836115f4565b6113356060850182610f14565b610ead81611632565b6000610a2982610f5e565b6000610a2982611186565b60208101610a298284610ea4565b60208101610a298284610f0b565b60208101610a298284610f1d565b60208082528101610a548184610f26565b60208082528101610a2981610f97565b60208082528101610a2981610fc9565b60208082528101610a2981611002565b60208082528101610a298161103b565b60208082528101610a2981611074565b60208082528101610a29816110ad565b60208082528101610a29816110d8565b60208082528101610a2981611108565b60208082528101610a2981611136565b60208082528101610a29816111bf565b60208082528101610a29816111f8565b60208082528101610a2981611231565b60208082528101610a298161126a565b60e0810161155c8286611296565b81810360c083015261156f818486610eb3565b95945050505050565b60208101610a298284610f14565b604081016115948285610f14565b610a546020830184610f14565b606081016115af8286610f14565b6115bc6020830185610f14565b610c1c6040830184610f14565b90565b5190565b6101000190565b90815260200190565b919050565b6000610a546020840184610cab565b6000610a546020840184610d0b565b5090565b6000610a546020840184610d39565b6000610a2982611626565b151590565b6001600160a01b031690565b60ff1690565b6000610a2982611616565b60005b8381101561165e578181015183820152602001611646565b838111156113355750506000910152565b601f01601f191690565b61168281611616565b811461078a57600080fd5b61168281611621565b611682816115c9565b6116828161163256fea365627a7a7231582065707aa840885c4d80046f11b1ef510a02df4723e91ef39d2436c694aa4961d96c6578706572696d656e74616cf564736f6c63430005110040",
  "source": "pragma solidity 0.5.17;\npragma experimental ABIEncoderV2;\n\n// Contracts\nimport \"../base/Base.sol\";\n\n// Libraries\nimport \"../util/AddressLib.sol\";\nimport \"@openzeppelin/contracts-ethereum-package/contracts/math/SafeMath.sol\";\n\n// Interfaces\nimport \"../interfaces/LendersInterface.sol\";\nimport \"../interfaces/InterestConsensusInterface.sol\";\n\n/*****************************************************************************************************/\n/**                                             WARNING                                             **/\n/**                                  THIS CONTRACT IS UPGRADEABLE!                                  **/\n/**  ---------------------------------------------------------------------------------------------  **/\n/**  Do NOT change the order of or PREPEND any storage variables to this or new versions of this    **/\n/**  contract as this will cause the the storage slots to be overwritten on the proxy contract!!    **/\n/**                                                                                                 **/\n/**  Visit https://docs.openzeppelin.com/upgrades/2.6/proxies#upgrading-via-the-proxy-pattern for   **/\n/**  more information.                                                                              **/\n/*****************************************************************************************************/\n/**\n    @notice This contract interacts with the LendingPool contract to ensure token balances and interest owed is kept up to date. It tracks the interest for lenders.\n\n    @author develop@teller.finance\n */\ncontract Lenders is Base, LendersInterface {\n    using AddressLib for address;\n    using SafeMath for uint256;\n\n    /* State Variables */\n\n    address public lendingPool;\n    InterestConsensusInterface public interestConsensus;\n\n    address public tToken;\n\n    // The total interest that has not yet been withdrawn by a lender\n    mapping(address => TellerCommon.AccruedInterest) public accruedInterest;\n\n    /** Modifiers */\n\n    /**\n        @notice It checks sender is the tToken address.\n     */\n    modifier isTToken() {\n        require(_areAddressesEqual(tToken, msg.sender), \"SENDER_ISNT_TTOKEN\");\n        _;\n    }\n\n    /**\n        @notice It checks sender is the lending pool address.\n     */\n    modifier isLendingPool() {\n        require(_areAddressesEqual(lendingPool, msg.sender), \"SENDER_ISNT_LENDING_POOL\");\n        _;\n    }\n\n    /**\n        @notice It checks an address is not empty.\n     */\n    modifier isValid(address anAddress) {\n        anAddress.requireNotEmpty(\"ADDRESS_IS_REQUIRED\");\n        _;\n    }\n\n    /* Constructor */\n\n    /** External Functions */\n\n    /**\n        @notice It sets the accrued interest for a lender based on the node responses.\n        @param request interest request sent by the lender.\n        @param responses all node responses to get a consensus value for the accrued interest.\n     */\n    function setAccruedInterest(\n        TellerCommon.InterestRequest calldata request,\n        TellerCommon.InterestResponse[] calldata responses\n    ) external isInitialized() whenNotPaused() whenLendingPoolNotPaused(lendingPool) {\n        require(\n            accruedInterest[request.lender].timeLastAccrued == 0 ||\n                accruedInterest[request.lender].timeLastAccrued == request.startTime,\n            \"GAP_IN_INTEREST_ACCRUAL\"\n        );\n        require(request.endTime > request.startTime, \"INVALID_INTERVAL\");\n        require(request.requestTime >= request.endTime, \"INVALID_REQUEST\");\n\n        uint256 amount = interestConsensus.processRequest(request, responses);\n\n        accruedInterest[request.lender].totalAccruedInterest = accruedInterest[request\n            .lender]\n            .totalAccruedInterest\n            .add(amount);\n\n        accruedInterest[request.lender].totalNotWithdrawn = accruedInterest[request\n            .lender]\n            .totalNotWithdrawn\n            .add(amount);\n\n        accruedInterest[request.lender].timeLastAccrued = request.endTime;\n\n        emit AccruedInterestUpdated(\n            request.lender,\n            accruedInterest[request.lender].totalNotWithdrawn,\n            accruedInterest[request.lender].totalAccruedInterest\n        );\n    }\n\n    /**\n        @notice It tracks the interest amount for a recipient/lender.\n        @param recipient address.\n        @param amount to track.\n        @return the interest amount to withdraw.\n     */\n    function withdrawInterest(address recipient, uint256 amount)\n        external\n        isLendingPool()\n        isValid(recipient)\n        isInitialized()\n        returns (uint256)\n    {\n        require(amount > 0, \"CANNOT_WITHDRAW_ZERO\");\n        require(\n            accruedInterest[recipient].totalNotWithdrawn >= amount,\n            \"AMOUNT_EXCEEDS_AVAILABLE_AMOUNT\"\n        );\n\n        accruedInterest[recipient].totalNotWithdrawn = accruedInterest[recipient]\n            .totalNotWithdrawn\n            .sub(amount);\n\n        emit AccruedInterestWithdrawn(recipient, amount);\n\n        return amount;\n    }\n\n    /**\n        @notice It initializes this contract instance.\n        @param tTokenAddress tToken contract address.\n        @param lendingPoolAddress lending pool contract address.\n        @param interestConsensusAddress interest consensus contract address.\n        @param settingAddress settings contract address.\n     */\n    function initialize(\n        address tTokenAddress,\n        address lendingPoolAddress,\n        address interestConsensusAddress,\n        address settingAddress\n    ) external isNotInitialized() {\n        tTokenAddress.requireNotEmpty(\"TTOKEN_MUST_BE_PROVIDED\");\n        lendingPoolAddress.requireNotEmpty(\"LENDING_POOL_MUST_BE_PROVIDED\");\n        interestConsensusAddress.requireNotEmpty(\"CONSENSUS_MUST_BE_PROVIDED\");\n\n        _initialize(settingAddress);\n\n        tToken = tTokenAddress;\n        lendingPool = lendingPoolAddress;\n        interestConsensus = InterestConsensusInterface(interestConsensusAddress);\n    }\n\n    /** Internal Functions */\n\n    /**\n        @notice It verifies if both param addresses are equal or not.\n        @param leftAddress address to compare.\n        @param rightAddress address to compare.\n        @return true if both addresses are equal. Otherwise it returns false.\n     */\n    function _areAddressesEqual(address leftAddress, address rightAddress)\n        internal\n        view\n        returns (bool)\n    {\n        this; // silence state mutability warning without generating bytecode - see https://github.com/ethereum/solidity/issues/2691\n        return leftAddress.isEqualTo(rightAddress);\n    }\n\n    /** Private Functions */\n}\n",
  "sourcePath": "/Users/sy/Documents/GitHub/teller-protocol-v1/contracts/base/Lenders.sol",
  "compiler": {
    "name": "solc",
    "version": "0.5.17+commit.d19bba13.Emscripten.clang"
  },
  "schemaVersion": "3.0.23",
  "updatedAt": "2020-09-06T02:15:12.217Z",
  "devdoc": {
    "author": "develop@teller.finance",
    "methods": {
      "initialize(address,address,address,address)": {
        "params": {
          "interestConsensusAddress": "interest consensus contract address.",
          "lendingPoolAddress": "lending pool contract address.",
          "settingAddress": "settings contract address.",
          "tTokenAddress": "tToken contract address."
        }
      },
      "initialized()": {
        "return": "true if contract is initialized. Otherwise it returns false."
      },
      "setAccruedInterest((address,address,uint256,uint256,uint256,uint256),(address,address,uint256,uint256,(uint256,uint8,bytes32,bytes32))[])": {
        "params": {
          "request": "interest request sent by the lender.",
          "responses": "all node responses to get a consensus value for the accrued interest."
        }
      },
      "withdrawInterest(address,uint256)": {
        "params": {
          "amount": "to track.",
          "recipient": "address."
        },
        "return": "the interest amount to withdraw."
      }
    }
  },
  "userdoc": {
    "methods": {
      "initialize(address,address,address,address)": {
        "notice": "It initializes this contract instance."
      },
      "initialized()": {
        "notice": "Gets if the contract is initialized."
      },
      "setAccruedInterest((address,address,uint256,uint256,uint256,uint256),(address,address,uint256,uint256,(uint256,uint8,bytes32,bytes32))[])": {
        "notice": "It sets the accrued interest for a lender based on the node responses."
      },
      "settings()": {
        "notice": "The settings contract."
      },
      "withdrawInterest(address,uint256)": {
        "notice": "It tracks the interest amount for a recipient/lender."
      }
    },
    "notice": "This contract interacts with the LendingPool contract to ensure token balances and interest owed is kept up to date. It tracks the interest for lenders."
  }
}