{
  "contractName": "LendingPool",
  "abi": [
    {
      "anonymous": false,
      "inputs": [
        {
          "indexed": true,
          "internalType": "address",
          "name": "liquidator",
          "type": "address"
        },
        {
          "indexed": false,
          "internalType": "uint256",
          "name": "amount",
          "type": "uint256"
        }
      ],
      "name": "PaymentLiquidated",
      "type": "event"
    },
    {
      "anonymous": false,
      "inputs": [
        {
          "indexed": true,
          "internalType": "address",
          "name": "sender",
          "type": "address"
        },
        {
          "indexed": false,
          "internalType": "uint256",
          "name": "amount",
          "type": "uint256"
        }
      ],
      "name": "TokenDeposited",
      "type": "event"
    },
    {
      "anonymous": false,
      "inputs": [
        {
          "indexed": true,
          "internalType": "address",
          "name": "borrower",
          "type": "address"
        },
        {
          "indexed": false,
          "internalType": "uint256",
          "name": "amount",
          "type": "uint256"
        }
      ],
      "name": "TokenRepaid",
      "type": "event"
    },
    {
      "anonymous": false,
      "inputs": [
        {
          "indexed": true,
          "internalType": "address",
          "name": "sender",
          "type": "address"
        },
        {
          "indexed": false,
          "internalType": "uint256",
          "name": "amount",
          "type": "uint256"
        }
      ],
      "name": "TokenWithdrawn",
      "type": "event"
    },
    {
      "constant": true,
      "inputs": [],
      "name": "lenders",
      "outputs": [
        {
          "internalType": "contract LendersInterface",
          "name": "",
          "type": "address"
        }
      ],
      "payable": false,
      "stateMutability": "view",
      "type": "function"
    },
    {
      "constant": true,
      "inputs": [],
      "name": "lendingToken",
      "outputs": [
        {
          "internalType": "contract IERC20",
          "name": "",
          "type": "address"
        }
      ],
      "payable": false,
      "stateMutability": "view",
      "type": "function"
    },
    {
      "constant": true,
      "inputs": [],
      "name": "loans",
      "outputs": [
        {
          "internalType": "address",
          "name": "",
          "type": "address"
        }
      ],
      "payable": false,
      "stateMutability": "view",
      "type": "function"
    },
    {
      "constant": true,
      "inputs": [],
      "name": "zToken",
      "outputs": [
        {
          "internalType": "contract ZTokenInterface",
          "name": "",
          "type": "address"
        }
      ],
      "payable": false,
      "stateMutability": "view",
      "type": "function"
    },
    {
      "constant": false,
      "inputs": [
        {
          "internalType": "address",
          "name": "zTokenAddress",
          "type": "address"
        },
        {
          "internalType": "address",
          "name": "lendingTokenAddress",
          "type": "address"
        },
        {
          "internalType": "address",
          "name": "lendersAddress",
          "type": "address"
        },
        {
          "internalType": "address",
          "name": "loansAddress",
          "type": "address"
        }
      ],
      "name": "initialize",
      "outputs": [],
      "payable": false,
      "stateMutability": "nonpayable",
      "type": "function"
    },
    {
      "constant": false,
      "inputs": [
        {
          "internalType": "uint256",
          "name": "amount",
          "type": "uint256"
        }
      ],
      "name": "deposit",
      "outputs": [],
      "payable": false,
      "stateMutability": "nonpayable",
      "type": "function"
    },
    {
      "constant": false,
      "inputs": [
        {
          "internalType": "uint256",
          "name": "amount",
          "type": "uint256"
        }
      ],
      "name": "withdraw",
      "outputs": [],
      "payable": false,
      "stateMutability": "nonpayable",
      "type": "function"
    },
    {
      "constant": false,
      "inputs": [
        {
          "internalType": "uint256",
          "name": "amount",
          "type": "uint256"
        },
        {
          "internalType": "address",
          "name": "borrower",
          "type": "address"
        }
      ],
      "name": "repay",
      "outputs": [],
      "payable": false,
      "stateMutability": "nonpayable",
      "type": "function"
    },
    {
      "constant": false,
      "inputs": [
        {
          "internalType": "uint256",
          "name": "amount",
          "type": "uint256"
        },
        {
          "internalType": "address",
          "name": "liquidator",
          "type": "address"
        }
      ],
      "name": "liquidationPayment",
      "outputs": [],
      "payable": false,
      "stateMutability": "nonpayable",
      "type": "function"
    },
    {
      "constant": false,
      "inputs": [
        {
          "internalType": "uint256",
          "name": "amount",
          "type": "uint256"
        },
        {
          "internalType": "address",
          "name": "borrower",
          "type": "address"
        }
      ],
      "name": "createLoan",
      "outputs": [],
      "payable": false,
      "stateMutability": "nonpayable",
      "type": "function"
    },
    {
      "constant": false,
      "inputs": [
        {
          "internalType": "uint256",
          "name": "amount",
          "type": "uint256"
        }
      ],
      "name": "withdrawInterest",
      "outputs": [],
      "payable": false,
      "stateMutability": "nonpayable",
      "type": "function"
    }
  ],
  "bytecode": "0x608060405234801561001057600080fd5b506115ce806100206000396000f3fe608060405234801561001057600080fd5b50600436106100a95760003560e01c80639cac6f63116100715780639cac6f63146101f0578063aaaca5581461023a578063acb7081514610284578063b6b55f25146102d2578063e9946b2014610300578063f8c8765e1461034a576100a9565b8063051e6ca5146100ae57806308669aab146100f8578063272e848e146101265780632e1a7d4d1461017457806382f7b027146101a2575b600080fd5b6100b66103ee565b604051808273ffffffffffffffffffffffffffffffffffffffff1673ffffffffffffffffffffffffffffffffffffffff16815260200191505060405180910390f35b6101246004803603602081101561010e57600080fd5b8101908080359060200190929190505050610414565b005b6101726004803603604081101561013c57600080fd5b8101908080359060200190929190803573ffffffffffffffffffffffffffffffffffffffff169060200190929190505050610498565b005b6101a06004803603602081101561018a57600080fd5b81019080803590602001909291905050506105a9565b005b6101ee600480360360408110156101b857600080fd5b8101908080359060200190929190803573ffffffffffffffffffffffffffffffffffffffff16906020019092919050505061082b565b005b6101f861098a565b604051808273ffffffffffffffffffffffffffffffffffffffff1673ffffffffffffffffffffffffffffffffffffffff16815260200191505060405180910390f35b6102426109b0565b604051808273ffffffffffffffffffffffffffffffffffffffff1673ffffffffffffffffffffffffffffffffffffffff16815260200191505060405180910390f35b6102d06004803603604081101561029a57600080fd5b8101908080359060200190929190803573ffffffffffffffffffffffffffffffffffffffff1690602001909291905050506109d6565b005b6102fe600480360360208110156102e857600080fd5b8101908080359060200190929190505050610b35565b005b610308610c1b565b604051808273ffffffffffffffffffffffffffffffffffffffff1673ffffffffffffffffffffffffffffffffffffffff16815260200191505060405180910390f35b6103ec6004803603608081101561036057600080fd5b81019080803573ffffffffffffffffffffffffffffffffffffffff169060200190929190803573ffffffffffffffffffffffffffffffffffffffff169060200190929190803573ffffffffffffffffffffffffffffffffffffffff169060200190929190803573ffffffffffffffffffffffffffffffffffffffff169060200190929190505050610c41565b005b600260009054906101000a900473ffffffffffffffffffffffffffffffffffffffff1681565b6000809054906101000a900460ff16610495576040517f08c379a00000000000000000000000000000000000000000000000000000000081526004018080602001828103825260168152602001807f4974206973206e6f7420696e697469616c697a65642e0000000000000000000081525060200191505060405180910390fd5b50565b6000809054906101000a900460ff16610519576040517f08c379a00000000000000000000000000000000000000000000000000000000081526004018080602001828103825260168152602001807f4974206973206e6f7420696e697469616c697a65642e0000000000000000000081525060200191505060405180910390fd5b61059b336040518060400160405280601e81526020017f41646472657373206973206e6f74204c6f616e7320636f6e74726163742e0000815250600360009054906101000a900473ffffffffffffffffffffffffffffffffffffffff1673ffffffffffffffffffffffffffffffffffffffff16610f4d9092919063ffffffff16565b6105a58183611004565b5050565b6000809054906101000a900460ff1661062a576040517f08c379a00000000000000000000000000000000000000000000000000000000081526004018080602001828103825260168152602001807f4974206973206e6f7420696e697469616c697a65642e0000000000000000000081525060200191505060405180910390fd5b600160009054906101000a900473ffffffffffffffffffffffffffffffffffffffff1673ffffffffffffffffffffffffffffffffffffffff16639dc29fac33836040518363ffffffff1660e01b8152600401808373ffffffffffffffffffffffffffffffffffffffff1673ffffffffffffffffffffffffffffffffffffffff16815260200182815260200192505050602060405180830381600087803b1580156106d357600080fd5b505af11580156106e7573d6000803e3d6000fd5b505050506040513d60208110156106fd57600080fd5b810190808051906020019092919050505050600260009054906101000a900473ffffffffffffffffffffffffffffffffffffffff1673ffffffffffffffffffffffffffffffffffffffff166314c46cc033836040518363ffffffff1660e01b8152600401808373ffffffffffffffffffffffffffffffffffffffff1673ffffffffffffffffffffffffffffffffffffffff16815260200182815260200192505050600060405180830381600087803b1580156107b857600080fd5b505af11580156107cc573d6000803e3d6000fd5b505050506107da3382611004565b3373ffffffffffffffffffffffffffffffffffffffff167fa2bd9fcfcdba69f52bcd9a520846ad4bd685b187483f53efc42d035b2ddebff0826040518082815260200191505060405180910390a250565b6000809054906101000a900460ff166108ac576040517f08c379a00000000000000000000000000000000000000000000000000000000081526004018080602001828103825260168152602001807f4974206973206e6f7420696e697469616c697a65642e0000000000000000000081525060200191505060405180910390fd5b61092e336040518060400160405280601e81526020017f41646472657373206973206e6f74204c6f616e7320636f6e74726163742e0000815250600360009054906101000a900473ffffffffffffffffffffffffffffffffffffffff1673ffffffffffffffffffffffffffffffffffffffff16610f4d9092919063ffffffff16565b6109388183611004565b8073ffffffffffffffffffffffffffffffffffffffff167f36617b2812c9871a4a040126deb68df6e23786f728dbbec1f16ec31a9ccd8513836040518082815260200191505060405180910390a25050565b600160009054906101000a900473ffffffffffffffffffffffffffffffffffffffff1681565b600060019054906101000a900473ffffffffffffffffffffffffffffffffffffffff1681565b6000809054906101000a900460ff16610a57576040517f08c379a00000000000000000000000000000000000000000000000000000000081526004018080602001828103825260168152602001807f4974206973206e6f7420696e697469616c697a65642e0000000000000000000081525060200191505060405180910390fd5b610ad9336040518060400160405280601e81526020017f41646472657373206973206e6f74204c6f616e7320636f6e74726163742e0000815250600360009054906101000a900473ffffffffffffffffffffffffffffffffffffffff1673ffffffffffffffffffffffffffffffffffffffff16610f4d9092919063ffffffff16565b610ae38183611163565b8073ffffffffffffffffffffffffffffffffffffffff167f4819c199ddf4c19bd6887c38dd715fbb8ef06fe379e6fbb356939d47affcb557836040518082815260200191505060405180910390a25050565b6000809054906101000a900460ff16610bb6576040517f08c379a00000000000000000000000000000000000000000000000000000000081526004018080602001828103825260168152602001807f4974206973206e6f7420696e697469616c697a65642e0000000000000000000081525060200191505060405180910390fd5b610bc03382611163565b610bca33826112f6565b3373ffffffffffffffffffffffffffffffffffffffff167fbc7c8a4d8049a3f99a02f2a20640c206a2e4d3f2fa54fd20da9f01fda3620cda826040518082815260200191505060405180910390a250565b600360009054906101000a900473ffffffffffffffffffffffffffffffffffffffff1681565b6000809054906101000a900460ff1615610cc3576040517f08c379a000000000000000000000000000000000000000000000000000000000815260040180806020018281038252601a8152602001807f497420697320616c726561647920696e697469616c697a65642e00000000000081525060200191505060405180910390fd5b610d216040518060400160405280601b81526020017f7a546f6b656e20616464726573732069732072657175697265642e00000000008152508573ffffffffffffffffffffffffffffffffffffffff1661145690919063ffffffff16565b610d7f6040518060400160405280601a81526020017f546f6b656e20616464726573732069732072657175697265642e0000000000008152508473ffffffffffffffffffffffffffffffffffffffff1661145690919063ffffffff16565b610ddd6040518060400160405280601c81526020017f4c656e6465727320616464726573732069732072657175697265642e000000008152508373ffffffffffffffffffffffffffffffffffffffff1661145690919063ffffffff16565b610e3b6040518060400160405280601a81526020017f4c6f616e7320616464726573732069732072657175697265642e0000000000008152508273ffffffffffffffffffffffffffffffffffffffff1661145690919063ffffffff16565b610e4361150b565b83600160006101000a81548173ffffffffffffffffffffffffffffffffffffffff021916908373ffffffffffffffffffffffffffffffffffffffff16021790555082600060016101000a81548173ffffffffffffffffffffffffffffffffffffffff021916908373ffffffffffffffffffffffffffffffffffffffff16021790555081600260006101000a81548173ffffffffffffffffffffffffffffffffffffffff021916908373ffffffffffffffffffffffffffffffffffffffff16021790555080600360006101000a81548173ffffffffffffffffffffffffffffffffffffffff021916908373ffffffffffffffffffffffffffffffffffffffff16021790555050505050565b610f578383611527565b8190610ffe576040517f08c379a00000000000000000000000000000000000000000000000000000000081526004018080602001828103825283818151815260200191508051906020019080838360005b83811015610fc3578082015181840152602081019050610fa8565b50505050905090810190601f168015610ff05780820380516001836020036101000a031916815260200191505b509250505060405180910390fd5b50505050565b60008060019054906101000a900473ffffffffffffffffffffffffffffffffffffffff1673ffffffffffffffffffffffffffffffffffffffff1663a9059cbb84846040518363ffffffff1660e01b8152600401808373ffffffffffffffffffffffffffffffffffffffff1673ffffffffffffffffffffffffffffffffffffffff16815260200182815260200192505050602060405180830381600087803b1580156110ae57600080fd5b505af11580156110c2573d6000803e3d6000fd5b505050506040513d60208110156110d857600080fd5b810190808051906020019092919050505090508061115e576040517f08c379a000000000000000000000000000000000000000000000000000000000815260040180806020018281038252601c8152602001807f5472616e7366657220776173206e6f74207375636365737366756c2e0000000081525060200191505060405180910390fd5b505050565b60008060019054906101000a900473ffffffffffffffffffffffffffffffffffffffff1673ffffffffffffffffffffffffffffffffffffffff166323b872dd8430856040518463ffffffff1660e01b8152600401808473ffffffffffffffffffffffffffffffffffffffff1673ffffffffffffffffffffffffffffffffffffffff1681526020018373ffffffffffffffffffffffffffffffffffffffff1673ffffffffffffffffffffffffffffffffffffffff1681526020018281526020019350505050602060405180830381600087803b15801561124157600080fd5b505af1158015611255573d6000803e3d6000fd5b505050506040513d602081101561126b57600080fd5b81019080805190602001909291905050509050806112f1576040517f08c379a000000000000000000000000000000000000000000000000000000000815260040180806020018281038252601f8152602001807f5472616e7366657246726f6d207761736e2774207375636365737366756c2e0081525060200191505060405180910390fd5b505050565b6000600160009054906101000a900473ffffffffffffffffffffffffffffffffffffffff1673ffffffffffffffffffffffffffffffffffffffff166340c10f1984846040518363ffffffff1660e01b8152600401808373ffffffffffffffffffffffffffffffffffffffff1673ffffffffffffffffffffffffffffffffffffffff16815260200182815260200192505050602060405180830381600087803b1580156113a157600080fd5b505af11580156113b5573d6000803e3d6000fd5b505050506040513d60208110156113cb57600080fd5b8101908080519060200190929190505050905080611451576040517f08c379a00000000000000000000000000000000000000000000000000000000081526004018080602001828103825260188152602001807f4d696e7420776173206e6f74207375636365737366756c2e000000000000000081525060200191505060405180910390fd5b505050565b61145f82611560565b8190611506576040517f08c379a00000000000000000000000000000000000000000000000000000000081526004018080602001828103825283818151815260200191508051906020019080838360005b838110156114cb5780820151818401526020810190506114b0565b50505050905090810190601f1680156114f85780820380516001836020036101000a031916815260200191505b509250505060405180910390fd5b505050565b60016000806101000a81548160ff021916908315150217905550565b60008173ffffffffffffffffffffffffffffffffffffffff168373ffffffffffffffffffffffffffffffffffffffff1614905092915050565b60008073ffffffffffffffffffffffffffffffffffffffff168273ffffffffffffffffffffffffffffffffffffffff161415905091905056fea265627a7a72315820e2fe31175caeceffc92e1de397958c143f2013c242e8a507b26b33a9a75c6c3664736f6c63430005110032",
  "source": "/*\n    Copyright 2020 Fabrx Labs Inc.\n\n    Licensed under the Apache License, Version 2.0 (the \"License\");\n    you may not use this file except in compliance with the License.\n    You may obtain a copy of the License at\n\n    http://www.apache.org/licenses/LICENSE-2.0\n\n    Unless required by applicable law or agreed to in writing, software\n    distributed under the License is distributed on an \"AS IS\" BASIS,\n    WITHOUT WARRANTIES OR CONDITIONS OF ANY KIND, either express or implied.\n    See the License for the specific language governing permissions and\n    limitations under the License.\n*/\npragma solidity 0.5.17;\n\n// Libraries\nimport \"../util/AddressLib.sol\";\n\n// Commons\nimport \"../util/ZeroCollateralCommon.sol\";\n\n// Interfaces\nimport \"openzeppelin-solidity/contracts/token/ERC20/IERC20.sol\";\nimport \"../interfaces/LendingPoolInterface.sol\";\nimport \"../interfaces/LendersInterface.sol\";\nimport \"../interfaces/ZTokenInterface.sol\";\n\n// Contracts\nimport \"./Initializable.sol\";\n\n\n/**\n    @notice The LendingPool contract holds all of the tokens that lenders transfer into the protocol. It is the contract that lenders interact with to deposit and withdraw their tokens including interest. The LendingPool interacts with the Lenders contract to ensure token balances and interest owed is kept up to date.\n */\ncontract LendingPool is LendingPoolInterface, Initializable {\n    using AddressLib for address;\n\n    /* State Variables */\n\n    IERC20 public lendingToken;\n\n    ZTokenInterface public zToken;\n\n    LendersInterface public lenders;\n\n    address public loans;\n\n    /** Modifiers */\n\n    /**\n        @notice It checks the address is the Loans contract address.\n        @dev It throws a require error if parameter is not equal to loans contract address.\n     */\n    modifier isLoan() {\n        loans.requireEqualTo(msg.sender, \"Address is not Loans contract.\");\n        _;\n    }\n\n    /* Constructor */\n\n    /** External Functions */\n\n    /**\n        @notice It initializes the contract state variables.\n        @param zTokenAddress zToken token address.\n        @param lendingTokenAddress ERC20 token address.\n        @param lendersAddress Lenders contract address.\n        @param loansAddress Loans contract address.\n        @dev It throws a require error if the contract is already initialized.\n     */\n    function initialize(\n        address zTokenAddress,\n        address lendingTokenAddress,\n        address lendersAddress,\n        address loansAddress\n    ) external isNotInitialized() {\n        zTokenAddress.requireNotEmpty(\"zToken address is required.\");\n        lendingTokenAddress.requireNotEmpty(\"Token address is required.\");\n        lendersAddress.requireNotEmpty(\"Lenders address is required.\");\n        loansAddress.requireNotEmpty(\"Loans address is required.\");\n\n        initialize();\n\n        zToken = ZTokenInterface(zTokenAddress);\n        lendingToken = IERC20(lendingTokenAddress);\n        lenders = LendersInterface(lendersAddress);\n        loans = loansAddress;\n    }\n\n    /**\n        @notice It allows users to deposit tokens into the pool.\n        @dev the user must call ERC20.approve function previously.\n        @param amount of tokens to deposit in the pool.\n    */\n    function deposit(uint256 amount) external isInitialized() {\n        // Transfering tokens to the LendingPool\n        tokenTransferFrom(msg.sender, amount);\n\n        // Mint zToken tokens\n        zTokenMint(msg.sender, amount);\n\n        // Emit event\n        emit TokenDeposited(msg.sender, amount);\n    }\n\n    /**\n        @notice It allows any zToken holder to burn their zToken tokens and withdraw their tokens.\n        @param amount of tokens to withdraw.\n     */\n    function withdraw(uint256 amount) external isInitialized() {\n        // Burn zToken tokens.\n        zToken.burn(msg.sender, amount);\n\n        // Notify zToken tokens were burnt\n        lenders.zTokenBurnt(msg.sender, amount);\n\n        // Transfers tokens\n        tokenTransfer(msg.sender, amount);\n\n        // Emit event.\n        emit TokenWithdrawn(msg.sender, amount);\n    }\n\n    /**\n        @notice It allows a borrower repaying their loan. \n        @dev This function can be called ONLY by the Loans contract.\n        @dev It requires a ERC20.approve call before calling it.\n        @dev It throws a require error if borrower called ERC20.approve function before calling it.\n        @param amount of tokens.\n        @param borrower address that is repaying the loan.\n     */\n    function repay(uint256 amount, address borrower) external isInitialized() isLoan() {\n        // Transfers tokens to LendingPool.\n        tokenTransferFrom(borrower, amount);\n\n        // Emits event.\n        emit TokenRepaid(borrower, amount);\n    }\n\n    /**\n        @notice Once a loan is liquidated, it transfers the amount in tokens to the liquidator address.\n        @param amount of tokens to liquidate.\n        @param liquidator address to receive the tokens.\n     */\n    function liquidationPayment(uint256 amount, address liquidator)\n        external\n        isInitialized()\n        isLoan()\n    {\n        // Transfers tokens to the liquidator.\n        tokenTransfer(liquidator, amount);\n\n        // Emits event\n        emit PaymentLiquidated(liquidator, amount);\n    }\n\n    /**\n        @notice Once the loan is created, it transfers the amount of tokens to the borrower.\n\n        @param amount of tokens to transfer.\n        @param borrower address which will receive the tokens.\n        @dev This function only can be invoked by the LoansInterface implementation.\n     */\n    function createLoan(uint256 amount, address borrower)\n        external\n        isInitialized()\n        isLoan()\n    {\n        // Transfer tokens to the borrower.\n        tokenTransfer(borrower, amount);\n    }\n\n    function withdrawInterest(uint256 amount) external isInitialized() {}\n\n    /** Internal functions */\n\n    /** Private functions */\n\n    /**\n        @notice It transfers an amount of tokens to a specific address.\n        @param recipient address which will receive the tokens.\n        @param amount of tokens to transfer.\n        @dev It throws a require error if 'transfer' invocation fails.\n     */\n    function tokenTransfer(address recipient, uint256 amount) private {\n        bool transferResult = lendingToken.transfer(recipient, amount);\n        require(transferResult, \"Transfer was not successful.\");\n    }\n\n    /**\n        @notice It transfers an amount of tokens from an address to this contract.\n        @param from address where the tokens will transfer from.\n        @param amount to be transferred.\n        @dev It throws a require error if 'transferFrom' invocation fails.\n     */\n    function tokenTransferFrom(address from, uint256 amount) private {\n        bool transferFromResult = lendingToken.transferFrom(from, address(this), amount);\n        require(transferFromResult, \"TransferFrom wasn't successful.\");\n    }\n\n    /**\n        @notice It mints zToken tokens, and send them to a specific address.\n        @param to address which will receive the minted tokens.\n        @param amount to be minted.\n        @dev This contract must has a Minter Role in zToken (mintable) token.\n        @dev It throws a require error if mint invocation fails.\n     */\n    function zTokenMint(address to, uint256 amount) private {\n        bool mintResult = zToken.mint(to, amount);\n        require(mintResult, \"Mint was not successful.\");\n    }\n}\n",
  "sourcePath": "/home/jalil/Programs/zero-collateral-v1/contracts/base/LendingPool.sol",
  "compiler": {
    "name": "solc",
    "version": "0.5.17+commit.d19bba13.Emscripten.clang"
  },
  "schemaVersion": "3.0.23",
  "updatedAt": "2020-04-29T14:20:38.790Z",
  "devdoc": {
    "methods": {
      "createLoan(uint256,address)": {
        "details": "This function only can be invoked by the LoansInterface implementation.",
        "params": {
          "amount": "of tokens to transfer.",
          "borrower": "address which will receive the tokens."
        }
      },
      "deposit(uint256)": {
        "details": "the user must call ERC20.approve function previously.",
        "params": {
          "amount": "of tokens to deposit in the pool."
        }
      },
      "initialize(address,address,address,address)": {
        "details": "It throws a require error if the contract is already initialized.",
        "params": {
          "lendersAddress": "Lenders contract address.",
          "lendingTokenAddress": "ERC20 token address.",
          "loansAddress": "Loans contract address.",
          "zTokenAddress": "zToken token address."
        }
      },
      "liquidationPayment(uint256,address)": {
        "params": {
          "amount": "of tokens to liquidate.",
          "liquidator": "address to receive the tokens."
        }
      },
      "repay(uint256,address)": {
        "details": "This function can be called ONLY by the Loans contract.It requires a ERC20.approve call before calling it.It throws a require error if borrower called ERC20.approve function before calling it.",
        "params": {
          "amount": "of tokens.",
          "borrower": "address that is repaying the loan."
        }
      },
      "withdraw(uint256)": {
        "params": {
          "amount": "of tokens to withdraw."
        }
      }
    }
  },
  "userdoc": {
    "methods": {
      "createLoan(uint256,address)": {
        "notice": "Once the loan is created, it transfers the amount of tokens to the borrower."
      },
      "deposit(uint256)": {
        "notice": "It allows users to deposit tokens into the pool."
      },
      "initialize(address,address,address,address)": {
        "notice": "It initializes the contract state variables."
      },
      "liquidationPayment(uint256,address)": {
        "notice": "Once a loan is liquidated, it transfers the amount in tokens to the liquidator address."
      },
      "repay(uint256,address)": {
        "notice": "It allows a borrower repaying their loan. "
      },
      "withdraw(uint256)": {
        "notice": "It allows any zToken holder to burn their zToken tokens and withdraw their tokens."
      }
    },
    "notice": "The LendingPool contract holds all of the tokens that lenders transfer into the protocol. It is the contract that lenders interact with to deposit and withdraw their tokens including interest. The LendingPool interacts with the Lenders contract to ensure token balances and interest owed is kept up to date."
  }
}