{
  "contractName": "LendersModifiersMock",
  "abi": [
    {
      "anonymous": false,
      "inputs": [
        {
          "indexed": true,
          "internalType": "address",
          "name": "lender",
          "type": "address"
        },
        {
          "indexed": false,
          "internalType": "uint256",
          "name": "totalNotWithdrawn",
          "type": "uint256"
        },
        {
          "indexed": false,
          "internalType": "uint256",
          "name": "totalAccruedInterest",
          "type": "uint256"
        }
      ],
      "name": "AccruedInterestUpdated",
      "type": "event"
    },
    {
      "anonymous": false,
      "inputs": [
        {
          "indexed": true,
          "internalType": "address",
          "name": "recipient",
          "type": "address"
        },
        {
          "indexed": false,
          "internalType": "uint256",
          "name": "amount",
          "type": "uint256"
        }
      ],
      "name": "AccruedInterestWithdrawn",
      "type": "event"
    },
    {
      "constant": true,
      "inputs": [
        {
          "internalType": "address",
          "name": "",
          "type": "address"
        }
      ],
      "name": "accruedInterest",
      "outputs": [
        {
          "internalType": "uint256",
          "name": "totalAccruedInterest",
          "type": "uint256"
        },
        {
          "internalType": "uint256",
          "name": "totalNotWithdrawn",
          "type": "uint256"
        },
        {
          "internalType": "uint256",
          "name": "timeLastAccrued",
          "type": "uint256"
        }
      ],
      "payable": false,
      "stateMutability": "view",
      "type": "function"
    },
    {
      "constant": false,
      "inputs": [],
      "name": "initialize",
      "outputs": [],
      "payable": false,
      "stateMutability": "nonpayable",
      "type": "function"
    },
    {
      "constant": false,
      "inputs": [
        {
          "internalType": "address",
          "name": "tTokenAddress",
          "type": "address"
        },
        {
          "internalType": "address",
          "name": "lendingPoolAddress",
          "type": "address"
        },
        {
          "internalType": "address",
          "name": "interestConsensusAddress",
          "type": "address"
        },
        {
          "internalType": "address",
          "name": "settingAddress",
          "type": "address"
        }
      ],
      "name": "initialize",
      "outputs": [],
      "payable": false,
      "stateMutability": "nonpayable",
      "type": "function"
    },
    {
      "constant": true,
      "inputs": [],
      "name": "initialized",
      "outputs": [
        {
          "internalType": "bool",
          "name": "value",
          "type": "bool"
        }
      ],
      "payable": false,
      "stateMutability": "view",
      "type": "function"
    },
    {
      "constant": true,
      "inputs": [],
      "name": "interestConsensus",
      "outputs": [
        {
          "internalType": "contract InterestConsensusInterface",
          "name": "",
          "type": "address"
        }
      ],
      "payable": false,
      "stateMutability": "view",
      "type": "function"
    },
    {
      "constant": true,
      "inputs": [],
      "name": "lendingPool",
      "outputs": [
        {
          "internalType": "address",
          "name": "",
          "type": "address"
        }
      ],
      "payable": false,
      "stateMutability": "view",
      "type": "function"
    },
    {
      "constant": false,
      "inputs": [
        {
          "components": [
            {
              "internalType": "address",
              "name": "lender",
              "type": "address"
            },
            {
              "internalType": "address",
              "name": "consensusAddress",
              "type": "address"
            },
            {
              "internalType": "uint256",
              "name": "requestNonce",
              "type": "uint256"
            },
            {
              "internalType": "uint256",
              "name": "startTime",
              "type": "uint256"
            },
            {
              "internalType": "uint256",
              "name": "endTime",
              "type": "uint256"
            },
            {
              "internalType": "uint256",
              "name": "requestTime",
              "type": "uint256"
            }
          ],
          "internalType": "struct TellerCommon.InterestRequest",
          "name": "request",
          "type": "tuple"
        },
        {
          "components": [
            {
              "internalType": "address",
              "name": "signer",
              "type": "address"
            },
            {
              "internalType": "address",
              "name": "consensusAddress",
              "type": "address"
            },
            {
              "internalType": "uint256",
              "name": "responseTime",
              "type": "uint256"
            },
            {
              "internalType": "uint256",
              "name": "interest",
              "type": "uint256"
            },
            {
              "components": [
                {
                  "internalType": "uint256",
                  "name": "signerNonce",
                  "type": "uint256"
                },
                {
                  "internalType": "uint8",
                  "name": "v",
                  "type": "uint8"
                },
                {
                  "internalType": "bytes32",
                  "name": "r",
                  "type": "bytes32"
                },
                {
                  "internalType": "bytes32",
                  "name": "s",
                  "type": "bytes32"
                }
              ],
              "internalType": "struct TellerCommon.Signature",
              "name": "signature",
              "type": "tuple"
            }
          ],
          "internalType": "struct TellerCommon.InterestResponse[]",
          "name": "responses",
          "type": "tuple[]"
        }
      ],
      "name": "setAccruedInterest",
      "outputs": [],
      "payable": false,
      "stateMutability": "nonpayable",
      "type": "function"
    },
    {
      "constant": true,
      "inputs": [],
      "name": "settings",
      "outputs": [
        {
          "internalType": "contract SettingsInterface",
          "name": "",
          "type": "address"
        }
      ],
      "payable": false,
      "stateMutability": "view",
      "type": "function"
    },
    {
      "constant": true,
      "inputs": [],
      "name": "tToken",
      "outputs": [
        {
          "internalType": "address",
          "name": "",
          "type": "address"
        }
      ],
      "payable": false,
      "stateMutability": "view",
      "type": "function"
    },
    {
      "constant": false,
      "inputs": [
        {
          "internalType": "address",
          "name": "recipient",
          "type": "address"
        },
        {
          "internalType": "uint256",
          "name": "amount",
          "type": "uint256"
        }
      ],
      "name": "withdrawInterest",
      "outputs": [
        {
          "internalType": "uint256",
          "name": "",
          "type": "uint256"
        }
      ],
      "payable": false,
      "stateMutability": "nonpayable",
      "type": "function"
    },
    {
      "constant": false,
      "inputs": [],
      "name": "externalIsTToken",
      "outputs": [],
      "payable": false,
      "stateMutability": "nonpayable",
      "type": "function"
    },
    {
      "constant": false,
      "inputs": [],
      "name": "externalIsLendingPool",
      "outputs": [],
      "payable": false,
      "stateMutability": "nonpayable",
      "type": "function"
    },
    {
      "constant": false,
      "inputs": [
        {
          "internalType": "address",
          "name": "anAddress",
          "type": "address"
        }
      ],
      "name": "externalIsValid",
      "outputs": [],
      "payable": false,
      "stateMutability": "nonpayable",
      "type": "function"
    }
  ],
  "bytecode": "0x608060405234801561001057600080fd5b50611835806100206000396000f3fe608060405234801561001057600080fd5b50600436106100cf5760003560e01c8063649e87c01161008c578063a59a997311610066578063a59a997314610189578063c35d64ea1461019e578063e06174e4146101a6578063f8c8765e146101ae576100cf565b8063649e87c01461014c57806377267ec31461015f5780638129fc1c14610181576100cf565b8063158ef93e146100d457806319d92f0e146100f25780631b2f9e2914610107578063488578b71461011c5780634c096071146101245780635b730e691461012c575b600080fd5b6100dc6101c1565b6040516100e9919061158b565b60405180910390f35b6100fa6101e0565b6040516100e99190611599565b61011a610115366004610f27565b6101ef565b005b61011a6105b0565b61011a6105e4565b61013f61013a366004610ecf565b610616565b6040516100e991906116c2565b61011a61015a366004610e50565b61079e565b61017261016d366004610e50565b6107ea565b6040516100e9939291906116eb565b61011a61080b565b610191610893565b6040516100e9919061157d565b6101916108a2565b6100fa6108b1565b61011a6101bc366004610e6e565b6108d3565b6000806040516101d090611567565b6040519081900390205492915050565b6067546001600160a01b031681565b6101f76101c1565b61021c5760405162461bcd60e51b815260040161021390611668565b60405180910390fd5b610224610a2b565b156102415760405162461bcd60e51b815260040161021390611638565b6066546001600160a01b031661025681610aaa565b156102735760405162461bcd60e51b8152600401610213906115c8565b606960006102846020870187610e50565b6001600160a01b0316815260208101919091526040016000206002015415806102e457506060840135606960006102be6020880188610e50565b6001600160a01b03166001600160a01b0316815260200190815260200160002060020154145b6103005760405162461bcd60e51b815260040161021390611658565b83606001358460800135116103275760405162461bcd60e51b815260040161021390611688565b83608001358460a00135101561034f5760405162461bcd60e51b815260040161021390611618565b6067546040516367136b3560e01b81526000916001600160a01b0316906367136b359061038490889088908890600401611698565b602060405180830381600087803b15801561039e57600080fd5b505af11580156103b2573d6000803e3d6000fd5b505050506040513d601f19601f820116820180604052506103d69190810190610f7d565b905061041381606960006103ed60208a018a610e50565b6001600160a01b031681526020810191909152604001600020549063ffffffff610b3516565b606960006104246020890189610e50565b6001600160a01b031681526020808201929092526040016000908120929092556104839183916069919061045a908a018a610e50565b6001600160a01b031681526020810191909152604001600020600101549063ffffffff610b3516565b606960006104946020890189610e50565b6001600160a01b031681526020808201929092526040016000908120600101929092556080870135916069916104cc90890189610e50565b6001600160a01b03168152602080820192909252604001600020600201919091556104f990860186610e50565b6001600160a01b03167f6a48f7e1420006e30421b757d8fbba2f41e8599f2aa19d2339c942a7345121626069600061053460208a018a610e50565b6001600160a01b03166001600160a01b03168152602001908152602001600020600101546069600089600001602061056f9190810190610e50565b6001600160a01b03166001600160a01b03168152602001908152602001600020600001546040516105a19291906116d0565b60405180910390a25050505050565b6068546105c6906001600160a01b031633610b61565b6105e25760405162461bcd60e51b8152600401610213906115b8565b565b6066546105fa906001600160a01b031633610b61565b6105e25760405162461bcd60e51b8152600401610213906115e8565b60665460009061062f906001600160a01b031633610b61565b61064b5760405162461bcd60e51b8152600401610213906115e8565b8261069360405180604001604052806013815260200172105111149154d4d7d254d7d491545552549151606a1b815250826001600160a01b0316610b7c90919063ffffffff16565b61069b6101c1565b6106b75760405162461bcd60e51b815260040161021390611668565b600083116106d75760405162461bcd60e51b815260040161021390611628565b6001600160a01b0384166000908152606960205260409020600101548311156107125760405162461bcd60e51b815260040161021390611608565b6001600160a01b03841660009081526069602052604090206001015461073e908463ffffffff610ba916565b6001600160a01b038516600081815260696020526040908190206001019290925590517f881aac5f23fb14361bd73229af2077b33386b9f5467a2a779dccf2917c83a4339061078e9086906116c2565b60405180910390a2509092915050565b806107e660405180604001604052806013815260200172105111149154d4d7d254d7d491545552549151606a1b815250826001600160a01b0316610b7c90919063ffffffff16565b5050565b60696020526000908152604090208054600182015460029092015490919083565b600054610100900460ff16806108245750610824610beb565b80610832575060005460ff16155b61084e5760405162461bcd60e51b815260040161021390611648565b600054610100900460ff16158015610879576000805460ff1961ff0019909116610100171660011790555b60016033558015610890576000805461ff00191690555b50565b6066546001600160a01b031681565b6068546001600160a01b031681565b60008060006040516108c290611572565b604051908190039020549250505090565b6108db6101c1565b156108f85760405162461bcd60e51b815260040161021390611678565b60408051808201909152601781527f54544f4b454e5f4d5553545f42455f50524f56494445440000000000000000006020820152610946906001600160a01b0386169063ffffffff610b7c16565b60408051808201909152601d81527f4c454e44494e475f504f4f4c5f4d5553545f42455f50524f56494445440000006020820152610994906001600160a01b0385169063ffffffff610b7c16565b60408051808201909152601a81527f434f4e53454e5355535f4d5553545f42455f50524f564944454400000000000060208201526109e2906001600160a01b0384169063ffffffff610b7c16565b6109eb81610bf1565b50606880546001600160a01b039485166001600160a01b031991821617909155606680549385169382169390931790925560678054919093169116179055565b6000610a356108b1565b6001600160a01b031663b187bd266040518163ffffffff1660e01b815260040160206040518083038186803b158015610a6d57600080fd5b505afa158015610a81573d6000803e3d6000fd5b505050506040513d601f19601f82011682018060405250610aa59190810190610f09565b905090565b6000610ab46108b1565b6001600160a01b0316633b668321836040518263ffffffff1660e01b8152600401610adf919061157d565b60206040518083038186803b158015610af757600080fd5b505afa158015610b0b573d6000803e3d6000fd5b505050506040513d601f19601f82011682018060405250610b2f9190810190610f09565b92915050565b600082820183811015610b5a5760405162461bcd60e51b8152600401610213906115d8565b9392505050565b6000610b5a6001600160a01b0384168363ffffffff610ca316565b610b8582610cb4565b8190610ba45760405162461bcd60e51b815260040161021391906115a7565b505050565b6000610b5a83836040518060400160405280601e81526020017f536166654d6174683a207375627472616374696f6e206f766572666c6f770000815250610cc2565b303b1590565b610bf96101c1565b15610c165760405162461bcd60e51b815260040161021390611678565b60408051808201909152601981527f53455454494e47535f4d5553545f42455f50524f5649444544000000000000006020820152610c64906001600160a01b0383169063ffffffff610b7c16565b610c76816001600160a01b0316610cee565b610c925760405162461bcd60e51b8152600401610213906115f8565b610c9a610d2a565b61089081610d48565b6001600160a01b0390811691161490565b6001600160a01b0316151590565b60008184841115610ce65760405162461bcd60e51b815260040161021391906115a7565b505050900390565b6000813f7fc5d2460186f7233c927e7db2dcc703c0e500b653ca82273b7bfad8045d85a470818114801590610d2257508115155b949350505050565b6000604051610d3890611567565b6040519081900390206001905550565b610d61610d536108b1565b6001600160a01b0316610cb4565b15610d6b57610890565b610d7d816001600160a01b0316610cee565b610d995760405162461bcd60e51b8152600401610213906115f8565b6000604051610da790611572565b6040519081900390208290555050565b8035610b2f816117c3565b60008083601f840112610dd457600080fd5b50813567ffffffffffffffff811115610dec57600080fd5b60208301915083610100820283011115610e0557600080fd5b9250929050565b8051610b2f816117d7565b8035610b2f816117e0565b600060c08284031215610e3457600080fd5b50919050565b8051610b2f816117e0565b8035610b2f816117e9565b600060208284031215610e6257600080fd5b6000610d228484610db7565b60008060008060808587031215610e8457600080fd5b6000610e908787610db7565b9450506020610ea187828801610db7565b9350506040610eb287828801610db7565b9250506060610ec387828801610db7565b91505092959194509250565b60008060408385031215610ee257600080fd5b6000610eee8585610db7565b9250506020610eff85828601610e17565b9150509250929050565b600060208284031215610f1b57600080fd5b6000610d228484610e0c565b600080600060e08486031215610f3c57600080fd5b6000610f488686610e22565b93505060c084013567ffffffffffffffff811115610f6557600080fd5b610f7186828701610dc2565b92509250509250925092565b600060208284031215610f8f57600080fd5b6000610d228484610e3a565b6000610fa78383611475565b50506101000190565b610fb981611760565b82525050565b6000610fcb8385611721565b9350610fd682611713565b8060005b8581101561100c57610fec828461174d565b610ff68882610f9b565b97506110018361171a565b925050600101610fda565b509495945050505050565b610fb98161176b565b610fb981611713565b610fb981611782565b600061103d82611716565b6110478185611721565b935061105781856020860161178d565b611060816117b9565b9093019392505050565b6000611077601c8361172a565b7f54496e697469616c697a61626c652e6973496e697469616c697a6564000000008152601c0192915050565b60006110b0601283611721565b7129a2a72222a92fa4a9a72a2faa2a27a5a2a760711b815260200192915050565b60006110de601683611721565b7513115391125391d7d413d3d317d254d7d4105554d15160521b815260200192915050565b6000611110601b83611721565b7f536166654d6174683a206164646974696f6e206f766572666c6f770000000000815260200192915050565b6000611149601883611721565b7f53454e4445525f49534e545f4c454e44494e475f504f4f4c0000000000000000815260200192915050565b6000611182601b83611721565b7f53455454494e47535f4d5553545f42455f415f434f4e54524143540000000000815260200192915050565b60006111bb601f83611721565b7f414d4f554e545f455843454544535f415641494c41424c455f414d4f554e5400815260200192915050565b60006111f4600f83611721565b6e1253959053125117d49154555154d5608a1b815260200192915050565b600061121f601483611721565b7343414e4e4f545f57495448445241575f5a45524f60601b815260200192915050565b600061124f601283611721565b71141310551193d49357d254d7d4105554d15160721b815260200192915050565b600061127d602e83611721565b7f436f6e747261637420696e7374616e63652068617320616c726561647920626581526d195b881a5b9a5d1a585b1a5e995960921b602082015260400192915050565b60006112cd60188361172a565b7f426173655570677261646561626c652e73657474696e67730000000000000000815260180192915050565b6000611306601783611721565b7f4741505f494e5f494e5445524553545f4143435255414c000000000000000000815260200192915050565b600061133f601883611721565b7f434f4e54524143545f4e4f545f494e495449414c495a45440000000000000000815260200192915050565b6000611378601c83611721565b7f434f4e54524143545f414c52454144595f494e495449414c495a454400000000815260200192915050565b60006113b1601083611721565b6f1253959053125117d25395115495905360821b815260200192915050565b60c082016113de828061172f565b6113e88482610fb0565b506113f6602083018361172f565b6114036020850182610fb0565b50611411604083018361173e565b61141e6040850182611020565b5061142c606083018361173e565b6114396060850182611020565b50611447608083018361173e565b6114546080850182611020565b5061146260a083018361173e565b61146f60a0850182611020565b50505050565b6101008201611484828061172f565b61148e8482610fb0565b5061149c602083018361172f565b6114a96020850182610fb0565b506114b7604083018361173e565b6114c46040850182611020565b506114d2606083018361173e565b6114df6060850182611020565b506114ed608083018361174d565b61146f608085018260808201611503828061173e565b61150d8482611020565b5061151b6020830183611751565b611528602085018261155e565b50611536604083018361173e565b6115436040850182611020565b50611551606083018361173e565b61146f6060850182611020565b610fb98161177c565b6000610b2f8261106a565b6000610b2f826112c0565b60208101610b2f8284610fb0565b60208101610b2f8284611017565b60208101610b2f8284611029565b60208082528101610b5a8184611032565b60208082528101610b2f816110a3565b60208082528101610b2f816110d1565b60208082528101610b2f81611103565b60208082528101610b2f8161113c565b60208082528101610b2f81611175565b60208082528101610b2f816111ae565b60208082528101610b2f816111e7565b60208082528101610b2f81611212565b60208082528101610b2f81611242565b60208082528101610b2f81611270565b60208082528101610b2f816112f9565b60208082528101610b2f81611332565b60208082528101610b2f8161136b565b60208082528101610b2f816113a4565b60e081016116a682866113d0565b81810360c08301526116b9818486610fbf565b95945050505050565b60208101610b2f8284611020565b604081016116de8285611020565b610b5a6020830184611020565b606081016116f98286611020565b6117066020830185611020565b610d226040830184611020565b90565b5190565b6101000190565b90815260200190565b919050565b6000610b5a6020840184610db7565b6000610b5a6020840184610e17565b5090565b6000610b5a6020840184610e45565b6000610b2f82611770565b151590565b6001600160a01b031690565b60ff1690565b6000610b2f82611760565b60005b838110156117a8578181015183820152602001611790565b8381111561146f5750506000910152565b601f01601f191690565b6117cc81611760565b811461089057600080fd5b6117cc8161176b565b6117cc81611713565b6117cc8161177c56fea365627a7a723158200611b1b907f94a9734ea1e6c1651dc37119c2a7f99afdcda70c3eb90693175096c6578706572696d656e74616cf564736f6c63430005110040",
  "source": "pragma solidity 0.5.17;\npragma experimental ABIEncoderV2;\n\nimport \"../../base/Lenders.sol\";\n\n/**\n    This contract is created ONLY for testing purposes.\n */\ncontract LendersModifiersMock is Lenders {\n    /** Constructor */\n\n    /** External Functions */\n\n    function externalIsTToken() external isTToken() {}\n\n    function externalIsLendingPool() external isLendingPool() {}\n\n    function externalIsValid(address anAddress) external isValid(anAddress) {}\n}\n",
  "sourcePath": "/Users/guillesalazar/Repos/ZeroCollateral/smart-contracts-v1/contracts/mock/base/LendersModifiersMock.sol",
  "compiler": {
    "name": "solc",
    "version": "0.5.17+commit.d19bba13.Emscripten.clang"
  },
  "schemaVersion": "3.2.3",
  "updatedAt": "2020-10-12T14:23:11.526Z",
  "devdoc": {
    "methods": {
      "initialize(address,address,address,address)": {
        "params": {
          "interestConsensusAddress": "interest consensus contract address.",
          "lendingPoolAddress": "lending pool contract address.",
          "settingAddress": "settings contract address.",
          "tTokenAddress": "tToken contract address."
        }
      },
      "initialized()": {
        "return": "true if contract is initialized. Otherwise it returns false."
      },
      "setAccruedInterest((address,address,uint256,uint256,uint256,uint256),(address,address,uint256,uint256,(uint256,uint8,bytes32,bytes32))[])": {
        "params": {
          "request": "interest request sent by the lender.",
          "responses": "all node responses to get a consensus value for the accrued interest."
        }
      },
      "settings()": {
        "details": "This address should NOT change over the time. See details in the _setSettings(...) function."
      },
      "withdrawInterest(address,uint256)": {
        "params": {
          "amount": "to track.",
          "recipient": "address."
        },
        "return": "the interest amount to withdraw."
      }
    }
  },
  "userdoc": {
    "methods": {
      "externalIsTToken()": {
        "notice": "External Functions "
      },
      "initialize(address,address,address,address)": {
        "notice": "It initializes this contract instance."
      },
      "initialized()": {
        "notice": "Gets if the contract is initialized."
      },
      "setAccruedInterest((address,address,uint256,uint256,uint256,uint256),(address,address,uint256,uint256,(uint256,uint8,bytes32,bytes32))[])": {
        "notice": "It sets the accrued interest for a lender based on the node responses."
      },
      "settings()": {
        "notice": "The gets the settings contract address from the SETTINGS_SLOT."
      },
      "withdrawInterest(address,uint256)": {
        "notice": "It tracks the interest amount for a recipient/lender."
      }
    },
    "notice": "This contract is created ONLY for testing purposes."
  }
}