{
  "contractName": "LendersMock",
  "abi": [
    {
      "anonymous": false,
      "inputs": [
        {
          "indexed": true,
          "internalType": "address",
          "name": "lender",
          "type": "address"
        },
        {
          "indexed": false,
          "internalType": "uint256",
          "name": "totalNotWithdrawn",
          "type": "uint256"
        },
        {
          "indexed": false,
          "internalType": "uint256",
          "name": "totalAccruedInterest",
          "type": "uint256"
        }
      ],
      "name": "AccruedInterestUpdated",
      "type": "event"
    },
    {
      "anonymous": false,
      "inputs": [
        {
          "indexed": true,
          "internalType": "address",
          "name": "recipient",
          "type": "address"
        },
        {
          "indexed": false,
          "internalType": "uint256",
          "name": "amount",
          "type": "uint256"
        }
      ],
      "name": "AccruedInterestWithdrawn",
      "type": "event"
    },
    {
      "constant": true,
      "inputs": [
        {
          "internalType": "address",
          "name": "",
          "type": "address"
        }
      ],
      "name": "accruedInterest",
      "outputs": [
        {
          "internalType": "uint256",
          "name": "totalAccruedInterest",
          "type": "uint256"
        },
        {
          "internalType": "uint256",
          "name": "totalNotWithdrawn",
          "type": "uint256"
        },
        {
          "internalType": "uint256",
          "name": "timeLastAccrued",
          "type": "uint256"
        }
      ],
      "payable": false,
      "stateMutability": "view",
      "type": "function"
    },
    {
      "constant": true,
      "inputs": [],
      "name": "addressesEqual",
      "outputs": [
        {
          "internalType": "bool",
          "name": "",
          "type": "bool"
        }
      ],
      "payable": false,
      "stateMutability": "view",
      "type": "function"
    },
    {
      "constant": false,
      "inputs": [],
      "name": "initialize",
      "outputs": [],
      "payable": false,
      "stateMutability": "nonpayable",
      "type": "function"
    },
    {
      "constant": false,
      "inputs": [
        {
          "internalType": "address",
          "name": "tTokenAddress",
          "type": "address"
        },
        {
          "internalType": "address",
          "name": "lendingPoolAddress",
          "type": "address"
        },
        {
          "internalType": "address",
          "name": "interestConsensusAddress",
          "type": "address"
        },
        {
          "internalType": "address",
          "name": "settingAddress",
          "type": "address"
        }
      ],
      "name": "initialize",
      "outputs": [],
      "payable": false,
      "stateMutability": "nonpayable",
      "type": "function"
    },
    {
      "constant": true,
      "inputs": [],
      "name": "initialized",
      "outputs": [
        {
          "internalType": "bool",
          "name": "value",
          "type": "bool"
        }
      ],
      "payable": false,
      "stateMutability": "view",
      "type": "function"
    },
    {
      "constant": true,
      "inputs": [],
      "name": "interestConsensus",
      "outputs": [
        {
          "internalType": "contract InterestConsensusInterface",
          "name": "",
          "type": "address"
        }
      ],
      "payable": false,
      "stateMutability": "view",
      "type": "function"
    },
    {
      "constant": true,
      "inputs": [],
      "name": "lendingPool",
      "outputs": [
        {
          "internalType": "address",
          "name": "",
          "type": "address"
        }
      ],
      "payable": false,
      "stateMutability": "view",
      "type": "function"
    },
    {
      "constant": false,
      "inputs": [
        {
          "components": [
            {
              "internalType": "address",
              "name": "lender",
              "type": "address"
            },
            {
              "internalType": "address",
              "name": "consensusAddress",
              "type": "address"
            },
            {
              "internalType": "uint256",
              "name": "requestNonce",
              "type": "uint256"
            },
            {
              "internalType": "uint256",
              "name": "startTime",
              "type": "uint256"
            },
            {
              "internalType": "uint256",
              "name": "endTime",
              "type": "uint256"
            },
            {
              "internalType": "uint256",
              "name": "requestTime",
              "type": "uint256"
            }
          ],
          "internalType": "struct TellerCommon.InterestRequest",
          "name": "request",
          "type": "tuple"
        },
        {
          "components": [
            {
              "internalType": "address",
              "name": "signer",
              "type": "address"
            },
            {
              "internalType": "address",
              "name": "consensusAddress",
              "type": "address"
            },
            {
              "internalType": "uint256",
              "name": "responseTime",
              "type": "uint256"
            },
            {
              "internalType": "uint256",
              "name": "interest",
              "type": "uint256"
            },
            {
              "components": [
                {
                  "internalType": "uint256",
                  "name": "signerNonce",
                  "type": "uint256"
                },
                {
                  "internalType": "uint8",
                  "name": "v",
                  "type": "uint8"
                },
                {
                  "internalType": "bytes32",
                  "name": "r",
                  "type": "bytes32"
                },
                {
                  "internalType": "bytes32",
                  "name": "s",
                  "type": "bytes32"
                }
              ],
              "internalType": "struct TellerCommon.Signature",
              "name": "signature",
              "type": "tuple"
            }
          ],
          "internalType": "struct TellerCommon.InterestResponse[]",
          "name": "responses",
          "type": "tuple[]"
        }
      ],
      "name": "setAccruedInterest",
      "outputs": [],
      "payable": false,
      "stateMutability": "nonpayable",
      "type": "function"
    },
    {
      "constant": true,
      "inputs": [],
      "name": "settings",
      "outputs": [
        {
          "internalType": "contract SettingsInterface",
          "name": "",
          "type": "address"
        }
      ],
      "payable": false,
      "stateMutability": "view",
      "type": "function"
    },
    {
      "constant": true,
      "inputs": [],
      "name": "tToken",
      "outputs": [
        {
          "internalType": "address",
          "name": "",
          "type": "address"
        }
      ],
      "payable": false,
      "stateMutability": "view",
      "type": "function"
    },
    {
      "constant": false,
      "inputs": [
        {
          "internalType": "address",
          "name": "recipient",
          "type": "address"
        },
        {
          "internalType": "uint256",
          "name": "amount",
          "type": "uint256"
        }
      ],
      "name": "withdrawInterest",
      "outputs": [
        {
          "internalType": "uint256",
          "name": "",
          "type": "uint256"
        }
      ],
      "payable": false,
      "stateMutability": "nonpayable",
      "type": "function"
    },
    {
      "constant": false,
      "inputs": [
        {
          "internalType": "address",
          "name": "lender",
          "type": "address"
        },
        {
          "internalType": "uint256",
          "name": "timeLastAccrued",
          "type": "uint256"
        },
        {
          "internalType": "uint256",
          "name": "totalNotWithdrawn",
          "type": "uint256"
        },
        {
          "internalType": "uint256",
          "name": "totalAccruedInterest",
          "type": "uint256"
        }
      ],
      "name": "mockLenderInfo",
      "outputs": [],
      "payable": false,
      "stateMutability": "nonpayable",
      "type": "function"
    },
    {
      "constant": false,
      "inputs": [
        {
          "internalType": "bool",
          "name": "addressesEqualValue",
          "type": "bool"
        }
      ],
      "name": "mockAddressesEqual",
      "outputs": [],
      "payable": false,
      "stateMutability": "nonpayable",
      "type": "function"
    }
  ],
  "bytecode": "0x608060405234801561001057600080fd5b506117f3806100206000396000f3fe608060405234801561001057600080fd5b50600436106100cf5760003560e01c80638129fc1c1161008c578063c35d64ea11610066578063c35d64ea14610196578063e06174e41461019e578063e631d05d146101a6578063f8c8765e146101b9576100cf565b80638129fc1c14610166578063a59a99731461016e578063b03781bd14610183576100cf565b8063158ef93e146100d457806319d92f0e146100f25780631b2f9e29146101075780632550992d1461011c5780635b730e691461012457806377267ec314610144575b600080fd5b6100dc6101cc565b6040516100e99190611559565b60405180910390f35b6100fa6101eb565b6040516100e99190611567565b61011a610115366004610f23565b6101fa565b005b6100dc6105bb565b610137610132366004610e58565b6105c4565b6040516100e99190611680565b610157610152366004610dd9565b61074c565b6040516100e9939291906116a9565b61011a61076d565b6101766107f5565b6040516100e9919061154b565b61011a610191366004610ee7565b610804565b610176610817565b6100fa610826565b61011a6101b4366004610e92565b610848565b61011a6101c7366004610df7565b610872565b6000806040516101db90611535565b6040519081900390205492915050565b6067546001600160a01b031681565b6102026101cc565b6102275760405162461bcd60e51b815260040161021e90611626565b60405180910390fd5b61022f6109ca565b1561024c5760405162461bcd60e51b815260040161021e906115f6565b6066546001600160a01b031661026181610a49565b1561027e5760405162461bcd60e51b815260040161021e90611586565b6069600061028f6020870187610dd9565b6001600160a01b0316815260208101919091526040016000206002015415806102ef57506060840135606960006102c96020880188610dd9565b6001600160a01b03166001600160a01b0316815260200190815260200160002060020154145b61030b5760405162461bcd60e51b815260040161021e90611616565b83606001358460800135116103325760405162461bcd60e51b815260040161021e90611646565b83608001358460a00135101561035a5760405162461bcd60e51b815260040161021e906115d6565b6067546040516367136b3560e01b81526000916001600160a01b0316906367136b359061038f90889088908890600401611656565b602060405180830381600087803b1580156103a957600080fd5b505af11580156103bd573d6000803e3d6000fd5b505050506040513d601f19601f820116820180604052506103e19190810190610f79565b905061041e81606960006103f860208a018a610dd9565b6001600160a01b031681526020810191909152604001600020549063ffffffff610ad416565b6069600061042f6020890189610dd9565b6001600160a01b0316815260208082019290925260400160009081209290925561048e91839160699190610465908a018a610dd9565b6001600160a01b031681526020810191909152604001600020600101549063ffffffff610ad416565b6069600061049f6020890189610dd9565b6001600160a01b031681526020808201929092526040016000908120600101929092556080870135916069916104d790890189610dd9565b6001600160a01b031681526020808201929092526040016000206002019190915561050490860186610dd9565b6001600160a01b03167f6a48f7e1420006e30421b757d8fbba2f41e8599f2aa19d2339c942a7345121626069600061053f60208a018a610dd9565b6001600160a01b03166001600160a01b03168152602001908152602001600020600101546069600089600001602061057a9190810190610dd9565b6001600160a01b03166001600160a01b03168152602001908152602001600020600001546040516105ac92919061168e565b60405180910390a25050505050565b606a5460ff1681565b6066546000906105dd906001600160a01b031633610b00565b6105f95760405162461bcd60e51b815260040161021e906115a6565b8261064160405180604001604052806013815260200172105111149154d4d7d254d7d491545552549151606a1b815250826001600160a01b0316610b0b90919063ffffffff16565b6106496101cc565b6106655760405162461bcd60e51b815260040161021e90611626565b600083116106855760405162461bcd60e51b815260040161021e906115e6565b6001600160a01b0384166000908152606960205260409020600101548311156106c05760405162461bcd60e51b815260040161021e906115c6565b6001600160a01b0384166000908152606960205260409020600101546106ec908463ffffffff610b3816565b6001600160a01b038516600081815260696020526040908190206001019290925590517f881aac5f23fb14361bd73229af2077b33386b9f5467a2a779dccf2917c83a4339061073c908690611680565b60405180910390a2509092915050565b60696020526000908152604090208054600182015460029092015490919083565b600054610100900460ff16806107865750610786610b7a565b80610794575060005460ff16155b6107b05760405162461bcd60e51b815260040161021e90611606565b600054610100900460ff161580156107db576000805460ff1961ff0019909116610100171660011790555b600160335580156107f2576000805461ff00191690555b50565b6066546001600160a01b031681565b606a805460ff1916911515919091179055565b6068546001600160a01b031681565b600080600060405161083790611540565b604051908190039020549250505090565b6001600160a01b039093166000908152606960205260409020600281019290925591815560010155565b61087a6101cc565b156108975760405162461bcd60e51b815260040161021e90611636565b60408051808201909152601781527f54544f4b454e5f4d5553545f42455f50524f564944454400000000000000000060208201526108e5906001600160a01b0386169063ffffffff610b0b16565b60408051808201909152601d81527f4c454e44494e475f504f4f4c5f4d5553545f42455f50524f56494445440000006020820152610933906001600160a01b0385169063ffffffff610b0b16565b60408051808201909152601a81527f434f4e53454e5355535f4d5553545f42455f50524f56494445440000000000006020820152610981906001600160a01b0384169063ffffffff610b0b16565b61098a81610b80565b50606880546001600160a01b039485166001600160a01b031991821617909155606680549385169382169390931790925560678054919093169116179055565b60006109d4610826565b6001600160a01b031663b187bd266040518163ffffffff1660e01b815260040160206040518083038186803b158015610a0c57600080fd5b505afa158015610a20573d6000803e3d6000fd5b505050506040513d601f19601f82011682018060405250610a449190810190610f05565b905090565b6000610a53610826565b6001600160a01b0316633b668321836040518263ffffffff1660e01b8152600401610a7e919061154b565b60206040518083038186803b158015610a9657600080fd5b505afa158015610aaa573d6000803e3d6000fd5b505050506040513d601f19601f82011682018060405250610ace9190810190610f05565b92915050565b600082820183811015610af95760405162461bcd60e51b815260040161021e90611596565b9392505050565b5050606a5460ff1690565b610b1482610c32565b8190610b335760405162461bcd60e51b815260040161021e9190611575565b505050565b6000610af983836040518060400160405280601e81526020017f536166654d6174683a207375627472616374696f6e206f766572666c6f770000815250610c40565b303b1590565b610b886101cc565b15610ba55760405162461bcd60e51b815260040161021e90611636565b60408051808201909152601981527f53455454494e47535f4d5553545f42455f50524f5649444544000000000000006020820152610bf3906001600160a01b0383169063ffffffff610b0b16565b610c05816001600160a01b0316610c6c565b610c215760405162461bcd60e51b815260040161021e906115b6565b610c29610ca8565b6107f281610cc6565b6001600160a01b0316151590565b60008184841115610c645760405162461bcd60e51b815260040161021e9190611575565b505050900390565b6000813f7fc5d2460186f7233c927e7db2dcc703c0e500b653ca82273b7bfad8045d85a470818114801590610ca057508115155b949350505050565b6000604051610cb690611535565b6040519081900390206001905550565b610cdf610cd1610826565b6001600160a01b0316610c32565b15610ce9576107f2565b610cfb816001600160a01b0316610c6c565b610d175760405162461bcd60e51b815260040161021e906115b6565b6000604051610d2590611540565b6040519081900390208290555050565b8035610ace81611781565b60008083601f840112610d5257600080fd5b50813567ffffffffffffffff811115610d6a57600080fd5b60208301915083610100820283011115610d8357600080fd5b9250929050565b8035610ace81611795565b8051610ace81611795565b8035610ace8161179e565b600060c08284031215610dbd57600080fd5b50919050565b8051610ace8161179e565b8035610ace816117a7565b600060208284031215610deb57600080fd5b6000610ca08484610d35565b60008060008060808587031215610e0d57600080fd5b6000610e198787610d35565b9450506020610e2a87828801610d35565b9350506040610e3b87828801610d35565b9250506060610e4c87828801610d35565b91505092959194509250565b60008060408385031215610e6b57600080fd5b6000610e778585610d35565b9250506020610e8885828601610da0565b9150509250929050565b60008060008060808587031215610ea857600080fd5b6000610eb48787610d35565b9450506020610ec587828801610da0565b9350506040610ed687828801610da0565b9250506060610e4c87828801610da0565b600060208284031215610ef957600080fd5b6000610ca08484610d8a565b600060208284031215610f1757600080fd5b6000610ca08484610d95565b600080600060e08486031215610f3857600080fd5b6000610f448686610dab565b93505060c084013567ffffffffffffffff811115610f6157600080fd5b610f6d86828701610d40565b92509250509250925092565b600060208284031215610f8b57600080fd5b6000610ca08484610dc3565b6000610fa38383611443565b50506101000190565b610fb58161171e565b82525050565b6000610fc783856116df565b9350610fd2826116d1565b8060005b8581101561100857610fe8828461170b565b610ff28882610f97565b9750610ffd836116d8565b925050600101610fd6565b509495945050505050565b610fb581611729565b610fb5816116d1565b610fb581611740565b6000611039826116d4565b61104381856116df565b935061105381856020860161174b565b61105c81611777565b9093019392505050565b6000611073601c836116e8565b7f54496e697469616c697a61626c652e6973496e697469616c697a6564000000008152601c0192915050565b60006110ac6016836116df565b7513115391125391d7d413d3d317d254d7d4105554d15160521b815260200192915050565b60006110de601b836116df565b7f536166654d6174683a206164646974696f6e206f766572666c6f770000000000815260200192915050565b60006111176018836116df565b7f53454e4445525f49534e545f4c454e44494e475f504f4f4c0000000000000000815260200192915050565b6000611150601b836116df565b7f53455454494e47535f4d5553545f42455f415f434f4e54524143540000000000815260200192915050565b6000611189601f836116df565b7f414d4f554e545f455843454544535f415641494c41424c455f414d4f554e5400815260200192915050565b60006111c2600f836116df565b6e1253959053125117d49154555154d5608a1b815260200192915050565b60006111ed6014836116df565b7343414e4e4f545f57495448445241575f5a45524f60601b815260200192915050565b600061121d6012836116df565b71141310551193d49357d254d7d4105554d15160721b815260200192915050565b600061124b602e836116df565b7f436f6e747261637420696e7374616e63652068617320616c726561647920626581526d195b881a5b9a5d1a585b1a5e995960921b602082015260400192915050565b600061129b6018836116e8565b7f426173655570677261646561626c652e73657474696e67730000000000000000815260180192915050565b60006112d46017836116df565b7f4741505f494e5f494e5445524553545f4143435255414c000000000000000000815260200192915050565b600061130d6018836116df565b7f434f4e54524143545f4e4f545f494e495449414c495a45440000000000000000815260200192915050565b6000611346601c836116df565b7f434f4e54524143545f414c52454144595f494e495449414c495a454400000000815260200192915050565b600061137f6010836116df565b6f1253959053125117d25395115495905360821b815260200192915050565b60c082016113ac82806116ed565b6113b68482610fac565b506113c460208301836116ed565b6113d16020850182610fac565b506113df60408301836116fc565b6113ec604085018261101c565b506113fa60608301836116fc565b611407606085018261101c565b5061141560808301836116fc565b611422608085018261101c565b5061143060a08301836116fc565b61143d60a085018261101c565b50505050565b610100820161145282806116ed565b61145c8482610fac565b5061146a60208301836116ed565b6114776020850182610fac565b5061148560408301836116fc565b611492604085018261101c565b506114a060608301836116fc565b6114ad606085018261101c565b506114bb608083018361170b565b61143d6080850182608082016114d182806116fc565b6114db848261101c565b506114e9602083018361170f565b6114f6602085018261152c565b5061150460408301836116fc565b611511604085018261101c565b5061151f60608301836116fc565b61143d606085018261101c565b610fb58161173a565b6000610ace82611066565b6000610ace8261128e565b60208101610ace8284610fac565b60208101610ace8284611013565b60208101610ace8284611025565b60208082528101610af9818461102e565b60208082528101610ace8161109f565b60208082528101610ace816110d1565b60208082528101610ace8161110a565b60208082528101610ace81611143565b60208082528101610ace8161117c565b60208082528101610ace816111b5565b60208082528101610ace816111e0565b60208082528101610ace81611210565b60208082528101610ace8161123e565b60208082528101610ace816112c7565b60208082528101610ace81611300565b60208082528101610ace81611339565b60208082528101610ace81611372565b60e08101611664828661139e565b81810360c0830152611677818486610fbb565b95945050505050565b60208101610ace828461101c565b6040810161169c828561101c565b610af9602083018461101c565b606081016116b7828661101c565b6116c4602083018561101c565b610ca0604083018461101c565b90565b5190565b6101000190565b90815260200190565b919050565b6000610af96020840184610d35565b6000610af96020840184610da0565b5090565b6000610af96020840184610dce565b6000610ace8261172e565b151590565b6001600160a01b031690565b60ff1690565b6000610ace8261171e565b60005b8381101561176657818101518382015260200161174e565b8381111561143d5750506000910152565b601f01601f191690565b61178a8161171e565b81146107f257600080fd5b61178a81611729565b61178a816116d1565b61178a8161173a56fea365627a7a7231582005e1181915766fd89e6bc7aef5a2370eb88ecad2c0fd563a88499bc99d350d926c6578706572696d656e74616cf564736f6c63430005110040",
  "source": "pragma solidity 0.5.17;\npragma experimental ABIEncoderV2;\n\nimport \"../../base/Lenders.sol\";\n\n/**\n    This contract is created ONLY for testing purposes.\n */\ncontract LendersMock is Lenders {\n    /** State Variables */\n\n    bool public addressesEqual;\n\n    /** Constructor */\n\n    /** External Functions */\n\n    function mockLenderInfo(\n        address lender,\n        uint256 timeLastAccrued,\n        uint256 totalNotWithdrawn,\n        uint256 totalAccruedInterest\n    ) external {\n        accruedInterest[lender].timeLastAccrued = timeLastAccrued;\n        accruedInterest[lender].totalAccruedInterest = totalAccruedInterest;\n        accruedInterest[lender].totalNotWithdrawn = totalNotWithdrawn;\n    }\n\n    function mockAddressesEqual(bool addressesEqualValue) external {\n        addressesEqual = addressesEqualValue;\n    }\n\n    /** Internal Functions */\n\n    function _areAddressesEqual(address, address) internal view returns (bool) {\n        return addressesEqual;\n    }\n}\n",
  "sourcePath": "/Users/guillesalazar/Repos/ZeroCollateral/smart-contracts-v1/contracts/mock/base/LendersMock.sol",
  "compiler": {
    "name": "solc",
    "version": "0.5.17+commit.d19bba13.Emscripten.clang"
  },
  "schemaVersion": "3.2.3",
  "updatedAt": "2020-10-12T14:23:11.525Z",
  "devdoc": {
    "methods": {
      "initialize(address,address,address,address)": {
        "params": {
          "interestConsensusAddress": "interest consensus contract address.",
          "lendingPoolAddress": "lending pool contract address.",
          "settingAddress": "settings contract address.",
          "tTokenAddress": "tToken contract address."
        }
      },
      "initialized()": {
        "return": "true if contract is initialized. Otherwise it returns false."
      },
      "setAccruedInterest((address,address,uint256,uint256,uint256,uint256),(address,address,uint256,uint256,(uint256,uint8,bytes32,bytes32))[])": {
        "params": {
          "request": "interest request sent by the lender.",
          "responses": "all node responses to get a consensus value for the accrued interest."
        }
      },
      "settings()": {
        "details": "This address should NOT change over the time. See details in the _setSettings(...) function."
      },
      "withdrawInterest(address,uint256)": {
        "params": {
          "amount": "to track.",
          "recipient": "address."
        },
        "return": "the interest amount to withdraw."
      }
    }
  },
  "userdoc": {
    "methods": {
      "initialize(address,address,address,address)": {
        "notice": "It initializes this contract instance."
      },
      "initialized()": {
        "notice": "Gets if the contract is initialized."
      },
      "mockLenderInfo(address,uint256,uint256,uint256)": {
        "notice": "External Functions "
      },
      "setAccruedInterest((address,address,uint256,uint256,uint256,uint256),(address,address,uint256,uint256,(uint256,uint8,bytes32,bytes32))[])": {
        "notice": "It sets the accrued interest for a lender based on the node responses."
      },
      "settings()": {
        "notice": "The gets the settings contract address from the SETTINGS_SLOT."
      },
      "withdrawInterest(address,uint256)": {
        "notice": "It tracks the interest amount for a recipient/lender."
      }
    },
    "notice": "This contract is created ONLY for testing purposes."
  }
}