{
  "contractName": "LendingPool",
  "abi": [
    {
      "anonymous": false,
      "inputs": [
        {
          "indexed": true,
          "internalType": "address",
          "name": "sender",
          "type": "address"
        },
        {
          "indexed": true,
          "internalType": "address",
          "name": "oldInterestValidator",
          "type": "address"
        },
        {
          "indexed": true,
          "internalType": "address",
          "name": "newInterestValidator",
          "type": "address"
        }
      ],
      "name": "InterestValidatorUpdated",
      "type": "event"
    },
    {
      "anonymous": false,
      "inputs": [
        {
          "indexed": true,
          "internalType": "address",
          "name": "lender",
          "type": "address"
        },
        {
          "indexed": false,
          "internalType": "uint256",
          "name": "amount",
          "type": "uint256"
        }
      ],
      "name": "InterestWithdrawn",
      "type": "event"
    },
    {
      "anonymous": false,
      "inputs": [
        {
          "indexed": true,
          "internalType": "address",
          "name": "liquidator",
          "type": "address"
        },
        {
          "indexed": false,
          "internalType": "uint256",
          "name": "amount",
          "type": "uint256"
        }
      ],
      "name": "PaymentLiquidated",
      "type": "event"
    },
    {
      "anonymous": false,
      "inputs": [
        {
          "indexed": true,
          "internalType": "address",
          "name": "sender",
          "type": "address"
        },
        {
          "indexed": false,
          "internalType": "uint256",
          "name": "amount",
          "type": "uint256"
        }
      ],
      "name": "TokenDeposited",
      "type": "event"
    },
    {
      "anonymous": false,
      "inputs": [
        {
          "indexed": true,
          "internalType": "address",
          "name": "borrower",
          "type": "address"
        },
        {
          "indexed": false,
          "internalType": "uint256",
          "name": "amount",
          "type": "uint256"
        }
      ],
      "name": "TokenRepaid",
      "type": "event"
    },
    {
      "anonymous": false,
      "inputs": [
        {
          "indexed": true,
          "internalType": "address",
          "name": "sender",
          "type": "address"
        },
        {
          "indexed": false,
          "internalType": "uint256",
          "name": "amount",
          "type": "uint256"
        }
      ],
      "name": "TokenWithdrawn",
      "type": "event"
    },
    {
      "constant": true,
      "inputs": [],
      "name": "cToken",
      "outputs": [
        {
          "internalType": "address",
          "name": "",
          "type": "address"
        }
      ],
      "payable": false,
      "stateMutability": "view",
      "type": "function"
    },
    {
      "constant": true,
      "inputs": [],
      "name": "initialized",
      "outputs": [
        {
          "internalType": "bool",
          "name": "value",
          "type": "bool"
        }
      ],
      "payable": false,
      "stateMutability": "view",
      "type": "function"
    },
    {
      "constant": true,
      "inputs": [],
      "name": "lenders",
      "outputs": [
        {
          "internalType": "contract LendersInterface",
          "name": "",
          "type": "address"
        }
      ],
      "payable": false,
      "stateMutability": "view",
      "type": "function"
    },
    {
      "constant": true,
      "inputs": [],
      "name": "lendingToken",
      "outputs": [
        {
          "internalType": "contract IERC20",
          "name": "",
          "type": "address"
        }
      ],
      "payable": false,
      "stateMutability": "view",
      "type": "function"
    },
    {
      "constant": true,
      "inputs": [],
      "name": "loans",
      "outputs": [
        {
          "internalType": "address",
          "name": "",
          "type": "address"
        }
      ],
      "payable": false,
      "stateMutability": "view",
      "type": "function"
    },
    {
      "constant": true,
      "inputs": [],
      "name": "settings",
      "outputs": [
        {
          "internalType": "contract SettingsInterface",
          "name": "",
          "type": "address"
        }
      ],
      "payable": false,
      "stateMutability": "view",
      "type": "function"
    },
    {
      "constant": true,
      "inputs": [],
      "name": "tToken",
      "outputs": [
        {
          "internalType": "contract TTokenInterface",
          "name": "",
          "type": "address"
        }
      ],
      "payable": false,
      "stateMutability": "view",
      "type": "function"
    },
    {
      "constant": false,
      "inputs": [
        {
          "internalType": "uint256",
          "name": "amount",
          "type": "uint256"
        }
      ],
      "name": "deposit",
      "outputs": [],
      "payable": false,
      "stateMutability": "nonpayable",
      "type": "function"
    },
    {
      "constant": false,
      "inputs": [
        {
          "internalType": "uint256",
          "name": "amount",
          "type": "uint256"
        }
      ],
      "name": "withdraw",
      "outputs": [],
      "payable": false,
      "stateMutability": "nonpayable",
      "type": "function"
    },
    {
      "constant": false,
      "inputs": [
        {
          "internalType": "uint256",
          "name": "amount",
          "type": "uint256"
        },
        {
          "internalType": "address",
          "name": "borrower",
          "type": "address"
        }
      ],
      "name": "repay",
      "outputs": [],
      "payable": false,
      "stateMutability": "nonpayable",
      "type": "function"
    },
    {
      "constant": false,
      "inputs": [
        {
          "internalType": "uint256",
          "name": "amount",
          "type": "uint256"
        },
        {
          "internalType": "address",
          "name": "liquidator",
          "type": "address"
        }
      ],
      "name": "liquidationPayment",
      "outputs": [],
      "payable": false,
      "stateMutability": "nonpayable",
      "type": "function"
    },
    {
      "constant": false,
      "inputs": [
        {
          "internalType": "uint256",
          "name": "amount",
          "type": "uint256"
        },
        {
          "internalType": "address",
          "name": "borrower",
          "type": "address"
        }
      ],
      "name": "createLoan",
      "outputs": [],
      "payable": false,
      "stateMutability": "nonpayable",
      "type": "function"
    },
    {
      "constant": false,
      "inputs": [
        {
          "internalType": "uint256",
          "name": "amount",
          "type": "uint256"
        }
      ],
      "name": "withdrawInterest",
      "outputs": [],
      "payable": false,
      "stateMutability": "nonpayable",
      "type": "function"
    },
    {
      "constant": false,
      "inputs": [],
      "name": "initialize",
      "outputs": [],
      "payable": false,
      "stateMutability": "nonpayable",
      "type": "function"
    },
    {
      "constant": false,
      "inputs": [
        {
          "internalType": "address",
          "name": "tTokenAddress",
          "type": "address"
        },
        {
          "internalType": "address",
          "name": "lendingTokenAddress",
          "type": "address"
        },
        {
          "internalType": "address",
          "name": "lendersAddress",
          "type": "address"
        },
        {
          "internalType": "address",
          "name": "loansAddress",
          "type": "address"
        },
        {
          "internalType": "address",
          "name": "cTokenAddress",
          "type": "address"
        },
        {
          "internalType": "address",
          "name": "settingsAddress",
          "type": "address"
        }
      ],
      "name": "initialize",
      "outputs": [],
      "payable": false,
      "stateMutability": "nonpayable",
      "type": "function"
    }
  ],
  "bytecode": "0x608060405234801561001057600080fd5b50611dcb806100206000396000f3fe608060405234801561001057600080fd5b50600436106100f55760003560e01c806382f7b02711610097578063c35d64ea11610066578063c35d64ea1461022f578063cc2a9a5b14610237578063e06174e414610285578063e9946b201461028d576100f5565b806382f7b027146101b2578063aaaca558146101de578063acb70815146101e6578063b6b55f2514610212576100f5565b8063272e848e116100d3578063272e848e146101595780632e1a7d4d1461018557806369e527da146101a25780638129fc1c146101aa576100f5565b8063051e6ca5146100fa57806308669aab1461011e578063158ef93e1461013d575b600080fd5b610102610295565b604080516001600160a01b039092168252519081900360200190f35b61013b6004803603602081101561013457600080fd5b50356102a4565b005b6101456105de565b604080519115158252519081900360200190f35b61013b6004803603604081101561016f57600080fd5b50803590602001356001600160a01b0316610614565b61013b6004803603602081101561019b57600080fd5b5035610711565b610102610a10565b61013b610a1f565b61013b600480360360408110156101c857600080fd5b50803590602001356001600160a01b0316610ac6565b610102610c02565b61013b600480360360408110156101fc57600080fd5b50803590602001356001600160a01b0316610c11565b61013b6004803603602081101561022857600080fd5b5035610d4d565b610102610f78565b61013b600480360360c081101561024d57600080fd5b506001600160a01b038135811691602081013582169160408201358116916060810135821691608082013581169160a0013516610f87565b610102611182565b6101026111b3565b6069546001600160a01b031681565b6102ac6105de565b6102eb576040805162461bcd60e51b81526020600482015260186024820152600080516020611d49833981519152604482015290519081900360640190fd5b6102f36111c2565b1561033a576040805162461bcd60e51b8152602060048201526012602482015271141310551193d49357d254d7d4105554d15160721b604482015290519081900360640190fd5b3061034481611235565b15610384576040805162461bcd60e51b81526020600482015260166024820152600080516020611d29833981519152604482015290519081900360640190fd5b33600061038f6112c6565b90506001600160a01b03811615806104ad5750606654606a5460408051632c805af560e21b815290516001600160a01b0380861694634a3d2819949082169391169163b2016bd491600480820192602092909190829003018186803b1580156103f757600080fd5b505afa15801561040b573d6000803e3d6000fd5b505050506040513d602081101561042157600080fd5b5051604080516001600160e01b031960e086901b1681526001600160a01b039384166004820152918316602483015291861660448201526064810188905290516084808301926020929190829003018186803b15801561048057600080fd5b505afa158015610494573d6000803e3d6000fd5b505050506040513d60208110156104aa57600080fd5b50515b6104fe576040805162461bcd60e51b815260206004820152601f60248201527f494e5445524553545f544f5f57495448445241575f49535f494e56414c494400604482015290519081900360640190fd5b60695460408051635b730e6960e01b81526001600160a01b0385811660048301526024820188905291516000939290921691635b730e699160448082019260209290919082900301818787803b15801561055757600080fd5b505af115801561056b573d6000803e3d6000fd5b505050506040513d602081101561058157600080fd5b5051905061058e81611308565b61059883826113ec565b6040805182815290516001600160a01b038516917f0fb2ffd41401cdebe76e1a7cdcaed20ad31cf8d215f8209b73ec00525cb8d686919081900360200190a25050505050565b604080517f54496e697469616c697a61626c652e6973496e697469616c697a6564000000008152905190819003601c0190205490565b61061c6105de565b61065b576040805162461bcd60e51b81526020600482015260186024820152600080516020611d49833981519152604482015290519081900360640190fd5b60408051808201909152601b81527f414444524553535f49534e545f4c4f414e535f434f4e545241435400000000006020820152606a546106af916001600160a01b0390911690339063ffffffff61159916565b306106b981611235565b156106f9576040805162461bcd60e51b81526020600482015260166024820152600080516020611d29833981519152604482015290519081900360640190fd5b61070283611308565b61070c82846113ec565b505050565b6107196105de565b610758576040805162461bcd60e51b81526020600482015260186024820152600080516020611d49833981519152604482015290519081900360640190fd5b6107606111c2565b156107a7576040805162461bcd60e51b8152602060048201526012602482015271141310551193d49357d254d7d4105554d15160721b604482015290519081900360640190fd5b306107b181611235565b156107f1576040805162461bcd60e51b81526020600482015260166024820152600080516020611d29833981519152604482015290519081900360640190fd5b603380546001019081905560685460408051632770a7eb60e21b81523360048201526024810186905290516001600160a01b0390921691639dc29fac916044808201926020929091908290030181600087803b15801561085057600080fd5b505af1158015610864573d6000803e3d6000fd5b505050506040513d602081101561087a57600080fd5b50610886905083611308565b61089033846113ec565b61089861162d565b606654606a5460408051632c805af560e21b815290516001600160a01b039485169463edd2f0bb94811693169163b2016bd4916004808301926020929190829003018186803b1580156108ea57600080fd5b505afa1580156108fe573d6000803e3d6000fd5b505050506040513d602081101561091457600080fd5b5051604080516001600160e01b031960e086901b1681526001600160a01b0393841660048201529290911660248301526044820187905251606480830192600092919082900301818387803b15801561096c57600080fd5b505af1158015610980573d6000803e3d6000fd5b50506040805186815290513393507fa2bd9fcfcdba69f52bcd9a520846ad4bd685b187483f53efc42d035b2ddebff092509081900360200190a2603354811461070c576040805162461bcd60e51b815260206004820152601f60248201527f5265656e7472616e637947756172643a207265656e7472616e742063616c6c00604482015290519081900360640190fd5b6067546001600160a01b031681565b600054610100900460ff1680610a385750610a3861166f565b80610a46575060005460ff16155b610a815760405162461bcd60e51b815260040180806020018281038252602e815260200180611d69602e913960400191505060405180910390fd5b600054610100900460ff16158015610aac576000805460ff1961ff0019909116610100171660011790555b60016033558015610ac3576000805461ff00191690555b50565b610ace6105de565b610b0d576040805162461bcd60e51b81526020600482015260186024820152600080516020611d49833981519152604482015290519081900360640190fd5b60408051808201909152601b81527f414444524553535f49534e545f4c4f414e535f434f4e545241435400000000006020820152606a54610b61916001600160a01b0390911690339063ffffffff61159916565b30610b6b81611235565b15610bab576040805162461bcd60e51b81526020600482015260166024820152600080516020611d29833981519152604482015290519081900360640190fd5b610bb58284611675565b610bbe8361182e565b6040805184815290516001600160a01b038416917f36617b2812c9871a4a040126deb68df6e23786f728dbbec1f16ec31a9ccd8513919081900360200190a2505050565b6066546001600160a01b031681565b610c196105de565b610c58576040805162461bcd60e51b81526020600482015260186024820152600080516020611d49833981519152604482015290519081900360640190fd5b60408051808201909152601b81527f414444524553535f49534e545f4c4f414e535f434f4e545241435400000000006020820152606a54610cac916001600160a01b0390911690339063ffffffff61159916565b30610cb681611235565b15610cf6576040805162461bcd60e51b81526020600482015260166024820152600080516020611d29833981519152604482015290519081900360640190fd5b610d008284611675565b610d098361182e565b6040805184815290516001600160a01b038416917f4819c199ddf4c19bd6887c38dd715fbb8ef06fe379e6fbb356939d47affcb557919081900360200190a2505050565b610d556105de565b610d94576040805162461bcd60e51b81526020600482015260186024820152600080516020611d49833981519152604482015290519081900360640190fd5b610d9c6111c2565b15610de3576040805162461bcd60e51b8152602060048201526012602482015271141310551193d49357d254d7d4105554d15160721b604482015290519081900360640190fd5b30610ded81611235565b15610e2d576040805162461bcd60e51b81526020600482015260166024820152600080516020611d29833981519152604482015290519081900360640190fd5b610e373383611675565b610e408261182e565b610e4a338361198c565b610e5261162d565b606654606a5460408051632c805af560e21b815290516001600160a01b03948516946367ef06aa94811693169163b2016bd4916004808301926020929190829003018186803b158015610ea457600080fd5b505afa158015610eb8573d6000803e3d6000fd5b505050506040513d6020811015610ece57600080fd5b5051604080516001600160e01b031960e086901b1681526001600160a01b0393841660048201529290911660248301526044820186905251606480830192600092919082900301818387803b158015610f2657600080fd5b505af1158015610f3a573d6000803e3d6000fd5b50506040805185815290513393507fbc7c8a4d8049a3f99a02f2a20640c206a2e4d3f2fa54fd20da9f01fda3620cda92509081900360200190a25050565b6068546001600160a01b031681565b610f8f6105de565b15610fe1576040805162461bcd60e51b815260206004820152601c60248201527f434f4e54524143545f414c52454144595f494e495449414c495a454400000000604482015290519081900360640190fd5b60408051808201909152601a81527f54544f4b454e5f414444524553535f49535f5245515549524544000000000000602082015261102f906001600160a01b0388169063ffffffff611a5a16565b60408051808201909152601981527f544f4b454e5f414444524553535f49535f524551554952454400000000000000602082015261107d906001600160a01b0387169063ffffffff611a5a16565b60408051808201909152601b81527f4c454e444552535f414444524553535f49535f5245515549524544000000000060208201526110cb906001600160a01b0386169063ffffffff611a5a16565b60408051808201909152601981527f4c4f414e535f414444524553535f49535f5245515549524544000000000000006020820152611119906001600160a01b0385169063ffffffff611a5a16565b61112281611ab0565b50606880546001600160a01b03199081166001600160a01b03978816179091556066805482169587169590951790945560698054851693861693909317909255606a80548416918516919091179055606780549092169216919091179055565b6040805177426173655570677261646561626c652e73657474696e677360401b815290519081900360180190205490565b606a546001600160a01b031681565b60006111cc611182565b6001600160a01b031663b187bd266040518163ffffffff1660e01b815260040160206040518083038186803b15801561120457600080fd5b505afa158015611218573d6000803e3d6000fd5b505050506040513d602081101561122e57600080fd5b5051905090565b600061123f611182565b6001600160a01b0316633b668321836040518263ffffffff1660e01b815260040180826001600160a01b03166001600160a01b0316815260200191505060206040518083038186803b15801561129457600080fd5b505afa1580156112a8573d6000803e3d6000fd5b505050506040513d60208110156112be57600080fd5b505192915050565b60006112d0611182565b6001600160a01b0316632fa8a7ee6040518163ffffffff1660e01b815260040160206040518083038186803b15801561120457600080fd5b611310611bcc565b1561131a57610ac3565b6067546040805163852a12e360e01b81526004810184905290516000926001600160a01b03169163852a12e391602480830192602092919082900301818787803b15801561136757600080fd5b505af115801561137b573d6000803e3d6000fd5b505050506040513d602081101561139157600080fd5b5051905080156113e8576040805162461bcd60e51b815260206004820152601960248201527f434f4d504f554e445f5749544844524157414c5f4552524f5200000000000000604482015290519081900360640190fd5b5050565b606654604080516370a0823160e01b815230600482015290516000926001600160a01b0316916370a08231916024808301926020929190829003018186803b15801561143757600080fd5b505afa15801561144b573d6000803e3d6000fd5b505050506040513d602081101561146157600080fd5b50519050818110156114ba576040805162461bcd60e51b815260206004820181905260248201527f4c454e44494e475f544f4b454e5f4e4f545f454e4f5547485f42414c414e4345604482015290519081900360640190fd5b6066546040805163a9059cbb60e01b81526001600160a01b038681166004830152602482018690529151600093929092169163a9059cbb9160448082019260209290919082900301818787803b15801561151357600080fd5b505af1158015611527573d6000803e3d6000fd5b505050506040513d602081101561153d57600080fd5b5051905080611593576040805162461bcd60e51b815260206004820152601760248201527f4c454e44494e475f5452414e534645525f4641494c4544000000000000000000604482015290519081900360640190fd5b50505050565b6115a38383611bdc565b81906115935760405162461bcd60e51b81526004018080602001828103825283818151815260200191508051906020019080838360005b838110156115f25781810151838201526020016115da565b50505050905090810190601f16801561161f5780820380516001836020036101000a031916815260200191505b509250505060405180910390fd5b6000611637611182565b6001600160a01b0316631390f8d76040518163ffffffff1660e01b815260040160206040518083038186803b15801561120457600080fd5b303b1590565b60665460408051636eb1769f60e11b81526001600160a01b0385811660048301523060248301529151600093929092169163dd62ed3e91604480820192602092909190829003018186803b1580156116cc57600080fd5b505afa1580156116e0573d6000803e3d6000fd5b505050506040513d60208110156116f657600080fd5b505190508181101561174f576040805162461bcd60e51b815260206004820152601f60248201527f4c454e445f544f4b454e5f4e4f545f454e4f5547485f414c4c4f57414e434500604482015290519081900360640190fd5b606654604080516323b872dd60e01b81526001600160a01b03868116600483015230602483015260448201869052915160009392909216916323b872dd9160648082019260209290919082900301818787803b1580156117ae57600080fd5b505af11580156117c2573d6000803e3d6000fd5b505050506040513d60208110156117d857600080fd5b5051905080611593576040805162461bcd60e51b815260206004820152601c60248201527f4c454e44494e475f5452414e534645525f46524f4d5f4641494c454400000000604482015290519081900360640190fd5b611836611bcc565b1561184057610ac3565b6066546067546040805163095ea7b360e01b81526001600160a01b039283166004820152602481018590529051919092169163095ea7b39160448083019260209291908290030181600087803b15801561189957600080fd5b505af11580156118ad573d6000803e3d6000fd5b505050506040513d60208110156118c357600080fd5b50506067546040805163140e25ad60e31b81526004810184905290516000926001600160a01b03169163a0712d6891602480830192602092919082900301818787803b15801561191257600080fd5b505af1158015611926573d6000803e3d6000fd5b505050506040513d602081101561193c57600080fd5b5051905080156113e8576040805162461bcd60e51b815260206004820152601660248201527521a7a6a827aaa7222fa222a827a9a4aa2fa2a92927a960511b604482015290519081900360640190fd5b606854604080516340c10f1960e01b81526001600160a01b03858116600483015260248201859052915160009392909216916340c10f199160448082019260209290919082900301818787803b1580156119e557600080fd5b505af11580156119f9573d6000803e3d6000fd5b505050506040513d6020811015611a0f57600080fd5b505190508061070c576040805162461bcd60e51b8152602060048201526012602482015271151513d2d15397d352539517d1905253115160721b604482015290519081900360640190fd5b611a6382611bed565b819061070c5760405162461bcd60e51b81526020600482018181528351602484015283519092839260449091019190850190808383600083156115f25781810151838201526020016115da565b611ab86105de565b15611b0a576040805162461bcd60e51b815260206004820152601c60248201527f434f4e54524143545f414c52454144595f494e495449414c495a454400000000604482015290519081900360640190fd5b60408051808201909152601981527f53455454494e47535f4d5553545f42455f50524f5649444544000000000000006020820152611b58906001600160a01b0383169063ffffffff611a5a16565b611b6a816001600160a01b0316611bfb565b611bbb576040805162461bcd60e51b815260206004820152601b60248201527f53455454494e47535f4d5553545f42455f415f434f4e54524143540000000000604482015290519081900360640190fd5b611bc3611c37565b610ac381611c6f565b6067546001600160a01b03161590565b6001600160a01b0390811691161490565b6001600160a01b0316151590565b6000813f7fc5d2460186f7233c927e7db2dcc703c0e500b653ca82273b7bfad8045d85a470818114801590611c2f57508115155b949350505050565b604080517f54496e697469616c697a61626c652e6973496e697469616c697a6564000000008152905190819003601c01902060019055565b611c88611c7a611182565b6001600160a01b0316611bed565b15611c9257610ac3565b611ca4816001600160a01b0316611bfb565b611cf5576040805162461bcd60e51b815260206004820152601b60248201527f53455454494e47535f4d5553545f42455f415f434f4e54524143540000000000604482015290519081900360640190fd5b6040805177426173655570677261646561626c652e73657474696e677360401b815290519081900360180190208190555056fe4c454e44494e475f504f4f4c5f49535f50415553454400000000000000000000434f4e54524143545f4e4f545f494e495449414c495a45440000000000000000436f6e747261637420696e7374616e63652068617320616c7265616479206265656e20696e697469616c697a6564a265627a7a72315820c6212bcf292123385a36ee17d4bfc5192a07a656a12c4907de85cd8025a54d6564736f6c63430005110032",
  "source": "pragma solidity 0.5.17;\n\n// Libraries\n\n// Commons\n\n// Interfaces\nimport \"@openzeppelin/contracts-ethereum-package/contracts/token/ERC20/IERC20.sol\";\nimport \"../interfaces/LendingPoolInterface.sol\";\nimport \"../interfaces/LendersInterface.sol\";\nimport \"../interfaces/LoansInterface.sol\";\nimport \"../interfaces/TTokenInterface.sol\";\nimport \"../providers/compound/CErc20Interface.sol\";\n\n// Contracts\nimport \"./Base.sol\";\n\n/*****************************************************************************************************/\n/**                                             WARNING                                             **/\n/**                                  THIS CONTRACT IS UPGRADEABLE!                                  **/\n/**  ---------------------------------------------------------------------------------------------  **/\n/**  Do NOT change the order of or PREPEND any storage variables to this or new versions of this    **/\n/**  contract as this will cause the the storage slots to be overwritten on the proxy contract!!    **/\n/**                                                                                                 **/\n/**  Visit https://docs.openzeppelin.com/upgrades/2.6/proxies#upgrading-via-the-proxy-pattern for   **/\n/**  more information.                                                                              **/\n/*****************************************************************************************************/\n/**\n    @notice The LendingPool contract holds all of the tokens that lenders transfer into the protocol. It is the contract that lenders interact with to deposit and withdraw their tokens including interest. The LendingPool interacts with the Lenders contract to ensure token balances and interest owed is kept up to date.\n\n    @author develop@teller.finance\n */\ncontract LendingPool is Base, LendingPoolInterface {\n    /* State Variables */\n\n    IERC20 public lendingToken;\n\n    address public cToken;\n\n    TTokenInterface public tToken;\n\n    LendersInterface public lenders;\n\n    address public loans;\n\n    /** Modifiers */\n\n    /**\n        @notice It checks the address is the Loans contract address.\n        @dev It throws a require error if parameter is not equal to loans contract address.\n     */\n    modifier isLoan() {\n        loans.requireEqualTo(msg.sender, \"ADDRESS_ISNT_LOANS_CONTRACT\");\n        _;\n    }\n\n    /* Constructor */\n\n    /** External Functions */\n\n    /**\n        @notice It allows users to deposit tokens into the pool.\n        @dev the user must call ERC20.approve function previously.\n        @dev If the cToken is available (not 0x0), it deposits the lending token amount into Compound directly.\n        @param amount of tokens to deposit in the pool.\n    */\n    function deposit(uint256 amount)\n        external\n        isInitialized()\n        whenNotPaused()\n        whenLendingPoolNotPaused(address(this))\n    {\n        // Transfering tokens to the LendingPool\n        tokenTransferFrom(msg.sender, amount);\n\n        // deposit them straight into compound\n        _depositToCompoundIfSupported(amount);\n\n        // Mint tToken tokens\n        tTokenMint(msg.sender, amount);\n\n        _markets().increaseSupply(\n            address(lendingToken),\n            LoansInterface(loans).collateralToken(),\n            amount\n        );\n\n        // Emit event\n        emit TokenDeposited(msg.sender, amount);\n    }\n\n    /**\n        @notice It allows any tToken holder to burn their tToken tokens and withdraw their tokens.\n        @dev If the cToken is available (not 0x0), it withdraws the lending tokens from Compound before transferring the tokens to the holder.\n        @param amount of tokens to withdraw.\n     */\n    function withdraw(uint256 amount)\n        external\n        isInitialized()\n        whenNotPaused()\n        whenLendingPoolNotPaused(address(this))\n        nonReentrant()\n    {\n        // Burn tToken tokens.\n        tToken.burn(msg.sender, amount);\n\n        // Withdraw the tokens from compound\n        _withdrawFromCompoundIfSupported(amount);\n\n        // Transfers tokens\n        tokenTransfer(msg.sender, amount);\n\n        _markets().decreaseSupply(\n            address(lendingToken),\n            LoansInterface(loans).collateralToken(),\n            amount\n        );\n\n        // Emit event.\n        emit TokenWithdrawn(msg.sender, amount);\n    }\n\n    /**\n        @notice It allows a borrower repaying their loan.\n        @dev This function can be called ONLY by the Loans contract.\n        @dev It requires a ERC20.approve call before calling it.\n        @dev It throws a require error if borrower called ERC20.approve function before calling it.\n        @param amount of tokens.\n        @param borrower address that is repaying the loan.\n     */\n    function repay(uint256 amount, address borrower)\n        external\n        isInitialized()\n        isLoan()\n        whenLendingPoolNotPaused(address(this))\n    {\n        // Transfers tokens to LendingPool.\n        tokenTransferFrom(borrower, amount);\n\n        // deposit them straight into compound\n        _depositToCompoundIfSupported(amount);\n\n        // Emits event.\n        emit TokenRepaid(borrower, amount);\n    }\n\n    /**\n        @notice Once a loan is liquidated, it transfers tokens from the liquidator to the lending pool.\n        @param amount of tokens to liquidate.\n        @param liquidator address used to liquidate the loan.\n     */\n    function liquidationPayment(uint256 amount, address liquidator)\n        external\n        isInitialized()\n        isLoan()\n        whenLendingPoolNotPaused(address(this))\n    {\n        // Transfers tokens from liquidator to lending pool\n        tokenTransferFrom(liquidator, amount);\n\n        // deposit them straight into compound\n        _depositToCompoundIfSupported(amount);\n\n        // Emits event\n        emit PaymentLiquidated(liquidator, amount);\n    }\n\n    /**\n        @notice Once the loan is created, it transfers the amount of tokens to the borrower.\n\n        @param amount of tokens to transfer.\n        @param borrower address which will receive the tokens.\n        @dev This function only can be invoked by the LoansInterface implementation.\n        @dev It withdraws the lending tokens from Compound before transferring tokens to the borrower.\n     */\n    function createLoan(uint256 amount, address borrower)\n        external\n        isInitialized()\n        isLoan()\n        whenLendingPoolNotPaused(address(this))\n    {\n        // Withdraw the tokens from compound if it is supported\n        _withdrawFromCompoundIfSupported(amount);\n\n        // Transfer tokens to the borrower.\n        tokenTransfer(borrower, amount);\n    }\n\n    /**\n        @notice It allows the lenders to withdraw interest.\n        @param amount interest amount to withdraw.\n        @dev It withdraws lending tokens from Compound before transferring the tokens to the lender.\n     */\n    function withdrawInterest(uint256 amount)\n        external\n        isInitialized()\n        whenNotPaused()\n        whenLendingPoolNotPaused(address(this))\n    {\n        address lender = msg.sender;\n        InterestValidatorInterface interestValidator = _interestValidator();\n        require(\n            address(interestValidator) == address(0x0) ||\n                interestValidator.isInterestValid(\n                    address(lendingToken),\n                    LoansInterface(loans).collateralToken(),\n                    lender,\n                    amount\n                ),\n            \"INTEREST_TO_WITHDRAW_IS_INVALID\"\n        );\n\n        // update the lenders record, returning the actual amount to withdraw\n        uint256 amountToWithdraw = lenders.withdrawInterest(lender, amount);\n\n        // Withdraw the tokens from compound\n        _withdrawFromCompoundIfSupported(amountToWithdraw);\n\n        // Transfer tokens to the lender.\n        tokenTransfer(lender, amountToWithdraw);\n\n        emit InterestWithdrawn(lender, amountToWithdraw);\n    }\n\n    /**\n        @notice It initializes the contract state variables.\n        @param tTokenAddress tToken token address.\n        @param lendingTokenAddress ERC20 token address.\n        @param lendersAddress Lenders contract address.\n        @param loansAddress Loans contract address.\n        @param settingsAddress Settings contract address.\n        @dev It throws a require error if the contract is already initialized.\n     */\n    function initialize(\n        address tTokenAddress,\n        address lendingTokenAddress,\n        address lendersAddress,\n        address loansAddress,\n        address cTokenAddress,\n        address settingsAddress\n    ) external isNotInitialized() {\n        tTokenAddress.requireNotEmpty(\"TTOKEN_ADDRESS_IS_REQUIRED\");\n        lendingTokenAddress.requireNotEmpty(\"TOKEN_ADDRESS_IS_REQUIRED\");\n        lendersAddress.requireNotEmpty(\"LENDERS_ADDRESS_IS_REQUIRED\");\n        loansAddress.requireNotEmpty(\"LOANS_ADDRESS_IS_REQUIRED\");\n\n        _initialize(settingsAddress);\n\n        tToken = TTokenInterface(tTokenAddress);\n        lendingToken = IERC20(lendingTokenAddress);\n        lenders = LendersInterface(lendersAddress);\n        loans = loansAddress;\n        cToken = cTokenAddress;\n    }\n\n    /** Internal functions */\n\n    /**\n        @notice It deposits a given amount of tokens to Compound only if the cToken is not empty.\n        @param amount amount to deposit.\n     */\n    function _depositToCompoundIfSupported(uint256 amount) internal {\n        if (_isCTokenNotSupported()) {\n            return;\n        }\n        // approve the cToken contract to take lending tokens\n        lendingToken.approve(address(cToken), amount);\n\n        // Now mint cTokens, which will take lending tokens\n        uint256 mintResult = CErc20Interface(cToken).mint(amount);\n        require(mintResult == 0, \"COMPOUND_DEPOSIT_ERROR\");\n    }\n\n    /**\n        @notice It withdraws a given amount of tokens if the cToken is defined (not 0x0).\n        @param amount amount of tokens to withdraw.\n     */\n    function _withdrawFromCompoundIfSupported(uint256 amount) internal {\n        if (_isCTokenNotSupported()) {\n            return;\n        }\n        // this function withdraws 'amount' lending tokens from compound\n        // another function exists to withdraw 'amount' cTokens of lending tokens\n        uint256 redeemResult = CErc20Interface(cToken).redeemUnderlying(amount);\n        require(redeemResult == 0, \"COMPOUND_WITHDRAWAL_ERROR\");\n    }\n\n    /**\n        @notice It tests whether cToken address is defined (not 0x0) or not.\n        @return true if the cToken address is not 0x0. Otherwise it returns false.\n     */\n    function _isCTokenNotSupported() internal view returns (bool) {\n        return address(cToken) == address(0x0);\n    }\n\n    /** Private functions */\n\n    /**\n        @notice It transfers an amount of tokens to a specific address.\n        @param recipient address which will receive the tokens.\n        @param amount of tokens to transfer.\n        @dev It throws a require error if 'transfer' invocation fails.\n     */\n    function tokenTransfer(address recipient, uint256 amount) private {\n        uint256 currentBalance = lendingToken.balanceOf(address(this));\n        require(currentBalance >= amount, \"LENDING_TOKEN_NOT_ENOUGH_BALANCE\");\n        bool transferResult = lendingToken.transfer(recipient, amount);\n        require(transferResult, \"LENDING_TRANSFER_FAILED\");\n    }\n\n    /**\n        @notice It transfers an amount of tokens from an address to this contract.\n        @param from address where the tokens will transfer from.\n        @param amount to be transferred.\n        @dev It throws a require error if 'transferFrom' invocation fails.\n     */\n    function tokenTransferFrom(address from, uint256 amount) private {\n        uint256 allowance = lendingToken.allowance(from, address(this));\n        require(allowance >= amount, \"LEND_TOKEN_NOT_ENOUGH_ALLOWANCE\");\n        bool transferFromResult = lendingToken.transferFrom(from, address(this), amount);\n        require(transferFromResult, \"LENDING_TRANSFER_FROM_FAILED\");\n    }\n\n    /**\n        @notice It mints tToken tokens, and send them to a specific address.\n        @param to address which will receive the minted tokens.\n        @param amount to be minted.\n        @dev This contract must has a Minter Role in tToken (mintable) token.\n        @dev It throws a require error if mint invocation fails.\n     */\n    function tTokenMint(address to, uint256 amount) private {\n        bool mintResult = tToken.mint(to, amount);\n        require(mintResult, \"TTOKEN_MINT_FAILED\");\n    }\n}\n",
  "sourcePath": "/Users/sy/Documents/GitHub/teller-protocol-v1/contracts/base/LendingPool.sol",
  "compiler": {
    "name": "solc",
    "version": "0.5.17+commit.d19bba13.Emscripten.clang"
  },
  "schemaVersion": "3.0.23",
  "updatedAt": "2020-09-15T23:09:49.755Z",
  "devdoc": {
    "author": "develop@teller.finance",
    "methods": {
      "createLoan(uint256,address)": {
        "details": "This function only can be invoked by the LoansInterface implementation.It withdraws the lending tokens from Compound before transferring tokens to the borrower.",
        "params": {
          "amount": "of tokens to transfer.",
          "borrower": "address which will receive the tokens."
        }
      },
      "deposit(uint256)": {
        "details": "the user must call ERC20.approve function previously.If the cToken is available (not 0x0), it deposits the lending token amount into Compound directly.",
        "params": {
          "amount": "of tokens to deposit in the pool."
        }
      },
      "initialize(address,address,address,address,address,address)": {
        "details": "It throws a require error if the contract is already initialized.",
        "params": {
          "lendersAddress": "Lenders contract address.",
          "lendingTokenAddress": "ERC20 token address.",
          "loansAddress": "Loans contract address.",
          "settingsAddress": "Settings contract address.",
          "tTokenAddress": "tToken token address."
        }
      },
      "initialized()": {
        "return": "true if contract is initialized. Otherwise it returns false."
      },
      "liquidationPayment(uint256,address)": {
        "params": {
          "amount": "of tokens to liquidate.",
          "liquidator": "address used to liquidate the loan."
        }
      },
      "repay(uint256,address)": {
        "details": "This function can be called ONLY by the Loans contract.It requires a ERC20.approve call before calling it.It throws a require error if borrower called ERC20.approve function before calling it.",
        "params": {
          "amount": "of tokens.",
          "borrower": "address that is repaying the loan."
        }
      },
      "settings()": {
        "details": "This address should NOT change over the time. See details in the _setSettings(...) function."
      },
      "withdraw(uint256)": {
        "details": "If the cToken is available (not 0x0), it withdraws the lending tokens from Compound before transferring the tokens to the holder.",
        "params": {
          "amount": "of tokens to withdraw."
        }
      },
      "withdrawInterest(uint256)": {
        "details": "It withdraws lending tokens from Compound before transferring the tokens to the lender.",
        "params": {
          "amount": "interest amount to withdraw."
        }
      }
    }
  },
  "userdoc": {
    "methods": {
      "createLoan(uint256,address)": {
        "notice": "Once the loan is created, it transfers the amount of tokens to the borrower."
      },
      "deposit(uint256)": {
        "notice": "It allows users to deposit tokens into the pool."
      },
      "initialize(address,address,address,address,address,address)": {
        "notice": "It initializes the contract state variables."
      },
      "initialized()": {
        "notice": "Gets if the contract is initialized."
      },
      "liquidationPayment(uint256,address)": {
        "notice": "Once a loan is liquidated, it transfers tokens from the liquidator to the lending pool."
      },
      "repay(uint256,address)": {
        "notice": "It allows a borrower repaying their loan."
      },
      "settings()": {
        "notice": "The gets the settings contract address from the SETTINGS_SLOT."
      },
      "withdraw(uint256)": {
        "notice": "It allows any tToken holder to burn their tToken tokens and withdraw their tokens."
      },
      "withdrawInterest(uint256)": {
        "notice": "It allows the lenders to withdraw interest."
      }
    },
    "notice": "The LendingPool contract holds all of the tokens that lenders transfer into the protocol. It is the contract that lenders interact with to deposit and withdraw their tokens including interest. The LendingPool interacts with the Lenders contract to ensure token balances and interest owed is kept up to date."
  }
}