{
  "contractName": "LoansBaseMock",
  "abi": [
    {
      "anonymous": false,
      "inputs": [
        {
          "indexed": true,
          "internalType": "uint256",
          "name": "loanID",
          "type": "uint256"
        },
        {
          "indexed": true,
          "internalType": "address",
          "name": "borrower",
          "type": "address"
        },
        {
          "indexed": false,
          "internalType": "uint256",
          "name": "depositAmount",
          "type": "uint256"
        }
      ],
      "name": "CollateralDeposited",
      "type": "event"
    },
    {
      "anonymous": false,
      "inputs": [
        {
          "indexed": true,
          "internalType": "uint256",
          "name": "loanID",
          "type": "uint256"
        },
        {
          "indexed": true,
          "internalType": "address",
          "name": "borrower",
          "type": "address"
        },
        {
          "indexed": false,
          "internalType": "uint256",
          "name": "withdrawalAmount",
          "type": "uint256"
        }
      ],
      "name": "CollateralWithdrawn",
      "type": "event"
    },
    {
      "anonymous": false,
      "inputs": [
        {
          "indexed": true,
          "internalType": "uint256",
          "name": "loanID",
          "type": "uint256"
        },
        {
          "indexed": true,
          "internalType": "address",
          "name": "borrower",
          "type": "address"
        },
        {
          "indexed": false,
          "internalType": "address",
          "name": "liquidator",
          "type": "address"
        },
        {
          "indexed": false,
          "internalType": "uint256",
          "name": "collateralOut",
          "type": "uint256"
        },
        {
          "indexed": false,
          "internalType": "uint256",
          "name": "tokensIn",
          "type": "uint256"
        }
      ],
      "name": "LoanLiquidated",
      "type": "event"
    },
    {
      "anonymous": false,
      "inputs": [
        {
          "indexed": true,
          "internalType": "uint256",
          "name": "loanID",
          "type": "uint256"
        },
        {
          "indexed": true,
          "internalType": "address",
          "name": "borrower",
          "type": "address"
        },
        {
          "indexed": false,
          "internalType": "uint256",
          "name": "amountPaid",
          "type": "uint256"
        },
        {
          "indexed": false,
          "internalType": "address",
          "name": "payer",
          "type": "address"
        },
        {
          "indexed": false,
          "internalType": "uint256",
          "name": "totalOwed",
          "type": "uint256"
        }
      ],
      "name": "LoanRepaid",
      "type": "event"
    },
    {
      "anonymous": false,
      "inputs": [
        {
          "indexed": true,
          "internalType": "uint256",
          "name": "loanID",
          "type": "uint256"
        },
        {
          "indexed": true,
          "internalType": "address",
          "name": "borrower",
          "type": "address"
        },
        {
          "indexed": true,
          "internalType": "address",
          "name": "escrow",
          "type": "address"
        },
        {
          "indexed": false,
          "internalType": "uint256",
          "name": "amountBorrowed",
          "type": "uint256"
        }
      ],
      "name": "LoanTakenOut",
      "type": "event"
    },
    {
      "anonymous": false,
      "inputs": [
        {
          "indexed": true,
          "internalType": "uint256",
          "name": "loanID",
          "type": "uint256"
        },
        {
          "indexed": true,
          "internalType": "address",
          "name": "borrower",
          "type": "address"
        },
        {
          "indexed": true,
          "internalType": "address",
          "name": "recipient",
          "type": "address"
        },
        {
          "indexed": false,
          "internalType": "uint256",
          "name": "interestRate",
          "type": "uint256"
        },
        {
          "indexed": false,
          "internalType": "uint256",
          "name": "collateralRatio",
          "type": "uint256"
        },
        {
          "indexed": false,
          "internalType": "uint256",
          "name": "maxLoanAmount",
          "type": "uint256"
        },
        {
          "indexed": false,
          "internalType": "uint256",
          "name": "duration",
          "type": "uint256"
        },
        {
          "indexed": false,
          "internalType": "uint256",
          "name": "termsExpiry",
          "type": "uint256"
        }
      ],
      "name": "LoanTermsSet",
      "type": "event"
    },
    {
      "anonymous": false,
      "inputs": [
        {
          "indexed": true,
          "internalType": "address",
          "name": "sender",
          "type": "address"
        },
        {
          "indexed": true,
          "internalType": "address",
          "name": "oldPriceOracle",
          "type": "address"
        },
        {
          "indexed": true,
          "internalType": "address",
          "name": "newPriceOracle",
          "type": "address"
        }
      ],
      "name": "PriceOracleUpdated",
      "type": "event"
    },
    {
      "constant": true,
      "inputs": [
        {
          "internalType": "address",
          "name": "",
          "type": "address"
        },
        {
          "internalType": "uint256",
          "name": "",
          "type": "uint256"
        }
      ],
      "name": "borrowerLoans",
      "outputs": [
        {
          "internalType": "uint256",
          "name": "",
          "type": "uint256"
        }
      ],
      "payable": false,
      "stateMutability": "view",
      "type": "function"
    },
    {
      "constant": true,
      "inputs": [],
      "name": "cToken",
      "outputs": [
        {
          "internalType": "address",
          "name": "",
          "type": "address"
        }
      ],
      "payable": false,
      "stateMutability": "view",
      "type": "function"
    },
    {
      "constant": true,
      "inputs": [
        {
          "internalType": "uint256",
          "name": "loanID",
          "type": "uint256"
        }
      ],
      "name": "canLiquidateLoan",
      "outputs": [
        {
          "internalType": "bool",
          "name": "",
          "type": "bool"
        }
      ],
      "payable": false,
      "stateMutability": "view",
      "type": "function"
    },
    {
      "constant": true,
      "inputs": [],
      "name": "collateralToken",
      "outputs": [
        {
          "internalType": "address",
          "name": "",
          "type": "address"
        }
      ],
      "payable": false,
      "stateMutability": "view",
      "type": "function"
    },
    {
      "constant": false,
      "inputs": [
        {
          "internalType": "address",
          "name": "settingsAddress",
          "type": "address"
        }
      ],
      "name": "externalInitialize",
      "outputs": [],
      "payable": false,
      "stateMutability": "nonpayable",
      "type": "function"
    },
    {
      "constant": false,
      "inputs": [
        {
          "internalType": "address",
          "name": "lendingPoolAddress",
          "type": "address"
        }
      ],
      "name": "externalWhenLendingPoolNotPaused",
      "outputs": [],
      "payable": false,
      "stateMutability": "nonpayable",
      "type": "function"
    },
    {
      "constant": false,
      "inputs": [
        {
          "internalType": "address",
          "name": "lendingPoolAddress",
          "type": "address"
        }
      ],
      "name": "externalWhenLendingPoolPaused",
      "outputs": [],
      "payable": false,
      "stateMutability": "nonpayable",
      "type": "function"
    },
    {
      "constant": false,
      "inputs": [],
      "name": "externalWhenNotPaused",
      "outputs": [],
      "payable": false,
      "stateMutability": "nonpayable",
      "type": "function"
    },
    {
      "constant": false,
      "inputs": [],
      "name": "externalWhenPaused",
      "outputs": [],
      "payable": false,
      "stateMutability": "nonpayable",
      "type": "function"
    },
    {
      "constant": true,
      "inputs": [
        {
          "internalType": "address",
          "name": "borrower",
          "type": "address"
        }
      ],
      "name": "getBorrowerLoans",
      "outputs": [
        {
          "internalType": "uint256[]",
          "name": "",
          "type": "uint256[]"
        }
      ],
      "payable": false,
      "stateMutability": "view",
      "type": "function"
    },
    {
      "constant": true,
      "inputs": [
        {
          "internalType": "uint256",
          "name": "loanID",
          "type": "uint256"
        }
      ],
      "name": "getCollateralInfo",
      "outputs": [
        {
          "components": [
            {
              "internalType": "uint256",
              "name": "collateral",
              "type": "uint256"
            },
            {
              "internalType": "uint256",
              "name": "neededInLendingTokens",
              "type": "uint256"
            },
            {
              "internalType": "uint256",
              "name": "neededInCollateralTokens",
              "type": "uint256"
            },
            {
              "internalType": "bool",
              "name": "moreCollateralRequired",
              "type": "bool"
            }
          ],
          "internalType": "struct TellerCommon.LoanCollateralInfo",
          "name": "",
          "type": "tuple"
        }
      ],
      "payable": false,
      "stateMutability": "view",
      "type": "function"
    },
    {
      "constant": true,
      "inputs": [
        {
          "internalType": "uint256",
          "name": "loanID",
          "type": "uint256"
        }
      ],
      "name": "getTotalOwed",
      "outputs": [
        {
          "internalType": "uint256",
          "name": "",
          "type": "uint256"
        }
      ],
      "payable": false,
      "stateMutability": "view",
      "type": "function"
    },
    {
      "constant": true,
      "inputs": [],
      "name": "initialized",
      "outputs": [
        {
          "internalType": "bool",
          "name": "value",
          "type": "bool"
        }
      ],
      "payable": false,
      "stateMutability": "view",
      "type": "function"
    },
    {
      "constant": true,
      "inputs": [],
      "name": "lendingPool",
      "outputs": [
        {
          "internalType": "contract LendingPoolInterface",
          "name": "",
          "type": "address"
        }
      ],
      "payable": false,
      "stateMutability": "view",
      "type": "function"
    },
    {
      "constant": true,
      "inputs": [],
      "name": "lendingToken",
      "outputs": [
        {
          "internalType": "address",
          "name": "",
          "type": "address"
        }
      ],
      "payable": false,
      "stateMutability": "view",
      "type": "function"
    },
    {
      "constant": false,
      "inputs": [
        {
          "internalType": "uint256",
          "name": "loanID",
          "type": "uint256"
        }
      ],
      "name": "liquidateLoan",
      "outputs": [],
      "payable": false,
      "stateMutability": "nonpayable",
      "type": "function"
    },
    {
      "constant": true,
      "inputs": [],
      "name": "loanIDCounter",
      "outputs": [
        {
          "internalType": "uint256",
          "name": "",
          "type": "uint256"
        }
      ],
      "payable": false,
      "stateMutability": "view",
      "type": "function"
    },
    {
      "constant": true,
      "inputs": [],
      "name": "loanTermsConsensus",
      "outputs": [
        {
          "internalType": "contract LoanTermsConsensusInterface",
          "name": "",
          "type": "address"
        }
      ],
      "payable": false,
      "stateMutability": "view",
      "type": "function"
    },
    {
      "constant": true,
      "inputs": [
        {
          "internalType": "uint256",
          "name": "",
          "type": "uint256"
        }
      ],
      "name": "loans",
      "outputs": [
        {
          "internalType": "uint256",
          "name": "id",
          "type": "uint256"
        },
        {
          "components": [
            {
              "internalType": "address payable",
              "name": "borrower",
              "type": "address"
            },
            {
              "internalType": "address",
              "name": "recipient",
              "type": "address"
            },
            {
              "internalType": "uint256",
              "name": "interestRate",
              "type": "uint256"
            },
            {
              "internalType": "uint256",
              "name": "collateralRatio",
              "type": "uint256"
            },
            {
              "internalType": "uint256",
              "name": "maxLoanAmount",
              "type": "uint256"
            },
            {
              "internalType": "uint256",
              "name": "duration",
              "type": "uint256"
            }
          ],
          "internalType": "struct TellerCommon.LoanTerms",
          "name": "loanTerms",
          "type": "tuple"
        },
        {
          "internalType": "uint256",
          "name": "termsExpiry",
          "type": "uint256"
        },
        {
          "internalType": "uint256",
          "name": "loanStartTime",
          "type": "uint256"
        },
        {
          "internalType": "uint256",
          "name": "collateral",
          "type": "uint256"
        },
        {
          "internalType": "uint256",
          "name": "lastCollateralIn",
          "type": "uint256"
        },
        {
          "internalType": "uint256",
          "name": "principalOwed",
          "type": "uint256"
        },
        {
          "internalType": "uint256",
          "name": "interestOwed",
          "type": "uint256"
        },
        {
          "internalType": "uint256",
          "name": "borrowedAmount",
          "type": "uint256"
        },
        {
          "internalType": "address",
          "name": "escrow",
          "type": "address"
        },
        {
          "internalType": "enum TellerCommon.LoanStatus",
          "name": "status",
          "type": "uint8"
        },
        {
          "internalType": "bool",
          "name": "liquidated",
          "type": "bool"
        }
      ],
      "payable": false,
      "stateMutability": "view",
      "type": "function"
    },
    {
      "constant": true,
      "inputs": [],
      "name": "priceOracle",
      "outputs": [
        {
          "internalType": "address",
          "name": "",
          "type": "address"
        }
      ],
      "payable": false,
      "stateMutability": "view",
      "type": "function"
    },
    {
      "constant": false,
      "inputs": [
        {
          "internalType": "uint256",
          "name": "amount",
          "type": "uint256"
        },
        {
          "internalType": "uint256",
          "name": "loanID",
          "type": "uint256"
        }
      ],
      "name": "repay",
      "outputs": [],
      "payable": false,
      "stateMutability": "nonpayable",
      "type": "function"
    },
    {
      "constant": false,
      "inputs": [
        {
          "internalType": "address",
          "name": "newPriceOracle",
          "type": "address"
        }
      ],
      "name": "setPriceOracle",
      "outputs": [],
      "payable": false,
      "stateMutability": "nonpayable",
      "type": "function"
    },
    {
      "constant": true,
      "inputs": [],
      "name": "settings",
      "outputs": [
        {
          "internalType": "contract SettingsInterface",
          "name": "",
          "type": "address"
        }
      ],
      "payable": false,
      "stateMutability": "view",
      "type": "function"
    },
    {
      "constant": true,
      "inputs": [],
      "name": "tToken",
      "outputs": [
        {
          "internalType": "address",
          "name": "",
          "type": "address"
        }
      ],
      "payable": false,
      "stateMutability": "view",
      "type": "function"
    },
    {
      "constant": false,
      "inputs": [
        {
          "internalType": "uint256",
          "name": "loanID",
          "type": "uint256"
        },
        {
          "internalType": "uint256",
          "name": "amountBorrow",
          "type": "uint256"
        }
      ],
      "name": "takeOutLoan",
      "outputs": [],
      "payable": false,
      "stateMutability": "nonpayable",
      "type": "function"
    },
    {
      "constant": true,
      "inputs": [],
      "name": "totalCollateral",
      "outputs": [
        {
          "internalType": "uint256",
          "name": "",
          "type": "uint256"
        }
      ],
      "payable": false,
      "stateMutability": "view",
      "type": "function"
    },
    {
      "constant": false,
      "inputs": [
        {
          "internalType": "uint256",
          "name": "amount",
          "type": "uint256"
        },
        {
          "internalType": "uint256",
          "name": "loanID",
          "type": "uint256"
        }
      ],
      "name": "withdrawCollateral",
      "outputs": [],
      "payable": false,
      "stateMutability": "nonpayable",
      "type": "function"
    },
    {
      "constant": false,
      "inputs": [
        {
          "internalType": "uint256",
          "name": "loanID",
          "type": "uint256"
        },
        {
          "internalType": "uint256",
          "name": "toPay",
          "type": "uint256"
        }
      ],
      "name": "externalPayLoan",
      "outputs": [],
      "payable": false,
      "stateMutability": "nonpayable",
      "type": "function"
    },
    {
      "constant": true,
      "inputs": [
        {
          "internalType": "uint256",
          "name": "weiAmount",
          "type": "uint256"
        }
      ],
      "name": "externalConvertWeiToToken",
      "outputs": [
        {
          "internalType": "uint256",
          "name": "",
          "type": "uint256"
        }
      ],
      "payable": false,
      "stateMutability": "view",
      "type": "function"
    },
    {
      "constant": true,
      "inputs": [
        {
          "internalType": "uint256",
          "name": "tokenAmount",
          "type": "uint256"
        }
      ],
      "name": "externalConvertTokenToWei",
      "outputs": [
        {
          "internalType": "uint256",
          "name": "",
          "type": "uint256"
        }
      ],
      "payable": false,
      "stateMutability": "view",
      "type": "function"
    },
    {
      "constant": true,
      "inputs": [
        {
          "internalType": "uint256",
          "name": "newLoanAmount",
          "type": "uint256"
        }
      ],
      "name": "externalIsSupplyToDebtRatioValid",
      "outputs": [
        {
          "internalType": "bool",
          "name": "",
          "type": "bool"
        }
      ],
      "payable": false,
      "stateMutability": "view",
      "type": "function"
    },
    {
      "constant": false,
      "inputs": [
        {
          "internalType": "uint256",
          "name": "id",
          "type": "uint256"
        },
        {
          "components": [
            {
              "internalType": "address payable",
              "name": "borrower",
              "type": "address"
            },
            {
              "internalType": "address",
              "name": "recipient",
              "type": "address"
            },
            {
              "internalType": "uint256",
              "name": "interestRate",
              "type": "uint256"
            },
            {
              "internalType": "uint256",
              "name": "collateralRatio",
              "type": "uint256"
            },
            {
              "internalType": "uint256",
              "name": "maxLoanAmount",
              "type": "uint256"
            },
            {
              "internalType": "uint256",
              "name": "duration",
              "type": "uint256"
            }
          ],
          "internalType": "struct TellerCommon.LoanTerms",
          "name": "loanTerms",
          "type": "tuple"
        },
        {
          "internalType": "uint256",
          "name": "termsExpiry",
          "type": "uint256"
        },
        {
          "internalType": "uint256",
          "name": "loanStartTime",
          "type": "uint256"
        },
        {
          "internalType": "uint256",
          "name": "collateral",
          "type": "uint256"
        },
        {
          "internalType": "uint256",
          "name": "lastCollateralIn",
          "type": "uint256"
        },
        {
          "internalType": "uint256",
          "name": "principalOwed",
          "type": "uint256"
        },
        {
          "internalType": "uint256",
          "name": "interestOwed",
          "type": "uint256"
        },
        {
          "internalType": "uint256",
          "name": "borrowedAmount",
          "type": "uint256"
        },
        {
          "internalType": "enum TellerCommon.LoanStatus",
          "name": "status",
          "type": "uint8"
        },
        {
          "internalType": "bool",
          "name": "liquidated",
          "type": "bool"
        }
      ],
      "name": "setLoan",
      "outputs": [],
      "payable": false,
      "stateMutability": "nonpayable",
      "type": "function"
    },
    {
      "constant": false,
      "inputs": [
        {
          "internalType": "uint256",
          "name": "loanID",
          "type": "uint256"
        },
        {
          "internalType": "address",
          "name": "escrowAddress",
          "type": "address"
        }
      ],
      "name": "setEscrowForLoan",
      "outputs": [],
      "payable": false,
      "stateMutability": "nonpayable",
      "type": "function"
    },
    {
      "constant": false,
      "inputs": [
        {
          "internalType": "uint256",
          "name": "loanID",
          "type": "uint256"
        },
        {
          "internalType": "uint256",
          "name": "neededInLending",
          "type": "uint256"
        },
        {
          "internalType": "uint256",
          "name": "neededInCollateral",
          "type": "uint256"
        }
      ],
      "name": "mockGetCollateralInfo",
      "outputs": [],
      "payable": false,
      "stateMutability": "nonpayable",
      "type": "function"
    },
    {
      "constant": false,
      "inputs": [
        {
          "internalType": "address",
          "name": "priceOracleAddress",
          "type": "address"
        },
        {
          "internalType": "address",
          "name": "lendingPoolAddress",
          "type": "address"
        },
        {
          "internalType": "address",
          "name": "loanTermsConsensusAddress",
          "type": "address"
        },
        {
          "internalType": "address",
          "name": "settingsAddress",
          "type": "address"
        },
        {
          "internalType": "address",
          "name": "",
          "type": "address"
        }
      ],
      "name": "initialize",
      "outputs": [],
      "payable": false,
      "stateMutability": "nonpayable",
      "type": "function"
    },
    {
      "constant": false,
      "inputs": [],
      "name": "initialize",
      "outputs": [],
      "payable": false,
      "stateMutability": "nonpayable",
      "type": "function"
    },
    {
      "constant": false,
      "inputs": [
        {
          "internalType": "address",
          "name": "borrower",
          "type": "address"
        },
        {
          "internalType": "uint256",
          "name": "loanID",
          "type": "uint256"
        },
        {
          "internalType": "uint256",
          "name": "amount",
          "type": "uint256"
        }
      ],
      "name": "depositCollateral",
      "outputs": [],
      "payable": true,
      "stateMutability": "payable",
      "type": "function"
    },
    {
      "constant": false,
      "inputs": [
        {
          "components": [
            {
              "internalType": "address payable",
              "name": "borrower",
              "type": "address"
            },
            {
              "internalType": "address",
              "name": "recipient",
              "type": "address"
            },
            {
              "internalType": "address",
              "name": "consensusAddress",
              "type": "address"
            },
            {
              "internalType": "uint256",
              "name": "requestNonce",
              "type": "uint256"
            },
            {
              "internalType": "uint256",
              "name": "amount",
              "type": "uint256"
            },
            {
              "internalType": "uint256",
              "name": "duration",
              "type": "uint256"
            },
            {
              "internalType": "uint256",
              "name": "requestTime",
              "type": "uint256"
            }
          ],
          "internalType": "struct TellerCommon.LoanRequest",
          "name": "request",
          "type": "tuple"
        },
        {
          "components": [
            {
              "internalType": "address",
              "name": "signer",
              "type": "address"
            },
            {
              "internalType": "address",
              "name": "consensusAddress",
              "type": "address"
            },
            {
              "internalType": "uint256",
              "name": "responseTime",
              "type": "uint256"
            },
            {
              "internalType": "uint256",
              "name": "interestRate",
              "type": "uint256"
            },
            {
              "internalType": "uint256",
              "name": "collateralRatio",
              "type": "uint256"
            },
            {
              "internalType": "uint256",
              "name": "maxLoanAmount",
              "type": "uint256"
            },
            {
              "components": [
                {
                  "internalType": "uint256",
                  "name": "signerNonce",
                  "type": "uint256"
                },
                {
                  "internalType": "uint8",
                  "name": "v",
                  "type": "uint8"
                },
                {
                  "internalType": "bytes32",
                  "name": "r",
                  "type": "bytes32"
                },
                {
                  "internalType": "bytes32",
                  "name": "s",
                  "type": "bytes32"
                }
              ],
              "internalType": "struct TellerCommon.Signature",
              "name": "signature",
              "type": "tuple"
            }
          ],
          "internalType": "struct TellerCommon.LoanResponse[]",
          "name": "responses",
          "type": "tuple[]"
        },
        {
          "internalType": "uint256",
          "name": "collateralAmount",
          "type": "uint256"
        }
      ],
      "name": "createLoanWithTerms",
      "outputs": [],
      "payable": true,
      "stateMutability": "payable",
      "type": "function"
    },
    {
      "constant": false,
      "inputs": [
        {
          "internalType": "uint256",
          "name": "loanID",
          "type": "uint256"
        }
      ],
      "name": "externalCreateEscrow",
      "outputs": [
        {
          "internalType": "address",
          "name": "",
          "type": "address"
        }
      ],
      "payable": false,
      "stateMutability": "nonpayable",
      "type": "function"
    }
  ],
  "bytecode": "0x608060405234801561001057600080fd5b50614205806100206000396000f3fe6080604052600436106102305760003560e01c806379ede5ef1161012e578063c1578904116100ab578063e06174e41161006f578063e06174e414610618578063e1ec3c681461062d578063e3ed190214610665578063eee8b7ff14610685578063ff8a133f146106b257610230565b8063c15789041461058e578063c35d64ea146105ae578063ccdd9f5d146105c3578063d03399bf146105e3578063d8aed145146105f857610230565b8063a59966e7116100f2578063a59966e71461051c578063a59a99731461053c578063a5c5c7b214610551578063aaaca55814610564578063b2016bd41461057957610230565b806379ede5ef1461047a578063803a08821461049a5780638129fc1c146104ba57806391d71457146104cf578063934b5d13146104ef57610230565b80634ac8eb5f116101bc5780636948f32b116101805780636948f32b146103f057806369e527da146104105780637214056514610425578063749b767714610445578063767a7b051461045a57610230565b80634ac8eb5f146103645780635134845414610379578063530e784f1461038e57806358895e3d146103ae5780635dd39ffe146103d057610230565b80631a74856b116102035780631a74856b146102c25780632630c12f146102d557806327e3bdec146102f75780633164d8ae146103245780633b9293001461034457610230565b806302bc2cdb146102355780630417e7c9146102575780631459457a1461028d578063158ef93e146102ad575b600080fd5b34801561024157600080fd5b5061025561025036600461352a565b6106d2565b005b34801561026357600080fd5b506102776102723660046133e9565b610db4565b6040516102849190613dce565b60405180910390f35b34801561029957600080fd5b506102556102a8366004613209565b610dc7565b3480156102b957600080fd5b50610277610df8565b6102556102d03660046132b8565b610e17565b3480156102e157600080fd5b506102ea610e1c565b6040516102849190613d28565b34801561030357600080fd5b506103176103123660046133e9565b610e2b565b6040516102849190613ddc565b34801561033057600080fd5b5061025561033f3660046131cd565b610e36565b34801561035057600080fd5b5061031761035f3660046133e9565b610e61565b34801561037057600080fd5b50610317610e89565b34801561038557600080fd5b50610317610e8f565b34801561039a57600080fd5b506102556103a93660046131cd565b610e95565b3480156103ba57600080fd5b506103c3610ff3565b6040516102849190613dea565b3480156103dc57600080fd5b506102556103eb36600461352a565b611002565b3480156103fc57600080fd5b5061027761040b3660046133e9565b61100c565b34801561041c57600080fd5b506102ea611165565b34801561043157600080fd5b50610255610440366004613437565b6111e7565b34801561045157600080fd5b506102556113b6565b34801561046657600080fd5b5061025561047536600461352a565b6113dc565b34801561048657600080fd5b506103176104953660046133e9565b6115f5565b3480156104a657600080fd5b506102ea6104b53660046133e9565b611600565b3480156104c657600080fd5b5061025561160b565b3480156104db57600080fd5b506102556104ea366004613407565b611693565b3480156104fb57600080fd5b5061050f61050a3660046133e9565b6116c4565b6040516102849190613fa9565b34801561052857600080fd5b506102556105373660046131cd565b6116d5565b34801561054857600080fd5b506103c36116fb565b61025561055f36600461335f565b61170a565b34801561057057600080fd5b506102ea611710565b34801561058557600080fd5b506102ea611755565b34801561059a57600080fd5b506102556105a93660046131cd565b611764565b3480156105ba57600080fd5b506102ea61176d565b3480156105cf57600080fd5b506102556105de3660046133e9565b6117b2565b3480156105ef57600080fd5b50610255611b5c565b34801561060457600080fd5b5061025561061336600461352a565b611b81565b34801561062457600080fd5b506103c3611f87565b34801561063957600080fd5b5061064d6106483660046133e9565b611fa9565b6040516102849c9b9a99989796959493929190613ffb565b34801561067157600080fd5b5061031761068036600461327e565b612061565b34801561069157600080fd5b506106a56106a03660046131cd565b61208f565b6040516102849190613dbd565b3480156106be57600080fd5b506102556106cd366004613549565b6120fb565b8160016000828152606d60205260409020600e0154600160a01b900460ff1660038111156106fc57fe5b146107225760405162461bcd60e51b815260040161071990613f79565b60405180910390fd5b61072a610df8565b6107465760405162461bcd60e51b815260040161071990613f69565b61074e612140565b1561076b5760405162461bcd60e51b815260040161071990613ea9565b606a546001600160a01b0316610780816121ba565b1561079d5760405162461bcd60e51b815260040161071990613e19565b603380546001908101918290556000868152606d6020526040902001546001600160a01b03163381146107e25760405162461bcd60e51b815260040161071990613f39565b6000868152606d60205260409020600501548511156108135760405162461bcd60e51b815260040161071990613e29565b6000868152606d60205260409020600701544211156108445760405162461bcd60e51b815260040161071990613ee9565b6109be61084f611f87565b6001600160a01b031663269012a0610865611f87565b6001600160a01b031663d86d744e6040518163ffffffff1660e01b815260040160206040518083038186803b15801561089d57600080fd5b505afa1580156108b1573d6000803e3d6000fd5b505050506040513d601f19601f820116820180604052506108d59190810190613341565b6001600160a01b03166311880cc86040518163ffffffff1660e01b815260040160206040518083038186803b15801561090d57600080fd5b505afa158015610921573d6000803e3d6000fd5b505050506040513d601f19601f820116820180604052506109459190810190613323565b6040518263ffffffff1660e01b81526004016109619190613ddc565b60206040518083038186803b15801561097957600080fd5b505afa15801561098d573d6000803e3d6000fd5b505050506040513d601f19601f820116820180604052506109b19190810190613323565b429063ffffffff61223f16565b6000878152606d60205260409020600a015411156109ee5760405162461bcd60e51b815260040161071990613ed9565b6000868152606d60205260409020600d8101869055600b81018690556006810154600390910154610a53916301e1338091610a479161271091839190610a3b908c9063ffffffff61228a16565b9063ffffffff61228a16565b9063ffffffff6122c416565b6000878152606d60205260409020600c0155610a6d613035565b610a7687612306565b9050806060015115610a9a5760405162461bcd60e51b815260040161071990613eb9565b6000878152606d60205260409020426008820155600e01805460ff60a01b1916600160a11b179055610acb87612361565b6000888152606d602052604090819020600e0180546001600160a01b0319166001600160a01b039384161790819055606a549151631397424760e11b81529183169263272e848e92610b23928b921690600401613fb7565b600060405180830381600087803b158015610b3d57600080fd5b505af1158015610b51573d6000803e3d6000fd5b5050506000888152606d602052604090819020600e0154905163cd6dc68760e01b81526001600160a01b03909116915063cd6dc68790610b979030908b90600401613da2565b600060405180830381600087803b158015610bb157600080fd5b505af1158015610bc5573d6000803e3d6000fd5b50505050610bd161245a565b6001600160a01b031663c7bbb113606a60009054906101000a90046001600160a01b03166001600160a01b031663aaaca5586040518163ffffffff1660e01b815260040160206040518083038186803b158015610c2d57600080fd5b505afa158015610c41573d6000803e3d6000fd5b505050506040513d601f19601f82011682018060405250610c6591908101906131eb565b306001600160a01b031663b2016bd46040518163ffffffff1660e01b815260040160206040518083038186803b158015610c9e57600080fd5b505afa158015610cb2573d6000803e3d6000fd5b505050506040513d601f19601f82011682018060405250610cd691908101906131eb565b896040518463ffffffff1660e01b8152600401610cf593929190613d87565b600060405180830381600087803b158015610d0f57600080fd5b505af1158015610d23573d6000803e3d6000fd5b5050506000888152606d602052604090819020600e81015460019091015491516001600160a01b03918216935091169089907f85b5516a17ce775661a4b967b1fb30c852678f6598d86d9f3c99b7b60ff2d0ce90610d82908b90613ddc565b60405180910390a450506033548114610dad5760405162461bcd60e51b815260040161071990613f89565b5050505050565b6000610dbf826124d4565b90505b919050565b610dcf610df8565b15610dec5760405162461bcd60e51b815260040161071990613f99565b610dad85858585612844565b600080604051610e0790613d12565b6040519081900390205492915050565b505050565b6069546001600160a01b031681565b6000610dbf82612995565b80610e40816121ba565b15610e5d5760405162461bcd60e51b815260040161071990613e19565b5050565b6000818152606d60205260408120600b810154600c90910154610dbf9163ffffffff612ada16565b60665481565b60685481565b610e9d610df8565b610eb95760405162461bcd60e51b815260040161071990613f69565b610ec1611f87565b6001600160a01b031663c095ea27336040518263ffffffff1660e01b8152600401610eec9190613d36565b60006040518083038186803b158015610f0457600080fd5b505afa158015610f18573d6000803e3d6000fd5b50505050610f2e816001600160a01b0316612aff565b610f4a5760405162461bcd60e51b815260040161071990613f29565b60695460408051808201909152601b81527f4e45575f4f5241434c455f4d5553545f42455f50524f5649444544000000000060208201526001600160a01b0390911690610fa0908290849063ffffffff612b3b16565b606980546001600160a01b0319166001600160a01b03848116918217909255604051909183169033907ff51f0fffc8121ee3747e0536c487d894894cdba960ccfb4ab385a88d51b16fed90600090a45050565b606b546001600160a01b031681565b610e5d8282612b64565b6000611016612140565b806110315750606a54611031906001600160a01b03166121ba565b80611063575060026000838152606d60205260409020600e0154600160a01b900460ff16600381111561106057fe5b14155b1561107057506000610dc2565b6000828152606d60205260408120600881015460069091015490914261109c848463ffffffff612ada16565b10905080156110b15760019350505050610dc2565b6000858152606d60205260409020600e01546001600160a01b0316801561114e57806001600160a01b031663415dfa5b6040518163ffffffff1660e01b815260040160206040518083038186803b15801561110b57600080fd5b505afa15801561111f573d6000803e3d6000fd5b505050506040513d601f19601f820116820180604052506111439190810190613305565b945050505050610dc2565b61115786612306565b606001519695505050505050565b606a54604080516334f293ed60e11b815290516000926001600160a01b0316916369e527da916004808301926020929190829003018186803b1580156111aa57600080fd5b505afa1580156111be573d6000803e3d6000fd5b505050506040513d601f19601f820116820180604052506111e291908101906131eb565b905090565b828a60800135101561120b5760405162461bcd60e51b815260040161071990613e89565b6040518061018001604052808c81526020018b80360361122e91908101906133cb565b81526020018a815260200189815260200188815260200187815260200186815260200185815260200184815260200160006001600160a01b0316815260200183600381111561127957fe5b815282151560209182015260008d8152606d8252604090819020835181558383015180516001830180546001600160a01b03199081166001600160a01b0393841617909155948201516002840180548716918316919091179055818401516003808501919091556060808401516004860155608080850151600587015560a0948501516006870155958801516007860155870151600885015593860151600984015590850151600a83015560c0850151600b83015560e0850151600c830155610100850151600d830155610120850151600e830180549095169116178084556101408501519193919260ff60a01b1990911690600160a01b90849081111561137d57fe5b02179055506101609190910151600e9091018054911515600160a81b0260ff60a81b199092169190911790555050505050505050505050565b6113be612140565b6113da5760405162461bcd60e51b815260040161071990613f09565b565b8060016000828152606d60205260409020600e0154600160a01b900460ff16600381111561140657fe5b1480611438575060026000828152606d60205260409020600e0154600160a01b900460ff16600381111561143657fe5b145b6114545760405162461bcd60e51b815260040161071990613e49565b61145c610df8565b6114785760405162461bcd60e51b815260040161071990613f69565b611480612140565b1561149d5760405162461bcd60e51b815260040161071990613ea9565b606a546001600160a01b03166114b2816121ba565b156114cf5760405162461bcd60e51b815260040161071990613e19565b603380546001908101918290556000858152606d6020526040902001546001600160a01b031633146115135760405162461bcd60e51b815260040161071990613f59565b600085116115335760405162461bcd60e51b815260040161071990613e99565b600061153e85612c1f565b9050600061154b82612995565b6000878152606d602052604081206009015491925090611571908363ffffffff61223f16565b90508781111561157e5750865b801561158f5761158f878233610e17565b336001600160a01b0316877f7c5e5cb62e5ed3caf3764e4b0afedfedef533e27809d43367799787ad2abcd41836040516115c99190613ddc565b60405180910390a35050506033548114610dad5760405162461bcd60e51b815260040161071990613f89565b6000610dbf82612c56565b6000610dbf82612361565b600054610100900460ff16806116245750611624612d4a565b80611632575060005460ff16155b61164e5760405162461bcd60e51b815260040161071990613ef9565b600054610100900460ff16158015611679576000805460ff1961ff0019909116610100171660011790555b60016033558015611690576000805461ff00191690555b50565b6000918252606d6020526040909120600e0180546001600160a01b0319166001600160a01b03909216919091179055565b6116cc613035565b610dbf82612306565b806116df816121ba565b610e5d5760405162461bcd60e51b815260040161071990613f49565b606a546001600160a01b031681565b50505050565b606a546040805163155594ab60e31b815290516000926001600160a01b03169163aaaca558916004808301926020929190829003018186803b1580156111aa57600080fd5b6067546001600160a01b031681565b61169081612d50565b606a54604080516361aeb27560e11b815290516000926001600160a01b03169163c35d64ea916004808301926020929190829003018186803b1580156111aa57600080fd5b8060026000828152606d60205260409020600e0154600160a01b900460ff1660038111156117dc57fe5b146117f95760405162461bcd60e51b815260040161071990613e79565b611801610df8565b61181d5760405162461bcd60e51b815260040161071990613f69565b611825612140565b156118425760405162461bcd60e51b815260040161071990613ea9565b606a546001600160a01b0316611857816121ba565b156118745760405162461bcd60e51b815260040161071990613e19565b60338054600101908190556118888461100c565b6118a45760405162461bcd60e51b815260040161071990613e69565b6000848152606d60205260408120600e8101805460ff60a01b1916600360a01b1760ff60a81b1916600160a81b17905560090154906118e282612c56565b90506118ef868333610e17565b60006118f9611f87565b6001600160a01b031663269012a061190f611f87565b6001600160a01b031663d86d744e6040518163ffffffff1660e01b815260040160206040518083038186803b15801561194757600080fd5b505afa15801561195b573d6000803e3d6000fd5b505050506040513d601f19601f8201168201806040525061197f9190810190613341565b6001600160a01b0316631139087a6040518163ffffffff1660e01b815260040160206040518083038186803b1580156119b757600080fd5b505afa1580156119cb573d6000803e3d6000fd5b505050506040513d601f19601f820116820180604052506119ef9190810190613323565b6040518263ffffffff1660e01b8152600401611a0b9190613ddc565b60206040518083038186803b158015611a2357600080fd5b505afa158015611a37573d6000803e3d6000fd5b505050506040513d601f19601f82011682018060405250611a5b9190810190613323565b90506000611a75612710610a47858563ffffffff61228a16565b606a546040516382f7b02760e01b81529192506001600160a01b0316906382f7b02790611aa89084903390600401613fc5565b600060405180830381600087803b158015611ac257600080fd5b505af1158015611ad6573d6000803e3d6000fd5b5050506000898152606d6020526040908190206001015490516001600160a01b03909116915089907f9950a0562c02382e2e840daa73082d5be7660ce37601f28fa4c84089c11e8a0690611b2f90339089908790613d44565b60405180910390a350505050603354811461170a5760405162461bcd60e51b815260040161071990613f89565b611b64612140565b156113da5760405162461bcd60e51b815260040161071990613ea9565b8060026000828152606d60205260409020600e0154600160a01b900460ff166003811115611bab57fe5b14611bc85760405162461bcd60e51b815260040161071990613e79565b611bd0610df8565b611bec5760405162461bcd60e51b815260040161071990613f69565b611bf4612140565b15611c115760405162461bcd60e51b815260040161071990613ea9565b606a546001600160a01b0316611c26816121ba565b15611c435760405162461bcd60e51b815260040161071990613e19565b603380546001019081905584611c6b5760405162461bcd60e51b815260040161071990613e09565b846000611c7786610e61565b905081811015611c85578091505b611c95818363ffffffff61223f16565b9050611ca18683612b64565b80611d45576000868152606d60205260409020600e8101805460ff60a01b1916600360a01b1790556009810154600190910154611cea90889083906001600160a01b0316610e17565b6000878152606d6020526040908190206001015490516001600160a01b039091169088907f7c5e5cb62e5ed3caf3764e4b0afedfedef533e27809d43367799787ad2abcd4190611d3b908590613ddc565b60405180910390a3505b606a5460405163acb7081560e01b81526001600160a01b039091169063acb7081590611d779085903390600401613fc5565b600060405180830381600087803b158015611d9157600080fd5b505af1158015611da5573d6000803e3d6000fd5b50505050611db161245a565b6001600160a01b03166362e269ef606a60009054906101000a90046001600160a01b03166001600160a01b031663aaaca5586040518163ffffffff1660e01b815260040160206040518083038186803b158015611e0d57600080fd5b505afa158015611e21573d6000803e3d6000fd5b505050506040513d601f19601f82011682018060405250611e4591908101906131eb565b306001600160a01b031663b2016bd46040518163ffffffff1660e01b815260040160206040518083038186803b158015611e7e57600080fd5b505afa158015611e92573d6000803e3d6000fd5b505050506040513d601f19601f82011682018060405250611eb691908101906131eb565b856040518463ffffffff1660e01b8152600401611ed593929190613d87565b600060405180830381600087803b158015611eef57600080fd5b505af1158015611f03573d6000803e3d6000fd5b5050506000878152606d6020526040908190206001015490516001600160a01b03909116915087907f20a1f2ec363af45dc5ee7d9d622f2dd68b52501c382126c7f04b53663c4c69bf90611f5c90869033908790613fe0565b60405180910390a350506033548114610dad5760405162461bcd60e51b815260040161071990613f89565b6000806000604051611f9890613d1d565b604051908190039020549250505090565b606d602090815260009182526040918290208054835160c08101855260018301546001600160a01b03908116825260028401548116948201949094526003830154948101949094526004820154606085015260058201546080850152600682015460a0850152600782015460088301546009840154600a850154600b860154600c870154600d880154600e9098015496999895979496939592949193909281169060ff600160a01b8204811691600160a81b9004168c565b606c602052816000526040600020818154811061207a57fe5b90600052602060002001600091509150505481565b6001600160a01b0381166000908152606c60209081526040918290208054835181840281018401909452808452606093928301828280156120ef57602002820191906000526020600020905b8154815260200190600101908083116120db575b50505050509050919050565b6000928352606d602090815260408085206009018054606e909352942090815560018101929092556002820181905591546003909101805460ff191691909211179055565b600061214a611f87565b6001600160a01b031663b187bd266040518163ffffffff1660e01b815260040160206040518083038186803b15801561218257600080fd5b505afa158015612196573d6000803e3d6000fd5b505050506040513d601f19601f820116820180604052506111e29190810190613305565b60006121c4611f87565b6001600160a01b0316633b668321836040518263ffffffff1660e01b81526004016121ef9190613d28565b60206040518083038186803b15801561220757600080fd5b505afa15801561221b573d6000803e3d6000fd5b505050506040513d601f19601f82011682018060405250610dbf9190810190613305565b600061228183836040518060400160405280601e81526020017f536166654d6174683a207375627472616374696f6e206f766572666c6f770000815250612e02565b90505b92915050565b60008261229957506000612284565b828202828482816122a657fe5b04146122815760405162461bcd60e51b815260040161071990613ec9565b600061228183836040518060400160405280601a81526020017f536166654d6174683a206469766973696f6e206279207a65726f000000000000815250612e33565b61230e613035565b506000818152606e6020908152604091829020825160808101845281548082526001830154938201939093526002820154938101939093526003015460ff1615156060830152610dc257610dbf82612e6a565b600061236b611f87565b6001600160a01b031663bdd1daaa6040518163ffffffff1660e01b815260040160206040518083038186803b1580156123a357600080fd5b505afa1580156123b7573d6000803e3d6000fd5b505050506040513d601f19601f820116820180604052506123db9190810190613341565b6001600160a01b0316634614874e30846040518363ffffffff1660e01b8152600401612408929190613da2565b602060405180830381600087803b15801561242257600080fd5b505af1158015612436573d6000803e3d6000fd5b505050506040513d601f19601f82011682018060405250610dbf91908101906131eb565b6000612464611f87565b6001600160a01b0316631390f8d76040518163ffffffff1660e01b815260040160206040518083038186803b15801561249c57600080fd5b505afa1580156124b0573d6000803e3d6000fd5b505050506040513d601f19601f820116820180604052506111e29190810190613341565b6000806124df611f87565b6001600160a01b031663dc21a6a06040518163ffffffff1660e01b815260040160206040518083038186803b15801561251757600080fd5b505afa15801561252b573d6000803e3d6000fd5b505050506040513d601f19601f8201168201806040525061254f9190810190613341565b6001600160a01b0316631fb7cec9606a60009054906101000a90046001600160a01b03166001600160a01b031663aaaca5586040518163ffffffff1660e01b815260040160206040518083038186803b1580156125ab57600080fd5b505afa1580156125bf573d6000803e3d6000fd5b505050506040513d601f19601f820116820180604052506125e391908101906131eb565b6067546040516001600160e01b031960e085901b16815261261192916001600160a01b031690600401613d6c565b60206040518083038186803b15801561262957600080fd5b505afa15801561263d573d6000803e3d6000fd5b505050506040513d601f19601f8201168201806040525061266191908101906131eb565b90506001600160a01b0381166126895760405162461bcd60e51b815260040161071990613f19565b604051632319178560e11b81526000906001600160a01b038316906346322f0a906126c7906b14dd5c1c1b1e551bd119589d60a21b90600401613ddc565b60206040518083038186803b1580156126df57600080fd5b505afa1580156126f3573d6000803e3d6000fd5b505050506040513d601f19601f820116820180604052506127179190810190613323565b9050600061272361245a565b6001600160a01b031663db63323e606a60009054906101000a90046001600160a01b03166001600160a01b031663aaaca5586040518163ffffffff1660e01b815260040160206040518083038186803b15801561277f57600080fd5b505afa158015612793573d6000803e3d6000fd5b505050506040513d601f19601f820116820180604052506127b791908101906131eb565b6067546040516001600160e01b031960e085901b1681526127e792916001600160a01b0316908a90600401613d87565b60206040518083038186803b1580156127ff57600080fd5b505afa158015612813573d6000803e3d6000fd5b505050506040513d601f19601f820116820180604052506128379190810190613323565b9190911115949350505050565b61284c610df8565b156128695760405162461bcd60e51b815260040161071990613f99565b60408051808201909152601681527550524f564944455f4f5241434c455f4144445245535360501b60208201526128b0906001600160a01b0386169063ffffffff612ebb16565b60408051808201909152601c81527f50524f564944455f4c454e44494e475f504f4f4c5f414444524553530000000060208201526128fe906001600160a01b0385169063ffffffff612ebb16565b60408051808201909152601b81527f50524f56494445445f4c4f414e5f5445524d535f414444524553530000000000602082015261294c906001600160a01b0384169063ffffffff612ebb16565b61295581612d50565b50606980546001600160a01b039485166001600160a01b031991821617909155606a805493851693821693909317909255606b8054919093169116179055565b600080612a2f606a60009054906101000a90046001600160a01b03166001600160a01b031663aaaca5586040518163ffffffff1660e01b815260040160206040518083038186803b1580156129e957600080fd5b505afa1580156129fd573d6000803e3d6000fd5b505050506040513d601f19601f82011682018060405250612a2191908101906131eb565b6001600160a01b0316612ee3565b90506000606960009054906101000a90046001600160a01b03166001600160a01b03166396237c026040518163ffffffff1660e01b815260040160206040518083038186803b158015612a8157600080fd5b505afa158015612a95573d6000803e3d6000fd5b505050506040513d601f19601f82011682018060405250612ab99190810190613323565b90506000612ad183610a47878563ffffffff61228a16565b95945050505050565b6000828201838110156122815760405162461bcd60e51b815260040161071990613e39565b6000813f7fc5d2460186f7233c927e7db2dcc703c0e500b653ca82273b7bfad8045d85a470818114801590612b3357508115155b949350505050565b612b458383612f64565b819061170a5760405162461bcd60e51b81526004016107199190613df8565b6000828152606d60205260409020600b0154811115612be7576000828152606d60205260409020600b01548190612ba290829063ffffffff61223f16565b6000848152606d60205260408120600b810191909155600c0154909150612bcf908263ffffffff61223f16565b6000848152606d60205260409020600c015550610e5d565b6000828152606d60205260409020600b0154612c09908263ffffffff61223f16565b6000838152606d60205260409020600b01555050565b600080612c2b83610e61565b6000848152606d6020526040902060040154909150612b33612710610a47848463ffffffff61228a16565b600080612caa606a60009054906101000a90046001600160a01b03166001600160a01b031663aaaca5586040518163ffffffff1660e01b815260040160206040518083038186803b1580156129e957600080fd5b90506000606960009054906101000a90046001600160a01b03166001600160a01b03166396237c026040518163ffffffff1660e01b815260040160206040518083038186803b158015612cfc57600080fd5b505afa158015612d10573d6000803e3d6000fd5b505050506040513d601f19601f82011682018060405250612d349190810190613323565b9050612b3381610a47868563ffffffff61228a16565b303b1590565b612d58610df8565b15612d755760405162461bcd60e51b815260040161071990613f99565b60408051808201909152601981527f53455454494e47535f4d5553545f42455f50524f5649444544000000000000006020820152612dc3906001600160a01b0383169063ffffffff612ebb16565b612dd5816001600160a01b0316612aff565b612df15760405162461bcd60e51b815260040161071990613e59565b612df9612f76565b61169081612f94565b60008184841115612e265760405162461bcd60e51b81526004016107199190613df8565b50508183035b9392505050565b60008183612e545760405162461bcd60e51b81526004016107199190613df8565b506000838581612e6057fe5b0495945050505050565b612e72613035565b6000828152606d60205260408120600901549080612e8f85613003565b604080516080810182528681526020810193909352820181905293909311606084015250909392505050565b612ec482613027565b8190610e175760405162461bcd60e51b81526004016107199190613df8565b600080826001600160a01b031663313ce5676040518163ffffffff1660e01b815260040160206040518083038186803b158015612f1f57600080fd5b505afa158015612f33573d6000803e3d6000fd5b505050506040513d601f19601f82011682018060405250612f57919081019061356a565b60ff16600a0a9392505050565b6001600160a01b039081169116141590565b6000604051612f8490613d12565b6040519081900390206001905550565b612fad612f9f611f87565b6001600160a01b0316613027565b15612fb757611690565b612fc9816001600160a01b0316612aff565b612fe55760405162461bcd60e51b815260040161071990613e59565b6000604051612ff390613d1d565b6040519081900390208290555050565b600080600061301184612c1f565b90508061301d82612995565b9250925050915091565b6001600160a01b0316151590565b60405180608001604052806000815260200160008152602001600081526020016000151581525090565b80356122848161417d565b80516122848161417d565b60008083601f84011261308757600080fd5b50813567ffffffffffffffff81111561309f57600080fd5b602083019150836101408202830111156130b857600080fd5b9250929050565b803561228481614191565b805161228481614191565b80516122848161419a565b8051612284816141a3565b8035612284816141ac565b600060e0828403121561310857600080fd5b50919050565b600060c0828403121561310857600080fd5b600060c0828403121561313257600080fd5b61313c60c06140b3565b9050600061314a848461305f565b825250602061315b8484830161305f565b602083015250604061316f848285016131b7565b6040830152506060613183848285016131b7565b6060830152506080613197848285016131b7565b60808301525060a06131ab848285016131b7565b60a08301525092915050565b80356122848161419a565b8051612284816141b9565b6000602082840312156131df57600080fd5b6000612b33848461305f565b6000602082840312156131fd57600080fd5b6000612b33848461306a565b600080600080600060a0868803121561322157600080fd5b600061322d888861305f565b955050602061323e8882890161305f565b945050604061324f8882890161305f565b93505060606132608882890161305f565b92505060806132718882890161305f565b9150509295509295909350565b6000806040838503121561329157600080fd5b600061329d858561305f565b92505060206132ae858286016131b7565b9150509250929050565b6000806000606084860312156132cd57600080fd5b60006132d9868661305f565b93505060206132ea868287016131b7565b92505060406132fb868287016131b7565b9150509250925092565b60006020828403121561331757600080fd5b6000612b3384846130ca565b60006020828403121561333557600080fd5b6000612b3384846130d5565b60006020828403121561335357600080fd5b6000612b3384846130e0565b600080600080610120858703121561337657600080fd5b600061338287876130f6565b94505060e085013567ffffffffffffffff81111561339f57600080fd5b6133ab87828801613075565b93509350506101006133bf878288016131b7565b91505092959194509250565b600060c082840312156133dd57600080fd5b6000612b338484613120565b6000602082840312156133fb57600080fd5b6000612b3384846131b7565b6000806040838503121561341a57600080fd5b600061342685856131b7565b92505060206132ae8582860161305f565b60008060008060008060008060008060006102008c8e03121561345957600080fd5b60006134658e8e6131b7565b9b505060206134768e828f0161310e565b9a505060e06134878e828f016131b7565b9950506101006134998e828f016131b7565b9850506101206134ab8e828f016131b7565b9750506101406134bd8e828f016131b7565b9650506101606134cf8e828f016131b7565b9550506101806134e18e828f016131b7565b9450506101a06134f38e828f016131b7565b9350506101c06135058e828f016130eb565b9250506101e06135178e828f016130bf565b9150509295989b509295989b9093969950565b6000806040838503121561353d57600080fd5b600061329d85856131b7565b60008060006060848603121561355e57600080fd5b60006132d986866131b7565b60006020828403121561357c57600080fd5b6000612b3384846131c2565b60006135948383613616565b505060200190565b6135a581614127565b82525050565b6135a5816140ed565b60006135bf826140e0565b6135c981856140e4565b93506135d4836140da565b8060005b838110156136025781516135ec8882613588565b97506135f7836140da565b9250506001016135d8565b509495945050505050565b6135a5816140f8565b6135a5816140fd565b6135a581614100565b6135a581614132565b600061363c826140e0565b61364681856140e4565b935061365681856020860161413d565b61365f81614169565b9093019392505050565b6000613676601c83610dc2565b7f54496e697469616c697a61626c652e6973496e697469616c697a6564000000008152601c0192915050565b60006136af6015836140e4565b74105353d5539517d59053155157d491545552549151605a1b815260200192915050565b60006136e06016836140e4565b7513115391125391d7d413d3d317d254d7d4105554d15160521b815260200192915050565b60006137126011836140e4565b7013505617d313d05397d15610d151511151607a1b815260200192915050565b600061373f601b836140e4565b7f536166654d6174683a206164646974696f6e206f766572666c6f770000000000815260200192915050565b60006137786016836140e4565b751313d05397d393d517d050d512559157d3d497d4d15560521b815260200192915050565b60006137aa601b836140e4565b7f53455454494e47535f4d5553545f42455f415f434f4e54524143540000000000815260200192915050565b60006137e36017836140e4565b7f444f45534e545f4e4545445f4c49515549444154494f4e000000000000000000815260200192915050565b600061381c600f836140e4565b6e4c4f414e5f4e4f545f41435449564560881b815260200192915050565b6000613847601b836140e4565b7f424f52524f5745445f414d4f554e545f455843454544535f4d41580000000000815260200192915050565b60006138806014836140e4565b7343414e4e4f545f57495448445241575f5a45524f60601b815260200192915050565b60006138b06012836140e4565b71141310551193d49357d254d7d4105554d15160721b815260200192915050565b60006138de6018836140e4565b7f4d4f52455f434f4c4c41544552414c5f52455155495245440000000000000000815260200192915050565b60006139176021836140e4565b7f536166654d6174683a206d756c7469706c69636174696f6e206f766572666c6f8152607760f81b602082015260400192915050565b600061395a601d836140e4565b7f434f4c4c41544552414c5f4445504f53495445445f524543454e544c59000000815260200192915050565b60006139936012836140e4565b711313d05397d511549354d7d156141254915160721b815260200192915050565b60006139c1602e836140e4565b7f436f6e747261637420696e7374616e63652068617320616c726561647920626581526d195b881a5b9a5d1a585b1a5e995960921b602082015260400192915050565b6000613a116016836140e4565b75141310551193d49357d254d7d393d517d4105554d15160521b815260200192915050565b6000613a436018836140e4565b7f41544d5f4e4f545f464f554e445f464f525f4d41524b45540000000000000000815260200192915050565b6000613a7c601e836140e4565b7f4f5241434c455f4d5553545f434f4e54524143545f4e4f545f454d5054590000815260200192915050565b6000613ab56017836140e4565b7f424f52524f5745525f4d5553545f42455f53454e444552000000000000000000815260200192915050565b6000613aee601a836140e4565b7f4c454e44494e475f504f4f4c5f49535f4e4f545f504155534544000000000000815260200192915050565b6000613b276016836140e4565b7521a0a62622a92fa227a2a9a72a2fa7aba72fa627a0a760511b815260200192915050565b6000613b59601883610dc2565b7f426173655570677261646561626c652e73657474696e67730000000000000000815260180192915050565b6000613b926018836140e4565b7f434f4e54524143545f4e4f545f494e495449414c495a45440000000000000000815260200192915050565b6000613bcb600c836140e4565b6b1313d05397d393d517d4d15560a21b815260200192915050565b6000613bf3601f836140e4565b7f5265656e7472616e637947756172643a207265656e7472616e742063616c6c00815260200192915050565b6000613c2c601c836140e4565b7f434f4e54524143545f414c52454144595f494e495449414c495a454400000000815260200192915050565b80516080830190613c698482613616565b506020820151613c7c6020850182613616565b506040820151613c8f6040850182613616565b50606082015161170a606085018261360d565b805160c0830190613cb384826135ab565b506020820151613cc660208501826135ab565b506040820151613cd96040850182613616565b506060820151613cec6060850182613616565b506080820151613cff6080850182613616565b5060a082015161170a60a0850182613616565b600061228482613669565b600061228482613b4c565b6020810161228482846135ab565b60208101612284828461359c565b60608101613d52828661359c565b613d5f6020830185613616565b612b336040830184613616565b60408101613d7a82856135ab565b612e2c60208301846135ab565b60608101613d9582866135ab565b613d5f60208301856135ab565b60408101613db082856135ab565b612e2c6020830184613616565b6020808252810161228181846135b4565b60208101612284828461360d565b602081016122848284613616565b60208101612284828461361f565b602080825281016122818184613631565b60208082528101610dbf816136a2565b60208082528101610dbf816136d3565b60208082528101610dbf81613705565b60208082528101610dbf81613732565b60208082528101610dbf8161376b565b60208082528101610dbf8161379d565b60208082528101610dbf816137d6565b60208082528101610dbf8161380f565b60208082528101610dbf8161383a565b60208082528101610dbf81613873565b60208082528101610dbf816138a3565b60208082528101610dbf816138d1565b60208082528101610dbf8161390a565b60208082528101610dbf8161394d565b60208082528101610dbf81613986565b60208082528101610dbf816139b4565b60208082528101610dbf81613a04565b60208082528101610dbf81613a36565b60208082528101610dbf81613a6f565b60208082528101610dbf81613aa8565b60208082528101610dbf81613ae1565b60208082528101610dbf81613b1a565b60208082528101610dbf81613b85565b60208082528101610dbf81613bbe565b60208082528101610dbf81613be6565b60208082528101610dbf81613c1f565b608081016122848284613c58565b60408101613d7a8285613616565b60408101613fd38285613616565b612e2c602083018461359c565b60608101613fee8286613616565b613d5f602083018561359c565b610220810161400a828f613616565b614017602083018e613ca2565b61402460e083018d613616565b61403261010083018c613616565b61404061012083018b613616565b61404e61014083018a613616565b61405c610160830189613616565b61406a610180830188613616565b6140786101a0830187613616565b6140866101c08301866135ab565b6140946101e0830185613628565b6140a261020083018461360d565b9d9c50505050505050505050505050565b60405181810167ffffffffffffffff811182821017156140d257600080fd5b604052919050565b60200190565b5190565b90815260200190565b6000610dbf82614115565b151590565b90565b6000610dbf826140ed565b80610dc281614173565b6001600160a01b031690565b60ff1690565b6000610dbf82614100565b6000610dbf8261410b565b60005b83811015614158578181015183820152602001614140565b8381111561170a5750506000910152565b601f01601f191690565b6004811061169057fe5b614186816140ed565b811461169057600080fd5b614186816140f8565b614186816140fd565b61418681614100565b6004811061169057600080fd5b6141868161412156fea365627a7a72315820e2b18c37b1a4043bfee9f4f8f050594fa0aa8083b3d58904b41952e09a15c13a6c6578706572696d656e74616cf564736f6c63430005110040",
  "source": "pragma solidity 0.5.17;\npragma experimental ABIEncoderV2;\n\nimport \"./BaseMock.sol\";\nimport \"../../base/LoansBase.sol\";\n\ncontract LoansBaseMock is LoansBase, BaseMock {\n    mapping(uint256 => TellerCommon.LoanCollateralInfo) internal mockCollateralInfo;\n\n    function _payOutCollateral(\n        uint256 loanID,\n        uint256 amount,\n        address payable recipient\n    ) internal {}\n\n    function externalPayLoan(uint256 loanID, uint256 toPay) external {\n        _payLoan(loanID, toPay);\n    }\n\n    function externalConvertWeiToToken(uint256 weiAmount)\n        external\n        view\n        returns (uint256)\n    {\n        return _convertWeiToToken(weiAmount);\n    }\n\n    function externalConvertTokenToWei(uint256 tokenAmount)\n        external\n        view\n        returns (uint256)\n    {\n        return _convertTokenToWei(tokenAmount);\n    }\n\n    function externalIsSupplyToDebtRatioValid(uint256 newLoanAmount)\n        external\n        view\n        returns (bool)\n    {\n        return super._isSupplyToDebtRatioValid(newLoanAmount);\n    }\n\n    function setLoan(\n        uint256 id,\n        TellerCommon.LoanTerms calldata loanTerms,\n        uint256 termsExpiry,\n        uint256 loanStartTime,\n        uint256 collateral,\n        uint256 lastCollateralIn,\n        uint256 principalOwed,\n        uint256 interestOwed,\n        uint256 borrowedAmount,\n        TellerCommon.LoanStatus status,\n        bool liquidated\n    ) external {\n        require(loanTerms.maxLoanAmount >= borrowedAmount, \"BORROWED_AMOUNT_EXCEEDS_MAX\");\n        loans[id] = TellerCommon.Loan({\n            id: id,\n            loanTerms: loanTerms,\n            termsExpiry: termsExpiry,\n            loanStartTime: loanStartTime,\n            collateral: collateral,\n            lastCollateralIn: lastCollateralIn,\n            principalOwed: principalOwed,\n            interestOwed: interestOwed,\n            borrowedAmount: borrowedAmount,\n            escrow: address(0x0),\n            status: status,\n            liquidated: liquidated\n        });\n    }\n\n    function setEscrowForLoan(uint256 loanID, address escrowAddress) external {\n        loans[loanID].escrow = escrowAddress;\n    }\n\n    function mockGetCollateralInfo(\n        uint256 loanID,\n        uint256 neededInLending,\n        uint256 neededInCollateral\n    ) external {\n        mockCollateralInfo[loanID].collateral = loans[loanID].collateral;\n        mockCollateralInfo[loanID].neededInLendingTokens = neededInLending;\n        mockCollateralInfo[loanID].neededInCollateralTokens = neededInCollateral;\n        mockCollateralInfo[loanID].moreCollateralRequired =\n            neededInCollateral > loans[loanID].collateral;\n    }\n\n    function _getCollateralInfo(uint256 loanID)\n        internal\n        view\n        returns (TellerCommon.LoanCollateralInfo memory info)\n    {\n        info = mockCollateralInfo[loanID];\n        if (info.collateral == 0) {\n            info = super._getCollateralInfo(loanID);\n        }\n    }\n\n    function initialize(\n        address priceOracleAddress,\n        address lendingPoolAddress,\n        address loanTermsConsensusAddress,\n        address settingsAddress,\n        address\n    ) external isNotInitialized() {\n        _initialize(\n            priceOracleAddress,\n            lendingPoolAddress,\n            loanTermsConsensusAddress,\n            settingsAddress\n        );\n    }\n\n    function depositCollateral(\n        address borrower,\n        uint256 loanID,\n        uint256 amount\n    ) external payable {}\n\n    function createLoanWithTerms(\n        TellerCommon.LoanRequest calldata request,\n        TellerCommon.LoanResponse[] calldata responses,\n        uint256 collateralAmount\n    ) external payable {}\n\n    function externalCreateEscrow(uint256 loanID) external returns (address) {\n        return super._createEscrow(loanID);\n    }\n}\n",
  "sourcePath": "/Users/sy/Documents/GitHub/teller-protocol-v1/contracts/mock/base/LoansBaseMock.sol",
  "compiler": {
    "name": "solc",
    "version": "0.5.17+commit.d19bba13.Emscripten.clang"
  },
  "schemaVersion": "3.0.23",
  "updatedAt": "2020-09-16T17:44:36.712Z",
  "devdoc": {
    "methods": {
      "cToken()": {
        "return": "Address of the cToken"
      },
      "canLiquidateLoan(uint256)": {
        "params": {
          "loanID": "The ID of the loan to check"
        },
        "return": "bool weather the loan can be liquidated"
      },
      "getBorrowerLoans(address)": {
        "params": {
          "borrower": "The borrower's address"
        }
      },
      "getCollateralInfo(uint256)": {
        "params": {
          "loanID": "of the loan to get info for"
        },
        "return": "memory TellerCommon.LoanCollateralInfo Collateral information of the loan"
      },
      "getTotalOwed(uint256)": {
        "params": {
          "loanID": "The ID of the loan to be queried"
        },
        "return": "uint256 The total amount owed remaining"
      },
      "initialized()": {
        "return": "true if contract is initialized. Otherwise it returns false."
      },
      "lendingToken()": {
        "return": "Address of the lending token"
      },
      "liquidateLoan(uint256)": {
        "params": {
          "loanID": "The ID of the loan to be liquidated"
        }
      },
      "repay(uint256,uint256)": {
        "params": {
          "amount": "The amount of tokens to pay back to the loan",
          "loanID": "The ID of the loan the payment is for"
        }
      },
      "setPriceOracle(address)": {
        "details": "It throws a require error if sender is not allowed.It throws a require error if new address is empty (0x0) or not a contract.",
        "params": {
          "newPriceOracle": "the new price oracle address."
        }
      },
      "settings()": {
        "details": "This address should NOT change over the time. See details in the _setSettings(...) function."
      },
      "tToken()": {
        "return": "Address of the tToken"
      },
      "takeOutLoan(uint256,uint256)": {
        "details": "collateral ratio is a percentage of the loan amount that's required in collateralthe percentage will be *(10**2). I.e. collateralRatio of 5244 means 52.44% collateralis required in the loan. Interest rate is also a percentage with 2 decimal points."
      },
      "withdrawCollateral(uint256,uint256)": {
        "params": {
          "amount": "The amount of collateral token or ether the caller is hoping to withdraw.",
          "loanID": "The ID of the loan the collateral is for"
        }
      }
    }
  },
  "userdoc": {
    "methods": {
      "cToken()": {
        "notice": "Returns the cToken in the lending pool"
      },
      "canLiquidateLoan(uint256)": {
        "notice": "A loan can be liquidated if it is: under collateralized or expired"
      },
      "getBorrowerLoans(address)": {
        "notice": "Get a list of all loans for a borrower"
      },
      "getCollateralInfo(uint256)": {
        "notice": "Get collateral information of a specific loan"
      },
      "getTotalOwed(uint256)": {
        "notice": "Returns the total owed amount remaining for a specified loan"
      },
      "initialized()": {
        "notice": "Gets if the contract is initialized."
      },
      "lendingToken()": {
        "notice": "Returns the lending token in the lending pool"
      },
      "liquidateLoan(uint256)": {
        "notice": "Liquidate a loan if it is expired or under collateralized"
      },
      "repay(uint256,uint256)": {
        "notice": "Make a payment to a loan"
      },
      "setPriceOracle(address)": {
        "notice": "Updates the current price oracle instance."
      },
      "settings()": {
        "notice": "The gets the settings contract address from the SETTINGS_SLOT."
      },
      "tToken()": {
        "notice": "Returns the tToken in the lending pool"
      },
      "takeOutLoan(uint256,uint256)": {
        "notice": "Take out a loan"
      },
      "withdrawCollateral(uint256,uint256)": {
        "notice": "Withdraw collateral from a loan, unless this isn't allowed"
      }
    }
  }
}