{
  "contractName": "LoanTermsConsensus",
  "abi": [
    {
      "anonymous": false,
      "inputs": [
        {
          "indexed": true,
          "internalType": "address",
          "name": "previousOwner",
          "type": "address"
        },
        {
          "indexed": true,
          "internalType": "address",
          "name": "newOwner",
          "type": "address"
        }
      ],
      "name": "OwnershipTransferred",
      "type": "event"
    },
    {
      "anonymous": false,
      "inputs": [
        {
          "indexed": true,
          "internalType": "address",
          "name": "account",
          "type": "address"
        }
      ],
      "name": "SignerAdded",
      "type": "event"
    },
    {
      "anonymous": false,
      "inputs": [
        {
          "indexed": true,
          "internalType": "address",
          "name": "account",
          "type": "address"
        }
      ],
      "name": "SignerRemoved",
      "type": "event"
    },
    {
      "anonymous": false,
      "inputs": [
        {
          "indexed": true,
          "internalType": "address",
          "name": "borrower",
          "type": "address"
        },
        {
          "indexed": true,
          "internalType": "uint256",
          "name": "requestNonce",
          "type": "uint256"
        },
        {
          "indexed": false,
          "internalType": "uint256",
          "name": "interestRate",
          "type": "uint256"
        },
        {
          "indexed": false,
          "internalType": "uint256",
          "name": "collateralRatio",
          "type": "uint256"
        },
        {
          "indexed": false,
          "internalType": "uint256",
          "name": "maxLoanAmount",
          "type": "uint256"
        }
      ],
      "name": "TermsAccepted",
      "type": "event"
    },
    {
      "anonymous": false,
      "inputs": [
        {
          "indexed": true,
          "internalType": "address",
          "name": "signer",
          "type": "address"
        },
        {
          "indexed": true,
          "internalType": "address",
          "name": "borrower",
          "type": "address"
        },
        {
          "indexed": true,
          "internalType": "uint256",
          "name": "requestNonce",
          "type": "uint256"
        },
        {
          "indexed": false,
          "internalType": "uint256",
          "name": "signerNonce",
          "type": "uint256"
        },
        {
          "indexed": false,
          "internalType": "uint256",
          "name": "interestRate",
          "type": "uint256"
        },
        {
          "indexed": false,
          "internalType": "uint256",
          "name": "collateralRatio",
          "type": "uint256"
        },
        {
          "indexed": false,
          "internalType": "uint256",
          "name": "maxLoanAmount",
          "type": "uint256"
        }
      ],
      "name": "TermsSubmitted",
      "type": "event"
    },
    {
      "constant": false,
      "inputs": [
        {
          "internalType": "address",
          "name": "account",
          "type": "address"
        }
      ],
      "name": "addSigner",
      "outputs": [],
      "payable": false,
      "stateMutability": "nonpayable",
      "type": "function"
    },
    {
      "constant": false,
      "inputs": [
        {
          "internalType": "address[]",
          "name": "accounts",
          "type": "address[]"
        }
      ],
      "name": "addSigners",
      "outputs": [],
      "payable": false,
      "stateMutability": "nonpayable",
      "type": "function"
    },
    {
      "constant": true,
      "inputs": [
        {
          "internalType": "address",
          "name": "",
          "type": "address"
        }
      ],
      "name": "borrowerToLastLoanTermRequest",
      "outputs": [
        {
          "internalType": "uint256",
          "name": "",
          "type": "uint256"
        }
      ],
      "payable": false,
      "stateMutability": "view",
      "type": "function"
    },
    {
      "constant": true,
      "inputs": [],
      "name": "callerAddress",
      "outputs": [
        {
          "internalType": "address",
          "name": "",
          "type": "address"
        }
      ],
      "payable": false,
      "stateMutability": "view",
      "type": "function"
    },
    {
      "constant": true,
      "inputs": [
        {
          "internalType": "address",
          "name": "",
          "type": "address"
        },
        {
          "internalType": "address",
          "name": "",
          "type": "address"
        },
        {
          "internalType": "uint256",
          "name": "",
          "type": "uint256"
        }
      ],
      "name": "hasSubmitted",
      "outputs": [
        {
          "internalType": "bool",
          "name": "",
          "type": "bool"
        }
      ],
      "payable": false,
      "stateMutability": "view",
      "type": "function"
    },
    {
      "constant": false,
      "inputs": [],
      "name": "initialize",
      "outputs": [],
      "payable": false,
      "stateMutability": "nonpayable",
      "type": "function"
    },
    {
      "constant": false,
      "inputs": [
        {
          "internalType": "address",
          "name": "owner",
          "type": "address"
        },
        {
          "internalType": "address",
          "name": "aCallerAddress",
          "type": "address"
        },
        {
          "internalType": "address",
          "name": "aSettingAddress",
          "type": "address"
        }
      ],
      "name": "initialize",
      "outputs": [],
      "payable": false,
      "stateMutability": "nonpayable",
      "type": "function"
    },
    {
      "constant": false,
      "inputs": [
        {
          "internalType": "address",
          "name": "sender",
          "type": "address"
        }
      ],
      "name": "initialize",
      "outputs": [],
      "payable": false,
      "stateMutability": "nonpayable",
      "type": "function"
    },
    {
      "constant": true,
      "inputs": [],
      "name": "initialized",
      "outputs": [
        {
          "internalType": "bool",
          "name": "value",
          "type": "bool"
        }
      ],
      "payable": false,
      "stateMutability": "view",
      "type": "function"
    },
    {
      "constant": true,
      "inputs": [],
      "name": "isOwner",
      "outputs": [
        {
          "internalType": "bool",
          "name": "",
          "type": "bool"
        }
      ],
      "payable": false,
      "stateMutability": "view",
      "type": "function"
    },
    {
      "constant": true,
      "inputs": [
        {
          "internalType": "address",
          "name": "account",
          "type": "address"
        }
      ],
      "name": "isSigner",
      "outputs": [
        {
          "internalType": "bool",
          "name": "",
          "type": "bool"
        }
      ],
      "payable": false,
      "stateMutability": "view",
      "type": "function"
    },
    {
      "constant": true,
      "inputs": [],
      "name": "owner",
      "outputs": [
        {
          "internalType": "address",
          "name": "",
          "type": "address"
        }
      ],
      "payable": false,
      "stateMutability": "view",
      "type": "function"
    },
    {
      "constant": false,
      "inputs": [
        {
          "internalType": "address",
          "name": "account",
          "type": "address"
        }
      ],
      "name": "removeSigner",
      "outputs": [],
      "payable": false,
      "stateMutability": "nonpayable",
      "type": "function"
    },
    {
      "constant": false,
      "inputs": [],
      "name": "renounceOwnership",
      "outputs": [],
      "payable": false,
      "stateMutability": "nonpayable",
      "type": "function"
    },
    {
      "constant": true,
      "inputs": [
        {
          "internalType": "address",
          "name": "",
          "type": "address"
        },
        {
          "internalType": "uint256",
          "name": "",
          "type": "uint256"
        }
      ],
      "name": "requestNonceTaken",
      "outputs": [
        {
          "internalType": "bool",
          "name": "",
          "type": "bool"
        }
      ],
      "payable": false,
      "stateMutability": "view",
      "type": "function"
    },
    {
      "constant": true,
      "inputs": [],
      "name": "settings",
      "outputs": [
        {
          "internalType": "contract SettingsInterface",
          "name": "",
          "type": "address"
        }
      ],
      "payable": false,
      "stateMutability": "view",
      "type": "function"
    },
    {
      "constant": true,
      "inputs": [
        {
          "internalType": "address",
          "name": "",
          "type": "address"
        },
        {
          "internalType": "uint256",
          "name": "",
          "type": "uint256"
        }
      ],
      "name": "signerNonceTaken",
      "outputs": [
        {
          "internalType": "bool",
          "name": "",
          "type": "bool"
        }
      ],
      "payable": false,
      "stateMutability": "view",
      "type": "function"
    },
    {
      "constant": true,
      "inputs": [
        {
          "internalType": "address",
          "name": "",
          "type": "address"
        },
        {
          "internalType": "uint256",
          "name": "",
          "type": "uint256"
        }
      ],
      "name": "termSubmissions",
      "outputs": [
        {
          "components": [
            {
              "internalType": "uint256",
              "name": "count",
              "type": "uint256"
            },
            {
              "internalType": "uint256",
              "name": "max",
              "type": "uint256"
            },
            {
              "internalType": "uint256",
              "name": "min",
              "type": "uint256"
            },
            {
              "internalType": "uint256",
              "name": "sum",
              "type": "uint256"
            }
          ],
          "internalType": "struct NumbersList.Values",
          "name": "interestRate",
          "type": "tuple"
        },
        {
          "components": [
            {
              "internalType": "uint256",
              "name": "count",
              "type": "uint256"
            },
            {
              "internalType": "uint256",
              "name": "max",
              "type": "uint256"
            },
            {
              "internalType": "uint256",
              "name": "min",
              "type": "uint256"
            },
            {
              "internalType": "uint256",
              "name": "sum",
              "type": "uint256"
            }
          ],
          "internalType": "struct NumbersList.Values",
          "name": "collateralRatio",
          "type": "tuple"
        },
        {
          "components": [
            {
              "internalType": "uint256",
              "name": "count",
              "type": "uint256"
            },
            {
              "internalType": "uint256",
              "name": "max",
              "type": "uint256"
            },
            {
              "internalType": "uint256",
              "name": "min",
              "type": "uint256"
            },
            {
              "internalType": "uint256",
              "name": "sum",
              "type": "uint256"
            }
          ],
          "internalType": "struct NumbersList.Values",
          "name": "maxLoanAmount",
          "type": "tuple"
        }
      ],
      "payable": false,
      "stateMutability": "view",
      "type": "function"
    },
    {
      "constant": false,
      "inputs": [
        {
          "internalType": "address",
          "name": "newOwner",
          "type": "address"
        }
      ],
      "name": "transferOwnership",
      "outputs": [],
      "payable": false,
      "stateMutability": "nonpayable",
      "type": "function"
    },
    {
      "constant": false,
      "inputs": [
        {
          "components": [
            {
              "internalType": "address payable",
              "name": "borrower",
              "type": "address"
            },
            {
              "internalType": "address",
              "name": "recipient",
              "type": "address"
            },
            {
              "internalType": "address",
              "name": "consensusAddress",
              "type": "address"
            },
            {
              "internalType": "uint256",
              "name": "requestNonce",
              "type": "uint256"
            },
            {
              "internalType": "uint256",
              "name": "amount",
              "type": "uint256"
            },
            {
              "internalType": "uint256",
              "name": "duration",
              "type": "uint256"
            },
            {
              "internalType": "uint256",
              "name": "requestTime",
              "type": "uint256"
            }
          ],
          "internalType": "struct TellerCommon.LoanRequest",
          "name": "request",
          "type": "tuple"
        },
        {
          "components": [
            {
              "internalType": "address",
              "name": "signer",
              "type": "address"
            },
            {
              "internalType": "address",
              "name": "consensusAddress",
              "type": "address"
            },
            {
              "internalType": "uint256",
              "name": "responseTime",
              "type": "uint256"
            },
            {
              "internalType": "uint256",
              "name": "interestRate",
              "type": "uint256"
            },
            {
              "internalType": "uint256",
              "name": "collateralRatio",
              "type": "uint256"
            },
            {
              "internalType": "uint256",
              "name": "maxLoanAmount",
              "type": "uint256"
            },
            {
              "components": [
                {
                  "internalType": "uint256",
                  "name": "signerNonce",
                  "type": "uint256"
                },
                {
                  "internalType": "uint8",
                  "name": "v",
                  "type": "uint8"
                },
                {
                  "internalType": "bytes32",
                  "name": "r",
                  "type": "bytes32"
                },
                {
                  "internalType": "bytes32",
                  "name": "s",
                  "type": "bytes32"
                }
              ],
              "internalType": "struct TellerCommon.Signature",
              "name": "signature",
              "type": "tuple"
            }
          ],
          "internalType": "struct TellerCommon.LoanResponse[]",
          "name": "responses",
          "type": "tuple[]"
        }
      ],
      "name": "processRequest",
      "outputs": [
        {
          "internalType": "uint256",
          "name": "interestRate",
          "type": "uint256"
        },
        {
          "internalType": "uint256",
          "name": "collateralRatio",
          "type": "uint256"
        },
        {
          "internalType": "uint256",
          "name": "maxLoanAmount",
          "type": "uint256"
        }
      ],
      "payable": false,
      "stateMutability": "nonpayable",
      "type": "function"
    }
  ],
  "bytecode": "0x6080604052612be9806100136000396000f3fe608060405234801561001057600080fd5b506004361061012c5760003560e01c806399ffe065116100ad578063e8906a2d11610071578063e8906a2d14610269578063eb12d61e1461027c578063f2fde38b1461028f578063faa8aab1146102a2578063fb98d9e2146102aa5761012c565b806399ffe065146101fb5780639f24a12d1461020e578063c0c53b8b1461022e578063c4d66de814610241578063e06174e4146102545761012c565b8063715018a6116100f4578063715018a6146101bb5780637df73e27146101c35780638129fc1c146101d65780638da5cb5b146101de5780638f32d59b146101f35761012c565b8063064e5d49146101315780630e316ab71461015c578063158ef93e146101715780632aac635e1461018657806368fcdeb8146101a8575b600080fd5b61014461013f366004612031565b6102bd565b60405161015393929190612a74565b60405180910390f35b61016f61016a366004611ed8565b610742565b005b610179610772565b6040516101539190612871565b610199610194366004611f86565b610791565b60405161015393929190612a4a565b6101796101b6366004611f86565b61083a565b61016f61085a565b6101796101d1366004611ed8565b6108c8565b61016f6108e1565b6101e6610968565b6040516101539190612766565b610179610977565b610179610209366004611f43565b61099d565b61022161021c366004611ed8565b6109c3565b604051610153919061287f565b61016f61023c366004611ef6565b6109d5565b61016f61024f366004611ed8565b610a5e565b61025c610b31565b60405161015391906128cb565b61016f610277366004611fc0565b610b53565b61016f61028a366004611ed8565b610bdb565b61016f61029d366004611ed8565b610c08565b6101e6610c35565b6101796102b8366004611f86565b610c44565b60008060006102ca610772565b6102ef5760405162461bcd60e51b81526004016102e690612a2a565b60405180910390fd5b336102f981610c64565b6103155760405162461bcd60e51b81526004016102e690612a1a565b61031d610b31565b6001600160a01b031663269012a0610333610b31565b6001600160a01b031663d86d744e6040518163ffffffff1660e01b815260040160206040518083038186803b15801561036b57600080fd5b505afa15801561037f573d6000803e3d6000fd5b505050506040513d601f19601f820116820180604052506103a39190810190612013565b6001600160a01b0316633ff591d96040518163ffffffff1660e01b815260040160206040518083038186803b1580156103db57600080fd5b505afa1580156103ef573d6000803e3d6000fd5b505050506040513d601f19601f820116820180604052506104139190810190611ff5565b6040518263ffffffff1660e01b815260040161042f919061287f565b60206040518083038186803b15801561044757600080fd5b505afa15801561045b573d6000803e3d6000fd5b505050506040513d601f19601f8201168201806040525061047f9190810190611ff5565b85101561049e5760405162461bcd60e51b81526004016102e6906129fa565b6104b56104b036899003890189612088565b610c78565b609d60006104c660208a018a611ed8565b6001600160a01b031681526020808201929092526040908101600090812060608b0135825290925290205460ff16156105115760405162461bcd60e51b81526004016102e69061290a565b6001609d600061052460208b018b611ed8565b6001600160a01b031681526020808201929092526040908101600090812060608c013582529092528120805460ff191692151592909217909155610575610570368a90038a018a612088565b610e54565b905060005b868110156105c5576105bd610594368b90038b018b612088565b8989848181106105a057fe5b905061014002018036036105b791908101906120a6565b84610ec7565b60010161057a565b50610609609e60006105da60208c018c611ed8565b6001600160a01b031681526020808201929092526040908101600090812060608d01358252909252902061102e565b945061065c609e600061061f60208c018c611ed8565b6001600160a01b03166001600160a01b0316815260200190815260200160002060008a60600135815260200190815260200160002060040161102e565b93506106af609e600061067260208c018c611ed8565b6001600160a01b03166001600160a01b0316815260200190815260200160002060008a60600135815260200190815260200160002060080161102e565b925042609f60006106c360208c018c611ed8565b6001600160a01b03168152602080820192909252604001600020919091556060890135906106f3908a018a611ed8565b6001600160a01b03167f658dfc9759b55173ea96c7bd8d4ad2c3e3804d28d83d2e1a25569a2fecb6720887878760405161072f93929190612a74565b60405180910390a3505093509350939050565b61074a610977565b6107665760405162461bcd60e51b81526004016102e6906129ba565b61076f816111cf565b50565b60008060405161078190612730565b6040519081900390205492915050565b609e60209081526000928352604080842082529183529181902081516080808201845282548252600183015482860152600283015482850152600383015460608084019190915284518083018652600485015481526005850154818801526006850154818701526007850154818301528551928301865260088501548352600985015496830196909652600a84015494820194909452600b909201549282019290925290919083565b609b60209081526000928352604080842090915290825290205460ff1681565b610862610977565b61087e5760405162461bcd60e51b81526004016102e6906129ba565b6066546040516000916001600160a01b0316907f8be0079c531659141344cd1fd0a4f28419497f9722a3daafe3b4186f6b6457e0908390a3606680546001600160a01b0319169055565b60006108db60998363ffffffff61121716565b92915050565b600054610100900460ff16806108fa57506108fa61125f565b80610908575060005460ff16155b6109245760405162461bcd60e51b81526004016102e6906129da565b600054610100900460ff1615801561094f576000805460ff1961ff0019909116610100171660011790555b6001603355801561076f576000805461ff001916905550565b6066546001600160a01b031690565b6066546000906001600160a01b031661098e611265565b6001600160a01b031614905090565b609a60209081526000938452604080852082529284528284209052825290205460ff1681565b609f6020526000908152604090205481565b6109dd610772565b156109fa5760405162461bcd60e51b81526004016102e690612a3a565b610a0c826001600160a01b0316611269565b610a285760405162461bcd60e51b81526004016102e69061296a565b610a3183610a5e565b610a3a816112a5565b50609c80546001600160a01b0319166001600160a01b039290921691909117905550565b600054610100900460ff1680610a775750610a7761125f565b80610a85575060005460ff16155b610aa15760405162461bcd60e51b81526004016102e6906129da565b600054610100900460ff16158015610acc576000805460ff1961ff0019909116610100171660011790555b606680546001600160a01b0319166001600160a01b0384811691909117918290556040519116906000907f8be0079c531659141344cd1fd0a4f28419497f9722a3daafe3b4186f6b6457e0908290a38015610b2d576000805461ff00191690555b5050565b6000806000604051610b429061275b565b604051908190039020549250505090565b610b5b610977565b610b775760405162461bcd60e51b81526004016102e6906129ba565b6000815111610b985760405162461bcd60e51b81526004016102e6906128fa565b60005b8151811015610b2d576000828281518110610bb257fe5b60200260200101519050610bc5816108c8565b610bd257610bd281611357565b50600101610b9b565b610be3610977565b610bff5760405162461bcd60e51b81526004016102e6906129ba565b61076f81611357565b610c10610977565b610c2c5760405162461bcd60e51b81526004016102e6906129ba565b61076f8161139f565b609c546001600160a01b031681565b609d60209081526000928352604080842090915290825290205460ff1681565b609c546001600160a01b0391821691161490565b80516001600160a01b03166000908152609f6020526040902054610c9b5761076f565b6000610ca5610b31565b6001600160a01b031663269012a0610cbb610b31565b6001600160a01b031663d86d744e6040518163ffffffff1660e01b815260040160206040518083038186803b158015610cf357600080fd5b505afa158015610d07573d6000803e3d6000fd5b505050506040513d601f19601f82011682018060405250610d2b9190810190612013565b6001600160a01b0316633b98dfdb6040518163ffffffff1660e01b815260040160206040518083038186803b158015610d6357600080fd5b505afa158015610d77573d6000803e3d6000fd5b505050506040513d601f19601f82011682018060405250610d9b9190810190611ff5565b6040518263ffffffff1660e01b8152600401610db7919061287f565b60206040518083038186803b158015610dcf57600080fd5b505afa158015610de3573d6000803e3d6000fd5b505050506040513d601f19601f82011682018060405250610e079190810190611ff5565b82516001600160a01b03166000908152609f60205260409020549091504290610e36908363ffffffff61142116565b1115610b2d5760405162461bcd60e51b81526004016102e69061298a565b609c548151602083015160408401516060850151608086015160a087015160c08801516000976001600160a01b031696959493929190610e9261144d565b604051602001610eaa99989796959493929190612774565b604051602081830303815290604052805190602001209050919050565b6000610ed38383611451565b835185516060870151604087015160c0880151949550610ef49486906114b3565b60608084015185516001600160a01b03166000908152609e6020908152604080832094890151835293905291909120610f329163ffffffff61173116565b608083015184516001600160a01b03166000908152609e60209081526040808320606089015184529091529020610f749160049091019063ffffffff61173116565b60a083015184516001600160a01b03166000908152609e60209081526040808320606089015184529091529020610fb69160089091019063ffffffff61173116565b836060015184600001516001600160a01b031684600001516001600160a01b03167fc218be06ad61544d4438d7c22df24c5fd2e6e70eff2b9bd06771b90432bb21258660c0015160000151876060015188608001518960a001516040516110209493929190612a9c565b60405180910390a450505050565b60006111aa61103b610b31565b6001600160a01b031663269012a0611051610b31565b6001600160a01b031663d86d744e6040518163ffffffff1660e01b815260040160206040518083038186803b15801561108957600080fd5b505afa15801561109d573d6000803e3d6000fd5b505050506040513d601f19601f820116820180604052506110c19190810190612013565b6001600160a01b031663c41dd8ce6040518163ffffffff1660e01b815260040160206040518083038186803b1580156110f957600080fd5b505afa15801561110d573d6000803e3d6000fd5b505050506040513d601f19601f820116820180604052506111319190810190611ff5565b6040518263ffffffff1660e01b815260040161114d919061287f565b60206040518083038186803b15801561116557600080fd5b505afa158015611179573d6000803e3d6000fd5b505050506040513d601f19601f8201168201806040525061119d9190810190611ff5565b839063ffffffff61179616565b6111c65760405162461bcd60e51b81526004016102e69061293a565b6108db82611847565b6111e060998263ffffffff61188016565b6040516001600160a01b038216907f3525e22824a8a7df2c9a6029941c824cf95b6447f1e13d5128fd3826d35afe8b90600090a250565b60006001600160a01b03821661123f5760405162461bcd60e51b81526004016102e6906129ca565b506001600160a01b03166000908152602091909152604090205460ff1690565b303b1590565b3390565b6000813f7fc5d2460186f7233c927e7db2dcc703c0e500b653ca82273b7bfad8045d85a47081811480159061129d57508115155b949350505050565b6112ad610772565b156112ca5760405162461bcd60e51b81526004016102e690612a3a565b60408051808201909152601981527f53455454494e47535f4d5553545f42455f50524f5649444544000000000000006020820152611318906001600160a01b0383169063ffffffff6118c816565b61132a816001600160a01b0316611269565b6113465760405162461bcd60e51b81526004016102e69061295a565b61134e6118f5565b61076f81611913565b61136860998263ffffffff61198216565b6040516001600160a01b038216907f47d1c22a25bb3a5d4e481b9b1e6944c2eade3181a0a20b495ed61d35b5323f2490600090a250565b6001600160a01b0381166113c55760405162461bcd60e51b81526004016102e69061292a565b6066546040516001600160a01b038084169216907f8be0079c531659141344cd1fd0a4f28419497f9722a3daafe3b4186f6b6457e090600090a3606680546001600160a01b0319166001600160a01b0392909216919091179055565b6000828201838110156114465760405162461bcd60e51b81526004016102e69061294a565b9392505050565b4690565b600082602001518360400151846060015185608001518660a001518760c001516000015161147d61144d565b886040516020016114959897969594939291906127fa565b60405160208183030381529060405280519060200120905092915050565b6001600160a01b038087166000908152609a6020908152604080832093891683529281528282208783529052205460ff16156115015760405162461bcd60e51b81526004016102e69061291a565b6001600160a01b038087166000908152609a602090815260408083209389168352928152828220878352905220805460ff191660011790556116b3611544610b31565b6001600160a01b031663269012a061155a610b31565b6001600160a01b031663d86d744e6040518163ffffffff1660e01b815260040160206040518083038186803b15801561159257600080fd5b505afa1580156115a6573d6000803e3d6000fd5b505050506040513d601f19601f820116820180604052506115ca9190810190612013565b6001600160a01b031663e3f33d006040518163ffffffff1660e01b815260040160206040518083038186803b15801561160257600080fd5b505afa158015611616573d6000803e3d6000fd5b505050506040513d601f19601f8201168201806040525061163a9190810190611ff5565b6040518263ffffffff1660e01b8152600401611656919061287f565b60206040518083038186803b15801561166e57600080fd5b505afa158015611682573d6000803e3d6000fd5b505050506040513d601f19601f820116820180604052506116a69190810190611ff5565b429063ffffffff6119ce16565b8310156116d25760405162461bcd60e51b81526004016102e6906129ea565b6116dd818388611a10565b6116f95760405162461bcd60e51b81526004016102e690612a0a565b6001600160a01b039095166000908152609b602090815260408083209751835296905294909420805460ff1916600117905550505050565b808260010154101561174557600182018190555b808260020154118061175657508154155b1561176357600282018190555b6003820154611778908263ffffffff61142116565b6003830155815461179090600163ffffffff61142116565b90915550565b60006117a183611b08565b156117ae575060006108db565b60006117b984611847565b905060006117df6127106117d3848763ffffffff611b1a16565b9063ffffffff611b5416565b905060006117f3838363ffffffff6119ce16565b9050808660020154101561180d57600093505050506108db565b600061181f848463ffffffff61142116565b9050808760010154111561183a5760009450505050506108db565b5060019695505050505050565b600061185282611b08565b6118785761187361186283611b96565b60038401549063ffffffff611b5416565b6108db565b506000919050565b61188a8282611217565b6118a65760405162461bcd60e51b81526004016102e69061299a565b6001600160a01b0316600090815260209190915260409020805460ff19169055565b6118d182611b9a565b81906118f05760405162461bcd60e51b81526004016102e691906128d9565b505050565b600060405161190390612730565b6040519081900390206001905550565b61192c61191e610b31565b6001600160a01b0316611b9a565b156119365761076f565b611948816001600160a01b0316611269565b6119645760405162461bcd60e51b81526004016102e69061295a565b60006040516119729061275b565b6040519081900390208290555050565b61198c8282611217565b156119a95760405162461bcd60e51b81526004016102e6906128ea565b6001600160a01b0316600090815260209190915260409020805460ff19166001179055565b600061144683836040518060400160405280601e81526020017f536166654d6174683a207375627472616374696f6e206f766572666c6f770000815250611ba8565b6000611a1b826108c8565b611a2757506000611446565b6001600160a01b0382166000908152609b602090815260408083208751845290915290205460ff1615611a6c5760405162461bcd60e51b81526004016102e69061297a565b6000600184604051602001611a81919061273b565b6040516020818303038152906040528051906020012086602001518760400151886060015160405160008152602001604052604051611ac3949392919061288d565b6020604051602081039080840390855afa158015611ae5573d6000803e3d6000fd5b5050604051601f1901516001600160a01b03858116911614925050509392505050565b6000611b1382611b96565b1592915050565b600082611b29575060006108db565b82820282848281611b3657fe5b04146114465760405162461bcd60e51b81526004016102e6906129aa565b600061144683836040518060400160405280601a81526020017f536166654d6174683a206469766973696f6e206279207a65726f000000000000815250611bd4565b5490565b6001600160a01b0316151590565b60008184841115611bcc5760405162461bcd60e51b81526004016102e691906128d9565b505050900390565b60008183611bf55760405162461bcd60e51b81526004016102e691906128d9565b506000838581611c0157fe5b0495945050505050565b80356108db81612b77565b600082601f830112611c2757600080fd5b8135611c3a611c3582612ade565b612ab7565b91508181835260208401935060208101905083856020840282011115611c5f57600080fd5b60005b83811015611c8b5781611c758882611c0b565b8452506020928301929190910190600101611c62565b5050505092915050565b60008083601f840112611ca757600080fd5b50813567ffffffffffffffff811115611cbf57600080fd5b60208301915083610140820283011115611cd857600080fd5b9250929050565b80356108db81612b8b565b80516108db81612b8b565b80516108db81612b94565b600060e08284031215611d1257600080fd5b50919050565b600060e08284031215611d2a57600080fd5b611d3460e0612ab7565b90506000611d428484611c0b565b8252506020611d5384848301611c0b565b6020830152506040611d6784828501611c0b565b6040830152506060611d7b84828501611cdf565b6060830152506080611d8f84828501611cdf565b60808301525060a0611da384828501611cdf565b60a08301525060c0611db784828501611cdf565b60c08301525092915050565b60006101408284031215611dd657600080fd5b611de060e0612ab7565b90506000611dee8484611c0b565b8252506020611dff84848301611c0b565b6020830152506040611e1384828501611cdf565b6040830152506060611e2784828501611cdf565b6060830152506080611e3b84828501611cdf565b60808301525060a0611e4f84828501611cdf565b60a08301525060c0611db784828501600060808284031215611e7057600080fd5b611e7a6080612ab7565b90506000611e888484611cdf565b8252506020611e9984848301611ecd565b6020830152506040611ead84828501611cdf565b6040830152506060611ec184828501611cdf565b60608301525092915050565b80356108db81612b9d565b600060208284031215611eea57600080fd5b600061129d8484611c0b565b600080600060608486031215611f0b57600080fd5b6000611f178686611c0b565b9350506020611f2886828701611c0b565b9250506040611f3986828701611c0b565b9150509250925092565b600080600060608486031215611f5857600080fd5b6000611f648686611c0b565b9350506020611f7586828701611c0b565b9250506040611f3986828701611cdf565b60008060408385031215611f9957600080fd5b6000611fa58585611c0b565b9250506020611fb685828601611cdf565b9150509250929050565b600060208284031215611fd257600080fd5b813567ffffffffffffffff811115611fe957600080fd5b61129d84828501611c16565b60006020828403121561200757600080fd5b600061129d8484611cea565b60006020828403121561202557600080fd5b600061129d8484611cf5565b6000806000610100848603121561204757600080fd5b60006120538686611d00565b93505060e084013567ffffffffffffffff81111561207057600080fd5b61207c86828701611c95565b92509250509250925092565b600060e0828403121561209a57600080fd5b600061129d8484611d18565b600061014082840312156120b957600080fd5b600061129d8484611dc3565b6120ce81612b11565b82525050565b6120ce81612b1c565b6120ce81612b21565b6120ce6120f282612b21565b612b21565b6120ce81612b24565b600061210b82612aff565b6121158185612b03565b9350612125818560208601612b41565b61212e81612b6d565b9093019392505050565b6000612145601c83612b0c565b7f54496e697469616c697a61626c652e6973496e697469616c697a6564000000008152601c0192915050565b600061217e601f83612b03565b7f526f6c65733a206163636f756e7420616c72656164792068617320726f6c6500815260200192915050565b60006121b7601383612b03565b724143434f554e54535f4c4953545f454d50545960681b815260200192915050565b60006121e6601c83612b0c565b7f19457468657265756d205369676e6564204d6573736167653a0a3332000000008152601c0192915050565b600061221f601e83612b03565b7f4c4f414e5f5445524d535f524551554553545f4e4f4e43455f54414b454e0000815260200192915050565b6000612258601883612b03565b7f5349474e45525f414c52454144595f5355424d49545445440000000000000000815260200192915050565b6000612291602683612b03565b7f4f776e61626c653a206e6577206f776e657220697320746865207a65726f206181526564647265737360d01b602082015260400192915050565b60006122d9601483612b03565b73149154d413d394d154d7d513d3d7d5905492515160621b815260200192915050565b6000612309601b83612b03565b7f536166654d6174683a206164646974696f6e206f766572666c6f770000000000815260200192915050565b6000612342601b83612b03565b7f53455454494e47535f4d5553545f42455f415f434f4e54524143540000000000815260200192915050565b600061237b601783612b03565b7f43414c4c45525f4d5553545f42455f434f4e5452414354000000000000000000815260200192915050565b60006123b4601283612b03565b7129a4a3a722a92fa727a721a2afaa20a5a2a760711b815260200192915050565b60006123e2601f83612b03565b7f524551535f4c4f414e5f5445524d535f4c4d545f455843454544535f4d415800815260200192915050565b600061241b602183612b03565b7f526f6c65733a206163636f756e7420646f6573206e6f74206861766520726f6c8152606560f81b602082015260400192915050565b600061245e602183612b03565b7f536166654d6174683a206d756c7469706c69636174696f6e206f766572666c6f8152607760f81b602082015260400192915050565b60006124a1602083612b03565b7f4f776e61626c653a2063616c6c6572206973206e6f7420746865206f776e6572815260200192915050565b60006124da602283612b03565b7f526f6c65733a206163636f756e7420697320746865207a65726f206164647265815261737360f01b602082015260400192915050565b600061251e602e83612b03565b7f436f6e747261637420696e7374616e63652068617320616c726561647920626581526d195b881a5b9a5d1a585b1a5e995960921b602082015260400192915050565b600061256e601083612b03565b6f149154d413d394d157d156141254915160821b815260200192915050565b600061259a601f83612b03565b7f4c4f414e5445524d5f494e53554646494349454e545f524553504f4e53455300815260200192915050565b60006125d3601183612b03565b7014d251d3905515549157d2539590531251607a1b815260200192915050565b6000612600601883612b03565b7f53454e4445525f4841534e545f5045524d495353494f4e530000000000000000815260200192915050565b6000612639601883612b0c565b7f426173655570677261646561626c652e73657474696e67730000000000000000815260180192915050565b6000612672601883612b03565b7f434f4e54524143545f4e4f545f494e495449414c495a45440000000000000000815260200192915050565b60006126ab601c83612b03565b7f434f4e54524143545f414c52454144595f494e495449414c495a454400000000815260200192915050565b805160808301906126e884826120dd565b5060208201516126fb60208501826120dd565b50604082015161270e60408501826120dd565b50606082015161272160608501826120dd565b50505050565b6120ce81612b3b565b60006108db82612138565b6000612746826121d9565b915061275282846120e6565b50602001919050565b60006108db8261262c565b602081016108db82846120c5565b6101208101612783828c6120c5565b612790602083018b6120c5565b61279d604083018a6120c5565b6127aa60608301896120c5565b6127b760808301886120dd565b6127c460a08301876120dd565b6127d160c08301866120dd565b6127de60e08301856120dd565b6127ec6101008301846120dd565b9a9950505050505050505050565b6101008101612809828b6120c5565b612816602083018a6120dd565b61282360408301896120dd565b61283060608301886120dd565b61283d60808301876120dd565b61284a60a08301866120dd565b61285760c08301856120dd565b61286460e08301846120dd565b9998505050505050505050565b602081016108db82846120d4565b602081016108db82846120dd565b6080810161289b82876120dd565b6128a86020830186612727565b6128b560408301856120dd565b6128c260608301846120dd565b95945050505050565b602081016108db82846120f7565b602080825281016114468184612100565b602080825281016108db81612171565b602080825281016108db816121aa565b602080825281016108db81612212565b602080825281016108db8161224b565b602080825281016108db81612284565b602080825281016108db816122cc565b602080825281016108db816122fc565b602080825281016108db81612335565b602080825281016108db8161236e565b602080825281016108db816123a7565b602080825281016108db816123d5565b602080825281016108db8161240e565b602080825281016108db81612451565b602080825281016108db81612494565b602080825281016108db816124cd565b602080825281016108db81612511565b602080825281016108db81612561565b602080825281016108db8161258d565b602080825281016108db816125c6565b602080825281016108db816125f3565b602080825281016108db81612665565b602080825281016108db8161269e565b6101808101612a5982866126d7565b612a6660808301856126d7565b61129d6101008301846126d7565b60608101612a8282866120dd565b612a8f60208301856120dd565b61129d60408301846120dd565b60808101612aaa82876120dd565b6128a860208301866120dd565b60405181810167ffffffffffffffff81118282101715612ad657600080fd5b604052919050565b600067ffffffffffffffff821115612af557600080fd5b5060209081020190565b5190565b90815260200190565b919050565b60006108db82612b2f565b151590565b90565b60006108db82612b11565b6001600160a01b031690565b60ff1690565b60005b83811015612b5c578181015183820152602001612b44565b838111156127215750506000910152565b601f01601f191690565b612b8081612b11565b811461076f57600080fd5b612b8081612b21565b612b8081612b24565b612b8081612b3b56fea365627a7a7231582044b06627ca32ce7ec26d7df214cf77673d296e10ef0fc6da174b3d1d999e04eb6c6578706572696d656e74616cf564736f6c63430005110040",
  "source": "pragma solidity 0.5.17;\npragma experimental ABIEncoderV2;\n\n// Contracts\nimport \"./Consensus.sol\";\n\n// Interfaces\nimport \"../interfaces/LoanTermsConsensusInterface.sol\";\n\n/*****************************************************************************************************/\n/**                                             WARNING                                             **/\n/**                                  THIS CONTRACT IS UPGRADEABLE!                                  **/\n/**  ---------------------------------------------------------------------------------------------  **/\n/**  Do NOT change the order of or PREPEND any storage variables to this or new versions of this    **/\n/**  contract as this will cause the the storage slots to be overwritten on the proxy contract!!    **/\n/**                                                                                                 **/\n/**  Visit https://docs.openzeppelin.com/upgrades/2.6/proxies#upgrading-via-the-proxy-pattern for   **/\n/**  more information.                                                                              **/\n/*****************************************************************************************************/\n/**\n    @notice This contract is used to process the loan requests through the Teller protocol\n\n    @author develop@teller.finance\n */\ncontract LoanTermsConsensus is LoanTermsConsensusInterface, Consensus {\n    /* Mappings */\n    /**\n        @notice It identifies the loan terms submissions for a given borrower address and a request nonce.\n\n        @dev Examples:\n            @address(0x123...567) => 1 => AccruedLoanTerms({...})\n            @address(0x123...567) => 2 => AccruedLoanTerms({...})\n            @address(0x234...678) => 1 => AccruedLoanTerms({...})\n     */\n    mapping(address => mapping(uint256 => TellerCommon.AccruedLoanTerms))\n        public termSubmissions;\n\n    /**\n        This mapping identify the last request timestamp for a given borrower address.\n\n            Example:    address(0x123...789) = timestamp(now)\n        \n        It is used as rate limit per borrower address.\n     */\n    mapping(address => uint256) public borrowerToLastLoanTermRequest;\n\n    /**\n        @notice Processes the loan request\n        @param request Struct of the protocol loan request\n        @param responses List of structs of the protocol loan responses\n        @return uint256 Interest rate\n        @return uint256 Collateral ratio\n        @return uint256 Maximum loan amount\n     */\n    function processRequest(\n        TellerCommon.LoanRequest calldata request,\n        TellerCommon.LoanResponse[] calldata responses\n    )\n        external\n        isInitialized()\n        isCaller(msg.sender)\n        returns (\n            uint256 interestRate,\n            uint256 collateralRatio,\n            uint256 maxLoanAmount\n        )\n    {\n        require(\n            responses.length >=\n                settings().getPlatformSettingValue(\n                    settings().consts().REQUIRED_SUBMISSIONS_SETTING()\n                ),\n            \"LOANTERM_INSUFFICIENT_RESPONSES\"\n        );\n        _requireRequestLoanTermsRateLimit(request);\n        require(\n            !requestNonceTaken[request.borrower][request.requestNonce],\n            \"LOAN_TERMS_REQUEST_NONCE_TAKEN\"\n        );\n        requestNonceTaken[request.borrower][request.requestNonce] = true;\n\n        bytes32 requestHash = _hashRequest(request);\n\n        for (uint256 i = 0; i < responses.length; i++) {\n            _processResponse(request, responses[i], requestHash);\n        }\n\n        interestRate = _getConsensus(\n            termSubmissions[request.borrower][request.requestNonce].interestRate\n        );\n        collateralRatio = _getConsensus(\n            termSubmissions[request.borrower][request.requestNonce].collateralRatio\n        );\n        maxLoanAmount = _getConsensus(\n            termSubmissions[request.borrower][request.requestNonce].maxLoanAmount\n        );\n        borrowerToLastLoanTermRequest[request.borrower] = now;\n\n        emit TermsAccepted(\n            request.borrower,\n            request.requestNonce,\n            interestRate,\n            collateralRatio,\n            maxLoanAmount\n        );\n    }\n\n    /**\n        @notice Processes the loan response\n        @param request Struct of the protocol loan request\n        @param response List of structs of the protocol loan responses\n        @param requestHash bytes32 Hash of the loan request\n     */\n    function _processResponse(\n        TellerCommon.LoanRequest memory request,\n        TellerCommon.LoanResponse memory response,\n        bytes32 requestHash\n    ) internal {\n        bytes32 responseHash = _hashResponse(response, requestHash);\n\n        _validateResponse(\n            response.signer,\n            request.borrower,\n            request.requestNonce,\n            response.responseTime,\n            responseHash,\n            response.signature\n        );\n\n        termSubmissions[request.borrower][request.requestNonce].interestRate.addValue(\n            response.interestRate\n        );\n        termSubmissions[request.borrower][request.requestNonce].collateralRatio.addValue(\n            response.collateralRatio\n        );\n        termSubmissions[request.borrower][request.requestNonce].maxLoanAmount.addValue(\n            response.maxLoanAmount\n        );\n\n        emit TermsSubmitted(\n            response.signer,\n            request.borrower,\n            request.requestNonce,\n            response.signature.signerNonce,\n            response.interestRate,\n            response.collateralRatio,\n            response.maxLoanAmount\n        );\n    }\n\n    /**\n        @notice Generates a hash for the loan response\n        @param response Structs of the protocol loan responses\n        @param requestHash Hash of the loan request\n        @return bytes32 Hash of the loan response\n     */\n    function _hashResponse(TellerCommon.LoanResponse memory response, bytes32 requestHash)\n        internal\n        view\n        returns (bytes32)\n    {\n        return\n            keccak256(\n                abi.encode(\n                    response.consensusAddress,\n                    response.responseTime,\n                    response.interestRate,\n                    response.collateralRatio,\n                    response.maxLoanAmount,\n                    response.signature.signerNonce,\n                    _getChainId(),\n                    requestHash\n                )\n            );\n    }\n\n    /**\n        @notice Generates a hash for the loan request\n        @param request Struct of the protocol loan request\n        @return bytes32 Hash of the loan request\n     */\n    function _hashRequest(TellerCommon.LoanRequest memory request)\n        internal\n        view\n        returns (bytes32)\n    {\n        return\n            keccak256(\n                abi.encode(\n                    callerAddress,\n                    request.borrower,\n                    request.recipient,\n                    request.consensusAddress,\n                    request.requestNonce,\n                    request.amount,\n                    request.duration,\n                    request.requestTime,\n                    _getChainId()\n                )\n            );\n    }\n\n    /**\n        @notice It validates whether the time window between the last loan terms request and current one exceeds the maximum rate limit.\n        @param request the new request.\n        @dev It throws a require error if the request rate limit exceeds the maximum.\n     */\n    function _requireRequestLoanTermsRateLimit(TellerCommon.LoanRequest memory request)\n        internal\n        view\n    {\n        // In case it is the first time that borrower requests loan terms, we don't validate the rate limit.\n        if (borrowerToLastLoanTermRequest[request.borrower] == 0) {\n            return;\n        }\n        uint256 requestLoanTermsRateLimit = settings().getPlatformSettingValue(\n            settings().consts().REQUEST_LOAN_TERMS_RATE_LIMIT_SETTING()\n        );\n        require(\n            borrowerToLastLoanTermRequest[request.borrower].add(\n                requestLoanTermsRateLimit\n            ) <= now,\n            \"REQS_LOAN_TERMS_LMT_EXCEEDS_MAX\"\n        );\n    }\n}\n",
  "sourcePath": "/Users/guillesalazar/Repos/ZeroCollateral/smart-contracts-v1/contracts/base/LoanTermsConsensus.sol",
  "compiler": {
    "name": "solc",
    "version": "0.5.17+commit.d19bba13.Emscripten.clang"
  },
  "schemaVersion": "3.2.3",
  "updatedAt": "2020-10-12T16:12:27.720Z",
  "networkType": "ethereum",
  "devdoc": {
    "author": "develop@teller.finance",
    "methods": {
      "addSigner(address)": {
        "details": "The sender must be the owner.It throws a require error if the sender is not the owner.",
        "params": {
          "account": "address to add."
        }
      },
      "addSigners(address[])": {
        "details": "The sender must be the owner.It throws a require error if the sender is not the owner.",
        "params": {
          "accounts": "addresses to add."
        }
      },
      "initialize(address)": {
        "details": "Initializes the contract setting the deployer as the initial owner."
      },
      "initialize(address,address,address)": {
        "details": "The caller address must be the loans contract for LoanTermsConsensus, and the lenders contract for InterestConsensus.",
        "params": {
          "aCallerAddress": "the contract that will call it.",
          "aSettingAddress": "the settings contract address.",
          "owner": "the owner address."
        }
      },
      "initialized()": {
        "return": "true if contract is initialized. Otherwise it returns false."
      },
      "isOwner()": {
        "details": "Returns true if the caller is the current owner."
      },
      "isSigner(address)": {
        "params": {
          "account": "address to test."
        },
        "return": "true if account is a signer. Otherwise it returns false."
      },
      "owner()": {
        "details": "Returns the address of the current owner."
      },
      "processRequest((address,address,address,uint256,uint256,uint256,uint256),(address,address,uint256,uint256,uint256,uint256,(uint256,uint8,bytes32,bytes32))[])": {
        "params": {
          "request": "Struct of the protocol loan request",
          "responses": "List of structs of the protocol loan responses"
        },
        "return": "uint256 Interest rateuint256 Collateral ratiouint256 Maximum loan amount"
      },
      "removeSigner(address)": {
        "details": "The sender must be the owner.It throws a require error if the sender is not the owner.",
        "params": {
          "account": "address to remove."
        }
      },
      "renounceOwnership()": {
        "details": "Leaves the contract without owner. It will not be possible to call `onlyOwner` functions anymore. Can only be called by the current owner.     * > Note: Renouncing ownership will leave the contract without an owner, thereby removing any functionality that is only available to the owner."
      },
      "settings()": {
        "details": "This address should NOT change over the time. See details in the _setSettings(...) function."
      },
      "transferOwnership(address)": {
        "details": "Transfers ownership of the contract to a new account (`newOwner`). Can only be called by the current owner."
      }
    }
  },
  "userdoc": {
    "methods": {
      "addSigner(address)": {
        "notice": "It adds a new account as a signer."
      },
      "addSigners(address[])": {
        "notice": "It adds a list of account as signers."
      },
      "initialize(address,address,address)": {
        "notice": "It initializes this consensus contract."
      },
      "initialized()": {
        "notice": "Gets if the contract is initialized."
      },
      "isSigner(address)": {
        "notice": "Gets whether an account address is a signer or not."
      },
      "processRequest((address,address,address,uint256,uint256,uint256,uint256),(address,address,uint256,uint256,uint256,uint256,(uint256,uint8,bytes32,bytes32))[])": {
        "notice": "Processes the loan request"
      },
      "removeSigner(address)": {
        "notice": "It removes an account as signer."
      },
      "settings()": {
        "notice": "The gets the settings contract address from the SETTINGS_SLOT."
      }
    },
    "notice": "This contract is used to process the loan requests through the Teller protocol"
  }
}