{
  "contractName": "LoansBaseModifiersMock",
  "abi": [
    {
      "anonymous": false,
      "inputs": [
        {
          "indexed": true,
          "internalType": "uint256",
          "name": "loanID",
          "type": "uint256"
        },
        {
          "indexed": true,
          "internalType": "address",
          "name": "borrower",
          "type": "address"
        },
        {
          "indexed": false,
          "internalType": "uint256",
          "name": "depositAmount",
          "type": "uint256"
        }
      ],
      "name": "CollateralDeposited",
      "type": "event"
    },
    {
      "anonymous": false,
      "inputs": [
        {
          "indexed": true,
          "internalType": "uint256",
          "name": "loanID",
          "type": "uint256"
        },
        {
          "indexed": true,
          "internalType": "address",
          "name": "borrower",
          "type": "address"
        },
        {
          "indexed": false,
          "internalType": "uint256",
          "name": "withdrawalAmount",
          "type": "uint256"
        }
      ],
      "name": "CollateralWithdrawn",
      "type": "event"
    },
    {
      "anonymous": false,
      "inputs": [
        {
          "indexed": true,
          "internalType": "uint256",
          "name": "loanID",
          "type": "uint256"
        },
        {
          "indexed": true,
          "internalType": "address",
          "name": "borrower",
          "type": "address"
        },
        {
          "indexed": false,
          "internalType": "address",
          "name": "liquidator",
          "type": "address"
        },
        {
          "indexed": false,
          "internalType": "uint256",
          "name": "collateralOut",
          "type": "uint256"
        },
        {
          "indexed": false,
          "internalType": "uint256",
          "name": "tokensIn",
          "type": "uint256"
        }
      ],
      "name": "LoanLiquidated",
      "type": "event"
    },
    {
      "anonymous": false,
      "inputs": [
        {
          "indexed": true,
          "internalType": "uint256",
          "name": "loanID",
          "type": "uint256"
        },
        {
          "indexed": true,
          "internalType": "address",
          "name": "borrower",
          "type": "address"
        },
        {
          "indexed": false,
          "internalType": "uint256",
          "name": "amountPaid",
          "type": "uint256"
        },
        {
          "indexed": false,
          "internalType": "address",
          "name": "payer",
          "type": "address"
        },
        {
          "indexed": false,
          "internalType": "uint256",
          "name": "totalOwed",
          "type": "uint256"
        }
      ],
      "name": "LoanRepaid",
      "type": "event"
    },
    {
      "anonymous": false,
      "inputs": [
        {
          "indexed": true,
          "internalType": "uint256",
          "name": "loanID",
          "type": "uint256"
        },
        {
          "indexed": true,
          "internalType": "address",
          "name": "borrower",
          "type": "address"
        },
        {
          "indexed": true,
          "internalType": "address",
          "name": "escrow",
          "type": "address"
        },
        {
          "indexed": false,
          "internalType": "uint256",
          "name": "amountBorrowed",
          "type": "uint256"
        }
      ],
      "name": "LoanTakenOut",
      "type": "event"
    },
    {
      "anonymous": false,
      "inputs": [
        {
          "indexed": true,
          "internalType": "uint256",
          "name": "loanID",
          "type": "uint256"
        },
        {
          "indexed": true,
          "internalType": "address",
          "name": "borrower",
          "type": "address"
        },
        {
          "indexed": true,
          "internalType": "address",
          "name": "recipient",
          "type": "address"
        },
        {
          "indexed": false,
          "internalType": "uint256",
          "name": "interestRate",
          "type": "uint256"
        },
        {
          "indexed": false,
          "internalType": "uint256",
          "name": "collateralRatio",
          "type": "uint256"
        },
        {
          "indexed": false,
          "internalType": "uint256",
          "name": "maxLoanAmount",
          "type": "uint256"
        },
        {
          "indexed": false,
          "internalType": "uint256",
          "name": "duration",
          "type": "uint256"
        },
        {
          "indexed": false,
          "internalType": "uint256",
          "name": "termsExpiry",
          "type": "uint256"
        }
      ],
      "name": "LoanTermsSet",
      "type": "event"
    },
    {
      "anonymous": false,
      "inputs": [
        {
          "indexed": true,
          "internalType": "address",
          "name": "sender",
          "type": "address"
        },
        {
          "indexed": true,
          "internalType": "address",
          "name": "oldPriceOracle",
          "type": "address"
        },
        {
          "indexed": true,
          "internalType": "address",
          "name": "newPriceOracle",
          "type": "address"
        }
      ],
      "name": "PriceOracleUpdated",
      "type": "event"
    },
    {
      "constant": true,
      "inputs": [
        {
          "internalType": "address",
          "name": "",
          "type": "address"
        },
        {
          "internalType": "uint256",
          "name": "",
          "type": "uint256"
        }
      ],
      "name": "borrowerLoans",
      "outputs": [
        {
          "internalType": "uint256",
          "name": "",
          "type": "uint256"
        }
      ],
      "payable": false,
      "stateMutability": "view",
      "type": "function"
    },
    {
      "constant": true,
      "inputs": [],
      "name": "cToken",
      "outputs": [
        {
          "internalType": "address",
          "name": "",
          "type": "address"
        }
      ],
      "payable": false,
      "stateMutability": "view",
      "type": "function"
    },
    {
      "constant": true,
      "inputs": [
        {
          "internalType": "uint256",
          "name": "loanID",
          "type": "uint256"
        }
      ],
      "name": "canLiquidateLoan",
      "outputs": [
        {
          "internalType": "bool",
          "name": "",
          "type": "bool"
        }
      ],
      "payable": false,
      "stateMutability": "view",
      "type": "function"
    },
    {
      "constant": true,
      "inputs": [],
      "name": "collateralToken",
      "outputs": [
        {
          "internalType": "address",
          "name": "",
          "type": "address"
        }
      ],
      "payable": false,
      "stateMutability": "view",
      "type": "function"
    },
    {
      "constant": false,
      "inputs": [
        {
          "components": [
            {
              "internalType": "address payable",
              "name": "borrower",
              "type": "address"
            },
            {
              "internalType": "address",
              "name": "recipient",
              "type": "address"
            },
            {
              "internalType": "address",
              "name": "consensusAddress",
              "type": "address"
            },
            {
              "internalType": "uint256",
              "name": "requestNonce",
              "type": "uint256"
            },
            {
              "internalType": "uint256",
              "name": "amount",
              "type": "uint256"
            },
            {
              "internalType": "uint256",
              "name": "duration",
              "type": "uint256"
            },
            {
              "internalType": "uint256",
              "name": "requestTime",
              "type": "uint256"
            }
          ],
          "internalType": "struct TellerCommon.LoanRequest",
          "name": "request",
          "type": "tuple"
        },
        {
          "components": [
            {
              "internalType": "address",
              "name": "signer",
              "type": "address"
            },
            {
              "internalType": "address",
              "name": "consensusAddress",
              "type": "address"
            },
            {
              "internalType": "uint256",
              "name": "responseTime",
              "type": "uint256"
            },
            {
              "internalType": "uint256",
              "name": "interestRate",
              "type": "uint256"
            },
            {
              "internalType": "uint256",
              "name": "collateralRatio",
              "type": "uint256"
            },
            {
              "internalType": "uint256",
              "name": "maxLoanAmount",
              "type": "uint256"
            },
            {
              "components": [
                {
                  "internalType": "uint256",
                  "name": "signerNonce",
                  "type": "uint256"
                },
                {
                  "internalType": "uint8",
                  "name": "v",
                  "type": "uint8"
                },
                {
                  "internalType": "bytes32",
                  "name": "r",
                  "type": "bytes32"
                },
                {
                  "internalType": "bytes32",
                  "name": "s",
                  "type": "bytes32"
                }
              ],
              "internalType": "struct TellerCommon.Signature",
              "name": "signature",
              "type": "tuple"
            }
          ],
          "internalType": "struct TellerCommon.LoanResponse[]",
          "name": "responses",
          "type": "tuple[]"
        },
        {
          "internalType": "uint256",
          "name": "collateralAmount",
          "type": "uint256"
        }
      ],
      "name": "createLoanWithTerms",
      "outputs": [],
      "payable": true,
      "stateMutability": "payable",
      "type": "function"
    },
    {
      "constant": false,
      "inputs": [
        {
          "internalType": "address",
          "name": "borrower",
          "type": "address"
        },
        {
          "internalType": "uint256",
          "name": "loanID",
          "type": "uint256"
        },
        {
          "internalType": "uint256",
          "name": "amount",
          "type": "uint256"
        }
      ],
      "name": "depositCollateral",
      "outputs": [],
      "payable": true,
      "stateMutability": "payable",
      "type": "function"
    },
    {
      "constant": true,
      "inputs": [
        {
          "internalType": "address",
          "name": "borrower",
          "type": "address"
        }
      ],
      "name": "getBorrowerLoans",
      "outputs": [
        {
          "internalType": "uint256[]",
          "name": "",
          "type": "uint256[]"
        }
      ],
      "payable": false,
      "stateMutability": "view",
      "type": "function"
    },
    {
      "constant": true,
      "inputs": [
        {
          "internalType": "uint256",
          "name": "loanID",
          "type": "uint256"
        }
      ],
      "name": "getCollateralInfo",
      "outputs": [
        {
          "components": [
            {
              "internalType": "uint256",
              "name": "collateral",
              "type": "uint256"
            },
            {
              "internalType": "uint256",
              "name": "neededInLendingTokens",
              "type": "uint256"
            },
            {
              "internalType": "uint256",
              "name": "neededInCollateralTokens",
              "type": "uint256"
            },
            {
              "internalType": "bool",
              "name": "moreCollateralRequired",
              "type": "bool"
            }
          ],
          "internalType": "struct TellerCommon.LoanCollateralInfo",
          "name": "",
          "type": "tuple"
        }
      ],
      "payable": false,
      "stateMutability": "view",
      "type": "function"
    },
    {
      "constant": true,
      "inputs": [
        {
          "internalType": "uint256",
          "name": "loanID",
          "type": "uint256"
        }
      ],
      "name": "getTotalOwed",
      "outputs": [
        {
          "internalType": "uint256",
          "name": "",
          "type": "uint256"
        }
      ],
      "payable": false,
      "stateMutability": "view",
      "type": "function"
    },
    {
      "constant": false,
      "inputs": [
        {
          "internalType": "address",
          "name": "priceOracleAddress",
          "type": "address"
        },
        {
          "internalType": "address",
          "name": "lendingPoolAddress",
          "type": "address"
        },
        {
          "internalType": "address",
          "name": "loanTermsConsensusAddress",
          "type": "address"
        },
        {
          "internalType": "address",
          "name": "settingsAddress",
          "type": "address"
        },
        {
          "internalType": "address",
          "name": "",
          "type": "address"
        }
      ],
      "name": "initialize",
      "outputs": [],
      "payable": false,
      "stateMutability": "nonpayable",
      "type": "function"
    },
    {
      "constant": false,
      "inputs": [],
      "name": "initialize",
      "outputs": [],
      "payable": false,
      "stateMutability": "nonpayable",
      "type": "function"
    },
    {
      "constant": true,
      "inputs": [],
      "name": "initialized",
      "outputs": [
        {
          "internalType": "bool",
          "name": "value",
          "type": "bool"
        }
      ],
      "payable": false,
      "stateMutability": "view",
      "type": "function"
    },
    {
      "constant": true,
      "inputs": [],
      "name": "lendingPool",
      "outputs": [
        {
          "internalType": "contract LendingPoolInterface",
          "name": "",
          "type": "address"
        }
      ],
      "payable": false,
      "stateMutability": "view",
      "type": "function"
    },
    {
      "constant": true,
      "inputs": [],
      "name": "lendingToken",
      "outputs": [
        {
          "internalType": "address",
          "name": "",
          "type": "address"
        }
      ],
      "payable": false,
      "stateMutability": "view",
      "type": "function"
    },
    {
      "constant": false,
      "inputs": [
        {
          "internalType": "uint256",
          "name": "loanID",
          "type": "uint256"
        }
      ],
      "name": "liquidateLoan",
      "outputs": [],
      "payable": false,
      "stateMutability": "nonpayable",
      "type": "function"
    },
    {
      "constant": true,
      "inputs": [],
      "name": "loanIDCounter",
      "outputs": [
        {
          "internalType": "uint256",
          "name": "",
          "type": "uint256"
        }
      ],
      "payable": false,
      "stateMutability": "view",
      "type": "function"
    },
    {
      "constant": true,
      "inputs": [],
      "name": "loanTermsConsensus",
      "outputs": [
        {
          "internalType": "contract LoanTermsConsensusInterface",
          "name": "",
          "type": "address"
        }
      ],
      "payable": false,
      "stateMutability": "view",
      "type": "function"
    },
    {
      "constant": true,
      "inputs": [
        {
          "internalType": "uint256",
          "name": "",
          "type": "uint256"
        }
      ],
      "name": "loans",
      "outputs": [
        {
          "internalType": "uint256",
          "name": "id",
          "type": "uint256"
        },
        {
          "components": [
            {
              "internalType": "address payable",
              "name": "borrower",
              "type": "address"
            },
            {
              "internalType": "address",
              "name": "recipient",
              "type": "address"
            },
            {
              "internalType": "uint256",
              "name": "interestRate",
              "type": "uint256"
            },
            {
              "internalType": "uint256",
              "name": "collateralRatio",
              "type": "uint256"
            },
            {
              "internalType": "uint256",
              "name": "maxLoanAmount",
              "type": "uint256"
            },
            {
              "internalType": "uint256",
              "name": "duration",
              "type": "uint256"
            }
          ],
          "internalType": "struct TellerCommon.LoanTerms",
          "name": "loanTerms",
          "type": "tuple"
        },
        {
          "internalType": "uint256",
          "name": "termsExpiry",
          "type": "uint256"
        },
        {
          "internalType": "uint256",
          "name": "loanStartTime",
          "type": "uint256"
        },
        {
          "internalType": "uint256",
          "name": "collateral",
          "type": "uint256"
        },
        {
          "internalType": "uint256",
          "name": "lastCollateralIn",
          "type": "uint256"
        },
        {
          "internalType": "uint256",
          "name": "principalOwed",
          "type": "uint256"
        },
        {
          "internalType": "uint256",
          "name": "interestOwed",
          "type": "uint256"
        },
        {
          "internalType": "uint256",
          "name": "borrowedAmount",
          "type": "uint256"
        },
        {
          "internalType": "address",
          "name": "escrow",
          "type": "address"
        },
        {
          "internalType": "enum TellerCommon.LoanStatus",
          "name": "status",
          "type": "uint8"
        },
        {
          "internalType": "bool",
          "name": "liquidated",
          "type": "bool"
        }
      ],
      "payable": false,
      "stateMutability": "view",
      "type": "function"
    },
    {
      "constant": true,
      "inputs": [],
      "name": "mockIsSupplyToDebtRatioValid",
      "outputs": [
        {
          "internalType": "bool",
          "name": "",
          "type": "bool"
        }
      ],
      "payable": false,
      "stateMutability": "view",
      "type": "function"
    },
    {
      "constant": true,
      "inputs": [],
      "name": "priceOracle",
      "outputs": [
        {
          "internalType": "address",
          "name": "",
          "type": "address"
        }
      ],
      "payable": false,
      "stateMutability": "view",
      "type": "function"
    },
    {
      "constant": false,
      "inputs": [
        {
          "internalType": "uint256",
          "name": "amount",
          "type": "uint256"
        },
        {
          "internalType": "uint256",
          "name": "loanID",
          "type": "uint256"
        }
      ],
      "name": "repay",
      "outputs": [],
      "payable": false,
      "stateMutability": "nonpayable",
      "type": "function"
    },
    {
      "constant": true,
      "inputs": [],
      "name": "returnIsSupplyToDebtRatioValid",
      "outputs": [
        {
          "internalType": "bool",
          "name": "",
          "type": "bool"
        }
      ],
      "payable": false,
      "stateMutability": "view",
      "type": "function"
    },
    {
      "constant": false,
      "inputs": [
        {
          "internalType": "address",
          "name": "newPriceOracle",
          "type": "address"
        }
      ],
      "name": "setPriceOracle",
      "outputs": [],
      "payable": false,
      "stateMutability": "nonpayable",
      "type": "function"
    },
    {
      "constant": true,
      "inputs": [],
      "name": "settings",
      "outputs": [
        {
          "internalType": "contract SettingsInterface",
          "name": "",
          "type": "address"
        }
      ],
      "payable": false,
      "stateMutability": "view",
      "type": "function"
    },
    {
      "constant": true,
      "inputs": [],
      "name": "tToken",
      "outputs": [
        {
          "internalType": "address",
          "name": "",
          "type": "address"
        }
      ],
      "payable": false,
      "stateMutability": "view",
      "type": "function"
    },
    {
      "constant": false,
      "inputs": [
        {
          "internalType": "uint256",
          "name": "loanID",
          "type": "uint256"
        },
        {
          "internalType": "uint256",
          "name": "amountBorrow",
          "type": "uint256"
        }
      ],
      "name": "takeOutLoan",
      "outputs": [],
      "payable": false,
      "stateMutability": "nonpayable",
      "type": "function"
    },
    {
      "constant": true,
      "inputs": [],
      "name": "totalCollateral",
      "outputs": [
        {
          "internalType": "uint256",
          "name": "",
          "type": "uint256"
        }
      ],
      "payable": false,
      "stateMutability": "view",
      "type": "function"
    },
    {
      "constant": false,
      "inputs": [
        {
          "internalType": "uint256",
          "name": "amount",
          "type": "uint256"
        },
        {
          "internalType": "uint256",
          "name": "loanID",
          "type": "uint256"
        }
      ],
      "name": "withdrawCollateral",
      "outputs": [],
      "payable": false,
      "stateMutability": "nonpayable",
      "type": "function"
    },
    {
      "constant": false,
      "inputs": [
        {
          "internalType": "bool",
          "name": "result",
          "type": "bool"
        },
        {
          "internalType": "bool",
          "name": "aResponseIsSupplyToDebtRatioValid",
          "type": "bool"
        }
      ],
      "name": "setMockIsSupplyToDebtRatioValid",
      "outputs": [],
      "payable": false,
      "stateMutability": "nonpayable",
      "type": "function"
    },
    {
      "constant": false,
      "inputs": [
        {
          "internalType": "uint256",
          "name": "loanID",
          "type": "uint256"
        },
        {
          "internalType": "enum TellerCommon.LoanStatus",
          "name": "status",
          "type": "uint8"
        }
      ],
      "name": "setLoanStatus",
      "outputs": [],
      "payable": false,
      "stateMutability": "nonpayable",
      "type": "function"
    },
    {
      "constant": false,
      "inputs": [
        {
          "internalType": "uint256",
          "name": "loanID",
          "type": "uint256"
        }
      ],
      "name": "externalLoanActive",
      "outputs": [],
      "payable": false,
      "stateMutability": "nonpayable",
      "type": "function"
    },
    {
      "constant": false,
      "inputs": [
        {
          "internalType": "uint256",
          "name": "loanID",
          "type": "uint256"
        }
      ],
      "name": "externalLoanTermsSet",
      "outputs": [],
      "payable": false,
      "stateMutability": "nonpayable",
      "type": "function"
    },
    {
      "constant": false,
      "inputs": [
        {
          "internalType": "uint256",
          "name": "loanID",
          "type": "uint256"
        }
      ],
      "name": "externalLoanActiveOrSet",
      "outputs": [],
      "payable": false,
      "stateMutability": "nonpayable",
      "type": "function"
    },
    {
      "constant": false,
      "inputs": [
        {
          "internalType": "address",
          "name": "anAddress",
          "type": "address"
        }
      ],
      "name": "externalIsBorrower",
      "outputs": [],
      "payable": false,
      "stateMutability": "nonpayable",
      "type": "function"
    },
    {
      "constant": false,
      "inputs": [
        {
          "components": [
            {
              "internalType": "address payable",
              "name": "borrower",
              "type": "address"
            },
            {
              "internalType": "address",
              "name": "recipient",
              "type": "address"
            },
            {
              "internalType": "address",
              "name": "consensusAddress",
              "type": "address"
            },
            {
              "internalType": "uint256",
              "name": "requestNonce",
              "type": "uint256"
            },
            {
              "internalType": "uint256",
              "name": "amount",
              "type": "uint256"
            },
            {
              "internalType": "uint256",
              "name": "duration",
              "type": "uint256"
            },
            {
              "internalType": "uint256",
              "name": "requestTime",
              "type": "uint256"
            }
          ],
          "internalType": "struct TellerCommon.LoanRequest",
          "name": "loanRequest",
          "type": "tuple"
        }
      ],
      "name": "externalWithValidLoanRequest",
      "outputs": [],
      "payable": false,
      "stateMutability": "nonpayable",
      "type": "function"
    }
  ],
  "bytecode": "0x608060405234801561001057600080fd5b50615317806100206000396000f3fe6080604052600436106102045760003560e01c80638129fc1c11610118578063ccdd9f5d116100a0578063e1ec3c681161006f578063e1ec3c6814610561578063e3ed190214610599578063ecdfa39f146105b9578063eee8b7ff146105d9578063fd560a951461060657610204565b8063ccdd9f5d146104ec578063d8aed1451461050c578063de073a4d1461052c578063e06174e41461054c57610204565b8063a5e8a069116100e7578063a5e8a0691461046d578063aaaca5581461048d578063b2016bd4146104a2578063c35d64ea146104b7578063c72e188c146104cc57610204565b80638129fc1c14610403578063934b5d1314610418578063a59a997314610445578063a5c5c7b21461045a57610204565b80634ac8eb5f1161019b5780636946102f1161016a5780636946102f146103795780636948f32b1461039957806369e527da146103b9578063743c495a146103ce578063767a7b05146103e357610204565b80634ac8eb5f1461030d5780635134845414610322578063530e784f1461033757806358895e3d1461035757610204565b8063158ef93e116101d7578063158ef93e146102965780631a74856b146102ab5780632630c12f146102be5780633b929300146102e057610204565b806302bc2cdb14610209578063043e5ed61461022b5780630adfa02a146102565780631459457a14610276575b600080fd5b34801561021557600080fd5b5061022961022436600461425c565b610626565b005b34801561023757600080fd5b50610240610d08565b60405161024d9190614e0a565b60405180910390f35b34801561026257600080fd5b5061022961027136600461420e565b610d11565b34801561028257600080fd5b50610229610291366004613fe0565b610d5c565b3480156102a257600080fd5b50610240610e2c565b6102296102b936600461408f565b610e4b565b3480156102ca57600080fd5b506102d361100c565b60405161024d9190614d64565b3480156102ec57600080fd5b506103006102fb36600461420e565b61101b565b60405161024d9190614e18565b34801561031957600080fd5b5061030061104b565b34801561032e57600080fd5b50610300611051565b34801561034357600080fd5b50610229610352366004613fa4565b611057565b34801561036357600080fd5b5061036c6111b5565b60405161024d9190614e26565b34801561038557600080fd5b5061022961039436600461420e565b6111c4565b3480156103a557600080fd5b506102406103b436600461420e565b61120b565b3480156103c557600080fd5b506102d3611364565b3480156103da57600080fd5b506102406113e6565b3480156103ef57600080fd5b506102296103fe36600461425c565b6113f4565b34801561040f57600080fd5b5061022961160d565b34801561042457600080fd5b5061043861043336600461420e565b611695565b60405161024d9190615015565b34801561045157600080fd5b5061036c6116a6565b610229610468366004614184565b6116b5565b34801561047957600080fd5b506102296104883660046140fa565b611caa565b34801561049957600080fd5b506102d3611ccd565b3480156104ae57600080fd5b506102d3611d12565b3480156104c357600080fd5b506102d3611d21565b3480156104d857600080fd5b506102296104e736600461420e565b611d66565b3480156104f857600080fd5b5061022961050736600461420e565b611dde565b34801561051857600080fd5b5061022961052736600461425c565b61218e565b34801561053857600080fd5b50610229610547366004614166565b612594565b34801561055857600080fd5b5061036c61288e565b34801561056d57600080fd5b5061058161057c36600461420e565b6128b0565b60405161024d9c9b9a99989796959493929190615089565b3480156105a557600080fd5b506103006105b4366004614055565b612968565b3480156105c557600080fd5b506102296105d436600461422c565b612996565b3480156105e557600080fd5b506105f96105f4366004613fa4565b6129cd565b60405161024d9190614df9565b34801561061257600080fd5b50610229610621366004613fa4565b612a39565b8160016000828152606d60205260409020600e0154600160a01b900460ff16600381111561065057fe5b146106765760405162461bcd60e51b815260040161066d90614fe5565b60405180910390fd5b61067e610e2c565b61069a5760405162461bcd60e51b815260040161066d90614fd5565b6106a2612a62565b156106bf5760405162461bcd60e51b815260040161066d90614f15565b606a546001600160a01b03166106d481612adc565b156106f15760405162461bcd60e51b815260040161066d90614e65565b603380546001908101918290556000868152606d6020526040902001546001600160a01b03163381146107365760405162461bcd60e51b815260040161066d90614fa5565b6000868152606d60205260409020600501548511156107675760405162461bcd60e51b815260040161066d90614e85565b6000868152606d60205260409020600701544211156107985760405162461bcd60e51b815260040161066d90614f55565b6109126107a361288e565b6001600160a01b031663269012a06107b961288e565b6001600160a01b031663d86d744e6040518163ffffffff1660e01b815260040160206040518083038186803b1580156107f157600080fd5b505afa158015610805573d6000803e3d6000fd5b505050506040513d601f19601f820116820180604052506108299190810190614148565b6001600160a01b03166311880cc86040518163ffffffff1660e01b815260040160206040518083038186803b15801561086157600080fd5b505afa158015610875573d6000803e3d6000fd5b505050506040513d601f19601f82011682018060405250610899919081019061412a565b6040518263ffffffff1660e01b81526004016108b59190614e18565b60206040518083038186803b1580156108cd57600080fd5b505afa1580156108e1573d6000803e3d6000fd5b505050506040513d601f19601f82011682018060405250610905919081019061412a565b429063ffffffff612b6116565b6000878152606d60205260409020600a015411156109425760405162461bcd60e51b815260040161066d90614f45565b6000868152606d60205260409020600d8101869055600b810186905560068101546003909101546109a7916301e133809161099b916127109183919061098f908c9063ffffffff612bac16565b9063ffffffff612bac16565b9063ffffffff612be616565b6000878152606d60205260409020600c01556109c1613d3c565b6109ca87612c28565b90508060600151156109ee5760405162461bcd60e51b815260040161066d90614f25565b6000878152606d60205260409020426008820155600e01805460ff60a01b1916600160a11b179055610a1f87612c79565b6000888152606d602052604090819020600e0180546001600160a01b0319166001600160a01b039384161790819055606a549151631397424760e11b81529183169263272e848e92610a77928b921690600401615045565b600060405180830381600087803b158015610a9157600080fd5b505af1158015610aa5573d6000803e3d6000fd5b5050506000888152606d602052604090819020600e0154905163cd6dc68760e01b81526001600160a01b03909116915063cd6dc68790610aeb9030908b90600401614dde565b600060405180830381600087803b158015610b0557600080fd5b505af1158015610b19573d6000803e3d6000fd5b50505050610b25612d72565b6001600160a01b031663c7bbb113606a60009054906101000a90046001600160a01b03166001600160a01b031663aaaca5586040518163ffffffff1660e01b815260040160206040518083038186803b158015610b8157600080fd5b505afa158015610b95573d6000803e3d6000fd5b505050506040513d601f19601f82011682018060405250610bb99190810190613fc2565b306001600160a01b031663b2016bd46040518163ffffffff1660e01b815260040160206040518083038186803b158015610bf257600080fd5b505afa158015610c06573d6000803e3d6000fd5b505050506040513d601f19601f82011682018060405250610c2a9190810190613fc2565b896040518463ffffffff1660e01b8152600401610c4993929190614dc3565b600060405180830381600087803b158015610c6357600080fd5b505af1158015610c77573d6000803e3d6000fd5b5050506000888152606d602052604090819020600e81015460019091015491516001600160a01b03918216935091169089907f85b5516a17ce775661a4b967b1fb30c852678f6598d86d9f3c99b7b60ff2d0ce90610cd6908b90614e18565b60405180910390a450506033548114610d015760405162461bcd60e51b815260040161066d90614ff5565b5050505050565b606e5460ff1681565b8060026000828152606d60205260409020600e0154600160a01b900460ff166003811115610d3b57fe5b14610d585760405162461bcd60e51b815260040161066d90614ef5565b5050565b610d64610e2c565b15610d815760405162461bcd60e51b815260040161066d90615005565b610d8d85858585612dec565b610d9561288e565b6001600160a01b031663a734f06e6040518163ffffffff1660e01b815260040160206040518083038186803b158015610dcd57600080fd5b505afa158015610de1573d6000803e3d6000fd5b505050506040513d601f19601f82011682018060405250610e059190810190613fc2565b606780546001600160a01b0319166001600160a01b03929092169190911790555050505050565b600080604051610e3b90614d4e565b6040519081900390205492915050565b8160016000828152606d60205260409020600e0154600160a01b900460ff166003811115610e7557fe5b1480610ea7575060026000828152606d60205260409020600e0154600160a01b900460ff166003811115610ea557fe5b145b610ec35760405162461bcd60e51b815260040161066d90614ec5565b610ecb610e2c565b610ee75760405162461bcd60e51b815260040161066d90614fd5565b610eef612a62565b15610f0c5760405162461bcd60e51b815260040161066d90614f15565b606a546001600160a01b0316610f2181612adc565b15610f3e5760405162461bcd60e51b815260040161066d90614e65565b6000848152606d60205260409020600101546001600160a01b03868116911614610f7a5760405162461bcd60e51b815260040161066d90614ea5565b823414610f995760405162461bcd60e51b815260040161066d90614eb5565b60003411610fb95760405162461bcd60e51b815260040161066d90614f85565b610fc38484612f3d565b846001600160a01b0316847feec2f3feb835e2f2fd44281034b04700a1ddda63dd402949d470a25a7c40b36c85604051610ffd9190614e18565b60405180910390a35050505050565b6069546001600160a01b031681565b6000818152606d60205260408120600b810154600c909101546110439163ffffffff612f9616565b90505b919050565b60665481565b60685481565b61105f610e2c565b61107b5760405162461bcd60e51b815260040161066d90614fd5565b61108361288e565b6001600160a01b031663c095ea27336040518263ffffffff1660e01b81526004016110ae9190614d72565b60006040518083038186803b1580156110c657600080fd5b505afa1580156110da573d6000803e3d6000fd5b505050506110f0816001600160a01b0316612fbb565b61110c5760405162461bcd60e51b815260040161066d90614f95565b60695460408051808201909152601b81527f4e45575f4f5241434c455f4d5553545f42455f50524f5649444544000000000060208201526001600160a01b0390911690611162908290849063ffffffff612ff716565b606980546001600160a01b0319166001600160a01b03848116918217909255604051909183169033907ff51f0fffc8121ee3747e0536c487d894894cdba960ccfb4ab385a88d51b16fed90600090a45050565b606b546001600160a01b031681565b8060016000828152606d60205260409020600e0154600160a01b900460ff1660038111156111ee57fe5b14610d585760405162461bcd60e51b815260040161066d90614fe5565b6000611215612a62565b806112305750606a54611230906001600160a01b0316612adc565b80611262575060026000838152606d60205260409020600e0154600160a01b900460ff16600381111561125f57fe5b14155b1561126f57506000611046565b6000828152606d60205260408120600881015460069091015490914261129b848463ffffffff612f9616565b10905080156112b05760019350505050611046565b6000858152606d60205260409020600e01546001600160a01b0316801561134d57806001600160a01b031663415dfa5b6040518163ffffffff1660e01b815260040160206040518083038186803b15801561130a57600080fd5b505afa15801561131e573d6000803e3d6000fd5b505050506040513d601f19601f8201168201806040525061134291908101906140dc565b945050505050611046565b61135686612c28565b606001519695505050505050565b606a54604080516334f293ed60e11b815290516000926001600160a01b0316916369e527da916004808301926020929190829003018186803b1580156113a957600080fd5b505afa1580156113bd573d6000803e3d6000fd5b505050506040513d601f19601f820116820180604052506113e19190810190613fc2565b905090565b606e54610100900460ff1681565b8060016000828152606d60205260409020600e0154600160a01b900460ff16600381111561141e57fe5b1480611450575060026000828152606d60205260409020600e0154600160a01b900460ff16600381111561144e57fe5b145b61146c5760405162461bcd60e51b815260040161066d90614ec5565b611474610e2c565b6114905760405162461bcd60e51b815260040161066d90614fd5565b611498612a62565b156114b55760405162461bcd60e51b815260040161066d90614f15565b606a546001600160a01b03166114ca81612adc565b156114e75760405162461bcd60e51b815260040161066d90614e65565b603380546001908101918290556000858152606d6020526040902001546001600160a01b0316331461152b5760405162461bcd60e51b815260040161066d90614fb5565b6000851161154b5760405162461bcd60e51b815260040161066d90614f05565b600061155685613020565b9050600061156382613057565b6000878152606d602052604081206009015491925090611589908363ffffffff612b6116565b9050878111156115965750865b80156115a7576115a787823361319c565b336001600160a01b0316877f7c5e5cb62e5ed3caf3764e4b0afedfedef533e27809d43367799787ad2abcd41836040516115e19190614e18565b60405180910390a35050506033548114610d015760405162461bcd60e51b815260040161066d90614ff5565b600054610100900460ff1680611626575061162661321d565b80611634575060005460ff16155b6116505760405162461bcd60e51b815260040161066d90614f65565b600054610100900460ff1615801561167b576000805460ff1961ff0019909116610100171660011790555b60016033558015611692576000805461ff00191690555b50565b61169d613d3c565b61104382612c28565b606a546001600160a01b031681565b6116bd610e2c565b6116d95760405162461bcd60e51b815260040161066d90614fd5565b6116e1612a62565b156116fe5760405162461bcd60e51b815260040161066d90614f15565b61170b6020850185613fa4565b336001600160a01b038216146117335760405162461bcd60e51b815260040161066d90614fa5565b611742368690038601866141f0565b600061174c61288e565b6001600160a01b031663269012a061176261288e565b6001600160a01b031663d86d744e6040518163ffffffff1660e01b815260040160206040518083038186803b15801561179a57600080fd5b505afa1580156117ae573d6000803e3d6000fd5b505050506040513d601f19601f820116820180604052506117d29190810190614148565b6001600160a01b031663cc44cadb6040518163ffffffff1660e01b815260040160206040518083038186803b15801561180a57600080fd5b505afa15801561181e573d6000803e3d6000fd5b505050506040513d601f19601f82011682018060405250611842919081019061412a565b6040518263ffffffff1660e01b815260040161185e9190614e18565b60206040518083038186803b15801561187657600080fd5b505afa15801561188a573d6000803e3d6000fd5b505050506040513d601f19601f820116820180604052506118ae919081019061412a565b90508160a001518110156118d45760405162461bcd60e51b815260040161066d90614e45565b60006118de61288e565b6001600160a01b03166369ff7744606a60009054906101000a90046001600160a01b03166001600160a01b031663aaaca5586040518163ffffffff1660e01b815260040160206040518083038186803b15801561193a57600080fd5b505afa15801561194e573d6000803e3d6000fd5b505050506040513d601f19601f820116820180604052506119729190810190613fc2565b85608001516040518363ffffffff1660e01b8152600401611994929190614dde565b60206040518083038186803b1580156119ac57600080fd5b505afa1580156119c0573d6000803e3d6000fd5b505050506040513d601f19601f820116820180604052506119e491908101906140dc565b90508015611a045760405162461bcd60e51b815260040161066d90614e75565b611a118360800151613223565b611a2d5760405162461bcd60e51b815260040161066d90614fc5565b843414611a4c5760405162461bcd60e51b815260040161066d90614eb5565b6000611a56613250565b606b5460405163064e5d4960e01b8152919250600091829182916001600160a01b039091169063064e5d4990611a94908f908f908f90600401615023565b606060405180830381600087803b158015611aae57600080fd5b505af1158015611ac2573d6000803e3d6000fd5b505050506040513d601f19601f82011682018060405250611ae6919081019061427b565b91945092509050611b0884611b00368f90038f018f6141f0565b85858561326a565b6000858152606d6020908152604091829020835181558382015180516001830180546001600160a01b03199081166001600160a01b0393841617909155938201516002840180548616918316919091179055818501516003808501919091556060808401516004860155608080850151600587015560a0948501516006870155968801516007860155870151600885015594860151600984015590850151600a83015560c0850151600b83015560e0850151600c830155610100850151600d830155610120850151600e83018054909416911617808355610140850151919391929160ff60a01b1990911690600160a01b908490811115611c0557fe5b02179055506101609190910151600e9091018054911515600160a81b0260ff60a81b199092169190911790553415611c4157611c418434612f3d565b606c6000611c5260208f018f613fa4565b6001600160a01b031681526020808201929092526040016000908120805460018101825590825291902001849055611c9c84611c93368f90038f018f6141f0565b858585346134b9565b505050505050505050505050565b606e805460ff19169215159290921761ff00191661010091151591909102179055565b606a546040805163155594ab60e31b815290516000926001600160a01b03169163aaaca558916004808301926020929190829003018186803b1580156113a957600080fd5b6067546001600160a01b031681565b606a54604080516361aeb27560e11b815290516000926001600160a01b03169163c35d64ea916004808301926020929190829003018186803b1580156113a957600080fd5b8060016000828152606d60205260409020600e0154600160a01b900460ff166003811115611d9057fe5b1480611dc2575060026000828152606d60205260409020600e0154600160a01b900460ff166003811115611dc057fe5b145b610d585760405162461bcd60e51b815260040161066d90614ec5565b8060026000828152606d60205260409020600e0154600160a01b900460ff166003811115611e0857fe5b14611e255760405162461bcd60e51b815260040161066d90614ef5565b611e2d610e2c565b611e495760405162461bcd60e51b815260040161066d90614fd5565b611e51612a62565b15611e6e5760405162461bcd60e51b815260040161066d90614f15565b606a546001600160a01b0316611e8381612adc565b15611ea05760405162461bcd60e51b815260040161066d90614e65565b6033805460010190819055611eb48461120b565b611ed05760405162461bcd60e51b815260040161066d90614ee5565b6000848152606d60205260408120600e8101805460ff60a01b1916600360a01b1760ff60a81b1916600160a81b1790556009015490611f0e82613584565b9050611f1b86833361319c565b6000611f2561288e565b6001600160a01b031663269012a0611f3b61288e565b6001600160a01b031663d86d744e6040518163ffffffff1660e01b815260040160206040518083038186803b158015611f7357600080fd5b505afa158015611f87573d6000803e3d6000fd5b505050506040513d601f19601f82011682018060405250611fab9190810190614148565b6001600160a01b0316631139087a6040518163ffffffff1660e01b815260040160206040518083038186803b158015611fe357600080fd5b505afa158015611ff7573d6000803e3d6000fd5b505050506040513d601f19601f8201168201806040525061201b919081019061412a565b6040518263ffffffff1660e01b81526004016120379190614e18565b60206040518083038186803b15801561204f57600080fd5b505afa158015612063573d6000803e3d6000fd5b505050506040513d601f19601f82011682018060405250612087919081019061412a565b905060006120a161271061099b858563ffffffff612bac16565b606a546040516382f7b02760e01b81529192506001600160a01b0316906382f7b027906120d49084903390600401615053565b600060405180830381600087803b1580156120ee57600080fd5b505af1158015612102573d6000803e3d6000fd5b5050506000898152606d6020526040908190206001015490516001600160a01b03909116915089907f9950a0562c02382e2e840daa73082d5be7660ce37601f28fa4c84089c11e8a069061215b90339089908790614d80565b60405180910390a35050505060335481146121885760405162461bcd60e51b815260040161066d90614ff5565b50505050565b8060026000828152606d60205260409020600e0154600160a01b900460ff1660038111156121b857fe5b146121d55760405162461bcd60e51b815260040161066d90614ef5565b6121dd610e2c565b6121f95760405162461bcd60e51b815260040161066d90614fd5565b612201612a62565b1561221e5760405162461bcd60e51b815260040161066d90614f15565b606a546001600160a01b031661223381612adc565b156122505760405162461bcd60e51b815260040161066d90614e65565b6033805460010190819055846122785760405162461bcd60e51b815260040161066d90614e55565b8460006122848661101b565b905081811015612292578091505b6122a2818363ffffffff612b6116565b90506122ae8683613678565b80612352576000868152606d60205260409020600e8101805460ff60a01b1916600360a01b17905560098101546001909101546122f790889083906001600160a01b031661319c565b6000878152606d6020526040908190206001015490516001600160a01b039091169088907f7c5e5cb62e5ed3caf3764e4b0afedfedef533e27809d43367799787ad2abcd4190612348908590614e18565b60405180910390a3505b606a5460405163acb7081560e01b81526001600160a01b039091169063acb70815906123849085903390600401615053565b600060405180830381600087803b15801561239e57600080fd5b505af11580156123b2573d6000803e3d6000fd5b505050506123be612d72565b6001600160a01b03166362e269ef606a60009054906101000a90046001600160a01b03166001600160a01b031663aaaca5586040518163ffffffff1660e01b815260040160206040518083038186803b15801561241a57600080fd5b505afa15801561242e573d6000803e3d6000fd5b505050506040513d601f19601f820116820180604052506124529190810190613fc2565b306001600160a01b031663b2016bd46040518163ffffffff1660e01b815260040160206040518083038186803b15801561248b57600080fd5b505afa15801561249f573d6000803e3d6000fd5b505050506040513d601f19601f820116820180604052506124c39190810190613fc2565b856040518463ffffffff1660e01b81526004016124e293929190614dc3565b600060405180830381600087803b1580156124fc57600080fd5b505af1158015612510573d6000803e3d6000fd5b5050506000878152606d6020526040908190206001015490516001600160a01b03909116915087907f20a1f2ec363af45dc5ee7d9d622f2dd68b52501c382126c7f04b53663c4c69bf906125699086903390879061506e565b60405180910390a350506033548114610d015760405162461bcd60e51b815260040161066d90614ff5565b6125a3368290038201826141f0565b60006125ad61288e565b6001600160a01b031663269012a06125c361288e565b6001600160a01b031663d86d744e6040518163ffffffff1660e01b815260040160206040518083038186803b1580156125fb57600080fd5b505afa15801561260f573d6000803e3d6000fd5b505050506040513d601f19601f820116820180604052506126339190810190614148565b6001600160a01b031663cc44cadb6040518163ffffffff1660e01b815260040160206040518083038186803b15801561266b57600080fd5b505afa15801561267f573d6000803e3d6000fd5b505050506040513d601f19601f820116820180604052506126a3919081019061412a565b6040518263ffffffff1660e01b81526004016126bf9190614e18565b60206040518083038186803b1580156126d757600080fd5b505afa1580156126eb573d6000803e3d6000fd5b505050506040513d601f19601f8201168201806040525061270f919081019061412a565b90508160a001518110156127355760405162461bcd60e51b815260040161066d90614e45565b600061273f61288e565b6001600160a01b03166369ff7744606a60009054906101000a90046001600160a01b03166001600160a01b031663aaaca5586040518163ffffffff1660e01b815260040160206040518083038186803b15801561279b57600080fd5b505afa1580156127af573d6000803e3d6000fd5b505050506040513d601f19601f820116820180604052506127d39190810190613fc2565b85608001516040518363ffffffff1660e01b81526004016127f5929190614dde565b60206040518083038186803b15801561280d57600080fd5b505afa158015612821573d6000803e3d6000fd5b505050506040513d601f19601f8201168201806040525061284591908101906140dc565b905080156128655760405162461bcd60e51b815260040161066d90614e75565b6128728360800151613223565b6121885760405162461bcd60e51b815260040161066d90614fc5565b600080600060405161289f90614d59565b604051908190039020549250505090565b606d602090815260009182526040918290208054835160c08101855260018301546001600160a01b03908116825260028401548116948201949094526003830154948101949094526004820154606085015260058201546080850152600682015460a0850152600782015460088301546009840154600a850154600b860154600c870154600d880154600e9098015496999895979496939592949193909281169060ff600160a01b8204811691600160a81b9004168c565b606c602052816000526040600020818154811061298157fe5b90600052602060002001600091509150505481565b6000828152606d60205260409020600e01805482919060ff60a01b1916600160a01b8360038111156129c457fe5b02179055505050565b6001600160a01b0381166000908152606c6020908152604091829020805483518184028101840190945280845260609392830182828015612a2d57602002820191906000526020600020905b815481526020019060010190808311612a19575b50505050509050919050565b80336001600160a01b03821614610d585760405162461bcd60e51b815260040161066d90614fa5565b6000612a6c61288e565b6001600160a01b031663b187bd266040518163ffffffff1660e01b815260040160206040518083038186803b158015612aa457600080fd5b505afa158015612ab8573d6000803e3d6000fd5b505050506040513d601f19601f820116820180604052506113e191908101906140dc565b6000612ae661288e565b6001600160a01b0316633b668321836040518263ffffffff1660e01b8152600401612b119190614d64565b60206040518083038186803b158015612b2957600080fd5b505afa158015612b3d573d6000803e3d6000fd5b505050506040513d601f19601f8201168201806040525061104391908101906140dc565b6000612ba383836040518060400160405280601e81526020017f536166654d6174683a207375627472616374696f6e206f766572666c6f770000815250613733565b90505b92915050565b600082612bbb57506000612ba6565b82820282848281612bc857fe5b0414612ba35760405162461bcd60e51b815260040161066d90614f35565b6000612ba383836040518060400160405280601a81526020017f536166654d6174683a206469766973696f6e206279207a65726f000000000000815250613764565b612c30613d3c565b6000828152606d60205260408120600901549080612c4d8561379b565b604080516080810182528681526020810193909352820181905293909311606084015250909392505050565b6000612c8361288e565b6001600160a01b031663bdd1daaa6040518163ffffffff1660e01b815260040160206040518083038186803b158015612cbb57600080fd5b505afa158015612ccf573d6000803e3d6000fd5b505050506040513d601f19601f82011682018060405250612cf39190810190614148565b6001600160a01b0316634614874e30846040518363ffffffff1660e01b8152600401612d20929190614dde565b602060405180830381600087803b158015612d3a57600080fd5b505af1158015612d4e573d6000803e3d6000fd5b505050506040513d601f19601f820116820180604052506110439190810190613fc2565b6000612d7c61288e565b6001600160a01b0316631390f8d76040518163ffffffff1660e01b815260040160206040518083038186803b158015612db457600080fd5b505afa158015612dc8573d6000803e3d6000fd5b505050506040513d601f19601f820116820180604052506113e19190810190614148565b612df4610e2c565b15612e115760405162461bcd60e51b815260040161066d90615005565b60408051808201909152601681527550524f564944455f4f5241434c455f4144445245535360501b6020820152612e58906001600160a01b0386169063ffffffff6137bf16565b60408051808201909152601c81527f50524f564944455f4c454e44494e475f504f4f4c5f41444452455353000000006020820152612ea6906001600160a01b0385169063ffffffff6137bf16565b60408051808201909152601b81527f50524f56494445445f4c4f414e5f5445524d535f4144445245535300000000006020820152612ef4906001600160a01b0384169063ffffffff6137bf16565b612efd816137ec565b50606980546001600160a01b039485166001600160a01b031991821617909155606a805493851693821693909317909255606b8054919093169116179055565b606654612f50908263ffffffff612f9616565b6066556000828152606d6020526040902060090154612f75908263ffffffff612f9616565b6000928352606d602052604090922060098101929092555042600a90910155565b600082820183811015612ba35760405162461bcd60e51b815260040161066d90614e95565b6000813f7fc5d2460186f7233c927e7db2dcc703c0e500b653ca82273b7bfad8045d85a470818114801590612fef57508115155b949350505050565b613001838361389e565b81906121885760405162461bcd60e51b815260040161066d9190614e34565b60008061302c8361101b565b6000848152606d6020526040902060040154909150612fef61271061099b848463ffffffff612bac16565b6000806130f1606a60009054906101000a90046001600160a01b03166001600160a01b031663aaaca5586040518163ffffffff1660e01b815260040160206040518083038186803b1580156130ab57600080fd5b505afa1580156130bf573d6000803e3d6000fd5b505050506040513d601f19601f820116820180604052506130e39190810190613fc2565b6001600160a01b03166138b0565b90506000606960009054906101000a90046001600160a01b03166001600160a01b03166396237c026040518163ffffffff1660e01b815260040160206040518083038186803b15801561314357600080fd5b505afa158015613157573d6000803e3d6000fd5b505050506040513d601f19601f8201168201806040525061317b919081019061412a565b905060006131938361099b878563ffffffff612bac16565b95945050505050565b6066546131af908363ffffffff612b6116565b6066556000838152606d60205260409020600901546131d4908363ffffffff612b6116565b6000848152606d60205260408082206009019290925590516001600160a01b0383169184156108fc02918591818181858888f19350505050158015612188573d6000803e3d6000fd5b303b1590565b606e5460009060ff166132405761323982613931565b9050611046565b5050606e54610100900460ff1690565b60685461326481600163ffffffff612f9616565b60685590565b613272613d66565b600061327c61288e565b6001600160a01b031663269012a061329261288e565b6001600160a01b031663d86d744e6040518163ffffffff1660e01b815260040160206040518083038186803b1580156132ca57600080fd5b505afa1580156132de573d6000803e3d6000fd5b505050506040513d601f19601f820116820180604052506133029190810190614148565b6001600160a01b031663e00a46156040518163ffffffff1660e01b815260040160206040518083038186803b15801561333a57600080fd5b505afa15801561334e573d6000803e3d6000fd5b505050506040513d601f19601f82011682018060405250613372919081019061412a565b6040518263ffffffff1660e01b815260040161338e9190614e18565b60206040518083038186803b1580156133a657600080fd5b505afa1580156133ba573d6000803e3d6000fd5b505050506040513d601f19601f820116820180604052506133de919081019061412a565b905060006133f2428363ffffffff612f9616565b90506040518061018001604052808981526020016040518060c001604052808a600001516001600160a01b031681526020018a602001516001600160a01b031681526020018981526020018881526020018781526020018a60a00151815250815260200182815260200160008152602001600081526020016000815260200160008152602001600081526020016000815260200160006001600160a01b03168152602001600160038111156134a357fe5b8152600060209091015298975050505050505050565b84602001516001600160a01b031685600001516001600160a01b0316877f0358f509931cba53bbb6a94b7f05a5178220a0c7ddb54b1a1722df9e6ed6aa098787878b60a00151606d60008f815260200190815260200160002060070154604051613527959493929190615141565b60405180910390a4801561357c5784600001516001600160a01b0316867feec2f3feb835e2f2fd44281034b04700a1ddda63dd402949d470a25a7c40b36c836040516135739190614e18565b60405180910390a35b505050505050565b6000806135d8606a60009054906101000a90046001600160a01b03166001600160a01b031663aaaca5586040518163ffffffff1660e01b815260040160206040518083038186803b1580156130ab57600080fd5b90506000606960009054906101000a90046001600160a01b03166001600160a01b03166396237c026040518163ffffffff1660e01b815260040160206040518083038186803b15801561362a57600080fd5b505afa15801561363e573d6000803e3d6000fd5b505050506040513d601f19601f82011682018060405250613662919081019061412a565b9050612fef8161099b868563ffffffff612bac16565b6000828152606d60205260409020600b01548111156136fb576000828152606d60205260409020600b015481906136b690829063ffffffff612b6116565b6000848152606d60205260408120600b810191909155600c01549091506136e3908263ffffffff612b6116565b6000848152606d60205260409020600c015550610d58565b6000828152606d60205260409020600b015461371d908263ffffffff612b6116565b6000838152606d60205260409020600b01555050565b600081848411156137575760405162461bcd60e51b815260040161066d9190614e34565b50508183035b9392505050565b600081836137855760405162461bcd60e51b815260040161066d9190614e34565b50600083858161379157fe5b0495945050505050565b60008060006137a984613020565b9050806137b582613057565b9250925050915091565b6137c882613ca1565b81906137e75760405162461bcd60e51b815260040161066d9190614e34565b505050565b6137f4610e2c565b156138115760405162461bcd60e51b815260040161066d90615005565b60408051808201909152601981527f53455454494e47535f4d5553545f42455f50524f564944454400000000000000602082015261385f906001600160a01b0383169063ffffffff6137bf16565b613871816001600160a01b0316612fbb565b61388d5760405162461bcd60e51b815260040161066d90614ed5565b613895613caf565b61169281613ccd565b6001600160a01b039081169116141590565b600080826001600160a01b031663313ce5676040518163ffffffff1660e01b815260040160206040518083038186803b1580156138ec57600080fd5b505afa158015613900573d6000803e3d6000fd5b505050506040513d601f19601f8201168201806040525061392491908101906142be565b60ff16600a0a9392505050565b60008061393c61288e565b6001600160a01b031663dc21a6a06040518163ffffffff1660e01b815260040160206040518083038186803b15801561397457600080fd5b505afa158015613988573d6000803e3d6000fd5b505050506040513d601f19601f820116820180604052506139ac9190810190614148565b6001600160a01b0316631fb7cec9606a60009054906101000a90046001600160a01b03166001600160a01b031663aaaca5586040518163ffffffff1660e01b815260040160206040518083038186803b158015613a0857600080fd5b505afa158015613a1c573d6000803e3d6000fd5b505050506040513d601f19601f82011682018060405250613a409190810190613fc2565b6067546040516001600160e01b031960e085901b168152613a6e92916001600160a01b031690600401614da8565b60206040518083038186803b158015613a8657600080fd5b505afa158015613a9a573d6000803e3d6000fd5b505050506040513d601f19601f82011682018060405250613abe9190810190613fc2565b90506001600160a01b038116613ae65760405162461bcd60e51b815260040161066d90614f75565b604051632319178560e11b81526000906001600160a01b038316906346322f0a90613b24906b14dd5c1c1b1e551bd119589d60a21b90600401614e18565b60206040518083038186803b158015613b3c57600080fd5b505afa158015613b50573d6000803e3d6000fd5b505050506040513d601f19601f82011682018060405250613b74919081019061412a565b90506000613b80612d72565b6001600160a01b031663db63323e606a60009054906101000a90046001600160a01b03166001600160a01b031663aaaca5586040518163ffffffff1660e01b815260040160206040518083038186803b158015613bdc57600080fd5b505afa158015613bf0573d6000803e3d6000fd5b505050506040513d601f19601f82011682018060405250613c149190810190613fc2565b6067546040516001600160e01b031960e085901b168152613c4492916001600160a01b0316908a90600401614dc3565b60206040518083038186803b158015613c5c57600080fd5b505afa158015613c70573d6000803e3d6000fd5b505050506040513d601f19601f82011682018060405250613c94919081019061412a565b9190911115949350505050565b6001600160a01b0316151590565b6000604051613cbd90614d4e565b6040519081900390206001905550565b613ce6613cd861288e565b6001600160a01b0316613ca1565b15613cf057611692565b613d02816001600160a01b0316612fbb565b613d1e5760405162461bcd60e51b815260040161066d90614ed5565b6000604051613d2c90614d59565b6040519081900390208290555050565b60405180608001604052806000815260200160008152602001600081526020016000151581525090565b60405180610180016040528060008152602001613d81613de1565b81526020016000815260200160008152602001600081526020016000815260200160008152602001600081526020016000815260200160006001600160a01b0316815260200160006003811115613dd457fe5b8152600060209091015290565b6040518060c0016040528060006001600160a01b0316815260200160006001600160a01b03168152602001600081526020016000815260200160008152602001600081525090565b8035612ba68161528f565b8051612ba68161528f565b60008083601f840112613e5157600080fd5b50813567ffffffffffffffff811115613e6957600080fd5b60208301915083610140820283011115613e8257600080fd5b9250929050565b8035612ba6816152a3565b8051612ba6816152a3565b8035612ba6816152ac565b8051612ba6816152ac565b8051612ba6816152b5565b8035612ba6816152be565b600060e08284031215613edd57600080fd5b50919050565b600060e08284031215613ef557600080fd5b613eff60e061518d565b90506000613f0d8484613e29565b8252506020613f1e84848301613e29565b6020830152506040613f3284828501613e29565b6040830152506060613f4684828501613e9f565b6060830152506080613f5a84828501613e9f565b60808301525060a0613f6e84828501613e9f565b60a08301525060c0613f8284828501613e9f565b60c08301525092915050565b8035612ba6816152cb565b8051612ba6816152cb565b600060208284031215613fb657600080fd5b6000612fef8484613e29565b600060208284031215613fd457600080fd5b6000612fef8484613e34565b600080600080600060a08688031215613ff857600080fd5b60006140048888613e29565b955050602061401588828901613e29565b945050604061402688828901613e29565b935050606061403788828901613e29565b925050608061404888828901613e29565b9150509295509295909350565b6000806040838503121561406857600080fd5b60006140748585613e29565b925050602061408585828601613e9f565b9150509250929050565b6000806000606084860312156140a457600080fd5b60006140b08686613e29565b93505060206140c186828701613e9f565b92505060406140d286828701613e9f565b9150509250925092565b6000602082840312156140ee57600080fd5b6000612fef8484613e94565b6000806040838503121561410d57600080fd5b60006141198585613e89565b925050602061408585828601613e89565b60006020828403121561413c57600080fd5b6000612fef8484613eaa565b60006020828403121561415a57600080fd5b6000612fef8484613eb5565b600060e0828403121561417857600080fd5b6000612fef8484613ecb565b600080600080610120858703121561419b57600080fd5b60006141a78787613ecb565b94505060e085013567ffffffffffffffff8111156141c457600080fd5b6141d087828801613e3f565b93509350506101006141e487828801613e9f565b91505092959194509250565b600060e0828403121561420257600080fd5b6000612fef8484613ee3565b60006020828403121561422057600080fd5b6000612fef8484613e9f565b6000806040838503121561423f57600080fd5b600061424b8585613e9f565b925050602061408585828601613ec0565b6000806040838503121561426f57600080fd5b60006140748585613e9f565b60008060006060848603121561429057600080fd5b600061429c8686613eaa565b93505060206142ad86828701613eaa565b92505060406140d286828701613eaa565b6000602082840312156142d057600080fd5b6000612fef8484613f99565b60006142e88383614bb1565b50506101400190565b60006142fd83836143cc565b505060200190565b61430e81615239565b82525050565b61430e81615202565b600061432983856151c8565b9350614334826151b4565b8060005b8581101561436a5761434a82846151ef565b61435488826142dc565b975061435f836151c1565b925050600101614338565b509495945050505050565b6000614380826151bd565b61438a81856151c8565b9350614395836151b7565b8060005b8381101561436a5781516143ad88826142f1565b97506143b8836151b7565b925050600101614399565b61430e8161520d565b61430e816151b4565b61430e81615212565b61430e81615244565b60006143f2826151bd565b6143fc81856151c8565b935061440c81856020860161524f565b6144158161527b565b9093019392505050565b600061442c601d836151c8565b7f4455524154494f4e5f455843454544535f4d41585f4455524154494f4e000000815260200192915050565b6000614465601c83611046565b7f54496e697469616c697a61626c652e6973496e697469616c697a6564000000008152601c0192915050565b600061449e6015836151c8565b74105353d5539517d59053155157d491545552549151605a1b815260200192915050565b60006144cf6016836151c8565b7513115391125391d7d413d3d317d254d7d4105554d15160521b815260200192915050565b60006145016019836151c8565b7f414d4f554e545f455843454544535f4d41585f414d4f554e5400000000000000815260200192915050565b600061453a6011836151c8565b7013505617d313d05397d15610d151511151607a1b815260200192915050565b6000614567601b836151c8565b7f536166654d6174683a206164646974696f6e206f766572666c6f770000000000815260200192915050565b60006145a06019836151c8565b7f424f52524f5745525f4c4f414e5f49445f4d49534d4154434800000000000000815260200192915050565b60006145d96014836151c8565b73125390d3d4949150d517d1551217d05353d5539560621b815260200192915050565b60006146096016836151c8565b751313d05397d393d517d050d512559157d3d497d4d15560521b815260200192915050565b600061463b601b836151c8565b7f53455454494e47535f4d5553545f42455f415f434f4e54524143540000000000815260200192915050565b60006146746017836151c8565b7f444f45534e545f4e4545445f4c49515549444154494f4e000000000000000000815260200192915050565b60006146ad600f836151c8565b6e4c4f414e5f4e4f545f41435449564560881b815260200192915050565b60006146d86014836151c8565b7343414e4e4f545f57495448445241575f5a45524f60601b815260200192915050565b60006147086012836151c8565b71141310551193d49357d254d7d4105554d15160721b815260200192915050565b60006147366018836151c8565b7f4d4f52455f434f4c4c41544552414c5f52455155495245440000000000000000815260200192915050565b600061476f6021836151c8565b7f536166654d6174683a206d756c7469706c69636174696f6e206f766572666c6f8152607760f81b602082015260400192915050565b60006147b2601d836151c8565b7f434f4c4c41544552414c5f4445504f53495445445f524543454e544c59000000815260200192915050565b60006147eb6012836151c8565b711313d05397d511549354d7d156141254915160721b815260200192915050565b6000614819602e836151c8565b7f436f6e747261637420696e7374616e63652068617320616c726561647920626581526d195b881a5b9a5d1a585b1a5e995960921b602082015260400192915050565b60006148696018836151c8565b7f41544d5f4e4f545f464f554e445f464f525f4d41524b45540000000000000000815260200192915050565b60006148a26013836151c8565b7243414e4e4f545f4445504f5349545f5a45524f60681b815260200192915050565b60006148d1601e836151c8565b7f4f5241434c455f4d5553545f434f4e54524143545f4e4f545f454d5054590000815260200192915050565b600061490a6017836151c8565b7f424f52524f5745525f4d5553545f42455f53454e444552000000000000000000815260200192915050565b60006149436016836151c8565b7521a0a62622a92fa227a2a9a72a2fa7aba72fa627a0a760511b815260200192915050565b6000614975601883611046565b7f426173655570677261646561626c652e73657474696e67730000000000000000815260180192915050565b60006149ae601a836151c8565b7f535550504c595f544f5f444542545f455843454544535f4d4158000000000000815260200192915050565b60006149e76018836151c8565b7f434f4e54524143545f4e4f545f494e495449414c495a45440000000000000000815260200192915050565b6000614a20600c836151c8565b6b1313d05397d393d517d4d15560a21b815260200192915050565b6000614a48601f836151c8565b7f5265656e7472616e637947756172643a207265656e7472616e742063616c6c00815260200192915050565b6000614a81601c836151c8565b7f434f4e54524143545f414c52454144595f494e495449414c495a454400000000815260200192915050565b80516080830190614abe84826143cc565b506020820151614ad160208501826143cc565b506040820151614ae460408501826143cc565b50606082015161218860608501826143c3565b60e08201614b0582806151d1565b614b0f8482614314565b50614b1d60208301836151d1565b614b2a6020850182614314565b50614b3860408301836151d1565b614b456040850182614314565b50614b5360608301836151e0565b614b6060608501826143cc565b50614b6e60808301836151e0565b614b7b60808501826143cc565b50614b8960a08301836151e0565b614b9660a08501826143cc565b50614ba460c08301836151e0565b61218860c08501826143cc565b6101408201614bc082806151d1565b614bca8482614314565b50614bd860208301836151d1565b614be56020850182614314565b50614bf360408301836151e0565b614c0060408501826143cc565b50614c0e60608301836151e0565b614c1b60608501826143cc565b50614c2960808301836151e0565b614c3660808501826143cc565b50614c4460a08301836151e0565b614c5160a08501826143cc565b50614c5f60c08301836151ef565b61218860c0850182614cdc565b805160c0830190614c7d8482614314565b506020820151614c906020850182614314565b506040820151614ca360408501826143cc565b506060820151614cb660608501826143cc565b506080820151614cc960808501826143cc565b5060a082015161218860a08501826143cc565b60808201614cea82806151e0565b614cf484826143cc565b50614d0260208301836151f3565b614d0f6020850182614d45565b50614d1d60408301836151e0565b614d2a60408501826143cc565b50614d3860608301836151e0565b61218860608501826143cc565b61430e81615233565b6000612ba682614458565b6000612ba682614968565b60208101612ba68284614314565b60208101612ba68284614305565b60608101614d8e8286614305565b614d9b60208301856143cc565b612fef60408301846143cc565b60408101614db68285614314565b61375d6020830184614314565b60608101614dd18286614314565b614d9b6020830185614314565b60408101614dec8285614314565b61375d60208301846143cc565b60208082528101612ba38184614375565b60208101612ba682846143c3565b60208101612ba682846143cc565b60208101612ba682846143d5565b60208082528101612ba381846143e7565b602080825281016110438161441f565b6020808252810161104381614491565b60208082528101611043816144c2565b60208082528101611043816144f4565b602080825281016110438161452d565b602080825281016110438161455a565b6020808252810161104381614593565b60208082528101611043816145cc565b60208082528101611043816145fc565b602080825281016110438161462e565b6020808252810161104381614667565b60208082528101611043816146a0565b60208082528101611043816146cb565b60208082528101611043816146fb565b6020808252810161104381614729565b6020808252810161104381614762565b60208082528101611043816147a5565b60208082528101611043816147de565b602080825281016110438161480c565b602080825281016110438161485c565b6020808252810161104381614895565b60208082528101611043816148c4565b60208082528101611043816148fd565b6020808252810161104381614936565b60208082528101611043816149a1565b60208082528101611043816149da565b6020808252810161104381614a13565b6020808252810161104381614a3b565b6020808252810161104381614a74565b60808101612ba68284614aad565b61010081016150328286614af7565b81810360e083015261319381848661431d565b60408101614db682856143cc565b6040810161506182856143cc565b61375d6020830184614305565b6060810161507c82866143cc565b614d9b6020830185614305565b6102208101615098828f6143cc565b6150a5602083018e614c6c565b6150b260e083018d6143cc565b6150c061010083018c6143cc565b6150ce61012083018b6143cc565b6150dc61014083018a6143cc565b6150ea6101608301896143cc565b6150f86101808301886143cc565b6151066101a08301876143cc565b6151146101c0830186614314565b6151226101e08301856143de565b6151306102008301846143c3565b9d9c50505050505050505050505050565b60a0810161514f82886143cc565b61515c60208301876143cc565b61516960408301866143cc565b61517660608301856143cc565b61518360808301846143cc565b9695505050505050565b60405181810167ffffffffffffffff811182821017156151ac57600080fd5b604052919050565b90565b60200190565b5190565b6101400190565b90815260200190565b6000612ba36020840184613e29565b6000612ba36020840184613e9f565b5090565b6000612ba36020840184613f8e565b600061104382615227565b151590565b600061104382615202565b8061104681615285565b6001600160a01b031690565b60ff1690565b600061104382615212565b60006110438261521d565b60005b8381101561526a578181015183820152602001615252565b838111156121885750506000910152565b601f01601f191690565b6004811061169257fe5b61529881615202565b811461169257600080fd5b6152988161520d565b615298816151b4565b61529881615212565b6004811061169257600080fd5b6152988161523356fea365627a7a723158203c587674654326faaef230ad6e6aced8f80dca7da1ecb9060d13b47704b0d5016c6578706572696d656e74616cf564736f6c63430005110040",
  "source": "pragma solidity 0.5.17;\npragma experimental ABIEncoderV2;\n\nimport \"../../base/EtherCollateralLoans.sol\";\n\n/**\n    This contract is created ONLY for testing purposes.\n */\ncontract LoansBaseModifiersMock is EtherCollateralLoans {\n    bool public mockIsSupplyToDebtRatioValid;\n    bool public returnIsSupplyToDebtRatioValid;\n\n    function setMockIsSupplyToDebtRatioValid(\n        bool result,\n        bool aResponseIsSupplyToDebtRatioValid\n    ) external {\n        mockIsSupplyToDebtRatioValid = result;\n        returnIsSupplyToDebtRatioValid = aResponseIsSupplyToDebtRatioValid;\n    }\n\n    function _isSupplyToDebtRatioValid(uint256 newLoanAmount)\n        internal\n        view\n        returns (bool)\n    {\n        if (!mockIsSupplyToDebtRatioValid) {\n            return super._isSupplyToDebtRatioValid(newLoanAmount);\n        }\n        return returnIsSupplyToDebtRatioValid;\n    }\n\n    function setLoanStatus(uint256 loanID, TellerCommon.LoanStatus status) external {\n        loans[loanID].status = status;\n    }\n\n    function externalLoanActive(uint256 loanID) external loanActive(loanID) {}\n\n    function externalLoanTermsSet(uint256 loanID) external loanTermsSet(loanID) {}\n\n    function externalLoanActiveOrSet(uint256 loanID) external loanActiveOrSet(loanID) {}\n\n    function externalIsBorrower(address anAddress) external isBorrower(anAddress) {}\n\n    function externalWithValidLoanRequest(TellerCommon.LoanRequest calldata loanRequest)\n        external\n        withValidLoanRequest(loanRequest)\n    {}\n}\n",
  "sourcePath": "/Users/sy/Documents/GitHub/teller-protocol-v1/contracts/mock/base/LoansBaseModifiersMock.sol",
  "compiler": {
    "name": "solc",
    "version": "0.5.17+commit.d19bba13.Emscripten.clang"
  },
  "schemaVersion": "3.0.23",
  "updatedAt": "2020-09-16T17:44:36.719Z",
  "devdoc": {
    "methods": {
      "cToken()": {
        "return": "Address of the cToken"
      },
      "canLiquidateLoan(uint256)": {
        "params": {
          "loanID": "The ID of the loan to check"
        },
        "return": "bool weather the loan can be liquidated"
      },
      "createLoanWithTerms((address,address,address,uint256,uint256,uint256,uint256),(address,address,uint256,uint256,uint256,uint256,(uint256,uint8,bytes32,bytes32))[],uint256)": {
        "params": {
          "collateralAmount": "Amount of collateral required for the loan",
          "request": "Struct of the protocol loan request",
          "responses": "List of structs of the protocol loan responses"
        }
      },
      "depositCollateral(address,uint256,uint256)": {
        "params": {
          "borrower": "The address of the loan borrower.",
          "loanID": "The ID of the loan the collateral is for"
        }
      },
      "getBorrowerLoans(address)": {
        "params": {
          "borrower": "The borrower's address"
        }
      },
      "getCollateralInfo(uint256)": {
        "params": {
          "loanID": "of the loan to get info for"
        },
        "return": "memory TellerCommon.LoanCollateralInfo Collateral information of the loan"
      },
      "getTotalOwed(uint256)": {
        "params": {
          "loanID": "The ID of the loan to be queried"
        },
        "return": "uint256 The total amount owed remaining"
      },
      "initialize(address,address,address,address,address)": {
        "params": {
          "lendingPoolAddress": "Contract address of the lending pool",
          "loanTermsConsensusAddress": "Contract adddress for loan term consensus",
          "priceOracleAddress": "Contract address of the price oracle",
          "settingsAddress": "Contract address for the configuration of the platform"
        }
      },
      "initialized()": {
        "return": "true if contract is initialized. Otherwise it returns false."
      },
      "lendingToken()": {
        "return": "Address of the lending token"
      },
      "liquidateLoan(uint256)": {
        "params": {
          "loanID": "The ID of the loan to be liquidated"
        }
      },
      "repay(uint256,uint256)": {
        "params": {
          "amount": "The amount of tokens to pay back to the loan",
          "loanID": "The ID of the loan the payment is for"
        }
      },
      "setPriceOracle(address)": {
        "details": "It throws a require error if sender is not allowed.It throws a require error if new address is empty (0x0) or not a contract.",
        "params": {
          "newPriceOracle": "the new price oracle address."
        }
      },
      "settings()": {
        "details": "This address should NOT change over the time. See details in the _setSettings(...) function."
      },
      "tToken()": {
        "return": "Address of the tToken"
      },
      "takeOutLoan(uint256,uint256)": {
        "details": "collateral ratio is a percentage of the loan amount that's required in collateralthe percentage will be *(10**2). I.e. collateralRatio of 5244 means 52.44% collateralis required in the loan. Interest rate is also a percentage with 2 decimal points."
      },
      "withdrawCollateral(uint256,uint256)": {
        "params": {
          "amount": "The amount of collateral token or ether the caller is hoping to withdraw.",
          "loanID": "The ID of the loan the collateral is for"
        }
      }
    }
  },
  "userdoc": {
    "methods": {
      "cToken()": {
        "notice": "Returns the cToken in the lending pool"
      },
      "canLiquidateLoan(uint256)": {
        "notice": "A loan can be liquidated if it is: under collateralized or expired"
      },
      "createLoanWithTerms((address,address,address,uint256,uint256,uint256,uint256),(address,address,uint256,uint256,uint256,uint256,(uint256,uint8,bytes32,bytes32))[],uint256)": {
        "notice": "Creates a loan with the loan request and terms"
      },
      "depositCollateral(address,uint256,uint256)": {
        "notice": "Deposit collateral into a loan"
      },
      "getBorrowerLoans(address)": {
        "notice": "Get a list of all loans for a borrower"
      },
      "getCollateralInfo(uint256)": {
        "notice": "Get collateral information of a specific loan"
      },
      "getTotalOwed(uint256)": {
        "notice": "Returns the total owed amount remaining for a specified loan"
      },
      "initialize(address,address,address,address,address)": {
        "notice": "Initializes the current contract instance setting the required parameters"
      },
      "initialized()": {
        "notice": "Gets if the contract is initialized."
      },
      "lendingToken()": {
        "notice": "Returns the lending token in the lending pool"
      },
      "liquidateLoan(uint256)": {
        "notice": "Liquidate a loan if it is expired or under collateralized"
      },
      "repay(uint256,uint256)": {
        "notice": "Make a payment to a loan"
      },
      "setPriceOracle(address)": {
        "notice": "Updates the current price oracle instance."
      },
      "settings()": {
        "notice": "The gets the settings contract address from the SETTINGS_SLOT."
      },
      "tToken()": {
        "notice": "Returns the tToken in the lending pool"
      },
      "takeOutLoan(uint256,uint256)": {
        "notice": "Take out a loan"
      },
      "withdrawCollateral(uint256,uint256)": {
        "notice": "Withdraw collateral from a loan, unless this isn't allowed"
      }
    },
    "notice": "This contract is created ONLY for testing purposes."
  }
}