{
  "contractName": "LoanTermsConsensus",
  "abi": [
    {
      "anonymous": false,
      "inputs": [
        {
          "indexed": true,
          "internalType": "address",
          "name": "previousOwner",
          "type": "address"
        },
        {
          "indexed": true,
          "internalType": "address",
          "name": "newOwner",
          "type": "address"
        }
      ],
      "name": "OwnershipTransferred",
      "type": "event"
    },
    {
      "anonymous": false,
      "inputs": [
        {
          "indexed": true,
          "internalType": "address",
          "name": "account",
          "type": "address"
        }
      ],
      "name": "SignerAdded",
      "type": "event"
    },
    {
      "anonymous": false,
      "inputs": [
        {
          "indexed": true,
          "internalType": "address",
          "name": "account",
          "type": "address"
        }
      ],
      "name": "SignerRemoved",
      "type": "event"
    },
    {
      "anonymous": false,
      "inputs": [
        {
          "indexed": true,
          "internalType": "address",
          "name": "borrower",
          "type": "address"
        },
        {
          "indexed": true,
          "internalType": "uint256",
          "name": "requestNonce",
          "type": "uint256"
        },
        {
          "indexed": false,
          "internalType": "uint256",
          "name": "interestRate",
          "type": "uint256"
        },
        {
          "indexed": false,
          "internalType": "uint256",
          "name": "collateralRatio",
          "type": "uint256"
        },
        {
          "indexed": false,
          "internalType": "uint256",
          "name": "maxLoanAmount",
          "type": "uint256"
        }
      ],
      "name": "TermsAccepted",
      "type": "event"
    },
    {
      "anonymous": false,
      "inputs": [
        {
          "indexed": true,
          "internalType": "address",
          "name": "signer",
          "type": "address"
        },
        {
          "indexed": true,
          "internalType": "address",
          "name": "borrower",
          "type": "address"
        },
        {
          "indexed": true,
          "internalType": "uint256",
          "name": "requestNonce",
          "type": "uint256"
        },
        {
          "indexed": false,
          "internalType": "uint256",
          "name": "interestRate",
          "type": "uint256"
        },
        {
          "indexed": false,
          "internalType": "uint256",
          "name": "collateralRatio",
          "type": "uint256"
        },
        {
          "indexed": false,
          "internalType": "uint256",
          "name": "maxLoanAmount",
          "type": "uint256"
        }
      ],
      "name": "TermsSubmitted",
      "type": "event"
    },
    {
      "constant": false,
      "inputs": [
        {
          "internalType": "address",
          "name": "account",
          "type": "address"
        }
      ],
      "name": "addSigner",
      "outputs": [],
      "payable": false,
      "stateMutability": "nonpayable",
      "type": "function"
    },
    {
      "constant": false,
      "inputs": [
        {
          "internalType": "address[]",
          "name": "accounts",
          "type": "address[]"
        }
      ],
      "name": "addSigners",
      "outputs": [],
      "payable": false,
      "stateMutability": "nonpayable",
      "type": "function"
    },
    {
      "constant": true,
      "inputs": [
        {
          "internalType": "address",
          "name": "",
          "type": "address"
        }
      ],
      "name": "borrowerToLastLoanTermRequest",
      "outputs": [
        {
          "internalType": "uint256",
          "name": "",
          "type": "uint256"
        }
      ],
      "payable": false,
      "stateMutability": "view",
      "type": "function"
    },
    {
      "constant": true,
      "inputs": [],
      "name": "callerAddress",
      "outputs": [
        {
          "internalType": "address",
          "name": "",
          "type": "address"
        }
      ],
      "payable": false,
      "stateMutability": "view",
      "type": "function"
    },
    {
      "constant": true,
      "inputs": [],
      "name": "consts",
      "outputs": [
        {
          "internalType": "contract SettingsConsts",
          "name": "",
          "type": "address"
        }
      ],
      "payable": false,
      "stateMutability": "view",
      "type": "function"
    },
    {
      "constant": true,
      "inputs": [
        {
          "internalType": "address",
          "name": "",
          "type": "address"
        },
        {
          "internalType": "address",
          "name": "",
          "type": "address"
        },
        {
          "internalType": "uint256",
          "name": "",
          "type": "uint256"
        }
      ],
      "name": "hasSubmitted",
      "outputs": [
        {
          "internalType": "bool",
          "name": "",
          "type": "bool"
        }
      ],
      "payable": false,
      "stateMutability": "view",
      "type": "function"
    },
    {
      "constant": false,
      "inputs": [],
      "name": "initialize",
      "outputs": [],
      "payable": false,
      "stateMutability": "nonpayable",
      "type": "function"
    },
    {
      "constant": false,
      "inputs": [
        {
          "internalType": "address",
          "name": "owner",
          "type": "address"
        },
        {
          "internalType": "address",
          "name": "aCallerAddress",
          "type": "address"
        },
        {
          "internalType": "address",
          "name": "aSettingAddress",
          "type": "address"
        }
      ],
      "name": "initialize",
      "outputs": [],
      "payable": false,
      "stateMutability": "nonpayable",
      "type": "function"
    },
    {
      "constant": false,
      "inputs": [
        {
          "internalType": "address",
          "name": "sender",
          "type": "address"
        }
      ],
      "name": "initialize",
      "outputs": [],
      "payable": false,
      "stateMutability": "nonpayable",
      "type": "function"
    },
    {
      "constant": true,
      "inputs": [],
      "name": "initialized",
      "outputs": [
        {
          "internalType": "bool",
          "name": "value",
          "type": "bool"
        }
      ],
      "payable": false,
      "stateMutability": "view",
      "type": "function"
    },
    {
      "constant": true,
      "inputs": [],
      "name": "isOwner",
      "outputs": [
        {
          "internalType": "bool",
          "name": "",
          "type": "bool"
        }
      ],
      "payable": false,
      "stateMutability": "view",
      "type": "function"
    },
    {
      "constant": true,
      "inputs": [
        {
          "internalType": "address",
          "name": "account",
          "type": "address"
        }
      ],
      "name": "isSigner",
      "outputs": [
        {
          "internalType": "bool",
          "name": "",
          "type": "bool"
        }
      ],
      "payable": false,
      "stateMutability": "view",
      "type": "function"
    },
    {
      "constant": true,
      "inputs": [],
      "name": "owner",
      "outputs": [
        {
          "internalType": "address",
          "name": "",
          "type": "address"
        }
      ],
      "payable": false,
      "stateMutability": "view",
      "type": "function"
    },
    {
      "constant": false,
      "inputs": [
        {
          "internalType": "address",
          "name": "account",
          "type": "address"
        }
      ],
      "name": "removeSigner",
      "outputs": [],
      "payable": false,
      "stateMutability": "nonpayable",
      "type": "function"
    },
    {
      "constant": false,
      "inputs": [],
      "name": "renounceOwnership",
      "outputs": [],
      "payable": false,
      "stateMutability": "nonpayable",
      "type": "function"
    },
    {
      "constant": true,
      "inputs": [
        {
          "internalType": "address",
          "name": "",
          "type": "address"
        },
        {
          "internalType": "uint256",
          "name": "",
          "type": "uint256"
        }
      ],
      "name": "requestNonceTaken",
      "outputs": [
        {
          "internalType": "bool",
          "name": "",
          "type": "bool"
        }
      ],
      "payable": false,
      "stateMutability": "view",
      "type": "function"
    },
    {
      "constant": true,
      "inputs": [],
      "name": "settings",
      "outputs": [
        {
          "internalType": "contract SettingsInterface",
          "name": "",
          "type": "address"
        }
      ],
      "payable": false,
      "stateMutability": "view",
      "type": "function"
    },
    {
      "constant": true,
      "inputs": [
        {
          "internalType": "address",
          "name": "",
          "type": "address"
        },
        {
          "internalType": "uint256",
          "name": "",
          "type": "uint256"
        }
      ],
      "name": "signerNonceTaken",
      "outputs": [
        {
          "internalType": "bool",
          "name": "",
          "type": "bool"
        }
      ],
      "payable": false,
      "stateMutability": "view",
      "type": "function"
    },
    {
      "constant": true,
      "inputs": [
        {
          "internalType": "address",
          "name": "",
          "type": "address"
        },
        {
          "internalType": "uint256",
          "name": "",
          "type": "uint256"
        }
      ],
      "name": "termSubmissions",
      "outputs": [
        {
          "components": [
            {
              "internalType": "uint256",
              "name": "count",
              "type": "uint256"
            },
            {
              "internalType": "uint256",
              "name": "max",
              "type": "uint256"
            },
            {
              "internalType": "uint256",
              "name": "min",
              "type": "uint256"
            },
            {
              "internalType": "uint256",
              "name": "sum",
              "type": "uint256"
            }
          ],
          "internalType": "struct NumbersList.Values",
          "name": "interestRate",
          "type": "tuple"
        },
        {
          "components": [
            {
              "internalType": "uint256",
              "name": "count",
              "type": "uint256"
            },
            {
              "internalType": "uint256",
              "name": "max",
              "type": "uint256"
            },
            {
              "internalType": "uint256",
              "name": "min",
              "type": "uint256"
            },
            {
              "internalType": "uint256",
              "name": "sum",
              "type": "uint256"
            }
          ],
          "internalType": "struct NumbersList.Values",
          "name": "collateralRatio",
          "type": "tuple"
        },
        {
          "components": [
            {
              "internalType": "uint256",
              "name": "count",
              "type": "uint256"
            },
            {
              "internalType": "uint256",
              "name": "max",
              "type": "uint256"
            },
            {
              "internalType": "uint256",
              "name": "min",
              "type": "uint256"
            },
            {
              "internalType": "uint256",
              "name": "sum",
              "type": "uint256"
            }
          ],
          "internalType": "struct NumbersList.Values",
          "name": "maxLoanAmount",
          "type": "tuple"
        }
      ],
      "payable": false,
      "stateMutability": "view",
      "type": "function"
    },
    {
      "constant": false,
      "inputs": [
        {
          "internalType": "address",
          "name": "newOwner",
          "type": "address"
        }
      ],
      "name": "transferOwnership",
      "outputs": [],
      "payable": false,
      "stateMutability": "nonpayable",
      "type": "function"
    },
    {
      "constant": false,
      "inputs": [
        {
          "components": [
            {
              "internalType": "address payable",
              "name": "borrower",
              "type": "address"
            },
            {
              "internalType": "address",
              "name": "recipient",
              "type": "address"
            },
            {
              "internalType": "address",
              "name": "consensusAddress",
              "type": "address"
            },
            {
              "internalType": "uint256",
              "name": "requestNonce",
              "type": "uint256"
            },
            {
              "internalType": "uint256",
              "name": "amount",
              "type": "uint256"
            },
            {
              "internalType": "uint256",
              "name": "duration",
              "type": "uint256"
            },
            {
              "internalType": "uint256",
              "name": "requestTime",
              "type": "uint256"
            }
          ],
          "internalType": "struct TellerCommon.LoanRequest",
          "name": "request",
          "type": "tuple"
        },
        {
          "components": [
            {
              "internalType": "address",
              "name": "signer",
              "type": "address"
            },
            {
              "internalType": "address",
              "name": "consensusAddress",
              "type": "address"
            },
            {
              "internalType": "uint256",
              "name": "responseTime",
              "type": "uint256"
            },
            {
              "internalType": "uint256",
              "name": "interestRate",
              "type": "uint256"
            },
            {
              "internalType": "uint256",
              "name": "collateralRatio",
              "type": "uint256"
            },
            {
              "internalType": "uint256",
              "name": "maxLoanAmount",
              "type": "uint256"
            },
            {
              "components": [
                {
                  "internalType": "uint256",
                  "name": "signerNonce",
                  "type": "uint256"
                },
                {
                  "internalType": "uint8",
                  "name": "v",
                  "type": "uint8"
                },
                {
                  "internalType": "bytes32",
                  "name": "r",
                  "type": "bytes32"
                },
                {
                  "internalType": "bytes32",
                  "name": "s",
                  "type": "bytes32"
                }
              ],
              "internalType": "struct TellerCommon.Signature",
              "name": "signature",
              "type": "tuple"
            }
          ],
          "internalType": "struct TellerCommon.LoanResponse[]",
          "name": "responses",
          "type": "tuple[]"
        }
      ],
      "name": "processRequest",
      "outputs": [
        {
          "internalType": "uint256",
          "name": "interestRate",
          "type": "uint256"
        },
        {
          "internalType": "uint256",
          "name": "collateralRatio",
          "type": "uint256"
        },
        {
          "internalType": "uint256",
          "name": "maxLoanAmount",
          "type": "uint256"
        }
      ],
      "payable": false,
      "stateMutability": "nonpayable",
      "type": "function"
    }
  ],
  "bytecode": "0x6080604052612ca3806100136000396000f3fe608060405234801561001057600080fd5b50600436106101375760003560e01c806399ffe065116100b8578063e06174e41161007c578063e06174e414610274578063e8906a2d1461027c578063eb12d61e1461028f578063f2fde38b146102a2578063faa8aab1146102b5578063fb98d9e2146102bd57610137565b806399ffe065146102065780639f24a12d14610219578063c0c53b8b14610239578063c4d66de81461024c578063d86d744e1461025f57610137565b8063715018a6116100ff578063715018a6146101c65780637df73e27146101ce5780638129fc1c146101e15780638da5cb5b146101e95780638f32d59b146101fe57610137565b8063064e5d491461013c5780630e316ab714610167578063158ef93e1461017c5780632aac635e1461019157806368fcdeb8146101b3575b600080fd5b61014f61014a366004611ee4565b6102d0565b60405161015e93929190612927565b60405180910390f35b61017a610175366004611da9565b6106f3565b005b610184610723565b60405161015e9190612724565b6101a461019f366004611e57565b610742565b60405161015e939291906128fd565b6101846101c1366004611e57565b6107eb565b61017a61080b565b6101846101dc366004611da9565b610879565b61017a610892565b6101f1610919565b60405161015e9190612619565b610184610928565b610184610214366004611e14565b61094e565b61022c610227366004611da9565b610974565b60405161015e9190612732565b61017a610247366004611dc7565b610986565b61017a61025a366004611da9565b610a54565b610267610b27565b60405161015e919061277e565b610267610b36565b61017a61028a366004611e91565b610b58565b61017a61029d366004611da9565b610be0565b61017a6102b0366004611da9565b610c0d565b6101f1610c3a565b6101846102cb366004611e57565b610c49565b60008060006102dd610723565b6103025760405162461bcd60e51b81526004016102f9906128dd565b60405180910390fd5b3361030c81610c69565b6103285760405162461bcd60e51b81526004016102f9906128cd565b610330610b36565b6001600160a01b031663269012a0609d60009054906101000a90046001600160a01b03166001600160a01b0316633ff591d96040518163ffffffff1660e01b815260040160206040518083038186803b15801561038c57600080fd5b505afa1580156103a0573d6000803e3d6000fd5b505050506040513d601f19601f820116820180604052506103c49190810190611ec6565b6040518263ffffffff1660e01b81526004016103e09190612732565b60206040518083038186803b1580156103f857600080fd5b505afa15801561040c573d6000803e3d6000fd5b505050506040513d601f19601f820116820180604052506104309190810190611ec6565b85101561044f5760405162461bcd60e51b81526004016102f9906128ad565b61046661046136899003890189611f3b565b610c7d565b609e600061047760208a018a611da9565b6001600160a01b031681526020808201929092526040908101600090812060608b0135825290925290205460ff16156104c25760405162461bcd60e51b81526004016102f9906127bd565b6001609e60006104d560208b018b611da9565b6001600160a01b031681526020808201929092526040908101600090812060608c013582529092528120805460ff191692151592909217909155610526610521368a90038a018a611f3b565b610df7565b905060005b868110156105765761056e610545368b90038b018b611f3b565b89898481811061055157fe5b905061014002018036036105689190810190611f59565b84610e6a565b60010161052b565b506105ba609f600061058b60208c018c611da9565b6001600160a01b031681526020808201929092526040908101600090812060608d013582529092529020610fc7565b945061060d609f60006105d060208c018c611da9565b6001600160a01b03166001600160a01b0316815260200190815260200160002060008a606001358152602001908152602001600020600401610fc7565b9350610660609f600061062360208c018c611da9565b6001600160a01b03166001600160a01b0316815260200190815260200160002060008a606001358152602001908152602001600020600801610fc7565b92504260a0600061067460208c018c611da9565b6001600160a01b03168152602080820192909252604001600020919091556060890135906106a4908a018a611da9565b6001600160a01b03167f658dfc9759b55173ea96c7bd8d4ad2c3e3804d28d83d2e1a25569a2fecb672088787876040516106e093929190612927565b60405180910390a3505093509350939050565b6106fb610928565b6107175760405162461bcd60e51b81526004016102f99061286d565b61072081611106565b50565b600080604051610732906125e3565b6040519081900390205492915050565b609f60209081526000928352604080842082529183529181902081516080808201845282548252600183015482860152600283015482850152600383015460608084019190915284518083018652600485015481526005850154818801526006850154818701526007850154818301528551928301865260088501548352600985015496830196909652600a84015494820194909452600b909201549282019290925290919083565b609b60209081526000928352604080842090915290825290205460ff1681565b610813610928565b61082f5760405162461bcd60e51b81526004016102f99061286d565b6066546040516000916001600160a01b0316907f8be0079c531659141344cd1fd0a4f28419497f9722a3daafe3b4186f6b6457e0908390a3606680546001600160a01b0319169055565b600061088c60998363ffffffff61114e16565b92915050565b600054610100900460ff16806108ab57506108ab611196565b806108b9575060005460ff16155b6108d55760405162461bcd60e51b81526004016102f99061288d565b600054610100900460ff16158015610900576000805460ff1961ff0019909116610100171660011790555b60016033558015610720576000805461ff001916905550565b6066546001600160a01b031690565b6066546000906001600160a01b031661093f61119c565b6001600160a01b031614905090565b609a60209081526000938452604080852082529284528284209052825290205460ff1681565b60a06020526000908152604090205481565b61098e610723565b156109ab5760405162461bcd60e51b81526004016102f9906128ed565b6109bd826001600160a01b03166111a0565b6109d95760405162461bcd60e51b81526004016102f99061281d565b6109e283610a54565b6109eb816111dc565b609c80546001600160a01b0319166001600160a01b038416179055604051610a1290611ada565b604051809103906000f080158015610a2e573d6000803e3d6000fd5b50609d80546001600160a01b0319166001600160a01b0392909216919091179055505050565b600054610100900460ff1680610a6d5750610a6d611196565b80610a7b575060005460ff16155b610a975760405162461bcd60e51b81526004016102f99061288d565b600054610100900460ff16158015610ac2576000805460ff1961ff0019909116610100171660011790555b606680546001600160a01b0319166001600160a01b0384811691909117918290556040519116906000907f8be0079c531659141344cd1fd0a4f28419497f9722a3daafe3b4186f6b6457e0908290a38015610b23576000805461ff00191690555b5050565b609d546001600160a01b031681565b6000806000604051610b479061260e565b604051908190039020549250505090565b610b60610928565b610b7c5760405162461bcd60e51b81526004016102f99061286d565b6000815111610b9d5760405162461bcd60e51b81526004016102f9906127ad565b60005b8151811015610b23576000828281518110610bb757fe5b60200260200101519050610bca81610879565b610bd757610bd78161128e565b50600101610ba0565b610be8610928565b610c045760405162461bcd60e51b81526004016102f99061286d565b6107208161128e565b610c15610928565b610c315760405162461bcd60e51b81526004016102f99061286d565b610720816112d6565b609c546001600160a01b031681565b609e60209081526000928352604080842090915290825290205460ff1681565b609c546001600160a01b0391821691161490565b80516001600160a01b0316600090815260a06020526040902054610ca057610720565b6000610caa610b36565b6001600160a01b031663269012a0609d60009054906101000a90046001600160a01b03166001600160a01b0316633b98dfdb6040518163ffffffff1660e01b815260040160206040518083038186803b158015610d0657600080fd5b505afa158015610d1a573d6000803e3d6000fd5b505050506040513d601f19601f82011682018060405250610d3e9190810190611ec6565b6040518263ffffffff1660e01b8152600401610d5a9190612732565b60206040518083038186803b158015610d7257600080fd5b505afa158015610d86573d6000803e3d6000fd5b505050506040513d601f19601f82011682018060405250610daa9190810190611ec6565b82516001600160a01b0316600090815260a060205260409020549091504290610dd9908363ffffffff61135816565b1115610b235760405162461bcd60e51b81526004016102f99061283d565b609c548151602083015160408401516060850151608086015160a087015160c08801516000976001600160a01b031696959493929190610e35611384565b604051602001610e4d99989796959493929190612627565b604051602081830303815290604052805190602001209050919050565b6000610e768383611388565b835185516060870151604087015160c0880151949550610e979486906113ea565b60608084015185516001600160a01b03166000908152609f6020908152604080832094890151835293905291909120610ed59163ffffffff61160616565b608083015184516001600160a01b03166000908152609f60209081526040808320606089015184529091529020610f179160049091019063ffffffff61160616565b60a083015184516001600160a01b03166000908152609f60209081526040808320606089015184529091529020610f599160089091019063ffffffff61160616565b836060015184600001516001600160a01b031684600001516001600160a01b03167f75ec6e4b3d626c9ecaff859275e3ee99bd0d25d81a798938dcc15b49baffc24d866060015187608001518860a00151604051610fb993929190612927565b60405180910390a450505050565b60006110e1610fd4610b36565b6001600160a01b031663269012a0609d60009054906101000a90046001600160a01b03166001600160a01b031663c41dd8ce6040518163ffffffff1660e01b815260040160206040518083038186803b15801561103057600080fd5b505afa158015611044573d6000803e3d6000fd5b505050506040513d601f19601f820116820180604052506110689190810190611ec6565b6040518263ffffffff1660e01b81526004016110849190612732565b60206040518083038186803b15801561109c57600080fd5b505afa1580156110b0573d6000803e3d6000fd5b505050506040513d601f19601f820116820180604052506110d49190810190611ec6565b839063ffffffff61166b16565b6110fd5760405162461bcd60e51b81526004016102f9906127ed565b61088c8261171c565b61111760998263ffffffff61175516565b6040516001600160a01b038216907f3525e22824a8a7df2c9a6029941c824cf95b6447f1e13d5128fd3826d35afe8b90600090a250565b60006001600160a01b0382166111765760405162461bcd60e51b81526004016102f99061287d565b506001600160a01b03166000908152602091909152604090205460ff1690565b303b1590565b3390565b6000813f7fc5d2460186f7233c927e7db2dcc703c0e500b653ca82273b7bfad8045d85a4708181148015906111d457508115155b949350505050565b6111e4610723565b156112015760405162461bcd60e51b81526004016102f9906128ed565b60408051808201909152601981527f53455454494e47535f4d5553545f42455f50524f564944454400000000000000602082015261124f906001600160a01b0383169063ffffffff61179d16565b611261816001600160a01b03166111a0565b61127d5760405162461bcd60e51b81526004016102f99061280d565b6112856117ca565b610720816117e8565b61129f60998263ffffffff61185116565b6040516001600160a01b038216907f47d1c22a25bb3a5d4e481b9b1e6944c2eade3181a0a20b495ed61d35b5323f2490600090a250565b6001600160a01b0381166112fc5760405162461bcd60e51b81526004016102f9906127dd565b6066546040516001600160a01b038084169216907f8be0079c531659141344cd1fd0a4f28419497f9722a3daafe3b4186f6b6457e090600090a3606680546001600160a01b0319166001600160a01b0392909216919091179055565b60008282018381101561137d5760405162461bcd60e51b81526004016102f9906127fd565b9392505050565b4690565b600082602001518360400151846060015185608001518660a001518760c00151600001516113b4611384565b886040516020016113cc9897969594939291906126ad565b60405160208183030381529060405280519060200120905092915050565b6001600160a01b038087166000908152609a6020908152604080832093891683529281528282208783529052205460ff16156114385760405162461bcd60e51b81526004016102f9906127cd565b6001600160a01b038087166000908152609a602090815260408083209389168352928152828220878352905220805460ff1916600117905561158861147b610b36565b6001600160a01b031663269012a0609d60009054906101000a90046001600160a01b03166001600160a01b031663e3f33d006040518163ffffffff1660e01b815260040160206040518083038186803b1580156114d757600080fd5b505afa1580156114eb573d6000803e3d6000fd5b505050506040513d601f19601f8201168201806040525061150f9190810190611ec6565b6040518263ffffffff1660e01b815260040161152b9190612732565b60206040518083038186803b15801561154357600080fd5b505afa158015611557573d6000803e3d6000fd5b505050506040513d601f19601f8201168201806040525061157b9190810190611ec6565b429063ffffffff61189d16565b8310156115a75760405162461bcd60e51b81526004016102f99061289d565b6115b28183886118df565b6115ce5760405162461bcd60e51b81526004016102f9906128bd565b6001600160a01b039095166000908152609b602090815260408083209751835296905294909420805460ff1916600117905550505050565b808260010154101561161a57600182018190555b808260020154118061162b57508154155b1561163857600282018190555b600382015461164d908263ffffffff61135816565b6003830155815461166590600163ffffffff61135816565b90915550565b6000611676836119d7565b156116835750600061088c565b600061168e8461171c565b905060006116b46127106116a8848763ffffffff6119e916565b9063ffffffff611a2316565b905060006116c8838363ffffffff61189d16565b905080866002015410156116e2576000935050505061088c565b60006116f4848463ffffffff61135816565b9050808760010154111561170f57600094505050505061088c565b5060019695505050505050565b6000611727826119d7565b61174d5761174861173783611a65565b60038401549063ffffffff611a2316565b61088c565b506000919050565b61175f828261114e565b61177b5760405162461bcd60e51b81526004016102f99061284d565b6001600160a01b0316600090815260209190915260409020805460ff19169055565b6117a682611a69565b81906117c55760405162461bcd60e51b81526004016102f9919061278c565b505050565b60006040516117d8906125e3565b6040519081900390206001905550565b60006117f2610b36565b6001600160a01b03161461183357611812816001600160a01b03166111a0565b61182e5760405162461bcd60e51b81526004016102f99061280d565b610720565b60006040516118419061260e565b6040519081900390208290555050565b61185b828261114e565b156118785760405162461bcd60e51b81526004016102f99061279d565b6001600160a01b0316600090815260209190915260409020805460ff19166001179055565b600061137d83836040518060400160405280601e81526020017f536166654d6174683a207375627472616374696f6e206f766572666c6f770000815250611a77565b60006118ea82610879565b6118f65750600061137d565b6001600160a01b0382166000908152609b602090815260408083208751845290915290205460ff161561193b5760405162461bcd60e51b81526004016102f99061282d565b600060018460405160200161195091906125ee565b60405160208183030381529060405280519060200120866020015187604001518860600151604051600081526020016040526040516119929493929190612740565b6020604051602081039080840390855afa1580156119b4573d6000803e3d6000fd5b5050604051601f1901516001600160a01b03858116911614925050509392505050565b60006119e282611a65565b1592915050565b6000826119f85750600061088c565b82820282848281611a0557fe5b041461137d5760405162461bcd60e51b81526004016102f99061285d565b600061137d83836040518060400160405280601a81526020017f536166654d6174683a206469766973696f6e206279207a65726f000000000000815250611aa3565b5490565b6001600160a01b0316151590565b60008184841115611a9b5760405162461bcd60e51b81526004016102f9919061278c565b505050900390565b60008183611ac45760405162461bcd60e51b81526004016102f9919061278c565b506000838581611ad057fe5b0495945050505050565b61022b80612a3683390190565b803561088c81612a0f565b600082601f830112611b0357600080fd5b8135611b16611b1182612976565b61294f565b91508181835260208401935060208101905083856020840282011115611b3b57600080fd5b60005b83811015611b675781611b518882611ae7565b8452506020928301929190910190600101611b3e565b5050505092915050565b60008083601f840112611b8357600080fd5b50813567ffffffffffffffff811115611b9b57600080fd5b60208301915083610140820283011115611bb457600080fd5b9250929050565b803561088c81612a23565b805161088c81612a23565b600060e08284031215611be357600080fd5b50919050565b600060e08284031215611bfb57600080fd5b611c0560e061294f565b90506000611c138484611ae7565b8252506020611c2484848301611ae7565b6020830152506040611c3884828501611ae7565b6040830152506060611c4c84828501611bbb565b6060830152506080611c6084828501611bbb565b60808301525060a0611c7484828501611bbb565b60a08301525060c0611c8884828501611bbb565b60c08301525092915050565b60006101408284031215611ca757600080fd5b611cb160e061294f565b90506000611cbf8484611ae7565b8252506020611cd084848301611ae7565b6020830152506040611ce484828501611bbb565b6040830152506060611cf884828501611bbb565b6060830152506080611d0c84828501611bbb565b60808301525060a0611d2084828501611bbb565b60a08301525060c0611c8884828501600060808284031215611d4157600080fd5b611d4b608061294f565b90506000611d598484611bbb565b8252506020611d6a84848301611d9e565b6020830152506040611d7e84828501611bbb565b6040830152506060611d9284828501611bbb565b60608301525092915050565b803561088c81612a2c565b600060208284031215611dbb57600080fd5b60006111d48484611ae7565b600080600060608486031215611ddc57600080fd5b6000611de88686611ae7565b9350506020611df986828701611ae7565b9250506040611e0a86828701611ae7565b9150509250925092565b600080600060608486031215611e2957600080fd5b6000611e358686611ae7565b9350506020611e4686828701611ae7565b9250506040611e0a86828701611bbb565b60008060408385031215611e6a57600080fd5b6000611e768585611ae7565b9250506020611e8785828601611bbb565b9150509250929050565b600060208284031215611ea357600080fd5b813567ffffffffffffffff811115611eba57600080fd5b6111d484828501611af2565b600060208284031215611ed857600080fd5b60006111d48484611bc6565b60008060006101008486031215611efa57600080fd5b6000611f068686611bd1565b93505060e084013567ffffffffffffffff811115611f2357600080fd5b611f2f86828701611b71565b92509250509250925092565b600060e08284031215611f4d57600080fd5b60006111d48484611be9565b60006101408284031215611f6c57600080fd5b60006111d48484611c94565b611f81816129a9565b82525050565b611f81816129b4565b611f81816129b9565b611f81611fa5826129b9565b6129b9565b611f81816129ce565b6000611fbe82612997565b611fc8818561299b565b9350611fd88185602086016129d9565b611fe181612a05565b9093019392505050565b6000611ff8601c836129a4565b7f54496e697469616c697a61626c652e6973496e697469616c697a6564000000008152601c0192915050565b6000612031601f8361299b565b7f526f6c65733a206163636f756e7420616c72656164792068617320726f6c6500815260200192915050565b600061206a60138361299b565b724143434f554e54535f4c4953545f454d50545960681b815260200192915050565b6000612099601c836129a4565b7f19457468657265756d205369676e6564204d6573736167653a0a3332000000008152601c0192915050565b60006120d2601e8361299b565b7f4c4f414e5f5445524d535f524551554553545f4e4f4e43455f54414b454e0000815260200192915050565b600061210b60188361299b565b7f5349474e45525f414c52454144595f5355424d49545445440000000000000000815260200192915050565b600061214460268361299b565b7f4f776e61626c653a206e6577206f776e657220697320746865207a65726f206181526564647265737360d01b602082015260400192915050565b600061218c60148361299b565b73149154d413d394d154d7d513d3d7d5905492515160621b815260200192915050565b60006121bc601b8361299b565b7f536166654d6174683a206164646974696f6e206f766572666c6f770000000000815260200192915050565b60006121f5601b8361299b565b7f53455454494e47535f4d5553545f42455f415f434f4e54524143540000000000815260200192915050565b600061222e60178361299b565b7f43414c4c45525f4d5553545f42455f434f4e5452414354000000000000000000815260200192915050565b600061226760128361299b565b7129a4a3a722a92fa727a721a2afaa20a5a2a760711b815260200192915050565b6000612295601f8361299b565b7f524551535f4c4f414e5f5445524d535f4c4d545f455843454544535f4d415800815260200192915050565b60006122ce60218361299b565b7f526f6c65733a206163636f756e7420646f6573206e6f74206861766520726f6c8152606560f81b602082015260400192915050565b600061231160218361299b565b7f536166654d6174683a206d756c7469706c69636174696f6e206f766572666c6f8152607760f81b602082015260400192915050565b600061235460208361299b565b7f4f776e61626c653a2063616c6c6572206973206e6f7420746865206f776e6572815260200192915050565b600061238d60228361299b565b7f526f6c65733a206163636f756e7420697320746865207a65726f206164647265815261737360f01b602082015260400192915050565b60006123d1602e8361299b565b7f436f6e747261637420696e7374616e63652068617320616c726561647920626581526d195b881a5b9a5d1a585b1a5e995960921b602082015260400192915050565b600061242160108361299b565b6f149154d413d394d157d156141254915160821b815260200192915050565b600061244d601f8361299b565b7f4c4f414e5445524d5f494e53554646494349454e545f524553504f4e53455300815260200192915050565b600061248660118361299b565b7014d251d3905515549157d2539590531251607a1b815260200192915050565b60006124b360188361299b565b7f53454e4445525f4841534e545f5045524d495353494f4e530000000000000000815260200192915050565b60006124ec6018836129a4565b7f426173655570677261646561626c652e73657474696e67730000000000000000815260180192915050565b600061252560188361299b565b7f434f4e54524143545f4e4f545f494e495449414c495a45440000000000000000815260200192915050565b600061255e601c8361299b565b7f434f4e54524143545f414c52454144595f494e495449414c495a454400000000815260200192915050565b8051608083019061259b8482611f90565b5060208201516125ae6020850182611f90565b5060408201516125c16040850182611f90565b5060608201516125d46060850182611f90565b50505050565b611f81816129c8565b600061088c82611feb565b60006125f98261208c565b91506126058284611f99565b50602001919050565b600061088c826124df565b6020810161088c8284611f78565b6101208101612636828c611f78565b612643602083018b611f78565b612650604083018a611f78565b61265d6060830189611f78565b61266a6080830188611f90565b61267760a0830187611f90565b61268460c0830186611f90565b61269160e0830185611f90565b61269f610100830184611f90565b9a9950505050505050505050565b61010081016126bc828b611f78565b6126c9602083018a611f90565b6126d66040830189611f90565b6126e36060830188611f90565b6126f06080830187611f90565b6126fd60a0830186611f90565b61270a60c0830185611f90565b61271760e0830184611f90565b9998505050505050505050565b6020810161088c8284611f87565b6020810161088c8284611f90565b6080810161274e8287611f90565b61275b60208301866125da565b6127686040830185611f90565b6127756060830184611f90565b95945050505050565b6020810161088c8284611faa565b6020808252810161137d8184611fb3565b6020808252810161088c81612024565b6020808252810161088c8161205d565b6020808252810161088c816120c5565b6020808252810161088c816120fe565b6020808252810161088c81612137565b6020808252810161088c8161217f565b6020808252810161088c816121af565b6020808252810161088c816121e8565b6020808252810161088c81612221565b6020808252810161088c8161225a565b6020808252810161088c81612288565b6020808252810161088c816122c1565b6020808252810161088c81612304565b6020808252810161088c81612347565b6020808252810161088c81612380565b6020808252810161088c816123c4565b6020808252810161088c81612414565b6020808252810161088c81612440565b6020808252810161088c81612479565b6020808252810161088c816124a6565b6020808252810161088c81612518565b6020808252810161088c81612551565b610180810161290c828661258a565b612919608083018561258a565b6111d461010083018461258a565b606081016129358286611f90565b6129426020830185611f90565b6111d46040830184611f90565b60405181810167ffffffffffffffff8111828210171561296e57600080fd5b604052919050565b600067ffffffffffffffff82111561298d57600080fd5b5060209081020190565b5190565b90815260200190565b919050565b600061088c826129bc565b151590565b90565b6001600160a01b031690565b60ff1690565b600061088c826129a9565b60005b838110156129f45781810151838201526020016129dc565b838111156125d45750506000910152565b601f01601f191690565b612a18816129a9565b811461072057600080fd5b612a18816129b9565b612a18816129c856fe608060405234801561001057600080fd5b5061020b806100206000396000f3fe608060405234801561001057600080fd5b50600436106100935760003560e01c80633ff591d9116100665780633ff591d9146100ca578063c41dd8ce146100d2578063cc44cadb146100da578063e00a4615146100e2578063e3f33d00146100ea57610093565b806308b04f62146100985780631139087a146100b257806311880cc8146100ba5780633b98dfdb146100c2575b600080fd5b6100a06100f2565b60408051918252519081900360200190f35b6100a0610109565b6100a0610121565b6100a0610136565b6100a061015a565b6100a0610174565b6100a061018b565b6100a06101a5565b6100a06101bb565b6f21b7b63630ba32b930b6213ab33332b960811b81565b704c6971756964617465457468507269636560781b81565b6d14d859995d1e525b9d195c9d985b60921b81565b7f526571756573744c6f616e5465726d73526174654c696d69740000000000000081565b7252657175697265645375626d697373696f6e7360681b81565b6f4d6178696d756d546f6c6572616e636560801b81565b7226b0bc34b6bab6a637b0b7223ab930ba34b7b760691b81565b6e5465726d7345787069727954696d6560881b81565b730a4cae6e0dedce6ca8af0e0d2e4f298cadccee8d60631b8156fea265627a7a72315820b6cc93d12d39f205ac91b27ee8876405b81cd752a680e010a2828f9ed81bbbb364736f6c63430005110032a365627a7a723158208fa156a17b4bf38cb5c3863c35e87243e1ae6a45159568115e7603c70a9f9c116c6578706572696d656e74616cf564736f6c63430005110040",
  "source": "pragma solidity 0.5.17;\npragma experimental ABIEncoderV2;\n\n// Contracts\nimport \"./Consensus.sol\";\n\n// Interfaces\nimport \"../interfaces/LoanTermsConsensusInterface.sol\";\n\n/*****************************************************************************************************/\n/**                                             WARNING                                             **/\n/**                                  THIS CONTRACT IS UPGRADEABLE!                                  **/\n/**  ---------------------------------------------------------------------------------------------  **/\n/**  Do NOT change the order of or PREPEND any storage variables to this or new versions of this    **/\n/**  contract as this will cause the the storage slots to be overwritten on the proxy contract!!    **/\n/**                                                                                                 **/\n/**  Visit https://docs.openzeppelin.com/upgrades/2.6/proxies#upgrading-via-the-proxy-pattern for   **/\n/**  more information.                                                                              **/\n/*****************************************************************************************************/\n/**\n    @notice This contract is used to process the loan requests through the Teller protocol\n\n    @author develop@teller.finance\n */\ncontract LoanTermsConsensus is LoanTermsConsensusInterface, Consensus {\n    /* Mappings */\n    /**\n        @notice It identifies the loan terms submissions for a given borrower address and a request nonce.\n\n        @dev Examples:\n            @address(0x123...567) => 1 => AccruedLoanTerms({...})\n            @address(0x123...567) => 2 => AccruedLoanTerms({...})\n            @address(0x234...678) => 1 => AccruedLoanTerms({...})\n     */\n    mapping(address => mapping(uint256 => TellerCommon.AccruedLoanTerms))\n        public termSubmissions;\n\n    /**\n        This mapping identify the last request timestamp for a given borrower address.\n\n            Example:    address(0x123...789) = timestamp(now)\n        \n        It is used as rate limit per borrower address.\n     */\n    mapping(address => uint256) public borrowerToLastLoanTermRequest;\n\n    /**\n        @notice Processes the loan request\n        @param request Struct of the protocol loan request\n        @param responses List of structs of the protocol loan responses\n        @return uint256 Interest rate\n        @return uint256 Collateral ratio\n        @return uint256 Maximum loan amount\n     */\n    function processRequest(\n        TellerCommon.LoanRequest calldata request,\n        TellerCommon.LoanResponse[] calldata responses\n    )\n        external\n        isInitialized()\n        isCaller(msg.sender)\n        returns (\n            uint256 interestRate,\n            uint256 collateralRatio,\n            uint256 maxLoanAmount\n        )\n    {\n        require(\n            responses.length >=\n                settings().getPlatformSettingValue(consts.REQUIRED_SUBMISSIONS_SETTING()),\n            \"LOANTERM_INSUFFICIENT_RESPONSES\"\n        );\n        _requireRequestLoanTermsRateLimit(request);\n        require(\n            !requestNonceTaken[request.borrower][request.requestNonce],\n            \"LOAN_TERMS_REQUEST_NONCE_TAKEN\"\n        );\n        requestNonceTaken[request.borrower][request.requestNonce] = true;\n\n        bytes32 requestHash = _hashRequest(request);\n\n        for (uint256 i = 0; i < responses.length; i++) {\n            _processResponse(request, responses[i], requestHash);\n        }\n\n        interestRate = _getConsensus(\n            termSubmissions[request.borrower][request.requestNonce].interestRate\n        );\n        collateralRatio = _getConsensus(\n            termSubmissions[request.borrower][request.requestNonce].collateralRatio\n        );\n        maxLoanAmount = _getConsensus(\n            termSubmissions[request.borrower][request.requestNonce].maxLoanAmount\n        );\n        borrowerToLastLoanTermRequest[request.borrower] = now;\n\n        emit TermsAccepted(\n            request.borrower,\n            request.requestNonce,\n            interestRate,\n            collateralRatio,\n            maxLoanAmount\n        );\n    }\n\n    /**\n        @notice Processes the loan response\n        @param request Struct of the protocol loan request\n        @param response List of structs of the protocol loan responses\n        @param requestHash bytes32 Hash of the loan request\n     */\n    function _processResponse(\n        TellerCommon.LoanRequest memory request,\n        TellerCommon.LoanResponse memory response,\n        bytes32 requestHash\n    ) internal {\n        bytes32 responseHash = _hashResponse(response, requestHash);\n\n        _validateResponse(\n            response.signer,\n            request.borrower,\n            request.requestNonce,\n            response.responseTime,\n            responseHash,\n            response.signature\n        );\n\n        termSubmissions[request.borrower][request.requestNonce].interestRate.addValue(\n            response.interestRate\n        );\n        termSubmissions[request.borrower][request.requestNonce].collateralRatio.addValue(\n            response.collateralRatio\n        );\n        termSubmissions[request.borrower][request.requestNonce].maxLoanAmount.addValue(\n            response.maxLoanAmount\n        );\n\n        emit TermsSubmitted(\n            response.signer,\n            request.borrower,\n            request.requestNonce,\n            response.interestRate,\n            response.collateralRatio,\n            response.maxLoanAmount\n        );\n    }\n\n    /**\n        @notice Generates a hash for the loan response\n        @param response Structs of the protocol loan responses\n        @param requestHash Hash of the loan request\n        @return bytes32 Hash of the loan response\n     */\n    function _hashResponse(TellerCommon.LoanResponse memory response, bytes32 requestHash)\n        internal\n        view\n        returns (bytes32)\n    {\n        return\n            keccak256(\n                abi.encode(\n                    response.consensusAddress,\n                    response.responseTime,\n                    response.interestRate,\n                    response.collateralRatio,\n                    response.maxLoanAmount,\n                    response.signature.signerNonce,\n                    _getChainId(),\n                    requestHash\n                )\n            );\n    }\n\n    /**\n        @notice Generates a hash for the loan request\n        @param request Struct of the protocol loan request\n        @return bytes32 Hash of the loan request\n     */\n    function _hashRequest(TellerCommon.LoanRequest memory request)\n        internal\n        view\n        returns (bytes32)\n    {\n        return\n            keccak256(\n                abi.encode(\n                    callerAddress,\n                    request.borrower,\n                    request.recipient,\n                    request.consensusAddress,\n                    request.requestNonce,\n                    request.amount,\n                    request.duration,\n                    request.requestTime,\n                    _getChainId()\n                )\n            );\n    }\n\n    /**\n        @notice It validates whether the time window between the last loan terms request and current one exceeds the maximum rate limit.\n        @param request the new request.\n        @dev It throws a require error if the request rate limit exceeds the maximum.\n     */\n    function _requireRequestLoanTermsRateLimit(TellerCommon.LoanRequest memory request)\n        internal\n        view\n    {\n        // In case it is the first time that borrower requests loan terms, we don't validate the rate limit.\n        if (borrowerToLastLoanTermRequest[request.borrower] == 0) {\n            return;\n        }\n        uint256 requestLoanTermsRateLimit = settings().getPlatformSettingValue(\n            consts.REQUEST_LOAN_TERMS_RATE_LIMIT_SETTING()\n        );\n        require(\n            borrowerToLastLoanTermRequest[request.borrower].add(\n                requestLoanTermsRateLimit\n            ) <= now,\n            \"REQS_LOAN_TERMS_LMT_EXCEEDS_MAX\"\n        );\n    }\n}\n",
  "sourcePath": "/Users/sy/Documents/GitHub/teller-protocol-v1/contracts/base/LoanTermsConsensus.sol",
  "compiler": {
    "name": "solc",
    "version": "0.5.17+commit.d19bba13.Emscripten.clang"
  },
  "schemaVersion": "3.0.23",
  "updatedAt": "2020-09-06T02:15:12.245Z",
  "devdoc": {
    "author": "develop@teller.finance",
    "methods": {
      "addSigner(address)": {
        "details": "The sender must be the owner.It throws a require error if the sender is not the owner.",
        "params": {
          "account": "address to add."
        }
      },
      "addSigners(address[])": {
        "details": "The sender must be the owner.It throws a require error if the sender is not the owner.",
        "params": {
          "accounts": "addresses to add."
        }
      },
      "initialize(address)": {
        "details": "Initializes the contract setting the deployer as the initial owner."
      },
      "initialize(address,address,address)": {
        "details": "The caller address must be the loans contract for LoanTermsConsensus, and the lenders contract for InterestConsensus.",
        "params": {
          "aCallerAddress": "the contract that will call it.",
          "aSettingAddress": "the settings contract address.",
          "owner": "the owner address."
        }
      },
      "initialized()": {
        "return": "true if contract is initialized. Otherwise it returns false."
      },
      "isOwner()": {
        "details": "Returns true if the caller is the current owner."
      },
      "isSigner(address)": {
        "params": {
          "account": "address to test."
        },
        "return": "true if account is a signer. Otherwise it returns false."
      },
      "owner()": {
        "details": "Returns the address of the current owner."
      },
      "processRequest((address,address,address,uint256,uint256,uint256,uint256),(address,address,uint256,uint256,uint256,uint256,(uint256,uint8,bytes32,bytes32))[])": {
        "params": {
          "request": "Struct of the protocol loan request",
          "responses": "List of structs of the protocol loan responses"
        },
        "return": "uint256 Interest rateuint256 Collateral ratiouint256 Maximum loan amount"
      },
      "removeSigner(address)": {
        "details": "The sender must be the owner.It throws a require error if the sender is not the owner.",
        "params": {
          "account": "address to remove."
        }
      },
      "renounceOwnership()": {
        "details": "Leaves the contract without owner. It will not be possible to call `onlyOwner` functions anymore. Can only be called by the current owner.     * > Note: Renouncing ownership will leave the contract without an owner, thereby removing any functionality that is only available to the owner."
      },
      "transferOwnership(address)": {
        "details": "Transfers ownership of the contract to a new account (`newOwner`). Can only be called by the current owner."
      }
    }
  },
  "userdoc": {
    "methods": {
      "addSigner(address)": {
        "notice": "It adds a new account as a signer."
      },
      "addSigners(address[])": {
        "notice": "It adds a list of account as signers."
      },
      "initialize(address,address,address)": {
        "notice": "It initializes this consensus contract."
      },
      "initialized()": {
        "notice": "Gets if the contract is initialized."
      },
      "isSigner(address)": {
        "notice": "Gets whether an account address is a signer or not."
      },
      "processRequest((address,address,address,uint256,uint256,uint256,uint256),(address,address,uint256,uint256,uint256,uint256,(uint256,uint8,bytes32,bytes32))[])": {
        "notice": "Processes the loan request"
      },
      "removeSigner(address)": {
        "notice": "It removes an account as signer."
      },
      "settings()": {
        "notice": "The settings contract."
      }
    },
    "notice": "This contract is used to process the loan requests through the Teller protocol"
  }
}