{
  "contractName": "LoanTermsConsensusMock",
  "abi": [
    {
      "anonymous": false,
      "inputs": [
        {
          "indexed": true,
          "internalType": "address",
          "name": "previousOwner",
          "type": "address"
        },
        {
          "indexed": true,
          "internalType": "address",
          "name": "newOwner",
          "type": "address"
        }
      ],
      "name": "OwnershipTransferred",
      "type": "event"
    },
    {
      "anonymous": false,
      "inputs": [
        {
          "indexed": true,
          "internalType": "address",
          "name": "account",
          "type": "address"
        }
      ],
      "name": "SignerAdded",
      "type": "event"
    },
    {
      "anonymous": false,
      "inputs": [
        {
          "indexed": true,
          "internalType": "address",
          "name": "account",
          "type": "address"
        }
      ],
      "name": "SignerRemoved",
      "type": "event"
    },
    {
      "anonymous": false,
      "inputs": [
        {
          "indexed": true,
          "internalType": "address",
          "name": "borrower",
          "type": "address"
        },
        {
          "indexed": true,
          "internalType": "uint256",
          "name": "requestNonce",
          "type": "uint256"
        },
        {
          "indexed": false,
          "internalType": "uint256",
          "name": "interestRate",
          "type": "uint256"
        },
        {
          "indexed": false,
          "internalType": "uint256",
          "name": "collateralRatio",
          "type": "uint256"
        },
        {
          "indexed": false,
          "internalType": "uint256",
          "name": "maxLoanAmount",
          "type": "uint256"
        }
      ],
      "name": "TermsAccepted",
      "type": "event"
    },
    {
      "anonymous": false,
      "inputs": [
        {
          "indexed": true,
          "internalType": "address",
          "name": "signer",
          "type": "address"
        },
        {
          "indexed": true,
          "internalType": "address",
          "name": "borrower",
          "type": "address"
        },
        {
          "indexed": true,
          "internalType": "uint256",
          "name": "requestNonce",
          "type": "uint256"
        },
        {
          "indexed": false,
          "internalType": "uint256",
          "name": "signerNonce",
          "type": "uint256"
        },
        {
          "indexed": false,
          "internalType": "uint256",
          "name": "interestRate",
          "type": "uint256"
        },
        {
          "indexed": false,
          "internalType": "uint256",
          "name": "collateralRatio",
          "type": "uint256"
        },
        {
          "indexed": false,
          "internalType": "uint256",
          "name": "maxLoanAmount",
          "type": "uint256"
        }
      ],
      "name": "TermsSubmitted",
      "type": "event"
    },
    {
      "constant": false,
      "inputs": [
        {
          "internalType": "address",
          "name": "account",
          "type": "address"
        }
      ],
      "name": "addSigner",
      "outputs": [],
      "payable": false,
      "stateMutability": "nonpayable",
      "type": "function"
    },
    {
      "constant": false,
      "inputs": [
        {
          "internalType": "address[]",
          "name": "accounts",
          "type": "address[]"
        }
      ],
      "name": "addSigners",
      "outputs": [],
      "payable": false,
      "stateMutability": "nonpayable",
      "type": "function"
    },
    {
      "constant": true,
      "inputs": [
        {
          "internalType": "address",
          "name": "",
          "type": "address"
        }
      ],
      "name": "borrowerToLastLoanTermRequest",
      "outputs": [
        {
          "internalType": "uint256",
          "name": "",
          "type": "uint256"
        }
      ],
      "payable": false,
      "stateMutability": "view",
      "type": "function"
    },
    {
      "constant": true,
      "inputs": [],
      "name": "callerAddress",
      "outputs": [
        {
          "internalType": "address",
          "name": "",
          "type": "address"
        }
      ],
      "payable": false,
      "stateMutability": "view",
      "type": "function"
    },
    {
      "constant": true,
      "inputs": [
        {
          "internalType": "address",
          "name": "",
          "type": "address"
        },
        {
          "internalType": "address",
          "name": "",
          "type": "address"
        },
        {
          "internalType": "uint256",
          "name": "",
          "type": "uint256"
        }
      ],
      "name": "hasSubmitted",
      "outputs": [
        {
          "internalType": "bool",
          "name": "",
          "type": "bool"
        }
      ],
      "payable": false,
      "stateMutability": "view",
      "type": "function"
    },
    {
      "constant": false,
      "inputs": [],
      "name": "initialize",
      "outputs": [],
      "payable": false,
      "stateMutability": "nonpayable",
      "type": "function"
    },
    {
      "constant": false,
      "inputs": [
        {
          "internalType": "address",
          "name": "owner",
          "type": "address"
        },
        {
          "internalType": "address",
          "name": "aCallerAddress",
          "type": "address"
        },
        {
          "internalType": "address",
          "name": "aSettingAddress",
          "type": "address"
        }
      ],
      "name": "initialize",
      "outputs": [],
      "payable": false,
      "stateMutability": "nonpayable",
      "type": "function"
    },
    {
      "constant": false,
      "inputs": [
        {
          "internalType": "address",
          "name": "sender",
          "type": "address"
        }
      ],
      "name": "initialize",
      "outputs": [],
      "payable": false,
      "stateMutability": "nonpayable",
      "type": "function"
    },
    {
      "constant": true,
      "inputs": [],
      "name": "initialized",
      "outputs": [
        {
          "internalType": "bool",
          "name": "value",
          "type": "bool"
        }
      ],
      "payable": false,
      "stateMutability": "view",
      "type": "function"
    },
    {
      "constant": true,
      "inputs": [],
      "name": "isOwner",
      "outputs": [
        {
          "internalType": "bool",
          "name": "",
          "type": "bool"
        }
      ],
      "payable": false,
      "stateMutability": "view",
      "type": "function"
    },
    {
      "constant": true,
      "inputs": [
        {
          "internalType": "address",
          "name": "account",
          "type": "address"
        }
      ],
      "name": "isSigner",
      "outputs": [
        {
          "internalType": "bool",
          "name": "",
          "type": "bool"
        }
      ],
      "payable": false,
      "stateMutability": "view",
      "type": "function"
    },
    {
      "constant": true,
      "inputs": [],
      "name": "owner",
      "outputs": [
        {
          "internalType": "address",
          "name": "",
          "type": "address"
        }
      ],
      "payable": false,
      "stateMutability": "view",
      "type": "function"
    },
    {
      "constant": false,
      "inputs": [
        {
          "components": [
            {
              "internalType": "address payable",
              "name": "borrower",
              "type": "address"
            },
            {
              "internalType": "address",
              "name": "recipient",
              "type": "address"
            },
            {
              "internalType": "address",
              "name": "consensusAddress",
              "type": "address"
            },
            {
              "internalType": "uint256",
              "name": "requestNonce",
              "type": "uint256"
            },
            {
              "internalType": "uint256",
              "name": "amount",
              "type": "uint256"
            },
            {
              "internalType": "uint256",
              "name": "duration",
              "type": "uint256"
            },
            {
              "internalType": "uint256",
              "name": "requestTime",
              "type": "uint256"
            }
          ],
          "internalType": "struct TellerCommon.LoanRequest",
          "name": "request",
          "type": "tuple"
        },
        {
          "components": [
            {
              "internalType": "address",
              "name": "signer",
              "type": "address"
            },
            {
              "internalType": "address",
              "name": "consensusAddress",
              "type": "address"
            },
            {
              "internalType": "uint256",
              "name": "responseTime",
              "type": "uint256"
            },
            {
              "internalType": "uint256",
              "name": "interestRate",
              "type": "uint256"
            },
            {
              "internalType": "uint256",
              "name": "collateralRatio",
              "type": "uint256"
            },
            {
              "internalType": "uint256",
              "name": "maxLoanAmount",
              "type": "uint256"
            },
            {
              "components": [
                {
                  "internalType": "uint256",
                  "name": "signerNonce",
                  "type": "uint256"
                },
                {
                  "internalType": "uint8",
                  "name": "v",
                  "type": "uint8"
                },
                {
                  "internalType": "bytes32",
                  "name": "r",
                  "type": "bytes32"
                },
                {
                  "internalType": "bytes32",
                  "name": "s",
                  "type": "bytes32"
                }
              ],
              "internalType": "struct TellerCommon.Signature",
              "name": "signature",
              "type": "tuple"
            }
          ],
          "internalType": "struct TellerCommon.LoanResponse[]",
          "name": "responses",
          "type": "tuple[]"
        }
      ],
      "name": "processRequest",
      "outputs": [
        {
          "internalType": "uint256",
          "name": "interestRate",
          "type": "uint256"
        },
        {
          "internalType": "uint256",
          "name": "collateralRatio",
          "type": "uint256"
        },
        {
          "internalType": "uint256",
          "name": "maxLoanAmount",
          "type": "uint256"
        }
      ],
      "payable": false,
      "stateMutability": "nonpayable",
      "type": "function"
    },
    {
      "constant": false,
      "inputs": [
        {
          "internalType": "address",
          "name": "account",
          "type": "address"
        }
      ],
      "name": "removeSigner",
      "outputs": [],
      "payable": false,
      "stateMutability": "nonpayable",
      "type": "function"
    },
    {
      "constant": false,
      "inputs": [],
      "name": "renounceOwnership",
      "outputs": [],
      "payable": false,
      "stateMutability": "nonpayable",
      "type": "function"
    },
    {
      "constant": true,
      "inputs": [
        {
          "internalType": "address",
          "name": "",
          "type": "address"
        },
        {
          "internalType": "uint256",
          "name": "",
          "type": "uint256"
        }
      ],
      "name": "requestNonceTaken",
      "outputs": [
        {
          "internalType": "bool",
          "name": "",
          "type": "bool"
        }
      ],
      "payable": false,
      "stateMutability": "view",
      "type": "function"
    },
    {
      "constant": true,
      "inputs": [],
      "name": "settings",
      "outputs": [
        {
          "internalType": "contract SettingsInterface",
          "name": "",
          "type": "address"
        }
      ],
      "payable": false,
      "stateMutability": "view",
      "type": "function"
    },
    {
      "constant": true,
      "inputs": [
        {
          "internalType": "address",
          "name": "",
          "type": "address"
        },
        {
          "internalType": "uint256",
          "name": "",
          "type": "uint256"
        }
      ],
      "name": "signerNonceTaken",
      "outputs": [
        {
          "internalType": "bool",
          "name": "",
          "type": "bool"
        }
      ],
      "payable": false,
      "stateMutability": "view",
      "type": "function"
    },
    {
      "constant": true,
      "inputs": [
        {
          "internalType": "address",
          "name": "",
          "type": "address"
        },
        {
          "internalType": "uint256",
          "name": "",
          "type": "uint256"
        }
      ],
      "name": "termSubmissions",
      "outputs": [
        {
          "components": [
            {
              "internalType": "uint256",
              "name": "count",
              "type": "uint256"
            },
            {
              "internalType": "uint256",
              "name": "max",
              "type": "uint256"
            },
            {
              "internalType": "uint256",
              "name": "min",
              "type": "uint256"
            },
            {
              "internalType": "uint256",
              "name": "sum",
              "type": "uint256"
            }
          ],
          "internalType": "struct NumbersList.Values",
          "name": "interestRate",
          "type": "tuple"
        },
        {
          "components": [
            {
              "internalType": "uint256",
              "name": "count",
              "type": "uint256"
            },
            {
              "internalType": "uint256",
              "name": "max",
              "type": "uint256"
            },
            {
              "internalType": "uint256",
              "name": "min",
              "type": "uint256"
            },
            {
              "internalType": "uint256",
              "name": "sum",
              "type": "uint256"
            }
          ],
          "internalType": "struct NumbersList.Values",
          "name": "collateralRatio",
          "type": "tuple"
        },
        {
          "components": [
            {
              "internalType": "uint256",
              "name": "count",
              "type": "uint256"
            },
            {
              "internalType": "uint256",
              "name": "max",
              "type": "uint256"
            },
            {
              "internalType": "uint256",
              "name": "min",
              "type": "uint256"
            },
            {
              "internalType": "uint256",
              "name": "sum",
              "type": "uint256"
            }
          ],
          "internalType": "struct NumbersList.Values",
          "name": "maxLoanAmount",
          "type": "tuple"
        }
      ],
      "payable": false,
      "stateMutability": "view",
      "type": "function"
    },
    {
      "constant": false,
      "inputs": [
        {
          "internalType": "address",
          "name": "newOwner",
          "type": "address"
        }
      ],
      "name": "transferOwnership",
      "outputs": [],
      "payable": false,
      "stateMutability": "nonpayable",
      "type": "function"
    },
    {
      "constant": false,
      "inputs": [
        {
          "internalType": "address",
          "name": "borrower",
          "type": "address"
        },
        {
          "internalType": "uint256",
          "name": "requestNonce",
          "type": "uint256"
        },
        {
          "internalType": "uint256",
          "name": "totalSubmissions",
          "type": "uint256"
        },
        {
          "internalType": "uint256",
          "name": "maxValue",
          "type": "uint256"
        },
        {
          "internalType": "uint256",
          "name": "minValue",
          "type": "uint256"
        },
        {
          "internalType": "uint256",
          "name": "sumOfValues",
          "type": "uint256"
        }
      ],
      "name": "mockInterestRateSubmissions",
      "outputs": [],
      "payable": false,
      "stateMutability": "nonpayable",
      "type": "function"
    },
    {
      "constant": false,
      "inputs": [
        {
          "internalType": "address",
          "name": "borrower",
          "type": "address"
        },
        {
          "internalType": "uint256",
          "name": "requestNonce",
          "type": "uint256"
        },
        {
          "internalType": "uint256",
          "name": "totalSubmissions",
          "type": "uint256"
        },
        {
          "internalType": "uint256",
          "name": "maxValue",
          "type": "uint256"
        },
        {
          "internalType": "uint256",
          "name": "minValue",
          "type": "uint256"
        },
        {
          "internalType": "uint256",
          "name": "sumOfValues",
          "type": "uint256"
        }
      ],
      "name": "mockCollateralRatioSubmissions",
      "outputs": [],
      "payable": false,
      "stateMutability": "nonpayable",
      "type": "function"
    },
    {
      "constant": false,
      "inputs": [
        {
          "internalType": "address",
          "name": "borrower",
          "type": "address"
        },
        {
          "internalType": "uint256",
          "name": "requestNonce",
          "type": "uint256"
        },
        {
          "internalType": "uint256",
          "name": "totalSubmissions",
          "type": "uint256"
        },
        {
          "internalType": "uint256",
          "name": "maxValue",
          "type": "uint256"
        },
        {
          "internalType": "uint256",
          "name": "minValue",
          "type": "uint256"
        },
        {
          "internalType": "uint256",
          "name": "sumOfValues",
          "type": "uint256"
        }
      ],
      "name": "mockMaxAmountSubmissions",
      "outputs": [],
      "payable": false,
      "stateMutability": "nonpayable",
      "type": "function"
    },
    {
      "constant": false,
      "inputs": [
        {
          "internalType": "address",
          "name": "signer",
          "type": "address"
        },
        {
          "internalType": "address",
          "name": "lender",
          "type": "address"
        },
        {
          "internalType": "uint256",
          "name": "blockNumber",
          "type": "uint256"
        },
        {
          "internalType": "bool",
          "name": "hasSub",
          "type": "bool"
        }
      ],
      "name": "mockHasSubmitted",
      "outputs": [],
      "payable": false,
      "stateMutability": "nonpayable",
      "type": "function"
    },
    {
      "constant": false,
      "inputs": [
        {
          "internalType": "address",
          "name": "signer",
          "type": "address"
        },
        {
          "internalType": "uint256",
          "name": "signerNonce",
          "type": "uint256"
        },
        {
          "internalType": "bool",
          "name": "taken",
          "type": "bool"
        }
      ],
      "name": "mockSignerNonce",
      "outputs": [],
      "payable": false,
      "stateMutability": "nonpayable",
      "type": "function"
    },
    {
      "constant": false,
      "inputs": [
        {
          "internalType": "address",
          "name": "borrower",
          "type": "address"
        },
        {
          "internalType": "uint256",
          "name": "lastTime",
          "type": "uint256"
        }
      ],
      "name": "mockBorrowerToLastLoanTermRequest",
      "outputs": [],
      "payable": false,
      "stateMutability": "nonpayable",
      "type": "function"
    },
    {
      "constant": false,
      "inputs": [
        {
          "internalType": "address",
          "name": "borrower",
          "type": "address"
        },
        {
          "internalType": "uint256",
          "name": "borrowerNonce",
          "type": "uint256"
        },
        {
          "internalType": "bool",
          "name": "taken",
          "type": "bool"
        }
      ],
      "name": "mockRequestNonce",
      "outputs": [],
      "payable": false,
      "stateMutability": "nonpayable",
      "type": "function"
    },
    {
      "constant": false,
      "inputs": [
        {
          "internalType": "uint256",
          "name": "newChainId",
          "type": "uint256"
        }
      ],
      "name": "mockChainId",
      "outputs": [],
      "payable": false,
      "stateMutability": "nonpayable",
      "type": "function"
    },
    {
      "constant": false,
      "inputs": [
        {
          "components": [
            {
              "internalType": "address payable",
              "name": "borrower",
              "type": "address"
            },
            {
              "internalType": "address",
              "name": "recipient",
              "type": "address"
            },
            {
              "internalType": "address",
              "name": "consensusAddress",
              "type": "address"
            },
            {
              "internalType": "uint256",
              "name": "requestNonce",
              "type": "uint256"
            },
            {
              "internalType": "uint256",
              "name": "amount",
              "type": "uint256"
            },
            {
              "internalType": "uint256",
              "name": "duration",
              "type": "uint256"
            },
            {
              "internalType": "uint256",
              "name": "requestTime",
              "type": "uint256"
            }
          ],
          "internalType": "struct TellerCommon.LoanRequest",
          "name": "request",
          "type": "tuple"
        },
        {
          "components": [
            {
              "internalType": "address",
              "name": "signer",
              "type": "address"
            },
            {
              "internalType": "address",
              "name": "consensusAddress",
              "type": "address"
            },
            {
              "internalType": "uint256",
              "name": "responseTime",
              "type": "uint256"
            },
            {
              "internalType": "uint256",
              "name": "interestRate",
              "type": "uint256"
            },
            {
              "internalType": "uint256",
              "name": "collateralRatio",
              "type": "uint256"
            },
            {
              "internalType": "uint256",
              "name": "maxLoanAmount",
              "type": "uint256"
            },
            {
              "components": [
                {
                  "internalType": "uint256",
                  "name": "signerNonce",
                  "type": "uint256"
                },
                {
                  "internalType": "uint8",
                  "name": "v",
                  "type": "uint8"
                },
                {
                  "internalType": "bytes32",
                  "name": "r",
                  "type": "bytes32"
                },
                {
                  "internalType": "bytes32",
                  "name": "s",
                  "type": "bytes32"
                }
              ],
              "internalType": "struct TellerCommon.Signature",
              "name": "signature",
              "type": "tuple"
            }
          ],
          "internalType": "struct TellerCommon.LoanResponse",
          "name": "response",
          "type": "tuple"
        },
        {
          "internalType": "bytes32",
          "name": "requestHash",
          "type": "bytes32"
        }
      ],
      "name": "externalProcessResponse",
      "outputs": [],
      "payable": false,
      "stateMutability": "nonpayable",
      "type": "function"
    },
    {
      "constant": true,
      "inputs": [
        {
          "components": [
            {
              "internalType": "address",
              "name": "signer",
              "type": "address"
            },
            {
              "internalType": "address",
              "name": "consensusAddress",
              "type": "address"
            },
            {
              "internalType": "uint256",
              "name": "responseTime",
              "type": "uint256"
            },
            {
              "internalType": "uint256",
              "name": "interestRate",
              "type": "uint256"
            },
            {
              "internalType": "uint256",
              "name": "collateralRatio",
              "type": "uint256"
            },
            {
              "internalType": "uint256",
              "name": "maxLoanAmount",
              "type": "uint256"
            },
            {
              "components": [
                {
                  "internalType": "uint256",
                  "name": "signerNonce",
                  "type": "uint256"
                },
                {
                  "internalType": "uint8",
                  "name": "v",
                  "type": "uint8"
                },
                {
                  "internalType": "bytes32",
                  "name": "r",
                  "type": "bytes32"
                },
                {
                  "internalType": "bytes32",
                  "name": "s",
                  "type": "bytes32"
                }
              ],
              "internalType": "struct TellerCommon.Signature",
              "name": "signature",
              "type": "tuple"
            }
          ],
          "internalType": "struct TellerCommon.LoanResponse",
          "name": "response",
          "type": "tuple"
        },
        {
          "internalType": "bytes32",
          "name": "requestHash",
          "type": "bytes32"
        }
      ],
      "name": "externalHashResponse",
      "outputs": [
        {
          "internalType": "bytes32",
          "name": "",
          "type": "bytes32"
        }
      ],
      "payable": false,
      "stateMutability": "view",
      "type": "function"
    },
    {
      "constant": true,
      "inputs": [
        {
          "components": [
            {
              "internalType": "address payable",
              "name": "borrower",
              "type": "address"
            },
            {
              "internalType": "address",
              "name": "recipient",
              "type": "address"
            },
            {
              "internalType": "address",
              "name": "consensusAddress",
              "type": "address"
            },
            {
              "internalType": "uint256",
              "name": "requestNonce",
              "type": "uint256"
            },
            {
              "internalType": "uint256",
              "name": "amount",
              "type": "uint256"
            },
            {
              "internalType": "uint256",
              "name": "duration",
              "type": "uint256"
            },
            {
              "internalType": "uint256",
              "name": "requestTime",
              "type": "uint256"
            }
          ],
          "internalType": "struct TellerCommon.LoanRequest",
          "name": "request",
          "type": "tuple"
        }
      ],
      "name": "externalHashRequest",
      "outputs": [
        {
          "internalType": "bytes32",
          "name": "",
          "type": "bytes32"
        }
      ],
      "payable": false,
      "stateMutability": "view",
      "type": "function"
    },
    {
      "constant": true,
      "inputs": [
        {
          "components": [
            {
              "internalType": "address payable",
              "name": "borrower",
              "type": "address"
            },
            {
              "internalType": "address",
              "name": "recipient",
              "type": "address"
            },
            {
              "internalType": "address",
              "name": "consensusAddress",
              "type": "address"
            },
            {
              "internalType": "uint256",
              "name": "requestNonce",
              "type": "uint256"
            },
            {
              "internalType": "uint256",
              "name": "amount",
              "type": "uint256"
            },
            {
              "internalType": "uint256",
              "name": "duration",
              "type": "uint256"
            },
            {
              "internalType": "uint256",
              "name": "requestTime",
              "type": "uint256"
            }
          ],
          "internalType": "struct TellerCommon.LoanRequest",
          "name": "request",
          "type": "tuple"
        }
      ],
      "name": "externalRequireRequestLoanTermsRateLimit",
      "outputs": [
        {
          "internalType": "bool",
          "name": "",
          "type": "bool"
        }
      ],
      "payable": false,
      "stateMutability": "view",
      "type": "function"
    }
  ],
  "bytecode": "0x6080604052600160a0556131ec806100186000396000f3fe608060405234801561001057600080fd5b50600436106101ef5760003560e01c80638f32d59b1161010f578063db43f259116100a2578063f2fde38b11610071578063f2fde38b14610423578063f76a5ab314610436578063faa8aab114610449578063fb98d9e214610451576101ef565b8063db43f259146103d5578063e06174e4146103e8578063e8906a2d146103fd578063eb12d61e14610410576101ef565b8063a9e5c5c9116100de578063a9e5c5c914610389578063c0c53b8b1461039c578063c4d66de8146103af578063cdca1059146103c2576101ef565b80638f32d59b1461034857806391d0e88e1461035057806399ffe065146103635780639f24a12d14610376576101ef565b80632aac635e116101875780637df73e27116101565780637df73e27146103055780637ec3f83c146103185780638129fc1c1461032b5780638da5cb5b14610333576101ef565b80632aac635e146102b557806368fcdeb8146102d7578063690ada67146102ea578063715018a6146102fd576101ef565b80630e316ab7116101c35780630e316ab714610267578063158ef93e1461027a5780631d37e8821461028f57806325bb7ff9146102a2576101ef565b80627ab3ba146101f45780630303016214610209578063064e5d4914610232578063096fe0a914610254575b600080fd5b61020761020236600461243d565b610464565b005b61021c610217366004612578565b610499565b6040516102299190612e79565b60405180910390f35b610245610240366004612596565b6104b8565b6040516102299392919061306e565b6102076102623660046125ed565b610938565b6102076102753660046122f4565b610964565b610282610994565b6040516102299190612e6b565b61020761029d3660046123a2565b6109b3565b6102076102b0366004612480565b6109f7565b6102c86102c3366004612403565b610a59565b60405161022993929190613044565b6102826102e5366004612403565b610b02565b6102076102f8366004612403565b610b22565b610207610b3e565b6102826103133660046122f4565b610bac565b610282610326366004612578565b610bbf565b610207610bdb565b61033b610c62565b6040516102299190612d60565b610282610c71565b61021c61035e366004612650565b610c97565b61028261037136600461235f565b610cb8565b61021c6103843660046122f4565b610cde565b610207610397366004612480565b610cf0565b6102076103aa366004612312565b610d52565b6102076103bd3660046122f4565b610ddb565b6102076103d0366004612480565b610eae565b6102076103e336600461243d565b610f0d565b6103f0610f42565b6040516102299190612ec5565b61020761040b366004612507565b610f64565b61020761041e3660046122f4565b610fec565b6102076104313660046122f4565b611019565b6102076104443660046126a1565b611046565b61033b61104b565b61028261045f366004612403565b61105a565b6001600160a01b03929092166000908152609d6020908152604080832093835292905220805460ff1916911515919091179055565b60006104b26104ad36849003840184612632565b61107a565b92915050565b60008060006104c5610994565b6104ea5760405162461bcd60e51b81526004016104e190613024565b60405180910390fd5b336104f4816110ed565b6105105760405162461bcd60e51b81526004016104e190613014565b610518610f42565b6001600160a01b031663269012a061052e610f42565b6001600160a01b031663d86d744e6040518163ffffffff1660e01b815260040160206040518083038186803b15801561056657600080fd5b505afa15801561057a573d6000803e3d6000fd5b505050506040513d601f19601f8201168201806040525061059e919081019061255a565b6001600160a01b0316633ff591d96040518163ffffffff1660e01b815260040160206040518083038186803b1580156105d657600080fd5b505afa1580156105ea573d6000803e3d6000fd5b505050506040513d601f19601f8201168201806040525061060e919081019061253c565b6040518263ffffffff1660e01b815260040161062a9190612e79565b60206040518083038186803b15801561064257600080fd5b505afa158015610656573d6000803e3d6000fd5b505050506040513d601f19601f8201168201806040525061067a919081019061253c565b8510156106995760405162461bcd60e51b81526004016104e190612ff4565b6106b06106ab36899003890189612632565b6110f3565b609d60006106c160208a018a6122f4565b6001600160a01b031681526020808201929092526040908101600090812060608b0135825290925290205460ff161561070c5760405162461bcd60e51b81526004016104e190612f04565b6001609d600061071f60208b018b6122f4565b6001600160a01b031681526020808201929092526040908101600090812060608c013582529092528120805460ff19169215159290921790915561076b6104ad368a90038a018a612632565b905060005b868110156107bb576107b361078a368b90038b018b612632565b89898481811061079657fe5b905061014002018036036107ad9190810190612682565b846112cf565b600101610770565b506107ff609e60006107d060208c018c6122f4565b6001600160a01b031681526020808201929092526040908101600090812060608d013582529092529020611436565b9450610852609e600061081560208c018c6122f4565b6001600160a01b03166001600160a01b0316815260200190815260200160002060008a606001358152602001908152602001600020600401611436565b93506108a5609e600061086860208c018c6122f4565b6001600160a01b03166001600160a01b0316815260200190815260200160002060008a606001358152602001908152602001600020600801611436565b925042609f60006108b960208c018c6122f4565b6001600160a01b03168152602080820192909252604001600020919091556060890135906108e9908a018a6122f4565b6001600160a01b03167f658dfc9759b55173ea96c7bd8d4ad2c3e3804d28d83d2e1a25569a2fecb672088787876040516109259392919061306e565b60405180910390a3505093509350939050565b61095f61094a36859003850185612632565b61095936859003850185612682565b836112cf565b505050565b61096c610c71565b6109885760405162461bcd60e51b81526004016104e190612fb4565b610991816115d7565b50565b6000806040516109a390612d2a565b6040519081900390205492915050565b6001600160a01b039384166000908152609a602090815260408083209590961682529384528481209281529190925291909120805460ff1916911515919091179055565b604080516080810182529485526020808601948552858201938452606086019283526001600160a01b039097166000908152609e88528181209681529590965294909320915160088301555160098201559051600a8201559051600b90910155565b609e60209081526000928352604080842082529183529181902081516080808201845282548252600183015482860152600283015482850152600383015460608084019190915284518083018652600485015481526005850154818801526006850154818701526007850154818301528551928301865260088501548352600985015496830196909652600a84015494820194909452600b909201549282019290925290919083565b609b60209081526000928352604080842090915290825290205460ff1681565b6001600160a01b039091166000908152609f6020526040902055565b610b46610c71565b610b625760405162461bcd60e51b81526004016104e190612fb4565b6066546040516000916001600160a01b0316907f8be0079c531659141344cd1fd0a4f28419497f9722a3daafe3b4186f6b6457e0908390a3606680546001600160a01b0319169055565b60006104b260998363ffffffff61161f16565b6000610bd36106ab36849003840184612632565b506001919050565b600054610100900460ff1680610bf45750610bf4611667565b80610c02575060005460ff16155b610c1e5760405162461bcd60e51b81526004016104e190612fd4565b600054610100900460ff16158015610c49576000805460ff1961ff0019909116610100171660011790555b60016033558015610991576000805461ff001916905550565b6066546001600160a01b031690565b6066546000906001600160a01b0316610c8861166d565b6001600160a01b031614905090565b6000610cb1610cab36859003850185612682565b83611671565b9392505050565b609a60209081526000938452604080852082529284528284209052825290205460ff1681565b609f6020526000908152604090205481565b604080516080810182529485526020808601948552858201938452606086019283526001600160a01b039097166000908152609e8852818120968152959096529490932091516004830155516005820155905160068201559051600790910155565b610d5a610994565b15610d775760405162461bcd60e51b81526004016104e190613034565b610d89826001600160a01b03166116d3565b610da55760405162461bcd60e51b81526004016104e190612f64565b610dae83610ddb565b610db78161170f565b50609c80546001600160a01b0319166001600160a01b039290921691909117905550565b600054610100900460ff1680610df45750610df4611667565b80610e02575060005460ff16155b610e1e5760405162461bcd60e51b81526004016104e190612fd4565b600054610100900460ff16158015610e49576000805460ff1961ff0019909116610100171660011790555b606680546001600160a01b0319166001600160a01b0384811691909117918290556040519116906000907f8be0079c531659141344cd1fd0a4f28419497f9722a3daafe3b4186f6b6457e0908290a38015610eaa576000805461ff00191690555b5050565b604080516080810182529485526020808601948552858201938452606086019283526001600160a01b039097166000908152609e8852818120968152959096529490932091518255516001820155905160028201559051600390910155565b6001600160a01b03929092166000908152609b6020908152604080832093835292905220805460ff1916911515919091179055565b6000806000604051610f5390612d55565b604051908190039020549250505090565b610f6c610c71565b610f885760405162461bcd60e51b81526004016104e190612fb4565b6000815111610fa95760405162461bcd60e51b81526004016104e190612ef4565b60005b8151811015610eaa576000828281518110610fc357fe5b60200260200101519050610fd681610bac565b610fe357610fe3816117c1565b50600101610fac565b610ff4610c71565b6110105760405162461bcd60e51b81526004016104e190612fb4565b610991816117c1565b611021610c71565b61103d5760405162461bcd60e51b81526004016104e190612fb4565b61099181611809565b60a055565b609c546001600160a01b031681565b609d60209081526000928352604080842090915290825290205460ff1681565b609c548151602083015160408401516060850151608086015160a087015160c08801516000976001600160a01b0316969594939291906110b861188b565b6040516020016110d099989796959493929190612d6e565b604051602081830303815290604052805190602001209050919050565b50600190565b80516001600160a01b03166000908152609f602052604090205461111657610991565b6000611120610f42565b6001600160a01b031663269012a0611136610f42565b6001600160a01b031663d86d744e6040518163ffffffff1660e01b815260040160206040518083038186803b15801561116e57600080fd5b505afa158015611182573d6000803e3d6000fd5b505050506040513d601f19601f820116820180604052506111a6919081019061255a565b6001600160a01b0316633b98dfdb6040518163ffffffff1660e01b815260040160206040518083038186803b1580156111de57600080fd5b505afa1580156111f2573d6000803e3d6000fd5b505050506040513d601f19601f82011682018060405250611216919081019061253c565b6040518263ffffffff1660e01b81526004016112329190612e79565b60206040518083038186803b15801561124a57600080fd5b505afa15801561125e573d6000803e3d6000fd5b505050506040513d601f19601f82011682018060405250611282919081019061253c565b82516001600160a01b03166000908152609f602052604090205490915042906112b1908363ffffffff61189116565b1115610eaa5760405162461bcd60e51b81526004016104e190612f84565b60006112db8383611671565b835185516060870151604087015160c08801519495506112fc9486906118b6565b60608084015185516001600160a01b03166000908152609e602090815260408083209489015183529390529190912061133a9163ffffffff611b3416565b608083015184516001600160a01b03166000908152609e6020908152604080832060608901518452909152902061137c9160049091019063ffffffff611b3416565b60a083015184516001600160a01b03166000908152609e602090815260408083206060890151845290915290206113be9160089091019063ffffffff611b3416565b836060015184600001516001600160a01b031684600001516001600160a01b03167fc218be06ad61544d4438d7c22df24c5fd2e6e70eff2b9bd06771b90432bb21258660c0015160000151876060015188608001518960a001516040516114289493929190613096565b60405180910390a450505050565b60006115b2611443610f42565b6001600160a01b031663269012a0611459610f42565b6001600160a01b031663d86d744e6040518163ffffffff1660e01b815260040160206040518083038186803b15801561149157600080fd5b505afa1580156114a5573d6000803e3d6000fd5b505050506040513d601f19601f820116820180604052506114c9919081019061255a565b6001600160a01b031663c41dd8ce6040518163ffffffff1660e01b815260040160206040518083038186803b15801561150157600080fd5b505afa158015611515573d6000803e3d6000fd5b505050506040513d601f19601f82011682018060405250611539919081019061253c565b6040518263ffffffff1660e01b81526004016115559190612e79565b60206040518083038186803b15801561156d57600080fd5b505afa158015611581573d6000803e3d6000fd5b505050506040513d601f19601f820116820180604052506115a5919081019061253c565b839063ffffffff611b9916565b6115ce5760405162461bcd60e51b81526004016104e190612f34565b6104b282611c4a565b6115e860998263ffffffff611c8316565b6040516001600160a01b038216907f3525e22824a8a7df2c9a6029941c824cf95b6447f1e13d5128fd3826d35afe8b90600090a250565b60006001600160a01b0382166116475760405162461bcd60e51b81526004016104e190612fc4565b506001600160a01b03166000908152602091909152604090205460ff1690565b303b1590565b3390565b600082602001518360400151846060015185608001518660a001518760c001516000015161169d61188b565b886040516020016116b5989796959493929190612df4565b60405160208183030381529060405280519060200120905092915050565b6000813f7fc5d2460186f7233c927e7db2dcc703c0e500b653ca82273b7bfad8045d85a47081811480159061170757508115155b949350505050565b611717610994565b156117345760405162461bcd60e51b81526004016104e190613034565b60408051808201909152601981527f53455454494e47535f4d5553545f42455f50524f5649444544000000000000006020820152611782906001600160a01b0383169063ffffffff611ccb16565b611794816001600160a01b03166116d3565b6117b05760405162461bcd60e51b81526004016104e190612f54565b6117b8611cf3565b61099181611d11565b6117d260998263ffffffff611d8016565b6040516001600160a01b038216907f47d1c22a25bb3a5d4e481b9b1e6944c2eade3181a0a20b495ed61d35b5323f2490600090a250565b6001600160a01b03811661182f5760405162461bcd60e51b81526004016104e190612f24565b6066546040516001600160a01b038084169216907f8be0079c531659141344cd1fd0a4f28419497f9722a3daafe3b4186f6b6457e090600090a3606680546001600160a01b0319166001600160a01b0392909216919091179055565b60a05490565b600082820183811015610cb15760405162461bcd60e51b81526004016104e190612f44565b6001600160a01b038087166000908152609a6020908152604080832093891683529281528282208783529052205460ff16156119045760405162461bcd60e51b81526004016104e190612f14565b6001600160a01b038087166000908152609a602090815260408083209389168352928152828220878352905220805460ff19166001179055611ab6611947610f42565b6001600160a01b031663269012a061195d610f42565b6001600160a01b031663d86d744e6040518163ffffffff1660e01b815260040160206040518083038186803b15801561199557600080fd5b505afa1580156119a9573d6000803e3d6000fd5b505050506040513d601f19601f820116820180604052506119cd919081019061255a565b6001600160a01b031663e3f33d006040518163ffffffff1660e01b815260040160206040518083038186803b158015611a0557600080fd5b505afa158015611a19573d6000803e3d6000fd5b505050506040513d601f19601f82011682018060405250611a3d919081019061253c565b6040518263ffffffff1660e01b8152600401611a599190612e79565b60206040518083038186803b158015611a7157600080fd5b505afa158015611a85573d6000803e3d6000fd5b505050506040513d601f19601f82011682018060405250611aa9919081019061253c565b429063ffffffff611dcc16565b831015611ad55760405162461bcd60e51b81526004016104e190612fe4565b611ae0818388611e0e565b611afc5760405162461bcd60e51b81526004016104e190613004565b6001600160a01b039095166000908152609b602090815260408083209751835296905294909420805460ff1916600117905550505050565b8082600101541015611b4857600182018190555b8082600201541180611b5957508154155b15611b6657600282018190555b6003820154611b7b908263ffffffff61189116565b60038301558154611b9390600163ffffffff61189116565b90915550565b6000611ba483611f06565b15611bb1575060006104b2565b6000611bbc84611c4a565b90506000611be2612710611bd6848763ffffffff611f1816565b9063ffffffff611f5216565b90506000611bf6838363ffffffff611dcc16565b90508086600201541015611c1057600093505050506104b2565b6000611c22848463ffffffff61189116565b90508087600101541115611c3d5760009450505050506104b2565b5060019695505050505050565b6000611c5582611f06565b611c7b57611c76611c6583611f94565b60038401549063ffffffff611f5216565b6104b2565b506000919050565b611c8d828261161f565b611ca95760405162461bcd60e51b81526004016104e190612f94565b6001600160a01b0316600090815260209190915260409020805460ff19169055565b611cd482611f98565b819061095f5760405162461bcd60e51b81526004016104e19190612ed3565b6000604051611d0190612d2a565b6040519081900390206001905550565b611d2a611d1c610f42565b6001600160a01b0316611f98565b15611d3457610991565b611d46816001600160a01b03166116d3565b611d625760405162461bcd60e51b81526004016104e190612f54565b6000604051611d7090612d55565b6040519081900390208290555050565b611d8a828261161f565b15611da75760405162461bcd60e51b81526004016104e190612ee4565b6001600160a01b0316600090815260209190915260409020805460ff19166001179055565b6000610cb183836040518060400160405280601e81526020017f536166654d6174683a207375627472616374696f6e206f766572666c6f770000815250611fa6565b6000611e1982610bac565b611e2557506000610cb1565b6001600160a01b0382166000908152609b602090815260408083208751845290915290205460ff1615611e6a5760405162461bcd60e51b81526004016104e190612f74565b6000600184604051602001611e7f9190612d35565b6040516020818303038152906040528051906020012086602001518760400151886060015160405160008152602001604052604051611ec19493929190612e87565b6020604051602081039080840390855afa158015611ee3573d6000803e3d6000fd5b5050604051601f1901516001600160a01b03858116911614925050509392505050565b6000611f1182611f94565b1592915050565b600082611f27575060006104b2565b82820282848281611f3457fe5b0414610cb15760405162461bcd60e51b81526004016104e190612fa4565b6000610cb183836040518060400160405280601a81526020017f536166654d6174683a206469766973696f6e206279207a65726f000000000000815250611fd2565b5490565b6001600160a01b0316151590565b60008184841115611fca5760405162461bcd60e51b81526004016104e19190612ed3565b505050900390565b60008183611ff35760405162461bcd60e51b81526004016104e19190612ed3565b506000838581611fff57fe5b0495945050505050565b80356104b281613171565b600082601f83011261202557600080fd5b8135612038612033826130d8565b6130b1565b9150818183526020840193506020810190508385602084028201111561205d57600080fd5b60005b8381101561208957816120738882612009565b8452506020928301929190910190600101612060565b5050505092915050565b60008083601f8401126120a557600080fd5b50813567ffffffffffffffff8111156120bd57600080fd5b602083019150836101408202830111156120d657600080fd5b9250929050565b80356104b281613185565b80356104b28161318e565b80516104b28161318e565b80516104b281613197565b600060e0828403121561211b57600080fd5b50919050565b600060e0828403121561213357600080fd5b61213d60e06130b1565b9050600061214b8484612009565b825250602061215c84848301612009565b602083015250604061217084828501612009565b6040830152506060612184848285016120e8565b6060830152506080612198848285016120e8565b60808301525060a06121ac848285016120e8565b60a08301525060c06121c0848285016120e8565b60c08301525092915050565b6000610140828403121561211b57600080fd5b600061014082840312156121f257600080fd5b6121fc60e06130b1565b9050600061220a8484612009565b825250602061221b84848301612009565b602083015250604061222f848285016120e8565b6040830152506060612243848285016120e8565b6060830152506080612257848285016120e8565b60808301525060a061226b848285016120e8565b60a08301525060c06121c08482850160006080828403121561228c57600080fd5b61229660806130b1565b905060006122a484846120e8565b82525060206122b5848483016122e9565b60208301525060406122c9848285016120e8565b60408301525060606122dd848285016120e8565b60608301525092915050565b80356104b2816131a0565b60006020828403121561230657600080fd5b60006117078484612009565b60008060006060848603121561232757600080fd5b60006123338686612009565b935050602061234486828701612009565b925050604061235586828701612009565b9150509250925092565b60008060006060848603121561237457600080fd5b60006123808686612009565b935050602061239186828701612009565b9250506040612355868287016120e8565b600080600080608085870312156123b857600080fd5b60006123c48787612009565b94505060206123d587828801612009565b93505060406123e6878288016120e8565b92505060606123f7878288016120dd565b91505092959194509250565b6000806040838503121561241657600080fd5b60006124228585612009565b9250506020612433858286016120e8565b9150509250929050565b60008060006060848603121561245257600080fd5b600061245e8686612009565b935050602061246f868287016120e8565b9250506040612355868287016120dd565b60008060008060008060c0878903121561249957600080fd5b60006124a58989612009565b96505060206124b689828a016120e8565b95505060406124c789828a016120e8565b94505060606124d889828a016120e8565b93505060806124e989828a016120e8565b92505060a06124fa89828a016120e8565b9150509295509295509295565b60006020828403121561251957600080fd5b813567ffffffffffffffff81111561253057600080fd5b61170784828501612014565b60006020828403121561254e57600080fd5b600061170784846120f3565b60006020828403121561256c57600080fd5b600061170784846120fe565b600060e0828403121561258a57600080fd5b60006117078484612109565b600080600061010084860312156125ac57600080fd5b60006125b88686612109565b93505060e084013567ffffffffffffffff8111156125d557600080fd5b6125e186828701612093565b92509250509250925092565b6000806000610240848603121561260357600080fd5b600061260f8686612109565b93505060e0612620868287016121cc565b925050610220612355868287016120e8565b600060e0828403121561264457600080fd5b60006117078484612121565b600080610160838503121561266457600080fd5b600061267085856121cc565b925050610140612433858286016120e8565b6000610140828403121561269557600080fd5b600061170784846121df565b6000602082840312156126b357600080fd5b600061170784846120e8565b6126c88161310b565b82525050565b6126c881613116565b6126c88161311b565b6126c86126ec8261311b565b61311b565b6126c88161311e565b6000612705826130f9565b61270f81856130fd565b935061271f81856020860161313b565b61272881613167565b9093019392505050565b600061273f601c83613106565b7f54496e697469616c697a61626c652e6973496e697469616c697a6564000000008152601c0192915050565b6000612778601f836130fd565b7f526f6c65733a206163636f756e7420616c72656164792068617320726f6c6500815260200192915050565b60006127b16013836130fd565b724143434f554e54535f4c4953545f454d50545960681b815260200192915050565b60006127e0601c83613106565b7f19457468657265756d205369676e6564204d6573736167653a0a3332000000008152601c0192915050565b6000612819601e836130fd565b7f4c4f414e5f5445524d535f524551554553545f4e4f4e43455f54414b454e0000815260200192915050565b60006128526018836130fd565b7f5349474e45525f414c52454144595f5355424d49545445440000000000000000815260200192915050565b600061288b6026836130fd565b7f4f776e61626c653a206e6577206f776e657220697320746865207a65726f206181526564647265737360d01b602082015260400192915050565b60006128d36014836130fd565b73149154d413d394d154d7d513d3d7d5905492515160621b815260200192915050565b6000612903601b836130fd565b7f536166654d6174683a206164646974696f6e206f766572666c6f770000000000815260200192915050565b600061293c601b836130fd565b7f53455454494e47535f4d5553545f42455f415f434f4e54524143540000000000815260200192915050565b60006129756017836130fd565b7f43414c4c45525f4d5553545f42455f434f4e5452414354000000000000000000815260200192915050565b60006129ae6012836130fd565b7129a4a3a722a92fa727a721a2afaa20a5a2a760711b815260200192915050565b60006129dc601f836130fd565b7f524551535f4c4f414e5f5445524d535f4c4d545f455843454544535f4d415800815260200192915050565b6000612a156021836130fd565b7f526f6c65733a206163636f756e7420646f6573206e6f74206861766520726f6c8152606560f81b602082015260400192915050565b6000612a586021836130fd565b7f536166654d6174683a206d756c7469706c69636174696f6e206f766572666c6f8152607760f81b602082015260400192915050565b6000612a9b6020836130fd565b7f4f776e61626c653a2063616c6c6572206973206e6f7420746865206f776e6572815260200192915050565b6000612ad46022836130fd565b7f526f6c65733a206163636f756e7420697320746865207a65726f206164647265815261737360f01b602082015260400192915050565b6000612b18602e836130fd565b7f436f6e747261637420696e7374616e63652068617320616c726561647920626581526d195b881a5b9a5d1a585b1a5e995960921b602082015260400192915050565b6000612b686010836130fd565b6f149154d413d394d157d156141254915160821b815260200192915050565b6000612b94601f836130fd565b7f4c4f414e5445524d5f494e53554646494349454e545f524553504f4e53455300815260200192915050565b6000612bcd6011836130fd565b7014d251d3905515549157d2539590531251607a1b815260200192915050565b6000612bfa6018836130fd565b7f53454e4445525f4841534e545f5045524d495353494f4e530000000000000000815260200192915050565b6000612c33601883613106565b7f426173655570677261646561626c652e73657474696e67730000000000000000815260180192915050565b6000612c6c6018836130fd565b7f434f4e54524143545f4e4f545f494e495449414c495a45440000000000000000815260200192915050565b6000612ca5601c836130fd565b7f434f4e54524143545f414c52454144595f494e495449414c495a454400000000815260200192915050565b80516080830190612ce284826126d7565b506020820151612cf560208501826126d7565b506040820151612d0860408501826126d7565b506060820151612d1b60608501826126d7565b50505050565b6126c881613135565b60006104b282612732565b6000612d40826127d3565b9150612d4c82846126e0565b50602001919050565b60006104b282612c26565b602081016104b282846126bf565b6101208101612d7d828c6126bf565b612d8a602083018b6126bf565b612d97604083018a6126bf565b612da460608301896126bf565b612db160808301886126d7565b612dbe60a08301876126d7565b612dcb60c08301866126d7565b612dd860e08301856126d7565b612de66101008301846126d7565b9a9950505050505050505050565b6101008101612e03828b6126bf565b612e10602083018a6126d7565b612e1d60408301896126d7565b612e2a60608301886126d7565b612e3760808301876126d7565b612e4460a08301866126d7565b612e5160c08301856126d7565b612e5e60e08301846126d7565b9998505050505050505050565b602081016104b282846126ce565b602081016104b282846126d7565b60808101612e9582876126d7565b612ea26020830186612d21565b612eaf60408301856126d7565b612ebc60608301846126d7565b95945050505050565b602081016104b282846126f1565b60208082528101610cb181846126fa565b602080825281016104b28161276b565b602080825281016104b2816127a4565b602080825281016104b28161280c565b602080825281016104b281612845565b602080825281016104b28161287e565b602080825281016104b2816128c6565b602080825281016104b2816128f6565b602080825281016104b28161292f565b602080825281016104b281612968565b602080825281016104b2816129a1565b602080825281016104b2816129cf565b602080825281016104b281612a08565b602080825281016104b281612a4b565b602080825281016104b281612a8e565b602080825281016104b281612ac7565b602080825281016104b281612b0b565b602080825281016104b281612b5b565b602080825281016104b281612b87565b602080825281016104b281612bc0565b602080825281016104b281612bed565b602080825281016104b281612c5f565b602080825281016104b281612c98565b61018081016130538286612cd1565b6130606080830185612cd1565b611707610100830184612cd1565b6060810161307c82866126d7565b61308960208301856126d7565b61170760408301846126d7565b608081016130a482876126d7565b612ea260208301866126d7565b60405181810167ffffffffffffffff811182821017156130d057600080fd5b604052919050565b600067ffffffffffffffff8211156130ef57600080fd5b5060209081020190565b5190565b90815260200190565b919050565b60006104b282613129565b151590565b90565b60006104b28261310b565b6001600160a01b031690565b60ff1690565b60005b8381101561315657818101518382015260200161313e565b83811115612d1b5750506000910152565b601f01601f191690565b61317a8161310b565b811461099157600080fd5b61317a81613116565b61317a8161311b565b61317a8161311e565b61317a8161313556fea365627a7a7231582088e1723292ad2c1ed44e8db1983eb48ddbbf9744fc5d10a450866ee60d0c036e6c6578706572696d656e74616cf564736f6c63430005110040",
  "source": "pragma solidity 0.5.17;\npragma experimental ABIEncoderV2;\n\nimport \"../../base/LoanTermsConsensus.sol\";\n\ncontract LoanTermsConsensusMock is LoanTermsConsensus {\n    uint256 private _mockChainId = 1; // Mainnet\n\n    function mockInterestRateSubmissions(\n        address borrower,\n        uint256 requestNonce,\n        uint256 totalSubmissions,\n        uint256 maxValue,\n        uint256 minValue,\n        uint256 sumOfValues\n    ) external {\n        termSubmissions[borrower][requestNonce].interestRate = NumbersList.Values({\n            count: totalSubmissions,\n            min: minValue,\n            max: maxValue,\n            sum: sumOfValues\n        });\n    }\n\n    function mockCollateralRatioSubmissions(\n        address borrower,\n        uint256 requestNonce,\n        uint256 totalSubmissions,\n        uint256 maxValue,\n        uint256 minValue,\n        uint256 sumOfValues\n    ) external {\n        termSubmissions[borrower][requestNonce].collateralRatio = NumbersList.Values({\n            count: totalSubmissions,\n            min: minValue,\n            max: maxValue,\n            sum: sumOfValues\n        });\n    }\n\n    function mockMaxAmountSubmissions(\n        address borrower,\n        uint256 requestNonce,\n        uint256 totalSubmissions,\n        uint256 maxValue,\n        uint256 minValue,\n        uint256 sumOfValues\n    ) external {\n        termSubmissions[borrower][requestNonce].maxLoanAmount = NumbersList.Values({\n            count: totalSubmissions,\n            min: minValue,\n            max: maxValue,\n            sum: sumOfValues\n        });\n    }\n\n    function mockHasSubmitted(\n        address signer,\n        address lender,\n        uint256 blockNumber,\n        bool hasSub\n    ) external {\n        hasSubmitted[signer][lender][blockNumber] = hasSub;\n    }\n\n    function mockSignerNonce(\n        address signer,\n        uint256 signerNonce,\n        bool taken\n    ) external {\n        signerNonceTaken[signer][signerNonce] = taken;\n    }\n\n    function mockBorrowerToLastLoanTermRequest(address borrower, uint256 lastTime)\n        external\n    {\n        borrowerToLastLoanTermRequest[borrower] = lastTime;\n    }\n\n    function mockRequestNonce(\n        address borrower,\n        uint256 borrowerNonce,\n        bool taken\n    ) external {\n        requestNonceTaken[borrower][borrowerNonce] = taken;\n    }\n\n    function mockChainId(uint256 newChainId) external {\n        _mockChainId = newChainId;\n    }\n\n    function externalProcessResponse(\n        TellerCommon.LoanRequest calldata request,\n        TellerCommon.LoanResponse calldata response,\n        bytes32 requestHash\n    ) external {\n        _processResponse(request, response, requestHash);\n    }\n\n    function externalHashResponse(\n        TellerCommon.LoanResponse calldata response,\n        bytes32 requestHash\n    ) external view returns (bytes32) {\n        return _hashResponse(response, requestHash);\n    }\n\n    function externalHashRequest(TellerCommon.LoanRequest calldata request)\n        external\n        view\n        returns (bytes32)\n    {\n        return _hashRequest(request);\n    }\n\n    function _getChainId() internal view returns (uint256) {\n        return _mockChainId;\n    }\n\n    function externalRequireRequestLoanTermsRateLimit(\n        TellerCommon.LoanRequest calldata request\n    ) external view returns (bool) {\n        super._requireRequestLoanTermsRateLimit(request);\n        return true;\n    }\n\n    function _isCaller(address) internal view returns (bool) {\n        return true;\n    }\n}\n",
  "sourcePath": "/Users/guillesalazar/Repos/ZeroCollateral/smart-contracts-v1/contracts/mock/base/LoanTermsConsensusMock.sol",
  "compiler": {
    "name": "solc",
    "version": "0.5.17+commit.d19bba13.Emscripten.clang"
  },
  "schemaVersion": "3.2.3",
  "updatedAt": "2020-10-12T14:23:11.528Z",
  "devdoc": {
    "methods": {
      "addSigner(address)": {
        "details": "The sender must be the owner.It throws a require error if the sender is not the owner.",
        "params": {
          "account": "address to add."
        }
      },
      "addSigners(address[])": {
        "details": "The sender must be the owner.It throws a require error if the sender is not the owner.",
        "params": {
          "accounts": "addresses to add."
        }
      },
      "initialize(address)": {
        "details": "Initializes the contract setting the deployer as the initial owner."
      },
      "initialize(address,address,address)": {
        "details": "The caller address must be the loans contract for LoanTermsConsensus, and the lenders contract for InterestConsensus.",
        "params": {
          "aCallerAddress": "the contract that will call it.",
          "aSettingAddress": "the settings contract address.",
          "owner": "the owner address."
        }
      },
      "initialized()": {
        "return": "true if contract is initialized. Otherwise it returns false."
      },
      "isOwner()": {
        "details": "Returns true if the caller is the current owner."
      },
      "isSigner(address)": {
        "params": {
          "account": "address to test."
        },
        "return": "true if account is a signer. Otherwise it returns false."
      },
      "owner()": {
        "details": "Returns the address of the current owner."
      },
      "processRequest((address,address,address,uint256,uint256,uint256,uint256),(address,address,uint256,uint256,uint256,uint256,(uint256,uint8,bytes32,bytes32))[])": {
        "params": {
          "request": "Struct of the protocol loan request",
          "responses": "List of structs of the protocol loan responses"
        },
        "return": "uint256 Interest rateuint256 Collateral ratiouint256 Maximum loan amount"
      },
      "removeSigner(address)": {
        "details": "The sender must be the owner.It throws a require error if the sender is not the owner.",
        "params": {
          "account": "address to remove."
        }
      },
      "renounceOwnership()": {
        "details": "Leaves the contract without owner. It will not be possible to call `onlyOwner` functions anymore. Can only be called by the current owner.     * > Note: Renouncing ownership will leave the contract without an owner, thereby removing any functionality that is only available to the owner."
      },
      "settings()": {
        "details": "This address should NOT change over the time. See details in the _setSettings(...) function."
      },
      "transferOwnership(address)": {
        "details": "Transfers ownership of the contract to a new account (`newOwner`). Can only be called by the current owner."
      }
    }
  },
  "userdoc": {
    "methods": {
      "addSigner(address)": {
        "notice": "It adds a new account as a signer."
      },
      "addSigners(address[])": {
        "notice": "It adds a list of account as signers."
      },
      "initialize(address,address,address)": {
        "notice": "It initializes this consensus contract."
      },
      "initialized()": {
        "notice": "Gets if the contract is initialized."
      },
      "isSigner(address)": {
        "notice": "Gets whether an account address is a signer or not."
      },
      "processRequest((address,address,address,uint256,uint256,uint256,uint256),(address,address,uint256,uint256,uint256,uint256,(uint256,uint8,bytes32,bytes32))[])": {
        "notice": "Processes the loan request"
      },
      "removeSigner(address)": {
        "notice": "It removes an account as signer."
      },
      "settings()": {
        "notice": "The gets the settings contract address from the SETTINGS_SLOT."
      }
    }
  }
}