{
  "contractName": "LoansBaseMock",
  "abi": [
    {
      "anonymous": false,
      "inputs": [
        {
          "indexed": true,
          "internalType": "uint256",
          "name": "loanID",
          "type": "uint256"
        },
        {
          "indexed": true,
          "internalType": "address",
          "name": "borrower",
          "type": "address"
        },
        {
          "indexed": false,
          "internalType": "uint256",
          "name": "depositAmount",
          "type": "uint256"
        }
      ],
      "name": "CollateralDeposited",
      "type": "event"
    },
    {
      "anonymous": false,
      "inputs": [
        {
          "indexed": true,
          "internalType": "uint256",
          "name": "loanID",
          "type": "uint256"
        },
        {
          "indexed": true,
          "internalType": "address",
          "name": "borrower",
          "type": "address"
        },
        {
          "indexed": false,
          "internalType": "uint256",
          "name": "withdrawalAmount",
          "type": "uint256"
        }
      ],
      "name": "CollateralWithdrawn",
      "type": "event"
    },
    {
      "anonymous": false,
      "inputs": [
        {
          "indexed": true,
          "internalType": "uint256",
          "name": "loanID",
          "type": "uint256"
        },
        {
          "indexed": true,
          "internalType": "address",
          "name": "borrower",
          "type": "address"
        },
        {
          "indexed": false,
          "internalType": "address",
          "name": "liquidator",
          "type": "address"
        },
        {
          "indexed": false,
          "internalType": "uint256",
          "name": "collateralOut",
          "type": "uint256"
        },
        {
          "indexed": false,
          "internalType": "uint256",
          "name": "tokensIn",
          "type": "uint256"
        }
      ],
      "name": "LoanLiquidated",
      "type": "event"
    },
    {
      "anonymous": false,
      "inputs": [
        {
          "indexed": true,
          "internalType": "uint256",
          "name": "loanID",
          "type": "uint256"
        },
        {
          "indexed": true,
          "internalType": "address",
          "name": "borrower",
          "type": "address"
        },
        {
          "indexed": false,
          "internalType": "uint256",
          "name": "amountPaid",
          "type": "uint256"
        },
        {
          "indexed": false,
          "internalType": "address",
          "name": "payer",
          "type": "address"
        },
        {
          "indexed": false,
          "internalType": "uint256",
          "name": "totalOwed",
          "type": "uint256"
        }
      ],
      "name": "LoanRepaid",
      "type": "event"
    },
    {
      "anonymous": false,
      "inputs": [
        {
          "indexed": true,
          "internalType": "uint256",
          "name": "loanID",
          "type": "uint256"
        },
        {
          "indexed": true,
          "internalType": "address",
          "name": "borrower",
          "type": "address"
        },
        {
          "indexed": true,
          "internalType": "address",
          "name": "escrow",
          "type": "address"
        },
        {
          "indexed": false,
          "internalType": "uint256",
          "name": "amountBorrowed",
          "type": "uint256"
        }
      ],
      "name": "LoanTakenOut",
      "type": "event"
    },
    {
      "anonymous": false,
      "inputs": [
        {
          "indexed": true,
          "internalType": "uint256",
          "name": "loanID",
          "type": "uint256"
        },
        {
          "indexed": true,
          "internalType": "address",
          "name": "borrower",
          "type": "address"
        },
        {
          "indexed": true,
          "internalType": "address",
          "name": "recipient",
          "type": "address"
        },
        {
          "indexed": false,
          "internalType": "uint256",
          "name": "interestRate",
          "type": "uint256"
        },
        {
          "indexed": false,
          "internalType": "uint256",
          "name": "collateralRatio",
          "type": "uint256"
        },
        {
          "indexed": false,
          "internalType": "uint256",
          "name": "maxLoanAmount",
          "type": "uint256"
        },
        {
          "indexed": false,
          "internalType": "uint256",
          "name": "duration",
          "type": "uint256"
        },
        {
          "indexed": false,
          "internalType": "uint256",
          "name": "termsExpiry",
          "type": "uint256"
        }
      ],
      "name": "LoanTermsSet",
      "type": "event"
    },
    {
      "anonymous": false,
      "inputs": [
        {
          "indexed": true,
          "internalType": "address",
          "name": "sender",
          "type": "address"
        },
        {
          "indexed": true,
          "internalType": "address",
          "name": "oldPriceOracle",
          "type": "address"
        },
        {
          "indexed": true,
          "internalType": "address",
          "name": "newPriceOracle",
          "type": "address"
        }
      ],
      "name": "PriceOracleUpdated",
      "type": "event"
    },
    {
      "constant": true,
      "inputs": [
        {
          "internalType": "address",
          "name": "",
          "type": "address"
        },
        {
          "internalType": "uint256",
          "name": "",
          "type": "uint256"
        }
      ],
      "name": "borrowerLoans",
      "outputs": [
        {
          "internalType": "uint256",
          "name": "",
          "type": "uint256"
        }
      ],
      "payable": false,
      "stateMutability": "view",
      "type": "function"
    },
    {
      "constant": true,
      "inputs": [
        {
          "internalType": "uint256",
          "name": "loanID",
          "type": "uint256"
        }
      ],
      "name": "canLiquidateLoan",
      "outputs": [
        {
          "internalType": "bool",
          "name": "",
          "type": "bool"
        }
      ],
      "payable": false,
      "stateMutability": "view",
      "type": "function"
    },
    {
      "constant": true,
      "inputs": [],
      "name": "collateralToken",
      "outputs": [
        {
          "internalType": "address",
          "name": "",
          "type": "address"
        }
      ],
      "payable": false,
      "stateMutability": "view",
      "type": "function"
    },
    {
      "constant": true,
      "inputs": [],
      "name": "consts",
      "outputs": [
        {
          "internalType": "contract SettingsConsts",
          "name": "",
          "type": "address"
        }
      ],
      "payable": false,
      "stateMutability": "view",
      "type": "function"
    },
    {
      "constant": false,
      "inputs": [
        {
          "internalType": "address",
          "name": "settingsAddress",
          "type": "address"
        }
      ],
      "name": "externalInitialize",
      "outputs": [],
      "payable": false,
      "stateMutability": "nonpayable",
      "type": "function"
    },
    {
      "constant": false,
      "inputs": [
        {
          "internalType": "address",
          "name": "lendingPoolAddress",
          "type": "address"
        }
      ],
      "name": "externalWhenLendingPoolNotPaused",
      "outputs": [],
      "payable": false,
      "stateMutability": "nonpayable",
      "type": "function"
    },
    {
      "constant": false,
      "inputs": [
        {
          "internalType": "address",
          "name": "lendingPoolAddress",
          "type": "address"
        }
      ],
      "name": "externalWhenLendingPoolPaused",
      "outputs": [],
      "payable": false,
      "stateMutability": "nonpayable",
      "type": "function"
    },
    {
      "constant": false,
      "inputs": [],
      "name": "externalWhenNotPaused",
      "outputs": [],
      "payable": false,
      "stateMutability": "nonpayable",
      "type": "function"
    },
    {
      "constant": false,
      "inputs": [],
      "name": "externalWhenPaused",
      "outputs": [],
      "payable": false,
      "stateMutability": "nonpayable",
      "type": "function"
    },
    {
      "constant": true,
      "inputs": [
        {
          "internalType": "address",
          "name": "borrower",
          "type": "address"
        }
      ],
      "name": "getBorrowerLoans",
      "outputs": [
        {
          "internalType": "uint256[]",
          "name": "",
          "type": "uint256[]"
        }
      ],
      "payable": false,
      "stateMutability": "view",
      "type": "function"
    },
    {
      "constant": true,
      "inputs": [
        {
          "internalType": "uint256",
          "name": "loanID",
          "type": "uint256"
        }
      ],
      "name": "getCollateralInfo",
      "outputs": [
        {
          "components": [
            {
              "internalType": "uint256",
              "name": "collateral",
              "type": "uint256"
            },
            {
              "internalType": "uint256",
              "name": "neededInLendingTokens",
              "type": "uint256"
            },
            {
              "internalType": "uint256",
              "name": "neededInCollateralTokens",
              "type": "uint256"
            },
            {
              "internalType": "bool",
              "name": "moreCollateralRequired",
              "type": "bool"
            }
          ],
          "internalType": "struct TellerCommon.LoanCollateralInfo",
          "name": "",
          "type": "tuple"
        }
      ],
      "payable": false,
      "stateMutability": "view",
      "type": "function"
    },
    {
      "constant": true,
      "inputs": [
        {
          "internalType": "uint256",
          "name": "loanID",
          "type": "uint256"
        }
      ],
      "name": "getTotalOwed",
      "outputs": [
        {
          "internalType": "uint256",
          "name": "",
          "type": "uint256"
        }
      ],
      "payable": false,
      "stateMutability": "view",
      "type": "function"
    },
    {
      "constant": true,
      "inputs": [],
      "name": "initialized",
      "outputs": [
        {
          "internalType": "bool",
          "name": "value",
          "type": "bool"
        }
      ],
      "payable": false,
      "stateMutability": "view",
      "type": "function"
    },
    {
      "constant": true,
      "inputs": [],
      "name": "lendingPool",
      "outputs": [
        {
          "internalType": "contract LendingPoolInterface",
          "name": "",
          "type": "address"
        }
      ],
      "payable": false,
      "stateMutability": "view",
      "type": "function"
    },
    {
      "constant": true,
      "inputs": [],
      "name": "lendingToken",
      "outputs": [
        {
          "internalType": "address",
          "name": "",
          "type": "address"
        }
      ],
      "payable": false,
      "stateMutability": "view",
      "type": "function"
    },
    {
      "constant": false,
      "inputs": [
        {
          "internalType": "uint256",
          "name": "loanID",
          "type": "uint256"
        }
      ],
      "name": "liquidateLoan",
      "outputs": [],
      "payable": false,
      "stateMutability": "nonpayable",
      "type": "function"
    },
    {
      "constant": true,
      "inputs": [],
      "name": "loanIDCounter",
      "outputs": [
        {
          "internalType": "uint256",
          "name": "",
          "type": "uint256"
        }
      ],
      "payable": false,
      "stateMutability": "view",
      "type": "function"
    },
    {
      "constant": true,
      "inputs": [],
      "name": "loanTermsConsensus",
      "outputs": [
        {
          "internalType": "contract LoanTermsConsensusInterface",
          "name": "",
          "type": "address"
        }
      ],
      "payable": false,
      "stateMutability": "view",
      "type": "function"
    },
    {
      "constant": true,
      "inputs": [
        {
          "internalType": "uint256",
          "name": "",
          "type": "uint256"
        }
      ],
      "name": "loans",
      "outputs": [
        {
          "internalType": "uint256",
          "name": "id",
          "type": "uint256"
        },
        {
          "components": [
            {
              "internalType": "address payable",
              "name": "borrower",
              "type": "address"
            },
            {
              "internalType": "address",
              "name": "recipient",
              "type": "address"
            },
            {
              "internalType": "uint256",
              "name": "interestRate",
              "type": "uint256"
            },
            {
              "internalType": "uint256",
              "name": "collateralRatio",
              "type": "uint256"
            },
            {
              "internalType": "uint256",
              "name": "maxLoanAmount",
              "type": "uint256"
            },
            {
              "internalType": "uint256",
              "name": "duration",
              "type": "uint256"
            }
          ],
          "internalType": "struct TellerCommon.LoanTerms",
          "name": "loanTerms",
          "type": "tuple"
        },
        {
          "internalType": "uint256",
          "name": "termsExpiry",
          "type": "uint256"
        },
        {
          "internalType": "uint256",
          "name": "loanStartTime",
          "type": "uint256"
        },
        {
          "internalType": "uint256",
          "name": "collateral",
          "type": "uint256"
        },
        {
          "internalType": "uint256",
          "name": "lastCollateralIn",
          "type": "uint256"
        },
        {
          "internalType": "uint256",
          "name": "principalOwed",
          "type": "uint256"
        },
        {
          "internalType": "uint256",
          "name": "interestOwed",
          "type": "uint256"
        },
        {
          "internalType": "uint256",
          "name": "borrowedAmount",
          "type": "uint256"
        },
        {
          "internalType": "address",
          "name": "escrow",
          "type": "address"
        },
        {
          "internalType": "enum TellerCommon.LoanStatus",
          "name": "status",
          "type": "uint8"
        },
        {
          "internalType": "bool",
          "name": "liquidated",
          "type": "bool"
        }
      ],
      "payable": false,
      "stateMutability": "view",
      "type": "function"
    },
    {
      "constant": true,
      "inputs": [],
      "name": "priceOracle",
      "outputs": [
        {
          "internalType": "address",
          "name": "",
          "type": "address"
        }
      ],
      "payable": false,
      "stateMutability": "view",
      "type": "function"
    },
    {
      "constant": false,
      "inputs": [
        {
          "internalType": "uint256",
          "name": "amount",
          "type": "uint256"
        },
        {
          "internalType": "uint256",
          "name": "loanID",
          "type": "uint256"
        }
      ],
      "name": "repay",
      "outputs": [],
      "payable": false,
      "stateMutability": "nonpayable",
      "type": "function"
    },
    {
      "constant": false,
      "inputs": [
        {
          "internalType": "address",
          "name": "newPriceOracle",
          "type": "address"
        }
      ],
      "name": "setPriceOracle",
      "outputs": [],
      "payable": false,
      "stateMutability": "nonpayable",
      "type": "function"
    },
    {
      "constant": true,
      "inputs": [],
      "name": "settings",
      "outputs": [
        {
          "internalType": "contract SettingsInterface",
          "name": "",
          "type": "address"
        }
      ],
      "payable": false,
      "stateMutability": "view",
      "type": "function"
    },
    {
      "constant": false,
      "inputs": [
        {
          "internalType": "uint256",
          "name": "loanID",
          "type": "uint256"
        },
        {
          "internalType": "uint256",
          "name": "amountBorrow",
          "type": "uint256"
        }
      ],
      "name": "takeOutLoan",
      "outputs": [],
      "payable": false,
      "stateMutability": "nonpayable",
      "type": "function"
    },
    {
      "constant": true,
      "inputs": [],
      "name": "totalCollateral",
      "outputs": [
        {
          "internalType": "uint256",
          "name": "",
          "type": "uint256"
        }
      ],
      "payable": false,
      "stateMutability": "view",
      "type": "function"
    },
    {
      "constant": false,
      "inputs": [
        {
          "internalType": "uint256",
          "name": "amount",
          "type": "uint256"
        },
        {
          "internalType": "uint256",
          "name": "loanID",
          "type": "uint256"
        }
      ],
      "name": "withdrawCollateral",
      "outputs": [],
      "payable": false,
      "stateMutability": "nonpayable",
      "type": "function"
    },
    {
      "constant": false,
      "inputs": [
        {
          "internalType": "uint256",
          "name": "loanID",
          "type": "uint256"
        },
        {
          "internalType": "uint256",
          "name": "toPay",
          "type": "uint256"
        }
      ],
      "name": "externalPayLoan",
      "outputs": [],
      "payable": false,
      "stateMutability": "nonpayable",
      "type": "function"
    },
    {
      "constant": true,
      "inputs": [
        {
          "internalType": "uint256",
          "name": "weiAmount",
          "type": "uint256"
        }
      ],
      "name": "externalConvertWeiToToken",
      "outputs": [
        {
          "internalType": "uint256",
          "name": "",
          "type": "uint256"
        }
      ],
      "payable": false,
      "stateMutability": "view",
      "type": "function"
    },
    {
      "constant": true,
      "inputs": [
        {
          "internalType": "uint256",
          "name": "tokenAmount",
          "type": "uint256"
        }
      ],
      "name": "externalConvertTokenToWei",
      "outputs": [
        {
          "internalType": "uint256",
          "name": "",
          "type": "uint256"
        }
      ],
      "payable": false,
      "stateMutability": "view",
      "type": "function"
    },
    {
      "constant": true,
      "inputs": [
        {
          "internalType": "uint256",
          "name": "newLoanAmount",
          "type": "uint256"
        }
      ],
      "name": "externalIsSupplyToDebtRatioValid",
      "outputs": [
        {
          "internalType": "bool",
          "name": "",
          "type": "bool"
        }
      ],
      "payable": false,
      "stateMutability": "view",
      "type": "function"
    },
    {
      "constant": false,
      "inputs": [
        {
          "internalType": "uint256",
          "name": "id",
          "type": "uint256"
        },
        {
          "components": [
            {
              "internalType": "address payable",
              "name": "borrower",
              "type": "address"
            },
            {
              "internalType": "address",
              "name": "recipient",
              "type": "address"
            },
            {
              "internalType": "uint256",
              "name": "interestRate",
              "type": "uint256"
            },
            {
              "internalType": "uint256",
              "name": "collateralRatio",
              "type": "uint256"
            },
            {
              "internalType": "uint256",
              "name": "maxLoanAmount",
              "type": "uint256"
            },
            {
              "internalType": "uint256",
              "name": "duration",
              "type": "uint256"
            }
          ],
          "internalType": "struct TellerCommon.LoanTerms",
          "name": "loanTerms",
          "type": "tuple"
        },
        {
          "internalType": "uint256",
          "name": "termsExpiry",
          "type": "uint256"
        },
        {
          "internalType": "uint256",
          "name": "loanStartTime",
          "type": "uint256"
        },
        {
          "internalType": "uint256",
          "name": "collateral",
          "type": "uint256"
        },
        {
          "internalType": "uint256",
          "name": "lastCollateralIn",
          "type": "uint256"
        },
        {
          "internalType": "uint256",
          "name": "principalOwed",
          "type": "uint256"
        },
        {
          "internalType": "uint256",
          "name": "interestOwed",
          "type": "uint256"
        },
        {
          "internalType": "uint256",
          "name": "borrowedAmount",
          "type": "uint256"
        },
        {
          "internalType": "enum TellerCommon.LoanStatus",
          "name": "status",
          "type": "uint8"
        },
        {
          "internalType": "bool",
          "name": "liquidated",
          "type": "bool"
        }
      ],
      "name": "setLoan",
      "outputs": [],
      "payable": false,
      "stateMutability": "nonpayable",
      "type": "function"
    },
    {
      "constant": false,
      "inputs": [
        {
          "internalType": "uint256",
          "name": "loanID",
          "type": "uint256"
        },
        {
          "internalType": "address",
          "name": "escrowAddress",
          "type": "address"
        }
      ],
      "name": "setEscrowForLoan",
      "outputs": [],
      "payable": false,
      "stateMutability": "nonpayable",
      "type": "function"
    },
    {
      "constant": false,
      "inputs": [
        {
          "internalType": "uint256",
          "name": "loanID",
          "type": "uint256"
        },
        {
          "internalType": "uint256",
          "name": "neededInLending",
          "type": "uint256"
        },
        {
          "internalType": "uint256",
          "name": "neededInCollateral",
          "type": "uint256"
        }
      ],
      "name": "mockGetCollateralInfo",
      "outputs": [],
      "payable": false,
      "stateMutability": "nonpayable",
      "type": "function"
    },
    {
      "constant": false,
      "inputs": [
        {
          "internalType": "address",
          "name": "priceOracleAddress",
          "type": "address"
        },
        {
          "internalType": "address",
          "name": "lendingPoolAddress",
          "type": "address"
        },
        {
          "internalType": "address",
          "name": "loanTermsConsensusAddress",
          "type": "address"
        },
        {
          "internalType": "address",
          "name": "settingsAddress",
          "type": "address"
        },
        {
          "internalType": "address",
          "name": "",
          "type": "address"
        }
      ],
      "name": "initialize",
      "outputs": [],
      "payable": false,
      "stateMutability": "nonpayable",
      "type": "function"
    },
    {
      "constant": false,
      "inputs": [],
      "name": "initialize",
      "outputs": [],
      "payable": false,
      "stateMutability": "nonpayable",
      "type": "function"
    },
    {
      "constant": false,
      "inputs": [
        {
          "internalType": "address",
          "name": "borrower",
          "type": "address"
        },
        {
          "internalType": "uint256",
          "name": "loanID",
          "type": "uint256"
        },
        {
          "internalType": "uint256",
          "name": "amount",
          "type": "uint256"
        }
      ],
      "name": "depositCollateral",
      "outputs": [],
      "payable": true,
      "stateMutability": "payable",
      "type": "function"
    },
    {
      "constant": false,
      "inputs": [
        {
          "components": [
            {
              "internalType": "address payable",
              "name": "borrower",
              "type": "address"
            },
            {
              "internalType": "address",
              "name": "recipient",
              "type": "address"
            },
            {
              "internalType": "address",
              "name": "consensusAddress",
              "type": "address"
            },
            {
              "internalType": "uint256",
              "name": "requestNonce",
              "type": "uint256"
            },
            {
              "internalType": "uint256",
              "name": "amount",
              "type": "uint256"
            },
            {
              "internalType": "uint256",
              "name": "duration",
              "type": "uint256"
            },
            {
              "internalType": "uint256",
              "name": "requestTime",
              "type": "uint256"
            }
          ],
          "internalType": "struct TellerCommon.LoanRequest",
          "name": "request",
          "type": "tuple"
        },
        {
          "components": [
            {
              "internalType": "address",
              "name": "signer",
              "type": "address"
            },
            {
              "internalType": "address",
              "name": "consensusAddress",
              "type": "address"
            },
            {
              "internalType": "uint256",
              "name": "responseTime",
              "type": "uint256"
            },
            {
              "internalType": "uint256",
              "name": "interestRate",
              "type": "uint256"
            },
            {
              "internalType": "uint256",
              "name": "collateralRatio",
              "type": "uint256"
            },
            {
              "internalType": "uint256",
              "name": "maxLoanAmount",
              "type": "uint256"
            },
            {
              "components": [
                {
                  "internalType": "uint256",
                  "name": "signerNonce",
                  "type": "uint256"
                },
                {
                  "internalType": "uint8",
                  "name": "v",
                  "type": "uint8"
                },
                {
                  "internalType": "bytes32",
                  "name": "r",
                  "type": "bytes32"
                },
                {
                  "internalType": "bytes32",
                  "name": "s",
                  "type": "bytes32"
                }
              ],
              "internalType": "struct TellerCommon.Signature",
              "name": "signature",
              "type": "tuple"
            }
          ],
          "internalType": "struct TellerCommon.LoanResponse[]",
          "name": "responses",
          "type": "tuple[]"
        },
        {
          "internalType": "uint256",
          "name": "collateralAmount",
          "type": "uint256"
        }
      ],
      "name": "createLoanWithTerms",
      "outputs": [],
      "payable": true,
      "stateMutability": "payable",
      "type": "function"
    },
    {
      "constant": false,
      "inputs": [
        {
          "internalType": "uint256",
          "name": "loanID",
          "type": "uint256"
        }
      ],
      "name": "externalCreateEscrow",
      "outputs": [
        {
          "internalType": "address",
          "name": "",
          "type": "address"
        }
      ],
      "payable": false,
      "stateMutability": "nonpayable",
      "type": "function"
    }
  ],
  "bytecode": "0x608060405234801561001057600080fd5b50614320806100206000396000f3fe6080604052600436106102255760003560e01c8063803a088211610123578063c1578904116100ab578063e06174e41161006f578063e06174e4146105f8578063e1ec3c681461060d578063e3ed190214610645578063eee8b7ff14610665578063ff8a133f1461069257610225565b8063c15789041461056e578063ccdd9f5d1461058e578063d03399bf146105ae578063d86d744e146105c3578063d8aed145146105d857610225565b8063a59966e7116100f2578063a59966e7146104fc578063a59a99731461051c578063a5c5c7b214610531578063aaaca55814610544578063b2016bd41461055957610225565b8063803a08821461047a5780638129fc1c1461049a57806391d71457146104af578063934b5d13146104cf57610225565b80634ac8eb5f116101b15780636948f32b116101755780636948f32b146103e55780637214056514610405578063749b767714610425578063767a7b051461043a57806379ede5ef1461045a57610225565b80634ac8eb5f14610359578063513484541461036e578063530e784f1461038357806358895e3d146103a35780635dd39ffe146103c557610225565b80631a74856b116101f85780631a74856b146102b75780632630c12f146102ca57806327e3bdec146102ec5780633164d8ae146103195780633b9293001461033957610225565b806302bc2cdb1461022a5780630417e7c91461024c5780631459457a14610282578063158ef93e146102a2575b600080fd5b34801561023657600080fd5b5061024a61024536600461341a565b6106b2565b005b34801561025857600080fd5b5061026c6102673660046132d9565b610d31565b6040516102799190613cbe565b60405180910390f35b34801561028e57600080fd5b5061024a61029d3660046130f9565b610d44565b3480156102ae57600080fd5b5061026c610d75565b61024a6102c53660046131a8565b610d94565b3480156102d657600080fd5b506102df610d99565b6040516102799190613c18565b3480156102f857600080fd5b5061030c6103073660046132d9565b610da8565b6040516102799190613ccc565b34801561032557600080fd5b5061024a6103343660046130bd565b610db3565b34801561034557600080fd5b5061030c6103543660046132d9565b610dde565b34801561036557600080fd5b5061030c610e06565b34801561037a57600080fd5b5061030c610e0c565b34801561038f57600080fd5b5061024a61039e3660046130bd565b610e12565b3480156103af57600080fd5b506103b8610f70565b6040516102799190613cda565b3480156103d157600080fd5b5061024a6103e036600461341a565b610f7f565b3480156103f157600080fd5b5061026c6104003660046132d9565b610f89565b34801561041157600080fd5b5061024a610420366004613327565b6110e2565b34801561043157600080fd5b5061024a6112b1565b34801561044657600080fd5b5061024a61045536600461341a565b6112d7565b34801561046657600080fd5b5061030c6104753660046132d9565b6114f0565b34801561048657600080fd5b506102df6104953660046132d9565b6114fb565b3480156104a657600080fd5b5061024a611506565b3480156104bb57600080fd5b5061024a6104ca3660046132f7565b61158e565b3480156104db57600080fd5b506104ef6104ea3660046132d9565b6115bf565b6040516102799190613e99565b34801561050857600080fd5b5061024a6105173660046130bd565b6115d0565b34801561052857600080fd5b506103b86115f6565b61024a61053f36600461324f565b611605565b34801561055057600080fd5b506102df61160b565b34801561056557600080fd5b506102df61168d565b34801561057a57600080fd5b5061024a6105893660046130bd565b61169c565b34801561059a57600080fd5b5061024a6105a93660046132d9565b6116a5565b3480156105ba57600080fd5b5061024a6119e8565b3480156105cf57600080fd5b506103b8611a0d565b3480156105e457600080fd5b5061024a6105f336600461341a565b611a1c565b34801561060457600080fd5b506103b8611e22565b34801561061957600080fd5b5061062d6106283660046132d9565b611e44565b6040516102799c9b9a99989796959493929190613eeb565b34801561065157600080fd5b5061030c61066036600461316e565b611efc565b34801561067157600080fd5b506106856106803660046130bd565b611f2a565b6040516102799190613cad565b34801561069e57600080fd5b5061024a6106ad366004613439565b611f96565b8160016000828152606d60205260409020600e0154600160a01b900460ff1660038111156106dc57fe5b146107025760405162461bcd60e51b81526004016106f990613e69565b60405180910390fd5b61070a610d75565b6107265760405162461bcd60e51b81526004016106f990613e59565b61072e611fdb565b1561074b5760405162461bcd60e51b81526004016106f990613d99565b606a546001600160a01b031661076081612055565b1561077d5760405162461bcd60e51b81526004016106f990613d09565b603380546001908101918290556000868152606d6020526040902001546001600160a01b03163381146107c25760405162461bcd60e51b81526004016106f990613e29565b6000868152606d60205260409020600501548511156107f35760405162461bcd60e51b81526004016106f990613d19565b6000868152606d60205260409020600701544211156108245760405162461bcd60e51b81526004016106f990613dd9565b61093c61082f611e22565b6001600160a01b031663269012a0606e60009054906101000a90046001600160a01b03166001600160a01b03166311880cc86040518163ffffffff1660e01b815260040160206040518083038186803b15801561088b57600080fd5b505afa15801561089f573d6000803e3d6000fd5b505050506040513d601f19601f820116820180604052506108c39190810190613213565b6040518263ffffffff1660e01b81526004016108df9190613ccc565b60206040518083038186803b1580156108f757600080fd5b505afa15801561090b573d6000803e3d6000fd5b505050506040513d601f19601f8201168201806040525061092f9190810190613213565b429063ffffffff6120da16565b6000878152606d60205260409020600a0154111561096c5760405162461bcd60e51b81526004016106f990613dc9565b6000868152606d60205260409020600d8101869055600b810186905560068101546003909101546109d0916237b1d0916109c491612710918391906109b8908c9063ffffffff61212516565b9063ffffffff61212516565b9063ffffffff61215f16565b6000878152606d60205260409020600c01556109ea612f18565b6109f3876121a1565b9050806060015115610a175760405162461bcd60e51b81526004016106f990613da9565b6000878152606d60205260409020426008820155600e01805460ff60a01b1916600160a11b179055610a48876121fc565b6000888152606d602052604090819020600e0180546001600160a01b0319166001600160a01b039384161790819055606a549151631397424760e11b81529183169263272e848e92610aa0928b921690600401613ea7565b600060405180830381600087803b158015610aba57600080fd5b505af1158015610ace573d6000803e3d6000fd5b5050506000888152606d602052604090819020600e0154905163cd6dc68760e01b81526001600160a01b03909116915063cd6dc68790610b149030908b90600401613c92565b600060405180830381600087803b158015610b2e57600080fd5b505af1158015610b42573d6000803e3d6000fd5b50505050610b4e6122f5565b6001600160a01b031663c7bbb113606a60009054906101000a90046001600160a01b03166001600160a01b031663aaaca5586040518163ffffffff1660e01b815260040160206040518083038186803b158015610baa57600080fd5b505afa158015610bbe573d6000803e3d6000fd5b505050506040513d601f19601f82011682018060405250610be291908101906130db565b306001600160a01b031663b2016bd46040518163ffffffff1660e01b815260040160206040518083038186803b158015610c1b57600080fd5b505afa158015610c2f573d6000803e3d6000fd5b505050506040513d601f19601f82011682018060405250610c5391908101906130db565b896040518463ffffffff1660e01b8152600401610c7293929190613c77565b600060405180830381600087803b158015610c8c57600080fd5b505af1158015610ca0573d6000803e3d6000fd5b5050506000888152606d602052604090819020600e81015460019091015491516001600160a01b03918216935091169089907f85b5516a17ce775661a4b967b1fb30c852678f6598d86d9f3c99b7b60ff2d0ce90610cff908b90613ccc565b60405180910390a450506033548114610d2a5760405162461bcd60e51b81526004016106f990613e79565b5050505050565b6000610d3c8261236f565b90505b919050565b610d4c610d75565b15610d695760405162461bcd60e51b81526004016106f990613e89565b610d2a858585856126df565b600080604051610d8490613c02565b6040519081900390205492915050565b505050565b6069546001600160a01b031681565b6000610d3c8261287c565b80610dbd81612055565b15610dda5760405162461bcd60e51b81526004016106f990613d09565b5050565b6000818152606d60205260408120600b810154600c90910154610d3c9163ffffffff6129c116565b60665481565b60685481565b610e1a610d75565b610e365760405162461bcd60e51b81526004016106f990613e59565b610e3e611e22565b6001600160a01b031663c095ea27336040518263ffffffff1660e01b8152600401610e699190613c26565b60006040518083038186803b158015610e8157600080fd5b505afa158015610e95573d6000803e3d6000fd5b50505050610eab816001600160a01b03166129e6565b610ec75760405162461bcd60e51b81526004016106f990613e19565b60695460408051808201909152601b81527f4e45575f4f5241434c455f4d5553545f42455f50524f5649444544000000000060208201526001600160a01b0390911690610f1d908290849063ffffffff612a2216565b606980546001600160a01b0319166001600160a01b03848116918217909255604051909183169033907ff51f0fffc8121ee3747e0536c487d894894cdba960ccfb4ab385a88d51b16fed90600090a45050565b606b546001600160a01b031681565b610dda8282612a4b565b6000610f93611fdb565b80610fae5750606a54610fae906001600160a01b0316612055565b80610fe0575060026000838152606d60205260409020600e0154600160a01b900460ff166003811115610fdd57fe5b14155b15610fed57506000610d3f565b6000828152606d602052604081206008810154600690910154909142611019848463ffffffff6129c116565b109050801561102e5760019350505050610d3f565b6000858152606d60205260409020600e01546001600160a01b031680156110cb57806001600160a01b031663415dfa5b6040518163ffffffff1660e01b815260040160206040518083038186803b15801561108857600080fd5b505afa15801561109c573d6000803e3d6000fd5b505050506040513d601f19601f820116820180604052506110c091908101906131f5565b945050505050610d3f565b6110d4866121a1565b606001519695505050505050565b828a6080013510156111065760405162461bcd60e51b81526004016106f990613d79565b6040518061018001604052808c81526020018b80360361112991908101906132bb565b81526020018a815260200189815260200188815260200187815260200186815260200185815260200184815260200160006001600160a01b0316815260200183600381111561117457fe5b815282151560209182015260008d8152606d8252604090819020835181558383015180516001830180546001600160a01b03199081166001600160a01b0393841617909155948201516002840180548716918316919091179055818401516003808501919091556060808401516004860155608080850151600587015560a0948501516006870155958801516007860155870151600885015593860151600984015590850151600a83015560c0850151600b83015560e0850151600c830155610100850151600d830155610120850151600e830180549095169116178084556101408501519193919260ff60a01b1990911690600160a01b90849081111561127857fe5b02179055506101609190910151600e9091018054911515600160a81b0260ff60a81b199092169190911790555050505050505050505050565b6112b9611fdb565b6112d55760405162461bcd60e51b81526004016106f990613df9565b565b8060016000828152606d60205260409020600e0154600160a01b900460ff16600381111561130157fe5b1480611333575060026000828152606d60205260409020600e0154600160a01b900460ff16600381111561133157fe5b145b61134f5760405162461bcd60e51b81526004016106f990613d39565b611357610d75565b6113735760405162461bcd60e51b81526004016106f990613e59565b61137b611fdb565b156113985760405162461bcd60e51b81526004016106f990613d99565b606a546001600160a01b03166113ad81612055565b156113ca5760405162461bcd60e51b81526004016106f990613d09565b603380546001908101918290556000858152606d6020526040902001546001600160a01b0316331461140e5760405162461bcd60e51b81526004016106f990613e49565b6000851161142e5760405162461bcd60e51b81526004016106f990613d89565b600061143985612b06565b905060006114468261287c565b6000878152606d60205260408120600901549192509061146c908363ffffffff6120da16565b9050878111156114795750865b801561148a5761148a878233610d94565b336001600160a01b0316877f7c5e5cb62e5ed3caf3764e4b0afedfedef533e27809d43367799787ad2abcd41836040516114c49190613ccc565b60405180910390a35050506033548114610d2a5760405162461bcd60e51b81526004016106f990613e79565b6000610d3c82612b3d565b6000610d3c826121fc565b600054610100900460ff168061151f575061151f612c33565b8061152d575060005460ff16155b6115495760405162461bcd60e51b81526004016106f990613de9565b600054610100900460ff16158015611574576000805460ff1961ff0019909116610100171660011790555b6001603355801561158b576000805461ff00191690555b50565b6000918252606d6020526040909120600e0180546001600160a01b0319166001600160a01b03909216919091179055565b6115c7612f18565b610d3c826121a1565b806115da81612055565b610dda5760405162461bcd60e51b81526004016106f990613e39565b606a546001600160a01b031681565b50505050565b606a546040805163155594ab60e31b815290516000926001600160a01b03169163aaaca558916004808301926020929190829003018186803b15801561165057600080fd5b505afa158015611664573d6000803e3d6000fd5b505050506040513d601f19601f8201168201806040525061168891908101906130db565b905090565b6067546001600160a01b031681565b61158b81612c39565b8060026000828152606d60205260409020600e0154600160a01b900460ff1660038111156116cf57fe5b146116ec5760405162461bcd60e51b81526004016106f990613d69565b6116f4610d75565b6117105760405162461bcd60e51b81526004016106f990613e59565b611718611fdb565b156117355760405162461bcd60e51b81526004016106f990613d99565b606a546001600160a01b031661174a81612055565b156117675760405162461bcd60e51b81526004016106f990613d09565b603380546001019081905561177b84610f89565b6117975760405162461bcd60e51b81526004016106f990613d59565b6000848152606d60205260408120600e8101805460ff60a01b1916600360a01b1760ff60a81b1916600160a81b17905560090154906117d582612b3d565b90506117e2868333610d94565b60006119026127106109c46117f5611e22565b6001600160a01b031663269012a0606e60009054906101000a90046001600160a01b03166001600160a01b0316631139087a6040518163ffffffff1660e01b815260040160206040518083038186803b15801561185157600080fd5b505afa158015611865573d6000803e3d6000fd5b505050506040513d601f19601f820116820180604052506118899190810190613213565b6040518263ffffffff1660e01b81526004016118a59190613ccc565b60206040518083038186803b1580156118bd57600080fd5b505afa1580156118d1573d6000803e3d6000fd5b505050506040513d601f19601f820116820180604052506118f59190810190613213565b859063ffffffff61212516565b606a546040516382f7b02760e01b81529192506001600160a01b0316906382f7b027906119359084903390600401613eb5565b600060405180830381600087803b15801561194f57600080fd5b505af1158015611963573d6000803e3d6000fd5b5050506000888152606d6020526040908190206001015490516001600160a01b03909116915088907f9950a0562c02382e2e840daa73082d5be7660ce37601f28fa4c84089c11e8a06906119bc90339088908790613c34565b60405180910390a350505060335481146116055760405162461bcd60e51b81526004016106f990613e79565b6119f0611fdb565b156112d55760405162461bcd60e51b81526004016106f990613d99565b606e546001600160a01b031681565b8060026000828152606d60205260409020600e0154600160a01b900460ff166003811115611a4657fe5b14611a635760405162461bcd60e51b81526004016106f990613d69565b611a6b610d75565b611a875760405162461bcd60e51b81526004016106f990613e59565b611a8f611fdb565b15611aac5760405162461bcd60e51b81526004016106f990613d99565b606a546001600160a01b0316611ac181612055565b15611ade5760405162461bcd60e51b81526004016106f990613d09565b603380546001019081905584611b065760405162461bcd60e51b81526004016106f990613cf9565b846000611b1286610dde565b905081811015611b20578091505b611b30818363ffffffff6120da16565b9050611b3c8683612a4b565b80611be0576000868152606d60205260409020600e8101805460ff60a01b1916600360a01b1790556009810154600190910154611b8590889083906001600160a01b0316610d94565b6000878152606d6020526040908190206001015490516001600160a01b039091169088907f7c5e5cb62e5ed3caf3764e4b0afedfedef533e27809d43367799787ad2abcd4190611bd6908590613ccc565b60405180910390a3505b606a5460405163acb7081560e01b81526001600160a01b039091169063acb7081590611c129085903390600401613eb5565b600060405180830381600087803b158015611c2c57600080fd5b505af1158015611c40573d6000803e3d6000fd5b50505050611c4c6122f5565b6001600160a01b03166362e269ef606a60009054906101000a90046001600160a01b03166001600160a01b031663aaaca5586040518163ffffffff1660e01b815260040160206040518083038186803b158015611ca857600080fd5b505afa158015611cbc573d6000803e3d6000fd5b505050506040513d601f19601f82011682018060405250611ce091908101906130db565b306001600160a01b031663b2016bd46040518163ffffffff1660e01b815260040160206040518083038186803b158015611d1957600080fd5b505afa158015611d2d573d6000803e3d6000fd5b505050506040513d601f19601f82011682018060405250611d5191908101906130db565b856040518463ffffffff1660e01b8152600401611d7093929190613c77565b600060405180830381600087803b158015611d8a57600080fd5b505af1158015611d9e573d6000803e3d6000fd5b5050506000878152606d6020526040908190206001015490516001600160a01b03909116915087907f20a1f2ec363af45dc5ee7d9d622f2dd68b52501c382126c7f04b53663c4c69bf90611df790869033908790613ed0565b60405180910390a350506033548114610d2a5760405162461bcd60e51b81526004016106f990613e79565b6000806000604051611e3390613c0d565b604051908190039020549250505090565b606d602090815260009182526040918290208054835160c08101855260018301546001600160a01b03908116825260028401548116948201949094526003830154948101949094526004820154606085015260058201546080850152600682015460a0850152600782015460088301546009840154600a850154600b860154600c870154600d880154600e9098015496999895979496939592949193909281169060ff600160a01b8204811691600160a81b9004168c565b606c6020528160005260406000208181548110611f1557fe5b90600052602060002001600091509150505481565b6001600160a01b0381166000908152606c6020908152604091829020805483518184028101840190945280845260609392830182828015611f8a57602002820191906000526020600020905b815481526020019060010190808311611f76575b50505050509050919050565b6000928352606d602090815260408085206009018054606f909352942090815560018101929092556002820181905591546003909101805460ff191691909211179055565b6000611fe5611e22565b6001600160a01b031663b187bd266040518163ffffffff1660e01b815260040160206040518083038186803b15801561201d57600080fd5b505afa158015612031573d6000803e3d6000fd5b505050506040513d601f19601f8201168201806040525061168891908101906131f5565b600061205f611e22565b6001600160a01b0316633b668321836040518263ffffffff1660e01b815260040161208a9190613c18565b60206040518083038186803b1580156120a257600080fd5b505afa1580156120b6573d6000803e3d6000fd5b505050506040513d601f19601f82011682018060405250610d3c91908101906131f5565b600061211c83836040518060400160405280601e81526020017f536166654d6174683a207375627472616374696f6e206f766572666c6f770000815250612ceb565b90505b92915050565b6000826121345750600061211f565b8282028284828161214157fe5b041461211c5760405162461bcd60e51b81526004016106f990613db9565b600061211c83836040518060400160405280601a81526020017f536166654d6174683a206469766973696f6e206279207a65726f000000000000815250612d1c565b6121a9612f18565b506000818152606f6020908152604091829020825160808101845281548082526001830154938201939093526002820154938101939093526003015460ff1615156060830152610d3f57610d3c82612d53565b6000612206611e22565b6001600160a01b031663bdd1daaa6040518163ffffffff1660e01b815260040160206040518083038186803b15801561223e57600080fd5b505afa158015612252573d6000803e3d6000fd5b505050506040513d601f19601f820116820180604052506122769190810190613231565b6001600160a01b0316634614874e30846040518363ffffffff1660e01b81526004016122a3929190613c92565b602060405180830381600087803b1580156122bd57600080fd5b505af11580156122d1573d6000803e3d6000fd5b505050506040513d601f19601f82011682018060405250610d3c91908101906130db565b60006122ff611e22565b6001600160a01b0316631390f8d76040518163ffffffff1660e01b815260040160206040518083038186803b15801561233757600080fd5b505afa15801561234b573d6000803e3d6000fd5b505050506040513d601f19601f820116820180604052506116889190810190613231565b60008061237a611e22565b6001600160a01b031663dc21a6a06040518163ffffffff1660e01b815260040160206040518083038186803b1580156123b257600080fd5b505afa1580156123c6573d6000803e3d6000fd5b505050506040513d601f19601f820116820180604052506123ea9190810190613231565b6001600160a01b0316631fb7cec9606a60009054906101000a90046001600160a01b03166001600160a01b031663aaaca5586040518163ffffffff1660e01b815260040160206040518083038186803b15801561244657600080fd5b505afa15801561245a573d6000803e3d6000fd5b505050506040513d601f19601f8201168201806040525061247e91908101906130db565b6067546040516001600160e01b031960e085901b1681526124ac92916001600160a01b031690600401613c5c565b60206040518083038186803b1580156124c457600080fd5b505afa1580156124d8573d6000803e3d6000fd5b505050506040513d601f19601f820116820180604052506124fc91908101906130db565b90506001600160a01b0381166125245760405162461bcd60e51b81526004016106f990613e09565b604051632319178560e11b81526000906001600160a01b038316906346322f0a90612562906b14dd5c1c1b1e551bd119589d60a21b90600401613ccc565b60206040518083038186803b15801561257a57600080fd5b505afa15801561258e573d6000803e3d6000fd5b505050506040513d601f19601f820116820180604052506125b29190810190613213565b905060006125be6122f5565b6001600160a01b031663db63323e606a60009054906101000a90046001600160a01b03166001600160a01b031663aaaca5586040518163ffffffff1660e01b815260040160206040518083038186803b15801561261a57600080fd5b505afa15801561262e573d6000803e3d6000fd5b505050506040513d601f19601f8201168201806040525061265291908101906130db565b6067546040516001600160e01b031960e085901b16815261268292916001600160a01b0316908a90600401613c77565b60206040518083038186803b15801561269a57600080fd5b505afa1580156126ae573d6000803e3d6000fd5b505050506040513d601f19601f820116820180604052506126d29190810190613213565b9190911115949350505050565b6126e7610d75565b156127045760405162461bcd60e51b81526004016106f990613e89565b60408051808201909152601681527550524f564944455f4f5241434c455f4144445245535360501b602082015261274b906001600160a01b0386169063ffffffff612da416565b60408051808201909152601c81527f50524f564944455f4c454e44494e475f504f4f4c5f41444452455353000000006020820152612799906001600160a01b0385169063ffffffff612da416565b60408051808201909152601b81527f50524f56494445445f4c4f414e5f5445524d535f41444452455353000000000060208201526127e7906001600160a01b0384169063ffffffff612da416565b6127f081612c39565b606980546001600160a01b038087166001600160a01b031992831617909255606a8054868416908316179055606b80549285169290911691909117905560405161283990612f42565b604051809103906000f080158015612855573d6000803e3d6000fd5b50606e80546001600160a01b0319166001600160a01b039290921691909117905550505050565b600080612916606a60009054906101000a90046001600160a01b03166001600160a01b031663aaaca5586040518163ffffffff1660e01b815260040160206040518083038186803b1580156128d057600080fd5b505afa1580156128e4573d6000803e3d6000fd5b505050506040513d601f19601f8201168201806040525061290891908101906130db565b6001600160a01b0316612dcc565b90506000606960009054906101000a90046001600160a01b03166001600160a01b03166396237c026040518163ffffffff1660e01b815260040160206040518083038186803b15801561296857600080fd5b505afa15801561297c573d6000803e3d6000fd5b505050506040513d601f19601f820116820180604052506129a09190810190613213565b905060006129b8836109c4878563ffffffff61212516565b95945050505050565b60008282018381101561211c5760405162461bcd60e51b81526004016106f990613d29565b6000813f7fc5d2460186f7233c927e7db2dcc703c0e500b653ca82273b7bfad8045d85a470818114801590612a1a57508115155b949350505050565b612a2c8383612e4d565b81906116055760405162461bcd60e51b81526004016106f99190613ce8565b6000828152606d60205260409020600b0154811115612ace576000828152606d60205260409020600b01548190612a8990829063ffffffff6120da16565b6000848152606d60205260408120600b810191909155600c0154909150612ab6908263ffffffff6120da16565b6000848152606d60205260409020600c015550610dda565b6000828152606d60205260409020600b0154612af0908263ffffffff6120da16565b6000838152606d60205260409020600b01555050565b600080612b1283610dde565b6000848152606d6020526040902060040154909150612a1a6127106109c4848463ffffffff61212516565b600080612b91606a60009054906101000a90046001600160a01b03166001600160a01b031663aaaca5586040518163ffffffff1660e01b815260040160206040518083038186803b1580156128d057600080fd5b90506000606960009054906101000a90046001600160a01b03166001600160a01b03166396237c026040518163ffffffff1660e01b815260040160206040518083038186803b158015612be357600080fd5b505afa158015612bf7573d6000803e3d6000fd5b505050506040513d601f19601f82011682018060405250612c1b9190810190613213565b905060006129b8826109c4878663ffffffff61212516565b303b1590565b612c41610d75565b15612c5e5760405162461bcd60e51b81526004016106f990613e89565b60408051808201909152601981527f53455454494e47535f4d5553545f42455f50524f5649444544000000000000006020820152612cac906001600160a01b0383169063ffffffff612da416565b612cbe816001600160a01b03166129e6565b612cda5760405162461bcd60e51b81526004016106f990613d49565b612ce2612e5f565b61158b81612e7d565b60008184841115612d0f5760405162461bcd60e51b81526004016106f99190613ce8565b50508183035b9392505050565b60008183612d3d5760405162461bcd60e51b81526004016106f99190613ce8565b506000838581612d4957fe5b0495945050505050565b612d5b612f18565b6000828152606d60205260408120600901549080612d7885612ee6565b604080516080810182528681526020810193909352820181905293909311606084015250909392505050565b612dad82612f0a565b8190610d945760405162461bcd60e51b81526004016106f99190613ce8565b600080826001600160a01b031663313ce5676040518163ffffffff1660e01b815260040160206040518083038186803b158015612e0857600080fd5b505afa158015612e1c573d6000803e3d6000fd5b505050506040513d601f19601f82011682018060405250612e40919081019061345a565b60ff16600a0a9392505050565b6001600160a01b039081169116141590565b6000604051612e6d90613c02565b6040519081900390206001905550565b6000612e87611e22565b6001600160a01b031614612ec857612ea7816001600160a01b03166129e6565b612ec35760405162461bcd60e51b81526004016106f990613d49565b61158b565b6000604051612ed690613c0d565b6040519081900390208290555050565b6000806000612ef484612b06565b905080612f008261287c565b9250925050915091565b6001600160a01b0316151590565b60405180608001604052806000815260200160008152602001600081526020016000151581525090565b61022b806140b383390190565b803561211f8161406d565b805161211f8161406d565b60008083601f840112612f7757600080fd5b50813567ffffffffffffffff811115612f8f57600080fd5b60208301915083610140820283011115612fa857600080fd5b9250929050565b803561211f81614081565b805161211f81614081565b805161211f8161408a565b805161211f81614093565b803561211f8161409c565b600060e08284031215612ff857600080fd5b50919050565b600060c08284031215612ff857600080fd5b600060c0828403121561302257600080fd5b61302c60c0613fa3565b9050600061303a8484612f4f565b825250602061304b84848301612f4f565b602083015250604061305f848285016130a7565b6040830152506060613073848285016130a7565b6060830152506080613087848285016130a7565b60808301525060a061309b848285016130a7565b60a08301525092915050565b803561211f8161408a565b805161211f816140a9565b6000602082840312156130cf57600080fd5b6000612a1a8484612f4f565b6000602082840312156130ed57600080fd5b6000612a1a8484612f5a565b600080600080600060a0868803121561311157600080fd5b600061311d8888612f4f565b955050602061312e88828901612f4f565b945050604061313f88828901612f4f565b935050606061315088828901612f4f565b925050608061316188828901612f4f565b9150509295509295909350565b6000806040838503121561318157600080fd5b600061318d8585612f4f565b925050602061319e858286016130a7565b9150509250929050565b6000806000606084860312156131bd57600080fd5b60006131c98686612f4f565b93505060206131da868287016130a7565b92505060406131eb868287016130a7565b9150509250925092565b60006020828403121561320757600080fd5b6000612a1a8484612fba565b60006020828403121561322557600080fd5b6000612a1a8484612fc5565b60006020828403121561324357600080fd5b6000612a1a8484612fd0565b600080600080610120858703121561326657600080fd5b60006132728787612fe6565b94505060e085013567ffffffffffffffff81111561328f57600080fd5b61329b87828801612f65565b93509350506101006132af878288016130a7565b91505092959194509250565b600060c082840312156132cd57600080fd5b6000612a1a8484613010565b6000602082840312156132eb57600080fd5b6000612a1a84846130a7565b6000806040838503121561330a57600080fd5b600061331685856130a7565b925050602061319e85828601612f4f565b60008060008060008060008060008060006102008c8e03121561334957600080fd5b60006133558e8e6130a7565b9b505060206133668e828f01612ffe565b9a505060e06133778e828f016130a7565b9950506101006133898e828f016130a7565b98505061012061339b8e828f016130a7565b9750506101406133ad8e828f016130a7565b9650506101606133bf8e828f016130a7565b9550506101806133d18e828f016130a7565b9450506101a06133e38e828f016130a7565b9350506101c06133f58e828f01612fdb565b9250506101e06134078e828f01612faf565b9150509295989b509295989b9093969950565b6000806040838503121561342d57600080fd5b600061318d85856130a7565b60008060006060848603121561344e57600080fd5b60006131c986866130a7565b60006020828403121561346c57600080fd5b6000612a1a84846130b2565b60006134848383613506565b505060200190565b61349581614017565b82525050565b61349581613fdd565b60006134af82613fd0565b6134b98185613fd4565b93506134c483613fca565b8060005b838110156134f25781516134dc8882613478565b97506134e783613fca565b9250506001016134c8565b509495945050505050565b61349581613fe8565b61349581613fed565b61349581613ff0565b61349581614022565b600061352c82613fd0565b6135368185613fd4565b935061354681856020860161402d565b61354f81614059565b9093019392505050565b6000613566601c83610d3f565b7f54496e697469616c697a61626c652e6973496e697469616c697a6564000000008152601c0192915050565b600061359f601583613fd4565b74105353d5539517d59053155157d491545552549151605a1b815260200192915050565b60006135d0601683613fd4565b7513115391125391d7d413d3d317d254d7d4105554d15160521b815260200192915050565b6000613602601183613fd4565b7013505617d313d05397d15610d151511151607a1b815260200192915050565b600061362f601b83613fd4565b7f536166654d6174683a206164646974696f6e206f766572666c6f770000000000815260200192915050565b6000613668601683613fd4565b751313d05397d393d517d050d512559157d3d497d4d15560521b815260200192915050565b600061369a601b83613fd4565b7f53455454494e47535f4d5553545f42455f415f434f4e54524143540000000000815260200192915050565b60006136d3601783613fd4565b7f444f45534e545f4e4545445f4c49515549444154494f4e000000000000000000815260200192915050565b600061370c600f83613fd4565b6e4c4f414e5f4e4f545f41435449564560881b815260200192915050565b6000613737601b83613fd4565b7f424f52524f5745445f414d4f554e545f455843454544535f4d41580000000000815260200192915050565b6000613770601483613fd4565b7343414e4e4f545f57495448445241575f5a45524f60601b815260200192915050565b60006137a0601283613fd4565b71141310551193d49357d254d7d4105554d15160721b815260200192915050565b60006137ce601883613fd4565b7f4d4f52455f434f4c4c41544552414c5f52455155495245440000000000000000815260200192915050565b6000613807602183613fd4565b7f536166654d6174683a206d756c7469706c69636174696f6e206f766572666c6f8152607760f81b602082015260400192915050565b600061384a601d83613fd4565b7f434f4c4c41544552414c5f4445504f53495445445f524543454e544c59000000815260200192915050565b6000613883601283613fd4565b711313d05397d511549354d7d156141254915160721b815260200192915050565b60006138b1602e83613fd4565b7f436f6e747261637420696e7374616e63652068617320616c726561647920626581526d195b881a5b9a5d1a585b1a5e995960921b602082015260400192915050565b6000613901601683613fd4565b75141310551193d49357d254d7d393d517d4105554d15160521b815260200192915050565b6000613933601883613fd4565b7f41544d5f4e4f545f464f554e445f464f525f4d41524b45540000000000000000815260200192915050565b600061396c601e83613fd4565b7f4f5241434c455f4d5553545f434f4e54524143545f4e4f545f454d5054590000815260200192915050565b60006139a5601783613fd4565b7f424f52524f5745525f4d5553545f42455f53454e444552000000000000000000815260200192915050565b60006139de601a83613fd4565b7f4c454e44494e475f504f4f4c5f49535f4e4f545f504155534544000000000000815260200192915050565b6000613a17601683613fd4565b7521a0a62622a92fa227a2a9a72a2fa7aba72fa627a0a760511b815260200192915050565b6000613a49601883610d3f565b7f426173655570677261646561626c652e73657474696e67730000000000000000815260180192915050565b6000613a82601883613fd4565b7f434f4e54524143545f4e4f545f494e495449414c495a45440000000000000000815260200192915050565b6000613abb600c83613fd4565b6b1313d05397d393d517d4d15560a21b815260200192915050565b6000613ae3601f83613fd4565b7f5265656e7472616e637947756172643a207265656e7472616e742063616c6c00815260200192915050565b6000613b1c601c83613fd4565b7f434f4e54524143545f414c52454144595f494e495449414c495a454400000000815260200192915050565b80516080830190613b598482613506565b506020820151613b6c6020850182613506565b506040820151613b7f6040850182613506565b50606082015161160560608501826134fd565b805160c0830190613ba3848261349b565b506020820151613bb6602085018261349b565b506040820151613bc96040850182613506565b506060820151613bdc6060850182613506565b506080820151613bef6080850182613506565b5060a082015161160560a0850182613506565b600061211f82613559565b600061211f82613a3c565b6020810161211f828461349b565b6020810161211f828461348c565b60608101613c42828661348c565b613c4f6020830185613506565b612a1a6040830184613506565b60408101613c6a828561349b565b612d15602083018461349b565b60608101613c85828661349b565b613c4f602083018561349b565b60408101613ca0828561349b565b612d156020830184613506565b6020808252810161211c81846134a4565b6020810161211f82846134fd565b6020810161211f8284613506565b6020810161211f828461350f565b6020808252810161211c8184613521565b60208082528101610d3c81613592565b60208082528101610d3c816135c3565b60208082528101610d3c816135f5565b60208082528101610d3c81613622565b60208082528101610d3c8161365b565b60208082528101610d3c8161368d565b60208082528101610d3c816136c6565b60208082528101610d3c816136ff565b60208082528101610d3c8161372a565b60208082528101610d3c81613763565b60208082528101610d3c81613793565b60208082528101610d3c816137c1565b60208082528101610d3c816137fa565b60208082528101610d3c8161383d565b60208082528101610d3c81613876565b60208082528101610d3c816138a4565b60208082528101610d3c816138f4565b60208082528101610d3c81613926565b60208082528101610d3c8161395f565b60208082528101610d3c81613998565b60208082528101610d3c816139d1565b60208082528101610d3c81613a0a565b60208082528101610d3c81613a75565b60208082528101610d3c81613aae565b60208082528101610d3c81613ad6565b60208082528101610d3c81613b0f565b6080810161211f8284613b48565b60408101613c6a8285613506565b60408101613ec38285613506565b612d15602083018461348c565b60608101613ede8286613506565b613c4f602083018561348c565b6102208101613efa828f613506565b613f07602083018e613b92565b613f1460e083018d613506565b613f2261010083018c613506565b613f3061012083018b613506565b613f3e61014083018a613506565b613f4c610160830189613506565b613f5a610180830188613506565b613f686101a0830187613506565b613f766101c083018661349b565b613f846101e0830185613518565b613f926102008301846134fd565b9d9c50505050505050505050505050565b60405181810167ffffffffffffffff81118282101715613fc257600080fd5b604052919050565b60200190565b5190565b90815260200190565b6000610d3c82614005565b151590565b90565b6000610d3c82613fdd565b80610d3f81614063565b6001600160a01b031690565b60ff1690565b6000610d3c82613ff0565b6000610d3c82613ffb565b60005b83811015614048578181015183820152602001614030565b838111156116055750506000910152565b601f01601f191690565b6004811061158b57fe5b61407681613fdd565b811461158b57600080fd5b61407681613fe8565b61407681613fed565b61407681613ff0565b6004811061158b57600080fd5b6140768161401156fe608060405234801561001057600080fd5b5061020b806100206000396000f3fe608060405234801561001057600080fd5b50600436106100935760003560e01c80633ff591d9116100665780633ff591d9146100ca578063c41dd8ce146100d2578063cc44cadb146100da578063e00a4615146100e2578063e3f33d00146100ea57610093565b806308b04f62146100985780631139087a146100b257806311880cc8146100ba5780633b98dfdb146100c2575b600080fd5b6100a06100f2565b60408051918252519081900360200190f35b6100a0610109565b6100a0610121565b6100a0610136565b6100a061015a565b6100a0610174565b6100a061018b565b6100a06101a5565b6100a06101bb565b6f21b7b63630ba32b930b6213ab33332b960811b81565b704c6971756964617465457468507269636560781b81565b6d14d859995d1e525b9d195c9d985b60921b81565b7f526571756573744c6f616e5465726d73526174654c696d69740000000000000081565b7252657175697265645375626d697373696f6e7360681b81565b6f4d6178696d756d546f6c6572616e636560801b81565b7226b0bc34b6bab6a637b0b7223ab930ba34b7b760691b81565b6e5465726d7345787069727954696d6560881b81565b730a4cae6e0dedce6ca8af0e0d2e4f298cadccee8d60631b8156fea265627a7a72315820b6cc93d12d39f205ac91b27ee8876405b81cd752a680e010a2828f9ed81bbbb364736f6c63430005110032a365627a7a723158200e5df940257ee3910b243478a77bef02b2a155d67c0398371c76eff06e03c1ad6c6578706572696d656e74616cf564736f6c63430005110040",
  "source": "pragma solidity 0.5.17;\npragma experimental ABIEncoderV2;\n\nimport \"./BaseMock.sol\";\nimport \"../../base/LoansBase.sol\";\n\ncontract LoansBaseMock is LoansBase, BaseMock {\n    mapping(uint256 => TellerCommon.LoanCollateralInfo) internal mockCollateralInfo;\n\n    function _payOutCollateral(\n        uint256 loanID,\n        uint256 amount,\n        address payable recipient\n    ) internal {}\n\n    function externalPayLoan(uint256 loanID, uint256 toPay) external {\n        _payLoan(loanID, toPay);\n    }\n\n    function externalConvertWeiToToken(uint256 weiAmount)\n        external\n        view\n        returns (uint256)\n    {\n        return _convertWeiToToken(weiAmount);\n    }\n\n    function externalConvertTokenToWei(uint256 tokenAmount)\n        external\n        view\n        returns (uint256)\n    {\n        return _convertTokenToWei(tokenAmount);\n    }\n\n    function externalIsSupplyToDebtRatioValid(uint256 newLoanAmount)\n        external\n        view\n        returns (bool)\n    {\n        return super._isSupplyToDebtRatioValid(newLoanAmount);\n    }\n\n    function setLoan(\n        uint256 id,\n        TellerCommon.LoanTerms calldata loanTerms,\n        uint256 termsExpiry,\n        uint256 loanStartTime,\n        uint256 collateral,\n        uint256 lastCollateralIn,\n        uint256 principalOwed,\n        uint256 interestOwed,\n        uint256 borrowedAmount,\n        TellerCommon.LoanStatus status,\n        bool liquidated\n    ) external {\n        require(loanTerms.maxLoanAmount >= borrowedAmount, \"BORROWED_AMOUNT_EXCEEDS_MAX\");\n        loans[id] = TellerCommon.Loan({\n            id: id,\n            loanTerms: loanTerms,\n            termsExpiry: termsExpiry,\n            loanStartTime: loanStartTime,\n            collateral: collateral,\n            lastCollateralIn: lastCollateralIn,\n            principalOwed: principalOwed,\n            interestOwed: interestOwed,\n            borrowedAmount: borrowedAmount,\n            escrow: address(0x0),\n            status: status,\n            liquidated: liquidated\n        });\n    }\n\n    function setEscrowForLoan(uint256 loanID, address escrowAddress) external {\n        loans[loanID].escrow = escrowAddress;\n    }\n\n    function mockGetCollateralInfo(\n        uint256 loanID,\n        uint256 neededInLending,\n        uint256 neededInCollateral\n    ) external {\n        mockCollateralInfo[loanID].collateral = loans[loanID].collateral;\n        mockCollateralInfo[loanID].neededInLendingTokens = neededInLending;\n        mockCollateralInfo[loanID].neededInCollateralTokens = neededInCollateral;\n        mockCollateralInfo[loanID].moreCollateralRequired =\n            neededInCollateral > loans[loanID].collateral;\n    }\n\n    function _getCollateralInfo(uint256 loanID)\n        internal\n        view\n        returns (TellerCommon.LoanCollateralInfo memory info)\n    {\n        info = mockCollateralInfo[loanID];\n        if (info.collateral == 0) {\n            info = super._getCollateralInfo(loanID);\n        }\n    }\n\n    function initialize(\n        address priceOracleAddress,\n        address lendingPoolAddress,\n        address loanTermsConsensusAddress,\n        address settingsAddress,\n        address\n    ) external isNotInitialized() {\n        _initialize(\n            priceOracleAddress,\n            lendingPoolAddress,\n            loanTermsConsensusAddress,\n            settingsAddress\n        );\n    }\n\n    function depositCollateral(\n        address borrower,\n        uint256 loanID,\n        uint256 amount\n    ) external payable {}\n\n    function createLoanWithTerms(\n        TellerCommon.LoanRequest calldata request,\n        TellerCommon.LoanResponse[] calldata responses,\n        uint256 collateralAmount\n    ) external payable {}\n\n    function externalCreateEscrow(uint256 loanID) external returns (address) {\n        return super._createEscrow(loanID);\n    }\n}\n",
  "sourcePath": "/Users/sy/Documents/GitHub/teller-protocol-v1/contracts/mock/base/LoansBaseMock.sol",
  "compiler": {
    "name": "solc",
    "version": "0.5.17+commit.d19bba13.Emscripten.clang"
  },
  "schemaVersion": "3.0.23",
  "updatedAt": "2020-09-06T02:15:12.489Z",
  "devdoc": {
    "methods": {
      "canLiquidateLoan(uint256)": {
        "params": {
          "loanID": "The ID of the loan to check"
        },
        "return": "bool weather the loan can be liquidated"
      },
      "getBorrowerLoans(address)": {
        "params": {
          "borrower": "The borrower's address"
        }
      },
      "getCollateralInfo(uint256)": {
        "params": {
          "loanID": "of the loan to get info for"
        },
        "return": "memory TellerCommon.LoanCollateralInfo Collateral information of the loan"
      },
      "getTotalOwed(uint256)": {
        "params": {
          "loanID": "The ID of the loan to be queried"
        },
        "return": "uint256 The total amount owed remaining"
      },
      "initialized()": {
        "return": "true if contract is initialized. Otherwise it returns false."
      },
      "lendingToken()": {
        "return": "Address of the lending token"
      },
      "liquidateLoan(uint256)": {
        "params": {
          "loanID": "The ID of the loan to be liquidated"
        }
      },
      "repay(uint256,uint256)": {
        "params": {
          "amount": "The amount of tokens to pay back to the loan",
          "loanID": "The ID of the loan the payment is for"
        }
      },
      "setPriceOracle(address)": {
        "details": "It throws a require error if sender is not allowed.It throws a require error if new address is empty (0x0) or not a contract.",
        "params": {
          "newPriceOracle": "the new price oracle address."
        }
      },
      "takeOutLoan(uint256,uint256)": {
        "details": "collateral ratio is a percentage of the loan amount that's required in collateralthe percentage will be *(10**2). I.e. collateralRatio of 5244 means 52.44% collateralis required in the loan. Interest rate is also a percentage with 2 decimal points."
      },
      "withdrawCollateral(uint256,uint256)": {
        "params": {
          "amount": "The amount of collateral token or ether the caller is hoping to withdraw.",
          "loanID": "The ID of the loan the collateral is for"
        }
      }
    }
  },
  "userdoc": {
    "methods": {
      "canLiquidateLoan(uint256)": {
        "notice": "A loan can be liquidated if it is: under collateralized or expired"
      },
      "getBorrowerLoans(address)": {
        "notice": "Get a list of all loans for a borrower"
      },
      "getCollateralInfo(uint256)": {
        "notice": "Get collateral information of a specific loan"
      },
      "getTotalOwed(uint256)": {
        "notice": "Returns the total owed amount remaining for a specified loan"
      },
      "initialized()": {
        "notice": "Gets if the contract is initialized."
      },
      "lendingToken()": {
        "notice": "Returns the lending token in the lending pool"
      },
      "liquidateLoan(uint256)": {
        "notice": "Liquidate a loan if it is expired or under collateralized"
      },
      "repay(uint256,uint256)": {
        "notice": "Make a payment to a loan"
      },
      "setPriceOracle(address)": {
        "notice": "Updates the current price oracle instance."
      },
      "settings()": {
        "notice": "The settings contract."
      },
      "takeOutLoan(uint256,uint256)": {
        "notice": "Take out a loan"
      },
      "withdrawCollateral(uint256,uint256)": {
        "notice": "Withdraw collateral from a loan, unless this isn't allowed"
      }
    }
  }
}