{
  "contractName": "LoansBaseModifiersMock",
  "abi": [
    {
      "anonymous": false,
      "inputs": [
        {
          "indexed": true,
          "internalType": "uint256",
          "name": "loanID",
          "type": "uint256"
        },
        {
          "indexed": true,
          "internalType": "address",
          "name": "borrower",
          "type": "address"
        },
        {
          "indexed": false,
          "internalType": "uint256",
          "name": "depositAmount",
          "type": "uint256"
        }
      ],
      "name": "CollateralDeposited",
      "type": "event"
    },
    {
      "anonymous": false,
      "inputs": [
        {
          "indexed": true,
          "internalType": "uint256",
          "name": "loanID",
          "type": "uint256"
        },
        {
          "indexed": true,
          "internalType": "address",
          "name": "borrower",
          "type": "address"
        },
        {
          "indexed": false,
          "internalType": "uint256",
          "name": "withdrawalAmount",
          "type": "uint256"
        }
      ],
      "name": "CollateralWithdrawn",
      "type": "event"
    },
    {
      "anonymous": false,
      "inputs": [
        {
          "indexed": true,
          "internalType": "uint256",
          "name": "loanID",
          "type": "uint256"
        },
        {
          "indexed": true,
          "internalType": "address",
          "name": "borrower",
          "type": "address"
        },
        {
          "indexed": false,
          "internalType": "address",
          "name": "liquidator",
          "type": "address"
        },
        {
          "indexed": false,
          "internalType": "uint256",
          "name": "collateralOut",
          "type": "uint256"
        },
        {
          "indexed": false,
          "internalType": "uint256",
          "name": "tokensIn",
          "type": "uint256"
        }
      ],
      "name": "LoanLiquidated",
      "type": "event"
    },
    {
      "anonymous": false,
      "inputs": [
        {
          "indexed": true,
          "internalType": "uint256",
          "name": "loanID",
          "type": "uint256"
        },
        {
          "indexed": true,
          "internalType": "address",
          "name": "borrower",
          "type": "address"
        },
        {
          "indexed": false,
          "internalType": "uint256",
          "name": "amountPaid",
          "type": "uint256"
        },
        {
          "indexed": false,
          "internalType": "address",
          "name": "payer",
          "type": "address"
        },
        {
          "indexed": false,
          "internalType": "uint256",
          "name": "totalOwed",
          "type": "uint256"
        }
      ],
      "name": "LoanRepaid",
      "type": "event"
    },
    {
      "anonymous": false,
      "inputs": [
        {
          "indexed": true,
          "internalType": "uint256",
          "name": "loanID",
          "type": "uint256"
        },
        {
          "indexed": true,
          "internalType": "address",
          "name": "borrower",
          "type": "address"
        },
        {
          "indexed": true,
          "internalType": "address",
          "name": "escrow",
          "type": "address"
        },
        {
          "indexed": false,
          "internalType": "uint256",
          "name": "amountBorrowed",
          "type": "uint256"
        }
      ],
      "name": "LoanTakenOut",
      "type": "event"
    },
    {
      "anonymous": false,
      "inputs": [
        {
          "indexed": true,
          "internalType": "uint256",
          "name": "loanID",
          "type": "uint256"
        },
        {
          "indexed": true,
          "internalType": "address",
          "name": "borrower",
          "type": "address"
        },
        {
          "indexed": true,
          "internalType": "address",
          "name": "recipient",
          "type": "address"
        },
        {
          "indexed": false,
          "internalType": "uint256",
          "name": "interestRate",
          "type": "uint256"
        },
        {
          "indexed": false,
          "internalType": "uint256",
          "name": "collateralRatio",
          "type": "uint256"
        },
        {
          "indexed": false,
          "internalType": "uint256",
          "name": "maxLoanAmount",
          "type": "uint256"
        },
        {
          "indexed": false,
          "internalType": "uint256",
          "name": "duration",
          "type": "uint256"
        },
        {
          "indexed": false,
          "internalType": "uint256",
          "name": "termsExpiry",
          "type": "uint256"
        }
      ],
      "name": "LoanTermsSet",
      "type": "event"
    },
    {
      "anonymous": false,
      "inputs": [
        {
          "indexed": true,
          "internalType": "address",
          "name": "sender",
          "type": "address"
        },
        {
          "indexed": true,
          "internalType": "address",
          "name": "oldPriceOracle",
          "type": "address"
        },
        {
          "indexed": true,
          "internalType": "address",
          "name": "newPriceOracle",
          "type": "address"
        }
      ],
      "name": "PriceOracleUpdated",
      "type": "event"
    },
    {
      "constant": true,
      "inputs": [
        {
          "internalType": "address",
          "name": "",
          "type": "address"
        },
        {
          "internalType": "uint256",
          "name": "",
          "type": "uint256"
        }
      ],
      "name": "borrowerLoans",
      "outputs": [
        {
          "internalType": "uint256",
          "name": "",
          "type": "uint256"
        }
      ],
      "payable": false,
      "stateMutability": "view",
      "type": "function"
    },
    {
      "constant": true,
      "inputs": [],
      "name": "cToken",
      "outputs": [
        {
          "internalType": "address",
          "name": "",
          "type": "address"
        }
      ],
      "payable": false,
      "stateMutability": "view",
      "type": "function"
    },
    {
      "constant": true,
      "inputs": [
        {
          "internalType": "uint256",
          "name": "loanID",
          "type": "uint256"
        }
      ],
      "name": "canLiquidateLoan",
      "outputs": [
        {
          "internalType": "bool",
          "name": "",
          "type": "bool"
        }
      ],
      "payable": false,
      "stateMutability": "view",
      "type": "function"
    },
    {
      "constant": true,
      "inputs": [],
      "name": "collateralToken",
      "outputs": [
        {
          "internalType": "address",
          "name": "",
          "type": "address"
        }
      ],
      "payable": false,
      "stateMutability": "view",
      "type": "function"
    },
    {
      "constant": false,
      "inputs": [
        {
          "components": [
            {
              "internalType": "address payable",
              "name": "borrower",
              "type": "address"
            },
            {
              "internalType": "address",
              "name": "recipient",
              "type": "address"
            },
            {
              "internalType": "address",
              "name": "consensusAddress",
              "type": "address"
            },
            {
              "internalType": "uint256",
              "name": "requestNonce",
              "type": "uint256"
            },
            {
              "internalType": "uint256",
              "name": "amount",
              "type": "uint256"
            },
            {
              "internalType": "uint256",
              "name": "duration",
              "type": "uint256"
            },
            {
              "internalType": "uint256",
              "name": "requestTime",
              "type": "uint256"
            }
          ],
          "internalType": "struct TellerCommon.LoanRequest",
          "name": "request",
          "type": "tuple"
        },
        {
          "components": [
            {
              "internalType": "address",
              "name": "signer",
              "type": "address"
            },
            {
              "internalType": "address",
              "name": "consensusAddress",
              "type": "address"
            },
            {
              "internalType": "uint256",
              "name": "responseTime",
              "type": "uint256"
            },
            {
              "internalType": "uint256",
              "name": "interestRate",
              "type": "uint256"
            },
            {
              "internalType": "uint256",
              "name": "collateralRatio",
              "type": "uint256"
            },
            {
              "internalType": "uint256",
              "name": "maxLoanAmount",
              "type": "uint256"
            },
            {
              "components": [
                {
                  "internalType": "uint256",
                  "name": "signerNonce",
                  "type": "uint256"
                },
                {
                  "internalType": "uint8",
                  "name": "v",
                  "type": "uint8"
                },
                {
                  "internalType": "bytes32",
                  "name": "r",
                  "type": "bytes32"
                },
                {
                  "internalType": "bytes32",
                  "name": "s",
                  "type": "bytes32"
                }
              ],
              "internalType": "struct TellerCommon.Signature",
              "name": "signature",
              "type": "tuple"
            }
          ],
          "internalType": "struct TellerCommon.LoanResponse[]",
          "name": "responses",
          "type": "tuple[]"
        },
        {
          "internalType": "uint256",
          "name": "collateralAmount",
          "type": "uint256"
        }
      ],
      "name": "createLoanWithTerms",
      "outputs": [],
      "payable": true,
      "stateMutability": "payable",
      "type": "function"
    },
    {
      "constant": false,
      "inputs": [
        {
          "internalType": "address",
          "name": "borrower",
          "type": "address"
        },
        {
          "internalType": "uint256",
          "name": "loanID",
          "type": "uint256"
        },
        {
          "internalType": "uint256",
          "name": "amount",
          "type": "uint256"
        }
      ],
      "name": "depositCollateral",
      "outputs": [],
      "payable": true,
      "stateMutability": "payable",
      "type": "function"
    },
    {
      "constant": true,
      "inputs": [
        {
          "internalType": "address",
          "name": "borrower",
          "type": "address"
        }
      ],
      "name": "getBorrowerLoans",
      "outputs": [
        {
          "internalType": "uint256[]",
          "name": "",
          "type": "uint256[]"
        }
      ],
      "payable": false,
      "stateMutability": "view",
      "type": "function"
    },
    {
      "constant": true,
      "inputs": [
        {
          "internalType": "uint256",
          "name": "loanID",
          "type": "uint256"
        }
      ],
      "name": "getCollateralInfo",
      "outputs": [
        {
          "components": [
            {
              "internalType": "uint256",
              "name": "collateral",
              "type": "uint256"
            },
            {
              "internalType": "uint256",
              "name": "neededInLendingTokens",
              "type": "uint256"
            },
            {
              "internalType": "uint256",
              "name": "neededInCollateralTokens",
              "type": "uint256"
            },
            {
              "internalType": "bool",
              "name": "moreCollateralRequired",
              "type": "bool"
            }
          ],
          "internalType": "struct TellerCommon.LoanCollateralInfo",
          "name": "",
          "type": "tuple"
        }
      ],
      "payable": false,
      "stateMutability": "view",
      "type": "function"
    },
    {
      "constant": true,
      "inputs": [
        {
          "internalType": "uint256",
          "name": "loanID",
          "type": "uint256"
        }
      ],
      "name": "getLiquidationInfo",
      "outputs": [
        {
          "components": [
            {
              "internalType": "uint256",
              "name": "collateral",
              "type": "uint256"
            },
            {
              "internalType": "uint256",
              "name": "collateralInTokens",
              "type": "uint256"
            },
            {
              "internalType": "uint256",
              "name": "amountToLiquidate",
              "type": "uint256"
            },
            {
              "internalType": "bool",
              "name": "liquidable",
              "type": "bool"
            }
          ],
          "internalType": "struct TellerCommon.LoanLiquidationInfo",
          "name": "liquidationInfo",
          "type": "tuple"
        }
      ],
      "payable": false,
      "stateMutability": "view",
      "type": "function"
    },
    {
      "constant": true,
      "inputs": [
        {
          "internalType": "uint256",
          "name": "loanID",
          "type": "uint256"
        }
      ],
      "name": "getTotalOwed",
      "outputs": [
        {
          "internalType": "uint256",
          "name": "",
          "type": "uint256"
        }
      ],
      "payable": false,
      "stateMutability": "view",
      "type": "function"
    },
    {
      "constant": false,
      "inputs": [
        {
          "internalType": "address",
          "name": "priceOracleAddress",
          "type": "address"
        },
        {
          "internalType": "address",
          "name": "lendingPoolAddress",
          "type": "address"
        },
        {
          "internalType": "address",
          "name": "loanTermsConsensusAddress",
          "type": "address"
        },
        {
          "internalType": "address",
          "name": "settingsAddress",
          "type": "address"
        },
        {
          "internalType": "address",
          "name": "",
          "type": "address"
        }
      ],
      "name": "initialize",
      "outputs": [],
      "payable": false,
      "stateMutability": "nonpayable",
      "type": "function"
    },
    {
      "constant": false,
      "inputs": [],
      "name": "initialize",
      "outputs": [],
      "payable": false,
      "stateMutability": "nonpayable",
      "type": "function"
    },
    {
      "constant": true,
      "inputs": [],
      "name": "initialized",
      "outputs": [
        {
          "internalType": "bool",
          "name": "value",
          "type": "bool"
        }
      ],
      "payable": false,
      "stateMutability": "view",
      "type": "function"
    },
    {
      "constant": true,
      "inputs": [
        {
          "internalType": "uint256",
          "name": "loanID",
          "type": "uint256"
        }
      ],
      "name": "isLoanSecured",
      "outputs": [
        {
          "internalType": "bool",
          "name": "",
          "type": "bool"
        }
      ],
      "payable": false,
      "stateMutability": "view",
      "type": "function"
    },
    {
      "constant": true,
      "inputs": [],
      "name": "lendingPool",
      "outputs": [
        {
          "internalType": "contract LendingPoolInterface",
          "name": "",
          "type": "address"
        }
      ],
      "payable": false,
      "stateMutability": "view",
      "type": "function"
    },
    {
      "constant": true,
      "inputs": [],
      "name": "lendingToken",
      "outputs": [
        {
          "internalType": "address",
          "name": "",
          "type": "address"
        }
      ],
      "payable": false,
      "stateMutability": "view",
      "type": "function"
    },
    {
      "constant": false,
      "inputs": [
        {
          "internalType": "uint256",
          "name": "loanID",
          "type": "uint256"
        }
      ],
      "name": "liquidateLoan",
      "outputs": [],
      "payable": false,
      "stateMutability": "nonpayable",
      "type": "function"
    },
    {
      "constant": true,
      "inputs": [],
      "name": "loanIDCounter",
      "outputs": [
        {
          "internalType": "uint256",
          "name": "",
          "type": "uint256"
        }
      ],
      "payable": false,
      "stateMutability": "view",
      "type": "function"
    },
    {
      "constant": true,
      "inputs": [],
      "name": "loanTermsConsensus",
      "outputs": [
        {
          "internalType": "contract LoanTermsConsensusInterface",
          "name": "",
          "type": "address"
        }
      ],
      "payable": false,
      "stateMutability": "view",
      "type": "function"
    },
    {
      "constant": true,
      "inputs": [
        {
          "internalType": "uint256",
          "name": "",
          "type": "uint256"
        }
      ],
      "name": "loans",
      "outputs": [
        {
          "internalType": "uint256",
          "name": "id",
          "type": "uint256"
        },
        {
          "components": [
            {
              "internalType": "address payable",
              "name": "borrower",
              "type": "address"
            },
            {
              "internalType": "address",
              "name": "recipient",
              "type": "address"
            },
            {
              "internalType": "uint256",
              "name": "interestRate",
              "type": "uint256"
            },
            {
              "internalType": "uint256",
              "name": "collateralRatio",
              "type": "uint256"
            },
            {
              "internalType": "uint256",
              "name": "maxLoanAmount",
              "type": "uint256"
            },
            {
              "internalType": "uint256",
              "name": "duration",
              "type": "uint256"
            }
          ],
          "internalType": "struct TellerCommon.LoanTerms",
          "name": "loanTerms",
          "type": "tuple"
        },
        {
          "internalType": "uint256",
          "name": "termsExpiry",
          "type": "uint256"
        },
        {
          "internalType": "uint256",
          "name": "loanStartTime",
          "type": "uint256"
        },
        {
          "internalType": "uint256",
          "name": "collateral",
          "type": "uint256"
        },
        {
          "internalType": "uint256",
          "name": "lastCollateralIn",
          "type": "uint256"
        },
        {
          "internalType": "uint256",
          "name": "principalOwed",
          "type": "uint256"
        },
        {
          "internalType": "uint256",
          "name": "interestOwed",
          "type": "uint256"
        },
        {
          "internalType": "uint256",
          "name": "borrowedAmount",
          "type": "uint256"
        },
        {
          "internalType": "address",
          "name": "escrow",
          "type": "address"
        },
        {
          "internalType": "enum TellerCommon.LoanStatus",
          "name": "status",
          "type": "uint8"
        },
        {
          "internalType": "bool",
          "name": "liquidated",
          "type": "bool"
        }
      ],
      "payable": false,
      "stateMutability": "view",
      "type": "function"
    },
    {
      "constant": true,
      "inputs": [],
      "name": "mockIsSupplyToDebtRatioValid",
      "outputs": [
        {
          "internalType": "bool",
          "name": "",
          "type": "bool"
        }
      ],
      "payable": false,
      "stateMutability": "view",
      "type": "function"
    },
    {
      "constant": true,
      "inputs": [],
      "name": "priceOracle",
      "outputs": [
        {
          "internalType": "address",
          "name": "",
          "type": "address"
        }
      ],
      "payable": false,
      "stateMutability": "view",
      "type": "function"
    },
    {
      "constant": false,
      "inputs": [
        {
          "internalType": "uint256",
          "name": "amount",
          "type": "uint256"
        },
        {
          "internalType": "uint256",
          "name": "loanID",
          "type": "uint256"
        }
      ],
      "name": "repay",
      "outputs": [],
      "payable": false,
      "stateMutability": "nonpayable",
      "type": "function"
    },
    {
      "constant": true,
      "inputs": [],
      "name": "returnIsSupplyToDebtRatioValid",
      "outputs": [
        {
          "internalType": "bool",
          "name": "",
          "type": "bool"
        }
      ],
      "payable": false,
      "stateMutability": "view",
      "type": "function"
    },
    {
      "constant": false,
      "inputs": [
        {
          "internalType": "address",
          "name": "newPriceOracle",
          "type": "address"
        }
      ],
      "name": "setPriceOracle",
      "outputs": [],
      "payable": false,
      "stateMutability": "nonpayable",
      "type": "function"
    },
    {
      "constant": true,
      "inputs": [],
      "name": "settings",
      "outputs": [
        {
          "internalType": "contract SettingsInterface",
          "name": "",
          "type": "address"
        }
      ],
      "payable": false,
      "stateMutability": "view",
      "type": "function"
    },
    {
      "constant": true,
      "inputs": [],
      "name": "tToken",
      "outputs": [
        {
          "internalType": "address",
          "name": "",
          "type": "address"
        }
      ],
      "payable": false,
      "stateMutability": "view",
      "type": "function"
    },
    {
      "constant": false,
      "inputs": [
        {
          "internalType": "uint256",
          "name": "loanID",
          "type": "uint256"
        },
        {
          "internalType": "uint256",
          "name": "amountBorrow",
          "type": "uint256"
        }
      ],
      "name": "takeOutLoan",
      "outputs": [],
      "payable": false,
      "stateMutability": "nonpayable",
      "type": "function"
    },
    {
      "constant": true,
      "inputs": [],
      "name": "totalCollateral",
      "outputs": [
        {
          "internalType": "uint256",
          "name": "",
          "type": "uint256"
        }
      ],
      "payable": false,
      "stateMutability": "view",
      "type": "function"
    },
    {
      "constant": false,
      "inputs": [
        {
          "internalType": "uint256",
          "name": "amount",
          "type": "uint256"
        },
        {
          "internalType": "uint256",
          "name": "loanID",
          "type": "uint256"
        }
      ],
      "name": "withdrawCollateral",
      "outputs": [],
      "payable": false,
      "stateMutability": "nonpayable",
      "type": "function"
    },
    {
      "constant": false,
      "inputs": [
        {
          "internalType": "bool",
          "name": "result",
          "type": "bool"
        },
        {
          "internalType": "bool",
          "name": "aResponseIsSupplyToDebtRatioValid",
          "type": "bool"
        }
      ],
      "name": "setMockIsSupplyToDebtRatioValid",
      "outputs": [],
      "payable": false,
      "stateMutability": "nonpayable",
      "type": "function"
    },
    {
      "constant": false,
      "inputs": [
        {
          "internalType": "uint256",
          "name": "loanID",
          "type": "uint256"
        },
        {
          "internalType": "enum TellerCommon.LoanStatus",
          "name": "status",
          "type": "uint8"
        }
      ],
      "name": "setLoanStatus",
      "outputs": [],
      "payable": false,
      "stateMutability": "nonpayable",
      "type": "function"
    },
    {
      "constant": false,
      "inputs": [
        {
          "internalType": "uint256",
          "name": "loanID",
          "type": "uint256"
        }
      ],
      "name": "externalLoanActive",
      "outputs": [],
      "payable": false,
      "stateMutability": "nonpayable",
      "type": "function"
    },
    {
      "constant": false,
      "inputs": [
        {
          "internalType": "uint256",
          "name": "loanID",
          "type": "uint256"
        }
      ],
      "name": "externalLoanTermsSet",
      "outputs": [],
      "payable": false,
      "stateMutability": "nonpayable",
      "type": "function"
    },
    {
      "constant": false,
      "inputs": [
        {
          "internalType": "uint256",
          "name": "loanID",
          "type": "uint256"
        }
      ],
      "name": "externalLoanActiveOrSet",
      "outputs": [],
      "payable": false,
      "stateMutability": "nonpayable",
      "type": "function"
    },
    {
      "constant": false,
      "inputs": [
        {
          "internalType": "address",
          "name": "anAddress",
          "type": "address"
        }
      ],
      "name": "externalIsBorrower",
      "outputs": [],
      "payable": false,
      "stateMutability": "nonpayable",
      "type": "function"
    },
    {
      "constant": false,
      "inputs": [
        {
          "components": [
            {
              "internalType": "address payable",
              "name": "borrower",
              "type": "address"
            },
            {
              "internalType": "address",
              "name": "recipient",
              "type": "address"
            },
            {
              "internalType": "address",
              "name": "consensusAddress",
              "type": "address"
            },
            {
              "internalType": "uint256",
              "name": "requestNonce",
              "type": "uint256"
            },
            {
              "internalType": "uint256",
              "name": "amount",
              "type": "uint256"
            },
            {
              "internalType": "uint256",
              "name": "duration",
              "type": "uint256"
            },
            {
              "internalType": "uint256",
              "name": "requestTime",
              "type": "uint256"
            }
          ],
          "internalType": "struct TellerCommon.LoanRequest",
          "name": "loanRequest",
          "type": "tuple"
        }
      ],
      "name": "externalWithValidLoanRequest",
      "outputs": [],
      "payable": false,
      "stateMutability": "nonpayable",
      "type": "function"
    }
  ],
  "bytecode": "0x608060405234801561001057600080fd5b5061568680620000216000396000f3fe60806040526004361061021a5760003560e01c80638129fc1c11610123578063c72e188c116100ab578063e1ec3c681161006f578063e1ec3c68146105b7578063e3ed1902146105ef578063ecdfa39f1461060f578063eee8b7ff1461062f578063fd560a951461065c5761021a565b8063c72e188c14610522578063ccdd9f5d14610542578063d8aed14514610562578063de073a4d14610582578063e06174e4146105a25761021a565b8063a5c5c7b2116100f2578063a5c5c7b2146104b0578063a5e8a069146104c3578063aaaca558146104e3578063b2016bd4146104f8578063c35d64ea1461050d5761021a565b80638129fc1c14610446578063854768c01461045b578063934b5d131461047b578063a59a99731461049b5761021a565b806350ef5c35116101a65780636946102f116101755780636946102f146103bc5780636948f32b146103dc57806369e527da146103fc578063743c495a14610411578063767a7b05146104265761021a565b806350ef5c35146103385780635134845414610365578063530e784f1461037a57806358895e3d1461039a5761021a565b8063158ef93e116101ed578063158ef93e146102ac5780631a74856b146102c15780632630c12f146102d45780633b929300146102f65780634ac8eb5f146103235761021a565b806302bc2cdb1461021f578063043e5ed6146102415780630adfa02a1461026c5780631459457a1461028c575b600080fd5b34801561022b57600080fd5b5061023f61023a366004614582565b61067c565b005b34801561024d57600080fd5b50610256610d63565b6040516102639190615169565b60405180910390f35b34801561027857600080fd5b5061023f610287366004614534565b610d6c565b34801561029857600080fd5b5061023f6102a7366004614306565b610db7565b3480156102b857600080fd5b50610256610e87565b61023f6102cf3660046143b5565b610ea6565b3480156102e057600080fd5b506102e9611067565b60405161026391906150c3565b34801561030257600080fd5b50610316610311366004614534565b611076565b6040516102639190615177565b34801561032f57600080fd5b506103166110a6565b34801561034457600080fd5b50610358610353366004614534565b6110ac565b6040516102639190615384565b34801561037157600080fd5b506103166110bd565b34801561038657600080fd5b5061023f6103953660046142ca565b6110c3565b3480156103a657600080fd5b506103af611221565b6040516102639190615185565b3480156103c857600080fd5b5061023f6103d7366004614534565b611230565b3480156103e857600080fd5b506102566103f7366004614534565b611277565b34801561040857600080fd5b506102e96113d0565b34801561041d57600080fd5b50610256611452565b34801561043257600080fd5b5061023f610441366004614582565b611460565b34801561045257600080fd5b5061023f611676565b34801561046757600080fd5b50610256610476366004614534565b6116fe565b34801561048757600080fd5b50610358610496366004614534565b611885565b3480156104a757600080fd5b506103af611896565b61023f6104be3660046144aa565b6118a5565b3480156104cf57600080fd5b5061023f6104de366004614420565b611e9a565b3480156104ef57600080fd5b506102e9611ebd565b34801561050457600080fd5b506102e9611f02565b34801561051957600080fd5b506102e9611f11565b34801561052e57600080fd5b5061023f61053d366004614534565b611f56565b34801561054e57600080fd5b5061023f61055d366004614534565b611fce565b34801561056e57600080fd5b5061023f61057d366004614582565b6121fc565b34801561058e57600080fd5b5061023f61059d36600461448c565b6125d7565b3480156105ae57600080fd5b506103af6128d1565b3480156105c357600080fd5b506105d76105d2366004614534565b6128f3565b6040516102639c9b9a999897969594939291906153f8565b3480156105fb57600080fd5b5061031661060a36600461437b565b6129ab565b34801561061b57600080fd5b5061023f61062a366004614552565b6129d9565b34801561063b57600080fd5b5061064f61064a3660046142ca565b612a10565b6040516102639190615158565b34801561066857600080fd5b5061023f6106773660046142ca565b612a7c565b8160016000828152606d60205260409020600e0154600160a01b900460ff1660038111156106a657fe5b146106cc5760405162461bcd60e51b81526004016106c390615354565b60405180910390fd5b6106d4610e87565b6106f05760405162461bcd60e51b81526004016106c390615344565b6106f8612aa5565b156107155760405162461bcd60e51b81526004016106c390615274565b606a546001600160a01b031661072a81612b1f565b156107475760405162461bcd60e51b81526004016106c3906151c4565b603380546001908101918290556000868152606d6020526040902001546001600160a01b031633811461078c5760405162461bcd60e51b81526004016106c390615314565b6000868152606d60205260409020600501548511156107bd5760405162461bcd60e51b81526004016106c3906151e4565b6000868152606d60205260409020600701544211156107ee5760405162461bcd60e51b81526004016106c3906152c4565b6109686107f96128d1565b6001600160a01b031663269012a061080f6128d1565b6001600160a01b031663d86d744e6040518163ffffffff1660e01b815260040160206040518083038186803b15801561084757600080fd5b505afa15801561085b573d6000803e3d6000fd5b505050506040513d601f19601f8201168201806040525061087f919081019061446e565b6001600160a01b03166311880cc86040518163ffffffff1660e01b815260040160206040518083038186803b1580156108b757600080fd5b505afa1580156108cb573d6000803e3d6000fd5b505050506040513d601f19601f820116820180604052506108ef9190810190614450565b6040518263ffffffff1660e01b815260040161090b9190615177565b60206040518083038186803b15801561092357600080fd5b505afa158015610937573d6000803e3d6000fd5b505050506040513d601f19601f8201168201806040525061095b9190810190614450565b429063ffffffff612ba416565b6000878152606d60205260409020600a015411156109985760405162461bcd60e51b81526004016106c3906152a4565b6000868152606d60205260409020600d8101869055600b810186905560068101546003909101546109fd916301e13380916109f191612710918391906109e5908c9063ffffffff612bef16565b9063ffffffff612bef16565b9063ffffffff612c2916565b6000878152606d60205260409020600c810191909155600e01805460ff60a01b1916600160a11b179055610a2f614062565b610a3887612c6b565b9050806060015115610a5c5760405162461bcd60e51b81526004016106c390615284565b6000878152606d6020526040902042600890910155610a7a87612cbc565b6000888152606d602052604090819020600e0180546001600160a01b0319166001600160a01b039384161790819055606a549151631397424760e11b81529183169263272e848e92610ad2928b9216906004016153b4565b600060405180830381600087803b158015610aec57600080fd5b505af1158015610b00573d6000803e3d6000fd5b5050506000888152606d602052604090819020600e0154905163cd6dc68760e01b81526001600160a01b03909116915063cd6dc68790610b469030908b9060040161513d565b600060405180830381600087803b158015610b6057600080fd5b505af1158015610b74573d6000803e3d6000fd5b50505050610b80612db5565b6001600160a01b031663c7bbb113606a60009054906101000a90046001600160a01b03166001600160a01b031663aaaca5586040518163ffffffff1660e01b815260040160206040518083038186803b158015610bdc57600080fd5b505afa158015610bf0573d6000803e3d6000fd5b505050506040513d601f19601f82011682018060405250610c1491908101906142e8565b306001600160a01b031663b2016bd46040518163ffffffff1660e01b815260040160206040518083038186803b158015610c4d57600080fd5b505afa158015610c61573d6000803e3d6000fd5b505050506040513d601f19601f82011682018060405250610c8591908101906142e8565b896040518463ffffffff1660e01b8152600401610ca493929190615122565b600060405180830381600087803b158015610cbe57600080fd5b505af1158015610cd2573d6000803e3d6000fd5b5050506000888152606d602052604090819020600e81015460019091015491516001600160a01b03918216935091169089907f85b5516a17ce775661a4b967b1fb30c852678f6598d86d9f3c99b7b60ff2d0ce90610d31908b90615177565b60405180910390a450506033548114610d5c5760405162461bcd60e51b81526004016106c390615364565b5050505050565b606e5460ff1681565b8060026000828152606d60205260409020600e0154600160a01b900460ff166003811115610d9657fe5b14610db35760405162461bcd60e51b81526004016106c390615254565b5050565b610dbf610e87565b15610ddc5760405162461bcd60e51b81526004016106c390615374565b610de885858585612e2f565b610df06128d1565b6001600160a01b031663a734f06e6040518163ffffffff1660e01b815260040160206040518083038186803b158015610e2857600080fd5b505afa158015610e3c573d6000803e3d6000fd5b505050506040513d601f19601f82011682018060405250610e6091908101906142e8565b606780546001600160a01b0319166001600160a01b03929092169190911790555050505050565b600080604051610e96906150ad565b6040519081900390205492915050565b8160016000828152606d60205260409020600e0154600160a01b900460ff166003811115610ed057fe5b1480610f02575060026000828152606d60205260409020600e0154600160a01b900460ff166003811115610f0057fe5b145b610f1e5760405162461bcd60e51b81526004016106c390615224565b610f26610e87565b610f425760405162461bcd60e51b81526004016106c390615344565b610f4a612aa5565b15610f675760405162461bcd60e51b81526004016106c390615274565b606a546001600160a01b0316610f7c81612b1f565b15610f995760405162461bcd60e51b81526004016106c3906151c4565b6000848152606d60205260409020600101546001600160a01b03868116911614610fd55760405162461bcd60e51b81526004016106c390615204565b823414610ff45760405162461bcd60e51b81526004016106c390615214565b600034116110145760405162461bcd60e51b81526004016106c3906152f4565b61101e8484612f80565b846001600160a01b0316847feec2f3feb835e2f2fd44281034b04700a1ddda63dd402949d470a25a7c40b36c856040516110589190615177565b60405180910390a35050505050565b6069546001600160a01b031681565b6000818152606d60205260408120600b810154600c9091015461109e9163ffffffff612fd916565b90505b919050565b60665481565b6110b4614062565b61109e82612ffe565b60685481565b6110cb610e87565b6110e75760405162461bcd60e51b81526004016106c390615344565b6110ef6128d1565b6001600160a01b031663c095ea27336040518263ffffffff1660e01b815260040161111a91906150d1565b60006040518083038186803b15801561113257600080fd5b505afa158015611146573d6000803e3d6000fd5b5050505061115c816001600160a01b03166131da565b6111785760405162461bcd60e51b81526004016106c390615304565b60695460408051808201909152601b81527f4e45575f4f5241434c455f4d5553545f42455f50524f5649444544000000000060208201526001600160a01b03909116906111ce908290849063ffffffff61321616565b606980546001600160a01b0319166001600160a01b03848116918217909255604051909183169033907ff51f0fffc8121ee3747e0536c487d894894cdba960ccfb4ab385a88d51b16fed90600090a45050565b606b546001600160a01b031681565b8060016000828152606d60205260409020600e0154600160a01b900460ff16600381111561125a57fe5b14610db35760405162461bcd60e51b81526004016106c390615354565b6000611281612aa5565b8061129c5750606a5461129c906001600160a01b0316612b1f565b806112ce575060026000838152606d60205260409020600e0154600160a01b900460ff1660038111156112cb57fe5b14155b156112db575060006110a1565b6000828152606d602052604081206008810154600690910154909142611307848463ffffffff612fd916565b109050801561131c57600193505050506110a1565b6000858152606d60205260409020600e01546001600160a01b031680156113b957806001600160a01b031663415dfa5b6040518163ffffffff1660e01b815260040160206040518083038186803b15801561137657600080fd5b505afa15801561138a573d6000803e3d6000fd5b505050506040513d601f19601f820116820180604052506113ae9190810190614402565b9450505050506110a1565b6113c286612c6b565b606001519695505050505050565b606a54604080516334f293ed60e11b815290516000926001600160a01b0316916369e527da916004808301926020929190829003018186803b15801561141557600080fd5b505afa158015611429573d6000803e3d6000fd5b505050506040513d601f19601f8201168201806040525061144d91908101906142e8565b905090565b606e54610100900460ff1681565b8060016000828152606d60205260409020600e0154600160a01b900460ff16600381111561148a57fe5b14806114bc575060026000828152606d60205260409020600e0154600160a01b900460ff1660038111156114ba57fe5b145b6114d85760405162461bcd60e51b81526004016106c390615224565b6114e0610e87565b6114fc5760405162461bcd60e51b81526004016106c390615344565b611504612aa5565b156115215760405162461bcd60e51b81526004016106c390615274565b606a546001600160a01b031661153681612b1f565b156115535760405162461bcd60e51b81526004016106c3906151c4565b603380546001908101918290556000858152606d6020526040902001546001600160a01b031633146115975760405162461bcd60e51b81526004016106c390615324565b600085116115b75760405162461bcd60e51b81526004016106c390615264565b6115bf614062565b6115c885612c6b565b604081015181519192506000916115e49163ffffffff612ba416565b9050868110156116065760405162461bcd60e51b81526004016106c3906152b4565b61161186883361323f565b336001600160a01b0316867f7c5e5cb62e5ed3caf3764e4b0afedfedef533e27809d43367799787ad2abcd418960405161164b9190615177565b60405180910390a350506033548114610d5c5760405162461bcd60e51b81526004016106c390615364565b600054610100900460ff168061168f575061168f6132c0565b8061169d575060005460ff16155b6116b95760405162461bcd60e51b81526004016106c3906152d4565b600054610100900460ff161580156116e4576000805460ff1961ff0019909116610100171660011790555b600160335580156116fb576000805461ff00191690555b50565b60006117086128d1565b6001600160a01b031663269012a061171e6128d1565b6001600160a01b031663d86d744e6040518163ffffffff1660e01b815260040160206040518083038186803b15801561175657600080fd5b505afa15801561176a573d6000803e3d6000fd5b505050506040513d601f19601f8201168201806040525061178e919081019061446e565b6001600160a01b03166308b04f626040518163ffffffff1660e01b815260040160206040518083038186803b1580156117c657600080fd5b505afa1580156117da573d6000803e3d6000fd5b505050506040513d601f19601f820116820180604052506117fe9190810190614450565b6040518263ffffffff1660e01b815260040161181a9190615177565b60206040518083038186803b15801561183257600080fd5b505afa158015611846573d6000803e3d6000fd5b505050506040513d601f19601f8201168201806040525061186a9190810190614450565b6000838152606d602052604090206004015410159050919050565b61188d614062565b61109e82612c6b565b606a546001600160a01b031681565b6118ad610e87565b6118c95760405162461bcd60e51b81526004016106c390615344565b6118d1612aa5565b156118ee5760405162461bcd60e51b81526004016106c390615274565b6118fb60208501856142ca565b336001600160a01b038216146119235760405162461bcd60e51b81526004016106c390615314565b61193236869003860186614516565b600061193c6128d1565b6001600160a01b031663269012a06119526128d1565b6001600160a01b031663d86d744e6040518163ffffffff1660e01b815260040160206040518083038186803b15801561198a57600080fd5b505afa15801561199e573d6000803e3d6000fd5b505050506040513d601f19601f820116820180604052506119c2919081019061446e565b6001600160a01b031663cc44cadb6040518163ffffffff1660e01b815260040160206040518083038186803b1580156119fa57600080fd5b505afa158015611a0e573d6000803e3d6000fd5b505050506040513d601f19601f82011682018060405250611a329190810190614450565b6040518263ffffffff1660e01b8152600401611a4e9190615177565b60206040518083038186803b158015611a6657600080fd5b505afa158015611a7a573d6000803e3d6000fd5b505050506040513d601f19601f82011682018060405250611a9e9190810190614450565b90508160a00151811015611ac45760405162461bcd60e51b81526004016106c3906151a4565b6000611ace6128d1565b6001600160a01b03166369ff7744606a60009054906101000a90046001600160a01b03166001600160a01b031663aaaca5586040518163ffffffff1660e01b815260040160206040518083038186803b158015611b2a57600080fd5b505afa158015611b3e573d6000803e3d6000fd5b505050506040513d601f19601f82011682018060405250611b6291908101906142e8565b85608001516040518363ffffffff1660e01b8152600401611b8492919061513d565b60206040518083038186803b158015611b9c57600080fd5b505afa158015611bb0573d6000803e3d6000fd5b505050506040513d601f19601f82011682018060405250611bd49190810190614402565b90508015611bf45760405162461bcd60e51b81526004016106c3906151d4565b611c0183608001516132c6565b611c1d5760405162461bcd60e51b81526004016106c390615334565b843414611c3c5760405162461bcd60e51b81526004016106c390615214565b6000611c466132f3565b606b5460405163064e5d4960e01b8152919250600091829182916001600160a01b039091169063064e5d4990611c84908f908f908f90600401615392565b606060405180830381600087803b158015611c9e57600080fd5b505af1158015611cb2573d6000803e3d6000fd5b505050506040513d601f19601f82011682018060405250611cd691908101906145a1565b91945092509050611cf884611cf0368f90038f018f614516565b85858561330d565b6000858152606d6020908152604091829020835181558382015180516001830180546001600160a01b03199081166001600160a01b0393841617909155938201516002840180548616918316919091179055818501516003808501919091556060808401516004860155608080850151600587015560a0948501516006870155968801516007860155870151600885015594860151600984015590850151600a83015560c0850151600b83015560e0850151600c830155610100850151600d830155610120850151600e83018054909416911617808355610140850151919391929160ff60a01b1990911690600160a01b908490811115611df557fe5b02179055506101609190910151600e9091018054911515600160a81b0260ff60a81b199092169190911790553415611e3157611e318434612f80565b606c6000611e4260208f018f6142ca565b6001600160a01b031681526020808201929092526040016000908120805460018101825590825291902001849055611e8c84611e83368f90038f018f614516565b8585853461355c565b505050505050505050505050565b606e805460ff19169215159290921761ff00191661010091151591909102179055565b606a546040805163155594ab60e31b815290516000926001600160a01b03169163aaaca558916004808301926020929190829003018186803b15801561141557600080fd5b6067546001600160a01b031681565b606a54604080516361aeb27560e11b815290516000926001600160a01b03169163c35d64ea916004808301926020929190829003018186803b15801561141557600080fd5b8060016000828152606d60205260409020600e0154600160a01b900460ff166003811115611f8057fe5b1480611fb2575060026000828152606d60205260409020600e0154600160a01b900460ff166003811115611fb057fe5b145b610db35760405162461bcd60e51b81526004016106c390615224565b8060026000828152606d60205260409020600e0154600160a01b900460ff166003811115611ff857fe5b146120155760405162461bcd60e51b81526004016106c390615254565b61201d610e87565b6120395760405162461bcd60e51b81526004016106c390615344565b612041612aa5565b1561205e5760405162461bcd60e51b81526004016106c390615274565b606a546001600160a01b031661207381612b1f565b156120905760405162461bcd60e51b81526004016106c3906151c4565b60338054600101908190556120a3614062565b6120ac85612ffe565b905080606001516120cf5760405162461bcd60e51b81526004016106c390615244565b6000858152606d60205260409020600e01805460ff60a01b1916600360a01b1760ff60a81b1916600160a81b179055805161210c90869033613627565b606a5460408083015190516382f7b02760e01b81526001600160a01b03909216916382f7b027916121419133906004016153c2565b600060405180830381600087803b15801561215b57600080fd5b505af115801561216f573d6000803e3d6000fd5b5050506000868152606d6020526040908190206001015483518483015192516001600160a01b03909216935088927f9950a0562c02382e2e840daa73082d5be7660ce37601f28fa4c84089c11e8a06926121cc92339290916150df565b60405180910390a35060335481146121f65760405162461bcd60e51b81526004016106c390615364565b50505050565b8060026000828152606d60205260409020600e0154600160a01b900460ff16600381111561222657fe5b146122435760405162461bcd60e51b81526004016106c390615254565b61224b610e87565b6122675760405162461bcd60e51b81526004016106c390615344565b61226f612aa5565b1561228c5760405162461bcd60e51b81526004016106c390615274565b606a546001600160a01b03166122a181612b1f565b156122be5760405162461bcd60e51b81526004016106c3906151c4565b6033805460010190819055846122e65760405162461bcd60e51b81526004016106c3906151b4565b8460006122f286611076565b905081811015612300578091505b612310818363ffffffff612ba416565b905061231c86836136ca565b806123c0576000868152606d60205260409020600e8101805460ff60a01b1916600360a01b179055600981015460019091015461236590889083906001600160a01b031661323f565b6000878152606d6020526040908190206001015490516001600160a01b039091169088907f7c5e5cb62e5ed3caf3764e4b0afedfedef533e27809d43367799787ad2abcd41906123b6908590615177565b60405180910390a3505b606a5460405163acb7081560e01b81526001600160a01b039091169063acb70815906123f290859033906004016153c2565b600060405180830381600087803b15801561240c57600080fd5b505af1158015612420573d6000803e3d6000fd5b5050505061242c612db5565b6001600160a01b03166362e269ef606a60009054906101000a90046001600160a01b03166001600160a01b031663aaaca5586040518163ffffffff1660e01b815260040160206040518083038186803b15801561248857600080fd5b505afa15801561249c573d6000803e3d6000fd5b505050506040513d601f19601f820116820180604052506124c091908101906142e8565b306001600160a01b031663b2016bd46040518163ffffffff1660e01b815260040160206040518083038186803b1580156124f957600080fd5b505afa15801561250d573d6000803e3d6000fd5b505050506040513d601f19601f8201168201806040525061253191908101906142e8565b856040518463ffffffff1660e01b815260040161255093929190615122565b600060405180830381600087803b15801561256a57600080fd5b505af115801561257e573d6000803e3d6000fd5b5050506000878152606d6020526040908190206001015490516001600160a01b03909116915087907f20a1f2ec363af45dc5ee7d9d622f2dd68b52501c382126c7f04b53663c4c69bf9061164b908690339087906153dd565b6125e636829003820182614516565b60006125f06128d1565b6001600160a01b031663269012a06126066128d1565b6001600160a01b031663d86d744e6040518163ffffffff1660e01b815260040160206040518083038186803b15801561263e57600080fd5b505afa158015612652573d6000803e3d6000fd5b505050506040513d601f19601f82011682018060405250612676919081019061446e565b6001600160a01b031663cc44cadb6040518163ffffffff1660e01b815260040160206040518083038186803b1580156126ae57600080fd5b505afa1580156126c2573d6000803e3d6000fd5b505050506040513d601f19601f820116820180604052506126e69190810190614450565b6040518263ffffffff1660e01b81526004016127029190615177565b60206040518083038186803b15801561271a57600080fd5b505afa15801561272e573d6000803e3d6000fd5b505050506040513d601f19601f820116820180604052506127529190810190614450565b90508160a001518110156127785760405162461bcd60e51b81526004016106c3906151a4565b60006127826128d1565b6001600160a01b03166369ff7744606a60009054906101000a90046001600160a01b03166001600160a01b031663aaaca5586040518163ffffffff1660e01b815260040160206040518083038186803b1580156127de57600080fd5b505afa1580156127f2573d6000803e3d6000fd5b505050506040513d601f19601f8201168201806040525061281691908101906142e8565b85608001516040518363ffffffff1660e01b815260040161283892919061513d565b60206040518083038186803b15801561285057600080fd5b505afa158015612864573d6000803e3d6000fd5b505050506040513d601f19601f820116820180604052506128889190810190614402565b905080156128a85760405162461bcd60e51b81526004016106c3906151d4565b6128b583608001516132c6565b6121f65760405162461bcd60e51b81526004016106c390615334565b60008060006040516128e2906150b8565b604051908190039020549250505090565b606d602090815260009182526040918290208054835160c08101855260018301546001600160a01b03908116825260028401548116948201949094526003830154948101949094526004820154606085015260058201546080850152600682015460a0850152600782015460088301546009840154600a850154600b860154600c870154600d880154600e9098015496999895979496939592949193909281169060ff600160a01b8204811691600160a81b9004168c565b606c60205281600052604060002081815481106129c457fe5b90600052602060002001600091509150505481565b6000828152606d60205260409020600e01805482919060ff60a01b1916600160a01b836003811115612a0757fe5b02179055505050565b6001600160a01b0381166000908152606c6020908152604091829020805483518184028101840190945280845260609392830182828015612a7057602002820191906000526020600020905b815481526020019060010190808311612a5c575b50505050509050919050565b80336001600160a01b03821614610db35760405162461bcd60e51b81526004016106c390615314565b6000612aaf6128d1565b6001600160a01b031663b187bd266040518163ffffffff1660e01b815260040160206040518083038186803b158015612ae757600080fd5b505afa158015612afb573d6000803e3d6000fd5b505050506040513d601f19601f8201168201806040525061144d9190810190614402565b6000612b296128d1565b6001600160a01b0316633b668321836040518263ffffffff1660e01b8152600401612b5491906150c3565b60206040518083038186803b158015612b6c57600080fd5b505afa158015612b80573d6000803e3d6000fd5b505050506040513d601f19601f8201168201806040525061109e9190810190614402565b6000612be683836040518060400160405280601e81526020017f536166654d6174683a207375627472616374696f6e206f766572666c6f770000815250613785565b90505b92915050565b600082612bfe57506000612be9565b82820282848281612c0b57fe5b0414612be65760405162461bcd60e51b81526004016106c390615294565b6000612be683836040518060400160405280601a81526020017f536166654d6174683a206469766973696f6e206279207a65726f0000000000008152506137b6565b612c73614062565b6000828152606d60205260408120600901549080612c90856137ed565b604080516080810182528681526020810193909352820181905293909311606084015250909392505050565b6000612cc66128d1565b6001600160a01b031663bdd1daaa6040518163ffffffff1660e01b815260040160206040518083038186803b158015612cfe57600080fd5b505afa158015612d12573d6000803e3d6000fd5b505050506040513d601f19601f82011682018060405250612d36919081019061446e565b6001600160a01b0316634614874e30846040518363ffffffff1660e01b8152600401612d6392919061513d565b602060405180830381600087803b158015612d7d57600080fd5b505af1158015612d91573d6000803e3d6000fd5b505050506040513d601f19601f8201168201806040525061109e91908101906142e8565b6000612dbf6128d1565b6001600160a01b0316631390f8d76040518163ffffffff1660e01b815260040160206040518083038186803b158015612df757600080fd5b505afa158015612e0b573d6000803e3d6000fd5b505050506040513d601f19601f8201168201806040525061144d919081019061446e565b612e37610e87565b15612e545760405162461bcd60e51b81526004016106c390615374565b60408051808201909152601681527550524f564944455f4f5241434c455f4144445245535360501b6020820152612e9b906001600160a01b0386169063ffffffff61381116565b60408051808201909152601c81527f50524f564944455f4c454e44494e475f504f4f4c5f41444452455353000000006020820152612ee9906001600160a01b0385169063ffffffff61381116565b60408051808201909152601b81527f50524f56494445445f4c4f414e5f5445524d535f4144445245535300000000006020820152612f37906001600160a01b0384169063ffffffff61381116565b612f4081613839565b50606980546001600160a01b039485166001600160a01b031991821617909155606a805493851693821693909317909255606b8054919093169116179055565b606654612f93908263ffffffff612fd916565b6066556000828152606d6020526040902060090154612fb8908263ffffffff612fd916565b6000928352606d602052604090922060098101929092555042600a90910155565b600082820183811015612be65760405162461bcd60e51b81526004016106c3906151f4565b613006614062565b6000828152606d6020526040812060090154906130216128d1565b6001600160a01b031663269012a06130376128d1565b6001600160a01b031663d86d744e6040518163ffffffff1660e01b815260040160206040518083038186803b15801561306f57600080fd5b505afa158015613083573d6000803e3d6000fd5b505050506040513d601f19601f820116820180604052506130a7919081019061446e565b6001600160a01b0316631139087a6040518163ffffffff1660e01b815260040160206040518083038186803b1580156130df57600080fd5b505afa1580156130f3573d6000803e3d6000fd5b505050506040513d601f19601f820116820180604052506131179190810190614450565b6040518263ffffffff1660e01b81526004016131339190615177565b60206040518083038186803b15801561314b57600080fd5b505afa15801561315f573d6000803e3d6000fd5b505050506040513d601f19601f820116820180604052506131839190810190614450565b90506000613190836138eb565b604080516080810182528581526020810183905291925081016131bf6127106109f1858763ffffffff612bef16565b81526020016131cd87611277565b1515905295945050505050565b6000813f7fc5d2460186f7233c927e7db2dcc703c0e500b653ca82273b7bfad8045d85a47081811480159061320e57508115155b949350505050565b6132208383613a25565b81906121f65760405162461bcd60e51b81526004016106c39190615193565b606654613252908363ffffffff612ba416565b6066556000838152606d6020526040902060090154613277908363ffffffff612ba416565b6000848152606d60205260408082206009019290925590516001600160a01b0383169184156108fc02918591818181858888f193505050501580156121f6573d6000803e3d6000fd5b303b1590565b606e5460009060ff166132e3576132dc82613a37565b90506110a1565b5050606e54610100900460ff1690565b60685461330781600163ffffffff612fd916565b60685590565b61331561408c565b600061331f6128d1565b6001600160a01b031663269012a06133356128d1565b6001600160a01b031663d86d744e6040518163ffffffff1660e01b815260040160206040518083038186803b15801561336d57600080fd5b505afa158015613381573d6000803e3d6000fd5b505050506040513d601f19601f820116820180604052506133a5919081019061446e565b6001600160a01b031663e00a46156040518163ffffffff1660e01b815260040160206040518083038186803b1580156133dd57600080fd5b505afa1580156133f1573d6000803e3d6000fd5b505050506040513d601f19601f820116820180604052506134159190810190614450565b6040518263ffffffff1660e01b81526004016134319190615177565b60206040518083038186803b15801561344957600080fd5b505afa15801561345d573d6000803e3d6000fd5b505050506040513d601f19601f820116820180604052506134819190810190614450565b90506000613495428363ffffffff612fd916565b90506040518061018001604052808981526020016040518060c001604052808a600001516001600160a01b031681526020018a602001516001600160a01b031681526020018981526020018881526020018781526020018a60a00151815250815260200182815260200160008152602001600081526020016000815260200160008152602001600081526020016000815260200160006001600160a01b031681526020016001600381111561354657fe5b8152600060209091015298975050505050505050565b84602001516001600160a01b031685600001516001600160a01b0316877f0358f509931cba53bbb6a94b7f05a5178220a0c7ddb54b1a1722df9e6ed6aa098787878b60a00151606d60008f8152602001908152602001600020600701546040516135ca9594939291906154b0565b60405180910390a4801561361f5784600001516001600160a01b0316867feec2f3feb835e2f2fd44281034b04700a1ddda63dd402949d470a25a7c40b36c836040516136169190615177565b60405180910390a35b505050505050565b6000838152606d60205260409020600e01546001600160a01b0316156136ba576000838152606d602052604090819020600e0154905163df8de3e760e01b81526001600160a01b039091169063df8de3e7906136879084906004016150d1565b600060405180830381600087803b1580156136a157600080fd5b505af11580156136b5573d6000803e3d6000fd5b505050505b6136c583838361323f565b505050565b6000828152606d60205260409020600b015481111561374d576000828152606d60205260409020600b0154819061370890829063ffffffff612ba416565b6000848152606d60205260408120600b810191909155600c0154909150613735908263ffffffff612ba416565b6000848152606d60205260409020600c015550610db3565b6000828152606d60205260409020600b015461376f908263ffffffff612ba416565b6000838152606d60205260409020600b01555050565b600081848411156137a95760405162461bcd60e51b81526004016106c39190615193565b50508183035b9392505050565b600081836137d75760405162461bcd60e51b81526004016106c39190615193565b5060008385816137e357fe5b0495945050505050565b60008060006137fb84613da7565b90508061380782613e50565b9250925050915091565b61381a82613f46565b81906136c55760405162461bcd60e51b81526004016106c39190615193565b613841610e87565b1561385e5760405162461bcd60e51b81526004016106c390615374565b60408051808201909152601981527f53455454494e47535f4d5553545f42455f50524f56494445440000000000000060208201526138ac906001600160a01b0383169063ffffffff61381116565b6138be816001600160a01b03166131da565b6138da5760405162461bcd60e51b81526004016106c390615234565b6138e2613f54565b6116fb81613f72565b600080613985606a60009054906101000a90046001600160a01b03166001600160a01b031663aaaca5586040518163ffffffff1660e01b815260040160206040518083038186803b15801561393f57600080fd5b505afa158015613953573d6000803e3d6000fd5b505050506040513d601f19601f8201168201806040525061397791908101906142e8565b6001600160a01b0316613fe1565b90506000606960009054906101000a90046001600160a01b03166001600160a01b03166396237c026040518163ffffffff1660e01b815260040160206040518083038186803b1580156139d757600080fd5b505afa1580156139eb573d6000803e3d6000fd5b505050506040513d601f19601f82011682018060405250613a0f9190810190614450565b905061320e816109f1868563ffffffff612bef16565b6001600160a01b039081169116141590565b600080613a426128d1565b6001600160a01b031663dc21a6a06040518163ffffffff1660e01b815260040160206040518083038186803b158015613a7a57600080fd5b505afa158015613a8e573d6000803e3d6000fd5b505050506040513d601f19601f82011682018060405250613ab2919081019061446e565b6001600160a01b0316631fb7cec9606a60009054906101000a90046001600160a01b03166001600160a01b031663aaaca5586040518163ffffffff1660e01b815260040160206040518083038186803b158015613b0e57600080fd5b505afa158015613b22573d6000803e3d6000fd5b505050506040513d601f19601f82011682018060405250613b4691908101906142e8565b6067546040516001600160e01b031960e085901b168152613b7492916001600160a01b031690600401615107565b60206040518083038186803b158015613b8c57600080fd5b505afa158015613ba0573d6000803e3d6000fd5b505050506040513d601f19601f82011682018060405250613bc491908101906142e8565b90506001600160a01b038116613bec5760405162461bcd60e51b81526004016106c3906152e4565b604051632319178560e11b81526000906001600160a01b038316906346322f0a90613c2a906b14dd5c1c1b1e551bd119589d60a21b90600401615177565b60206040518083038186803b158015613c4257600080fd5b505afa158015613c56573d6000803e3d6000fd5b505050506040513d601f19601f82011682018060405250613c7a9190810190614450565b90506000613c86612db5565b6001600160a01b031663db63323e606a60009054906101000a90046001600160a01b03166001600160a01b031663aaaca5586040518163ffffffff1660e01b815260040160206040518083038186803b158015613ce257600080fd5b505afa158015613cf6573d6000803e3d6000fd5b505050506040513d601f19601f82011682018060405250613d1a91908101906142e8565b6067546040516001600160e01b031960e085901b168152613d4a92916001600160a01b0316908a90600401615122565b60206040518083038186803b158015613d6257600080fd5b505afa158015613d76573d6000803e3d6000fd5b505050506040513d601f19601f82011682018060405250613d9a9190810190614450565b9190911115949350505050565b6000818152606d60205260408120600e0154600160a01b900460ff16816001826003811115613dd257fe5b1415613df057506000838152606d6020526040902060050154613e1f565b6002826003811115613dfe57fe5b1415613e1457613e0d84611076565b9050613e1f565b6000925050506110a1565b6000848152606d6020526040902060040154613e476127106109f1848463ffffffff612bef16565b95945050505050565b600080613ea4606a60009054906101000a90046001600160a01b03166001600160a01b031663aaaca5586040518163ffffffff1660e01b815260040160206040518083038186803b15801561393f57600080fd5b90506000606960009054906101000a90046001600160a01b03166001600160a01b03166396237c026040518163ffffffff1660e01b815260040160206040518083038186803b158015613ef657600080fd5b505afa158015613f0a573d6000803e3d6000fd5b505050506040513d601f19601f82011682018060405250613f2e9190810190614450565b90506000613e47836109f1878563ffffffff612bef16565b6001600160a01b0316151590565b6000604051613f62906150ad565b6040519081900390206001905550565b613f8b613f7d6128d1565b6001600160a01b0316613f46565b15613f95576116fb565b613fa7816001600160a01b03166131da565b613fc35760405162461bcd60e51b81526004016106c390615234565b6000604051613fd1906150b8565b6040519081900390208290555050565b600080826001600160a01b031663313ce5676040518163ffffffff1660e01b815260040160206040518083038186803b15801561401d57600080fd5b505afa158015614031573d6000803e3d6000fd5b505050506040513d601f19601f8201168201806040525061405591908101906145e4565b60ff16600a0a9392505050565b60405180608001604052806000815260200160008152602001600081526020016000151581525090565b604051806101800160405280600081526020016140a7614107565b81526020016000815260200160008152602001600081526020016000815260200160008152602001600081526020016000815260200160006001600160a01b03168152602001600060038111156140fa57fe5b8152600060209091015290565b6040518060c0016040528060006001600160a01b0316815260200160006001600160a01b03168152602001600081526020016000815260200160008152602001600081525090565b8035612be9816155fe565b8051612be9816155fe565b60008083601f84011261417757600080fd5b50813567ffffffffffffffff81111561418f57600080fd5b602083019150836101408202830111156141a857600080fd5b9250929050565b8035612be981615612565b8051612be981615612565b8035612be98161561b565b8051612be98161561b565b8051612be981615624565b8035612be98161562d565b600060e0828403121561420357600080fd5b50919050565b600060e0828403121561421b57600080fd5b61422560e06154fc565b90506000614233848461414f565b82525060206142448484830161414f565b60208301525060406142588482850161414f565b604083015250606061426c848285016141c5565b6060830152506080614280848285016141c5565b60808301525060a0614294848285016141c5565b60a08301525060c06142a8848285016141c5565b60c08301525092915050565b8035612be98161563a565b8051612be98161563a565b6000602082840312156142dc57600080fd5b600061320e848461414f565b6000602082840312156142fa57600080fd5b600061320e848461415a565b600080600080600060a0868803121561431e57600080fd5b600061432a888861414f565b955050602061433b8882890161414f565b945050604061434c8882890161414f565b935050606061435d8882890161414f565b925050608061436e8882890161414f565b9150509295509295909350565b6000806040838503121561438e57600080fd5b600061439a858561414f565b92505060206143ab858286016141c5565b9150509250929050565b6000806000606084860312156143ca57600080fd5b60006143d6868661414f565b93505060206143e7868287016141c5565b92505060406143f8868287016141c5565b9150509250925092565b60006020828403121561441457600080fd5b600061320e84846141ba565b6000806040838503121561443357600080fd5b600061443f85856141af565b92505060206143ab858286016141af565b60006020828403121561446257600080fd5b600061320e84846141d0565b60006020828403121561448057600080fd5b600061320e84846141db565b600060e0828403121561449e57600080fd5b600061320e84846141f1565b60008060008061012085870312156144c157600080fd5b60006144cd87876141f1565b94505060e085013567ffffffffffffffff8111156144ea57600080fd5b6144f687828801614165565b935093505061010061450a878288016141c5565b91505092959194509250565b600060e0828403121561452857600080fd5b600061320e8484614209565b60006020828403121561454657600080fd5b600061320e84846141c5565b6000806040838503121561456557600080fd5b600061457185856141c5565b92505060206143ab858286016141e6565b6000806040838503121561459557600080fd5b600061439a85856141c5565b6000806000606084860312156145b657600080fd5b60006145c286866141d0565b93505060206145d3868287016141d0565b92505060406143f8868287016141d0565b6000602082840312156145f657600080fd5b600061320e84846142bf565b600061460e8383614f10565b50506101400190565b600061462383836146f2565b505060200190565b614634816155a8565b82525050565b61463481615571565b600061464f8385615537565b935061465a82615523565b8060005b8581101561469057614670828461555e565b61467a8882614602565b975061468583615530565b92505060010161465e565b509495945050505050565b60006146a68261552c565b6146b08185615537565b93506146bb83615526565b8060005b838110156146905781516146d38882614617565b97506146de83615526565b9250506001016146bf565b6146348161557c565b61463481615523565b61463481615581565b614634816155b3565b60006147188261552c565b6147228185615537565b93506147328185602086016155be565b61473b816155ea565b9093019392505050565b6000614752601d83615537565b7f4455524154494f4e5f455843454544535f4d41585f4455524154494f4e000000815260200192915050565b600061478b601c836110a1565b7f54496e697469616c697a61626c652e6973496e697469616c697a6564000000008152601c0192915050565b60006147c4601583615537565b74105353d5539517d59053155157d491545552549151605a1b815260200192915050565b60006147f5601683615537565b7513115391125391d7d413d3d317d254d7d4105554d15160521b815260200192915050565b6000614827601983615537565b7f414d4f554e545f455843454544535f4d41585f414d4f554e5400000000000000815260200192915050565b6000614860601183615537565b7013505617d313d05397d15610d151511151607a1b815260200192915050565b600061488d601b83615537565b7f536166654d6174683a206164646974696f6e206f766572666c6f770000000000815260200192915050565b60006148c6601983615537565b7f424f52524f5745525f4c4f414e5f49445f4d49534d4154434800000000000000815260200192915050565b60006148ff601483615537565b73125390d3d4949150d517d1551217d05353d5539560621b815260200192915050565b600061492f601683615537565b751313d05397d393d517d050d512559157d3d497d4d15560521b815260200192915050565b6000614961601b83615537565b7f53455454494e47535f4d5553545f42455f415f434f4e54524143540000000000815260200192915050565b600061499a601783615537565b7f444f45534e545f4e4545445f4c49515549444154494f4e000000000000000000815260200192915050565b60006149d3600f83615537565b6e4c4f414e5f4e4f545f41435449564560881b815260200192915050565b60006149fe601483615537565b7343414e4e4f545f57495448445241575f5a45524f60601b815260200192915050565b6000614a2e601283615537565b71141310551193d49357d254d7d4105554d15160721b815260200192915050565b6000614a5c601883615537565b7f4d4f52455f434f4c4c41544552414c5f52455155495245440000000000000000815260200192915050565b6000614a95602183615537565b7f536166654d6174683a206d756c7469706c69636174696f6e206f766572666c6f8152607760f81b602082015260400192915050565b6000614ad8601d83615537565b7f434f4c4c41544552414c5f4445504f53495445445f524543454e544c59000000815260200192915050565b6000614b11601a83615537565b7f434f4c4c41544552414c5f414d4f554e545f544f4f5f48494748000000000000815260200192915050565b6000614b4a601283615537565b711313d05397d511549354d7d156141254915160721b815260200192915050565b6000614b78602e83615537565b7f436f6e747261637420696e7374616e63652068617320616c726561647920626581526d195b881a5b9a5d1a585b1a5e995960921b602082015260400192915050565b6000614bc8601883615537565b7f41544d5f4e4f545f464f554e445f464f525f4d41524b45540000000000000000815260200192915050565b6000614c01601383615537565b7243414e4e4f545f4445504f5349545f5a45524f60681b815260200192915050565b6000614c30601e83615537565b7f4f5241434c455f4d5553545f434f4e54524143545f4e4f545f454d5054590000815260200192915050565b6000614c69601783615537565b7f424f52524f5745525f4d5553545f42455f53454e444552000000000000000000815260200192915050565b6000614ca2601683615537565b7521a0a62622a92fa227a2a9a72a2fa7aba72fa627a0a760511b815260200192915050565b6000614cd46018836110a1565b7f426173655570677261646561626c652e73657474696e67730000000000000000815260180192915050565b6000614d0d601a83615537565b7f535550504c595f544f5f444542545f455843454544535f4d4158000000000000815260200192915050565b6000614d46601883615537565b7f434f4e54524143545f4e4f545f494e495449414c495a45440000000000000000815260200192915050565b6000614d7f600c83615537565b6b1313d05397d393d517d4d15560a21b815260200192915050565b6000614da7601f83615537565b7f5265656e7472616e637947756172643a207265656e7472616e742063616c6c00815260200192915050565b6000614de0601c83615537565b7f434f4e54524143545f414c52454144595f494e495449414c495a454400000000815260200192915050565b80516080830190614e1d84826146f2565b506020820151614e3060208501826146f2565b506040820151614e4360408501826146f2565b5060608201516121f660608501826146e9565b60e08201614e648280615540565b614e6e848261463a565b50614e7c6020830183615540565b614e89602085018261463a565b50614e976040830183615540565b614ea4604085018261463a565b50614eb2606083018361554f565b614ebf60608501826146f2565b50614ecd608083018361554f565b614eda60808501826146f2565b50614ee860a083018361554f565b614ef560a08501826146f2565b50614f0360c083018361554f565b6121f660c08501826146f2565b6101408201614f1f8280615540565b614f29848261463a565b50614f376020830183615540565b614f44602085018261463a565b50614f52604083018361554f565b614f5f60408501826146f2565b50614f6d606083018361554f565b614f7a60608501826146f2565b50614f88608083018361554f565b614f9560808501826146f2565b50614fa360a083018361554f565b614fb060a08501826146f2565b50614fbe60c083018361555e565b6121f660c085018261503b565b805160c0830190614fdc848261463a565b506020820151614fef602085018261463a565b50604082015161500260408501826146f2565b50606082015161501560608501826146f2565b50608082015161502860808501826146f2565b5060a08201516121f660a08501826146f2565b60808201615049828061554f565b61505384826146f2565b506150616020830183615562565b61506e60208501826150a4565b5061507c604083018361554f565b61508960408501826146f2565b50615097606083018361554f565b6121f660608501826146f2565b614634816155a2565b6000612be98261477e565b6000612be982614cc7565b60208101612be9828461463a565b60208101612be9828461462b565b606081016150ed828661462b565b6150fa60208301856146f2565b61320e60408301846146f2565b60408101615115828561463a565b6137af602083018461463a565b60608101615130828661463a565b6150fa602083018561463a565b6040810161514b828561463a565b6137af60208301846146f2565b60208082528101612be6818461469b565b60208101612be982846146e9565b60208101612be982846146f2565b60208101612be982846146fb565b60208082528101612be6818461470d565b6020808252810161109e81614745565b6020808252810161109e816147b7565b6020808252810161109e816147e8565b6020808252810161109e8161481a565b6020808252810161109e81614853565b6020808252810161109e81614880565b6020808252810161109e816148b9565b6020808252810161109e816148f2565b6020808252810161109e81614922565b6020808252810161109e81614954565b6020808252810161109e8161498d565b6020808252810161109e816149c6565b6020808252810161109e816149f1565b6020808252810161109e81614a21565b6020808252810161109e81614a4f565b6020808252810161109e81614a88565b6020808252810161109e81614acb565b6020808252810161109e81614b04565b6020808252810161109e81614b3d565b6020808252810161109e81614b6b565b6020808252810161109e81614bbb565b6020808252810161109e81614bf4565b6020808252810161109e81614c23565b6020808252810161109e81614c5c565b6020808252810161109e81614c95565b6020808252810161109e81614d00565b6020808252810161109e81614d39565b6020808252810161109e81614d72565b6020808252810161109e81614d9a565b6020808252810161109e81614dd3565b60808101612be98284614e0c565b61010081016153a18286614e56565b81810360e0830152613e47818486614643565b6040810161511582856146f2565b604081016153d082856146f2565b6137af602083018461462b565b606081016153eb82866146f2565b6150fa602083018561462b565b6102208101615407828f6146f2565b615414602083018e614fcb565b61542160e083018d6146f2565b61542f61010083018c6146f2565b61543d61012083018b6146f2565b61544b61014083018a6146f2565b6154596101608301896146f2565b6154676101808301886146f2565b6154756101a08301876146f2565b6154836101c083018661463a565b6154916101e0830185614704565b61549f6102008301846146e9565b9d9c50505050505050505050505050565b60a081016154be82886146f2565b6154cb60208301876146f2565b6154d860408301866146f2565b6154e560608301856146f2565b6154f260808301846146f2565b9695505050505050565b60405181810167ffffffffffffffff8111828210171561551b57600080fd5b604052919050565b90565b60200190565b5190565b6101400190565b90815260200190565b6000612be6602084018461414f565b6000612be660208401846141c5565b5090565b6000612be660208401846142b4565b600061109e82615596565b151590565b600061109e82615571565b806110a1816155f4565b6001600160a01b031690565b60ff1690565b600061109e82615581565b600061109e8261558c565b60005b838110156155d95781810151838201526020016155c1565b838111156121f65750506000910152565b601f01601f191690565b600481106116fb57fe5b61560781615571565b81146116fb57600080fd5b6156078161557c565b61560781615523565b61560781615581565b600481106116fb57600080fd5b615607816155a256fea365627a7a723158208829410c51d343a81baede26a1e7d6a5bc817449ae5d70b8a8346ab8598e20fc6c6578706572696d656e74616cf564736f6c63430005110040",
  "source": "pragma solidity 0.5.17;\npragma experimental ABIEncoderV2;\n\nimport \"../../base/EtherCollateralLoans.sol\";\n\n/**\n    This contract is created ONLY for testing purposes.\n */\ncontract LoansBaseModifiersMock is EtherCollateralLoans {\n    bool public mockIsSupplyToDebtRatioValid;\n    bool public returnIsSupplyToDebtRatioValid;\n\n    function setMockIsSupplyToDebtRatioValid(\n        bool result,\n        bool aResponseIsSupplyToDebtRatioValid\n    ) external {\n        mockIsSupplyToDebtRatioValid = result;\n        returnIsSupplyToDebtRatioValid = aResponseIsSupplyToDebtRatioValid;\n    }\n\n    function _isSupplyToDebtRatioValid(uint256 newLoanAmount)\n        internal\n        view\n        returns (bool)\n    {\n        if (!mockIsSupplyToDebtRatioValid) {\n            return super._isSupplyToDebtRatioValid(newLoanAmount);\n        }\n        return returnIsSupplyToDebtRatioValid;\n    }\n\n    function setLoanStatus(uint256 loanID, TellerCommon.LoanStatus status) external {\n        loans[loanID].status = status;\n    }\n\n    function externalLoanActive(uint256 loanID) external loanActive(loanID) {}\n\n    function externalLoanTermsSet(uint256 loanID) external loanTermsSet(loanID) {}\n\n    function externalLoanActiveOrSet(uint256 loanID) external loanActiveOrSet(loanID) {}\n\n    function externalIsBorrower(address anAddress) external isBorrower(anAddress) {}\n\n    function externalWithValidLoanRequest(TellerCommon.LoanRequest calldata loanRequest)\n        external\n        withValidLoanRequest(loanRequest)\n    {}\n}\n",
  "sourcePath": "/Users/guillesalazar/Repos/ZeroCollateral/smart-contracts-v1/contracts/mock/base/LoansBaseModifiersMock.sol",
  "compiler": {
    "name": "solc",
    "version": "0.5.17+commit.d19bba13.Emscripten.clang"
  },
  "schemaVersion": "3.2.3",
  "updatedAt": "2020-10-12T14:23:11.534Z",
  "devdoc": {
    "methods": {
      "cToken()": {
        "return": "Address of the cToken"
      },
      "canLiquidateLoan(uint256)": {
        "params": {
          "loanID": "The ID of the loan to check"
        },
        "return": "bool weather the loan can be liquidated"
      },
      "createLoanWithTerms((address,address,address,uint256,uint256,uint256,uint256),(address,address,uint256,uint256,uint256,uint256,(uint256,uint8,bytes32,bytes32))[],uint256)": {
        "params": {
          "collateralAmount": "Amount of collateral required for the loan",
          "request": "Struct of the protocol loan request",
          "responses": "List of structs of the protocol loan responses"
        }
      },
      "depositCollateral(address,uint256,uint256)": {
        "params": {
          "borrower": "The address of the loan borrower.",
          "loanID": "The ID of the loan the collateral is for"
        }
      },
      "getBorrowerLoans(address)": {
        "params": {
          "borrower": "The borrower's address"
        }
      },
      "getCollateralInfo(uint256)": {
        "params": {
          "loanID": "of the loan to get info for"
        },
        "return": "memory TellerCommon.LoanCollateralInfo Collateral information of the loan"
      },
      "getLiquidationInfo(uint256)": {
        "params": {
          "loanID": "loan id to get the info."
        },
        "return": "liquidationInfo get current liquidation info for the given loan id."
      },
      "getTotalOwed(uint256)": {
        "params": {
          "loanID": "The ID of the loan to be queried"
        },
        "return": "uint256 The total amount owed remaining"
      },
      "initialize(address,address,address,address,address)": {
        "params": {
          "lendingPoolAddress": "Contract address of the lending pool",
          "loanTermsConsensusAddress": "Contract adddress for loan term consensus",
          "priceOracleAddress": "Contract address of the price oracle",
          "settingsAddress": "Contract address for the configuration of the platform"
        }
      },
      "initialized()": {
        "return": "true if contract is initialized. Otherwise it returns false."
      },
      "isLoanSecured(uint256)": {
        "return": "bool value of it being secured or not."
      },
      "lendingToken()": {
        "return": "Address of the lending token"
      },
      "liquidateLoan(uint256)": {
        "params": {
          "loanID": "The ID of the loan to be liquidated"
        }
      },
      "repay(uint256,uint256)": {
        "params": {
          "amount": "The amount of tokens to pay back to the loan",
          "loanID": "The ID of the loan the payment is for"
        }
      },
      "setPriceOracle(address)": {
        "details": "It throws a require error if sender is not allowed.It throws a require error if new address is empty (0x0) or not a contract.",
        "params": {
          "newPriceOracle": "the new price oracle address."
        }
      },
      "settings()": {
        "details": "This address should NOT change over the time. See details in the _setSettings(...) function."
      },
      "tToken()": {
        "return": "Address of the tToken"
      },
      "takeOutLoan(uint256,uint256)": {
        "details": "collateral ratio is a percentage of the loan amount that's required in collateralthe percentage will be *(10**2). I.e. collateralRatio of 5244 means 52.44% collateralis required in the loan. Interest rate is also a percentage with 2 decimal points."
      },
      "withdrawCollateral(uint256,uint256)": {
        "params": {
          "amount": "The amount of collateral token or ether the caller is hoping to withdraw.",
          "loanID": "The ID of the loan the collateral is for"
        }
      }
    }
  },
  "userdoc": {
    "methods": {
      "cToken()": {
        "notice": "Returns the cToken in the lending pool"
      },
      "canLiquidateLoan(uint256)": {
        "notice": "A loan can be liquidated if it is: under collateralized or expired"
      },
      "createLoanWithTerms((address,address,address,uint256,uint256,uint256,uint256),(address,address,uint256,uint256,uint256,uint256,(uint256,uint8,bytes32,bytes32))[],uint256)": {
        "notice": "Creates a loan with the loan request and terms"
      },
      "depositCollateral(address,uint256,uint256)": {
        "notice": "Deposit collateral into a loan"
      },
      "getBorrowerLoans(address)": {
        "notice": "Get a list of all loans for a borrower"
      },
      "getCollateralInfo(uint256)": {
        "notice": "Get collateral information of a specific loan"
      },
      "getLiquidationInfo(uint256)": {
        "notice": "It getss the current liquidation info for a given loan id."
      },
      "getTotalOwed(uint256)": {
        "notice": "Returns the total owed amount remaining for a specified loan"
      },
      "initialize(address,address,address,address,address)": {
        "notice": "Initializes the current contract instance setting the required parameters"
      },
      "initialized()": {
        "notice": "Gets if the contract is initialized."
      },
      "isLoanSecured(uint256)": {
        "notice": "Checks wheather the loan's collateral ratio is considered to be secured based on the settings collateral buffer value."
      },
      "lendingToken()": {
        "notice": "Returns the lending token in the lending pool"
      },
      "liquidateLoan(uint256)": {
        "notice": "Liquidate a loan if it is expired or under collateralized"
      },
      "repay(uint256,uint256)": {
        "notice": "Make a payment to a loan"
      },
      "setPriceOracle(address)": {
        "notice": "Updates the current price oracle instance."
      },
      "settings()": {
        "notice": "The gets the settings contract address from the SETTINGS_SLOT."
      },
      "tToken()": {
        "notice": "Returns the tToken in the lending pool"
      },
      "takeOutLoan(uint256,uint256)": {
        "notice": "Take out a loan"
      },
      "withdrawCollateral(uint256,uint256)": {
        "notice": "Withdraw collateral from a loan, unless this isn't allowed"
      }
    },
    "notice": "This contract is created ONLY for testing purposes."
  }
}