{
  "contractName": "LoanTermsConsensus",
  "abi": [
    {
      "anonymous": false,
      "inputs": [
        {
          "indexed": true,
          "internalType": "address",
          "name": "previousOwner",
          "type": "address"
        },
        {
          "indexed": true,
          "internalType": "address",
          "name": "newOwner",
          "type": "address"
        }
      ],
      "name": "OwnershipTransferred",
      "type": "event"
    },
    {
      "anonymous": false,
      "inputs": [
        {
          "indexed": true,
          "internalType": "address",
          "name": "account",
          "type": "address"
        }
      ],
      "name": "SignerAdded",
      "type": "event"
    },
    {
      "anonymous": false,
      "inputs": [
        {
          "indexed": true,
          "internalType": "address",
          "name": "account",
          "type": "address"
        }
      ],
      "name": "SignerRemoved",
      "type": "event"
    },
    {
      "anonymous": false,
      "inputs": [
        {
          "indexed": true,
          "internalType": "address",
          "name": "borrower",
          "type": "address"
        },
        {
          "indexed": true,
          "internalType": "uint256",
          "name": "requestNonce",
          "type": "uint256"
        },
        {
          "indexed": false,
          "internalType": "uint256",
          "name": "interestRate",
          "type": "uint256"
        },
        {
          "indexed": false,
          "internalType": "uint256",
          "name": "collateralRatio",
          "type": "uint256"
        },
        {
          "indexed": false,
          "internalType": "uint256",
          "name": "maxLoanAmount",
          "type": "uint256"
        }
      ],
      "name": "TermsAccepted",
      "type": "event"
    },
    {
      "anonymous": false,
      "inputs": [
        {
          "indexed": true,
          "internalType": "address",
          "name": "signer",
          "type": "address"
        },
        {
          "indexed": true,
          "internalType": "address",
          "name": "borrower",
          "type": "address"
        },
        {
          "indexed": true,
          "internalType": "uint256",
          "name": "requestNonce",
          "type": "uint256"
        },
        {
          "indexed": false,
          "internalType": "uint256",
          "name": "interestRate",
          "type": "uint256"
        },
        {
          "indexed": false,
          "internalType": "uint256",
          "name": "collateralRatio",
          "type": "uint256"
        },
        {
          "indexed": false,
          "internalType": "uint256",
          "name": "maxLoanAmount",
          "type": "uint256"
        }
      ],
      "name": "TermsSubmitted",
      "type": "event"
    },
    {
      "constant": false,
      "inputs": [
        {
          "internalType": "address",
          "name": "account",
          "type": "address"
        }
      ],
      "name": "addSigner",
      "outputs": [],
      "payable": false,
      "stateMutability": "nonpayable",
      "type": "function"
    },
    {
      "constant": false,
      "inputs": [
        {
          "internalType": "address[]",
          "name": "accounts",
          "type": "address[]"
        }
      ],
      "name": "addSigners",
      "outputs": [],
      "payable": false,
      "stateMutability": "nonpayable",
      "type": "function"
    },
    {
      "constant": true,
      "inputs": [
        {
          "internalType": "address",
          "name": "",
          "type": "address"
        }
      ],
      "name": "borrowerToLastLoanTermRequest",
      "outputs": [
        {
          "internalType": "uint256",
          "name": "",
          "type": "uint256"
        }
      ],
      "payable": false,
      "stateMutability": "view",
      "type": "function"
    },
    {
      "constant": true,
      "inputs": [],
      "name": "callerAddress",
      "outputs": [
        {
          "internalType": "address",
          "name": "",
          "type": "address"
        }
      ],
      "payable": false,
      "stateMutability": "view",
      "type": "function"
    },
    {
      "constant": true,
      "inputs": [
        {
          "internalType": "address",
          "name": "",
          "type": "address"
        },
        {
          "internalType": "address",
          "name": "",
          "type": "address"
        },
        {
          "internalType": "uint256",
          "name": "",
          "type": "uint256"
        }
      ],
      "name": "hasSubmitted",
      "outputs": [
        {
          "internalType": "bool",
          "name": "",
          "type": "bool"
        }
      ],
      "payable": false,
      "stateMutability": "view",
      "type": "function"
    },
    {
      "constant": false,
      "inputs": [],
      "name": "initialize",
      "outputs": [],
      "payable": false,
      "stateMutability": "nonpayable",
      "type": "function"
    },
    {
      "constant": false,
      "inputs": [
        {
          "internalType": "address",
          "name": "owner",
          "type": "address"
        },
        {
          "internalType": "address",
          "name": "aCallerAddress",
          "type": "address"
        },
        {
          "internalType": "address",
          "name": "aSettingAddress",
          "type": "address"
        }
      ],
      "name": "initialize",
      "outputs": [],
      "payable": false,
      "stateMutability": "nonpayable",
      "type": "function"
    },
    {
      "constant": false,
      "inputs": [
        {
          "internalType": "address",
          "name": "sender",
          "type": "address"
        }
      ],
      "name": "initialize",
      "outputs": [],
      "payable": false,
      "stateMutability": "nonpayable",
      "type": "function"
    },
    {
      "constant": true,
      "inputs": [],
      "name": "initialized",
      "outputs": [
        {
          "internalType": "bool",
          "name": "value",
          "type": "bool"
        }
      ],
      "payable": false,
      "stateMutability": "view",
      "type": "function"
    },
    {
      "constant": true,
      "inputs": [],
      "name": "isOwner",
      "outputs": [
        {
          "internalType": "bool",
          "name": "",
          "type": "bool"
        }
      ],
      "payable": false,
      "stateMutability": "view",
      "type": "function"
    },
    {
      "constant": true,
      "inputs": [
        {
          "internalType": "address",
          "name": "account",
          "type": "address"
        }
      ],
      "name": "isSigner",
      "outputs": [
        {
          "internalType": "bool",
          "name": "",
          "type": "bool"
        }
      ],
      "payable": false,
      "stateMutability": "view",
      "type": "function"
    },
    {
      "constant": true,
      "inputs": [],
      "name": "owner",
      "outputs": [
        {
          "internalType": "address",
          "name": "",
          "type": "address"
        }
      ],
      "payable": false,
      "stateMutability": "view",
      "type": "function"
    },
    {
      "constant": false,
      "inputs": [
        {
          "internalType": "address",
          "name": "account",
          "type": "address"
        }
      ],
      "name": "removeSigner",
      "outputs": [],
      "payable": false,
      "stateMutability": "nonpayable",
      "type": "function"
    },
    {
      "constant": false,
      "inputs": [],
      "name": "renounceOwnership",
      "outputs": [],
      "payable": false,
      "stateMutability": "nonpayable",
      "type": "function"
    },
    {
      "constant": true,
      "inputs": [
        {
          "internalType": "address",
          "name": "",
          "type": "address"
        },
        {
          "internalType": "uint256",
          "name": "",
          "type": "uint256"
        }
      ],
      "name": "requestNonceTaken",
      "outputs": [
        {
          "internalType": "bool",
          "name": "",
          "type": "bool"
        }
      ],
      "payable": false,
      "stateMutability": "view",
      "type": "function"
    },
    {
      "constant": true,
      "inputs": [],
      "name": "settings",
      "outputs": [
        {
          "internalType": "contract SettingsInterface",
          "name": "",
          "type": "address"
        }
      ],
      "payable": false,
      "stateMutability": "view",
      "type": "function"
    },
    {
      "constant": true,
      "inputs": [
        {
          "internalType": "address",
          "name": "",
          "type": "address"
        },
        {
          "internalType": "uint256",
          "name": "",
          "type": "uint256"
        }
      ],
      "name": "signerNonceTaken",
      "outputs": [
        {
          "internalType": "bool",
          "name": "",
          "type": "bool"
        }
      ],
      "payable": false,
      "stateMutability": "view",
      "type": "function"
    },
    {
      "constant": true,
      "inputs": [
        {
          "internalType": "address",
          "name": "",
          "type": "address"
        },
        {
          "internalType": "uint256",
          "name": "",
          "type": "uint256"
        }
      ],
      "name": "termSubmissions",
      "outputs": [
        {
          "components": [
            {
              "internalType": "uint256",
              "name": "count",
              "type": "uint256"
            },
            {
              "internalType": "uint256",
              "name": "max",
              "type": "uint256"
            },
            {
              "internalType": "uint256",
              "name": "min",
              "type": "uint256"
            },
            {
              "internalType": "uint256",
              "name": "sum",
              "type": "uint256"
            }
          ],
          "internalType": "struct NumbersList.Values",
          "name": "interestRate",
          "type": "tuple"
        },
        {
          "components": [
            {
              "internalType": "uint256",
              "name": "count",
              "type": "uint256"
            },
            {
              "internalType": "uint256",
              "name": "max",
              "type": "uint256"
            },
            {
              "internalType": "uint256",
              "name": "min",
              "type": "uint256"
            },
            {
              "internalType": "uint256",
              "name": "sum",
              "type": "uint256"
            }
          ],
          "internalType": "struct NumbersList.Values",
          "name": "collateralRatio",
          "type": "tuple"
        },
        {
          "components": [
            {
              "internalType": "uint256",
              "name": "count",
              "type": "uint256"
            },
            {
              "internalType": "uint256",
              "name": "max",
              "type": "uint256"
            },
            {
              "internalType": "uint256",
              "name": "min",
              "type": "uint256"
            },
            {
              "internalType": "uint256",
              "name": "sum",
              "type": "uint256"
            }
          ],
          "internalType": "struct NumbersList.Values",
          "name": "maxLoanAmount",
          "type": "tuple"
        }
      ],
      "payable": false,
      "stateMutability": "view",
      "type": "function"
    },
    {
      "constant": false,
      "inputs": [
        {
          "internalType": "address",
          "name": "newOwner",
          "type": "address"
        }
      ],
      "name": "transferOwnership",
      "outputs": [],
      "payable": false,
      "stateMutability": "nonpayable",
      "type": "function"
    },
    {
      "constant": false,
      "inputs": [
        {
          "components": [
            {
              "internalType": "address payable",
              "name": "borrower",
              "type": "address"
            },
            {
              "internalType": "address",
              "name": "recipient",
              "type": "address"
            },
            {
              "internalType": "address",
              "name": "consensusAddress",
              "type": "address"
            },
            {
              "internalType": "uint256",
              "name": "requestNonce",
              "type": "uint256"
            },
            {
              "internalType": "uint256",
              "name": "amount",
              "type": "uint256"
            },
            {
              "internalType": "uint256",
              "name": "duration",
              "type": "uint256"
            },
            {
              "internalType": "uint256",
              "name": "requestTime",
              "type": "uint256"
            }
          ],
          "internalType": "struct TellerCommon.LoanRequest",
          "name": "request",
          "type": "tuple"
        },
        {
          "components": [
            {
              "internalType": "address",
              "name": "signer",
              "type": "address"
            },
            {
              "internalType": "address",
              "name": "consensusAddress",
              "type": "address"
            },
            {
              "internalType": "uint256",
              "name": "responseTime",
              "type": "uint256"
            },
            {
              "internalType": "uint256",
              "name": "interestRate",
              "type": "uint256"
            },
            {
              "internalType": "uint256",
              "name": "collateralRatio",
              "type": "uint256"
            },
            {
              "internalType": "uint256",
              "name": "maxLoanAmount",
              "type": "uint256"
            },
            {
              "components": [
                {
                  "internalType": "uint256",
                  "name": "signerNonce",
                  "type": "uint256"
                },
                {
                  "internalType": "uint8",
                  "name": "v",
                  "type": "uint8"
                },
                {
                  "internalType": "bytes32",
                  "name": "r",
                  "type": "bytes32"
                },
                {
                  "internalType": "bytes32",
                  "name": "s",
                  "type": "bytes32"
                }
              ],
              "internalType": "struct TellerCommon.Signature",
              "name": "signature",
              "type": "tuple"
            }
          ],
          "internalType": "struct TellerCommon.LoanResponse[]",
          "name": "responses",
          "type": "tuple[]"
        }
      ],
      "name": "processRequest",
      "outputs": [
        {
          "internalType": "uint256",
          "name": "interestRate",
          "type": "uint256"
        },
        {
          "internalType": "uint256",
          "name": "collateralRatio",
          "type": "uint256"
        },
        {
          "internalType": "uint256",
          "name": "maxLoanAmount",
          "type": "uint256"
        }
      ],
      "payable": false,
      "stateMutability": "nonpayable",
      "type": "function"
    }
  ],
  "bytecode": "0x6080604052612bc4806100136000396000f3fe608060405234801561001057600080fd5b506004361061012c5760003560e01c806399ffe065116100ad578063e8906a2d11610071578063e8906a2d14610269578063eb12d61e1461027c578063f2fde38b1461028f578063faa8aab1146102a2578063fb98d9e2146102aa5761012c565b806399ffe065146101fb5780639f24a12d1461020e578063c0c53b8b1461022e578063c4d66de814610241578063e06174e4146102545761012c565b8063715018a6116100f4578063715018a6146101bb5780637df73e27146101c35780638129fc1c146101d65780638da5cb5b146101de5780638f32d59b146101f35761012c565b8063064e5d49146101315780630e316ab71461015c578063158ef93e146101715780632aac635e1461018657806368fcdeb8146101a8575b600080fd5b61014461013f366004612027565b6102bd565b60405161015393929190612a6a565b60405180910390f35b61016f61016a366004611ece565b610742565b005b610179610772565b6040516101539190612867565b610199610194366004611f7c565b610791565b60405161015393929190612a40565b6101796101b6366004611f7c565b61083a565b61016f61085a565b6101796101d1366004611ece565b6108c8565b61016f6108e1565b6101e6610968565b604051610153919061275c565b610179610977565b610179610209366004611f39565b61099d565b61022161021c366004611ece565b6109c3565b6040516101539190612875565b61016f61023c366004611eec565b6109d5565b61016f61024f366004611ece565b610a5e565b61025c610b31565b60405161015391906128c1565b61016f610277366004611fb6565b610b53565b61016f61028a366004611ece565b610bdb565b61016f61029d366004611ece565b610c08565b6101e6610c35565b6101796102b8366004611f7c565b610c44565b60008060006102ca610772565b6102ef5760405162461bcd60e51b81526004016102e690612a20565b60405180910390fd5b336102f981610c64565b6103155760405162461bcd60e51b81526004016102e690612a10565b61031d610b31565b6001600160a01b031663269012a0610333610b31565b6001600160a01b031663d86d744e6040518163ffffffff1660e01b815260040160206040518083038186803b15801561036b57600080fd5b505afa15801561037f573d6000803e3d6000fd5b505050506040513d601f19601f820116820180604052506103a39190810190612009565b6001600160a01b0316633ff591d96040518163ffffffff1660e01b815260040160206040518083038186803b1580156103db57600080fd5b505afa1580156103ef573d6000803e3d6000fd5b505050506040513d601f19601f820116820180604052506104139190810190611feb565b6040518263ffffffff1660e01b815260040161042f9190612875565b60206040518083038186803b15801561044757600080fd5b505afa15801561045b573d6000803e3d6000fd5b505050506040513d601f19601f8201168201806040525061047f9190810190611feb565b85101561049e5760405162461bcd60e51b81526004016102e6906129f0565b6104b56104b03689900389018961207e565b610c78565b609d60006104c660208a018a611ece565b6001600160a01b031681526020808201929092526040908101600090812060608b0135825290925290205460ff16156105115760405162461bcd60e51b81526004016102e690612900565b6001609d600061052460208b018b611ece565b6001600160a01b031681526020808201929092526040908101600090812060608c013582529092528120805460ff191692151592909217909155610575610570368a90038a018a61207e565b610e54565b905060005b868110156105c5576105bd610594368b90038b018b61207e565b8989848181106105a057fe5b905061014002018036036105b7919081019061209c565b84610ec7565b60010161057a565b50610609609e60006105da60208c018c611ece565b6001600160a01b031681526020808201929092526040908101600090812060608d013582529092529020611024565b945061065c609e600061061f60208c018c611ece565b6001600160a01b03166001600160a01b0316815260200190815260200160002060008a606001358152602001908152602001600020600401611024565b93506106af609e600061067260208c018c611ece565b6001600160a01b03166001600160a01b0316815260200190815260200160002060008a606001358152602001908152602001600020600801611024565b925042609f60006106c360208c018c611ece565b6001600160a01b03168152602080820192909252604001600020919091556060890135906106f3908a018a611ece565b6001600160a01b03167f658dfc9759b55173ea96c7bd8d4ad2c3e3804d28d83d2e1a25569a2fecb6720887878760405161072f93929190612a6a565b60405180910390a3505093509350939050565b61074a610977565b6107665760405162461bcd60e51b81526004016102e6906129b0565b61076f816111c5565b50565b60008060405161078190612726565b6040519081900390205492915050565b609e60209081526000928352604080842082529183529181902081516080808201845282548252600183015482860152600283015482850152600383015460608084019190915284518083018652600485015481526005850154818801526006850154818701526007850154818301528551928301865260088501548352600985015496830196909652600a84015494820194909452600b909201549282019290925290919083565b609b60209081526000928352604080842090915290825290205460ff1681565b610862610977565b61087e5760405162461bcd60e51b81526004016102e6906129b0565b6066546040516000916001600160a01b0316907f8be0079c531659141344cd1fd0a4f28419497f9722a3daafe3b4186f6b6457e0908390a3606680546001600160a01b0319169055565b60006108db60998363ffffffff61120d16565b92915050565b600054610100900460ff16806108fa57506108fa611255565b80610908575060005460ff16155b6109245760405162461bcd60e51b81526004016102e6906129d0565b600054610100900460ff1615801561094f576000805460ff1961ff0019909116610100171660011790555b6001603355801561076f576000805461ff001916905550565b6066546001600160a01b031690565b6066546000906001600160a01b031661098e61125b565b6001600160a01b031614905090565b609a60209081526000938452604080852082529284528284209052825290205460ff1681565b609f6020526000908152604090205481565b6109dd610772565b156109fa5760405162461bcd60e51b81526004016102e690612a30565b610a0c826001600160a01b031661125f565b610a285760405162461bcd60e51b81526004016102e690612960565b610a3183610a5e565b610a3a8161129b565b50609c80546001600160a01b0319166001600160a01b039290921691909117905550565b600054610100900460ff1680610a775750610a77611255565b80610a85575060005460ff16155b610aa15760405162461bcd60e51b81526004016102e6906129d0565b600054610100900460ff16158015610acc576000805460ff1961ff0019909116610100171660011790555b606680546001600160a01b0319166001600160a01b0384811691909117918290556040519116906000907f8be0079c531659141344cd1fd0a4f28419497f9722a3daafe3b4186f6b6457e0908290a38015610b2d576000805461ff00191690555b5050565b6000806000604051610b4290612751565b604051908190039020549250505090565b610b5b610977565b610b775760405162461bcd60e51b81526004016102e6906129b0565b6000815111610b985760405162461bcd60e51b81526004016102e6906128f0565b60005b8151811015610b2d576000828281518110610bb257fe5b60200260200101519050610bc5816108c8565b610bd257610bd28161134d565b50600101610b9b565b610be3610977565b610bff5760405162461bcd60e51b81526004016102e6906129b0565b61076f8161134d565b610c10610977565b610c2c5760405162461bcd60e51b81526004016102e6906129b0565b61076f81611395565b609c546001600160a01b031681565b609d60209081526000928352604080842090915290825290205460ff1681565b609c546001600160a01b0391821691161490565b80516001600160a01b03166000908152609f6020526040902054610c9b5761076f565b6000610ca5610b31565b6001600160a01b031663269012a0610cbb610b31565b6001600160a01b031663d86d744e6040518163ffffffff1660e01b815260040160206040518083038186803b158015610cf357600080fd5b505afa158015610d07573d6000803e3d6000fd5b505050506040513d601f19601f82011682018060405250610d2b9190810190612009565b6001600160a01b0316633b98dfdb6040518163ffffffff1660e01b815260040160206040518083038186803b158015610d6357600080fd5b505afa158015610d77573d6000803e3d6000fd5b505050506040513d601f19601f82011682018060405250610d9b9190810190611feb565b6040518263ffffffff1660e01b8152600401610db79190612875565b60206040518083038186803b158015610dcf57600080fd5b505afa158015610de3573d6000803e3d6000fd5b505050506040513d601f19601f82011682018060405250610e079190810190611feb565b82516001600160a01b03166000908152609f60205260409020549091504290610e36908363ffffffff61141716565b1115610b2d5760405162461bcd60e51b81526004016102e690612980565b609c548151602083015160408401516060850151608086015160a087015160c08801516000976001600160a01b031696959493929190610e92611443565b604051602001610eaa9998979695949392919061276a565b604051602081830303815290604052805190602001209050919050565b6000610ed38383611447565b835185516060870151604087015160c0880151949550610ef49486906114a9565b60608084015185516001600160a01b03166000908152609e6020908152604080832094890151835293905291909120610f329163ffffffff61172716565b608083015184516001600160a01b03166000908152609e60209081526040808320606089015184529091529020610f749160049091019063ffffffff61172716565b60a083015184516001600160a01b03166000908152609e60209081526040808320606089015184529091529020610fb69160089091019063ffffffff61172716565b836060015184600001516001600160a01b031684600001516001600160a01b03167f75ec6e4b3d626c9ecaff859275e3ee99bd0d25d81a798938dcc15b49baffc24d866060015187608001518860a0015160405161101693929190612a6a565b60405180910390a450505050565b60006111a0611031610b31565b6001600160a01b031663269012a0611047610b31565b6001600160a01b031663d86d744e6040518163ffffffff1660e01b815260040160206040518083038186803b15801561107f57600080fd5b505afa158015611093573d6000803e3d6000fd5b505050506040513d601f19601f820116820180604052506110b79190810190612009565b6001600160a01b031663c41dd8ce6040518163ffffffff1660e01b815260040160206040518083038186803b1580156110ef57600080fd5b505afa158015611103573d6000803e3d6000fd5b505050506040513d601f19601f820116820180604052506111279190810190611feb565b6040518263ffffffff1660e01b81526004016111439190612875565b60206040518083038186803b15801561115b57600080fd5b505afa15801561116f573d6000803e3d6000fd5b505050506040513d601f19601f820116820180604052506111939190810190611feb565b839063ffffffff61178c16565b6111bc5760405162461bcd60e51b81526004016102e690612930565b6108db8261183d565b6111d660998263ffffffff61187616565b6040516001600160a01b038216907f3525e22824a8a7df2c9a6029941c824cf95b6447f1e13d5128fd3826d35afe8b90600090a250565b60006001600160a01b0382166112355760405162461bcd60e51b81526004016102e6906129c0565b506001600160a01b03166000908152602091909152604090205460ff1690565b303b1590565b3390565b6000813f7fc5d2460186f7233c927e7db2dcc703c0e500b653ca82273b7bfad8045d85a47081811480159061129357508115155b949350505050565b6112a3610772565b156112c05760405162461bcd60e51b81526004016102e690612a30565b60408051808201909152601981527f53455454494e47535f4d5553545f42455f50524f564944454400000000000000602082015261130e906001600160a01b0383169063ffffffff6118be16565b611320816001600160a01b031661125f565b61133c5760405162461bcd60e51b81526004016102e690612950565b6113446118eb565b61076f81611909565b61135e60998263ffffffff61197816565b6040516001600160a01b038216907f47d1c22a25bb3a5d4e481b9b1e6944c2eade3181a0a20b495ed61d35b5323f2490600090a250565b6001600160a01b0381166113bb5760405162461bcd60e51b81526004016102e690612920565b6066546040516001600160a01b038084169216907f8be0079c531659141344cd1fd0a4f28419497f9722a3daafe3b4186f6b6457e090600090a3606680546001600160a01b0319166001600160a01b0392909216919091179055565b60008282018381101561143c5760405162461bcd60e51b81526004016102e690612940565b9392505050565b4690565b600082602001518360400151846060015185608001518660a001518760c0015160000151611473611443565b8860405160200161148b9897969594939291906127f0565b60405160208183030381529060405280519060200120905092915050565b6001600160a01b038087166000908152609a6020908152604080832093891683529281528282208783529052205460ff16156114f75760405162461bcd60e51b81526004016102e690612910565b6001600160a01b038087166000908152609a602090815260408083209389168352928152828220878352905220805460ff191660011790556116a961153a610b31565b6001600160a01b031663269012a0611550610b31565b6001600160a01b031663d86d744e6040518163ffffffff1660e01b815260040160206040518083038186803b15801561158857600080fd5b505afa15801561159c573d6000803e3d6000fd5b505050506040513d601f19601f820116820180604052506115c09190810190612009565b6001600160a01b031663e3f33d006040518163ffffffff1660e01b815260040160206040518083038186803b1580156115f857600080fd5b505afa15801561160c573d6000803e3d6000fd5b505050506040513d601f19601f820116820180604052506116309190810190611feb565b6040518263ffffffff1660e01b815260040161164c9190612875565b60206040518083038186803b15801561166457600080fd5b505afa158015611678573d6000803e3d6000fd5b505050506040513d601f19601f8201168201806040525061169c9190810190611feb565b429063ffffffff6119c416565b8310156116c85760405162461bcd60e51b81526004016102e6906129e0565b6116d3818388611a06565b6116ef5760405162461bcd60e51b81526004016102e690612a00565b6001600160a01b039095166000908152609b602090815260408083209751835296905294909420805460ff1916600117905550505050565b808260010154101561173b57600182018190555b808260020154118061174c57508154155b1561175957600282018190555b600382015461176e908263ffffffff61141716565b6003830155815461178690600163ffffffff61141716565b90915550565b600061179783611afe565b156117a4575060006108db565b60006117af8461183d565b905060006117d56127106117c9848763ffffffff611b1016565b9063ffffffff611b4a16565b905060006117e9838363ffffffff6119c416565b9050808660020154101561180357600093505050506108db565b6000611815848463ffffffff61141716565b905080876001015411156118305760009450505050506108db565b5060019695505050505050565b600061184882611afe565b61186e5761186961185883611b8c565b60038401549063ffffffff611b4a16565b6108db565b506000919050565b611880828261120d565b61189c5760405162461bcd60e51b81526004016102e690612990565b6001600160a01b0316600090815260209190915260409020805460ff19169055565b6118c782611b90565b81906118e65760405162461bcd60e51b81526004016102e691906128cf565b505050565b60006040516118f990612726565b6040519081900390206001905550565b611922611914610b31565b6001600160a01b0316611b90565b1561192c5761076f565b61193e816001600160a01b031661125f565b61195a5760405162461bcd60e51b81526004016102e690612950565b600060405161196890612751565b6040519081900390208290555050565b611982828261120d565b1561199f5760405162461bcd60e51b81526004016102e6906128e0565b6001600160a01b0316600090815260209190915260409020805460ff19166001179055565b600061143c83836040518060400160405280601e81526020017f536166654d6174683a207375627472616374696f6e206f766572666c6f770000815250611b9e565b6000611a11826108c8565b611a1d5750600061143c565b6001600160a01b0382166000908152609b602090815260408083208751845290915290205460ff1615611a625760405162461bcd60e51b81526004016102e690612970565b6000600184604051602001611a779190612731565b6040516020818303038152906040528051906020012086602001518760400151886060015160405160008152602001604052604051611ab99493929190612883565b6020604051602081039080840390855afa158015611adb573d6000803e3d6000fd5b5050604051601f1901516001600160a01b03858116911614925050509392505050565b6000611b0982611b8c565b1592915050565b600082611b1f575060006108db565b82820282848281611b2c57fe5b041461143c5760405162461bcd60e51b81526004016102e6906129a0565b600061143c83836040518060400160405280601a81526020017f536166654d6174683a206469766973696f6e206279207a65726f000000000000815250611bca565b5490565b6001600160a01b0316151590565b60008184841115611bc25760405162461bcd60e51b81526004016102e691906128cf565b505050900390565b60008183611beb5760405162461bcd60e51b81526004016102e691906128cf565b506000838581611bf757fe5b0495945050505050565b80356108db81612b52565b600082601f830112611c1d57600080fd5b8135611c30611c2b82612ab9565b612a92565b91508181835260208401935060208101905083856020840282011115611c5557600080fd5b60005b83811015611c815781611c6b8882611c01565b8452506020928301929190910190600101611c58565b5050505092915050565b60008083601f840112611c9d57600080fd5b50813567ffffffffffffffff811115611cb557600080fd5b60208301915083610140820283011115611cce57600080fd5b9250929050565b80356108db81612b66565b80516108db81612b66565b80516108db81612b6f565b600060e08284031215611d0857600080fd5b50919050565b600060e08284031215611d2057600080fd5b611d2a60e0612a92565b90506000611d388484611c01565b8252506020611d4984848301611c01565b6020830152506040611d5d84828501611c01565b6040830152506060611d7184828501611cd5565b6060830152506080611d8584828501611cd5565b60808301525060a0611d9984828501611cd5565b60a08301525060c0611dad84828501611cd5565b60c08301525092915050565b60006101408284031215611dcc57600080fd5b611dd660e0612a92565b90506000611de48484611c01565b8252506020611df584848301611c01565b6020830152506040611e0984828501611cd5565b6040830152506060611e1d84828501611cd5565b6060830152506080611e3184828501611cd5565b60808301525060a0611e4584828501611cd5565b60a08301525060c0611dad84828501600060808284031215611e6657600080fd5b611e706080612a92565b90506000611e7e8484611cd5565b8252506020611e8f84848301611ec3565b6020830152506040611ea384828501611cd5565b6040830152506060611eb784828501611cd5565b60608301525092915050565b80356108db81612b78565b600060208284031215611ee057600080fd5b60006112938484611c01565b600080600060608486031215611f0157600080fd5b6000611f0d8686611c01565b9350506020611f1e86828701611c01565b9250506040611f2f86828701611c01565b9150509250925092565b600080600060608486031215611f4e57600080fd5b6000611f5a8686611c01565b9350506020611f6b86828701611c01565b9250506040611f2f86828701611cd5565b60008060408385031215611f8f57600080fd5b6000611f9b8585611c01565b9250506020611fac85828601611cd5565b9150509250929050565b600060208284031215611fc857600080fd5b813567ffffffffffffffff811115611fdf57600080fd5b61129384828501611c0c565b600060208284031215611ffd57600080fd5b60006112938484611ce0565b60006020828403121561201b57600080fd5b60006112938484611ceb565b6000806000610100848603121561203d57600080fd5b60006120498686611cf6565b93505060e084013567ffffffffffffffff81111561206657600080fd5b61207286828701611c8b565b92509250509250925092565b600060e0828403121561209057600080fd5b60006112938484611d0e565b600061014082840312156120af57600080fd5b60006112938484611db9565b6120c481612aec565b82525050565b6120c481612af7565b6120c481612afc565b6120c46120e882612afc565b612afc565b6120c481612aff565b600061210182612ada565b61210b8185612ade565b935061211b818560208601612b1c565b61212481612b48565b9093019392505050565b600061213b601c83612ae7565b7f54496e697469616c697a61626c652e6973496e697469616c697a6564000000008152601c0192915050565b6000612174601f83612ade565b7f526f6c65733a206163636f756e7420616c72656164792068617320726f6c6500815260200192915050565b60006121ad601383612ade565b724143434f554e54535f4c4953545f454d50545960681b815260200192915050565b60006121dc601c83612ae7565b7f19457468657265756d205369676e6564204d6573736167653a0a3332000000008152601c0192915050565b6000612215601e83612ade565b7f4c4f414e5f5445524d535f524551554553545f4e4f4e43455f54414b454e0000815260200192915050565b600061224e601883612ade565b7f5349474e45525f414c52454144595f5355424d49545445440000000000000000815260200192915050565b6000612287602683612ade565b7f4f776e61626c653a206e6577206f776e657220697320746865207a65726f206181526564647265737360d01b602082015260400192915050565b60006122cf601483612ade565b73149154d413d394d154d7d513d3d7d5905492515160621b815260200192915050565b60006122ff601b83612ade565b7f536166654d6174683a206164646974696f6e206f766572666c6f770000000000815260200192915050565b6000612338601b83612ade565b7f53455454494e47535f4d5553545f42455f415f434f4e54524143540000000000815260200192915050565b6000612371601783612ade565b7f43414c4c45525f4d5553545f42455f434f4e5452414354000000000000000000815260200192915050565b60006123aa601283612ade565b7129a4a3a722a92fa727a721a2afaa20a5a2a760711b815260200192915050565b60006123d8601f83612ade565b7f524551535f4c4f414e5f5445524d535f4c4d545f455843454544535f4d415800815260200192915050565b6000612411602183612ade565b7f526f6c65733a206163636f756e7420646f6573206e6f74206861766520726f6c8152606560f81b602082015260400192915050565b6000612454602183612ade565b7f536166654d6174683a206d756c7469706c69636174696f6e206f766572666c6f8152607760f81b602082015260400192915050565b6000612497602083612ade565b7f4f776e61626c653a2063616c6c6572206973206e6f7420746865206f776e6572815260200192915050565b60006124d0602283612ade565b7f526f6c65733a206163636f756e7420697320746865207a65726f206164647265815261737360f01b602082015260400192915050565b6000612514602e83612ade565b7f436f6e747261637420696e7374616e63652068617320616c726561647920626581526d195b881a5b9a5d1a585b1a5e995960921b602082015260400192915050565b6000612564601083612ade565b6f149154d413d394d157d156141254915160821b815260200192915050565b6000612590601f83612ade565b7f4c4f414e5445524d5f494e53554646494349454e545f524553504f4e53455300815260200192915050565b60006125c9601183612ade565b7014d251d3905515549157d2539590531251607a1b815260200192915050565b60006125f6601883612ade565b7f53454e4445525f4841534e545f5045524d495353494f4e530000000000000000815260200192915050565b600061262f601883612ae7565b7f426173655570677261646561626c652e73657474696e67730000000000000000815260180192915050565b6000612668601883612ade565b7f434f4e54524143545f4e4f545f494e495449414c495a45440000000000000000815260200192915050565b60006126a1601c83612ade565b7f434f4e54524143545f414c52454144595f494e495449414c495a454400000000815260200192915050565b805160808301906126de84826120d3565b5060208201516126f160208501826120d3565b50604082015161270460408501826120d3565b50606082015161271760608501826120d3565b50505050565b6120c481612b16565b60006108db8261212e565b600061273c826121cf565b915061274882846120dc565b50602001919050565b60006108db82612622565b602081016108db82846120bb565b6101208101612779828c6120bb565b612786602083018b6120bb565b612793604083018a6120bb565b6127a060608301896120bb565b6127ad60808301886120d3565b6127ba60a08301876120d3565b6127c760c08301866120d3565b6127d460e08301856120d3565b6127e26101008301846120d3565b9a9950505050505050505050565b61010081016127ff828b6120bb565b61280c602083018a6120d3565b61281960408301896120d3565b61282660608301886120d3565b61283360808301876120d3565b61284060a08301866120d3565b61284d60c08301856120d3565b61285a60e08301846120d3565b9998505050505050505050565b602081016108db82846120ca565b602081016108db82846120d3565b6080810161289182876120d3565b61289e602083018661271d565b6128ab60408301856120d3565b6128b860608301846120d3565b95945050505050565b602081016108db82846120ed565b6020808252810161143c81846120f6565b602080825281016108db81612167565b602080825281016108db816121a0565b602080825281016108db81612208565b602080825281016108db81612241565b602080825281016108db8161227a565b602080825281016108db816122c2565b602080825281016108db816122f2565b602080825281016108db8161232b565b602080825281016108db81612364565b602080825281016108db8161239d565b602080825281016108db816123cb565b602080825281016108db81612404565b602080825281016108db81612447565b602080825281016108db8161248a565b602080825281016108db816124c3565b602080825281016108db81612507565b602080825281016108db81612557565b602080825281016108db81612583565b602080825281016108db816125bc565b602080825281016108db816125e9565b602080825281016108db8161265b565b602080825281016108db81612694565b6101808101612a4f82866126cd565b612a5c60808301856126cd565b6112936101008301846126cd565b60608101612a7882866120d3565b612a8560208301856120d3565b61129360408301846120d3565b60405181810167ffffffffffffffff81118282101715612ab157600080fd5b604052919050565b600067ffffffffffffffff821115612ad057600080fd5b5060209081020190565b5190565b90815260200190565b919050565b60006108db82612b0a565b151590565b90565b60006108db82612aec565b6001600160a01b031690565b60ff1690565b60005b83811015612b37578181015183820152602001612b1f565b838111156127175750506000910152565b601f01601f191690565b612b5b81612aec565b811461076f57600080fd5b612b5b81612afc565b612b5b81612aff565b612b5b81612b1656fea365627a7a723158204d2cd5485e9b6092fab38d7568dcdd76a4588b4ea6d39baa2beac1b335a3ede96c6578706572696d656e74616cf564736f6c63430005110040",
  "source": "pragma solidity 0.5.17;\npragma experimental ABIEncoderV2;\n\n// Contracts\nimport \"./Consensus.sol\";\n\n// Interfaces\nimport \"../interfaces/LoanTermsConsensusInterface.sol\";\n\n/*****************************************************************************************************/\n/**                                             WARNING                                             **/\n/**                                  THIS CONTRACT IS UPGRADEABLE!                                  **/\n/**  ---------------------------------------------------------------------------------------------  **/\n/**  Do NOT change the order of or PREPEND any storage variables to this or new versions of this    **/\n/**  contract as this will cause the the storage slots to be overwritten on the proxy contract!!    **/\n/**                                                                                                 **/\n/**  Visit https://docs.openzeppelin.com/upgrades/2.6/proxies#upgrading-via-the-proxy-pattern for   **/\n/**  more information.                                                                              **/\n/*****************************************************************************************************/\n/**\n    @notice This contract is used to process the loan requests through the Teller protocol\n\n    @author develop@teller.finance\n */\ncontract LoanTermsConsensus is LoanTermsConsensusInterface, Consensus {\n    /* Mappings */\n    /**\n        @notice It identifies the loan terms submissions for a given borrower address and a request nonce.\n\n        @dev Examples:\n            @address(0x123...567) => 1 => AccruedLoanTerms({...})\n            @address(0x123...567) => 2 => AccruedLoanTerms({...})\n            @address(0x234...678) => 1 => AccruedLoanTerms({...})\n     */\n    mapping(address => mapping(uint256 => TellerCommon.AccruedLoanTerms))\n        public termSubmissions;\n\n    /**\n        This mapping identify the last request timestamp for a given borrower address.\n\n            Example:    address(0x123...789) = timestamp(now)\n        \n        It is used as rate limit per borrower address.\n     */\n    mapping(address => uint256) public borrowerToLastLoanTermRequest;\n\n    /**\n        @notice Processes the loan request\n        @param request Struct of the protocol loan request\n        @param responses List of structs of the protocol loan responses\n        @return uint256 Interest rate\n        @return uint256 Collateral ratio\n        @return uint256 Maximum loan amount\n     */\n    function processRequest(\n        TellerCommon.LoanRequest calldata request,\n        TellerCommon.LoanResponse[] calldata responses\n    )\n        external\n        isInitialized()\n        isCaller(msg.sender)\n        returns (\n            uint256 interestRate,\n            uint256 collateralRatio,\n            uint256 maxLoanAmount\n        )\n    {\n        require(\n            responses.length >=\n                settings().getPlatformSettingValue(\n                    settings().consts().REQUIRED_SUBMISSIONS_SETTING()\n                ),\n            \"LOANTERM_INSUFFICIENT_RESPONSES\"\n        );\n        _requireRequestLoanTermsRateLimit(request);\n        require(\n            !requestNonceTaken[request.borrower][request.requestNonce],\n            \"LOAN_TERMS_REQUEST_NONCE_TAKEN\"\n        );\n        requestNonceTaken[request.borrower][request.requestNonce] = true;\n\n        bytes32 requestHash = _hashRequest(request);\n\n        for (uint256 i = 0; i < responses.length; i++) {\n            _processResponse(request, responses[i], requestHash);\n        }\n\n        interestRate = _getConsensus(\n            termSubmissions[request.borrower][request.requestNonce].interestRate\n        );\n        collateralRatio = _getConsensus(\n            termSubmissions[request.borrower][request.requestNonce].collateralRatio\n        );\n        maxLoanAmount = _getConsensus(\n            termSubmissions[request.borrower][request.requestNonce].maxLoanAmount\n        );\n        borrowerToLastLoanTermRequest[request.borrower] = now;\n\n        emit TermsAccepted(\n            request.borrower,\n            request.requestNonce,\n            interestRate,\n            collateralRatio,\n            maxLoanAmount\n        );\n    }\n\n    /**\n        @notice Processes the loan response\n        @param request Struct of the protocol loan request\n        @param response List of structs of the protocol loan responses\n        @param requestHash bytes32 Hash of the loan request\n     */\n    function _processResponse(\n        TellerCommon.LoanRequest memory request,\n        TellerCommon.LoanResponse memory response,\n        bytes32 requestHash\n    ) internal {\n        bytes32 responseHash = _hashResponse(response, requestHash);\n\n        _validateResponse(\n            response.signer,\n            request.borrower,\n            request.requestNonce,\n            response.responseTime,\n            responseHash,\n            response.signature\n        );\n\n        termSubmissions[request.borrower][request.requestNonce].interestRate.addValue(\n            response.interestRate\n        );\n        termSubmissions[request.borrower][request.requestNonce].collateralRatio.addValue(\n            response.collateralRatio\n        );\n        termSubmissions[request.borrower][request.requestNonce].maxLoanAmount.addValue(\n            response.maxLoanAmount\n        );\n\n        emit TermsSubmitted(\n            response.signer,\n            request.borrower,\n            request.requestNonce,\n            response.interestRate,\n            response.collateralRatio,\n            response.maxLoanAmount\n        );\n    }\n\n    /**\n        @notice Generates a hash for the loan response\n        @param response Structs of the protocol loan responses\n        @param requestHash Hash of the loan request\n        @return bytes32 Hash of the loan response\n     */\n    function _hashResponse(TellerCommon.LoanResponse memory response, bytes32 requestHash)\n        internal\n        view\n        returns (bytes32)\n    {\n        return\n            keccak256(\n                abi.encode(\n                    response.consensusAddress,\n                    response.responseTime,\n                    response.interestRate,\n                    response.collateralRatio,\n                    response.maxLoanAmount,\n                    response.signature.signerNonce,\n                    _getChainId(),\n                    requestHash\n                )\n            );\n    }\n\n    /**\n        @notice Generates a hash for the loan request\n        @param request Struct of the protocol loan request\n        @return bytes32 Hash of the loan request\n     */\n    function _hashRequest(TellerCommon.LoanRequest memory request)\n        internal\n        view\n        returns (bytes32)\n    {\n        return\n            keccak256(\n                abi.encode(\n                    callerAddress,\n                    request.borrower,\n                    request.recipient,\n                    request.consensusAddress,\n                    request.requestNonce,\n                    request.amount,\n                    request.duration,\n                    request.requestTime,\n                    _getChainId()\n                )\n            );\n    }\n\n    /**\n        @notice It validates whether the time window between the last loan terms request and current one exceeds the maximum rate limit.\n        @param request the new request.\n        @dev It throws a require error if the request rate limit exceeds the maximum.\n     */\n    function _requireRequestLoanTermsRateLimit(TellerCommon.LoanRequest memory request)\n        internal\n        view\n    {\n        // In case it is the first time that borrower requests loan terms, we don't validate the rate limit.\n        if (borrowerToLastLoanTermRequest[request.borrower] == 0) {\n            return;\n        }\n        uint256 requestLoanTermsRateLimit = settings().getPlatformSettingValue(\n            settings().consts().REQUEST_LOAN_TERMS_RATE_LIMIT_SETTING()\n        );\n        require(\n            borrowerToLastLoanTermRequest[request.borrower].add(\n                requestLoanTermsRateLimit\n            ) <= now,\n            \"REQS_LOAN_TERMS_LMT_EXCEEDS_MAX\"\n        );\n    }\n}\n",
  "sourcePath": "/Users/sy/Documents/GitHub/teller-protocol-v1/contracts/base/LoanTermsConsensus.sol",
  "compiler": {
    "name": "solc",
    "version": "0.5.17+commit.d19bba13.Emscripten.clang"
  },
  "schemaVersion": "3.0.23",
  "updatedAt": "2020-09-15T23:09:49.765Z",
  "devdoc": {
    "author": "develop@teller.finance",
    "methods": {
      "addSigner(address)": {
        "details": "The sender must be the owner.It throws a require error if the sender is not the owner.",
        "params": {
          "account": "address to add."
        }
      },
      "addSigners(address[])": {
        "details": "The sender must be the owner.It throws a require error if the sender is not the owner.",
        "params": {
          "accounts": "addresses to add."
        }
      },
      "initialize(address)": {
        "details": "Initializes the contract setting the deployer as the initial owner."
      },
      "initialize(address,address,address)": {
        "details": "The caller address must be the loans contract for LoanTermsConsensus, and the lenders contract for InterestConsensus.",
        "params": {
          "aCallerAddress": "the contract that will call it.",
          "aSettingAddress": "the settings contract address.",
          "owner": "the owner address."
        }
      },
      "initialized()": {
        "return": "true if contract is initialized. Otherwise it returns false."
      },
      "isOwner()": {
        "details": "Returns true if the caller is the current owner."
      },
      "isSigner(address)": {
        "params": {
          "account": "address to test."
        },
        "return": "true if account is a signer. Otherwise it returns false."
      },
      "owner()": {
        "details": "Returns the address of the current owner."
      },
      "processRequest((address,address,address,uint256,uint256,uint256,uint256),(address,address,uint256,uint256,uint256,uint256,(uint256,uint8,bytes32,bytes32))[])": {
        "params": {
          "request": "Struct of the protocol loan request",
          "responses": "List of structs of the protocol loan responses"
        },
        "return": "uint256 Interest rateuint256 Collateral ratiouint256 Maximum loan amount"
      },
      "removeSigner(address)": {
        "details": "The sender must be the owner.It throws a require error if the sender is not the owner.",
        "params": {
          "account": "address to remove."
        }
      },
      "renounceOwnership()": {
        "details": "Leaves the contract without owner. It will not be possible to call `onlyOwner` functions anymore. Can only be called by the current owner.     * > Note: Renouncing ownership will leave the contract without an owner, thereby removing any functionality that is only available to the owner."
      },
      "settings()": {
        "details": "This address should NOT change over the time. See details in the _setSettings(...) function."
      },
      "transferOwnership(address)": {
        "details": "Transfers ownership of the contract to a new account (`newOwner`). Can only be called by the current owner."
      }
    }
  },
  "userdoc": {
    "methods": {
      "addSigner(address)": {
        "notice": "It adds a new account as a signer."
      },
      "addSigners(address[])": {
        "notice": "It adds a list of account as signers."
      },
      "initialize(address,address,address)": {
        "notice": "It initializes this consensus contract."
      },
      "initialized()": {
        "notice": "Gets if the contract is initialized."
      },
      "isSigner(address)": {
        "notice": "Gets whether an account address is a signer or not."
      },
      "processRequest((address,address,address,uint256,uint256,uint256,uint256),(address,address,uint256,uint256,uint256,uint256,(uint256,uint8,bytes32,bytes32))[])": {
        "notice": "Processes the loan request"
      },
      "removeSigner(address)": {
        "notice": "It removes an account as signer."
      },
      "settings()": {
        "notice": "The gets the settings contract address from the SETTINGS_SLOT."
      }
    },
    "notice": "This contract is used to process the loan requests through the Teller protocol"
  }
}