{
  "contractName": "LoansMock",
  "abi": [
    {
      "inputs": [
        {
          "internalType": "address",
          "name": "priceOracleAddress",
          "type": "address"
        },
        {
          "internalType": "address",
          "name": "lendingPoolAddress",
          "type": "address"
        }
      ],
      "payable": false,
      "stateMutability": "nonpayable",
      "type": "constructor"
    },
    {
      "anonymous": false,
      "inputs": [
        {
          "indexed": true,
          "internalType": "uint256",
          "name": "loanID",
          "type": "uint256"
        },
        {
          "indexed": true,
          "internalType": "address",
          "name": "borrower",
          "type": "address"
        },
        {
          "indexed": false,
          "internalType": "uint256",
          "name": "depositAmount",
          "type": "uint256"
        }
      ],
      "name": "CollateralDeposited",
      "type": "event"
    },
    {
      "anonymous": false,
      "inputs": [
        {
          "indexed": true,
          "internalType": "uint256",
          "name": "loanID",
          "type": "uint256"
        },
        {
          "indexed": true,
          "internalType": "address",
          "name": "borrower",
          "type": "address"
        },
        {
          "indexed": false,
          "internalType": "uint256",
          "name": "depositAmount",
          "type": "uint256"
        }
      ],
      "name": "CollateralWithdrawn",
      "type": "event"
    },
    {
      "anonymous": false,
      "inputs": [
        {
          "indexed": true,
          "internalType": "uint256",
          "name": "loanID",
          "type": "uint256"
        },
        {
          "indexed": true,
          "internalType": "address",
          "name": "borrower",
          "type": "address"
        },
        {
          "indexed": false,
          "internalType": "uint256",
          "name": "interestRate",
          "type": "uint256"
        },
        {
          "indexed": false,
          "internalType": "uint256",
          "name": "collateralRatio",
          "type": "uint256"
        },
        {
          "indexed": false,
          "internalType": "uint256",
          "name": "maxLoanAmount",
          "type": "uint256"
        },
        {
          "indexed": false,
          "internalType": "uint256",
          "name": "numberDays",
          "type": "uint256"
        }
      ],
      "name": "LoanCreated",
      "type": "event"
    },
    {
      "anonymous": false,
      "inputs": [
        {
          "indexed": true,
          "internalType": "address",
          "name": "account",
          "type": "address"
        }
      ],
      "name": "SignerAdded",
      "type": "event"
    },
    {
      "anonymous": false,
      "inputs": [
        {
          "indexed": true,
          "internalType": "address",
          "name": "account",
          "type": "address"
        }
      ],
      "name": "SignerRemoved",
      "type": "event"
    },
    {
      "constant": false,
      "inputs": [
        {
          "internalType": "address",
          "name": "account",
          "type": "address"
        }
      ],
      "name": "addSigner",
      "outputs": [],
      "payable": false,
      "stateMutability": "nonpayable",
      "type": "function"
    },
    {
      "constant": false,
      "inputs": [
        {
          "internalType": "address",
          "name": "borrower",
          "type": "address"
        },
        {
          "internalType": "uint256",
          "name": "loanID",
          "type": "uint256"
        }
      ],
      "name": "depositCollateral",
      "outputs": [],
      "payable": true,
      "stateMutability": "payable",
      "type": "function"
    },
    {
      "constant": true,
      "inputs": [
        {
          "internalType": "address",
          "name": "borrower",
          "type": "address"
        }
      ],
      "name": "getBorrowerLoans",
      "outputs": [
        {
          "internalType": "uint256[]",
          "name": "",
          "type": "uint256[]"
        }
      ],
      "payable": false,
      "stateMutability": "view",
      "type": "function"
    },
    {
      "constant": true,
      "inputs": [
        {
          "internalType": "address",
          "name": "account",
          "type": "address"
        }
      ],
      "name": "isSigner",
      "outputs": [
        {
          "internalType": "bool",
          "name": "",
          "type": "bool"
        }
      ],
      "payable": false,
      "stateMutability": "view",
      "type": "function"
    },
    {
      "constant": true,
      "inputs": [],
      "name": "lendingPool",
      "outputs": [
        {
          "internalType": "contract LendingPoolInterface",
          "name": "",
          "type": "address"
        }
      ],
      "payable": false,
      "stateMutability": "view",
      "type": "function"
    },
    {
      "constant": false,
      "inputs": [
        {
          "internalType": "uint256",
          "name": "loanID",
          "type": "uint256"
        }
      ],
      "name": "liquidateLoan",
      "outputs": [],
      "payable": false,
      "stateMutability": "nonpayable",
      "type": "function"
    },
    {
      "constant": true,
      "inputs": [],
      "name": "loanIDCounter",
      "outputs": [
        {
          "internalType": "uint256",
          "name": "",
          "type": "uint256"
        }
      ],
      "payable": false,
      "stateMutability": "view",
      "type": "function"
    },
    {
      "constant": true,
      "inputs": [
        {
          "internalType": "uint256",
          "name": "",
          "type": "uint256"
        }
      ],
      "name": "loans",
      "outputs": [
        {
          "internalType": "uint256",
          "name": "id",
          "type": "uint256"
        },
        {
          "internalType": "uint256",
          "name": "collateral",
          "type": "uint256"
        },
        {
          "internalType": "uint256",
          "name": "maxLoanAmount",
          "type": "uint256"
        },
        {
          "internalType": "uint256",
          "name": "totalOwed",
          "type": "uint256"
        },
        {
          "internalType": "uint256",
          "name": "timeStart",
          "type": "uint256"
        },
        {
          "internalType": "uint256",
          "name": "timeEnd",
          "type": "uint256"
        },
        {
          "internalType": "uint256",
          "name": "interestRate",
          "type": "uint256"
        },
        {
          "internalType": "uint256",
          "name": "collateralRatio",
          "type": "uint256"
        },
        {
          "internalType": "address payable",
          "name": "borrower",
          "type": "address"
        },
        {
          "internalType": "bool",
          "name": "active",
          "type": "bool"
        },
        {
          "internalType": "bool",
          "name": "liquidated",
          "type": "bool"
        }
      ],
      "payable": false,
      "stateMutability": "view",
      "type": "function"
    },
    {
      "constant": true,
      "inputs": [],
      "name": "priceOracle",
      "outputs": [
        {
          "internalType": "contract PairAggregatorInterface",
          "name": "",
          "type": "address"
        }
      ],
      "payable": false,
      "stateMutability": "view",
      "type": "function"
    },
    {
      "constant": false,
      "inputs": [],
      "name": "renounceSigner",
      "outputs": [],
      "payable": false,
      "stateMutability": "nonpayable",
      "type": "function"
    },
    {
      "constant": false,
      "inputs": [
        {
          "internalType": "uint256",
          "name": "amount",
          "type": "uint256"
        },
        {
          "internalType": "uint256",
          "name": "loanID",
          "type": "uint256"
        }
      ],
      "name": "repay",
      "outputs": [],
      "payable": false,
      "stateMutability": "nonpayable",
      "type": "function"
    },
    {
      "constant": true,
      "inputs": [
        {
          "internalType": "address",
          "name": "",
          "type": "address"
        },
        {
          "internalType": "uint256",
          "name": "",
          "type": "uint256"
        }
      ],
      "name": "signerNonceTaken",
      "outputs": [
        {
          "internalType": "bool",
          "name": "",
          "type": "bool"
        }
      ],
      "payable": false,
      "stateMutability": "view",
      "type": "function"
    },
    {
      "constant": false,
      "inputs": [
        {
          "internalType": "uint256",
          "name": "interestRate",
          "type": "uint256"
        },
        {
          "internalType": "uint256",
          "name": "collateralRatio",
          "type": "uint256"
        },
        {
          "internalType": "uint256",
          "name": "maxLoanAmount",
          "type": "uint256"
        },
        {
          "internalType": "uint256",
          "name": "numberDays",
          "type": "uint256"
        },
        {
          "internalType": "uint256",
          "name": "amountBorrow",
          "type": "uint256"
        },
        {
          "components": [
            {
              "internalType": "uint256",
              "name": "signerNonce",
              "type": "uint256"
            },
            {
              "internalType": "uint8",
              "name": "v",
              "type": "uint8"
            },
            {
              "internalType": "bytes32",
              "name": "r",
              "type": "bytes32"
            },
            {
              "internalType": "bytes32",
              "name": "s",
              "type": "bytes32"
            }
          ],
          "internalType": "struct ZeroCollateralCommon.Signature",
          "name": "signature",
          "type": "tuple"
        }
      ],
      "name": "takeOutLoan",
      "outputs": [
        {
          "internalType": "uint256",
          "name": "",
          "type": "uint256"
        }
      ],
      "payable": true,
      "stateMutability": "payable",
      "type": "function"
    },
    {
      "constant": true,
      "inputs": [],
      "name": "totalCollateral",
      "outputs": [
        {
          "internalType": "uint256",
          "name": "",
          "type": "uint256"
        }
      ],
      "payable": false,
      "stateMutability": "view",
      "type": "function"
    },
    {
      "constant": false,
      "inputs": [
        {
          "internalType": "uint256",
          "name": "amount",
          "type": "uint256"
        },
        {
          "internalType": "uint256",
          "name": "loanID",
          "type": "uint256"
        }
      ],
      "name": "withdrawCollateral",
      "outputs": [],
      "payable": false,
      "stateMutability": "nonpayable",
      "type": "function"
    },
    {
      "constant": false,
      "inputs": [
        {
          "internalType": "uint256",
          "name": "newLoanIdCounter",
          "type": "uint256"
        }
      ],
      "name": "setLoanIDCounter",
      "outputs": [],
      "payable": false,
      "stateMutability": "nonpayable",
      "type": "function"
    }
  ],
  "bytecode": "0x60806040523480156200001157600080fd5b5060405162003571380380620035718339818101604052620000379190810190620003c9565b8181620000596200004d620001cb60201b60201c565b620001d360201b60201c565b600073ffffffffffffffffffffffffffffffffffffffff168273ffffffffffffffffffffffffffffffffffffffff161415620000cc576040517f08c379a0000000000000000000000000000000000000000000000000000000008152600401620000c3906200057c565b60405180910390fd5b600073ffffffffffffffffffffffffffffffffffffffff168173ffffffffffffffffffffffffffffffffffffffff1614156200013f576040517f08c379a000000000000000000000000000000000000000000000000000000000815260040162000136906200055a565b60405180910390fd5b81600360006101000a81548173ffffffffffffffffffffffffffffffffffffffff021916908373ffffffffffffffffffffffffffffffffffffffff16021790555080600460006101000a81548173ffffffffffffffffffffffffffffffffffffffff021916908373ffffffffffffffffffffffffffffffffffffffff160217905550505050506200061f565b600033905090565b620001ee8160006200023460201b62001f381790919060201c565b8073ffffffffffffffffffffffffffffffffffffffff167f47d1c22a25bb3a5d4e481b9b1e6944c2eade3181a0a20b495ed61d35b5323f2460405160405180910390a250565b620002468282620002e760201b60201c565b1562000289576040517f08c379a0000000000000000000000000000000000000000000000000000000008152600401620002809062000538565b60405180910390fd5b60018260000160008373ffffffffffffffffffffffffffffffffffffffff1673ffffffffffffffffffffffffffffffffffffffff16815260200190815260200160002060006101000a81548160ff0219169083151502179055505050565b60008073ffffffffffffffffffffffffffffffffffffffff168273ffffffffffffffffffffffffffffffffffffffff1614156200035b576040517f08c379a000000000000000000000000000000000000000000000000000000000815260040162000352906200059e565b60405180910390fd5b8260000160008373ffffffffffffffffffffffffffffffffffffffff1673ffffffffffffffffffffffffffffffffffffffff16815260200190815260200160002060009054906101000a900460ff16905092915050565b600081519050620003c38162000605565b92915050565b60008060408385031215620003dd57600080fd5b6000620003ed85828601620003b2565b92505060206200040085828601620003b2565b9150509250929050565b600062000419601f83620005c0565b91507f526f6c65733a206163636f756e7420616c72656164792068617320726f6c65006000830152602082019050919050565b60006200045b601b83620005c0565b91507f50524f564944455f4c454e44494e47504f4f4c5f4144445245535300000000006000830152602082019050919050565b60006200049d601683620005c0565b91507f50524f564944455f4f5241434c455f41444452455353000000000000000000006000830152602082019050919050565b6000620004df602283620005c0565b91507f526f6c65733a206163636f756e7420697320746865207a65726f20616464726560008301527f73730000000000000000000000000000000000000000000000000000000000006020830152604082019050919050565b6000602082019050818103600083015262000553816200040a565b9050919050565b6000602082019050818103600083015262000575816200044c565b9050919050565b6000602082019050818103600083015262000597816200048e565b9050919050565b60006020820190508181036000830152620005b981620004d0565b9050919050565b600082825260208201905092915050565b6000620005de82620005e5565b9050919050565b600073ffffffffffffffffffffffffffffffffffffffff82169050919050565b6200061081620005d1565b81146200061c57600080fd5b50565b612f42806200062f6000396000f3fe6080604052600436106100f35760003560e01c8063a59a99731161008a578063e1ec3c6811610059578063e1ec3c681461030e578063e5c8b03d14610355578063eb12d61e1461036c578063eee8b7ff14610395576100f3565b8063a59a997314610275578063a5d5db0c146102a0578063ccdd9f5d146102bc578063d8aed145146102e5576100f3565b806351348454116100c657806351348454146101a757806368fcdeb8146101d2578063767a7b051461020f5780637df73e2714610238576100f3565b806309b6a009146100f85780632630c12f1461012857806342c3c0fb146101535780634ac8eb5f1461017c575b600080fd5b610112600480360361010d9190810190612180565b6103d2565b60405161011f9190612b67565b60405180910390f35b34801561013457600080fd5b5061013d6109c4565b60405161014a919061292a565b60405180910390f35b34801561015f57600080fd5b5061017a600480360361017591908101906120f2565b6109ea565b005b34801561018857600080fd5b506101916109f4565b60405161019e9190612b67565b60405180910390f35b3480156101b357600080fd5b506101bc6109fa565b6040516101c99190612b67565b60405180910390f35b3480156101de57600080fd5b506101f960048036036101f4919081019061208d565b610a00565b60405161020691906128af565b60405180910390f35b34801561021b57600080fd5b5061023660048036036102319190810190612144565b610a2f565b005b34801561024457600080fd5b5061025f600480360361025a9190810190612064565b610d7c565b60405161026c91906128af565b60405180910390f35b34801561028157600080fd5b5061028a610d99565b604051610297919061290f565b60405180910390f35b6102ba60048036036102b5919081019061208d565b610dbf565b005b3480156102c857600080fd5b506102e360048036036102de91908101906120f2565b610f6f565b005b3480156102f157600080fd5b5061030c60048036036103079190810190612144565b611359565b005b34801561031a57600080fd5b50610335600480360361033091908101906120f2565b6115c6565b60405161034c9b9a99989796959493929190612c51565b60405180910390f35b34801561036157600080fd5b5061036a61165a565b005b34801561037857600080fd5b50610393600480360361038e9190810190612064565b61166c565b005b3480156103a157600080fd5b506103bc60048036036103b79190810190612064565b6116c7565b6040516103c9919061288d565b60405180910390f35b600084831115610417576040517f08c379a000000000000000000000000000000000000000000000000000000000815260040161040e90612a47565b60405180910390fd5b6000600161042d8989338a8a896000013561175e565b60405160200161043d9190612867565b60405160208183030381529060405280519060200120846020016020610466919081019061220a565b856040013586606001356040516000815260200160405260405161048d94939291906128ca565b6020604051602081039080840390855afa1580156104af573d6000803e3d6000fd5b5050506020604051035190506104c481610d7c565b610503576040517f08c379a00000000000000000000000000000000000000000000000000000000081526004016104fa90612987565b60405180910390fd5b600760008273ffffffffffffffffffffffffffffffffffffffff1673ffffffffffffffffffffffffffffffffffffffff16815260200190815260200160002060008460000135815260200190815260200160002060009054906101000a900460ff16156105a5576040517f08c379a000000000000000000000000000000000000000000000000000000000815260040161059c90612a67565b60405180910390fd5b6001600760008373ffffffffffffffffffffffffffffffffffffffff1673ffffffffffffffffffffffffffffffffffffffff16815260200190815260200160002060008560000135815260200190815260200160002060006101000a81548160ff021916908315150217905550610627610e104261179d90919063ffffffff16565b600360009054906101000a900473ffffffffffffffffffffffffffffffffffffffff1673ffffffffffffffffffffffffffffffffffffffff1663f43b52cb6040518163ffffffff1660e01b815260040160206040518083038186803b15801561068f57600080fd5b505afa1580156106a3573d6000803e3d6000fd5b505050506040513d601f19601f820116820180604052506106c7919081019061211b565b1015610708576040517f08c379a00000000000000000000000000000000000000000000000000000000081526004016106ff90612a27565b60405180910390fd5b6000600360009054906101000a900473ffffffffffffffffffffffffffffffffffffffff1673ffffffffffffffffffffffffffffffffffffffff166396237c026040518163ffffffff1660e01b815260040160206040518083038186803b15801561077257600080fd5b505afa158015610786573d6000803e3d6000fd5b505050506040513d601f19601f820116820180604052506107aa91908101906120c9565b90506107d36127106107c58a886117e790919063ffffffff16565b61185790919063ffffffff16565b6107e682346117e790919063ffffffff16565b1015610827576040517f08c379a000000000000000000000000000000000000000000000000000000000815260040161081e90612ac7565b60405180910390fd5b61083489898989896118a1565b60006002549050600560003373ffffffffffffffffffffffffffffffffffffffff1673ffffffffffffffffffffffffffffffffffffffff1681526020019081526020016000208190806001815401808255809150509060018203906000526020600020016000909192909190915055506001600260008282540192505081905550600460009054906101000a900473ffffffffffffffffffffffffffffffffffffffff1673ffffffffffffffffffffffffffffffffffffffff1663272e848e87336040518363ffffffff1660e01b8152600401610912929190612b82565b600060405180830381600087803b15801561092c57600080fd5b505af1158015610940573d6000803e3d6000fd5b5050505061095934600154611a8990919063ffffffff16565b6001819055503373ffffffffffffffffffffffffffffffffffffffff16817f2b6e7be0390a80ec9c24c00d1dbf95d0cc27e42970c49fdd9d2d9f8b7a8764668c8c8c8c6040516109ac9493929190612c0c565b60405180910390a38093505050509695505050505050565b600360009054906101000a900473ffffffffffffffffffffffffffffffffffffffff1681565b8060028190555050565b60015481565b60025481565b60076020528160005260406000206020528060005260406000206000915091509054906101000a900460ff1681565b806002548110610a74576040517f08c379a0000000000000000000000000000000000000000000000000000000008152600401610a6b90612a87565b60405180910390fd5b6006600083815260200190815260200160002060080160009054906101000a900473ffffffffffffffffffffffffffffffffffffffff1673ffffffffffffffffffffffffffffffffffffffff163373ffffffffffffffffffffffffffffffffffffffff1614610b18576040517f08c379a0000000000000000000000000000000000000000000000000000000008152600401610b0f90612b47565b60405180910390fd5b6000610b2383611ade565b9050610b3a610e104261179d90919063ffffffff16565b600360009054906101000a900473ffffffffffffffffffffffffffffffffffffffff1673ffffffffffffffffffffffffffffffffffffffff1663f43b52cb6040518163ffffffff1660e01b815260040160206040518083038186803b158015610ba257600080fd5b505afa158015610bb6573d6000803e3d6000fd5b505050506040513d601f19601f82011682018060405250610bda919081019061211b565b1015610c1b576040517f08c379a0000000000000000000000000000000000000000000000000000000008152600401610c1290612a27565b60405180910390fd5b6000600360009054906101000a900473ffffffffffffffffffffffffffffffffffffffff1673ffffffffffffffffffffffffffffffffffffffff166396237c026040518163ffffffff1660e01b815260040160206040518083038186803b158015610c8557600080fd5b505afa158015610c99573d6000803e3d6000fd5b505050506040513d601f19601f82011682018060405250610cbd91908101906120c9565b90506000610cd4828461185790919063ffffffff16565b90506000610d0182600660008981526020019081526020016000206001015461179d90919063ffffffff16565b905086811115610d0f578690505b6000811115610d2457610d23868233611b45565b5b3373ffffffffffffffffffffffffffffffffffffffff16867f7c5e5cb62e5ed3caf3764e4b0afedfedef533e27809d43367799787ad2abcd4183604051610d6b9190612b67565b60405180910390a350505050505050565b6000610d92826000611bef90919063ffffffff16565b9050919050565b600460009054906101000a900473ffffffffffffffffffffffffffffffffffffffff1681565b806002548110610e04576040517f08c379a0000000000000000000000000000000000000000000000000000000008152600401610dfb90612a87565b60405180910390fd5b8273ffffffffffffffffffffffffffffffffffffffff166006600084815260200190815260200160002060080160009054906101000a900473ffffffffffffffffffffffffffffffffffffffff1673ffffffffffffffffffffffffffffffffffffffff1614610ea8576040517f08c379a0000000000000000000000000000000000000000000000000000000008152600401610e9f906129c7565b60405180910390fd5b6006600083815260200190815260200160002060080160149054906101000a900460ff16610f0b576040517f08c379a0000000000000000000000000000000000000000000000000000000008152600401610f0290612a07565b60405180910390fd5b6000349050610f1a8382611cb7565b8373ffffffffffffffffffffffffffffffffffffffff16837feec2f3feb835e2f2fd44281034b04700a1ddda63dd402949d470a25a7c40b36c83604051610f619190612b67565b60405180910390a350505050565b806002548110610fb4576040517f08c379a0000000000000000000000000000000000000000000000000000000008152600401610fab90612a87565b60405180910390fd5b6006600083815260200190815260200160002060080160149054906101000a900460ff16611017576040517f08c379a000000000000000000000000000000000000000000000000000000000815260040161100e90612a07565b60405180910390fd5b61102c610e104261179d90919063ffffffff16565b600360009054906101000a900473ffffffffffffffffffffffffffffffffffffffff1673ffffffffffffffffffffffffffffffffffffffff1663f43b52cb6040518163ffffffff1660e01b815260040160206040518083038186803b15801561109457600080fd5b505afa1580156110a8573d6000803e3d6000fd5b505050506040513d601f19601f820116820180604052506110cc919081019061211b565b101561110d576040517f08c379a000000000000000000000000000000000000000000000000000000000815260040161110490612a27565b60405180910390fd5b6000600360009054906101000a900473ffffffffffffffffffffffffffffffffffffffff1673ffffffffffffffffffffffffffffffffffffffff166396237c026040518163ffffffff1660e01b815260040160206040518083038186803b15801561117757600080fd5b505afa15801561118b573d6000803e3d6000fd5b505050506040513d601f19601f820116820180604052506111af91908101906120c9565b905060006111dc8260066000878152602001908152602001600020600101546117e790919063ffffffff16565b905060006111e985611ade565b90508181118061120e5750426006600087815260200190815260200160002060050154105b61124d576040517f08c379a0000000000000000000000000000000000000000000000000000000008152600401611244906129e7565b60405180910390fd5b60006006600087815260200190815260200160002060080160146101000a81548160ff021916908315150217905550600460009054906101000a900473ffffffffffffffffffffffffffffffffffffffff1673ffffffffffffffffffffffffffffffffffffffff166382f7b0276112e160646112d3605f876117e790919063ffffffff16565b61185790919063ffffffff16565b336040518363ffffffff1660e01b81526004016112ff929190612b82565b600060405180830381600087803b15801561131957600080fd5b505af115801561132d573d6000803e3d6000fd5b5050505061135285600660008881526020019081526020016000206001015433611b45565b5050505050565b80600254811061139e576040517f08c379a000000000000000000000000000000000000000000000000000000000815260040161139590612a87565b60405180910390fd5b6006600083815260200190815260200160002060080160149054906101000a900460ff16611401576040517f08c379a00000000000000000000000000000000000000000000000000000000081526004016113f890612a07565b60405180910390fd5b6000839050806006600085815260200190815260200160002060030154101561143e57600660008481526020019081526020016000206003015490505b60008111156115c05761147081600660008681526020019081526020016000206003015461179d90919063ffffffff16565b60066000858152602001908152602001600020600301819055506000600660008581526020019081526020016000206003015414156115305760006006600085815260200190815260200160002060080160146101000a81548160ff02191690831515021790555061152f8360066000868152602001908152602001600020600101546006600087815260200190815260200160002060080160009054906101000a900473ffffffffffffffffffffffffffffffffffffffff16611b45565b5b600460009054906101000a900473ffffffffffffffffffffffffffffffffffffffff1673ffffffffffffffffffffffffffffffffffffffff1663acb7081582336040518363ffffffff1660e01b815260040161158d929190612b82565b600060405180830381600087803b1580156115a757600080fd5b505af11580156115bb573d6000803e3d6000fd5b505050505b50505050565b60066020528060005260406000206000915090508060000154908060010154908060020154908060030154908060040154908060050154908060060154908060070154908060080160009054906101000a900473ffffffffffffffffffffffffffffffffffffffff16908060080160149054906101000a900460ff16908060080160159054906101000a900460ff1690508b565b61166a611665611d19565b611d21565b565b61167c611677611d19565b610d7c565b6116bb576040517f08c379a00000000000000000000000000000000000000000000000000000000081526004016116b290612b27565b60405180910390fd5b6116c481611d7b565b50565b6060600560008373ffffffffffffffffffffffffffffffffffffffff1673ffffffffffffffffffffffffffffffffffffffff16815260200190815260200160002080548060200260200160405190810160405280929190818152602001828054801561175257602002820191906000526020600020905b81548152602001906001019080831161173e575b50505050509050919050565b600086868686868660405160200161177b96959493929190612bab565b6040516020818303038152906040528051906020012090509695505050505050565b60006117df83836040518060400160405280601e81526020017f536166654d6174683a207375627472616374696f6e206f766572666c6f770000815250611dd5565b905092915050565b6000808314156117fa5760009050611851565b600082840290508284828161180b57fe5b041461184c576040517f08c379a000000000000000000000000000000000000000000000000000000000815260040161184390612ae7565b60405180910390fd5b809150505b92915050565b600061189983836040518060400160405280601a81526020017f536166654d6174683a206469766973696f6e206279207a65726f000000000000815250611e30565b905092915050565b604051806101600160405280600254815260200134815260200184815260200161192061191161016d6119036127106118f5896118e78e8b6117e790919063ffffffff16565b6117e790919063ffffffff16565b61185790919063ffffffff16565b61185790919063ffffffff16565b84611a8990919063ffffffff16565b815260200142815260200161195361194462015180866117e790919063ffffffff16565b42611a8990919063ffffffff16565b81526020018681526020018581526020013373ffffffffffffffffffffffffffffffffffffffff16815260200160011515815260200160001515815250600660006002548152602001908152602001600020600082015181600001556020820151816001015560408201518160020155606082015181600301556080820151816004015560a0820151816005015560c0820151816006015560e082015181600701556101008201518160080160006101000a81548173ffffffffffffffffffffffffffffffffffffffff021916908373ffffffffffffffffffffffffffffffffffffffff1602179055506101208201518160080160146101000a81548160ff0219169083151502179055506101408201518160080160156101000a81548160ff0219169083151502179055509050505050505050565b600080828401905083811015611ad4576040517f08c379a0000000000000000000000000000000000000000000000000000000008152600401611acb906129a7565b60405180910390fd5b8091505092915050565b60008060066000848152602001908152602001600020600301549050600060066000858152602001908152602001600020600701549050611b3c612710611b2e83856117e790919063ffffffff16565b61185790919063ffffffff16565b92505050919050565b611b5a8260015461179d90919063ffffffff16565b600181905550611b8982600660008681526020019081526020016000206001015461179d90919063ffffffff16565b60066000858152602001908152602001600020600101819055508073ffffffffffffffffffffffffffffffffffffffff166108fc839081150290604051600060405180830381858888f19350505050158015611be9573d6000803e3d6000fd5b50505050565b60008073ffffffffffffffffffffffffffffffffffffffff168273ffffffffffffffffffffffffffffffffffffffff161415611c60576040517f08c379a0000000000000000000000000000000000000000000000000000000008152600401611c5790612b07565b60405180910390fd5b8260000160008373ffffffffffffffffffffffffffffffffffffffff1673ffffffffffffffffffffffffffffffffffffffff16815260200190815260200160002060009054906101000a900460ff16905092915050565b611ccc81600154611a8990919063ffffffff16565b600181905550611cfb816006600085815260200190815260200160002060010154611a8990919063ffffffff16565b60066000848152602001908152602001600020600101819055505050565b600033905090565b611d35816000611e9190919063ffffffff16565b8073ffffffffffffffffffffffffffffffffffffffff167f3525e22824a8a7df2c9a6029941c824cf95b6447f1e13d5128fd3826d35afe8b60405160405180910390a250565b611d8f816000611f3890919063ffffffff16565b8073ffffffffffffffffffffffffffffffffffffffff167f47d1c22a25bb3a5d4e481b9b1e6944c2eade3181a0a20b495ed61d35b5323f2460405160405180910390a250565b6000838311158290611e1d576040517f08c379a0000000000000000000000000000000000000000000000000000000008152600401611e149190612945565b60405180910390fd5b5060008385039050809150509392505050565b60008083118290611e77576040517f08c379a0000000000000000000000000000000000000000000000000000000008152600401611e6e9190612945565b60405180910390fd5b506000838581611e8357fe5b049050809150509392505050565b611e9b8282611bef565b611eda576040517f08c379a0000000000000000000000000000000000000000000000000000000008152600401611ed190612aa7565b60405180910390fd5b60008260000160008373ffffffffffffffffffffffffffffffffffffffff1673ffffffffffffffffffffffffffffffffffffffff16815260200190815260200160002060006101000a81548160ff0219169083151502179055505050565b611f428282611bef565b15611f82576040517f08c379a0000000000000000000000000000000000000000000000000000000008152600401611f7990612967565b60405180910390fd5b60018260000160008373ffffffffffffffffffffffffffffffffffffffff1673ffffffffffffffffffffffffffffffffffffffff16815260200190815260200160002060006101000a81548160ff0219169083151502179055505050565b600081359050611fef81612ea3565b92915050565b60008151905061200481612eba565b92915050565b60006080828403121561201c57600080fd5b81905092915050565b60008135905061203481612ed1565b92915050565b60008151905061204981612ed1565b92915050565b60008135905061205e81612ee8565b92915050565b60006020828403121561207657600080fd5b600061208484828501611fe0565b91505092915050565b600080604083850312156120a057600080fd5b60006120ae85828601611fe0565b92505060206120bf85828601612025565b9150509250929050565b6000602082840312156120db57600080fd5b60006120e984828501611ff5565b91505092915050565b60006020828403121561210457600080fd5b600061211284828501612025565b91505092915050565b60006020828403121561212d57600080fd5b600061213b8482850161203a565b91505092915050565b6000806040838503121561215757600080fd5b600061216585828601612025565b925050602061217685828601612025565b9150509250929050565b600080600080600080610120878903121561219a57600080fd5b60006121a889828a01612025565b96505060206121b989828a01612025565b95505060406121ca89828a01612025565b94505060606121db89828a01612025565b93505060806121ec89828a01612025565b92505060a06121fd89828a0161200a565b9150509295509295509295565b60006020828403121561221c57600080fd5b600061222a8482850161204f565b91505092915050565b600061223f838361283a565b60208301905092915050565b61225481612dd7565b82525050565b61226381612d6e565b82525050565b61227281612d5c565b82525050565b600061228382612d0c565b61228d8185612d2f565b935061229883612cfc565b8060005b838110156122c95781516122b08882612233565b97506122bb83612d22565b92505060018101905061229c565b5085935050505092915050565b6122df81612d80565b82525050565b6122ee81612d8c565b82525050565b61230561230082612d8c565b612e88565b82525050565b61231481612de9565b82525050565b61232381612e0d565b82525050565b600061233482612d17565b61233e8185612d40565b935061234e818560208601612e55565b61235781612e92565b840191505092915050565b600061236f601f83612d40565b91507f526f6c65733a206163636f756e7420616c72656164792068617320726f6c65006000830152602082019050919050565b60006123af601c83612d51565b91507f19457468657265756d205369676e6564204d6573736167653a0a3332000000006000830152601c82019050919050565b60006123ef601583612d40565b91507f5349474e45525f4e4f545f415554484f52495a454400000000000000000000006000830152602082019050919050565b600061242f601b83612d40565b91507f536166654d6174683a206164646974696f6e206f766572666c6f7700000000006000830152602082019050919050565b600061246f601983612d40565b91507f424f52524f5745525f4c4f414e5f49445f4d49534d41544348000000000000006000830152602082019050919050565b60006124af601783612d40565b91507f444f45534e545f4e4545445f4c49515549444154494f4e0000000000000000006000830152602082019050919050565b60006124ef600f83612d40565b91507f4c4f414e5f4e4f545f41435449564500000000000000000000000000000000006000830152602082019050919050565b600061252f601083612d40565b91507f4f5241434c455f50524943455f4f4c44000000000000000000000000000000006000830152602082019050919050565b600061256f601c83612d40565b91507f424f52524f575f414d4f554e545f4e4f545f415554484f52495a4544000000006000830152602082019050919050565b60006125af601283612d40565b91507f5349474e45525f4e4f4e43455f54414b454e00000000000000000000000000006000830152602082019050919050565b60006125ef600f83612d40565b91507f4c4f414e5f49445f494e56414c494400000000000000000000000000000000006000830152602082019050919050565b600061262f602183612d40565b91507f526f6c65733a206163636f756e7420646f6573206e6f74206861766520726f6c60008301527f65000000000000000000000000000000000000000000000000000000000000006020830152604082019050919050565b6000612695601883612d40565b91507f4d4f52455f434f4c4c41544552414c5f524551554952454400000000000000006000830152602082019050919050565b60006126d5602183612d40565b91507f536166654d6174683a206d756c7469706c69636174696f6e206f766572666c6f60008301527f77000000000000000000000000000000000000000000000000000000000000006020830152604082019050919050565b600061273b602283612d40565b91507f526f6c65733a206163636f756e7420697320746865207a65726f20616464726560008301527f73730000000000000000000000000000000000000000000000000000000000006020830152604082019050919050565b60006127a1603083612d40565b91507f5369676e6572526f6c653a2063616c6c657220646f6573206e6f74206861766560008301527f20746865205369676e657220726f6c65000000000000000000000000000000006020830152604082019050919050565b6000612807601683612d40565b91507f43414c4c45525f444f45534e545f4f574e5f4c4f414e000000000000000000006000830152602082019050919050565b61284381612dc0565b82525050565b61285281612dc0565b82525050565b61286181612dca565b82525050565b6000612872826123a2565b915061287e82846122f4565b60208201915081905092915050565b600060208201905081810360008301526128a78184612278565b905092915050565b60006020820190506128c460008301846122d6565b92915050565b60006080820190506128df60008301876122e5565b6128ec6020830186612858565b6128f960408301856122e5565b61290660608301846122e5565b95945050505050565b6000602082019050612924600083018461230b565b92915050565b600060208201905061293f600083018461231a565b92915050565b6000602082019050818103600083015261295f8184612329565b905092915050565b6000602082019050818103600083015261298081612362565b9050919050565b600060208201905081810360008301526129a0816123e2565b9050919050565b600060208201905081810360008301526129c081612422565b9050919050565b600060208201905081810360008301526129e081612462565b9050919050565b60006020820190508181036000830152612a00816124a2565b9050919050565b60006020820190508181036000830152612a20816124e2565b9050919050565b60006020820190508181036000830152612a4081612522565b9050919050565b60006020820190508181036000830152612a6081612562565b9050919050565b60006020820190508181036000830152612a80816125a2565b9050919050565b60006020820190508181036000830152612aa0816125e2565b9050919050565b60006020820190508181036000830152612ac081612622565b9050919050565b60006020820190508181036000830152612ae081612688565b9050919050565b60006020820190508181036000830152612b00816126c8565b9050919050565b60006020820190508181036000830152612b208161272e565b9050919050565b60006020820190508181036000830152612b4081612794565b9050919050565b60006020820190508181036000830152612b60816127fa565b9050919050565b6000602082019050612b7c6000830184612849565b92915050565b6000604082019050612b976000830185612849565b612ba4602083018461224b565b9392505050565b600060c082019050612bc06000830189612849565b612bcd6020830188612849565b612bda6040830187612269565b612be76060830186612849565b612bf46080830185612849565b612c0160a0830184612849565b979650505050505050565b6000608082019050612c216000830187612849565b612c2e6020830186612849565b612c3b6040830185612849565b612c486060830184612849565b95945050505050565b600061016082019050612c67600083018e612849565b612c74602083018d612849565b612c81604083018c612849565b612c8e606083018b612849565b612c9b608083018a612849565b612ca860a0830189612849565b612cb560c0830188612849565b612cc260e0830187612849565b612cd061010083018661225a565b612cde6101208301856122d6565b612cec6101408301846122d6565b9c9b505050505050505050505050565b6000819050602082019050919050565b600081519050919050565b600081519050919050565b6000602082019050919050565b600082825260208201905092915050565b600082825260208201905092915050565b600081905092915050565b6000612d6782612da0565b9050919050565b6000612d7982612da0565b9050919050565b60008115159050919050565b6000819050919050565b6000819050919050565b600073ffffffffffffffffffffffffffffffffffffffff82169050919050565b6000819050919050565b600060ff82169050919050565b6000612de282612e31565b9050919050565b6000612df482612dfb565b9050919050565b6000612e0682612da0565b9050919050565b6000612e1882612e1f565b9050919050565b6000612e2a82612da0565b9050919050565b6000612e3c82612e43565b9050919050565b6000612e4e82612da0565b9050919050565b60005b83811015612e73578082015181840152602081019050612e58565b83811115612e82576000848401525b50505050565b6000819050919050565b6000601f19601f8301169050919050565b612eac81612d5c565b8114612eb757600080fd5b50565b612ec381612d96565b8114612ece57600080fd5b50565b612eda81612dc0565b8114612ee557600080fd5b50565b612ef181612dca565b8114612efc57600080fd5b5056fea365627a7a723158203706c1cef5e1ed869be26352a1054e28ee63264cc8ae97768d508cf0a66ff1296c6578706572696d656e74616cf564736f6c63430005110040",
  "source": "// This is just to be used as a LendingPool template for the gnosis Mock Contracts, until the LendingPool contract\n// is completed. At that point we can use that as the template\npragma solidity 0.5.17;\npragma experimental ABIEncoderV2;\n\nimport \"../../base/Loans.sol\";\n\ncontract LoansMock is Loans {\n\n    constructor(address priceOracleAddress, address lendingPoolAddress)\n        public\n        Loans(priceOracleAddress, lendingPoolAddress) { }\n\n    function setLoanIDCounter(uint256 newLoanIdCounter)\n        external\n    {\n        loanIDCounter = newLoanIdCounter;\n    }\n}",
  "sourcePath": "/home/jalil/Programs/zero-collateral-v1/contracts/mock/base/LoansMock.sol",
  "compiler": {
    "name": "solc",
    "version": "0.5.17+commit.d19bba13.Emscripten.clang"
  },
  "schemaVersion": "3.0.23",
  "updatedAt": "2020-04-29T14:20:38.808Z",
  "devdoc": {
    "methods": {
      "depositCollateral(address,uint256)": {
        "params": {
          "borrower": "address The address of the loan borrower.",
          "loanID": "uint256 The ID of the loan the collateral is for"
        }
      },
      "getBorrowerLoans(address)": {
        "params": {
          "borrower": "address The borrower's address"
        }
      },
      "liquidateLoan(uint256)": {
        "params": {
          "loanID": "uint256 The ID of the loan to be liquidated"
        }
      },
      "repay(uint256,uint256)": {
        "params": {
          "amount": "uint256 The amount of tokens to pay back to the loan",
          "loanID": "uint256 The ID of the loan the payment is for"
        }
      },
      "takeOutLoan(uint256,uint256,uint256,uint256,uint256,(uint256,uint8,bytes32,bytes32))": {
        "details": "collateral ratio is a percentage of the loan amount that's required in collateralthe percentage will be *(10**2). I.e. collateralRatio of 5244 means 52.44% collateralis required in the loan. Interest rate is also a percentage with 2 decimal points.",
        "params": {
          "amountBorrow": "uint256 The initial amount to draw out for the loan",
          "collateralRatio": "uint256 The ratio of colalteral to principal required",
          "interestRate": "uint256 The interest rate of the loan",
          "maxLoanAmount": "uint256 The maximum amount of tokens allowed",
          "numberDays": "uint256 The length of the loan",
          "signature": "ZeroCollateralCommon.Signature A signature from an authorized signer"
        }
      },
      "withdrawCollateral(uint256,uint256)": {
        "params": {
          "amount": "uint256 The amount of ETH the caller is hoping to withdraw",
          "loanID": "uint256 The ID of the loan the collateral is for"
        }
      }
    }
  },
  "userdoc": {
    "methods": {
      "depositCollateral(address,uint256)": {
        "notice": "Deposit collateral into a loan"
      },
      "getBorrowerLoans(address)": {
        "notice": "Get a list of all loans for a borrower"
      },
      "liquidateLoan(uint256)": {
        "notice": "Liquidate a loan if it is expired or undercollateralised"
      },
      "repay(uint256,uint256)": {
        "notice": "Make a payment to a loan"
      },
      "takeOutLoan(uint256,uint256,uint256,uint256,uint256,(uint256,uint8,bytes32,bytes32))": {
        "notice": "Take out a loan"
      },
      "withdrawCollateral(uint256,uint256)": {
        "notice": "Withdraw collateral from a loan, unless this isn't allowed"
      }
    }
  }
}