{
  "contractName": "LoanTermsConsensusMock",
  "abi": [
    {
      "anonymous": false,
      "inputs": [
        {
          "indexed": true,
          "internalType": "address",
          "name": "previousOwner",
          "type": "address"
        },
        {
          "indexed": true,
          "internalType": "address",
          "name": "newOwner",
          "type": "address"
        }
      ],
      "name": "OwnershipTransferred",
      "type": "event"
    },
    {
      "anonymous": false,
      "inputs": [
        {
          "indexed": true,
          "internalType": "address",
          "name": "account",
          "type": "address"
        }
      ],
      "name": "SignerAdded",
      "type": "event"
    },
    {
      "anonymous": false,
      "inputs": [
        {
          "indexed": true,
          "internalType": "address",
          "name": "account",
          "type": "address"
        }
      ],
      "name": "SignerRemoved",
      "type": "event"
    },
    {
      "anonymous": false,
      "inputs": [
        {
          "indexed": true,
          "internalType": "address",
          "name": "borrower",
          "type": "address"
        },
        {
          "indexed": true,
          "internalType": "uint256",
          "name": "requestNonce",
          "type": "uint256"
        },
        {
          "indexed": false,
          "internalType": "uint256",
          "name": "interestRate",
          "type": "uint256"
        },
        {
          "indexed": false,
          "internalType": "uint256",
          "name": "collateralRatio",
          "type": "uint256"
        },
        {
          "indexed": false,
          "internalType": "uint256",
          "name": "maxLoanAmount",
          "type": "uint256"
        }
      ],
      "name": "TermsAccepted",
      "type": "event"
    },
    {
      "anonymous": false,
      "inputs": [
        {
          "indexed": true,
          "internalType": "address",
          "name": "signer",
          "type": "address"
        },
        {
          "indexed": true,
          "internalType": "address",
          "name": "borrower",
          "type": "address"
        },
        {
          "indexed": true,
          "internalType": "uint256",
          "name": "requestNonce",
          "type": "uint256"
        },
        {
          "indexed": false,
          "internalType": "uint256",
          "name": "interestRate",
          "type": "uint256"
        },
        {
          "indexed": false,
          "internalType": "uint256",
          "name": "collateralRatio",
          "type": "uint256"
        },
        {
          "indexed": false,
          "internalType": "uint256",
          "name": "maxLoanAmount",
          "type": "uint256"
        }
      ],
      "name": "TermsSubmitted",
      "type": "event"
    },
    {
      "constant": false,
      "inputs": [
        {
          "internalType": "address",
          "name": "account",
          "type": "address"
        }
      ],
      "name": "addSigner",
      "outputs": [],
      "payable": false,
      "stateMutability": "nonpayable",
      "type": "function"
    },
    {
      "constant": false,
      "inputs": [
        {
          "internalType": "address[]",
          "name": "accounts",
          "type": "address[]"
        }
      ],
      "name": "addSigners",
      "outputs": [],
      "payable": false,
      "stateMutability": "nonpayable",
      "type": "function"
    },
    {
      "constant": true,
      "inputs": [
        {
          "internalType": "address",
          "name": "",
          "type": "address"
        }
      ],
      "name": "borrowerToLastLoanTermRequest",
      "outputs": [
        {
          "internalType": "uint256",
          "name": "",
          "type": "uint256"
        }
      ],
      "payable": false,
      "stateMutability": "view",
      "type": "function"
    },
    {
      "constant": true,
      "inputs": [],
      "name": "callerAddress",
      "outputs": [
        {
          "internalType": "address",
          "name": "",
          "type": "address"
        }
      ],
      "payable": false,
      "stateMutability": "view",
      "type": "function"
    },
    {
      "constant": true,
      "inputs": [
        {
          "internalType": "address",
          "name": "",
          "type": "address"
        },
        {
          "internalType": "address",
          "name": "",
          "type": "address"
        },
        {
          "internalType": "uint256",
          "name": "",
          "type": "uint256"
        }
      ],
      "name": "hasSubmitted",
      "outputs": [
        {
          "internalType": "bool",
          "name": "",
          "type": "bool"
        }
      ],
      "payable": false,
      "stateMutability": "view",
      "type": "function"
    },
    {
      "constant": false,
      "inputs": [],
      "name": "initialize",
      "outputs": [],
      "payable": false,
      "stateMutability": "nonpayable",
      "type": "function"
    },
    {
      "constant": false,
      "inputs": [
        {
          "internalType": "address",
          "name": "owner",
          "type": "address"
        },
        {
          "internalType": "address",
          "name": "aCallerAddress",
          "type": "address"
        },
        {
          "internalType": "address",
          "name": "aSettingAddress",
          "type": "address"
        }
      ],
      "name": "initialize",
      "outputs": [],
      "payable": false,
      "stateMutability": "nonpayable",
      "type": "function"
    },
    {
      "constant": false,
      "inputs": [
        {
          "internalType": "address",
          "name": "sender",
          "type": "address"
        }
      ],
      "name": "initialize",
      "outputs": [],
      "payable": false,
      "stateMutability": "nonpayable",
      "type": "function"
    },
    {
      "constant": true,
      "inputs": [],
      "name": "initialized",
      "outputs": [
        {
          "internalType": "bool",
          "name": "value",
          "type": "bool"
        }
      ],
      "payable": false,
      "stateMutability": "view",
      "type": "function"
    },
    {
      "constant": true,
      "inputs": [],
      "name": "isOwner",
      "outputs": [
        {
          "internalType": "bool",
          "name": "",
          "type": "bool"
        }
      ],
      "payable": false,
      "stateMutability": "view",
      "type": "function"
    },
    {
      "constant": true,
      "inputs": [
        {
          "internalType": "address",
          "name": "account",
          "type": "address"
        }
      ],
      "name": "isSigner",
      "outputs": [
        {
          "internalType": "bool",
          "name": "",
          "type": "bool"
        }
      ],
      "payable": false,
      "stateMutability": "view",
      "type": "function"
    },
    {
      "constant": true,
      "inputs": [],
      "name": "owner",
      "outputs": [
        {
          "internalType": "address",
          "name": "",
          "type": "address"
        }
      ],
      "payable": false,
      "stateMutability": "view",
      "type": "function"
    },
    {
      "constant": false,
      "inputs": [
        {
          "components": [
            {
              "internalType": "address payable",
              "name": "borrower",
              "type": "address"
            },
            {
              "internalType": "address",
              "name": "recipient",
              "type": "address"
            },
            {
              "internalType": "address",
              "name": "consensusAddress",
              "type": "address"
            },
            {
              "internalType": "uint256",
              "name": "requestNonce",
              "type": "uint256"
            },
            {
              "internalType": "uint256",
              "name": "amount",
              "type": "uint256"
            },
            {
              "internalType": "uint256",
              "name": "duration",
              "type": "uint256"
            },
            {
              "internalType": "uint256",
              "name": "requestTime",
              "type": "uint256"
            }
          ],
          "internalType": "struct TellerCommon.LoanRequest",
          "name": "request",
          "type": "tuple"
        },
        {
          "components": [
            {
              "internalType": "address",
              "name": "signer",
              "type": "address"
            },
            {
              "internalType": "address",
              "name": "consensusAddress",
              "type": "address"
            },
            {
              "internalType": "uint256",
              "name": "responseTime",
              "type": "uint256"
            },
            {
              "internalType": "uint256",
              "name": "interestRate",
              "type": "uint256"
            },
            {
              "internalType": "uint256",
              "name": "collateralRatio",
              "type": "uint256"
            },
            {
              "internalType": "uint256",
              "name": "maxLoanAmount",
              "type": "uint256"
            },
            {
              "components": [
                {
                  "internalType": "uint256",
                  "name": "signerNonce",
                  "type": "uint256"
                },
                {
                  "internalType": "uint8",
                  "name": "v",
                  "type": "uint8"
                },
                {
                  "internalType": "bytes32",
                  "name": "r",
                  "type": "bytes32"
                },
                {
                  "internalType": "bytes32",
                  "name": "s",
                  "type": "bytes32"
                }
              ],
              "internalType": "struct TellerCommon.Signature",
              "name": "signature",
              "type": "tuple"
            }
          ],
          "internalType": "struct TellerCommon.LoanResponse[]",
          "name": "responses",
          "type": "tuple[]"
        }
      ],
      "name": "processRequest",
      "outputs": [
        {
          "internalType": "uint256",
          "name": "interestRate",
          "type": "uint256"
        },
        {
          "internalType": "uint256",
          "name": "collateralRatio",
          "type": "uint256"
        },
        {
          "internalType": "uint256",
          "name": "maxLoanAmount",
          "type": "uint256"
        }
      ],
      "payable": false,
      "stateMutability": "nonpayable",
      "type": "function"
    },
    {
      "constant": false,
      "inputs": [
        {
          "internalType": "address",
          "name": "account",
          "type": "address"
        }
      ],
      "name": "removeSigner",
      "outputs": [],
      "payable": false,
      "stateMutability": "nonpayable",
      "type": "function"
    },
    {
      "constant": false,
      "inputs": [],
      "name": "renounceOwnership",
      "outputs": [],
      "payable": false,
      "stateMutability": "nonpayable",
      "type": "function"
    },
    {
      "constant": true,
      "inputs": [
        {
          "internalType": "address",
          "name": "",
          "type": "address"
        },
        {
          "internalType": "uint256",
          "name": "",
          "type": "uint256"
        }
      ],
      "name": "requestNonceTaken",
      "outputs": [
        {
          "internalType": "bool",
          "name": "",
          "type": "bool"
        }
      ],
      "payable": false,
      "stateMutability": "view",
      "type": "function"
    },
    {
      "constant": true,
      "inputs": [],
      "name": "settings",
      "outputs": [
        {
          "internalType": "contract SettingsInterface",
          "name": "",
          "type": "address"
        }
      ],
      "payable": false,
      "stateMutability": "view",
      "type": "function"
    },
    {
      "constant": true,
      "inputs": [
        {
          "internalType": "address",
          "name": "",
          "type": "address"
        },
        {
          "internalType": "uint256",
          "name": "",
          "type": "uint256"
        }
      ],
      "name": "signerNonceTaken",
      "outputs": [
        {
          "internalType": "bool",
          "name": "",
          "type": "bool"
        }
      ],
      "payable": false,
      "stateMutability": "view",
      "type": "function"
    },
    {
      "constant": true,
      "inputs": [
        {
          "internalType": "address",
          "name": "",
          "type": "address"
        },
        {
          "internalType": "uint256",
          "name": "",
          "type": "uint256"
        }
      ],
      "name": "termSubmissions",
      "outputs": [
        {
          "components": [
            {
              "internalType": "uint256",
              "name": "count",
              "type": "uint256"
            },
            {
              "internalType": "uint256",
              "name": "max",
              "type": "uint256"
            },
            {
              "internalType": "uint256",
              "name": "min",
              "type": "uint256"
            },
            {
              "internalType": "uint256",
              "name": "sum",
              "type": "uint256"
            }
          ],
          "internalType": "struct NumbersList.Values",
          "name": "interestRate",
          "type": "tuple"
        },
        {
          "components": [
            {
              "internalType": "uint256",
              "name": "count",
              "type": "uint256"
            },
            {
              "internalType": "uint256",
              "name": "max",
              "type": "uint256"
            },
            {
              "internalType": "uint256",
              "name": "min",
              "type": "uint256"
            },
            {
              "internalType": "uint256",
              "name": "sum",
              "type": "uint256"
            }
          ],
          "internalType": "struct NumbersList.Values",
          "name": "collateralRatio",
          "type": "tuple"
        },
        {
          "components": [
            {
              "internalType": "uint256",
              "name": "count",
              "type": "uint256"
            },
            {
              "internalType": "uint256",
              "name": "max",
              "type": "uint256"
            },
            {
              "internalType": "uint256",
              "name": "min",
              "type": "uint256"
            },
            {
              "internalType": "uint256",
              "name": "sum",
              "type": "uint256"
            }
          ],
          "internalType": "struct NumbersList.Values",
          "name": "maxLoanAmount",
          "type": "tuple"
        }
      ],
      "payable": false,
      "stateMutability": "view",
      "type": "function"
    },
    {
      "constant": false,
      "inputs": [
        {
          "internalType": "address",
          "name": "newOwner",
          "type": "address"
        }
      ],
      "name": "transferOwnership",
      "outputs": [],
      "payable": false,
      "stateMutability": "nonpayable",
      "type": "function"
    },
    {
      "constant": false,
      "inputs": [
        {
          "internalType": "address",
          "name": "borrower",
          "type": "address"
        },
        {
          "internalType": "uint256",
          "name": "requestNonce",
          "type": "uint256"
        },
        {
          "internalType": "uint256",
          "name": "totalSubmissions",
          "type": "uint256"
        },
        {
          "internalType": "uint256",
          "name": "maxValue",
          "type": "uint256"
        },
        {
          "internalType": "uint256",
          "name": "minValue",
          "type": "uint256"
        },
        {
          "internalType": "uint256",
          "name": "sumOfValues",
          "type": "uint256"
        }
      ],
      "name": "mockInterestRateSubmissions",
      "outputs": [],
      "payable": false,
      "stateMutability": "nonpayable",
      "type": "function"
    },
    {
      "constant": false,
      "inputs": [
        {
          "internalType": "address",
          "name": "borrower",
          "type": "address"
        },
        {
          "internalType": "uint256",
          "name": "requestNonce",
          "type": "uint256"
        },
        {
          "internalType": "uint256",
          "name": "totalSubmissions",
          "type": "uint256"
        },
        {
          "internalType": "uint256",
          "name": "maxValue",
          "type": "uint256"
        },
        {
          "internalType": "uint256",
          "name": "minValue",
          "type": "uint256"
        },
        {
          "internalType": "uint256",
          "name": "sumOfValues",
          "type": "uint256"
        }
      ],
      "name": "mockCollateralRatioSubmissions",
      "outputs": [],
      "payable": false,
      "stateMutability": "nonpayable",
      "type": "function"
    },
    {
      "constant": false,
      "inputs": [
        {
          "internalType": "address",
          "name": "borrower",
          "type": "address"
        },
        {
          "internalType": "uint256",
          "name": "requestNonce",
          "type": "uint256"
        },
        {
          "internalType": "uint256",
          "name": "totalSubmissions",
          "type": "uint256"
        },
        {
          "internalType": "uint256",
          "name": "maxValue",
          "type": "uint256"
        },
        {
          "internalType": "uint256",
          "name": "minValue",
          "type": "uint256"
        },
        {
          "internalType": "uint256",
          "name": "sumOfValues",
          "type": "uint256"
        }
      ],
      "name": "mockMaxAmountSubmissions",
      "outputs": [],
      "payable": false,
      "stateMutability": "nonpayable",
      "type": "function"
    },
    {
      "constant": false,
      "inputs": [
        {
          "internalType": "address",
          "name": "signer",
          "type": "address"
        },
        {
          "internalType": "address",
          "name": "lender",
          "type": "address"
        },
        {
          "internalType": "uint256",
          "name": "blockNumber",
          "type": "uint256"
        },
        {
          "internalType": "bool",
          "name": "hasSub",
          "type": "bool"
        }
      ],
      "name": "mockHasSubmitted",
      "outputs": [],
      "payable": false,
      "stateMutability": "nonpayable",
      "type": "function"
    },
    {
      "constant": false,
      "inputs": [
        {
          "internalType": "address",
          "name": "signer",
          "type": "address"
        },
        {
          "internalType": "uint256",
          "name": "signerNonce",
          "type": "uint256"
        },
        {
          "internalType": "bool",
          "name": "taken",
          "type": "bool"
        }
      ],
      "name": "mockSignerNonce",
      "outputs": [],
      "payable": false,
      "stateMutability": "nonpayable",
      "type": "function"
    },
    {
      "constant": false,
      "inputs": [
        {
          "internalType": "address",
          "name": "borrower",
          "type": "address"
        },
        {
          "internalType": "uint256",
          "name": "lastTime",
          "type": "uint256"
        }
      ],
      "name": "mockBorrowerToLastLoanTermRequest",
      "outputs": [],
      "payable": false,
      "stateMutability": "nonpayable",
      "type": "function"
    },
    {
      "constant": false,
      "inputs": [
        {
          "internalType": "address",
          "name": "borrower",
          "type": "address"
        },
        {
          "internalType": "uint256",
          "name": "borrowerNonce",
          "type": "uint256"
        },
        {
          "internalType": "bool",
          "name": "taken",
          "type": "bool"
        }
      ],
      "name": "mockRequestNonce",
      "outputs": [],
      "payable": false,
      "stateMutability": "nonpayable",
      "type": "function"
    },
    {
      "constant": false,
      "inputs": [
        {
          "internalType": "uint256",
          "name": "newChainId",
          "type": "uint256"
        }
      ],
      "name": "mockChainId",
      "outputs": [],
      "payable": false,
      "stateMutability": "nonpayable",
      "type": "function"
    },
    {
      "constant": false,
      "inputs": [
        {
          "components": [
            {
              "internalType": "address payable",
              "name": "borrower",
              "type": "address"
            },
            {
              "internalType": "address",
              "name": "recipient",
              "type": "address"
            },
            {
              "internalType": "address",
              "name": "consensusAddress",
              "type": "address"
            },
            {
              "internalType": "uint256",
              "name": "requestNonce",
              "type": "uint256"
            },
            {
              "internalType": "uint256",
              "name": "amount",
              "type": "uint256"
            },
            {
              "internalType": "uint256",
              "name": "duration",
              "type": "uint256"
            },
            {
              "internalType": "uint256",
              "name": "requestTime",
              "type": "uint256"
            }
          ],
          "internalType": "struct TellerCommon.LoanRequest",
          "name": "request",
          "type": "tuple"
        },
        {
          "components": [
            {
              "internalType": "address",
              "name": "signer",
              "type": "address"
            },
            {
              "internalType": "address",
              "name": "consensusAddress",
              "type": "address"
            },
            {
              "internalType": "uint256",
              "name": "responseTime",
              "type": "uint256"
            },
            {
              "internalType": "uint256",
              "name": "interestRate",
              "type": "uint256"
            },
            {
              "internalType": "uint256",
              "name": "collateralRatio",
              "type": "uint256"
            },
            {
              "internalType": "uint256",
              "name": "maxLoanAmount",
              "type": "uint256"
            },
            {
              "components": [
                {
                  "internalType": "uint256",
                  "name": "signerNonce",
                  "type": "uint256"
                },
                {
                  "internalType": "uint8",
                  "name": "v",
                  "type": "uint8"
                },
                {
                  "internalType": "bytes32",
                  "name": "r",
                  "type": "bytes32"
                },
                {
                  "internalType": "bytes32",
                  "name": "s",
                  "type": "bytes32"
                }
              ],
              "internalType": "struct TellerCommon.Signature",
              "name": "signature",
              "type": "tuple"
            }
          ],
          "internalType": "struct TellerCommon.LoanResponse",
          "name": "response",
          "type": "tuple"
        },
        {
          "internalType": "bytes32",
          "name": "requestHash",
          "type": "bytes32"
        }
      ],
      "name": "externalProcessResponse",
      "outputs": [],
      "payable": false,
      "stateMutability": "nonpayable",
      "type": "function"
    },
    {
      "constant": true,
      "inputs": [
        {
          "components": [
            {
              "internalType": "address",
              "name": "signer",
              "type": "address"
            },
            {
              "internalType": "address",
              "name": "consensusAddress",
              "type": "address"
            },
            {
              "internalType": "uint256",
              "name": "responseTime",
              "type": "uint256"
            },
            {
              "internalType": "uint256",
              "name": "interestRate",
              "type": "uint256"
            },
            {
              "internalType": "uint256",
              "name": "collateralRatio",
              "type": "uint256"
            },
            {
              "internalType": "uint256",
              "name": "maxLoanAmount",
              "type": "uint256"
            },
            {
              "components": [
                {
                  "internalType": "uint256",
                  "name": "signerNonce",
                  "type": "uint256"
                },
                {
                  "internalType": "uint8",
                  "name": "v",
                  "type": "uint8"
                },
                {
                  "internalType": "bytes32",
                  "name": "r",
                  "type": "bytes32"
                },
                {
                  "internalType": "bytes32",
                  "name": "s",
                  "type": "bytes32"
                }
              ],
              "internalType": "struct TellerCommon.Signature",
              "name": "signature",
              "type": "tuple"
            }
          ],
          "internalType": "struct TellerCommon.LoanResponse",
          "name": "response",
          "type": "tuple"
        },
        {
          "internalType": "bytes32",
          "name": "requestHash",
          "type": "bytes32"
        }
      ],
      "name": "externalHashResponse",
      "outputs": [
        {
          "internalType": "bytes32",
          "name": "",
          "type": "bytes32"
        }
      ],
      "payable": false,
      "stateMutability": "view",
      "type": "function"
    },
    {
      "constant": true,
      "inputs": [
        {
          "components": [
            {
              "internalType": "address payable",
              "name": "borrower",
              "type": "address"
            },
            {
              "internalType": "address",
              "name": "recipient",
              "type": "address"
            },
            {
              "internalType": "address",
              "name": "consensusAddress",
              "type": "address"
            },
            {
              "internalType": "uint256",
              "name": "requestNonce",
              "type": "uint256"
            },
            {
              "internalType": "uint256",
              "name": "amount",
              "type": "uint256"
            },
            {
              "internalType": "uint256",
              "name": "duration",
              "type": "uint256"
            },
            {
              "internalType": "uint256",
              "name": "requestTime",
              "type": "uint256"
            }
          ],
          "internalType": "struct TellerCommon.LoanRequest",
          "name": "request",
          "type": "tuple"
        }
      ],
      "name": "externalHashRequest",
      "outputs": [
        {
          "internalType": "bytes32",
          "name": "",
          "type": "bytes32"
        }
      ],
      "payable": false,
      "stateMutability": "view",
      "type": "function"
    },
    {
      "constant": true,
      "inputs": [
        {
          "components": [
            {
              "internalType": "address payable",
              "name": "borrower",
              "type": "address"
            },
            {
              "internalType": "address",
              "name": "recipient",
              "type": "address"
            },
            {
              "internalType": "address",
              "name": "consensusAddress",
              "type": "address"
            },
            {
              "internalType": "uint256",
              "name": "requestNonce",
              "type": "uint256"
            },
            {
              "internalType": "uint256",
              "name": "amount",
              "type": "uint256"
            },
            {
              "internalType": "uint256",
              "name": "duration",
              "type": "uint256"
            },
            {
              "internalType": "uint256",
              "name": "requestTime",
              "type": "uint256"
            }
          ],
          "internalType": "struct TellerCommon.LoanRequest",
          "name": "request",
          "type": "tuple"
        }
      ],
      "name": "externalRequireRequestLoanTermsRateLimit",
      "outputs": [
        {
          "internalType": "bool",
          "name": "",
          "type": "bool"
        }
      ],
      "payable": false,
      "stateMutability": "view",
      "type": "function"
    }
  ],
  "bytecode": "0x6080604052600160a0556131c7806100186000396000f3fe608060405234801561001057600080fd5b50600436106101ef5760003560e01c80638f32d59b1161010f578063db43f259116100a2578063f2fde38b11610071578063f2fde38b14610423578063f76a5ab314610436578063faa8aab114610449578063fb98d9e214610451576101ef565b8063db43f259146103d5578063e06174e4146103e8578063e8906a2d146103fd578063eb12d61e14610410576101ef565b8063a9e5c5c9116100de578063a9e5c5c914610389578063c0c53b8b1461039c578063c4d66de8146103af578063cdca1059146103c2576101ef565b80638f32d59b1461034857806391d0e88e1461035057806399ffe065146103635780639f24a12d14610376576101ef565b80632aac635e116101875780637df73e27116101565780637df73e27146103055780637ec3f83c146103185780638129fc1c1461032b5780638da5cb5b14610333576101ef565b80632aac635e146102b557806368fcdeb8146102d7578063690ada67146102ea578063715018a6146102fd576101ef565b80630e316ab7116101c35780630e316ab714610267578063158ef93e1461027a5780631d37e8821461028f57806325bb7ff9146102a2576101ef565b80627ab3ba146101f45780630303016214610209578063064e5d4914610232578063096fe0a914610254575b600080fd5b610207610202366004612433565b610464565b005b61021c61021736600461256e565b610499565b6040516102299190612e6f565b60405180910390f35b61024561024036600461258c565b6104b8565b60405161022993929190613064565b6102076102623660046125e3565b610938565b6102076102753660046122ea565b610964565b610282610994565b6040516102299190612e61565b61020761029d366004612398565b6109b3565b6102076102b0366004612476565b6109f7565b6102c86102c33660046123f9565b610a59565b6040516102299392919061303a565b6102826102e53660046123f9565b610b02565b6102076102f83660046123f9565b610b22565b610207610b3e565b6102826103133660046122ea565b610bac565b61028261032636600461256e565b610bbf565b610207610bdb565b61033b610c62565b6040516102299190612d56565b610282610c71565b61021c61035e366004612646565b610c97565b610282610371366004612355565b610cb8565b61021c6103843660046122ea565b610cde565b610207610397366004612476565b610cf0565b6102076103aa366004612308565b610d52565b6102076103bd3660046122ea565b610ddb565b6102076103d0366004612476565b610eae565b6102076103e3366004612433565b610f0d565b6103f0610f42565b6040516102299190612ebb565b61020761040b3660046124fd565b610f64565b61020761041e3660046122ea565b610fec565b6102076104313660046122ea565b611019565b610207610444366004612697565b611046565b61033b61104b565b61028261045f3660046123f9565b61105a565b6001600160a01b03929092166000908152609d6020908152604080832093835292905220805460ff1916911515919091179055565b60006104b26104ad36849003840184612628565b61107a565b92915050565b60008060006104c5610994565b6104ea5760405162461bcd60e51b81526004016104e19061301a565b60405180910390fd5b336104f4816110ed565b6105105760405162461bcd60e51b81526004016104e19061300a565b610518610f42565b6001600160a01b031663269012a061052e610f42565b6001600160a01b031663d86d744e6040518163ffffffff1660e01b815260040160206040518083038186803b15801561056657600080fd5b505afa15801561057a573d6000803e3d6000fd5b505050506040513d601f19601f8201168201806040525061059e9190810190612550565b6001600160a01b0316633ff591d96040518163ffffffff1660e01b815260040160206040518083038186803b1580156105d657600080fd5b505afa1580156105ea573d6000803e3d6000fd5b505050506040513d601f19601f8201168201806040525061060e9190810190612532565b6040518263ffffffff1660e01b815260040161062a9190612e6f565b60206040518083038186803b15801561064257600080fd5b505afa158015610656573d6000803e3d6000fd5b505050506040513d601f19601f8201168201806040525061067a9190810190612532565b8510156106995760405162461bcd60e51b81526004016104e190612fea565b6106b06106ab36899003890189612628565b6110f3565b609d60006106c160208a018a6122ea565b6001600160a01b031681526020808201929092526040908101600090812060608b0135825290925290205460ff161561070c5760405162461bcd60e51b81526004016104e190612efa565b6001609d600061071f60208b018b6122ea565b6001600160a01b031681526020808201929092526040908101600090812060608c013582529092528120805460ff19169215159290921790915561076b6104ad368a90038a018a612628565b905060005b868110156107bb576107b361078a368b90038b018b612628565b89898481811061079657fe5b905061014002018036036107ad9190810190612678565b846112cf565b600101610770565b506107ff609e60006107d060208c018c6122ea565b6001600160a01b031681526020808201929092526040908101600090812060608d01358252909252902061142c565b9450610852609e600061081560208c018c6122ea565b6001600160a01b03166001600160a01b0316815260200190815260200160002060008a60600135815260200190815260200160002060040161142c565b93506108a5609e600061086860208c018c6122ea565b6001600160a01b03166001600160a01b0316815260200190815260200160002060008a60600135815260200190815260200160002060080161142c565b925042609f60006108b960208c018c6122ea565b6001600160a01b03168152602080820192909252604001600020919091556060890135906108e9908a018a6122ea565b6001600160a01b03167f658dfc9759b55173ea96c7bd8d4ad2c3e3804d28d83d2e1a25569a2fecb6720887878760405161092593929190613064565b60405180910390a3505093509350939050565b61095f61094a36859003850185612628565b61095936859003850185612678565b836112cf565b505050565b61096c610c71565b6109885760405162461bcd60e51b81526004016104e190612faa565b610991816115cd565b50565b6000806040516109a390612d20565b6040519081900390205492915050565b6001600160a01b039384166000908152609a602090815260408083209590961682529384528481209281529190925291909120805460ff1916911515919091179055565b604080516080810182529485526020808601948552858201938452606086019283526001600160a01b039097166000908152609e88528181209681529590965294909320915160088301555160098201559051600a8201559051600b90910155565b609e60209081526000928352604080842082529183529181902081516080808201845282548252600183015482860152600283015482850152600383015460608084019190915284518083018652600485015481526005850154818801526006850154818701526007850154818301528551928301865260088501548352600985015496830196909652600a84015494820194909452600b909201549282019290925290919083565b609b60209081526000928352604080842090915290825290205460ff1681565b6001600160a01b039091166000908152609f6020526040902055565b610b46610c71565b610b625760405162461bcd60e51b81526004016104e190612faa565b6066546040516000916001600160a01b0316907f8be0079c531659141344cd1fd0a4f28419497f9722a3daafe3b4186f6b6457e0908390a3606680546001600160a01b0319169055565b60006104b260998363ffffffff61161516565b6000610bd36106ab36849003840184612628565b506001919050565b600054610100900460ff1680610bf45750610bf461165d565b80610c02575060005460ff16155b610c1e5760405162461bcd60e51b81526004016104e190612fca565b600054610100900460ff16158015610c49576000805460ff1961ff0019909116610100171660011790555b60016033558015610991576000805461ff001916905550565b6066546001600160a01b031690565b6066546000906001600160a01b0316610c88611663565b6001600160a01b031614905090565b6000610cb1610cab36859003850185612678565b83611667565b9392505050565b609a60209081526000938452604080852082529284528284209052825290205460ff1681565b609f6020526000908152604090205481565b604080516080810182529485526020808601948552858201938452606086019283526001600160a01b039097166000908152609e8852818120968152959096529490932091516004830155516005820155905160068201559051600790910155565b610d5a610994565b15610d775760405162461bcd60e51b81526004016104e19061302a565b610d89826001600160a01b03166116c9565b610da55760405162461bcd60e51b81526004016104e190612f5a565b610dae83610ddb565b610db781611705565b50609c80546001600160a01b0319166001600160a01b039290921691909117905550565b600054610100900460ff1680610df45750610df461165d565b80610e02575060005460ff16155b610e1e5760405162461bcd60e51b81526004016104e190612fca565b600054610100900460ff16158015610e49576000805460ff1961ff0019909116610100171660011790555b606680546001600160a01b0319166001600160a01b0384811691909117918290556040519116906000907f8be0079c531659141344cd1fd0a4f28419497f9722a3daafe3b4186f6b6457e0908290a38015610eaa576000805461ff00191690555b5050565b604080516080810182529485526020808601948552858201938452606086019283526001600160a01b039097166000908152609e8852818120968152959096529490932091518255516001820155905160028201559051600390910155565b6001600160a01b03929092166000908152609b6020908152604080832093835292905220805460ff1916911515919091179055565b6000806000604051610f5390612d4b565b604051908190039020549250505090565b610f6c610c71565b610f885760405162461bcd60e51b81526004016104e190612faa565b6000815111610fa95760405162461bcd60e51b81526004016104e190612eea565b60005b8151811015610eaa576000828281518110610fc357fe5b60200260200101519050610fd681610bac565b610fe357610fe3816117b7565b50600101610fac565b610ff4610c71565b6110105760405162461bcd60e51b81526004016104e190612faa565b610991816117b7565b611021610c71565b61103d5760405162461bcd60e51b81526004016104e190612faa565b610991816117ff565b60a055565b609c546001600160a01b031681565b609d60209081526000928352604080842090915290825290205460ff1681565b609c548151602083015160408401516060850151608086015160a087015160c08801516000976001600160a01b0316969594939291906110b8611881565b6040516020016110d099989796959493929190612d64565b604051602081830303815290604052805190602001209050919050565b50600190565b80516001600160a01b03166000908152609f602052604090205461111657610991565b6000611120610f42565b6001600160a01b031663269012a0611136610f42565b6001600160a01b031663d86d744e6040518163ffffffff1660e01b815260040160206040518083038186803b15801561116e57600080fd5b505afa158015611182573d6000803e3d6000fd5b505050506040513d601f19601f820116820180604052506111a69190810190612550565b6001600160a01b0316633b98dfdb6040518163ffffffff1660e01b815260040160206040518083038186803b1580156111de57600080fd5b505afa1580156111f2573d6000803e3d6000fd5b505050506040513d601f19601f820116820180604052506112169190810190612532565b6040518263ffffffff1660e01b81526004016112329190612e6f565b60206040518083038186803b15801561124a57600080fd5b505afa15801561125e573d6000803e3d6000fd5b505050506040513d601f19601f820116820180604052506112829190810190612532565b82516001600160a01b03166000908152609f602052604090205490915042906112b1908363ffffffff61188716565b1115610eaa5760405162461bcd60e51b81526004016104e190612f7a565b60006112db8383611667565b835185516060870151604087015160c08801519495506112fc9486906118ac565b60608084015185516001600160a01b03166000908152609e602090815260408083209489015183529390529190912061133a9163ffffffff611b2a16565b608083015184516001600160a01b03166000908152609e6020908152604080832060608901518452909152902061137c9160049091019063ffffffff611b2a16565b60a083015184516001600160a01b03166000908152609e602090815260408083206060890151845290915290206113be9160089091019063ffffffff611b2a16565b836060015184600001516001600160a01b031684600001516001600160a01b03167f75ec6e4b3d626c9ecaff859275e3ee99bd0d25d81a798938dcc15b49baffc24d866060015187608001518860a0015160405161141e93929190613064565b60405180910390a450505050565b60006115a8611439610f42565b6001600160a01b031663269012a061144f610f42565b6001600160a01b031663d86d744e6040518163ffffffff1660e01b815260040160206040518083038186803b15801561148757600080fd5b505afa15801561149b573d6000803e3d6000fd5b505050506040513d601f19601f820116820180604052506114bf9190810190612550565b6001600160a01b031663c41dd8ce6040518163ffffffff1660e01b815260040160206040518083038186803b1580156114f757600080fd5b505afa15801561150b573d6000803e3d6000fd5b505050506040513d601f19601f8201168201806040525061152f9190810190612532565b6040518263ffffffff1660e01b815260040161154b9190612e6f565b60206040518083038186803b15801561156357600080fd5b505afa158015611577573d6000803e3d6000fd5b505050506040513d601f19601f8201168201806040525061159b9190810190612532565b839063ffffffff611b8f16565b6115c45760405162461bcd60e51b81526004016104e190612f2a565b6104b282611c40565b6115de60998263ffffffff611c7916565b6040516001600160a01b038216907f3525e22824a8a7df2c9a6029941c824cf95b6447f1e13d5128fd3826d35afe8b90600090a250565b60006001600160a01b03821661163d5760405162461bcd60e51b81526004016104e190612fba565b506001600160a01b03166000908152602091909152604090205460ff1690565b303b1590565b3390565b600082602001518360400151846060015185608001518660a001518760c0015160000151611693611881565b886040516020016116ab989796959493929190612dea565b60405160208183030381529060405280519060200120905092915050565b6000813f7fc5d2460186f7233c927e7db2dcc703c0e500b653ca82273b7bfad8045d85a4708181148015906116fd57508115155b949350505050565b61170d610994565b1561172a5760405162461bcd60e51b81526004016104e19061302a565b60408051808201909152601981527f53455454494e47535f4d5553545f42455f50524f5649444544000000000000006020820152611778906001600160a01b0383169063ffffffff611cc116565b61178a816001600160a01b03166116c9565b6117a65760405162461bcd60e51b81526004016104e190612f4a565b6117ae611ce9565b61099181611d07565b6117c860998263ffffffff611d7616565b6040516001600160a01b038216907f47d1c22a25bb3a5d4e481b9b1e6944c2eade3181a0a20b495ed61d35b5323f2490600090a250565b6001600160a01b0381166118255760405162461bcd60e51b81526004016104e190612f1a565b6066546040516001600160a01b038084169216907f8be0079c531659141344cd1fd0a4f28419497f9722a3daafe3b4186f6b6457e090600090a3606680546001600160a01b0319166001600160a01b0392909216919091179055565b60a05490565b600082820183811015610cb15760405162461bcd60e51b81526004016104e190612f3a565b6001600160a01b038087166000908152609a6020908152604080832093891683529281528282208783529052205460ff16156118fa5760405162461bcd60e51b81526004016104e190612f0a565b6001600160a01b038087166000908152609a602090815260408083209389168352928152828220878352905220805460ff19166001179055611aac61193d610f42565b6001600160a01b031663269012a0611953610f42565b6001600160a01b031663d86d744e6040518163ffffffff1660e01b815260040160206040518083038186803b15801561198b57600080fd5b505afa15801561199f573d6000803e3d6000fd5b505050506040513d601f19601f820116820180604052506119c39190810190612550565b6001600160a01b031663e3f33d006040518163ffffffff1660e01b815260040160206040518083038186803b1580156119fb57600080fd5b505afa158015611a0f573d6000803e3d6000fd5b505050506040513d601f19601f82011682018060405250611a339190810190612532565b6040518263ffffffff1660e01b8152600401611a4f9190612e6f565b60206040518083038186803b158015611a6757600080fd5b505afa158015611a7b573d6000803e3d6000fd5b505050506040513d601f19601f82011682018060405250611a9f9190810190612532565b429063ffffffff611dc216565b831015611acb5760405162461bcd60e51b81526004016104e190612fda565b611ad6818388611e04565b611af25760405162461bcd60e51b81526004016104e190612ffa565b6001600160a01b039095166000908152609b602090815260408083209751835296905294909420805460ff1916600117905550505050565b8082600101541015611b3e57600182018190555b8082600201541180611b4f57508154155b15611b5c57600282018190555b6003820154611b71908263ffffffff61188716565b60038301558154611b8990600163ffffffff61188716565b90915550565b6000611b9a83611efc565b15611ba7575060006104b2565b6000611bb284611c40565b90506000611bd8612710611bcc848763ffffffff611f0e16565b9063ffffffff611f4816565b90506000611bec838363ffffffff611dc216565b90508086600201541015611c0657600093505050506104b2565b6000611c18848463ffffffff61188716565b90508087600101541115611c335760009450505050506104b2565b5060019695505050505050565b6000611c4b82611efc565b611c7157611c6c611c5b83611f8a565b60038401549063ffffffff611f4816565b6104b2565b506000919050565b611c838282611615565b611c9f5760405162461bcd60e51b81526004016104e190612f8a565b6001600160a01b0316600090815260209190915260409020805460ff19169055565b611cca82611f8e565b819061095f5760405162461bcd60e51b81526004016104e19190612ec9565b6000604051611cf790612d20565b6040519081900390206001905550565b611d20611d12610f42565b6001600160a01b0316611f8e565b15611d2a57610991565b611d3c816001600160a01b03166116c9565b611d585760405162461bcd60e51b81526004016104e190612f4a565b6000604051611d6690612d4b565b6040519081900390208290555050565b611d808282611615565b15611d9d5760405162461bcd60e51b81526004016104e190612eda565b6001600160a01b0316600090815260209190915260409020805460ff19166001179055565b6000610cb183836040518060400160405280601e81526020017f536166654d6174683a207375627472616374696f6e206f766572666c6f770000815250611f9c565b6000611e0f82610bac565b611e1b57506000610cb1565b6001600160a01b0382166000908152609b602090815260408083208751845290915290205460ff1615611e605760405162461bcd60e51b81526004016104e190612f6a565b6000600184604051602001611e759190612d2b565b6040516020818303038152906040528051906020012086602001518760400151886060015160405160008152602001604052604051611eb79493929190612e7d565b6020604051602081039080840390855afa158015611ed9573d6000803e3d6000fd5b5050604051601f1901516001600160a01b03858116911614925050509392505050565b6000611f0782611f8a565b1592915050565b600082611f1d575060006104b2565b82820282848281611f2a57fe5b0414610cb15760405162461bcd60e51b81526004016104e190612f9a565b6000610cb183836040518060400160405280601a81526020017f536166654d6174683a206469766973696f6e206279207a65726f000000000000815250611fc8565b5490565b6001600160a01b0316151590565b60008184841115611fc05760405162461bcd60e51b81526004016104e19190612ec9565b505050900390565b60008183611fe95760405162461bcd60e51b81526004016104e19190612ec9565b506000838581611ff557fe5b0495945050505050565b80356104b28161314c565b600082601f83011261201b57600080fd5b813561202e612029826130b3565b61308c565b9150818183526020840193506020810190508385602084028201111561205357600080fd5b60005b8381101561207f57816120698882611fff565b8452506020928301929190910190600101612056565b5050505092915050565b60008083601f84011261209b57600080fd5b50813567ffffffffffffffff8111156120b357600080fd5b602083019150836101408202830111156120cc57600080fd5b9250929050565b80356104b281613160565b80356104b281613169565b80516104b281613169565b80516104b281613172565b600060e0828403121561211157600080fd5b50919050565b600060e0828403121561212957600080fd5b61213360e061308c565b905060006121418484611fff565b825250602061215284848301611fff565b602083015250604061216684828501611fff565b604083015250606061217a848285016120de565b606083015250608061218e848285016120de565b60808301525060a06121a2848285016120de565b60a08301525060c06121b6848285016120de565b60c08301525092915050565b6000610140828403121561211157600080fd5b600061014082840312156121e857600080fd5b6121f260e061308c565b905060006122008484611fff565b825250602061221184848301611fff565b6020830152506040612225848285016120de565b6040830152506060612239848285016120de565b606083015250608061224d848285016120de565b60808301525060a0612261848285016120de565b60a08301525060c06121b68482850160006080828403121561228257600080fd5b61228c608061308c565b9050600061229a84846120de565b82525060206122ab848483016122df565b60208301525060406122bf848285016120de565b60408301525060606122d3848285016120de565b60608301525092915050565b80356104b28161317b565b6000602082840312156122fc57600080fd5b60006116fd8484611fff565b60008060006060848603121561231d57600080fd5b60006123298686611fff565b935050602061233a86828701611fff565b925050604061234b86828701611fff565b9150509250925092565b60008060006060848603121561236a57600080fd5b60006123768686611fff565b935050602061238786828701611fff565b925050604061234b868287016120de565b600080600080608085870312156123ae57600080fd5b60006123ba8787611fff565b94505060206123cb87828801611fff565b93505060406123dc878288016120de565b92505060606123ed878288016120d3565b91505092959194509250565b6000806040838503121561240c57600080fd5b60006124188585611fff565b9250506020612429858286016120de565b9150509250929050565b60008060006060848603121561244857600080fd5b60006124548686611fff565b9350506020612465868287016120de565b925050604061234b868287016120d3565b60008060008060008060c0878903121561248f57600080fd5b600061249b8989611fff565b96505060206124ac89828a016120de565b95505060406124bd89828a016120de565b94505060606124ce89828a016120de565b93505060806124df89828a016120de565b92505060a06124f089828a016120de565b9150509295509295509295565b60006020828403121561250f57600080fd5b813567ffffffffffffffff81111561252657600080fd5b6116fd8482850161200a565b60006020828403121561254457600080fd5b60006116fd84846120e9565b60006020828403121561256257600080fd5b60006116fd84846120f4565b600060e0828403121561258057600080fd5b60006116fd84846120ff565b600080600061010084860312156125a257600080fd5b60006125ae86866120ff565b93505060e084013567ffffffffffffffff8111156125cb57600080fd5b6125d786828701612089565b92509250509250925092565b600080600061024084860312156125f957600080fd5b600061260586866120ff565b93505060e0612616868287016121c2565b92505061022061234b868287016120de565b600060e0828403121561263a57600080fd5b60006116fd8484612117565b600080610160838503121561265a57600080fd5b600061266685856121c2565b925050610140612429858286016120de565b6000610140828403121561268b57600080fd5b60006116fd84846121d5565b6000602082840312156126a957600080fd5b60006116fd84846120de565b6126be816130e6565b82525050565b6126be816130f1565b6126be816130f6565b6126be6126e2826130f6565b6130f6565b6126be816130f9565b60006126fb826130d4565b61270581856130d8565b9350612715818560208601613116565b61271e81613142565b9093019392505050565b6000612735601c836130e1565b7f54496e697469616c697a61626c652e6973496e697469616c697a6564000000008152601c0192915050565b600061276e601f836130d8565b7f526f6c65733a206163636f756e7420616c72656164792068617320726f6c6500815260200192915050565b60006127a76013836130d8565b724143434f554e54535f4c4953545f454d50545960681b815260200192915050565b60006127d6601c836130e1565b7f19457468657265756d205369676e6564204d6573736167653a0a3332000000008152601c0192915050565b600061280f601e836130d8565b7f4c4f414e5f5445524d535f524551554553545f4e4f4e43455f54414b454e0000815260200192915050565b60006128486018836130d8565b7f5349474e45525f414c52454144595f5355424d49545445440000000000000000815260200192915050565b60006128816026836130d8565b7f4f776e61626c653a206e6577206f776e657220697320746865207a65726f206181526564647265737360d01b602082015260400192915050565b60006128c96014836130d8565b73149154d413d394d154d7d513d3d7d5905492515160621b815260200192915050565b60006128f9601b836130d8565b7f536166654d6174683a206164646974696f6e206f766572666c6f770000000000815260200192915050565b6000612932601b836130d8565b7f53455454494e47535f4d5553545f42455f415f434f4e54524143540000000000815260200192915050565b600061296b6017836130d8565b7f43414c4c45525f4d5553545f42455f434f4e5452414354000000000000000000815260200192915050565b60006129a46012836130d8565b7129a4a3a722a92fa727a721a2afaa20a5a2a760711b815260200192915050565b60006129d2601f836130d8565b7f524551535f4c4f414e5f5445524d535f4c4d545f455843454544535f4d415800815260200192915050565b6000612a0b6021836130d8565b7f526f6c65733a206163636f756e7420646f6573206e6f74206861766520726f6c8152606560f81b602082015260400192915050565b6000612a4e6021836130d8565b7f536166654d6174683a206d756c7469706c69636174696f6e206f766572666c6f8152607760f81b602082015260400192915050565b6000612a916020836130d8565b7f4f776e61626c653a2063616c6c6572206973206e6f7420746865206f776e6572815260200192915050565b6000612aca6022836130d8565b7f526f6c65733a206163636f756e7420697320746865207a65726f206164647265815261737360f01b602082015260400192915050565b6000612b0e602e836130d8565b7f436f6e747261637420696e7374616e63652068617320616c726561647920626581526d195b881a5b9a5d1a585b1a5e995960921b602082015260400192915050565b6000612b5e6010836130d8565b6f149154d413d394d157d156141254915160821b815260200192915050565b6000612b8a601f836130d8565b7f4c4f414e5445524d5f494e53554646494349454e545f524553504f4e53455300815260200192915050565b6000612bc36011836130d8565b7014d251d3905515549157d2539590531251607a1b815260200192915050565b6000612bf06018836130d8565b7f53454e4445525f4841534e545f5045524d495353494f4e530000000000000000815260200192915050565b6000612c296018836130e1565b7f426173655570677261646561626c652e73657474696e67730000000000000000815260180192915050565b6000612c626018836130d8565b7f434f4e54524143545f4e4f545f494e495449414c495a45440000000000000000815260200192915050565b6000612c9b601c836130d8565b7f434f4e54524143545f414c52454144595f494e495449414c495a454400000000815260200192915050565b80516080830190612cd884826126cd565b506020820151612ceb60208501826126cd565b506040820151612cfe60408501826126cd565b506060820151612d1160608501826126cd565b50505050565b6126be81613110565b60006104b282612728565b6000612d36826127c9565b9150612d4282846126d6565b50602001919050565b60006104b282612c1c565b602081016104b282846126b5565b6101208101612d73828c6126b5565b612d80602083018b6126b5565b612d8d604083018a6126b5565b612d9a60608301896126b5565b612da760808301886126cd565b612db460a08301876126cd565b612dc160c08301866126cd565b612dce60e08301856126cd565b612ddc6101008301846126cd565b9a9950505050505050505050565b6101008101612df9828b6126b5565b612e06602083018a6126cd565b612e1360408301896126cd565b612e2060608301886126cd565b612e2d60808301876126cd565b612e3a60a08301866126cd565b612e4760c08301856126cd565b612e5460e08301846126cd565b9998505050505050505050565b602081016104b282846126c4565b602081016104b282846126cd565b60808101612e8b82876126cd565b612e986020830186612d17565b612ea560408301856126cd565b612eb260608301846126cd565b95945050505050565b602081016104b282846126e7565b60208082528101610cb181846126f0565b602080825281016104b281612761565b602080825281016104b28161279a565b602080825281016104b281612802565b602080825281016104b28161283b565b602080825281016104b281612874565b602080825281016104b2816128bc565b602080825281016104b2816128ec565b602080825281016104b281612925565b602080825281016104b28161295e565b602080825281016104b281612997565b602080825281016104b2816129c5565b602080825281016104b2816129fe565b602080825281016104b281612a41565b602080825281016104b281612a84565b602080825281016104b281612abd565b602080825281016104b281612b01565b602080825281016104b281612b51565b602080825281016104b281612b7d565b602080825281016104b281612bb6565b602080825281016104b281612be3565b602080825281016104b281612c55565b602080825281016104b281612c8e565b61018081016130498286612cc7565b6130566080830185612cc7565b6116fd610100830184612cc7565b6060810161307282866126cd565b61307f60208301856126cd565b6116fd60408301846126cd565b60405181810167ffffffffffffffff811182821017156130ab57600080fd5b604052919050565b600067ffffffffffffffff8211156130ca57600080fd5b5060209081020190565b5190565b90815260200190565b919050565b60006104b282613104565b151590565b90565b60006104b2826130e6565b6001600160a01b031690565b60ff1690565b60005b83811015613131578181015183820152602001613119565b83811115612d115750506000910152565b601f01601f191690565b613155816130e6565b811461099157600080fd5b613155816130f1565b613155816130f6565b613155816130f9565b6131558161311056fea365627a7a72315820caa43291b536472964458bc2d5efcd8d384bad07f58f6d8df76d015491d9acac6c6578706572696d656e74616cf564736f6c63430005110040",
  "source": "pragma solidity 0.5.17;\npragma experimental ABIEncoderV2;\n\nimport \"../../base/LoanTermsConsensus.sol\";\n\ncontract LoanTermsConsensusMock is LoanTermsConsensus {\n    uint256 private _mockChainId = 1; // Mainnet\n\n    function mockInterestRateSubmissions(\n        address borrower,\n        uint256 requestNonce,\n        uint256 totalSubmissions,\n        uint256 maxValue,\n        uint256 minValue,\n        uint256 sumOfValues\n    ) external {\n        termSubmissions[borrower][requestNonce].interestRate = NumbersList.Values({\n            count: totalSubmissions,\n            min: minValue,\n            max: maxValue,\n            sum: sumOfValues\n        });\n    }\n\n    function mockCollateralRatioSubmissions(\n        address borrower,\n        uint256 requestNonce,\n        uint256 totalSubmissions,\n        uint256 maxValue,\n        uint256 minValue,\n        uint256 sumOfValues\n    ) external {\n        termSubmissions[borrower][requestNonce].collateralRatio = NumbersList.Values({\n            count: totalSubmissions,\n            min: minValue,\n            max: maxValue,\n            sum: sumOfValues\n        });\n    }\n\n    function mockMaxAmountSubmissions(\n        address borrower,\n        uint256 requestNonce,\n        uint256 totalSubmissions,\n        uint256 maxValue,\n        uint256 minValue,\n        uint256 sumOfValues\n    ) external {\n        termSubmissions[borrower][requestNonce].maxLoanAmount = NumbersList.Values({\n            count: totalSubmissions,\n            min: minValue,\n            max: maxValue,\n            sum: sumOfValues\n        });\n    }\n\n    function mockHasSubmitted(\n        address signer,\n        address lender,\n        uint256 blockNumber,\n        bool hasSub\n    ) external {\n        hasSubmitted[signer][lender][blockNumber] = hasSub;\n    }\n\n    function mockSignerNonce(\n        address signer,\n        uint256 signerNonce,\n        bool taken\n    ) external {\n        signerNonceTaken[signer][signerNonce] = taken;\n    }\n\n    function mockBorrowerToLastLoanTermRequest(address borrower, uint256 lastTime)\n        external\n    {\n        borrowerToLastLoanTermRequest[borrower] = lastTime;\n    }\n\n    function mockRequestNonce(\n        address borrower,\n        uint256 borrowerNonce,\n        bool taken\n    ) external {\n        requestNonceTaken[borrower][borrowerNonce] = taken;\n    }\n\n    function mockChainId(uint256 newChainId) external {\n        _mockChainId = newChainId;\n    }\n\n    function externalProcessResponse(\n        TellerCommon.LoanRequest calldata request,\n        TellerCommon.LoanResponse calldata response,\n        bytes32 requestHash\n    ) external {\n        _processResponse(request, response, requestHash);\n    }\n\n    function externalHashResponse(\n        TellerCommon.LoanResponse calldata response,\n        bytes32 requestHash\n    ) external view returns (bytes32) {\n        return _hashResponse(response, requestHash);\n    }\n\n    function externalHashRequest(TellerCommon.LoanRequest calldata request)\n        external\n        view\n        returns (bytes32)\n    {\n        return _hashRequest(request);\n    }\n\n    function _getChainId() internal view returns (uint256) {\n        return _mockChainId;\n    }\n\n    function externalRequireRequestLoanTermsRateLimit(\n        TellerCommon.LoanRequest calldata request\n    ) external view returns (bool) {\n        super._requireRequestLoanTermsRateLimit(request);\n        return true;\n    }\n\n    function _isCaller(address) internal view returns (bool) {\n        return true;\n    }\n}\n",
  "sourcePath": "/Users/sy/Documents/GitHub/teller-protocol-v1/contracts/mock/base/LoanTermsConsensusMock.sol",
  "compiler": {
    "name": "solc",
    "version": "0.5.17+commit.d19bba13.Emscripten.clang"
  },
  "schemaVersion": "3.0.23",
  "updatedAt": "2020-09-15T23:09:49.918Z",
  "devdoc": {
    "methods": {
      "addSigner(address)": {
        "details": "The sender must be the owner.It throws a require error if the sender is not the owner.",
        "params": {
          "account": "address to add."
        }
      },
      "addSigners(address[])": {
        "details": "The sender must be the owner.It throws a require error if the sender is not the owner.",
        "params": {
          "accounts": "addresses to add."
        }
      },
      "initialize(address)": {
        "details": "Initializes the contract setting the deployer as the initial owner."
      },
      "initialize(address,address,address)": {
        "details": "The caller address must be the loans contract for LoanTermsConsensus, and the lenders contract for InterestConsensus.",
        "params": {
          "aCallerAddress": "the contract that will call it.",
          "aSettingAddress": "the settings contract address.",
          "owner": "the owner address."
        }
      },
      "initialized()": {
        "return": "true if contract is initialized. Otherwise it returns false."
      },
      "isOwner()": {
        "details": "Returns true if the caller is the current owner."
      },
      "isSigner(address)": {
        "params": {
          "account": "address to test."
        },
        "return": "true if account is a signer. Otherwise it returns false."
      },
      "owner()": {
        "details": "Returns the address of the current owner."
      },
      "processRequest((address,address,address,uint256,uint256,uint256,uint256),(address,address,uint256,uint256,uint256,uint256,(uint256,uint8,bytes32,bytes32))[])": {
        "params": {
          "request": "Struct of the protocol loan request",
          "responses": "List of structs of the protocol loan responses"
        },
        "return": "uint256 Interest rateuint256 Collateral ratiouint256 Maximum loan amount"
      },
      "removeSigner(address)": {
        "details": "The sender must be the owner.It throws a require error if the sender is not the owner.",
        "params": {
          "account": "address to remove."
        }
      },
      "renounceOwnership()": {
        "details": "Leaves the contract without owner. It will not be possible to call `onlyOwner` functions anymore. Can only be called by the current owner.     * > Note: Renouncing ownership will leave the contract without an owner, thereby removing any functionality that is only available to the owner."
      },
      "settings()": {
        "details": "This address should NOT change over the time. See details in the _setSettings(...) function."
      },
      "transferOwnership(address)": {
        "details": "Transfers ownership of the contract to a new account (`newOwner`). Can only be called by the current owner."
      }
    }
  },
  "userdoc": {
    "methods": {
      "addSigner(address)": {
        "notice": "It adds a new account as a signer."
      },
      "addSigners(address[])": {
        "notice": "It adds a list of account as signers."
      },
      "initialize(address,address,address)": {
        "notice": "It initializes this consensus contract."
      },
      "initialized()": {
        "notice": "Gets if the contract is initialized."
      },
      "isSigner(address)": {
        "notice": "Gets whether an account address is a signer or not."
      },
      "processRequest((address,address,address,uint256,uint256,uint256,uint256),(address,address,uint256,uint256,uint256,uint256,(uint256,uint8,bytes32,bytes32))[])": {
        "notice": "Processes the loan request"
      },
      "removeSigner(address)": {
        "notice": "It removes an account as signer."
      },
      "settings()": {
        "notice": "The gets the settings contract address from the SETTINGS_SLOT."
      }
    }
  }
}