{
  "contractName": "LoansBaseMock",
  "abi": [
    {
      "anonymous": false,
      "inputs": [
        {
          "indexed": true,
          "internalType": "uint256",
          "name": "loanID",
          "type": "uint256"
        },
        {
          "indexed": true,
          "internalType": "address",
          "name": "borrower",
          "type": "address"
        },
        {
          "indexed": false,
          "internalType": "uint256",
          "name": "depositAmount",
          "type": "uint256"
        }
      ],
      "name": "CollateralDeposited",
      "type": "event"
    },
    {
      "anonymous": false,
      "inputs": [
        {
          "indexed": true,
          "internalType": "uint256",
          "name": "loanID",
          "type": "uint256"
        },
        {
          "indexed": true,
          "internalType": "address",
          "name": "borrower",
          "type": "address"
        },
        {
          "indexed": false,
          "internalType": "uint256",
          "name": "withdrawalAmount",
          "type": "uint256"
        }
      ],
      "name": "CollateralWithdrawn",
      "type": "event"
    },
    {
      "anonymous": false,
      "inputs": [
        {
          "indexed": true,
          "internalType": "uint256",
          "name": "loanID",
          "type": "uint256"
        },
        {
          "indexed": true,
          "internalType": "address",
          "name": "borrower",
          "type": "address"
        },
        {
          "indexed": false,
          "internalType": "address",
          "name": "liquidator",
          "type": "address"
        },
        {
          "indexed": false,
          "internalType": "uint256",
          "name": "collateralOut",
          "type": "uint256"
        },
        {
          "indexed": false,
          "internalType": "uint256",
          "name": "tokensIn",
          "type": "uint256"
        }
      ],
      "name": "LoanLiquidated",
      "type": "event"
    },
    {
      "anonymous": false,
      "inputs": [
        {
          "indexed": true,
          "internalType": "uint256",
          "name": "loanID",
          "type": "uint256"
        },
        {
          "indexed": true,
          "internalType": "address",
          "name": "borrower",
          "type": "address"
        },
        {
          "indexed": false,
          "internalType": "uint256",
          "name": "amountPaid",
          "type": "uint256"
        },
        {
          "indexed": false,
          "internalType": "address",
          "name": "payer",
          "type": "address"
        },
        {
          "indexed": false,
          "internalType": "uint256",
          "name": "totalOwed",
          "type": "uint256"
        }
      ],
      "name": "LoanRepaid",
      "type": "event"
    },
    {
      "anonymous": false,
      "inputs": [
        {
          "indexed": true,
          "internalType": "uint256",
          "name": "loanID",
          "type": "uint256"
        },
        {
          "indexed": true,
          "internalType": "address",
          "name": "borrower",
          "type": "address"
        },
        {
          "indexed": true,
          "internalType": "address",
          "name": "escrow",
          "type": "address"
        },
        {
          "indexed": false,
          "internalType": "uint256",
          "name": "amountBorrowed",
          "type": "uint256"
        }
      ],
      "name": "LoanTakenOut",
      "type": "event"
    },
    {
      "anonymous": false,
      "inputs": [
        {
          "indexed": true,
          "internalType": "uint256",
          "name": "loanID",
          "type": "uint256"
        },
        {
          "indexed": true,
          "internalType": "address",
          "name": "borrower",
          "type": "address"
        },
        {
          "indexed": true,
          "internalType": "address",
          "name": "recipient",
          "type": "address"
        },
        {
          "indexed": false,
          "internalType": "uint256",
          "name": "interestRate",
          "type": "uint256"
        },
        {
          "indexed": false,
          "internalType": "uint256",
          "name": "collateralRatio",
          "type": "uint256"
        },
        {
          "indexed": false,
          "internalType": "uint256",
          "name": "maxLoanAmount",
          "type": "uint256"
        },
        {
          "indexed": false,
          "internalType": "uint256",
          "name": "duration",
          "type": "uint256"
        },
        {
          "indexed": false,
          "internalType": "uint256",
          "name": "termsExpiry",
          "type": "uint256"
        }
      ],
      "name": "LoanTermsSet",
      "type": "event"
    },
    {
      "anonymous": false,
      "inputs": [
        {
          "indexed": true,
          "internalType": "address",
          "name": "sender",
          "type": "address"
        },
        {
          "indexed": true,
          "internalType": "address",
          "name": "oldPriceOracle",
          "type": "address"
        },
        {
          "indexed": true,
          "internalType": "address",
          "name": "newPriceOracle",
          "type": "address"
        }
      ],
      "name": "PriceOracleUpdated",
      "type": "event"
    },
    {
      "constant": true,
      "inputs": [
        {
          "internalType": "address",
          "name": "",
          "type": "address"
        },
        {
          "internalType": "uint256",
          "name": "",
          "type": "uint256"
        }
      ],
      "name": "borrowerLoans",
      "outputs": [
        {
          "internalType": "uint256",
          "name": "",
          "type": "uint256"
        }
      ],
      "payable": false,
      "stateMutability": "view",
      "type": "function"
    },
    {
      "constant": true,
      "inputs": [],
      "name": "cToken",
      "outputs": [
        {
          "internalType": "address",
          "name": "",
          "type": "address"
        }
      ],
      "payable": false,
      "stateMutability": "view",
      "type": "function"
    },
    {
      "constant": true,
      "inputs": [
        {
          "internalType": "uint256",
          "name": "loanID",
          "type": "uint256"
        }
      ],
      "name": "canLiquidateLoan",
      "outputs": [
        {
          "internalType": "bool",
          "name": "",
          "type": "bool"
        }
      ],
      "payable": false,
      "stateMutability": "view",
      "type": "function"
    },
    {
      "constant": true,
      "inputs": [],
      "name": "collateralToken",
      "outputs": [
        {
          "internalType": "address",
          "name": "",
          "type": "address"
        }
      ],
      "payable": false,
      "stateMutability": "view",
      "type": "function"
    },
    {
      "constant": false,
      "inputs": [
        {
          "internalType": "address",
          "name": "settingsAddress",
          "type": "address"
        }
      ],
      "name": "externalInitialize",
      "outputs": [],
      "payable": false,
      "stateMutability": "nonpayable",
      "type": "function"
    },
    {
      "constant": false,
      "inputs": [
        {
          "internalType": "address",
          "name": "lendingPoolAddress",
          "type": "address"
        }
      ],
      "name": "externalWhenLendingPoolNotPaused",
      "outputs": [],
      "payable": false,
      "stateMutability": "nonpayable",
      "type": "function"
    },
    {
      "constant": false,
      "inputs": [
        {
          "internalType": "address",
          "name": "lendingPoolAddress",
          "type": "address"
        }
      ],
      "name": "externalWhenLendingPoolPaused",
      "outputs": [],
      "payable": false,
      "stateMutability": "nonpayable",
      "type": "function"
    },
    {
      "constant": false,
      "inputs": [],
      "name": "externalWhenNotPaused",
      "outputs": [],
      "payable": false,
      "stateMutability": "nonpayable",
      "type": "function"
    },
    {
      "constant": false,
      "inputs": [],
      "name": "externalWhenPaused",
      "outputs": [],
      "payable": false,
      "stateMutability": "nonpayable",
      "type": "function"
    },
    {
      "constant": true,
      "inputs": [
        {
          "internalType": "address",
          "name": "borrower",
          "type": "address"
        }
      ],
      "name": "getBorrowerLoans",
      "outputs": [
        {
          "internalType": "uint256[]",
          "name": "",
          "type": "uint256[]"
        }
      ],
      "payable": false,
      "stateMutability": "view",
      "type": "function"
    },
    {
      "constant": true,
      "inputs": [
        {
          "internalType": "uint256",
          "name": "loanID",
          "type": "uint256"
        }
      ],
      "name": "getCollateralInfo",
      "outputs": [
        {
          "components": [
            {
              "internalType": "uint256",
              "name": "collateral",
              "type": "uint256"
            },
            {
              "internalType": "uint256",
              "name": "neededInLendingTokens",
              "type": "uint256"
            },
            {
              "internalType": "uint256",
              "name": "neededInCollateralTokens",
              "type": "uint256"
            },
            {
              "internalType": "bool",
              "name": "moreCollateralRequired",
              "type": "bool"
            }
          ],
          "internalType": "struct TellerCommon.LoanCollateralInfo",
          "name": "",
          "type": "tuple"
        }
      ],
      "payable": false,
      "stateMutability": "view",
      "type": "function"
    },
    {
      "constant": true,
      "inputs": [
        {
          "internalType": "uint256",
          "name": "loanID",
          "type": "uint256"
        }
      ],
      "name": "getLiquidationInfo",
      "outputs": [
        {
          "components": [
            {
              "internalType": "uint256",
              "name": "collateral",
              "type": "uint256"
            },
            {
              "internalType": "uint256",
              "name": "collateralInTokens",
              "type": "uint256"
            },
            {
              "internalType": "uint256",
              "name": "amountToLiquidate",
              "type": "uint256"
            },
            {
              "internalType": "bool",
              "name": "liquidable",
              "type": "bool"
            }
          ],
          "internalType": "struct TellerCommon.LoanLiquidationInfo",
          "name": "liquidationInfo",
          "type": "tuple"
        }
      ],
      "payable": false,
      "stateMutability": "view",
      "type": "function"
    },
    {
      "constant": true,
      "inputs": [
        {
          "internalType": "uint256",
          "name": "loanID",
          "type": "uint256"
        }
      ],
      "name": "getTotalOwed",
      "outputs": [
        {
          "internalType": "uint256",
          "name": "",
          "type": "uint256"
        }
      ],
      "payable": false,
      "stateMutability": "view",
      "type": "function"
    },
    {
      "constant": true,
      "inputs": [],
      "name": "initialized",
      "outputs": [
        {
          "internalType": "bool",
          "name": "value",
          "type": "bool"
        }
      ],
      "payable": false,
      "stateMutability": "view",
      "type": "function"
    },
    {
      "constant": true,
      "inputs": [
        {
          "internalType": "uint256",
          "name": "loanID",
          "type": "uint256"
        }
      ],
      "name": "isLoanSecured",
      "outputs": [
        {
          "internalType": "bool",
          "name": "",
          "type": "bool"
        }
      ],
      "payable": false,
      "stateMutability": "view",
      "type": "function"
    },
    {
      "constant": true,
      "inputs": [],
      "name": "lendingPool",
      "outputs": [
        {
          "internalType": "contract LendingPoolInterface",
          "name": "",
          "type": "address"
        }
      ],
      "payable": false,
      "stateMutability": "view",
      "type": "function"
    },
    {
      "constant": true,
      "inputs": [],
      "name": "lendingToken",
      "outputs": [
        {
          "internalType": "address",
          "name": "",
          "type": "address"
        }
      ],
      "payable": false,
      "stateMutability": "view",
      "type": "function"
    },
    {
      "constant": false,
      "inputs": [
        {
          "internalType": "uint256",
          "name": "loanID",
          "type": "uint256"
        }
      ],
      "name": "liquidateLoan",
      "outputs": [],
      "payable": false,
      "stateMutability": "nonpayable",
      "type": "function"
    },
    {
      "constant": true,
      "inputs": [],
      "name": "loanIDCounter",
      "outputs": [
        {
          "internalType": "uint256",
          "name": "",
          "type": "uint256"
        }
      ],
      "payable": false,
      "stateMutability": "view",
      "type": "function"
    },
    {
      "constant": true,
      "inputs": [],
      "name": "loanTermsConsensus",
      "outputs": [
        {
          "internalType": "contract LoanTermsConsensusInterface",
          "name": "",
          "type": "address"
        }
      ],
      "payable": false,
      "stateMutability": "view",
      "type": "function"
    },
    {
      "constant": true,
      "inputs": [
        {
          "internalType": "uint256",
          "name": "",
          "type": "uint256"
        }
      ],
      "name": "loans",
      "outputs": [
        {
          "internalType": "uint256",
          "name": "id",
          "type": "uint256"
        },
        {
          "components": [
            {
              "internalType": "address payable",
              "name": "borrower",
              "type": "address"
            },
            {
              "internalType": "address",
              "name": "recipient",
              "type": "address"
            },
            {
              "internalType": "uint256",
              "name": "interestRate",
              "type": "uint256"
            },
            {
              "internalType": "uint256",
              "name": "collateralRatio",
              "type": "uint256"
            },
            {
              "internalType": "uint256",
              "name": "maxLoanAmount",
              "type": "uint256"
            },
            {
              "internalType": "uint256",
              "name": "duration",
              "type": "uint256"
            }
          ],
          "internalType": "struct TellerCommon.LoanTerms",
          "name": "loanTerms",
          "type": "tuple"
        },
        {
          "internalType": "uint256",
          "name": "termsExpiry",
          "type": "uint256"
        },
        {
          "internalType": "uint256",
          "name": "loanStartTime",
          "type": "uint256"
        },
        {
          "internalType": "uint256",
          "name": "collateral",
          "type": "uint256"
        },
        {
          "internalType": "uint256",
          "name": "lastCollateralIn",
          "type": "uint256"
        },
        {
          "internalType": "uint256",
          "name": "principalOwed",
          "type": "uint256"
        },
        {
          "internalType": "uint256",
          "name": "interestOwed",
          "type": "uint256"
        },
        {
          "internalType": "uint256",
          "name": "borrowedAmount",
          "type": "uint256"
        },
        {
          "internalType": "address",
          "name": "escrow",
          "type": "address"
        },
        {
          "internalType": "enum TellerCommon.LoanStatus",
          "name": "status",
          "type": "uint8"
        },
        {
          "internalType": "bool",
          "name": "liquidated",
          "type": "bool"
        }
      ],
      "payable": false,
      "stateMutability": "view",
      "type": "function"
    },
    {
      "constant": true,
      "inputs": [],
      "name": "priceOracle",
      "outputs": [
        {
          "internalType": "address",
          "name": "",
          "type": "address"
        }
      ],
      "payable": false,
      "stateMutability": "view",
      "type": "function"
    },
    {
      "constant": false,
      "inputs": [
        {
          "internalType": "uint256",
          "name": "amount",
          "type": "uint256"
        },
        {
          "internalType": "uint256",
          "name": "loanID",
          "type": "uint256"
        }
      ],
      "name": "repay",
      "outputs": [],
      "payable": false,
      "stateMutability": "nonpayable",
      "type": "function"
    },
    {
      "constant": false,
      "inputs": [
        {
          "internalType": "address",
          "name": "newPriceOracle",
          "type": "address"
        }
      ],
      "name": "setPriceOracle",
      "outputs": [],
      "payable": false,
      "stateMutability": "nonpayable",
      "type": "function"
    },
    {
      "constant": true,
      "inputs": [],
      "name": "settings",
      "outputs": [
        {
          "internalType": "contract SettingsInterface",
          "name": "",
          "type": "address"
        }
      ],
      "payable": false,
      "stateMutability": "view",
      "type": "function"
    },
    {
      "constant": true,
      "inputs": [],
      "name": "tToken",
      "outputs": [
        {
          "internalType": "address",
          "name": "",
          "type": "address"
        }
      ],
      "payable": false,
      "stateMutability": "view",
      "type": "function"
    },
    {
      "constant": false,
      "inputs": [
        {
          "internalType": "uint256",
          "name": "loanID",
          "type": "uint256"
        },
        {
          "internalType": "uint256",
          "name": "amountBorrow",
          "type": "uint256"
        }
      ],
      "name": "takeOutLoan",
      "outputs": [],
      "payable": false,
      "stateMutability": "nonpayable",
      "type": "function"
    },
    {
      "constant": true,
      "inputs": [],
      "name": "totalCollateral",
      "outputs": [
        {
          "internalType": "uint256",
          "name": "",
          "type": "uint256"
        }
      ],
      "payable": false,
      "stateMutability": "view",
      "type": "function"
    },
    {
      "constant": false,
      "inputs": [
        {
          "internalType": "uint256",
          "name": "amount",
          "type": "uint256"
        },
        {
          "internalType": "uint256",
          "name": "loanID",
          "type": "uint256"
        }
      ],
      "name": "withdrawCollateral",
      "outputs": [],
      "payable": false,
      "stateMutability": "nonpayable",
      "type": "function"
    },
    {
      "constant": false,
      "inputs": [
        {
          "internalType": "uint256",
          "name": "loanID",
          "type": "uint256"
        },
        {
          "internalType": "uint256",
          "name": "toPay",
          "type": "uint256"
        }
      ],
      "name": "externalPayLoan",
      "outputs": [],
      "payable": false,
      "stateMutability": "nonpayable",
      "type": "function"
    },
    {
      "constant": true,
      "inputs": [
        {
          "internalType": "uint256",
          "name": "weiAmount",
          "type": "uint256"
        }
      ],
      "name": "externalConvertWeiToToken",
      "outputs": [
        {
          "internalType": "uint256",
          "name": "",
          "type": "uint256"
        }
      ],
      "payable": false,
      "stateMutability": "view",
      "type": "function"
    },
    {
      "constant": true,
      "inputs": [
        {
          "internalType": "uint256",
          "name": "tokenAmount",
          "type": "uint256"
        }
      ],
      "name": "externalConvertTokenToWei",
      "outputs": [
        {
          "internalType": "uint256",
          "name": "",
          "type": "uint256"
        }
      ],
      "payable": false,
      "stateMutability": "view",
      "type": "function"
    },
    {
      "constant": true,
      "inputs": [
        {
          "internalType": "uint256",
          "name": "newLoanAmount",
          "type": "uint256"
        }
      ],
      "name": "externalIsSupplyToDebtRatioValid",
      "outputs": [
        {
          "internalType": "bool",
          "name": "",
          "type": "bool"
        }
      ],
      "payable": false,
      "stateMutability": "view",
      "type": "function"
    },
    {
      "constant": false,
      "inputs": [
        {
          "internalType": "uint256",
          "name": "id",
          "type": "uint256"
        },
        {
          "components": [
            {
              "internalType": "address payable",
              "name": "borrower",
              "type": "address"
            },
            {
              "internalType": "address",
              "name": "recipient",
              "type": "address"
            },
            {
              "internalType": "uint256",
              "name": "interestRate",
              "type": "uint256"
            },
            {
              "internalType": "uint256",
              "name": "collateralRatio",
              "type": "uint256"
            },
            {
              "internalType": "uint256",
              "name": "maxLoanAmount",
              "type": "uint256"
            },
            {
              "internalType": "uint256",
              "name": "duration",
              "type": "uint256"
            }
          ],
          "internalType": "struct TellerCommon.LoanTerms",
          "name": "loanTerms",
          "type": "tuple"
        },
        {
          "internalType": "uint256",
          "name": "termsExpiry",
          "type": "uint256"
        },
        {
          "internalType": "uint256",
          "name": "loanStartTime",
          "type": "uint256"
        },
        {
          "internalType": "uint256",
          "name": "collateral",
          "type": "uint256"
        },
        {
          "internalType": "uint256",
          "name": "lastCollateralIn",
          "type": "uint256"
        },
        {
          "internalType": "uint256",
          "name": "principalOwed",
          "type": "uint256"
        },
        {
          "internalType": "uint256",
          "name": "interestOwed",
          "type": "uint256"
        },
        {
          "internalType": "uint256",
          "name": "borrowedAmount",
          "type": "uint256"
        },
        {
          "internalType": "enum TellerCommon.LoanStatus",
          "name": "status",
          "type": "uint8"
        },
        {
          "internalType": "bool",
          "name": "liquidated",
          "type": "bool"
        }
      ],
      "name": "setLoan",
      "outputs": [],
      "payable": false,
      "stateMutability": "nonpayable",
      "type": "function"
    },
    {
      "constant": false,
      "inputs": [
        {
          "components": [
            {
              "internalType": "uint256",
              "name": "id",
              "type": "uint256"
            },
            {
              "components": [
                {
                  "internalType": "address payable",
                  "name": "borrower",
                  "type": "address"
                },
                {
                  "internalType": "address",
                  "name": "recipient",
                  "type": "address"
                },
                {
                  "internalType": "uint256",
                  "name": "interestRate",
                  "type": "uint256"
                },
                {
                  "internalType": "uint256",
                  "name": "collateralRatio",
                  "type": "uint256"
                },
                {
                  "internalType": "uint256",
                  "name": "maxLoanAmount",
                  "type": "uint256"
                },
                {
                  "internalType": "uint256",
                  "name": "duration",
                  "type": "uint256"
                }
              ],
              "internalType": "struct TellerCommon.LoanTerms",
              "name": "loanTerms",
              "type": "tuple"
            },
            {
              "internalType": "uint256",
              "name": "termsExpiry",
              "type": "uint256"
            },
            {
              "internalType": "uint256",
              "name": "loanStartTime",
              "type": "uint256"
            },
            {
              "internalType": "uint256",
              "name": "collateral",
              "type": "uint256"
            },
            {
              "internalType": "uint256",
              "name": "lastCollateralIn",
              "type": "uint256"
            },
            {
              "internalType": "uint256",
              "name": "principalOwed",
              "type": "uint256"
            },
            {
              "internalType": "uint256",
              "name": "interestOwed",
              "type": "uint256"
            },
            {
              "internalType": "uint256",
              "name": "borrowedAmount",
              "type": "uint256"
            },
            {
              "internalType": "address",
              "name": "escrow",
              "type": "address"
            },
            {
              "internalType": "enum TellerCommon.LoanStatus",
              "name": "status",
              "type": "uint8"
            },
            {
              "internalType": "bool",
              "name": "liquidated",
              "type": "bool"
            }
          ],
          "internalType": "struct TellerCommon.Loan",
          "name": "loan",
          "type": "tuple"
        }
      ],
      "name": "setLoan",
      "outputs": [],
      "payable": false,
      "stateMutability": "nonpayable",
      "type": "function"
    },
    {
      "constant": false,
      "inputs": [
        {
          "internalType": "uint256",
          "name": "loanID",
          "type": "uint256"
        },
        {
          "internalType": "address",
          "name": "escrowAddress",
          "type": "address"
        }
      ],
      "name": "setEscrowForLoan",
      "outputs": [],
      "payable": false,
      "stateMutability": "nonpayable",
      "type": "function"
    },
    {
      "constant": false,
      "inputs": [
        {
          "internalType": "uint256",
          "name": "loanID",
          "type": "uint256"
        },
        {
          "internalType": "address",
          "name": "recipient",
          "type": "address"
        }
      ],
      "name": "externalEscrowClaimTokens",
      "outputs": [],
      "payable": false,
      "stateMutability": "nonpayable",
      "type": "function"
    },
    {
      "constant": false,
      "inputs": [
        {
          "internalType": "uint256",
          "name": "loanID",
          "type": "uint256"
        },
        {
          "internalType": "uint256",
          "name": "neededInLending",
          "type": "uint256"
        },
        {
          "internalType": "uint256",
          "name": "neededInCollateral",
          "type": "uint256"
        }
      ],
      "name": "mockGetCollateralInfo",
      "outputs": [],
      "payable": false,
      "stateMutability": "nonpayable",
      "type": "function"
    },
    {
      "constant": false,
      "inputs": [
        {
          "internalType": "address",
          "name": "priceOracleAddress",
          "type": "address"
        },
        {
          "internalType": "address",
          "name": "lendingPoolAddress",
          "type": "address"
        },
        {
          "internalType": "address",
          "name": "loanTermsConsensusAddress",
          "type": "address"
        },
        {
          "internalType": "address",
          "name": "settingsAddress",
          "type": "address"
        },
        {
          "internalType": "address",
          "name": "",
          "type": "address"
        }
      ],
      "name": "initialize",
      "outputs": [],
      "payable": false,
      "stateMutability": "nonpayable",
      "type": "function"
    },
    {
      "constant": false,
      "inputs": [],
      "name": "initialize",
      "outputs": [],
      "payable": false,
      "stateMutability": "nonpayable",
      "type": "function"
    },
    {
      "constant": false,
      "inputs": [
        {
          "internalType": "address",
          "name": "borrower",
          "type": "address"
        },
        {
          "internalType": "uint256",
          "name": "loanID",
          "type": "uint256"
        },
        {
          "internalType": "uint256",
          "name": "amount",
          "type": "uint256"
        }
      ],
      "name": "depositCollateral",
      "outputs": [],
      "payable": true,
      "stateMutability": "payable",
      "type": "function"
    },
    {
      "constant": false,
      "inputs": [
        {
          "components": [
            {
              "internalType": "address payable",
              "name": "borrower",
              "type": "address"
            },
            {
              "internalType": "address",
              "name": "recipient",
              "type": "address"
            },
            {
              "internalType": "address",
              "name": "consensusAddress",
              "type": "address"
            },
            {
              "internalType": "uint256",
              "name": "requestNonce",
              "type": "uint256"
            },
            {
              "internalType": "uint256",
              "name": "amount",
              "type": "uint256"
            },
            {
              "internalType": "uint256",
              "name": "duration",
              "type": "uint256"
            },
            {
              "internalType": "uint256",
              "name": "requestTime",
              "type": "uint256"
            }
          ],
          "internalType": "struct TellerCommon.LoanRequest",
          "name": "request",
          "type": "tuple"
        },
        {
          "components": [
            {
              "internalType": "address",
              "name": "signer",
              "type": "address"
            },
            {
              "internalType": "address",
              "name": "consensusAddress",
              "type": "address"
            },
            {
              "internalType": "uint256",
              "name": "responseTime",
              "type": "uint256"
            },
            {
              "internalType": "uint256",
              "name": "interestRate",
              "type": "uint256"
            },
            {
              "internalType": "uint256",
              "name": "collateralRatio",
              "type": "uint256"
            },
            {
              "internalType": "uint256",
              "name": "maxLoanAmount",
              "type": "uint256"
            },
            {
              "components": [
                {
                  "internalType": "uint256",
                  "name": "signerNonce",
                  "type": "uint256"
                },
                {
                  "internalType": "uint8",
                  "name": "v",
                  "type": "uint8"
                },
                {
                  "internalType": "bytes32",
                  "name": "r",
                  "type": "bytes32"
                },
                {
                  "internalType": "bytes32",
                  "name": "s",
                  "type": "bytes32"
                }
              ],
              "internalType": "struct TellerCommon.Signature",
              "name": "signature",
              "type": "tuple"
            }
          ],
          "internalType": "struct TellerCommon.LoanResponse[]",
          "name": "responses",
          "type": "tuple[]"
        },
        {
          "internalType": "uint256",
          "name": "collateralAmount",
          "type": "uint256"
        }
      ],
      "name": "createLoanWithTerms",
      "outputs": [],
      "payable": true,
      "stateMutability": "payable",
      "type": "function"
    },
    {
      "constant": false,
      "inputs": [
        {
          "internalType": "uint256",
          "name": "loanID",
          "type": "uint256"
        }
      ],
      "name": "externalCreateEscrow",
      "outputs": [
        {
          "internalType": "address",
          "name": "",
          "type": "address"
        }
      ],
      "payable": false,
      "stateMutability": "nonpayable",
      "type": "function"
    }
  ],
  "bytecode": "0x608060405234801561001057600080fd5b506148ac806100206000396000f3fe60806040526004361061025c5760003560e01c8063803a088211610144578063c1578904116100b6578063e06174e41161007a578063e06174e4146106a4578063e1ec3c68146106b9578063e3ed1902146106f1578063eee8b7ff14610711578063f1d982061461073e578063ff8a133f1461075e5761025c565b8063c15789041461061a578063c35d64ea1461063a578063ccdd9f5d1461064f578063d03399bf1461066f578063d8aed145146106845761025c565b8063a59966e711610108578063a59966e714610588578063a59a9973146105a8578063a5c5c7b2146105bd578063aaaca558146105d0578063b2016bd4146105e5578063bd1a6190146105fa5761025c565b8063803a0882146104f35780638129fc1c14610513578063854768c01461052857806391d7145714610548578063934b5d13146105685761025c565b806350ef5c35116101dd5780636948f32b116101a15780636948f32b1461044957806369e527da14610469578063721405651461047e578063749b76771461049e578063767a7b05146104b357806379ede5ef146104d35761025c565b806350ef5c35146103a557806351348454146103d2578063530e784f146103e757806358895e3d146104075780635dd39ffe146104295761025c565b80632630c12f116102245780632630c12f1461030157806327e3bdec146103235780633164d8ae146103505780633b929300146103705780634ac8eb5f146103905761025c565b806302bc2cdb146102615780630417e7c9146102835780631459457a146102b9578063158ef93e146102d95780631a74856b146102ee575b600080fd5b34801561026d57600080fd5b5061028161027c366004613b88565b61077e565b005b34801561028f57600080fd5b506102a361029e366004613a47565b610e65565b6040516102b09190614465565b60405180910390f35b3480156102c557600080fd5b506102816102d4366004613848565b610e78565b3480156102e557600080fd5b506102a3610ea9565b6102816102fc3660046138f7565b610ec8565b34801561030d57600080fd5b50610316610ecd565b6040516102b091906143bf565b34801561032f57600080fd5b5061034361033e366004613a47565b610edc565b6040516102b09190614473565b34801561035c57600080fd5b5061028161036b36600461380c565b610ee7565b34801561037c57600080fd5b5061034361038b366004613a47565b610f12565b34801561039c57600080fd5b50610343610f3a565b3480156103b157600080fd5b506103c56103c0366004613a47565b610f40565b6040516102b09190614650565b3480156103de57600080fd5b50610343610f51565b3480156103f357600080fd5b5061028161040236600461380c565b610f57565b34801561041357600080fd5b5061041c6110b5565b6040516102b09190614481565b34801561043557600080fd5b50610281610444366004613b88565b6110c4565b34801561045557600080fd5b506102a3610464366004613a47565b6110ce565b34801561047557600080fd5b50610316611227565b34801561048a57600080fd5b50610281610499366004613a95565b6112a9565b3480156104aa57600080fd5b50610281611478565b3480156104bf57600080fd5b506102816104ce366004613b88565b61149e565b3480156104df57600080fd5b506103436104ee366004613a47565b6116b4565b3480156104ff57600080fd5b5061031661050e366004613a47565b6116bf565b34801561051f57600080fd5b506102816116ca565b34801561053457600080fd5b506102a3610543366004613a47565b611752565b34801561055457600080fd5b50610281610563366004613a65565b6118d9565b34801561057457600080fd5b506103c5610583366004613a47565b61190a565b34801561059457600080fd5b506102816105a336600461380c565b61191b565b3480156105b457600080fd5b5061041c611941565b6102816105cb36600461399e565b611950565b3480156105dc57600080fd5b50610316611956565b3480156105f157600080fd5b5061031661199b565b34801561060657600080fd5b50610281610615366004613a65565b6119aa565b34801561062657600080fd5b5061028161063536600461380c565b611a20565b34801561064657600080fd5b50610316611a29565b34801561065b57600080fd5b5061028161066a366004613a47565b611a6e565b34801561067b57600080fd5b50610281611c96565b34801561069057600080fd5b5061028161069f366004613b88565b611cbb565b3480156106b057600080fd5b5061041c612096565b3480156106c557600080fd5b506106d96106d4366004613a47565b6120b8565b6040516102b09c9b9a999897969594939291906146a2565b3480156106fd57600080fd5b5061034361070c3660046138bd565b612170565b34801561071d57600080fd5b5061073161072c36600461380c565b61219e565b6040516102b09190614454565b34801561074a57600080fd5b50610281610759366004613a28565b61220a565b34801561076a57600080fd5b50610281610779366004613ba7565b612339565b8160016000828152606d60205260409020600e0154600160a01b900460ff1660038111156107a857fe5b146107ce5760405162461bcd60e51b81526004016107c590614620565b60405180910390fd5b6107d6610ea9565b6107f25760405162461bcd60e51b81526004016107c590614610565b6107fa61237e565b156108175760405162461bcd60e51b81526004016107c590614540565b606a546001600160a01b031661082c816123f8565b156108495760405162461bcd60e51b81526004016107c5906144b0565b603380546001908101918290556000868152606d6020526040902001546001600160a01b031633811461088e5760405162461bcd60e51b81526004016107c5906145e0565b6000868152606d60205260409020600501548511156108bf5760405162461bcd60e51b81526004016107c5906144c0565b6000868152606d60205260409020600701544211156108f05760405162461bcd60e51b81526004016107c590614590565b610a6a6108fb612096565b6001600160a01b031663269012a0610911612096565b6001600160a01b031663d86d744e6040518163ffffffff1660e01b815260040160206040518083038186803b15801561094957600080fd5b505afa15801561095d573d6000803e3d6000fd5b505050506040513d601f19601f820116820180604052506109819190810190613980565b6001600160a01b03166311880cc86040518163ffffffff1660e01b815260040160206040518083038186803b1580156109b957600080fd5b505afa1580156109cd573d6000803e3d6000fd5b505050506040513d601f19601f820116820180604052506109f19190810190613962565b6040518263ffffffff1660e01b8152600401610a0d9190614473565b60206040518083038186803b158015610a2557600080fd5b505afa158015610a39573d6000803e3d6000fd5b505050506040513d601f19601f82011682018060405250610a5d9190810190613962565b429063ffffffff61247d16565b6000878152606d60205260409020600a01541115610a9a5760405162461bcd60e51b81526004016107c590614570565b6000868152606d60205260409020600d8101869055600b81018690556006810154600390910154610aff916301e1338091610af39161271091839190610ae7908c9063ffffffff6124c816565b9063ffffffff6124c816565b9063ffffffff61250216565b6000878152606d60205260409020600c810191909155600e01805460ff60a01b1916600160a11b179055610b31613556565b610b3a87612544565b9050806060015115610b5e5760405162461bcd60e51b81526004016107c590614550565b6000878152606d6020526040902042600890910155610b7c8761259f565b6000888152606d602052604090819020600e0180546001600160a01b0319166001600160a01b039384161790819055606a549151631397424760e11b81529183169263272e848e92610bd4928b92169060040161465e565b600060405180830381600087803b158015610bee57600080fd5b505af1158015610c02573d6000803e3d6000fd5b5050506000888152606d602052604090819020600e0154905163cd6dc68760e01b81526001600160a01b03909116915063cd6dc68790610c489030908b90600401614439565b600060405180830381600087803b158015610c6257600080fd5b505af1158015610c76573d6000803e3d6000fd5b50505050610c82612698565b6001600160a01b031663c7bbb113606a60009054906101000a90046001600160a01b03166001600160a01b031663aaaca5586040518163ffffffff1660e01b815260040160206040518083038186803b158015610cde57600080fd5b505afa158015610cf2573d6000803e3d6000fd5b505050506040513d601f19601f82011682018060405250610d16919081019061382a565b306001600160a01b031663b2016bd46040518163ffffffff1660e01b815260040160206040518083038186803b158015610d4f57600080fd5b505afa158015610d63573d6000803e3d6000fd5b505050506040513d601f19601f82011682018060405250610d87919081019061382a565b896040518463ffffffff1660e01b8152600401610da69392919061441e565b600060405180830381600087803b158015610dc057600080fd5b505af1158015610dd4573d6000803e3d6000fd5b5050506000888152606d602052604090819020600e81015460019091015491516001600160a01b03918216935091169089907f85b5516a17ce775661a4b967b1fb30c852678f6598d86d9f3c99b7b60ff2d0ce90610e33908b90614473565b60405180910390a450506033548114610e5e5760405162461bcd60e51b81526004016107c590614630565b5050505050565b6000610e7082612712565b90505b919050565b610e80610ea9565b15610e9d5760405162461bcd60e51b81526004016107c590614640565b610e5e85858585612a82565b600080604051610eb8906143a9565b6040519081900390205492915050565b505050565b6069546001600160a01b031681565b6000610e7082612bd3565b80610ef1816123f8565b15610f0e5760405162461bcd60e51b81526004016107c5906144b0565b5050565b6000818152606d60205260408120600b810154600c90910154610e709163ffffffff612d1816565b60665481565b610f48613556565b610e7082612d3d565b60685481565b610f5f610ea9565b610f7b5760405162461bcd60e51b81526004016107c590614610565b610f83612096565b6001600160a01b031663c095ea27336040518263ffffffff1660e01b8152600401610fae91906143cd565b60006040518083038186803b158015610fc657600080fd5b505afa158015610fda573d6000803e3d6000fd5b50505050610ff0816001600160a01b0316612f19565b61100c5760405162461bcd60e51b81526004016107c5906145d0565b60695460408051808201909152601b81527f4e45575f4f5241434c455f4d5553545f42455f50524f5649444544000000000060208201526001600160a01b0390911690611062908290849063ffffffff612f5516565b606980546001600160a01b0319166001600160a01b03848116918217909255604051909183169033907ff51f0fffc8121ee3747e0536c487d894894cdba960ccfb4ab385a88d51b16fed90600090a45050565b606b546001600160a01b031681565b610f0e8282612f7e565b60006110d861237e565b806110f35750606a546110f3906001600160a01b03166123f8565b80611125575060026000838152606d60205260409020600e0154600160a01b900460ff16600381111561112257fe5b14155b1561113257506000610e73565b6000828152606d60205260408120600881015460069091015490914261115e848463ffffffff612d1816565b10905080156111735760019350505050610e73565b6000858152606d60205260409020600e01546001600160a01b0316801561121057806001600160a01b031663415dfa5b6040518163ffffffff1660e01b815260040160206040518083038186803b1580156111cd57600080fd5b505afa1580156111e1573d6000803e3d6000fd5b505050506040513d601f19601f820116820180604052506112059190810190613944565b945050505050610e73565b61121986612544565b606001519695505050505050565b606a54604080516334f293ed60e11b815290516000926001600160a01b0316916369e527da916004808301926020929190829003018186803b15801561126c57600080fd5b505afa158015611280573d6000803e3d6000fd5b505050506040513d601f19601f820116820180604052506112a4919081019061382a565b905090565b828a6080013510156112cd5760405162461bcd60e51b81526004016107c590614520565b6040518061018001604052808c81526020018b8036036112f09190810190613a0a565b81526020018a815260200189815260200188815260200187815260200186815260200185815260200184815260200160006001600160a01b0316815260200183600381111561133b57fe5b815282151560209182015260008d8152606d8252604090819020835181558383015180516001830180546001600160a01b03199081166001600160a01b0393841617909155948201516002840180548716918316919091179055818401516003808501919091556060808401516004860155608080850151600587015560a0948501516006870155958801516007860155870151600885015593860151600984015590850151600a83015560c0850151600b83015560e0850151600c830155610100850151600d830155610120850151600e830180549095169116178084556101408501519193919260ff60a01b1990911690600160a01b90849081111561143f57fe5b02179055506101609190910151600e9091018054911515600160a81b0260ff60a81b199092169190911790555050505050505050505050565b61148061237e565b61149c5760405162461bcd60e51b81526004016107c5906145b0565b565b8060016000828152606d60205260409020600e0154600160a01b900460ff1660038111156114c857fe5b14806114fa575060026000828152606d60205260409020600e0154600160a01b900460ff1660038111156114f857fe5b145b6115165760405162461bcd60e51b81526004016107c5906144e0565b61151e610ea9565b61153a5760405162461bcd60e51b81526004016107c590614610565b61154261237e565b1561155f5760405162461bcd60e51b81526004016107c590614540565b606a546001600160a01b0316611574816123f8565b156115915760405162461bcd60e51b81526004016107c5906144b0565b603380546001908101918290556000858152606d6020526040902001546001600160a01b031633146115d55760405162461bcd60e51b81526004016107c590614600565b600085116115f55760405162461bcd60e51b81526004016107c590614530565b6115fd613556565b61160685612544565b604081015181519192506000916116229163ffffffff61247d16565b9050868110156116445760405162461bcd60e51b81526004016107c590614580565b61164f868833610ec8565b336001600160a01b0316867f7c5e5cb62e5ed3caf3764e4b0afedfedef533e27809d43367799787ad2abcd41896040516116899190614473565b60405180910390a350506033548114610e5e5760405162461bcd60e51b81526004016107c590614630565b6000610e7082613039565b6000610e708261259f565b600054610100900460ff16806116e357506116e361312d565b806116f1575060005460ff16155b61170d5760405162461bcd60e51b81526004016107c5906145a0565b600054610100900460ff16158015611738576000805460ff1961ff0019909116610100171660011790555b6001603355801561174f576000805461ff00191690555b50565b600061175c612096565b6001600160a01b031663269012a0611772612096565b6001600160a01b031663d86d744e6040518163ffffffff1660e01b815260040160206040518083038186803b1580156117aa57600080fd5b505afa1580156117be573d6000803e3d6000fd5b505050506040513d601f19601f820116820180604052506117e29190810190613980565b6001600160a01b03166308b04f626040518163ffffffff1660e01b815260040160206040518083038186803b15801561181a57600080fd5b505afa15801561182e573d6000803e3d6000fd5b505050506040513d601f19601f820116820180604052506118529190810190613962565b6040518263ffffffff1660e01b815260040161186e9190614473565b60206040518083038186803b15801561188657600080fd5b505afa15801561189a573d6000803e3d6000fd5b505050506040513d601f19601f820116820180604052506118be9190810190613962565b6000838152606d602052604090206004015410159050919050565b6000918252606d6020526040909120600e0180546001600160a01b0319166001600160a01b03909216919091179055565b611912613556565b610e7082612544565b80611925816123f8565b610f0e5760405162461bcd60e51b81526004016107c5906145f0565b606a546001600160a01b031681565b50505050565b606a546040805163155594ab60e31b815290516000926001600160a01b03169163aaaca558916004808301926020929190829003018186803b15801561126c57600080fd5b6067546001600160a01b031681565b6000828152606d602052604090819020600e0154905163df8de3e760e01b81526001600160a01b039091169063df8de3e7906119ea9084906004016143bf565b600060405180830381600087803b158015611a0457600080fd5b505af1158015611a18573d6000803e3d6000fd5b505050505050565b61174f81613133565b606a54604080516361aeb27560e11b815290516000926001600160a01b03169163c35d64ea916004808301926020929190829003018186803b15801561126c57600080fd5b8060026000828152606d60205260409020600e0154600160a01b900460ff166003811115611a9857fe5b14611ab55760405162461bcd60e51b81526004016107c590614510565b611abd610ea9565b611ad95760405162461bcd60e51b81526004016107c590614610565b611ae161237e565b15611afe5760405162461bcd60e51b81526004016107c590614540565b606a546001600160a01b0316611b13816123f8565b15611b305760405162461bcd60e51b81526004016107c5906144b0565b6033805460010190819055611b43613556565b611b4c85612d3d565b90508060600151611b6f5760405162461bcd60e51b81526004016107c590614500565b6000858152606d60205260409020600e01805460ff60a01b1916600360a01b1760ff60a81b1916600160a81b1790558051611bac908690336131e5565b606a5460408083015190516382f7b02760e01b81526001600160a01b03909216916382f7b02791611be191339060040161466c565b600060405180830381600087803b158015611bfb57600080fd5b505af1158015611c0f573d6000803e3d6000fd5b5050506000868152606d6020526040908190206001015483518483015192516001600160a01b03909216935088927f9950a0562c02382e2e840daa73082d5be7660ce37601f28fa4c84089c11e8a0692611c6c92339290916143db565b60405180910390a35060335481146119505760405162461bcd60e51b81526004016107c590614630565b611c9e61237e565b1561149c5760405162461bcd60e51b81526004016107c590614540565b8060026000828152606d60205260409020600e0154600160a01b900460ff166003811115611ce557fe5b14611d025760405162461bcd60e51b81526004016107c590614510565b611d0a610ea9565b611d265760405162461bcd60e51b81526004016107c590614610565b611d2e61237e565b15611d4b5760405162461bcd60e51b81526004016107c590614540565b606a546001600160a01b0316611d60816123f8565b15611d7d5760405162461bcd60e51b81526004016107c5906144b0565b603380546001019081905584611da55760405162461bcd60e51b81526004016107c5906144a0565b846000611db186610f12565b905081811015611dbf578091505b611dcf818363ffffffff61247d16565b9050611ddb8683612f7e565b80611e7f576000868152606d60205260409020600e8101805460ff60a01b1916600360a01b1790556009810154600190910154611e2490889083906001600160a01b0316610ec8565b6000878152606d6020526040908190206001015490516001600160a01b039091169088907f7c5e5cb62e5ed3caf3764e4b0afedfedef533e27809d43367799787ad2abcd4190611e75908590614473565b60405180910390a3505b606a5460405163acb7081560e01b81526001600160a01b039091169063acb7081590611eb1908590339060040161466c565b600060405180830381600087803b158015611ecb57600080fd5b505af1158015611edf573d6000803e3d6000fd5b50505050611eeb612698565b6001600160a01b03166362e269ef606a60009054906101000a90046001600160a01b03166001600160a01b031663aaaca5586040518163ffffffff1660e01b815260040160206040518083038186803b158015611f4757600080fd5b505afa158015611f5b573d6000803e3d6000fd5b505050506040513d601f19601f82011682018060405250611f7f919081019061382a565b306001600160a01b031663b2016bd46040518163ffffffff1660e01b815260040160206040518083038186803b158015611fb857600080fd5b505afa158015611fcc573d6000803e3d6000fd5b505050506040513d601f19601f82011682018060405250611ff0919081019061382a565b856040518463ffffffff1660e01b815260040161200f9392919061441e565b600060405180830381600087803b15801561202957600080fd5b505af115801561203d573d6000803e3d6000fd5b5050506000878152606d6020526040908190206001015490516001600160a01b03909116915087907f20a1f2ec363af45dc5ee7d9d622f2dd68b52501c382126c7f04b53663c4c69bf9061168990869033908790614687565b60008060006040516120a7906143b4565b604051908190039020549250505090565b606d602090815260009182526040918290208054835160c08101855260018301546001600160a01b03908116825260028401548116948201949094526003830154948101949094526004820154606085015260058201546080850152600682015460a0850152600782015460088301546009840154600a850154600b860154600c870154600d880154600e9098015496999895979496939592949193909281169060ff600160a01b8204811691600160a81b9004168c565b606c602052816000526040600020818154811061218957fe5b90600052602060002001600091509150505481565b6001600160a01b0381166000908152606c60209081526040918290208054835181840281018401909452808452606093928301828280156121fe57602002820191906000526020600020905b8154815260200190600101908083116121ea575b50505050509050919050565b80516000908152606d6020908152604091829020835181558184015180516001830180546001600160a01b03199081166001600160a01b0393841617909155938201516002840180548616918316919091179055818501516003808501919091556060808401516004860155608080850151600587015560a0948501516006870155968801516007860155870151600885015594860151600984015590850151600a83015560c0850151600b83015560e0850151600c830155610100850151600d830155610120850151600e83018054909416911617808355610140850151859492939092909160ff60a01b191690600160a01b90849081111561230a57fe5b02179055506101609190910151600e9091018054911515600160a81b0260ff60a81b1990921691909117905550565b6000928352606d602090815260408085206009018054606e909352942090815560018101929092556002820181905591546003909101805460ff191691909211179055565b6000612388612096565b6001600160a01b031663b187bd266040518163ffffffff1660e01b815260040160206040518083038186803b1580156123c057600080fd5b505afa1580156123d4573d6000803e3d6000fd5b505050506040513d601f19601f820116820180604052506112a49190810190613944565b6000612402612096565b6001600160a01b0316633b668321836040518263ffffffff1660e01b815260040161242d91906143bf565b60206040518083038186803b15801561244557600080fd5b505afa158015612459573d6000803e3d6000fd5b505050506040513d601f19601f82011682018060405250610e709190810190613944565b60006124bf83836040518060400160405280601e81526020017f536166654d6174683a207375627472616374696f6e206f766572666c6f770000815250613283565b90505b92915050565b6000826124d7575060006124c2565b828202828482816124e457fe5b04146124bf5760405162461bcd60e51b81526004016107c590614560565b60006124bf83836040518060400160405280601a81526020017f536166654d6174683a206469766973696f6e206279207a65726f0000000000008152506132b4565b61254c613556565b506000818152606e6020908152604091829020825160808101845281548082526001830154938201939093526002820154938101939093526003015460ff1615156060830152610e7357610e70826132eb565b60006125a9612096565b6001600160a01b031663bdd1daaa6040518163ffffffff1660e01b815260040160206040518083038186803b1580156125e157600080fd5b505afa1580156125f5573d6000803e3d6000fd5b505050506040513d601f19601f820116820180604052506126199190810190613980565b6001600160a01b0316634614874e30846040518363ffffffff1660e01b8152600401612646929190614439565b602060405180830381600087803b15801561266057600080fd5b505af1158015612674573d6000803e3d6000fd5b505050506040513d601f19601f82011682018060405250610e70919081019061382a565b60006126a2612096565b6001600160a01b0316631390f8d76040518163ffffffff1660e01b815260040160206040518083038186803b1580156126da57600080fd5b505afa1580156126ee573d6000803e3d6000fd5b505050506040513d601f19601f820116820180604052506112a49190810190613980565b60008061271d612096565b6001600160a01b031663dc21a6a06040518163ffffffff1660e01b815260040160206040518083038186803b15801561275557600080fd5b505afa158015612769573d6000803e3d6000fd5b505050506040513d601f19601f8201168201806040525061278d9190810190613980565b6001600160a01b0316631fb7cec9606a60009054906101000a90046001600160a01b03166001600160a01b031663aaaca5586040518163ffffffff1660e01b815260040160206040518083038186803b1580156127e957600080fd5b505afa1580156127fd573d6000803e3d6000fd5b505050506040513d601f19601f82011682018060405250612821919081019061382a565b6067546040516001600160e01b031960e085901b16815261284f92916001600160a01b031690600401614403565b60206040518083038186803b15801561286757600080fd5b505afa15801561287b573d6000803e3d6000fd5b505050506040513d601f19601f8201168201806040525061289f919081019061382a565b90506001600160a01b0381166128c75760405162461bcd60e51b81526004016107c5906145c0565b604051632319178560e11b81526000906001600160a01b038316906346322f0a90612905906b14dd5c1c1b1e551bd119589d60a21b90600401614473565b60206040518083038186803b15801561291d57600080fd5b505afa158015612931573d6000803e3d6000fd5b505050506040513d601f19601f820116820180604052506129559190810190613962565b90506000612961612698565b6001600160a01b031663db63323e606a60009054906101000a90046001600160a01b03166001600160a01b031663aaaca5586040518163ffffffff1660e01b815260040160206040518083038186803b1580156129bd57600080fd5b505afa1580156129d1573d6000803e3d6000fd5b505050506040513d601f19601f820116820180604052506129f5919081019061382a565b6067546040516001600160e01b031960e085901b168152612a2592916001600160a01b0316908a9060040161441e565b60206040518083038186803b158015612a3d57600080fd5b505afa158015612a51573d6000803e3d6000fd5b505050506040513d601f19601f82011682018060405250612a759190810190613962565b9190911115949350505050565b612a8a610ea9565b15612aa75760405162461bcd60e51b81526004016107c590614640565b60408051808201909152601681527550524f564944455f4f5241434c455f4144445245535360501b6020820152612aee906001600160a01b0386169063ffffffff61333c16565b60408051808201909152601c81527f50524f564944455f4c454e44494e475f504f4f4c5f41444452455353000000006020820152612b3c906001600160a01b0385169063ffffffff61333c16565b60408051808201909152601b81527f50524f56494445445f4c4f414e5f5445524d535f4144445245535300000000006020820152612b8a906001600160a01b0384169063ffffffff61333c16565b612b9381613133565b50606980546001600160a01b039485166001600160a01b031991821617909155606a805493851693821693909317909255606b8054919093169116179055565b600080612c6d606a60009054906101000a90046001600160a01b03166001600160a01b031663aaaca5586040518163ffffffff1660e01b815260040160206040518083038186803b158015612c2757600080fd5b505afa158015612c3b573d6000803e3d6000fd5b505050506040513d601f19601f82011682018060405250612c5f919081019061382a565b6001600160a01b0316613364565b90506000606960009054906101000a90046001600160a01b03166001600160a01b03166396237c026040518163ffffffff1660e01b815260040160206040518083038186803b158015612cbf57600080fd5b505afa158015612cd3573d6000803e3d6000fd5b505050506040513d601f19601f82011682018060405250612cf79190810190613962565b90506000612d0f83610af3878563ffffffff6124c816565b95945050505050565b6000828201838110156124bf5760405162461bcd60e51b81526004016107c5906144d0565b612d45613556565b6000828152606d602052604081206009015490612d60612096565b6001600160a01b031663269012a0612d76612096565b6001600160a01b031663d86d744e6040518163ffffffff1660e01b815260040160206040518083038186803b158015612dae57600080fd5b505afa158015612dc2573d6000803e3d6000fd5b505050506040513d601f19601f82011682018060405250612de69190810190613980565b6001600160a01b0316631139087a6040518163ffffffff1660e01b815260040160206040518083038186803b158015612e1e57600080fd5b505afa158015612e32573d6000803e3d6000fd5b505050506040513d601f19601f82011682018060405250612e569190810190613962565b6040518263ffffffff1660e01b8152600401612e729190614473565b60206040518083038186803b158015612e8a57600080fd5b505afa158015612e9e573d6000803e3d6000fd5b505050506040513d601f19601f82011682018060405250612ec29190810190613962565b90506000612ecf83613039565b60408051608081018252858152602081018390529192508101612efe612710610af3858763ffffffff6124c816565b8152602001612f0c876110ce565b1515905295945050505050565b6000813f7fc5d2460186f7233c927e7db2dcc703c0e500b653ca82273b7bfad8045d85a470818114801590612f4d57508115155b949350505050565b612f5f83836133e5565b81906119505760405162461bcd60e51b81526004016107c5919061448f565b6000828152606d60205260409020600b0154811115613001576000828152606d60205260409020600b01548190612fbc90829063ffffffff61247d16565b6000848152606d60205260408120600b810191909155600c0154909150612fe9908263ffffffff61247d16565b6000848152606d60205260409020600c015550610f0e565b6000828152606d60205260409020600b0154613023908263ffffffff61247d16565b6000838152606d60205260409020600b01555050565b60008061308d606a60009054906101000a90046001600160a01b03166001600160a01b031663aaaca5586040518163ffffffff1660e01b815260040160206040518083038186803b158015612c2757600080fd5b90506000606960009054906101000a90046001600160a01b03166001600160a01b03166396237c026040518163ffffffff1660e01b815260040160206040518083038186803b1580156130df57600080fd5b505afa1580156130f3573d6000803e3d6000fd5b505050506040513d601f19601f820116820180604052506131179190810190613962565b9050612f4d81610af3868563ffffffff6124c816565b303b1590565b61313b610ea9565b156131585760405162461bcd60e51b81526004016107c590614640565b60408051808201909152601981527f53455454494e47535f4d5553545f42455f50524f56494445440000000000000060208201526131a6906001600160a01b0383169063ffffffff61333c16565b6131b8816001600160a01b0316612f19565b6131d45760405162461bcd60e51b81526004016107c5906144f0565b6131dc6133f7565b61174f81613415565b6000838152606d60205260409020600e01546001600160a01b031615613278576000838152606d602052604090819020600e0154905163df8de3e760e01b81526001600160a01b039091169063df8de3e7906132459084906004016143cd565b600060405180830381600087803b15801561325f57600080fd5b505af1158015613273573d6000803e3d6000fd5b505050505b610ec8838383610ec8565b600081848411156132a75760405162461bcd60e51b81526004016107c5919061448f565b50508183035b9392505050565b600081836132d55760405162461bcd60e51b81526004016107c5919061448f565b5060008385816132e157fe5b0495945050505050565b6132f3613556565b6000828152606d6020526040812060090154908061331085613484565b604080516080810182528681526020810193909352820181905293909311606084015250909392505050565b613345826134a8565b8190610ec85760405162461bcd60e51b81526004016107c5919061448f565b600080826001600160a01b031663313ce5676040518163ffffffff1660e01b815260040160206040518083038186803b1580156133a057600080fd5b505afa1580156133b4573d6000803e3d6000fd5b505050506040513d601f19601f820116820180604052506133d89190810190613bc8565b60ff16600a0a9392505050565b6001600160a01b039081169116141590565b6000604051613405906143a9565b6040519081900390206001905550565b61342e613420612096565b6001600160a01b03166134a8565b156134385761174f565b61344a816001600160a01b0316612f19565b6134665760405162461bcd60e51b81526004016107c5906144f0565b6000604051613474906143b4565b6040519081900390208290555050565b6000806000613492846134b6565b90508061349e82612bd3565b9250925050915091565b6001600160a01b0316151590565b6000818152606d60205260408120600e0154600160a01b900460ff168160018260038111156134e157fe5b14156134ff57506000838152606d602052604090206005015461352e565b600282600381111561350d57fe5b14156135235761351c84610f12565b905061352e565b600092505050610e73565b6000848152606d6020526040902060040154612d0f612710610af3848463ffffffff6124c816565b60405180608001604052806000815260200160008152602001600081526020016000151581525090565b80356124c281614824565b80516124c281614824565b60008083601f8401126135a857600080fd5b50813567ffffffffffffffff8111156135c057600080fd5b602083019150836101408202830111156135d957600080fd5b9250929050565b80356124c281614838565b80516124c281614838565b80516124c281614841565b80516124c28161484a565b80356124c281614853565b600060e0828403121561362957600080fd5b50919050565b600060c0828403121561362957600080fd5b600060c0828403121561365357600080fd5b61365d60c061475a565b9050600061366b8484613580565b825250602061367c84848301613580565b6020830152506040613690848285016137f6565b60408301525060606136a4848285016137f6565b60608301525060806136b8848285016137f6565b60808301525060a06136cc848285016137f6565b60a08301525092915050565b600061022082840312156136eb57600080fd5b6136f661018061475a565b9050600061370484846137f6565b825250602061371584848301613641565b60208301525060e0613729848285016137f6565b60408301525061010061373e848285016137f6565b606083015250610120613753848285016137f6565b608083015250610140613768848285016137f6565b60a08301525061016061377d848285016137f6565b60c083015250610180613792848285016137f6565b60e0830152506101a06137a7848285016137f6565b610100830152506101c06137bd84828501613580565b610120830152506101e06137d38482850161360c565b610140830152506102006137e9848285016135e0565b6101608301525092915050565b80356124c281614841565b80516124c281614860565b60006020828403121561381e57600080fd5b6000612f4d8484613580565b60006020828403121561383c57600080fd5b6000612f4d848461358b565b600080600080600060a0868803121561386057600080fd5b600061386c8888613580565b955050602061387d88828901613580565b945050604061388e88828901613580565b935050606061389f88828901613580565b92505060806138b088828901613580565b9150509295509295909350565b600080604083850312156138d057600080fd5b60006138dc8585613580565b92505060206138ed858286016137f6565b9150509250929050565b60008060006060848603121561390c57600080fd5b60006139188686613580565b9350506020613929868287016137f6565b925050604061393a868287016137f6565b9150509250925092565b60006020828403121561395657600080fd5b6000612f4d84846135eb565b60006020828403121561397457600080fd5b6000612f4d84846135f6565b60006020828403121561399257600080fd5b6000612f4d8484613601565b60008060008061012085870312156139b557600080fd5b60006139c18787613617565b94505060e085013567ffffffffffffffff8111156139de57600080fd5b6139ea87828801613596565b93509350506101006139fe878288016137f6565b91505092959194509250565b600060c08284031215613a1c57600080fd5b6000612f4d8484613641565b60006102208284031215613a3b57600080fd5b6000612f4d84846136d8565b600060208284031215613a5957600080fd5b6000612f4d84846137f6565b60008060408385031215613a7857600080fd5b6000613a8485856137f6565b92505060206138ed85828601613580565b60008060008060008060008060008060006102008c8e031215613ab757600080fd5b6000613ac38e8e6137f6565b9b50506020613ad48e828f0161362f565b9a505060e0613ae58e828f016137f6565b995050610100613af78e828f016137f6565b985050610120613b098e828f016137f6565b975050610140613b1b8e828f016137f6565b965050610160613b2d8e828f016137f6565b955050610180613b3f8e828f016137f6565b9450506101a0613b518e828f016137f6565b9350506101c0613b638e828f0161360c565b9250506101e0613b758e828f016135e0565b9150509295989b509295989b9093969950565b60008060408385031215613b9b57600080fd5b60006138dc85856137f6565b600080600060608486031215613bbc57600080fd5b600061391886866137f6565b600060208284031215613bda57600080fd5b6000612f4d8484613801565b6000613bf28383613c74565b505060200190565b613c03816147ce565b82525050565b613c0381614794565b6000613c1d82614787565b613c27818561478b565b9350613c3283614781565b8060005b83811015613c60578151613c4a8882613be6565b9750613c5583614781565b925050600101613c36565b509495945050505050565b613c038161479f565b613c03816147a4565b613c03816147a7565b613c03816147d9565b6000613c9a82614787565b613ca4818561478b565b9350613cb48185602086016147e4565b613cbd81614810565b9093019392505050565b6000613cd4601c83610e73565b7f54496e697469616c697a61626c652e6973496e697469616c697a6564000000008152601c0192915050565b6000613d0d60158361478b565b74105353d5539517d59053155157d491545552549151605a1b815260200192915050565b6000613d3e60168361478b565b7513115391125391d7d413d3d317d254d7d4105554d15160521b815260200192915050565b6000613d7060118361478b565b7013505617d313d05397d15610d151511151607a1b815260200192915050565b6000613d9d601b8361478b565b7f536166654d6174683a206164646974696f6e206f766572666c6f770000000000815260200192915050565b6000613dd660168361478b565b751313d05397d393d517d050d512559157d3d497d4d15560521b815260200192915050565b6000613e08601b8361478b565b7f53455454494e47535f4d5553545f42455f415f434f4e54524143540000000000815260200192915050565b6000613e4160178361478b565b7f444f45534e545f4e4545445f4c49515549444154494f4e000000000000000000815260200192915050565b6000613e7a600f8361478b565b6e4c4f414e5f4e4f545f41435449564560881b815260200192915050565b6000613ea5601b8361478b565b7f424f52524f5745445f414d4f554e545f455843454544535f4d41580000000000815260200192915050565b6000613ede60148361478b565b7343414e4e4f545f57495448445241575f5a45524f60601b815260200192915050565b6000613f0e60128361478b565b71141310551193d49357d254d7d4105554d15160721b815260200192915050565b6000613f3c60188361478b565b7f4d4f52455f434f4c4c41544552414c5f52455155495245440000000000000000815260200192915050565b6000613f7560218361478b565b7f536166654d6174683a206d756c7469706c69636174696f6e206f766572666c6f8152607760f81b602082015260400192915050565b6000613fb8601d8361478b565b7f434f4c4c41544552414c5f4445504f53495445445f524543454e544c59000000815260200192915050565b6000613ff1601a8361478b565b7f434f4c4c41544552414c5f414d4f554e545f544f4f5f48494748000000000000815260200192915050565b600061402a60128361478b565b711313d05397d511549354d7d156141254915160721b815260200192915050565b6000614058602e8361478b565b7f436f6e747261637420696e7374616e63652068617320616c726561647920626581526d195b881a5b9a5d1a585b1a5e995960921b602082015260400192915050565b60006140a860168361478b565b75141310551193d49357d254d7d393d517d4105554d15160521b815260200192915050565b60006140da60188361478b565b7f41544d5f4e4f545f464f554e445f464f525f4d41524b45540000000000000000815260200192915050565b6000614113601e8361478b565b7f4f5241434c455f4d5553545f434f4e54524143545f4e4f545f454d5054590000815260200192915050565b600061414c60178361478b565b7f424f52524f5745525f4d5553545f42455f53454e444552000000000000000000815260200192915050565b6000614185601a8361478b565b7f4c454e44494e475f504f4f4c5f49535f4e4f545f504155534544000000000000815260200192915050565b60006141be60168361478b565b7521a0a62622a92fa227a2a9a72a2fa7aba72fa627a0a760511b815260200192915050565b60006141f0601883610e73565b7f426173655570677261646561626c652e73657474696e67730000000000000000815260180192915050565b600061422960188361478b565b7f434f4e54524143545f4e4f545f494e495449414c495a45440000000000000000815260200192915050565b6000614262600c8361478b565b6b1313d05397d393d517d4d15560a21b815260200192915050565b600061428a601f8361478b565b7f5265656e7472616e637947756172643a207265656e7472616e742063616c6c00815260200192915050565b60006142c3601c8361478b565b7f434f4e54524143545f414c52454144595f494e495449414c495a454400000000815260200192915050565b805160808301906143008482613c74565b5060208201516143136020850182613c74565b5060408201516143266040850182613c74565b5060608201516119506060850182613c6b565b805160c083019061434a8482613c09565b50602082015161435d6020850182613c09565b5060408201516143706040850182613c74565b5060608201516143836060850182613c74565b5060808201516143966080850182613c74565b5060a082015161195060a0850182613c74565b60006124c282613cc7565b60006124c2826141e3565b602081016124c28284613c09565b602081016124c28284613bfa565b606081016143e98286613bfa565b6143f66020830185613c74565b612f4d6040830184613c74565b604081016144118285613c09565b6132ad6020830184613c09565b6060810161442c8286613c09565b6143f66020830185613c09565b604081016144478285613c09565b6132ad6020830184613c74565b602080825281016124bf8184613c12565b602081016124c28284613c6b565b602081016124c28284613c74565b602081016124c28284613c7d565b602080825281016124bf8184613c8f565b60208082528101610e7081613d00565b60208082528101610e7081613d31565b60208082528101610e7081613d63565b60208082528101610e7081613d90565b60208082528101610e7081613dc9565b60208082528101610e7081613dfb565b60208082528101610e7081613e34565b60208082528101610e7081613e6d565b60208082528101610e7081613e98565b60208082528101610e7081613ed1565b60208082528101610e7081613f01565b60208082528101610e7081613f2f565b60208082528101610e7081613f68565b60208082528101610e7081613fab565b60208082528101610e7081613fe4565b60208082528101610e708161401d565b60208082528101610e708161404b565b60208082528101610e708161409b565b60208082528101610e70816140cd565b60208082528101610e7081614106565b60208082528101610e708161413f565b60208082528101610e7081614178565b60208082528101610e70816141b1565b60208082528101610e708161421c565b60208082528101610e7081614255565b60208082528101610e708161427d565b60208082528101610e70816142b6565b608081016124c282846142ef565b604081016144118285613c74565b6040810161467a8285613c74565b6132ad6020830184613bfa565b606081016146958286613c74565b6143f66020830185613bfa565b61022081016146b1828f613c74565b6146be602083018e614339565b6146cb60e083018d613c74565b6146d961010083018c613c74565b6146e761012083018b613c74565b6146f561014083018a613c74565b614703610160830189613c74565b614711610180830188613c74565b61471f6101a0830187613c74565b61472d6101c0830186613c09565b61473b6101e0830185613c86565b614749610200830184613c6b565b9d9c50505050505050505050505050565b60405181810167ffffffffffffffff8111828210171561477957600080fd5b604052919050565b60200190565b5190565b90815260200190565b6000610e70826147bc565b151590565b90565b6000610e7082614794565b80610e738161481a565b6001600160a01b031690565b60ff1690565b6000610e70826147a7565b6000610e70826147b2565b60005b838110156147ff5781810151838201526020016147e7565b838111156119505750506000910152565b601f01601f191690565b6004811061174f57fe5b61482d81614794565b811461174f57600080fd5b61482d8161479f565b61482d816147a4565b61482d816147a7565b6004811061174f57600080fd5b61482d816147c856fea365627a7a72315820e82445cf752ac264c03981baa9f453764a4a729e83ce95fd6a0b4404b2c585836c6578706572696d656e74616cf564736f6c63430005110040",
  "source": "pragma solidity 0.5.17;\npragma experimental ABIEncoderV2;\n\nimport \"./BaseMock.sol\";\nimport \"../../base/LoansBase.sol\";\n\ncontract LoansBaseMock is LoansBase, BaseMock {\n    mapping(uint256 => TellerCommon.LoanCollateralInfo) internal mockCollateralInfo;\n\n    function _payOutCollateral(\n        uint256 loanID,\n        uint256 amount,\n        address payable recipient\n    ) internal {}\n\n    function externalPayLoan(uint256 loanID, uint256 toPay) external {\n        _payLoan(loanID, toPay);\n    }\n\n    function externalConvertWeiToToken(uint256 weiAmount)\n        external\n        view\n        returns (uint256)\n    {\n        return _convertWeiToToken(weiAmount);\n    }\n\n    function externalConvertTokenToWei(uint256 tokenAmount)\n        external\n        view\n        returns (uint256)\n    {\n        return _convertTokenToWei(tokenAmount);\n    }\n\n    function externalIsSupplyToDebtRatioValid(uint256 newLoanAmount)\n        external\n        view\n        returns (bool)\n    {\n        return super._isSupplyToDebtRatioValid(newLoanAmount);\n    }\n\n    function setLoan(\n        uint256 id,\n        TellerCommon.LoanTerms calldata loanTerms,\n        uint256 termsExpiry,\n        uint256 loanStartTime,\n        uint256 collateral,\n        uint256 lastCollateralIn,\n        uint256 principalOwed,\n        uint256 interestOwed,\n        uint256 borrowedAmount,\n        TellerCommon.LoanStatus status,\n        bool liquidated\n    ) external {\n        require(loanTerms.maxLoanAmount >= borrowedAmount, \"BORROWED_AMOUNT_EXCEEDS_MAX\");\n        loans[id] = TellerCommon.Loan({\n            id: id,\n            loanTerms: loanTerms,\n            termsExpiry: termsExpiry,\n            loanStartTime: loanStartTime,\n            collateral: collateral,\n            lastCollateralIn: lastCollateralIn,\n            principalOwed: principalOwed,\n            interestOwed: interestOwed,\n            borrowedAmount: borrowedAmount,\n            escrow: address(0x0),\n            status: status,\n            liquidated: liquidated\n        });\n    }\n\n    function setLoan(TellerCommon.Loan memory loan) public {\n        loans[loan.id] = loan;\n    }\n\n    function setEscrowForLoan(uint256 loanID, address escrowAddress) external {\n        loans[loanID].escrow = escrowAddress;\n    }\n\n    function externalEscrowClaimTokens(uint256 loanID, address recipient) external {\n        EscrowInterface(loans[loanID].escrow).claimTokens(recipient);\n    }\n\n    function mockGetCollateralInfo(\n        uint256 loanID,\n        uint256 neededInLending,\n        uint256 neededInCollateral\n    ) external {\n        mockCollateralInfo[loanID].collateral = loans[loanID].collateral;\n        mockCollateralInfo[loanID].neededInLendingTokens = neededInLending;\n        mockCollateralInfo[loanID].neededInCollateralTokens = neededInCollateral;\n        mockCollateralInfo[loanID].moreCollateralRequired =\n            neededInCollateral > loans[loanID].collateral;\n    }\n\n    function _getCollateralInfo(uint256 loanID)\n        internal\n        view\n        returns (TellerCommon.LoanCollateralInfo memory info)\n    {\n        info = mockCollateralInfo[loanID];\n        if (info.collateral == 0) {\n            info = super._getCollateralInfo(loanID);\n        }\n    }\n\n    function initialize(\n        address priceOracleAddress,\n        address lendingPoolAddress,\n        address loanTermsConsensusAddress,\n        address settingsAddress,\n        address\n    ) external isNotInitialized() {\n        _initialize(\n            priceOracleAddress,\n            lendingPoolAddress,\n            loanTermsConsensusAddress,\n            settingsAddress\n        );\n    }\n\n    function depositCollateral(\n        address borrower,\n        uint256 loanID,\n        uint256 amount\n    ) external payable {}\n\n    function createLoanWithTerms(\n        TellerCommon.LoanRequest calldata request,\n        TellerCommon.LoanResponse[] calldata responses,\n        uint256 collateralAmount\n    ) external payable {}\n\n    function externalCreateEscrow(uint256 loanID) external returns (address) {\n        return super._createEscrow(loanID);\n    }\n}\n",
  "sourcePath": "/Users/guillesalazar/Repos/ZeroCollateral/smart-contracts-v1/contracts/mock/base/LoansBaseMock.sol",
  "compiler": {
    "name": "solc",
    "version": "0.5.17+commit.d19bba13.Emscripten.clang"
  },
  "schemaVersion": "3.2.3",
  "updatedAt": "2020-10-12T14:23:11.531Z",
  "devdoc": {
    "methods": {
      "cToken()": {
        "return": "Address of the cToken"
      },
      "canLiquidateLoan(uint256)": {
        "params": {
          "loanID": "The ID of the loan to check"
        },
        "return": "bool weather the loan can be liquidated"
      },
      "getBorrowerLoans(address)": {
        "params": {
          "borrower": "The borrower's address"
        }
      },
      "getCollateralInfo(uint256)": {
        "params": {
          "loanID": "of the loan to get info for"
        },
        "return": "memory TellerCommon.LoanCollateralInfo Collateral information of the loan"
      },
      "getLiquidationInfo(uint256)": {
        "params": {
          "loanID": "loan id to get the info."
        },
        "return": "liquidationInfo get current liquidation info for the given loan id."
      },
      "getTotalOwed(uint256)": {
        "params": {
          "loanID": "The ID of the loan to be queried"
        },
        "return": "uint256 The total amount owed remaining"
      },
      "initialized()": {
        "return": "true if contract is initialized. Otherwise it returns false."
      },
      "isLoanSecured(uint256)": {
        "return": "bool value of it being secured or not."
      },
      "lendingToken()": {
        "return": "Address of the lending token"
      },
      "liquidateLoan(uint256)": {
        "params": {
          "loanID": "The ID of the loan to be liquidated"
        }
      },
      "repay(uint256,uint256)": {
        "params": {
          "amount": "The amount of tokens to pay back to the loan",
          "loanID": "The ID of the loan the payment is for"
        }
      },
      "setPriceOracle(address)": {
        "details": "It throws a require error if sender is not allowed.It throws a require error if new address is empty (0x0) or not a contract.",
        "params": {
          "newPriceOracle": "the new price oracle address."
        }
      },
      "settings()": {
        "details": "This address should NOT change over the time. See details in the _setSettings(...) function."
      },
      "tToken()": {
        "return": "Address of the tToken"
      },
      "takeOutLoan(uint256,uint256)": {
        "details": "collateral ratio is a percentage of the loan amount that's required in collateralthe percentage will be *(10**2). I.e. collateralRatio of 5244 means 52.44% collateralis required in the loan. Interest rate is also a percentage with 2 decimal points."
      },
      "withdrawCollateral(uint256,uint256)": {
        "params": {
          "amount": "The amount of collateral token or ether the caller is hoping to withdraw.",
          "loanID": "The ID of the loan the collateral is for"
        }
      }
    }
  },
  "userdoc": {
    "methods": {
      "cToken()": {
        "notice": "Returns the cToken in the lending pool"
      },
      "canLiquidateLoan(uint256)": {
        "notice": "A loan can be liquidated if it is: under collateralized or expired"
      },
      "getBorrowerLoans(address)": {
        "notice": "Get a list of all loans for a borrower"
      },
      "getCollateralInfo(uint256)": {
        "notice": "Get collateral information of a specific loan"
      },
      "getLiquidationInfo(uint256)": {
        "notice": "It getss the current liquidation info for a given loan id."
      },
      "getTotalOwed(uint256)": {
        "notice": "Returns the total owed amount remaining for a specified loan"
      },
      "initialized()": {
        "notice": "Gets if the contract is initialized."
      },
      "isLoanSecured(uint256)": {
        "notice": "Checks wheather the loan's collateral ratio is considered to be secured based on the settings collateral buffer value."
      },
      "lendingToken()": {
        "notice": "Returns the lending token in the lending pool"
      },
      "liquidateLoan(uint256)": {
        "notice": "Liquidate a loan if it is expired or under collateralized"
      },
      "repay(uint256,uint256)": {
        "notice": "Make a payment to a loan"
      },
      "setPriceOracle(address)": {
        "notice": "Updates the current price oracle instance."
      },
      "settings()": {
        "notice": "The gets the settings contract address from the SETTINGS_SLOT."
      },
      "tToken()": {
        "notice": "Returns the tToken in the lending pool"
      },
      "takeOutLoan(uint256,uint256)": {
        "notice": "Take out a loan"
      },
      "withdrawCollateral(uint256,uint256)": {
        "notice": "Withdraw collateral from a loan, unless this isn't allowed"
      }
    }
  }
}