{
  "contractName": "LoansBaseModifiersMock",
  "abi": [
    {
      "anonymous": false,
      "inputs": [
        {
          "indexed": true,
          "internalType": "uint256",
          "name": "loanID",
          "type": "uint256"
        },
        {
          "indexed": true,
          "internalType": "address",
          "name": "borrower",
          "type": "address"
        },
        {
          "indexed": false,
          "internalType": "uint256",
          "name": "depositAmount",
          "type": "uint256"
        }
      ],
      "name": "CollateralDeposited",
      "type": "event"
    },
    {
      "anonymous": false,
      "inputs": [
        {
          "indexed": true,
          "internalType": "uint256",
          "name": "loanID",
          "type": "uint256"
        },
        {
          "indexed": true,
          "internalType": "address",
          "name": "borrower",
          "type": "address"
        },
        {
          "indexed": false,
          "internalType": "uint256",
          "name": "withdrawalAmount",
          "type": "uint256"
        }
      ],
      "name": "CollateralWithdrawn",
      "type": "event"
    },
    {
      "anonymous": false,
      "inputs": [
        {
          "indexed": true,
          "internalType": "uint256",
          "name": "loanID",
          "type": "uint256"
        },
        {
          "indexed": true,
          "internalType": "address",
          "name": "borrower",
          "type": "address"
        },
        {
          "indexed": false,
          "internalType": "address",
          "name": "liquidator",
          "type": "address"
        },
        {
          "indexed": false,
          "internalType": "uint256",
          "name": "collateralOut",
          "type": "uint256"
        },
        {
          "indexed": false,
          "internalType": "uint256",
          "name": "tokensIn",
          "type": "uint256"
        }
      ],
      "name": "LoanLiquidated",
      "type": "event"
    },
    {
      "anonymous": false,
      "inputs": [
        {
          "indexed": true,
          "internalType": "uint256",
          "name": "loanID",
          "type": "uint256"
        },
        {
          "indexed": true,
          "internalType": "address",
          "name": "borrower",
          "type": "address"
        },
        {
          "indexed": false,
          "internalType": "uint256",
          "name": "amountPaid",
          "type": "uint256"
        },
        {
          "indexed": false,
          "internalType": "address",
          "name": "payer",
          "type": "address"
        },
        {
          "indexed": false,
          "internalType": "uint256",
          "name": "totalOwed",
          "type": "uint256"
        }
      ],
      "name": "LoanRepaid",
      "type": "event"
    },
    {
      "anonymous": false,
      "inputs": [
        {
          "indexed": true,
          "internalType": "uint256",
          "name": "loanID",
          "type": "uint256"
        },
        {
          "indexed": true,
          "internalType": "address",
          "name": "borrower",
          "type": "address"
        },
        {
          "indexed": true,
          "internalType": "address",
          "name": "escrow",
          "type": "address"
        },
        {
          "indexed": false,
          "internalType": "uint256",
          "name": "amountBorrowed",
          "type": "uint256"
        }
      ],
      "name": "LoanTakenOut",
      "type": "event"
    },
    {
      "anonymous": false,
      "inputs": [
        {
          "indexed": true,
          "internalType": "uint256",
          "name": "loanID",
          "type": "uint256"
        },
        {
          "indexed": true,
          "internalType": "address",
          "name": "borrower",
          "type": "address"
        },
        {
          "indexed": true,
          "internalType": "address",
          "name": "recipient",
          "type": "address"
        },
        {
          "indexed": false,
          "internalType": "uint256",
          "name": "interestRate",
          "type": "uint256"
        },
        {
          "indexed": false,
          "internalType": "uint256",
          "name": "collateralRatio",
          "type": "uint256"
        },
        {
          "indexed": false,
          "internalType": "uint256",
          "name": "maxLoanAmount",
          "type": "uint256"
        },
        {
          "indexed": false,
          "internalType": "uint256",
          "name": "duration",
          "type": "uint256"
        },
        {
          "indexed": false,
          "internalType": "uint256",
          "name": "termsExpiry",
          "type": "uint256"
        }
      ],
      "name": "LoanTermsSet",
      "type": "event"
    },
    {
      "anonymous": false,
      "inputs": [
        {
          "indexed": true,
          "internalType": "address",
          "name": "sender",
          "type": "address"
        },
        {
          "indexed": true,
          "internalType": "address",
          "name": "oldPriceOracle",
          "type": "address"
        },
        {
          "indexed": true,
          "internalType": "address",
          "name": "newPriceOracle",
          "type": "address"
        }
      ],
      "name": "PriceOracleUpdated",
      "type": "event"
    },
    {
      "constant": true,
      "inputs": [
        {
          "internalType": "address",
          "name": "",
          "type": "address"
        },
        {
          "internalType": "uint256",
          "name": "",
          "type": "uint256"
        }
      ],
      "name": "borrowerLoans",
      "outputs": [
        {
          "internalType": "uint256",
          "name": "",
          "type": "uint256"
        }
      ],
      "payable": false,
      "stateMutability": "view",
      "type": "function"
    },
    {
      "constant": true,
      "inputs": [
        {
          "internalType": "uint256",
          "name": "loanID",
          "type": "uint256"
        }
      ],
      "name": "canLiquidateLoan",
      "outputs": [
        {
          "internalType": "bool",
          "name": "",
          "type": "bool"
        }
      ],
      "payable": false,
      "stateMutability": "view",
      "type": "function"
    },
    {
      "constant": true,
      "inputs": [],
      "name": "collateralToken",
      "outputs": [
        {
          "internalType": "address",
          "name": "",
          "type": "address"
        }
      ],
      "payable": false,
      "stateMutability": "view",
      "type": "function"
    },
    {
      "constant": true,
      "inputs": [],
      "name": "consts",
      "outputs": [
        {
          "internalType": "contract SettingsConsts",
          "name": "",
          "type": "address"
        }
      ],
      "payable": false,
      "stateMutability": "view",
      "type": "function"
    },
    {
      "constant": false,
      "inputs": [
        {
          "components": [
            {
              "internalType": "address payable",
              "name": "borrower",
              "type": "address"
            },
            {
              "internalType": "address",
              "name": "recipient",
              "type": "address"
            },
            {
              "internalType": "address",
              "name": "consensusAddress",
              "type": "address"
            },
            {
              "internalType": "uint256",
              "name": "requestNonce",
              "type": "uint256"
            },
            {
              "internalType": "uint256",
              "name": "amount",
              "type": "uint256"
            },
            {
              "internalType": "uint256",
              "name": "duration",
              "type": "uint256"
            },
            {
              "internalType": "uint256",
              "name": "requestTime",
              "type": "uint256"
            }
          ],
          "internalType": "struct TellerCommon.LoanRequest",
          "name": "request",
          "type": "tuple"
        },
        {
          "components": [
            {
              "internalType": "address",
              "name": "signer",
              "type": "address"
            },
            {
              "internalType": "address",
              "name": "consensusAddress",
              "type": "address"
            },
            {
              "internalType": "uint256",
              "name": "responseTime",
              "type": "uint256"
            },
            {
              "internalType": "uint256",
              "name": "interestRate",
              "type": "uint256"
            },
            {
              "internalType": "uint256",
              "name": "collateralRatio",
              "type": "uint256"
            },
            {
              "internalType": "uint256",
              "name": "maxLoanAmount",
              "type": "uint256"
            },
            {
              "components": [
                {
                  "internalType": "uint256",
                  "name": "signerNonce",
                  "type": "uint256"
                },
                {
                  "internalType": "uint8",
                  "name": "v",
                  "type": "uint8"
                },
                {
                  "internalType": "bytes32",
                  "name": "r",
                  "type": "bytes32"
                },
                {
                  "internalType": "bytes32",
                  "name": "s",
                  "type": "bytes32"
                }
              ],
              "internalType": "struct TellerCommon.Signature",
              "name": "signature",
              "type": "tuple"
            }
          ],
          "internalType": "struct TellerCommon.LoanResponse[]",
          "name": "responses",
          "type": "tuple[]"
        },
        {
          "internalType": "uint256",
          "name": "collateralAmount",
          "type": "uint256"
        }
      ],
      "name": "createLoanWithTerms",
      "outputs": [],
      "payable": true,
      "stateMutability": "payable",
      "type": "function"
    },
    {
      "constant": false,
      "inputs": [
        {
          "internalType": "address",
          "name": "borrower",
          "type": "address"
        },
        {
          "internalType": "uint256",
          "name": "loanID",
          "type": "uint256"
        },
        {
          "internalType": "uint256",
          "name": "amount",
          "type": "uint256"
        }
      ],
      "name": "depositCollateral",
      "outputs": [],
      "payable": true,
      "stateMutability": "payable",
      "type": "function"
    },
    {
      "constant": true,
      "inputs": [
        {
          "internalType": "address",
          "name": "borrower",
          "type": "address"
        }
      ],
      "name": "getBorrowerLoans",
      "outputs": [
        {
          "internalType": "uint256[]",
          "name": "",
          "type": "uint256[]"
        }
      ],
      "payable": false,
      "stateMutability": "view",
      "type": "function"
    },
    {
      "constant": true,
      "inputs": [
        {
          "internalType": "uint256",
          "name": "loanID",
          "type": "uint256"
        }
      ],
      "name": "getCollateralInfo",
      "outputs": [
        {
          "components": [
            {
              "internalType": "uint256",
              "name": "collateral",
              "type": "uint256"
            },
            {
              "internalType": "uint256",
              "name": "neededInLendingTokens",
              "type": "uint256"
            },
            {
              "internalType": "uint256",
              "name": "neededInCollateralTokens",
              "type": "uint256"
            },
            {
              "internalType": "bool",
              "name": "moreCollateralRequired",
              "type": "bool"
            }
          ],
          "internalType": "struct TellerCommon.LoanCollateralInfo",
          "name": "",
          "type": "tuple"
        }
      ],
      "payable": false,
      "stateMutability": "view",
      "type": "function"
    },
    {
      "constant": true,
      "inputs": [
        {
          "internalType": "uint256",
          "name": "loanID",
          "type": "uint256"
        }
      ],
      "name": "getTotalOwed",
      "outputs": [
        {
          "internalType": "uint256",
          "name": "",
          "type": "uint256"
        }
      ],
      "payable": false,
      "stateMutability": "view",
      "type": "function"
    },
    {
      "constant": false,
      "inputs": [
        {
          "internalType": "address",
          "name": "priceOracleAddress",
          "type": "address"
        },
        {
          "internalType": "address",
          "name": "lendingPoolAddress",
          "type": "address"
        },
        {
          "internalType": "address",
          "name": "loanTermsConsensusAddress",
          "type": "address"
        },
        {
          "internalType": "address",
          "name": "settingsAddress",
          "type": "address"
        },
        {
          "internalType": "address",
          "name": "",
          "type": "address"
        }
      ],
      "name": "initialize",
      "outputs": [],
      "payable": false,
      "stateMutability": "nonpayable",
      "type": "function"
    },
    {
      "constant": false,
      "inputs": [],
      "name": "initialize",
      "outputs": [],
      "payable": false,
      "stateMutability": "nonpayable",
      "type": "function"
    },
    {
      "constant": true,
      "inputs": [],
      "name": "initialized",
      "outputs": [
        {
          "internalType": "bool",
          "name": "value",
          "type": "bool"
        }
      ],
      "payable": false,
      "stateMutability": "view",
      "type": "function"
    },
    {
      "constant": true,
      "inputs": [],
      "name": "lendingPool",
      "outputs": [
        {
          "internalType": "contract LendingPoolInterface",
          "name": "",
          "type": "address"
        }
      ],
      "payable": false,
      "stateMutability": "view",
      "type": "function"
    },
    {
      "constant": true,
      "inputs": [],
      "name": "lendingToken",
      "outputs": [
        {
          "internalType": "address",
          "name": "",
          "type": "address"
        }
      ],
      "payable": false,
      "stateMutability": "view",
      "type": "function"
    },
    {
      "constant": false,
      "inputs": [
        {
          "internalType": "uint256",
          "name": "loanID",
          "type": "uint256"
        }
      ],
      "name": "liquidateLoan",
      "outputs": [],
      "payable": false,
      "stateMutability": "nonpayable",
      "type": "function"
    },
    {
      "constant": true,
      "inputs": [],
      "name": "loanIDCounter",
      "outputs": [
        {
          "internalType": "uint256",
          "name": "",
          "type": "uint256"
        }
      ],
      "payable": false,
      "stateMutability": "view",
      "type": "function"
    },
    {
      "constant": true,
      "inputs": [],
      "name": "loanTermsConsensus",
      "outputs": [
        {
          "internalType": "contract LoanTermsConsensusInterface",
          "name": "",
          "type": "address"
        }
      ],
      "payable": false,
      "stateMutability": "view",
      "type": "function"
    },
    {
      "constant": true,
      "inputs": [
        {
          "internalType": "uint256",
          "name": "",
          "type": "uint256"
        }
      ],
      "name": "loans",
      "outputs": [
        {
          "internalType": "uint256",
          "name": "id",
          "type": "uint256"
        },
        {
          "components": [
            {
              "internalType": "address payable",
              "name": "borrower",
              "type": "address"
            },
            {
              "internalType": "address",
              "name": "recipient",
              "type": "address"
            },
            {
              "internalType": "uint256",
              "name": "interestRate",
              "type": "uint256"
            },
            {
              "internalType": "uint256",
              "name": "collateralRatio",
              "type": "uint256"
            },
            {
              "internalType": "uint256",
              "name": "maxLoanAmount",
              "type": "uint256"
            },
            {
              "internalType": "uint256",
              "name": "duration",
              "type": "uint256"
            }
          ],
          "internalType": "struct TellerCommon.LoanTerms",
          "name": "loanTerms",
          "type": "tuple"
        },
        {
          "internalType": "uint256",
          "name": "termsExpiry",
          "type": "uint256"
        },
        {
          "internalType": "uint256",
          "name": "loanStartTime",
          "type": "uint256"
        },
        {
          "internalType": "uint256",
          "name": "collateral",
          "type": "uint256"
        },
        {
          "internalType": "uint256",
          "name": "lastCollateralIn",
          "type": "uint256"
        },
        {
          "internalType": "uint256",
          "name": "principalOwed",
          "type": "uint256"
        },
        {
          "internalType": "uint256",
          "name": "interestOwed",
          "type": "uint256"
        },
        {
          "internalType": "uint256",
          "name": "borrowedAmount",
          "type": "uint256"
        },
        {
          "internalType": "address",
          "name": "escrow",
          "type": "address"
        },
        {
          "internalType": "enum TellerCommon.LoanStatus",
          "name": "status",
          "type": "uint8"
        },
        {
          "internalType": "bool",
          "name": "liquidated",
          "type": "bool"
        }
      ],
      "payable": false,
      "stateMutability": "view",
      "type": "function"
    },
    {
      "constant": true,
      "inputs": [],
      "name": "mockIsSupplyToDebtRatioValid",
      "outputs": [
        {
          "internalType": "bool",
          "name": "",
          "type": "bool"
        }
      ],
      "payable": false,
      "stateMutability": "view",
      "type": "function"
    },
    {
      "constant": true,
      "inputs": [],
      "name": "priceOracle",
      "outputs": [
        {
          "internalType": "address",
          "name": "",
          "type": "address"
        }
      ],
      "payable": false,
      "stateMutability": "view",
      "type": "function"
    },
    {
      "constant": false,
      "inputs": [
        {
          "internalType": "uint256",
          "name": "amount",
          "type": "uint256"
        },
        {
          "internalType": "uint256",
          "name": "loanID",
          "type": "uint256"
        }
      ],
      "name": "repay",
      "outputs": [],
      "payable": false,
      "stateMutability": "nonpayable",
      "type": "function"
    },
    {
      "constant": true,
      "inputs": [],
      "name": "returnIsSupplyToDebtRatioValid",
      "outputs": [
        {
          "internalType": "bool",
          "name": "",
          "type": "bool"
        }
      ],
      "payable": false,
      "stateMutability": "view",
      "type": "function"
    },
    {
      "constant": false,
      "inputs": [
        {
          "internalType": "address",
          "name": "newPriceOracle",
          "type": "address"
        }
      ],
      "name": "setPriceOracle",
      "outputs": [],
      "payable": false,
      "stateMutability": "nonpayable",
      "type": "function"
    },
    {
      "constant": true,
      "inputs": [],
      "name": "settings",
      "outputs": [
        {
          "internalType": "contract SettingsInterface",
          "name": "",
          "type": "address"
        }
      ],
      "payable": false,
      "stateMutability": "view",
      "type": "function"
    },
    {
      "constant": false,
      "inputs": [
        {
          "internalType": "uint256",
          "name": "loanID",
          "type": "uint256"
        },
        {
          "internalType": "uint256",
          "name": "amountBorrow",
          "type": "uint256"
        }
      ],
      "name": "takeOutLoan",
      "outputs": [],
      "payable": false,
      "stateMutability": "nonpayable",
      "type": "function"
    },
    {
      "constant": true,
      "inputs": [],
      "name": "totalCollateral",
      "outputs": [
        {
          "internalType": "uint256",
          "name": "",
          "type": "uint256"
        }
      ],
      "payable": false,
      "stateMutability": "view",
      "type": "function"
    },
    {
      "constant": false,
      "inputs": [
        {
          "internalType": "uint256",
          "name": "amount",
          "type": "uint256"
        },
        {
          "internalType": "uint256",
          "name": "loanID",
          "type": "uint256"
        }
      ],
      "name": "withdrawCollateral",
      "outputs": [],
      "payable": false,
      "stateMutability": "nonpayable",
      "type": "function"
    },
    {
      "constant": false,
      "inputs": [
        {
          "internalType": "bool",
          "name": "result",
          "type": "bool"
        },
        {
          "internalType": "bool",
          "name": "aResponseIsSupplyToDebtRatioValid",
          "type": "bool"
        }
      ],
      "name": "setMockIsSupplyToDebtRatioValid",
      "outputs": [],
      "payable": false,
      "stateMutability": "nonpayable",
      "type": "function"
    },
    {
      "constant": false,
      "inputs": [
        {
          "internalType": "uint256",
          "name": "loanID",
          "type": "uint256"
        },
        {
          "internalType": "enum TellerCommon.LoanStatus",
          "name": "status",
          "type": "uint8"
        }
      ],
      "name": "setLoanStatus",
      "outputs": [],
      "payable": false,
      "stateMutability": "nonpayable",
      "type": "function"
    },
    {
      "constant": false,
      "inputs": [
        {
          "internalType": "uint256",
          "name": "loanID",
          "type": "uint256"
        }
      ],
      "name": "externalLoanActive",
      "outputs": [],
      "payable": false,
      "stateMutability": "nonpayable",
      "type": "function"
    },
    {
      "constant": false,
      "inputs": [
        {
          "internalType": "uint256",
          "name": "loanID",
          "type": "uint256"
        }
      ],
      "name": "externalLoanTermsSet",
      "outputs": [],
      "payable": false,
      "stateMutability": "nonpayable",
      "type": "function"
    },
    {
      "constant": false,
      "inputs": [
        {
          "internalType": "uint256",
          "name": "loanID",
          "type": "uint256"
        }
      ],
      "name": "externalLoanActiveOrSet",
      "outputs": [],
      "payable": false,
      "stateMutability": "nonpayable",
      "type": "function"
    },
    {
      "constant": false,
      "inputs": [
        {
          "internalType": "address",
          "name": "anAddress",
          "type": "address"
        }
      ],
      "name": "externalIsBorrower",
      "outputs": [],
      "payable": false,
      "stateMutability": "nonpayable",
      "type": "function"
    },
    {
      "constant": false,
      "inputs": [
        {
          "components": [
            {
              "internalType": "address payable",
              "name": "borrower",
              "type": "address"
            },
            {
              "internalType": "address",
              "name": "recipient",
              "type": "address"
            },
            {
              "internalType": "address",
              "name": "consensusAddress",
              "type": "address"
            },
            {
              "internalType": "uint256",
              "name": "requestNonce",
              "type": "uint256"
            },
            {
              "internalType": "uint256",
              "name": "amount",
              "type": "uint256"
            },
            {
              "internalType": "uint256",
              "name": "duration",
              "type": "uint256"
            },
            {
              "internalType": "uint256",
              "name": "requestTime",
              "type": "uint256"
            }
          ],
          "internalType": "struct TellerCommon.LoanRequest",
          "name": "loanRequest",
          "type": "tuple"
        }
      ],
      "name": "externalWithValidLoanRequest",
      "outputs": [],
      "payable": false,
      "stateMutability": "nonpayable",
      "type": "function"
    }
  ],
  "bytecode": "0x608060405234801561001057600080fd5b50615306806100206000396000f3fe6080604052600436106101f95760003560e01c8063934b5d131161010d578063d86d744e116100a0578063e1ec3c681161006f578063e1ec3c6814610541578063e3ed190214610579578063ecdfa39f14610599578063eee8b7ff146105b9578063fd560a95146105e6576101f9565b8063d86d744e146104d7578063d8aed145146104ec578063de073a4d1461050c578063e06174e41461052c576101f9565b8063aaaca558116100dc578063aaaca5581461046d578063b2016bd414610482578063c72e188c14610497578063ccdd9f5d146104b7576101f9565b8063934b5d13146103f8578063a59a997314610425578063a5c5c7b21461043a578063a5e8a0691461044d576101f9565b80634ac8eb5f116101905780636946102f1161015f5780636946102f1461036e5780636948f32b1461038e578063743c495a146103ae578063767a7b05146103c35780638129fc1c146103e3576101f9565b80634ac8eb5f146103025780635134845414610317578063530e784f1461032c57806358895e3d1461034c576101f9565b8063158ef93e116101cc578063158ef93e1461028b5780631a74856b146102a05780632630c12f146102b35780633b929300146102d5576101f9565b806302bc2cdb146101fe578063043e5ed6146102205780630adfa02a1461024b5780631459457a1461026b575b600080fd5b34801561020a57600080fd5b5061021e610219366004614020565b610606565b005b34801561022c57600080fd5b50610235610c85565b6040516102429190614bce565b60405180910390f35b34801561025757600080fd5b5061021e610266366004613fd2565b610c95565b34801561027757600080fd5b5061021e610286366004613da4565b610ce0565b34801561029757600080fd5b50610235610db0565b61021e6102ae366004613e53565b610dcf565b3480156102bf57600080fd5b506102c8610f90565b6040516102429190614b28565b3480156102e157600080fd5b506102f56102f0366004613fd2565b610f9f565b6040516102429190614bdc565b34801561030e57600080fd5b506102f5610fcf565b34801561032357600080fd5b506102f5610fd5565b34801561033857600080fd5b5061021e610347366004613d68565b610fdb565b34801561035857600080fd5b50610361611139565b6040516102429190614bea565b34801561037a57600080fd5b5061021e610389366004613fd2565b611148565b34801561039a57600080fd5b506102356103a9366004613fd2565b61118f565b3480156103ba57600080fd5b506102356112e8565b3480156103cf57600080fd5b5061021e6103de366004614020565b6112f8565b3480156103ef57600080fd5b5061021e611511565b34801561040457600080fd5b50610418610413366004613fd2565b611599565b6040516102429190614dd9565b34801561043157600080fd5b506103616115aa565b61021e610448366004613f48565b6115b9565b34801561045957600080fd5b5061021e610468366004613ebe565b611b40565b34801561047957600080fd5b506102c8611b72565b34801561048e57600080fd5b506102c8611bf4565b3480156104a357600080fd5b5061021e6104b2366004613fd2565b611c03565b3480156104c357600080fd5b5061021e6104d2366004613fd2565b611c7b565b3480156104e357600080fd5b50610361611fc4565b3480156104f857600080fd5b5061021e610507366004614020565b611fd3565b34801561051857600080fd5b5061021e610527366004613f2a565b6123d9565b34801561053857600080fd5b50610361612667565b34801561054d57600080fd5b5061056161055c366004613fd2565b612689565b6040516102429c9b9a99989796959493929190614e4d565b34801561058557600080fd5b506102f5610594366004613e19565b612741565b3480156105a557600080fd5b5061021e6105b4366004613ff0565b61276f565b3480156105c557600080fd5b506105d96105d4366004613d68565b6127a6565b6040516102429190614bbd565b3480156105f257600080fd5b5061021e610601366004613d68565b612812565b8160016000828152606d60205260409020600e0154600160a01b900460ff16600381111561063057fe5b146106565760405162461bcd60e51b815260040161064d90614da9565b60405180910390fd5b61065e610db0565b61067a5760405162461bcd60e51b815260040161064d90614d99565b61068261283b565b1561069f5760405162461bcd60e51b815260040161064d90614cd9565b606a546001600160a01b03166106b4816128b5565b156106d15760405162461bcd60e51b815260040161064d90614c29565b603380546001908101918290556000868152606d6020526040902001546001600160a01b03163381146107165760405162461bcd60e51b815260040161064d90614d69565b6000868152606d60205260409020600501548511156107475760405162461bcd60e51b815260040161064d90614c49565b6000868152606d60205260409020600701544211156107785760405162461bcd60e51b815260040161064d90614d19565b610890610783612667565b6001600160a01b031663269012a0606e60009054906101000a90046001600160a01b03166001600160a01b03166311880cc86040518163ffffffff1660e01b815260040160206040518083038186803b1580156107df57600080fd5b505afa1580156107f3573d6000803e3d6000fd5b505050506040513d601f19601f820116820180604052506108179190810190613eee565b6040518263ffffffff1660e01b81526004016108339190614bdc565b60206040518083038186803b15801561084b57600080fd5b505afa15801561085f573d6000803e3d6000fd5b505050506040513d601f19601f820116820180604052506108839190810190613eee565b429063ffffffff61293a16565b6000878152606d60205260409020600a015411156108c05760405162461bcd60e51b815260040161064d90614d09565b6000868152606d60205260409020600d8101869055600b81018690556006810154600390910154610924916237b1d091610918916127109183919061090c908c9063ffffffff61298516565b9063ffffffff61298516565b9063ffffffff6129bf16565b6000878152606d60205260409020600c015561093e613af3565b61094787612a01565b905080606001511561096b5760405162461bcd60e51b815260040161064d90614ce9565b6000878152606d60205260409020426008820155600e01805460ff60a01b1916600160a11b17905561099c87612a52565b6000888152606d602052604090819020600e0180546001600160a01b0319166001600160a01b039384161790819055606a549151631397424760e11b81529183169263272e848e926109f4928b921690600401614e09565b600060405180830381600087803b158015610a0e57600080fd5b505af1158015610a22573d6000803e3d6000fd5b5050506000888152606d602052604090819020600e0154905163cd6dc68760e01b81526001600160a01b03909116915063cd6dc68790610a689030908b90600401614ba2565b600060405180830381600087803b158015610a8257600080fd5b505af1158015610a96573d6000803e3d6000fd5b50505050610aa2612b4b565b6001600160a01b031663c7bbb113606a60009054906101000a90046001600160a01b03166001600160a01b031663aaaca5586040518163ffffffff1660e01b815260040160206040518083038186803b158015610afe57600080fd5b505afa158015610b12573d6000803e3d6000fd5b505050506040513d601f19601f82011682018060405250610b369190810190613d86565b306001600160a01b031663b2016bd46040518163ffffffff1660e01b815260040160206040518083038186803b158015610b6f57600080fd5b505afa158015610b83573d6000803e3d6000fd5b505050506040513d601f19601f82011682018060405250610ba79190810190613d86565b896040518463ffffffff1660e01b8152600401610bc693929190614b87565b600060405180830381600087803b158015610be057600080fd5b505af1158015610bf4573d6000803e3d6000fd5b5050506000888152606d602052604090819020600e81015460019091015491516001600160a01b03918216935091169089907f85b5516a17ce775661a4b967b1fb30c852678f6598d86d9f3c99b7b60ff2d0ce90610c53908b90614bdc565b60405180910390a450506033548114610c7e5760405162461bcd60e51b815260040161064d90614db9565b5050505050565b606e54600160a01b900460ff1681565b8060026000828152606d60205260409020600e0154600160a01b900460ff166003811115610cbf57fe5b14610cdc5760405162461bcd60e51b815260040161064d90614cb9565b5050565b610ce8610db0565b15610d055760405162461bcd60e51b815260040161064d90614dc9565b610d1185858585612bc5565b610d19612667565b6001600160a01b031663a734f06e6040518163ffffffff1660e01b815260040160206040518083038186803b158015610d5157600080fd5b505afa158015610d65573d6000803e3d6000fd5b505050506040513d601f19601f82011682018060405250610d899190810190613d86565b606780546001600160a01b0319166001600160a01b03929092169190911790555050505050565b600080604051610dbf90614b12565b6040519081900390205492915050565b8160016000828152606d60205260409020600e0154600160a01b900460ff166003811115610df957fe5b1480610e2b575060026000828152606d60205260409020600e0154600160a01b900460ff166003811115610e2957fe5b145b610e475760405162461bcd60e51b815260040161064d90614c89565b610e4f610db0565b610e6b5760405162461bcd60e51b815260040161064d90614d99565b610e7361283b565b15610e905760405162461bcd60e51b815260040161064d90614cd9565b606a546001600160a01b0316610ea5816128b5565b15610ec25760405162461bcd60e51b815260040161064d90614c29565b6000848152606d60205260409020600101546001600160a01b03868116911614610efe5760405162461bcd60e51b815260040161064d90614c69565b823414610f1d5760405162461bcd60e51b815260040161064d90614c79565b60003411610f3d5760405162461bcd60e51b815260040161064d90614d49565b610f478484612d62565b846001600160a01b0316847feec2f3feb835e2f2fd44281034b04700a1ddda63dd402949d470a25a7c40b36c85604051610f819190614bdc565b60405180910390a35050505050565b6069546001600160a01b031681565b6000818152606d60205260408120600b810154600c90910154610fc79163ffffffff612dbb16565b90505b919050565b60665481565b60685481565b610fe3610db0565b610fff5760405162461bcd60e51b815260040161064d90614d99565b611007612667565b6001600160a01b031663c095ea27336040518263ffffffff1660e01b81526004016110329190614b36565b60006040518083038186803b15801561104a57600080fd5b505afa15801561105e573d6000803e3d6000fd5b50505050611074816001600160a01b0316612de0565b6110905760405162461bcd60e51b815260040161064d90614d59565b60695460408051808201909152601b81527f4e45575f4f5241434c455f4d5553545f42455f50524f5649444544000000000060208201526001600160a01b03909116906110e6908290849063ffffffff612e1c16565b606980546001600160a01b0319166001600160a01b03848116918217909255604051909183169033907ff51f0fffc8121ee3747e0536c487d894894cdba960ccfb4ab385a88d51b16fed90600090a45050565b606b546001600160a01b031681565b8060016000828152606d60205260409020600e0154600160a01b900460ff16600381111561117257fe5b14610cdc5760405162461bcd60e51b815260040161064d90614da9565b600061119961283b565b806111b45750606a546111b4906001600160a01b03166128b5565b806111e6575060026000838152606d60205260409020600e0154600160a01b900460ff1660038111156111e357fe5b14155b156111f357506000610fca565b6000828152606d60205260408120600881015460069091015490914261121f848463ffffffff612dbb16565b10905080156112345760019350505050610fca565b6000858152606d60205260409020600e01546001600160a01b031680156112d157806001600160a01b031663415dfa5b6040518163ffffffff1660e01b815260040160206040518083038186803b15801561128e57600080fd5b505afa1580156112a2573d6000803e3d6000fd5b505050506040513d601f19601f820116820180604052506112c69190810190613ea0565b945050505050610fca565b6112da86612a01565b606001519695505050505050565b606e54600160a81b900460ff1681565b8060016000828152606d60205260409020600e0154600160a01b900460ff16600381111561132257fe5b1480611354575060026000828152606d60205260409020600e0154600160a01b900460ff16600381111561135257fe5b145b6113705760405162461bcd60e51b815260040161064d90614c89565b611378610db0565b6113945760405162461bcd60e51b815260040161064d90614d99565b61139c61283b565b156113b95760405162461bcd60e51b815260040161064d90614cd9565b606a546001600160a01b03166113ce816128b5565b156113eb5760405162461bcd60e51b815260040161064d90614c29565b603380546001908101918290556000858152606d6020526040902001546001600160a01b0316331461142f5760405162461bcd60e51b815260040161064d90614d79565b6000851161144f5760405162461bcd60e51b815260040161064d90614cc9565b600061145a85612e45565b9050600061146782612e7c565b6000878152606d60205260408120600901549192509061148d908363ffffffff61293a16565b90508781111561149a5750865b80156114ab576114ab878233612fc1565b336001600160a01b0316877f7c5e5cb62e5ed3caf3764e4b0afedfedef533e27809d43367799787ad2abcd41836040516114e59190614bdc565b60405180910390a35050506033548114610c7e5760405162461bcd60e51b815260040161064d90614db9565b600054610100900460ff168061152a575061152a613042565b80611538575060005460ff16155b6115545760405162461bcd60e51b815260040161064d90614d29565b600054610100900460ff1615801561157f576000805460ff1961ff0019909116610100171660011790555b60016033558015611596576000805461ff00191690555b50565b6115a1613af3565b610fc782612a01565b606a546001600160a01b031681565b6115c1610db0565b6115dd5760405162461bcd60e51b815260040161064d90614d99565b6115e561283b565b156116025760405162461bcd60e51b815260040161064d90614cd9565b61160f6020850185613d68565b336001600160a01b038216146116375760405162461bcd60e51b815260040161064d90614d69565b61164636869003860186613fb4565b8060a00151611653612667565b6001600160a01b031663269012a0606e60009054906101000a90046001600160a01b03166001600160a01b031663cc44cadb6040518163ffffffff1660e01b815260040160206040518083038186803b1580156116af57600080fd5b505afa1580156116c3573d6000803e3d6000fd5b505050506040513d601f19601f820116820180604052506116e79190810190613eee565b6040518263ffffffff1660e01b81526004016117039190614bdc565b60206040518083038186803b15801561171b57600080fd5b505afa15801561172f573d6000803e3d6000fd5b505050506040513d601f19601f820116820180604052506117539190810190613eee565b10156117715760405162461bcd60e51b815260040161064d90614c09565b611779612667565b6001600160a01b03166369ff7744606a60009054906101000a90046001600160a01b03166001600160a01b031663aaaca5586040518163ffffffff1660e01b815260040160206040518083038186803b1580156117d557600080fd5b505afa1580156117e9573d6000803e3d6000fd5b505050506040513d601f19601f8201168201806040525061180d9190810190613d86565b83608001516040518363ffffffff1660e01b815260040161182f929190614ba2565b60206040518083038186803b15801561184757600080fd5b505afa15801561185b573d6000803e3d6000fd5b505050506040513d601f19601f8201168201806040525061187f9190810190613ea0565b1561189c5760405162461bcd60e51b815260040161064d90614c39565b6118a98160800151613048565b6118c55760405162461bcd60e51b815260040161064d90614d89565b8234146118e45760405162461bcd60e51b815260040161064d90614c79565b60006118ee61307e565b606b5460405163064e5d4960e01b8152919250600091829182916001600160a01b039091169063064e5d499061192c908d908d908d90600401614de7565b606060405180830381600087803b15801561194657600080fd5b505af115801561195a573d6000803e3d6000fd5b505050506040513d601f19601f8201168201806040525061197e919081019061403f565b919450925090506119a084611998368d90038d018d613fb4565b85858561308c565b6000858152606d6020908152604091829020835181558382015180516001830180546001600160a01b03199081166001600160a01b0393841617909155938201516002840180548616918316919091179055818501516003808501919091556060808401516004860155608080850151600587015560a0948501516006870155968801516007860155870151600885015594860151600984015590850151600a83015560c0850151600b83015560e0850151600c830155610100850151600d830155610120850151600e83018054909416911617808355610140850151919391929160ff60a01b1990911690600160a01b908490811115611a9d57fe5b02179055506101609190910151600e9091018054911515600160a81b0260ff60a81b199092169190911790553415611ad957611ad98434612d62565b606c6000611aea60208d018d613d68565b6001600160a01b031681526020808201929092526040016000908120805460018101825590825291902001849055611b3484611b2b368d90038d018d613fb4565b85858534613274565b50505050505050505050565b606e8054911515600160a81b0260ff60a81b19931515600160a01b0260ff60a01b199093169290921792909216179055565b606a546040805163155594ab60e31b815290516000926001600160a01b03169163aaaca558916004808301926020929190829003018186803b158015611bb757600080fd5b505afa158015611bcb573d6000803e3d6000fd5b505050506040513d601f19601f82011682018060405250611bef9190810190613d86565b905090565b6067546001600160a01b031681565b8060016000828152606d60205260409020600e0154600160a01b900460ff166003811115611c2d57fe5b1480611c5f575060026000828152606d60205260409020600e0154600160a01b900460ff166003811115611c5d57fe5b145b610cdc5760405162461bcd60e51b815260040161064d90614c89565b8060026000828152606d60205260409020600e0154600160a01b900460ff166003811115611ca557fe5b14611cc25760405162461bcd60e51b815260040161064d90614cb9565b611cca610db0565b611ce65760405162461bcd60e51b815260040161064d90614d99565b611cee61283b565b15611d0b5760405162461bcd60e51b815260040161064d90614cd9565b606a546001600160a01b0316611d20816128b5565b15611d3d5760405162461bcd60e51b815260040161064d90614c29565b6033805460010190819055611d518461118f565b611d6d5760405162461bcd60e51b815260040161064d90614ca9565b6000848152606d60205260408120600e8101805460ff60a01b1916600360a01b1760ff60a81b1916600160a81b1790556009015490611dab8261333f565b9050611db8868333612fc1565b6000611ed8612710610918611dcb612667565b6001600160a01b031663269012a0606e60009054906101000a90046001600160a01b03166001600160a01b0316631139087a6040518163ffffffff1660e01b815260040160206040518083038186803b158015611e2757600080fd5b505afa158015611e3b573d6000803e3d6000fd5b505050506040513d601f19601f82011682018060405250611e5f9190810190613eee565b6040518263ffffffff1660e01b8152600401611e7b9190614bdc565b60206040518083038186803b158015611e9357600080fd5b505afa158015611ea7573d6000803e3d6000fd5b505050506040513d601f19601f82011682018060405250611ecb9190810190613eee565b859063ffffffff61298516565b606a546040516382f7b02760e01b81529192506001600160a01b0316906382f7b02790611f0b9084903390600401614e17565b600060405180830381600087803b158015611f2557600080fd5b505af1158015611f39573d6000803e3d6000fd5b5050506000888152606d6020526040908190206001015490516001600160a01b03909116915088907f9950a0562c02382e2e840daa73082d5be7660ce37601f28fa4c84089c11e8a0690611f9290339088908790614b44565b60405180910390a35050506033548114611fbe5760405162461bcd60e51b815260040161064d90614db9565b50505050565b606e546001600160a01b031681565b8060026000828152606d60205260409020600e0154600160a01b900460ff166003811115611ffd57fe5b1461201a5760405162461bcd60e51b815260040161064d90614cb9565b612022610db0565b61203e5760405162461bcd60e51b815260040161064d90614d99565b61204661283b565b156120635760405162461bcd60e51b815260040161064d90614cd9565b606a546001600160a01b0316612078816128b5565b156120955760405162461bcd60e51b815260040161064d90614c29565b6033805460010190819055846120bd5760405162461bcd60e51b815260040161064d90614c19565b8460006120c986610f9f565b9050818110156120d7578091505b6120e7818363ffffffff61293a16565b90506120f38683613435565b80612197576000868152606d60205260409020600e8101805460ff60a01b1916600360a01b179055600981015460019091015461213c90889083906001600160a01b0316612fc1565b6000878152606d6020526040908190206001015490516001600160a01b039091169088907f7c5e5cb62e5ed3caf3764e4b0afedfedef533e27809d43367799787ad2abcd419061218d908590614bdc565b60405180910390a3505b606a5460405163acb7081560e01b81526001600160a01b039091169063acb70815906121c99085903390600401614e17565b600060405180830381600087803b1580156121e357600080fd5b505af11580156121f7573d6000803e3d6000fd5b50505050612203612b4b565b6001600160a01b03166362e269ef606a60009054906101000a90046001600160a01b03166001600160a01b031663aaaca5586040518163ffffffff1660e01b815260040160206040518083038186803b15801561225f57600080fd5b505afa158015612273573d6000803e3d6000fd5b505050506040513d601f19601f820116820180604052506122979190810190613d86565b306001600160a01b031663b2016bd46040518163ffffffff1660e01b815260040160206040518083038186803b1580156122d057600080fd5b505afa1580156122e4573d6000803e3d6000fd5b505050506040513d601f19601f820116820180604052506123089190810190613d86565b856040518463ffffffff1660e01b815260040161232793929190614b87565b600060405180830381600087803b15801561234157600080fd5b505af1158015612355573d6000803e3d6000fd5b5050506000878152606d6020526040908190206001015490516001600160a01b03909116915087907f20a1f2ec363af45dc5ee7d9d622f2dd68b52501c382126c7f04b53663c4c69bf906123ae90869033908790614e32565b60405180910390a350506033548114610c7e5760405162461bcd60e51b815260040161064d90614db9565b6123e836829003820182613fb4565b8060a001516123f5612667565b6001600160a01b031663269012a0606e60009054906101000a90046001600160a01b03166001600160a01b031663cc44cadb6040518163ffffffff1660e01b815260040160206040518083038186803b15801561245157600080fd5b505afa158015612465573d6000803e3d6000fd5b505050506040513d601f19601f820116820180604052506124899190810190613eee565b6040518263ffffffff1660e01b81526004016124a59190614bdc565b60206040518083038186803b1580156124bd57600080fd5b505afa1580156124d1573d6000803e3d6000fd5b505050506040513d601f19601f820116820180604052506124f59190810190613eee565b10156125135760405162461bcd60e51b815260040161064d90614c09565b61251b612667565b6001600160a01b03166369ff7744606a60009054906101000a90046001600160a01b03166001600160a01b031663aaaca5586040518163ffffffff1660e01b815260040160206040518083038186803b15801561257757600080fd5b505afa15801561258b573d6000803e3d6000fd5b505050506040513d601f19601f820116820180604052506125af9190810190613d86565b83608001516040518363ffffffff1660e01b81526004016125d1929190614ba2565b60206040518083038186803b1580156125e957600080fd5b505afa1580156125fd573d6000803e3d6000fd5b505050506040513d601f19601f820116820180604052506126219190810190613ea0565b1561263e5760405162461bcd60e51b815260040161064d90614c39565b61264b8160800151613048565b610cdc5760405162461bcd60e51b815260040161064d90614d89565b600080600060405161267890614b1d565b604051908190039020549250505090565b606d602090815260009182526040918290208054835160c08101855260018301546001600160a01b03908116825260028401548116948201949094526003830154948101949094526004820154606085015260058201546080850152600682015460a0850152600782015460088301546009840154600a850154600b860154600c870154600d880154600e9098015496999895979496939592949193909281169060ff600160a01b8204811691600160a81b9004168c565b606c602052816000526040600020818154811061275a57fe5b90600052602060002001600091509150505481565b6000828152606d60205260409020600e01805482919060ff60a01b1916600160a01b83600381111561279d57fe5b02179055505050565b6001600160a01b0381166000908152606c602090815260409182902080548351818402810184019094528084526060939283018282801561280657602002820191906000526020600020905b8154815260200190600101908083116127f2575b50505050509050919050565b80336001600160a01b03821614610cdc5760405162461bcd60e51b815260040161064d90614d69565b6000612845612667565b6001600160a01b031663b187bd266040518163ffffffff1660e01b815260040160206040518083038186803b15801561287d57600080fd5b505afa158015612891573d6000803e3d6000fd5b505050506040513d601f19601f82011682018060405250611bef9190810190613ea0565b60006128bf612667565b6001600160a01b0316633b668321836040518263ffffffff1660e01b81526004016128ea9190614b28565b60206040518083038186803b15801561290257600080fd5b505afa158015612916573d6000803e3d6000fd5b505050506040513d601f19601f82011682018060405250610fc79190810190613ea0565b600061297c83836040518060400160405280601e81526020017f536166654d6174683a207375627472616374696f6e206f766572666c6f7700008152506134f0565b90505b92915050565b6000826129945750600061297f565b828202828482816129a157fe5b041461297c5760405162461bcd60e51b815260040161064d90614cf9565b600061297c83836040518060400160405280601a81526020017f536166654d6174683a206469766973696f6e206279207a65726f000000000000815250613521565b612a09613af3565b6000828152606d60205260408120600901549080612a2685613558565b604080516080810182528681526020810193909352820181905293909311606084015250909392505050565b6000612a5c612667565b6001600160a01b031663bdd1daaa6040518163ffffffff1660e01b815260040160206040518083038186803b158015612a9457600080fd5b505afa158015612aa8573d6000803e3d6000fd5b505050506040513d601f19601f82011682018060405250612acc9190810190613f0c565b6001600160a01b0316634614874e30846040518363ffffffff1660e01b8152600401612af9929190614ba2565b602060405180830381600087803b158015612b1357600080fd5b505af1158015612b27573d6000803e3d6000fd5b505050506040513d601f19601f82011682018060405250610fc79190810190613d86565b6000612b55612667565b6001600160a01b0316631390f8d76040518163ffffffff1660e01b815260040160206040518083038186803b158015612b8d57600080fd5b505afa158015612ba1573d6000803e3d6000fd5b505050506040513d601f19601f82011682018060405250611bef9190810190613f0c565b612bcd610db0565b15612bea5760405162461bcd60e51b815260040161064d90614dc9565b60408051808201909152601681527550524f564944455f4f5241434c455f4144445245535360501b6020820152612c31906001600160a01b0386169063ffffffff61357c16565b60408051808201909152601c81527f50524f564944455f4c454e44494e475f504f4f4c5f41444452455353000000006020820152612c7f906001600160a01b0385169063ffffffff61357c16565b60408051808201909152601b81527f50524f56494445445f4c4f414e5f5445524d535f4144445245535300000000006020820152612ccd906001600160a01b0384169063ffffffff61357c16565b612cd6816135a9565b606980546001600160a01b038087166001600160a01b031992831617909255606a8054868416908316179055606b805492851692909116919091179055604051612d1f90613b1d565b604051809103906000f080158015612d3b573d6000803e3d6000fd5b50606e80546001600160a01b0319166001600160a01b039290921691909117905550505050565b606654612d75908263ffffffff612dbb16565b6066556000828152606d6020526040902060090154612d9a908263ffffffff612dbb16565b6000928352606d602052604090922060098101929092555042600a90910155565b60008282018381101561297c5760405162461bcd60e51b815260040161064d90614c59565b6000813f7fc5d2460186f7233c927e7db2dcc703c0e500b653ca82273b7bfad8045d85a470818114801590612e1457508115155b949350505050565b612e26838361365b565b8190611fbe5760405162461bcd60e51b815260040161064d9190614bf8565b600080612e5183610f9f565b6000848152606d6020526040902060040154909150612e14612710610918848463ffffffff61298516565b600080612f16606a60009054906101000a90046001600160a01b03166001600160a01b031663aaaca5586040518163ffffffff1660e01b815260040160206040518083038186803b158015612ed057600080fd5b505afa158015612ee4573d6000803e3d6000fd5b505050506040513d601f19601f82011682018060405250612f089190810190613d86565b6001600160a01b031661366d565b90506000606960009054906101000a90046001600160a01b03166001600160a01b03166396237c026040518163ffffffff1660e01b815260040160206040518083038186803b158015612f6857600080fd5b505afa158015612f7c573d6000803e3d6000fd5b505050506040513d601f19601f82011682018060405250612fa09190810190613eee565b90506000612fb883610918878563ffffffff61298516565b95945050505050565b606654612fd4908363ffffffff61293a16565b6066556000838152606d6020526040902060090154612ff9908363ffffffff61293a16565b6000848152606d60205260408082206009019290925590516001600160a01b0383169184156108fc02918591818181858888f19350505050158015611fbe573d6000803e3d6000fd5b303b1590565b606e54600090600160a01b900460ff1661306c57613065826136ee565b9050610fca565b5050606e54600160a81b900460ff1690565b606880546001810190915590565b613094613b2a565b60006131ae6130a1612667565b6001600160a01b031663269012a0606e60009054906101000a90046001600160a01b03166001600160a01b031663e00a46156040518163ffffffff1660e01b815260040160206040518083038186803b1580156130fd57600080fd5b505afa158015613111573d6000803e3d6000fd5b505050506040513d601f19601f820116820180604052506131359190810190613eee565b6040518263ffffffff1660e01b81526004016131519190614bdc565b60206040518083038186803b15801561316957600080fd5b505afa15801561317d573d6000803e3d6000fd5b505050506040513d601f19601f820116820180604052506131a19190810190613eee565b429063ffffffff612dbb16565b90506040518061018001604052808881526020016040518060c0016040528089600001516001600160a01b0316815260200189602001516001600160a01b031681526020018881526020018781526020018681526020018960a00151815250815260200182815260200160008152602001600081526020016000815260200160008152602001600081526020016000815260200160006001600160a01b031681526020016001600381111561325f57fe5b81526000602090910152979650505050505050565b84602001516001600160a01b031685600001516001600160a01b0316877f0358f509931cba53bbb6a94b7f05a5178220a0c7ddb54b1a1722df9e6ed6aa098787878b60a00151606d60008f8152602001908152602001600020600701546040516132e2959493929190614f05565b60405180910390a480156133375784600001516001600160a01b0316867feec2f3feb835e2f2fd44281034b04700a1ddda63dd402949d470a25a7c40b36c8360405161332e9190614bdc565b60405180910390a35b505050505050565b600080613393606a60009054906101000a90046001600160a01b03166001600160a01b031663aaaca5586040518163ffffffff1660e01b815260040160206040518083038186803b158015612ed057600080fd5b90506000606960009054906101000a90046001600160a01b03166001600160a01b03166396237c026040518163ffffffff1660e01b815260040160206040518083038186803b1580156133e557600080fd5b505afa1580156133f9573d6000803e3d6000fd5b505050506040513d601f19601f8201168201806040525061341d9190810190613eee565b90506000612fb882610918878663ffffffff61298516565b6000828152606d60205260409020600b01548111156134b8576000828152606d60205260409020600b0154819061347390829063ffffffff61293a16565b6000848152606d60205260408120600b810191909155600c01549091506134a0908263ffffffff61293a16565b6000848152606d60205260409020600c015550610cdc565b6000828152606d60205260409020600b01546134da908263ffffffff61293a16565b6000838152606d60205260409020600b01555050565b600081848411156135145760405162461bcd60e51b815260040161064d9190614bf8565b50508183035b9392505050565b600081836135425760405162461bcd60e51b815260040161064d9190614bf8565b50600083858161354e57fe5b0495945050505050565b600080600061356684612e45565b90508061357282612e7c565b9250925050915091565b61358582613a5e565b81906135a45760405162461bcd60e51b815260040161064d9190614bf8565b505050565b6135b1610db0565b156135ce5760405162461bcd60e51b815260040161064d90614dc9565b60408051808201909152601981527f53455454494e47535f4d5553545f42455f50524f564944454400000000000000602082015261361c906001600160a01b0383169063ffffffff61357c16565b61362e816001600160a01b0316612de0565b61364a5760405162461bcd60e51b815260040161064d90614c99565b613652613a6c565b61159681613a8a565b6001600160a01b039081169116141590565b600080826001600160a01b031663313ce5676040518163ffffffff1660e01b815260040160206040518083038186803b1580156136a957600080fd5b505afa1580156136bd573d6000803e3d6000fd5b505050506040513d601f19601f820116820180604052506136e19190810190614082565b60ff16600a0a9392505050565b6000806136f9612667565b6001600160a01b031663dc21a6a06040518163ffffffff1660e01b815260040160206040518083038186803b15801561373157600080fd5b505afa158015613745573d6000803e3d6000fd5b505050506040513d601f19601f820116820180604052506137699190810190613f0c565b6001600160a01b0316631fb7cec9606a60009054906101000a90046001600160a01b03166001600160a01b031663aaaca5586040518163ffffffff1660e01b815260040160206040518083038186803b1580156137c557600080fd5b505afa1580156137d9573d6000803e3d6000fd5b505050506040513d601f19601f820116820180604052506137fd9190810190613d86565b6067546040516001600160e01b031960e085901b16815261382b92916001600160a01b031690600401614b6c565b60206040518083038186803b15801561384357600080fd5b505afa158015613857573d6000803e3d6000fd5b505050506040513d601f19601f8201168201806040525061387b9190810190613d86565b90506001600160a01b0381166138a35760405162461bcd60e51b815260040161064d90614d39565b604051632319178560e11b81526000906001600160a01b038316906346322f0a906138e1906b14dd5c1c1b1e551bd119589d60a21b90600401614bdc565b60206040518083038186803b1580156138f957600080fd5b505afa15801561390d573d6000803e3d6000fd5b505050506040513d601f19601f820116820180604052506139319190810190613eee565b9050600061393d612b4b565b6001600160a01b031663db63323e606a60009054906101000a90046001600160a01b03166001600160a01b031663aaaca5586040518163ffffffff1660e01b815260040160206040518083038186803b15801561399957600080fd5b505afa1580156139ad573d6000803e3d6000fd5b505050506040513d601f19601f820116820180604052506139d19190810190613d86565b6067546040516001600160e01b031960e085901b168152613a0192916001600160a01b0316908a90600401614b87565b60206040518083038186803b158015613a1957600080fd5b505afa158015613a2d573d6000803e3d6000fd5b505050506040513d601f19601f82011682018060405250613a519190810190613eee565b9190911115949350505050565b6001600160a01b0316151590565b6000604051613a7a90614b12565b6040519081900390206001905550565b6000613a94612667565b6001600160a01b031614613ad557613ab4816001600160a01b0316612de0565b613ad05760405162461bcd60e51b815260040161064d90614c99565b611596565b6000604051613ae390614b1d565b6040519081900390208290555050565b60405180608001604052806000815260200160008152602001600081526020016000151581525090565b61022b8061509983390190565b60405180610180016040528060008152602001613b45613ba5565b81526020016000815260200160008152602001600081526020016000815260200160008152602001600081526020016000815260200160006001600160a01b0316815260200160006003811115613b9857fe5b8152600060209091015290565b6040518060c0016040528060006001600160a01b0316815260200160006001600160a01b03168152602001600081526020016000815260200160008152602001600081525090565b803561297f81615053565b805161297f81615053565b60008083601f840112613c1557600080fd5b50813567ffffffffffffffff811115613c2d57600080fd5b60208301915083610140820283011115613c4657600080fd5b9250929050565b803561297f81615067565b805161297f81615067565b803561297f81615070565b805161297f81615070565b805161297f81615079565b803561297f81615082565b600060e08284031215613ca157600080fd5b50919050565b600060e08284031215613cb957600080fd5b613cc360e0614f51565b90506000613cd18484613bed565b8252506020613ce284848301613bed565b6020830152506040613cf684828501613bed565b6040830152506060613d0a84828501613c63565b6060830152506080613d1e84828501613c63565b60808301525060a0613d3284828501613c63565b60a08301525060c0613d4684828501613c63565b60c08301525092915050565b803561297f8161508f565b805161297f8161508f565b600060208284031215613d7a57600080fd5b6000612e148484613bed565b600060208284031215613d9857600080fd5b6000612e148484613bf8565b600080600080600060a08688031215613dbc57600080fd5b6000613dc88888613bed565b9550506020613dd988828901613bed565b9450506040613dea88828901613bed565b9350506060613dfb88828901613bed565b9250506080613e0c88828901613bed565b9150509295509295909350565b60008060408385031215613e2c57600080fd5b6000613e388585613bed565b9250506020613e4985828601613c63565b9150509250929050565b600080600060608486031215613e6857600080fd5b6000613e748686613bed565b9350506020613e8586828701613c63565b9250506040613e9686828701613c63565b9150509250925092565b600060208284031215613eb257600080fd5b6000612e148484613c58565b60008060408385031215613ed157600080fd5b6000613edd8585613c4d565b9250506020613e4985828601613c4d565b600060208284031215613f0057600080fd5b6000612e148484613c6e565b600060208284031215613f1e57600080fd5b6000612e148484613c79565b600060e08284031215613f3c57600080fd5b6000612e148484613c8f565b6000806000806101208587031215613f5f57600080fd5b6000613f6b8787613c8f565b94505060e085013567ffffffffffffffff811115613f8857600080fd5b613f9487828801613c03565b9350935050610100613fa887828801613c63565b91505092959194509250565b600060e08284031215613fc657600080fd5b6000612e148484613ca7565b600060208284031215613fe457600080fd5b6000612e148484613c63565b6000806040838503121561400357600080fd5b600061400f8585613c63565b9250506020613e4985828601613c84565b6000806040838503121561403357600080fd5b6000613e388585613c63565b60008060006060848603121561405457600080fd5b60006140608686613c6e565b935050602061407186828701613c6e565b9250506040613e9686828701613c6e565b60006020828403121561409457600080fd5b6000612e148484613d5d565b60006140ac8383614975565b50506101400190565b60006140c18383614190565b505060200190565b6140d281614ffd565b82525050565b6140d281614fc6565b60006140ed8385614f8c565b93506140f882614f78565b8060005b8581101561412e5761410e8284614fb3565b61411888826140a0565b975061412383614f85565b9250506001016140fc565b509495945050505050565b600061414482614f81565b61414e8185614f8c565b935061415983614f7b565b8060005b8381101561412e57815161417188826140b5565b975061417c83614f7b565b92505060010161415d565b6140d281614fd1565b6140d281614f78565b6140d281614fd6565b6140d281615008565b60006141b682614f81565b6141c08185614f8c565b93506141d0818560208601615013565b6141d98161503f565b9093019392505050565b60006141f0601d83614f8c565b7f4455524154494f4e5f455843454544535f4d41585f4455524154494f4e000000815260200192915050565b6000614229601c83610fca565b7f54496e697469616c697a61626c652e6973496e697469616c697a6564000000008152601c0192915050565b6000614262601583614f8c565b74105353d5539517d59053155157d491545552549151605a1b815260200192915050565b6000614293601683614f8c565b7513115391125391d7d413d3d317d254d7d4105554d15160521b815260200192915050565b60006142c5601983614f8c565b7f414d4f554e545f455843454544535f4d41585f414d4f554e5400000000000000815260200192915050565b60006142fe601183614f8c565b7013505617d313d05397d15610d151511151607a1b815260200192915050565b600061432b601b83614f8c565b7f536166654d6174683a206164646974696f6e206f766572666c6f770000000000815260200192915050565b6000614364601983614f8c565b7f424f52524f5745525f4c4f414e5f49445f4d49534d4154434800000000000000815260200192915050565b600061439d601483614f8c565b73125390d3d4949150d517d1551217d05353d5539560621b815260200192915050565b60006143cd601683614f8c565b751313d05397d393d517d050d512559157d3d497d4d15560521b815260200192915050565b60006143ff601b83614f8c565b7f53455454494e47535f4d5553545f42455f415f434f4e54524143540000000000815260200192915050565b6000614438601783614f8c565b7f444f45534e545f4e4545445f4c49515549444154494f4e000000000000000000815260200192915050565b6000614471600f83614f8c565b6e4c4f414e5f4e4f545f41435449564560881b815260200192915050565b600061449c601483614f8c565b7343414e4e4f545f57495448445241575f5a45524f60601b815260200192915050565b60006144cc601283614f8c565b71141310551193d49357d254d7d4105554d15160721b815260200192915050565b60006144fa601883614f8c565b7f4d4f52455f434f4c4c41544552414c5f52455155495245440000000000000000815260200192915050565b6000614533602183614f8c565b7f536166654d6174683a206d756c7469706c69636174696f6e206f766572666c6f8152607760f81b602082015260400192915050565b6000614576601d83614f8c565b7f434f4c4c41544552414c5f4445504f53495445445f524543454e544c59000000815260200192915050565b60006145af601283614f8c565b711313d05397d511549354d7d156141254915160721b815260200192915050565b60006145dd602e83614f8c565b7f436f6e747261637420696e7374616e63652068617320616c726561647920626581526d195b881a5b9a5d1a585b1a5e995960921b602082015260400192915050565b600061462d601883614f8c565b7f41544d5f4e4f545f464f554e445f464f525f4d41524b45540000000000000000815260200192915050565b6000614666601383614f8c565b7243414e4e4f545f4445504f5349545f5a45524f60681b815260200192915050565b6000614695601e83614f8c565b7f4f5241434c455f4d5553545f434f4e54524143545f4e4f545f454d5054590000815260200192915050565b60006146ce601783614f8c565b7f424f52524f5745525f4d5553545f42455f53454e444552000000000000000000815260200192915050565b6000614707601683614f8c565b7521a0a62622a92fa227a2a9a72a2fa7aba72fa627a0a760511b815260200192915050565b6000614739601883610fca565b7f426173655570677261646561626c652e73657474696e67730000000000000000815260180192915050565b6000614772601a83614f8c565b7f535550504c595f544f5f444542545f455843454544535f4d4158000000000000815260200192915050565b60006147ab601883614f8c565b7f434f4e54524143545f4e4f545f494e495449414c495a45440000000000000000815260200192915050565b60006147e4600c83614f8c565b6b1313d05397d393d517d4d15560a21b815260200192915050565b600061480c601f83614f8c565b7f5265656e7472616e637947756172643a207265656e7472616e742063616c6c00815260200192915050565b6000614845601c83614f8c565b7f434f4e54524143545f414c52454144595f494e495449414c495a454400000000815260200192915050565b805160808301906148828482614190565b5060208201516148956020850182614190565b5060408201516148a86040850182614190565b506060820151611fbe6060850182614187565b60e082016148c98280614f95565b6148d384826140d8565b506148e16020830183614f95565b6148ee60208501826140d8565b506148fc6040830183614f95565b61490960408501826140d8565b506149176060830183614fa4565b6149246060850182614190565b506149326080830183614fa4565b61493f6080850182614190565b5061494d60a0830183614fa4565b61495a60a0850182614190565b5061496860c0830183614fa4565b611fbe60c0850182614190565b61014082016149848280614f95565b61498e84826140d8565b5061499c6020830183614f95565b6149a960208501826140d8565b506149b76040830183614fa4565b6149c46040850182614190565b506149d26060830183614fa4565b6149df6060850182614190565b506149ed6080830183614fa4565b6149fa6080850182614190565b50614a0860a0830183614fa4565b614a1560a0850182614190565b50614a2360c0830183614fb3565b611fbe60c0850182614aa0565b805160c0830190614a4184826140d8565b506020820151614a5460208501826140d8565b506040820151614a676040850182614190565b506060820151614a7a6060850182614190565b506080820151614a8d6080850182614190565b5060a0820151611fbe60a0850182614190565b60808201614aae8280614fa4565b614ab88482614190565b50614ac66020830183614fb7565b614ad36020850182614b09565b50614ae16040830183614fa4565b614aee6040850182614190565b50614afc6060830183614fa4565b611fbe6060850182614190565b6140d281614ff7565b600061297f8261421c565b600061297f8261472c565b6020810161297f82846140d8565b6020810161297f82846140c9565b60608101614b5282866140c9565b614b5f6020830185614190565b612e146040830184614190565b60408101614b7a82856140d8565b61351a60208301846140d8565b60608101614b9582866140d8565b614b5f60208301856140d8565b60408101614bb082856140d8565b61351a6020830184614190565b6020808252810161297c8184614139565b6020810161297f8284614187565b6020810161297f8284614190565b6020810161297f8284614199565b6020808252810161297c81846141ab565b60208082528101610fc7816141e3565b60208082528101610fc781614255565b60208082528101610fc781614286565b60208082528101610fc7816142b8565b60208082528101610fc7816142f1565b60208082528101610fc78161431e565b60208082528101610fc781614357565b60208082528101610fc781614390565b60208082528101610fc7816143c0565b60208082528101610fc7816143f2565b60208082528101610fc78161442b565b60208082528101610fc781614464565b60208082528101610fc78161448f565b60208082528101610fc7816144bf565b60208082528101610fc7816144ed565b60208082528101610fc781614526565b60208082528101610fc781614569565b60208082528101610fc7816145a2565b60208082528101610fc7816145d0565b60208082528101610fc781614620565b60208082528101610fc781614659565b60208082528101610fc781614688565b60208082528101610fc7816146c1565b60208082528101610fc7816146fa565b60208082528101610fc781614765565b60208082528101610fc78161479e565b60208082528101610fc7816147d7565b60208082528101610fc7816147ff565b60208082528101610fc781614838565b6080810161297f8284614871565b6101008101614df682866148bb565b81810360e0830152612fb88184866140e1565b60408101614b7a8285614190565b60408101614e258285614190565b61351a60208301846140c9565b60608101614e408286614190565b614b5f60208301856140c9565b6102208101614e5c828f614190565b614e69602083018e614a30565b614e7660e083018d614190565b614e8461010083018c614190565b614e9261012083018b614190565b614ea061014083018a614190565b614eae610160830189614190565b614ebc610180830188614190565b614eca6101a0830187614190565b614ed86101c08301866140d8565b614ee66101e08301856141a2565b614ef4610200830184614187565b9d9c50505050505050505050505050565b60a08101614f138288614190565b614f206020830187614190565b614f2d6040830186614190565b614f3a6060830185614190565b614f476080830184614190565b9695505050505050565b60405181810167ffffffffffffffff81118282101715614f7057600080fd5b604052919050565b90565b60200190565b5190565b6101400190565b90815260200190565b600061297c6020840184613bed565b600061297c6020840184613c63565b5090565b600061297c6020840184613d52565b6000610fc782614feb565b151590565b6000610fc782614fc6565b80610fca81615049565b6001600160a01b031690565b60ff1690565b6000610fc782614fd6565b6000610fc782614fe1565b60005b8381101561502e578181015183820152602001615016565b83811115611fbe5750506000910152565b601f01601f191690565b6004811061159657fe5b61505c81614fc6565b811461159657600080fd5b61505c81614fd1565b61505c81614f78565b61505c81614fd6565b6004811061159657600080fd5b61505c81614ff756fe608060405234801561001057600080fd5b5061020b806100206000396000f3fe608060405234801561001057600080fd5b50600436106100935760003560e01c80633ff591d9116100665780633ff591d9146100ca578063c41dd8ce146100d2578063cc44cadb146100da578063e00a4615146100e2578063e3f33d00146100ea57610093565b806308b04f62146100985780631139087a146100b257806311880cc8146100ba5780633b98dfdb146100c2575b600080fd5b6100a06100f2565b60408051918252519081900360200190f35b6100a0610109565b6100a0610121565b6100a0610136565b6100a061015a565b6100a0610174565b6100a061018b565b6100a06101a5565b6100a06101bb565b6f21b7b63630ba32b930b6213ab33332b960811b81565b704c6971756964617465457468507269636560781b81565b6d14d859995d1e525b9d195c9d985b60921b81565b7f526571756573744c6f616e5465726d73526174654c696d69740000000000000081565b7252657175697265645375626d697373696f6e7360681b81565b6f4d6178696d756d546f6c6572616e636560801b81565b7226b0bc34b6bab6a637b0b7223ab930ba34b7b760691b81565b6e5465726d7345787069727954696d6560881b81565b730a4cae6e0dedce6ca8af0e0d2e4f298cadccee8d60631b8156fea265627a7a72315820b6cc93d12d39f205ac91b27ee8876405b81cd752a680e010a2828f9ed81bbbb364736f6c63430005110032a365627a7a723158208d54358b8e1f4b4fff601b65c7011abbd107c85ba8db06f6b3eea7d3670834c66c6578706572696d656e74616cf564736f6c63430005110040",
  "source": "pragma solidity 0.5.17;\npragma experimental ABIEncoderV2;\n\nimport \"../../base/EtherCollateralLoans.sol\";\n\n/**\n    This contract is created ONLY for testing purposes.\n */\ncontract LoansBaseModifiersMock is EtherCollateralLoans {\n    bool public mockIsSupplyToDebtRatioValid;\n    bool public returnIsSupplyToDebtRatioValid;\n\n    function setMockIsSupplyToDebtRatioValid(\n        bool result,\n        bool aResponseIsSupplyToDebtRatioValid\n    ) external {\n        mockIsSupplyToDebtRatioValid = result;\n        returnIsSupplyToDebtRatioValid = aResponseIsSupplyToDebtRatioValid;\n    }\n\n    function _isSupplyToDebtRatioValid(uint256 newLoanAmount)\n        internal\n        view\n        returns (bool)\n    {\n        if (!mockIsSupplyToDebtRatioValid) {\n            return super._isSupplyToDebtRatioValid(newLoanAmount);\n        }\n        return returnIsSupplyToDebtRatioValid;\n    }\n\n    function setLoanStatus(uint256 loanID, TellerCommon.LoanStatus status) external {\n        loans[loanID].status = status;\n    }\n\n    function externalLoanActive(uint256 loanID) external loanActive(loanID) {}\n\n    function externalLoanTermsSet(uint256 loanID) external loanTermsSet(loanID) {}\n\n    function externalLoanActiveOrSet(uint256 loanID) external loanActiveOrSet(loanID) {}\n\n    function externalIsBorrower(address anAddress) external isBorrower(anAddress) {}\n\n    function externalWithValidLoanRequest(TellerCommon.LoanRequest calldata loanRequest)\n        external\n        withValidLoanRequest(loanRequest)\n    {}\n}\n",
  "sourcePath": "/Users/sy/Documents/GitHub/teller-protocol-v1/contracts/mock/base/LoansBaseModifiersMock.sol",
  "compiler": {
    "name": "solc",
    "version": "0.5.17+commit.d19bba13.Emscripten.clang"
  },
  "schemaVersion": "3.0.23",
  "updatedAt": "2020-09-06T02:15:12.496Z",
  "devdoc": {
    "methods": {
      "canLiquidateLoan(uint256)": {
        "params": {
          "loanID": "The ID of the loan to check"
        },
        "return": "bool weather the loan can be liquidated"
      },
      "createLoanWithTerms((address,address,address,uint256,uint256,uint256,uint256),(address,address,uint256,uint256,uint256,uint256,(uint256,uint8,bytes32,bytes32))[],uint256)": {
        "params": {
          "collateralAmount": "Amount of collateral required for the loan",
          "request": "Struct of the protocol loan request",
          "responses": "List of structs of the protocol loan responses"
        }
      },
      "depositCollateral(address,uint256,uint256)": {
        "params": {
          "borrower": "The address of the loan borrower.",
          "loanID": "The ID of the loan the collateral is for"
        }
      },
      "getBorrowerLoans(address)": {
        "params": {
          "borrower": "The borrower's address"
        }
      },
      "getCollateralInfo(uint256)": {
        "params": {
          "loanID": "of the loan to get info for"
        },
        "return": "memory TellerCommon.LoanCollateralInfo Collateral information of the loan"
      },
      "getTotalOwed(uint256)": {
        "params": {
          "loanID": "The ID of the loan to be queried"
        },
        "return": "uint256 The total amount owed remaining"
      },
      "initialize(address,address,address,address,address)": {
        "params": {
          "lendingPoolAddress": "Contract address of the lending pool",
          "loanTermsConsensusAddress": "Contract adddress for loan term consensus",
          "priceOracleAddress": "Contract address of the price oracle",
          "settingsAddress": "Contract address for the configuration of the platform"
        }
      },
      "initialized()": {
        "return": "true if contract is initialized. Otherwise it returns false."
      },
      "lendingToken()": {
        "return": "Address of the lending token"
      },
      "liquidateLoan(uint256)": {
        "params": {
          "loanID": "The ID of the loan to be liquidated"
        }
      },
      "repay(uint256,uint256)": {
        "params": {
          "amount": "The amount of tokens to pay back to the loan",
          "loanID": "The ID of the loan the payment is for"
        }
      },
      "setPriceOracle(address)": {
        "details": "It throws a require error if sender is not allowed.It throws a require error if new address is empty (0x0) or not a contract.",
        "params": {
          "newPriceOracle": "the new price oracle address."
        }
      },
      "takeOutLoan(uint256,uint256)": {
        "details": "collateral ratio is a percentage of the loan amount that's required in collateralthe percentage will be *(10**2). I.e. collateralRatio of 5244 means 52.44% collateralis required in the loan. Interest rate is also a percentage with 2 decimal points."
      },
      "withdrawCollateral(uint256,uint256)": {
        "params": {
          "amount": "The amount of collateral token or ether the caller is hoping to withdraw.",
          "loanID": "The ID of the loan the collateral is for"
        }
      }
    }
  },
  "userdoc": {
    "methods": {
      "canLiquidateLoan(uint256)": {
        "notice": "A loan can be liquidated if it is: under collateralized or expired"
      },
      "createLoanWithTerms((address,address,address,uint256,uint256,uint256,uint256),(address,address,uint256,uint256,uint256,uint256,(uint256,uint8,bytes32,bytes32))[],uint256)": {
        "notice": "Creates a loan with the loan request and terms"
      },
      "depositCollateral(address,uint256,uint256)": {
        "notice": "Deposit collateral into a loan"
      },
      "getBorrowerLoans(address)": {
        "notice": "Get a list of all loans for a borrower"
      },
      "getCollateralInfo(uint256)": {
        "notice": "Get collateral information of a specific loan"
      },
      "getTotalOwed(uint256)": {
        "notice": "Returns the total owed amount remaining for a specified loan"
      },
      "initialize(address,address,address,address,address)": {
        "notice": "Initializes the current contract instance setting the required parameters"
      },
      "initialized()": {
        "notice": "Gets if the contract is initialized."
      },
      "lendingToken()": {
        "notice": "Returns the lending token in the lending pool"
      },
      "liquidateLoan(uint256)": {
        "notice": "Liquidate a loan if it is expired or under collateralized"
      },
      "repay(uint256,uint256)": {
        "notice": "Make a payment to a loan"
      },
      "setPriceOracle(address)": {
        "notice": "Updates the current price oracle instance."
      },
      "settings()": {
        "notice": "The settings contract."
      },
      "takeOutLoan(uint256,uint256)": {
        "notice": "Take out a loan"
      },
      "withdrawCollateral(uint256,uint256)": {
        "notice": "Withdraw collateral from a loan, unless this isn't allowed"
      }
    },
    "notice": "This contract is created ONLY for testing purposes."
  }
}