{
  "contractName": "LogicVersionsRegistry",
  "abi": [
    {
      "anonymous": false,
      "inputs": [
        {
          "indexed": true,
          "internalType": "bytes32",
          "name": "logicName",
          "type": "bytes32"
        },
        {
          "indexed": true,
          "internalType": "address",
          "name": "sender",
          "type": "address"
        },
        {
          "indexed": true,
          "internalType": "address",
          "name": "logic",
          "type": "address"
        },
        {
          "indexed": false,
          "internalType": "uint256",
          "name": "version",
          "type": "uint256"
        }
      ],
      "name": "LogicVersionCreated",
      "type": "event"
    },
    {
      "anonymous": false,
      "inputs": [
        {
          "indexed": true,
          "internalType": "bytes32",
          "name": "logicName",
          "type": "bytes32"
        },
        {
          "indexed": true,
          "internalType": "address",
          "name": "sender",
          "type": "address"
        },
        {
          "indexed": false,
          "internalType": "address",
          "name": "lastLogic",
          "type": "address"
        },
        {
          "indexed": false,
          "internalType": "uint256",
          "name": "lastVersion",
          "type": "uint256"
        }
      ],
      "name": "LogicVersionRemoved",
      "type": "event"
    },
    {
      "anonymous": false,
      "inputs": [
        {
          "indexed": true,
          "internalType": "bytes32",
          "name": "logicName",
          "type": "bytes32"
        },
        {
          "indexed": true,
          "internalType": "address",
          "name": "sender",
          "type": "address"
        },
        {
          "indexed": false,
          "internalType": "address",
          "name": "oldLogic",
          "type": "address"
        },
        {
          "indexed": false,
          "internalType": "address",
          "name": "newLogic",
          "type": "address"
        },
        {
          "indexed": false,
          "internalType": "uint256",
          "name": "oldVersion",
          "type": "uint256"
        },
        {
          "indexed": false,
          "internalType": "uint256",
          "name": "newVersion",
          "type": "uint256"
        }
      ],
      "name": "LogicVersionUpdated",
      "type": "event"
    },
    {
      "constant": true,
      "inputs": [],
      "name": "consts",
      "outputs": [
        {
          "internalType": "contract LogicVersionsConsts",
          "name": "",
          "type": "address"
        }
      ],
      "payable": false,
      "stateMutability": "view",
      "type": "function"
    },
    {
      "constant": true,
      "inputs": [],
      "name": "initialized",
      "outputs": [
        {
          "internalType": "bool",
          "name": "value",
          "type": "bool"
        }
      ],
      "payable": false,
      "stateMutability": "view",
      "type": "function"
    },
    {
      "constant": true,
      "inputs": [
        {
          "internalType": "bytes32",
          "name": "",
          "type": "bytes32"
        }
      ],
      "name": "logicVersions",
      "outputs": [
        {
          "internalType": "address",
          "name": "logic",
          "type": "address"
        },
        {
          "internalType": "uint256",
          "name": "version",
          "type": "uint256"
        },
        {
          "internalType": "bool",
          "name": "exists",
          "type": "bool"
        }
      ],
      "payable": false,
      "stateMutability": "view",
      "type": "function"
    },
    {
      "constant": true,
      "inputs": [],
      "name": "settings",
      "outputs": [
        {
          "internalType": "contract SettingsInterface",
          "name": "",
          "type": "address"
        }
      ],
      "payable": false,
      "stateMutability": "view",
      "type": "function"
    },
    {
      "constant": false,
      "inputs": [
        {
          "internalType": "bytes32",
          "name": "logicName",
          "type": "bytes32"
        },
        {
          "internalType": "address",
          "name": "logic",
          "type": "address"
        }
      ],
      "name": "createLogicVersion",
      "outputs": [],
      "payable": false,
      "stateMutability": "nonpayable",
      "type": "function"
    },
    {
      "constant": false,
      "inputs": [
        {
          "components": [
            {
              "internalType": "address",
              "name": "logic",
              "type": "address"
            },
            {
              "internalType": "bytes32",
              "name": "logicName",
              "type": "bytes32"
            }
          ],
          "internalType": "struct TellerCommon.LogicVersionRequest[]",
          "name": "newLogicVersions",
          "type": "tuple[]"
        }
      ],
      "name": "createLogicVersions",
      "outputs": [],
      "payable": false,
      "stateMutability": "nonpayable",
      "type": "function"
    },
    {
      "constant": false,
      "inputs": [
        {
          "internalType": "bytes32",
          "name": "logicName",
          "type": "bytes32"
        },
        {
          "internalType": "address",
          "name": "newLogic",
          "type": "address"
        }
      ],
      "name": "updateLogicAddress",
      "outputs": [],
      "payable": false,
      "stateMutability": "nonpayable",
      "type": "function"
    },
    {
      "constant": false,
      "inputs": [
        {
          "internalType": "bytes32",
          "name": "logicName",
          "type": "bytes32"
        }
      ],
      "name": "removeLogicVersion",
      "outputs": [],
      "payable": false,
      "stateMutability": "nonpayable",
      "type": "function"
    },
    {
      "constant": true,
      "inputs": [
        {
          "internalType": "bytes32",
          "name": "logicName",
          "type": "bytes32"
        }
      ],
      "name": "getLogicVersion",
      "outputs": [
        {
          "components": [
            {
              "internalType": "address",
              "name": "logic",
              "type": "address"
            },
            {
              "internalType": "uint256",
              "name": "version",
              "type": "uint256"
            },
            {
              "internalType": "bool",
              "name": "exists",
              "type": "bool"
            }
          ],
          "internalType": "struct LogicVersionLib.LogicVersion",
          "name": "",
          "type": "tuple"
        }
      ],
      "payable": false,
      "stateMutability": "view",
      "type": "function"
    },
    {
      "constant": true,
      "inputs": [
        {
          "internalType": "bytes32",
          "name": "logicName",
          "type": "bytes32"
        }
      ],
      "name": "getLogicVersionAddress",
      "outputs": [
        {
          "internalType": "address",
          "name": "",
          "type": "address"
        }
      ],
      "payable": false,
      "stateMutability": "view",
      "type": "function"
    },
    {
      "constant": true,
      "inputs": [
        {
          "internalType": "bytes32",
          "name": "logicName",
          "type": "bytes32"
        }
      ],
      "name": "hasLogicVersion",
      "outputs": [
        {
          "internalType": "bool",
          "name": "",
          "type": "bool"
        }
      ],
      "payable": false,
      "stateMutability": "view",
      "type": "function"
    },
    {
      "constant": false,
      "inputs": [
        {
          "internalType": "address",
          "name": "settingsAddress",
          "type": "address"
        }
      ],
      "name": "initialize",
      "outputs": [],
      "payable": false,
      "stateMutability": "nonpayable",
      "type": "function"
    }
  ],
  "bytecode": "0x608060405234801561001057600080fd5b506113d6806100206000396000f3fe608060405234801561001057600080fd5b50600436106100b45760003560e01c80638b51f58b116100715780638b51f58b146101545780639d1becc414610174578063b28f5abb14610187578063c4d66de81461019a578063d86d744e146101ad578063e06174e4146101c2576100b4565b8063158ef93e146100b95780633e7b9e81146100d75780635fd8a08a146100ec57806369cce126146100ff57806373f1fcf61461011257806383f9dbcb14610132575b600080fd5b6100c16101ca565b6040516100ce9190610ee1565b60405180910390f35b6100ea6100e5366004610b02565b6101e9565b005b6100ea6100fa366004610aa2565b6102f0565b6100ea61010d366004610b02565b6103ec565b610125610120366004610ae4565b610481565b6040516100ce9190610e44565b610145610140366004610ae4565b610493565b6040516100ce93929190610eb9565b610167610162366004610ae4565b6104c2565b6040516100ce9190610fab565b6100ea610182366004610ae4565b6104d9565b6100c1610195366004610ae4565b6105c6565b6100ea6101a8366004610a84565b6105db565b6101b561065d565b6040516100ce9190610eef565b6101b561066c565b6000806040516101d990610e2e565b6040519081900390205492915050565b6101f161066c565b6001600160a01b031663c095ea27336040518263ffffffff1660e01b815260040161021c9190610e52565b60006040518083038186803b15801561023457600080fd5b505afa158015610248573d6000803e3d6000fd5b505050506102546101ca565b6102795760405162461bcd60e51b815260040161027090610f7b565b60405180910390fd5b60008281526001602052604081208190819061029b908563ffffffff61068e16565b925092509250336001600160a01b0316857f5e6091b93209c5b52c03b04c4a8672b44a6bd0452d7b6a12eea3e53f14674603858786866040516102e19493929190610e60565b60405180910390a35050505050565b6102f861066c565b6001600160a01b031663c095ea27336040518263ffffffff1660e01b81526004016103239190610e52565b60006040518083038186803b15801561033b57600080fd5b505afa15801561034f573d6000803e3d6000fd5b5050505061035b6101ca565b6103775760405162461bcd60e51b815260040161027090610f7b565b806103945760405162461bcd60e51b815260040161027090610f6b565b60005b818110156103e7576103df8383838181106103ae57fe5b905060400201602001358484848181106103c457fe5b6103da9260206040909202019081019150610a84565b61071c565b600101610397565b505050565b6103f461066c565b6001600160a01b031663c095ea27336040518263ffffffff1660e01b815260040161041f9190610e52565b60006040518083038186803b15801561043757600080fd5b505afa15801561044b573d6000803e3d6000fd5b505050506104576101ca565b6104735760405162461bcd60e51b815260040161027090610f7b565b61047d828261071c565b5050565b600061048c826107a8565b5192915050565b60016020819052600091825260409091208054918101546002909101546001600160a01b039092169160ff1683565b6104ca6109f8565b6104d3826107a8565b92915050565b6104e161066c565b6001600160a01b031663c095ea27336040518263ffffffff1660e01b815260040161050c9190610e52565b60006040518083038186803b15801561052457600080fd5b505afa158015610538573d6000803e3d6000fd5b505050506105446101ca565b6105605760405162461bcd60e51b815260040161027090610f7b565b60008181526001602052604081208190610579906107f6565b91509150336001600160a01b0316837febfbe00cdcf3f31ed6d40c8e98e6f5b30ed22bd4732646724f656c8a8fe2c4f284846040516105b9929190610e9e565b60405180910390a3505050565b60006105d1826107a8565b6040015192915050565b6105e36101ca565b156106005760405162461bcd60e51b815260040161027090610f8b565b610608610837565b61061181610855565b60405161061d90610a18565b604051809103906000f080158015610639573d6000803e3d6000fd5b50600080546001600160a01b0319166001600160a01b039290921691909117905550565b6000546001600160a01b031681565b600080600060405161067d90610e39565b604051908190039020549250505090565b600080600061069c856108c5565b84546001600160a01b03858116911614156106c95760405162461bcd60e51b815260040161027090610f9b565b84546001808701546001600160a01b0390921694509092506106f290839063ffffffff6108ee16565b85546001600160a01b0319166001600160a01b039590951694909417855550600190930182905592565b816107395760405162461bcd60e51b815260040161027090610f4b565b6000828152600160205260409020610757908263ffffffff61091a16565b806001600160a01b0316336001600160a01b0316837fabe5ff4a786e7f01b7ae446b6f059c5668e63dea10d4dbddf0226ea4c18480e6600060405161079c9190610efd565b60405180910390a45050565b6107b06109f8565b50600090815260016020818152604092839020835160608101855281546001600160a01b0316815292810154918301919091526002015460ff1615159181019190915290565b600080610802836108c5565b505080546001820180546001600160a01b03198316845560009091556002909201805460ff191690556001600160a01b031691565b600060405161084590610e2e565b6040519081900390206001905550565b61086e61086061066c565b6001600160a01b0316610989565b15610878576108c2565b61088a816001600160a01b0316610997565b6108a65760405162461bcd60e51b815260040161027090610f2b565b60006040516108b490610e39565b604051908190039020829055505b50565b600281015460ff1615156001146108c25760405162461bcd60e51b815260040161027090610f5b565b6000828201838110156109135760405162461bcd60e51b815260040161027090610f0b565b9392505050565b610923826109d3565b610935816001600160a01b0316610997565b6109515760405162461bcd60e51b815260040161027090610f3b565b81546001600160a01b0319166001600160a01b039190911617815560006001808301919091556002909101805460ff19169091179055565b6001600160a01b0316151590565b6000813f7fc5d2460186f7233c927e7db2dcc703c0e500b653ca82273b7bfad8045d85a4708181148015906109cb57508115155b949350505050565b600281015460ff16156108c25760405162461bcd60e51b815260040161027090610f1b565b604080516060810182526000808252602082018190529181019190915290565b6103738061102183390190565b80356104d381611003565b60008083601f840112610a4257600080fd5b50813567ffffffffffffffff811115610a5a57600080fd5b602083019150836040820283011115610a7257600080fd5b9250929050565b80356104d381611017565b600060208284031215610a9657600080fd5b60006109cb8484610a25565b60008060208385031215610ab557600080fd5b823567ffffffffffffffff811115610acc57600080fd5b610ad885828601610a30565b92509250509250929050565b600060208284031215610af657600080fd5b60006109cb8484610a79565b60008060408385031215610b1557600080fd5b6000610b218585610a79565b9250506020610b3285828601610a25565b9150509250929050565b610b4581610fe6565b82525050565b610b4581610fc7565b610b4581610fd2565b610b4581610fed565b610b4581610ff8565b6000610b7c601c83610fc2565b7f54496e697469616c697a61626c652e6973496e697469616c697a6564000000008152601c0192915050565b6000610bb5601b83610fb9565b7f536166654d6174683a206164646974696f6e206f766572666c6f770000000000815260200192915050565b6000610bee601483610fb9565b734c4f4749435f414c52454144595f45584953545360601b815260200192915050565b6000610c1e601b83610fb9565b7f53455454494e47535f4d5553545f42455f415f434f4e54524143540000000000815260200192915050565b6000610c57601683610fb9565b751313d1d250d7d35554d517d09157d0d3d395149050d560521b815260200192915050565b6000610c89601b83610fb9565b7f4c4f4749435f4e414d455f4d5553545f42455f50524f56494445440000000000815260200192915050565b6000610cc2601883610fc2565b7f426173655570677261646561626c652e73657474696e67730000000000000000815260180192915050565b6000610cfb601083610fb9565b6f4c4f4749435f4e4f545f45584953545360801b815260200192915050565b6000610d27601283610fb9565b71524551554553545f4c4953545f454d50545960701b815260200192915050565b6000610d55601883610fb9565b7f434f4e54524143545f4e4f545f494e495449414c495a45440000000000000000815260200192915050565b6000610d8e601c83610fb9565b7f434f4e54524143545f414c52454144595f494e495449414c495a454400000000815260200192915050565b6000610dc7601283610fb9565b71139155d7d313d1d250d7d49154555254915160721b815260200192915050565b80516060830190610df98482610b4b565b506020820151610e0c6020850182610e25565b506040820151610e1f6040850182610b54565b50505050565b610b4581610fd7565b60006104d382610b6f565b60006104d382610cb5565b602081016104d38284610b4b565b602081016104d38284610b3c565b60808101610e6e8287610b4b565b610e7b6020830186610b4b565b610e886040830185610e25565b610e956060830184610e25565b95945050505050565b60408101610eac8285610b4b565b6109136020830184610e25565b60608101610ec78286610b4b565b610ed46020830185610e25565b6109cb6040830184610b54565b602081016104d38284610b54565b602081016104d38284610b5d565b602081016104d38284610b66565b602080825281016104d381610ba8565b602080825281016104d381610be1565b602080825281016104d381610c11565b602080825281016104d381610c4a565b602080825281016104d381610c7c565b602080825281016104d381610cee565b602080825281016104d381610d1a565b602080825281016104d381610d48565b602080825281016104d381610d81565b602080825281016104d381610dba565b606081016104d38284610de8565b90815260200190565b919050565b60006104d382610fda565b151590565b90565b6001600160a01b031690565b60006104d3825b60006104d382610fc7565b60006104d382610fd7565b61100c81610fc7565b81146108c257600080fd5b61100c81610fd756fe608060405234801561001057600080fd5b50610353806100206000396000f3fe608060405234801561001057600080fd5b506004361061010b5760003560e01c8063808002b4116100a2578063a6d1894811610071578063a6d1894814610182578063b67805071461018a578063c2c3329b14610192578063c4f8f96e1461019a578063ecac96a0146101a25761010b565b8063808002b4146101625780638b3a6a621461016a5780638b5f8a5a14610172578063a66cd6401461017a5761010b565b806343d51619116100de57806343d516191461014257806344017a261461014a57806352d009421461015257806368f6c8921461015a5761010b565b80631f690a471461011057806320657f6f1461012a57806324de570b146101325780632660dc7f1461013a575b600080fd5b6101186101aa565b60408051918252519081900360200190f35b6101186101c5565b6101186101d7565b6101186101e9565b610118610205565b610118610218565b61011861022c565b61011861023b565b610118610248565b61011861026c565b61011861027b565b61011861028f565b61011861029d565b6101186102ae565b6101186102c7565b6101186102df565b610118610303565b73546f6b656e436f6c6c61746572616c4c6f616e7360601b81565b6a41544d53657474696e677360a81b81565b6a13195b991a5b99d41bdbdb60aa1b81565b744c6f67696356657273696f6e73526567697374727960581b81565b6b4d61726b657473537461746560a01b81565b6c457363726f77466163746f727960981b81565b672a26292a37b5b2b760c11b81565b65457363726f7760d01b81565b7f436861696e6c696e6b5061697241676772656761746f7252656769737472790081565b6753657474696e677360c01b81565b6c41544d476f7665726e616e636560981b81565b664c656e6465727360c81b81565b6941544d466163746f727960b01b81565b714c6f616e5465726d73436f6e73656e73757360701b81565b70496e746572657374436f6e73656e73757360781b81565b7f436861696e6c696e6b5061697241676772656761746f7200000000000000000081565b734574686572436f6c6c61746572616c4c6f616e7360601b8156fea265627a7a72315820a31cb9645794fd2a525ee987c70e8ed35362245ce0a3380a0c9cd22d2228fcb264736f6c63430005110032a365627a7a72315820a3ccc2ab6617dccacdc2ade0e4ea9d359246be4975295b3ee7c911041b4379c66c6578706572696d656e74616cf564736f6c63430005110040",
  "source": "pragma solidity 0.5.17;\npragma experimental ABIEncoderV2;\n\n// Contracts\nimport \"./BaseUpgradeable.sol\";\nimport \"./TInitializable.sol\";\n\n// Commons\nimport \"../util/LogicVersionLib.sol\";\nimport \"../util/LogicVersionsConsts.sol\";\nimport \"../util/TellerCommon.sol\";\n\n// Interfaces\nimport \"../interfaces/LogicVersionsRegistryInterface.sol\";\n\n/*****************************************************************************************************/\n/**                                             WARNING                                             **/\n/**                                  THIS CONTRACT IS UPGRADEABLE!                                  **/\n/**  ---------------------------------------------------------------------------------------------  **/\n/**  Do NOT change the order of or PREPEND any storage variables to this or new versions of this    **/\n/**  contract as this will cause the the storage slots to be overwritten on the proxy contract!!    **/\n/**                                                                                                 **/\n/**  Visit https://docs.openzeppelin.com/upgrades/2.6/proxies#upgrading-via-the-proxy-pattern for   **/\n/**  more information.                                                                              **/\n/*****************************************************************************************************/\n/**\n    @notice It manages all the logic contract versions, mapping each one to a logic name (or key).\n\n    @author develop@teller.finance\n */\ncontract LogicVersionsRegistry is\n    LogicVersionsRegistryInterface,\n    TInitializable,\n    BaseUpgradeable\n{\n    using LogicVersionLib for LogicVersionLib.LogicVersion;\n\n    /** Constants */\n\n    /* State Variables */\n\n    LogicVersionsConsts public consts;\n\n    /**\n        @notice It represents a mapping to identify a logic name (key) and the current logic address and version.\n\n        i.e.:\n            bytes32(\"EtherCollateralLoans\") => { logic: \"0x123...789\", version: 1 }.\n            bytes32(\"LendingPool\") => { logic: \"0x456...987\", version: 3 }.\n     */\n    mapping(bytes32 => LogicVersionLib.LogicVersion) public logicVersions;\n\n    /** Modifiers */\n\n    /* Constructor */\n\n    /** External Functions */\n\n    /**\n        @notice It creates a new logic version given a logic name and address.\n        @param logicName logic name to create.\n        @param logic the logic address value for the given logic name.\n     */\n    function createLogicVersion(bytes32 logicName, address logic)\n        external\n        onlyPauser()\n        isInitialized()\n    {\n        _createLogicVersion(logicName, logic);\n    }\n\n    /**\n        @notice It creates multiple logic versions.\n        @param newLogicVersions lists of the new logic versions to create.\n     */\n    function createLogicVersions(\n        TellerCommon.LogicVersionRequest[] calldata newLogicVersions\n    ) external onlyPauser() isInitialized() {\n        require(newLogicVersions.length > 0, \"REQUEST_LIST_EMPTY\");\n\n        for (uint256 index; index < newLogicVersions.length; index++) {\n            _createLogicVersion(\n                newLogicVersions[index].logicName,\n                newLogicVersions[index].logic\n            );\n        }\n    }\n\n    /**\n        @notice It update a current logic address given a logic name.\n        @param logicName logic name to update.\n        @param newLogic the new logic address to set.\n     */\n    function updateLogicAddress(bytes32 logicName, address newLogic)\n        external\n        onlyPauser()\n        isInitialized()\n    {\n        (\n            address oldLogic,\n            uint256 oldVersion,\n            uint256 newVersion\n        ) = logicVersions[logicName].update(newLogic);\n\n        emit LogicVersionUpdated(\n            logicName,\n            msg.sender,\n            oldLogic,\n            newLogic,\n            oldVersion,\n            newVersion\n        );\n    }\n\n    /**\n        @notice It removes a current logic version given a logic name.\n        @param logicName logic name to remove.\n     */\n    function removeLogicVersion(bytes32 logicName) external onlyPauser() isInitialized() {\n        (address lastLogic, uint256 lastVersion) = logicVersions[logicName].remove();\n\n        emit LogicVersionRemoved(logicName, msg.sender, lastLogic, lastVersion);\n    }\n\n    /**\n        @notice It gets the current logic version for a given logic name.\n        @param logicName to get.\n        @return the current logic version.\n     */\n    function getLogicVersion(bytes32 logicName)\n        external\n        view\n        returns (LogicVersionLib.LogicVersion memory)\n    {\n        return _getLogicVersion(logicName);\n    }\n\n    /**\n        @notice It gets the current logic address for a given logic name.\n        @param logicName to get.\n        @return the current logic address.\n     */\n    function getLogicVersionAddress(bytes32 logicName) external view returns (address) {\n        return _getLogicVersion(logicName).logic;\n    }\n\n    /**\n        @notice It tests whether a logic name is already configured.\n        @param logicName logic name to test.\n        @return true if the logic version is already configured. Otherwise it returns false.\n     */\n    function hasLogicVersion(bytes32 logicName) external view returns (bool) {\n        return _getLogicVersion(logicName).exists;\n    }\n\n    /**\n        @notice It initializes this logic versions registry contract instance.\n        @param settingsAddress the settings contract address.\n     */\n    function initialize(address settingsAddress) external isNotInitialized() {\n        _initialize();\n\n        _setSettings(settingsAddress);\n        consts = new LogicVersionsConsts();\n    }\n\n    /** Internal functions */\n\n    /**\n        @notice It gets the logic version for a given logic name.\n        @param logicName the logic name to look for.\n        @return the current logic version for the given logic name.\n     */\n    function _getLogicVersion(bytes32 logicName)\n        internal\n        view\n        returns (LogicVersionLib.LogicVersion memory)\n    {\n        return logicVersions[logicName];\n    }\n\n    /**\n        @notice It creates a new logic version given a logic name and address.\n        @param logicName logic name to create.\n        @param logic the logic address value for the given logic name.\n     */\n    function _createLogicVersion(bytes32 logicName, address logic) internal {\n        require(logicName != \"\", \"LOGIC_NAME_MUST_BE_PROVIDED\");\n        logicVersions[logicName].initialize(logic);\n\n        emit LogicVersionCreated(logicName, msg.sender, logic, 0);\n    }\n\n    /** Private functions */\n}\n",
  "sourcePath": "/Users/guillesalazar/Repos/ZeroCollateral/smart-contracts-v1/contracts/base/LogicVersionsRegistry.sol",
  "compiler": {
    "name": "solc",
    "version": "0.5.17+commit.d19bba13.Emscripten.clang"
  },
  "schemaVersion": "3.2.3",
  "updatedAt": "2020-10-12T16:12:27.672Z",
  "networkType": "ethereum",
  "devdoc": {
    "author": "develop@teller.finance",
    "methods": {
      "createLogicVersion(bytes32,address)": {
        "params": {
          "logic": "the logic address value for the given logic name.",
          "logicName": "logic name to create."
        }
      },
      "createLogicVersions((address,bytes32)[])": {
        "params": {
          "newLogicVersions": "lists of the new logic versions to create."
        }
      },
      "getLogicVersion(bytes32)": {
        "params": {
          "logicName": "to get."
        },
        "return": "the current logic version."
      },
      "getLogicVersionAddress(bytes32)": {
        "params": {
          "logicName": "to get."
        },
        "return": "the current logic address."
      },
      "hasLogicVersion(bytes32)": {
        "params": {
          "logicName": "logic name to test."
        },
        "return": "true if the logic version is already configured. Otherwise it returns false."
      },
      "initialize(address)": {
        "params": {
          "settingsAddress": "the settings contract address."
        }
      },
      "initialized()": {
        "return": "true if contract is initialized. Otherwise it returns false."
      },
      "removeLogicVersion(bytes32)": {
        "params": {
          "logicName": "logic name to remove."
        }
      },
      "settings()": {
        "details": "This address should NOT change over the time. See details in the _setSettings(...) function."
      },
      "updateLogicAddress(bytes32,address)": {
        "params": {
          "logicName": "logic name to update.",
          "newLogic": "the new logic address to set."
        }
      }
    }
  },
  "userdoc": {
    "methods": {
      "createLogicVersion(bytes32,address)": {
        "notice": "It creates a new logic version given a logic name and address."
      },
      "createLogicVersions((address,bytes32)[])": {
        "notice": "It creates multiple logic versions."
      },
      "getLogicVersion(bytes32)": {
        "notice": "It gets the current logic version for a given logic name."
      },
      "getLogicVersionAddress(bytes32)": {
        "notice": "It gets the current logic address for a given logic name."
      },
      "hasLogicVersion(bytes32)": {
        "notice": "It tests whether a logic name is already configured."
      },
      "initialize(address)": {
        "notice": "It initializes this logic versions registry contract instance."
      },
      "initialized()": {
        "notice": "Gets if the contract is initialized."
      },
      "removeLogicVersion(bytes32)": {
        "notice": "It removes a current logic version given a logic name."
      },
      "settings()": {
        "notice": "The gets the settings contract address from the SETTINGS_SLOT."
      },
      "updateLogicAddress(bytes32,address)": {
        "notice": "It update a current logic address given a logic name."
      }
    },
    "notice": "It manages all the logic contract versions, mapping each one to a logic name (or key)."
  }
}