{
  "contractName": "LogicVersionsRegistry",
  "abi": [
    {
      "anonymous": false,
      "inputs": [
        {
          "indexed": true,
          "internalType": "bytes32",
          "name": "logicName",
          "type": "bytes32"
        },
        {
          "indexed": true,
          "internalType": "address",
          "name": "sender",
          "type": "address"
        },
        {
          "indexed": true,
          "internalType": "address",
          "name": "logic",
          "type": "address"
        },
        {
          "indexed": false,
          "internalType": "uint256",
          "name": "version",
          "type": "uint256"
        }
      ],
      "name": "LogicVersionCreated",
      "type": "event"
    },
    {
      "anonymous": false,
      "inputs": [
        {
          "indexed": true,
          "internalType": "bytes32",
          "name": "logicName",
          "type": "bytes32"
        },
        {
          "indexed": true,
          "internalType": "address",
          "name": "sender",
          "type": "address"
        },
        {
          "indexed": false,
          "internalType": "address",
          "name": "lastLogic",
          "type": "address"
        },
        {
          "indexed": false,
          "internalType": "uint256",
          "name": "lastVersion",
          "type": "uint256"
        }
      ],
      "name": "LogicVersionRemoved",
      "type": "event"
    },
    {
      "anonymous": false,
      "inputs": [
        {
          "indexed": true,
          "internalType": "bytes32",
          "name": "logicName",
          "type": "bytes32"
        },
        {
          "indexed": true,
          "internalType": "address",
          "name": "sender",
          "type": "address"
        },
        {
          "indexed": false,
          "internalType": "address",
          "name": "oldLogic",
          "type": "address"
        },
        {
          "indexed": false,
          "internalType": "address",
          "name": "newLogic",
          "type": "address"
        },
        {
          "indexed": false,
          "internalType": "uint256",
          "name": "oldVersion",
          "type": "uint256"
        },
        {
          "indexed": false,
          "internalType": "uint256",
          "name": "newVersion",
          "type": "uint256"
        }
      ],
      "name": "LogicVersionUpdated",
      "type": "event"
    },
    {
      "constant": true,
      "inputs": [],
      "name": "consts",
      "outputs": [
        {
          "internalType": "contract LogicVersionsConsts",
          "name": "",
          "type": "address"
        }
      ],
      "payable": false,
      "stateMutability": "view",
      "type": "function"
    },
    {
      "constant": true,
      "inputs": [],
      "name": "initialized",
      "outputs": [
        {
          "internalType": "bool",
          "name": "value",
          "type": "bool"
        }
      ],
      "payable": false,
      "stateMutability": "view",
      "type": "function"
    },
    {
      "constant": true,
      "inputs": [
        {
          "internalType": "bytes32",
          "name": "",
          "type": "bytes32"
        }
      ],
      "name": "logicVersions",
      "outputs": [
        {
          "internalType": "address",
          "name": "logic",
          "type": "address"
        },
        {
          "internalType": "uint256",
          "name": "version",
          "type": "uint256"
        },
        {
          "internalType": "bool",
          "name": "exists",
          "type": "bool"
        }
      ],
      "payable": false,
      "stateMutability": "view",
      "type": "function"
    },
    {
      "constant": true,
      "inputs": [],
      "name": "settings",
      "outputs": [
        {
          "internalType": "contract SettingsInterface",
          "name": "",
          "type": "address"
        }
      ],
      "payable": false,
      "stateMutability": "view",
      "type": "function"
    },
    {
      "constant": false,
      "inputs": [
        {
          "internalType": "bytes32",
          "name": "logicName",
          "type": "bytes32"
        },
        {
          "internalType": "address",
          "name": "logic",
          "type": "address"
        }
      ],
      "name": "createLogicVersion",
      "outputs": [],
      "payable": false,
      "stateMutability": "nonpayable",
      "type": "function"
    },
    {
      "constant": false,
      "inputs": [
        {
          "internalType": "bytes32",
          "name": "logicName",
          "type": "bytes32"
        },
        {
          "internalType": "address",
          "name": "newLogic",
          "type": "address"
        }
      ],
      "name": "updateLogicAddress",
      "outputs": [],
      "payable": false,
      "stateMutability": "nonpayable",
      "type": "function"
    },
    {
      "constant": false,
      "inputs": [
        {
          "internalType": "bytes32",
          "name": "logicName",
          "type": "bytes32"
        }
      ],
      "name": "removeLogicVersion",
      "outputs": [],
      "payable": false,
      "stateMutability": "nonpayable",
      "type": "function"
    },
    {
      "constant": true,
      "inputs": [
        {
          "internalType": "bytes32",
          "name": "logicName",
          "type": "bytes32"
        }
      ],
      "name": "getLogicVersion",
      "outputs": [
        {
          "components": [
            {
              "internalType": "address",
              "name": "logic",
              "type": "address"
            },
            {
              "internalType": "uint256",
              "name": "version",
              "type": "uint256"
            },
            {
              "internalType": "bool",
              "name": "exists",
              "type": "bool"
            }
          ],
          "internalType": "struct LogicVersionLib.LogicVersion",
          "name": "",
          "type": "tuple"
        }
      ],
      "payable": false,
      "stateMutability": "view",
      "type": "function"
    },
    {
      "constant": true,
      "inputs": [
        {
          "internalType": "bytes32",
          "name": "logicName",
          "type": "bytes32"
        }
      ],
      "name": "getLogicVersionAddress",
      "outputs": [
        {
          "internalType": "address",
          "name": "",
          "type": "address"
        }
      ],
      "payable": false,
      "stateMutability": "view",
      "type": "function"
    },
    {
      "constant": true,
      "inputs": [
        {
          "internalType": "bytes32",
          "name": "logicName",
          "type": "bytes32"
        }
      ],
      "name": "hasLogicVersion",
      "outputs": [
        {
          "internalType": "bool",
          "name": "",
          "type": "bool"
        }
      ],
      "payable": false,
      "stateMutability": "view",
      "type": "function"
    },
    {
      "constant": false,
      "inputs": [
        {
          "internalType": "address",
          "name": "settingsAddress",
          "type": "address"
        }
      ],
      "name": "initialize",
      "outputs": [],
      "payable": false,
      "stateMutability": "nonpayable",
      "type": "function"
    }
  ],
  "bytecode": "0x608060405234801561001057600080fd5b506111d1806100206000396000f3fe608060405234801561001057600080fd5b50600436106100a95760003560e01c80638b51f58b116100715780638b51f58b146101365780639d1becc414610156578063b28f5abb14610169578063c4d66de81461017c578063d86d744e1461018f578063e06174e4146101a4576100a9565b8063158ef93e146100ae5780633e7b9e81146100cc57806369cce126146100e157806373f1fcf6146100f457806383f9dbcb14610114575b600080fd5b6100b66101ac565b6040516100c39190610cec565b60405180910390f35b6100df6100da36600461093b565b6101cb565b005b6100df6100ef36600461093b565b6102d2565b61010761010236600461091d565b6103e5565b6040516100c39190610c4f565b61012761012236600461091d565b6103f7565b6040516100c393929190610cc4565b61014961014436600461091d565b610426565b6040516100c39190610da6565b6100df61016436600461091d565b61043d565b6100b661017736600461091d565b61052a565b6100df61018a3660046108ff565b61053f565b6101976105c1565b6040516100c39190610cfa565b6101976105d0565b6000806040516101bb90610c39565b6040519081900390205492915050565b6101d36105d0565b6001600160a01b031663c095ea27336040518263ffffffff1660e01b81526004016101fe9190610c5d565b60006040518083038186803b15801561021657600080fd5b505afa15801561022a573d6000803e3d6000fd5b505050506102366101ac565b61025b5760405162461bcd60e51b815260040161025290610d76565b60405180910390fd5b60008281526001602052604081208190819061027d908563ffffffff6105f216565b925092509250336001600160a01b0316857f5e6091b93209c5b52c03b04c4a8672b44a6bd0452d7b6a12eea3e53f14674603858786866040516102c39493929190610c6b565b60405180910390a35050505050565b6102da6105d0565b6001600160a01b031663c095ea27336040518263ffffffff1660e01b81526004016103059190610c5d565b60006040518083038186803b15801561031d57600080fd5b505afa158015610331573d6000803e3d6000fd5b5050505061033d6101ac565b6103595760405162461bcd60e51b815260040161025290610d76565b816103765760405162461bcd60e51b815260040161025290610d56565b6000828152600160205260409020610394908263ffffffff61068016565b806001600160a01b0316336001600160a01b0316837fabe5ff4a786e7f01b7ae446b6f059c5668e63dea10d4dbddf0226ea4c18480e660006040516103d99190610d08565b60405180910390a45050565b60006103f0826106ef565b5192915050565b60016020819052600091825260409091208054918101546002909101546001600160a01b039092169160ff1683565b61042e6108bc565b610437826106ef565b92915050565b6104456105d0565b6001600160a01b031663c095ea27336040518263ffffffff1660e01b81526004016104709190610c5d565b60006040518083038186803b15801561048857600080fd5b505afa15801561049c573d6000803e3d6000fd5b505050506104a86101ac565b6104c45760405162461bcd60e51b815260040161025290610d76565b600081815260016020526040812081906104dd9061073d565b91509150336001600160a01b0316837febfbe00cdcf3f31ed6d40c8e98e6f5b30ed22bd4732646724f656c8a8fe2c4f2848460405161051d929190610ca9565b60405180910390a3505050565b6000610535826106ef565b6040015192915050565b6105476101ac565b156105645760405162461bcd60e51b815260040161025290610d86565b61056c61077e565b6105758161079c565b604051610581906108dc565b604051809103906000f08015801561059d573d6000803e3d6000fd5b50600080546001600160a01b0319166001600160a01b039290921691909117905550565b6000546001600160a01b031681565b60008060006040516105e190610c44565b604051908190039020549250505090565b600080600061060085610806565b84546001600160a01b038581169116141561062d5760405162461bcd60e51b815260040161025290610d96565b84546001808701546001600160a01b03909216945090925061065690839063ffffffff61082f16565b85546001600160a01b0319166001600160a01b039590951694909417855550600190930182905592565b6106898261085b565b61069b816001600160a01b0316610880565b6106b75760405162461bcd60e51b815260040161025290610d46565b81546001600160a01b0319166001600160a01b039190911617815560006001808301919091556002909101805460ff19169091179055565b6106f76108bc565b50600090815260016020818152604092839020835160608101855281546001600160a01b0316815292810154918301919091526002015460ff1615159181019190915290565b60008061074983610806565b505080546001820180546001600160a01b03198316845560009091556002909201805460ff191690556001600160a01b031691565b600060405161078c90610c39565b6040519081900390206001905550565b60006107a66105d0565b6001600160a01b0316146107e7576107c6816001600160a01b0316610880565b6107e25760405162461bcd60e51b815260040161025290610d36565b610803565b60006040516107f590610c44565b604051908190039020829055505b50565b600281015460ff1615156001146108035760405162461bcd60e51b815260040161025290610d66565b6000828201838110156108545760405162461bcd60e51b815260040161025290610d16565b9392505050565b600281015460ff16156108035760405162461bcd60e51b815260040161025290610d26565b6000813f7fc5d2460186f7233c927e7db2dcc703c0e500b653ca82273b7bfad8045d85a4708181148015906108b457508115155b949350505050565b604080516060810182526000808252602082018190529181019190915290565b61037380610e1c83390190565b803561043781610dfe565b803561043781610e12565b60006020828403121561091157600080fd5b60006108b484846108e9565b60006020828403121561092f57600080fd5b60006108b484846108f4565b6000806040838503121561094e57600080fd5b600061095a85856108f4565b925050602061096b858286016108e9565b9150509250929050565b61097e81610de1565b82525050565b61097e81610dc2565b61097e81610dcd565b61097e81610de8565b61097e81610df3565b60006109b5601c83610dbd565b7f54496e697469616c697a61626c652e6973496e697469616c697a6564000000008152601c0192915050565b60006109ee601b83610db4565b7f536166654d6174683a206164646974696f6e206f766572666c6f770000000000815260200192915050565b6000610a27601483610db4565b734c4f4749435f414c52454144595f45584953545360601b815260200192915050565b6000610a57601b83610db4565b7f53455454494e47535f4d5553545f42455f415f434f4e54524143540000000000815260200192915050565b6000610a90601683610db4565b751313d1d250d7d35554d517d09157d0d3d395149050d560521b815260200192915050565b6000610ac2601b83610db4565b7f4c4f4749435f4e414d455f4d5553545f42455f50524f56494445440000000000815260200192915050565b6000610afb601883610dbd565b7f426173655570677261646561626c652e73657474696e67730000000000000000815260180192915050565b6000610b34601083610db4565b6f4c4f4749435f4e4f545f45584953545360801b815260200192915050565b6000610b60601883610db4565b7f434f4e54524143545f4e4f545f494e495449414c495a45440000000000000000815260200192915050565b6000610b99601c83610db4565b7f434f4e54524143545f414c52454144595f494e495449414c495a454400000000815260200192915050565b6000610bd2601283610db4565b71139155d7d313d1d250d7d49154555254915160721b815260200192915050565b80516060830190610c048482610984565b506020820151610c176020850182610c30565b506040820151610c2a604085018261098d565b50505050565b61097e81610dd2565b6000610437826109a8565b600061043782610aee565b602081016104378284610984565b602081016104378284610975565b60808101610c798287610984565b610c866020830186610984565b610c936040830185610c30565b610ca06060830184610c30565b95945050505050565b60408101610cb78285610984565b6108546020830184610c30565b60608101610cd28286610984565b610cdf6020830185610c30565b6108b4604083018461098d565b60208101610437828461098d565b602081016104378284610996565b60208101610437828461099f565b60208082528101610437816109e1565b6020808252810161043781610a1a565b6020808252810161043781610a4a565b6020808252810161043781610a83565b6020808252810161043781610ab5565b6020808252810161043781610b27565b6020808252810161043781610b53565b6020808252810161043781610b8c565b6020808252810161043781610bc5565b606081016104378284610bf3565b90815260200190565b919050565b600061043782610dd5565b151590565b90565b6001600160a01b031690565b6000610437825b600061043782610dc2565b600061043782610dd2565b610e0781610dc2565b811461080357600080fd5b610e0781610dd256fe608060405234801561001057600080fd5b50610353806100206000396000f3fe608060405234801561001057600080fd5b506004361061010b5760003560e01c8063808002b4116100a2578063a6d1894811610071578063a6d1894814610182578063b67805071461018a578063c2c3329b14610192578063c4f8f96e1461019a578063ecac96a0146101a25761010b565b8063808002b4146101625780638b3a6a621461016a5780638b5f8a5a14610172578063a66cd6401461017a5761010b565b806343d51619116100de57806343d516191461014257806344017a261461014a57806352d009421461015257806368f6c8921461015a5761010b565b80631f690a471461011057806320657f6f1461012a57806324de570b146101325780632660dc7f1461013a575b600080fd5b6101186101aa565b60408051918252519081900360200190f35b6101186101c5565b6101186101d7565b6101186101e9565b610118610205565b610118610218565b61011861022c565b61011861023b565b610118610248565b61011861026c565b61011861027b565b61011861028f565b61011861029d565b6101186102ae565b6101186102c7565b6101186102df565b610118610303565b73546f6b656e436f6c6c61746572616c4c6f616e7360601b81565b6a41544d53657474696e677360a81b81565b6a13195b991a5b99d41bdbdb60aa1b81565b744c6f67696356657273696f6e73526567697374727960581b81565b6b4d61726b657473537461746560a01b81565b6c457363726f77466163746f727960981b81565b672a26292a37b5b2b760c11b81565b65457363726f7760d01b81565b7f436861696e6c696e6b5061697241676772656761746f7252656769737472790081565b6753657474696e677360c01b81565b6c41544d476f7665726e616e636560981b81565b664c656e6465727360c81b81565b6941544d466163746f727960b01b81565b714c6f616e5465726d73436f6e73656e73757360701b81565b70496e746572657374436f6e73656e73757360781b81565b7f436861696e6c696e6b5061697241676772656761746f7200000000000000000081565b734574686572436f6c6c61746572616c4c6f616e7360601b8156fea265627a7a72315820de6ca99cf648076c443c497a2b1a445c03f552753bd99b24b99a8115c654d9de64736f6c63430005110032a365627a7a72315820080e70af0f14cbf8e982fcf3bc711c8dad3a48d110cba6f253c746ee28d9b83c6c6578706572696d656e74616cf564736f6c63430005110040",
  "source": "pragma solidity 0.5.17;\npragma experimental ABIEncoderV2;\n\n// Contracts\nimport \"./BaseUpgradeable.sol\";\nimport \"./TInitializable.sol\";\n\n// Commons\nimport \"../util/LogicVersionLib.sol\";\nimport \"../util/LogicVersionsConsts.sol\";\n\n// Interfaces\nimport \"../interfaces/LogicVersionsRegistryInterface.sol\";\n\n/*****************************************************************************************************/\n/**                                             WARNING                                             **/\n/**                                  THIS CONTRACT IS UPGRADEABLE!                                  **/\n/**  ---------------------------------------------------------------------------------------------  **/\n/**  Do NOT change the order of or PREPEND any storage variables to this or new versions of this    **/\n/**  contract as this will cause the the storage slots to be overwritten on the proxy contract!!    **/\n/**                                                                                                 **/\n/**  Visit https://docs.openzeppelin.com/upgrades/2.6/proxies#upgrading-via-the-proxy-pattern for   **/\n/**  more information.                                                                              **/\n/*****************************************************************************************************/\n/**\n    @notice It manages all the logic contract versions, mapping each one to a logic name (or key).\n\n    @author develop@teller.finance\n */\ncontract LogicVersionsRegistry is\n    LogicVersionsRegistryInterface,\n    TInitializable,\n    BaseUpgradeable\n{\n    using LogicVersionLib for LogicVersionLib.LogicVersion;\n\n    /** Constants */\n\n    /* State Variables */\n\n    LogicVersionsConsts public consts;\n\n    /**\n        @notice It represents a mapping to identify a logic name (key) and the current logic address and version.\n\n        i.e.:\n            bytes32(\"EtherCollateralLoans\") => { logic: \"0x123...789\", version: 1 }.\n            bytes32(\"LendingPool\") => { logic: \"0x456...987\", version: 3 }.\n     */\n    mapping(bytes32 => LogicVersionLib.LogicVersion) public logicVersions;\n\n    /** Modifiers */\n\n    /* Constructor */\n\n    /** External Functions */\n\n    /**\n        @notice It creates a new logic version given a logic name and address.\n        @param logicName logic name to create.\n        @param logic the logic address value for the given logic name.\n     */\n    function createLogicVersion(bytes32 logicName, address logic)\n        external\n        onlyPauser()\n        isInitialized()\n    {\n        require(logicName != \"\", \"LOGIC_NAME_MUST_BE_PROVIDED\");\n        logicVersions[logicName].initialize(logic);\n\n        emit LogicVersionCreated(logicName, msg.sender, logic, 0);\n    }\n\n    /**\n        @notice It update a current logic address given a logic name.\n        @param logicName logic name to update.\n        @param newLogic the new logic address to set.\n     */\n    function updateLogicAddress(bytes32 logicName, address newLogic)\n        external\n        onlyPauser()\n        isInitialized()\n    {\n        (\n            address oldLogic,\n            uint256 oldVersion,\n            uint256 newVersion\n        ) = logicVersions[logicName].update(newLogic);\n\n        emit LogicVersionUpdated(\n            logicName,\n            msg.sender,\n            oldLogic,\n            newLogic,\n            oldVersion,\n            newVersion\n        );\n    }\n\n    /**\n        @notice It removes a current logic version given a logic name.\n        @param logicName logic name to remove.\n     */\n    function removeLogicVersion(bytes32 logicName) external onlyPauser() isInitialized() {\n        (address lastLogic, uint256 lastVersion) = logicVersions[logicName].remove();\n\n        emit LogicVersionRemoved(logicName, msg.sender, lastLogic, lastVersion);\n    }\n\n    /**\n        @notice It gets the current logic version for a given logic name.\n        @param logicName to get.\n        @return the current logic version.\n     */\n    function getLogicVersion(bytes32 logicName)\n        external\n        view\n        returns (LogicVersionLib.LogicVersion memory)\n    {\n        return _getLogicVersion(logicName);\n    }\n\n    /**\n        @notice It gets the current logic address for a given logic name.\n        @param logicName to get.\n        @return the current logic address.\n     */\n    function getLogicVersionAddress(bytes32 logicName) external view returns (address) {\n        return _getLogicVersion(logicName).logic;\n    }\n\n    /**\n        @notice It tests whether a logic name is already configured.\n        @param logicName logic name to test.\n        @return true if the logic version is already configured. Otherwise it returns false.\n     */\n    function hasLogicVersion(bytes32 logicName) external view returns (bool) {\n        return _getLogicVersion(logicName).exists;\n    }\n\n    /**\n        @notice It initializes this logic versions registry contract instance.\n        @param settingsAddress the settings contract address.\n     */\n    function initialize(address settingsAddress) external isNotInitialized() {\n        _initialize();\n\n        _setSettings(settingsAddress);\n        consts = new LogicVersionsConsts();\n    }\n\n    /** Internal functions */\n\n    /**\n        @notice It gets the logic version for a given logic name.\n        @param logicName the logic name to look for.\n        @return the current logic version for the given logic name.\n     */\n    function _getLogicVersion(bytes32 logicName)\n        internal\n        view\n        returns (LogicVersionLib.LogicVersion memory)\n    {\n        return logicVersions[logicName];\n    }\n\n    /** Private functions */\n}\n",
  "sourcePath": "/Users/sy/Documents/GitHub/teller-protocol-v1/contracts/base/LogicVersionsRegistry.sol",
  "compiler": {
    "name": "solc",
    "version": "0.5.17+commit.d19bba13.Emscripten.clang"
  },
  "schemaVersion": "3.0.23",
  "updatedAt": "2020-09-06T02:15:12.291Z",
  "devdoc": {
    "author": "develop@teller.finance",
    "methods": {
      "createLogicVersion(bytes32,address)": {
        "params": {
          "logic": "the logic address value for the given logic name.",
          "logicName": "logic name to create."
        }
      },
      "getLogicVersion(bytes32)": {
        "params": {
          "logicName": "to get."
        },
        "return": "the current logic version."
      },
      "getLogicVersionAddress(bytes32)": {
        "params": {
          "logicName": "to get."
        },
        "return": "the current logic address."
      },
      "hasLogicVersion(bytes32)": {
        "params": {
          "logicName": "logic name to test."
        },
        "return": "true if the logic version is already configured. Otherwise it returns false."
      },
      "initialize(address)": {
        "params": {
          "settingsAddress": "the settings contract address."
        }
      },
      "initialized()": {
        "return": "true if contract is initialized. Otherwise it returns false."
      },
      "removeLogicVersion(bytes32)": {
        "params": {
          "logicName": "logic name to remove."
        }
      },
      "updateLogicAddress(bytes32,address)": {
        "params": {
          "logicName": "logic name to update.",
          "newLogic": "the new logic address to set."
        }
      }
    }
  },
  "userdoc": {
    "methods": {
      "createLogicVersion(bytes32,address)": {
        "notice": "It creates a new logic version given a logic name and address."
      },
      "getLogicVersion(bytes32)": {
        "notice": "It gets the current logic version for a given logic name."
      },
      "getLogicVersionAddress(bytes32)": {
        "notice": "It gets the current logic address for a given logic name."
      },
      "hasLogicVersion(bytes32)": {
        "notice": "It tests whether a logic name is already configured."
      },
      "initialize(address)": {
        "notice": "It initializes this logic versions registry contract instance."
      },
      "initialized()": {
        "notice": "Gets if the contract is initialized."
      },
      "removeLogicVersion(bytes32)": {
        "notice": "It removes a current logic version given a logic name."
      },
      "settings()": {
        "notice": "The settings contract."
      },
      "updateLogicAddress(bytes32,address)": {
        "notice": "It update a current logic address given a logic name."
      }
    },
    "notice": "It manages all the logic contract versions, mapping each one to a logic name (or key)."
  }
}