{
  "contractName": "MarketFactory",
  "abi": [
    {
      "anonymous": false,
      "inputs": [
        {
          "indexed": true,
          "internalType": "address",
          "name": "sender",
          "type": "address"
        },
        {
          "indexed": true,
          "internalType": "address",
          "name": "borrowedToken",
          "type": "address"
        },
        {
          "indexed": true,
          "internalType": "address",
          "name": "collateralToken",
          "type": "address"
        }
      ],
      "name": "MarketRemoved",
      "type": "event"
    },
    {
      "anonymous": false,
      "inputs": [
        {
          "indexed": true,
          "internalType": "address",
          "name": "sender",
          "type": "address"
        },
        {
          "indexed": true,
          "internalType": "address",
          "name": "borrowedToken",
          "type": "address"
        },
        {
          "indexed": true,
          "internalType": "address",
          "name": "collateralToken",
          "type": "address"
        },
        {
          "indexed": false,
          "internalType": "address",
          "name": "loans",
          "type": "address"
        },
        {
          "indexed": false,
          "internalType": "address",
          "name": "lenders",
          "type": "address"
        },
        {
          "indexed": false,
          "internalType": "address",
          "name": "lendingPool",
          "type": "address"
        },
        {
          "indexed": false,
          "internalType": "address",
          "name": "loanTermsConsensus",
          "type": "address"
        },
        {
          "indexed": false,
          "internalType": "address",
          "name": "interestConsensus",
          "type": "address"
        },
        {
          "indexed": false,
          "internalType": "address",
          "name": "pairAggregator",
          "type": "address"
        }
      ],
      "name": "NewMarketCreated",
      "type": "event"
    },
    {
      "constant": true,
      "inputs": [],
      "name": "initialized",
      "outputs": [
        {
          "internalType": "bool",
          "name": "value",
          "type": "bool"
        }
      ],
      "payable": false,
      "stateMutability": "view",
      "type": "function"
    },
    {
      "constant": true,
      "inputs": [],
      "name": "settings",
      "outputs": [
        {
          "internalType": "contract SettingsInterface",
          "name": "",
          "type": "address"
        }
      ],
      "payable": false,
      "stateMutability": "view",
      "type": "function"
    },
    {
      "constant": false,
      "inputs": [
        {
          "internalType": "address",
          "name": "tToken",
          "type": "address"
        },
        {
          "internalType": "address",
          "name": "borrowedToken",
          "type": "address"
        },
        {
          "internalType": "address",
          "name": "collateralToken",
          "type": "address"
        }
      ],
      "name": "createMarket",
      "outputs": [],
      "payable": false,
      "stateMutability": "nonpayable",
      "type": "function"
    },
    {
      "constant": false,
      "inputs": [
        {
          "internalType": "address",
          "name": "borrowedToken",
          "type": "address"
        },
        {
          "internalType": "address",
          "name": "collateralToken",
          "type": "address"
        }
      ],
      "name": "removeMarket",
      "outputs": [],
      "payable": false,
      "stateMutability": "nonpayable",
      "type": "function"
    },
    {
      "constant": true,
      "inputs": [
        {
          "internalType": "address",
          "name": "borrowedToken",
          "type": "address"
        },
        {
          "internalType": "address",
          "name": "collateralToken",
          "type": "address"
        }
      ],
      "name": "getMarket",
      "outputs": [
        {
          "components": [
            {
              "internalType": "address",
              "name": "loans",
              "type": "address"
            },
            {
              "internalType": "address",
              "name": "lenders",
              "type": "address"
            },
            {
              "internalType": "address",
              "name": "lendingPool",
              "type": "address"
            },
            {
              "internalType": "address",
              "name": "loanTermsConsensus",
              "type": "address"
            },
            {
              "internalType": "address",
              "name": "interestConsensus",
              "type": "address"
            },
            {
              "internalType": "address",
              "name": "pairAggregator",
              "type": "address"
            },
            {
              "internalType": "bool",
              "name": "exists",
              "type": "bool"
            }
          ],
          "internalType": "struct TellerCommon.Market",
          "name": "",
          "type": "tuple"
        }
      ],
      "payable": false,
      "stateMutability": "view",
      "type": "function"
    },
    {
      "constant": true,
      "inputs": [
        {
          "internalType": "address",
          "name": "borrowedToken",
          "type": "address"
        },
        {
          "internalType": "address",
          "name": "collateralToken",
          "type": "address"
        }
      ],
      "name": "existMarket",
      "outputs": [
        {
          "internalType": "bool",
          "name": "",
          "type": "bool"
        }
      ],
      "payable": false,
      "stateMutability": "view",
      "type": "function"
    },
    {
      "constant": true,
      "inputs": [
        {
          "internalType": "address",
          "name": "borrowedToken",
          "type": "address"
        },
        {
          "internalType": "address",
          "name": "collateralToken",
          "type": "address"
        }
      ],
      "name": "notExistMarket",
      "outputs": [
        {
          "internalType": "bool",
          "name": "",
          "type": "bool"
        }
      ],
      "payable": false,
      "stateMutability": "view",
      "type": "function"
    },
    {
      "constant": false,
      "inputs": [
        {
          "internalType": "address",
          "name": "settingsAddress",
          "type": "address"
        }
      ],
      "name": "initialize",
      "outputs": [],
      "payable": false,
      "stateMutability": "nonpayable",
      "type": "function"
    }
  ],
  "bytecode": "0x608060405234801561001057600080fd5b50612690806100206000396000f3fe60806040523480156200001157600080fd5b5060043610620000945760003560e01c8063a8e776d91162000063578063a8e776d91462000111578063b8f128911462000128578063c4d66de8146200013f578063e06174e414620001565762000094565b8063158ef93e1462000099578063211bb00d14620000bb578063714af34b14620000d25780637416ce6014620000f8575b600080fd5b620000a36200016f565b604051620000b2919062001e4b565b60405180910390f35b620000a3620000cc36600462001815565b62000190565b620000e9620000e336600462001815565b620001ab565b604051620000b2919062001f1f565b6200010f6200010936600462001854565b620001c8565b005b620000a36200012236600462001815565b620004e3565b6200010f6200013936600462001815565b620004fd565b6200010f62000150366004620017d3565b620006fb565b6200016062000770565b604051620000b2919062001e5b565b600080604051620001809062001ca3565b6040519081900390205492915050565b60006200019e838362000794565b60c0015190505b92915050565b620001b5620016fa565b620001c1838362000794565b9392505050565b620001d262000770565b6001600160a01b031663c095ea27336040518263ffffffff1660e01b8152600401620001ff919062001ccd565b60006040518083038186803b1580156200021857600080fd5b505afa1580156200022d573d6000803e3d6000fd5b505050506200023b62000770565b6001600160a01b031663b187bd266040518163ffffffff1660e01b815260040160206040518083038186803b1580156200027457600080fd5b505afa15801562000289573d6000803e3d6000fd5b505050506040513d601f19601f82011682018060405250620002af9190810190620018a8565b15620002d85760405162461bcd60e51b8152600401620002cf9062001ea1565b60405180910390fd5b620002e26200016f565b620003015760405162461bcd60e51b8152600401620002cf9062001ee9565b6200030e8383836200082a565b3360006200031b62000770565b6001600160a01b03166302d58da76040518163ffffffff1660e01b815260040160206040518083038186803b1580156200035457600080fd5b505afa15801562000369573d6000803e3d6000fd5b505050506040513d601f19601f820116820180604052506200038f9190810190620018ea565b90506000816001600160a01b031663c495931786866040518363ffffffff1660e01b8152600401620003c392919062001cdd565b60206040518083038186803b158015620003dc57600080fd5b505afa158015620003f1573d6000803e3d6000fd5b505050506040513d601f19601f82011682018060405250620004179190810190620018ea565b90506001600160a01b038116620004425760405162461bcd60e51b8152600401620002cf9062001e8f565b600080600080600062000459888c8c8c8a62000995565b94509450945094509450620004758a8a838689878a8d620009d5565b886001600160a01b03168a6001600160a01b0316896001600160a01b03167f83664b07cb899c90ae6179a9664ce3105f948b71cb3e163ad2b7ca0ef78a47fd84878a888b8e604051620004ce9695949392919062001dc6565b60405180910390a45050505050505050505050565b6000620004f1838362000794565b60c00151159392505050565b6200050762000770565b6001600160a01b031663c095ea27336040518263ffffffff1660e01b815260040162000534919062001ccd565b60006040518083038186803b1580156200054d57600080fd5b505afa15801562000562573d6000803e3d6000fd5b505050506200057062000770565b6001600160a01b031663b187bd266040518163ffffffff1660e01b815260040160206040518083038186803b158015620005a957600080fd5b505afa158015620005be573d6000803e3d6000fd5b505050506040513d601f19601f82011682018060405250620005e49190810190620018a8565b15620006045760405162461bcd60e51b8152600401620002cf9062001ea1565b6200060e6200016f565b6200062d5760405162461bcd60e51b8152600401620002cf9062001ee9565b81816200063b828262000794565b60c001516200065e5760405162461bcd60e51b8152600401620002cf9062001f0d565b6001600160a01b038085166000818152602081815260408083209488168084529490915280822080546001600160a01b03199081168255600182018054821690556002820180548216905560038201805482169055600482018054909116905560050180546001600160a81b03191690555133917fd705cf52118eeb19a465c420a4f2ce37439f45f1777f5c0f2ccd8d472eb87a6891a450505050565b620007056200016f565b15620007255760405162461bcd60e51b8152600401620002cf9062001efb565b62000739816001600160a01b031662000ad1565b620007585760405162461bcd60e51b8152600401620002cf9062001e7d565b6200076262000b0e565b6200076d8162000b2e565b50565b6000806000604051620007839062001cb0565b604051908190039020549250505090565b6200079e620016fa565b506001600160a01b03918216600090815260208181526040808320938516835292815290829020825160e0810184528154851681526001820154851692810192909252600281015484169282019290925260038201548316606082015260048201548316608082015260059091015491821660a0820152600160a01b90910460ff16151560c082015290565b818162000838828262000794565b60c00151156200085c5760405162461bcd60e51b8152600401620002cf9062001e6b565b62000870856001600160a01b031662000ad1565b6200088f5760405162461bcd60e51b8152600401620002cf9062001eb3565b620008a3846001600160a01b031662000ad1565b620008c25760405162461bcd60e51b8152600401620002cf9062001ec5565b620008cc62000770565b6001600160a01b031663a734f06e6040518163ffffffff1660e01b815260040160206040518083038186803b1580156200090557600080fd5b505afa1580156200091a573d6000803e3d6000fd5b505050506040513d601f19601f82011682018060405250620009409190810190620017f4565b6001600160a01b0316836001600160a01b031614806200096f57506200096f836001600160a01b031662000ad1565b6200098e5760405162461bcd60e51b8152600401620002cf9062001ed7565b5050505050565b6000806000806000620009a88762000baa565b939850919650945092509050620009c88a8a8a8a8a8a8a8a8a8a620013cd565b9550955095509550959050565b6040805160e0810182526001600160a01b0397881681529587166020808801918252958816878301908152948816606088019081529388166080880190815292881660a08801908152600160c089018181529b8a1660009081528089528481209b8b1681529a90975291909820955186546001600160a01b03199081169189169190911787559751948601805489169588169590951790945591516002850180548816918716919091179055516003840180548716918616919091179055516004830180548616918516919091179055516005909101805494519490931691161760ff60a01b1916600160a01b92151592909202919091179055565b6000813f7fc5d2460186f7233c927e7db2dcc703c0e500b653ca82273b7bfad8045d85a47081811480159062000b0657508115155b949350505050565b600060405162000b1e9062001ca3565b6040519081900390206001905550565b62000b4b62000b3c62000770565b6001600160a01b0316620016a0565b1562000b57576200076d565b62000b6b816001600160a01b031662000ad1565b62000b8a5760405162461bcd60e51b8152600401620002cf9062001e7d565b600060405162000b9a9062001cb0565b6040519081900390208290555050565b600080600080600062000d2462000bc062000770565b6001600160a01b031663ea23cb7c6040518163ffffffff1660e01b815260040160206040518083038186803b15801562000bf957600080fd5b505afa15801562000c0e573d6000803e3d6000fd5b505050506040513d601f19601f8201168201806040525062000c349190810190620018ea565b6001600160a01b031663d86d744e6040518163ffffffff1660e01b8152600401602060405180830381600087803b15801562000c6f57600080fd5b505af115801562000c84573d6000803e3d6000fd5b505050506040513d601f19601f8201168201806040525062000caa9190810190620018ea565b6001600160a01b03166324de570b6040518163ffffffff1660e01b815260040160206040518083038186803b15801562000ce357600080fd5b505afa15801562000cf8573d6000803e3d6000fd5b505050506040513d601f19601f8201168201806040525062000d1e9190810190620018c9565b620016ae565b945062000e5762000d3462000770565b6001600160a01b031663ea23cb7c6040518163ffffffff1660e01b815260040160206040518083038186803b15801562000d6d57600080fd5b505afa15801562000d82573d6000803e3d6000fd5b505050506040513d601f19601f8201168201806040525062000da89190810190620018ea565b6001600160a01b031663d86d744e6040518163ffffffff1660e01b8152600401602060405180830381600087803b15801562000de357600080fd5b505af115801562000df8573d6000803e3d6000fd5b505050506040513d601f19601f8201168201806040525062000e1e9190810190620018ea565b6001600160a01b031663c2c3329b6040518163ffffffff1660e01b815260040160206040518083038186803b15801562000ce357600080fd5b935062000f8a62000e6762000770565b6001600160a01b031663ea23cb7c6040518163ffffffff1660e01b815260040160206040518083038186803b15801562000ea057600080fd5b505afa15801562000eb5573d6000803e3d6000fd5b505050506040513d601f19601f8201168201806040525062000edb9190810190620018ea565b6001600160a01b031663d86d744e6040518163ffffffff1660e01b8152600401602060405180830381600087803b15801562000f1657600080fd5b505af115801562000f2b573d6000803e3d6000fd5b505050506040513d601f19601f8201168201806040525062000f519190810190620018ea565b6001600160a01b031663a66cd6406040518163ffffffff1660e01b815260040160206040518083038186803b15801562000ce357600080fd5b9250620010bd62000f9a62000770565b6001600160a01b031663ea23cb7c6040518163ffffffff1660e01b815260040160206040518083038186803b15801562000fd357600080fd5b505afa15801562000fe8573d6000803e3d6000fd5b505050506040513d601f19601f820116820180604052506200100e9190810190620018ea565b6001600160a01b031663d86d744e6040518163ffffffff1660e01b8152600401602060405180830381600087803b1580156200104957600080fd5b505af11580156200105e573d6000803e3d6000fd5b505050506040513d601f19601f82011682018060405250620010849190810190620018ea565b6001600160a01b031663b67805076040518163ffffffff1660e01b815260040160206040518083038186803b15801562000ce357600080fd5b9150620010c962000770565b6001600160a01b031663a734f06e6040518163ffffffff1660e01b815260040160206040518083038186803b1580156200110257600080fd5b505afa15801562001117573d6000803e3d6000fd5b505050506040513d601f19601f820116820180604052506200113d9190810190620017f4565b6001600160a01b0316866001600160a01b031614156200129057620012886200116562000770565b6001600160a01b031663ea23cb7c6040518163ffffffff1660e01b815260040160206040518083038186803b1580156200119e57600080fd5b505afa158015620011b3573d6000803e3d6000fd5b505050506040513d601f19601f82011682018060405250620011d99190810190620018ea565b6001600160a01b031663d86d744e6040518163ffffffff1660e01b8152600401602060405180830381600087803b1580156200121457600080fd5b505af115801562001229573d6000803e3d6000fd5b505050506040513d601f19601f820116820180604052506200124f9190810190620018ea565b6001600160a01b031663ecac96a06040518163ffffffff1660e01b815260040160206040518083038186803b15801562000ce357600080fd5b9050620013c4565b620013c16200129e62000770565b6001600160a01b031663ea23cb7c6040518163ffffffff1660e01b815260040160206040518083038186803b158015620012d757600080fd5b505afa158015620012ec573d6000803e3d6000fd5b505050506040513d601f19601f82011682018060405250620013129190810190620018ea565b6001600160a01b031663d86d744e6040518163ffffffff1660e01b8152600401602060405180830381600087803b1580156200134d57600080fd5b505af115801562001362573d6000803e3d6000fd5b505050506040513d601f19601f82011682018060405250620013889190810190620018ea565b6001600160a01b0316631f690a476040518163ffffffff1660e01b815260040160206040518083038186803b15801562000ce357600080fd5b90505b91939590929450565b6000620013d962000770565b6001600160a01b0316634c7b09728a6040518263ffffffff1660e01b815260040162001406919062001cbd565b604080518083038186803b1580156200141e57600080fd5b505afa15801562001433573d6000803e3d6000fd5b505050506040513d601f19601f820116820180604052506200145991908101906200190b565b5190506001600160a01b03861663cc2a9a5b8b8b8786866200147a62000770565b6040518763ffffffff1660e01b81526004016200149d9695949392919062001dc6565b600060405180830381600087803b158015620014b857600080fd5b505af1158015620014cd573d6000803e3d6000fd5b50505050846001600160a01b031663c0c53b8b8c86620014ec62000770565b6040518463ffffffff1660e01b81526004016200150c9392919062001cfc565b600060405180830381600087803b1580156200152757600080fd5b505af11580156200153c573d6000803e3d6000fd5b50505050836001600160a01b031663f8c8765e8b88886200155c62000770565b6040518563ffffffff1660e01b81526004016200157d949392919062001d2a565b600060405180830381600087803b1580156200159857600080fd5b505af1158015620015ad573d6000803e3d6000fd5b50505050826001600160a01b031663c0c53b8b8c84620015cc62000770565b6040518463ffffffff1660e01b8152600401620015ec9392919062001cfc565b600060405180830381600087803b1580156200160757600080fd5b505af11580156200161c573d6000803e3d6000fd5b50505050816001600160a01b0316631459457a8888866200163c62000770565b8d6040518663ffffffff1660e01b81526004016200165f95949392919062001d70565b600060405180830381600087803b1580156200167a57600080fd5b505af11580156200168f573d6000803e3d6000fd5b505050505050505050505050505050565b6001600160a01b0316151590565b6000620016ba62000770565b82604051620016c99062001736565b620016d692919062001e2c565b604051809103906000f080158015620016f3573d6000803e3d6000fd5b5092915050565b6040805160e081018252600080825260208201819052918101829052606081018290526080810182905260a0810182905260c081019190915290565b6106758062001fd983390190565b8035620001a58162001fa0565b8051620001a58162001fa0565b8051620001a58162001fb7565b8051620001a58162001fc2565b8051620001a58162001fcd565b6000604082840312156200179857600080fd5b620017a4604062001f2f565b90506000620017b4848462001751565b8252506020620017c7848483016200176b565b60208301525092915050565b600060208284031215620017e657600080fd5b600062000b06848462001744565b6000602082840312156200180757600080fd5b600062000b06848462001751565b600080604083850312156200182957600080fd5b600062001837858562001744565b92505060206200184a8582860162001744565b9150509250929050565b6000806000606084860312156200186a57600080fd5b600062001878868662001744565b93505060206200188b8682870162001744565b92505060406200189e8682870162001744565b9150509250925092565b600060208284031215620018bb57600080fd5b600062000b0684846200175e565b600060208284031215620018dc57600080fd5b600062000b0684846200176b565b600060208284031215620018fd57600080fd5b600062000b06848462001778565b6000604082840312156200191e57600080fd5b600062000b06848462001785565b620019378162001f93565b82525050565b620019378162001f65565b620019378162001f72565b620019378162001f77565b620019378162001f7a565b600062001978601c8362001f60565b7f54496e697469616c697a61626c652e6973496e697469616c697a6564000000008152601c0192915050565b6000620019b360148362001f57565b7313505492d15517d053149150511657d1561254d560621b815260200192915050565b6000620019e5601b8362001f57565b7f53455454494e47535f4d5553545f42455f415f434f4e54524143540000000000815260200192915050565b600062001a20601b8362001f57565b7f4f5241434c455f4e4f545f464f554e445f464f525f4d41524b45540000000000815260200192915050565b600062001a5b60128362001f57565b71141310551193d49357d254d7d4105554d15160721b815260200192915050565b600062001a8b60178362001f57565b7f54544f4b454e5f4d5553545f42455f434f4e5452414354000000000000000000815260200192915050565b600062001ac6601f8362001f57565b7f424f52524f5745445f544f4b454e5f4d5553545f42455f434f4e545241435400815260200192915050565b600062001b01601b8362001f57565b7f434f4c4c5f544f4b454e5f4d5553545f42455f434f4e54524143540000000000815260200192915050565b600062001b3c60188362001f60565b7f426173655570677261646561626c652e73657474696e67730000000000000000815260180192915050565b600062001b7760188362001f57565b7f434f4e54524143545f4e4f545f494e495449414c495a45440000000000000000815260200192915050565b600062001bb2601c8362001f57565b7f434f4e54524143545f414c52454144595f494e495449414c495a454400000000815260200192915050565b600062001bed60108362001f57565b6f13505492d15517d393d517d1561254d560821b815260200192915050565b805160e083019062001c1f84826200193d565b50602082015162001c3460208501826200193d565b50604082015162001c4960408501826200193d565b50606082015162001c5e60608501826200193d565b50608082015162001c7360808501826200193d565b5060a082015162001c8860a08501826200193d565b5060c082015162001c9d60c085018262001948565b50505050565b6000620001a58262001969565b6000620001a58262001b2d565b60208101620001a582846200193d565b60208101620001a582846200192c565b6040810162001ced82856200193d565b620001c160208301846200193d565b6060810162001d0c82866200193d565b62001d1b60208301856200193d565b62000b0660408301846200193d565b6080810162001d3a82876200193d565b62001d4960208301866200193d565b62001d5860408301856200193d565b62001d6760608301846200193d565b95945050505050565b60a0810162001d8082886200193d565b62001d8f60208301876200193d565b62001d9e60408301866200193d565b62001dad60608301856200193d565b62001dbc60808301846200193d565b9695505050505050565b60c0810162001dd682896200193d565b62001de560208301886200193d565b62001df460408301876200193d565b62001e0360608301866200193d565b62001e1260808301856200193d565b62001e2160a08301846200193d565b979650505050505050565b6040810162001e3c82856200193d565b620001c1602083018462001953565b60208101620001a5828462001948565b60208101620001a582846200195e565b60208082528101620001a581620019a4565b60208082528101620001a581620019d6565b60208082528101620001a58162001a11565b60208082528101620001a58162001a4c565b60208082528101620001a58162001a7c565b60208082528101620001a58162001ab7565b60208082528101620001a58162001af2565b60208082528101620001a58162001b68565b60208082528101620001a58162001ba3565b60208082528101620001a58162001bde565b60e08101620001a5828462001c0c565b60405181810167ffffffffffffffff8111828210171562001f4f57600080fd5b604052919050565b90815260200190565b919050565b6000620001a58262001f87565b151590565b90565b6000620001a58262001f65565b6001600160a01b031690565b6000620001a58262001f7a565b62001fab8162001f65565b81146200076d57600080fd5b62001fab8162001f72565b62001fab8162001f77565b62001fab8162001f7a56fe608060405234801561001057600080fd5b506040516106753803806106758339818101604052604081101561003357600080fd5b50805160209091015161004e826001600160e01b0361006716565b610060816001600160e01b0361014316565b50506103cc565b61009361007b6001600160e01b0361031616565b6001600160a01b031661034c60201b61021b1760201c565b1561009d57610140565b6100b9816001600160a01b031661035a60201b6102291760201c565b61010a576040805162461bcd60e51b815260206004820152601b60248201527f53455454494e47535f4d5553545f42455f415f434f4e54524143540000000000604482015290519081900360640190fd5b604080517f426173655570677261646561626c652e73657474696e67730000000000000000815290519081900360180190208190555b50565b6101546001600160e01b0361039616565b156101a6576040805162461bcd60e51b815260206004820152601660248201527f4c4f4749435f4e414d455f414c52454144595f53455400000000000000000000604482015290519081900360640190fd5b6101b76001600160e01b0361031616565b6001600160a01b031663ea23cb7c6040518163ffffffff1660e01b815260040160206040518083038186803b1580156101ef57600080fd5b505afa158015610203573d6000803e3d6000fd5b505050506040513d602081101561021957600080fd5b50516040805163b28f5abb60e01b81526004810184905290516001600160a01b039092169163b28f5abb91602480820192602092909190829003018186803b15801561026457600080fd5b505afa158015610278573d6000803e3d6000fd5b505050506040513d602081101561028e57600080fd5b50516102e1576040805162461bcd60e51b815260206004820152601460248201527f4c4f4749435f4e414d455f4e4f545f4558495354000000000000000000000000604482015290519081900360640190fd5b604080517f426173655570677261646561626c652e6c6f6769634e616d65000000000000008152905190819003601901902055565b604080517f426173655570677261646561626c652e73657474696e67730000000000000000815290519081900360180190205490565b6001600160a01b0316151590565b6000813f7fc5d2460186f7233c927e7db2dcc703c0e500b653ca82273b7bfad8045d85a47081811480159061038e57508115155b949350505050565b604080517f426173655570677261646561626c652e6c6f6769634e616d6500000000000000815290519081900360190190205490565b61029a806103db6000396000f3fe6080604052600436106100295760003560e01c80635c60da1b14610033578063e06174e414610064575b610031610079565b005b34801561003f57600080fd5b50610048610093565b604080516001600160a01b039092168252519081900360200190f35b34801561007057600080fd5b506100486100a2565b610081610091565b61009161008c6100d8565b6101c1565b565b600061009d6100d8565b905090565b604080517f426173655570677261646561626c652e73657474696e67730000000000000000815290519081900360180190205490565b60006100e26100a2565b6001600160a01b031663ea23cb7c6040518163ffffffff1660e01b815260040160206040518083038186803b15801561011a57600080fd5b505afa15801561012e573d6000803e3d6000fd5b505050506040513d602081101561014457600080fd5b50516001600160a01b03166373f1fcf661015c6101e5565b6040518263ffffffff1660e01b81526004018082815260200191505060206040518083038186803b15801561019057600080fd5b505afa1580156101a4573d6000803e3d6000fd5b505050506040513d60208110156101ba57600080fd5b5051905090565b3660008037600080366000845af43d6000803e8080156101e0573d6000f35b3d6000fd5b604080517f426173655570677261646561626c652e6c6f6769634e616d6500000000000000815290519081900360190190205490565b6001600160a01b0316151590565b6000813f7fc5d2460186f7233c927e7db2dcc703c0e500b653ca82273b7bfad8045d85a47081811480159061025d57508115155b94935050505056fea265627a7a723158201befd7ed569c1720849784ec6a7e9f5f5ca6adc5544ceb327da092380cfdbb1b64736f6c63430005110032a365627a7a723158208bed972d331437c0aebd48d0ce21a98ec1298fdbc18f59fab0475e3f38410a596c6578706572696d656e74616cf564736f6c63430005110040",
  "source": "pragma solidity 0.5.17;\npragma experimental ABIEncoderV2;\n\n// Libraries\nimport \"@openzeppelin/contracts-ethereum-package/contracts/utils/Address.sol\";\n\n// Interfaces\nimport \"../interfaces/LoansInterface.sol\";\nimport \"../interfaces/InterestConsensusInterface.sol\";\nimport \"../interfaces/LoanTermsConsensusInterface.sol\";\nimport \"../interfaces/LendingPoolInterface.sol\";\nimport \"../interfaces/LendersInterface.sol\";\nimport \"../interfaces/SettingsInterface.sol\";\nimport \"../interfaces/MarketFactoryInterface.sol\";\nimport \"../providers/chainlink/IChainlinkPairAggregatorRegistry.sol\";\n\n// Commons\nimport \"./DynamicProxy.sol\";\nimport \"../util/TellerCommon.sol\";\nimport \"./TInitializable.sol\";\n\n/*****************************************************************************************************/\n/**                                             WARNING                                             **/\n/**                                  THIS CONTRACT IS UPGRADEABLE!                                  **/\n/**  ---------------------------------------------------------------------------------------------  **/\n/**  Do NOT change the order of or PREPEND any storage variables to this or new versions of this    **/\n/**  contract as this will cause the the storage slots to be overwritten on the proxy contract!!    **/\n/**                                                                                                 **/\n/**  Visit https://docs.openzeppelin.com/upgrades/2.6/proxies#upgrading-via-the-proxy-pattern for   **/\n/**  more information.                                                                              **/\n/*****************************************************************************************************/\n/**\n    @notice This contract offers functions to manage markets.\n\n    @author develop@teller.finance\n */\ncontract MarketFactory is TInitializable, BaseUpgradeable, MarketFactoryInterface {\n    using Address for address;\n\n    /** Constants */\n\n    /** Structs */\n\n    /* State Variables */\n\n    /**\n        @notice It defines a market for a given borrowed and collateral tokens.\n        @dev It uses the Settings.ETH_ADDRESS constant to represent ETHER.\n        @dev Examples:\n\n        address(DAI) => address(ETH) => Market {...}\n        address(DAI) => address(LINK) => Market {...}\n     */\n    mapping(address => mapping(address => TellerCommon.Market)) markets;\n\n    /* Modifiers */\n\n    /**\n        @notice It checks whether the platform is paused or not.\n        @dev It throws a require error if the platform is used.\n     */\n    modifier isNotPaused() {\n        require(!settings().isPaused(), \"PLATFORM_IS_PAUSED\");\n        _;\n    }\n\n    /**\n        @notice It checks whether a market exists or not for a given borrowed/collateral tokens.\n        @param borrowedToken the borrowed token address.\n        @param collateralToken the collateral token address.\n        @dev It throws a require error if the market already exists.\n     */\n    modifier marketNotExist(address borrowedToken, address collateralToken) {\n        require(\n            !_getMarket(borrowedToken, collateralToken).exists,\n            \"MARKET_ALREADY_EXIST\"\n        );\n        _;\n    }\n\n    /**\n        @notice It checks whether a market exists or not for a given borrowed/collateral tokens.\n        @param borrowedToken the borrowed token address.\n        @param collateralToken the collateral token address.\n        @dev It throws a require error if the market doesn't exist.\n     */\n    modifier marketExist(address borrowedToken, address collateralToken) {\n        require(_getMarket(borrowedToken, collateralToken).exists, \"MARKET_NOT_EXIST\");\n        _;\n    }\n\n    /** External Functions */\n\n    /**\n        @notice It creates a new market for a given TToken and borrowed/collateral tokens.\n        @dev It uses the Settings.ETH_ADDRESS to represent the ETHER.\n        @param tToken the TToken address.\n        @param borrowedToken the borrowed token address.\n        @param collateralToken the collateral token address.\n     */\n    function createMarket(\n        address tToken,\n        address borrowedToken,\n        address collateralToken\n    ) external onlyPauser() isNotPaused() isInitialized() {\n        _requireCreateMarket(tToken, borrowedToken, collateralToken);\n        address owner = msg.sender;\n\n        IChainlinkPairAggregatorRegistry pairAggregatorRegistry = settings()\n            .pairAggregatorRegistry();\n        address pairAggregator = address(\n            pairAggregatorRegistry.getPairAggregator(borrowedToken, collateralToken)\n        );\n        require(pairAggregator != address(0x0), \"ORACLE_NOT_FOUND_FOR_MARKET\");\n\n        (\n            LendingPoolInterface lendingPoolProxy,\n            InterestConsensusInterface interestConsensusProxy,\n            LendersInterface lendersProxy,\n            LoanTermsConsensusInterface loanTermsConsensusProxy,\n            LoansInterface loansProxy\n        ) = _createAndInitializeProxies(\n            owner,\n            tToken,\n            borrowedToken,\n            collateralToken,\n            pairAggregator\n        );\n\n        _addMarket(\n            borrowedToken,\n            collateralToken,\n            address(loansProxy),\n            address(lendersProxy),\n            address(lendingPoolProxy),\n            address(loanTermsConsensusProxy),\n            address(interestConsensusProxy),\n            pairAggregator\n        );\n\n        emit NewMarketCreated(\n            owner,\n            borrowedToken,\n            collateralToken,\n            address(loansProxy),\n            address(lendersProxy),\n            address(lendingPoolProxy),\n            address(loanTermsConsensusProxy),\n            address(interestConsensusProxy),\n            address(pairAggregator)\n        );\n    }\n\n    /**\n        @notice It removes a current market for a given borrowed/collateral tokens.\n        @param borrowedToken the borrowed token address.\n        @param collateralToken the collateral token address.\n     */\n    function removeMarket(address borrowedToken, address collateralToken)\n        external\n        onlyPauser()\n        isNotPaused()\n        isInitialized()\n        marketExist(borrowedToken, collateralToken)\n    {\n        delete markets[borrowedToken][collateralToken];\n\n        emit MarketRemoved(msg.sender, borrowedToken, collateralToken);\n    }\n\n    /**\n        @notice It gets the current addresses for a given borrowed/collateral token.\n        @param borrowedToken the borrowed token address.\n        @param collateralToken the collateral token address.\n        @return a struct with the contract addresses for the given market.\n     */\n    function getMarket(address borrowedToken, address collateralToken)\n        external\n        view\n        returns (TellerCommon.Market memory)\n    {\n        return _getMarket(borrowedToken, collateralToken);\n    }\n\n    /**\n        @notice It tests whether a market exists or not for a given borrowed/collateral tokens.\n        @param borrowedToken the borrowed token address.\n        @param collateralToken the collateral token address.\n        @return true if the market exists for the given borrowed/collateral tokens. Otherwise it returns false.\n     */\n    function existMarket(address borrowedToken, address collateralToken)\n        external\n        view\n        returns (bool)\n    {\n        return _getMarket(borrowedToken, collateralToken).exists;\n    }\n\n    /**\n        @notice It tests whether a market exists or not for a given borrowed/collateral tokens.\n        @param borrowedToken the borrowed token address.\n        @param collateralToken the collateral token address.\n        @return true if the market doesn't exist for the given borrowed/collateral tokens. Otherwise it returns false.\n     */\n    function notExistMarket(address borrowedToken, address collateralToken)\n        external\n        view\n        returns (bool)\n    {\n        return !_getMarket(borrowedToken, collateralToken).exists;\n    }\n\n    /**\n        @notice It initializes this market factory instance.\n        @param settingsAddress the settings contract address.\n     */\n    function initialize(address settingsAddress) external isNotInitialized() {\n        require(settingsAddress.isContract(), \"SETTINGS_MUST_BE_A_CONTRACT\");\n\n        _initialize();\n\n        _setSettings(settingsAddress);\n    }\n\n    /** Internal Functions */\n\n    /**\n        @notice It adds a market in the internal mapping.\n        @param borrowedToken the borrowed token address.\n        @param collateralToken the collateral token address.\n        @param loans the new loans contract address.\n        @param lenders the new lenders contracct address.\n        @param lendingPool the new lending pool contract address.\n        @param loanTermsConsensus the new loan terms consensus contract address.\n        @param interestConsensus the new interest consensus contract address.\n        @param pairAggregator the pair aggregator address for the market.\n     */\n    function _addMarket(\n        address borrowedToken,\n        address collateralToken,\n        address loans,\n        address lenders,\n        address lendingPool,\n        address loanTermsConsensus,\n        address interestConsensus,\n        address pairAggregator\n    ) internal {\n        markets[borrowedToken][collateralToken] = TellerCommon.Market({\n            loans: loans,\n            lenders: lenders,\n            lendingPool: lendingPool,\n            loanTermsConsensus: loanTermsConsensus,\n            interestConsensus: interestConsensus,\n            pairAggregator: pairAggregator,\n            exists: true\n        });\n    }\n\n    /**\n        @notice It creates a dynamic proxy instance for a given logic name.\n        @dev It is used to create all the market contracts (Lenders, LendingPool, Loans, and others).\n     */\n    function _createDynamicProxy(bytes32 logicName) internal returns (address) {\n        return address(new DynamicProxy(address(settings()), logicName));\n    }\n\n    /**\n        @notice It gets the current addresses for a given borrowed/collateral token.\n        @param borrowedToken the borrowed token address.\n        @param collateralToken the collateral token address.\n        @return a struct with the contract addresses for the given market.\n     */\n    function _getMarket(address borrowedToken, address collateralToken)\n        internal\n        view\n        returns (TellerCommon.Market memory)\n    {\n        return markets[borrowedToken][collateralToken];\n    }\n\n    /**\n        @notice It validates the TToken, borrowed and collateral token addresses.\n        @param tToken the TToken contract address.\n        @param borrowedToken the borrowed token address.\n        @param collateralToken the collateral token address.\n        @dev It throws a require error if any param is invalid.\n     */\n    function _requireCreateMarket(\n        address tToken,\n        address borrowedToken,\n        address collateralToken\n    ) internal view marketNotExist(borrowedToken, collateralToken) {\n        require(tToken.isContract(), \"TTOKEN_MUST_BE_CONTRACT\");\n        require(borrowedToken.isContract(), \"BORROWED_TOKEN_MUST_BE_CONTRACT\");\n        require(\n            collateralToken == settings().ETH_ADDRESS() || collateralToken.isContract(),\n            \"COLL_TOKEN_MUST_BE_CONTRACT\"\n        );\n    }\n\n    /**\n        @notice It creates and initializes the proxies used for the given tToken, and borrowed/collateral tokens.\n        @param owner the owner address (or sender transaction).\n        @param tToken the tToken address.\n        @param borrowedToken the borrowed token address.\n        @param collateralToken the collateral token address.\n        @param pairAggregator the pair aggregator address to used in the new market.\n     */\n    function _createAndInitializeProxies(\n        address owner,\n        address tToken,\n        address borrowedToken,\n        address collateralToken,\n        address pairAggregator\n    )\n        internal\n        returns (\n            LendingPoolInterface lendingPoolProxy,\n            InterestConsensusInterface interestConsensusProxy,\n            LendersInterface lendersProxy,\n            LoanTermsConsensusInterface loanTermsConsensusProxy,\n            LoansInterface loansProxy\n        )\n    {\n        // Creating proxies\n        (\n            lendingPoolProxy,\n            interestConsensusProxy,\n            lendersProxy,\n            loanTermsConsensusProxy,\n            loansProxy\n        ) = _createProxies(collateralToken);\n\n        // Initializing proxies.\n        _initializeProxies(\n            owner,\n            tToken,\n            borrowedToken,\n            collateralToken,\n            pairAggregator,\n            lendingPoolProxy,\n            interestConsensusProxy,\n            lendersProxy,\n            loanTermsConsensusProxy,\n            loansProxy\n        );\n    }\n\n    /**\n        @notice Creates the proxies for:\n            - LendingPool\n            - InterestConsensus\n            - Lenders\n            - LoanTermsConsensus\n        @return the proxy instances.\n     */\n    function _createProxies(address collateralToken)\n        internal\n        returns (\n            LendingPoolInterface lendingPoolProxy,\n            InterestConsensusInterface interestConsensusProxy,\n            LendersInterface lendersProxy,\n            LoanTermsConsensusInterface loanTermsConsensusProxy,\n            LoansInterface loansProxy\n        )\n    {\n        lendingPoolProxy = LendingPoolInterface(\n            _createDynamicProxy(\n                settings().versionsRegistry().consts().LENDING_POOL_LOGIC_NAME()\n            )\n        );\n        interestConsensusProxy = InterestConsensusInterface(\n            _createDynamicProxy(\n                settings().versionsRegistry().consts().INTEREST_CONSENSUS_LOGIC_NAME()\n            )\n        );\n        lendersProxy = LendersInterface(\n            _createDynamicProxy(\n                settings().versionsRegistry().consts().LENDERS_LOGIC_NAME()\n            )\n        );\n        loanTermsConsensusProxy = LoanTermsConsensusInterface(\n            _createDynamicProxy(\n                settings().versionsRegistry().consts().LOAN_TERMS_CONSENSUS_LOGIC_NAME()\n            )\n        );\n        if (collateralToken == settings().ETH_ADDRESS()) {\n            loansProxy = LoansInterface(\n                _createDynamicProxy(\n                    settings()\n                        .versionsRegistry()\n                        .consts()\n                        .ETHER_COLLATERAL_LOANS_LOGIC_NAME()\n                )\n            );\n        } else {\n            loansProxy = LoansInterface(\n                _createDynamicProxy(\n                    settings()\n                        .versionsRegistry()\n                        .consts()\n                        .TOKEN_COLLATERAL_LOANS_LOGIC_NAME()\n                )\n            );\n        }\n    }\n\n    /**\n        @notice It initializes all the new proxies.\n        @param owner the owner address (or sender transaction).\n        @param tToken the tToken address.\n        @param borrowedToken the borrowed token address.\n        @param collateralToken the collateral token address.\n        @param pairAggregator the pair aggregator address to used in the new market.\n        @param lendingPoolProxy the new lending pool proxy instance.\n        @param interestConsensusProxy the new interest consensus proxy instance.\n        @param lendersProxy the new lenders proxy instance.\n        @param loanTermsConsensusProxy the new loan terms consensus proxy instance.\n        @param loansProxy the new loans proxy instance.\n     */\n    function _initializeProxies(\n        address owner,\n        address tToken,\n        address borrowedToken,\n        address collateralToken,\n        address pairAggregator,\n        LendingPoolInterface lendingPoolProxy,\n        InterestConsensusInterface interestConsensusProxy,\n        LendersInterface lendersProxy,\n        LoanTermsConsensusInterface loanTermsConsensusProxy,\n        LoansInterface loansProxy\n    ) internal {\n        address cTokenAddress = settings().getAssetSettings(borrowedToken).cTokenAddress;\n\n        // Initializing LendingPool\n        lendingPoolProxy.initialize(\n            tToken,\n            borrowedToken,\n            address(lendersProxy),\n            address(loansProxy),\n            cTokenAddress,\n            address(settings())\n        );\n        // Initializing InterestConsensus\n        interestConsensusProxy.initialize(\n            owner,\n            address(lendersProxy),\n            address(settings())\n        );\n        // Initializing Lenders\n        lendersProxy.initialize(\n            tToken,\n            address(lendingPoolProxy),\n            address(interestConsensusProxy),\n            address(settings())\n        );\n        // Initializing LoanTermsConsensus\n        loanTermsConsensusProxy.initialize(\n            owner,\n            address(loansProxy),\n            address(settings())\n        );\n\n        // Initializing Loans\n        loansProxy.initialize(\n            pairAggregator,\n            address(lendingPoolProxy),\n            address(loanTermsConsensusProxy),\n            address(settings()),\n            collateralToken\n        );\n    }\n}\n",
  "sourcePath": "/Users/guillesalazar/Repos/ZeroCollateral/smart-contracts-v1/contracts/base/MarketFactory.sol",
  "compiler": {
    "name": "solc",
    "version": "0.5.17+commit.d19bba13.Emscripten.clang"
  },
  "schemaVersion": "3.2.3",
  "updatedAt": "2020-10-12T16:12:27.664Z",
  "networkType": "ethereum",
  "devdoc": {
    "author": "develop@teller.finance",
    "methods": {
      "createMarket(address,address,address)": {
        "details": "It uses the Settings.ETH_ADDRESS to represent the ETHER.",
        "params": {
          "borrowedToken": "the borrowed token address.",
          "collateralToken": "the collateral token address.",
          "tToken": "the TToken address."
        }
      },
      "existMarket(address,address)": {
        "params": {
          "borrowedToken": "the borrowed token address.",
          "collateralToken": "the collateral token address."
        },
        "return": "true if the market exists for the given borrowed/collateral tokens. Otherwise it returns false."
      },
      "getMarket(address,address)": {
        "params": {
          "borrowedToken": "the borrowed token address.",
          "collateralToken": "the collateral token address."
        },
        "return": "a struct with the contract addresses for the given market."
      },
      "initialize(address)": {
        "params": {
          "settingsAddress": "the settings contract address."
        }
      },
      "initialized()": {
        "return": "true if contract is initialized. Otherwise it returns false."
      },
      "notExistMarket(address,address)": {
        "params": {
          "borrowedToken": "the borrowed token address.",
          "collateralToken": "the collateral token address."
        },
        "return": "true if the market doesn't exist for the given borrowed/collateral tokens. Otherwise it returns false."
      },
      "removeMarket(address,address)": {
        "params": {
          "borrowedToken": "the borrowed token address.",
          "collateralToken": "the collateral token address."
        }
      },
      "settings()": {
        "details": "This address should NOT change over the time. See details in the _setSettings(...) function."
      }
    }
  },
  "userdoc": {
    "methods": {
      "createMarket(address,address,address)": {
        "notice": "It creates a new market for a given TToken and borrowed/collateral tokens."
      },
      "existMarket(address,address)": {
        "notice": "It tests whether a market exists or not for a given borrowed/collateral tokens."
      },
      "getMarket(address,address)": {
        "notice": "It gets the current addresses for a given borrowed/collateral token."
      },
      "initialize(address)": {
        "notice": "It initializes this market factory instance."
      },
      "initialized()": {
        "notice": "Gets if the contract is initialized."
      },
      "notExistMarket(address,address)": {
        "notice": "It tests whether a market exists or not for a given borrowed/collateral tokens."
      },
      "removeMarket(address,address)": {
        "notice": "It removes a current market for a given borrowed/collateral tokens."
      },
      "settings()": {
        "notice": "The gets the settings contract address from the SETTINGS_SLOT."
      }
    },
    "notice": "This contract offers functions to manage markets."
  }
}