{
  "contractName": "MarketFactory",
  "abi": [
    {
      "anonymous": false,
      "inputs": [
        {
          "indexed": true,
          "internalType": "address",
          "name": "sender",
          "type": "address"
        },
        {
          "indexed": true,
          "internalType": "address",
          "name": "borrowedToken",
          "type": "address"
        },
        {
          "indexed": true,
          "internalType": "address",
          "name": "collateralToken",
          "type": "address"
        }
      ],
      "name": "MarketRemoved",
      "type": "event"
    },
    {
      "anonymous": false,
      "inputs": [
        {
          "indexed": true,
          "internalType": "address",
          "name": "sender",
          "type": "address"
        },
        {
          "indexed": true,
          "internalType": "address",
          "name": "borrowedToken",
          "type": "address"
        },
        {
          "indexed": true,
          "internalType": "address",
          "name": "collateralToken",
          "type": "address"
        },
        {
          "indexed": false,
          "internalType": "address",
          "name": "loans",
          "type": "address"
        },
        {
          "indexed": false,
          "internalType": "address",
          "name": "lenders",
          "type": "address"
        },
        {
          "indexed": false,
          "internalType": "address",
          "name": "lendingPool",
          "type": "address"
        },
        {
          "indexed": false,
          "internalType": "address",
          "name": "loanTermsConsensus",
          "type": "address"
        },
        {
          "indexed": false,
          "internalType": "address",
          "name": "interestConsensus",
          "type": "address"
        },
        {
          "indexed": false,
          "internalType": "address",
          "name": "pairAggregator",
          "type": "address"
        }
      ],
      "name": "NewMarketCreated",
      "type": "event"
    },
    {
      "constant": true,
      "inputs": [],
      "name": "initialized",
      "outputs": [
        {
          "internalType": "bool",
          "name": "value",
          "type": "bool"
        }
      ],
      "payable": false,
      "stateMutability": "view",
      "type": "function"
    },
    {
      "constant": true,
      "inputs": [],
      "name": "settings",
      "outputs": [
        {
          "internalType": "contract SettingsInterface",
          "name": "",
          "type": "address"
        }
      ],
      "payable": false,
      "stateMutability": "view",
      "type": "function"
    },
    {
      "constant": false,
      "inputs": [
        {
          "internalType": "address",
          "name": "tToken",
          "type": "address"
        },
        {
          "internalType": "address",
          "name": "borrowedToken",
          "type": "address"
        },
        {
          "internalType": "address",
          "name": "collateralToken",
          "type": "address"
        }
      ],
      "name": "createMarket",
      "outputs": [],
      "payable": false,
      "stateMutability": "nonpayable",
      "type": "function"
    },
    {
      "constant": false,
      "inputs": [
        {
          "internalType": "address",
          "name": "borrowedToken",
          "type": "address"
        },
        {
          "internalType": "address",
          "name": "collateralToken",
          "type": "address"
        }
      ],
      "name": "removeMarket",
      "outputs": [],
      "payable": false,
      "stateMutability": "nonpayable",
      "type": "function"
    },
    {
      "constant": true,
      "inputs": [
        {
          "internalType": "address",
          "name": "borrowedToken",
          "type": "address"
        },
        {
          "internalType": "address",
          "name": "collateralToken",
          "type": "address"
        }
      ],
      "name": "getMarket",
      "outputs": [
        {
          "components": [
            {
              "internalType": "address",
              "name": "loans",
              "type": "address"
            },
            {
              "internalType": "address",
              "name": "lenders",
              "type": "address"
            },
            {
              "internalType": "address",
              "name": "lendingPool",
              "type": "address"
            },
            {
              "internalType": "address",
              "name": "loanTermsConsensus",
              "type": "address"
            },
            {
              "internalType": "address",
              "name": "interestConsensus",
              "type": "address"
            },
            {
              "internalType": "address",
              "name": "pairAggregator",
              "type": "address"
            },
            {
              "internalType": "bool",
              "name": "exists",
              "type": "bool"
            }
          ],
          "internalType": "struct TellerCommon.Market",
          "name": "",
          "type": "tuple"
        }
      ],
      "payable": false,
      "stateMutability": "view",
      "type": "function"
    },
    {
      "constant": true,
      "inputs": [
        {
          "internalType": "address",
          "name": "borrowedToken",
          "type": "address"
        },
        {
          "internalType": "address",
          "name": "collateralToken",
          "type": "address"
        }
      ],
      "name": "existMarket",
      "outputs": [
        {
          "internalType": "bool",
          "name": "",
          "type": "bool"
        }
      ],
      "payable": false,
      "stateMutability": "view",
      "type": "function"
    },
    {
      "constant": true,
      "inputs": [
        {
          "internalType": "address",
          "name": "borrowedToken",
          "type": "address"
        },
        {
          "internalType": "address",
          "name": "collateralToken",
          "type": "address"
        }
      ],
      "name": "notExistMarket",
      "outputs": [
        {
          "internalType": "bool",
          "name": "",
          "type": "bool"
        }
      ],
      "payable": false,
      "stateMutability": "view",
      "type": "function"
    },
    {
      "constant": false,
      "inputs": [
        {
          "internalType": "address",
          "name": "settingsAddress",
          "type": "address"
        }
      ],
      "name": "initialize",
      "outputs": [],
      "payable": false,
      "stateMutability": "nonpayable",
      "type": "function"
    }
  ],
  "bytecode": "0x608060405234801561001057600080fd5b506125b5806100206000396000f3fe60806040523480156200001157600080fd5b5060043610620000945760003560e01c8063a8e776d91162000063578063a8e776d91462000111578063b8f128911462000128578063c4d66de8146200013f578063e06174e414620001565762000094565b8063158ef93e1462000099578063211bb00d14620000bb578063714af34b14620000d25780637416ce6014620000f8575b600080fd5b620000a36200016f565b604051620000b2919062001e35565b60405180910390f35b620000a3620000cc366004620017ff565b62000190565b620000e9620000e3366004620017ff565b620001ab565b604051620000b2919062001f09565b6200010f620001093660046200183e565b620001c8565b005b620000a362000122366004620017ff565b620004e3565b6200010f62000139366004620017ff565b620004fd565b6200010f62000150366004620017bd565b620006fb565b6200016062000770565b604051620000b2919062001e45565b600080604051620001809062001c8d565b6040519081900390205492915050565b60006200019e838362000794565b60c0015190505b92915050565b620001b5620016e4565b620001c1838362000794565b9392505050565b620001d262000770565b6001600160a01b031663c095ea27336040518263ffffffff1660e01b8152600401620001ff919062001cb7565b60006040518083038186803b1580156200021857600080fd5b505afa1580156200022d573d6000803e3d6000fd5b505050506200023b62000770565b6001600160a01b031663b187bd266040518163ffffffff1660e01b815260040160206040518083038186803b1580156200027457600080fd5b505afa15801562000289573d6000803e3d6000fd5b505050506040513d601f19601f82011682018060405250620002af919081019062001892565b15620002d85760405162461bcd60e51b8152600401620002cf9062001e8b565b60405180910390fd5b620002e26200016f565b620003015760405162461bcd60e51b8152600401620002cf9062001ed3565b6200030e8383836200082a565b3360006200031b62000770565b6001600160a01b03166302d58da76040518163ffffffff1660e01b815260040160206040518083038186803b1580156200035457600080fd5b505afa15801562000369573d6000803e3d6000fd5b505050506040513d601f19601f820116820180604052506200038f9190810190620018d4565b90506000816001600160a01b031663c495931786866040518363ffffffff1660e01b8152600401620003c392919062001cc7565b60206040518083038186803b158015620003dc57600080fd5b505afa158015620003f1573d6000803e3d6000fd5b505050506040513d601f19601f82011682018060405250620004179190810190620018d4565b90506001600160a01b038116620004425760405162461bcd60e51b8152600401620002cf9062001e79565b600080600080600062000459888c8c8c8a62000995565b94509450945094509450620004758a8a838689878a8d620009d5565b886001600160a01b03168a6001600160a01b0316896001600160a01b03167f83664b07cb899c90ae6179a9664ce3105f948b71cb3e163ad2b7ca0ef78a47fd84878a888b8e604051620004ce9695949392919062001db0565b60405180910390a45050505050505050505050565b6000620004f1838362000794565b60c00151159392505050565b6200050762000770565b6001600160a01b031663c095ea27336040518263ffffffff1660e01b815260040162000534919062001cb7565b60006040518083038186803b1580156200054d57600080fd5b505afa15801562000562573d6000803e3d6000fd5b505050506200057062000770565b6001600160a01b031663b187bd266040518163ffffffff1660e01b815260040160206040518083038186803b158015620005a957600080fd5b505afa158015620005be573d6000803e3d6000fd5b505050506040513d601f19601f82011682018060405250620005e4919081019062001892565b15620006045760405162461bcd60e51b8152600401620002cf9062001e8b565b6200060e6200016f565b6200062d5760405162461bcd60e51b8152600401620002cf9062001ed3565b81816200063b828262000794565b60c001516200065e5760405162461bcd60e51b8152600401620002cf9062001ef7565b6001600160a01b038085166000818152602081815260408083209488168084529490915280822080546001600160a01b03199081168255600182018054821690556002820180548216905560038201805482169055600482018054909116905560050180546001600160a81b03191690555133917fd705cf52118eeb19a465c420a4f2ce37439f45f1777f5c0f2ccd8d472eb87a6891a450505050565b620007056200016f565b15620007255760405162461bcd60e51b8152600401620002cf9062001ee5565b62000739816001600160a01b031662000ad1565b620007585760405162461bcd60e51b8152600401620002cf9062001e67565b6200076262000b0e565b6200076d8162000b2e565b50565b6000806000604051620007839062001c9a565b604051908190039020549250505090565b6200079e620016e4565b506001600160a01b03918216600090815260208181526040808320938516835292815290829020825160e0810184528154851681526001820154851692810192909252600281015484169282019290925260038201548316606082015260048201548316608082015260059091015491821660a0820152600160a01b90910460ff16151560c082015290565b818162000838828262000794565b60c00151156200085c5760405162461bcd60e51b8152600401620002cf9062001e55565b62000870856001600160a01b031662000ad1565b6200088f5760405162461bcd60e51b8152600401620002cf9062001e9d565b620008a3846001600160a01b031662000ad1565b620008c25760405162461bcd60e51b8152600401620002cf9062001eaf565b620008cc62000770565b6001600160a01b031663a734f06e6040518163ffffffff1660e01b815260040160206040518083038186803b1580156200090557600080fd5b505afa1580156200091a573d6000803e3d6000fd5b505050506040513d601f19601f82011682018060405250620009409190810190620017de565b6001600160a01b0316836001600160a01b031614806200096f57506200096f836001600160a01b031662000ad1565b6200098e5760405162461bcd60e51b8152600401620002cf9062001ec1565b5050505050565b6000806000806000620009a88762000ba2565b939850919650945092509050620009c88a8a8a8a8a8a8a8a8a8a620013c5565b9550955095509550959050565b6040805160e0810182526001600160a01b0397881681529587166020808801918252958816878301908152948816606088019081529388166080880190815292881660a08801908152600160c089018181529b8a1660009081528089528481209b8b1681529a90975291909820955186546001600160a01b03199081169189169190911787559751948601805489169588169590951790945591516002850180548816918716919091179055516003840180548716918616919091179055516004830180548616918516919091179055516005909101805494519490931691161760ff60a01b1916600160a01b92151592909202919091179055565b6000813f7fc5d2460186f7233c927e7db2dcc703c0e500b653ca82273b7bfad8045d85a47081811480159062000b0657508115155b949350505050565b600060405162000b1e9062001c8d565b6040519081900390206001905550565b600062000b3a62000770565b6001600160a01b03161462000b825762000b5d816001600160a01b031662000ad1565b62000b7c5760405162461bcd60e51b8152600401620002cf9062001e67565b6200076d565b600060405162000b929062001c9a565b6040519081900390208290555050565b600080600080600062000d1c62000bb862000770565b6001600160a01b031663ea23cb7c6040518163ffffffff1660e01b815260040160206040518083038186803b15801562000bf157600080fd5b505afa15801562000c06573d6000803e3d6000fd5b505050506040513d601f19601f8201168201806040525062000c2c9190810190620018d4565b6001600160a01b031663d86d744e6040518163ffffffff1660e01b8152600401602060405180830381600087803b15801562000c6757600080fd5b505af115801562000c7c573d6000803e3d6000fd5b505050506040513d601f19601f8201168201806040525062000ca29190810190620018d4565b6001600160a01b03166324de570b6040518163ffffffff1660e01b815260040160206040518083038186803b15801562000cdb57600080fd5b505afa15801562000cf0573d6000803e3d6000fd5b505050506040513d601f19601f8201168201806040525062000d169190810190620018b3565b62001698565b945062000e4f62000d2c62000770565b6001600160a01b031663ea23cb7c6040518163ffffffff1660e01b815260040160206040518083038186803b15801562000d6557600080fd5b505afa15801562000d7a573d6000803e3d6000fd5b505050506040513d601f19601f8201168201806040525062000da09190810190620018d4565b6001600160a01b031663d86d744e6040518163ffffffff1660e01b8152600401602060405180830381600087803b15801562000ddb57600080fd5b505af115801562000df0573d6000803e3d6000fd5b505050506040513d601f19601f8201168201806040525062000e169190810190620018d4565b6001600160a01b031663c2c3329b6040518163ffffffff1660e01b815260040160206040518083038186803b15801562000cdb57600080fd5b935062000f8262000e5f62000770565b6001600160a01b031663ea23cb7c6040518163ffffffff1660e01b815260040160206040518083038186803b15801562000e9857600080fd5b505afa15801562000ead573d6000803e3d6000fd5b505050506040513d601f19601f8201168201806040525062000ed39190810190620018d4565b6001600160a01b031663d86d744e6040518163ffffffff1660e01b8152600401602060405180830381600087803b15801562000f0e57600080fd5b505af115801562000f23573d6000803e3d6000fd5b505050506040513d601f19601f8201168201806040525062000f499190810190620018d4565b6001600160a01b031663a66cd6406040518163ffffffff1660e01b815260040160206040518083038186803b15801562000cdb57600080fd5b9250620010b562000f9262000770565b6001600160a01b031663ea23cb7c6040518163ffffffff1660e01b815260040160206040518083038186803b15801562000fcb57600080fd5b505afa15801562000fe0573d6000803e3d6000fd5b505050506040513d601f19601f82011682018060405250620010069190810190620018d4565b6001600160a01b031663d86d744e6040518163ffffffff1660e01b8152600401602060405180830381600087803b1580156200104157600080fd5b505af115801562001056573d6000803e3d6000fd5b505050506040513d601f19601f820116820180604052506200107c9190810190620018d4565b6001600160a01b031663b67805076040518163ffffffff1660e01b815260040160206040518083038186803b15801562000cdb57600080fd5b9150620010c162000770565b6001600160a01b031663a734f06e6040518163ffffffff1660e01b815260040160206040518083038186803b158015620010fa57600080fd5b505afa1580156200110f573d6000803e3d6000fd5b505050506040513d601f19601f82011682018060405250620011359190810190620017de565b6001600160a01b0316866001600160a01b031614156200128857620012806200115d62000770565b6001600160a01b031663ea23cb7c6040518163ffffffff1660e01b815260040160206040518083038186803b1580156200119657600080fd5b505afa158015620011ab573d6000803e3d6000fd5b505050506040513d601f19601f82011682018060405250620011d19190810190620018d4565b6001600160a01b031663d86d744e6040518163ffffffff1660e01b8152600401602060405180830381600087803b1580156200120c57600080fd5b505af115801562001221573d6000803e3d6000fd5b505050506040513d601f19601f82011682018060405250620012479190810190620018d4565b6001600160a01b031663ecac96a06040518163ffffffff1660e01b815260040160206040518083038186803b15801562000cdb57600080fd5b9050620013bc565b620013b96200129662000770565b6001600160a01b031663ea23cb7c6040518163ffffffff1660e01b815260040160206040518083038186803b158015620012cf57600080fd5b505afa158015620012e4573d6000803e3d6000fd5b505050506040513d601f19601f820116820180604052506200130a9190810190620018d4565b6001600160a01b031663d86d744e6040518163ffffffff1660e01b8152600401602060405180830381600087803b1580156200134557600080fd5b505af11580156200135a573d6000803e3d6000fd5b505050506040513d601f19601f82011682018060405250620013809190810190620018d4565b6001600160a01b0316631f690a476040518163ffffffff1660e01b815260040160206040518083038186803b15801562000cdb57600080fd5b90505b91939590929450565b6000620013d162000770565b6001600160a01b0316634c7b09728a6040518263ffffffff1660e01b8152600401620013fe919062001ca7565b604080518083038186803b1580156200141657600080fd5b505afa1580156200142b573d6000803e3d6000fd5b505050506040513d601f19601f82011682018060405250620014519190810190620018f5565b5190506001600160a01b03861663cc2a9a5b8b8b8786866200147262000770565b6040518763ffffffff1660e01b8152600401620014959695949392919062001db0565b600060405180830381600087803b158015620014b057600080fd5b505af1158015620014c5573d6000803e3d6000fd5b50505050846001600160a01b031663c0c53b8b8c86620014e462000770565b6040518463ffffffff1660e01b8152600401620015049392919062001ce6565b600060405180830381600087803b1580156200151f57600080fd5b505af115801562001534573d6000803e3d6000fd5b50505050836001600160a01b031663f8c8765e8b88886200155462000770565b6040518563ffffffff1660e01b815260040162001575949392919062001d14565b600060405180830381600087803b1580156200159057600080fd5b505af1158015620015a5573d6000803e3d6000fd5b50505050826001600160a01b031663c0c53b8b8c84620015c462000770565b6040518463ffffffff1660e01b8152600401620015e49392919062001ce6565b600060405180830381600087803b158015620015ff57600080fd5b505af115801562001614573d6000803e3d6000fd5b50505050816001600160a01b0316631459457a8888866200163462000770565b8d6040518663ffffffff1660e01b81526004016200165795949392919062001d5a565b600060405180830381600087803b1580156200167257600080fd5b505af115801562001687573d6000803e3d6000fd5b505050505050505050505050505050565b6000620016a462000770565b82604051620016b39062001720565b620016c092919062001e16565b604051809103906000f080158015620016dd573d6000803e3d6000fd5b5092915050565b6040805160e081018252600080825260208201819052918101829052606081018290526080810182905260a0810182905260c081019190915290565b6105b08062001fc383390190565b8035620001a58162001f8a565b8051620001a58162001f8a565b8051620001a58162001fa1565b8051620001a58162001fac565b8051620001a58162001fb7565b6000604082840312156200178257600080fd5b6200178e604062001f19565b905060006200179e84846200173b565b8252506020620017b18484830162001755565b60208301525092915050565b600060208284031215620017d057600080fd5b600062000b0684846200172e565b600060208284031215620017f157600080fd5b600062000b0684846200173b565b600080604083850312156200181357600080fd5b60006200182185856200172e565b925050602062001834858286016200172e565b9150509250929050565b6000806000606084860312156200185457600080fd5b60006200186286866200172e565b935050602062001875868287016200172e565b925050604062001888868287016200172e565b9150509250925092565b600060208284031215620018a557600080fd5b600062000b06848462001748565b600060208284031215620018c657600080fd5b600062000b06848462001755565b600060208284031215620018e757600080fd5b600062000b06848462001762565b6000604082840312156200190857600080fd5b600062000b0684846200176f565b620019218162001f7d565b82525050565b620019218162001f4f565b620019218162001f5c565b620019218162001f61565b620019218162001f64565b600062001962601c8362001f4a565b7f54496e697469616c697a61626c652e6973496e697469616c697a6564000000008152601c0192915050565b60006200199d60148362001f41565b7313505492d15517d053149150511657d1561254d560621b815260200192915050565b6000620019cf601b8362001f41565b7f53455454494e47535f4d5553545f42455f415f434f4e54524143540000000000815260200192915050565b600062001a0a601b8362001f41565b7f4f5241434c455f4e4f545f464f554e445f464f525f4d41524b45540000000000815260200192915050565b600062001a4560128362001f41565b71141310551193d49357d254d7d4105554d15160721b815260200192915050565b600062001a7560178362001f41565b7f54544f4b454e5f4d5553545f42455f434f4e5452414354000000000000000000815260200192915050565b600062001ab0601f8362001f41565b7f424f52524f5745445f544f4b454e5f4d5553545f42455f434f4e545241435400815260200192915050565b600062001aeb601b8362001f41565b7f434f4c4c5f544f4b454e5f4d5553545f42455f434f4e54524143540000000000815260200192915050565b600062001b2660188362001f4a565b7f426173655570677261646561626c652e73657474696e67730000000000000000815260180192915050565b600062001b6160188362001f41565b7f434f4e54524143545f4e4f545f494e495449414c495a45440000000000000000815260200192915050565b600062001b9c601c8362001f41565b7f434f4e54524143545f414c52454144595f494e495449414c495a454400000000815260200192915050565b600062001bd760108362001f41565b6f13505492d15517d393d517d1561254d560821b815260200192915050565b805160e083019062001c09848262001927565b50602082015162001c1e602085018262001927565b50604082015162001c33604085018262001927565b50606082015162001c48606085018262001927565b50608082015162001c5d608085018262001927565b5060a082015162001c7260a085018262001927565b5060c082015162001c8760c085018262001932565b50505050565b6000620001a58262001953565b6000620001a58262001b17565b60208101620001a5828462001927565b60208101620001a5828462001916565b6040810162001cd7828562001927565b620001c1602083018462001927565b6060810162001cf6828662001927565b62001d05602083018562001927565b62000b06604083018462001927565b6080810162001d24828762001927565b62001d33602083018662001927565b62001d42604083018562001927565b62001d51606083018462001927565b95945050505050565b60a0810162001d6a828862001927565b62001d79602083018762001927565b62001d88604083018662001927565b62001d97606083018562001927565b62001da6608083018462001927565b9695505050505050565b60c0810162001dc0828962001927565b62001dcf602083018862001927565b62001dde604083018762001927565b62001ded606083018662001927565b62001dfc608083018562001927565b62001e0b60a083018462001927565b979650505050505050565b6040810162001e26828562001927565b620001c160208301846200193d565b60208101620001a5828462001932565b60208101620001a5828462001948565b60208082528101620001a5816200198e565b60208082528101620001a581620019c0565b60208082528101620001a581620019fb565b60208082528101620001a58162001a36565b60208082528101620001a58162001a66565b60208082528101620001a58162001aa1565b60208082528101620001a58162001adc565b60208082528101620001a58162001b52565b60208082528101620001a58162001b8d565b60208082528101620001a58162001bc8565b60e08101620001a5828462001bf6565b60405181810167ffffffffffffffff8111828210171562001f3957600080fd5b604052919050565b90815260200190565b919050565b6000620001a58262001f71565b151590565b90565b6000620001a58262001f4f565b6001600160a01b031690565b6000620001a58262001f64565b62001f958162001f4f565b81146200076d57600080fd5b62001f958162001f5c565b62001f958162001f61565b62001f958162001f6456fe608060405234801561001057600080fd5b506040516105b03803806105b08339818101604052604081101561003357600080fd5b50805160209091015161004e826001600160e01b0361006716565b610060816001600160e01b0361013316565b5050610315565b600061007a6001600160e01b036102a316565b6001600160a01b0316146100fa576100a4816001600160a01b03166102d960201b61021b1760201c565b6100f5576040805162461bcd60e51b815260206004820152601b60248201527f53455454494e47535f4d5553545f42455f415f434f4e54524143540000000000604482015290519081900360640190fd5b610130565b604080517f426173655570677261646561626c652e73657474696e67730000000000000000815290519081900360180190208190555b50565b6101446001600160e01b036102a316565b6001600160a01b031663ea23cb7c6040518163ffffffff1660e01b815260040160206040518083038186803b15801561017c57600080fd5b505afa158015610190573d6000803e3d6000fd5b505050506040513d60208110156101a657600080fd5b50516040805163b28f5abb60e01b81526004810184905290516001600160a01b039092169163b28f5abb91602480820192602092909190829003018186803b1580156101f157600080fd5b505afa158015610205573d6000803e3d6000fd5b505050506040513d602081101561021b57600080fd5b505161026e576040805162461bcd60e51b815260206004820152601460248201527f4c4f4749435f4e414d455f4e4f545f4558495354000000000000000000000000604482015290519081900360640190fd5b604080517f426173655570677261646561626c652e6c6f6769634e616d65000000000000008152905190819003601901902055565b604080517f426173655570677261646561626c652e73657474696e67730000000000000000815290519081900360180190205490565b6000813f7fc5d2460186f7233c927e7db2dcc703c0e500b653ca82273b7bfad8045d85a47081811480159061030d57508115155b949350505050565b61028c806103246000396000f3fe6080604052600436106100295760003560e01c80635c60da1b14610033578063e06174e414610064575b610031610079565b005b34801561003f57600080fd5b50610048610093565b604080516001600160a01b039092168252519081900360200190f35b34801561007057600080fd5b506100486100a2565b610081610091565b61009161008c6100d8565b6101c1565b565b600061009d6100d8565b905090565b604080517f426173655570677261646561626c652e73657474696e67730000000000000000815290519081900360180190205490565b60006100e26100a2565b6001600160a01b031663ea23cb7c6040518163ffffffff1660e01b815260040160206040518083038186803b15801561011a57600080fd5b505afa15801561012e573d6000803e3d6000fd5b505050506040513d602081101561014457600080fd5b50516001600160a01b03166373f1fcf661015c6101e5565b6040518263ffffffff1660e01b81526004018082815260200191505060206040518083038186803b15801561019057600080fd5b505afa1580156101a4573d6000803e3d6000fd5b505050506040513d60208110156101ba57600080fd5b5051905090565b3660008037600080366000845af43d6000803e8080156101e0573d6000f35b3d6000fd5b604080517f426173655570677261646561626c652e6c6f6769634e616d6500000000000000815290519081900360190190205490565b6000813f7fc5d2460186f7233c927e7db2dcc703c0e500b653ca82273b7bfad8045d85a47081811480159061024f57508115155b94935050505056fea265627a7a72315820719540adc046c2f7c4155ffa200cbba2e96c24f6c5638e7f502862ad0af638e764736f6c63430005110032a365627a7a72315820732e4bf5ec36116584025349e8ca917eed5795e64877c33f36aedbdab7079dc46c6578706572696d656e74616cf564736f6c63430005110040",
  "source": "pragma solidity 0.5.17;\npragma experimental ABIEncoderV2;\n\n// Libraries\nimport \"@openzeppelin/contracts-ethereum-package/contracts/utils/Address.sol\";\n\n// Interfaces\nimport \"../interfaces/LoansInterface.sol\";\nimport \"../interfaces/InterestConsensusInterface.sol\";\nimport \"../interfaces/LoanTermsConsensusInterface.sol\";\nimport \"../interfaces/LendingPoolInterface.sol\";\nimport \"../interfaces/LendersInterface.sol\";\nimport \"../interfaces/SettingsInterface.sol\";\nimport \"../interfaces/MarketFactoryInterface.sol\";\nimport \"../providers/chainlink/IChainlinkPairAggregatorRegistry.sol\";\n\n// Commons\nimport \"./DynamicProxy.sol\";\nimport \"../util/TellerCommon.sol\";\nimport \"./TInitializable.sol\";\n\n/*****************************************************************************************************/\n/**                                             WARNING                                             **/\n/**                                  THIS CONTRACT IS UPGRADEABLE!                                  **/\n/**  ---------------------------------------------------------------------------------------------  **/\n/**  Do NOT change the order of or PREPEND any storage variables to this or new versions of this    **/\n/**  contract as this will cause the the storage slots to be overwritten on the proxy contract!!    **/\n/**                                                                                                 **/\n/**  Visit https://docs.openzeppelin.com/upgrades/2.6/proxies#upgrading-via-the-proxy-pattern for   **/\n/**  more information.                                                                              **/\n/*****************************************************************************************************/\n/**\n    @notice This contract offers functions to manage markets.\n\n    @author develop@teller.finance\n */\ncontract MarketFactory is TInitializable, BaseUpgradeable, MarketFactoryInterface {\n    using Address for address;\n\n    /** Constants */\n\n    /** Structs */\n\n    /* State Variables */\n\n    /**\n        @notice It defines a market for a given borrowed and collateral tokens.\n        @dev It uses the Settings.ETH_ADDRESS constant to represent ETHER.\n        @dev Examples:\n\n        address(DAI) => address(ETH) => Market {...}\n        address(DAI) => address(LINK) => Market {...}\n     */\n    mapping(address => mapping(address => TellerCommon.Market)) markets;\n\n    /* Modifiers */\n\n    /**\n        @notice It checks whether the platform is paused or not.\n        @dev It throws a require error if the platform is used.\n     */\n    modifier isNotPaused() {\n        require(!settings().isPaused(), \"PLATFORM_IS_PAUSED\");\n        _;\n    }\n\n    /**\n        @notice It checks whether a market exists or not for a given borrowed/collateral tokens.\n        @param borrowedToken the borrowed token address.\n        @param collateralToken the collateral token address.\n        @dev It throws a require error if the market already exists.\n     */\n    modifier marketNotExist(address borrowedToken, address collateralToken) {\n        require(\n            !_getMarket(borrowedToken, collateralToken).exists,\n            \"MARKET_ALREADY_EXIST\"\n        );\n        _;\n    }\n\n    /**\n        @notice It checks whether a market exists or not for a given borrowed/collateral tokens.\n        @param borrowedToken the borrowed token address.\n        @param collateralToken the collateral token address.\n        @dev It throws a require error if the market doesn't exist.\n     */\n    modifier marketExist(address borrowedToken, address collateralToken) {\n        require(_getMarket(borrowedToken, collateralToken).exists, \"MARKET_NOT_EXIST\");\n        _;\n    }\n\n    /** External Functions */\n\n    /**\n        @notice It creates a new market for a given TToken and borrowed/collateral tokens.\n        @dev It uses the Settings.ETH_ADDRESS to represent the ETHER.\n        @param tToken the TToken address.\n        @param borrowedToken the borrowed token address.\n        @param collateralToken the collateral token address.\n     */\n    function createMarket(\n        address tToken,\n        address borrowedToken,\n        address collateralToken\n    ) external onlyPauser() isNotPaused() isInitialized() {\n        _requireCreateMarket(tToken, borrowedToken, collateralToken);\n        address owner = msg.sender;\n\n        IChainlinkPairAggregatorRegistry pairAggregatorRegistry = settings()\n            .pairAggregatorRegistry();\n        address pairAggregator = address(\n            pairAggregatorRegistry.getPairAggregator(borrowedToken, collateralToken)\n        );\n        require(pairAggregator != address(0x0), \"ORACLE_NOT_FOUND_FOR_MARKET\");\n\n        (\n            LendingPoolInterface lendingPoolProxy,\n            InterestConsensusInterface interestConsensusProxy,\n            LendersInterface lendersProxy,\n            LoanTermsConsensusInterface loanTermsConsensusProxy,\n            LoansInterface loansProxy\n        ) = _createAndInitializeProxies(\n            owner,\n            tToken,\n            borrowedToken,\n            collateralToken,\n            pairAggregator\n        );\n\n        _addMarket(\n            borrowedToken,\n            collateralToken,\n            address(loansProxy),\n            address(lendersProxy),\n            address(lendingPoolProxy),\n            address(loanTermsConsensusProxy),\n            address(interestConsensusProxy),\n            pairAggregator\n        );\n\n        emit NewMarketCreated(\n            owner,\n            borrowedToken,\n            collateralToken,\n            address(loansProxy),\n            address(lendersProxy),\n            address(lendingPoolProxy),\n            address(loanTermsConsensusProxy),\n            address(interestConsensusProxy),\n            address(pairAggregator)\n        );\n    }\n\n    /**\n        @notice It removes a current market for a given borrowed/collateral tokens.\n        @param borrowedToken the borrowed token address.\n        @param collateralToken the collateral token address.\n     */\n    function removeMarket(address borrowedToken, address collateralToken)\n        external\n        onlyPauser()\n        isNotPaused()\n        isInitialized()\n        marketExist(borrowedToken, collateralToken)\n    {\n        delete markets[borrowedToken][collateralToken];\n\n        emit MarketRemoved(msg.sender, borrowedToken, collateralToken);\n    }\n\n    /**\n        @notice It gets the current addresses for a given borrowed/collateral token.\n        @param borrowedToken the borrowed token address.\n        @param collateralToken the collateral token address.\n        @return a struct with the contract addresses for the given market.\n     */\n    function getMarket(address borrowedToken, address collateralToken)\n        external\n        view\n        returns (TellerCommon.Market memory)\n    {\n        return _getMarket(borrowedToken, collateralToken);\n    }\n\n    /**\n        @notice It tests whether a market exists or not for a given borrowed/collateral tokens.\n        @param borrowedToken the borrowed token address.\n        @param collateralToken the collateral token address.\n        @return true if the market exists for the given borrowed/collateral tokens. Otherwise it returns false.\n     */\n    function existMarket(address borrowedToken, address collateralToken)\n        external\n        view\n        returns (bool)\n    {\n        return _getMarket(borrowedToken, collateralToken).exists;\n    }\n\n    /**\n        @notice It tests whether a market exists or not for a given borrowed/collateral tokens.\n        @param borrowedToken the borrowed token address.\n        @param collateralToken the collateral token address.\n        @return true if the market doesn't exist for the given borrowed/collateral tokens. Otherwise it returns false.\n     */\n    function notExistMarket(address borrowedToken, address collateralToken)\n        external\n        view\n        returns (bool)\n    {\n        return !_getMarket(borrowedToken, collateralToken).exists;\n    }\n\n    /**\n        @notice It initializes this market factory instance.\n        @param settingsAddress the settings contract address.\n     */\n    function initialize(address settingsAddress) external isNotInitialized() {\n        require(settingsAddress.isContract(), \"SETTINGS_MUST_BE_A_CONTRACT\");\n\n        _initialize();\n\n        _setSettings(settingsAddress);\n    }\n\n    /** Internal Functions */\n\n    /**\n        @notice It adds a market in the internal mapping.\n        @param borrowedToken the borrowed token address.\n        @param collateralToken the collateral token address.\n        @param loans the new loans contract address.\n        @param lenders the new lenders contracct address.\n        @param lendingPool the new lending pool contract address.\n        @param loanTermsConsensus the new loan terms consensus contract address.\n        @param interestConsensus the new interest consensus contract address.\n        @param pairAggregator the pair aggregator address for the market.\n     */\n    function _addMarket(\n        address borrowedToken,\n        address collateralToken,\n        address loans,\n        address lenders,\n        address lendingPool,\n        address loanTermsConsensus,\n        address interestConsensus,\n        address pairAggregator\n    ) internal {\n        markets[borrowedToken][collateralToken] = TellerCommon.Market({\n            loans: loans,\n            lenders: lenders,\n            lendingPool: lendingPool,\n            loanTermsConsensus: loanTermsConsensus,\n            interestConsensus: interestConsensus,\n            pairAggregator: pairAggregator,\n            exists: true\n        });\n    }\n\n    /**\n        @notice It creates a dynamic proxy instance for a given logic name.\n        @dev It is used to create all the market contracts (Lenders, LendingPool, Loans, and others).\n     */\n    function _createDynamicProxy(bytes32 logicName) internal returns (address) {\n        return address(new DynamicProxy(address(settings()), logicName));\n    }\n\n    /**\n        @notice It gets the current addresses for a given borrowed/collateral token.\n        @param borrowedToken the borrowed token address.\n        @param collateralToken the collateral token address.\n        @return a struct with the contract addresses for the given market.\n     */\n    function _getMarket(address borrowedToken, address collateralToken)\n        internal\n        view\n        returns (TellerCommon.Market memory)\n    {\n        return markets[borrowedToken][collateralToken];\n    }\n\n    /**\n        @notice It validates the TToken, borrowed and collateral token addresses.\n        @param tToken the TToken contract address.\n        @param borrowedToken the borrowed token address.\n        @param collateralToken the collateral token address.\n        @dev It throws a require error if any param is invalid.\n     */\n    function _requireCreateMarket(\n        address tToken,\n        address borrowedToken,\n        address collateralToken\n    ) internal view marketNotExist(borrowedToken, collateralToken) {\n        require(tToken.isContract(), \"TTOKEN_MUST_BE_CONTRACT\");\n        require(borrowedToken.isContract(), \"BORROWED_TOKEN_MUST_BE_CONTRACT\");\n        require(\n            collateralToken == settings().ETH_ADDRESS() || collateralToken.isContract(),\n            \"COLL_TOKEN_MUST_BE_CONTRACT\"\n        );\n    }\n\n    /**\n        @notice It creates and initializes the proxies used for the given tToken, and borrowed/collateral tokens.\n        @param owner the owner address (or sender transaction).\n        @param tToken the tToken address.\n        @param borrowedToken the borrowed token address.\n        @param collateralToken the collateral token address.\n        @param pairAggregator the pair aggregator address to used in the new market.\n     */\n    function _createAndInitializeProxies(\n        address owner,\n        address tToken,\n        address borrowedToken,\n        address collateralToken,\n        address pairAggregator\n    )\n        internal\n        returns (\n            LendingPoolInterface lendingPoolProxy,\n            InterestConsensusInterface interestConsensusProxy,\n            LendersInterface lendersProxy,\n            LoanTermsConsensusInterface loanTermsConsensusProxy,\n            LoansInterface loansProxy\n        )\n    {\n        // Creating proxies\n        (\n            lendingPoolProxy,\n            interestConsensusProxy,\n            lendersProxy,\n            loanTermsConsensusProxy,\n            loansProxy\n        ) = _createProxies(collateralToken);\n\n        // Initializing proxies.\n        _initializeProxies(\n            owner,\n            tToken,\n            borrowedToken,\n            collateralToken,\n            pairAggregator,\n            lendingPoolProxy,\n            interestConsensusProxy,\n            lendersProxy,\n            loanTermsConsensusProxy,\n            loansProxy\n        );\n    }\n\n    /**\n        @notice Creates the proxies for:\n            - LendingPool\n            - InterestConsensus\n            - Lenders\n            - LoanTermsConsensus\n        @return the proxy instances.\n     */\n    function _createProxies(address collateralToken)\n        internal\n        returns (\n            LendingPoolInterface lendingPoolProxy,\n            InterestConsensusInterface interestConsensusProxy,\n            LendersInterface lendersProxy,\n            LoanTermsConsensusInterface loanTermsConsensusProxy,\n            LoansInterface loansProxy\n        )\n    {\n        lendingPoolProxy = LendingPoolInterface(\n            _createDynamicProxy(\n                settings().versionsRegistry().consts().LENDING_POOL_LOGIC_NAME()\n            )\n        );\n        interestConsensusProxy = InterestConsensusInterface(\n            _createDynamicProxy(\n                settings().versionsRegistry().consts().INTEREST_CONSENSUS_LOGIC_NAME()\n            )\n        );\n        lendersProxy = LendersInterface(\n            _createDynamicProxy(\n                settings().versionsRegistry().consts().LENDERS_LOGIC_NAME()\n            )\n        );\n        loanTermsConsensusProxy = LoanTermsConsensusInterface(\n            _createDynamicProxy(\n                settings().versionsRegistry().consts().LOAN_TERMS_CONSENSUS_LOGIC_NAME()\n            )\n        );\n        if (collateralToken == settings().ETH_ADDRESS()) {\n            loansProxy = LoansInterface(\n                _createDynamicProxy(\n                    settings()\n                        .versionsRegistry()\n                        .consts()\n                        .ETHER_COLLATERAL_LOANS_LOGIC_NAME()\n                )\n            );\n        } else {\n            loansProxy = LoansInterface(\n                _createDynamicProxy(\n                    settings()\n                        .versionsRegistry()\n                        .consts()\n                        .TOKEN_COLLATERAL_LOANS_LOGIC_NAME()\n                )\n            );\n        }\n    }\n\n    /**\n        @notice It initializes all the new proxies.\n        @param owner the owner address (or sender transaction).\n        @param tToken the tToken address.\n        @param borrowedToken the borrowed token address.\n        @param collateralToken the collateral token address.\n        @param pairAggregator the pair aggregator address to used in the new market.\n        @param lendingPoolProxy the new lending pool proxy instance.\n        @param interestConsensusProxy the new interest consensus proxy instance.\n        @param lendersProxy the new lenders proxy instance.\n        @param loanTermsConsensusProxy the new loan terms consensus proxy instance.\n        @param loansProxy the new loans proxy instance.\n     */\n    function _initializeProxies(\n        address owner,\n        address tToken,\n        address borrowedToken,\n        address collateralToken,\n        address pairAggregator,\n        LendingPoolInterface lendingPoolProxy,\n        InterestConsensusInterface interestConsensusProxy,\n        LendersInterface lendersProxy,\n        LoanTermsConsensusInterface loanTermsConsensusProxy,\n        LoansInterface loansProxy\n    ) internal {\n        address cTokenAddress = settings().getAssetSettings(borrowedToken).cTokenAddress;\n\n        // Initializing LendingPool\n        lendingPoolProxy.initialize(\n            tToken,\n            borrowedToken,\n            address(lendersProxy),\n            address(loansProxy),\n            cTokenAddress,\n            address(settings())\n        );\n        // Initializing InterestConsensus\n        interestConsensusProxy.initialize(\n            owner,\n            address(lendersProxy),\n            address(settings())\n        );\n        // Initializing Lenders\n        lendersProxy.initialize(\n            tToken,\n            address(lendingPoolProxy),\n            address(interestConsensusProxy),\n            address(settings())\n        );\n        // Initializing LoanTermsConsensus\n        loanTermsConsensusProxy.initialize(\n            owner,\n            address(loansProxy),\n            address(settings())\n        );\n\n        // Initializing Loans\n        loansProxy.initialize(\n            pairAggregator,\n            address(lendingPoolProxy),\n            address(loanTermsConsensusProxy),\n            address(settings()),\n            collateralToken\n        );\n    }\n}\n",
  "sourcePath": "/Users/sy/Documents/GitHub/teller-protocol-v1/contracts/base/MarketFactory.sol",
  "compiler": {
    "name": "solc",
    "version": "0.5.17+commit.d19bba13.Emscripten.clang"
  },
  "schemaVersion": "3.0.23",
  "updatedAt": "2020-09-06T02:15:12.301Z",
  "devdoc": {
    "author": "develop@teller.finance",
    "methods": {
      "createMarket(address,address,address)": {
        "details": "It uses the Settings.ETH_ADDRESS to represent the ETHER.",
        "params": {
          "borrowedToken": "the borrowed token address.",
          "collateralToken": "the collateral token address.",
          "tToken": "the TToken address."
        }
      },
      "existMarket(address,address)": {
        "params": {
          "borrowedToken": "the borrowed token address.",
          "collateralToken": "the collateral token address."
        },
        "return": "true if the market exists for the given borrowed/collateral tokens. Otherwise it returns false."
      },
      "getMarket(address,address)": {
        "params": {
          "borrowedToken": "the borrowed token address.",
          "collateralToken": "the collateral token address."
        },
        "return": "a struct with the contract addresses for the given market."
      },
      "initialize(address)": {
        "params": {
          "settingsAddress": "the settings contract address."
        }
      },
      "initialized()": {
        "return": "true if contract is initialized. Otherwise it returns false."
      },
      "notExistMarket(address,address)": {
        "params": {
          "borrowedToken": "the borrowed token address.",
          "collateralToken": "the collateral token address."
        },
        "return": "true if the market doesn't exist for the given borrowed/collateral tokens. Otherwise it returns false."
      },
      "removeMarket(address,address)": {
        "params": {
          "borrowedToken": "the borrowed token address.",
          "collateralToken": "the collateral token address."
        }
      }
    }
  },
  "userdoc": {
    "methods": {
      "createMarket(address,address,address)": {
        "notice": "It creates a new market for a given TToken and borrowed/collateral tokens."
      },
      "existMarket(address,address)": {
        "notice": "It tests whether a market exists or not for a given borrowed/collateral tokens."
      },
      "getMarket(address,address)": {
        "notice": "It gets the current addresses for a given borrowed/collateral token."
      },
      "initialize(address)": {
        "notice": "It initializes this market factory instance."
      },
      "initialized()": {
        "notice": "Gets if the contract is initialized."
      },
      "notExistMarket(address,address)": {
        "notice": "It tests whether a market exists or not for a given borrowed/collateral tokens."
      },
      "removeMarket(address,address)": {
        "notice": "It removes a current market for a given borrowed/collateral tokens."
      },
      "settings()": {
        "notice": "The settings contract."
      }
    },
    "notice": "This contract offers functions to manage markets."
  }
}