{
  "contractName": "MarketsState",
  "abi": [
    {
      "anonymous": false,
      "inputs": [
        {
          "indexed": true,
          "internalType": "address",
          "name": "account",
          "type": "address"
        }
      ],
      "name": "WhitelistAdminAdded",
      "type": "event"
    },
    {
      "anonymous": false,
      "inputs": [
        {
          "indexed": true,
          "internalType": "address",
          "name": "account",
          "type": "address"
        }
      ],
      "name": "WhitelistAdminRemoved",
      "type": "event"
    },
    {
      "anonymous": false,
      "inputs": [
        {
          "indexed": true,
          "internalType": "address",
          "name": "account",
          "type": "address"
        }
      ],
      "name": "WhitelistedAdded",
      "type": "event"
    },
    {
      "anonymous": false,
      "inputs": [
        {
          "indexed": true,
          "internalType": "address",
          "name": "account",
          "type": "address"
        }
      ],
      "name": "WhitelistedRemoved",
      "type": "event"
    },
    {
      "constant": false,
      "inputs": [
        {
          "internalType": "address",
          "name": "account",
          "type": "address"
        }
      ],
      "name": "addWhitelistAdmin",
      "outputs": [],
      "payable": false,
      "stateMutability": "nonpayable",
      "type": "function"
    },
    {
      "constant": false,
      "inputs": [
        {
          "internalType": "address",
          "name": "account",
          "type": "address"
        }
      ],
      "name": "addWhitelisted",
      "outputs": [],
      "payable": false,
      "stateMutability": "nonpayable",
      "type": "function"
    },
    {
      "constant": true,
      "inputs": [],
      "name": "initialized",
      "outputs": [
        {
          "internalType": "bool",
          "name": "value",
          "type": "bool"
        }
      ],
      "payable": false,
      "stateMutability": "view",
      "type": "function"
    },
    {
      "constant": true,
      "inputs": [
        {
          "internalType": "address",
          "name": "account",
          "type": "address"
        }
      ],
      "name": "isWhitelistAdmin",
      "outputs": [
        {
          "internalType": "bool",
          "name": "",
          "type": "bool"
        }
      ],
      "payable": false,
      "stateMutability": "view",
      "type": "function"
    },
    {
      "constant": true,
      "inputs": [
        {
          "internalType": "address",
          "name": "account",
          "type": "address"
        }
      ],
      "name": "isWhitelisted",
      "outputs": [
        {
          "internalType": "bool",
          "name": "",
          "type": "bool"
        }
      ],
      "payable": false,
      "stateMutability": "view",
      "type": "function"
    },
    {
      "constant": true,
      "inputs": [
        {
          "internalType": "address",
          "name": "",
          "type": "address"
        },
        {
          "internalType": "address",
          "name": "",
          "type": "address"
        }
      ],
      "name": "markets",
      "outputs": [
        {
          "internalType": "uint256",
          "name": "totalSupplied",
          "type": "uint256"
        },
        {
          "internalType": "uint256",
          "name": "totalRepaid",
          "type": "uint256"
        },
        {
          "internalType": "uint256",
          "name": "totalBorrowed",
          "type": "uint256"
        }
      ],
      "payable": false,
      "stateMutability": "view",
      "type": "function"
    },
    {
      "constant": false,
      "inputs": [
        {
          "internalType": "address",
          "name": "account",
          "type": "address"
        }
      ],
      "name": "removeWhitelisted",
      "outputs": [],
      "payable": false,
      "stateMutability": "nonpayable",
      "type": "function"
    },
    {
      "constant": false,
      "inputs": [],
      "name": "renounceWhitelistAdmin",
      "outputs": [],
      "payable": false,
      "stateMutability": "nonpayable",
      "type": "function"
    },
    {
      "constant": false,
      "inputs": [],
      "name": "renounceWhitelisted",
      "outputs": [],
      "payable": false,
      "stateMutability": "nonpayable",
      "type": "function"
    },
    {
      "constant": true,
      "inputs": [],
      "name": "settings",
      "outputs": [
        {
          "internalType": "contract SettingsInterface",
          "name": "",
          "type": "address"
        }
      ],
      "payable": false,
      "stateMutability": "view",
      "type": "function"
    },
    {
      "constant": false,
      "inputs": [
        {
          "internalType": "address",
          "name": "borrowedAsset",
          "type": "address"
        },
        {
          "internalType": "address",
          "name": "collateralAsset",
          "type": "address"
        },
        {
          "internalType": "uint256",
          "name": "amount",
          "type": "uint256"
        }
      ],
      "name": "increaseRepayment",
      "outputs": [],
      "payable": false,
      "stateMutability": "nonpayable",
      "type": "function"
    },
    {
      "constant": false,
      "inputs": [
        {
          "internalType": "address",
          "name": "borrowedAsset",
          "type": "address"
        },
        {
          "internalType": "address",
          "name": "collateralAsset",
          "type": "address"
        },
        {
          "internalType": "uint256",
          "name": "amount",
          "type": "uint256"
        }
      ],
      "name": "increaseSupply",
      "outputs": [],
      "payable": false,
      "stateMutability": "nonpayable",
      "type": "function"
    },
    {
      "constant": false,
      "inputs": [
        {
          "internalType": "address",
          "name": "borrowedAsset",
          "type": "address"
        },
        {
          "internalType": "address",
          "name": "collateralAsset",
          "type": "address"
        },
        {
          "internalType": "uint256",
          "name": "amount",
          "type": "uint256"
        }
      ],
      "name": "decreaseSupply",
      "outputs": [],
      "payable": false,
      "stateMutability": "nonpayable",
      "type": "function"
    },
    {
      "constant": false,
      "inputs": [
        {
          "internalType": "address",
          "name": "borrowedAsset",
          "type": "address"
        },
        {
          "internalType": "address",
          "name": "collateralAsset",
          "type": "address"
        },
        {
          "internalType": "uint256",
          "name": "amount",
          "type": "uint256"
        }
      ],
      "name": "increaseBorrow",
      "outputs": [],
      "payable": false,
      "stateMutability": "nonpayable",
      "type": "function"
    },
    {
      "constant": true,
      "inputs": [
        {
          "internalType": "address",
          "name": "borrowedAsset",
          "type": "address"
        },
        {
          "internalType": "address",
          "name": "collateralAsset",
          "type": "address"
        }
      ],
      "name": "getSupplyToDebt",
      "outputs": [
        {
          "internalType": "uint256",
          "name": "",
          "type": "uint256"
        }
      ],
      "payable": false,
      "stateMutability": "view",
      "type": "function"
    },
    {
      "constant": true,
      "inputs": [
        {
          "internalType": "address",
          "name": "borrowedAsset",
          "type": "address"
        },
        {
          "internalType": "address",
          "name": "collateralAsset",
          "type": "address"
        },
        {
          "internalType": "uint256",
          "name": "loanAmount",
          "type": "uint256"
        }
      ],
      "name": "getSupplyToDebtFor",
      "outputs": [
        {
          "internalType": "uint256",
          "name": "",
          "type": "uint256"
        }
      ],
      "payable": false,
      "stateMutability": "view",
      "type": "function"
    },
    {
      "constant": true,
      "inputs": [
        {
          "internalType": "address",
          "name": "borrowedAsset",
          "type": "address"
        },
        {
          "internalType": "address",
          "name": "collateralAsset",
          "type": "address"
        }
      ],
      "name": "getMarket",
      "outputs": [
        {
          "components": [
            {
              "internalType": "uint256",
              "name": "totalSupplied",
              "type": "uint256"
            },
            {
              "internalType": "uint256",
              "name": "totalRepaid",
              "type": "uint256"
            },
            {
              "internalType": "uint256",
              "name": "totalBorrowed",
              "type": "uint256"
            }
          ],
          "internalType": "struct MarketStateLib.MarketState",
          "name": "",
          "type": "tuple"
        }
      ],
      "payable": false,
      "stateMutability": "view",
      "type": "function"
    },
    {
      "constant": false,
      "inputs": [
        {
          "internalType": "address",
          "name": "settingsAddress",
          "type": "address"
        }
      ],
      "name": "initialize",
      "outputs": [],
      "payable": false,
      "stateMutability": "nonpayable",
      "type": "function"
    }
  ],
  "bytecode": "0x6080604052611474806100136000396000f3fe608060405234801561001057600080fd5b50600436106101165760003560e01c8063847d4715116100a2578063d6cd947311610071578063d6cd947314610230578063db63323e14610238578063e06174e414610258578063edd2f0bb1461026d578063f1eefcbb1461028057610116565b8063847d4715146101d5578063bb5f747b146101f7578063c4d66de81461020a578063c7bbb1131461021d57610116565b80634c5a628c116100e95780634c5a628c1461017457806362e269ef1461017c57806367ef06aa1461018f578063714af34b146101a25780637362d9c8146101c257610116565b806310154bad1461011b578063158ef93e14610130578063291d95491461014e5780633af32abf14610161575b600080fd5b61012e610129366004610dce565b610293565b005b6101386102cf565b6040516101459190611286565b60405180910390f35b61012e61015c366004610dce565b6102ee565b61013861016f366004610dce565b61031e565b61012e610339565b61012e61018a366004610e26565b61034b565b61012e61019d366004610e26565b6103d0565b6101b56101b0366004610dec565b610450565b6040516101459190611363565b61012e6101d0366004610dce565b61048d565b6101e86101e3366004610dec565b6104bd565b6040516101459392919061137f565b610138610205366004610dce565b6104e9565b61012e610218366004610dce565b6104fc565b61012e61022b366004610e26565b6105ed565b61012e61066d565b61024b610246366004610e26565b61067d565b6040516101459190611371565b6102606106a1565b6040516101459190611294565b61012e61027b366004610e26565b6106c3565b61024b61028e366004610dec565b610743565b61029e61020561075e565b6102c35760405162461bcd60e51b81526004016102ba90611323565b60405180910390fd5b6102cc81610762565b50565b6000806040516102de90611270565b6040519081900390205492915050565b6102f961020561075e565b6103155760405162461bcd60e51b81526004016102ba90611323565b6102cc816107aa565b600061033160668363ffffffff6107f216565b90505b919050565b61034961034461075e565b61083a565b565b61035661016f61075e565b6103725760405162461bcd60e51b81526004016102ba90611333565b61037a6102cf565b6103965760405162461bcd60e51b81526004016102ba90611343565b6001600160a01b0380841660009081526099602090815260408083209386168352929052206103cb908263ffffffff61088216565b505050565b6103db61016f61075e565b6103f75760405162461bcd60e51b81526004016102ba90611333565b6103ff6102cf565b61041b5760405162461bcd60e51b81526004016102ba90611343565b6001600160a01b0380841660009081526099602090815260408083209386168352929052206103cb908263ffffffff6108a316565b610458610d97565b61046283836108bb565b6040805160608101825282548152600183015460208201526002909201549082015290505b92915050565b61049861020561075e565b6104b45760405162461bcd60e51b81526004016102ba90611323565b6102cc816108e5565b609960209081526000928352604080842090915290825290208054600182015460029092015490919083565b600061033160338363ffffffff6107f216565b600054610100900460ff1680610515575061051561092d565b80610523575060005460ff16155b61053f5760405162461bcd60e51b81526004016102ba90611313565b600054610100900460ff1615801561056a576000805460ff1961ff0019909116610100171660011790555b6105726102cf565b1561058f5760405162461bcd60e51b81526004016102ba90611353565b6105a1826001600160a01b0316610933565b6105bd5760405162461bcd60e51b81526004016102ba906112d3565b6105c63361096c565b6105ce6109e3565b6105d782610a01565b80156105e9576000805461ff00191690555b5050565b6105f861016f61075e565b6106145760405162461bcd60e51b81526004016102ba90611333565b61061c6102cf565b6106385760405162461bcd60e51b81526004016102ba90611343565b6001600160a01b0380841660009081526099602090815260408083209386168352929052206103cb908263ffffffff610a6a16565b61034961067861075e565b6107aa565b60006106998261068d86866108bb565b9063ffffffff610a8b16565b949350505050565b60008060006040516106b29061127b565b604051908190039020549250505090565b6106ce61016f61075e565b6106ea5760405162461bcd60e51b81526004016102ba90611333565b6106f26102cf565b61070e5760405162461bcd60e51b81526004016102ba90611343565b6001600160a01b0380841660009081526099602090815260408083209386168352929052206103cb908263ffffffff610aed16565b600061075761075284846108bb565b610aff565b9392505050565b3390565b61077360668263ffffffff610b3916565b6040516001600160a01b038216907fee1504a83b6d4a361f4c1dc78ab59bfa30d6a3b6612c403e86bb01ef2984295f90600090a250565b6107bb60668263ffffffff610b8516565b6040516001600160a01b038216907f270d9b30cf5b0793bbfd54c9d5b94aeb49462b8148399000265144a8722da6b690600090a250565b60006001600160a01b03821661081a5760405162461bcd60e51b81526004016102ba90611303565b506001600160a01b03166000908152602091909152604090205460ff1690565b61084b60338263ffffffff610b8516565b6040516001600160a01b038216907f0a8eb35e5ca14b3d6f28e4abf2f128dbab231a58b56e89beb5d636115001e16590600090a250565b6001820154610897908263ffffffff610bcd16565b82600101819055505050565b81546108b5908263ffffffff610bcd16565b90915550565b6001600160a01b039182166000908152609960209081526040808320939094168252919091522090565b6108f660338263ffffffff610b3916565b6040516001600160a01b038216907f22380c05984257a1cb900161c713dd71d39e74820f1aea43bd3f1bdd2096129990600090a250565b303b1590565b6000813f7fc5d2460186f7233c927e7db2dcc703c0e500b653ca82273b7bfad8045d85a470818114801590610699575050151592915050565b600054610100900460ff1680610985575061098561092d565b80610993575060005460ff16155b6109af5760405162461bcd60e51b81526004016102ba90611313565b600054610100900460ff161580156109da576000805460ff1961ff0019909116610100171660011790555b6105d782610bf2565b60006040516109f190611270565b6040519081900390206001905550565b6000610a0b6106a1565b6001600160a01b031614610a4c57610a2b816001600160a01b0316610933565b610a475760405162461bcd60e51b81526004016102ba906112d3565b6102cc565b6000604051610a5a9061127b565b6040519081900390208290555050565b6002820154610a7f908263ffffffff610bcd16565b82600201819055505050565b8154600090610a9c57506000610487565b6107578360000154610ae1612710610ad586610ac989600101548a60020154610c7690919063ffffffff16565b9063ffffffff610bcd16565b9063ffffffff610cb816565b9063ffffffff610cf216565b81546108b5908263ffffffff610c7616565b8054600090610b1057506000610334565b6103318260000154610ae1612710610ad586600101548760020154610c7690919063ffffffff16565b610b4382826107f2565b15610b605760405162461bcd60e51b81526004016102ba906112b3565b6001600160a01b0316600090815260209190915260409020805460ff19166001179055565b610b8f82826107f2565b610bab5760405162461bcd60e51b81526004016102ba906112e3565b6001600160a01b0316600090815260209190915260409020805460ff19169055565b6000828201838110156107575760405162461bcd60e51b81526004016102ba906112c3565b600054610100900460ff1680610c0b5750610c0b61092d565b80610c19575060005460ff16155b610c355760405162461bcd60e51b81526004016102ba90611313565b600054610100900460ff16158015610c60576000805460ff1961ff0019909116610100171660011790555b610c69826104e9565b6105d7576105d7826108e5565b600061075783836040518060400160405280601e81526020017f536166654d6174683a207375627472616374696f6e206f766572666c6f770000815250610d34565b600082610cc757506000610487565b82820282848281610cd457fe5b04146107575760405162461bcd60e51b81526004016102ba906112f3565b600061075783836040518060400160405280601a81526020017f536166654d6174683a206469766973696f6e206279207a65726f000000000000815250610d60565b60008184841115610d585760405162461bcd60e51b81526004016102ba91906112a2565b505050900390565b60008183610d815760405162461bcd60e51b81526004016102ba91906112a2565b506000838581610d8d57fe5b0495945050505050565b60405180606001604052806000815260200160008152602001600081525090565b803561048781611414565b803561048781611428565b600060208284031215610de057600080fd5b60006106998484610db8565b60008060408385031215610dff57600080fd5b6000610e0b8585610db8565b9250506020610e1c85828601610db8565b9150509250929050565b600080600060608486031215610e3b57600080fd5b6000610e478686610db8565b9350506020610e5886828701610db8565b9250506040610e6986828701610dc3565b9150509250925092565b610e7c816113bf565b82525050565b610e7c816113d3565b6000610e96826113a7565b610ea081856113ab565b9350610eb08185602086016113de565b610eb98161140a565b9093019392505050565b6000610ed0601c83610334565b7f54496e697469616c697a61626c652e6973496e697469616c697a6564000000008152601c0192915050565b6000610f09601f836113ab565b7f526f6c65733a206163636f756e7420616c72656164792068617320726f6c6500815260200192915050565b6000610f42601b836113ab565b7f536166654d6174683a206164646974696f6e206f766572666c6f770000000000815260200192915050565b6000610f7b601b836113ab565b7f53455454494e47535f4d5553545f42455f415f434f4e54524143540000000000815260200192915050565b6000610fb46021836113ab565b7f526f6c65733a206163636f756e7420646f6573206e6f74206861766520726f6c8152606560f81b602082015260400192915050565b6000610ff76021836113ab565b7f536166654d6174683a206d756c7469706c69636174696f6e206f766572666c6f8152607760f81b602082015260400192915050565b600061103a6022836113ab565b7f526f6c65733a206163636f756e7420697320746865207a65726f206164647265815261737360f01b602082015260400192915050565b600061107e602e836113ab565b7f436f6e747261637420696e7374616e63652068617320616c726561647920626581526d195b881a5b9a5d1a585b1a5e995960921b602082015260400192915050565b60006110ce6040836113ab565b7f57686974656c69737441646d696e526f6c653a2063616c6c657220646f65732081527f6e6f742068617665207468652057686974656c69737441646d696e20726f6c65602082015260400192915050565b600061112d603a836113ab565b7f57686974656c6973746564526f6c653a2063616c6c657220646f6573206e6f7481527f2068617665207468652057686974656c697374656420726f6c65000000000000602082015260400192915050565b600061118c601883610334565b7f426173655570677261646561626c652e73657474696e67730000000000000000815260180192915050565b60006111c56018836113ab565b7f434f4e54524143545f4e4f545f494e495449414c495a45440000000000000000815260200192915050565b60006111fe601c836113ab565b7f434f4e54524143545f414c52454144595f494e495449414c495a454400000000815260200192915050565b8051606083019061123b8482611267565b50602082015161124e6020850182611267565b5060408201516112616040850182611267565b50505050565b610e7c816113d0565b600061048782610ec3565b60006104878261117f565b602081016104878284610e73565b602081016104878284610e82565b602080825281016107578184610e8b565b6020808252810161033181610efc565b6020808252810161033181610f35565b6020808252810161033181610f6e565b6020808252810161033181610fa7565b6020808252810161033181610fea565b602080825281016103318161102d565b6020808252810161033181611071565b60208082528101610331816110c1565b6020808252810161033181611120565b60208082528101610331816111b8565b60208082528101610331816111f1565b60608101610487828461122a565b602081016104878284611267565b6060810161138d8286611267565b61139a6020830185611267565b6106996040830184611267565b5190565b90815260200190565b6000610331826113c4565b151590565b6001600160a01b031690565b90565b6000610331826113b4565b60005b838110156113f95781810151838201526020016113e1565b838111156112615750506000910152565b601f01601f191690565b61141d816113b4565b81146102cc57600080fd5b61141d816113d056fea365627a7a723158202402f37701f933848103c3de89d85c381ccc823f8567c305b44cdce4547c785c6c6578706572696d656e74616cf564736f6c63430005110040",
  "source": "pragma solidity 0.5.17;\npragma experimental ABIEncoderV2;\n\n// Libraries\nimport \"@openzeppelin/contracts-ethereum-package/contracts/utils/Address.sol\";\nimport \"@openzeppelin/contracts-ethereum-package/contracts/access/roles/WhitelistedRole.sol\";\n\n// Contracts\nimport \"./BaseUpgradeable.sol\";\nimport \"./TInitializable.sol\";\n\n// Interfaces\nimport \"../interfaces/MarketsStateInterface.sol\";\nimport \"../util/MarketStateLib.sol\";\n\n/*****************************************************************************************************/\n/**                                             WARNING                                             **/\n/**                                  THIS CONTRACT IS UPGRADEABLE!                                  **/\n/**  ---------------------------------------------------------------------------------------------  **/\n/**  Do NOT change the order of or PREPEND any storage variables to this or new versions of this    **/\n/**  contract as this will cause the the storage slots to be overwritten on the proxy contract!!    **/\n/**                                                                                                 **/\n/**  Visit https://docs.openzeppelin.com/upgrades/2.6/proxies#upgrading-via-the-proxy-pattern for   **/\n/**  more information.                                                                              **/\n/*****************************************************************************************************/\n/**\n    @notice This contract is used to store market data.\n\n    @author develop@teller.finance\n */\ncontract MarketsState is\n    MarketsStateInterface,\n    TInitializable,\n    WhitelistedRole,\n    BaseUpgradeable\n{\n    using Address for address;\n    using MarketStateLib for MarketStateLib.MarketState;\n\n    /** Constants */\n\n    /* State Variables */\n\n    /**\n        @notice It maps a lent token => collateral token => Market state.\n        Example:\n            address(DAI) => address(LINK) => MarketState\n            address(DAI) => address(ETH) => MarketState\n     */\n    mapping(address => mapping(address => MarketStateLib.MarketState)) public markets;\n\n    /**\n        @notice It increases the repayment amount for a given market.\n        @notice This function is called every new repayment is received.\n        @param borrowedAsset borrowed asset address.\n        @param collateralAsset collateral asset address.\n        @param amount amount to add.\n     */\n    function increaseRepayment(\n        address borrowedAsset,\n        address collateralAsset,\n        uint256 amount\n    ) external onlyWhitelisted() isInitialized() {\n        markets[borrowedAsset][collateralAsset].increaseRepayment(amount);\n    }\n\n    /**\n        @notice It increases the supply amount for a given market.\n        @notice This function is called every new deposit (Lenders) is received.\n        @param borrowedAsset borrowed asset address.\n        @param collateralAsset collateral asset address.\n        @param amount amount to add.\n     */\n    function increaseSupply(\n        address borrowedAsset,\n        address collateralAsset,\n        uint256 amount\n    ) external onlyWhitelisted() isInitialized() {\n        markets[borrowedAsset][collateralAsset].increaseSupply(amount);\n    }\n\n    /**\n        @notice It decreases the supply amount for a given market.\n        @notice This function is called every new withdraw (Lenders) is done.\n        @param borrowedAsset borrowed asset address.\n        @param collateralAsset collateral asset address.\n        @param amount amount to decrease.\n     */\n    function decreaseSupply(\n        address borrowedAsset,\n        address collateralAsset,\n        uint256 amount\n    ) external onlyWhitelisted() isInitialized() {\n        markets[borrowedAsset][collateralAsset].decreaseSupply(amount);\n    }\n\n    /**\n        @notice It increases the borrowed amount for a given market.\n        @notice This function is called every new loan is taken out\n        @param borrowedAsset borrowed asset address.\n        @param collateralAsset collateral asset address.\n        @param amount amount to add.\n     */\n    function increaseBorrow(\n        address borrowedAsset,\n        address collateralAsset,\n        uint256 amount\n    ) external onlyWhitelisted() isInitialized() {\n        markets[borrowedAsset][collateralAsset].increaseBorrow(amount);\n    }\n\n    /**\n        @notice It gets the current supply-to-debt (StD) ratio for a given market.\n        @param borrowedAsset borrowed asset address.\n        @param collateralAsset collateral asset address.\n        @return the supply-to-debt ratio value.\n     */\n    function getSupplyToDebt(address borrowedAsset, address collateralAsset)\n        external\n        view\n        returns (uint256)\n    {\n        return _getMarket(borrowedAsset, collateralAsset).getSupplyToDebt();\n    }\n\n    /**\n        @notice It gets the supply-to-debt (StD) ratio for a given market, including a new loan amount.\n        @param borrowedAsset borrowed asset address.\n        @param collateralAsset collateral asset address.\n        @param loanAmount a new loan amount to consider in the ratio.\n        @return the supply-to-debt ratio value.\n     */\n    function getSupplyToDebtFor(\n        address borrowedAsset,\n        address collateralAsset,\n        uint256 loanAmount\n    ) external view returns (uint256) {\n        return _getMarket(borrowedAsset, collateralAsset).getSupplyToDebtFor(loanAmount);\n    }\n\n    /**\n        @notice It gets the current market state.\n        @param borrowedAsset borrowed asset address.\n        @param collateralAsset collateral asset address.\n        @return the current market state.\n     */\n    function getMarket(address borrowedAsset, address collateralAsset)\n        external\n        view\n        returns (MarketStateLib.MarketState memory)\n    {\n        return _getMarket(borrowedAsset, collateralAsset);\n    }\n\n    /**\n        @notice It initializes this Markets State instance.\n        @param settingsAddress settings address.\n     */\n    function initialize(address settingsAddress) public initializer() isNotInitialized() {\n        require(settingsAddress.isContract(), \"SETTINGS_MUST_BE_A_CONTRACT\");\n\n        WhitelistedRole.initialize(msg.sender);\n        TInitializable._initialize();\n\n        _setSettings(settingsAddress);\n    }\n\n    /** Internal Functions */\n\n    /**\n        @notice It gets the current market state.\n        @param borrowedAsset borrowed asset address.\n        @param collateralAsset collateral asset address.\n        @return the current market state.\n     */\n    function _getMarket(address borrowedAsset, address collateralAsset)\n        internal\n        view\n        returns (MarketStateLib.MarketState storage)\n    {\n        return markets[borrowedAsset][collateralAsset];\n    }\n}\n",
  "sourcePath": "/Users/sy/Documents/GitHub/teller-protocol-v1/contracts/base/MarketsState.sol",
  "compiler": {
    "name": "solc",
    "version": "0.5.17+commit.d19bba13.Emscripten.clang"
  },
  "schemaVersion": "3.0.23",
  "updatedAt": "2020-09-06T02:15:12.313Z",
  "devdoc": {
    "author": "develop@teller.finance",
    "methods": {
      "decreaseSupply(address,address,uint256)": {
        "params": {
          "amount": "amount to decrease.",
          "borrowedAsset": "borrowed asset address.",
          "collateralAsset": "collateral asset address."
        }
      },
      "getMarket(address,address)": {
        "params": {
          "borrowedAsset": "borrowed asset address.",
          "collateralAsset": "collateral asset address."
        },
        "return": "the current market state."
      },
      "getSupplyToDebt(address,address)": {
        "params": {
          "borrowedAsset": "borrowed asset address.",
          "collateralAsset": "collateral asset address."
        },
        "return": "the supply-to-debt ratio value."
      },
      "getSupplyToDebtFor(address,address,uint256)": {
        "params": {
          "borrowedAsset": "borrowed asset address.",
          "collateralAsset": "collateral asset address.",
          "loanAmount": "a new loan amount to consider in the ratio."
        },
        "return": "the supply-to-debt ratio value."
      },
      "increaseBorrow(address,address,uint256)": {
        "params": {
          "amount": "amount to add.",
          "borrowedAsset": "borrowed asset address.",
          "collateralAsset": "collateral asset address."
        }
      },
      "increaseRepayment(address,address,uint256)": {
        "params": {
          "amount": "amount to add.",
          "borrowedAsset": "borrowed asset address.",
          "collateralAsset": "collateral asset address."
        }
      },
      "increaseSupply(address,address,uint256)": {
        "params": {
          "amount": "amount to add.",
          "borrowedAsset": "borrowed asset address.",
          "collateralAsset": "collateral asset address."
        }
      },
      "initialize(address)": {
        "params": {
          "settingsAddress": "settings address."
        }
      },
      "initialized()": {
        "return": "true if contract is initialized. Otherwise it returns false."
      }
    }
  },
  "userdoc": {
    "methods": {
      "decreaseSupply(address,address,uint256)": {
        "notice": "It decreases the supply amount for a given market.This function is called every new withdraw (Lenders) is done."
      },
      "getMarket(address,address)": {
        "notice": "It gets the current market state."
      },
      "getSupplyToDebt(address,address)": {
        "notice": "It gets the current supply-to-debt (StD) ratio for a given market."
      },
      "getSupplyToDebtFor(address,address,uint256)": {
        "notice": "It gets the supply-to-debt (StD) ratio for a given market, including a new loan amount."
      },
      "increaseBorrow(address,address,uint256)": {
        "notice": "It increases the borrowed amount for a given market.This function is called every new loan is taken out"
      },
      "increaseRepayment(address,address,uint256)": {
        "notice": "It increases the repayment amount for a given market.This function is called every new repayment is received."
      },
      "increaseSupply(address,address,uint256)": {
        "notice": "It increases the supply amount for a given market.This function is called every new deposit (Lenders) is received."
      },
      "initialize(address)": {
        "notice": "It initializes this Markets State instance."
      },
      "initialized()": {
        "notice": "Gets if the contract is initialized."
      },
      "settings()": {
        "notice": "The settings contract."
      }
    },
    "notice": "This contract is used to store market data."
  }
}