{
  "contractName": "Mock",
  "abi": [
    {
      "payable": true,
      "stateMutability": "payable",
      "type": "fallback"
    },
    {
      "constant": true,
      "inputs": [],
      "name": "DEFAULT_FALLBACK_VALUE",
      "outputs": [
        {
          "internalType": "bytes",
          "name": "",
          "type": "bytes"
        }
      ],
      "payable": false,
      "stateMutability": "view",
      "type": "function"
    },
    {
      "constant": true,
      "inputs": [],
      "name": "MOCKS_LIST_END",
      "outputs": [
        {
          "internalType": "bytes",
          "name": "",
          "type": "bytes"
        }
      ],
      "payable": false,
      "stateMutability": "view",
      "type": "function"
    },
    {
      "constant": true,
      "inputs": [],
      "name": "MOCKS_LIST_END_HASH",
      "outputs": [
        {
          "internalType": "bytes32",
          "name": "",
          "type": "bytes32"
        }
      ],
      "payable": false,
      "stateMutability": "view",
      "type": "function"
    },
    {
      "constant": true,
      "inputs": [],
      "name": "MOCKS_LIST_START",
      "outputs": [
        {
          "internalType": "bytes32",
          "name": "",
          "type": "bytes32"
        }
      ],
      "payable": false,
      "stateMutability": "view",
      "type": "function"
    },
    {
      "constant": true,
      "inputs": [],
      "name": "SENTINEL_ANY_MOCKS",
      "outputs": [
        {
          "internalType": "bytes4",
          "name": "",
          "type": "bytes4"
        }
      ],
      "payable": false,
      "stateMutability": "view",
      "type": "function"
    },
    {
      "constant": false,
      "inputs": [
        {
          "internalType": "bytes",
          "name": "response",
          "type": "bytes"
        }
      ],
      "name": "givenAnyReturn",
      "outputs": [],
      "payable": false,
      "stateMutability": "nonpayable",
      "type": "function"
    },
    {
      "constant": false,
      "inputs": [
        {
          "internalType": "address",
          "name": "response",
          "type": "address"
        }
      ],
      "name": "givenAnyReturnAddress",
      "outputs": [],
      "payable": false,
      "stateMutability": "nonpayable",
      "type": "function"
    },
    {
      "constant": false,
      "inputs": [
        {
          "internalType": "bool",
          "name": "response",
          "type": "bool"
        }
      ],
      "name": "givenAnyReturnBool",
      "outputs": [],
      "payable": false,
      "stateMutability": "nonpayable",
      "type": "function"
    },
    {
      "constant": false,
      "inputs": [
        {
          "internalType": "uint256",
          "name": "response",
          "type": "uint256"
        }
      ],
      "name": "givenAnyReturnUint",
      "outputs": [],
      "payable": false,
      "stateMutability": "nonpayable",
      "type": "function"
    },
    {
      "constant": false,
      "inputs": [],
      "name": "givenAnyRevert",
      "outputs": [],
      "payable": false,
      "stateMutability": "nonpayable",
      "type": "function"
    },
    {
      "constant": false,
      "inputs": [
        {
          "internalType": "string",
          "name": "message",
          "type": "string"
        }
      ],
      "name": "givenAnyRevertWithMessage",
      "outputs": [],
      "payable": false,
      "stateMutability": "nonpayable",
      "type": "function"
    },
    {
      "constant": false,
      "inputs": [],
      "name": "givenAnyRunOutOfGas",
      "outputs": [],
      "payable": false,
      "stateMutability": "nonpayable",
      "type": "function"
    },
    {
      "constant": false,
      "inputs": [
        {
          "internalType": "bytes",
          "name": "call",
          "type": "bytes"
        },
        {
          "internalType": "bytes",
          "name": "response",
          "type": "bytes"
        }
      ],
      "name": "givenCalldataReturn",
      "outputs": [],
      "payable": false,
      "stateMutability": "nonpayable",
      "type": "function"
    },
    {
      "constant": false,
      "inputs": [
        {
          "internalType": "bytes",
          "name": "call",
          "type": "bytes"
        },
        {
          "internalType": "address",
          "name": "response",
          "type": "address"
        }
      ],
      "name": "givenCalldataReturnAddress",
      "outputs": [],
      "payable": false,
      "stateMutability": "nonpayable",
      "type": "function"
    },
    {
      "constant": false,
      "inputs": [
        {
          "internalType": "bytes",
          "name": "call",
          "type": "bytes"
        },
        {
          "internalType": "bool",
          "name": "response",
          "type": "bool"
        }
      ],
      "name": "givenCalldataReturnBool",
      "outputs": [],
      "payable": false,
      "stateMutability": "nonpayable",
      "type": "function"
    },
    {
      "constant": false,
      "inputs": [
        {
          "internalType": "bytes",
          "name": "call",
          "type": "bytes"
        },
        {
          "internalType": "uint256",
          "name": "response",
          "type": "uint256"
        }
      ],
      "name": "givenCalldataReturnUint",
      "outputs": [],
      "payable": false,
      "stateMutability": "nonpayable",
      "type": "function"
    },
    {
      "constant": false,
      "inputs": [
        {
          "internalType": "bytes",
          "name": "call",
          "type": "bytes"
        }
      ],
      "name": "givenCalldataRevert",
      "outputs": [],
      "payable": false,
      "stateMutability": "nonpayable",
      "type": "function"
    },
    {
      "constant": false,
      "inputs": [
        {
          "internalType": "bytes",
          "name": "call",
          "type": "bytes"
        },
        {
          "internalType": "string",
          "name": "message",
          "type": "string"
        }
      ],
      "name": "givenCalldataRevertWithMessage",
      "outputs": [],
      "payable": false,
      "stateMutability": "nonpayable",
      "type": "function"
    },
    {
      "constant": false,
      "inputs": [
        {
          "internalType": "bytes",
          "name": "call",
          "type": "bytes"
        }
      ],
      "name": "givenCalldataRunOutOfGas",
      "outputs": [],
      "payable": false,
      "stateMutability": "nonpayable",
      "type": "function"
    },
    {
      "constant": false,
      "inputs": [
        {
          "internalType": "bytes",
          "name": "call",
          "type": "bytes"
        },
        {
          "internalType": "bytes",
          "name": "response",
          "type": "bytes"
        }
      ],
      "name": "givenMethodReturn",
      "outputs": [],
      "payable": false,
      "stateMutability": "nonpayable",
      "type": "function"
    },
    {
      "constant": false,
      "inputs": [
        {
          "internalType": "bytes",
          "name": "call",
          "type": "bytes"
        },
        {
          "internalType": "address",
          "name": "response",
          "type": "address"
        }
      ],
      "name": "givenMethodReturnAddress",
      "outputs": [],
      "payable": false,
      "stateMutability": "nonpayable",
      "type": "function"
    },
    {
      "constant": false,
      "inputs": [
        {
          "internalType": "bytes",
          "name": "call",
          "type": "bytes"
        },
        {
          "internalType": "bool",
          "name": "response",
          "type": "bool"
        }
      ],
      "name": "givenMethodReturnBool",
      "outputs": [],
      "payable": false,
      "stateMutability": "nonpayable",
      "type": "function"
    },
    {
      "constant": false,
      "inputs": [
        {
          "internalType": "bytes",
          "name": "call",
          "type": "bytes"
        },
        {
          "internalType": "uint256",
          "name": "response",
          "type": "uint256"
        }
      ],
      "name": "givenMethodReturnUint",
      "outputs": [],
      "payable": false,
      "stateMutability": "nonpayable",
      "type": "function"
    },
    {
      "constant": false,
      "inputs": [
        {
          "internalType": "bytes",
          "name": "call",
          "type": "bytes"
        }
      ],
      "name": "givenMethodRevert",
      "outputs": [],
      "payable": false,
      "stateMutability": "nonpayable",
      "type": "function"
    },
    {
      "constant": false,
      "inputs": [
        {
          "internalType": "bytes",
          "name": "call",
          "type": "bytes"
        },
        {
          "internalType": "string",
          "name": "message",
          "type": "string"
        }
      ],
      "name": "givenMethodRevertWithMessage",
      "outputs": [],
      "payable": false,
      "stateMutability": "nonpayable",
      "type": "function"
    },
    {
      "constant": false,
      "inputs": [
        {
          "internalType": "bytes",
          "name": "call",
          "type": "bytes"
        }
      ],
      "name": "givenMethodRunOutOfGas",
      "outputs": [],
      "payable": false,
      "stateMutability": "nonpayable",
      "type": "function"
    },
    {
      "constant": false,
      "inputs": [],
      "name": "invocationCount",
      "outputs": [
        {
          "internalType": "uint256",
          "name": "",
          "type": "uint256"
        }
      ],
      "payable": false,
      "stateMutability": "nonpayable",
      "type": "function"
    },
    {
      "constant": false,
      "inputs": [
        {
          "internalType": "bytes",
          "name": "call",
          "type": "bytes"
        }
      ],
      "name": "invocationCountForCalldata",
      "outputs": [
        {
          "internalType": "uint256",
          "name": "",
          "type": "uint256"
        }
      ],
      "payable": false,
      "stateMutability": "nonpayable",
      "type": "function"
    },
    {
      "constant": false,
      "inputs": [
        {
          "internalType": "bytes",
          "name": "call",
          "type": "bytes"
        }
      ],
      "name": "invocationCountForMethod",
      "outputs": [
        {
          "internalType": "uint256",
          "name": "",
          "type": "uint256"
        }
      ],
      "payable": false,
      "stateMutability": "nonpayable",
      "type": "function"
    },
    {
      "constant": false,
      "inputs": [],
      "name": "reset",
      "outputs": [],
      "payable": false,
      "stateMutability": "nonpayable",
      "type": "function"
    },
    {
      "constant": false,
      "inputs": [
        {
          "internalType": "bytes4",
          "name": "methodId",
          "type": "bytes4"
        },
        {
          "internalType": "bytes",
          "name": "originalMsgData",
          "type": "bytes"
        }
      ],
      "name": "updateInvocationCount",
      "outputs": [],
      "payable": false,
      "stateMutability": "nonpayable",
      "type": "function"
    }
  ],
  "bytecode": "0x600060a09081526020608081905260c06040526200002091600b91620000c0565b50604080518082019091526004815263183c333360e11b6020808301918252600160f81b6000908152905290516200007a917f82ac279db26a206d9ba5a94c07ff940aea4b3bfde8820ec95f4efa0acfd0d5bc91620000c0565b50600160f81b60005260056020527fde001afd1f75281f9d2ab22d4e0166be5a51dd890d7492e8fbf3e412e05eac0a805463ffffffff1916630100000017905562000165565b828054600181600116156101000203166002900490600052602060002090601f016020900481019282601f106200010357805160ff191683800117855562000133565b8280016001018555821562000133579182015b828111156200013357825182559160200191906001019062000116565b506200014192915062000145565b5090565b6200016291905b808211156200014157600081556001016200014c565b90565b6128cf80620001756000396000f3fe6080604052600436106101d85760003560e01c80637cd96ee411610102578063cf11ff5d11610095578063e211b8a511610064578063e211b8a514611327578063eb861f691461133c578063f07da229146113b7578063f5afa9c1146113e9576101d8565b8063cf11ff5d14611198578063d6fe97781461121c578063d73ca0ac14611297578063d826f88f14611312576101d8565b8063aa788c55116100d1578063aa788c5514610fa4578063af21ac781461101f578063b3901f2914611049578063c6ee167f146110cd576101d8565b80637cd96ee414610d7e57806387abab6514610d935780639a1dc86b14610e0e5780639eaeed7514610ed9576101d8565b8063586984a41161017a57806367aad04a1161014957806367aad04a14610c3e578063682b479714610c5357806368ab6f2f14610c865780636f40075614610d01576101d8565b8063586984a4146109b957806358cbc02514610a345780635a3855ab14610af65780636193659414610b73576101d8565b80632ed238dc116101b65780632ed238dc146108e857806336ff0ee5146108fd5780633956dc6b146109295780634937c4f61461093e576101d8565b80630a20119f146107ba578063122aea81146107e157806321fed4d61461086b575b60003560018060003660405180838380828437919091019485525050604051928390036020019092205460ff16915050600281111561021357fe5b14156102d5576003600036604051808383808284379190910194855250506040516020938190038401812062461bcd60e51b8252600482019485528054600260018216156101000260001901909116046024830181905290949350839250604490910190849080156102c65780601f1061029b576101008083540402835291602001916102c6565b820191906000526020600020905b8154815290600101906020018083116102a957829003601f168201915b50509250505060405180910390fd5b6002600160003660405180838380828437919091019485525050604051928390036020019092205460ff16915050600281111561030e57fe5b141561031c5761031c611464565b60606002600036604051808383808284379190910194855250506040805160209481900385018120805460026001821615610100026000190190911604601f810187900487028301870190935282825290949093509091508301828280156103c55780601f1061039a576101008083540402835291602001916103c5565b820191906000526020600020905b8154815290600101906020018083116103a857829003601f168201915b505050505090508051600014156105595760016001600160e01b0319831660009081526006602052604090205460ff16600281111561040057fe5b141561047b576001600160e01b03198216600090815260086020908152604091829020915162461bcd60e51b81526004810191825282546002600019610100600184161502019091160460248201819052829160440190849080156102c65780601f1061029b576101008083540402835291602001916102c6565b60026001600160e01b0319831660009081526006602052604090205460ff1660028111156104a557fe5b14156104b3576104b3611464565b6001600160e01b0319821660009081526007602090815260409182902080548351601f6002600019610100600186161502019093169290920491820184900484028101840190945280845290918301828280156105515780601f1061052657610100808354040283529160200191610551565b820191906000526020600020905b81548152906001019060200180831161053457829003601f168201915b505050505090505b8051610688576001600a5460ff16600281111561057257fe5b14156105d95760405162461bcd60e51b8152602060048201908152600c8054600260001961010060018416150201909116046024840181905290928291604490910190849080156102c65780601f1061029b576101008083540402835291602001916102c6565b6002600a5460ff1660028111156105ec57fe5b14156105fa576105fa611464565b600b805460408051602060026001851615610100026000190190941693909304601f810184900484028201840190925281815292918301828280156106805780601f1061065557610100808354040283529160200191610680565b820191906000526020600020905b81548152906001019060200180831161066357829003601f168201915b505050505090505b604080516001600160e01b03198416602482019081526044820192835236606483018190526060933093620186a0938893600093909260840184848082843760008382015260408051601f909201601f1990811690940182810390940182529283526020810180516001600160e01b03166358cbc02560e01b17815292518151919850965086955091935090915081905083835b6020831061073b5780518252601f19909201916020918201910161071c565b6001836020036101000a03801982511681845116808217855250505050505090500191505060006040518083038160008787f1925050503d806000811461079e576040519150601f19603f3d011682016040523d82523d6000602084013e6107a3565b606091505b5091505080516000146107b257fe5b815182602001f35b3480156107c657600080fd5b506107cf611480565b60408051918252519081900360200190f35b3480156107ed57600080fd5b506107f6611487565b6040805160208082528351818301528351919283929083019185019080838360005b83811015610830578181015183820152602001610818565b50505050905090810190601f16801561085d5780820380516001836020036101000a031916815260200191505b509250505060405180910390f35b34801561087757600080fd5b506108e66004803603602081101561088e57600080fd5b810190602081018135600160201b8111156108a857600080fd5b8201836020820111156108ba57600080fd5b803590602001918460018302840111600160201b831117156108db57600080fd5b5090925090506114a9565b005b3480156108f457600080fd5b506107cf611530565b34801561090957600080fd5b506108e66004803603602081101561092057600080fd5b503515156115a6565b34801561093557600080fd5b506108e66115cd565b34801561094a57600080fd5b506107cf6004803603602081101561096157600080fd5b810190602081018135600160201b81111561097b57600080fd5b82018360208201111561098d57600080fd5b803590602001918460018302840111600160201b831117156109ae57600080fd5b5090925090506115dc565b3480156109c557600080fd5b506107cf600480360360208110156109dc57600080fd5b810190602081018135600160201b8111156109f657600080fd5b820183602082011115610a0857600080fd5b803590602001918460018302840111600160201b83111715610a2957600080fd5b50909250905061166d565b348015610a4057600080fd5b506108e660048036036040811015610a5757600080fd5b6001600160e01b03198235169190810190604081016020820135600160201b811115610a8257600080fd5b820183602082011115610a9457600080fd5b803590602001918460018302840111600160201b83111715610ab557600080fd5b91908080601f0160208091040260200160405190810160405280939291908181526020018383808284376000920191909152509295506116c4945050505050565b348015610b0257600080fd5b506108e660048036036040811015610b1957600080fd5b810190602081018135600160201b811115610b3357600080fd5b820183602082011115610b4557600080fd5b803590602001918460018302840111600160201b83111715610b6657600080fd5b91935091503515156117f2565b348015610b7f57600080fd5b506108e660048036036040811015610b9657600080fd5b810190602081018135600160201b811115610bb057600080fd5b820183602082011115610bc257600080fd5b803590602001918460018302840111600160201b83111715610be357600080fd5b919390929091602081019035600160201b811115610c0057600080fd5b820183602082011115610c1257600080fd5b803590602001918460018302840111600160201b83111715610c3357600080fd5b509092509050611858565b348015610c4a57600080fd5b506107cf6118cb565b348015610c5f57600080fd5b506108e660048036036020811015610c7657600080fd5b50356001600160a01b03166118d3565b348015610c9257600080fd5b506108e660048036036020811015610ca957600080fd5b810190602081018135600160201b811115610cc357600080fd5b820183602082011115610cd557600080fd5b803590602001918460018302840111600160201b83111715610cf657600080fd5b5090925090506118eb565b348015610d0d57600080fd5b506108e660048036036040811015610d2457600080fd5b810190602081018135600160201b811115610d3e57600080fd5b820183602082011115610d5057600080fd5b803590602001918460018302840111600160201b83111715610d7157600080fd5b9193509150351515611968565b348015610d8a57600080fd5b506107f66119c8565b348015610d9f57600080fd5b506108e660048036036020811015610db657600080fd5b810190602081018135600160201b811115610dd057600080fd5b820183602082011115610de257600080fd5b803590602001918460018302840111600160201b83111715610e0357600080fd5b5090925090506119e8565b348015610e1a57600080fd5b506108e660048036036040811015610e3157600080fd5b810190602081018135600160201b811115610e4b57600080fd5b820183602082011115610e5d57600080fd5b803590602001918460018302840111600160201b83111715610e7e57600080fd5b919390929091602081019035600160201b811115610e9b57600080fd5b820183602082011115610ead57600080fd5b803590602001918460018302840111600160201b83111715610ece57600080fd5b509092509050611a01565b348015610ee557600080fd5b506108e660048036036040811015610efc57600080fd5b810190602081018135600160201b811115610f1657600080fd5b820183602082011115610f2857600080fd5b803590602001918460018302840111600160201b83111715610f4957600080fd5b919390929091602081019035600160201b811115610f6657600080fd5b820183602082011115610f7857600080fd5b803590602001918460018302840111600160201b83111715610f9957600080fd5b509092509050611a8f565b348015610fb057600080fd5b506108e660048036036020811015610fc757600080fd5b810190602081018135600160201b811115610fe157600080fd5b820183602082011115610ff357600080fd5b803590602001918460018302840111600160201b8311171561101457600080fd5b509092509050611b48565b34801561102b57600080fd5b506108e66004803603602081101561104257600080fd5b5035611bb5565b34801561105557600080fd5b506108e66004803603604081101561106c57600080fd5b810190602081018135600160201b81111561108657600080fd5b82018360208201111561109857600080fd5b803590602001918460018302840111600160201b831117156110b957600080fd5b9193509150356001600160a01b0316611bc1565b3480156110d957600080fd5b506108e6600480360360408110156110f057600080fd5b810190602081018135600160201b81111561110a57600080fd5b82018360208201111561111c57600080fd5b803590602001918460018302840111600160201b8311171561113d57600080fd5b919390929091602081019035600160201b81111561115a57600080fd5b82018360208201111561116c57600080fd5b803590602001918460018302840111600160201b8311171561118d57600080fd5b509092509050611c0d565b3480156111a457600080fd5b506108e6600480360360408110156111bb57600080fd5b810190602081018135600160201b8111156111d557600080fd5b8201836020820111156111e757600080fd5b803590602001918460018302840111600160201b8311171561120857600080fd5b9193509150356001600160a01b0316611c80565b34801561122857600080fd5b506108e66004803603602081101561123f57600080fd5b810190602081018135600160201b81111561125957600080fd5b82018360208201111561126b57600080fd5b803590602001918460018302840111600160201b8311171561128c57600080fd5b509092509050611ccc565b3480156112a357600080fd5b506108e6600480360360408110156112ba57600080fd5b810190602081018135600160201b8111156112d457600080fd5b8201836020820111156112e657600080fd5b803590602001918460018302840111600160201b8311171561130757600080fd5b919350915035611d0b565b34801561131e57600080fd5b506108e6611d50565b34801561133357600080fd5b506108e6612297565b34801561134857600080fd5b506108e66004803603602081101561135f57600080fd5b810190602081018135600160201b81111561137957600080fd5b82018360208201111561138b57600080fd5b803590602001918460018302840111600160201b831117156113ac57600080fd5b5090925090506122c2565b3480156113c357600080fd5b506113cc6118cb565b604080516001600160e01b03199092168252519081900360200190f35b3480156113f557600080fd5b506108e66004803603604081101561140c57600080fd5b810190602081018135600160201b81111561142657600080fd5b82018360208201111561143857600080fd5b803590602001918460018302840111600160201b8311171561145957600080fd5b91935091503561238f565b5b60006060600060c060008060066107d05a03f1905050611465565b600d545b90565b6040805160006020808301919091528251808303909101815290820190915281565b6002600183836040518083838082843791909101948552505060405192839003602001909220805490925060ff1916905060018360028111156114e857fe5b021790555061152c82828080601f0160208091040260200160405190810160405280939291908181526020018383808284376000920191909152506123d492505050565b5050565b604080518082018252600480825263183c333360e11b602083019081529251919282918083835b602083106115765780518252601f199092019160209182019101611557565b6001836020036101000a038019825116818451168082178552505050505050905001915050604051809103902081565b6000816115b45760006115b7565b60015b60ff16905061152c6115c882612471565b61249b565b600a805460ff19166002179055565b60008061161e84848080601f0160208091040260200160405190810160405280939291908181526020018383808284376000920191909152506124b892505050565b600e54604080516020808201939093526001600160e01b031990931683820152805160248185030181526044909301815282519282019290922060009081526009909152205491505092915050565b600060046000600e5485856040516020018084815260200183838082843780830192505050935050505060405160208183030381529060405280519060200120815260200190815260200160002054905092915050565b3330146117025760405162461bcd60e51b815260040180806020018281038252602b815260200180612850602b913960400191505060405180910390fd5b600d80546001908101909155600e8054604080516020808201939093526001600160e01b0319871681830152815160248183030181526044820183528051908401206000908152600984529182208054860190559254606484018181528651600495939492938893608490910191908401908083835b602083106117975780518252601f199092019160209182019101611778565b6001836020036101000a03801982511681845116808217855250505050505090500192505050604051602081830303815290604052805190602001208152602001908152602001600020600082825401925050819055505050565b600081611800576000611803565b60015b60ff16905061185284848080601f01602080910402602001604051908101604052809392919081815260200183838082843760009201919091525061184d92508591506124719050565b6124fb565b50505050565b61185284848080601f01602080910402602001604051908101604052809392919081815260200183838082843760009201919091525050604080516020601f880181900481028201810190925286815292508691508590819084018382808284376000920191909152506124fb92505050565b600160f81b81565b6118e86115c8826001600160a01b0316612471565b50565b600061192c83838080601f0160208091040260200160405190810160405280939291908181526020018383808284376000920191909152506124b892505050565b6001600160e01b031981166000908152600660205260409020805491925060029160ff19166001835b0217905550611963816125f6565b505050565b600081611976576000611979565b60015b60ff16905061185284848080601f0160208091040260200160405190810160405280939291908181526020018383808284376000920191909152506119c392508591506124719050565b612681565b60405180604001604052806004815260200163183c333360e11b81525081565b600a805460ff19166001179055611963600c83836126d4565b6000611a4285858080601f0160208091040260200160405190810160405280939291908181526020018383808284376000920191909152506124b892505050565b6001600160e01b031981166000908152600660209081526040808320805460ff1916600117905560089091529020909150611a7e9084846126d4565b50611a88816125f6565b5050505050565b60018085856040518083838082843791909101948552505060405192839003602001909220805490925060ff191690506001836002811115611acd57fe5b021790555081816003868660405180838380828437808301925050509250505090815260200160405180910390209190611b089291906126d4565b5061185284848080601f0160208091040260200160405190810160405280939291908181526020018383808284376000920191909152506123d492505050565b6000611b8983838080601f0160208091040260200160405190810160405280939291908181526020018383808284376000920191909152506124b892505050565b6001600160e01b031981166000908152600660205260409020805491925060019160ff19168280611955565b6118e86115c882612471565b61196383838080601f01602080910402602001604051908101604052809392919081815260200183838082843760009201919091525061184d925050506001600160a01b038416612471565b61185284848080601f01602080910402602001604051908101604052809392919081815260200183838082843760009201919091525050604080516020601f8801819004810282018101909252868152925086915085908190840183828082843760009201919091525061268192505050565b61196383838080601f0160208091040260200160405190810160405280939291908181526020018383808284376000920191909152506119c3925050506001600160a01b038416612471565b61152c82828080601f01602080910402602001604051908101604052809392919081815260200183838082843760009201919091525061249b92505050565b61196383838080601f01602080910402602001604051908101604052809392919081815260200183838082843760009201919091525061184d92508591506124719050565b600160f81b6000908152602090815260008051602061287b83398151915280546040805160026001841615610100026000190190931692909204601f8101859004850283018501909152808252606093919291830182828015611df45780601f10611dc957610100808354040283529160200191611df4565b820191906000526020600020905b815481529060010190602001808311611dd757829003601f168201915b5050835160208501209394505050505b604080518082018252600480825263183c333360e11b602083019081529251919282918083835b60208310611e4a5780518252601f199092019160209182019101611e2b565b6001836020036101000a038019825116818451168082178552505050505050905001915050604051809103902081146120d45760006001836040518082805190602001908083835b60208310611eb15780518252601f199092019160209182019101611e92565b51815160209384036101000a60001901801990921691161790529201948552506040519384900301909220805490925060ff191690506001836002811115611ef557fe5b0217905550604051806020016040528060008152506002836040518082805190602001908083835b60208310611f3c5780518252601f199092019160209182019101611f1d565b51815160209384036101000a60001901801990921691161790529201948552506040519384900381019093208451611f7d9591949190910192509050612752565b50604051806020016040528060008152506003836040518082805190602001908083835b60208310611fc05780518252601f199092019160209182019101611fa1565b51815160209384036101000a600019018019909216911617905292019485525060405193849003810190932084516120019591949190910192509050612752565b506000818152602081815260409182902080548351601f6002600019610100600186161502019093169290920491820184900484028101840190945280845290918301828280156120935780601f1061206857610100808354040283529160200191612093565b820191906000526020600020905b81548152906001019060200180831161207657829003601f168201915b505060408051602080820180845260008084528981529182905292902090519597506120c6959094509092509050612752565b505080516020820120611e04565b604080518082019091526004815263183c333360e11b6020808301918252600160f81b6000908152905290516121199160008051602061287b83398151915291612752565b50600160f81b60005260056020527fde001afd1f75281f9d2ab22d4e0166be5a51dd890d7492e8fbf3e412e05eac0a5460e01b5b6001600160e01b03198116600160f81b1461220d576001600160e01b031981166000818152600660209081526040808320805460ff1916905580518083018083528482529484526007909252909120905183926121aa9291612752565b5060408051602080820180845260008084526001600160e01b031986168152600890925292902090516121dd9290612752565b506001600160e01b0319166000908152600560205260409020805463ffffffff19811690915560e01b905061214d565b600160f81b6000908152600560209081527fde001afd1f75281f9d2ab22d4e0166be5a51dd890d7492e8fbf3e412e05eac0a805463ffffffff1916630100000017905560408051808301939093528051808403830181529281019052815161227992600b920190612752565b5050600a805460ff1916905550506000600d55600e80546001019055565b600a805460ff191660011790556040805160208101918290526000908190526118e891600c91612752565b60018083836040518083838082843791909101948552505060405192839003602001909220805490925060ff19169050600183600281111561230057fe5b021790555060405180602001604052806000815250600383836040518083838082843780830192505050925050509081526020016040518091039020908051906020019061234f929190612752565b5061152c82828080601f0160208091040260200160405190810160405280939291908181526020018383808284376000920191909152506123d492505050565b61196383838080601f0160208091040260200160405190810160405280939291908181526020018383808284376000920191909152506119c392508591506124719050565b80516020808301919091206000818152918290526040909120546002600019610100600184161502019091160461152c57600060208190528181526040902060008051602061287b8339815191528054612442929190600260001961010060018416150201909116046127c0565b50600160f81b6000908152602090815282516119639160008051602061287b8339815191529190850190612752565b60408051602080825281830190925260609160208201818038833950505060208101929092525090565b600a805460ff19169055805161152c90600b906020840190612752565b600080805b60048110156124f457806008028482815181106124d657fe5b01602001516001600160f81b031916901c91909117906001016124bd565b5092915050565b60006001836040518082805190602001908083835b6020831061252f5780518252601f199092019160209182019101612510565b51815160209384036101000a60001901801990921691161790529201948552506040519384900301909220805490925060ff19169050600183600281111561257357fe5b0217905550806002836040518082805190602001908083835b602083106125ab5780518252601f19909201916020918201910161258c565b51815160209384036101000a600019018019909216911617905292019485525060405193849003810190932084516125ec9591949190910192509050612752565b5061152c826123d4565b6001600160e01b031980821660009081526005602052604090205460e01b166118e85760056020527fde001afd1f75281f9d2ab22d4e0166be5a51dd890d7492e8fbf3e412e05eac0a80546001600160e01b03198316600090815260408120805463ffffffff90931663ffffffff19938416179055600160f81b9052815460e084901c911617905550565b600061268c836124b8565b6001600160e01b031981166000908152600660209081526040808320805460ff191690556007825290912084519293506126ca929091850190612752565b50611963816125f6565b828054600181600116156101000203166002900490600052602060002090601f016020900481019282601f106127155782800160ff19823516178555612742565b82800160010185558215612742579182015b82811115612742578235825591602001919060010190612727565b5061274e929150612835565b5090565b828054600181600116156101000203166002900490600052602060002090601f016020900481019282601f1061279357805160ff1916838001178555612742565b82800160010185558215612742579182015b828111156127425782518255916020019190600101906127a5565b828054600181600116156101000203166002900490600052602060002090601f016020900481019282601f106127f95780548555612742565b8280016001018555821561274257600052602060002091601f016020900482015b8281111561274257825482559160010191906001019061281a565b61148491905b8082111561274e576000815560010161283b56fe43616e206f6e6c792062652063616c6c65642066726f6d2074686520636f6e747261637420697473656c6682ac279db26a206d9ba5a94c07ff940aea4b3bfde8820ec95f4efa0acfd0d5bca265627a7a72315820fc9b99bacfbd214cb19d1f37a3845ef8d4c82fc10de0f12a511ba807c1d4d90b64736f6c63430005110032",
  "source": "pragma solidity 0.5.17;\n\n// We import the contract so truffle compiles it, and we have the ABI available when working with it.\nimport \"@gnosis.pm/mock-contract/contracts/MockContract.sol\";\n\ncontract Mock is MockContract {}\n",
  "sourcePath": "/Users/sy/Documents/GitHub/teller-protocol-v1/contracts/mock/util/Mock.sol",
  "compiler": {
    "name": "solc",
    "version": "0.5.17+commit.d19bba13.Emscripten.clang"
  },
  "schemaVersion": "3.0.23",
  "updatedAt": "2020-09-06T02:15:12.577Z",
  "devdoc": {
    "methods": {}
  },
  "userdoc": {
    "methods": {}
  }
}