{
  "contractName": "NumbersListMock",
  "abi": [
    {
      "constant": true,
      "inputs": [],
      "name": "values",
      "outputs": [
        {
          "internalType": "uint256",
          "name": "count",
          "type": "uint256"
        },
        {
          "internalType": "uint256",
          "name": "max",
          "type": "uint256"
        },
        {
          "internalType": "uint256",
          "name": "min",
          "type": "uint256"
        },
        {
          "internalType": "uint256",
          "name": "sum",
          "type": "uint256"
        }
      ],
      "payable": false,
      "stateMutability": "view",
      "type": "function"
    },
    {
      "constant": false,
      "inputs": [
        {
          "internalType": "uint256",
          "name": "newValue",
          "type": "uint256"
        }
      ],
      "name": "addValue",
      "outputs": [],
      "payable": false,
      "stateMutability": "nonpayable",
      "type": "function"
    },
    {
      "constant": true,
      "inputs": [],
      "name": "valuesCount",
      "outputs": [
        {
          "internalType": "uint256",
          "name": "",
          "type": "uint256"
        }
      ],
      "payable": false,
      "stateMutability": "view",
      "type": "function"
    },
    {
      "constant": true,
      "inputs": [
        {
          "internalType": "uint256",
          "name": "totalRequiredValues",
          "type": "uint256"
        }
      ],
      "name": "isFinalized",
      "outputs": [
        {
          "internalType": "bool",
          "name": "",
          "type": "bool"
        }
      ],
      "payable": false,
      "stateMutability": "view",
      "type": "function"
    },
    {
      "constant": true,
      "inputs": [],
      "name": "getAverage",
      "outputs": [
        {
          "internalType": "uint256",
          "name": "",
          "type": "uint256"
        }
      ],
      "payable": false,
      "stateMutability": "view",
      "type": "function"
    },
    {
      "constant": true,
      "inputs": [
        {
          "internalType": "uint256",
          "name": "tolerance",
          "type": "uint256"
        }
      ],
      "name": "isWithinTolerance",
      "outputs": [
        {
          "internalType": "bool",
          "name": "",
          "type": "bool"
        }
      ],
      "payable": false,
      "stateMutability": "view",
      "type": "function"
    }
  ],
  "bytecode": "0x608060405234801561001057600080fd5b50610592806100206000396000f3fe608060405234801561001057600080fd5b50600436106100625760003560e01c806321055acb1461006757806333727c4d146100815780635b9af12b146100b2578063662ea039146100d1578063971217b7146100ee578063d74762e11461011c575b600080fd5b61006f610124565b60408051918252519081900360200190f35b61009e6004803603602081101561009757600080fd5b5035610135565b604080519115158252519081900360200190f35b6100cf600480360360208110156100c857600080fd5b503561014d565b005b61009e600480360360208110156100e757600080fd5b5035610161565b6100f6610173565b604080519485526020850193909352838301919091526060830152519081900360800190f35b61006f610182565b60006101306000610188565b905090565b6000610147818363ffffffff6101c116565b92915050565b61015e60008263ffffffff6101d616565b50565b6000610147818363ffffffff61023b16565b60005460015460025460035484565b60005490565b6000610193826102ec565b6101b9576101b46101a3836102fe565b60038401549063ffffffff61030216565b610147565b506000919050565b6000816101cd846102fe565b10159392505050565b80826001015410156101ea57600182018190555b80826002015411806101fb57508154155b1561020857600282018190555b600382015461021d908263ffffffff61034b16565b6003830155815461023590600163ffffffff61034b16565b90915550565b6000610246836102ec565b1561025357506000610147565b600061025e84610188565b90506000610284612710610278848763ffffffff6103a516565b9063ffffffff61030216565b90506000610298838363ffffffff6103fe16565b905080866002015410156102b25760009350505050610147565b60006102c4848463ffffffff61034b16565b905080876001015411156102df576000945050505050610147565b5060019695505050505050565b60006102f7826102fe565b1592915050565b5490565b600061034483836040518060400160405280601a81526020017f536166654d6174683a206469766973696f6e206279207a65726f000000000000815250610440565b9392505050565b600082820183811015610344576040805162461bcd60e51b815260206004820152601b60248201527f536166654d6174683a206164646974696f6e206f766572666c6f770000000000604482015290519081900360640190fd5b6000826103b457506000610147565b828202828482816103c157fe5b04146103445760405162461bcd60e51b815260040180806020018281038252602181526020018061053d6021913960400191505060405180910390fd5b600061034483836040518060400160405280601e81526020017f536166654d6174683a207375627472616374696f6e206f766572666c6f7700008152506104e2565b600081836104cc5760405162461bcd60e51b81526004018080602001828103825283818151815260200191508051906020019080838360005b83811015610491578181015183820152602001610479565b50505050905090810190601f1680156104be5780820380516001836020036101000a031916815260200191505b509250505060405180910390fd5b5060008385816104d857fe5b0495945050505050565b600081848411156105345760405162461bcd60e51b8152602060048201818152835160248401528351909283926044909101919085019080838360008315610491578181015183820152602001610479565b50505090039056fe536166654d6174683a206d756c7469706c69636174696f6e206f766572666c6f77a265627a7a723158200819f4991794f93e8d49a039714faf4f85bdc3e0b5fc38bcbe8dda5b0007a21564736f6c63430005110032",
  "source": "pragma solidity 0.5.17;\n\n// We import the contract so truffle compiles it, and we have the ABI available when working with it.\nimport \"../../util/NumbersList.sol\";\n\ncontract NumbersListMock {\n    using NumbersList for NumbersList.Values;\n\n    NumbersList.Values public values;\n\n    function addValue(uint256 newValue) external {\n        values.addValue(newValue);\n    }\n\n    function valuesCount() external view returns (uint256) {\n        return values.count;\n    }\n\n    function isFinalized(uint256 totalRequiredValues) external view returns (bool) {\n        return values.isFinalized(totalRequiredValues);\n    }\n\n    function getAverage() external view returns (uint256) {\n        return values.getAverage();\n    }\n\n    function isWithinTolerance(uint256 tolerance) external view returns (bool) {\n        return values.isWithinTolerance(tolerance);\n    }\n}\n",
  "sourcePath": "/Users/guillesalazar/Repos/ZeroCollateral/smart-contracts-v1/contracts/mock/util/NumbersListMock.sol",
  "compiler": {
    "name": "solc",
    "version": "0.5.17+commit.d19bba13.Emscripten.clang"
  },
  "schemaVersion": "3.2.3",
  "updatedAt": "2020-10-12T14:23:11.565Z",
  "devdoc": {
    "methods": {}
  },
  "userdoc": {
    "methods": {}
  }
}