{
  "contractName": "NumbersListMock",
  "abi": [
    {
      "constant": true,
      "inputs": [],
      "name": "values",
      "outputs": [
        {
          "internalType": "uint256",
          "name": "length",
          "type": "uint256"
        },
        {
          "internalType": "uint256",
          "name": "max",
          "type": "uint256"
        },
        {
          "internalType": "uint256",
          "name": "min",
          "type": "uint256"
        },
        {
          "internalType": "uint256",
          "name": "sum",
          "type": "uint256"
        }
      ],
      "payable": false,
      "stateMutability": "view",
      "type": "function"
    },
    {
      "constant": false,
      "inputs": [
        {
          "internalType": "uint256",
          "name": "newValue",
          "type": "uint256"
        }
      ],
      "name": "addValue",
      "outputs": [],
      "payable": false,
      "stateMutability": "nonpayable",
      "type": "function"
    },
    {
      "constant": true,
      "inputs": [],
      "name": "totalValues",
      "outputs": [
        {
          "internalType": "uint256",
          "name": "",
          "type": "uint256"
        }
      ],
      "payable": false,
      "stateMutability": "view",
      "type": "function"
    },
    {
      "constant": true,
      "inputs": [
        {
          "internalType": "uint256",
          "name": "totalRequiredValues",
          "type": "uint256"
        }
      ],
      "name": "isFinalized",
      "outputs": [
        {
          "internalType": "bool",
          "name": "",
          "type": "bool"
        }
      ],
      "payable": false,
      "stateMutability": "view",
      "type": "function"
    },
    {
      "constant": true,
      "inputs": [],
      "name": "getAverage",
      "outputs": [
        {
          "internalType": "uint256",
          "name": "",
          "type": "uint256"
        }
      ],
      "payable": false,
      "stateMutability": "view",
      "type": "function"
    },
    {
      "constant": true,
      "inputs": [
        {
          "internalType": "uint256",
          "name": "tolerance",
          "type": "uint256"
        }
      ],
      "name": "isWithinTolerance",
      "outputs": [
        {
          "internalType": "bool",
          "name": "",
          "type": "bool"
        }
      ],
      "payable": false,
      "stateMutability": "view",
      "type": "function"
    }
  ],
  "bytecode": "0x608060405234801561001057600080fd5b5061074c806100206000396000f3fe608060405234801561001057600080fd5b50600436106100625760003560e01c806321055acb1461006757806333727c4d1461008557806350c52c6e146100cb5780635b9af12b146100e9578063662ea03914610117578063971217b71461015d575b600080fd5b61006f610190565b6040518082815260200191505060405180910390f35b6100b16004803603602081101561009b57600080fd5b81019080803590602001909291905050506101a1565b604051808215151515815260200191505060405180910390f35b6100d36101be565b6040518082815260200191505060405180910390f35b610115600480360360208110156100ff57600080fd5b81019080803590602001909291905050506101ca565b005b6101436004803603602081101561012d57600080fd5b81019080803590602001909291905050506101e1565b604051808215151515815260200191505060405180910390f35b6101656101fe565b6040518085815260200184815260200183815260200182815260200194505050505060405180910390f35b600061019c600061021c565b905090565b60006101b782600061025990919063ffffffff16565b9050919050565b60008060000154905090565b6101de81600061026f90919063ffffffff16565b50565b60006101f78260006102ed90919063ffffffff16565b9050919050565b60008060000154908060010154908060020154908060030154905084565b6000610227826103ac565b61024f5761024a610237836103c0565b83600301546103ce90919063ffffffff16565b610252565b60005b9050919050565b600081610265846103c0565b1015905092915050565b8082600101541015610285578082600101819055505b808260020154118061029b575060008260000154145b156102aa578082600201819055505b6102c181836003015461041890919063ffffffff16565b82600301819055506102e16001836000015461041890919063ffffffff16565b82600001819055505050565b60006102f8836103ac565b1561030657600090506103a6565b60006103118461021c565b9050600061033c61271061032e86856104a090919063ffffffff16565b6103ce90919063ffffffff16565b90506000610353828461052690919063ffffffff16565b9050808660020154101561036d57600093505050506103a6565b6000610382838561041890919063ffffffff16565b9050808760010154111561039d5760009450505050506103a6565b60019450505050505b92915050565b6000806103b8836103c0565b149050919050565b600081600001549050919050565b600061041083836040518060400160405280601a81526020017f536166654d6174683a206469766973696f6e206279207a65726f000000000000815250610570565b905092915050565b600080828401905083811015610496576040517f08c379a000000000000000000000000000000000000000000000000000000000815260040180806020018281038252601b8152602001807f536166654d6174683a206164646974696f6e206f766572666c6f77000000000081525060200191505060405180910390fd5b8091505092915050565b6000808314156104b35760009050610520565b60008284029050828482816104c457fe5b041461051b576040517f08c379a00000000000000000000000000000000000000000000000000000000081526004018080602001828103825260218152602001806106f76021913960400191505060405180910390fd5b809150505b92915050565b600061056883836040518060400160405280601e81526020017f536166654d6174683a207375627472616374696f6e206f766572666c6f770000815250610636565b905092915050565b6000808311829061061c576040517f08c379a00000000000000000000000000000000000000000000000000000000081526004018080602001828103825283818151815260200191508051906020019080838360005b838110156105e15780820151818401526020810190506105c6565b50505050905090810190601f16801561060e5780820380516001836020036101000a031916815260200191505b509250505060405180910390fd5b50600083858161062857fe5b049050809150509392505050565b60008383111582906106e3576040517f08c379a00000000000000000000000000000000000000000000000000000000081526004018080602001828103825283818151815260200191508051906020019080838360005b838110156106a857808201518184015260208101905061068d565b50505050905090810190601f1680156106d55780820380516001836020036101000a031916815260200191505b509250505060405180910390fd5b506000838503905080915050939250505056fe536166654d6174683a206d756c7469706c69636174696f6e206f766572666c6f77a265627a7a723158202a8350c786ca402938f2e24c9b0590f0503439004c0562965e416e42b7bb8e6064736f6c63430005110032",
  "source": "pragma solidity 0.5.17;\n\n// We import the contract so truffle compiles it, and we have the ABI available when working with it.\nimport \"../../util/NumbersList.sol\";\n\ncontract NumbersListMock {\n    using NumbersList for NumbersList.Values;\n\n    NumbersList.Values public values;\n\n    function addValue(uint256 newValue) external{\n        values.addValue(newValue);\n    }\n\n    function totalValues() external view returns (uint256) {\n        return values.length;\n    }\n\n    function isFinalized(uint256 totalRequiredValues)\n        external\n        view\n        returns (bool)\n    {\n        return values.isFinalized(totalRequiredValues);\n    }\n\n    function getAverage() external view returns (uint256) {\n        return values.getAverage();\n    }\n\n    function isWithinTolerance(uint256 tolerance) external view returns (bool) {\n        return values.isWithinTolerance(tolerance);\n    }\n\n}\n",
  "sourcePath": "/home/jalil/Programs/zero-collateral-v1/contracts/mock/util/NumbersListMock.sol",
  "compiler": {
    "name": "solc",
    "version": "0.5.17+commit.d19bba13.Emscripten.clang"
  },
  "schemaVersion": "3.0.23",
  "updatedAt": "2020-04-29T14:20:38.810Z",
  "devdoc": {
    "methods": {}
  },
  "userdoc": {
    "methods": {}
  }
}