{
  "contractName": "PairAggregatorRegistryMock",
  "abi": [
    {
      "anonymous": false,
      "inputs": [
        {
          "indexed": true,
          "internalType": "address",
          "name": "sender",
          "type": "address"
        },
        {
          "indexed": true,
          "internalType": "address",
          "name": "baseToken",
          "type": "address"
        },
        {
          "indexed": true,
          "internalType": "address",
          "name": "quoteToken",
          "type": "address"
        },
        {
          "indexed": false,
          "internalType": "address",
          "name": "pairAggregator",
          "type": "address"
        }
      ],
      "name": "PairAggregatorRegistered",
      "type": "event"
    },
    {
      "anonymous": false,
      "inputs": [
        {
          "indexed": true,
          "internalType": "address",
          "name": "sender",
          "type": "address"
        },
        {
          "indexed": true,
          "internalType": "address",
          "name": "baseToken",
          "type": "address"
        },
        {
          "indexed": true,
          "internalType": "address",
          "name": "quoteToken",
          "type": "address"
        },
        {
          "indexed": false,
          "internalType": "address",
          "name": "oldPairAggregator",
          "type": "address"
        },
        {
          "indexed": false,
          "internalType": "address",
          "name": "newPairAggregator",
          "type": "address"
        }
      ],
      "name": "PairAggregatorUpdated",
      "type": "event"
    },
    {
      "constant": true,
      "inputs": [
        {
          "internalType": "address",
          "name": "",
          "type": "address"
        },
        {
          "internalType": "address",
          "name": "",
          "type": "address"
        }
      ],
      "name": "aggregators",
      "outputs": [
        {
          "internalType": "contract PairAggregatorInterface",
          "name": "",
          "type": "address"
        }
      ],
      "payable": false,
      "stateMutability": "view",
      "type": "function"
    },
    {
      "constant": true,
      "inputs": [
        {
          "internalType": "address",
          "name": "baseToken",
          "type": "address"
        },
        {
          "internalType": "address",
          "name": "quoteToken",
          "type": "address"
        }
      ],
      "name": "getPairAggregator",
      "outputs": [
        {
          "internalType": "contract PairAggregatorInterface",
          "name": "",
          "type": "address"
        }
      ],
      "payable": false,
      "stateMutability": "view",
      "type": "function"
    },
    {
      "constant": true,
      "inputs": [
        {
          "internalType": "address",
          "name": "baseToken",
          "type": "address"
        },
        {
          "internalType": "address",
          "name": "quoteToken",
          "type": "address"
        }
      ],
      "name": "hasPairAggregator",
      "outputs": [
        {
          "internalType": "bool",
          "name": "",
          "type": "bool"
        }
      ],
      "payable": false,
      "stateMutability": "view",
      "type": "function"
    },
    {
      "constant": false,
      "inputs": [
        {
          "internalType": "address",
          "name": "settingsAddress",
          "type": "address"
        }
      ],
      "name": "initialize",
      "outputs": [],
      "payable": false,
      "stateMutability": "nonpayable",
      "type": "function"
    },
    {
      "constant": true,
      "inputs": [],
      "name": "initialized",
      "outputs": [
        {
          "internalType": "bool",
          "name": "value",
          "type": "bool"
        }
      ],
      "payable": false,
      "stateMutability": "view",
      "type": "function"
    },
    {
      "constant": false,
      "inputs": [
        {
          "components": [
            {
              "internalType": "address",
              "name": "baseToken",
              "type": "address"
            },
            {
              "internalType": "address",
              "name": "quoteToken",
              "type": "address"
            },
            {
              "internalType": "address",
              "name": "chainlinkAggregatorAddress",
              "type": "address"
            },
            {
              "internalType": "bool",
              "name": "inverse",
              "type": "bool"
            },
            {
              "internalType": "uint8",
              "name": "responseDecimals",
              "type": "uint8"
            },
            {
              "internalType": "uint8",
              "name": "collateralDecimals",
              "type": "uint8"
            }
          ],
          "internalType": "struct TellerCommon.PairAggregatorRegisterRequest",
          "name": "request",
          "type": "tuple"
        }
      ],
      "name": "registerPairAggregator",
      "outputs": [
        {
          "internalType": "contract PairAggregatorInterface",
          "name": "aggregator",
          "type": "address"
        }
      ],
      "payable": false,
      "stateMutability": "nonpayable",
      "type": "function"
    },
    {
      "constant": false,
      "inputs": [
        {
          "components": [
            {
              "internalType": "address",
              "name": "baseToken",
              "type": "address"
            },
            {
              "internalType": "address",
              "name": "quoteToken",
              "type": "address"
            },
            {
              "internalType": "address",
              "name": "chainlinkAggregatorAddress",
              "type": "address"
            },
            {
              "internalType": "bool",
              "name": "inverse",
              "type": "bool"
            },
            {
              "internalType": "uint8",
              "name": "responseDecimals",
              "type": "uint8"
            },
            {
              "internalType": "uint8",
              "name": "collateralDecimals",
              "type": "uint8"
            }
          ],
          "internalType": "struct TellerCommon.PairAggregatorRegisterRequest[]",
          "name": "requests",
          "type": "tuple[]"
        }
      ],
      "name": "registerPairAggregators",
      "outputs": [
        {
          "internalType": "contract PairAggregatorInterface[]",
          "name": "newAggregators",
          "type": "address[]"
        }
      ],
      "payable": false,
      "stateMutability": "nonpayable",
      "type": "function"
    },
    {
      "constant": true,
      "inputs": [],
      "name": "settings",
      "outputs": [
        {
          "internalType": "contract SettingsInterface",
          "name": "",
          "type": "address"
        }
      ],
      "payable": false,
      "stateMutability": "view",
      "type": "function"
    },
    {
      "constant": false,
      "inputs": [
        {
          "components": [
            {
              "internalType": "address",
              "name": "baseToken",
              "type": "address"
            },
            {
              "internalType": "address",
              "name": "quoteToken",
              "type": "address"
            },
            {
              "internalType": "address",
              "name": "chainlinkAggregatorAddress",
              "type": "address"
            },
            {
              "internalType": "bool",
              "name": "inverse",
              "type": "bool"
            },
            {
              "internalType": "uint8",
              "name": "responseDecimals",
              "type": "uint8"
            },
            {
              "internalType": "uint8",
              "name": "collateralDecimals",
              "type": "uint8"
            }
          ],
          "internalType": "struct TellerCommon.PairAggregatorRegisterRequest",
          "name": "request",
          "type": "tuple"
        }
      ],
      "name": "updatePairAggregator",
      "outputs": [
        {
          "internalType": "contract PairAggregatorInterface",
          "name": "aggregator",
          "type": "address"
        }
      ],
      "payable": false,
      "stateMutability": "nonpayable",
      "type": "function"
    },
    {
      "constant": false,
      "inputs": [
        {
          "internalType": "address",
          "name": "baseAddress",
          "type": "address"
        },
        {
          "internalType": "address",
          "name": "quoteAddress",
          "type": "address"
        },
        {
          "internalType": "address",
          "name": "aggregatorAddress",
          "type": "address"
        }
      ],
      "name": "externalAddAggregatorFor",
      "outputs": [],
      "payable": false,
      "stateMutability": "nonpayable",
      "type": "function"
    }
  ],
  "bytecode": "0x608060405234801561001057600080fd5b50611c29806100206000396000f3fe60806040523480156200001157600080fd5b5060043610620000ac5760003560e01c8063c4959317116200006f578063c49593171462000140578063c4d66de81462000157578063d7775ff1146200016e578063e06174e41462000194578063eef84f00146200019e57620000ac565b8063158ef93e14620000b1578063662a3e5814620000d3578063712985a614620000ea578063887b04b914620001035780638a35ec541462000129575b600080fd5b620000bb620001b5565b604051620000ca9190620014c2565b60405180910390f35b620000bb620000e436600462000f87565b620001d6565b62000101620000fb36600462000fc6565b620001ed565b005b6200011a62000114366004620010a2565b62000228565b604051620000ca9190620014d2565b6200011a6200013a36600462000f87565b62000551565b6200011a6200015136600462000f87565b62000574565b620001016200016836600462000f45565b6200059c565b620001856200017f3660046200101a565b620005de565b604051620000ca9190620014af565b6200011a62000732565b6200011a620001af366004620010a2565b62000756565b600080604051620001c690620013ea565b6040519081900390205492915050565b6000620001e4838362000801565b90505b92915050565b6001600160a01b0392831660009081526020818152604080832094861683529390529190912080546001600160a01b03191691909216179055565b600062000234620001b5565b6200025c5760405162461bcd60e51b815260040162000253906200153c565b60405180910390fd5b6200026662000732565b6001600160a01b031663c095ea27336040518263ffffffff1660e01b815260040162000293919062001414565b60006040518083038186803b158015620002ac57600080fd5b505afa158015620002c1573d6000803e3d6000fd5b50620002e99250620002da915050602084018462000f45565b6001600160a01b03166200082b565b620003085760405162461bcd60e51b81526004016200025390620014f4565b6200031e620002da604084016020850162000f45565b6200033d5760405162461bcd60e51b8152600401620002539062001506565b62000353620002da606084016040850162000f45565b620003725760405162461bcd60e51b81526004016200025390620014f4565b6200039d62000385602084018462000f45565b62000397604085016020860162000f45565b62000801565b620003bc5760405162461bcd60e51b8152600401620002539062001518565b60008080620003cf602086018662000f45565b6001600160a01b03166001600160a01b03168152602001908152602001600020600084602001602062000406919081019062000f45565b6001600160a01b039081168252602082019290925260400160002054169050620004406200043a36859003850185620010c3565b62000868565b91508160008062000455602087018762000f45565b6001600160a01b03166001600160a01b0316815260200190815260200160002060008560200160206200048c919081019062000f45565b6001600160a01b03166001600160a01b0316815260200190815260200160002060006101000a8154816001600160a01b0302191690836001600160a01b03160217905550826020016020620004e5919081019062000f45565b6001600160a01b0316620004fd602085018562000f45565b6001600160a01b0316336001600160a01b03167f014e45afe4d61e4db0fe7390071474227f9e8362a21c8a3318ee9ff6a9e431ac84866040516200054392919062001424565b60405180910390a450919050565b60006020818152928152604080822090935290815220546001600160a01b031681565b6001600160a01b03918216600090815260208181526040808320938516835292905220541690565b620005a6620001b5565b15620005c65760405162461bcd60e51b815260040162000253906200154e565b620005d18162000aa5565b620005db62000b19565b50565b6060620005ea620001b5565b620006095760405162461bcd60e51b815260040162000253906200153c565b6200061362000732565b6001600160a01b031663c095ea27336040518263ffffffff1660e01b815260040162000640919062001414565b60006040518083038186803b1580156200065957600080fd5b505afa1580156200066e573d6000803e3d6000fd5b5050508215159050620006955760405162461bcd60e51b815260040162000253906200152a565b604080518381526020808502820101909152828015620006bf578160200160208202803883390190505b50905060005b828110156200072b57620006fd848483818110620006df57fe5b905060c00201803603620006f79190810190620010c3565b62000b39565b8282815181106200070a57fe5b6001600160a01b0390921660209283029190910190910152600101620006c5565b5092915050565b60008060006040516200074590620013f7565b604051908190039020549250505090565b600062000762620001b5565b620007815760405162461bcd60e51b815260040162000253906200153c565b6200078b62000732565b6001600160a01b031663c095ea27336040518263ffffffff1660e01b8152600401620007b8919062001414565b60006040518083038186803b158015620007d157600080fd5b505afa158015620007e6573d6000803e3d6000fd5b50505050620001e782803603620006f79190810190620010c3565b6001600160a01b039182166000908152602081815260408083209385168352929052205416151590565b6000813f7fc5d2460186f7233c927e7db2dcc703c0e500b653ca82273b7bfad8045d85a4708181148015906200086057508115155b949350505050565b6000806200087562000732565b6001600160a01b031663ea23cb7c6040518163ffffffff1660e01b815260040160206040518083038186803b158015620008ae57600080fd5b505afa158015620008c3573d6000803e3d6000fd5b505050506040513d601f19601f82011682018060405250620008e9919081019062001081565b6001600160a01b031663d86d744e6040518163ffffffff1660e01b8152600401602060405180830381600087803b1580156200092457600080fd5b505af115801562000939573d6000803e3d6000fd5b505050506040513d601f19601f820116820180604052506200095f919081019062001081565b6001600160a01b031663c4f8f96e6040518163ffffffff1660e01b815260040160206040518083038186803b1580156200099857600080fd5b505afa158015620009ad573d6000803e3d6000fd5b505050506040513d601f19601f82011682018060405250620009d3919081019062001060565b90506000620009e162000732565b82604051620009f09062000dde565b620009fd92919062001490565b604051809103906000f08015801562000a1a573d6000803e3d6000fd5b5090506000819050809350836001600160a01b0316632e6536a88660400151876060015188608001518960a001516040518563ffffffff1660e01b815260040162000a6994939291906200144a565b600060405180830381600087803b15801562000a8457600080fd5b505af115801562000a99573d6000803e3d6000fd5b50505050505050919050565b600062000ab162000732565b6001600160a01b03161462000af95762000ad4816001600160a01b03166200082b565b62000af35760405162461bcd60e51b81526004016200025390620014e2565b620005db565b600060405162000b0990620013f7565b6040519081900390208290555050565b600060405162000b2990620013ea565b6040519081900390206001905550565b80516000906001600160a01b031662000b5162000732565b6001600160a01b031663a734f06e6040518163ffffffff1660e01b815260040160206040518083038186803b15801562000b8a57600080fd5b505afa15801562000b9f573d6000803e3d6000fd5b505050506040513d601f19601f8201168201806040525062000bc5919081019062000f66565b6001600160a01b0316148062000bec5750815162000bec906001600160a01b03166200082b565b62000c0b5760405162461bcd60e51b81526004016200025390620014f4565b81602001516001600160a01b031662000c2362000732565b6001600160a01b031663a734f06e6040518163ffffffff1660e01b815260040160206040518083038186803b15801562000c5c57600080fd5b505afa15801562000c71573d6000803e3d6000fd5b505050506040513d601f19601f8201168201806040525062000c97919081019062000f66565b6001600160a01b0316148062000cc0575062000cc082602001516001600160a01b03166200082b565b62000cdf5760405162461bcd60e51b8152600401620002539062001506565b62000cf782604001516001600160a01b03166200082b565b62000d165760405162461bcd60e51b81526004016200025390620014f4565b62000d2a8260000151836020015162000801565b1562000d4a5760405162461bcd60e51b8152600401620002539062001560565b62000d558262000868565b82516001600160a01b0390811660009081526020818152604080832082880180518616855292529182902080546001600160a01b031916858516179055518551915193945082169291169033907f8bd556975fee090206fa4adfec66bc8d97d30d75c04de3c55dfba9a40a30b2c99062000dd190869062001404565b60405180910390a4919050565b6105b0806200163783390190565b8035620001e781620015f3565b8051620001e781620015f3565b60008083601f84011262000e1957600080fd5b50813567ffffffffffffffff81111562000e3257600080fd5b6020830191508360c082028301111562000e4b57600080fd5b9250929050565b8035620001e7816200160a565b8051620001e78162001615565b8051620001e78162001620565b600060c0828403121562000e8c57600080fd5b50919050565b600060c0828403121562000ea557600080fd5b62000eb160c062001572565b9050600062000ec1848462000dec565b825250602062000ed48484830162000dec565b602083015250604062000eea8482850162000dec565b604083015250606062000f008482850162000e52565b606083015250608062000f168482850162000f38565b60808301525060a062000f2c8482850162000f38565b60a08301525092915050565b8035620001e7816200162b565b60006020828403121562000f5857600080fd5b600062000860848462000dec565b60006020828403121562000f7957600080fd5b600062000860848462000df9565b6000806040838503121562000f9b57600080fd5b600062000fa9858562000dec565b925050602062000fbc8582860162000dec565b9150509250929050565b60008060006060848603121562000fdc57600080fd5b600062000fea868662000dec565b935050602062000ffd8682870162000dec565b9250506040620010108682870162000dec565b9150509250925092565b600080602083850312156200102e57600080fd5b823567ffffffffffffffff8111156200104657600080fd5b620010548582860162000e06565b92509250509250929050565b6000602082840312156200107357600080fd5b600062000860848462000e5f565b6000602082840312156200109457600080fd5b600062000860848462000e6c565b600060c08284031215620010b557600080fd5b600062000860848462000e79565b600060c08284031215620010d657600080fd5b600062000860848462000e92565b6000620010f2838362001191565b505060200190565b6200110581620015e6565b82525050565b6200110581620015b2565b60006200112382620015a0565b6200112f8185620015a4565b93506200113c836200159a565b8060005b8381101562001170578151620011578882620010e4565b975062001164836200159a565b92505060010162001140565b509495945050505050565b6200110581620015bf565b6200110581620015c4565b6200110581620015c7565b6000620011ab601c83620015ad565b7f54496e697469616c697a61626c652e6973496e697469616c697a6564000000008152601c0192915050565b6000620011e6601b83620015a4565b7f53455454494e47535f4d5553545f42455f415f434f4e54524143540000000000815260200192915050565b600062001221601b83620015a4565b7f424153455f544f4b454e5f4d5553545f42455f434f4e54524143540000000000815260200192915050565b60006200125c601c83620015a4565b7f51554f54455f544f4b454e5f4d5553545f42455f434f4e545241435400000000815260200192915050565b600062001297601983620015a4565b7f504149525f41474752454741544f525f4e4f545f455849535400000000000000815260200192915050565b6000620012d2601883620015ad565b7f426173655570677261646561626c652e73657474696e67730000000000000000815260180192915050565b60006200130d601283620015a4565b71524551554553545f4c4953545f454d50545960701b815260200192915050565b60006200133d601883620015a4565b7f434f4e54524143545f4e4f545f494e495449414c495a45440000000000000000815260200192915050565b600062001378601c83620015a4565b7f434f4e54524143545f414c52454144595f494e495449414c495a454400000000815260200192915050565b6000620013b3601d83620015a4565b7f504149525f41474752454741544f525f414c52454144595f4558495354000000815260200192915050565b6200110581620015e0565b6000620001e7826200119c565b6000620001e782620012c3565b60208101620001e782846200110b565b60208101620001e78284620010fa565b604081016200143482856200110b565b6200144360208301846200110b565b9392505050565b608081016200145a82876200110b565b6200146960208301866200117b565b620014786040830185620013df565b620014876060830184620013df565b95945050505050565b60408101620014a082856200110b565b62001443602083018462001186565b60208082528101620001e4818462001116565b60208101620001e782846200117b565b60208101620001e7828462001191565b60208082528101620001e781620011d7565b60208082528101620001e78162001212565b60208082528101620001e7816200124d565b60208082528101620001e78162001288565b60208082528101620001e781620012fe565b60208082528101620001e7816200132e565b60208082528101620001e78162001369565b60208082528101620001e781620013a4565b60405181810167ffffffffffffffff811182821017156200159257600080fd5b604052919050565b60200190565b5190565b90815260200190565b919050565b6000620001e782620015d4565b151590565b90565b6000620001e782620015b2565b6001600160a01b031690565b60ff1690565b6000620001e782620015c7565b620015fe81620015b2565b8114620005db57600080fd5b620015fe81620015bf565b620015fe81620015c4565b620015fe81620015c7565b620015fe81620015e056fe608060405234801561001057600080fd5b506040516105b03803806105b08339818101604052604081101561003357600080fd5b50805160209091015161004e826001600160e01b0361006716565b610060816001600160e01b0361013316565b5050610315565b600061007a6001600160e01b036102a316565b6001600160a01b0316146100fa576100a4816001600160a01b03166102d960201b61021b1760201c565b6100f5576040805162461bcd60e51b815260206004820152601b60248201527f53455454494e47535f4d5553545f42455f415f434f4e54524143540000000000604482015290519081900360640190fd5b610130565b604080517f426173655570677261646561626c652e73657474696e67730000000000000000815290519081900360180190208190555b50565b6101446001600160e01b036102a316565b6001600160a01b031663ea23cb7c6040518163ffffffff1660e01b815260040160206040518083038186803b15801561017c57600080fd5b505afa158015610190573d6000803e3d6000fd5b505050506040513d60208110156101a657600080fd5b50516040805163b28f5abb60e01b81526004810184905290516001600160a01b039092169163b28f5abb91602480820192602092909190829003018186803b1580156101f157600080fd5b505afa158015610205573d6000803e3d6000fd5b505050506040513d602081101561021b57600080fd5b505161026e576040805162461bcd60e51b815260206004820152601460248201527f4c4f4749435f4e414d455f4e4f545f4558495354000000000000000000000000604482015290519081900360640190fd5b604080517f426173655570677261646561626c652e6c6f6769634e616d65000000000000008152905190819003601901902055565b604080517f426173655570677261646561626c652e73657474696e67730000000000000000815290519081900360180190205490565b6000813f7fc5d2460186f7233c927e7db2dcc703c0e500b653ca82273b7bfad8045d85a47081811480159061030d57508115155b949350505050565b61028c806103246000396000f3fe6080604052600436106100295760003560e01c80635c60da1b14610033578063e06174e414610064575b610031610079565b005b34801561003f57600080fd5b50610048610093565b604080516001600160a01b039092168252519081900360200190f35b34801561007057600080fd5b506100486100a2565b610081610091565b61009161008c6100d8565b6101c1565b565b600061009d6100d8565b905090565b604080517f426173655570677261646561626c652e73657474696e67730000000000000000815290519081900360180190205490565b60006100e26100a2565b6001600160a01b031663ea23cb7c6040518163ffffffff1660e01b815260040160206040518083038186803b15801561011a57600080fd5b505afa15801561012e573d6000803e3d6000fd5b505050506040513d602081101561014457600080fd5b50516001600160a01b03166373f1fcf661015c6101e5565b6040518263ffffffff1660e01b81526004018082815260200191505060206040518083038186803b15801561019057600080fd5b505afa1580156101a4573d6000803e3d6000fd5b505050506040513d60208110156101ba57600080fd5b5051905090565b3660008037600080366000845af43d6000803e8080156101e0573d6000f35b3d6000fd5b604080517f426173655570677261646561626c652e6c6f6769634e616d6500000000000000815290519081900360190190205490565b6000813f7fc5d2460186f7233c927e7db2dcc703c0e500b653ca82273b7bfad8045d85a47081811480159061024f57508115155b94935050505056fea265627a7a72315820719540adc046c2f7c4155ffa200cbba2e96c24f6c5638e7f502862ad0af638e764736f6c63430005110032a365627a7a723158200e10753149e746c5312af25811fb86e1e85458672ebd03cd248c6e059b274e636c6578706572696d656e74616cf564736f6c63430005110040",
  "source": "pragma solidity 0.5.17;\npragma experimental ABIEncoderV2;\n\nimport \"../../../providers/chainlink/ChainlinkPairAggregatorRegistry.sol\";\n\ncontract PairAggregatorRegistryMock is ChainlinkPairAggregatorRegistry {\n    function externalAddAggregatorFor(\n        address baseAddress,\n        address quoteAddress,\n        address aggregatorAddress\n    ) external {\n        aggregators[baseAddress][quoteAddress] = PairAggregatorInterface(\n            aggregatorAddress\n        );\n    }\n}\n",
  "sourcePath": "/Users/sy/Documents/GitHub/teller-protocol-v1/contracts/mock/providers/chainlink/PairAggregatorRegistryMock.sol",
  "compiler": {
    "name": "solc",
    "version": "0.5.17+commit.d19bba13.Emscripten.clang"
  },
  "schemaVersion": "3.0.23",
  "updatedAt": "2020-09-06T02:15:12.516Z",
  "devdoc": {
    "methods": {
      "getPairAggregator(address,address)": {
        "return": "the pair aggregator address for the given base and quote addresses."
      },
      "hasPairAggregator(address,address)": {
        "return": "true if the pair aggregator address for the given base and quote tokens is not 0x0. Otherwise it returns false."
      },
      "initialize(address)": {
        "params": {
          "settingsAddress": "this settings address."
        }
      },
      "initialized()": {
        "return": "true if contract is initialized. Otherwise it returns false."
      },
      "registerPairAggregator((address,address,address,bool,uint8,uint8))": {
        "params": {
          "request": "the input data to register the new pair aggregator."
        },
        "return": "the new pair aggregator created."
      },
      "registerPairAggregators((address,address,address,bool,uint8,uint8)[])": {
        "params": {
          "requests": "the input data to register the new pair aggregator."
        },
        "return": "the new pair aggregator addresses."
      },
      "updatePairAggregator((address,address,address,bool,uint8,uint8))": {
        "params": {
          "request": "the input data to register the new pair aggregator."
        },
        "return": "the new pair aggregator created."
      }
    }
  },
  "userdoc": {
    "methods": {
      "getPairAggregator(address,address)": {
        "notice": "Gets a pair aggregator for a given base and quote tokens (a market).baseToken the base token address.quoteToken the quote token address."
      },
      "hasPairAggregator(address,address)": {
        "notice": "Tests whether a pair aggregator exists for a given base and quote tokens (a market) or not.baseToken the base token address.quoteToken the quote token address."
      },
      "initialize(address)": {
        "notice": "It initializes this registry contract."
      },
      "initialized()": {
        "notice": "Gets if the contract is initialized."
      },
      "registerPairAggregator((address,address,address,bool,uint8,uint8))": {
        "notice": "It registers a new pair aggregator for a given market."
      },
      "registerPairAggregators((address,address,address,bool,uint8,uint8)[])": {
        "notice": "It registers new pair aggregators for given markets."
      },
      "settings()": {
        "notice": "The settings contract."
      },
      "updatePairAggregator((address,address,address,bool,uint8,uint8))": {
        "notice": "It updates a current pair aggregator for a given market."
      }
    }
  }
}