{
  "contractName": "PairAggregatorRegistryMock",
  "abi": [
    {
      "anonymous": false,
      "inputs": [
        {
          "indexed": true,
          "internalType": "address",
          "name": "sender",
          "type": "address"
        },
        {
          "indexed": true,
          "internalType": "address",
          "name": "baseToken",
          "type": "address"
        },
        {
          "indexed": true,
          "internalType": "address",
          "name": "quoteToken",
          "type": "address"
        },
        {
          "indexed": false,
          "internalType": "address",
          "name": "pairAggregator",
          "type": "address"
        },
        {
          "indexed": false,
          "internalType": "uint8",
          "name": "responseDecimals",
          "type": "uint8"
        },
        {
          "indexed": false,
          "internalType": "uint8",
          "name": "collateralDecimals",
          "type": "uint8"
        },
        {
          "indexed": false,
          "internalType": "bool",
          "name": "inverse",
          "type": "bool"
        }
      ],
      "name": "PairAggregatorRegistered",
      "type": "event"
    },
    {
      "anonymous": false,
      "inputs": [
        {
          "indexed": true,
          "internalType": "address",
          "name": "sender",
          "type": "address"
        },
        {
          "indexed": true,
          "internalType": "address",
          "name": "baseToken",
          "type": "address"
        },
        {
          "indexed": true,
          "internalType": "address",
          "name": "quoteToken",
          "type": "address"
        },
        {
          "indexed": false,
          "internalType": "address",
          "name": "oldPairAggregator",
          "type": "address"
        },
        {
          "indexed": false,
          "internalType": "address",
          "name": "newPairAggregator",
          "type": "address"
        },
        {
          "indexed": false,
          "internalType": "uint8",
          "name": "newResponseDecimals",
          "type": "uint8"
        },
        {
          "indexed": false,
          "internalType": "uint8",
          "name": "newCollateralDecimals",
          "type": "uint8"
        },
        {
          "indexed": false,
          "internalType": "bool",
          "name": "newInverse",
          "type": "bool"
        }
      ],
      "name": "PairAggregatorUpdated",
      "type": "event"
    },
    {
      "constant": true,
      "inputs": [
        {
          "internalType": "address",
          "name": "",
          "type": "address"
        },
        {
          "internalType": "address",
          "name": "",
          "type": "address"
        }
      ],
      "name": "aggregators",
      "outputs": [
        {
          "internalType": "contract PairAggregatorInterface",
          "name": "",
          "type": "address"
        }
      ],
      "payable": false,
      "stateMutability": "view",
      "type": "function"
    },
    {
      "constant": true,
      "inputs": [
        {
          "internalType": "address",
          "name": "baseToken",
          "type": "address"
        },
        {
          "internalType": "address",
          "name": "quoteToken",
          "type": "address"
        }
      ],
      "name": "getPairAggregator",
      "outputs": [
        {
          "internalType": "contract PairAggregatorInterface",
          "name": "",
          "type": "address"
        }
      ],
      "payable": false,
      "stateMutability": "view",
      "type": "function"
    },
    {
      "constant": true,
      "inputs": [
        {
          "internalType": "address",
          "name": "baseToken",
          "type": "address"
        },
        {
          "internalType": "address",
          "name": "quoteToken",
          "type": "address"
        }
      ],
      "name": "hasPairAggregator",
      "outputs": [
        {
          "internalType": "bool",
          "name": "",
          "type": "bool"
        }
      ],
      "payable": false,
      "stateMutability": "view",
      "type": "function"
    },
    {
      "constant": false,
      "inputs": [
        {
          "internalType": "address",
          "name": "settingsAddress",
          "type": "address"
        }
      ],
      "name": "initialize",
      "outputs": [],
      "payable": false,
      "stateMutability": "nonpayable",
      "type": "function"
    },
    {
      "constant": true,
      "inputs": [],
      "name": "initialized",
      "outputs": [
        {
          "internalType": "bool",
          "name": "value",
          "type": "bool"
        }
      ],
      "payable": false,
      "stateMutability": "view",
      "type": "function"
    },
    {
      "constant": false,
      "inputs": [
        {
          "components": [
            {
              "internalType": "address",
              "name": "baseToken",
              "type": "address"
            },
            {
              "internalType": "address",
              "name": "quoteToken",
              "type": "address"
            },
            {
              "internalType": "address",
              "name": "chainlinkAggregatorAddress",
              "type": "address"
            },
            {
              "internalType": "bool",
              "name": "inverse",
              "type": "bool"
            },
            {
              "internalType": "uint8",
              "name": "responseDecimals",
              "type": "uint8"
            },
            {
              "internalType": "uint8",
              "name": "collateralDecimals",
              "type": "uint8"
            }
          ],
          "internalType": "struct TellerCommon.PairAggregatorRegisterRequest",
          "name": "request",
          "type": "tuple"
        }
      ],
      "name": "registerPairAggregator",
      "outputs": [
        {
          "internalType": "contract PairAggregatorInterface",
          "name": "aggregator",
          "type": "address"
        }
      ],
      "payable": false,
      "stateMutability": "nonpayable",
      "type": "function"
    },
    {
      "constant": false,
      "inputs": [
        {
          "components": [
            {
              "internalType": "address",
              "name": "baseToken",
              "type": "address"
            },
            {
              "internalType": "address",
              "name": "quoteToken",
              "type": "address"
            },
            {
              "internalType": "address",
              "name": "chainlinkAggregatorAddress",
              "type": "address"
            },
            {
              "internalType": "bool",
              "name": "inverse",
              "type": "bool"
            },
            {
              "internalType": "uint8",
              "name": "responseDecimals",
              "type": "uint8"
            },
            {
              "internalType": "uint8",
              "name": "collateralDecimals",
              "type": "uint8"
            }
          ],
          "internalType": "struct TellerCommon.PairAggregatorRegisterRequest[]",
          "name": "requests",
          "type": "tuple[]"
        }
      ],
      "name": "registerPairAggregators",
      "outputs": [
        {
          "internalType": "contract PairAggregatorInterface[]",
          "name": "newAggregators",
          "type": "address[]"
        }
      ],
      "payable": false,
      "stateMutability": "nonpayable",
      "type": "function"
    },
    {
      "constant": true,
      "inputs": [],
      "name": "settings",
      "outputs": [
        {
          "internalType": "contract SettingsInterface",
          "name": "",
          "type": "address"
        }
      ],
      "payable": false,
      "stateMutability": "view",
      "type": "function"
    },
    {
      "constant": false,
      "inputs": [
        {
          "components": [
            {
              "internalType": "address",
              "name": "baseToken",
              "type": "address"
            },
            {
              "internalType": "address",
              "name": "quoteToken",
              "type": "address"
            },
            {
              "internalType": "address",
              "name": "chainlinkAggregatorAddress",
              "type": "address"
            },
            {
              "internalType": "bool",
              "name": "inverse",
              "type": "bool"
            },
            {
              "internalType": "uint8",
              "name": "responseDecimals",
              "type": "uint8"
            },
            {
              "internalType": "uint8",
              "name": "collateralDecimals",
              "type": "uint8"
            }
          ],
          "internalType": "struct TellerCommon.PairAggregatorRegisterRequest",
          "name": "request",
          "type": "tuple"
        }
      ],
      "name": "updatePairAggregator",
      "outputs": [
        {
          "internalType": "contract PairAggregatorInterface",
          "name": "aggregator",
          "type": "address"
        }
      ],
      "payable": false,
      "stateMutability": "nonpayable",
      "type": "function"
    },
    {
      "constant": false,
      "inputs": [
        {
          "internalType": "address",
          "name": "baseAddress",
          "type": "address"
        },
        {
          "internalType": "address",
          "name": "quoteAddress",
          "type": "address"
        },
        {
          "internalType": "address",
          "name": "aggregatorAddress",
          "type": "address"
        }
      ],
      "name": "externalAddAggregatorFor",
      "outputs": [],
      "payable": false,
      "stateMutability": "nonpayable",
      "type": "function"
    }
  ],
  "bytecode": "0x608060405234801561001057600080fd5b50611e3b806100206000396000f3fe60806040523480156200001157600080fd5b5060043610620000ac5760003560e01c8063c4959317116200006f578063c49593171462000140578063c4d66de81462000157578063d7775ff1146200016e578063e06174e41462000194578063eef84f00146200019e57620000ac565b8063158ef93e14620000b1578063662a3e5814620000d3578063712985a614620000ea578063887b04b914620001035780638a35ec541462000129575b600080fd5b620000bb620001b5565b604051620000ca9190620015fd565b60405180910390f35b620000bb620000e436600462000fe1565b620001d6565b62000101620000fb36600462001020565b620001ed565b005b6200011a620001143660046200111d565b62000228565b604051620000ca91906200160d565b6200011a6200013a36600462000fe1565b62000581565b6200011a6200015136600462000fe1565b620005a4565b620001016200016836600462000f9f565b620005cc565b620001856200017f36600462001074565b6200060e565b604051620000ca9190620015ea565b6200011a62000762565b6200011a620001af3660046200111d565b62000786565b600080604051620001c690620014c1565b6040519081900390205492915050565b6000620001e4838362000831565b90505b92915050565b6001600160a01b0392831660009081526020818152604080832094861683529390529190912080546001600160a01b03191691909216179055565b600062000234620001b5565b6200025c5760405162461bcd60e51b8152600401620002539062001689565b60405180910390fd5b6200026662000762565b6001600160a01b031663c095ea27336040518263ffffffff1660e01b8152600401620002939190620014db565b60006040518083038186803b158015620002ac57600080fd5b505afa158015620002c1573d6000803e3d6000fd5b50620002e99250620002da915050602084018462000f9f565b6001600160a01b03166200085b565b620003085760405162461bcd60e51b8152600401620002539062001641565b6200031e620002da604084016020850162000f9f565b6200033d5760405162461bcd60e51b8152600401620002539062001653565b62000353620002da606084016040850162000f9f565b620003725760405162461bcd60e51b815260040162000253906200161d565b6200039d62000385602084018462000f9f565b62000397604085016020860162000f9f565b62000831565b620003bc5760405162461bcd60e51b8152600401620002539062001665565b60008080620003cf602086018662000f9f565b6001600160a01b03166001600160a01b03168152602001908152602001600020600084602001602062000406919081019062000f9f565b6001600160a01b039081168252602082019290925260400160002054169050620004406200043a368590038501856200113e565b62000898565b91508160008062000455602087018762000f9f565b6001600160a01b03166001600160a01b0316815260200190815260200160002060008560200160206200048c919081019062000f9f565b6001600160a01b03166001600160a01b0316815260200190815260200160002060006101000a8154816001600160a01b0302191690836001600160a01b03160217905550826020016020620004e5919081019062000f9f565b6001600160a01b0316620004fd602085018562000f9f565b6001600160a01b0316337f40d51ab006b90a1c76ff8d75ccaa5a3a095643d483e142576fc6d9818497c6c084866200053c60a08a0160808b016200115f565b6200054e60c08b0160a08c016200115f565b6200056060808c0160608d01620010ba565b60405162000573959493929190620014eb565b60405180910390a450919050565b60006020818152928152604080822090935290815220546001600160a01b031681565b6001600160a01b03918216600090815260208181526040808320938516835292905220541690565b620005d6620001b5565b15620005f65760405162461bcd60e51b815260040162000253906200169b565b620006018162000ad5565b6200060b62000b51565b50565b60606200061a620001b5565b620006395760405162461bcd60e51b8152600401620002539062001689565b6200064362000762565b6001600160a01b031663c095ea27336040518263ffffffff1660e01b8152600401620006709190620014db565b60006040518083038186803b1580156200068957600080fd5b505afa1580156200069e573d6000803e3d6000fd5b5050508215159050620006c55760405162461bcd60e51b8152600401620002539062001677565b604080518381526020808502820101909152828015620006ef578160200160208202803883390190505b50905060005b828110156200075b576200072d8484838181106200070f57fe5b905060c002018036036200072791908101906200113e565b62000b71565b8282815181106200073a57fe5b6001600160a01b0390921660209283029190910190910152600101620006f5565b5092915050565b60008060006040516200077590620014ce565b604051908190039020549250505090565b600062000792620001b5565b620007b15760405162461bcd60e51b8152600401620002539062001689565b620007bb62000762565b6001600160a01b031663c095ea27336040518263ffffffff1660e01b8152600401620007e89190620014db565b60006040518083038186803b1580156200080157600080fd5b505afa15801562000816573d6000803e3d6000fd5b50505050620001e7828036036200072791908101906200113e565b6001600160a01b039182166000908152602081815260408083209385168352929052205416151590565b6000813f7fc5d2460186f7233c927e7db2dcc703c0e500b653ca82273b7bfad8045d85a4708181148015906200089057508115155b949350505050565b600080620008a562000762565b6001600160a01b031663ea23cb7c6040518163ffffffff1660e01b815260040160206040518083038186803b158015620008de57600080fd5b505afa158015620008f3573d6000803e3d6000fd5b505050506040513d601f19601f82011682018060405250620009199190810190620010fc565b6001600160a01b031663d86d744e6040518163ffffffff1660e01b8152600401602060405180830381600087803b1580156200095457600080fd5b505af115801562000969573d6000803e3d6000fd5b505050506040513d601f19601f820116820180604052506200098f9190810190620010fc565b6001600160a01b031663c4f8f96e6040518163ffffffff1660e01b815260040160206040518083038186803b158015620009c857600080fd5b505afa158015620009dd573d6000803e3d6000fd5b505050506040513d601f19601f8201168201806040525062000a039190810190620010db565b9050600062000a1162000762565b8260405162000a209062000e38565b62000a2d92919062001587565b604051809103906000f08015801562000a4a573d6000803e3d6000fd5b5090506000819050809350836001600160a01b0316632e6536a88660400151876060015188608001518960a001516040518563ffffffff1660e01b815260040162000a99949392919062001541565b600060405180830381600087803b15801562000ab457600080fd5b505af115801562000ac9573d6000803e3d6000fd5b50505050505050919050565b62000af262000ae362000762565b6001600160a01b031662000e2a565b1562000afe576200060b565b62000b12816001600160a01b03166200085b565b62000b315760405162461bcd60e51b815260040162000253906200162f565b600060405162000b4190620014ce565b6040519081900390208290555050565b600060405162000b6190620014c1565b6040519081900390206001905550565b80516000906001600160a01b031662000b8962000762565b6001600160a01b031663a734f06e6040518163ffffffff1660e01b815260040160206040518083038186803b15801562000bc257600080fd5b505afa15801562000bd7573d6000803e3d6000fd5b505050506040513d601f19601f8201168201806040525062000bfd919081019062000fc0565b6001600160a01b0316148062000c245750815162000c24906001600160a01b03166200085b565b62000c435760405162461bcd60e51b8152600401620002539062001641565b81602001516001600160a01b031662000c5b62000762565b6001600160a01b031663a734f06e6040518163ffffffff1660e01b815260040160206040518083038186803b15801562000c9457600080fd5b505afa15801562000ca9573d6000803e3d6000fd5b505050506040513d601f19601f8201168201806040525062000ccf919081019062000fc0565b6001600160a01b0316148062000cf8575062000cf882602001516001600160a01b03166200085b565b62000d175760405162461bcd60e51b8152600401620002539062001653565b62000d2f82604001516001600160a01b03166200085b565b62000d4e5760405162461bcd60e51b815260040162000253906200161d565b62000d628260000151836020015162000831565b1562000d825760405162461bcd60e51b81526004016200025390620016ad565b62000d8d8262000898565b82516001600160a01b0390811660009081526020818152604080832082880180518616855292529182902080546001600160a01b031916858516179055518551608087015160a08801516060890151945196975092851695919094169333937f481bfc49ea4d87774cccc9f6e5b10300dfd9d4d35181edfc89bdf95b04029e819362000e1d9389939290620015ad565b60405180910390a4919050565b6001600160a01b0316151590565b610675806200178483390190565b8035620001e78162001740565b8051620001e78162001740565b60008083601f84011262000e7357600080fd5b50813567ffffffffffffffff81111562000e8c57600080fd5b6020830191508360c082028301111562000ea557600080fd5b9250929050565b8035620001e78162001757565b8051620001e78162001762565b8051620001e7816200176d565b600060c0828403121562000ee657600080fd5b50919050565b600060c0828403121562000eff57600080fd5b62000f0b60c0620016bf565b9050600062000f1b848462000e46565b825250602062000f2e8484830162000e46565b602083015250604062000f448482850162000e46565b604083015250606062000f5a8482850162000eac565b606083015250608062000f708482850162000f92565b60808301525060a062000f868482850162000f92565b60a08301525092915050565b8035620001e78162001778565b60006020828403121562000fb257600080fd5b600062000890848462000e46565b60006020828403121562000fd357600080fd5b600062000890848462000e53565b6000806040838503121562000ff557600080fd5b600062001003858562000e46565b9250506020620010168582860162000e46565b9150509250929050565b6000806000606084860312156200103657600080fd5b600062001044868662000e46565b9350506020620010578682870162000e46565b92505060406200106a8682870162000e46565b9150509250925092565b600080602083850312156200108857600080fd5b823567ffffffffffffffff811115620010a057600080fd5b620010ae8582860162000e60565b92509250509250929050565b600060208284031215620010cd57600080fd5b600062000890848462000eac565b600060208284031215620010ee57600080fd5b600062000890848462000eb9565b6000602082840312156200110f57600080fd5b600062000890848462000ec6565b600060c082840312156200113057600080fd5b600062000890848462000ed3565b600060c082840312156200115157600080fd5b600062000890848462000eec565b6000602082840312156200117257600080fd5b600062000890848462000f92565b60006200118e83836200122d565b505060200190565b620011a18162001733565b82525050565b620011a181620016ff565b6000620011bf82620016ed565b620011cb8185620016f1565b9350620011d883620016e7565b8060005b838110156200120c578151620011f3888262001180565b97506200120083620016e7565b925050600101620011dc565b509495945050505050565b620011a1816200170c565b620011a18162001711565b620011a18162001714565b600062001247601c83620016fa565b7f54496e697469616c697a61626c652e6973496e697469616c697a6564000000008152601c0192915050565b600062001282601e83620016f1565b7f434841494e4c494e4b5f4147475f4d5553545f42455f434f4e54524143540000815260200192915050565b6000620012bd601b83620016f1565b7f53455454494e47535f4d5553545f42455f415f434f4e54524143540000000000815260200192915050565b6000620012f8601b83620016f1565b7f424153455f544f4b454e5f4d5553545f42455f434f4e54524143540000000000815260200192915050565b600062001333601c83620016f1565b7f51554f54455f544f4b454e5f4d5553545f42455f434f4e545241435400000000815260200192915050565b60006200136e601983620016f1565b7f504149525f41474752454741544f525f4e4f545f455849535400000000000000815260200192915050565b6000620013a9601883620016fa565b7f426173655570677261646561626c652e73657474696e67730000000000000000815260180192915050565b6000620013e4601283620016f1565b71524551554553545f4c4953545f454d50545960701b815260200192915050565b600062001414601883620016f1565b7f434f4e54524143545f4e4f545f494e495449414c495a45440000000000000000815260200192915050565b60006200144f601c83620016f1565b7f434f4e54524143545f414c52454144595f494e495449414c495a454400000000815260200192915050565b60006200148a601d83620016f1565b7f504149525f41474752454741544f525f414c52454144595f4558495354000000815260200192915050565b620011a1816200172d565b6000620001e78262001238565b6000620001e7826200139a565b60208101620001e7828462001196565b60a08101620014fb8288620011a7565b6200150a6020830187620011a7565b620015196040830186620014b6565b620015286060830185620014b6565b62001537608083018462001217565b9695505050505050565b60808101620015518287620011a7565b62001560602083018662001217565b6200156f6040830185620014b6565b6200157e6060830184620014b6565b95945050505050565b60408101620015978285620011a7565b620015a6602083018462001222565b9392505050565b60808101620015bd8287620011a7565b620015cc6020830186620014b6565b620015db6040830185620014b6565b6200157e606083018462001217565b60208082528101620001e48184620011b2565b60208101620001e7828462001217565b60208101620001e782846200122d565b60208082528101620001e78162001273565b60208082528101620001e781620012ae565b60208082528101620001e781620012e9565b60208082528101620001e78162001324565b60208082528101620001e7816200135f565b60208082528101620001e781620013d5565b60208082528101620001e78162001405565b60208082528101620001e78162001440565b60208082528101620001e7816200147b565b60405181810167ffffffffffffffff81118282101715620016df57600080fd5b604052919050565b60200190565b5190565b90815260200190565b919050565b6000620001e78262001721565b151590565b90565b6000620001e782620016ff565b6001600160a01b031690565b60ff1690565b6000620001e78262001714565b6200174b81620016ff565b81146200060b57600080fd5b6200174b816200170c565b6200174b8162001711565b6200174b8162001714565b6200174b816200172d56fe608060405234801561001057600080fd5b506040516106753803806106758339818101604052604081101561003357600080fd5b50805160209091015161004e826001600160e01b0361006716565b610060816001600160e01b0361014316565b50506103cc565b61009361007b6001600160e01b0361031616565b6001600160a01b031661034c60201b61021b1760201c565b1561009d57610140565b6100b9816001600160a01b031661035a60201b6102291760201c565b61010a576040805162461bcd60e51b815260206004820152601b60248201527f53455454494e47535f4d5553545f42455f415f434f4e54524143540000000000604482015290519081900360640190fd5b604080517f426173655570677261646561626c652e73657474696e67730000000000000000815290519081900360180190208190555b50565b6101546001600160e01b0361039616565b156101a6576040805162461bcd60e51b815260206004820152601660248201527f4c4f4749435f4e414d455f414c52454144595f53455400000000000000000000604482015290519081900360640190fd5b6101b76001600160e01b0361031616565b6001600160a01b031663ea23cb7c6040518163ffffffff1660e01b815260040160206040518083038186803b1580156101ef57600080fd5b505afa158015610203573d6000803e3d6000fd5b505050506040513d602081101561021957600080fd5b50516040805163b28f5abb60e01b81526004810184905290516001600160a01b039092169163b28f5abb91602480820192602092909190829003018186803b15801561026457600080fd5b505afa158015610278573d6000803e3d6000fd5b505050506040513d602081101561028e57600080fd5b50516102e1576040805162461bcd60e51b815260206004820152601460248201527f4c4f4749435f4e414d455f4e4f545f4558495354000000000000000000000000604482015290519081900360640190fd5b604080517f426173655570677261646561626c652e6c6f6769634e616d65000000000000008152905190819003601901902055565b604080517f426173655570677261646561626c652e73657474696e67730000000000000000815290519081900360180190205490565b6001600160a01b0316151590565b6000813f7fc5d2460186f7233c927e7db2dcc703c0e500b653ca82273b7bfad8045d85a47081811480159061038e57508115155b949350505050565b604080517f426173655570677261646561626c652e6c6f6769634e616d6500000000000000815290519081900360190190205490565b61029a806103db6000396000f3fe6080604052600436106100295760003560e01c80635c60da1b14610033578063e06174e414610064575b610031610079565b005b34801561003f57600080fd5b50610048610093565b604080516001600160a01b039092168252519081900360200190f35b34801561007057600080fd5b506100486100a2565b610081610091565b61009161008c6100d8565b6101c1565b565b600061009d6100d8565b905090565b604080517f426173655570677261646561626c652e73657474696e67730000000000000000815290519081900360180190205490565b60006100e26100a2565b6001600160a01b031663ea23cb7c6040518163ffffffff1660e01b815260040160206040518083038186803b15801561011a57600080fd5b505afa15801561012e573d6000803e3d6000fd5b505050506040513d602081101561014457600080fd5b50516001600160a01b03166373f1fcf661015c6101e5565b6040518263ffffffff1660e01b81526004018082815260200191505060206040518083038186803b15801561019057600080fd5b505afa1580156101a4573d6000803e3d6000fd5b505050506040513d60208110156101ba57600080fd5b5051905090565b3660008037600080366000845af43d6000803e8080156101e0573d6000f35b3d6000fd5b604080517f426173655570677261646561626c652e6c6f6769634e616d6500000000000000815290519081900360190190205490565b6001600160a01b0316151590565b6000813f7fc5d2460186f7233c927e7db2dcc703c0e500b653ca82273b7bfad8045d85a47081811480159061025d57508115155b94935050505056fea265627a7a723158201befd7ed569c1720849784ec6a7e9f5f5ca6adc5544ceb327da092380cfdbb1b64736f6c63430005110032a365627a7a72315820dede7591dc2af0923d43171b94795a5dc2de8a4c108af7c3b574bb5f844b7a4d6c6578706572696d656e74616cf564736f6c63430005110040",
  "source": "pragma solidity 0.5.17;\npragma experimental ABIEncoderV2;\n\nimport \"../../../providers/chainlink/ChainlinkPairAggregatorRegistry.sol\";\n\ncontract PairAggregatorRegistryMock is ChainlinkPairAggregatorRegistry {\n    function externalAddAggregatorFor(\n        address baseAddress,\n        address quoteAddress,\n        address aggregatorAddress\n    ) external {\n        aggregators[baseAddress][quoteAddress] = PairAggregatorInterface(\n            aggregatorAddress\n        );\n    }\n}\n",
  "sourcePath": "/Users/guillesalazar/Repos/ZeroCollateral/smart-contracts-v1/contracts/mock/providers/chainlink/PairAggregatorRegistryMock.sol",
  "compiler": {
    "name": "solc",
    "version": "0.5.17+commit.d19bba13.Emscripten.clang"
  },
  "schemaVersion": "3.2.3",
  "updatedAt": "2020-10-12T14:23:11.546Z",
  "devdoc": {
    "methods": {
      "getPairAggregator(address,address)": {
        "return": "the pair aggregator address for the given base and quote addresses."
      },
      "hasPairAggregator(address,address)": {
        "return": "true if the pair aggregator address for the given base and quote tokens is not 0x0. Otherwise it returns false."
      },
      "initialize(address)": {
        "params": {
          "settingsAddress": "this settings address."
        }
      },
      "initialized()": {
        "return": "true if contract is initialized. Otherwise it returns false."
      },
      "registerPairAggregator((address,address,address,bool,uint8,uint8))": {
        "params": {
          "request": "the input data to register the new pair aggregator."
        },
        "return": "the new pair aggregator created."
      },
      "registerPairAggregators((address,address,address,bool,uint8,uint8)[])": {
        "params": {
          "requests": "the input data to register the new pair aggregator."
        },
        "return": "the new pair aggregator addresses."
      },
      "settings()": {
        "details": "This address should NOT change over the time. See details in the _setSettings(...) function."
      },
      "updatePairAggregator((address,address,address,bool,uint8,uint8))": {
        "params": {
          "request": "the input data to register the new pair aggregator."
        },
        "return": "the new pair aggregator created."
      }
    }
  },
  "userdoc": {
    "methods": {
      "getPairAggregator(address,address)": {
        "notice": "Gets a pair aggregator for a given base and quote tokens (a market).baseToken the base token address.quoteToken the quote token address."
      },
      "hasPairAggregator(address,address)": {
        "notice": "Tests whether a pair aggregator exists for a given base and quote tokens (a market) or not.baseToken the base token address.quoteToken the quote token address."
      },
      "initialize(address)": {
        "notice": "It initializes this registry contract."
      },
      "initialized()": {
        "notice": "Gets if the contract is initialized."
      },
      "registerPairAggregator((address,address,address,bool,uint8,uint8))": {
        "notice": "It registers a new pair aggregator for a given market."
      },
      "registerPairAggregators((address,address,address,bool,uint8,uint8)[])": {
        "notice": "It registers new pair aggregators for given markets."
      },
      "settings()": {
        "notice": "The gets the settings contract address from the SETTINGS_SLOT."
      },
      "updatePairAggregator((address,address,address,bool,uint8,uint8))": {
        "notice": "It updates a current pair aggregator for a given market."
      }
    }
  }
}