{
  "contractName": "PairAggregatorMock",
  "abi": [
    {
      "inputs": [
        {
          "internalType": "int256",
          "name": "initialPrice",
          "type": "int256"
        }
      ],
      "payable": false,
      "stateMutability": "nonpayable",
      "type": "constructor"
    },
    {
      "anonymous": false,
      "inputs": [
        {
          "indexed": true,
          "internalType": "int256",
          "name": "current",
          "type": "int256"
        },
        {
          "indexed": true,
          "internalType": "uint256",
          "name": "roundId",
          "type": "uint256"
        },
        {
          "indexed": false,
          "internalType": "uint256",
          "name": "timestamp",
          "type": "uint256"
        }
      ],
      "name": "AnswerUpdated",
      "type": "event"
    },
    {
      "anonymous": false,
      "inputs": [
        {
          "indexed": true,
          "internalType": "uint256",
          "name": "roundId",
          "type": "uint256"
        },
        {
          "indexed": true,
          "internalType": "address",
          "name": "startedBy",
          "type": "address"
        },
        {
          "indexed": false,
          "internalType": "uint256",
          "name": "startedAt",
          "type": "uint256"
        }
      ],
      "name": "NewRound",
      "type": "event"
    },
    {
      "constant": true,
      "inputs": [],
      "name": "latestRound",
      "outputs": [
        {
          "internalType": "uint256",
          "name": "",
          "type": "uint256"
        }
      ],
      "payable": false,
      "stateMutability": "view",
      "type": "function"
    },
    {
      "constant": false,
      "inputs": [
        {
          "internalType": "int256",
          "name": "newPrice",
          "type": "int256"
        }
      ],
      "name": "setLatestAnswer",
      "outputs": [
        {
          "internalType": "uint256",
          "name": "",
          "type": "uint256"
        }
      ],
      "payable": false,
      "stateMutability": "nonpayable",
      "type": "function"
    },
    {
      "constant": true,
      "inputs": [],
      "name": "latestAnswer",
      "outputs": [
        {
          "internalType": "int256",
          "name": "",
          "type": "int256"
        }
      ],
      "payable": false,
      "stateMutability": "view",
      "type": "function"
    },
    {
      "constant": true,
      "inputs": [],
      "name": "latestTimestamp",
      "outputs": [
        {
          "internalType": "uint256",
          "name": "",
          "type": "uint256"
        }
      ],
      "payable": false,
      "stateMutability": "view",
      "type": "function"
    },
    {
      "constant": true,
      "inputs": [
        {
          "internalType": "uint256",
          "name": "roundsBack",
          "type": "uint256"
        }
      ],
      "name": "getAnswer",
      "outputs": [
        {
          "internalType": "int256",
          "name": "",
          "type": "int256"
        }
      ],
      "payable": false,
      "stateMutability": "view",
      "type": "function"
    },
    {
      "constant": true,
      "inputs": [
        {
          "internalType": "uint256",
          "name": "roundsBack",
          "type": "uint256"
        }
      ],
      "name": "getTimestamp",
      "outputs": [
        {
          "internalType": "uint256",
          "name": "",
          "type": "uint256"
        }
      ],
      "payable": false,
      "stateMutability": "view",
      "type": "function"
    }
  ],
  "bytecode": "0x608060405234801561001057600080fd5b506040516103153803806103158339818101604052602081101561003357600080fd5b5051600160008181558190526020819052427fcc69885fda6bcc1a4ace058b4a62bf5e179ea78fd58a1ccd71c22cc9b688792f557fcc69885fda6bcc1a4ace058b4a62bf5e179ea78fd58a1ccd71c22cc9b6887930919091557fcc69885fda6bcc1a4ace058b4a62bf5e179ea78fd58a1ccd71c22cc9b688793155610258806100bd6000396000f3fe608060405234801561001057600080fd5b50600436106100625760003560e01c806304ea97b01461006757806350d25bcd14610096578063668a0f021461009e5780638205bf6a146100a6578063b5ab58dc146100ae578063b633620c146100cb575b600080fd5b6100846004803603602081101561007d57600080fd5b50356100e8565b60408051918252519081900360200190f35b610084610123565b61008461013a565b610084610140565b610084600480360360208110156100c457600080fd5b5035610153565b610084600480360360208110156100e157600080fd5b50356101bd565b600080546001908101808355825260208190526040808320429055825483528083209091019290925580548082529181206002019190915590565b600080548152600160208190526040909120015490565b60005481565b6000805481526001602052604090205490565b60008054808311156101a1576040805162461bcd60e51b81526020600482015260126024820152714e4f545f454e4f5547485f484953544f525960701b604482015290519081900360640190fd5b9190910360009081526001602081905260409091200154919050565b600080548083111561020b576040805162461bcd60e51b81526020600482015260126024820152714e4f545f454e4f5547485f484953544f525960701b604482015290519081900360640190fd5b9190910360009081526001602052604090205491905056fea265627a7a72315820ffef5cb7ea0e21a0d0e1b4a76c35017ca6f5f327ab15d0864410c4b57dd5c63664736f6c63430005110032",
  "source": "pragma solidity 0.5.17;\n\nimport \"@chainlink/contracts/src/v0.5/interfaces/AggregatorInterface.sol\";\n\ncontract PairAggregatorMock is AggregatorInterface {\n    struct PriceRound {\n        uint256 timestamp;\n        int256 price;\n        uint256 round;\n    }\n\n    uint256 public latestRound;\n    // round => price mapping\n    mapping(uint256 => PriceRound) private prices;\n\n    constructor(int256 initialPrice) public {\n        latestRound = 1;\n        prices[latestRound].timestamp = now;\n        prices[latestRound].price = initialPrice;\n        prices[latestRound].round = latestRound;\n    }\n\n    function setLatestAnswer(int256 newPrice) external returns (uint256) {\n        latestRound += 1;\n        prices[latestRound].timestamp = now;\n        prices[latestRound].price = newPrice;\n        prices[latestRound].round = latestRound;\n    }\n\n    function latestAnswer() external view returns (int256) {\n        return prices[latestRound].price;\n    }\n\n    function latestTimestamp() external view returns (uint256) {\n        return prices[latestRound].timestamp;\n    }\n\n    function getAnswer(uint256 roundsBack) external view returns (int256) {\n        uint256 latest = latestRound;\n        require(roundsBack <= latest, \"NOT_ENOUGH_HISTORY\");\n        return prices[latest - roundsBack].price;\n    }\n\n    function getTimestamp(uint256 roundsBack) external view returns (uint256) {\n        uint256 latest = latestRound;\n        require(roundsBack <= latest, \"NOT_ENOUGH_HISTORY\");\n        return prices[latest - roundsBack].timestamp;\n    }\n}\n",
  "sourcePath": "/Users/guillesalazar/Repos/ZeroCollateral/smart-contracts-v1/contracts/mock/providers/chainlink/PairAggregatorMock.sol",
  "compiler": {
    "name": "solc",
    "version": "0.5.17+commit.d19bba13.Emscripten.clang"
  },
  "schemaVersion": "3.2.3",
  "updatedAt": "2020-10-12T15:25:54.563Z",
  "networkType": "ethereum",
  "devdoc": {
    "methods": {}
  },
  "userdoc": {
    "methods": {}
  }
}