{
  "contractName": "SettingsMock",
  "abi": [
    {
      "anonymous": false,
      "inputs": [
        {
          "indexed": true,
          "internalType": "bytes32",
          "name": "assetSettingName",
          "type": "bytes32"
        },
        {
          "indexed": true,
          "internalType": "address",
          "name": "sender",
          "type": "address"
        },
        {
          "indexed": true,
          "internalType": "address",
          "name": "assetAddress",
          "type": "address"
        },
        {
          "indexed": false,
          "internalType": "address",
          "name": "oldValue",
          "type": "address"
        },
        {
          "indexed": false,
          "internalType": "address",
          "name": "newValue",
          "type": "address"
        }
      ],
      "name": "AssetSettingsAddressUpdated",
      "type": "event"
    },
    {
      "anonymous": false,
      "inputs": [
        {
          "indexed": true,
          "internalType": "address",
          "name": "sender",
          "type": "address"
        },
        {
          "indexed": true,
          "internalType": "address",
          "name": "assetAddress",
          "type": "address"
        },
        {
          "indexed": false,
          "internalType": "address",
          "name": "cTokenAddress",
          "type": "address"
        },
        {
          "indexed": false,
          "internalType": "uint256",
          "name": "maxLoanAmount",
          "type": "uint256"
        }
      ],
      "name": "AssetSettingsCreated",
      "type": "event"
    },
    {
      "anonymous": false,
      "inputs": [
        {
          "indexed": true,
          "internalType": "address",
          "name": "sender",
          "type": "address"
        },
        {
          "indexed": true,
          "internalType": "address",
          "name": "assetAddress",
          "type": "address"
        }
      ],
      "name": "AssetSettingsRemoved",
      "type": "event"
    },
    {
      "anonymous": false,
      "inputs": [
        {
          "indexed": true,
          "internalType": "bytes32",
          "name": "assetSettingName",
          "type": "bytes32"
        },
        {
          "indexed": true,
          "internalType": "address",
          "name": "sender",
          "type": "address"
        },
        {
          "indexed": true,
          "internalType": "address",
          "name": "assetAddress",
          "type": "address"
        },
        {
          "indexed": false,
          "internalType": "uint256",
          "name": "oldValue",
          "type": "uint256"
        },
        {
          "indexed": false,
          "internalType": "uint256",
          "name": "newValue",
          "type": "uint256"
        }
      ],
      "name": "AssetSettingsUintUpdated",
      "type": "event"
    },
    {
      "anonymous": false,
      "inputs": [
        {
          "indexed": true,
          "internalType": "address",
          "name": "account",
          "type": "address"
        },
        {
          "indexed": true,
          "internalType": "address",
          "name": "lendingPoolAddress",
          "type": "address"
        }
      ],
      "name": "LendingPoolPaused",
      "type": "event"
    },
    {
      "anonymous": false,
      "inputs": [
        {
          "indexed": true,
          "internalType": "address",
          "name": "account",
          "type": "address"
        },
        {
          "indexed": true,
          "internalType": "address",
          "name": "lendingPoolAddress",
          "type": "address"
        }
      ],
      "name": "LendingPoolUnpaused",
      "type": "event"
    },
    {
      "anonymous": false,
      "inputs": [
        {
          "indexed": false,
          "internalType": "address",
          "name": "account",
          "type": "address"
        }
      ],
      "name": "Paused",
      "type": "event"
    },
    {
      "anonymous": false,
      "inputs": [
        {
          "indexed": true,
          "internalType": "address",
          "name": "account",
          "type": "address"
        }
      ],
      "name": "PauserAdded",
      "type": "event"
    },
    {
      "anonymous": false,
      "inputs": [
        {
          "indexed": true,
          "internalType": "address",
          "name": "account",
          "type": "address"
        }
      ],
      "name": "PauserRemoved",
      "type": "event"
    },
    {
      "anonymous": false,
      "inputs": [
        {
          "indexed": true,
          "internalType": "bytes32",
          "name": "settingName",
          "type": "bytes32"
        },
        {
          "indexed": true,
          "internalType": "address",
          "name": "sender",
          "type": "address"
        },
        {
          "indexed": false,
          "internalType": "uint256",
          "name": "value",
          "type": "uint256"
        },
        {
          "indexed": false,
          "internalType": "uint256",
          "name": "minValue",
          "type": "uint256"
        },
        {
          "indexed": false,
          "internalType": "uint256",
          "name": "maxValue",
          "type": "uint256"
        }
      ],
      "name": "PlatformSettingCreated",
      "type": "event"
    },
    {
      "anonymous": false,
      "inputs": [
        {
          "indexed": true,
          "internalType": "bytes32",
          "name": "settingName",
          "type": "bytes32"
        },
        {
          "indexed": false,
          "internalType": "uint256",
          "name": "lastValue",
          "type": "uint256"
        },
        {
          "indexed": true,
          "internalType": "address",
          "name": "sender",
          "type": "address"
        }
      ],
      "name": "PlatformSettingRemoved",
      "type": "event"
    },
    {
      "anonymous": false,
      "inputs": [
        {
          "indexed": true,
          "internalType": "bytes32",
          "name": "settingName",
          "type": "bytes32"
        },
        {
          "indexed": true,
          "internalType": "address",
          "name": "sender",
          "type": "address"
        },
        {
          "indexed": false,
          "internalType": "uint256",
          "name": "oldValue",
          "type": "uint256"
        },
        {
          "indexed": false,
          "internalType": "uint256",
          "name": "newValue",
          "type": "uint256"
        }
      ],
      "name": "PlatformSettingUpdated",
      "type": "event"
    },
    {
      "anonymous": false,
      "inputs": [
        {
          "indexed": false,
          "internalType": "address",
          "name": "account",
          "type": "address"
        }
      ],
      "name": "Unpaused",
      "type": "event"
    },
    {
      "constant": true,
      "inputs": [],
      "name": "CTOKEN_ADDRESS_ASSET_SETTING",
      "outputs": [
        {
          "internalType": "bytes32",
          "name": "",
          "type": "bytes32"
        }
      ],
      "payable": false,
      "stateMutability": "view",
      "type": "function"
    },
    {
      "constant": true,
      "inputs": [],
      "name": "ETH_ADDRESS",
      "outputs": [
        {
          "internalType": "address",
          "name": "",
          "type": "address"
        }
      ],
      "payable": false,
      "stateMutability": "view",
      "type": "function"
    },
    {
      "constant": true,
      "inputs": [],
      "name": "MAX_LOAN_AMOUNT_ASSET_SETTING",
      "outputs": [
        {
          "internalType": "bytes32",
          "name": "",
          "type": "bytes32"
        }
      ],
      "payable": false,
      "stateMutability": "view",
      "type": "function"
    },
    {
      "constant": false,
      "inputs": [
        {
          "internalType": "address",
          "name": "account",
          "type": "address"
        }
      ],
      "name": "addPauser",
      "outputs": [],
      "payable": false,
      "stateMutability": "nonpayable",
      "type": "function"
    },
    {
      "constant": true,
      "inputs": [
        {
          "internalType": "address",
          "name": "",
          "type": "address"
        }
      ],
      "name": "assetSettings",
      "outputs": [
        {
          "internalType": "address",
          "name": "cTokenAddress",
          "type": "address"
        },
        {
          "internalType": "uint256",
          "name": "maxLoanAmount",
          "type": "uint256"
        }
      ],
      "payable": false,
      "stateMutability": "view",
      "type": "function"
    },
    {
      "constant": true,
      "inputs": [
        {
          "internalType": "uint256",
          "name": "",
          "type": "uint256"
        }
      ],
      "name": "assets",
      "outputs": [
        {
          "internalType": "address",
          "name": "",
          "type": "address"
        }
      ],
      "payable": false,
      "stateMutability": "view",
      "type": "function"
    },
    {
      "constant": true,
      "inputs": [],
      "name": "atmSettings",
      "outputs": [
        {
          "internalType": "contract IATMSettings",
          "name": "",
          "type": "address"
        }
      ],
      "payable": false,
      "stateMutability": "view",
      "type": "function"
    },
    {
      "constant": false,
      "inputs": [
        {
          "internalType": "address",
          "name": "assetAddress",
          "type": "address"
        },
        {
          "internalType": "address",
          "name": "cTokenAddress",
          "type": "address"
        },
        {
          "internalType": "uint256",
          "name": "maxLoanAmount",
          "type": "uint256"
        }
      ],
      "name": "createAssetSettings",
      "outputs": [],
      "payable": false,
      "stateMutability": "nonpayable",
      "type": "function"
    },
    {
      "constant": false,
      "inputs": [
        {
          "internalType": "bytes32",
          "name": "settingName",
          "type": "bytes32"
        },
        {
          "internalType": "uint256",
          "name": "value",
          "type": "uint256"
        },
        {
          "internalType": "uint256",
          "name": "minValue",
          "type": "uint256"
        },
        {
          "internalType": "uint256",
          "name": "maxValue",
          "type": "uint256"
        }
      ],
      "name": "createPlatformSetting",
      "outputs": [],
      "payable": false,
      "stateMutability": "nonpayable",
      "type": "function"
    },
    {
      "constant": true,
      "inputs": [],
      "name": "escrowFactory",
      "outputs": [
        {
          "internalType": "contract EscrowFactoryInterface",
          "name": "",
          "type": "address"
        }
      ],
      "payable": false,
      "stateMutability": "view",
      "type": "function"
    },
    {
      "constant": true,
      "inputs": [
        {
          "internalType": "address",
          "name": "assetAddress",
          "type": "address"
        },
        {
          "internalType": "uint256",
          "name": "amount",
          "type": "uint256"
        }
      ],
      "name": "exceedsMaxLoanAmount",
      "outputs": [
        {
          "internalType": "bool",
          "name": "",
          "type": "bool"
        }
      ],
      "payable": false,
      "stateMutability": "view",
      "type": "function"
    },
    {
      "constant": true,
      "inputs": [
        {
          "internalType": "address",
          "name": "assetAddress",
          "type": "address"
        }
      ],
      "name": "getAssetSettings",
      "outputs": [
        {
          "components": [
            {
              "internalType": "address",
              "name": "cTokenAddress",
              "type": "address"
            },
            {
              "internalType": "uint256",
              "name": "maxLoanAmount",
              "type": "uint256"
            }
          ],
          "internalType": "struct AssetSettingsLib.AssetSettings",
          "name": "",
          "type": "tuple"
        }
      ],
      "payable": false,
      "stateMutability": "view",
      "type": "function"
    },
    {
      "constant": true,
      "inputs": [],
      "name": "getAssets",
      "outputs": [
        {
          "internalType": "address[]",
          "name": "",
          "type": "address[]"
        }
      ],
      "payable": false,
      "stateMutability": "view",
      "type": "function"
    },
    {
      "constant": true,
      "inputs": [
        {
          "internalType": "bytes32",
          "name": "settingName",
          "type": "bytes32"
        }
      ],
      "name": "getPlatformSetting",
      "outputs": [
        {
          "components": [
            {
              "internalType": "uint256",
              "name": "value",
              "type": "uint256"
            },
            {
              "internalType": "uint256",
              "name": "min",
              "type": "uint256"
            },
            {
              "internalType": "uint256",
              "name": "max",
              "type": "uint256"
            },
            {
              "internalType": "bool",
              "name": "exists",
              "type": "bool"
            }
          ],
          "internalType": "struct PlatformSettingsLib.PlatformSetting",
          "name": "",
          "type": "tuple"
        }
      ],
      "payable": false,
      "stateMutability": "view",
      "type": "function"
    },
    {
      "constant": true,
      "inputs": [
        {
          "internalType": "bytes32",
          "name": "settingName",
          "type": "bytes32"
        }
      ],
      "name": "getPlatformSettingValue",
      "outputs": [
        {
          "internalType": "uint256",
          "name": "",
          "type": "uint256"
        }
      ],
      "payable": false,
      "stateMutability": "view",
      "type": "function"
    },
    {
      "constant": true,
      "inputs": [
        {
          "internalType": "address",
          "name": "account",
          "type": "address"
        }
      ],
      "name": "hasPauserRole",
      "outputs": [
        {
          "internalType": "bool",
          "name": "",
          "type": "bool"
        }
      ],
      "payable": false,
      "stateMutability": "view",
      "type": "function"
    },
    {
      "constant": true,
      "inputs": [
        {
          "internalType": "bytes32",
          "name": "settingName",
          "type": "bytes32"
        }
      ],
      "name": "hasPlatformSetting",
      "outputs": [
        {
          "internalType": "bool",
          "name": "",
          "type": "bool"
        }
      ],
      "payable": false,
      "stateMutability": "view",
      "type": "function"
    },
    {
      "constant": false,
      "inputs": [
        {
          "internalType": "address",
          "name": "sender",
          "type": "address"
        }
      ],
      "name": "initialize",
      "outputs": [],
      "payable": false,
      "stateMutability": "nonpayable",
      "type": "function"
    },
    {
      "constant": false,
      "inputs": [
        {
          "internalType": "address",
          "name": "escrowFactoryAddress",
          "type": "address"
        },
        {
          "internalType": "address",
          "name": "versionsRegistryAddress",
          "type": "address"
        },
        {
          "internalType": "address",
          "name": "pairAggregatorRegistryAddress",
          "type": "address"
        },
        {
          "internalType": "address",
          "name": "marketsStateAddress",
          "type": "address"
        },
        {
          "internalType": "address",
          "name": "interestValidatorAddress",
          "type": "address"
        },
        {
          "internalType": "address",
          "name": "atmSettingsAddress",
          "type": "address"
        }
      ],
      "name": "initialize",
      "outputs": [],
      "payable": false,
      "stateMutability": "nonpayable",
      "type": "function"
    },
    {
      "constant": true,
      "inputs": [],
      "name": "initialized",
      "outputs": [
        {
          "internalType": "bool",
          "name": "value",
          "type": "bool"
        }
      ],
      "payable": false,
      "stateMutability": "view",
      "type": "function"
    },
    {
      "constant": true,
      "inputs": [],
      "name": "interestValidator",
      "outputs": [
        {
          "internalType": "contract InterestValidatorInterface",
          "name": "",
          "type": "address"
        }
      ],
      "payable": false,
      "stateMutability": "view",
      "type": "function"
    },
    {
      "constant": true,
      "inputs": [],
      "name": "isPaused",
      "outputs": [
        {
          "internalType": "bool",
          "name": "",
          "type": "bool"
        }
      ],
      "payable": false,
      "stateMutability": "view",
      "type": "function"
    },
    {
      "constant": true,
      "inputs": [
        {
          "internalType": "address",
          "name": "account",
          "type": "address"
        }
      ],
      "name": "isPauser",
      "outputs": [
        {
          "internalType": "bool",
          "name": "",
          "type": "bool"
        }
      ],
      "payable": false,
      "stateMutability": "view",
      "type": "function"
    },
    {
      "constant": true,
      "inputs": [
        {
          "internalType": "address",
          "name": "",
          "type": "address"
        }
      ],
      "name": "lendingPoolPaused",
      "outputs": [
        {
          "internalType": "bool",
          "name": "",
          "type": "bool"
        }
      ],
      "payable": false,
      "stateMutability": "view",
      "type": "function"
    },
    {
      "constant": true,
      "inputs": [],
      "name": "marketsState",
      "outputs": [
        {
          "internalType": "contract MarketsStateInterface",
          "name": "",
          "type": "address"
        }
      ],
      "payable": false,
      "stateMutability": "view",
      "type": "function"
    },
    {
      "constant": true,
      "inputs": [],
      "name": "pairAggregatorRegistry",
      "outputs": [
        {
          "internalType": "contract IChainlinkPairAggregatorRegistry",
          "name": "",
          "type": "address"
        }
      ],
      "payable": false,
      "stateMutability": "view",
      "type": "function"
    },
    {
      "constant": false,
      "inputs": [],
      "name": "pause",
      "outputs": [],
      "payable": false,
      "stateMutability": "nonpayable",
      "type": "function"
    },
    {
      "constant": false,
      "inputs": [
        {
          "internalType": "address",
          "name": "lendingPoolAddress",
          "type": "address"
        }
      ],
      "name": "pauseLendingPool",
      "outputs": [],
      "payable": false,
      "stateMutability": "nonpayable",
      "type": "function"
    },
    {
      "constant": true,
      "inputs": [],
      "name": "paused",
      "outputs": [
        {
          "internalType": "bool",
          "name": "",
          "type": "bool"
        }
      ],
      "payable": false,
      "stateMutability": "view",
      "type": "function"
    },
    {
      "constant": true,
      "inputs": [
        {
          "internalType": "bytes32",
          "name": "",
          "type": "bytes32"
        }
      ],
      "name": "platformSettings",
      "outputs": [
        {
          "internalType": "uint256",
          "name": "value",
          "type": "uint256"
        },
        {
          "internalType": "uint256",
          "name": "min",
          "type": "uint256"
        },
        {
          "internalType": "uint256",
          "name": "max",
          "type": "uint256"
        },
        {
          "internalType": "bool",
          "name": "exists",
          "type": "bool"
        }
      ],
      "payable": false,
      "stateMutability": "view",
      "type": "function"
    },
    {
      "constant": false,
      "inputs": [
        {
          "internalType": "address",
          "name": "assetAddress",
          "type": "address"
        }
      ],
      "name": "removeAssetSettings",
      "outputs": [],
      "payable": false,
      "stateMutability": "nonpayable",
      "type": "function"
    },
    {
      "constant": false,
      "inputs": [
        {
          "internalType": "bytes32",
          "name": "settingName",
          "type": "bytes32"
        }
      ],
      "name": "removePlatformSetting",
      "outputs": [],
      "payable": false,
      "stateMutability": "nonpayable",
      "type": "function"
    },
    {
      "constant": false,
      "inputs": [],
      "name": "renouncePauser",
      "outputs": [],
      "payable": false,
      "stateMutability": "nonpayable",
      "type": "function"
    },
    {
      "constant": true,
      "inputs": [
        {
          "internalType": "address",
          "name": "account",
          "type": "address"
        }
      ],
      "name": "requirePauserRole",
      "outputs": [],
      "payable": false,
      "stateMutability": "view",
      "type": "function"
    },
    {
      "constant": true,
      "inputs": [],
      "name": "settings",
      "outputs": [
        {
          "internalType": "contract SettingsInterface",
          "name": "",
          "type": "address"
        }
      ],
      "payable": false,
      "stateMutability": "view",
      "type": "function"
    },
    {
      "constant": false,
      "inputs": [],
      "name": "unpause",
      "outputs": [],
      "payable": false,
      "stateMutability": "nonpayable",
      "type": "function"
    },
    {
      "constant": false,
      "inputs": [
        {
          "internalType": "address",
          "name": "lendingPoolAddress",
          "type": "address"
        }
      ],
      "name": "unpauseLendingPool",
      "outputs": [],
      "payable": false,
      "stateMutability": "nonpayable",
      "type": "function"
    },
    {
      "constant": false,
      "inputs": [
        {
          "internalType": "address",
          "name": "assetAddress",
          "type": "address"
        },
        {
          "internalType": "address",
          "name": "newCTokenAddress",
          "type": "address"
        }
      ],
      "name": "updateCTokenAddress",
      "outputs": [],
      "payable": false,
      "stateMutability": "nonpayable",
      "type": "function"
    },
    {
      "constant": false,
      "inputs": [
        {
          "internalType": "address",
          "name": "assetAddress",
          "type": "address"
        },
        {
          "internalType": "uint256",
          "name": "newMaxLoanAmount",
          "type": "uint256"
        }
      ],
      "name": "updateMaxLoanAmount",
      "outputs": [],
      "payable": false,
      "stateMutability": "nonpayable",
      "type": "function"
    },
    {
      "constant": false,
      "inputs": [
        {
          "internalType": "bytes32",
          "name": "settingName",
          "type": "bytes32"
        },
        {
          "internalType": "uint256",
          "name": "newValue",
          "type": "uint256"
        }
      ],
      "name": "updatePlatformSetting",
      "outputs": [],
      "payable": false,
      "stateMutability": "nonpayable",
      "type": "function"
    },
    {
      "constant": true,
      "inputs": [],
      "name": "versionsRegistry",
      "outputs": [
        {
          "internalType": "contract LogicVersionsRegistryInterface",
          "name": "",
          "type": "address"
        }
      ],
      "payable": false,
      "stateMutability": "view",
      "type": "function"
    },
    {
      "constant": false,
      "inputs": [
        {
          "internalType": "address",
          "name": "registryAddress",
          "type": "address"
        }
      ],
      "name": "externalSetPairAggregatorRegistry",
      "outputs": [],
      "payable": false,
      "stateMutability": "nonpayable",
      "type": "function"
    }
  ],
  "bytecode": "0x6080604052613243806100136000396000f3fe608060405234801561001057600080fd5b506004361061025e5760003560e01c806374b7b6a611610146578063c4d66de8116100c3578063dc21a6a011610087578063dc21a6a014610504578063e06174e41461050c578063ea23cb7c14610514578063ee2e0fdc1461051c578063fa4c4c031461052f578063fbedbe5c146105375761025e565b8063c4d66de814610498578063cc2a9a5b146104ab578063ce199129146104be578063cf35bdd0146104de578063d10a0aec146104f15761025e565b8063a734f06e1161010a578063a734f06e14610458578063b187bd261461046d578063b8aa619414610475578063bdd1daaa1461047d578063c095ea27146104855761025e565b806374b7b6a61461040457806382dc1ec4146104175780638456cb591461042a5780639dec88b914610432578063a239c58b146104455761025e565b80633b668321116101df5780635f72868f116101a35780635f72868f1461038d57806362f9ed77146103a057806367e4ac2c146103b357806369ff7744146103c85780636b3b8ec1146103db5780636ef8d66d146103fc5761025e565b80633b668321146103375780633f4ba83a1461034a57806346fbf68e146103525780634c7b0972146103655780635c975abb146103855761025e565b80631be0ed37116102265780631be0ed37146102d65780631f338eb5146102e9578063269012a0146102fc5780632fa8a7ee1461031c57806332c1ff91146103245761025e565b806302d58da7146102635780631362fee7146102815780631390f8d7146102a457806314bba134146102ac578063158ef93e146102c1575b600080fd5b61026b61054a565b6040516102789190612e91565b60405180910390f35b61029461028f3660046123dd565b610559565b6040516102789493929190613132565b61026b610583565b6102bf6102ba366004612281565b610592565b005b6102c96105b4565b6040516102789190612e75565b6102bf6102e4366004612281565b6105d3565b6102bf6102f73660046123ad565b610757565b61030f61030a3660046123dd565b61086f565b6040516102789190612e83565b61026b610881565b6102bf61033236600461229f565b610890565b6102c9610345366004612281565b61099c565b6102bf6109b1565b6102c9610360366004612281565b610a82565b610378610373366004612281565b610a9b565b60405161027891906130e0565b6102c9610ae0565b6102bf61039b366004612360565b610aea565b6102bf6103ae3660046123dd565b610c4d565b6103bb610d34565b6040516102789190612e64565b6102c96103d63660046123ad565b610d96565b6103ee6103e9366004612281565b610dc5565b604051610278929190612e49565b6102bf610dea565b6102c96104123660046123dd565b610dfc565b6102bf610425366004612281565b610e11565b6102bf610e80565b6102bf61044036600461241a565b610f3e565b6102bf610453366004612281565b61104e565b6104606111b9565b6040516102789190612e12565b6102c96111d1565b61030f6111e0565b61026b6111f4565b6102bf610493366004612281565b611203565b6102bf6104a6366004612281565b611228565b6102bf6104b93660046122d9565b6112bf565b6104d16104cc3660046123dd565b611494565b60405161027891906130ee565b6104606104ec3660046123dd565b6114a5565b6102bf6104ff3660046123fb565b6114cc565b61026b6115af565b61026b6115be565b61026b6115e0565b6102c961052a366004612281565b6115ef565b61030f6115fa565b6102bf610545366004612281565b61160e565b609f546001600160a01b031681565b609c6020526000908152604090208054600182015460028301546003909301549192909160ff1684565b60a0546001600160a01b031681565b609f80546001600160a01b0319166001600160a01b0392909216919091179055565b6000806040516105c390612dfc565b6040519081900390205492915050565b6105db6115be565b6001600160a01b031663c095ea27336040518263ffffffff1660e01b81526004016106069190612e20565b60006040518083038186803b15801561061e57600080fd5b505afa158015610632573d6000803e3d6000fd5b505060665460ff1615915061066490505760405162461bcd60e51b815260040161065b90612f70565b60405180910390fd5b61066c6105b4565b6106885760405162461bcd60e51b815260040161065b906130a0565b60408051808201909152601881527713115391125391d7d413d3d317d254d7d49154555254915160421b60208201526106d1906001600160a01b0383169063ffffffff61178516565b6001600160a01b03811660009081526099602052604090205460ff161561070a5760405162461bcd60e51b815260040161065b90612eb0565b6001600160a01b038116600081815260996020526040808220805460ff191660011790555133917fff7b62e2b5984471f0fb76a23e84a0d6f2e5c3e8818a929948190ce967a2fc2e91a350565b61075f6115be565b6001600160a01b031663c095ea27336040518263ffffffff1660e01b815260040161078a9190612e20565b60006040518083038186803b1580156107a257600080fd5b505afa1580156107b6573d6000803e3d6000fd5b505050506107c26105b4565b6107de5760405162461bcd60e51b815260040161065b906130a0565b6001600160a01b0382166000908152609a6020526040902060018101549061080c908363ffffffff6117b216565b826001600160a01b0316336001600160a01b03166c13585e131bd85b905b5bdd5b9d609a1b7fc34434be61dd5409142baf6b4b56c888a407184091916f210f1229981176729e84866040516108629291906130fc565b60405180910390a4505050565b600061087a82611807565b5192915050565b60a1546001600160a01b031681565b6108986115be565b6001600160a01b031663c095ea27336040518263ffffffff1660e01b81526004016108c39190612e20565b60006040518083038186803b1580156108db57600080fd5b505afa1580156108ef573d6000803e3d6000fd5b505050506108fb6105b4565b6109175760405162461bcd60e51b815260040161065b906130a0565b6001600160a01b038083166000908152609a60205260409020805490911690610946908363ffffffff61185916565b826001600160a01b0316336001600160a01b03166c43546f6b656e4164647265737360981b7f929f6b235ccfb7d9550dd06e5cde398e177120a98377d5f152b6c76e030f45fa8486604051610862929190612e2e565b60996020526000908152604090205460ff1681565b6109b96115be565b6001600160a01b031663c095ea27336040518263ffffffff1660e01b81526004016109e49190612e20565b60006040518083038186803b1580156109fc57600080fd5b505afa158015610a10573d6000803e3d6000fd5b505060665460ff169150610a3890505760405162461bcd60e51b815260040161065b90612ec0565b6066805460ff191690557f5db9ee0a495bf2e6ff9c91a7834c1ba4fdd244a5e8aa4e537bd38aeae4b073aa610a6b6118ac565b604051610a789190612e20565b60405180910390a1565b6000610a9560338363ffffffff6118b016565b92915050565b610aa36121ed565b506001600160a01b039081166000908152609a60209081526040918290208251808401909352805490931682526001909201549181019190915290565b60665460ff165b90565b610af26115be565b6001600160a01b031663c095ea27336040518263ffffffff1660e01b8152600401610b1d9190612e20565b60006040518083038186803b158015610b3557600080fd5b505afa158015610b49573d6000803e3d6000fd5b50505050610b556105b4565b610b715760405162461bcd60e51b815260040161065b906130a0565b610b83836001600160a01b03166118f8565b610b9f5760405162461bcd60e51b815260040161065b90613020565b6001600160a01b0383166000908152609a60205260409020610bc090611934565b6001600160a01b0383166000908152609a60205260409020610be990838363ffffffff61195a16565b610bfa609b8463ffffffff6119e616565b50826001600160a01b0316336001600160a01b03167fe37faf4827cb3cd6cbaf895d9ca6b0f7ea5113da8a6ca24b281270c760f03bc08484604051610c40929190612e49565b60405180910390a3505050565b610c556115be565b6001600160a01b031663c095ea27336040518263ffffffff1660e01b8152600401610c809190612e20565b60006040518083038186803b158015610c9857600080fd5b505afa158015610cac573d6000803e3d6000fd5b50505050610cb86105b4565b610cd45760405162461bcd60e51b815260040161065b906130a0565b6000818152609c60205260409020805490610cee90611a9a565b336001600160a01b0316827f441e6d4e0fa187867205bff50ab3fdf95c4612c241878b3f50d93a1256669dc983604051610d289190612e83565b60405180910390a35050565b6060609b805480602002602001604051908101604052809291908181526020018280548015610d8c57602002820191906000526020600020905b81546001600160a01b03168152600190910190602001808311610d6e575b5050505050905090565b6001600160a01b0382166000908152609a60205260408120610dbe908363ffffffff611ac116565b9392505050565b609a60205260009081526040902080546001909101546001600160a01b039091169082565b610dfa610df56118ac565b611acc565b565b6000610e0782611807565b6060015192915050565b610e196115be565b6001600160a01b031663c095ea27336040518263ffffffff1660e01b8152600401610e449190612e20565b60006040518083038186803b158015610e5c57600080fd5b505afa158015610e70573d6000803e3d6000fd5b50505050610e7d81611b14565b50565b610e886115be565b6001600160a01b031663c095ea27336040518263ffffffff1660e01b8152600401610eb39190612e20565b60006040518083038186803b158015610ecb57600080fd5b505afa158015610edf573d6000803e3d6000fd5b505060665460ff16159150610f0890505760405162461bcd60e51b815260040161065b90612f70565b6066805460ff191660011790557f62e78cea01bee320cd4e420270b5ea74000d11b0c9f74754ebdbfc544b05a258610a6b6118ac565b610f466115be565b6001600160a01b031663c095ea27336040518263ffffffff1660e01b8152600401610f719190612e20565b60006040518083038186803b158015610f8957600080fd5b505afa158015610f9d573d6000803e3d6000fd5b50505050610fa96105b4565b610fc55760405162461bcd60e51b815260040161065b906130a0565b83610fe25760405162461bcd60e51b815260040161065b906130d0565b6000848152609c602052604090206110029084848463ffffffff611b5c16565b336001600160a01b0316847f88608f5277d08a47d0b5c4911811b474510dfcb1e303b13120b4fdd013ee4feb8585856040516110409392919061310a565b60405180910390a350505050565b6110566115be565b6001600160a01b031663c095ea27336040518263ffffffff1660e01b81526004016110819190612e20565b60006040518083038186803b15801561109957600080fd5b505afa1580156110ad573d6000803e3d6000fd5b505050506110b96105b4565b6110d55760405162461bcd60e51b815260040161065b906130a0565b60408051808201909152601981527f41535345545f414444524553535f49535f5245515549524544000000000000006020820152611123906001600160a01b0383169063ffffffff61178516565b6001600160a01b0381166000908152609a6020526040902061114490611bcb565b6001600160a01b0381166000908152609a6020526040812080546001600160a01b03191681556001015561117f609b8263ffffffff611bf516565b506040516001600160a01b0382169033907fff739057fdc41db152d18e4a53b9ed8db9afe0b5b7bc4c9e7e60168cb6a0d7e790600090a350565b73eeeeeeeeeeeeeeeeeeeeeeeeeeeeeeeeeeeeeeee81565b60006111db610ae0565b905090565b6c13585e131bd85b905b5bdd5b9d609a1b81565b609d546001600160a01b031681565b61120c816115ef565b610e7d5760405162461bcd60e51b815260040161065b90612f30565b600054610100900460ff16806112415750611241611c7f565b8061124f575060005460ff16155b61126b5760405162461bcd60e51b815260040161065b90613030565b600054610100900460ff16158015611296576000805460ff1961ff0019909116610100171660011790555b61129f82611c85565b6066805460ff1916905580156112bb576000805461ff00191690555b5050565b6112c76105b4565b156112e45760405162461bcd60e51b815260040161065b906130b0565b6112f6866001600160a01b03166118f8565b6113125760405162461bcd60e51b815260040161065b90612ff0565b611324856001600160a01b03166118f8565b6113405760405162461bcd60e51b815260040161065b90612fe0565b611352846001600160a01b03166118f8565b61136e5760405162461bcd60e51b815260040161065b90612fc0565b611380836001600160a01b03166118f8565b61139c5760405162461bcd60e51b815260040161065b90613040565b6113ae826001600160a01b0316611d1e565b806113c657506113c6826001600160a01b03166118f8565b6113e25760405162461bcd60e51b815260040161065b90612f50565b6113f4816001600160a01b03166118f8565b6114105760405162461bcd60e51b815260040161065b90612f10565b61141933611228565b611421611d2b565b609d80546001600160a01b03199081166001600160a01b0389811691909117909255609e80548216888416179055609f8054821687841617905560a08054821686841617905560a18054821685841617905560a2805490911691831691909117905561148c30611d49565b505050505050565b61149c612204565b610a9582611807565b609b81815481106114b257fe5b6000918252602090912001546001600160a01b0316905081565b6114d46115be565b6001600160a01b031663c095ea27336040518263ffffffff1660e01b81526004016114ff9190612e20565b60006040518083038186803b15801561151757600080fd5b505afa15801561152b573d6000803e3d6000fd5b505050506115376105b4565b6115535760405162461bcd60e51b815260040161065b906130a0565b6000828152609c60205260408120611571908363ffffffff611db216565b9050336001600160a01b0316837ff5d6988acb4a237a95feb459c3b5d7f95ad15acfe26d31cd4bf88b8b1ec792de8385604051610c409291906130fc565b60a2546001600160a01b031681565b60008060006040516115cf90612e07565b604051908190039020549250505090565b609e546001600160a01b031681565b6000610a9582610a82565b6c43546f6b656e4164647265737360981b81565b6116166115be565b6001600160a01b031663c095ea27336040518263ffffffff1660e01b81526004016116419190612e20565b60006040518083038186803b15801561165957600080fd5b505afa15801561166d573d6000803e3d6000fd5b505060665460ff1615915061169690505760405162461bcd60e51b815260040161065b90612f70565b61169e6105b4565b6116ba5760405162461bcd60e51b815260040161065b906130a0565b60408051808201909152601881527713115391125391d7d413d3d317d254d7d49154555254915160421b6020820152611703906001600160a01b0383169063ffffffff61178516565b6001600160a01b03811660009081526099602052604090205460ff1661173b5760405162461bcd60e51b815260040161065b90613070565b6001600160a01b038116600081815260996020526040808220805460ff191690555133917fc55a972437581d7d7bfd8729cdde06ee7e788e1a407b4cfdc6a0330d04b391f191a350565b61178e82611e2e565b81906117ad5760405162461bcd60e51b815260040161065b9190612e9f565b505050565b6117bb82611bcb565b80826001015414156117df5760405162461bcd60e51b815260040161065b90612fb0565b600081116117ff5760405162461bcd60e51b815260040161065b90613050565b600190910155565b61180f612204565b506000908152609c602090815260409182902082516080810184528154815260018201549281019290925260028101549282019290925260039091015460ff161515606082015290565b61186282611bcb565b81546001600160a01b038281169116141561188f5760405162461bcd60e51b815260040161065b90612f90565b81546001600160a01b0319166001600160a01b0391909116179055565b3390565b60006001600160a01b0382166118d85760405162461bcd60e51b815260040161065b90613010565b506001600160a01b03166000908152602091909152604090205460ff1690565b6000813f7fc5d2460186f7233c927e7db2dcc703c0e500b653ca82273b7bfad8045d85a47081811480159061192c57508115155b949350505050565b61193d81611e3c565b15610e7d5760405162461bcd60e51b815260040161065b906130c0565b6000811161197a5760405162461bcd60e51b815260040161065b90612f80565b61198c826001600160a01b0316611d1e565b806119a457506119a4826001600160a01b03166118f8565b6119c05760405162461bcd60e51b815260040161065b90612f00565b82546001600160a01b0319166001600160a01b0392909216919091178255600190910155565b60606001600160a01b038216611a0e5760405162461bcd60e51b815260040161065b90612f60565b8254600181018455600084815260209081902090910180546001600160a01b0319166001600160a01b0385161790558354604080518284028101840190915281815291859190830182828015611a8d57602002820191906000526020600020905b81546001600160a01b03168152600190910190602001808311611a6f575b5050505050905092915050565b611aa381611e45565b6000808255600182018190556002820155600301805460ff19169055565b600191909101541090565b611add60338263ffffffff611e6e16565b6040516001600160a01b038216907fcd265ebaf09df2871cc7bd4133404a235ba12eff2041bb89d9c714a2621c7c7e90600090a250565b611b2560338263ffffffff611eb616565b6040516001600160a01b038216907f6719d08c1888103bea251a4ed56406bd0c3e69723c8a1686e017e7bbe159b6f890600090a250565b611b6584611f02565b81831015611b855760405162461bcd60e51b815260040161065b90613060565b80831115611ba55760405162461bcd60e51b815260040161065b90613000565b91835560018084019190915560028301919091556003909101805460ff19169091179055565b611bd481611e3c565b1515600114610e7d5760405162461bcd60e51b815260040161065b90612fd0565b6060600080611c048585611f27565b9150915081611c6c57845460408051602080840282018101909252828152918791830182828015611c5e57602002820191906000526020600020905b81546001600160a01b03168152600190910190602001808311611c40575b505050505092505050610a95565b611c768582611f7c565b95945050505050565b303b1590565b600054610100900460ff1680611c9e5750611c9e611c7f565b80611cac575060005460ff16155b611cc85760405162461bcd60e51b815260040161065b90613030565b600054610100900460ff16158015611cf3576000805460ff1961ff0019909116610100171660011790555b611cfc82610a82565b611d0957611d0982611b14565b80156112bb576000805461ff00191690555050565b6001600160a01b03161590565b6000604051611d3990612dfc565b6040519081900390206001905550565b6000611d536115be565b6001600160a01b031614611d9457611d73816001600160a01b03166118f8565b611d8f5760405162461bcd60e51b815260040161065b90612f40565b610e7d565b6000604051611da290612e07565b6040519081900390208290555050565b6000611dbd83611e45565b8254821415611dde5760405162461bcd60e51b815260040161065b90612f20565b8260010154821015611e025760405162461bcd60e51b815260040161065b90612ef0565b8260020154821115611e265760405162461bcd60e51b815260040161065b90613090565b508154915590565b6001600160a01b0316151590565b60010154151590565b600381015460ff161515600114610e7d5760405162461bcd60e51b815260040161065b90613080565b611e7882826118b0565b611e945760405162461bcd60e51b815260040161065b90612fa0565b6001600160a01b0316600090815260209190915260409020805460ff19169055565b611ec082826118b0565b15611edd5760405162461bcd60e51b815260040161065b90612ed0565b6001600160a01b0316600090815260209190915260409020805460ff19166001179055565b600381015460ff1615610e7d5760405162461bcd60e51b815260040161065b90612ee0565b6000805b8354811015611f7557826001600160a01b0316848281548110611f4a57fe5b6000918252602090912001546001600160a01b03161491508115611f6d57611f75565b600101611f2b565b9250929050565b81546060908210611fe457825460408051602080840282018101909252828152918591830182828015611fd857602002820191906000526020600020905b81546001600160a01b03168152600190910190602001808311611fba575b50505050509050610a95565b8254600019018214156120885782548390600019810190811061200357fe5b600091825260209091200180546001600160a01b0319169055825461202c84600019830161222e565b50825460408051602080840282018101909252828152918591830182828015611fd8576020028201919060005260206000209081546001600160a01b03168152600190910190602001808311611fba5750505050509050610a95565b82546000908490600019810190811061209d57fe5b60009182526020909120015484546001600160a01b0390911691508490849081106120c457fe5b60009182526020909120015484546001600160a01b0390911690859060001981019081106120ee57fe5b9060005260206000200160006101000a8154816001600160a01b0302191690836001600160a01b031602179055508084848154811061212957fe5b600091825260209091200180546001600160a01b0319166001600160a01b039290921691909117905583548490600019810190811061216457fe5b600091825260209091200180546001600160a01b0319169055835461218d85600019830161222e565b508354604080516020808402820181019092528281529186918301828280156121df57602002820191906000526020600020905b81546001600160a01b031681526001909101906020018083116121c1575b505050505091505092915050565b604080518082019091526000808252602082015290565b60405180608001604052806000815260200160008152602001600081526020016000151581525090565b8154818355818111156117ad576000838152602090206117ad918101908301610ae791905b808211156122675760008155600101612253565b5090565b8035610a95816131e3565b8035610a95816131f7565b60006020828403121561229357600080fd5b600061192c848461226b565b600080604083850312156122b257600080fd5b60006122be858561226b565b92505060206122cf8582860161226b565b9150509250929050565b60008060008060008060c087890312156122f257600080fd5b60006122fe898961226b565b965050602061230f89828a0161226b565b955050604061232089828a0161226b565b945050606061233189828a0161226b565b935050608061234289828a0161226b565b92505060a061235389828a0161226b565b9150509295509295509295565b60008060006060848603121561237557600080fd5b6000612381868661226b565b93505060206123928682870161226b565b92505060406123a386828701612276565b9150509250925092565b600080604083850312156123c057600080fd5b60006123cc858561226b565b92505060206122cf85828601612276565b6000602082840312156123ef57600080fd5b600061192c8484612276565b6000806040838503121561240e57600080fd5b60006123cc8585612276565b6000806000806080858703121561243057600080fd5b600061243c8787612276565b945050602061244d87828801612276565b935050604061245e87828801612276565b925050606061246f87828801612276565b91505092959194509250565b6000612487838361249e565b505060200190565b6124988161319b565b82525050565b6124988161317f565b60006124b28261316d565b6124bc8185613171565b93506124c783613167565b8060005b838110156124f55781516124df888261247b565b97506124ea83613167565b9250506001016124cb565b509495945050505050565b6124988161318a565b61249881610ae7565b612498816131a2565b60006125268261316d565b6125308185613171565b93506125408185602086016131ad565b612549816131d9565b9093019392505050565b6000612560601c8361317a565b7f54496e697469616c697a61626c652e6973496e697469616c697a6564000000008152601c0192915050565b6000612599601b83613171565b7f4c454e44494e475f504f4f4c5f414c52454144595f5041555345440000000000815260200192915050565b60006125d2601483613171565b7314185d5cd8589b194e881b9bdd081c185d5cd95960621b815260200192915050565b6000612602601f83613171565b7f526f6c65733a206163636f756e7420616c72656164792068617320726f6c6500815260200192915050565b600061263b601f83613171565b7f504c4154464f524d5f53455454494e475f414c52454144595f45584953545300815260200192915050565b6000612674601e83613171565b7f4e45575f56414c55455f4d5553545f42455f47545f4d494e5f56414c55450000815260200192915050565b60006126ad602083613171565b7f43544f4b454e5f4d5553545f42455f434f4e54524143545f4f525f454d505459815260200192915050565b60006126e6601d83613171565b7f41544d5f53455454494e47535f4d5553545f42455f434f4e5452414354000000815260200192915050565b600061271f601283613171565b71139155d7d59053155157d49154555254915160721b815260200192915050565b600061274d600a83613171565b692727aa2fa820aaa9a2a960b11b815260200192915050565b6000612773601b83613171565b7f53455454494e47535f4d5553545f42455f415f434f4e54524143540000000000815260200192915050565b60006127ac601d83613171565b7f494e5445524553545f56414c5f4d5553545f42455f434f4e5452414354000000815260200192915050565b60006127e5601983613171565b7f454d5054595f414444524553535f4e4f545f414c4c4f57454400000000000000815260200192915050565b600061281e601083613171565b6f14185d5cd8589b194e881c185d5cd95960821b815260200192915050565b600061284a601883613171565b7f494e49545f4d41585f414d4f554e545f52455155495245440000000000000000815260200192915050565b6000612883601b83613171565b7f4e45575f43544f4b454e5f414444524553535f52455155495245440000000000815260200192915050565b60006128bc602183613171565b7f526f6c65733a206163636f756e7420646f6573206e6f74206861766520726f6c8152606560f81b602082015260400192915050565b60006128ff601c83613171565b7f4e45575f4d41585f4c4f414e5f414d4f554e545f524551554952454400000000815260200192915050565b6000612938601e83613171565b7f414747525f52454749535452595f4d5553545f42455f434f4e54524143540000815260200192915050565b6000612971601983613171565b7f41535345545f53455454494e47535f4e4f545f45584953545300000000000000815260200192915050565b60006129aa601e83613171565b7f564552535f52454749535452595f4d5553545f42455f434f4e54524143540000815260200192915050565b60006129e3601f83613171565b7f455343524f575f464143544f52595f4d5553545f42455f434f4e545241435400815260200192915050565b6000612a1c601a83613171565b7f56414c55455f4d5553545f42455f4c545f4d41585f56414c5545000000000000815260200192915050565b6000612a55602283613171565b7f526f6c65733a206163636f756e7420697320746865207a65726f206164647265815261737360f01b602082015260400192915050565b6000612a99601e83613171565b7f41535345545f414444524553535f4d5553545f42455f434f4e54524143540000815260200192915050565b6000612ad2602e83613171565b7f436f6e747261637420696e7374616e63652068617320616c726561647920626581526d195b881a5b9a5d1a585b1a5e995960921b602082015260400192915050565b6000612b22601e83613171565b7f4d41524b4554535f53544154455f4d5553545f42455f434f4e54524143540000815260200192915050565b6000612b5b601883613171565b7f4d41585f4c4f414e5f414d4f554e545f4e4f545f5a45524f0000000000000000815260200192915050565b6000612b94601a83613171565b7f56414c55455f4d5553545f42455f47545f4d494e5f56414c5545000000000000815260200192915050565b6000612bcd601a83613171565b7f4c454e44494e475f504f4f4c5f49535f4e4f545f504155534544000000000000815260200192915050565b6000612c06601b83613171565b7f504c4154464f524d5f53455454494e475f4e4f545f4558495354530000000000815260200192915050565b6000612c3f60188361317a565b7f426173655570677261646561626c652e73657474696e67730000000000000000815260180192915050565b6000612c78601e83613171565b7f4e45575f56414c55455f4d5553545f42455f4c545f4d41585f56414c55450000815260200192915050565b6000612cb1601883613171565b7f434f4e54524143545f4e4f545f494e495449414c495a45440000000000000000815260200192915050565b6000612cea601c83613171565b7f434f4e54524143545f414c52454144595f494e495449414c495a454400000000815260200192915050565b6000612d23601d83613171565b7f41535345545f53455454494e47535f414c52454144595f455849535453000000815260200192915050565b6000612d5c601d83613171565b7f53455454494e475f4e414d455f4d5553545f42455f50524f5649444544000000815260200192915050565b80516040830190612d99848261249e565b506020820151612dac6020850182612509565b50505050565b80516080830190612dc38482612509565b506020820151612dd66020850182612509565b506040820151612de96040850182612509565b506060820151612dac6060850182612500565b6000610a9582612553565b6000610a9582612c32565b60208101610a95828461249e565b60208101610a95828461248f565b60408101612e3c828561249e565b610dbe602083018461249e565b60408101612e57828561249e565b610dbe6020830184612509565b60208082528101610dbe81846124a7565b60208101610a958284612500565b60208101610a958284612509565b60208101610a958284612512565b60208082528101610dbe818461251b565b60208082528101610a958161258c565b60208082528101610a95816125c5565b60208082528101610a95816125f5565b60208082528101610a958161262e565b60208082528101610a9581612667565b60208082528101610a95816126a0565b60208082528101610a95816126d9565b60208082528101610a9581612712565b60208082528101610a9581612740565b60208082528101610a9581612766565b60208082528101610a958161279f565b60208082528101610a95816127d8565b60208082528101610a9581612811565b60208082528101610a958161283d565b60208082528101610a9581612876565b60208082528101610a95816128af565b60208082528101610a95816128f2565b60208082528101610a958161292b565b60208082528101610a9581612964565b60208082528101610a958161299d565b60208082528101610a95816129d6565b60208082528101610a9581612a0f565b60208082528101610a9581612a48565b60208082528101610a9581612a8c565b60208082528101610a9581612ac5565b60208082528101610a9581612b15565b60208082528101610a9581612b4e565b60208082528101610a9581612b87565b60208082528101610a9581612bc0565b60208082528101610a9581612bf9565b60208082528101610a9581612c6b565b60208082528101610a9581612ca4565b60208082528101610a9581612cdd565b60208082528101610a9581612d16565b60208082528101610a9581612d4f565b60408101610a958284612d88565b60808101610a958284612db2565b60408101612e578285612509565b606081016131188286612509565b6131256020830185612509565b61192c6040830184612509565b608081016131408287612509565b61314d6020830186612509565b61315a6040830185612509565b611c766060830184612500565b60200190565b5190565b90815260200190565b919050565b6000610a958261318f565b151590565b6001600160a01b031690565b6000610a95825b6000610a958261317f565b60005b838110156131c85781810151838201526020016131b0565b83811115612dac5750506000910152565b601f01601f191690565b6131ec8161317f565b8114610e7d57600080fd5b6131ec81610ae756fea365627a7a723158201ab85a4489332e74a3dc636aa5cfc41036b5dd11d8451481fcf726e25d9492f76c6578706572696d656e74616cf564736f6c63430005110040",
  "source": "pragma solidity 0.5.17;\npragma experimental ABIEncoderV2;\n\nimport \"../../base/Settings.sol\";\n\ncontract SettingsMock is Settings {\n    function externalSetPairAggregatorRegistry(address registryAddress) external {\n        pairAggregatorRegistry = IChainlinkPairAggregatorRegistry(registryAddress);\n    }\n}\n",
  "sourcePath": "/Users/sy/Documents/GitHub/teller-protocol-v1/contracts/mock/base/SettingsMock.sol",
  "compiler": {
    "name": "solc",
    "version": "0.5.17+commit.d19bba13.Emscripten.clang"
  },
  "schemaVersion": "3.0.23",
  "updatedAt": "2020-09-06T02:15:12.500Z",
  "devdoc": {
    "methods": {
      "createAssetSettings(address,address,uint256)": {
        "params": {
          "assetAddress": "asset address used to create the new setting.",
          "cTokenAddress": "cToken address used to configure the asset setting.",
          "maxLoanAmount": "the max loan amount used to configure the asset setting."
        }
      },
      "createPlatformSetting(bytes32,uint256,uint256,uint256)": {
        "params": {
          "maxValue": "the max value for the setting.",
          "minValue": "the min value for the setting.",
          "settingName": "setting name to create.",
          "value": "the initial value for the given setting name."
        }
      },
      "exceedsMaxLoanAmount(address,uint256)": {
        "params": {
          "amount": "amount to test.",
          "assetAddress": "asset address to test the setting."
        },
        "return": "true if amount exceeds current max loan amout. Otherwise it returns false."
      },
      "getAssetSettings(address)": {
        "params": {
          "assetAddress": "asset address used to get the current settings."
        },
        "return": "the current asset settings."
      },
      "getAssets()": {
        "return": "the asset addresses list."
      },
      "getPlatformSetting(bytes32)": {
        "params": {
          "settingName": "to get."
        },
        "return": "the current platform setting."
      },
      "getPlatformSettingValue(bytes32)": {
        "params": {
          "settingName": "to get."
        },
        "return": "the current platform setting value."
      },
      "hasPauserRole(address)": {
        "params": {
          "account": "account to test."
        },
        "return": "true if account has the pauser role. Otherwise it returns false."
      },
      "hasPlatformSetting(bytes32)": {
        "params": {
          "settingName": "setting name to test."
        },
        "return": "true if the setting is already configured. Otherwise it returns false."
      },
      "initialize(address)": {
        "details": "Initializes the contract in unpaused state. Assigns the Pauser role to the deployer."
      },
      "initialize(address,address,address,address,address,address)": {
        "params": {
          "atmSettingsAddress": "the initial ATM settings address.",
          "escrowFactoryAddress": "the initial escrow factory address.",
          "interestValidatorAddress": "the initial interest validator address.",
          "marketsStateAddress": "the initial markets state address.",
          "pairAggregatorRegistryAddress": "the initial pair aggregator registry address.",
          "versionsRegistryAddress": "the initial versions registry address."
        }
      },
      "initialized()": {
        "return": "true if contract is initialized. Otherwise it returns false."
      },
      "isPaused()": {
        "return": "true if platform is paused. Otherwise it returns false."
      },
      "pause()": {
        "details": "Called by a pauser to pause, triggers stopped state."
      },
      "pauseLendingPool(address)": {
        "params": {
          "lendingPoolAddress": "lending pool address to pause."
        }
      },
      "paused()": {
        "details": "Returns true if the contract is paused, and false otherwise."
      },
      "removeAssetSettings(address)": {
        "params": {
          "assetAddress": "asset address used to remove the asset settings."
        }
      },
      "removePlatformSetting(bytes32)": {
        "params": {
          "settingName": "to remove."
        }
      },
      "requirePauserRole(address)": {
        "params": {
          "account": "account to test."
        }
      },
      "unpause()": {
        "details": "Called by a pauser to unpause, returns to normal state."
      },
      "unpauseLendingPool(address)": {
        "params": {
          "lendingPoolAddress": "lending pool address to unpause."
        }
      },
      "updateCTokenAddress(address,address)": {
        "params": {
          "assetAddress": "asset address to configure.",
          "newCTokenAddress": "the new cToken address to configure."
        }
      },
      "updateMaxLoanAmount(address,uint256)": {
        "params": {
          "assetAddress": "asset address to configure.",
          "newMaxLoanAmount": "the new maximum loan amount to configure."
        }
      },
      "updatePlatformSetting(bytes32,uint256)": {
        "params": {
          "newValue": "the new value to set.",
          "settingName": "setting name to update."
        }
      }
    }
  },
  "userdoc": {
    "methods": {
      "createAssetSettings(address,address,uint256)": {
        "notice": "It creates a new asset settings in the platform."
      },
      "createPlatformSetting(bytes32,uint256,uint256,uint256)": {
        "notice": "It creates a new platform setting given a setting name, value, min and max values."
      },
      "exceedsMaxLoanAmount(address,uint256)": {
        "notice": "Tests whether amount exceeds the current maximum loan amount for a specific asset settings."
      },
      "getAssetSettings(address)": {
        "notice": "Get the current asset settings for a given asset address."
      },
      "getAssets()": {
        "notice": "Gets the current asset addresses list."
      },
      "getPlatformSetting(bytes32)": {
        "notice": "It gets the current platform setting for a given setting name"
      },
      "getPlatformSettingValue(bytes32)": {
        "notice": "It gets the current platform setting value for a given setting name"
      },
      "hasPauserRole(address)": {
        "notice": "Tests whether an account has the pauser role."
      },
      "hasPlatformSetting(bytes32)": {
        "notice": "It tests whether a setting name is already configured."
      },
      "initialize(address,address,address,address,address,address)": {
        "notice": "It initializes this settings contract instance."
      },
      "initialized()": {
        "notice": "Gets if the contract is initialized."
      },
      "isPaused()": {
        "notice": "It gets whether the platform is paused or not."
      },
      "pauseLendingPool(address)": {
        "notice": "It pauses a specific lending pool."
      },
      "removeAssetSettings(address)": {
        "notice": "It removes all the asset settings for a specific asset address."
      },
      "removePlatformSetting(bytes32)": {
        "notice": "Removes a current platform setting given a setting name."
      },
      "requirePauserRole(address)": {
        "notice": "Requires an account to have the pauser role."
      },
      "settings()": {
        "notice": "The settings contract."
      },
      "unpauseLendingPool(address)": {
        "notice": "It unpauses a specific lending pool."
      },
      "updateCTokenAddress(address,address)": {
        "notice": "It updates the cToken address for a specific asset address."
      },
      "updateMaxLoanAmount(address,uint256)": {
        "notice": "It updates the maximum loan amount for a specific asset address."
      },
      "updatePlatformSetting(bytes32,uint256)": {
        "notice": "It updates an existent platform setting given a setting name.It only allows to update the value (not the min or max values).In case you need to update the min or max values, you need to remove it, and create it again."
      }
    }
  }
}