{
  "contractName": "SettingsMock",
  "abi": [
    {
      "inputs": [],
      "payable": false,
      "stateMutability": "nonpayable",
      "type": "constructor"
    },
    {
      "payable": true,
      "stateMutability": "payable",
      "type": "fallback"
    },
    {
      "constant": true,
      "inputs": [],
      "name": "DEFAULT_FALLBACK_VALUE",
      "outputs": [
        {
          "internalType": "bytes",
          "name": "",
          "type": "bytes"
        }
      ],
      "payable": false,
      "stateMutability": "view",
      "type": "function"
    },
    {
      "constant": true,
      "inputs": [],
      "name": "MOCKS_LIST_END",
      "outputs": [
        {
          "internalType": "bytes",
          "name": "",
          "type": "bytes"
        }
      ],
      "payable": false,
      "stateMutability": "view",
      "type": "function"
    },
    {
      "constant": true,
      "inputs": [],
      "name": "MOCKS_LIST_END_HASH",
      "outputs": [
        {
          "internalType": "bytes32",
          "name": "",
          "type": "bytes32"
        }
      ],
      "payable": false,
      "stateMutability": "view",
      "type": "function"
    },
    {
      "constant": true,
      "inputs": [],
      "name": "MOCKS_LIST_START",
      "outputs": [
        {
          "internalType": "bytes32",
          "name": "",
          "type": "bytes32"
        }
      ],
      "payable": false,
      "stateMutability": "view",
      "type": "function"
    },
    {
      "constant": true,
      "inputs": [],
      "name": "SENTINEL_ANY_MOCKS",
      "outputs": [
        {
          "internalType": "bytes4",
          "name": "",
          "type": "bytes4"
        }
      ],
      "payable": false,
      "stateMutability": "view",
      "type": "function"
    },
    {
      "constant": true,
      "inputs": [],
      "name": "consts",
      "outputs": [
        {
          "internalType": "contract SettingsConsts",
          "name": "",
          "type": "address"
        }
      ],
      "payable": false,
      "stateMutability": "view",
      "type": "function"
    },
    {
      "constant": false,
      "inputs": [
        {
          "internalType": "bytes",
          "name": "response",
          "type": "bytes"
        }
      ],
      "name": "givenAnyReturn",
      "outputs": [],
      "payable": false,
      "stateMutability": "nonpayable",
      "type": "function"
    },
    {
      "constant": false,
      "inputs": [
        {
          "internalType": "address",
          "name": "response",
          "type": "address"
        }
      ],
      "name": "givenAnyReturnAddress",
      "outputs": [],
      "payable": false,
      "stateMutability": "nonpayable",
      "type": "function"
    },
    {
      "constant": false,
      "inputs": [
        {
          "internalType": "bool",
          "name": "response",
          "type": "bool"
        }
      ],
      "name": "givenAnyReturnBool",
      "outputs": [],
      "payable": false,
      "stateMutability": "nonpayable",
      "type": "function"
    },
    {
      "constant": false,
      "inputs": [
        {
          "internalType": "uint256",
          "name": "response",
          "type": "uint256"
        }
      ],
      "name": "givenAnyReturnUint",
      "outputs": [],
      "payable": false,
      "stateMutability": "nonpayable",
      "type": "function"
    },
    {
      "constant": false,
      "inputs": [],
      "name": "givenAnyRevert",
      "outputs": [],
      "payable": false,
      "stateMutability": "nonpayable",
      "type": "function"
    },
    {
      "constant": false,
      "inputs": [
        {
          "internalType": "string",
          "name": "message",
          "type": "string"
        }
      ],
      "name": "givenAnyRevertWithMessage",
      "outputs": [],
      "payable": false,
      "stateMutability": "nonpayable",
      "type": "function"
    },
    {
      "constant": false,
      "inputs": [],
      "name": "givenAnyRunOutOfGas",
      "outputs": [],
      "payable": false,
      "stateMutability": "nonpayable",
      "type": "function"
    },
    {
      "constant": false,
      "inputs": [
        {
          "internalType": "bytes",
          "name": "call",
          "type": "bytes"
        },
        {
          "internalType": "bytes",
          "name": "response",
          "type": "bytes"
        }
      ],
      "name": "givenCalldataReturn",
      "outputs": [],
      "payable": false,
      "stateMutability": "nonpayable",
      "type": "function"
    },
    {
      "constant": false,
      "inputs": [
        {
          "internalType": "bytes",
          "name": "call",
          "type": "bytes"
        },
        {
          "internalType": "address",
          "name": "response",
          "type": "address"
        }
      ],
      "name": "givenCalldataReturnAddress",
      "outputs": [],
      "payable": false,
      "stateMutability": "nonpayable",
      "type": "function"
    },
    {
      "constant": false,
      "inputs": [
        {
          "internalType": "bytes",
          "name": "call",
          "type": "bytes"
        },
        {
          "internalType": "bool",
          "name": "response",
          "type": "bool"
        }
      ],
      "name": "givenCalldataReturnBool",
      "outputs": [],
      "payable": false,
      "stateMutability": "nonpayable",
      "type": "function"
    },
    {
      "constant": false,
      "inputs": [
        {
          "internalType": "bytes",
          "name": "call",
          "type": "bytes"
        },
        {
          "internalType": "uint256",
          "name": "response",
          "type": "uint256"
        }
      ],
      "name": "givenCalldataReturnUint",
      "outputs": [],
      "payable": false,
      "stateMutability": "nonpayable",
      "type": "function"
    },
    {
      "constant": false,
      "inputs": [
        {
          "internalType": "bytes",
          "name": "call",
          "type": "bytes"
        }
      ],
      "name": "givenCalldataRevert",
      "outputs": [],
      "payable": false,
      "stateMutability": "nonpayable",
      "type": "function"
    },
    {
      "constant": false,
      "inputs": [
        {
          "internalType": "bytes",
          "name": "call",
          "type": "bytes"
        },
        {
          "internalType": "string",
          "name": "message",
          "type": "string"
        }
      ],
      "name": "givenCalldataRevertWithMessage",
      "outputs": [],
      "payable": false,
      "stateMutability": "nonpayable",
      "type": "function"
    },
    {
      "constant": false,
      "inputs": [
        {
          "internalType": "bytes",
          "name": "call",
          "type": "bytes"
        }
      ],
      "name": "givenCalldataRunOutOfGas",
      "outputs": [],
      "payable": false,
      "stateMutability": "nonpayable",
      "type": "function"
    },
    {
      "constant": false,
      "inputs": [
        {
          "internalType": "bytes",
          "name": "call",
          "type": "bytes"
        },
        {
          "internalType": "bytes",
          "name": "response",
          "type": "bytes"
        }
      ],
      "name": "givenMethodReturn",
      "outputs": [],
      "payable": false,
      "stateMutability": "nonpayable",
      "type": "function"
    },
    {
      "constant": false,
      "inputs": [
        {
          "internalType": "bytes",
          "name": "call",
          "type": "bytes"
        },
        {
          "internalType": "address",
          "name": "response",
          "type": "address"
        }
      ],
      "name": "givenMethodReturnAddress",
      "outputs": [],
      "payable": false,
      "stateMutability": "nonpayable",
      "type": "function"
    },
    {
      "constant": false,
      "inputs": [
        {
          "internalType": "bytes",
          "name": "call",
          "type": "bytes"
        },
        {
          "internalType": "bool",
          "name": "response",
          "type": "bool"
        }
      ],
      "name": "givenMethodReturnBool",
      "outputs": [],
      "payable": false,
      "stateMutability": "nonpayable",
      "type": "function"
    },
    {
      "constant": false,
      "inputs": [
        {
          "internalType": "bytes",
          "name": "call",
          "type": "bytes"
        },
        {
          "internalType": "uint256",
          "name": "response",
          "type": "uint256"
        }
      ],
      "name": "givenMethodReturnUint",
      "outputs": [],
      "payable": false,
      "stateMutability": "nonpayable",
      "type": "function"
    },
    {
      "constant": false,
      "inputs": [
        {
          "internalType": "bytes",
          "name": "call",
          "type": "bytes"
        }
      ],
      "name": "givenMethodRevert",
      "outputs": [],
      "payable": false,
      "stateMutability": "nonpayable",
      "type": "function"
    },
    {
      "constant": false,
      "inputs": [
        {
          "internalType": "bytes",
          "name": "call",
          "type": "bytes"
        },
        {
          "internalType": "string",
          "name": "message",
          "type": "string"
        }
      ],
      "name": "givenMethodRevertWithMessage",
      "outputs": [],
      "payable": false,
      "stateMutability": "nonpayable",
      "type": "function"
    },
    {
      "constant": false,
      "inputs": [
        {
          "internalType": "bytes",
          "name": "call",
          "type": "bytes"
        }
      ],
      "name": "givenMethodRunOutOfGas",
      "outputs": [],
      "payable": false,
      "stateMutability": "nonpayable",
      "type": "function"
    },
    {
      "constant": false,
      "inputs": [],
      "name": "invocationCount",
      "outputs": [
        {
          "internalType": "uint256",
          "name": "",
          "type": "uint256"
        }
      ],
      "payable": false,
      "stateMutability": "nonpayable",
      "type": "function"
    },
    {
      "constant": false,
      "inputs": [
        {
          "internalType": "bytes",
          "name": "call",
          "type": "bytes"
        }
      ],
      "name": "invocationCountForCalldata",
      "outputs": [
        {
          "internalType": "uint256",
          "name": "",
          "type": "uint256"
        }
      ],
      "payable": false,
      "stateMutability": "nonpayable",
      "type": "function"
    },
    {
      "constant": false,
      "inputs": [
        {
          "internalType": "bytes",
          "name": "call",
          "type": "bytes"
        }
      ],
      "name": "invocationCountForMethod",
      "outputs": [
        {
          "internalType": "uint256",
          "name": "",
          "type": "uint256"
        }
      ],
      "payable": false,
      "stateMutability": "nonpayable",
      "type": "function"
    },
    {
      "constant": true,
      "inputs": [],
      "name": "pairAggregatorRegistry",
      "outputs": [
        {
          "internalType": "contract IChainlinkPairAggregatorRegistry",
          "name": "",
          "type": "address"
        }
      ],
      "payable": false,
      "stateMutability": "view",
      "type": "function"
    },
    {
      "constant": false,
      "inputs": [],
      "name": "reset",
      "outputs": [],
      "payable": false,
      "stateMutability": "nonpayable",
      "type": "function"
    },
    {
      "constant": false,
      "inputs": [
        {
          "internalType": "bytes4",
          "name": "methodId",
          "type": "bytes4"
        },
        {
          "internalType": "bytes",
          "name": "originalMsgData",
          "type": "bytes"
        }
      ],
      "name": "updateInvocationCount",
      "outputs": [],
      "payable": false,
      "stateMutability": "nonpayable",
      "type": "function"
    },
    {
      "constant": false,
      "inputs": [
        {
          "internalType": "address",
          "name": "registryAddress",
          "type": "address"
        }
      ],
      "name": "externalSetPairAggregatorRegistry",
      "outputs": [],
      "payable": false,
      "stateMutability": "nonpayable",
      "type": "function"
    }
  ],
  "bytecode": "0x608060405262000012600060a0620001f6565b604051602081830303815290604052600b90805190602001906200003892919062000132565b503480156200004657600080fd5b50604080518082019091526004815263183c333360e11b6020808301918252600160f81b600090815290529051620000a0917f82ac279db26a206d9ba5a94c07ff940aea4b3bfde8820ec95f4efa0acfd0d5bc9162000132565b50600160f81b60005260056020527fde001afd1f75281f9d2ab22d4e0166be5a51dd890d7492e8fbf3e412e05eac0a805463ffffffff19166301000000179055604051620000ee90620001b7565b604051809103906000f0801580156200010b573d6000803e3d6000fd5b50600f80546001600160a01b0319166001600160a01b039290921691909117905562000211565b828054600181600116156101000203166002900490600052602060002090601f016020900481019282601f106200017557805160ff1916838001178555620001a5565b82800160010185558215620001a5579182015b82811115620001a557825182559160200191906001019062000188565b50620001b3929150620001c5565b5090565b61022b806200259383390190565b620001e291905b80821115620001b35760008155600101620001cc565b90565b620001f0816200020c565b82525050565b60208101620002068284620001e5565b92915050565b151590565b61237280620002216000396000f3fe6080604052600436106101f95760003560e01c80637cd96ee41161010d578063cf11ff5d116100a0578063d86d744e1161006f578063d86d744e146109c3578063e211b8a5146109d8578063eb861f69146109ed578063f07da22914610a0d578063f5afa9c114610a2f576101f9565b8063cf11ff5d1461094e578063d6fe97781461096e578063d73ca0ac1461098e578063d826f88f146109ae576101f9565b8063aa788c55116100dc578063aa788c55146108ce578063af21ac78146108ee578063b3901f291461090e578063c6ee167f1461092e576101f9565b80637cd96ee41461085957806387abab651461086e5780639a1dc86b1461088e5780639eaeed75146108ae576101f9565b80634937c4f611610190578063619365941161015f57806361936594146107c457806367aad04a146107e4578063682b4797146107f957806368ab6f2f146108195780636f40075614610839576101f9565b80634937c4f614610744578063586984a41461076457806358cbc025146107845780635a3855ab146107a4576101f9565b806321fed4d6116101cc57806321fed4d6146106da5780632ed238dc146106fa57806336ff0ee51461070f5780633956dc6b1461072f576101f9565b806302d58da7146106495780630a20119f14610674578063122aea811461069657806314bba134146106b8575b6000356001806000366040516102109291906120ea565b9081526040519081900360200190205460ff16600281111561022e57fe5b14156102745760036000366040516102479291906120ea565b90815260405190819003602001812062461bcd60e51b825261026b916004016121dc565b60405180910390fd5b600260016000366040516102899291906120ea565b9081526040519081900360200190205460ff1660028111156102a757fe5b14156102b5576102b5610a4f565b606060026000366040516102ca9291906120ea565b9081526040805160209281900383018120805460026001821615610100026000190190911604601f810185900485028301850190935282825290929091908301828280156103595780601f1061032e57610100808354040283529160200191610359565b820191906000526020600020905b81548152906001019060200180831161033c57829003601f168201915b505050505090508051600014156104ab5760016001600160e01b0319831660009081526006602052604090205460ff16600281111561039457fe5b14156103cd576001600160e01b0319821660009081526008602052604090819020905162461bcd60e51b815261026b91906004016121dc565b60026001600160e01b0319831660009081526006602052604090205460ff1660028111156103f757fe5b141561040557610405610a4f565b6001600160e01b0319821660009081526007602090815260409182902080548351601f6002600019610100600186161502019093169290920491820184900484028101840190945280845290918301828280156104a35780601f10610478576101008083540402835291602001916104a3565b820191906000526020600020905b81548152906001019060200180831161048657829003601f168201915b505050505090505b8051610594576001600a5460ff1660028111156104c457fe5b14156104e557600c60405162461bcd60e51b815260040161026b91906121dc565b6002600a5460ff1660028111156104f857fe5b141561050657610506610a4f565b600b805460408051602060026001851615610100026000190190941693909304601f8101849004840282018401909252818152929183018282801561058c5780601f106105615761010080835404028352916020019161058c565b820191906000526020600020905b81548152906001019060200180831161056f57829003601f168201915b505050505090505b6060306001600160a01b0316620186a0846000366040516024016105ba9392919061219c565b60408051601f198184030181529181526020820180516001600160e01b03166358cbc02560e01b179052516105ef91906120f7565b60006040518083038160008787f1925050503d806000811461062d576040519150601f19603f3d011682016040523d82523d6000602084013e610632565b606091505b50915050805160001461064157fe5b815182602001f35b34801561065557600080fd5b5061065e610a6b565b60405161066b91906121ce565b60405180910390f35b34801561068057600080fd5b50610689610a7a565b60405161066b9190612180565b3480156106a257600080fd5b506106ab610a81565b60405161066b91906121bd565b3480156106c457600080fd5b506106d86106d3366004611cd3565b610aa5565b005b3480156106e657600080fd5b506106d86106f5366004611d69565b610ac7565b34801561070657600080fd5b50610689610b46565b34801561071b57600080fd5b506106d861072a366004611cf9565b610b77565b34801561073b57600080fd5b506106d8610b9e565b34801561075057600080fd5b5061068961075f366004611d69565b610bad565b34801561077057600080fd5b5061068961077f366004611d69565b610c39565b34801561079057600080fd5b506106d861079f366004611d17565b610c83565b3480156107b057600080fd5b506106d86107bf366004611e00565b610d45565b3480156107d057600080fd5b506106d86107df366004611e4b565b610dab565b3480156107f057600080fd5b50610689610e1e565b34801561080557600080fd5b506106d8610814366004611cd3565b610e26565b34801561082557600080fd5b506106d8610834366004611d69565b610e3e565b34801561084557600080fd5b506106d8610854366004611e00565b610ebb565b34801561086557600080fd5b506106ab610f1b565b34801561087a57600080fd5b506106d8610889366004611d69565b610f3b565b34801561089a57600080fd5b506106d86108a9366004611e4b565b610f54565b3480156108ba57600080fd5b506106d86108c9366004611e4b565b610fe2565b3480156108da57600080fd5b506106d86108e9366004611d69565b61108b565b3480156108fa57600080fd5b506106d8610909366004611f06565b6110f8565b34801561091a57600080fd5b506106d8610929366004611dab565b611104565b34801561093a57600080fd5b506106d8610949366004611e4b565b611150565b34801561095a57600080fd5b506106d8610969366004611dab565b6111c3565b34801561097a57600080fd5b506106d8610989366004611d69565b61120f565b34801561099a57600080fd5b506106d86109a9366004611ebb565b61124e565b3480156109ba57600080fd5b506106d8611293565b3480156109cf57600080fd5b5061065e6116d7565b3480156109e457600080fd5b506106d86116e6565b3480156109f957600080fd5b506106d8610a08366004611d69565b611711565b348015610a1957600080fd5b50610a22610e1e565b60405161066b919061218e565b348015610a3b57600080fd5b506106d8610a4a366004611ebb565b6117cf565b5b60006060600060c060008060066107d05a03f1905050610a50565b6010546001600160a01b031681565b600d545b90565b6000604051602001610a939190612172565b60405160208183030381529060405281565b601080546001600160a01b0319166001600160a01b0392909216919091179055565b600260018383604051610adb9291906120ea565b908152604051908190036020019020805460ff19166001836002811115610afe57fe5b0217905550610b4282828080601f01602080910402602001604051908101604052809392919081815260200183838082843760009201919091525061181492505050565b5050565b6040805180820182526004815263183c333360e11b60208201529051610b6c91906120f7565b604051809103902081565b600081610b85576000610b88565b60015b60ff169050610b42610b99826118b1565b6118db565b600a805460ff19166002179055565b600080610bef84848080601f0160208091040260200160405190810160405280939291908181526020018383808284376000920191909152506118f892505050565b905060096000600e5483604051602001610c0a92919061210a565b604051602081830303815290604052805190602001208152602001908152602001600020549150505b92915050565b600060046000600e548585604051602001610c5693929190612130565b60405160208183030381529060405280519060200120815260200190815260200160002054905092915050565b333014610ca25760405162461bcd60e51b815260040161026b906121ed565b600d80546001908101909155600e54604051600991600091610cc99190879060200161210a565b60405160208183030381529060405280519060200120815260200190815260200160002060008282540192505081905550600160046000600e5484604051602001610d15929190612156565b60408051601f19818403018152918152815160209283012083529082019290925201600020805490910190555050565b600081610d53576000610d56565b60015b60ff169050610da584848080601f016020809104026020016040519081016040528093929190818152602001838380828437600092019190915250610da092508591506118b19050565b61193b565b50505050565b610da584848080601f01602080910402602001604051908101604052809392919081815260200183838082843760009201919091525050604080516020601f8801819004810282018101909252868152925086915085908190840183828082843760009201919091525061193b92505050565b600160f81b81565b610e3b610b99826001600160a01b03166118b1565b50565b6000610e7f83838080601f0160208091040260200160405190810160405280939291908181526020018383808284376000920191909152506118f892505050565b6001600160e01b031981166000908152600660205260409020805491925060029160ff19166001835b0217905550610eb6816119b1565b505050565b600081610ec9576000610ecc565b60015b60ff169050610da584848080601f016020809104026020016040519081016040528093929190818152602001838380828437600092019190915250610f1692508591506118b19050565b611a3c565b60405180604001604052806004815260200163183c333360e11b81525081565b600a805460ff19166001179055610eb6600c8383611a8f565b6000610f9585858080601f0160208091040260200160405190810160405280939291908181526020018383808284376000920191909152506118f892505050565b6001600160e01b031981166000908152600660209081526040808320805460ff1916600117905560089091529020909150610fd1908484611a8f565b50610fdb816119b1565b5050505050565b6001808585604051610ff59291906120ea565b908152604051908190036020019020805460ff1916600183600281111561101857fe5b02179055508181600386866040516110319291906120ea565b90815260405190819003602001902061104b929091611a8f565b50610da584848080601f01602080910402602001604051908101604052809392919081815260200183838082843760009201919091525061181492505050565b60006110cc83838080601f0160208091040260200160405190810160405280939291908181526020018383808284376000920191909152506118f892505050565b6001600160e01b031981166000908152600660205260409020805491925060019160ff19168280610ea8565b610e3b610b99826118b1565b610eb683838080601f016020809104026020016040519081016040528093929190818152602001838380828437600092019190915250610da0925050506001600160a01b0384166118b1565b610da584848080601f01602080910402602001604051908101604052809392919081815260200183838082843760009201919091525050604080516020601f88018190048102820181019092528681529250869150859081908401838280828437600092019190915250611a3c92505050565b610eb683838080601f016020809104026020016040519081016040528093929190818152602001838380828437600092019190915250610f16925050506001600160a01b0384166118b1565b610b4282828080601f0160208091040260200160405190810160405280939291908181526020018383808284376000920191909152506118db92505050565b610eb683838080601f016020809104026020016040519081016040528093929190818152602001838380828437600092019190915250610da092508591506118b19050565b600160f81b6000908152602090815260008051602061231083398151915280546040805160026001841615610100026000190190931692909204601f81018590048502830185019091528082526060939192918301828280156113375780601f1061130c57610100808354040283529160200191611337565b820191906000526020600020905b81548152906001019060200180831161131a57829003601f168201915b5050835160208501209394505050505b6040805180820182526004815263183c333360e11b6020820152905161136d91906120f7565b6040518091039020811461150b57600060018360405161138d91906120f7565b908152604051908190036020019020805460ff191660018360028111156113b057fe5b0217905550604051806020016040528060008152506002836040516113d591906120f7565b908152602001604051809103902090805190602001906113f6929190611b0d565b506040518060200160405280600081525060038360405161141791906120f7565b90815260200160405180910390209080519060200190611438929190611b0d565b506000818152602081815260409182902080548351601f6002600019610100600186161502019093169290920491820184900484028101840190945280845290918301828280156114ca5780601f1061149f576101008083540402835291602001916114ca565b820191906000526020600020905b8154815290600101906020018083116114ad57829003601f168201915b505060408051602080820180845260008084528981529182905292902090519597506114fd959094509092509050611b0d565b505080516020820120611347565b604080518082019091526004815263183c333360e11b6020808301918252600160f81b6000908152905290516115509160008051602061231083398151915291611b0d565b50600160f81b60005260056020527fde001afd1f75281f9d2ab22d4e0166be5a51dd890d7492e8fbf3e412e05eac0a5460e01b5b6001600160e01b03198116600160f81b14611644576001600160e01b031981166000818152600660209081526040808320805460ff1916905580518083018083528482529484526007909252909120905183926115e19291611b0d565b5060408051602080820180845260008084526001600160e01b031986168152600890925292902090516116149290611b0d565b506001600160e01b0319166000908152600560205260409020805463ffffffff19811690915560e01b9050611584565b600160f81b6000908152600560209081527fde001afd1f75281f9d2ab22d4e0166be5a51dd890d7492e8fbf3e412e05eac0a805463ffffffff19166301000000179055604051611695929101612172565b604051602081830303815290604052600b90805190602001906116b9929190611b0d565b5050600a805460ff1916905550506000600d55600e80546001019055565b600f546001600160a01b031681565b600a805460ff19166001179055604080516020810191829052600090819052610e3b91600c91611b0d565b60018083836040516117249291906120ea565b908152604051908190036020019020805460ff1916600183600281111561174757fe5b0217905550604051806020016040528060008152506003838360405161176e9291906120ea565b9081526020016040518091039020908051906020019061178f929190611b0d565b50610b4282828080601f01602080910402602001604051908101604052809392919081815260200183838082843760009201919091525061181492505050565b610eb683838080601f016020809104026020016040519081016040528093929190818152602001838380828437600092019190915250610f1692508591506118b19050565b805160208083019190912060008181529182905260409091205460026000196101006001841615020190911604610b42576000602081905281815260409020600080516020612310833981519152805461188292919060026000196101006001841615020190911604611b7b565b50600160f81b600090815260209081528251610eb6916000805160206123108339815191529190850190611b0d565b60408051602080825281830190925260609160208201818038833950505060208101929092525090565b600a805460ff191690558051610b4290600b906020840190611b0d565b600080805b6004811015611934578060080284828151811061191657fe5b01602001516001600160f81b031916901c91909117906001016118fd565b5092915050565b600060018360405161194d91906120f7565b908152604051908190036020019020805460ff1916600183600281111561197057fe5b02179055508060028360405161198691906120f7565b908152602001604051809103902090805190602001906119a7929190611b0d565b50610b4282611814565b6001600160e01b031980821660009081526005602052604090205460e01b16610e3b5760056020527fde001afd1f75281f9d2ab22d4e0166be5a51dd890d7492e8fbf3e412e05eac0a80546001600160e01b03198316600090815260408120805463ffffffff90931663ffffffff19938416179055600160f81b9052815460e084901c911617905550565b6000611a47836118f8565b6001600160e01b031981166000908152600660209081526040808320805460ff19169055600782529091208451929350611a85929091850190611b0d565b50610eb6816119b1565b828054600181600116156101000203166002900490600052602060002090601f016020900481019282601f10611ad05782800160ff19823516178555611afd565b82800160010185558215611afd579182015b82811115611afd578235825591602001919060010190611ae2565b50611b09929150611bf0565b5090565b828054600181600116156101000203166002900490600052602060002090601f016020900481019282601f10611b4e57805160ff1916838001178555611afd565b82800160010185558215611afd579182015b82811115611afd578251825591602001919060010190611b60565b828054600181600116156101000203166002900490600052602060002090601f016020900481019282601f10611bb45780548555611afd565b82800160010185558215611afd57600052602060002091601f016020900482015b82811115611afd578254825591600101919060010190611bd5565b610a7e91905b80821115611b095760008155600101611bf6565b8035610c33816122e0565b8035610c33816122f4565b8035610c33816122fd565b60008083601f840112611c3d57600080fd5b50813567ffffffffffffffff811115611c5557600080fd5b602083019150836001820283011115611c6d57600080fd5b9250929050565b600082601f830112611c8557600080fd5b8135611c98611c9382612224565b6121fd565b91508082526020830160208301858383011115611cb457600080fd5b611cbf83828461229e565b50505092915050565b8035610c3381612306565b600060208284031215611ce557600080fd5b6000611cf18484611c0a565b949350505050565b600060208284031215611d0b57600080fd5b6000611cf18484611c15565b60008060408385031215611d2a57600080fd5b6000611d368585611c20565b925050602083013567ffffffffffffffff811115611d5357600080fd5b611d5f85828601611c74565b9150509250929050565b60008060208385031215611d7c57600080fd5b823567ffffffffffffffff811115611d9357600080fd5b611d9f85828601611c2b565b92509250509250929050565b600080600060408486031215611dc057600080fd5b833567ffffffffffffffff811115611dd757600080fd5b611de386828701611c2b565b93509350506020611df686828701611c0a565b9150509250925092565b600080600060408486031215611e1557600080fd5b833567ffffffffffffffff811115611e2c57600080fd5b611e3886828701611c2b565b93509350506020611df686828701611c15565b60008060008060408587031215611e6157600080fd5b843567ffffffffffffffff811115611e7857600080fd5b611e8487828801611c2b565b9450945050602085013567ffffffffffffffff811115611ea357600080fd5b611eaf87828801611c2b565b95989497509550505050565b600080600060408486031215611ed057600080fd5b833567ffffffffffffffff811115611ee757600080fd5b611ef386828701611c2b565b93509350506020611df686828701611cc8565b600060208284031215611f1857600080fd5b6000611cf18484611cc8565b611f2d81612275565b82525050565b611f2d81610a7e565b611f2d8161227a565b611f2d611f518261227a565b610a7e565b6000611f62838561225c565b9350611f6f83858461229e565b611f78836122d6565b9093019392505050565b6000611f8e8385612265565b9350611f9b83858461229e565b50500190565b6000611fac82612258565b611fb68185612265565b9350611fc68185602086016122aa565b9290920192915050565b6000611fdb82612258565b611fe5818561225c565b9350611ff58185602086016122aa565b611f78816122d6565b611f2d81612293565b600081546001811660008114612024576001811461204a57612089565b607f6002830416612035818761225c565b60ff1984168152955050602085019250612089565b60028204612058818761225c565b95506120638561224c565b60005b8281101561208257815488820152600190910190602001612066565b8701945050505b505092915050565b600061209e602b8361225c565b7f43616e206f6e6c792062652063616c6c65642066726f6d2074686520636f6e7481526a3930b1ba1034ba39b2b63360a91b602082015260400192915050565b611f2d611f5182610a7e565b6000611cf1828486611f82565b60006121038284611fa1565b9392505050565b600061211682856120de565b6020820191506121268284611f45565b5060040192915050565b600061213c82866120de565b60208201915061214d828486611f82565b95945050505050565b600061216282856120de565b602082019150611cf18284611fa1565b60208101610c338284611f24565b60208101610c338284611f33565b60208101610c338284611f3c565b604081016121aa8286611f3c565b818103602083015261214d818486611f56565b602080825281016121038184611fd0565b60208101610c338284611ffe565b602080825281016121038184612007565b60208082528101610c3381612091565b60405181810167ffffffffffffffff8111828210171561221c57600080fd5b604052919050565b600067ffffffffffffffff82111561223b57600080fd5b506020601f91909101601f19160190565b60009081526020902090565b5190565b90815260200190565b919050565b6000610c3382612287565b151590565b6001600160e01b03191690565b6001600160a01b031690565b6000610c338261226a565b82818337506000910152565b60005b838110156122c55781810151838201526020016122ad565b83811115610da55750506000910152565b601f01601f191690565b6122e98161226a565b8114610e3b57600080fd5b6122e981612275565b6122e98161227a565b6122e981610a7e56fe82ac279db26a206d9ba5a94c07ff940aea4b3bfde8820ec95f4efa0acfd0d5bca365627a7a72315820f33fadfbda63fd8ce2e5abe03e607460232f1f9084ba9d96d94c7b1d95cb389e6c6578706572696d656e74616cf564736f6c63430005110040608060405234801561001057600080fd5b5061020b806100206000396000f3fe608060405234801561001057600080fd5b50600436106100935760003560e01c80633ff591d9116100665780633ff591d9146100ca578063c41dd8ce146100d2578063cc44cadb146100da578063e00a4615146100e2578063e3f33d00146100ea57610093565b806308b04f62146100985780631139087a146100b257806311880cc8146100ba5780633b98dfdb146100c2575b600080fd5b6100a06100f2565b60408051918252519081900360200190f35b6100a0610109565b6100a0610121565b6100a0610136565b6100a061015a565b6100a0610174565b6100a061018b565b6100a06101a5565b6100a06101bb565b6f21b7b63630ba32b930b6213ab33332b960811b81565b704c6971756964617465457468507269636560781b81565b6d14d859995d1e525b9d195c9d985b60921b81565b7f526571756573744c6f616e5465726d73526174654c696d69740000000000000081565b7252657175697265645375626d697373696f6e7360681b81565b6f4d6178696d756d546f6c6572616e636560801b81565b7226b0bc34b6bab6a637b0b7223ab930ba34b7b760691b81565b6e5465726d7345787069727954696d6560881b81565b730a4cae6e0dedce6ca8af0e0d2e4f298cadccee8d60631b8156fea265627a7a72315820422ba8aa3b4a6ea7825af0efc4dd4a7963483b4711f559896c69d7454ab1db0e64736f6c63430005110032",
  "source": "pragma solidity 0.5.17;\npragma experimental ABIEncoderV2;\n\nimport \"../util/Mock.sol\";\nimport \"../../util/SettingsConsts.sol\";\nimport \"../../providers/chainlink/IChainlinkPairAggregatorRegistry.sol\";\n\ncontract SettingsMock is Mock {\n    SettingsConsts public consts;\n    IChainlinkPairAggregatorRegistry public pairAggregatorRegistry;\n\n    constructor() public Mock() {\n        consts = new SettingsConsts();\n    }\n\n    function externalSetPairAggregatorRegistry(address registryAddress) external {\n        pairAggregatorRegistry = IChainlinkPairAggregatorRegistry(registryAddress);\n    }\n}\n",
  "sourcePath": "/Users/sy/Documents/GitHub/teller-protocol-v1/contracts/mock/base/SettingsMock.sol",
  "compiler": {
    "name": "solc",
    "version": "0.5.17+commit.d19bba13.Emscripten.clang"
  },
  "schemaVersion": "3.0.23",
  "updatedAt": "2020-09-15T21:09:31.427Z",
  "devdoc": {
    "methods": {}
  },
  "userdoc": {
    "methods": {}
  }
}