{
  "contractName": "SignerRole",
  "abi": [
    {
      "anonymous": false,
      "inputs": [
        {
          "indexed": true,
          "internalType": "address",
          "name": "account",
          "type": "address"
        }
      ],
      "name": "SignerAdded",
      "type": "event"
    },
    {
      "anonymous": false,
      "inputs": [
        {
          "indexed": true,
          "internalType": "address",
          "name": "account",
          "type": "address"
        }
      ],
      "name": "SignerRemoved",
      "type": "event"
    },
    {
      "constant": false,
      "inputs": [
        {
          "internalType": "address",
          "name": "sender",
          "type": "address"
        }
      ],
      "name": "initialize",
      "outputs": [],
      "payable": false,
      "stateMutability": "nonpayable",
      "type": "function"
    },
    {
      "constant": true,
      "inputs": [
        {
          "internalType": "address",
          "name": "account",
          "type": "address"
        }
      ],
      "name": "isSigner",
      "outputs": [
        {
          "internalType": "bool",
          "name": "",
          "type": "bool"
        }
      ],
      "payable": false,
      "stateMutability": "view",
      "type": "function"
    },
    {
      "constant": false,
      "inputs": [
        {
          "internalType": "address",
          "name": "account",
          "type": "address"
        }
      ],
      "name": "addSigner",
      "outputs": [],
      "payable": false,
      "stateMutability": "nonpayable",
      "type": "function"
    },
    {
      "constant": false,
      "inputs": [],
      "name": "renounceSigner",
      "outputs": [],
      "payable": false,
      "stateMutability": "nonpayable",
      "type": "function"
    }
  ],
  "bytecode": "0x60806040526104db806100136000396000f3fe608060405234801561001057600080fd5b506004361061004c5760003560e01c80637df73e2714610051578063c4d66de81461008b578063e5c8b03d146100b3578063eb12d61e146100bb575b600080fd5b6100776004803603602081101561006757600080fd5b50356001600160a01b03166100e1565b604080519115158252519081900360200190f35b6100b1600480360360208110156100a157600080fd5b50356001600160a01b03166100fa565b005b6100b16101b3565b6100b1600480360360208110156100d157600080fd5b50356001600160a01b03166101c5565b60006100f460338363ffffffff61021c16565b92915050565b600054610100900460ff16806101135750610113610283565b80610121575060005460ff16155b61015c5760405162461bcd60e51b815260040180806020018281038252602e815260200180610449602e913960400191505060405180910390fd5b600054610100900460ff16158015610187576000805460ff1961ff0019909116610100171660011790555b610190826100e1565b61019d5761019d82610289565b80156101af576000805461ff00191690555b5050565b6101c36101be6102d1565b6102d5565b565b6101d56101d06102d1565b6100e1565b6102105760405162461bcd60e51b81526004018080602001828103825260308152602001806104776030913960400191505060405180910390fd5b61021981610289565b50565b60006001600160a01b0382166102635760405162461bcd60e51b81526004018080602001828103825260228152602001806104276022913960400191505060405180910390fd5b506001600160a01b03166000908152602091909152604090205460ff1690565b303b1590565b61029a60338263ffffffff61031d16565b6040516001600160a01b038216907f47d1c22a25bb3a5d4e481b9b1e6944c2eade3181a0a20b495ed61d35b5323f2490600090a250565b3390565b6102e660338263ffffffff61039e16565b6040516001600160a01b038216907f3525e22824a8a7df2c9a6029941c824cf95b6447f1e13d5128fd3826d35afe8b90600090a250565b610327828261021c565b15610379576040805162461bcd60e51b815260206004820152601f60248201527f526f6c65733a206163636f756e7420616c72656164792068617320726f6c6500604482015290519081900360640190fd5b6001600160a01b0316600090815260209190915260409020805460ff19166001179055565b6103a8828261021c565b6103e35760405162461bcd60e51b81526004018080602001828103825260218152602001806104066021913960400191505060405180910390fd5b6001600160a01b0316600090815260209190915260409020805460ff1916905556fe526f6c65733a206163636f756e7420646f6573206e6f74206861766520726f6c65526f6c65733a206163636f756e7420697320746865207a65726f2061646472657373436f6e747261637420696e7374616e63652068617320616c7265616479206265656e20696e697469616c697a65645369676e6572526f6c653a2063616c6c657220646f6573206e6f74206861766520746865205369676e657220726f6c65a265627a7a72315820919ecb053323bd999d9308a166ac32c9bcec5006641111584fcf9ccfdbef9e8464736f6c63430005110032",
  "source": "pragma solidity ^0.5.0;\n\nimport \"@openzeppelin/upgrades/contracts/Initializable.sol\";\n\nimport \"../../GSN/Context.sol\";\nimport \"../Roles.sol\";\n\ncontract SignerRole is Initializable, Context {\n    using Roles for Roles.Role;\n\n    event SignerAdded(address indexed account);\n    event SignerRemoved(address indexed account);\n\n    Roles.Role private _signers;\n\n    function initialize(address sender) public initializer {\n        if (!isSigner(sender)) {\n            _addSigner(sender);\n        }\n    }\n\n    modifier onlySigner() {\n        require(isSigner(_msgSender()), \"SignerRole: caller does not have the Signer role\");\n        _;\n    }\n\n    function isSigner(address account) public view returns (bool) {\n        return _signers.has(account);\n    }\n\n    function addSigner(address account) public onlySigner {\n        _addSigner(account);\n    }\n\n    function renounceSigner() public {\n        _removeSigner(_msgSender());\n    }\n\n    function _addSigner(address account) internal {\n        _signers.add(account);\n        emit SignerAdded(account);\n    }\n\n    function _removeSigner(address account) internal {\n        _signers.remove(account);\n        emit SignerRemoved(account);\n    }\n\n    uint256[50] private ______gap;\n}\n",
  "sourcePath": "@openzeppelin/contracts-ethereum-package/contracts/access/roles/SignerRole.sol",
  "compiler": {
    "name": "solc",
    "version": "0.5.17+commit.d19bba13.Emscripten.clang"
  },
  "schemaVersion": "3.2.3",
  "updatedAt": "2020-10-12T14:23:11.616Z",
  "devdoc": {
    "methods": {}
  },
  "userdoc": {
    "methods": {}
  }
}