{
  "contractName": "Swapper",
  "abi": [
    {
      "anonymous": false,
      "inputs": [
        {
          "indexed": true,
          "internalType": "address",
          "name": "previousOwner",
          "type": "address"
        },
        {
          "indexed": true,
          "internalType": "address",
          "name": "newOwner",
          "type": "address"
        }
      ],
      "name": "OwnershipTransferred",
      "type": "event"
    },
    {
      "anonymous": false,
      "inputs": [
        {
          "indexed": true,
          "internalType": "address",
          "name": "sourceToken",
          "type": "address"
        },
        {
          "indexed": true,
          "internalType": "address",
          "name": "destinationToken",
          "type": "address"
        },
        {
          "indexed": false,
          "internalType": "uint256",
          "name": "sourceAmount",
          "type": "uint256"
        },
        {
          "indexed": false,
          "internalType": "uint256",
          "name": "destinationAmount",
          "type": "uint256"
        }
      ],
      "name": "UniswapSwapped",
      "type": "event"
    },
    {
      "payable": true,
      "stateMutability": "payable",
      "type": "fallback"
    },
    {
      "constant": true,
      "inputs": [
        {
          "internalType": "address",
          "name": "tokenAddress",
          "type": "address"
        }
      ],
      "name": "findTokenIndex",
      "outputs": [
        {
          "internalType": "int256",
          "name": "",
          "type": "int256"
        }
      ],
      "payable": false,
      "stateMutability": "view",
      "type": "function"
    },
    {
      "constant": true,
      "inputs": [],
      "name": "getTokens",
      "outputs": [
        {
          "internalType": "address[]",
          "name": "",
          "type": "address[]"
        }
      ],
      "payable": false,
      "stateMutability": "view",
      "type": "function"
    },
    {
      "constant": false,
      "inputs": [
        {
          "internalType": "address",
          "name": "sender",
          "type": "address"
        }
      ],
      "name": "initialize",
      "outputs": [],
      "payable": false,
      "stateMutability": "nonpayable",
      "type": "function"
    },
    {
      "constant": true,
      "inputs": [],
      "name": "isOwner",
      "outputs": [
        {
          "internalType": "bool",
          "name": "",
          "type": "bool"
        }
      ],
      "payable": false,
      "stateMutability": "view",
      "type": "function"
    },
    {
      "constant": true,
      "inputs": [],
      "name": "owner",
      "outputs": [
        {
          "internalType": "address",
          "name": "",
          "type": "address"
        }
      ],
      "payable": false,
      "stateMutability": "view",
      "type": "function"
    },
    {
      "constant": false,
      "inputs": [],
      "name": "renounceOwnership",
      "outputs": [],
      "payable": false,
      "stateMutability": "nonpayable",
      "type": "function"
    },
    {
      "constant": true,
      "inputs": [],
      "name": "router",
      "outputs": [
        {
          "internalType": "contract IUniswapV2Router02",
          "name": "",
          "type": "address"
        }
      ],
      "payable": false,
      "stateMutability": "view",
      "type": "function"
    },
    {
      "constant": false,
      "inputs": [
        {
          "internalType": "address[]",
          "name": "path",
          "type": "address[]"
        },
        {
          "internalType": "uint256",
          "name": "sourceAmount",
          "type": "uint256"
        },
        {
          "internalType": "uint256",
          "name": "minDestination",
          "type": "uint256"
        }
      ],
      "name": "swap",
      "outputs": [],
      "payable": false,
      "stateMutability": "nonpayable",
      "type": "function"
    },
    {
      "constant": false,
      "inputs": [
        {
          "internalType": "address",
          "name": "newOwner",
          "type": "address"
        }
      ],
      "name": "transferOwnership",
      "outputs": [],
      "payable": false,
      "stateMutability": "nonpayable",
      "type": "function"
    },
    {
      "constant": false,
      "inputs": [
        {
          "internalType": "address",
          "name": "to",
          "type": "address"
        },
        {
          "internalType": "address",
          "name": "tokenAddress",
          "type": "address"
        },
        {
          "internalType": "uint256",
          "name": "destinationAmount",
          "type": "uint256"
        }
      ],
      "name": "swapForExact",
      "outputs": [],
      "payable": false,
      "stateMutability": "nonpayable",
      "type": "function"
    }
  ],
  "bytecode": "0x60806040526114a2806100136000396000f3fe6080604052600436106100915760003560e01c8063aa6ca80811610059578063aa6ca808146101fc578063b8001b0714610261578063c4d66de8146102a4578063f2fde38b146102d7578063f887ea401461030a57610091565b80630a11fd07146100935780633f3e37e4146100d8578063715018a61461018d5780638da5cb5b146101a25780638f32d59b146101d3575b005b34801561009f57600080fd5b506100c6600480360360208110156100b657600080fd5b50356001600160a01b031661031f565b60408051918252519081900360200190f35b3480156100e457600080fd5b50610091600480360360608110156100fb57600080fd5b81019060208101813564010000000081111561011657600080fd5b82018360208201111561012857600080fd5b8035906020019184602083028401116401000000008311171561014a57600080fd5b919080806020026020016040519081016040528093929190818152602001838360200280828437600092019190915250929550508235935050506020013561034f565b34801561019957600080fd5b506100916103cd565b3480156101ae57600080fd5b506101b7610470565b604080516001600160a01b039092168252519081900360200190f35b3480156101df57600080fd5b506101e8610480565b604080519115158252519081900360200190f35b34801561020857600080fd5b506102116104a6565b60408051602080825283518183015283519192839290830191858101910280838360005b8381101561024d578181015183820152602001610235565b505050509050019250505060405180910390f35b34801561026d57600080fd5b506100916004803603606081101561028457600080fd5b506001600160a01b03813581169160208101359091169060400135610508565b3480156102b057600080fd5b50610091600480360360208110156102c757600080fd5b50356001600160a01b031661078f565b3480156102e357600080fd5b50610091600480360360208110156102fa57600080fd5b50356001600160a01b0316610881565b34801561031657600080fd5b506101b76108e6565b6000808061033460668563ffffffff6108fe16565b915091508161034557600019610347565b805b949350505050565b610357610480565b6103a8576040805162461bcd60e51b815260206004820181905260248201527f4f776e61626c653a2063616c6c6572206973206e6f7420746865206f776e6572604482015290519081900360640190fd5b6103c8737a250d5630b4cf539739df2c5dacb4c659f2488d848484610953565b505050565b6103d5610480565b610426576040805162461bcd60e51b815260206004820181905260248201527f4f776e61626c653a2063616c6c6572206973206e6f7420746865206f776e6572604482015290519081900360640190fd5b6033546040516000916001600160a01b0316907f8be0079c531659141344cd1fd0a4f28419497f9722a3daafe3b4186f6b6457e0908390a3603380546001600160a01b0319169055565b6033546001600160a01b03165b90565b6033546000906001600160a01b0316610497610e2a565b6001600160a01b031614905090565b606060668054806020026020016040519081016040528092919081815260200182805480156104fe57602002820191906000526020600020905b81546001600160a01b031681526001909101906020018083116104e0575b5050505050905090565b6040805160028082526060808301845292602083019080388339019050509050737a250d5630b4cf539739df2c5dacb4c659f2488d6001600160a01b031663ad5c46486040518163ffffffff1660e01b815260040160206040518083038186803b15801561057557600080fd5b505afa158015610589573d6000803e3d6000fd5b505050506040513d602081101561059f57600080fd5b5051815182906000906105ae57fe5b60200260200101906001600160a01b031690816001600160a01b03168152505082816001815181106105dc57fe5b60200260200101906001600160a01b031690816001600160a01b031681525050737a250d5630b4cf539739df2c5dacb4c659f2488d6001600160a01b031663fb3bdb4147848488426040518663ffffffff1660e01b81526004018085815260200180602001846001600160a01b03166001600160a01b03168152602001838152602001828103825285818151815260200191508051906020019060200280838360005b8381101561069757818101518382015260200161067f565b50505050905001955050505050506000604051808303818588803b1580156106be57600080fd5b505af11580156106d2573d6000803e3d6000fd5b50505050506040513d6000823e601f3d908101601f1916820160405260208110156106fc57600080fd5b810190808051604051939291908464010000000082111561071c57600080fd5b90830190602082018581111561073157600080fd5b825186602082028301116401000000008211171561074e57600080fd5b82525081516020918201928201910280838360005b8381101561077b578181015183820152602001610763565b505050509050016040525050505050505050565b600054610100900460ff16806107a857506107a8610e2e565b806107b6575060005460ff16155b6107f15760405162461bcd60e51b815260040180806020018281038252602e815260200180611440602e913960400191505060405180910390fd5b600054610100900460ff1615801561081c576000805460ff1961ff0019909116610100171660011790555b603380546001600160a01b0319166001600160a01b0384811691909117918290556040519116906000907f8be0079c531659141344cd1fd0a4f28419497f9722a3daafe3b4186f6b6457e0908290a3801561087d576000805461ff00191690555b5050565b610889610480565b6108da576040805162461bcd60e51b815260206004820181905260248201527f4f776e61626c653a2063616c6c6572206973206e6f7420746865206f776e6572604482015290519081900360640190fd5b6108e381610e34565b50565b737a250d5630b4cf539739df2c5dacb4c659f2488d81565b6000805b835481101561094c57826001600160a01b031684828154811061092157fe5b6000918252602090912001546001600160a01b031614915081156109445761094c565b600101610902565b9250929050565b6002835110156109a3576040805162461bcd60e51b815260206004820152601660248201527515539254d5d05417d410551217d513d3d7d4d213d49560521b604482015290519081900360640190fd5b6000836000815181106109b257fe5b602002602001015190506000846001865103815181106109ce57fe5b60200260200101519050836109e283610ed5565b1015610a35576040805162461bcd60e51b815260206004820152601b60248201527f554e49535741505f494e53554646494349454e545f534f555243450000000000604482015290519081900360640190fd5b610a698160405180606001604052806023815260200161141d602391396001600160a01b038516919063ffffffff610f5116565b60008311610abe576040805162461bcd60e51b815260206004820152601c60248201527f554e49535741505f4d494e5f44455354494e4154494f4e5f5a45524f00000000604482015290519081900360640190fd5b6000610ac982610ed5565b9050826001600160a01b031663095ea7b388876040518363ffffffff1660e01b815260040180836001600160a01b03166001600160a01b0316815260200182815260200192505050602060405180830381600087803b158015610b2b57600080fd5b505af1158015610b3f573d6000803e3d6000fd5b505050506040513d6020811015610b5557600080fd5b8101908080519060200190929190505050506060876001600160a01b03166338ed173987878a30426040518663ffffffff1660e01b81526004018086815260200185815260200180602001846001600160a01b03166001600160a01b03168152602001838152602001828103825285818151815260200191508051906020019060200280838360005b83811015610bf6578181015183820152602001610bde565b505050509050019650505050505050600060405180830381600087803b158015610c1f57600080fd5b505af1158015610c33573d6000803e3d6000fd5b505050506040513d6000823e601f3d908101601f191682016040526020811015610c5c57600080fd5b8101908080516040519392919084640100000000821115610c7c57600080fd5b908301906020820185811115610c9157600080fd5b8251866020820283011164010000000082111715610cae57600080fd5b82525081516020918201928201910280838360005b83811015610cdb578181015183820152602001610cc3565b5050505090500160405250505090506000610cf584610ed5565b9050858301811015610d4e576040805162461bcd60e51b815260206004820152601d60248201527f554e49535741505f42414c414e43455f4e4f545f494e43524541534544000000604482015290519081900360640190fd5b8751825114610d9d576040805162461bcd60e51b8152602060048201526016602482015275554e49535741505f4552524f525f5357415050494e4760501b604482015290519081900360640190fd5b600082600184510381518110610daf57fe5b60200260200101519050610dc286610feb565b610dcb85610feb565b846001600160a01b0316866001600160a01b03167f1bb1e73a9804d75cf23770eb841f89d3179041febf415b046d77b318d3b5530d8a84604051808381526020018281526020019250505060405180910390a350505050505050505050565b3390565b303b1590565b6001600160a01b038116610e795760405162461bcd60e51b81526004018080602001828103825260268152602001806113f76026913960400191505060405180910390fd5b6033546040516001600160a01b038084169216907f8be0079c531659141344cd1fd0a4f28419497f9722a3daafe3b4186f6b6457e090600090a3603380546001600160a01b0319166001600160a01b0392909216919091179055565b604080516370a0823160e01b815230600482015290516000916001600160a01b038416916370a0823191602480820192602092909190829003018186803b158015610f1f57600080fd5b505afa158015610f33573d6000803e3d6000fd5b505050506040513d6020811015610f4957600080fd5b505192915050565b610f5b8383611048565b8190610fe55760405162461bcd60e51b81526004018080602001828103825283818151815260200191508051906020019080838360005b83811015610faa578181015183820152602001610f92565b50505050905090810190601f168015610fd75780820380516001836020036101000a031916815260200191505b509250505060405180910390fd5b50505050565b600080610fff60668463ffffffff6108fe16565b91509150600061100e84610ed5565b1115611031578161102c5761102a60668463ffffffff61105f16565b505b6103c8565b81156103c857610fe560668263ffffffff61114816565b6001600160a01b0382811690821614155b92915050565b60606001600160a01b0382166110bc576040805162461bcd60e51b815260206004820152601960248201527f454d5054595f414444524553535f4e4f545f414c4c4f57454400000000000000604482015290519081900360640190fd5b8254600181018455600084815260209081902090910180546001600160a01b0319166001600160a01b038516179055835460408051828402810184019091528181529185919083018282801561113b57602002820191906000526020600020905b81546001600160a01b0316815260019091019060200180831161111d575b5050505050905092915050565b815460609082106111b0578254604080516020808402820181019092528281529185918301828280156111a457602002820191906000526020600020905b81546001600160a01b03168152600190910190602001808311611186575b50505050509050611059565b825460001901821415611254578254839060001981019081106111cf57fe5b600091825260209091200180546001600160a01b031916905582546111f88460001983016113b9565b508254604080516020808402820181019092528281529185918301828280156111a4576020028201919060005260206000209081546001600160a01b031681526001909101906020018083116111865750505050509050611059565b82546000908490600019810190811061126957fe5b60009182526020909120015484546001600160a01b03909116915084908490811061129057fe5b60009182526020909120015484546001600160a01b0390911690859060001981019081106112ba57fe5b9060005260206000200160006101000a8154816001600160a01b0302191690836001600160a01b03160217905550808484815481106112f557fe5b600091825260209091200180546001600160a01b0319166001600160a01b039290921691909117905583548490600019810190811061133057fe5b600091825260209091200180546001600160a01b031916905583546113598560001983016113b9565b508354604080516020808402820181019092528281529186918301828280156113ab57602002820191906000526020600020905b81546001600160a01b0316815260019091019060200180831161138d575b505050505091505092915050565b8154818355818111156103c8576000838152602090206103c891810190830161047d91905b808211156113f257600081556001016113de565b509056fe4f776e61626c653a206e6577206f776e657220697320746865207a65726f2061646472657373554e49535741505f534f555243455f414e445f44455354494e4154494f4e5f53414d45436f6e747261637420696e7374616e63652068617320616c7265616479206265656e20696e697469616c697a6564a265627a7a72315820e48afccd09b24571135b61bc990f65cba109803dbab0101d9c90487337cd763064736f6c63430005110032",
  "source": "pragma solidity 0.5.17;\n\nimport \"../../../base/escrow/dapps/Uniswap.sol\";\n\n/**\n    @notice This mock is used to expose a payable fallback function on tests.\n */\ncontract Swapper is Uniswap {\n    function swapForExact(\n        address to,\n        address tokenAddress,\n        uint256 destinationAmount\n    ) public {\n        address[] memory path = new address[](2);\n        path[0] = router.WETH();\n        path[1] = tokenAddress;\n        router.swapETHForExactTokens.value(address(this).balance)(\n            destinationAmount,\n            path,\n            to,\n            now\n        );\n    }\n\n    function() external payable {}\n}\n",
  "sourcePath": "/Users/guillesalazar/Repos/ZeroCollateral/smart-contracts-v1/contracts/mock/providers/uniswap/Swapper.sol",
  "compiler": {
    "name": "solc",
    "version": "0.5.17+commit.d19bba13.Emscripten.clang"
  },
  "schemaVersion": "3.2.3",
  "updatedAt": "2020-10-12T14:23:11.554Z",
  "devdoc": {
    "methods": {
      "initialize(address)": {
        "details": "Initializes the contract setting the deployer as the initial owner."
      },
      "isOwner()": {
        "details": "Returns true if the caller is the current owner."
      },
      "owner()": {
        "details": "Returns the address of the current owner."
      },
      "renounceOwnership()": {
        "details": "Leaves the contract without owner. It will not be possible to call `onlyOwner` functions anymore. Can only be called by the current owner.     * > Note: Renouncing ownership will leave the contract without an owner, thereby removing any functionality that is only available to the owner."
      },
      "swap(address[],uint256,uint256)": {
        "params": {
          "minDestination": "The minimum amount of output tokens that must be received for the transaction not to revert.",
          "path": "An array of token addresses. path.length must be >= 2. Pools for each consecutive pair of addresses must exist and have liquidity.",
          "sourceAmount": "amount of source token to swap."
        }
      },
      "transferOwnership(address)": {
        "details": "Transfers ownership of the contract to a new account (`newOwner`). Can only be called by the current owner."
      }
    }
  },
  "userdoc": {
    "methods": {
      "swap(address[],uint256,uint256)": {
        "notice": "Swaps ETH/Tokens for Tokens/ETH using different Uniswap v2 Router 02 methods."
      }
    },
    "notice": "This mock is used to expose a payable fallback function on tests."
  }
}