{
  "contractName": "TInitializableModifiersMock",
  "abi": [
    {
      "constant": true,
      "inputs": [],
      "name": "initialized",
      "outputs": [
        {
          "internalType": "bool",
          "name": "value",
          "type": "bool"
        }
      ],
      "payable": false,
      "stateMutability": "view",
      "type": "function"
    },
    {
      "constant": false,
      "inputs": [],
      "name": "externalIsNotInitialized",
      "outputs": [],
      "payable": false,
      "stateMutability": "nonpayable",
      "type": "function"
    },
    {
      "constant": false,
      "inputs": [],
      "name": "externalIsInitialized",
      "outputs": [],
      "payable": false,
      "stateMutability": "nonpayable",
      "type": "function"
    },
    {
      "constant": false,
      "inputs": [],
      "name": "externalInitialize",
      "outputs": [],
      "payable": false,
      "stateMutability": "nonpayable",
      "type": "function"
    }
  ],
  "bytecode": "0x608060405234801561001057600080fd5b506101e2806100206000396000f3fe608060405234801561001057600080fd5b506004361061004c5760003560e01c8063158ef93e146100515780636543837b1461006d5780637e02810c146100775780638395e87d1461007f575b600080fd5b610059610087565b604080519115158252519081900360200190f35b6100756100bd565b005b610075610119565b610075610172565b604080517f54496e697469616c697a61626c652e6973496e697469616c697a6564000000008152905190819003601c0190205490565b6100c5610087565b15610117576040805162461bcd60e51b815260206004820152601c60248201527f434f4e54524143545f414c52454144595f494e495449414c495a454400000000604482015290519081900360640190fd5b565b610121610087565b610117576040805162461bcd60e51b815260206004820152601860248201527f434f4e54524143545f4e4f545f494e495449414c495a45440000000000000000604482015290519081900360640190fd5b610117604080517f54496e697469616c697a61626c652e6973496e697469616c697a6564000000008152905190819003601c0190206001905556fea265627a7a72315820163abb47dc9a614c176056af689e55c25c7f565658e5e90a92da1d545b257dcf64736f6c63430005110032",
  "source": "pragma solidity 0.5.17;\n\nimport \"../../base/TInitializable.sol\";\n\n/**\n    This contract is created ONLY for testing purposes.\n */\ncontract TInitializableModifiersMock is TInitializable {\n    /** State Variables */\n\n    /** Constructor */\n\n    function externalIsNotInitialized() external isNotInitialized() {}\n\n    function externalIsInitialized() external isInitialized() {}\n\n    function externalInitialize() external {\n        _initialize();\n    }\n}\n",
  "sourcePath": "/Users/sy/Documents/GitHub/teller-protocol-v1/contracts/mock/base/TInitializableModifiersMock.sol",
  "compiler": {
    "name": "solc",
    "version": "0.5.17+commit.d19bba13.Emscripten.clang"
  },
  "schemaVersion": "3.0.23",
  "updatedAt": "2020-09-06T02:15:12.502Z",
  "devdoc": {
    "methods": {
      "initialized()": {
        "return": "true if contract is initialized. Otherwise it returns false."
      }
    }
  },
  "userdoc": {
    "methods": {
      "externalIsNotInitialized()": {
        "notice": "Constructor "
      },
      "initialized()": {
        "notice": "Gets if the contract is initialized."
      }
    },
    "notice": "This contract is created ONLY for testing purposes."
  }
}