{
  "contractName": "TInitializable",
  "abi": [
    {
      "constant": true,
      "inputs": [],
      "name": "initialized",
      "outputs": [
        {
          "internalType": "bool",
          "name": "value",
          "type": "bool"
        }
      ],
      "payable": false,
      "stateMutability": "view",
      "type": "function"
    }
  ],
  "bytecode": "0x6080604052348015600f57600080fd5b5060b28061001e6000396000f3fe6080604052348015600f57600080fd5b506004361060285760003560e01c8063158ef93e14602d575b600080fd5b60336047565b604080519115158252519081900360200190f35b604080517f54496e697469616c697a61626c652e6973496e697469616c697a6564000000008152905190819003601c019020549056fea265627a7a72315820589a55f865646aa6d154e63499903e75b549445d62646d6b3144b012d0afa74b64736f6c63430005110032",
  "source": "pragma solidity 0.5.17;\n\n// Libraries\n\n// Commons\n\n// Interfaces\n\n/**\n    @notice This contract is used to initialize the contract variables using a function (initialize) instead of constructor.\n    @notice It makes the creation process easier avoiding circular dependencies.\n\n    @author develop@teller.finance\n */\ncontract TInitializable {\n    /* State Variables */\n\n    bytes32 internal constant IS_INITIALIZED_SLOT = keccak256(\n        \"TInitializable.isInitialized\"\n    );\n\n    /** Modifiers */\n\n    /**\n        @notice Checks whether the contract is initialized or not.\n        @dev It throws a require error if the contract is initialized.\n     */\n    modifier isNotInitialized() {\n        require(!initialized(), \"CONTRACT_ALREADY_INITIALIZED\");\n        _;\n    }\n\n    /**\n        @notice Checks whether the contract is initialized or not.\n        @dev It throws a require error if the contract is not initialized.\n     */\n    modifier isInitialized() {\n        require(initialized(), \"CONTRACT_NOT_INITIALIZED\");\n        _;\n    }\n\n    /* Constructor */\n\n    /** Public Functions */\n\n    /**\n        @notice Gets if the contract is initialized.\n        @return true if contract is initialized. Otherwise it returns false.\n     */\n    function initialized() public view returns (bool value) {\n        bytes32 slot = IS_INITIALIZED_SLOT;\n        assembly {\n            value := sload(slot)\n        }\n    }\n\n    /** Internal functions */\n\n    /**\n        @notice It initializes this contract.\n     */\n    function _initialize() internal {\n        bytes32 slot = IS_INITIALIZED_SLOT;\n        bool value = true;\n        assembly {\n            sstore(slot, value)\n        }\n    }\n\n    /** Private functions */\n}\n",
  "sourcePath": "/Users/guillesalazar/Repos/ZeroCollateral/smart-contracts-v1/contracts/base/TInitializable.sol",
  "compiler": {
    "name": "solc",
    "version": "0.5.17+commit.d19bba13.Emscripten.clang"
  },
  "schemaVersion": "3.2.3",
  "updatedAt": "2020-10-12T14:23:11.475Z",
  "devdoc": {
    "author": "develop@teller.finance",
    "methods": {
      "initialized()": {
        "return": "true if contract is initialized. Otherwise it returns false."
      }
    }
  },
  "userdoc": {
    "methods": {
      "initialized()": {
        "notice": "Gets if the contract is initialized."
      }
    },
    "notice": "This contract is used to initialize the contract variables using a function (initialize) instead of constructor.It makes the creation process easier avoiding circular dependencies."
  }
}