{
  "contractName": "TLRTokenProxy",
  "abi": [
    {
      "inputs": [
        {
          "internalType": "string",
          "name": "name",
          "type": "string"
        },
        {
          "internalType": "string",
          "name": "symbol",
          "type": "string"
        },
        {
          "internalType": "uint8",
          "name": "decimals",
          "type": "uint8"
        },
        {
          "internalType": "uint256",
          "name": "cap",
          "type": "uint256"
        },
        {
          "internalType": "uint256",
          "name": "maxVestingPerWallet",
          "type": "uint256"
        },
        {
          "internalType": "address",
          "name": "atmSettingsAddress",
          "type": "address"
        },
        {
          "internalType": "address",
          "name": "atm",
          "type": "address"
        }
      ],
      "payable": true,
      "stateMutability": "payable",
      "type": "constructor"
    },
    {
      "payable": true,
      "stateMutability": "payable",
      "type": "fallback"
    },
    {
      "constant": true,
      "inputs": [],
      "name": "atmSettings",
      "outputs": [
        {
          "internalType": "contract IATMSettings",
          "name": "",
          "type": "address"
        }
      ],
      "payable": false,
      "stateMutability": "view",
      "type": "function"
    },
    {
      "constant": true,
      "inputs": [],
      "name": "implementation",
      "outputs": [
        {
          "internalType": "address",
          "name": "",
          "type": "address"
        }
      ],
      "payable": false,
      "stateMutability": "view",
      "type": "function"
    }
  ],
  "bytecode": "0x60806040526040516106e93803806106e9833981810160405260e081101561002657600080fd5b810190808051604051939291908464010000000082111561004657600080fd5b90830190602082018581111561005b57600080fd5b825164010000000081118282018810171561007557600080fd5b82525081516020918201929091019080838360005b838110156100a257818101518382015260200161008a565b50505050905090810190601f1680156100cf5780820380516001836020036101000a031916815260200191505b50604052602001805160405193929190846401000000008211156100f257600080fd5b90830190602082018581111561010757600080fd5b825164010000000081118282018810171561012157600080fd5b82525081516020918201929091019080838360005b8381101561014e578181015183820152602001610136565b50505050905090810190601f16801561017b5780820380516001836020036101000a031916815260200191505b50604081815260208381015191840151606080860151608087015160a09097015160ff861660648801526084870184905260a487018290526001600160a01b0380891660c4890152811660e488015260e0602488019081528c516101048901528c51969a50939850909695909491938b938b938b938b938b938b938b93919283926044810192610124909101918c019080838360005b83811015610229578181015183820152602001610211565b50505050905090810190601f1680156102565780820380516001836020036101000a031916815260200191505b5083810382528951815289516020918201918b019080838360005b83811015610289578181015183820152602001610271565b50505050905090810190601f1680156102b65780820380516001836020036101000a031916815260200191505b5060408051601f198184030181529190526020810180516001600160e01b0390811663561cf2ab60e01b17909152909b5060009a5061030199508d9850610325169650505050505050565b905061031681836001600160e01b0361039216565b505050505050505050506104de565b6000816001600160a01b03166368afc3c66040518163ffffffff1660e01b815260040160206040518083038186803b15801561036057600080fd5b505afa158015610374573d6000803e3d6000fd5b505050506040513d602081101561038a57600080fd5b505192915050565b60606103b0836001600160a01b03166104a560201b6101581760201c565b6103eb5760405162461bcd60e51b81526004018080602001828103825260338152602001806106b66033913960400191505060405180910390fd5b60006060846001600160a01b0316846040518082805190602001908083835b602083106104295780518252601f19909201916020918201910161040a565b6001836020036101000a038019825116818451168082178552505050505050905001915050600060405180830381855af49150503d8060008114610489576040519150601f19603f3d011682016040523d82523d6000602084013e61048e565b606091505b50915091508161049d57600080fd5b949350505050565b6000813f7fc5d2460186f7233c927e7db2dcc703c0e500b653ca82273b7bfad8045d85a47081811480159061049d575050151592915050565b6101c9806104ed6000396000f3fe6080604052600436106100295760003560e01c80635c60da1b14610033578063dc21a6a014610064575b610031610079565b005b34801561003f57600080fd5b50610048610093565b604080516001600160a01b039092168252519081900360200190f35b34801561007057600080fd5b506100486100a2565b610081610091565b61009161008c6100b1565b6100c7565b565b600061009d6100b1565b905090565b6000546001600160a01b031681565b6000805461009d906001600160a01b03166100eb565b3660008037600080366000845af43d6000803e8080156100e6573d6000f35b3d6000fd5b6000816001600160a01b03166368afc3c66040518163ffffffff1660e01b815260040160206040518083038186803b15801561012657600080fd5b505afa15801561013a573d6000803e3d6000fd5b505050506040513d602081101561015057600080fd5b505192915050565b6000813f7fc5d2460186f7233c927e7db2dcc703c0e500b653ca82273b7bfad8045d85a47081811480159061018c57508115155b94935050505056fea265627a7a72315820062a217340fa14a4cfdf96776fccab00ed3d596897619b17d81fc10d7b257dc264736f6c6343000511003250524f58595f44454c45474154455f544f5f494d504c454d454e544154494f4e5f4d5553545f42455f415f434f4e5452414354",
  "source": "pragma solidity 0.5.17;\n\nimport \"./BaseATMProxy.sol\";\n\n/**\n * @notice It is the Proxy contract for TLR Tokens.\n *\n * @author develop@teller.finance\n */\ncontract TLRTokenProxy is BaseATMProxy {\n    /**\n        @notice This constructor forwards the parameters to the implementation logic contract defined in ATMSettings.\n        @param name The name of the token\n        @param symbol The symbol of the token\n        @param decimals The amount of decimals for token\n        @param cap The maximum number of tokens available\n        @param maxVestingPerWallet The maximum number of times a wallet can mint their vesting\n        @param atmSettingsAddress The ATMSettings address\n        @param atm The ATMGovernance address for this token\n     */\n    constructor(\n        string memory name,\n        string memory symbol,\n        uint8 decimals,\n        uint256 cap,\n        uint256 maxVestingPerWallet,\n        address atmSettingsAddress,\n        address atm\n    ) public payable {\n        bytes memory initData = abi.encodeWithSignature(\n            \"initialize(string,string,uint8,uint256,uint256,address,address)\",\n            name,\n            symbol,\n            decimals,\n            cap,\n            maxVestingPerWallet,\n            atmSettingsAddress,\n            atm\n        );\n        address logic = _getImplementation(atmSettingsAddress);\n        _delegateToWith(logic, initData);\n    }\n\n    /** internal functions **/\n\n    /**\n        @notice it is the logic of grabbing the current TLRToken logic address from an ATMSettings contract address.\n        @param atmSettingsAddress address of an ATMSettings contract\n        @return address of TLRToken logic implementation\n     */\n    function _getImplementation(address atmSettingsAddress) internal view returns (address) {\n        return IATMSettings(atmSettingsAddress).tlrTokenLogic();\n    }\n}\n",
  "sourcePath": "/Users/sy/Documents/GitHub/teller-protocol-v1/contracts/atm/TLRTokenProxy.sol",
  "compiler": {
    "name": "solc",
    "version": "0.5.17+commit.d19bba13.Emscripten.clang"
  },
  "schemaVersion": "3.0.23",
  "updatedAt": "2020-08-28T22:57:03.820Z",
  "devdoc": {
    "author": "develop@teller.finance",
    "methods": {
      "constructor": {
        "params": {
          "atm": "The ATMGovernance address for this token",
          "atmSettingsAddress": "The ATMSettings address",
          "cap": "The maximum number of tokens available",
          "decimals": "The amount of decimals for token",
          "maxVestingPerWallet": "The maximum number of times a wallet can mint their vesting",
          "name": "The name of the token",
          "symbol": "The symbol of the token"
        }
      },
      "implementation()": {
        "return": "Address of the current implementation"
      }
    }
  },
  "userdoc": {
    "methods": {
      "constructor": "This constructor forwards the parameters to the implementation logic contract defined in ATMSettings.",
      "implementation()": {
        "notice": "Returns the current implementation."
      }
    },
    "notice": "It is the Proxy contract for TLR Tokens."
  }
}