{
  "contractName": "TLRToken",
  "abi": [
    {
      "anonymous": false,
      "inputs": [
        {
          "indexed": true,
          "internalType": "address",
          "name": "owner",
          "type": "address"
        },
        {
          "indexed": true,
          "internalType": "address",
          "name": "spender",
          "type": "address"
        },
        {
          "indexed": false,
          "internalType": "uint256",
          "name": "value",
          "type": "uint256"
        }
      ],
      "name": "Approval",
      "type": "event"
    },
    {
      "anonymous": false,
      "inputs": [
        {
          "indexed": true,
          "internalType": "address",
          "name": "account",
          "type": "address"
        }
      ],
      "name": "MinterAdded",
      "type": "event"
    },
    {
      "anonymous": false,
      "inputs": [
        {
          "indexed": true,
          "internalType": "address",
          "name": "account",
          "type": "address"
        }
      ],
      "name": "MinterRemoved",
      "type": "event"
    },
    {
      "anonymous": false,
      "inputs": [
        {
          "indexed": false,
          "internalType": "uint256",
          "name": "newCap",
          "type": "uint256"
        }
      ],
      "name": "NewCap",
      "type": "event"
    },
    {
      "anonymous": false,
      "inputs": [
        {
          "indexed": false,
          "internalType": "address",
          "name": "beneficiary",
          "type": "address"
        },
        {
          "indexed": false,
          "internalType": "uint256",
          "name": "amount",
          "type": "uint256"
        },
        {
          "indexed": false,
          "internalType": "uint256",
          "name": "deadline",
          "type": "uint256"
        }
      ],
      "name": "NewVesting",
      "type": "event"
    },
    {
      "anonymous": false,
      "inputs": [
        {
          "indexed": false,
          "internalType": "address",
          "name": "account",
          "type": "address"
        },
        {
          "indexed": false,
          "internalType": "uint256",
          "name": "unvestedTokens",
          "type": "uint256"
        },
        {
          "indexed": false,
          "internalType": "uint256",
          "name": "deadline",
          "type": "uint256"
        }
      ],
      "name": "RevokeVesting",
      "type": "event"
    },
    {
      "anonymous": false,
      "inputs": [
        {
          "indexed": false,
          "internalType": "uint256",
          "name": "id",
          "type": "uint256"
        }
      ],
      "name": "Snapshot",
      "type": "event"
    },
    {
      "anonymous": false,
      "inputs": [
        {
          "indexed": true,
          "internalType": "address",
          "name": "from",
          "type": "address"
        },
        {
          "indexed": true,
          "internalType": "address",
          "name": "to",
          "type": "address"
        },
        {
          "indexed": false,
          "internalType": "uint256",
          "name": "value",
          "type": "uint256"
        }
      ],
      "name": "Transfer",
      "type": "event"
    },
    {
      "anonymous": false,
      "inputs": [
        {
          "indexed": false,
          "internalType": "address",
          "name": "beneficiary",
          "type": "address"
        },
        {
          "indexed": false,
          "internalType": "uint256",
          "name": "amount",
          "type": "uint256"
        }
      ],
      "name": "VestingClaimed",
      "type": "event"
    },
    {
      "constant": false,
      "inputs": [
        {
          "internalType": "address",
          "name": "account",
          "type": "address"
        }
      ],
      "name": "addMinter",
      "outputs": [],
      "payable": false,
      "stateMutability": "nonpayable",
      "type": "function"
    },
    {
      "constant": true,
      "inputs": [
        {
          "internalType": "address",
          "name": "owner",
          "type": "address"
        },
        {
          "internalType": "address",
          "name": "spender",
          "type": "address"
        }
      ],
      "name": "allowance",
      "outputs": [
        {
          "internalType": "uint256",
          "name": "",
          "type": "uint256"
        }
      ],
      "payable": false,
      "stateMutability": "view",
      "type": "function"
    },
    {
      "constant": false,
      "inputs": [
        {
          "internalType": "address",
          "name": "spender",
          "type": "address"
        },
        {
          "internalType": "uint256",
          "name": "amount",
          "type": "uint256"
        }
      ],
      "name": "approve",
      "outputs": [
        {
          "internalType": "bool",
          "name": "",
          "type": "bool"
        }
      ],
      "payable": false,
      "stateMutability": "nonpayable",
      "type": "function"
    },
    {
      "constant": true,
      "inputs": [
        {
          "internalType": "address",
          "name": "",
          "type": "address"
        }
      ],
      "name": "assignedTokens",
      "outputs": [
        {
          "internalType": "uint256",
          "name": "",
          "type": "uint256"
        }
      ],
      "payable": false,
      "stateMutability": "view",
      "type": "function"
    },
    {
      "constant": true,
      "inputs": [],
      "name": "atmAddress",
      "outputs": [
        {
          "internalType": "address",
          "name": "",
          "type": "address"
        }
      ],
      "payable": false,
      "stateMutability": "view",
      "type": "function"
    },
    {
      "constant": true,
      "inputs": [
        {
          "internalType": "address",
          "name": "account",
          "type": "address"
        }
      ],
      "name": "balanceOf",
      "outputs": [
        {
          "internalType": "uint256",
          "name": "",
          "type": "uint256"
        }
      ],
      "payable": false,
      "stateMutability": "view",
      "type": "function"
    },
    {
      "constant": false,
      "inputs": [
        {
          "internalType": "uint256",
          "name": "amount",
          "type": "uint256"
        }
      ],
      "name": "burn",
      "outputs": [],
      "payable": false,
      "stateMutability": "nonpayable",
      "type": "function"
    },
    {
      "constant": false,
      "inputs": [
        {
          "internalType": "address",
          "name": "account",
          "type": "address"
        },
        {
          "internalType": "uint256",
          "name": "amount",
          "type": "uint256"
        }
      ],
      "name": "burnFrom",
      "outputs": [],
      "payable": false,
      "stateMutability": "nonpayable",
      "type": "function"
    },
    {
      "constant": true,
      "inputs": [],
      "name": "decimals",
      "outputs": [
        {
          "internalType": "uint8",
          "name": "",
          "type": "uint8"
        }
      ],
      "payable": false,
      "stateMutability": "view",
      "type": "function"
    },
    {
      "constant": false,
      "inputs": [
        {
          "internalType": "address",
          "name": "spender",
          "type": "address"
        },
        {
          "internalType": "uint256",
          "name": "subtractedValue",
          "type": "uint256"
        }
      ],
      "name": "decreaseAllowance",
      "outputs": [
        {
          "internalType": "bool",
          "name": "",
          "type": "bool"
        }
      ],
      "payable": false,
      "stateMutability": "nonpayable",
      "type": "function"
    },
    {
      "constant": false,
      "inputs": [
        {
          "internalType": "address",
          "name": "spender",
          "type": "address"
        },
        {
          "internalType": "uint256",
          "name": "addedValue",
          "type": "uint256"
        }
      ],
      "name": "increaseAllowance",
      "outputs": [
        {
          "internalType": "bool",
          "name": "",
          "type": "bool"
        }
      ],
      "payable": false,
      "stateMutability": "nonpayable",
      "type": "function"
    },
    {
      "constant": true,
      "inputs": [],
      "name": "initialized",
      "outputs": [
        {
          "internalType": "bool",
          "name": "value",
          "type": "bool"
        }
      ],
      "payable": false,
      "stateMutability": "view",
      "type": "function"
    },
    {
      "constant": true,
      "inputs": [
        {
          "internalType": "address",
          "name": "account",
          "type": "address"
        }
      ],
      "name": "isMinter",
      "outputs": [
        {
          "internalType": "bool",
          "name": "",
          "type": "bool"
        }
      ],
      "payable": false,
      "stateMutability": "view",
      "type": "function"
    },
    {
      "constant": true,
      "inputs": [],
      "name": "name",
      "outputs": [
        {
          "internalType": "string",
          "name": "",
          "type": "string"
        }
      ],
      "payable": false,
      "stateMutability": "view",
      "type": "function"
    },
    {
      "constant": false,
      "inputs": [],
      "name": "renounceMinter",
      "outputs": [],
      "payable": false,
      "stateMutability": "nonpayable",
      "type": "function"
    },
    {
      "constant": true,
      "inputs": [],
      "name": "settings",
      "outputs": [
        {
          "internalType": "contract SettingsInterface",
          "name": "",
          "type": "address"
        }
      ],
      "payable": false,
      "stateMutability": "view",
      "type": "function"
    },
    {
      "constant": true,
      "inputs": [],
      "name": "symbol",
      "outputs": [
        {
          "internalType": "string",
          "name": "",
          "type": "string"
        }
      ],
      "payable": false,
      "stateMutability": "view",
      "type": "function"
    },
    {
      "constant": true,
      "inputs": [],
      "name": "totalSupply",
      "outputs": [
        {
          "internalType": "uint256",
          "name": "",
          "type": "uint256"
        }
      ],
      "payable": false,
      "stateMutability": "view",
      "type": "function"
    },
    {
      "constant": false,
      "inputs": [
        {
          "internalType": "address",
          "name": "sender",
          "type": "address"
        },
        {
          "internalType": "address",
          "name": "recipient",
          "type": "address"
        },
        {
          "internalType": "uint256",
          "name": "amount",
          "type": "uint256"
        }
      ],
      "name": "transferFrom",
      "outputs": [
        {
          "internalType": "bool",
          "name": "",
          "type": "bool"
        }
      ],
      "payable": false,
      "stateMutability": "nonpayable",
      "type": "function"
    },
    {
      "constant": true,
      "inputs": [
        {
          "internalType": "address",
          "name": "",
          "type": "address"
        }
      ],
      "name": "vestingCount",
      "outputs": [
        {
          "internalType": "uint256",
          "name": "",
          "type": "uint256"
        }
      ],
      "payable": false,
      "stateMutability": "view",
      "type": "function"
    },
    {
      "constant": false,
      "inputs": [
        {
          "internalType": "string",
          "name": "name",
          "type": "string"
        },
        {
          "internalType": "string",
          "name": "symbol",
          "type": "string"
        },
        {
          "internalType": "uint8",
          "name": "decimals",
          "type": "uint8"
        }
      ],
      "name": "initialize",
      "outputs": [],
      "payable": false,
      "stateMutability": "nonpayable",
      "type": "function"
    },
    {
      "constant": false,
      "inputs": [
        {
          "internalType": "string",
          "name": "name",
          "type": "string"
        },
        {
          "internalType": "string",
          "name": "symbol",
          "type": "string"
        },
        {
          "internalType": "uint8",
          "name": "decimals",
          "type": "uint8"
        },
        {
          "internalType": "uint256",
          "name": "cap",
          "type": "uint256"
        },
        {
          "internalType": "uint256",
          "name": "maxVestingPerWallet",
          "type": "uint256"
        },
        {
          "internalType": "address",
          "name": "settingsAddress",
          "type": "address"
        },
        {
          "internalType": "address",
          "name": "atm",
          "type": "address"
        }
      ],
      "name": "initialize",
      "outputs": [],
      "payable": false,
      "stateMutability": "nonpayable",
      "type": "function"
    },
    {
      "constant": false,
      "inputs": [
        {
          "internalType": "address",
          "name": "sender",
          "type": "address"
        }
      ],
      "name": "initialize",
      "outputs": [],
      "payable": false,
      "stateMutability": "nonpayable",
      "type": "function"
    },
    {
      "constant": true,
      "inputs": [],
      "name": "cap",
      "outputs": [
        {
          "internalType": "uint256",
          "name": "",
          "type": "uint256"
        }
      ],
      "payable": false,
      "stateMutability": "view",
      "type": "function"
    },
    {
      "constant": false,
      "inputs": [
        {
          "internalType": "uint256",
          "name": "newCap",
          "type": "uint256"
        }
      ],
      "name": "setCap",
      "outputs": [],
      "payable": false,
      "stateMutability": "nonpayable",
      "type": "function"
    },
    {
      "constant": false,
      "inputs": [
        {
          "internalType": "address",
          "name": "account",
          "type": "address"
        },
        {
          "internalType": "uint256",
          "name": "amount",
          "type": "uint256"
        }
      ],
      "name": "mint",
      "outputs": [
        {
          "internalType": "bool",
          "name": "",
          "type": "bool"
        }
      ],
      "payable": false,
      "stateMutability": "nonpayable",
      "type": "function"
    },
    {
      "constant": false,
      "inputs": [
        {
          "internalType": "address",
          "name": "account",
          "type": "address"
        },
        {
          "internalType": "uint256",
          "name": "amount",
          "type": "uint256"
        },
        {
          "internalType": "uint256",
          "name": "cliff",
          "type": "uint256"
        },
        {
          "internalType": "uint256",
          "name": "vestingTime",
          "type": "uint256"
        }
      ],
      "name": "mintVesting",
      "outputs": [],
      "payable": false,
      "stateMutability": "nonpayable",
      "type": "function"
    },
    {
      "constant": false,
      "inputs": [
        {
          "internalType": "address",
          "name": "account",
          "type": "address"
        },
        {
          "internalType": "uint256",
          "name": "vestingId",
          "type": "uint256"
        }
      ],
      "name": "revokeVesting",
      "outputs": [],
      "payable": false,
      "stateMutability": "nonpayable",
      "type": "function"
    },
    {
      "constant": false,
      "inputs": [],
      "name": "withdrawVested",
      "outputs": [],
      "payable": false,
      "stateMutability": "nonpayable",
      "type": "function"
    },
    {
      "constant": false,
      "inputs": [
        {
          "internalType": "address",
          "name": "recipient",
          "type": "address"
        },
        {
          "internalType": "uint256",
          "name": "amount",
          "type": "uint256"
        }
      ],
      "name": "transfer",
      "outputs": [
        {
          "internalType": "bool",
          "name": "",
          "type": "bool"
        }
      ],
      "payable": false,
      "stateMutability": "nonpayable",
      "type": "function"
    },
    {
      "constant": true,
      "inputs": [
        {
          "internalType": "address",
          "name": "account",
          "type": "address"
        },
        {
          "internalType": "uint256",
          "name": "snapshotId",
          "type": "uint256"
        }
      ],
      "name": "balanceOfAt",
      "outputs": [
        {
          "internalType": "uint256",
          "name": "",
          "type": "uint256"
        }
      ],
      "payable": false,
      "stateMutability": "view",
      "type": "function"
    },
    {
      "constant": true,
      "inputs": [
        {
          "internalType": "uint256",
          "name": "snapshotId",
          "type": "uint256"
        }
      ],
      "name": "totalSupplyAt",
      "outputs": [
        {
          "internalType": "uint256",
          "name": "",
          "type": "uint256"
        }
      ],
      "payable": false,
      "stateMutability": "view",
      "type": "function"
    }
  ],
  "bytecode": "0x608060405261327d806100136000396000f3fe608060405234801561001057600080fd5b50600436106101f05760003560e01c806370a082311161010f578063aa271e1a116100a2578063dd62ed3e11610071578063dd62ed3e146107c3578063e06174e4146107f1578063ea4d7573146107f9578063fa6799f214610831576101f0565b8063aa271e1a1461072d578063c4d66de814610753578063cb7abc5214610779578063d63055181461079d576101f0565b8063983b2d56116100de578063983b2d56146106a757806398650275146106cd578063a457c2d7146106d5578063a9059cbb14610701576101f0565b806370a082311461063057806379cc67901461065657806395d89b4114610682578063981b24d01461068a576101f0565b8063355274ea1161018757806342966c681161015657806342966c68146104e657806347786d37146105035780634ee2cd7e14610520578063561cf2ab1461054c576101f0565b8063355274ea1461046057806339509351146104685780633d4ef0071461049457806340c10f19146104ba576101f0565b80631624f6c6116101c35780631624f6c6146102c457806318160ddd146103f257806323b872dd1461040c578063313ce56714610442576101f0565b806306fdde03146101f5578063095ea7b3146102725780630ea0783c146102b2578063158ef93e146102bc575b600080fd5b6101fd61085d565b6040805160208082528351818301528351919283929083019185019080838360005b8381101561023757818101518382015260200161021f565b50505050905090810190601f1680156102645780820380516001836020036101000a031916815260200191505b509250505060405180910390f35b61029e6004803603604081101561028857600080fd5b506001600160a01b0381351690602001356108f4565b604080519115158252519081900360200190f35b6102ba610912565b005b61029e610b8b565b6102ba600480360360608110156102da57600080fd5b810190602081018135600160201b8111156102f457600080fd5b82018360208201111561030657600080fd5b803590602001918460018302840111600160201b8311171561032757600080fd5b91908080601f0160208091040260200160405190810160405280939291908181526020018383808284376000920191909152509295949360208101935035915050600160201b81111561037957600080fd5b82018360208201111561038b57600080fd5b803590602001918460018302840111600160201b831117156103ac57600080fd5b91908080601f0160208091040260200160405190810160405280939291908181526020018383808284376000920191909152509295505050903560ff169150610bc19050565b6103fa610c9d565b60408051918252519081900360200190f35b61029e6004803603606081101561042257600080fd5b506001600160a01b03813581169160208101359091169060400135610ca3565b61044a610d30565b6040805160ff9092168252519081900360200190f35b6103fa610d39565b61029e6004803603604081101561047e57600080fd5b506001600160a01b038135169060200135610d40565b6103fa600480360360208110156104aa57600080fd5b50356001600160a01b0316610d94565b61029e600480360360408110156104d057600080fd5b506001600160a01b038135169060200135610da7565b6102ba600480360360208110156104fc57600080fd5b5035611018565b6102ba6004803603602081101561051957600080fd5b503561102c565b6103fa6004803603604081101561053657600080fd5b506001600160a01b038135169060200135611299565b6102ba600480360360e081101561056257600080fd5b810190602081018135600160201b81111561057c57600080fd5b82018360208201111561058e57600080fd5b803590602001918460018302840111600160201b831117156105af57600080fd5b919390929091602081019035600160201b8111156105cc57600080fd5b8201836020820111156105de57600080fd5b803590602001918460018302840111600160201b831117156105ff57600080fd5b919350915060ff813516906020810135906040810135906001600160a01b03606082013581169160800135166112e3565b6103fa6004803603602081101561064657600080fd5b50356001600160a01b03166115a6565b6102ba6004803603604081101561066c57600080fd5b506001600160a01b0381351690602001356115c1565b6101fd6115cf565b6103fa600480360360208110156106a057600080fd5b5035611630565b6102ba600480360360208110156106bd57600080fd5b50356001600160a01b0316611661565b6102ba6116b5565b61029e600480360360408110156106eb57600080fd5b506001600160a01b0381351690602001356116c7565b61029e6004803603604081101561071757600080fd5b506001600160a01b038135169060200135611735565b61029e6004803603602081101561074357600080fd5b50356001600160a01b0316611764565b6102ba6004803603602081101561076957600080fd5b50356001600160a01b0316611777565b610781611822565b604080516001600160a01b039092168252519081900360200190f35b6103fa600480360360208110156107b357600080fd5b50356001600160a01b0316611832565b6103fa600480360360408110156107d957600080fd5b506001600160a01b0381358116916020013516611845565b610781611870565b6102ba6004803603608081101561080f57600080fd5b506001600160a01b0381351690602081013590604081013590606001356118a1565b6102ba6004803603604081101561084757600080fd5b506001600160a01b038135169060200135611d44565b60338054604080516020601f60026000196101006001881615020190951694909404938401819004810282018101909252828152606093909290918301828280156108e95780601f106108be576101008083540402835291602001916108e9565b820191906000526020600020905b8154815290600101906020018083116108cc57829003601f168201915b505050505090505b90565b6000610908610901612117565b848461211b565b5060015b92915050565b61091a611870565b6001600160a01b031663dc21a6a06040518163ffffffff1660e01b815260040160206040518083038186803b15801561095257600080fd5b505afa158015610966573d6000803e3d6000fd5b505050506040513d602081101561097c57600080fd5b5051610139546040805163d6d77ea160e01b81526001600160a01b0392831660048201529051919092169163d6d77ea1916024808301926020929190829003018186803b1580156109cc57600080fd5b505afa1580156109e0573d6000803e3d6000fd5b505050506040513d60208110156109f657600080fd5b505115610a3a576040805162461bcd60e51b815260206004820152600d60248201526c10551357d254d7d4105554d151609a1b604482015290519081900360640190fd5b610a42610b8b565b610a81576040805162461bcd60e51b815260206004820152601860248201526000805160206130dd833981519152604482015290519081900360640190fd5b33600090815261013c6020526040902054610ae3576040805162461bcd60e51b815260206004820152601b60248201527f4143434f554e545f444f45534e545f484156455f56455354494e470000000000604482015290519081900360640190fd5b6000610aef3342612207565b9050610afc3033836122b7565b610b04612415565b50610b0e3361246b565b610b173061246b565b33600090815261013c6020526040902054610b38908263ffffffff61249616565b33600081815261013c602090815260409182902093909355805191825291810183905281517f9fe9b7be9d151c7a8b6de49a1312ff27a15096d0d1d12999af85fe4310e0b125929181900390910190a150565b604080517f54496e697469616c697a61626c652e6973496e697469616c697a6564000000008152905190819003601c0190205490565b600054610100900460ff1680610bda5750610bda6124df565b80610be8575060005460ff16155b610c235760405162461bcd60e51b815260040180806020018281038252602e815260200180613168602e913960400191505060405180910390fd5b600054610100900460ff16158015610c4e576000805460ff1961ff0019909116610100171660011790555b8351610c61906033906020870190612f2e565b508251610c75906034906020860190612f2e565b506035805460ff191660ff84161790558015610c97576000805461ff00191690555b50505050565b606a5490565b6000610cb08484846122b7565b610d2684610cbc612117565b610d218560405180606001604052806028815260200161311e602891396001600160a01b038a16600090815260696020526040812090610cfa612117565b6001600160a01b03168152602081019190915260400160002054919063ffffffff6124e516565b61211b565b5060019392505050565b60355460ff1690565b6101345490565b6000610908610d4d612117565b84610d218560696000610d5e612117565b6001600160a01b03908116825260208083019390935260409182016000908120918c16815292529020549063ffffffff61257c16565b61013b6020526000908152604090205481565b6000610db1611870565b6001600160a01b031663c095ea27336040518263ffffffff1660e01b815260040180826001600160a01b03166001600160a01b0316815260200191505060006040518083038186803b158015610e0657600080fd5b505afa158015610e1a573d6000803e3d6000fd5b50505050610e26611870565b6001600160a01b031663dc21a6a06040518163ffffffff1660e01b815260040160206040518083038186803b158015610e5e57600080fd5b505afa158015610e72573d6000803e3d6000fd5b505050506040513d6020811015610e8857600080fd5b5051610139546040805163d6d77ea160e01b81526001600160a01b0392831660048201529051919092169163d6d77ea1916024808301926020929190829003018186803b158015610ed857600080fd5b505afa158015610eec573d6000803e3d6000fd5b505050506040513d6020811015610f0257600080fd5b505115610f46576040805162461bcd60e51b815260206004820152600d60248201526c10551357d254d7d4105554d151609a1b604482015290519081900360640190fd5b610f4e610b8b565b610f8d576040805162461bcd60e51b815260206004820152601860248201526000805160206130dd833981519152604482015290519081900360640190fd5b6001600160a01b038316610fe8576040805162461bcd60e51b815260206004820181905260248201527f4d494e545f544f5f5a45524f5f414444524553535f4e4f545f414c4c4f574544604482015290519081900360640190fd5b610ff4600084846125d6565b610ffe8383612652565b611006612415565b506110108361246b565b610908612744565b611029611023612117565b82612752565b50565b611034611870565b6001600160a01b031663c095ea27336040518263ffffffff1660e01b815260040180826001600160a01b03166001600160a01b0316815260200191505060006040518083038186803b15801561108957600080fd5b505afa15801561109d573d6000803e3d6000fd5b505050506110a9611870565b6001600160a01b031663dc21a6a06040518163ffffffff1660e01b815260040160206040518083038186803b1580156110e157600080fd5b505afa1580156110f5573d6000803e3d6000fd5b505050506040513d602081101561110b57600080fd5b5051610139546040805163d6d77ea160e01b81526001600160a01b0392831660048201529051919092169163d6d77ea1916024808301926020929190829003018186803b15801561115b57600080fd5b505afa15801561116f573d6000803e3d6000fd5b505050506040513d602081101561118557600080fd5b5051156111c9576040805162461bcd60e51b815260206004820152600d60248201526c10551357d254d7d4105554d151609a1b604482015290519081900360640190fd5b6111d1610b8b565b611210576040805162461bcd60e51b815260206004820152601860248201526000805160206130dd833981519152604482015290519081900360640190fd5b6000610134541161125d576040805162461bcd60e51b81526020600482015260126024820152714341505f43414e4e4f545f42455f5a45524f60701b604482015290519081900360640190fd5b6101348190556040805182815290517f0267233bc19189c84fa5f0d3dab0a85c595f5e903abaa2ef4cafe94cd22df1f09181900360200190a150565b6001600160a01b038216600090815261013d60205260408120819081906112c190859061284e565b91509150816112d8576112d3856115a6565b6112da565b805b95945050505050565b600054610100900460ff16806112fc57506112fc6124df565b8061130a575060005460ff16155b6113455760405162461bcd60e51b815260040180806020018281038252602e815260200180613168602e913960400191505060405180910390fd5b600054610100900460ff16158015611370576000805460ff1961ff0019909116610100171660011790555b611378610b8b565b156113ca576040805162461bcd60e51b815260206004820152601c60248201527f434f4e54524143545f414c52454144595f494e495449414c495a454400000000604482015290519081900360640190fd5b60008511611414576040805162461bcd60e51b81526020600482015260126024820152714341505f43414e4e4f545f42455f5a45524f60701b604482015290519081900360640190fd5b611426826001600160a01b03166128a4565b611477576040805162461bcd60e51b815260206004820152601a60248201527f41544d5f43414e4e4f545f42455f5a45524f5f41444452455353000000000000604482015290519081900360640190fd5b611489836001600160a01b03166128a4565b6114da576040805162461bcd60e51b815260206004820152601d60248201527f53455454494e47535f53484f554c445f42455f415f434f4e5452414354000000604482015290519081900360640190fd5b61154f8a8a8080601f01602080910402602001604051908101604052809392919081815260200183838082843760009201919091525050604080516020601f8e018190048102820181019092528c815292508c91508b90819084018382808284376000920191909152508b9250610bc1915050565b6115576128dd565b61013485905561013584905561013980546001600160a01b0319166001600160a01b03841617905561158883612915565b801561159a576000805461ff00191690555b50505050505050505050565b6001600160a01b031660009081526068602052604090205490565b6115cb82826129ce565b5050565b60348054604080516020601f60026000196101006001881615020190951694909404938401819004810282018101909252828152606093909290918301828280156108e95780601f106108be576101008083540402835291602001916108e9565b60008060006116418461013661284e565b915091508161165757611652610c9d565b611659565b805b949350505050565b61167161166c612117565b611764565b6116ac5760405162461bcd60e51b815260040180806020018281038252603081526020018061308c6030913960400191505060405180910390fd5b61102981612a22565b6116c56116c0612117565b612a6a565b565b60006109086116d4612117565b84610d218560405180606001604052806025815260200161322460259139606960006116fe612117565b6001600160a01b03908116825260208083019390935260409182016000908120918d1681529252902054919063ffffffff6124e516565b600061173f612415565b506117493361246b565b6117528361246b565b61090861175d612117565b84846122b7565b600061090c609d8363ffffffff612ab216565b600054610100900460ff168061179057506117906124df565b8061179e575060005460ff16155b6117d95760405162461bcd60e51b815260040180806020018281038252602e815260200180613168602e913960400191505060405180910390fd5b600054610100900460ff16158015611804576000805460ff1961ff0019909116610100171660011790555b61180d82612b19565b80156115cb576000805461ff00191690555050565b610139546001600160a01b031681565b61013c6020526000908152604090205481565b6001600160a01b03918216600090815260696020908152604080832093909416825291909152205490565b6040805177426173655570677261646561626c652e73657474696e677360401b815290519081900360180190205490565b6118a9611870565b6001600160a01b031663c095ea27336040518263ffffffff1660e01b815260040180826001600160a01b03166001600160a01b0316815260200191505060006040518083038186803b1580156118fe57600080fd5b505afa158015611912573d6000803e3d6000fd5b5050505061191e611870565b6001600160a01b031663dc21a6a06040518163ffffffff1660e01b815260040160206040518083038186803b15801561195657600080fd5b505afa15801561196a573d6000803e3d6000fd5b505050506040513d602081101561198057600080fd5b5051610139546040805163d6d77ea160e01b81526001600160a01b0392831660048201529051919092169163d6d77ea1916024808301926020929190829003018186803b1580156119d057600080fd5b505afa1580156119e4573d6000803e3d6000fd5b505050506040513d60208110156119fa57600080fd5b505115611a3e576040805162461bcd60e51b815260206004820152600d60248201526c10551357d254d7d4105554d151609a1b604482015290519081900360640190fd5b611a46610b8b565b611a85576040805162461bcd60e51b815260206004820152601860248201526000805160206130dd833981519152604482015290519081900360640190fd5b6001600160a01b038416611ae0576040805162461bcd60e51b815260206004820181905260248201527f4d494e545f544f5f5a45524f5f414444524553535f4e4f545f414c4c4f574544604482015290519081900360640190fd5b610135546001600160a01b038516600090815261013b602052604090205410611b47576040805162461bcd60e51b815260206004820152601460248201527313505617d59154d5125391d4d7d4915050d2115160621b604482015290519081900360640190fd5b80611b92576040805162461bcd60e51b815260206004820152601660248201527556455354494e475f43414e4e4f545f42455f5a45524f60501b604482015290519081900360640190fd5b611b9e600085856125d6565b6001600160a01b038416600090815261013b6020526040902054611bc990600163ffffffff61257c16565b6001600160a01b038516600090815261013b60205260409020819055611bed612fac565b6040518060a00160405280876001600160a01b03168152602001868152602001428152602001611c26864261257c90919063ffffffff16565b8152602001611c3b428663ffffffff61257c16565b90529050611c493086612652565b611c51612415565b50611c5b3061246b565b611c63612744565b6001600160a01b038616600090815261013c6020526040902054611c8d908663ffffffff61257c16565b6001600160a01b03878116600081815261013c602090815260408083209590955561013a8152848220878352815290849020855181546001600160a01b0319169416939093178355848101516001840155848401516002840155606080860151600385015560808601516004909401939093558351918252810188905280830186905291517f627ad26dcfe82ec79b33fda0ddd062f6fab9f4914acac8345f79090dfd86fb549281900390910190a1505050505050565b611d4c611870565b6001600160a01b031663c095ea27336040518263ffffffff1660e01b815260040180826001600160a01b03166001600160a01b0316815260200191505060006040518083038186803b158015611da157600080fd5b505afa158015611db5573d6000803e3d6000fd5b50505050611dc1611870565b6001600160a01b031663dc21a6a06040518163ffffffff1660e01b815260040160206040518083038186803b158015611df957600080fd5b505afa158015611e0d573d6000803e3d6000fd5b505050506040513d6020811015611e2357600080fd5b5051610139546040805163d6d77ea160e01b81526001600160a01b0392831660048201529051919092169163d6d77ea1916024808301926020929190829003018186803b158015611e7357600080fd5b505afa158015611e87573d6000803e3d6000fd5b505050506040513d6020811015611e9d57600080fd5b505115611ee1576040805162461bcd60e51b815260206004820152600d60248201526c10551357d254d7d4105554d151609a1b604482015290519081900360640190fd5b611ee9610b8b565b611f28576040805162461bcd60e51b815260206004820152601860248201526000805160206130dd833981519152604482015290519081900360640190fd5b6001600160a01b038216600090815261013c6020526040902054611f93576040805162461bcd60e51b815260206004820152601b60248201527f4143434f554e545f444f45534e545f484156455f56455354494e470000000000604482015290519081900360640190fd5b611f9b612fac565b506001600160a01b03808316600090815261013a602090815260408083208584528252808320815160a08101835281549095168552600181015492850183905260028101549185018290526003810154606086018190526004909101546080860181905261200d939242929091612bbc565b6001600160a01b038516600090815261013c602052604090205490915061203a908263ffffffff61249616565b6001600160a01b038516600090815261013c602052604090205561205e3082612752565b612066612415565b506120703061246b565b612078612744565b6080820151604080516001600160a01b03871681526020810184905280820192909252517fafc516b1509f836efdc27d64d966d14f82ef53f456f0de74c12ac8a651a084cc9181900360600190a150506001600160a01b03909116600090815261013a6020908152604080832093835292905290812080546001600160a01b031916815560018101829055600281018290556003810182905560040155565b3390565b6001600160a01b0383166121605760405162461bcd60e51b81526004018080602001828103825260248152602001806132006024913960400191505060405180910390fd5b6001600160a01b0382166121a55760405162461bcd60e51b81526004018080602001828103825260228152602001806130446022913960400191505060405180910390fd5b6001600160a01b03808416600081815260696020908152604080832094871680845294825291829020859055815185815291517f8c5be1e5ebec7d5bd14f71427d1e84f3dd0314c0f7b2291e5b200ac8c7c3b9259281900390910190a3505050565b6001600160a01b038216600090815261013b602090815260408083205461013c90925282205482805b83811015612299576001600160a01b038716600090815261013a602090815260408083208484529091529020600181015460028201546003830154600484015461228e936122819390928c92612bbc565b849063ffffffff61257c16565b925050600101612230565b5060006122ac838363ffffffff61249616565b979650505050505050565b6001600160a01b0383166122fc5760405162461bcd60e51b81526004018080602001828103825260258152602001806131db6025913960400191505060405180910390fd5b6001600160a01b0382166123415760405162461bcd60e51b8152600401808060200182810382526023815260200180612fff6023913960400191505060405180910390fd5b61238481604051806060016040528060268152602001613066602691396001600160a01b038616600090815260686020526040902054919063ffffffff6124e516565b6001600160a01b0380851660009081526068602052604080822093909355908416815220546123b9908263ffffffff61257c16565b6001600160a01b0380841660008181526068602090815260409182902094909455805185815290519193928716927fddf252ad1be2c89b69c2b068fc378daa952ba7f163c4a11628f55a4df523b3ef92918290030190a3505050565b6101385460009061242d90600163ffffffff61257c16565b6101388190556040805182815290517f8030e83b04d87bef53480e26263266d6ca66863aa8506aca6f2559d18aa1cb679181900360200190a1905090565b6001600160a01b038116600090815261013d6020526040902061102990612491836115a6565b612c40565b60006124d883836040518060400160405280601e81526020017f536166654d6174683a207375627472616374696f6e206f766572666c6f7700008152506124e5565b9392505050565b303b1590565b600081848411156125745760405162461bcd60e51b81526004018080602001828103825283818151815260200191508051906020019080838360005b83811015612539578181015183820152602001612521565b50505050905090810190601f1680156125665780820380516001836020036101000a031916815260200191505b509250505060405180910390fd5b505050900390565b6000828201838110156124d8576040805162461bcd60e51b815260206004820152601b60248201527f536166654d6174683a206164646974696f6e206f766572666c6f770000000000604482015290519081900360640190fd5b6001600160a01b038316158015612607575061013454612604826125f8610c9d565b9063ffffffff61257c16565b11155b61264d576040805162461bcd60e51b8152602060048201526012602482015271115490cc8c17d0d05417d15610d15151115160721b604482015290519081900360640190fd5b505050565b6001600160a01b0382166126ad576040805162461bcd60e51b815260206004820152601f60248201527f45524332303a206d696e7420746f20746865207a65726f206164647265737300604482015290519081900360640190fd5b606a546126c0908263ffffffff61257c16565b606a556001600160a01b0382166000908152606860205260409020546126ec908263ffffffff61257c16565b6001600160a01b03831660008181526068602090815260408083209490945583518581529351929391927fddf252ad1be2c89b69c2b068fc378daa952ba7f163c4a11628f55a4df523b3ef9281900390910190a35050565b6116c5610136612491610c9d565b6001600160a01b0382166127975760405162461bcd60e51b81526004018080602001828103825260218152602001806131ba6021913960400191505060405180910390fd5b6127da81604051806060016040528060228152602001613022602291396001600160a01b038516600090815260686020526040902054919063ffffffff6124e516565b6001600160a01b038316600090815260686020526040902055606a54612806908263ffffffff61249616565b606a556040805182815290516000916001600160a01b038516917fddf252ad1be2c89b69c2b068fc378daa952ba7f163c4a11628f55a4df523b3ef9181900360200190a35050565b60008080612862848663ffffffff612c7216565b845490915081141561287b57506000915081905061289d565b600184600101828154811061288c57fe5b906000526020600020015492509250505b9250929050565b6000813f7fc5d2460186f7233c927e7db2dcc703c0e500b653ca82273b7bfad8045d85a470818114801590611659575050151592915050565b604080517f54496e697469616c697a61626c652e6973496e697469616c697a6564000000008152905190819003601c01902060019055565b61292e612920611870565b6001600160a01b0316612d13565b1561293857611029565b61294a816001600160a01b03166128a4565b61299b576040805162461bcd60e51b815260206004820152601b60248201527f53455454494e47535f4d5553545f42455f415f434f4e54524143540000000000604482015290519081900360640190fd5b6040805177426173655570677261646561626c652e73657474696e677360401b8152905190819003601801902081905550565b6129d88282612752565b6115cb826129e4612117565b610d2184604051806060016040528060248152602001613196602491396001600160a01b038816600090815260696020526040812090610cfa612117565b612a33609d8263ffffffff612d2116565b6040516001600160a01b038216907f6ae172837ea30b801fbfcdd4108aa1d5bf8ff775444fd70256b44e6bf3dfc3f690600090a250565b612a7b609d8263ffffffff612da216565b6040516001600160a01b038216907fe94479a9f7e1952cc78f2d6baab678adc1b772d936c6583def489e524cb6669290600090a250565b60006001600160a01b038216612af95760405162461bcd60e51b81526004018080602001828103825260228152602001806131466022913960400191505060405180910390fd5b506001600160a01b03166000908152602091909152604090205460ff1690565b600054610100900460ff1680612b325750612b326124df565b80612b40575060005460ff16155b612b7b5760405162461bcd60e51b815260040180806020018281038252602e815260200180613168602e913960400191505060405180910390fd5b600054610100900460ff16158015612ba6576000805460ff1961ff0019909116610100171660011790555b612baf82611764565b61180d5761180d82612a22565b6000818510612bcd575060006112da565b82851015612bdc5750846112da565b6000612bfe612bf1878763ffffffff61249616565b889063ffffffff612e0916565b90506000612c22612c15858863ffffffff61249616565b839063ffffffff612e6216565b9050612c34888263ffffffff61249616565b98975050505050505050565b610138548254600181810185556000858152602080822090930193909355938401805494850181558252902090910155565b8154600090612c835750600061090c565b82546000905b80821015612cd2576000612c9d8383612ea4565b905084868281548110612cac57fe5b90600052602060002001541115612cc557809150612ccc565b8060010192505b50612c89565b600082118015612cfa575083856001840381548110612ced57fe5b9060005260206000200154145b15612d0b575060001901905061090c565b50905061090c565b6001600160a01b0316151590565b612d2b8282612ab2565b15612d7d576040805162461bcd60e51b815260206004820152601f60248201527f526f6c65733a206163636f756e7420616c72656164792068617320726f6c6500604482015290519081900360640190fd5b6001600160a01b0316600090815260209190915260409020805460ff19166001179055565b612dac8282612ab2565b612de75760405162461bcd60e51b81526004018080602001828103825260218152602001806130bc6021913960400191505060405180910390fd5b6001600160a01b0316600090815260209190915260409020805460ff19169055565b600082612e185750600061090c565b82820282848281612e2557fe5b04146124d85760405162461bcd60e51b81526004018080602001828103825260218152602001806130fd6021913960400191505060405180910390fd5b60006124d883836040518060400160405280601a81526020017f536166654d6174683a206469766973696f6e206279207a65726f000000000000815250612ec9565b60006002808306600285060181612eb757fe5b04600283046002850401019392505050565b60008183612f185760405162461bcd60e51b8152602060048201818152835160248401528351909283926044909101919085019080838360008315612539578181015183820152602001612521565b506000838581612f2457fe5b0495945050505050565b828054600181600116156101000203166002900490600052602060002090601f016020900481019282601f10612f6f57805160ff1916838001178555612f9c565b82800160010185558215612f9c579182015b82811115612f9c578251825591602001919060010190612f81565b50612fa8929150612fe4565b5090565b6040518060a0016040528060006001600160a01b03168152602001600081526020016000815260200160008152602001600081525090565b6108f191905b80821115612fa85760008155600101612fea56fe45524332303a207472616e7366657220746f20746865207a65726f206164647265737345524332303a206275726e20616d6f756e7420657863656564732062616c616e636545524332303a20617070726f766520746f20746865207a65726f206164647265737345524332303a207472616e7366657220616d6f756e7420657863656564732062616c616e63654d696e746572526f6c653a2063616c6c657220646f6573206e6f74206861766520746865204d696e74657220726f6c65526f6c65733a206163636f756e7420646f6573206e6f74206861766520726f6c65434f4e54524143545f4e4f545f494e495449414c495a45440000000000000000536166654d6174683a206d756c7469706c69636174696f6e206f766572666c6f7745524332303a207472616e7366657220616d6f756e74206578636565647320616c6c6f77616e6365526f6c65733a206163636f756e7420697320746865207a65726f2061646472657373436f6e747261637420696e7374616e63652068617320616c7265616479206265656e20696e697469616c697a656445524332303a206275726e20616d6f756e74206578636565647320616c6c6f77616e636545524332303a206275726e2066726f6d20746865207a65726f206164647265737345524332303a207472616e736665722066726f6d20746865207a65726f206164647265737345524332303a20617070726f76652066726f6d20746865207a65726f206164647265737345524332303a2064656372656173656420616c6c6f77616e63652062656c6f77207a65726fa265627a7a7231582063013f35f7442f39457e5872b9776bb162088861d5b550800e86348165765add64736f6c63430005110032",
  "source": "pragma solidity 0.5.17;\n\n/* Import */\n\nimport \"@openzeppelin/contracts-ethereum-package/contracts/token/ERC20/ERC20Detailed.sol\";\nimport \"@openzeppelin/contracts-ethereum-package/contracts/token/ERC20/ERC20Mintable.sol\";\nimport \"@openzeppelin/contracts-ethereum-package/contracts/token/ERC20/ERC20Burnable.sol\";\nimport \"@openzeppelin/contracts-ethereum-package/contracts/utils/Arrays.sol\";\nimport \"./TLRTokenInterface.sol\";\n\nimport \"../base/TInitializable.sol\";\nimport \"../base/BaseUpgradeable.sol\";\n\n/*****************************************************************************************************/\n/**                                             WARNING                                             **/\n/**                                  THIS CONTRACT IS UPGRADEABLE!                                  **/\n/**  ---------------------------------------------------------------------------------------------  **/\n/**  Do NOT change the order of or PREPEND any storage variables to this or new versions of this    **/\n/**  contract as this will cause the the storage slots to be overwritten on the proxy contract!!    **/\n/**                                                                                                 **/\n/**  Visit https://docs.openzeppelin.com/upgrades/2.6/proxies#upgrading-via-the-proxy-pattern for   **/\n/**  more information.                                                                              **/\n/*****************************************************************************************************/\n/**\n *  @title TLR Token for the Teller Platform\n *\n *  @author develop@teller.finance\n */\n\ncontract TLRToken is\n    TLRTokenInterface,\n    ERC20Detailed,\n    ERC20Mintable,\n    ERC20Burnable,\n    TInitializable,\n    BaseUpgradeable\n{\n    /**\n     *  @notice TLRToken implements an ERC20 token with a supply cap and a vesting scheduling\n     */\n    using SafeMath for uint256;\n    using Arrays for uint256[];\n    using Address for address;\n\n    /* Modifiers */\n\n    /**\n        @notice Checks if the platform is paused or not\n        @dev Throws an error is the Teller platform is paused\n     */\n    modifier whenNotPaused() {\n        require(!settings().atmSettings().isATMPaused(atmAddress), \"ATM_IS_PAUSED\");\n        _;\n    }\n\n    /* State Variables */\n    uint256 private _cap;\n    uint256 private _maxVestingPerWallet;\n    Snapshots private _totalSupplySnapshots;\n    uint256 private _currentSnapshotId;\n    address public atmAddress;\n\n    /* Structs */\n    struct VestingTokens {\n        address account;\n        uint256 amount;\n        uint256 start;\n        uint256 cliff;\n        uint256 deadline;\n    }\n\n    struct Snapshots {\n        uint256[] ids;\n        uint256[] values;\n    }\n\n    /* Mappings */\n    mapping(address => mapping(uint256 => VestingTokens)) private _vestingBalances; // Mapping user address to vesting id, which in turn is mapped to the VestingTokens struct\n    mapping(address => uint256) public vestingCount;\n    mapping(address => uint256) public assignedTokens;\n    mapping(address => Snapshots) private _accountBalanceSnapshots;\n\n    /* Functions */\n\n    /**\n        @notice It initializes this token instance.\n        @param name The name of the token\n        @param symbol The symbol of the token\n        @param decimals The amount of decimals for token\n        @param cap The maximum number of tokens available\n        @param maxVestingPerWallet The maximum number of times a wallet can mint their vesting\n        @param settingsAddress The ATMSettings address\n        @param atm The ATMGovernance address for this token\n     */\n    function initialize(\n        string calldata name,\n        string calldata symbol,\n        uint8 decimals,\n        uint256 cap,\n        uint256 maxVestingPerWallet,\n        address settingsAddress,\n        address atm\n    ) external initializer() isNotInitialized() {\n        require(cap > 0, \"CAP_CANNOT_BE_ZERO\");\n        require(atm.isContract(), \"ATM_CANNOT_BE_ZERO_ADDRESS\");\n        require(settingsAddress.isContract(), \"SETTINGS_SHOULD_BE_A_CONTRACT\");\n        super.initialize(name, symbol, decimals);\n        TInitializable._initialize();\n        _cap = cap;\n        _maxVestingPerWallet = maxVestingPerWallet;\n        atmAddress = atm;\n        _setSettings(settingsAddress);\n    }\n\n    /**\n     * @notice Returns the cap on the token's total supply\n     * @return The supply capped amount\n     */\n    function cap() external view returns (uint256) {\n        return _cap;\n    }\n\n    /**\n     * @notice Sets a new cap on the token's total supply.\n     * @param newCap The new capped amount of tokens\n     */\n    function setCap(uint256 newCap)\n        external\n        onlyPauser()\n        whenNotPaused()\n        isInitialized()\n    {\n        require(_cap > 0, \"CAP_CANNOT_BE_ZERO\");\n        _cap = newCap;\n        emit NewCap(_cap);\n    }\n\n    /**\n     * @notice Increase account supply of specified token amount\n     * @param account The account to mint tokens for\n     * @param amount The amount of tokens to mint\n     * @return true if successful\n     */\n    function mint(address account, uint256 amount)\n        public\n        onlyPauser()\n        whenNotPaused()\n        isInitialized()\n        returns (bool)\n    {\n        require(account != address(0x0), \"MINT_TO_ZERO_ADDRESS_NOT_ALLOWED\");\n        _beforeTokenTransfer(address(0x0), account, amount);\n        _mint(account, amount);\n        _snapshot();\n        _updateAccountSnapshot(account);\n        _updateTotalSupplySnapshot();\n        return true;\n    }\n\n    /** @notice Creates `amount` tokens and assigns them to `account`, increasing\n     * the total supply.\n     *\n     * Includes a vesting period before address is allowed to use tokens\n     *\n     * Emits a {Transfer} event with `from` set to the zero address.\n     *\n     * Requirements\n     *\n     * - `to` cannot be the zero address.\n     *\n     * @param account The account which tokens will be assigned to\n     * @param amount The amount of tokens to be assigned\n     * @param cliff The length of time (in seconds) after which the tokens will start vesting\n     * @param vestingTime The length of the vesting period (in seconds)\n     */\n    function mintVesting(\n        address account,\n        uint256 amount,\n        uint256 cliff,\n        uint256 vestingTime\n    ) public onlyPauser() whenNotPaused() isInitialized() {\n        require(account != address(0x0), \"MINT_TO_ZERO_ADDRESS_NOT_ALLOWED\");\n        require(vestingCount[account] < _maxVestingPerWallet, \"MAX_VESTINGS_REACHED\");\n        require(vestingTime != 0, \"VESTING_CANNOT_BE_ZERO\");\n        _beforeTokenTransfer(address(0x0), account, amount);\n        vestingCount[account] = vestingCount[account].add(1);\n        uint256 vestingId = vestingCount[account];\n        VestingTokens memory vestingTokens = VestingTokens(\n            account,\n            amount,\n            block.timestamp,\n            block.timestamp.add(cliff),\n            block.timestamp.add(vestingTime)\n        );\n        _mint(address(this), amount);\n        _snapshot();\n        _updateAccountSnapshot(address(this));\n        _updateTotalSupplySnapshot();\n        assignedTokens[account] = assignedTokens[account].add(amount);\n        _vestingBalances[account][vestingId] = vestingTokens;\n        emit NewVesting(account, amount, vestingTime);\n    }\n\n    /**\n     * @notice Revokes the amount vested to an account\n     * @param account The account for which vesting is to be revoked\n     * @param vestingId The Id of the vesting being revoked\n     *\n     */\n    function revokeVesting(address account, uint256 vestingId)\n        public\n        onlyPauser()\n        whenNotPaused()\n        isInitialized()\n    {\n        require(assignedTokens[account] > 0, \"ACCOUNT_DOESNT_HAVE_VESTING\");\n        VestingTokens memory vestingTokens = _vestingBalances[account][vestingId];\n\n        uint256 unvestedTokens = _returnUnvestedTokens(\n            vestingTokens.amount,\n            block.timestamp,\n            vestingTokens.start,\n            vestingTokens.cliff,\n            vestingTokens.deadline\n        );\n        assignedTokens[account] = assignedTokens[account].sub(unvestedTokens);\n        _burn(address(this), unvestedTokens);\n        _snapshot();\n        _updateAccountSnapshot(address(this));\n        _updateTotalSupplySnapshot();\n        emit RevokeVesting(account, unvestedTokens, vestingTokens.deadline);\n        delete _vestingBalances[account][vestingId];\n    }\n\n    /**\n     *  @notice Withdrawal of tokens upon completion of vesting period\n     *\n     */\n    function withdrawVested() public whenNotPaused() isInitialized() {\n        require(assignedTokens[msg.sender] > 0, \"ACCOUNT_DOESNT_HAVE_VESTING\");\n\n        uint256 transferableTokens = _transferableTokens(msg.sender, block.timestamp);\n        _transfer(address(this), msg.sender, transferableTokens);\n        _snapshot();\n        _updateAccountSnapshot(msg.sender);\n        _updateAccountSnapshot(address(this));\n        assignedTokens[msg.sender] = assignedTokens[msg.sender].sub(transferableTokens);\n        emit VestingClaimed(msg.sender, transferableTokens);\n    }\n\n    /**\n     * @dev See {IERC20-transfer}.\n     * @param recipient The address of the account receiving the tokens\n     * @param amount The amount to send\n     * Requirements:\n     *\n     * - `recipient` cannot be the zero address.\n     * - the caller must have a balance of at least `amount`.\n     */\n    function transfer(address recipient, uint256 amount) public returns (bool) {\n        _snapshot();\n        _updateAccountSnapshot(msg.sender);\n        _updateAccountSnapshot(recipient);\n        _transfer(_msgSender(), recipient, amount);\n        return true;\n    }\n\n    /**\n     * @notice See {ERC20-_beforeTokenTransfer}.\n     * @param from The address from which tokens are being transfered/minted\n     * @param , Placeholder for to address\n     * @param amount The amount of tokens being transfered\n     * Requirements:\n     *\n     * - minted tokens must not cause the total supply to go over the cap.\n     */\n    function _beforeTokenTransfer(\n        address from,\n        address,\n        uint256 amount\n    ) internal view {\n        require(\n            from == address(0) && totalSupply().add(amount) <= _cap,\n            \"ERC20_CAP_EXCEEDED\"\n        ); // When minting tokens\n    }\n\n    /**\n     * @notice Checks the balance of an assigned vesting that is eligible for withdrawal\n     * @param _account The account for which the vesting is being queried\n     * @param _time The\n     * @return The amount of tokens eligible for withdrawal\n     */\n    function _transferableTokens(address _account, uint256 _time)\n        internal\n        view\n        returns (uint256)\n    {\n        uint256 totalVesting = vestingCount[_account];\n        uint256 totalAssigned = assignedTokens[_account];\n        uint256 nonTransferable = 0;\n        for (uint256 i = 0; i < totalVesting; i++) {\n            VestingTokens storage vestingTokens = _vestingBalances[_account][i];\n            nonTransferable = nonTransferable.add(\n                _returnUnvestedTokens(\n                    vestingTokens.amount,\n                    _time,\n                    vestingTokens.start,\n                    vestingTokens.cliff,\n                    vestingTokens.deadline\n                )\n            );\n        }\n        uint256 transferable = totalAssigned.sub(nonTransferable);\n        return transferable;\n    }\n\n    /**\n     * @notice Returns the amount of unvested tokens at a given time\n     * @param amount The total number of vested tokens\n     * @param time The time at which vested is being checked\n     * @param start The starting time of the vesting\n     * @param cliff The cliff period\n     * @param deadline The time when vesting is complete\n     * @return The amount of unvested tokens\n     */\n    function _returnUnvestedTokens(\n        uint256 amount,\n        uint256 time,\n        uint256 start,\n        uint256 cliff,\n        uint256 deadline\n    ) internal pure returns (uint256) {\n        if (time >= deadline) {\n            return 0;\n        } else if (time < cliff) {\n            return amount;\n        } else {\n            uint256 tokens = amount.mul(time.sub(start));\n            uint256 eligibleTokens = tokens.div(deadline.sub(start));\n            return amount.sub(eligibleTokens);\n        }\n    }\n\n    /**\n        @notice Creates a new snapshot and returns its snapshot id\n        @return The id of the snapshot created\n     */\n    function _snapshot() internal returns (uint256) {\n        _currentSnapshotId = _currentSnapshotId.add(1);\n        uint256 currentId = _currentSnapshotId;\n        emit Snapshot(currentId);\n        return currentId;\n    }\n\n    /**\n        @notice Returns the balance of an account at the time a snapshot was created\n        @param account The account which is being queried\n        @param snapshotId The id of the snapshot being queried\n     */\n    function balanceOfAt(address account, uint256 snapshotId)\n        external\n        view\n        returns (uint256)\n    {\n        (bool snapshotted, uint256 value) = _valueAt(\n            snapshotId,\n            _accountBalanceSnapshots[account]\n        );\n\n        return snapshotted ? value : balanceOf(account);\n    }\n\n    /**\n        @notice Returns the total supply at the time a snapshot was created\n        @param snapshotId The id of the snapshot being queried\n     */\n    function totalSupplyAt(uint256 snapshotId) external view returns (uint256) {\n        (bool snapshotted, uint256 value) = _valueAt(snapshotId, _totalSupplySnapshots);\n\n        return snapshotted ? value : totalSupply();\n    }\n\n    /**\n        @notice Returns the element from the id array with the index of the smallest value that is larger if not found, unless it doesn't exist\n        @param snapshotId The id of the snapshot being createc\n        @param snapshots The struct of the snapshots being queried\n     */\n    function _valueAt(uint256 snapshotId, Snapshots storage snapshots)\n        private\n        view\n        returns (bool, uint256)\n    {\n        uint256 index = snapshots.ids.findUpperBound(snapshotId);\n\n        if (index == snapshots.ids.length) {\n            return (false, 0);\n        } else {\n            return (true, snapshots.values[index]);\n        }\n    }\n\n    /**\n        @notice Creates a snapshot of a given account\n        @param account The account for which the snapshot is being created\n     */\n    function _updateAccountSnapshot(address account) private {\n        _updateSnapshot(_accountBalanceSnapshots[account], balanceOf(account));\n    }\n\n    /**\n        @notice Creates a snapshot of the total supply of tokens\n     */\n    function _updateTotalSupplySnapshot() private {\n        _updateSnapshot(_totalSupplySnapshots, totalSupply());\n    }\n\n    /**\n        @notice Updates the given snapshot struct with the latest snapshot\n        @param snapshots The snapshot struct being updated\n        @param currentValue The current value at the time of snapshot creation\n     */\n    function _updateSnapshot(Snapshots storage snapshots, uint256 currentValue) private {\n        uint256 currentId = _currentSnapshotId;\n        snapshots.ids.push(currentId);\n        snapshots.values.push(currentValue);\n    }\n}\n",
  "sourcePath": "/Users/sy/Documents/GitHub/teller-protocol-v1/contracts/atm/TLRToken.sol",
  "compiler": {
    "name": "solc",
    "version": "0.5.17+commit.d19bba13.Emscripten.clang"
  },
  "schemaVersion": "3.0.23",
  "updatedAt": "2020-09-15T23:09:49.648Z",
  "devdoc": {
    "author": "develop@teller.finance",
    "methods": {
      "allowance(address,address)": {
        "details": "See {IERC20-allowance}."
      },
      "approve(address,uint256)": {
        "details": "See {IERC20-approve}.     * Requirements:     * - `spender` cannot be the zero address."
      },
      "balanceOf(address)": {
        "details": "See {IERC20-balanceOf}."
      },
      "balanceOfAt(address,uint256)": {
        "params": {
          "account": "The account which is being queried",
          "snapshotId": "The id of the snapshot being queried"
        }
      },
      "burn(uint256)": {
        "details": "Destroys `amount` tokens from the caller.     * See {ERC20-_burn}."
      },
      "burnFrom(address,uint256)": {
        "details": "See {ERC20-_burnFrom}."
      },
      "cap()": {
        "return": "The supply capped amount"
      },
      "decimals()": {
        "details": "Returns the number of decimals used to get its user representation. For example, if `decimals` equals `2`, a balance of `505` tokens should be displayed to a user as `5,05` (`505 / 10 ** 2`).     * Tokens usually opt for a value of 18, imitating the relationship between Ether and Wei.     * NOTE: This information is only used for _display_ purposes: it in no way affects any of the arithmetic of the contract, including {IERC20-balanceOf} and {IERC20-transfer}."
      },
      "decreaseAllowance(address,uint256)": {
        "details": "Atomically decreases the allowance granted to `spender` by the caller.     * This is an alternative to {approve} that can be used as a mitigation for problems described in {IERC20-approve}.     * Emits an {Approval} event indicating the updated allowance.     * Requirements:     * - `spender` cannot be the zero address. - `spender` must have allowance for the caller of at least `subtractedValue`."
      },
      "increaseAllowance(address,uint256)": {
        "details": "Atomically increases the allowance granted to `spender` by the caller.     * This is an alternative to {approve} that can be used as a mitigation for problems described in {IERC20-approve}.     * Emits an {Approval} event indicating the updated allowance.     * Requirements:     * - `spender` cannot be the zero address."
      },
      "initialize(string,string,uint8)": {
        "details": "Sets the values for `name`, `symbol`, and `decimals`. All three of these values are immutable: they can only be set once during construction."
      },
      "initialize(string,string,uint8,uint256,uint256,address,address)": {
        "params": {
          "atm": "The ATMGovernance address for this token",
          "cap": "The maximum number of tokens available",
          "decimals": "The amount of decimals for token",
          "maxVestingPerWallet": "The maximum number of times a wallet can mint their vesting",
          "name": "The name of the token",
          "settingsAddress": "The ATMSettings address",
          "symbol": "The symbol of the token"
        }
      },
      "initialized()": {
        "return": "true if contract is initialized. Otherwise it returns false."
      },
      "mint(address,uint256)": {
        "params": {
          "account": "The account to mint tokens for",
          "amount": "The amount of tokens to mint"
        },
        "return": "true if successful"
      },
      "mintVesting(address,uint256,uint256,uint256)": {
        "params": {
          "account": "The account which tokens will be assigned to",
          "amount": "The amount of tokens to be assigned",
          "cliff": "The length of time (in seconds) after which the tokens will start vesting",
          "vestingTime": "The length of the vesting period (in seconds)"
        }
      },
      "name()": {
        "details": "Returns the name of the token."
      },
      "revokeVesting(address,uint256)": {
        "params": {
          "account": "The account for which vesting is to be revoked",
          "vestingId": "The Id of the vesting being revoked     "
        }
      },
      "setCap(uint256)": {
        "params": {
          "newCap": "The new capped amount of tokens"
        }
      },
      "settings()": {
        "details": "This address should NOT change over the time. See details in the _setSettings(...) function."
      },
      "symbol()": {
        "details": "Returns the symbol of the token, usually a shorter version of the name."
      },
      "totalSupply()": {
        "details": "See {IERC20-totalSupply}."
      },
      "totalSupplyAt(uint256)": {
        "params": {
          "snapshotId": "The id of the snapshot being queried"
        }
      },
      "transfer(address,uint256)": {
        "details": "See {IERC20-transfer}.",
        "params": {
          "amount": "The amount to send Requirements:     * - `recipient` cannot be the zero address. - the caller must have a balance of at least `amount`.",
          "recipient": "The address of the account receiving the tokens"
        }
      },
      "transferFrom(address,address,uint256)": {
        "details": "See {IERC20-transferFrom}.     * Emits an {Approval} event indicating the updated allowance. This is not required by the EIP. See the note at the beginning of {ERC20};     * Requirements: - `sender` and `recipient` cannot be the zero address. - `sender` must have a balance of at least `amount`. - the caller must have allowance for `sender`'s tokens of at least `amount`."
      }
    },
    "title": "TLR Token for the Teller Platform"
  },
  "userdoc": {
    "methods": {
      "balanceOfAt(address,uint256)": {
        "notice": "Returns the balance of an account at the time a snapshot was created"
      },
      "cap()": {
        "notice": "Returns the cap on the token's total supply"
      },
      "initialize(string,string,uint8,uint256,uint256,address,address)": {
        "notice": "It initializes this token instance."
      },
      "initialized()": {
        "notice": "Gets if the contract is initialized."
      },
      "mint(address,uint256)": {
        "notice": "Increase account supply of specified token amount"
      },
      "mintVesting(address,uint256,uint256,uint256)": {
        "notice": "Creates `amount` tokens and assigns them to `account`, increasing the total supply.     * Includes a vesting period before address is allowed to use tokens     * Emits a {Transfer} event with `from` set to the zero address.     * Requirements     * - `to` cannot be the zero address."
      },
      "revokeVesting(address,uint256)": {
        "notice": "Revokes the amount vested to an account"
      },
      "setCap(uint256)": {
        "notice": "Sets a new cap on the token's total supply."
      },
      "settings()": {
        "notice": "The gets the settings contract address from the SETTINGS_SLOT."
      },
      "totalSupplyAt(uint256)": {
        "notice": "Returns the total supply at the time a snapshot was created"
      },
      "withdrawVested()": {
        "notice": "Withdrawal of tokens upon completion of vesting period     "
      }
    }
  }
}