{
  "contractName": "TokenCollateralLoans",
  "abi": [
    {
      "anonymous": false,
      "inputs": [
        {
          "indexed": true,
          "internalType": "uint256",
          "name": "loanID",
          "type": "uint256"
        },
        {
          "indexed": true,
          "internalType": "address",
          "name": "borrower",
          "type": "address"
        },
        {
          "indexed": false,
          "internalType": "uint256",
          "name": "depositAmount",
          "type": "uint256"
        }
      ],
      "name": "CollateralDeposited",
      "type": "event"
    },
    {
      "anonymous": false,
      "inputs": [
        {
          "indexed": true,
          "internalType": "uint256",
          "name": "loanID",
          "type": "uint256"
        },
        {
          "indexed": true,
          "internalType": "address",
          "name": "borrower",
          "type": "address"
        },
        {
          "indexed": false,
          "internalType": "uint256",
          "name": "withdrawalAmount",
          "type": "uint256"
        }
      ],
      "name": "CollateralWithdrawn",
      "type": "event"
    },
    {
      "anonymous": false,
      "inputs": [
        {
          "indexed": true,
          "internalType": "uint256",
          "name": "loanID",
          "type": "uint256"
        },
        {
          "indexed": true,
          "internalType": "address",
          "name": "borrower",
          "type": "address"
        },
        {
          "indexed": false,
          "internalType": "address",
          "name": "liquidator",
          "type": "address"
        },
        {
          "indexed": false,
          "internalType": "uint256",
          "name": "collateralOut",
          "type": "uint256"
        },
        {
          "indexed": false,
          "internalType": "uint256",
          "name": "tokensIn",
          "type": "uint256"
        }
      ],
      "name": "LoanLiquidated",
      "type": "event"
    },
    {
      "anonymous": false,
      "inputs": [
        {
          "indexed": true,
          "internalType": "uint256",
          "name": "loanID",
          "type": "uint256"
        },
        {
          "indexed": true,
          "internalType": "address",
          "name": "borrower",
          "type": "address"
        },
        {
          "indexed": false,
          "internalType": "uint256",
          "name": "amountPaid",
          "type": "uint256"
        },
        {
          "indexed": false,
          "internalType": "address",
          "name": "payer",
          "type": "address"
        },
        {
          "indexed": false,
          "internalType": "uint256",
          "name": "totalOwed",
          "type": "uint256"
        }
      ],
      "name": "LoanRepaid",
      "type": "event"
    },
    {
      "anonymous": false,
      "inputs": [
        {
          "indexed": true,
          "internalType": "uint256",
          "name": "loanID",
          "type": "uint256"
        },
        {
          "indexed": true,
          "internalType": "address",
          "name": "borrower",
          "type": "address"
        },
        {
          "indexed": true,
          "internalType": "address",
          "name": "escrow",
          "type": "address"
        },
        {
          "indexed": false,
          "internalType": "uint256",
          "name": "amountBorrowed",
          "type": "uint256"
        }
      ],
      "name": "LoanTakenOut",
      "type": "event"
    },
    {
      "anonymous": false,
      "inputs": [
        {
          "indexed": true,
          "internalType": "uint256",
          "name": "loanID",
          "type": "uint256"
        },
        {
          "indexed": true,
          "internalType": "address",
          "name": "borrower",
          "type": "address"
        },
        {
          "indexed": true,
          "internalType": "address",
          "name": "recipient",
          "type": "address"
        },
        {
          "indexed": false,
          "internalType": "uint256",
          "name": "interestRate",
          "type": "uint256"
        },
        {
          "indexed": false,
          "internalType": "uint256",
          "name": "collateralRatio",
          "type": "uint256"
        },
        {
          "indexed": false,
          "internalType": "uint256",
          "name": "maxLoanAmount",
          "type": "uint256"
        },
        {
          "indexed": false,
          "internalType": "uint256",
          "name": "duration",
          "type": "uint256"
        },
        {
          "indexed": false,
          "internalType": "uint256",
          "name": "termsExpiry",
          "type": "uint256"
        }
      ],
      "name": "LoanTermsSet",
      "type": "event"
    },
    {
      "anonymous": false,
      "inputs": [
        {
          "indexed": true,
          "internalType": "address",
          "name": "sender",
          "type": "address"
        },
        {
          "indexed": true,
          "internalType": "address",
          "name": "oldPriceOracle",
          "type": "address"
        },
        {
          "indexed": true,
          "internalType": "address",
          "name": "newPriceOracle",
          "type": "address"
        }
      ],
      "name": "PriceOracleUpdated",
      "type": "event"
    },
    {
      "constant": true,
      "inputs": [
        {
          "internalType": "address",
          "name": "",
          "type": "address"
        },
        {
          "internalType": "uint256",
          "name": "",
          "type": "uint256"
        }
      ],
      "name": "borrowerLoans",
      "outputs": [
        {
          "internalType": "uint256",
          "name": "",
          "type": "uint256"
        }
      ],
      "payable": false,
      "stateMutability": "view",
      "type": "function"
    },
    {
      "constant": true,
      "inputs": [
        {
          "internalType": "uint256",
          "name": "loanID",
          "type": "uint256"
        }
      ],
      "name": "canLiquidateLoan",
      "outputs": [
        {
          "internalType": "bool",
          "name": "",
          "type": "bool"
        }
      ],
      "payable": false,
      "stateMutability": "view",
      "type": "function"
    },
    {
      "constant": true,
      "inputs": [],
      "name": "collateralToken",
      "outputs": [
        {
          "internalType": "address",
          "name": "",
          "type": "address"
        }
      ],
      "payable": false,
      "stateMutability": "view",
      "type": "function"
    },
    {
      "constant": true,
      "inputs": [],
      "name": "consts",
      "outputs": [
        {
          "internalType": "contract SettingsConsts",
          "name": "",
          "type": "address"
        }
      ],
      "payable": false,
      "stateMutability": "view",
      "type": "function"
    },
    {
      "constant": true,
      "inputs": [
        {
          "internalType": "address",
          "name": "borrower",
          "type": "address"
        }
      ],
      "name": "getBorrowerLoans",
      "outputs": [
        {
          "internalType": "uint256[]",
          "name": "",
          "type": "uint256[]"
        }
      ],
      "payable": false,
      "stateMutability": "view",
      "type": "function"
    },
    {
      "constant": true,
      "inputs": [
        {
          "internalType": "uint256",
          "name": "loanID",
          "type": "uint256"
        }
      ],
      "name": "getCollateralInfo",
      "outputs": [
        {
          "components": [
            {
              "internalType": "uint256",
              "name": "collateral",
              "type": "uint256"
            },
            {
              "internalType": "uint256",
              "name": "neededInLendingTokens",
              "type": "uint256"
            },
            {
              "internalType": "uint256",
              "name": "neededInCollateralTokens",
              "type": "uint256"
            },
            {
              "internalType": "bool",
              "name": "moreCollateralRequired",
              "type": "bool"
            }
          ],
          "internalType": "struct TellerCommon.LoanCollateralInfo",
          "name": "",
          "type": "tuple"
        }
      ],
      "payable": false,
      "stateMutability": "view",
      "type": "function"
    },
    {
      "constant": true,
      "inputs": [
        {
          "internalType": "uint256",
          "name": "loanID",
          "type": "uint256"
        }
      ],
      "name": "getTotalOwed",
      "outputs": [
        {
          "internalType": "uint256",
          "name": "",
          "type": "uint256"
        }
      ],
      "payable": false,
      "stateMutability": "view",
      "type": "function"
    },
    {
      "constant": true,
      "inputs": [],
      "name": "initialized",
      "outputs": [
        {
          "internalType": "bool",
          "name": "value",
          "type": "bool"
        }
      ],
      "payable": false,
      "stateMutability": "view",
      "type": "function"
    },
    {
      "constant": true,
      "inputs": [],
      "name": "lendingPool",
      "outputs": [
        {
          "internalType": "contract LendingPoolInterface",
          "name": "",
          "type": "address"
        }
      ],
      "payable": false,
      "stateMutability": "view",
      "type": "function"
    },
    {
      "constant": true,
      "inputs": [],
      "name": "lendingToken",
      "outputs": [
        {
          "internalType": "address",
          "name": "",
          "type": "address"
        }
      ],
      "payable": false,
      "stateMutability": "view",
      "type": "function"
    },
    {
      "constant": false,
      "inputs": [
        {
          "internalType": "uint256",
          "name": "loanID",
          "type": "uint256"
        }
      ],
      "name": "liquidateLoan",
      "outputs": [],
      "payable": false,
      "stateMutability": "nonpayable",
      "type": "function"
    },
    {
      "constant": true,
      "inputs": [],
      "name": "loanIDCounter",
      "outputs": [
        {
          "internalType": "uint256",
          "name": "",
          "type": "uint256"
        }
      ],
      "payable": false,
      "stateMutability": "view",
      "type": "function"
    },
    {
      "constant": true,
      "inputs": [],
      "name": "loanTermsConsensus",
      "outputs": [
        {
          "internalType": "contract LoanTermsConsensusInterface",
          "name": "",
          "type": "address"
        }
      ],
      "payable": false,
      "stateMutability": "view",
      "type": "function"
    },
    {
      "constant": true,
      "inputs": [
        {
          "internalType": "uint256",
          "name": "",
          "type": "uint256"
        }
      ],
      "name": "loans",
      "outputs": [
        {
          "internalType": "uint256",
          "name": "id",
          "type": "uint256"
        },
        {
          "components": [
            {
              "internalType": "address payable",
              "name": "borrower",
              "type": "address"
            },
            {
              "internalType": "address",
              "name": "recipient",
              "type": "address"
            },
            {
              "internalType": "uint256",
              "name": "interestRate",
              "type": "uint256"
            },
            {
              "internalType": "uint256",
              "name": "collateralRatio",
              "type": "uint256"
            },
            {
              "internalType": "uint256",
              "name": "maxLoanAmount",
              "type": "uint256"
            },
            {
              "internalType": "uint256",
              "name": "duration",
              "type": "uint256"
            }
          ],
          "internalType": "struct TellerCommon.LoanTerms",
          "name": "loanTerms",
          "type": "tuple"
        },
        {
          "internalType": "uint256",
          "name": "termsExpiry",
          "type": "uint256"
        },
        {
          "internalType": "uint256",
          "name": "loanStartTime",
          "type": "uint256"
        },
        {
          "internalType": "uint256",
          "name": "collateral",
          "type": "uint256"
        },
        {
          "internalType": "uint256",
          "name": "lastCollateralIn",
          "type": "uint256"
        },
        {
          "internalType": "uint256",
          "name": "principalOwed",
          "type": "uint256"
        },
        {
          "internalType": "uint256",
          "name": "interestOwed",
          "type": "uint256"
        },
        {
          "internalType": "uint256",
          "name": "borrowedAmount",
          "type": "uint256"
        },
        {
          "internalType": "address",
          "name": "escrow",
          "type": "address"
        },
        {
          "internalType": "enum TellerCommon.LoanStatus",
          "name": "status",
          "type": "uint8"
        },
        {
          "internalType": "bool",
          "name": "liquidated",
          "type": "bool"
        }
      ],
      "payable": false,
      "stateMutability": "view",
      "type": "function"
    },
    {
      "constant": true,
      "inputs": [],
      "name": "priceOracle",
      "outputs": [
        {
          "internalType": "address",
          "name": "",
          "type": "address"
        }
      ],
      "payable": false,
      "stateMutability": "view",
      "type": "function"
    },
    {
      "constant": false,
      "inputs": [
        {
          "internalType": "uint256",
          "name": "amount",
          "type": "uint256"
        },
        {
          "internalType": "uint256",
          "name": "loanID",
          "type": "uint256"
        }
      ],
      "name": "repay",
      "outputs": [],
      "payable": false,
      "stateMutability": "nonpayable",
      "type": "function"
    },
    {
      "constant": false,
      "inputs": [
        {
          "internalType": "address",
          "name": "newPriceOracle",
          "type": "address"
        }
      ],
      "name": "setPriceOracle",
      "outputs": [],
      "payable": false,
      "stateMutability": "nonpayable",
      "type": "function"
    },
    {
      "constant": true,
      "inputs": [],
      "name": "settings",
      "outputs": [
        {
          "internalType": "contract SettingsInterface",
          "name": "",
          "type": "address"
        }
      ],
      "payable": false,
      "stateMutability": "view",
      "type": "function"
    },
    {
      "constant": false,
      "inputs": [
        {
          "internalType": "uint256",
          "name": "loanID",
          "type": "uint256"
        },
        {
          "internalType": "uint256",
          "name": "amountBorrow",
          "type": "uint256"
        }
      ],
      "name": "takeOutLoan",
      "outputs": [],
      "payable": false,
      "stateMutability": "nonpayable",
      "type": "function"
    },
    {
      "constant": true,
      "inputs": [],
      "name": "totalCollateral",
      "outputs": [
        {
          "internalType": "uint256",
          "name": "",
          "type": "uint256"
        }
      ],
      "payable": false,
      "stateMutability": "view",
      "type": "function"
    },
    {
      "constant": false,
      "inputs": [
        {
          "internalType": "uint256",
          "name": "amount",
          "type": "uint256"
        },
        {
          "internalType": "uint256",
          "name": "loanID",
          "type": "uint256"
        }
      ],
      "name": "withdrawCollateral",
      "outputs": [],
      "payable": false,
      "stateMutability": "nonpayable",
      "type": "function"
    },
    {
      "constant": false,
      "inputs": [
        {
          "internalType": "address",
          "name": "borrower",
          "type": "address"
        },
        {
          "internalType": "uint256",
          "name": "loanID",
          "type": "uint256"
        },
        {
          "internalType": "uint256",
          "name": "amount",
          "type": "uint256"
        }
      ],
      "name": "depositCollateral",
      "outputs": [],
      "payable": true,
      "stateMutability": "payable",
      "type": "function"
    },
    {
      "constant": false,
      "inputs": [
        {
          "components": [
            {
              "internalType": "address payable",
              "name": "borrower",
              "type": "address"
            },
            {
              "internalType": "address",
              "name": "recipient",
              "type": "address"
            },
            {
              "internalType": "address",
              "name": "consensusAddress",
              "type": "address"
            },
            {
              "internalType": "uint256",
              "name": "requestNonce",
              "type": "uint256"
            },
            {
              "internalType": "uint256",
              "name": "amount",
              "type": "uint256"
            },
            {
              "internalType": "uint256",
              "name": "duration",
              "type": "uint256"
            },
            {
              "internalType": "uint256",
              "name": "requestTime",
              "type": "uint256"
            }
          ],
          "internalType": "struct TellerCommon.LoanRequest",
          "name": "request",
          "type": "tuple"
        },
        {
          "components": [
            {
              "internalType": "address",
              "name": "signer",
              "type": "address"
            },
            {
              "internalType": "address",
              "name": "consensusAddress",
              "type": "address"
            },
            {
              "internalType": "uint256",
              "name": "responseTime",
              "type": "uint256"
            },
            {
              "internalType": "uint256",
              "name": "interestRate",
              "type": "uint256"
            },
            {
              "internalType": "uint256",
              "name": "collateralRatio",
              "type": "uint256"
            },
            {
              "internalType": "uint256",
              "name": "maxLoanAmount",
              "type": "uint256"
            },
            {
              "components": [
                {
                  "internalType": "uint256",
                  "name": "signerNonce",
                  "type": "uint256"
                },
                {
                  "internalType": "uint8",
                  "name": "v",
                  "type": "uint8"
                },
                {
                  "internalType": "bytes32",
                  "name": "r",
                  "type": "bytes32"
                },
                {
                  "internalType": "bytes32",
                  "name": "s",
                  "type": "bytes32"
                }
              ],
              "internalType": "struct TellerCommon.Signature",
              "name": "signature",
              "type": "tuple"
            }
          ],
          "internalType": "struct TellerCommon.LoanResponse[]",
          "name": "responses",
          "type": "tuple[]"
        },
        {
          "internalType": "uint256",
          "name": "collateralAmount",
          "type": "uint256"
        }
      ],
      "name": "createLoanWithTerms",
      "outputs": [],
      "payable": true,
      "stateMutability": "payable",
      "type": "function"
    },
    {
      "constant": false,
      "inputs": [
        {
          "internalType": "address",
          "name": "priceOracleAddress",
          "type": "address"
        },
        {
          "internalType": "address",
          "name": "lendingPoolAddress",
          "type": "address"
        },
        {
          "internalType": "address",
          "name": "loanTermsConsensusAddress",
          "type": "address"
        },
        {
          "internalType": "address",
          "name": "settingsAddress",
          "type": "address"
        },
        {
          "internalType": "address",
          "name": "collateralTokenAddress",
          "type": "address"
        }
      ],
      "name": "initialize",
      "outputs": [],
      "payable": false,
      "stateMutability": "nonpayable",
      "type": "function"
    },
    {
      "constant": false,
      "inputs": [],
      "name": "initialize",
      "outputs": [],
      "payable": false,
      "stateMutability": "nonpayable",
      "type": "function"
    }
  ],
  "bytecode": "0x608060405234801561001057600080fd5b50615266806100206000396000f3fe6080604052600436106101665760003560e01c80638129fc1c116100d1578063ccdd9f5d1161008a578063e06174e411610064578063e06174e4146103cf578063e1ec3c68146103e4578063e3ed19021461041c578063eee8b7ff1461043c57610166565b8063ccdd9f5d1461037a578063d86d744e1461039a578063d8aed145146103af57610166565b80638129fc1c146102e6578063934b5d13146102fb578063a59a997314610328578063a5c5c7b21461033d578063aaaca55814610350578063b2016bd41461036557610166565b80634ac8eb5f116101235780634ac8eb5f1461023a578063513484541461024f578063530e784f1461026457806358895e3d146102845780636948f32b146102a6578063767a7b05146102c657610166565b806302bc2cdb1461016b5780631459457a1461018d578063158ef93e146101ad5780631a74856b146101d85780632630c12f146101eb5780633b9293001461020d575b600080fd5b34801561017757600080fd5b5061018b610186366004613e1e565b610469565b005b34801561019957600080fd5b5061018b6101a8366004613c20565b610ae8565b3480156101b957600080fd5b506101c2610b8d565b6040516101cf9190614aeb565b60405180910390f35b61018b6101e6366004613ccf565b610bac565b3480156101f757600080fd5b50610200610d97565b6040516101cf9190614a45565b34801561021957600080fd5b5061022d610228366004613e00565b610da6565b6040516101cf9190614af9565b34801561024657600080fd5b5061022d610dd6565b34801561025b57600080fd5b5061022d610ddc565b34801561027057600080fd5b5061018b61027f366004613be4565b610de2565b34801561029057600080fd5b50610299610f40565b6040516101cf9190614b07565b3480156102b257600080fd5b506101c26102c1366004613e00565b610f4f565b3480156102d257600080fd5b5061018b6102e1366004613e1e565b6110a8565b3480156102f257600080fd5b5061018b6112c1565b34801561030757600080fd5b5061031b610316366004613e00565b611349565b6040516101cf9190614d46565b34801561033457600080fd5b5061029961135a565b61018b61034b366004613d76565b611369565b34801561035c57600080fd5b506102006118ef565b34801561037157600080fd5b50610200611971565b34801561038657600080fd5b5061018b610395366004613e00565b611980565b3480156103a657600080fd5b50610299611cc9565b3480156103bb57600080fd5b5061018b6103ca366004613e1e565b611cd8565b3480156103db57600080fd5b506102996120de565b3480156103f057600080fd5b506104046103ff366004613e00565b612100565b6040516101cf9c9b9a99989796959493929190614dba565b34801561042857600080fd5b5061022d610437366004613c95565b6121b8565b34801561044857600080fd5b5061045c610457366004613be4565b6121e6565b6040516101cf9190614ada565b8160016000828152606d60205260409020600e0154600160a01b900460ff16600381111561049357fe5b146104b95760405162461bcd60e51b81526004016104b090614cf6565b60405180910390fd5b6104c1610b8d565b6104dd5760405162461bcd60e51b81526004016104b090614ce6565b6104e5612252565b156105025760405162461bcd60e51b81526004016104b090614be6565b606a546001600160a01b0316610517816122cc565b156105345760405162461bcd60e51b81526004016104b090614b46565b603380546001908101918290556000868152606d6020526040902001546001600160a01b03163381146105795760405162461bcd60e51b81526004016104b090614c96565b6000868152606d60205260409020600501548511156105aa5760405162461bcd60e51b81526004016104b090614b76565b6000868152606d60205260409020600701544211156105db5760405162461bcd60e51b81526004016104b090614c36565b6106f36105e66120de565b6001600160a01b031663269012a0606e60009054906101000a90046001600160a01b03166001600160a01b03166311880cc86040518163ffffffff1660e01b815260040160206040518083038186803b15801561064257600080fd5b505afa158015610656573d6000803e3d6000fd5b505050506040513d601f19601f8201168201806040525061067a9190810190613d3a565b6040518263ffffffff1660e01b81526004016106969190614af9565b60206040518083038186803b1580156106ae57600080fd5b505afa1580156106c2573d6000803e3d6000fd5b505050506040513d601f19601f820116820180604052506106e69190810190613d3a565b429063ffffffff61235116565b6000878152606d60205260409020600a015411156107235760405162461bcd60e51b81526004016104b090614c16565b6000868152606d60205260409020600d8101869055600b81018690556006810154600390910154610787916237b1d09161077b916127109183919061076f908c9063ffffffff61239c16565b9063ffffffff61239c16565b9063ffffffff6123d616565b6000878152606d60205260409020600c01556107a1613985565b6107aa87612418565b90508060600151156107ce5760405162461bcd60e51b81526004016104b090614bf6565b6000878152606d60205260409020426008820155600e01805460ff60a01b1916600160a11b1790556107ff87612469565b6000888152606d602052604090819020600e0180546001600160a01b0319166001600160a01b039384161790819055606a549151631397424760e11b81529183169263272e848e92610857928b921690600401614d76565b600060405180830381600087803b15801561087157600080fd5b505af1158015610885573d6000803e3d6000fd5b5050506000888152606d602052604090819020600e0154905163cd6dc68760e01b81526001600160a01b03909116915063cd6dc687906108cb9030908b90600401614abf565b600060405180830381600087803b1580156108e557600080fd5b505af11580156108f9573d6000803e3d6000fd5b50505050610905612562565b6001600160a01b031663c7bbb113606a60009054906101000a90046001600160a01b03166001600160a01b031663aaaca5586040518163ffffffff1660e01b815260040160206040518083038186803b15801561096157600080fd5b505afa158015610975573d6000803e3d6000fd5b505050506040513d601f19601f820116820180604052506109999190810190613c02565b306001600160a01b031663b2016bd46040518163ffffffff1660e01b815260040160206040518083038186803b1580156109d257600080fd5b505afa1580156109e6573d6000803e3d6000fd5b505050506040513d601f19601f82011682018060405250610a0a9190810190613c02565b896040518463ffffffff1660e01b8152600401610a2993929190614aa4565b600060405180830381600087803b158015610a4357600080fd5b505af1158015610a57573d6000803e3d6000fd5b5050506000888152606d602052604090819020600e81015460019091015491516001600160a01b03918216935091169089907f85b5516a17ce775661a4b967b1fb30c852678f6598d86d9f3c99b7b60ff2d0ce90610ab6908b90614af9565b60405180910390a450506033548114610ae15760405162461bcd60e51b81526004016104b090614d16565b5050505050565b610af0610b8d565b15610b0d5760405162461bcd60e51b81526004016104b090614d26565b60408051808201909152601a81527f50524f564944455f434f4c4c5f544f4b454e5f414444524553530000000000006020820152610b5b906001600160a01b0383169063ffffffff6125dc16565b610b6785858585612609565b606780546001600160a01b0319166001600160a01b039290921691909117905550505050565b600080604051610b9c90614a2f565b6040519081900390205492915050565b3415610bca5760405162461bcd60e51b81526004016104b090614b66565b8160016000828152606d60205260409020600e0154600160a01b900460ff166003811115610bf457fe5b1480610c26575060026000828152606d60205260409020600e0154600160a01b900460ff166003811115610c2457fe5b145b610c425760405162461bcd60e51b81526004016104b090614b96565b610c4a610b8d565b610c665760405162461bcd60e51b81526004016104b090614ce6565b610c6e612252565b15610c8b5760405162461bcd60e51b81526004016104b090614be6565b606a546001600160a01b0316610ca0816122cc565b15610cbd5760405162461bcd60e51b81526004016104b090614b46565b6000848152606d6020908152604091829020600101548251808401909352601983527f424f52524f5745525f4c4f414e5f49445f4d49534d415443480000000000000091830191909152610d24916001600160a01b0388811692169063ffffffff6127a616565b60008311610d445760405162461bcd60e51b81526004016104b090614c76565b610d4e84846127cf565b846001600160a01b0316847feec2f3feb835e2f2fd44281034b04700a1ddda63dd402949d470a25a7c40b36c85604051610d889190614af9565b60405180910390a35050505050565b6069546001600160a01b031681565b6000818152606d60205260408120600b810154600c90910154610dce9163ffffffff6127e716565b90505b919050565b60665481565b60685481565b610dea610b8d565b610e065760405162461bcd60e51b81526004016104b090614ce6565b610e0e6120de565b6001600160a01b031663c095ea27336040518263ffffffff1660e01b8152600401610e399190614a53565b60006040518083038186803b158015610e5157600080fd5b505afa158015610e65573d6000803e3d6000fd5b50505050610e7b816001600160a01b031661280c565b610e975760405162461bcd60e51b81526004016104b090614c86565b60695460408051808201909152601b81527f4e45575f4f5241434c455f4d5553545f42455f50524f5649444544000000000060208201526001600160a01b0390911690610eed908290849063ffffffff61284816565b606980546001600160a01b0319166001600160a01b03848116918217909255604051909183169033907ff51f0fffc8121ee3747e0536c487d894894cdba960ccfb4ab385a88d51b16fed90600090a45050565b606b546001600160a01b031681565b6000610f59612252565b80610f745750606a54610f74906001600160a01b03166122cc565b80610fa6575060026000838152606d60205260409020600e0154600160a01b900460ff166003811115610fa357fe5b14155b15610fb357506000610dd1565b6000828152606d602052604081206008810154600690910154909142610fdf848463ffffffff6127e716565b1090508015610ff45760019350505050610dd1565b6000858152606d60205260409020600e01546001600160a01b0316801561109157806001600160a01b031663415dfa5b6040518163ffffffff1660e01b815260040160206040518083038186803b15801561104e57600080fd5b505afa158015611062573d6000803e3d6000fd5b505050506040513d601f19601f820116820180604052506110869190810190613d1c565b945050505050610dd1565b61109a86612418565b606001519695505050505050565b8060016000828152606d60205260409020600e0154600160a01b900460ff1660038111156110d257fe5b1480611104575060026000828152606d60205260409020600e0154600160a01b900460ff16600381111561110257fe5b145b6111205760405162461bcd60e51b81526004016104b090614b96565b611128610b8d565b6111445760405162461bcd60e51b81526004016104b090614ce6565b61114c612252565b156111695760405162461bcd60e51b81526004016104b090614be6565b606a546001600160a01b031661117e816122cc565b1561119b5760405162461bcd60e51b81526004016104b090614b46565b603380546001908101918290556000858152606d6020526040902001546001600160a01b031633146111df5760405162461bcd60e51b81526004016104b090614ca6565b600085116111ff5760405162461bcd60e51b81526004016104b090614bd6565b600061120a85612852565b9050600061121782612889565b6000878152606d60205260408120600901549192509061123d908363ffffffff61235116565b90508781111561124a5750865b801561125b5761125b8782336129ce565b336001600160a01b0316877f7c5e5cb62e5ed3caf3764e4b0afedfedef533e27809d43367799787ad2abcd41836040516112959190614af9565b60405180910390a35050506033548114610ae15760405162461bcd60e51b81526004016104b090614d16565b600054610100900460ff16806112da57506112da612a22565b806112e8575060005460ff16155b6113045760405162461bcd60e51b81526004016104b090614c46565b600054610100900460ff1615801561132f576000805460ff1961ff0019909116610100171660011790555b60016033558015611346576000805461ff00191690555b50565b611351613985565b610dce82612418565b606a546001600160a01b031681565b34156113875760405162461bcd60e51b81526004016104b090614b66565b61138f610b8d565b6113ab5760405162461bcd60e51b81526004016104b090614ce6565b6113b3612252565b156113d05760405162461bcd60e51b81526004016104b090614be6565b6113dd6020850185613be4565b336001600160a01b038216146114055760405162461bcd60e51b81526004016104b090614c96565b61141436869003860186613de2565b8060a001516114216120de565b6001600160a01b031663269012a0606e60009054906101000a90046001600160a01b03166001600160a01b031663cc44cadb6040518163ffffffff1660e01b815260040160206040518083038186803b15801561147d57600080fd5b505afa158015611491573d6000803e3d6000fd5b505050506040513d601f19601f820116820180604052506114b59190810190613d3a565b6040518263ffffffff1660e01b81526004016114d19190614af9565b60206040518083038186803b1580156114e957600080fd5b505afa1580156114fd573d6000803e3d6000fd5b505050506040513d601f19601f820116820180604052506115219190810190613d3a565b101561153f5760405162461bcd60e51b81526004016104b090614b26565b6115476120de565b6001600160a01b03166369ff7744606a60009054906101000a90046001600160a01b03166001600160a01b031663aaaca5586040518163ffffffff1660e01b815260040160206040518083038186803b1580156115a357600080fd5b505afa1580156115b7573d6000803e3d6000fd5b505050506040513d601f19601f820116820180604052506115db9190810190613c02565b83608001516040518363ffffffff1660e01b81526004016115fd929190614abf565b60206040518083038186803b15801561161557600080fd5b505afa158015611629573d6000803e3d6000fd5b505050506040513d601f19601f8201168201806040525061164d9190810190613d1c565b1561166a5760405162461bcd60e51b81526004016104b090614b56565b6116778160800151612a28565b6116935760405162461bcd60e51b81526004016104b090614cc6565b600061169d612d98565b606b5460405163064e5d4960e01b8152919250600091829182916001600160a01b039091169063064e5d49906116db908d908d908d90600401614d54565b606060405180830381600087803b1580156116f557600080fd5b505af1158015611709573d6000803e3d6000fd5b505050506040513d601f19601f8201168201806040525061172d9190810190613e3d565b9194509250905061174f84611747368d90038d018d613de2565b858585612da6565b6000858152606d6020908152604091829020835181558382015180516001830180546001600160a01b03199081166001600160a01b0393841617909155938201516002840180548616918316919091179055818501516003808501919091556060808401516004860155608080850151600587015560a0948501516006870155968801516007860155870151600885015594860151600984015590850151600a83015560c0850151600b83015560e0850151600c830155610100850151600d830155610120850151600e83018054909416911617808355610140850151919391929160ff60a01b1990911690600160a01b90849081111561184c57fe5b02179055506101609190910151600e9091018054911515600160a81b0260ff60a81b1990921691909117905586156118885761188884886127cf565b606c600061189960208d018d613be4565b6001600160a01b0316815260208082019290925260400160009081208054600181018255908252919020018490556118e3846118da368d90038d018d613de2565b8585858c612f8e565b50505050505050505050565b606a546040805163155594ab60e31b815290516000926001600160a01b03169163aaaca558916004808301926020929190829003018186803b15801561193457600080fd5b505afa158015611948573d6000803e3d6000fd5b505050506040513d601f19601f8201168201806040525061196c9190810190613c02565b905090565b6067546001600160a01b031681565b8060026000828152606d60205260409020600e0154600160a01b900460ff1660038111156119aa57fe5b146119c75760405162461bcd60e51b81526004016104b090614bc6565b6119cf610b8d565b6119eb5760405162461bcd60e51b81526004016104b090614ce6565b6119f3612252565b15611a105760405162461bcd60e51b81526004016104b090614be6565b606a546001600160a01b0316611a25816122cc565b15611a425760405162461bcd60e51b81526004016104b090614b46565b6033805460010190819055611a5684610f4f565b611a725760405162461bcd60e51b81526004016104b090614bb6565b6000848152606d60205260408120600e8101805460ff60a01b1916600360a01b1760ff60a81b1916600160a81b1790556009015490611ab082613059565b9050611abd8683336129ce565b6000611bdd61271061077b611ad06120de565b6001600160a01b031663269012a0606e60009054906101000a90046001600160a01b03166001600160a01b0316631139087a6040518163ffffffff1660e01b815260040160206040518083038186803b158015611b2c57600080fd5b505afa158015611b40573d6000803e3d6000fd5b505050506040513d601f19601f82011682018060405250611b649190810190613d3a565b6040518263ffffffff1660e01b8152600401611b809190614af9565b60206040518083038186803b158015611b9857600080fd5b505afa158015611bac573d6000803e3d6000fd5b505050506040513d601f19601f82011682018060405250611bd09190810190613d3a565b859063ffffffff61239c16565b606a546040516382f7b02760e01b81529192506001600160a01b0316906382f7b02790611c109084903390600401614d84565b600060405180830381600087803b158015611c2a57600080fd5b505af1158015611c3e573d6000803e3d6000fd5b5050506000888152606d6020526040908190206001015490516001600160a01b03909116915088907f9950a0562c02382e2e840daa73082d5be7660ce37601f28fa4c84089c11e8a0690611c9790339088908790614a61565b60405180910390a35050506033548114611cc35760405162461bcd60e51b81526004016104b090614d16565b50505050565b606e546001600160a01b031681565b8060026000828152606d60205260409020600e0154600160a01b900460ff166003811115611d0257fe5b14611d1f5760405162461bcd60e51b81526004016104b090614bc6565b611d27610b8d565b611d435760405162461bcd60e51b81526004016104b090614ce6565b611d4b612252565b15611d685760405162461bcd60e51b81526004016104b090614be6565b606a546001600160a01b0316611d7d816122cc565b15611d9a5760405162461bcd60e51b81526004016104b090614b46565b603380546001019081905584611dc25760405162461bcd60e51b81526004016104b090614b36565b846000611dce86610da6565b905081811015611ddc578091505b611dec818363ffffffff61235116565b9050611df8868361314f565b80611e9c576000868152606d60205260409020600e8101805460ff60a01b1916600360a01b1790556009810154600190910154611e4190889083906001600160a01b03166129ce565b6000878152606d6020526040908190206001015490516001600160a01b039091169088907f7c5e5cb62e5ed3caf3764e4b0afedfedef533e27809d43367799787ad2abcd4190611e92908590614af9565b60405180910390a3505b606a5460405163acb7081560e01b81526001600160a01b039091169063acb7081590611ece9085903390600401614d84565b600060405180830381600087803b158015611ee857600080fd5b505af1158015611efc573d6000803e3d6000fd5b50505050611f08612562565b6001600160a01b03166362e269ef606a60009054906101000a90046001600160a01b03166001600160a01b031663aaaca5586040518163ffffffff1660e01b815260040160206040518083038186803b158015611f6457600080fd5b505afa158015611f78573d6000803e3d6000fd5b505050506040513d601f19601f82011682018060405250611f9c9190810190613c02565b306001600160a01b031663b2016bd46040518163ffffffff1660e01b815260040160206040518083038186803b158015611fd557600080fd5b505afa158015611fe9573d6000803e3d6000fd5b505050506040513d601f19601f8201168201806040525061200d9190810190613c02565b856040518463ffffffff1660e01b815260040161202c93929190614aa4565b600060405180830381600087803b15801561204657600080fd5b505af115801561205a573d6000803e3d6000fd5b5050506000878152606d6020526040908190206001015490516001600160a01b03909116915087907f20a1f2ec363af45dc5ee7d9d622f2dd68b52501c382126c7f04b53663c4c69bf906120b390869033908790614d9f565b60405180910390a350506033548114610ae15760405162461bcd60e51b81526004016104b090614d16565b60008060006040516120ef90614a3a565b604051908190039020549250505090565b606d602090815260009182526040918290208054835160c08101855260018301546001600160a01b03908116825260028401548116948201949094526003830154948101949094526004820154606085015260058201546080850152600682015460a0850152600782015460088301546009840154600a850154600b860154600c870154600d880154600e9098015496999895979496939592949193909281169060ff600160a01b8204811691600160a81b9004168c565b606c60205281600052604060002081815481106121d157fe5b90600052602060002001600091509150505481565b6001600160a01b0381166000908152606c602090815260409182902080548351818402810184019094528084526060939283018282801561224657602002820191906000526020600020905b815481526020019060010190808311612232575b50505050509050919050565b600061225c6120de565b6001600160a01b031663b187bd266040518163ffffffff1660e01b815260040160206040518083038186803b15801561229457600080fd5b505afa1580156122a8573d6000803e3d6000fd5b505050506040513d601f19601f8201168201806040525061196c9190810190613d1c565b60006122d66120de565b6001600160a01b0316633b668321836040518263ffffffff1660e01b81526004016123019190614a45565b60206040518083038186803b15801561231957600080fd5b505afa15801561232d573d6000803e3d6000fd5b505050506040513d601f19601f82011682018060405250610dce9190810190613d1c565b600061239383836040518060400160405280601e81526020017f536166654d6174683a207375627472616374696f6e206f766572666c6f77000081525061320a565b90505b92915050565b6000826123ab57506000612396565b828202828482816123b857fe5b04146123935760405162461bcd60e51b81526004016104b090614c06565b600061239383836040518060400160405280601a81526020017f536166654d6174683a206469766973696f6e206279207a65726f00000000000081525061323b565b612420613985565b6000828152606d6020526040812060090154908061243d85613272565b604080516080810182528681526020810193909352820181905293909311606084015250909392505050565b60006124736120de565b6001600160a01b031663bdd1daaa6040518163ffffffff1660e01b815260040160206040518083038186803b1580156124ab57600080fd5b505afa1580156124bf573d6000803e3d6000fd5b505050506040513d601f19601f820116820180604052506124e39190810190613d58565b6001600160a01b0316634614874e30846040518363ffffffff1660e01b8152600401612510929190614abf565b602060405180830381600087803b15801561252a57600080fd5b505af115801561253e573d6000803e3d6000fd5b505050506040513d601f19601f82011682018060405250610dce9190810190613c02565b600061256c6120de565b6001600160a01b0316631390f8d76040518163ffffffff1660e01b815260040160206040518083038186803b1580156125a457600080fd5b505afa1580156125b8573d6000803e3d6000fd5b505050506040513d601f19601f8201168201806040525061196c9190810190613d58565b6125e582613296565b81906126045760405162461bcd60e51b81526004016104b09190614b15565b505050565b612611610b8d565b1561262e5760405162461bcd60e51b81526004016104b090614d26565b60408051808201909152601681527550524f564944455f4f5241434c455f4144445245535360501b6020820152612675906001600160a01b0386169063ffffffff6125dc16565b60408051808201909152601c81527f50524f564944455f4c454e44494e475f504f4f4c5f414444524553530000000060208201526126c3906001600160a01b0385169063ffffffff6125dc16565b60408051808201909152601b81527f50524f56494445445f4c4f414e5f5445524d535f4144445245535300000000006020820152612711906001600160a01b0384169063ffffffff6125dc16565b61271a816132a4565b606980546001600160a01b038087166001600160a01b031992831617909255606a8054868416908316179055606b805492851692909116919091179055604051612763906139af565b604051809103906000f08015801561277f573d6000803e3d6000fd5b50606e80546001600160a01b0319166001600160a01b039290921691909117905550505050565b6127b08383613356565b8190611cc35760405162461bcd60e51b81526004016104b09190614b15565b6127d98282613367565b6127e333826133c0565b5050565b6000828201838110156123935760405162461bcd60e51b81526004016104b090614b86565b6000813f7fc5d2460186f7233c927e7db2dcc703c0e500b653ca82273b7bfad8045d85a47081811480159061284057508115155b949350505050565b6127b083836133dd565b60008061285e83610da6565b6000848152606d602052604090206004015490915061284061271061077b848463ffffffff61239c16565b600080612923606a60009054906101000a90046001600160a01b03166001600160a01b031663aaaca5586040518163ffffffff1660e01b815260040160206040518083038186803b1580156128dd57600080fd5b505afa1580156128f1573d6000803e3d6000fd5b505050506040513d601f19601f820116820180604052506129159190810190613c02565b6001600160a01b03166133ef565b90506000606960009054906101000a90046001600160a01b03166001600160a01b03166396237c026040518163ffffffff1660e01b815260040160206040518083038186803b15801561297557600080fd5b505afa158015612989573d6000803e3d6000fd5b505050506040513d601f19601f820116820180604052506129ad9190810190613d3a565b905060006129c58361077b878563ffffffff61239c16565b95945050505050565b6066546129e1908363ffffffff61235116565b6066556000838152606d6020526040902060090154612a06908363ffffffff61235116565b6000848152606d60205260409020600901556126048183613470565b303b1590565b600080612a336120de565b6001600160a01b031663dc21a6a06040518163ffffffff1660e01b815260040160206040518083038186803b158015612a6b57600080fd5b505afa158015612a7f573d6000803e3d6000fd5b505050506040513d601f19601f82011682018060405250612aa39190810190613d58565b6001600160a01b0316631fb7cec9606a60009054906101000a90046001600160a01b03166001600160a01b031663aaaca5586040518163ffffffff1660e01b815260040160206040518083038186803b158015612aff57600080fd5b505afa158015612b13573d6000803e3d6000fd5b505050506040513d601f19601f82011682018060405250612b379190810190613c02565b6067546040516001600160e01b031960e085901b168152612b6592916001600160a01b031690600401614a89565b60206040518083038186803b158015612b7d57600080fd5b505afa158015612b91573d6000803e3d6000fd5b505050506040513d601f19601f82011682018060405250612bb59190810190613c02565b90506001600160a01b038116612bdd5760405162461bcd60e51b81526004016104b090614c56565b604051632319178560e11b81526000906001600160a01b038316906346322f0a90612c1b906b14dd5c1c1b1e551bd119589d60a21b90600401614af9565b60206040518083038186803b158015612c3357600080fd5b505afa158015612c47573d6000803e3d6000fd5b505050506040513d601f19601f82011682018060405250612c6b9190810190613d3a565b90506000612c77612562565b6001600160a01b031663db63323e606a60009054906101000a90046001600160a01b03166001600160a01b031663aaaca5586040518163ffffffff1660e01b815260040160206040518083038186803b158015612cd357600080fd5b505afa158015612ce7573d6000803e3d6000fd5b505050506040513d601f19601f82011682018060405250612d0b9190810190613c02565b6067546040516001600160e01b031960e085901b168152612d3b92916001600160a01b0316908a90600401614aa4565b60206040518083038186803b158015612d5357600080fd5b505afa158015612d67573d6000803e3d6000fd5b505050506040513d601f19601f82011682018060405250612d8b9190810190613d3a565b9190911115949350505050565b606880546001810190915590565b612dae6139bc565b6000612ec8612dbb6120de565b6001600160a01b031663269012a0606e60009054906101000a90046001600160a01b03166001600160a01b031663e00a46156040518163ffffffff1660e01b815260040160206040518083038186803b158015612e1757600080fd5b505afa158015612e2b573d6000803e3d6000fd5b505050506040513d601f19601f82011682018060405250612e4f9190810190613d3a565b6040518263ffffffff1660e01b8152600401612e6b9190614af9565b60206040518083038186803b158015612e8357600080fd5b505afa158015612e97573d6000803e3d6000fd5b505050506040513d601f19601f82011682018060405250612ebb9190810190613d3a565b429063ffffffff6127e716565b90506040518061018001604052808881526020016040518060c0016040528089600001516001600160a01b0316815260200189602001516001600160a01b031681526020018881526020018781526020018681526020018960a00151815250815260200182815260200160008152602001600081526020016000815260200160008152602001600081526020016000815260200160006001600160a01b0316815260200160016003811115612f7957fe5b81526000602090910152979650505050505050565b84602001516001600160a01b031685600001516001600160a01b0316877f0358f509931cba53bbb6a94b7f05a5178220a0c7ddb54b1a1722df9e6ed6aa098787878b60a00151606d60008f815260200190815260200160002060070154604051612ffc959493929190614e72565b60405180910390a480156130515784600001516001600160a01b0316867feec2f3feb835e2f2fd44281034b04700a1ddda63dd402949d470a25a7c40b36c836040516130489190614af9565b60405180910390a35b505050505050565b6000806130ad606a60009054906101000a90046001600160a01b03166001600160a01b031663aaaca5586040518163ffffffff1660e01b815260040160206040518083038186803b1580156128dd57600080fd5b90506000606960009054906101000a90046001600160a01b03166001600160a01b03166396237c026040518163ffffffff1660e01b815260040160206040518083038186803b1580156130ff57600080fd5b505afa158015613113573d6000803e3d6000fd5b505050506040513d601f19601f820116820180604052506131379190810190613d3a565b905060006129c58261077b878663ffffffff61239c16565b6000828152606d60205260409020600b01548111156131d2576000828152606d60205260409020600b0154819061318d90829063ffffffff61235116565b6000848152606d60205260408120600b810191909155600c01549091506131ba908263ffffffff61235116565b6000848152606d60205260409020600c0155506127e3565b6000828152606d60205260409020600b01546131f4908263ffffffff61235116565b6000838152606d60205260409020600b01555050565b6000818484111561322e5760405162461bcd60e51b81526004016104b09190614b15565b50508183035b9392505050565b6000818361325c5760405162461bcd60e51b81526004016104b09190614b15565b50600083858161326857fe5b0495945050505050565b600080600061328084612852565b90508061328c82612889565b9250925050915091565b6001600160a01b0316151590565b6132ac610b8d565b156132c95760405162461bcd60e51b81526004016104b090614d26565b60408051808201909152601981527f53455454494e47535f4d5553545f42455f50524f5649444544000000000000006020820152613317906001600160a01b0383169063ffffffff6125dc16565b613329816001600160a01b031661280c565b6133455760405162461bcd60e51b81526004016104b090614ba6565b61334d61348d565b611346816134ab565b6001600160a01b0390811691161490565b60665461337a908263ffffffff6127e716565b6066556000828152606d602052604090206009015461339f908263ffffffff6127e716565b6000928352606d602052604090922060098101929092555042600a90910155565b6067546127e3906001600160a01b0316838363ffffffff61351416565b6001600160a01b039081169116141590565b600080826001600160a01b031663313ce5676040518163ffffffff1660e01b815260040160206040518083038186803b15801561342b57600080fd5b505afa15801561343f573d6000803e3d6000fd5b505050506040513d601f19601f820116820180604052506134639190810190613e80565b60ff16600a0a9392505050565b6067546127e3906001600160a01b0316838363ffffffff61379316565b600060405161349b90614a2f565b6040519081900390206001905550565b60006134b56120de565b6001600160a01b0316146134f6576134d5816001600160a01b031661280c565b6134f15760405162461bcd60e51b81526004016104b090614ba6565b611346565b600060405161350490614a3a565b6040519081900390208290555050565b604051636eb1769f60e11b81526000906001600160a01b0385169063dd62ed3e906135459086903090600401614a89565b60206040518083038186803b15801561355d57600080fd5b505afa158015613571573d6000803e3d6000fd5b505050506040513d601f19601f820116820180604052506135959190810190613d3a565b9050818110156135b75760405162461bcd60e51b81526004016104b090614d06565b6040516370a0823160e01b81526000906001600160a01b038616906370a08231906135e6903090600401614a45565b60206040518083038186803b1580156135fe57600080fd5b505afa158015613612573d6000803e3d6000fd5b505050506040513d601f19601f820116820180604052506136369190810190613d3a565b90506000856001600160a01b03166323b872dd8630876040518463ffffffff1660e01b815260040161366a93929190614aa4565b602060405180830381600087803b15801561368457600080fd5b505af1158015613698573d6000803e3d6000fd5b505050506040513d601f19601f820116820180604052506136bc9190810190613d1c565b9050806136db5760405162461bcd60e51b81526004016104b090614c26565b6040516370a0823160e01b81526000906001600160a01b038816906370a082319061370a903090600401614a45565b60206040518083038186803b15801561372257600080fd5b505afa158015613736573d6000803e3d6000fd5b505050506040513d601f19601f8201168201806040525061375a9190810190613d3a565b90508461376d828563ffffffff61235116565b1461378a5760405162461bcd60e51b81526004016104b090614c66565b50505050505050565b6040516370a0823160e01b81526000906001600160a01b038516906370a08231906137c2903090600401614a45565b60206040518083038186803b1580156137da57600080fd5b505afa1580156137ee573d6000803e3d6000fd5b505050506040513d601f19601f820116820180604052506138129190810190613d3a565b9050818110156138345760405162461bcd60e51b81526004016104b090614cb6565b60405163a9059cbb60e01b81526000906001600160a01b0386169063a9059cbb906138659087908790600401614abf565b602060405180830381600087803b15801561387f57600080fd5b505af1158015613893573d6000803e3d6000fd5b505050506040513d601f19601f820116820180604052506138b79190810190613d1c565b9050806138d65760405162461bcd60e51b81526004016104b090614cd6565b6040516370a0823160e01b81526000906001600160a01b038716906370a0823190613905903090600401614a45565b60206040518083038186803b15801561391d57600080fd5b505afa158015613931573d6000803e3d6000fd5b505050506040513d601f19601f820116820180604052506139559190810190613d3a565b905083613968848363ffffffff61235116565b146130515760405162461bcd60e51b81526004016104b090614d36565b60405180608001604052806000815260200160008152602001600081526020016000151581525090565b61022b80614ff983390190565b604051806101800160405280600081526020016139d7613a37565b81526020016000815260200160008152602001600081526020016000815260200160008152602001600081526020016000815260200160006001600160a01b0316815260200160006003811115613a2a57fe5b8152600060209091015290565b6040518060c0016040528060006001600160a01b0316815260200160006001600160a01b03168152602001600081526020016000815260200160008152602001600081525090565b803561239681614fc0565b805161239681614fc0565b60008083601f840112613aa757600080fd5b50813567ffffffffffffffff811115613abf57600080fd5b60208301915083610140820283011115613ad857600080fd5b9250929050565b805161239681614fd4565b803561239681614fdd565b805161239681614fdd565b805161239681614fe6565b600060e08284031215613b1d57600080fd5b50919050565b600060e08284031215613b3557600080fd5b613b3f60e0614ebe565b90506000613b4d8484613a7f565b8252506020613b5e84848301613a7f565b6020830152506040613b7284828501613a7f565b6040830152506060613b8684828501613aea565b6060830152506080613b9a84828501613aea565b60808301525060a0613bae84828501613aea565b60a08301525060c0613bc284828501613aea565b60c08301525092915050565b803561239681614fef565b805161239681614fef565b600060208284031215613bf657600080fd5b60006128408484613a7f565b600060208284031215613c1457600080fd5b60006128408484613a8a565b600080600080600060a08688031215613c3857600080fd5b6000613c448888613a7f565b9550506020613c5588828901613a7f565b9450506040613c6688828901613a7f565b9350506060613c7788828901613a7f565b9250506080613c8888828901613a7f565b9150509295509295909350565b60008060408385031215613ca857600080fd5b6000613cb48585613a7f565b9250506020613cc585828601613aea565b9150509250929050565b600080600060608486031215613ce457600080fd5b6000613cf08686613a7f565b9350506020613d0186828701613aea565b9250506040613d1286828701613aea565b9150509250925092565b600060208284031215613d2e57600080fd5b60006128408484613adf565b600060208284031215613d4c57600080fd5b60006128408484613af5565b600060208284031215613d6a57600080fd5b60006128408484613b00565b6000806000806101208587031215613d8d57600080fd5b6000613d998787613b0b565b94505060e085013567ffffffffffffffff811115613db657600080fd5b613dc287828801613a95565b9350935050610100613dd687828801613aea565b91505092959194509250565b600060e08284031215613df457600080fd5b60006128408484613b23565b600060208284031215613e1257600080fd5b60006128408484613aea565b60008060408385031215613e3157600080fd5b6000613cb48585613aea565b600080600060608486031215613e5257600080fd5b6000613e5e8686613af5565b9350506020613e6f86828701613af5565b9250506040613d1286828701613af5565b600060208284031215613e9257600080fd5b60006128408484613bd9565b6000613eaa8383614892565b50506101400190565b6000613ebf8383613f8e565b505060200190565b613ed081614f6a565b82525050565b613ed081614f33565b6000613eeb8385614ef9565b9350613ef682614ee5565b8060005b85811015613f2c57613f0c8284614f20565b613f168882613e9e565b9750613f2183614ef2565b925050600101613efa565b509495945050505050565b6000613f4282614eee565b613f4c8185614ef9565b9350613f5783614ee8565b8060005b83811015613f2c578151613f6f8882613eb3565b9750613f7a83614ee8565b925050600101613f5b565b613ed081614f3e565b613ed081614ee5565b613ed081614f43565b613ed081614f75565b6000613fb482614eee565b613fbe8185614ef9565b9350613fce818560208601614f80565b613fd781614fac565b9093019392505050565b6000613fee601d83614ef9565b7f4455524154494f4e5f455843454544535f4d41585f4455524154494f4e000000815260200192915050565b6000614027601c83610dd1565b7f54496e697469616c697a61626c652e6973496e697469616c697a6564000000008152601c0192915050565b6000614060601583614ef9565b74105353d5539517d59053155157d491545552549151605a1b815260200192915050565b6000614091601683614ef9565b7513115391125391d7d413d3d317d254d7d4105554d15160521b815260200192915050565b60006140c3601983614ef9565b7f414d4f554e545f455843454544535f4d41585f414d4f554e5400000000000000815260200192915050565b60006140fc601e83614ef9565b7f544f4b454e5f4c4f414e535f56414c55455f4d5553545f42455f5a45524f0000815260200192915050565b6000614135601183614ef9565b7013505617d313d05397d15610d151511151607a1b815260200192915050565b6000614162601b83614ef9565b7f536166654d6174683a206164646974696f6e206f766572666c6f770000000000815260200192915050565b600061419b601683614ef9565b751313d05397d393d517d050d512559157d3d497d4d15560521b815260200192915050565b60006141cd601b83614ef9565b7f53455454494e47535f4d5553545f42455f415f434f4e54524143540000000000815260200192915050565b6000614206601783614ef9565b7f444f45534e545f4e4545445f4c49515549444154494f4e000000000000000000815260200192915050565b600061423f600f83614ef9565b6e4c4f414e5f4e4f545f41435449564560881b815260200192915050565b600061426a601483614ef9565b7343414e4e4f545f57495448445241575f5a45524f60601b815260200192915050565b600061429a601283614ef9565b71141310551193d49357d254d7d4105554d15160721b815260200192915050565b60006142c8601883614ef9565b7f4d4f52455f434f4c4c41544552414c5f52455155495245440000000000000000815260200192915050565b6000614301602183614ef9565b7f536166654d6174683a206d756c7469706c69636174696f6e206f766572666c6f8152607760f81b602082015260400192915050565b6000614344601d83614ef9565b7f434f4c4c41544552414c5f4445504f53495445445f524543454e544c59000000815260200192915050565b600061437d601b83614ef9565b7f544f4b454e535f5452414e534645525f46524f4d5f4641494c45440000000000815260200192915050565b60006143b6601283614ef9565b711313d05397d511549354d7d156141254915160721b815260200192915050565b60006143e4602e83614ef9565b7f436f6e747261637420696e7374616e63652068617320616c726561647920626581526d195b881a5b9a5d1a585b1a5e995960921b602082015260400192915050565b6000614434601883614ef9565b7f41544d5f4e4f545f464f554e445f464f525f4d41524b45540000000000000000815260200192915050565b600061446d601f83614ef9565b7f494e565f42414c414e43455f41465445525f5452414e534645525f46524f4d00815260200192915050565b60006144a6601383614ef9565b7243414e4e4f545f4445504f5349545f5a45524f60681b815260200192915050565b60006144d5601e83614ef9565b7f4f5241434c455f4d5553545f434f4e54524143545f4e4f545f454d5054590000815260200192915050565b600061450e601783614ef9565b7f424f52524f5745525f4d5553545f42455f53454e444552000000000000000000815260200192915050565b6000614547601683614ef9565b7521a0a62622a92fa227a2a9a72a2fa7aba72fa627a0a760511b815260200192915050565b6000614579601983614ef9565b7f4e4f545f454e4f5547485f544f4b454e535f42414c414e434500000000000000815260200192915050565b60006145b2601883610dd1565b7f426173655570677261646561626c652e73657474696e67730000000000000000815260180192915050565b60006145eb601a83614ef9565b7f535550504c595f544f5f444542545f455843454544535f4d4158000000000000815260200192915050565b6000614624601683614ef9565b751513d2d15394d7d514905394d1915497d1905253115160521b815260200192915050565b6000614656601883614ef9565b7f434f4e54524143545f4e4f545f494e495449414c495a45440000000000000000815260200192915050565b600061468f600c83614ef9565b6b1313d05397d393d517d4d15560a21b815260200192915050565b60006146b7601b83614ef9565b7f4e4f545f454e4f5547485f544f4b454e535f414c4c4f57414e43450000000000815260200192915050565b60006146f0601f83614ef9565b7f5265656e7472616e637947756172643a207265656e7472616e742063616c6c00815260200192915050565b6000614729601c83614ef9565b7f434f4e54524143545f414c52454144595f494e495449414c495a454400000000815260200192915050565b6000614762601a83614ef9565b7f494e565f42414c414e43455f41465445525f5452414e53464552000000000000815260200192915050565b8051608083019061479f8482613f8e565b5060208201516147b26020850182613f8e565b5060408201516147c56040850182613f8e565b506060820151611cc36060850182613f85565b60e082016147e68280614f02565b6147f08482613ed6565b506147fe6020830183614f02565b61480b6020850182613ed6565b506148196040830183614f02565b6148266040850182613ed6565b506148346060830183614f11565b6148416060850182613f8e565b5061484f6080830183614f11565b61485c6080850182613f8e565b5061486a60a0830183614f11565b61487760a0850182613f8e565b5061488560c0830183614f11565b611cc360c0850182613f8e565b61014082016148a18280614f02565b6148ab8482613ed6565b506148b96020830183614f02565b6148c66020850182613ed6565b506148d46040830183614f11565b6148e16040850182613f8e565b506148ef6060830183614f11565b6148fc6060850182613f8e565b5061490a6080830183614f11565b6149176080850182613f8e565b5061492560a0830183614f11565b61493260a0850182613f8e565b5061494060c0830183614f20565b611cc360c08501826149bd565b805160c083019061495e8482613ed6565b5060208201516149716020850182613ed6565b5060408201516149846040850182613f8e565b5060608201516149976060850182613f8e565b5060808201516149aa6080850182613f8e565b5060a0820151611cc360a0850182613f8e565b608082016149cb8280614f11565b6149d58482613f8e565b506149e36020830183614f24565b6149f06020850182614a26565b506149fe6040830183614f11565b614a0b6040850182613f8e565b50614a196060830183614f11565b611cc36060850182613f8e565b613ed081614f64565b60006123968261401a565b6000612396826145a5565b602081016123968284613ed6565b602081016123968284613ec7565b60608101614a6f8286613ec7565b614a7c6020830185613f8e565b6128406040830184613f8e565b60408101614a978285613ed6565b6132346020830184613ed6565b60608101614ab28286613ed6565b614a7c6020830185613ed6565b60408101614acd8285613ed6565b6132346020830184613f8e565b602080825281016123938184613f37565b602081016123968284613f85565b602081016123968284613f8e565b602081016123968284613f97565b602080825281016123938184613fa9565b60208082528101610dce81613fe1565b60208082528101610dce81614053565b60208082528101610dce81614084565b60208082528101610dce816140b6565b60208082528101610dce816140ef565b60208082528101610dce81614128565b60208082528101610dce81614155565b60208082528101610dce8161418e565b60208082528101610dce816141c0565b60208082528101610dce816141f9565b60208082528101610dce81614232565b60208082528101610dce8161425d565b60208082528101610dce8161428d565b60208082528101610dce816142bb565b60208082528101610dce816142f4565b60208082528101610dce81614337565b60208082528101610dce81614370565b60208082528101610dce816143a9565b60208082528101610dce816143d7565b60208082528101610dce81614427565b60208082528101610dce81614460565b60208082528101610dce81614499565b60208082528101610dce816144c8565b60208082528101610dce81614501565b60208082528101610dce8161453a565b60208082528101610dce8161456c565b60208082528101610dce816145de565b60208082528101610dce81614617565b60208082528101610dce81614649565b60208082528101610dce81614682565b60208082528101610dce816146aa565b60208082528101610dce816146e3565b60208082528101610dce8161471c565b60208082528101610dce81614755565b60808101612396828461478e565b6101008101614d6382866147d8565b81810360e08301526129c5818486613edf565b60408101614a978285613f8e565b60408101614d928285613f8e565b6132346020830184613ec7565b60608101614dad8286613f8e565b614a7c6020830185613ec7565b6102208101614dc9828f613f8e565b614dd6602083018e61494d565b614de360e083018d613f8e565b614df161010083018c613f8e565b614dff61012083018b613f8e565b614e0d61014083018a613f8e565b614e1b610160830189613f8e565b614e29610180830188613f8e565b614e376101a0830187613f8e565b614e456101c0830186613ed6565b614e536101e0830185613fa0565b614e61610200830184613f85565b9d9c50505050505050505050505050565b60a08101614e808288613f8e565b614e8d6020830187613f8e565b614e9a6040830186613f8e565b614ea76060830185613f8e565b614eb46080830184613f8e565b9695505050505050565b60405181810167ffffffffffffffff81118282101715614edd57600080fd5b604052919050565b90565b60200190565b5190565b6101400190565b90815260200190565b60006123936020840184613a7f565b60006123936020840184613aea565b5090565b60006123936020840184613bce565b6000610dce82614f58565b151590565b6000610dce82614f33565b80610dd181614fb6565b6001600160a01b031690565b60ff1690565b6000610dce82614f43565b6000610dce82614f4e565b60005b83811015614f9b578181015183820152602001614f83565b83811115611cc35750506000910152565b601f01601f191690565b6004811061134657fe5b614fc981614f33565b811461134657600080fd5b614fc981614f3e565b614fc981614ee5565b614fc981614f43565b614fc981614f6456fe608060405234801561001057600080fd5b5061020b806100206000396000f3fe608060405234801561001057600080fd5b50600436106100935760003560e01c80633ff591d9116100665780633ff591d9146100ca578063c41dd8ce146100d2578063cc44cadb146100da578063e00a4615146100e2578063e3f33d00146100ea57610093565b806308b04f62146100985780631139087a146100b257806311880cc8146100ba5780633b98dfdb146100c2575b600080fd5b6100a06100f2565b60408051918252519081900360200190f35b6100a0610109565b6100a0610121565b6100a0610136565b6100a061015a565b6100a0610174565b6100a061018b565b6100a06101a5565b6100a06101bb565b6f21b7b63630ba32b930b6213ab33332b960811b81565b704c6971756964617465457468507269636560781b81565b6d14d859995d1e525b9d195c9d985b60921b81565b7f526571756573744c6f616e5465726d73526174654c696d69740000000000000081565b7252657175697265645375626d697373696f6e7360681b81565b6f4d6178696d756d546f6c6572616e636560801b81565b7226b0bc34b6bab6a637b0b7223ab930ba34b7b760691b81565b6e5465726d7345787069727954696d6560881b81565b730a4cae6e0dedce6ca8af0e0d2e4f298cadccee8d60631b8156fea265627a7a72315820b6cc93d12d39f205ac91b27ee8876405b81cd752a680e010a2828f9ed81bbbb364736f6c63430005110032a365627a7a723158208590b2bc30a4f010dde62fd3a46dcccca2d0d4f5c31cab765b0f54e31481e13b6c6578706572696d656e74616cf564736f6c63430005110040",
  "source": "pragma solidity 0.5.17;\npragma experimental ABIEncoderV2;\n\n// Contracts\nimport \"./LoansBase.sol\";\n\n/*****************************************************************************************************/\n/**                                             WARNING                                             **/\n/**                                  THIS CONTRACT IS UPGRADEABLE!                                  **/\n/**  ---------------------------------------------------------------------------------------------  **/\n/**  Do NOT change the order of or PREPEND any storage variables to this or new versions of this    **/\n/**  contract as this will cause the the storage slots to be overwritten on the proxy contract!!    **/\n/**                                                                                                 **/\n/**  Visit https://docs.openzeppelin.com/upgrades/2.6/proxies#upgrading-via-the-proxy-pattern for   **/\n/**  more information.                                                                              **/\n/*****************************************************************************************************/\n/**\n    @notice This contract is used as a basis for the creation of loans (not wei) across the platform\n    @notice It implements the LoansBase contract from Teller\n\n    @author develop@teller.finance\n */\ncontract TokenCollateralLoans is LoansBase {\n    /** Constants */\n\n    /** Properties */\n\n    /** Modifiers */\n\n    /**\n        @notice Checks the value in the current transactionn is zero.\n        @dev It throws a require error if value is not zero.\n     */\n    modifier noMsgValue() {\n        require(msg.value == 0, \"TOKEN_LOANS_VALUE_MUST_BE_ZERO\");\n        _;\n    }\n\n    /** External Functions */\n\n    /**\n     * @notice Deposit collateral tokens into a loan.\n     * @param borrower The address of the loan borrower.\n     * @param loanID The ID of the loan the collateral is for\n     * @param amount The amount to deposit as collateral.\n     */\n    function depositCollateral(\n        address borrower,\n        uint256 loanID,\n        uint256 amount\n    )\n        external\n        payable\n        noMsgValue()\n        loanActiveOrSet(loanID)\n        isInitialized()\n        whenNotPaused()\n        whenLendingPoolNotPaused(address(lendingPool))\n    {\n        borrower.requireEqualTo(\n            loans[loanID].loanTerms.borrower,\n            \"BORROWER_LOAN_ID_MISMATCH\"\n        );\n        require(amount > 0, \"CANNOT_DEPOSIT_ZERO\");\n\n        // Update the loan collateral and total. Transfer tokens to this contract.\n        _payInCollateral(loanID, amount);\n\n        emit CollateralDeposited(loanID, borrower, amount);\n    }\n\n    /**\n        @notice Creates a loan with the loan request and terms\n        @param request Struct of the protocol loan request\n        @param responses List of structs of the protocol loan responses\n        @param collateralAmount Amount of collateral required for the loan\n     */\n    function createLoanWithTerms(\n        TellerCommon.LoanRequest calldata request,\n        TellerCommon.LoanResponse[] calldata responses,\n        uint256 collateralAmount\n    )\n        external\n        payable\n        noMsgValue()\n        isInitialized()\n        whenNotPaused()\n        isBorrower(request.borrower)\n        withValidLoanRequest(request)\n    {\n        uint256 loanID = getAndIncrementLoanID();\n\n        (\n            uint256 interestRate,\n            uint256 collateralRatio,\n            uint256 maxLoanAmount\n        ) = loanTermsConsensus.processRequest(request, responses);\n\n        loans[loanID] = createLoan(\n            loanID,\n            request,\n            interestRate,\n            collateralRatio,\n            maxLoanAmount\n        );\n\n        if (collateralAmount > 0) {\n            // Update collateral, totalCollateral, and lastCollateralIn\n            _payInCollateral(loanID, collateralAmount);\n        }\n\n        borrowerLoans[request.borrower].push(loanID);\n\n        _emitLoanTermsSetAndCollateralDepositedEventsIfApplicable(\n            loanID,\n            request,\n            interestRate,\n            collateralRatio,\n            maxLoanAmount,\n            collateralAmount\n        );\n    }\n\n    /**\n        @notice Initializes the current contract instance setting the required parameters, if allowed\n        @param priceOracleAddress Contract address of the price oracle\n        @param lendingPoolAddress Contract address of the lending pool\n        @param loanTermsConsensusAddress Contract adddress for loan term consensus\n        @param settingsAddress Contract address for the configuration of the platform\n        @param collateralTokenAddress Contract address for the collateral token.\n     */\n    function initialize(\n        address priceOracleAddress,\n        address lendingPoolAddress,\n        address loanTermsConsensusAddress,\n        address settingsAddress,\n        address collateralTokenAddress\n    ) external isNotInitialized() {\n        collateralTokenAddress.requireNotEmpty(\"PROVIDE_COLL_TOKEN_ADDRESS\");\n\n        _initialize(\n            priceOracleAddress,\n            lendingPoolAddress,\n            loanTermsConsensusAddress,\n            settingsAddress\n        );\n\n        collateralToken = collateralTokenAddress;\n    }\n\n    /** Internal Function */\n    /**\n        @notice Pays out collateral for the associated loan\n        @param loanID The ID of the loan the collateral is for\n        @param amount The amount of collateral to be paid\n     */\n    function _payOutCollateral(\n        uint256 loanID,\n        uint256 amount,\n        address payable recipient\n    ) internal {\n        totalCollateral = totalCollateral.sub(amount);\n        loans[loanID].collateral = loans[loanID].collateral.sub(amount);\n\n        _collateralTokenTransfer(recipient, amount);\n    }\n\n    /**\n        @notice Pays collateral in for the associated loan\n        @param loanID The ID of the loan the collateral is for\n        @param amount The amount of collateral to be paid\n     */\n    function _payInCollateral(uint256 loanID, uint256 amount) internal {\n        // Update the total collateral and loan collateral\n        super._payInCollateral(loanID, amount);\n        // Transfer collateral tokens to this contract.\n        _collateralTokenTransferFrom(msg.sender, amount);\n    }\n\n    /**\n        @notice It transfers an amount of collateral tokens to a specific address.\n        @param recipient The address which will receive the tokens.\n        @param amount The amount of tokens to transfer.\n     */\n    function _collateralTokenTransfer(address recipient, uint256 amount) internal {\n        ERC20Detailed(collateralToken).tokenTransfer(recipient, amount);\n    }\n\n    /**\n        @notice It transfers an amount of collateral tokens from an address to this contract.\n        @param from The address where the tokens will transfer from.\n        @param amount The amount to be transferred.\n     */\n    function _collateralTokenTransferFrom(address from, uint256 amount) internal {\n        ERC20Detailed(collateralToken).tokenTransferFrom(from, amount);\n    }\n}\n",
  "sourcePath": "/Users/sy/Documents/GitHub/teller-protocol-v1/contracts/base/TokenCollateralLoans.sol",
  "compiler": {
    "name": "solc",
    "version": "0.5.17+commit.d19bba13.Emscripten.clang"
  },
  "schemaVersion": "3.0.23",
  "updatedAt": "2020-09-06T02:15:12.354Z",
  "devdoc": {
    "author": "develop@teller.finance",
    "methods": {
      "canLiquidateLoan(uint256)": {
        "params": {
          "loanID": "The ID of the loan to check"
        },
        "return": "bool weather the loan can be liquidated"
      },
      "createLoanWithTerms((address,address,address,uint256,uint256,uint256,uint256),(address,address,uint256,uint256,uint256,uint256,(uint256,uint8,bytes32,bytes32))[],uint256)": {
        "params": {
          "collateralAmount": "Amount of collateral required for the loan",
          "request": "Struct of the protocol loan request",
          "responses": "List of structs of the protocol loan responses"
        }
      },
      "depositCollateral(address,uint256,uint256)": {
        "params": {
          "amount": "The amount to deposit as collateral.",
          "borrower": "The address of the loan borrower.",
          "loanID": "The ID of the loan the collateral is for"
        }
      },
      "getBorrowerLoans(address)": {
        "params": {
          "borrower": "The borrower's address"
        }
      },
      "getCollateralInfo(uint256)": {
        "params": {
          "loanID": "of the loan to get info for"
        },
        "return": "memory TellerCommon.LoanCollateralInfo Collateral information of the loan"
      },
      "getTotalOwed(uint256)": {
        "params": {
          "loanID": "The ID of the loan to be queried"
        },
        "return": "uint256 The total amount owed remaining"
      },
      "initialize(address,address,address,address,address)": {
        "params": {
          "collateralTokenAddress": "Contract address for the collateral token.",
          "lendingPoolAddress": "Contract address of the lending pool",
          "loanTermsConsensusAddress": "Contract adddress for loan term consensus",
          "priceOracleAddress": "Contract address of the price oracle",
          "settingsAddress": "Contract address for the configuration of the platform"
        }
      },
      "initialized()": {
        "return": "true if contract is initialized. Otherwise it returns false."
      },
      "lendingToken()": {
        "return": "Address of the lending token"
      },
      "liquidateLoan(uint256)": {
        "params": {
          "loanID": "The ID of the loan to be liquidated"
        }
      },
      "repay(uint256,uint256)": {
        "params": {
          "amount": "The amount of tokens to pay back to the loan",
          "loanID": "The ID of the loan the payment is for"
        }
      },
      "setPriceOracle(address)": {
        "details": "It throws a require error if sender is not allowed.It throws a require error if new address is empty (0x0) or not a contract.",
        "params": {
          "newPriceOracle": "the new price oracle address."
        }
      },
      "takeOutLoan(uint256,uint256)": {
        "details": "collateral ratio is a percentage of the loan amount that's required in collateralthe percentage will be *(10**2). I.e. collateralRatio of 5244 means 52.44% collateralis required in the loan. Interest rate is also a percentage with 2 decimal points."
      },
      "withdrawCollateral(uint256,uint256)": {
        "params": {
          "amount": "The amount of collateral token or ether the caller is hoping to withdraw.",
          "loanID": "The ID of the loan the collateral is for"
        }
      }
    }
  },
  "userdoc": {
    "methods": {
      "canLiquidateLoan(uint256)": {
        "notice": "A loan can be liquidated if it is: under collateralized or expired"
      },
      "createLoanWithTerms((address,address,address,uint256,uint256,uint256,uint256),(address,address,uint256,uint256,uint256,uint256,(uint256,uint8,bytes32,bytes32))[],uint256)": {
        "notice": "Creates a loan with the loan request and terms"
      },
      "depositCollateral(address,uint256,uint256)": {
        "notice": "Deposit collateral tokens into a loan."
      },
      "getBorrowerLoans(address)": {
        "notice": "Get a list of all loans for a borrower"
      },
      "getCollateralInfo(uint256)": {
        "notice": "Get collateral information of a specific loan"
      },
      "getTotalOwed(uint256)": {
        "notice": "Returns the total owed amount remaining for a specified loan"
      },
      "initialize(address,address,address,address,address)": {
        "notice": "Initializes the current contract instance setting the required parameters, if allowed"
      },
      "initialized()": {
        "notice": "Gets if the contract is initialized."
      },
      "lendingToken()": {
        "notice": "Returns the lending token in the lending pool"
      },
      "liquidateLoan(uint256)": {
        "notice": "Liquidate a loan if it is expired or under collateralized"
      },
      "repay(uint256,uint256)": {
        "notice": "Make a payment to a loan"
      },
      "setPriceOracle(address)": {
        "notice": "Updates the current price oracle instance."
      },
      "settings()": {
        "notice": "The settings contract."
      },
      "takeOutLoan(uint256,uint256)": {
        "notice": "Take out a loan"
      },
      "withdrawCollateral(uint256,uint256)": {
        "notice": "Withdraw collateral from a loan, unless this isn't allowed"
      }
    },
    "notice": "This contract is used as a basis for the creation of loans (not wei) across the platformIt implements the LoansBase contract from Teller"
  }
}