{
  "contractName": "TokenCollateralLoansMock",
  "abi": [
    {
      "anonymous": false,
      "inputs": [
        {
          "indexed": true,
          "internalType": "uint256",
          "name": "loanID",
          "type": "uint256"
        },
        {
          "indexed": true,
          "internalType": "address",
          "name": "borrower",
          "type": "address"
        },
        {
          "indexed": false,
          "internalType": "uint256",
          "name": "depositAmount",
          "type": "uint256"
        }
      ],
      "name": "CollateralDeposited",
      "type": "event"
    },
    {
      "anonymous": false,
      "inputs": [
        {
          "indexed": true,
          "internalType": "uint256",
          "name": "loanID",
          "type": "uint256"
        },
        {
          "indexed": true,
          "internalType": "address",
          "name": "borrower",
          "type": "address"
        },
        {
          "indexed": false,
          "internalType": "uint256",
          "name": "withdrawalAmount",
          "type": "uint256"
        }
      ],
      "name": "CollateralWithdrawn",
      "type": "event"
    },
    {
      "anonymous": false,
      "inputs": [
        {
          "indexed": true,
          "internalType": "uint256",
          "name": "loanID",
          "type": "uint256"
        },
        {
          "indexed": true,
          "internalType": "address",
          "name": "borrower",
          "type": "address"
        },
        {
          "indexed": false,
          "internalType": "address",
          "name": "liquidator",
          "type": "address"
        },
        {
          "indexed": false,
          "internalType": "uint256",
          "name": "collateralOut",
          "type": "uint256"
        },
        {
          "indexed": false,
          "internalType": "uint256",
          "name": "tokensIn",
          "type": "uint256"
        }
      ],
      "name": "LoanLiquidated",
      "type": "event"
    },
    {
      "anonymous": false,
      "inputs": [
        {
          "indexed": true,
          "internalType": "uint256",
          "name": "loanID",
          "type": "uint256"
        },
        {
          "indexed": true,
          "internalType": "address",
          "name": "borrower",
          "type": "address"
        },
        {
          "indexed": false,
          "internalType": "uint256",
          "name": "amountPaid",
          "type": "uint256"
        },
        {
          "indexed": false,
          "internalType": "address",
          "name": "payer",
          "type": "address"
        },
        {
          "indexed": false,
          "internalType": "uint256",
          "name": "totalOwed",
          "type": "uint256"
        }
      ],
      "name": "LoanRepaid",
      "type": "event"
    },
    {
      "anonymous": false,
      "inputs": [
        {
          "indexed": true,
          "internalType": "uint256",
          "name": "loanID",
          "type": "uint256"
        },
        {
          "indexed": true,
          "internalType": "address",
          "name": "borrower",
          "type": "address"
        },
        {
          "indexed": true,
          "internalType": "address",
          "name": "escrow",
          "type": "address"
        },
        {
          "indexed": false,
          "internalType": "uint256",
          "name": "amountBorrowed",
          "type": "uint256"
        }
      ],
      "name": "LoanTakenOut",
      "type": "event"
    },
    {
      "anonymous": false,
      "inputs": [
        {
          "indexed": true,
          "internalType": "uint256",
          "name": "loanID",
          "type": "uint256"
        },
        {
          "indexed": true,
          "internalType": "address",
          "name": "borrower",
          "type": "address"
        },
        {
          "indexed": true,
          "internalType": "address",
          "name": "recipient",
          "type": "address"
        },
        {
          "indexed": false,
          "internalType": "uint256",
          "name": "interestRate",
          "type": "uint256"
        },
        {
          "indexed": false,
          "internalType": "uint256",
          "name": "collateralRatio",
          "type": "uint256"
        },
        {
          "indexed": false,
          "internalType": "uint256",
          "name": "maxLoanAmount",
          "type": "uint256"
        },
        {
          "indexed": false,
          "internalType": "uint256",
          "name": "duration",
          "type": "uint256"
        },
        {
          "indexed": false,
          "internalType": "uint256",
          "name": "termsExpiry",
          "type": "uint256"
        }
      ],
      "name": "LoanTermsSet",
      "type": "event"
    },
    {
      "anonymous": false,
      "inputs": [
        {
          "indexed": true,
          "internalType": "address",
          "name": "sender",
          "type": "address"
        },
        {
          "indexed": true,
          "internalType": "address",
          "name": "oldPriceOracle",
          "type": "address"
        },
        {
          "indexed": true,
          "internalType": "address",
          "name": "newPriceOracle",
          "type": "address"
        }
      ],
      "name": "PriceOracleUpdated",
      "type": "event"
    },
    {
      "constant": true,
      "inputs": [
        {
          "internalType": "address",
          "name": "",
          "type": "address"
        },
        {
          "internalType": "uint256",
          "name": "",
          "type": "uint256"
        }
      ],
      "name": "borrowerLoans",
      "outputs": [
        {
          "internalType": "uint256",
          "name": "",
          "type": "uint256"
        }
      ],
      "payable": false,
      "stateMutability": "view",
      "type": "function"
    },
    {
      "constant": true,
      "inputs": [],
      "name": "cToken",
      "outputs": [
        {
          "internalType": "address",
          "name": "",
          "type": "address"
        }
      ],
      "payable": false,
      "stateMutability": "view",
      "type": "function"
    },
    {
      "constant": true,
      "inputs": [
        {
          "internalType": "uint256",
          "name": "loanID",
          "type": "uint256"
        }
      ],
      "name": "canLiquidateLoan",
      "outputs": [
        {
          "internalType": "bool",
          "name": "",
          "type": "bool"
        }
      ],
      "payable": false,
      "stateMutability": "view",
      "type": "function"
    },
    {
      "constant": true,
      "inputs": [],
      "name": "collateralToken",
      "outputs": [
        {
          "internalType": "address",
          "name": "",
          "type": "address"
        }
      ],
      "payable": false,
      "stateMutability": "view",
      "type": "function"
    },
    {
      "constant": false,
      "inputs": [
        {
          "components": [
            {
              "internalType": "address payable",
              "name": "borrower",
              "type": "address"
            },
            {
              "internalType": "address",
              "name": "recipient",
              "type": "address"
            },
            {
              "internalType": "address",
              "name": "consensusAddress",
              "type": "address"
            },
            {
              "internalType": "uint256",
              "name": "requestNonce",
              "type": "uint256"
            },
            {
              "internalType": "uint256",
              "name": "amount",
              "type": "uint256"
            },
            {
              "internalType": "uint256",
              "name": "duration",
              "type": "uint256"
            },
            {
              "internalType": "uint256",
              "name": "requestTime",
              "type": "uint256"
            }
          ],
          "internalType": "struct TellerCommon.LoanRequest",
          "name": "request",
          "type": "tuple"
        },
        {
          "components": [
            {
              "internalType": "address",
              "name": "signer",
              "type": "address"
            },
            {
              "internalType": "address",
              "name": "consensusAddress",
              "type": "address"
            },
            {
              "internalType": "uint256",
              "name": "responseTime",
              "type": "uint256"
            },
            {
              "internalType": "uint256",
              "name": "interestRate",
              "type": "uint256"
            },
            {
              "internalType": "uint256",
              "name": "collateralRatio",
              "type": "uint256"
            },
            {
              "internalType": "uint256",
              "name": "maxLoanAmount",
              "type": "uint256"
            },
            {
              "components": [
                {
                  "internalType": "uint256",
                  "name": "signerNonce",
                  "type": "uint256"
                },
                {
                  "internalType": "uint8",
                  "name": "v",
                  "type": "uint8"
                },
                {
                  "internalType": "bytes32",
                  "name": "r",
                  "type": "bytes32"
                },
                {
                  "internalType": "bytes32",
                  "name": "s",
                  "type": "bytes32"
                }
              ],
              "internalType": "struct TellerCommon.Signature",
              "name": "signature",
              "type": "tuple"
            }
          ],
          "internalType": "struct TellerCommon.LoanResponse[]",
          "name": "responses",
          "type": "tuple[]"
        },
        {
          "internalType": "uint256",
          "name": "collateralAmount",
          "type": "uint256"
        }
      ],
      "name": "createLoanWithTerms",
      "outputs": [],
      "payable": true,
      "stateMutability": "payable",
      "type": "function"
    },
    {
      "constant": false,
      "inputs": [
        {
          "internalType": "address",
          "name": "borrower",
          "type": "address"
        },
        {
          "internalType": "uint256",
          "name": "loanID",
          "type": "uint256"
        },
        {
          "internalType": "uint256",
          "name": "amount",
          "type": "uint256"
        }
      ],
      "name": "depositCollateral",
      "outputs": [],
      "payable": true,
      "stateMutability": "payable",
      "type": "function"
    },
    {
      "constant": true,
      "inputs": [
        {
          "internalType": "address",
          "name": "borrower",
          "type": "address"
        }
      ],
      "name": "getBorrowerLoans",
      "outputs": [
        {
          "internalType": "uint256[]",
          "name": "",
          "type": "uint256[]"
        }
      ],
      "payable": false,
      "stateMutability": "view",
      "type": "function"
    },
    {
      "constant": true,
      "inputs": [
        {
          "internalType": "uint256",
          "name": "loanID",
          "type": "uint256"
        }
      ],
      "name": "getCollateralInfo",
      "outputs": [
        {
          "components": [
            {
              "internalType": "uint256",
              "name": "collateral",
              "type": "uint256"
            },
            {
              "internalType": "uint256",
              "name": "neededInLendingTokens",
              "type": "uint256"
            },
            {
              "internalType": "uint256",
              "name": "neededInCollateralTokens",
              "type": "uint256"
            },
            {
              "internalType": "bool",
              "name": "moreCollateralRequired",
              "type": "bool"
            }
          ],
          "internalType": "struct TellerCommon.LoanCollateralInfo",
          "name": "",
          "type": "tuple"
        }
      ],
      "payable": false,
      "stateMutability": "view",
      "type": "function"
    },
    {
      "constant": true,
      "inputs": [
        {
          "internalType": "uint256",
          "name": "loanID",
          "type": "uint256"
        }
      ],
      "name": "getTotalOwed",
      "outputs": [
        {
          "internalType": "uint256",
          "name": "",
          "type": "uint256"
        }
      ],
      "payable": false,
      "stateMutability": "view",
      "type": "function"
    },
    {
      "constant": false,
      "inputs": [
        {
          "internalType": "address",
          "name": "priceOracleAddress",
          "type": "address"
        },
        {
          "internalType": "address",
          "name": "lendingPoolAddress",
          "type": "address"
        },
        {
          "internalType": "address",
          "name": "loanTermsConsensusAddress",
          "type": "address"
        },
        {
          "internalType": "address",
          "name": "settingsAddress",
          "type": "address"
        },
        {
          "internalType": "address",
          "name": "collateralTokenAddress",
          "type": "address"
        }
      ],
      "name": "initialize",
      "outputs": [],
      "payable": false,
      "stateMutability": "nonpayable",
      "type": "function"
    },
    {
      "constant": false,
      "inputs": [],
      "name": "initialize",
      "outputs": [],
      "payable": false,
      "stateMutability": "nonpayable",
      "type": "function"
    },
    {
      "constant": true,
      "inputs": [],
      "name": "initialized",
      "outputs": [
        {
          "internalType": "bool",
          "name": "value",
          "type": "bool"
        }
      ],
      "payable": false,
      "stateMutability": "view",
      "type": "function"
    },
    {
      "constant": true,
      "inputs": [],
      "name": "lendingPool",
      "outputs": [
        {
          "internalType": "contract LendingPoolInterface",
          "name": "",
          "type": "address"
        }
      ],
      "payable": false,
      "stateMutability": "view",
      "type": "function"
    },
    {
      "constant": true,
      "inputs": [],
      "name": "lendingToken",
      "outputs": [
        {
          "internalType": "address",
          "name": "",
          "type": "address"
        }
      ],
      "payable": false,
      "stateMutability": "view",
      "type": "function"
    },
    {
      "constant": false,
      "inputs": [
        {
          "internalType": "uint256",
          "name": "loanID",
          "type": "uint256"
        }
      ],
      "name": "liquidateLoan",
      "outputs": [],
      "payable": false,
      "stateMutability": "nonpayable",
      "type": "function"
    },
    {
      "constant": true,
      "inputs": [],
      "name": "loanIDCounter",
      "outputs": [
        {
          "internalType": "uint256",
          "name": "",
          "type": "uint256"
        }
      ],
      "payable": false,
      "stateMutability": "view",
      "type": "function"
    },
    {
      "constant": true,
      "inputs": [],
      "name": "loanTermsConsensus",
      "outputs": [
        {
          "internalType": "contract LoanTermsConsensusInterface",
          "name": "",
          "type": "address"
        }
      ],
      "payable": false,
      "stateMutability": "view",
      "type": "function"
    },
    {
      "constant": true,
      "inputs": [
        {
          "internalType": "uint256",
          "name": "",
          "type": "uint256"
        }
      ],
      "name": "loans",
      "outputs": [
        {
          "internalType": "uint256",
          "name": "id",
          "type": "uint256"
        },
        {
          "components": [
            {
              "internalType": "address payable",
              "name": "borrower",
              "type": "address"
            },
            {
              "internalType": "address",
              "name": "recipient",
              "type": "address"
            },
            {
              "internalType": "uint256",
              "name": "interestRate",
              "type": "uint256"
            },
            {
              "internalType": "uint256",
              "name": "collateralRatio",
              "type": "uint256"
            },
            {
              "internalType": "uint256",
              "name": "maxLoanAmount",
              "type": "uint256"
            },
            {
              "internalType": "uint256",
              "name": "duration",
              "type": "uint256"
            }
          ],
          "internalType": "struct TellerCommon.LoanTerms",
          "name": "loanTerms",
          "type": "tuple"
        },
        {
          "internalType": "uint256",
          "name": "termsExpiry",
          "type": "uint256"
        },
        {
          "internalType": "uint256",
          "name": "loanStartTime",
          "type": "uint256"
        },
        {
          "internalType": "uint256",
          "name": "collateral",
          "type": "uint256"
        },
        {
          "internalType": "uint256",
          "name": "lastCollateralIn",
          "type": "uint256"
        },
        {
          "internalType": "uint256",
          "name": "principalOwed",
          "type": "uint256"
        },
        {
          "internalType": "uint256",
          "name": "interestOwed",
          "type": "uint256"
        },
        {
          "internalType": "uint256",
          "name": "borrowedAmount",
          "type": "uint256"
        },
        {
          "internalType": "address",
          "name": "escrow",
          "type": "address"
        },
        {
          "internalType": "enum TellerCommon.LoanStatus",
          "name": "status",
          "type": "uint8"
        },
        {
          "internalType": "bool",
          "name": "liquidated",
          "type": "bool"
        }
      ],
      "payable": false,
      "stateMutability": "view",
      "type": "function"
    },
    {
      "constant": true,
      "inputs": [],
      "name": "mockTokenFunctions",
      "outputs": [
        {
          "internalType": "bool",
          "name": "",
          "type": "bool"
        }
      ],
      "payable": false,
      "stateMutability": "view",
      "type": "function"
    },
    {
      "constant": true,
      "inputs": [],
      "name": "priceOracle",
      "outputs": [
        {
          "internalType": "address",
          "name": "",
          "type": "address"
        }
      ],
      "payable": false,
      "stateMutability": "view",
      "type": "function"
    },
    {
      "constant": false,
      "inputs": [
        {
          "internalType": "uint256",
          "name": "amount",
          "type": "uint256"
        },
        {
          "internalType": "uint256",
          "name": "loanID",
          "type": "uint256"
        }
      ],
      "name": "repay",
      "outputs": [],
      "payable": false,
      "stateMutability": "nonpayable",
      "type": "function"
    },
    {
      "constant": false,
      "inputs": [
        {
          "internalType": "address",
          "name": "newPriceOracle",
          "type": "address"
        }
      ],
      "name": "setPriceOracle",
      "outputs": [],
      "payable": false,
      "stateMutability": "nonpayable",
      "type": "function"
    },
    {
      "constant": true,
      "inputs": [],
      "name": "settings",
      "outputs": [
        {
          "internalType": "contract SettingsInterface",
          "name": "",
          "type": "address"
        }
      ],
      "payable": false,
      "stateMutability": "view",
      "type": "function"
    },
    {
      "constant": true,
      "inputs": [],
      "name": "tToken",
      "outputs": [
        {
          "internalType": "address",
          "name": "",
          "type": "address"
        }
      ],
      "payable": false,
      "stateMutability": "view",
      "type": "function"
    },
    {
      "constant": false,
      "inputs": [
        {
          "internalType": "uint256",
          "name": "loanID",
          "type": "uint256"
        },
        {
          "internalType": "uint256",
          "name": "amountBorrow",
          "type": "uint256"
        }
      ],
      "name": "takeOutLoan",
      "outputs": [],
      "payable": false,
      "stateMutability": "nonpayable",
      "type": "function"
    },
    {
      "constant": true,
      "inputs": [],
      "name": "totalCollateral",
      "outputs": [
        {
          "internalType": "uint256",
          "name": "",
          "type": "uint256"
        }
      ],
      "payable": false,
      "stateMutability": "view",
      "type": "function"
    },
    {
      "constant": false,
      "inputs": [
        {
          "internalType": "uint256",
          "name": "amount",
          "type": "uint256"
        },
        {
          "internalType": "uint256",
          "name": "loanID",
          "type": "uint256"
        }
      ],
      "name": "withdrawCollateral",
      "outputs": [],
      "payable": false,
      "stateMutability": "nonpayable",
      "type": "function"
    },
    {
      "constant": false,
      "inputs": [
        {
          "internalType": "bool",
          "name": "newMockTokenFunctions",
          "type": "bool"
        }
      ],
      "name": "setMockTokenFunctions",
      "outputs": [],
      "payable": false,
      "stateMutability": "nonpayable",
      "type": "function"
    },
    {
      "constant": false,
      "inputs": [
        {
          "internalType": "uint256",
          "name": "newLoanIdCounter",
          "type": "uint256"
        }
      ],
      "name": "setLoanIDCounter",
      "outputs": [],
      "payable": false,
      "stateMutability": "nonpayable",
      "type": "function"
    },
    {
      "constant": false,
      "inputs": [
        {
          "internalType": "address",
          "name": "borrower",
          "type": "address"
        },
        {
          "internalType": "uint256[]",
          "name": "loanIDs",
          "type": "uint256[]"
        }
      ],
      "name": "setBorrowerLoans",
      "outputs": [],
      "payable": false,
      "stateMutability": "nonpayable",
      "type": "function"
    },
    {
      "constant": false,
      "inputs": [
        {
          "internalType": "uint256",
          "name": "amount",
          "type": "uint256"
        }
      ],
      "name": "setTotalCollateral",
      "outputs": [],
      "payable": false,
      "stateMutability": "nonpayable",
      "type": "function"
    },
    {
      "constant": false,
      "inputs": [
        {
          "internalType": "uint256",
          "name": "id",
          "type": "uint256"
        },
        {
          "components": [
            {
              "internalType": "address payable",
              "name": "borrower",
              "type": "address"
            },
            {
              "internalType": "address",
              "name": "recipient",
              "type": "address"
            },
            {
              "internalType": "uint256",
              "name": "interestRate",
              "type": "uint256"
            },
            {
              "internalType": "uint256",
              "name": "collateralRatio",
              "type": "uint256"
            },
            {
              "internalType": "uint256",
              "name": "maxLoanAmount",
              "type": "uint256"
            },
            {
              "internalType": "uint256",
              "name": "duration",
              "type": "uint256"
            }
          ],
          "internalType": "struct TellerCommon.LoanTerms",
          "name": "loanTerms",
          "type": "tuple"
        },
        {
          "internalType": "uint256",
          "name": "termsExpiry",
          "type": "uint256"
        },
        {
          "internalType": "uint256",
          "name": "loanStartTime",
          "type": "uint256"
        },
        {
          "internalType": "uint256",
          "name": "collateral",
          "type": "uint256"
        },
        {
          "internalType": "uint256",
          "name": "lastCollateralIn",
          "type": "uint256"
        },
        {
          "internalType": "uint256",
          "name": "principalOwed",
          "type": "uint256"
        },
        {
          "internalType": "uint256",
          "name": "interestOwed",
          "type": "uint256"
        },
        {
          "internalType": "uint256",
          "name": "borrowedAmount",
          "type": "uint256"
        },
        {
          "internalType": "enum TellerCommon.LoanStatus",
          "name": "status",
          "type": "uint8"
        },
        {
          "internalType": "bool",
          "name": "liquidated",
          "type": "bool"
        }
      ],
      "name": "setLoan",
      "outputs": [],
      "payable": false,
      "stateMutability": "nonpayable",
      "type": "function"
    }
  ],
  "bytecode": "0x608060405234801561001057600080fd5b506158d580620000216000396000f3fe6080604052600436106101e35760003560e01c80637214056511610102578063c35d64ea11610095578063e1ec3c6811610064578063e1ec3c6814610516578063e3ed19021461054e578063eee8b7ff1461056e578063fe15d70f1461059b576101e3565b8063c35d64ea146104ac578063ccdd9f5d146104c1578063d8aed145146104e1578063e06174e414610501576101e3565b8063a59a9973116100d1578063a59a99731461045a578063a5c5c7b21461046f578063aaaca55814610482578063b2016bd414610497576101e3565b806372140565146103d8578063767a7b05146103f85780638129fc1c14610418578063934b5d131461042d576101e3565b806342c3c0fb1161017a57806358895e3d1161014957806358895e3d1461036157806364794459146103835780636948f32b146103a357806369e527da146103c3576101e3565b806342c3c0fb146102f75780634ac8eb5f14610317578063513484541461032c578063530e784f14610341576101e3565b806319e8b2b3116101b657806319e8b2b3146102755780631a74856b146102955780632630c12f146102a85780633b929300146102ca576101e3565b806302bc2cdb146101e85780630cc2c0fb1461020a5780631459457a1461022a578063158ef93e1461024a575b600080fd5b3480156101f457600080fd5b50610208610203366004614669565b6105b0565b005b34801561021657600080fd5b50610208610225366004614438565b610c92565b34801561023657600080fd5b506102086102453660046142e6565b610ca5565b34801561025657600080fd5b5061025f610d4a565b60405161026c919061536f565b60405180910390f35b34801561028157600080fd5b5061020861029036600461435b565b610d69565b6102086102a33660046143eb565b610d92565b3480156102b457600080fd5b506102bd610f7d565b60405161026c91906152c9565b3480156102d657600080fd5b506102ea6102e5366004614558565b610f8c565b60405161026c919061537d565b34801561030357600080fd5b50610208610312366004614558565b610fbc565b34801561032357600080fd5b506102ea610fc1565b34801561033857600080fd5b506102ea610fc7565b34801561034d57600080fd5b5061020861035c3660046142aa565b610fcd565b34801561036d57600080fd5b5061037661112b565b60405161026c919061538b565b34801561038f57600080fd5b5061020861039e366004614558565b61113a565b3480156103af57600080fd5b5061025f6103be366004614558565b61113f565b3480156103cf57600080fd5b506102bd611298565b3480156103e457600080fd5b506102086103f3366004614576565b61131b565b34801561040457600080fd5b50610208610413366004614669565b6114f1565b34801561042457600080fd5b5061020861170a565b34801561043957600080fd5b5061044d610448366004614558565b611792565b60405161026c91906155da565b34801561046657600080fd5b506103766117a3565b61020861047d3660046144b0565b6117b2565b34801561048e57600080fd5b506102bd611da6565b3480156104a357600080fd5b506102bd611deb565b3480156104b857600080fd5b506102bd611dfa565b3480156104cd57600080fd5b506102086104dc366004614558565b611e3f565b3480156104ed57600080fd5b506102086104fc366004614669565b6121e9565b34801561050d57600080fd5b506103766125ef565b34801561052257600080fd5b50610536610531366004614558565b612611565b60405161026c9c9b9a9998979695949392919061564e565b34801561055a57600080fd5b506102ea6105693660046143b1565b6126c9565b34801561057a57600080fd5b5061058e6105893660046142aa565b6126f7565b60405161026c919061535e565b3480156105a757600080fd5b5061025f612763565b8160016000828152606d60205260409020600e0154600160a01b900460ff1660038111156105da57fe5b146106005760405162461bcd60e51b81526004016105f79061558a565b60405180910390fd5b610608610d4a565b6106245760405162461bcd60e51b81526004016105f79061557a565b61062c61276c565b156106495760405162461bcd60e51b81526004016105f79061547a565b606a546001600160a01b031661065e816127e6565b1561067b5760405162461bcd60e51b81526004016105f7906153ca565b603380546001908101918290556000868152606d6020526040902001546001600160a01b03163381146106c05760405162461bcd60e51b81526004016105f79061552a565b6000868152606d60205260409020600501548511156106f15760405162461bcd60e51b81526004016105f7906153fa565b6000868152606d60205260409020600701544211156107225760405162461bcd60e51b81526004016105f7906154ca565b61089c61072d6125ef565b6001600160a01b031663269012a06107436125ef565b6001600160a01b031663d86d744e6040518163ffffffff1660e01b815260040160206040518083038186803b15801561077b57600080fd5b505afa15801561078f573d6000803e3d6000fd5b505050506040513d601f19601f820116820180604052506107b39190810190614492565b6001600160a01b03166311880cc86040518163ffffffff1660e01b815260040160206040518083038186803b1580156107eb57600080fd5b505afa1580156107ff573d6000803e3d6000fd5b505050506040513d601f19601f820116820180604052506108239190810190614474565b6040518263ffffffff1660e01b815260040161083f919061537d565b60206040518083038186803b15801561085757600080fd5b505afa15801561086b573d6000803e3d6000fd5b505050506040513d601f19601f8201168201806040525061088f9190810190614474565b429063ffffffff61286b16565b6000878152606d60205260409020600a015411156108cc5760405162461bcd60e51b81526004016105f7906154aa565b6000868152606d60205260409020600d8101869055600b81018690556006810154600390910154610931916301e13380916109259161271091839190610919908c9063ffffffff6128b616565b9063ffffffff6128b616565b9063ffffffff6128f016565b6000878152606d60205260409020600c015561094b613ef2565b61095487612932565b90508060600151156109785760405162461bcd60e51b81526004016105f79061548a565b6000878152606d60205260409020426008820155600e01805460ff60a01b1916600160a11b1790556109a987612983565b6000888152606d602052604090819020600e0180546001600160a01b0319166001600160a01b039384161790819055606a549151631397424760e11b81529183169263272e848e92610a01928b92169060040161560a565b600060405180830381600087803b158015610a1b57600080fd5b505af1158015610a2f573d6000803e3d6000fd5b5050506000888152606d602052604090819020600e0154905163cd6dc68760e01b81526001600160a01b03909116915063cd6dc68790610a759030908b90600401615343565b600060405180830381600087803b158015610a8f57600080fd5b505af1158015610aa3573d6000803e3d6000fd5b50505050610aaf612a7c565b6001600160a01b031663c7bbb113606a60009054906101000a90046001600160a01b03166001600160a01b031663aaaca5586040518163ffffffff1660e01b815260040160206040518083038186803b158015610b0b57600080fd5b505afa158015610b1f573d6000803e3d6000fd5b505050506040513d601f19601f82011682018060405250610b4391908101906142c8565b306001600160a01b031663b2016bd46040518163ffffffff1660e01b815260040160206040518083038186803b158015610b7c57600080fd5b505afa158015610b90573d6000803e3d6000fd5b505050506040513d601f19601f82011682018060405250610bb491908101906142c8565b896040518463ffffffff1660e01b8152600401610bd393929190615328565b600060405180830381600087803b158015610bed57600080fd5b505af1158015610c01573d6000803e3d6000fd5b5050506000888152606d602052604090819020600e81015460019091015491516001600160a01b03918216935091169089907f85b5516a17ce775661a4b967b1fb30c852678f6598d86d9f3c99b7b60ff2d0ce90610c60908b9061537d565b60405180910390a450506033548114610c8b5760405162461bcd60e51b81526004016105f7906155aa565b5050505050565b606e805460ff1916911515919091179055565b610cad610d4a565b15610cca5760405162461bcd60e51b81526004016105f7906155ba565b60408051808201909152601a81527f50524f564944455f434f4c4c5f544f4b454e5f414444524553530000000000006020820152610d18906001600160a01b0383169063ffffffff612af616565b610d2485858585612b23565b606780546001600160a01b0319166001600160a01b039290921691909117905550505050565b600080604051610d59906152b3565b6040519081900390205492915050565b6001600160a01b0383166000908152606c60205260409020610d8c908383613f1c565b50505050565b3415610db05760405162461bcd60e51b81526004016105f7906153ea565b8160016000828152606d60205260409020600e0154600160a01b900460ff166003811115610dda57fe5b1480610e0c575060026000828152606d60205260409020600e0154600160a01b900460ff166003811115610e0a57fe5b145b610e285760405162461bcd60e51b81526004016105f79061541a565b610e30610d4a565b610e4c5760405162461bcd60e51b81526004016105f79061557a565b610e5461276c565b15610e715760405162461bcd60e51b81526004016105f79061547a565b606a546001600160a01b0316610e86816127e6565b15610ea35760405162461bcd60e51b81526004016105f7906153ca565b6000848152606d6020908152604091829020600101548251808401909352601983527f424f52524f5745525f4c4f414e5f49445f4d49534d415443480000000000000091830191909152610f0a916001600160a01b0388811692169063ffffffff612c7416565b60008311610f2a5760405162461bcd60e51b81526004016105f79061550a565b610f348484612c9d565b846001600160a01b0316847feec2f3feb835e2f2fd44281034b04700a1ddda63dd402949d470a25a7c40b36c85604051610f6e919061537d565b60405180910390a35050505050565b6069546001600160a01b031681565b6000818152606d60205260408120600b810154600c90910154610fb49163ffffffff612cb516565b90505b919050565b606855565b60665481565b60685481565b610fd5610d4a565b610ff15760405162461bcd60e51b81526004016105f79061557a565b610ff96125ef565b6001600160a01b031663c095ea27336040518263ffffffff1660e01b815260040161102491906152d7565b60006040518083038186803b15801561103c57600080fd5b505afa158015611050573d6000803e3d6000fd5b50505050611066816001600160a01b0316612cda565b6110825760405162461bcd60e51b81526004016105f79061551a565b60695460408051808201909152601b81527f4e45575f4f5241434c455f4d5553545f42455f50524f5649444544000000000060208201526001600160a01b03909116906110d8908290849063ffffffff612d1616565b606980546001600160a01b0319166001600160a01b03848116918217909255604051909183169033907ff51f0fffc8121ee3747e0536c487d894894cdba960ccfb4ab385a88d51b16fed90600090a45050565b606b546001600160a01b031681565b606655565b600061114961276c565b806111645750606a54611164906001600160a01b03166127e6565b80611196575060026000838152606d60205260409020600e0154600160a01b900460ff16600381111561119357fe5b14155b156111a357506000610fb7565b6000828152606d6020526040812060088101546006909101549091426111cf848463ffffffff612cb516565b10905080156111e45760019350505050610fb7565b6000858152606d60205260409020600e01546001600160a01b0316801561128157806001600160a01b031663415dfa5b6040518163ffffffff1660e01b815260040160206040518083038186803b15801561123e57600080fd5b505afa158015611252573d6000803e3d6000fd5b505050506040513d601f19601f820116820180604052506112769190810190614456565b945050505050610fb7565b61128a86612932565b606001519695505050505050565b606a54604080516334f293ed60e11b815290516000926001600160a01b0316916369e527da916004808301926020929190829003018186803b1580156112dd57600080fd5b505afa1580156112f1573d6000803e3d6000fd5b505050506040513d601f19601f8201168201806040525061131591908101906142c8565b90505b90565b828a60800135101561133f5760405162461bcd60e51b81526004016105f79061545a565b60668054880190556040805161018081019091528b815260208101611369368d90038d018d61453a565b81526020018a815260200189815260200188815260200187815260200186815260200185815260200184815260200160006001600160a01b031681526020018360038111156113b457fe5b815282151560209182015260008d8152606d8252604090819020835181558383015180516001830180546001600160a01b03199081166001600160a01b0393841617909155948201516002840180548716918316919091179055818401516003808501919091556060808401516004860155608080850151600587015560a0948501516006870155958801516007860155870151600885015593860151600984015590850151600a83015560c0850151600b83015560e0850151600c830155610100850151600d830155610120850151600e830180549095169116178084556101408501519193919260ff60a01b1990911690600160a01b9084908111156114b857fe5b02179055506101609190910151600e9091018054911515600160a81b0260ff60a81b199092169190911790555050505050505050505050565b8060016000828152606d60205260409020600e0154600160a01b900460ff16600381111561151b57fe5b148061154d575060026000828152606d60205260409020600e0154600160a01b900460ff16600381111561154b57fe5b145b6115695760405162461bcd60e51b81526004016105f79061541a565b611571610d4a565b61158d5760405162461bcd60e51b81526004016105f79061557a565b61159561276c565b156115b25760405162461bcd60e51b81526004016105f79061547a565b606a546001600160a01b03166115c7816127e6565b156115e45760405162461bcd60e51b81526004016105f7906153ca565b603380546001908101918290556000858152606d6020526040902001546001600160a01b031633146116285760405162461bcd60e51b81526004016105f79061553a565b600085116116485760405162461bcd60e51b81526004016105f79061546a565b600061165385612d20565b9050600061166082612d57565b6000878152606d602052604081206009015491925090611686908363ffffffff61286b16565b9050878111156116935750865b80156116a4576116a4878233612e9c565b336001600160a01b0316877f7c5e5cb62e5ed3caf3764e4b0afedfedef533e27809d43367799787ad2abcd41836040516116de919061537d565b60405180910390a35050506033548114610c8b5760405162461bcd60e51b81526004016105f7906155aa565b600054610100900460ff16806117235750611723612ef0565b80611731575060005460ff16155b61174d5760405162461bcd60e51b81526004016105f7906154da565b600054610100900460ff16158015611778576000805460ff1961ff0019909116610100171660011790555b6001603355801561178f576000805461ff00191690555b50565b61179a613ef2565b610fb482612932565b606a546001600160a01b031681565b34156117d05760405162461bcd60e51b81526004016105f7906153ea565b6117d8610d4a565b6117f45760405162461bcd60e51b81526004016105f79061557a565b6117fc61276c565b156118195760405162461bcd60e51b81526004016105f79061547a565b61182660208501856142aa565b336001600160a01b0382161461184e5760405162461bcd60e51b81526004016105f79061552a565b61185d3686900386018661451c565b60006118676125ef565b6001600160a01b031663269012a061187d6125ef565b6001600160a01b031663d86d744e6040518163ffffffff1660e01b815260040160206040518083038186803b1580156118b557600080fd5b505afa1580156118c9573d6000803e3d6000fd5b505050506040513d601f19601f820116820180604052506118ed9190810190614492565b6001600160a01b031663cc44cadb6040518163ffffffff1660e01b815260040160206040518083038186803b15801561192557600080fd5b505afa158015611939573d6000803e3d6000fd5b505050506040513d601f19601f8201168201806040525061195d9190810190614474565b6040518263ffffffff1660e01b8152600401611979919061537d565b60206040518083038186803b15801561199157600080fd5b505afa1580156119a5573d6000803e3d6000fd5b505050506040513d601f19601f820116820180604052506119c99190810190614474565b90508160a001518110156119ef5760405162461bcd60e51b81526004016105f7906153aa565b60006119f96125ef565b6001600160a01b03166369ff7744606a60009054906101000a90046001600160a01b03166001600160a01b031663aaaca5586040518163ffffffff1660e01b815260040160206040518083038186803b158015611a5557600080fd5b505afa158015611a69573d6000803e3d6000fd5b505050506040513d601f19601f82011682018060405250611a8d91908101906142c8565b85608001516040518363ffffffff1660e01b8152600401611aaf929190615343565b60206040518083038186803b158015611ac757600080fd5b505afa158015611adb573d6000803e3d6000fd5b505050506040513d601f19601f82011682018060405250611aff9190810190614456565b90508015611b1f5760405162461bcd60e51b81526004016105f7906153da565b611b2c8360800151612ef6565b611b485760405162461bcd60e51b81526004016105f79061555a565b6000611b52613266565b606b5460405163064e5d4960e01b8152919250600091829182916001600160a01b039091169063064e5d4990611b90908f908f908f906004016155e8565b606060405180830381600087803b158015611baa57600080fd5b505af1158015611bbe573d6000803e3d6000fd5b505050506040513d601f19601f82011682018060405250611be29190810190614688565b91945092509050611c0484611bfc368f90038f018f61451c565b858585613280565b6000858152606d6020908152604091829020835181558382015180516001830180546001600160a01b03199081166001600160a01b0393841617909155938201516002840180548616918316919091179055818501516003808501919091556060808401516004860155608080850151600587015560a0948501516006870155968801516007860155870151600885015594860151600984015590850151600a83015560c0850151600b83015560e0850151600c830155610100850151600d830155610120850151600e83018054909416911617808355610140850151919391929160ff60a01b1990911690600160a01b908490811115611d0157fe5b02179055506101609190910151600e9091018054911515600160a81b0260ff60a81b199092169190911790558815611d3d57611d3d848a612c9d565b606c6000611d4e60208f018f6142aa565b6001600160a01b031681526020808201929092526040016000908120805460018101825590825291902001849055611d9884611d8f368f90038f018f61451c565b8585858e6134cf565b505050505050505050505050565b606a546040805163155594ab60e31b815290516000926001600160a01b03169163aaaca558916004808301926020929190829003018186803b1580156112dd57600080fd5b6067546001600160a01b031681565b606a54604080516361aeb27560e11b815290516000926001600160a01b03169163c35d64ea916004808301926020929190829003018186803b1580156112dd57600080fd5b8060026000828152606d60205260409020600e0154600160a01b900460ff166003811115611e6957fe5b14611e865760405162461bcd60e51b81526004016105f79061544a565b611e8e610d4a565b611eaa5760405162461bcd60e51b81526004016105f79061557a565b611eb261276c565b15611ecf5760405162461bcd60e51b81526004016105f79061547a565b606a546001600160a01b0316611ee4816127e6565b15611f015760405162461bcd60e51b81526004016105f7906153ca565b6033805460010190819055611f158461113f565b611f315760405162461bcd60e51b81526004016105f79061543a565b6000848152606d60205260408120600e8101805460ff60a01b1916600360a01b1760ff60a81b1916600160a81b1790556009015490611f6f8261359a565b9050611f7c868333612e9c565b6000611f866125ef565b6001600160a01b031663269012a0611f9c6125ef565b6001600160a01b031663d86d744e6040518163ffffffff1660e01b815260040160206040518083038186803b158015611fd457600080fd5b505afa158015611fe8573d6000803e3d6000fd5b505050506040513d601f19601f8201168201806040525061200c9190810190614492565b6001600160a01b0316631139087a6040518163ffffffff1660e01b815260040160206040518083038186803b15801561204457600080fd5b505afa158015612058573d6000803e3d6000fd5b505050506040513d601f19601f8201168201806040525061207c9190810190614474565b6040518263ffffffff1660e01b8152600401612098919061537d565b60206040518083038186803b1580156120b057600080fd5b505afa1580156120c4573d6000803e3d6000fd5b505050506040513d601f19601f820116820180604052506120e89190810190614474565b90506000612102612710610925858563ffffffff6128b616565b606a546040516382f7b02760e01b81529192506001600160a01b0316906382f7b027906121359084903390600401615618565b600060405180830381600087803b15801561214f57600080fd5b505af1158015612163573d6000803e3d6000fd5b5050506000898152606d6020526040908190206001015490516001600160a01b03909116915089907f9950a0562c02382e2e840daa73082d5be7660ce37601f28fa4c84089c11e8a06906121bc903390899087906152e5565b60405180910390a3505050506033548114610d8c5760405162461bcd60e51b81526004016105f7906155aa565b8060026000828152606d60205260409020600e0154600160a01b900460ff16600381111561221357fe5b146122305760405162461bcd60e51b81526004016105f79061544a565b612238610d4a565b6122545760405162461bcd60e51b81526004016105f79061557a565b61225c61276c565b156122795760405162461bcd60e51b81526004016105f79061547a565b606a546001600160a01b031661228e816127e6565b156122ab5760405162461bcd60e51b81526004016105f7906153ca565b6033805460010190819055846122d35760405162461bcd60e51b81526004016105f7906153ba565b8460006122df86610f8c565b9050818110156122ed578091505b6122fd818363ffffffff61286b16565b9050612309868361368e565b806123ad576000868152606d60205260409020600e8101805460ff60a01b1916600360a01b179055600981015460019091015461235290889083906001600160a01b0316612e9c565b6000878152606d6020526040908190206001015490516001600160a01b039091169088907f7c5e5cb62e5ed3caf3764e4b0afedfedef533e27809d43367799787ad2abcd41906123a390859061537d565b60405180910390a3505b606a5460405163acb7081560e01b81526001600160a01b039091169063acb70815906123df9085903390600401615618565b600060405180830381600087803b1580156123f957600080fd5b505af115801561240d573d6000803e3d6000fd5b50505050612419612a7c565b6001600160a01b03166362e269ef606a60009054906101000a90046001600160a01b03166001600160a01b031663aaaca5586040518163ffffffff1660e01b815260040160206040518083038186803b15801561247557600080fd5b505afa158015612489573d6000803e3d6000fd5b505050506040513d601f19601f820116820180604052506124ad91908101906142c8565b306001600160a01b031663b2016bd46040518163ffffffff1660e01b815260040160206040518083038186803b1580156124e657600080fd5b505afa1580156124fa573d6000803e3d6000fd5b505050506040513d601f19601f8201168201806040525061251e91908101906142c8565b856040518463ffffffff1660e01b815260040161253d93929190615328565b600060405180830381600087803b15801561255757600080fd5b505af115801561256b573d6000803e3d6000fd5b5050506000878152606d6020526040908190206001015490516001600160a01b03909116915087907f20a1f2ec363af45dc5ee7d9d622f2dd68b52501c382126c7f04b53663c4c69bf906125c490869033908790615633565b60405180910390a350506033548114610c8b5760405162461bcd60e51b81526004016105f7906155aa565b6000806000604051612600906152be565b604051908190039020549250505090565b606d602090815260009182526040918290208054835160c08101855260018301546001600160a01b03908116825260028401548116948201949094526003830154948101949094526004820154606085015260058201546080850152600682015460a0850152600782015460088301546009840154600a850154600b860154600c870154600d880154600e9098015496999895979496939592949193909281169060ff600160a01b8204811691600160a81b9004168c565b606c60205281600052604060002081815481106126e257fe5b90600052602060002001600091509150505481565b6001600160a01b0381166000908152606c602090815260409182902080548351818402810184019094528084526060939283018282801561275757602002820191906000526020600020905b815481526020019060010190808311612743575b50505050509050919050565b606e5460ff1681565b60006127766125ef565b6001600160a01b031663b187bd266040518163ffffffff1660e01b815260040160206040518083038186803b1580156127ae57600080fd5b505afa1580156127c2573d6000803e3d6000fd5b505050506040513d601f19601f820116820180604052506113159190810190614456565b60006127f06125ef565b6001600160a01b0316633b668321836040518263ffffffff1660e01b815260040161281b91906152c9565b60206040518083038186803b15801561283357600080fd5b505afa158015612847573d6000803e3d6000fd5b505050506040513d601f19601f82011682018060405250610fb49190810190614456565b60006128ad83836040518060400160405280601e81526020017f536166654d6174683a207375627472616374696f6e206f766572666c6f770000815250613749565b90505b92915050565b6000826128c5575060006128b0565b828202828482816128d257fe5b04146128ad5760405162461bcd60e51b81526004016105f79061549a565b60006128ad83836040518060400160405280601a81526020017f536166654d6174683a206469766973696f6e206279207a65726f00000000000081525061377a565b61293a613ef2565b6000828152606d60205260408120600901549080612957856137b1565b604080516080810182528681526020810193909352820181905293909311606084015250909392505050565b600061298d6125ef565b6001600160a01b031663bdd1daaa6040518163ffffffff1660e01b815260040160206040518083038186803b1580156129c557600080fd5b505afa1580156129d9573d6000803e3d6000fd5b505050506040513d601f19601f820116820180604052506129fd9190810190614492565b6001600160a01b0316634614874e30846040518363ffffffff1660e01b8152600401612a2a929190615343565b602060405180830381600087803b158015612a4457600080fd5b505af1158015612a58573d6000803e3d6000fd5b505050506040513d601f19601f82011682018060405250610fb491908101906142c8565b6000612a866125ef565b6001600160a01b0316631390f8d76040518163ffffffff1660e01b815260040160206040518083038186803b158015612abe57600080fd5b505afa158015612ad2573d6000803e3d6000fd5b505050506040513d601f19601f820116820180604052506113159190810190614492565b612aff826137d5565b8190612b1e5760405162461bcd60e51b81526004016105f79190615399565b505050565b612b2b610d4a565b15612b485760405162461bcd60e51b81526004016105f7906155ba565b60408051808201909152601681527550524f564944455f4f5241434c455f4144445245535360501b6020820152612b8f906001600160a01b0386169063ffffffff612af616565b60408051808201909152601c81527f50524f564944455f4c454e44494e475f504f4f4c5f41444452455353000000006020820152612bdd906001600160a01b0385169063ffffffff612af616565b60408051808201909152601b81527f50524f56494445445f4c4f414e5f5445524d535f4144445245535300000000006020820152612c2b906001600160a01b0384169063ffffffff612af616565b612c34816137e3565b50606980546001600160a01b039485166001600160a01b031991821617909155606a805493851693821693909317909255606b8054919093169116179055565b612c7e8383613895565b8190610d8c5760405162461bcd60e51b81526004016105f79190615399565b612ca782826138a6565b612cb133826138ff565b5050565b6000828201838110156128ad5760405162461bcd60e51b81526004016105f79061540a565b6000813f7fc5d2460186f7233c927e7db2dcc703c0e500b653ca82273b7bfad8045d85a470818114801590612d0e57508115155b949350505050565b612c7e8383613913565b600080612d2c83610f8c565b6000848152606d6020526040902060040154909150612d0e612710610925848463ffffffff6128b616565b600080612df1606a60009054906101000a90046001600160a01b03166001600160a01b031663aaaca5586040518163ffffffff1660e01b815260040160206040518083038186803b158015612dab57600080fd5b505afa158015612dbf573d6000803e3d6000fd5b505050506040513d601f19601f82011682018060405250612de391908101906142c8565b6001600160a01b0316613925565b90506000606960009054906101000a90046001600160a01b03166001600160a01b03166396237c026040518163ffffffff1660e01b815260040160206040518083038186803b158015612e4357600080fd5b505afa158015612e57573d6000803e3d6000fd5b505050506040513d601f19601f82011682018060405250612e7b9190810190614474565b90506000612e9383610925878563ffffffff6128b616565b95945050505050565b606654612eaf908363ffffffff61286b16565b6066556000838152606d6020526040902060090154612ed4908363ffffffff61286b16565b6000848152606d6020526040902060090155612b1e81836139a6565b303b1590565b600080612f016125ef565b6001600160a01b031663dc21a6a06040518163ffffffff1660e01b815260040160206040518083038186803b158015612f3957600080fd5b505afa158015612f4d573d6000803e3d6000fd5b505050506040513d601f19601f82011682018060405250612f719190810190614492565b6001600160a01b0316631fb7cec9606a60009054906101000a90046001600160a01b03166001600160a01b031663aaaca5586040518163ffffffff1660e01b815260040160206040518083038186803b158015612fcd57600080fd5b505afa158015612fe1573d6000803e3d6000fd5b505050506040513d601f19601f8201168201806040525061300591908101906142c8565b6067546040516001600160e01b031960e085901b16815261303392916001600160a01b03169060040161530d565b60206040518083038186803b15801561304b57600080fd5b505afa15801561305f573d6000803e3d6000fd5b505050506040513d601f19601f8201168201806040525061308391908101906142c8565b90506001600160a01b0381166130ab5760405162461bcd60e51b81526004016105f7906154ea565b604051632319178560e11b81526000906001600160a01b038316906346322f0a906130e9906b14dd5c1c1b1e551bd119589d60a21b9060040161537d565b60206040518083038186803b15801561310157600080fd5b505afa158015613115573d6000803e3d6000fd5b505050506040513d601f19601f820116820180604052506131399190810190614474565b90506000613145612a7c565b6001600160a01b031663db63323e606a60009054906101000a90046001600160a01b03166001600160a01b031663aaaca5586040518163ffffffff1660e01b815260040160206040518083038186803b1580156131a157600080fd5b505afa1580156131b5573d6000803e3d6000fd5b505050506040513d601f19601f820116820180604052506131d991908101906142c8565b6067546040516001600160e01b031960e085901b16815261320992916001600160a01b0316908a90600401615328565b60206040518083038186803b15801561322157600080fd5b505afa158015613235573d6000803e3d6000fd5b505050506040513d601f19601f820116820180604052506132599190810190614474565b9190911115949350505050565b60685461327a81600163ffffffff612cb516565b60685590565b613288613f67565b60006132926125ef565b6001600160a01b031663269012a06132a86125ef565b6001600160a01b031663d86d744e6040518163ffffffff1660e01b815260040160206040518083038186803b1580156132e057600080fd5b505afa1580156132f4573d6000803e3d6000fd5b505050506040513d601f19601f820116820180604052506133189190810190614492565b6001600160a01b031663e00a46156040518163ffffffff1660e01b815260040160206040518083038186803b15801561335057600080fd5b505afa158015613364573d6000803e3d6000fd5b505050506040513d601f19601f820116820180604052506133889190810190614474565b6040518263ffffffff1660e01b81526004016133a4919061537d565b60206040518083038186803b1580156133bc57600080fd5b505afa1580156133d0573d6000803e3d6000fd5b505050506040513d601f19601f820116820180604052506133f49190810190614474565b90506000613408428363ffffffff612cb516565b90506040518061018001604052808981526020016040518060c001604052808a600001516001600160a01b031681526020018a602001516001600160a01b031681526020018981526020018881526020018781526020018a60a00151815250815260200182815260200160008152602001600081526020016000815260200160008152602001600081526020016000815260200160006001600160a01b03168152602001600160038111156134b957fe5b8152600060209091015298975050505050505050565b84602001516001600160a01b031685600001516001600160a01b0316877f0358f509931cba53bbb6a94b7f05a5178220a0c7ddb54b1a1722df9e6ed6aa098787878b60a00151606d60008f81526020019081526020016000206007015460405161353d959493929190615706565b60405180910390a480156135925784600001516001600160a01b0316867feec2f3feb835e2f2fd44281034b04700a1ddda63dd402949d470a25a7c40b36c83604051613589919061537d565b60405180910390a35b505050505050565b6000806135ee606a60009054906101000a90046001600160a01b03166001600160a01b031663aaaca5586040518163ffffffff1660e01b815260040160206040518083038186803b158015612dab57600080fd5b90506000606960009054906101000a90046001600160a01b03166001600160a01b03166396237c026040518163ffffffff1660e01b815260040160206040518083038186803b15801561364057600080fd5b505afa158015613654573d6000803e3d6000fd5b505050506040513d601f19601f820116820180604052506136789190810190614474565b9050612d0e81610925868563ffffffff6128b616565b6000828152606d60205260409020600b0154811115613711576000828152606d60205260409020600b015481906136cc90829063ffffffff61286b16565b6000848152606d60205260408120600b810191909155600c01549091506136f9908263ffffffff61286b16565b6000848152606d60205260409020600c015550612cb1565b6000828152606d60205260409020600b0154613733908263ffffffff61286b16565b6000838152606d60205260409020600b01555050565b6000818484111561376d5760405162461bcd60e51b81526004016105f79190615399565b50508183035b9392505050565b6000818361379b5760405162461bcd60e51b81526004016105f79190615399565b5060008385816137a757fe5b0495945050505050565b60008060006137bf84612d20565b9050806137cb82612d57565b9250925050915091565b6001600160a01b0316151590565b6137eb610d4a565b156138085760405162461bcd60e51b81526004016105f7906155ba565b60408051808201909152601981527f53455454494e47535f4d5553545f42455f50524f5649444544000000000000006020820152613856906001600160a01b0383169063ffffffff612af616565b613868816001600160a01b0316612cda565b6138845760405162461bcd60e51b81526004016105f79061542a565b61388c6139ba565b61178f816139d8565b6001600160a01b0390811691161490565b6066546138b9908263ffffffff612cb516565b6066556000828152606d60205260409020600901546138de908263ffffffff612cb516565b6000928352606d602052604090922060098101929092555042600a90910155565b606e5460ff16612cb157612cb18282613a47565b6001600160a01b039081169116141590565b600080826001600160a01b031663313ce5676040518163ffffffff1660e01b815260040160206040518083038186803b15801561396157600080fd5b505afa158015613975573d6000803e3d6000fd5b505050506040513d601f19601f8201168201806040525061399991908101906146cb565b60ff16600a0a9392505050565b606e5460ff16612cb157612cb18282613a64565b60006040516139c8906152b3565b6040519081900390206001905550565b6139f16139e36125ef565b6001600160a01b03166137d5565b156139fb5761178f565b613a0d816001600160a01b0316612cda565b613a295760405162461bcd60e51b81526004016105f79061542a565b6000604051613a37906152be565b6040519081900390208290555050565b606754612cb1906001600160a01b0316838363ffffffff613a8116565b606754612cb1906001600160a01b0316838363ffffffff613d0016565b604051636eb1769f60e11b81526000906001600160a01b0385169063dd62ed3e90613ab2908690309060040161530d565b60206040518083038186803b158015613aca57600080fd5b505afa158015613ade573d6000803e3d6000fd5b505050506040513d601f19601f82011682018060405250613b029190810190614474565b905081811015613b245760405162461bcd60e51b81526004016105f79061559a565b6040516370a0823160e01b81526000906001600160a01b038616906370a0823190613b539030906004016152c9565b60206040518083038186803b158015613b6b57600080fd5b505afa158015613b7f573d6000803e3d6000fd5b505050506040513d601f19601f82011682018060405250613ba39190810190614474565b90506000856001600160a01b03166323b872dd8630876040518463ffffffff1660e01b8152600401613bd793929190615328565b602060405180830381600087803b158015613bf157600080fd5b505af1158015613c05573d6000803e3d6000fd5b505050506040513d601f19601f82011682018060405250613c299190810190614456565b905080613c485760405162461bcd60e51b81526004016105f7906154ba565b6040516370a0823160e01b81526000906001600160a01b038816906370a0823190613c779030906004016152c9565b60206040518083038186803b158015613c8f57600080fd5b505afa158015613ca3573d6000803e3d6000fd5b505050506040513d601f19601f82011682018060405250613cc79190810190614474565b905084613cda828563ffffffff61286b16565b14613cf75760405162461bcd60e51b81526004016105f7906154fa565b50505050505050565b6040516370a0823160e01b81526000906001600160a01b038516906370a0823190613d2f9030906004016152c9565b60206040518083038186803b158015613d4757600080fd5b505afa158015613d5b573d6000803e3d6000fd5b505050506040513d601f19601f82011682018060405250613d7f9190810190614474565b905081811015613da15760405162461bcd60e51b81526004016105f79061554a565b60405163a9059cbb60e01b81526000906001600160a01b0386169063a9059cbb90613dd29087908790600401615343565b602060405180830381600087803b158015613dec57600080fd5b505af1158015613e00573d6000803e3d6000fd5b505050506040513d601f19601f82011682018060405250613e249190810190614456565b905080613e435760405162461bcd60e51b81526004016105f79061556a565b6040516370a0823160e01b81526000906001600160a01b038716906370a0823190613e729030906004016152c9565b60206040518083038186803b158015613e8a57600080fd5b505afa158015613e9e573d6000803e3d6000fd5b505050506040513d601f19601f82011682018060405250613ec29190810190614474565b905083613ed5848363ffffffff61286b16565b146135925760405162461bcd60e51b81526004016105f7906155ca565b60405180608001604052806000815260200160008152602001600081526020016000151581525090565b828054828255906000526020600020908101928215613f57579160200282015b82811115613f57578235825591602001919060010190613f3c565b50613f63929150613fe2565b5090565b60405180610180016040528060008152602001613f82613ffc565b81526020016000815260200160008152602001600081526020016000815260200160008152602001600081526020016000815260200160006001600160a01b0316815260200160006003811115613fd557fe5b8152600060209091015290565b61131891905b80821115613f635760008155600101613fe8565b6040518060c0016040528060006001600160a01b0316815260200160006001600160a01b03168152602001600081526020016000815260200160008152602001600081525090565b80356128b08161584d565b80516128b08161584d565b60008083601f84011261406c57600080fd5b50813567ffffffffffffffff81111561408457600080fd5b6020830191508361014082028301111561409d57600080fd5b9250929050565b60008083601f8401126140b657600080fd5b50813567ffffffffffffffff8111156140ce57600080fd5b60208301915083602082028301111561409d57600080fd5b80356128b081615861565b80516128b081615861565b80356128b08161586a565b80516128b08161586a565b80516128b081615873565b80356128b08161587c565b600060e0828403121561413a57600080fd5b50919050565b600060e0828403121561415257600080fd5b61415c60e0615752565b9050600061416a8484614044565b825250602061417b84848301614044565b602083015250604061418f84828501614044565b60408301525060606141a3848285016140fc565b60608301525060806141b7848285016140fc565b60808301525060a06141cb848285016140fc565b60a08301525060c06141df848285016140fc565b60c08301525092915050565b600060c0828403121561413a57600080fd5b600060c0828403121561420f57600080fd5b61421960c0615752565b905060006142278484614044565b825250602061423884848301614044565b602083015250604061424c848285016140fc565b6040830152506060614260848285016140fc565b6060830152506080614274848285016140fc565b60808301525060a0614288848285016140fc565b60a08301525092915050565b80356128b081615889565b80516128b081615889565b6000602082840312156142bc57600080fd5b6000612d0e8484614044565b6000602082840312156142da57600080fd5b6000612d0e848461404f565b600080600080600060a086880312156142fe57600080fd5b600061430a8888614044565b955050602061431b88828901614044565b945050604061432c88828901614044565b935050606061433d88828901614044565b925050608061434e88828901614044565b9150509295509295909350565b60008060006040848603121561437057600080fd5b600061437c8686614044565b935050602084013567ffffffffffffffff81111561439957600080fd5b6143a5868287016140a4565b92509250509250925092565b600080604083850312156143c457600080fd5b60006143d08585614044565b92505060206143e1858286016140fc565b9150509250929050565b60008060006060848603121561440057600080fd5b600061440c8686614044565b935050602061441d868287016140fc565b925050604061442e868287016140fc565b9150509250925092565b60006020828403121561444a57600080fd5b6000612d0e84846140e6565b60006020828403121561446857600080fd5b6000612d0e84846140f1565b60006020828403121561448657600080fd5b6000612d0e8484614107565b6000602082840312156144a457600080fd5b6000612d0e8484614112565b60008060008061012085870312156144c757600080fd5b60006144d38787614128565b94505060e085013567ffffffffffffffff8111156144f057600080fd5b6144fc8782880161405a565b9350935050610100614510878288016140fc565b91505092959194509250565b600060e0828403121561452e57600080fd5b6000612d0e8484614140565b600060c0828403121561454c57600080fd5b6000612d0e84846141fd565b60006020828403121561456a57600080fd5b6000612d0e84846140fc565b60008060008060008060008060008060006102008c8e03121561459857600080fd5b60006145a48e8e6140fc565b9b505060206145b58e828f016141eb565b9a505060e06145c68e828f016140fc565b9950506101006145d88e828f016140fc565b9850506101206145ea8e828f016140fc565b9750506101406145fc8e828f016140fc565b96505061016061460e8e828f016140fc565b9550506101806146208e828f016140fc565b9450506101a06146328e828f016140fc565b9350506101c06146448e828f0161411d565b9250506101e06146568e828f016140e6565b9150509295989b509295989b9093969950565b6000806040838503121561467c57600080fd5b60006143d085856140fc565b60008060006060848603121561469d57600080fd5b60006146a98686614107565b93505060206146ba86828701614107565b925050604061442e86828701614107565b6000602082840312156146dd57600080fd5b6000612d0e848461429f565b60006146f58383615116565b50506101400190565b600061470a83836147d9565b505060200190565b61471b816157f7565b82525050565b61471b816157c0565b6000614736838561578a565b935061474182611318565b8060005b85811015614777576147578284613f63565b61476188826146e9565b975061476c83615783565b925050600101614745565b509495945050505050565b600061478d8261577f565b614797818561578a565b93506147a283615779565b8060005b838110156147775781516147ba88826146fe565b97506147c583615779565b9250506001016147a6565b61471b816157cb565b61471b81611318565b61471b816157d0565b61471b81615802565b60006147ff8261577f565b614809818561578a565b935061481981856020860161580d565b61482281615839565b9093019392505050565b6000614839601d8361578a565b7f4455524154494f4e5f455843454544535f4d41585f4455524154494f4e000000815260200192915050565b6000614872601c83610fb7565b7f54496e697469616c697a61626c652e6973496e697469616c697a6564000000008152601c0192915050565b60006148ab60158361578a565b74105353d5539517d59053155157d491545552549151605a1b815260200192915050565b60006148dc60168361578a565b7513115391125391d7d413d3d317d254d7d4105554d15160521b815260200192915050565b600061490e60198361578a565b7f414d4f554e545f455843454544535f4d41585f414d4f554e5400000000000000815260200192915050565b6000614947601e8361578a565b7f544f4b454e5f4c4f414e535f56414c55455f4d5553545f42455f5a45524f0000815260200192915050565b600061498060118361578a565b7013505617d313d05397d15610d151511151607a1b815260200192915050565b60006149ad601b8361578a565b7f536166654d6174683a206164646974696f6e206f766572666c6f770000000000815260200192915050565b60006149e660168361578a565b751313d05397d393d517d050d512559157d3d497d4d15560521b815260200192915050565b6000614a18601b8361578a565b7f53455454494e47535f4d5553545f42455f415f434f4e54524143540000000000815260200192915050565b6000614a5160178361578a565b7f444f45534e545f4e4545445f4c49515549444154494f4e000000000000000000815260200192915050565b6000614a8a600f8361578a565b6e4c4f414e5f4e4f545f41435449564560881b815260200192915050565b6000614ab5601b8361578a565b7f424f52524f5745445f414d4f554e545f455843454544535f4d41580000000000815260200192915050565b6000614aee60148361578a565b7343414e4e4f545f57495448445241575f5a45524f60601b815260200192915050565b6000614b1e60128361578a565b71141310551193d49357d254d7d4105554d15160721b815260200192915050565b6000614b4c60188361578a565b7f4d4f52455f434f4c4c41544552414c5f52455155495245440000000000000000815260200192915050565b6000614b8560218361578a565b7f536166654d6174683a206d756c7469706c69636174696f6e206f766572666c6f8152607760f81b602082015260400192915050565b6000614bc8601d8361578a565b7f434f4c4c41544552414c5f4445504f53495445445f524543454e544c59000000815260200192915050565b6000614c01601b8361578a565b7f544f4b454e535f5452414e534645525f46524f4d5f4641494c45440000000000815260200192915050565b6000614c3a60128361578a565b711313d05397d511549354d7d156141254915160721b815260200192915050565b6000614c68602e8361578a565b7f436f6e747261637420696e7374616e63652068617320616c726561647920626581526d195b881a5b9a5d1a585b1a5e995960921b602082015260400192915050565b6000614cb860188361578a565b7f41544d5f4e4f545f464f554e445f464f525f4d41524b45540000000000000000815260200192915050565b6000614cf1601f8361578a565b7f494e565f42414c414e43455f41465445525f5452414e534645525f46524f4d00815260200192915050565b6000614d2a60138361578a565b7243414e4e4f545f4445504f5349545f5a45524f60681b815260200192915050565b6000614d59601e8361578a565b7f4f5241434c455f4d5553545f434f4e54524143545f4e4f545f454d5054590000815260200192915050565b6000614d9260178361578a565b7f424f52524f5745525f4d5553545f42455f53454e444552000000000000000000815260200192915050565b6000614dcb60168361578a565b7521a0a62622a92fa227a2a9a72a2fa7aba72fa627a0a760511b815260200192915050565b6000614dfd60198361578a565b7f4e4f545f454e4f5547485f544f4b454e535f42414c414e434500000000000000815260200192915050565b6000614e36601883610fb7565b7f426173655570677261646561626c652e73657474696e67730000000000000000815260180192915050565b6000614e6f601a8361578a565b7f535550504c595f544f5f444542545f455843454544535f4d4158000000000000815260200192915050565b6000614ea860168361578a565b751513d2d15394d7d514905394d1915497d1905253115160521b815260200192915050565b6000614eda60188361578a565b7f434f4e54524143545f4e4f545f494e495449414c495a45440000000000000000815260200192915050565b6000614f13600c8361578a565b6b1313d05397d393d517d4d15560a21b815260200192915050565b6000614f3b601b8361578a565b7f4e4f545f454e4f5547485f544f4b454e535f414c4c4f57414e43450000000000815260200192915050565b6000614f74601f8361578a565b7f5265656e7472616e637947756172643a207265656e7472616e742063616c6c00815260200192915050565b6000614fad601c8361578a565b7f434f4e54524143545f414c52454144595f494e495449414c495a454400000000815260200192915050565b6000614fe6601a8361578a565b7f494e565f42414c414e43455f41465445525f5452414e53464552000000000000815260200192915050565b8051608083019061502384826147d9565b50602082015161503660208501826147d9565b50604082015161504960408501826147d9565b506060820151610d8c60608501826147d0565b60e0820161506a8280615793565b6150748482614721565b506150826020830183615793565b61508f6020850182614721565b5061509d6040830183615793565b6150aa6040850182614721565b506150b860608301836157a2565b6150c560608501826147d9565b506150d360808301836157a2565b6150e060808501826147d9565b506150ee60a08301836157a2565b6150fb60a08501826147d9565b5061510960c08301836157a2565b610d8c60c08501826147d9565b61014082016151258280615793565b61512f8482614721565b5061513d6020830183615793565b61514a6020850182614721565b5061515860408301836157a2565b61516560408501826147d9565b5061517360608301836157a2565b61518060608501826147d9565b5061518e60808301836157a2565b61519b60808501826147d9565b506151a960a08301836157a2565b6151b660a08501826147d9565b506151c460c0830183613f63565b610d8c60c0850182615241565b805160c08301906151e28482614721565b5060208201516151f56020850182614721565b50604082015161520860408501826147d9565b50606082015161521b60608501826147d9565b50608082015161522e60808501826147d9565b5060a0820151610d8c60a08501826147d9565b6080820161524f82806157a2565b61525984826147d9565b5061526760208301836157b1565b61527460208501826152aa565b5061528260408301836157a2565b61528f60408501826147d9565b5061529d60608301836157a2565b610d8c60608501826147d9565b61471b816157f1565b60006128b082614865565b60006128b082614e29565b602081016128b08284614721565b602081016128b08284614712565b606081016152f38286614712565b61530060208301856147d9565b612d0e60408301846147d9565b6040810161531b8285614721565b6137736020830184614721565b606081016153368286614721565b6153006020830185614721565b604081016153518285614721565b61377360208301846147d9565b602080825281016128ad8184614782565b602081016128b082846147d0565b602081016128b082846147d9565b602081016128b082846147e2565b602080825281016128ad81846147f4565b60208082528101610fb48161482c565b60208082528101610fb48161489e565b60208082528101610fb4816148cf565b60208082528101610fb481614901565b60208082528101610fb48161493a565b60208082528101610fb481614973565b60208082528101610fb4816149a0565b60208082528101610fb4816149d9565b60208082528101610fb481614a0b565b60208082528101610fb481614a44565b60208082528101610fb481614a7d565b60208082528101610fb481614aa8565b60208082528101610fb481614ae1565b60208082528101610fb481614b11565b60208082528101610fb481614b3f565b60208082528101610fb481614b78565b60208082528101610fb481614bbb565b60208082528101610fb481614bf4565b60208082528101610fb481614c2d565b60208082528101610fb481614c5b565b60208082528101610fb481614cab565b60208082528101610fb481614ce4565b60208082528101610fb481614d1d565b60208082528101610fb481614d4c565b60208082528101610fb481614d85565b60208082528101610fb481614dbe565b60208082528101610fb481614df0565b60208082528101610fb481614e62565b60208082528101610fb481614e9b565b60208082528101610fb481614ecd565b60208082528101610fb481614f06565b60208082528101610fb481614f2e565b60208082528101610fb481614f67565b60208082528101610fb481614fa0565b60208082528101610fb481614fd9565b608081016128b08284615012565b61010081016155f7828661505c565b81810360e0830152612e9381848661472a565b6040810161531b82856147d9565b6040810161562682856147d9565b6137736020830184614712565b6060810161564182866147d9565b6153006020830185614712565b610220810161565d828f6147d9565b61566a602083018e6151d1565b61567760e083018d6147d9565b61568561010083018c6147d9565b61569361012083018b6147d9565b6156a161014083018a6147d9565b6156af6101608301896147d9565b6156bd6101808301886147d9565b6156cb6101a08301876147d9565b6156d96101c0830186614721565b6156e76101e08301856147eb565b6156f56102008301846147d0565b9d9c50505050505050505050505050565b60a0810161571482886147d9565b61572160208301876147d9565b61572e60408301866147d9565b61573b60608301856147d9565b61574860808301846147d9565b9695505050505050565b60405181810167ffffffffffffffff8111828210171561577157600080fd5b604052919050565b60200190565b5190565b6101400190565b90815260200190565b60006128ad6020840184614044565b60006128ad60208401846140fc565b60006128ad6020840184614294565b6000610fb4826157e5565b151590565b6000610fb4826157c0565b80610fb781615843565b6001600160a01b031690565b60ff1690565b6000610fb4826157d0565b6000610fb4826157db565b60005b83811015615828578181015183820152602001615810565b83811115610d8c5750506000910152565b601f01601f191690565b6004811061178f57fe5b615856816157c0565b811461178f57600080fd5b615856816157cb565b61585681611318565b615856816157d0565b6004811061178f57600080fd5b615856816157f156fea365627a7a72315820369cd5ddcaba3017bbf3fdbe717c08b9f647a44ed6eec845cab16321c6ba92e36c6578706572696d656e74616cf564736f6c63430005110040",
  "source": "pragma solidity 0.5.17;\npragma experimental ABIEncoderV2;\n\nimport \"../../base/TokenCollateralLoans.sol\";\n\ncontract TokenCollateralLoansMock is TokenCollateralLoans {\n    bool public mockTokenFunctions;\n\n    function setMockTokenFunctions(bool newMockTokenFunctions) external {\n        mockTokenFunctions = newMockTokenFunctions;\n    }\n\n    function setLoanIDCounter(uint256 newLoanIdCounter) external {\n        loanIDCounter = newLoanIdCounter;\n    }\n\n    function setBorrowerLoans(address borrower, uint256[] calldata loanIDs) external {\n        borrowerLoans[borrower] = loanIDs;\n    }\n\n    function setTotalCollateral(uint256 amount) external {\n        totalCollateral = amount;\n    }\n\n    function setLoan(\n        uint256 id,\n        TellerCommon.LoanTerms calldata loanTerms,\n        uint256 termsExpiry,\n        uint256 loanStartTime,\n        uint256 collateral,\n        uint256 lastCollateralIn,\n        uint256 principalOwed,\n        uint256 interestOwed,\n        uint256 borrowedAmount,\n        TellerCommon.LoanStatus status,\n        bool liquidated\n    ) external {\n        require(loanTerms.maxLoanAmount >= borrowedAmount, \"BORROWED_AMOUNT_EXCEEDS_MAX\");\n        totalCollateral += collateral;\n        loans[id] = TellerCommon.Loan({\n            id: id,\n            loanTerms: loanTerms,\n            termsExpiry: termsExpiry,\n            loanStartTime: loanStartTime,\n            collateral: collateral,\n            lastCollateralIn: lastCollateralIn,\n            principalOwed: principalOwed,\n            interestOwed: interestOwed,\n            borrowedAmount: borrowedAmount,\n            escrow: address(0x0),\n            status: status,\n            liquidated: liquidated\n        });\n    }\n\n    function _collateralTokenTransfer(address recipient, uint256 amount) internal {\n        if (!mockTokenFunctions) {\n            super._collateralTokenTransfer(recipient, amount);\n        }\n    }\n\n    function _collateralTokenTransferFrom(address from, uint256 amount) internal {\n        if (!mockTokenFunctions) {\n            super._collateralTokenTransferFrom(from, amount);\n        }\n    }\n}\n",
  "sourcePath": "/Users/sy/Documents/GitHub/teller-protocol-v1/contracts/mock/base/TokenCollateralLoansMock.sol",
  "compiler": {
    "name": "solc",
    "version": "0.5.17+commit.d19bba13.Emscripten.clang"
  },
  "schemaVersion": "3.0.23",
  "updatedAt": "2020-09-16T17:44:36.725Z",
  "devdoc": {
    "methods": {
      "cToken()": {
        "return": "Address of the cToken"
      },
      "canLiquidateLoan(uint256)": {
        "params": {
          "loanID": "The ID of the loan to check"
        },
        "return": "bool weather the loan can be liquidated"
      },
      "createLoanWithTerms((address,address,address,uint256,uint256,uint256,uint256),(address,address,uint256,uint256,uint256,uint256,(uint256,uint8,bytes32,bytes32))[],uint256)": {
        "params": {
          "collateralAmount": "Amount of collateral required for the loan",
          "request": "Struct of the protocol loan request",
          "responses": "List of structs of the protocol loan responses"
        }
      },
      "depositCollateral(address,uint256,uint256)": {
        "params": {
          "amount": "The amount to deposit as collateral.",
          "borrower": "The address of the loan borrower.",
          "loanID": "The ID of the loan the collateral is for"
        }
      },
      "getBorrowerLoans(address)": {
        "params": {
          "borrower": "The borrower's address"
        }
      },
      "getCollateralInfo(uint256)": {
        "params": {
          "loanID": "of the loan to get info for"
        },
        "return": "memory TellerCommon.LoanCollateralInfo Collateral information of the loan"
      },
      "getTotalOwed(uint256)": {
        "params": {
          "loanID": "The ID of the loan to be queried"
        },
        "return": "uint256 The total amount owed remaining"
      },
      "initialize(address,address,address,address,address)": {
        "params": {
          "collateralTokenAddress": "Contract address for the collateral token.",
          "lendingPoolAddress": "Contract address of the lending pool",
          "loanTermsConsensusAddress": "Contract adddress for loan term consensus",
          "priceOracleAddress": "Contract address of the price oracle",
          "settingsAddress": "Contract address for the configuration of the platform"
        }
      },
      "initialized()": {
        "return": "true if contract is initialized. Otherwise it returns false."
      },
      "lendingToken()": {
        "return": "Address of the lending token"
      },
      "liquidateLoan(uint256)": {
        "params": {
          "loanID": "The ID of the loan to be liquidated"
        }
      },
      "repay(uint256,uint256)": {
        "params": {
          "amount": "The amount of tokens to pay back to the loan",
          "loanID": "The ID of the loan the payment is for"
        }
      },
      "setPriceOracle(address)": {
        "details": "It throws a require error if sender is not allowed.It throws a require error if new address is empty (0x0) or not a contract.",
        "params": {
          "newPriceOracle": "the new price oracle address."
        }
      },
      "settings()": {
        "details": "This address should NOT change over the time. See details in the _setSettings(...) function."
      },
      "tToken()": {
        "return": "Address of the tToken"
      },
      "takeOutLoan(uint256,uint256)": {
        "details": "collateral ratio is a percentage of the loan amount that's required in collateralthe percentage will be *(10**2). I.e. collateralRatio of 5244 means 52.44% collateralis required in the loan. Interest rate is also a percentage with 2 decimal points."
      },
      "withdrawCollateral(uint256,uint256)": {
        "params": {
          "amount": "The amount of collateral token or ether the caller is hoping to withdraw.",
          "loanID": "The ID of the loan the collateral is for"
        }
      }
    }
  },
  "userdoc": {
    "methods": {
      "cToken()": {
        "notice": "Returns the cToken in the lending pool"
      },
      "canLiquidateLoan(uint256)": {
        "notice": "A loan can be liquidated if it is: under collateralized or expired"
      },
      "createLoanWithTerms((address,address,address,uint256,uint256,uint256,uint256),(address,address,uint256,uint256,uint256,uint256,(uint256,uint8,bytes32,bytes32))[],uint256)": {
        "notice": "Creates a loan with the loan request and terms"
      },
      "depositCollateral(address,uint256,uint256)": {
        "notice": "Deposit collateral tokens into a loan."
      },
      "getBorrowerLoans(address)": {
        "notice": "Get a list of all loans for a borrower"
      },
      "getCollateralInfo(uint256)": {
        "notice": "Get collateral information of a specific loan"
      },
      "getTotalOwed(uint256)": {
        "notice": "Returns the total owed amount remaining for a specified loan"
      },
      "initialize(address,address,address,address,address)": {
        "notice": "Initializes the current contract instance setting the required parameters, if allowed"
      },
      "initialized()": {
        "notice": "Gets if the contract is initialized."
      },
      "lendingToken()": {
        "notice": "Returns the lending token in the lending pool"
      },
      "liquidateLoan(uint256)": {
        "notice": "Liquidate a loan if it is expired or under collateralized"
      },
      "repay(uint256,uint256)": {
        "notice": "Make a payment to a loan"
      },
      "setPriceOracle(address)": {
        "notice": "Updates the current price oracle instance."
      },
      "settings()": {
        "notice": "The gets the settings contract address from the SETTINGS_SLOT."
      },
      "tToken()": {
        "notice": "Returns the tToken in the lending pool"
      },
      "takeOutLoan(uint256,uint256)": {
        "notice": "Take out a loan"
      },
      "withdrawCollateral(uint256,uint256)": {
        "notice": "Withdraw collateral from a loan, unless this isn't allowed"
      }
    }
  }
}