{
  "contractName": "TokenCollateralLoans",
  "abi": [
    {
      "anonymous": false,
      "inputs": [
        {
          "indexed": true,
          "internalType": "uint256",
          "name": "loanID",
          "type": "uint256"
        },
        {
          "indexed": true,
          "internalType": "address",
          "name": "borrower",
          "type": "address"
        },
        {
          "indexed": false,
          "internalType": "uint256",
          "name": "depositAmount",
          "type": "uint256"
        }
      ],
      "name": "CollateralDeposited",
      "type": "event"
    },
    {
      "anonymous": false,
      "inputs": [
        {
          "indexed": true,
          "internalType": "uint256",
          "name": "loanID",
          "type": "uint256"
        },
        {
          "indexed": true,
          "internalType": "address",
          "name": "borrower",
          "type": "address"
        },
        {
          "indexed": false,
          "internalType": "uint256",
          "name": "withdrawalAmount",
          "type": "uint256"
        }
      ],
      "name": "CollateralWithdrawn",
      "type": "event"
    },
    {
      "anonymous": false,
      "inputs": [
        {
          "indexed": true,
          "internalType": "uint256",
          "name": "loanID",
          "type": "uint256"
        },
        {
          "indexed": true,
          "internalType": "address",
          "name": "borrower",
          "type": "address"
        },
        {
          "indexed": false,
          "internalType": "address",
          "name": "liquidator",
          "type": "address"
        },
        {
          "indexed": false,
          "internalType": "uint256",
          "name": "collateralOut",
          "type": "uint256"
        },
        {
          "indexed": false,
          "internalType": "uint256",
          "name": "tokensIn",
          "type": "uint256"
        }
      ],
      "name": "LoanLiquidated",
      "type": "event"
    },
    {
      "anonymous": false,
      "inputs": [
        {
          "indexed": true,
          "internalType": "uint256",
          "name": "loanID",
          "type": "uint256"
        },
        {
          "indexed": true,
          "internalType": "address",
          "name": "borrower",
          "type": "address"
        },
        {
          "indexed": false,
          "internalType": "uint256",
          "name": "amountPaid",
          "type": "uint256"
        },
        {
          "indexed": false,
          "internalType": "address",
          "name": "payer",
          "type": "address"
        },
        {
          "indexed": false,
          "internalType": "uint256",
          "name": "totalOwed",
          "type": "uint256"
        }
      ],
      "name": "LoanRepaid",
      "type": "event"
    },
    {
      "anonymous": false,
      "inputs": [
        {
          "indexed": true,
          "internalType": "uint256",
          "name": "loanID",
          "type": "uint256"
        },
        {
          "indexed": true,
          "internalType": "address",
          "name": "borrower",
          "type": "address"
        },
        {
          "indexed": true,
          "internalType": "address",
          "name": "escrow",
          "type": "address"
        },
        {
          "indexed": false,
          "internalType": "uint256",
          "name": "amountBorrowed",
          "type": "uint256"
        }
      ],
      "name": "LoanTakenOut",
      "type": "event"
    },
    {
      "anonymous": false,
      "inputs": [
        {
          "indexed": true,
          "internalType": "uint256",
          "name": "loanID",
          "type": "uint256"
        },
        {
          "indexed": true,
          "internalType": "address",
          "name": "borrower",
          "type": "address"
        },
        {
          "indexed": true,
          "internalType": "address",
          "name": "recipient",
          "type": "address"
        },
        {
          "indexed": false,
          "internalType": "uint256",
          "name": "interestRate",
          "type": "uint256"
        },
        {
          "indexed": false,
          "internalType": "uint256",
          "name": "collateralRatio",
          "type": "uint256"
        },
        {
          "indexed": false,
          "internalType": "uint256",
          "name": "maxLoanAmount",
          "type": "uint256"
        },
        {
          "indexed": false,
          "internalType": "uint256",
          "name": "duration",
          "type": "uint256"
        },
        {
          "indexed": false,
          "internalType": "uint256",
          "name": "termsExpiry",
          "type": "uint256"
        }
      ],
      "name": "LoanTermsSet",
      "type": "event"
    },
    {
      "anonymous": false,
      "inputs": [
        {
          "indexed": true,
          "internalType": "address",
          "name": "sender",
          "type": "address"
        },
        {
          "indexed": true,
          "internalType": "address",
          "name": "oldPriceOracle",
          "type": "address"
        },
        {
          "indexed": true,
          "internalType": "address",
          "name": "newPriceOracle",
          "type": "address"
        }
      ],
      "name": "PriceOracleUpdated",
      "type": "event"
    },
    {
      "constant": true,
      "inputs": [
        {
          "internalType": "address",
          "name": "",
          "type": "address"
        },
        {
          "internalType": "uint256",
          "name": "",
          "type": "uint256"
        }
      ],
      "name": "borrowerLoans",
      "outputs": [
        {
          "internalType": "uint256",
          "name": "",
          "type": "uint256"
        }
      ],
      "payable": false,
      "stateMutability": "view",
      "type": "function"
    },
    {
      "constant": true,
      "inputs": [],
      "name": "cToken",
      "outputs": [
        {
          "internalType": "address",
          "name": "",
          "type": "address"
        }
      ],
      "payable": false,
      "stateMutability": "view",
      "type": "function"
    },
    {
      "constant": true,
      "inputs": [
        {
          "internalType": "uint256",
          "name": "loanID",
          "type": "uint256"
        }
      ],
      "name": "canLiquidateLoan",
      "outputs": [
        {
          "internalType": "bool",
          "name": "",
          "type": "bool"
        }
      ],
      "payable": false,
      "stateMutability": "view",
      "type": "function"
    },
    {
      "constant": true,
      "inputs": [],
      "name": "collateralToken",
      "outputs": [
        {
          "internalType": "address",
          "name": "",
          "type": "address"
        }
      ],
      "payable": false,
      "stateMutability": "view",
      "type": "function"
    },
    {
      "constant": true,
      "inputs": [
        {
          "internalType": "address",
          "name": "borrower",
          "type": "address"
        }
      ],
      "name": "getBorrowerLoans",
      "outputs": [
        {
          "internalType": "uint256[]",
          "name": "",
          "type": "uint256[]"
        }
      ],
      "payable": false,
      "stateMutability": "view",
      "type": "function"
    },
    {
      "constant": true,
      "inputs": [
        {
          "internalType": "uint256",
          "name": "loanID",
          "type": "uint256"
        }
      ],
      "name": "getCollateralInfo",
      "outputs": [
        {
          "components": [
            {
              "internalType": "uint256",
              "name": "collateral",
              "type": "uint256"
            },
            {
              "internalType": "uint256",
              "name": "neededInLendingTokens",
              "type": "uint256"
            },
            {
              "internalType": "uint256",
              "name": "neededInCollateralTokens",
              "type": "uint256"
            },
            {
              "internalType": "bool",
              "name": "moreCollateralRequired",
              "type": "bool"
            }
          ],
          "internalType": "struct TellerCommon.LoanCollateralInfo",
          "name": "",
          "type": "tuple"
        }
      ],
      "payable": false,
      "stateMutability": "view",
      "type": "function"
    },
    {
      "constant": true,
      "inputs": [
        {
          "internalType": "uint256",
          "name": "loanID",
          "type": "uint256"
        }
      ],
      "name": "getLiquidationInfo",
      "outputs": [
        {
          "components": [
            {
              "internalType": "uint256",
              "name": "collateral",
              "type": "uint256"
            },
            {
              "internalType": "uint256",
              "name": "collateralInTokens",
              "type": "uint256"
            },
            {
              "internalType": "uint256",
              "name": "amountToLiquidate",
              "type": "uint256"
            },
            {
              "internalType": "bool",
              "name": "liquidable",
              "type": "bool"
            }
          ],
          "internalType": "struct TellerCommon.LoanLiquidationInfo",
          "name": "liquidationInfo",
          "type": "tuple"
        }
      ],
      "payable": false,
      "stateMutability": "view",
      "type": "function"
    },
    {
      "constant": true,
      "inputs": [
        {
          "internalType": "uint256",
          "name": "loanID",
          "type": "uint256"
        }
      ],
      "name": "getTotalOwed",
      "outputs": [
        {
          "internalType": "uint256",
          "name": "",
          "type": "uint256"
        }
      ],
      "payable": false,
      "stateMutability": "view",
      "type": "function"
    },
    {
      "constant": true,
      "inputs": [],
      "name": "initialized",
      "outputs": [
        {
          "internalType": "bool",
          "name": "value",
          "type": "bool"
        }
      ],
      "payable": false,
      "stateMutability": "view",
      "type": "function"
    },
    {
      "constant": true,
      "inputs": [
        {
          "internalType": "uint256",
          "name": "loanID",
          "type": "uint256"
        }
      ],
      "name": "isLoanSecured",
      "outputs": [
        {
          "internalType": "bool",
          "name": "",
          "type": "bool"
        }
      ],
      "payable": false,
      "stateMutability": "view",
      "type": "function"
    },
    {
      "constant": true,
      "inputs": [],
      "name": "lendingPool",
      "outputs": [
        {
          "internalType": "contract LendingPoolInterface",
          "name": "",
          "type": "address"
        }
      ],
      "payable": false,
      "stateMutability": "view",
      "type": "function"
    },
    {
      "constant": true,
      "inputs": [],
      "name": "lendingToken",
      "outputs": [
        {
          "internalType": "address",
          "name": "",
          "type": "address"
        }
      ],
      "payable": false,
      "stateMutability": "view",
      "type": "function"
    },
    {
      "constant": false,
      "inputs": [
        {
          "internalType": "uint256",
          "name": "loanID",
          "type": "uint256"
        }
      ],
      "name": "liquidateLoan",
      "outputs": [],
      "payable": false,
      "stateMutability": "nonpayable",
      "type": "function"
    },
    {
      "constant": true,
      "inputs": [],
      "name": "loanIDCounter",
      "outputs": [
        {
          "internalType": "uint256",
          "name": "",
          "type": "uint256"
        }
      ],
      "payable": false,
      "stateMutability": "view",
      "type": "function"
    },
    {
      "constant": true,
      "inputs": [],
      "name": "loanTermsConsensus",
      "outputs": [
        {
          "internalType": "contract LoanTermsConsensusInterface",
          "name": "",
          "type": "address"
        }
      ],
      "payable": false,
      "stateMutability": "view",
      "type": "function"
    },
    {
      "constant": true,
      "inputs": [
        {
          "internalType": "uint256",
          "name": "",
          "type": "uint256"
        }
      ],
      "name": "loans",
      "outputs": [
        {
          "internalType": "uint256",
          "name": "id",
          "type": "uint256"
        },
        {
          "components": [
            {
              "internalType": "address payable",
              "name": "borrower",
              "type": "address"
            },
            {
              "internalType": "address",
              "name": "recipient",
              "type": "address"
            },
            {
              "internalType": "uint256",
              "name": "interestRate",
              "type": "uint256"
            },
            {
              "internalType": "uint256",
              "name": "collateralRatio",
              "type": "uint256"
            },
            {
              "internalType": "uint256",
              "name": "maxLoanAmount",
              "type": "uint256"
            },
            {
              "internalType": "uint256",
              "name": "duration",
              "type": "uint256"
            }
          ],
          "internalType": "struct TellerCommon.LoanTerms",
          "name": "loanTerms",
          "type": "tuple"
        },
        {
          "internalType": "uint256",
          "name": "termsExpiry",
          "type": "uint256"
        },
        {
          "internalType": "uint256",
          "name": "loanStartTime",
          "type": "uint256"
        },
        {
          "internalType": "uint256",
          "name": "collateral",
          "type": "uint256"
        },
        {
          "internalType": "uint256",
          "name": "lastCollateralIn",
          "type": "uint256"
        },
        {
          "internalType": "uint256",
          "name": "principalOwed",
          "type": "uint256"
        },
        {
          "internalType": "uint256",
          "name": "interestOwed",
          "type": "uint256"
        },
        {
          "internalType": "uint256",
          "name": "borrowedAmount",
          "type": "uint256"
        },
        {
          "internalType": "address",
          "name": "escrow",
          "type": "address"
        },
        {
          "internalType": "enum TellerCommon.LoanStatus",
          "name": "status",
          "type": "uint8"
        },
        {
          "internalType": "bool",
          "name": "liquidated",
          "type": "bool"
        }
      ],
      "payable": false,
      "stateMutability": "view",
      "type": "function"
    },
    {
      "constant": true,
      "inputs": [],
      "name": "priceOracle",
      "outputs": [
        {
          "internalType": "address",
          "name": "",
          "type": "address"
        }
      ],
      "payable": false,
      "stateMutability": "view",
      "type": "function"
    },
    {
      "constant": false,
      "inputs": [
        {
          "internalType": "uint256",
          "name": "amount",
          "type": "uint256"
        },
        {
          "internalType": "uint256",
          "name": "loanID",
          "type": "uint256"
        }
      ],
      "name": "repay",
      "outputs": [],
      "payable": false,
      "stateMutability": "nonpayable",
      "type": "function"
    },
    {
      "constant": false,
      "inputs": [
        {
          "internalType": "address",
          "name": "newPriceOracle",
          "type": "address"
        }
      ],
      "name": "setPriceOracle",
      "outputs": [],
      "payable": false,
      "stateMutability": "nonpayable",
      "type": "function"
    },
    {
      "constant": true,
      "inputs": [],
      "name": "settings",
      "outputs": [
        {
          "internalType": "contract SettingsInterface",
          "name": "",
          "type": "address"
        }
      ],
      "payable": false,
      "stateMutability": "view",
      "type": "function"
    },
    {
      "constant": true,
      "inputs": [],
      "name": "tToken",
      "outputs": [
        {
          "internalType": "address",
          "name": "",
          "type": "address"
        }
      ],
      "payable": false,
      "stateMutability": "view",
      "type": "function"
    },
    {
      "constant": false,
      "inputs": [
        {
          "internalType": "uint256",
          "name": "loanID",
          "type": "uint256"
        },
        {
          "internalType": "uint256",
          "name": "amountBorrow",
          "type": "uint256"
        }
      ],
      "name": "takeOutLoan",
      "outputs": [],
      "payable": false,
      "stateMutability": "nonpayable",
      "type": "function"
    },
    {
      "constant": true,
      "inputs": [],
      "name": "totalCollateral",
      "outputs": [
        {
          "internalType": "uint256",
          "name": "",
          "type": "uint256"
        }
      ],
      "payable": false,
      "stateMutability": "view",
      "type": "function"
    },
    {
      "constant": false,
      "inputs": [
        {
          "internalType": "uint256",
          "name": "amount",
          "type": "uint256"
        },
        {
          "internalType": "uint256",
          "name": "loanID",
          "type": "uint256"
        }
      ],
      "name": "withdrawCollateral",
      "outputs": [],
      "payable": false,
      "stateMutability": "nonpayable",
      "type": "function"
    },
    {
      "constant": false,
      "inputs": [
        {
          "internalType": "address",
          "name": "borrower",
          "type": "address"
        },
        {
          "internalType": "uint256",
          "name": "loanID",
          "type": "uint256"
        },
        {
          "internalType": "uint256",
          "name": "amount",
          "type": "uint256"
        }
      ],
      "name": "depositCollateral",
      "outputs": [],
      "payable": true,
      "stateMutability": "payable",
      "type": "function"
    },
    {
      "constant": false,
      "inputs": [
        {
          "components": [
            {
              "internalType": "address payable",
              "name": "borrower",
              "type": "address"
            },
            {
              "internalType": "address",
              "name": "recipient",
              "type": "address"
            },
            {
              "internalType": "address",
              "name": "consensusAddress",
              "type": "address"
            },
            {
              "internalType": "uint256",
              "name": "requestNonce",
              "type": "uint256"
            },
            {
              "internalType": "uint256",
              "name": "amount",
              "type": "uint256"
            },
            {
              "internalType": "uint256",
              "name": "duration",
              "type": "uint256"
            },
            {
              "internalType": "uint256",
              "name": "requestTime",
              "type": "uint256"
            }
          ],
          "internalType": "struct TellerCommon.LoanRequest",
          "name": "request",
          "type": "tuple"
        },
        {
          "components": [
            {
              "internalType": "address",
              "name": "signer",
              "type": "address"
            },
            {
              "internalType": "address",
              "name": "consensusAddress",
              "type": "address"
            },
            {
              "internalType": "uint256",
              "name": "responseTime",
              "type": "uint256"
            },
            {
              "internalType": "uint256",
              "name": "interestRate",
              "type": "uint256"
            },
            {
              "internalType": "uint256",
              "name": "collateralRatio",
              "type": "uint256"
            },
            {
              "internalType": "uint256",
              "name": "maxLoanAmount",
              "type": "uint256"
            },
            {
              "components": [
                {
                  "internalType": "uint256",
                  "name": "signerNonce",
                  "type": "uint256"
                },
                {
                  "internalType": "uint8",
                  "name": "v",
                  "type": "uint8"
                },
                {
                  "internalType": "bytes32",
                  "name": "r",
                  "type": "bytes32"
                },
                {
                  "internalType": "bytes32",
                  "name": "s",
                  "type": "bytes32"
                }
              ],
              "internalType": "struct TellerCommon.Signature",
              "name": "signature",
              "type": "tuple"
            }
          ],
          "internalType": "struct TellerCommon.LoanResponse[]",
          "name": "responses",
          "type": "tuple[]"
        },
        {
          "internalType": "uint256",
          "name": "collateralAmount",
          "type": "uint256"
        }
      ],
      "name": "createLoanWithTerms",
      "outputs": [],
      "payable": true,
      "stateMutability": "payable",
      "type": "function"
    },
    {
      "constant": false,
      "inputs": [
        {
          "internalType": "address",
          "name": "priceOracleAddress",
          "type": "address"
        },
        {
          "internalType": "address",
          "name": "lendingPoolAddress",
          "type": "address"
        },
        {
          "internalType": "address",
          "name": "loanTermsConsensusAddress",
          "type": "address"
        },
        {
          "internalType": "address",
          "name": "settingsAddress",
          "type": "address"
        },
        {
          "internalType": "address",
          "name": "collateralTokenAddress",
          "type": "address"
        }
      ],
      "name": "initialize",
      "outputs": [],
      "payable": false,
      "stateMutability": "nonpayable",
      "type": "function"
    },
    {
      "constant": false,
      "inputs": [],
      "name": "initialize",
      "outputs": [],
      "payable": false,
      "stateMutability": "nonpayable",
      "type": "function"
    }
  ],
  "bytecode": "0x608060405234801561001057600080fd5b506155cb80620000216000396000f3fe6080604052600436106101b75760003560e01c80638129fc1c116100ec578063c35d64ea1161008a578063e06174e411610064578063e06174e414610475578063e1ec3c681461048a578063e3ed1902146104c2578063eee8b7ff146104e2576101b7565b8063c35d64ea14610420578063ccdd9f5d14610435578063d8aed14514610455576101b7565b8063a59a9973116100c6578063a59a9973146103ce578063a5c5c7b2146103e3578063aaaca558146103f6578063b2016bd41461040b576101b7565b80638129fc1c14610379578063854768c01461038e578063934b5d13146103ae576101b7565b806350ef5c351161015957806358895e3d1161013357806358895e3d146103025780636948f32b1461032457806369e527da14610344578063767a7b0514610359576101b7565b806350ef5c35146102a057806351348454146102cd578063530e784f146102e2576101b7565b80631a74856b116101955780631a74856b146102295780632630c12f1461023c5780633b9293001461025e5780634ac8eb5f1461028b576101b7565b806302bc2cdb146101bc5780631459457a146101de578063158ef93e146101fe575b600080fd5b3480156101c857600080fd5b506101dc6101d7366004614365565b61050f565b005b3480156101ea57600080fd5b506101dc6101f9366004614167565b610bf6565b34801561020a57600080fd5b50610213610c9b565b604051610220919061506b565b60405180910390f35b6101dc610237366004614216565b610cba565b34801561024857600080fd5b50610251610ea5565b6040516102209190614fc5565b34801561026a57600080fd5b5061027e610279366004614347565b610eb4565b6040516102209190615079565b34801561029757600080fd5b5061027e610ee4565b3480156102ac57600080fd5b506102c06102bb366004614347565b610eea565b60405161022091906152d6565b3480156102d957600080fd5b5061027e610efb565b3480156102ee57600080fd5b506101dc6102fd36600461412b565b610f01565b34801561030e57600080fd5b5061031761105f565b6040516102209190615087565b34801561033057600080fd5b5061021361033f366004614347565b61106e565b34801561035057600080fd5b506102516111c7565b34801561036557600080fd5b506101dc610374366004614365565b611249565b34801561038557600080fd5b506101dc61145f565b34801561039a57600080fd5b506102136103a9366004614347565b6114e7565b3480156103ba57600080fd5b506102c06103c9366004614347565b61166e565b3480156103da57600080fd5b5061031761167f565b6101dc6103f13660046142bd565b61168e565b34801561040257600080fd5b50610251611c82565b34801561041757600080fd5b50610251611cc7565b34801561042c57600080fd5b50610251611cd6565b34801561044157600080fd5b506101dc610450366004614347565b611d1b565b34801561046157600080fd5b506101dc610470366004614365565b611f49565b34801561048157600080fd5b50610317612324565b34801561049657600080fd5b506104aa6104a5366004614347565b612346565b6040516102209c9b9a9998979695949392919061534a565b3480156104ce57600080fd5b5061027e6104dd3660046141dc565b6123fe565b3480156104ee57600080fd5b506105026104fd36600461412b565b61242c565b604051610220919061505a565b8160016000828152606d60205260409020600e0154600160a01b900460ff16600381111561053957fe5b1461055f5760405162461bcd60e51b815260040161055690615286565b60405180910390fd5b610567610c9b565b6105835760405162461bcd60e51b815260040161055690615276565b61058b612498565b156105a85760405162461bcd60e51b815260040161055690615166565b606a546001600160a01b03166105bd81612512565b156105da5760405162461bcd60e51b8152600401610556906150c6565b603380546001908101918290556000868152606d6020526040902001546001600160a01b031633811461061f5760405162461bcd60e51b815260040161055690615226565b6000868152606d60205260409020600501548511156106505760405162461bcd60e51b8152600401610556906150f6565b6000868152606d60205260409020600701544211156106815760405162461bcd60e51b8152600401610556906151c6565b6107fb61068c612324565b6001600160a01b031663269012a06106a2612324565b6001600160a01b031663d86d744e6040518163ffffffff1660e01b815260040160206040518083038186803b1580156106da57600080fd5b505afa1580156106ee573d6000803e3d6000fd5b505050506040513d601f19601f82011682018060405250610712919081019061429f565b6001600160a01b03166311880cc86040518163ffffffff1660e01b815260040160206040518083038186803b15801561074a57600080fd5b505afa15801561075e573d6000803e3d6000fd5b505050506040513d601f19601f820116820180604052506107829190810190614281565b6040518263ffffffff1660e01b815260040161079e9190615079565b60206040518083038186803b1580156107b657600080fd5b505afa1580156107ca573d6000803e3d6000fd5b505050506040513d601f19601f820116820180604052506107ee9190810190614281565b429063ffffffff61259716565b6000878152606d60205260409020600a0154111561082b5760405162461bcd60e51b815260040161055690615196565b6000868152606d60205260409020600d8101869055600b81018690556006810154600390910154610890916301e13380916108849161271091839190610878908c9063ffffffff6125e216565b9063ffffffff6125e216565b9063ffffffff61261c16565b6000878152606d60205260409020600c810191909155600e01805460ff60a01b1916600160a11b1790556108c2613ed9565b6108cb8761265e565b90508060600151156108ef5760405162461bcd60e51b815260040161055690615176565b6000878152606d602052604090204260089091015561090d876126af565b6000888152606d602052604090819020600e0180546001600160a01b0319166001600160a01b039384161790819055606a549151631397424760e11b81529183169263272e848e92610965928b921690600401615306565b600060405180830381600087803b15801561097f57600080fd5b505af1158015610993573d6000803e3d6000fd5b5050506000888152606d602052604090819020600e0154905163cd6dc68760e01b81526001600160a01b03909116915063cd6dc687906109d99030908b9060040161503f565b600060405180830381600087803b1580156109f357600080fd5b505af1158015610a07573d6000803e3d6000fd5b50505050610a136127a8565b6001600160a01b031663c7bbb113606a60009054906101000a90046001600160a01b03166001600160a01b031663aaaca5586040518163ffffffff1660e01b815260040160206040518083038186803b158015610a6f57600080fd5b505afa158015610a83573d6000803e3d6000fd5b505050506040513d601f19601f82011682018060405250610aa79190810190614149565b306001600160a01b031663b2016bd46040518163ffffffff1660e01b815260040160206040518083038186803b158015610ae057600080fd5b505afa158015610af4573d6000803e3d6000fd5b505050506040513d601f19601f82011682018060405250610b189190810190614149565b896040518463ffffffff1660e01b8152600401610b3793929190615024565b600060405180830381600087803b158015610b5157600080fd5b505af1158015610b65573d6000803e3d6000fd5b5050506000888152606d602052604090819020600e81015460019091015491516001600160a01b03918216935091169089907f85b5516a17ce775661a4b967b1fb30c852678f6598d86d9f3c99b7b60ff2d0ce90610bc4908b90615079565b60405180910390a450506033548114610bef5760405162461bcd60e51b8152600401610556906152a6565b5050505050565b610bfe610c9b565b15610c1b5760405162461bcd60e51b8152600401610556906152b6565b60408051808201909152601a81527f50524f564944455f434f4c4c5f544f4b454e5f414444524553530000000000006020820152610c69906001600160a01b0383169063ffffffff61282216565b610c758585858561284f565b606780546001600160a01b0319166001600160a01b039290921691909117905550505050565b600080604051610caa90614faf565b6040519081900390205492915050565b3415610cd85760405162461bcd60e51b8152600401610556906150e6565b8160016000828152606d60205260409020600e0154600160a01b900460ff166003811115610d0257fe5b1480610d34575060026000828152606d60205260409020600e0154600160a01b900460ff166003811115610d3257fe5b145b610d505760405162461bcd60e51b815260040161055690615116565b610d58610c9b565b610d745760405162461bcd60e51b815260040161055690615276565b610d7c612498565b15610d995760405162461bcd60e51b815260040161055690615166565b606a546001600160a01b0316610dae81612512565b15610dcb5760405162461bcd60e51b8152600401610556906150c6565b6000848152606d6020908152604091829020600101548251808401909352601983527f424f52524f5745525f4c4f414e5f49445f4d49534d415443480000000000000091830191909152610e32916001600160a01b0388811692169063ffffffff6129a016565b60008311610e525760405162461bcd60e51b815260040161055690615206565b610e5c84846129c9565b846001600160a01b0316847feec2f3feb835e2f2fd44281034b04700a1ddda63dd402949d470a25a7c40b36c85604051610e969190615079565b60405180910390a35050505050565b6069546001600160a01b031681565b6000818152606d60205260408120600b810154600c90910154610edc9163ffffffff6129e116565b90505b919050565b60665481565b610ef2613ed9565b610edc82612a06565b60685481565b610f09610c9b565b610f255760405162461bcd60e51b815260040161055690615276565b610f2d612324565b6001600160a01b031663c095ea27336040518263ffffffff1660e01b8152600401610f589190614fd3565b60006040518083038186803b158015610f7057600080fd5b505afa158015610f84573d6000803e3d6000fd5b50505050610f9a816001600160a01b0316612be2565b610fb65760405162461bcd60e51b815260040161055690615216565b60695460408051808201909152601b81527f4e45575f4f5241434c455f4d5553545f42455f50524f5649444544000000000060208201526001600160a01b039091169061100c908290849063ffffffff612c1e16565b606980546001600160a01b0319166001600160a01b03848116918217909255604051909183169033907ff51f0fffc8121ee3747e0536c487d894894cdba960ccfb4ab385a88d51b16fed90600090a45050565b606b546001600160a01b031681565b6000611078612498565b806110935750606a54611093906001600160a01b0316612512565b806110c5575060026000838152606d60205260409020600e0154600160a01b900460ff1660038111156110c257fe5b14155b156110d257506000610edf565b6000828152606d6020526040812060088101546006909101549091426110fe848463ffffffff6129e116565b10905080156111135760019350505050610edf565b6000858152606d60205260409020600e01546001600160a01b031680156111b057806001600160a01b031663415dfa5b6040518163ffffffff1660e01b815260040160206040518083038186803b15801561116d57600080fd5b505afa158015611181573d6000803e3d6000fd5b505050506040513d601f19601f820116820180604052506111a59190810190614263565b945050505050610edf565b6111b98661265e565b606001519695505050505050565b606a54604080516334f293ed60e11b815290516000926001600160a01b0316916369e527da916004808301926020929190829003018186803b15801561120c57600080fd5b505afa158015611220573d6000803e3d6000fd5b505050506040513d601f19601f820116820180604052506112449190810190614149565b905090565b8060016000828152606d60205260409020600e0154600160a01b900460ff16600381111561127357fe5b14806112a5575060026000828152606d60205260409020600e0154600160a01b900460ff1660038111156112a357fe5b145b6112c15760405162461bcd60e51b815260040161055690615116565b6112c9610c9b565b6112e55760405162461bcd60e51b815260040161055690615276565b6112ed612498565b1561130a5760405162461bcd60e51b815260040161055690615166565b606a546001600160a01b031661131f81612512565b1561133c5760405162461bcd60e51b8152600401610556906150c6565b603380546001908101918290556000858152606d6020526040902001546001600160a01b031633146113805760405162461bcd60e51b815260040161055690615236565b600085116113a05760405162461bcd60e51b815260040161055690615156565b6113a8613ed9565b6113b18561265e565b604081015181519192506000916113cd9163ffffffff61259716565b9050868110156113ef5760405162461bcd60e51b8152600401610556906151a6565b6113fa868833612c28565b336001600160a01b0316867f7c5e5cb62e5ed3caf3764e4b0afedfedef533e27809d43367799787ad2abcd41896040516114349190615079565b60405180910390a350506033548114610bef5760405162461bcd60e51b8152600401610556906152a6565b600054610100900460ff16806114785750611478612c7c565b80611486575060005460ff16155b6114a25760405162461bcd60e51b8152600401610556906151d6565b600054610100900460ff161580156114cd576000805460ff1961ff0019909116610100171660011790555b600160335580156114e4576000805461ff00191690555b50565b60006114f1612324565b6001600160a01b031663269012a0611507612324565b6001600160a01b031663d86d744e6040518163ffffffff1660e01b815260040160206040518083038186803b15801561153f57600080fd5b505afa158015611553573d6000803e3d6000fd5b505050506040513d601f19601f82011682018060405250611577919081019061429f565b6001600160a01b03166308b04f626040518163ffffffff1660e01b815260040160206040518083038186803b1580156115af57600080fd5b505afa1580156115c3573d6000803e3d6000fd5b505050506040513d601f19601f820116820180604052506115e79190810190614281565b6040518263ffffffff1660e01b81526004016116039190615079565b60206040518083038186803b15801561161b57600080fd5b505afa15801561162f573d6000803e3d6000fd5b505050506040513d601f19601f820116820180604052506116539190810190614281565b6000838152606d602052604090206004015410159050919050565b611676613ed9565b610edc8261265e565b606a546001600160a01b031681565b34156116ac5760405162461bcd60e51b8152600401610556906150e6565b6116b4610c9b565b6116d05760405162461bcd60e51b815260040161055690615276565b6116d8612498565b156116f55760405162461bcd60e51b815260040161055690615166565b611702602085018561412b565b336001600160a01b0382161461172a5760405162461bcd60e51b815260040161055690615226565b61173936869003860186614329565b6000611743612324565b6001600160a01b031663269012a0611759612324565b6001600160a01b031663d86d744e6040518163ffffffff1660e01b815260040160206040518083038186803b15801561179157600080fd5b505afa1580156117a5573d6000803e3d6000fd5b505050506040513d601f19601f820116820180604052506117c9919081019061429f565b6001600160a01b031663cc44cadb6040518163ffffffff1660e01b815260040160206040518083038186803b15801561180157600080fd5b505afa158015611815573d6000803e3d6000fd5b505050506040513d601f19601f820116820180604052506118399190810190614281565b6040518263ffffffff1660e01b81526004016118559190615079565b60206040518083038186803b15801561186d57600080fd5b505afa158015611881573d6000803e3d6000fd5b505050506040513d601f19601f820116820180604052506118a59190810190614281565b90508160a001518110156118cb5760405162461bcd60e51b8152600401610556906150a6565b60006118d5612324565b6001600160a01b03166369ff7744606a60009054906101000a90046001600160a01b03166001600160a01b031663aaaca5586040518163ffffffff1660e01b815260040160206040518083038186803b15801561193157600080fd5b505afa158015611945573d6000803e3d6000fd5b505050506040513d601f19601f820116820180604052506119699190810190614149565b85608001516040518363ffffffff1660e01b815260040161198b92919061503f565b60206040518083038186803b1580156119a357600080fd5b505afa1580156119b7573d6000803e3d6000fd5b505050506040513d601f19601f820116820180604052506119db9190810190614263565b905080156119fb5760405162461bcd60e51b8152600401610556906150d6565b611a088360800151612c82565b611a245760405162461bcd60e51b815260040161055690615256565b6000611a2e612ff2565b606b5460405163064e5d4960e01b8152919250600091829182916001600160a01b039091169063064e5d4990611a6c908f908f908f906004016152e4565b606060405180830381600087803b158015611a8657600080fd5b505af1158015611a9a573d6000803e3d6000fd5b505050506040513d601f19601f82011682018060405250611abe9190810190614384565b91945092509050611ae084611ad8368f90038f018f614329565b85858561300c565b6000858152606d6020908152604091829020835181558382015180516001830180546001600160a01b03199081166001600160a01b0393841617909155938201516002840180548616918316919091179055818501516003808501919091556060808401516004860155608080850151600587015560a0948501516006870155968801516007860155870151600885015594860151600984015590850151600a83015560c0850151600b83015560e0850151600c830155610100850151600d830155610120850151600e83018054909416911617808355610140850151919391929160ff60a01b1990911690600160a01b908490811115611bdd57fe5b02179055506101609190910151600e9091018054911515600160a81b0260ff60a81b199092169190911790558815611c1957611c19848a6129c9565b606c6000611c2a60208f018f61412b565b6001600160a01b031681526020808201929092526040016000908120805460018101825590825291902001849055611c7484611c6b368f90038f018f614329565b8585858e61325b565b505050505050505050505050565b606a546040805163155594ab60e31b815290516000926001600160a01b03169163aaaca558916004808301926020929190829003018186803b15801561120c57600080fd5b6067546001600160a01b031681565b606a54604080516361aeb27560e11b815290516000926001600160a01b03169163c35d64ea916004808301926020929190829003018186803b15801561120c57600080fd5b8060026000828152606d60205260409020600e0154600160a01b900460ff166003811115611d4557fe5b14611d625760405162461bcd60e51b815260040161055690615146565b611d6a610c9b565b611d865760405162461bcd60e51b815260040161055690615276565b611d8e612498565b15611dab5760405162461bcd60e51b815260040161055690615166565b606a546001600160a01b0316611dc081612512565b15611ddd5760405162461bcd60e51b8152600401610556906150c6565b6033805460010190819055611df0613ed9565b611df985612a06565b90508060600151611e1c5760405162461bcd60e51b815260040161055690615136565b6000858152606d60205260409020600e01805460ff60a01b1916600360a01b1760ff60a81b1916600160a81b1790558051611e5990869033613326565b606a5460408083015190516382f7b02760e01b81526001600160a01b03909216916382f7b02791611e8e913390600401615314565b600060405180830381600087803b158015611ea857600080fd5b505af1158015611ebc573d6000803e3d6000fd5b5050506000868152606d6020526040908190206001015483518483015192516001600160a01b03909216935088927f9950a0562c02382e2e840daa73082d5be7660ce37601f28fa4c84089c11e8a0692611f199233929091614fe1565b60405180910390a3506033548114611f435760405162461bcd60e51b8152600401610556906152a6565b50505050565b8060026000828152606d60205260409020600e0154600160a01b900460ff166003811115611f7357fe5b14611f905760405162461bcd60e51b815260040161055690615146565b611f98610c9b565b611fb45760405162461bcd60e51b815260040161055690615276565b611fbc612498565b15611fd95760405162461bcd60e51b815260040161055690615166565b606a546001600160a01b0316611fee81612512565b1561200b5760405162461bcd60e51b8152600401610556906150c6565b6033805460010190819055846120335760405162461bcd60e51b8152600401610556906150b6565b84600061203f86610eb4565b90508181101561204d578091505b61205d818363ffffffff61259716565b905061206986836133c4565b8061210d576000868152606d60205260409020600e8101805460ff60a01b1916600360a01b17905560098101546001909101546120b290889083906001600160a01b0316612c28565b6000878152606d6020526040908190206001015490516001600160a01b039091169088907f7c5e5cb62e5ed3caf3764e4b0afedfedef533e27809d43367799787ad2abcd4190612103908590615079565b60405180910390a3505b606a5460405163acb7081560e01b81526001600160a01b039091169063acb708159061213f9085903390600401615314565b600060405180830381600087803b15801561215957600080fd5b505af115801561216d573d6000803e3d6000fd5b505050506121796127a8565b6001600160a01b03166362e269ef606a60009054906101000a90046001600160a01b03166001600160a01b031663aaaca5586040518163ffffffff1660e01b815260040160206040518083038186803b1580156121d557600080fd5b505afa1580156121e9573d6000803e3d6000fd5b505050506040513d601f19601f8201168201806040525061220d9190810190614149565b306001600160a01b031663b2016bd46040518163ffffffff1660e01b815260040160206040518083038186803b15801561224657600080fd5b505afa15801561225a573d6000803e3d6000fd5b505050506040513d601f19601f8201168201806040525061227e9190810190614149565b856040518463ffffffff1660e01b815260040161229d93929190615024565b600060405180830381600087803b1580156122b757600080fd5b505af11580156122cb573d6000803e3d6000fd5b5050506000878152606d6020526040908190206001015490516001600160a01b03909116915087907f20a1f2ec363af45dc5ee7d9d622f2dd68b52501c382126c7f04b53663c4c69bf906114349086903390879061532f565b600080600060405161233590614fba565b604051908190039020549250505090565b606d602090815260009182526040918290208054835160c08101855260018301546001600160a01b03908116825260028401548116948201949094526003830154948101949094526004820154606085015260058201546080850152600682015460a0850152600782015460088301546009840154600a850154600b860154600c870154600d880154600e9098015496999895979496939592949193909281169060ff600160a01b8204811691600160a81b9004168c565b606c602052816000526040600020818154811061241757fe5b90600052602060002001600091509150505481565b6001600160a01b0381166000908152606c602090815260409182902080548351818402810184019094528084526060939283018282801561248c57602002820191906000526020600020905b815481526020019060010190808311612478575b50505050509050919050565b60006124a2612324565b6001600160a01b031663b187bd266040518163ffffffff1660e01b815260040160206040518083038186803b1580156124da57600080fd5b505afa1580156124ee573d6000803e3d6000fd5b505050506040513d601f19601f820116820180604052506112449190810190614263565b600061251c612324565b6001600160a01b0316633b668321836040518263ffffffff1660e01b81526004016125479190614fc5565b60206040518083038186803b15801561255f57600080fd5b505afa158015612573573d6000803e3d6000fd5b505050506040513d601f19601f82011682018060405250610edc9190810190614263565b60006125d983836040518060400160405280601e81526020017f536166654d6174683a207375627472616374696f6e206f766572666c6f77000081525061347f565b90505b92915050565b6000826125f1575060006125dc565b828202828482816125fe57fe5b04146125d95760405162461bcd60e51b815260040161055690615186565b60006125d983836040518060400160405280601a81526020017f536166654d6174683a206469766973696f6e206279207a65726f0000000000008152506134b0565b612666613ed9565b6000828152606d60205260408120600901549080612683856134e7565b604080516080810182528681526020810193909352820181905293909311606084015250909392505050565b60006126b9612324565b6001600160a01b031663bdd1daaa6040518163ffffffff1660e01b815260040160206040518083038186803b1580156126f157600080fd5b505afa158015612705573d6000803e3d6000fd5b505050506040513d601f19601f82011682018060405250612729919081019061429f565b6001600160a01b0316634614874e30846040518363ffffffff1660e01b815260040161275692919061503f565b602060405180830381600087803b15801561277057600080fd5b505af1158015612784573d6000803e3d6000fd5b505050506040513d601f19601f82011682018060405250610edc9190810190614149565b60006127b2612324565b6001600160a01b0316631390f8d76040518163ffffffff1660e01b815260040160206040518083038186803b1580156127ea57600080fd5b505afa1580156127fe573d6000803e3d6000fd5b505050506040513d601f19601f82011682018060405250611244919081019061429f565b61282b8261350b565b819061284a5760405162461bcd60e51b81526004016105569190615095565b505050565b612857610c9b565b156128745760405162461bcd60e51b8152600401610556906152b6565b60408051808201909152601681527550524f564944455f4f5241434c455f4144445245535360501b60208201526128bb906001600160a01b0386169063ffffffff61282216565b60408051808201909152601c81527f50524f564944455f4c454e44494e475f504f4f4c5f41444452455353000000006020820152612909906001600160a01b0385169063ffffffff61282216565b60408051808201909152601b81527f50524f56494445445f4c4f414e5f5445524d535f4144445245535300000000006020820152612957906001600160a01b0384169063ffffffff61282216565b61296081613519565b50606980546001600160a01b039485166001600160a01b031991821617909155606a805493851693821693909317909255606b8054919093169116179055565b6129aa83836135cb565b8190611f435760405162461bcd60e51b81526004016105569190615095565b6129d382826135dc565b6129dd3382613635565b5050565b6000828201838110156125d95760405162461bcd60e51b815260040161055690615106565b612a0e613ed9565b6000828152606d602052604081206009015490612a29612324565b6001600160a01b031663269012a0612a3f612324565b6001600160a01b031663d86d744e6040518163ffffffff1660e01b815260040160206040518083038186803b158015612a7757600080fd5b505afa158015612a8b573d6000803e3d6000fd5b505050506040513d601f19601f82011682018060405250612aaf919081019061429f565b6001600160a01b0316631139087a6040518163ffffffff1660e01b815260040160206040518083038186803b158015612ae757600080fd5b505afa158015612afb573d6000803e3d6000fd5b505050506040513d601f19601f82011682018060405250612b1f9190810190614281565b6040518263ffffffff1660e01b8152600401612b3b9190615079565b60206040518083038186803b158015612b5357600080fd5b505afa158015612b67573d6000803e3d6000fd5b505050506040513d601f19601f82011682018060405250612b8b9190810190614281565b90506000612b9883613652565b60408051608081018252858152602081018390529192508101612bc7612710610884858763ffffffff6125e216565b8152602001612bd58761106e565b1515905295945050505050565b6000813f7fc5d2460186f7233c927e7db2dcc703c0e500b653ca82273b7bfad8045d85a470818114801590612c1657508115155b949350505050565b6129aa838361378c565b606654612c3b908363ffffffff61259716565b6066556000838152606d6020526040902060090154612c60908363ffffffff61259716565b6000848152606d602052604090206009015561284a818361379e565b303b1590565b600080612c8d612324565b6001600160a01b031663dc21a6a06040518163ffffffff1660e01b815260040160206040518083038186803b158015612cc557600080fd5b505afa158015612cd9573d6000803e3d6000fd5b505050506040513d601f19601f82011682018060405250612cfd919081019061429f565b6001600160a01b0316631fb7cec9606a60009054906101000a90046001600160a01b03166001600160a01b031663aaaca5586040518163ffffffff1660e01b815260040160206040518083038186803b158015612d5957600080fd5b505afa158015612d6d573d6000803e3d6000fd5b505050506040513d601f19601f82011682018060405250612d919190810190614149565b6067546040516001600160e01b031960e085901b168152612dbf92916001600160a01b031690600401615009565b60206040518083038186803b158015612dd757600080fd5b505afa158015612deb573d6000803e3d6000fd5b505050506040513d601f19601f82011682018060405250612e0f9190810190614149565b90506001600160a01b038116612e375760405162461bcd60e51b8152600401610556906151e6565b604051632319178560e11b81526000906001600160a01b038316906346322f0a90612e75906b14dd5c1c1b1e551bd119589d60a21b90600401615079565b60206040518083038186803b158015612e8d57600080fd5b505afa158015612ea1573d6000803e3d6000fd5b505050506040513d601f19601f82011682018060405250612ec59190810190614281565b90506000612ed16127a8565b6001600160a01b031663db63323e606a60009054906101000a90046001600160a01b03166001600160a01b031663aaaca5586040518163ffffffff1660e01b815260040160206040518083038186803b158015612f2d57600080fd5b505afa158015612f41573d6000803e3d6000fd5b505050506040513d601f19601f82011682018060405250612f659190810190614149565b6067546040516001600160e01b031960e085901b168152612f9592916001600160a01b0316908a90600401615024565b60206040518083038186803b158015612fad57600080fd5b505afa158015612fc1573d6000803e3d6000fd5b505050506040513d601f19601f82011682018060405250612fe59190810190614281565b9190911115949350505050565b60685461300681600163ffffffff6129e116565b60685590565b613014613f03565b600061301e612324565b6001600160a01b031663269012a0613034612324565b6001600160a01b031663d86d744e6040518163ffffffff1660e01b815260040160206040518083038186803b15801561306c57600080fd5b505afa158015613080573d6000803e3d6000fd5b505050506040513d601f19601f820116820180604052506130a4919081019061429f565b6001600160a01b031663e00a46156040518163ffffffff1660e01b815260040160206040518083038186803b1580156130dc57600080fd5b505afa1580156130f0573d6000803e3d6000fd5b505050506040513d601f19601f820116820180604052506131149190810190614281565b6040518263ffffffff1660e01b81526004016131309190615079565b60206040518083038186803b15801561314857600080fd5b505afa15801561315c573d6000803e3d6000fd5b505050506040513d601f19601f820116820180604052506131809190810190614281565b90506000613194428363ffffffff6129e116565b90506040518061018001604052808981526020016040518060c001604052808a600001516001600160a01b031681526020018a602001516001600160a01b031681526020018981526020018881526020018781526020018a60a00151815250815260200182815260200160008152602001600081526020016000815260200160008152602001600081526020016000815260200160006001600160a01b031681526020016001600381111561324557fe5b8152600060209091015298975050505050505050565b84602001516001600160a01b031685600001516001600160a01b0316877f0358f509931cba53bbb6a94b7f05a5178220a0c7ddb54b1a1722df9e6ed6aa098787878b60a00151606d60008f8152602001908152602001600020600701546040516132c9959493929190615402565b60405180910390a4801561331e5784600001516001600160a01b0316867feec2f3feb835e2f2fd44281034b04700a1ddda63dd402949d470a25a7c40b36c836040516133159190615079565b60405180910390a35b505050505050565b6000838152606d60205260409020600e01546001600160a01b0316156133b9576000838152606d602052604090819020600e0154905163df8de3e760e01b81526001600160a01b039091169063df8de3e790613386908490600401614fd3565b600060405180830381600087803b1580156133a057600080fd5b505af11580156133b4573d6000803e3d6000fd5b505050505b61284a838383612c28565b6000828152606d60205260409020600b0154811115613447576000828152606d60205260409020600b0154819061340290829063ffffffff61259716565b6000848152606d60205260408120600b810191909155600c015490915061342f908263ffffffff61259716565b6000848152606d60205260409020600c0155506129dd565b6000828152606d60205260409020600b0154613469908263ffffffff61259716565b6000838152606d60205260409020600b01555050565b600081848411156134a35760405162461bcd60e51b81526004016105569190615095565b50508183035b9392505050565b600081836134d15760405162461bcd60e51b81526004016105569190615095565b5060008385816134dd57fe5b0495945050505050565b60008060006134f5846137bb565b90508061350182613864565b9250925050915091565b6001600160a01b0316151590565b613521610c9b565b1561353e5760405162461bcd60e51b8152600401610556906152b6565b60408051808201909152601981527f53455454494e47535f4d5553545f42455f50524f564944454400000000000000602082015261358c906001600160a01b0383169063ffffffff61282216565b61359e816001600160a01b0316612be2565b6135ba5760405162461bcd60e51b815260040161055690615126565b6135c261395a565b6114e481613978565b6001600160a01b0390811691161490565b6066546135ef908263ffffffff6129e116565b6066556000828152606d6020526040902060090154613614908263ffffffff6129e116565b6000928352606d602052604090922060098101929092555042600a90910155565b6067546129dd906001600160a01b0316838363ffffffff6139e716565b6000806136ec606a60009054906101000a90046001600160a01b03166001600160a01b031663aaaca5586040518163ffffffff1660e01b815260040160206040518083038186803b1580156136a657600080fd5b505afa1580156136ba573d6000803e3d6000fd5b505050506040513d601f19601f820116820180604052506136de9190810190614149565b6001600160a01b0316613c66565b90506000606960009054906101000a90046001600160a01b03166001600160a01b03166396237c026040518163ffffffff1660e01b815260040160206040518083038186803b15801561373e57600080fd5b505afa158015613752573d6000803e3d6000fd5b505050506040513d601f19601f820116820180604052506137769190810190614281565b9050612c1681610884868563ffffffff6125e216565b6001600160a01b039081169116141590565b6067546129dd906001600160a01b0316838363ffffffff613ce716565b6000818152606d60205260408120600e0154600160a01b900460ff168160018260038111156137e657fe5b141561380457506000838152606d6020526040902060050154613833565b600282600381111561381257fe5b14156138285761382184610eb4565b9050613833565b600092505050610edf565b6000848152606d602052604090206004015461385b612710610884848463ffffffff6125e216565b95945050505050565b6000806138b8606a60009054906101000a90046001600160a01b03166001600160a01b031663aaaca5586040518163ffffffff1660e01b815260040160206040518083038186803b1580156136a657600080fd5b90506000606960009054906101000a90046001600160a01b03166001600160a01b03166396237c026040518163ffffffff1660e01b815260040160206040518083038186803b15801561390a57600080fd5b505afa15801561391e573d6000803e3d6000fd5b505050506040513d601f19601f820116820180604052506139429190810190614281565b9050600061385b83610884878563ffffffff6125e216565b600060405161396890614faf565b6040519081900390206001905550565b613991613983612324565b6001600160a01b031661350b565b1561399b576114e4565b6139ad816001600160a01b0316612be2565b6139c95760405162461bcd60e51b815260040161055690615126565b60006040516139d790614fba565b6040519081900390208290555050565b604051636eb1769f60e11b81526000906001600160a01b0385169063dd62ed3e90613a189086903090600401615009565b60206040518083038186803b158015613a3057600080fd5b505afa158015613a44573d6000803e3d6000fd5b505050506040513d601f19601f82011682018060405250613a689190810190614281565b905081811015613a8a5760405162461bcd60e51b815260040161055690615296565b6040516370a0823160e01b81526000906001600160a01b038616906370a0823190613ab9903090600401614fc5565b60206040518083038186803b158015613ad157600080fd5b505afa158015613ae5573d6000803e3d6000fd5b505050506040513d601f19601f82011682018060405250613b099190810190614281565b90506000856001600160a01b03166323b872dd8630876040518463ffffffff1660e01b8152600401613b3d93929190615024565b602060405180830381600087803b158015613b5757600080fd5b505af1158015613b6b573d6000803e3d6000fd5b505050506040513d601f19601f82011682018060405250613b8f9190810190614263565b905080613bae5760405162461bcd60e51b8152600401610556906151b6565b6040516370a0823160e01b81526000906001600160a01b038816906370a0823190613bdd903090600401614fc5565b60206040518083038186803b158015613bf557600080fd5b505afa158015613c09573d6000803e3d6000fd5b505050506040513d601f19601f82011682018060405250613c2d9190810190614281565b905084613c40828563ffffffff61259716565b14613c5d5760405162461bcd60e51b8152600401610556906151f6565b50505050505050565b600080826001600160a01b031663313ce5676040518163ffffffff1660e01b815260040160206040518083038186803b158015613ca257600080fd5b505afa158015613cb6573d6000803e3d6000fd5b505050506040513d601f19601f82011682018060405250613cda91908101906143c7565b60ff16600a0a9392505050565b6040516370a0823160e01b81526000906001600160a01b038516906370a0823190613d16903090600401614fc5565b60206040518083038186803b158015613d2e57600080fd5b505afa158015613d42573d6000803e3d6000fd5b505050506040513d601f19601f82011682018060405250613d669190810190614281565b905081811015613d885760405162461bcd60e51b815260040161055690615246565b60405163a9059cbb60e01b81526000906001600160a01b0386169063a9059cbb90613db9908790879060040161503f565b602060405180830381600087803b158015613dd357600080fd5b505af1158015613de7573d6000803e3d6000fd5b505050506040513d601f19601f82011682018060405250613e0b9190810190614263565b905080613e2a5760405162461bcd60e51b815260040161055690615266565b6040516370a0823160e01b81526000906001600160a01b038716906370a0823190613e59903090600401614fc5565b60206040518083038186803b158015613e7157600080fd5b505afa158015613e85573d6000803e3d6000fd5b505050506040513d601f19601f82011682018060405250613ea99190810190614281565b905083613ebc848363ffffffff61259716565b1461331e5760405162461bcd60e51b8152600401610556906152c6565b60405180608001604052806000815260200160008152602001600081526020016000151581525090565b60405180610180016040528060008152602001613f1e613f7e565b81526020016000815260200160008152602001600081526020016000815260200160008152602001600081526020016000815260200160006001600160a01b0316815260200160006003811115613f7157fe5b8152600060209091015290565b6040518060c0016040528060006001600160a01b0316815260200160006001600160a01b03168152602001600081526020016000815260200160008152602001600081525090565b80356125dc81615550565b80516125dc81615550565b60008083601f840112613fee57600080fd5b50813567ffffffffffffffff81111561400657600080fd5b6020830191508361014082028301111561401f57600080fd5b9250929050565b80516125dc81615564565b80356125dc8161556d565b80516125dc8161556d565b80516125dc81615576565b600060e0828403121561406457600080fd5b50919050565b600060e0828403121561407c57600080fd5b61408660e061544e565b905060006140948484613fc6565b82525060206140a584848301613fc6565b60208301525060406140b984828501613fc6565b60408301525060606140cd84828501614031565b60608301525060806140e184828501614031565b60808301525060a06140f584828501614031565b60a08301525060c061410984828501614031565b60c08301525092915050565b80356125dc8161557f565b80516125dc8161557f565b60006020828403121561413d57600080fd5b6000612c168484613fc6565b60006020828403121561415b57600080fd5b6000612c168484613fd1565b600080600080600060a0868803121561417f57600080fd5b600061418b8888613fc6565b955050602061419c88828901613fc6565b94505060406141ad88828901613fc6565b93505060606141be88828901613fc6565b92505060806141cf88828901613fc6565b9150509295509295909350565b600080604083850312156141ef57600080fd5b60006141fb8585613fc6565b925050602061420c85828601614031565b9150509250929050565b60008060006060848603121561422b57600080fd5b60006142378686613fc6565b935050602061424886828701614031565b925050604061425986828701614031565b9150509250925092565b60006020828403121561427557600080fd5b6000612c168484614026565b60006020828403121561429357600080fd5b6000612c16848461403c565b6000602082840312156142b157600080fd5b6000612c168484614047565b60008060008061012085870312156142d457600080fd5b60006142e08787614052565b94505060e085013567ffffffffffffffff8111156142fd57600080fd5b61430987828801613fdc565b935093505061010061431d87828801614031565b91505092959194509250565b600060e0828403121561433b57600080fd5b6000612c16848461406a565b60006020828403121561435957600080fd5b6000612c168484614031565b6000806040838503121561437857600080fd5b60006141fb8585614031565b60008060006060848603121561439957600080fd5b60006143a5868661403c565b93505060206143b68682870161403c565b92505060406142598682870161403c565b6000602082840312156143d957600080fd5b6000612c168484614120565b60006143f18383614e12565b50506101400190565b600061440683836144d5565b505060200190565b614417816154fa565b82525050565b614417816154c3565b60006144328385615489565b935061443d82615475565b8060005b858110156144735761445382846154b0565b61445d88826143e5565b975061446883615482565b925050600101614441565b509495945050505050565b60006144898261547e565b6144938185615489565b935061449e83615478565b8060005b838110156144735781516144b688826143fa565b97506144c183615478565b9250506001016144a2565b614417816154ce565b61441781615475565b614417816154d3565b61441781615505565b60006144fb8261547e565b6145058185615489565b9350614515818560208601615510565b61451e8161553c565b9093019392505050565b6000614535601d83615489565b7f4455524154494f4e5f455843454544535f4d41585f4455524154494f4e000000815260200192915050565b600061456e601c83610edf565b7f54496e697469616c697a61626c652e6973496e697469616c697a6564000000008152601c0192915050565b60006145a7601583615489565b74105353d5539517d59053155157d491545552549151605a1b815260200192915050565b60006145d8601683615489565b7513115391125391d7d413d3d317d254d7d4105554d15160521b815260200192915050565b600061460a601983615489565b7f414d4f554e545f455843454544535f4d41585f414d4f554e5400000000000000815260200192915050565b6000614643601e83615489565b7f544f4b454e5f4c4f414e535f56414c55455f4d5553545f42455f5a45524f0000815260200192915050565b600061467c601183615489565b7013505617d313d05397d15610d151511151607a1b815260200192915050565b60006146a9601b83615489565b7f536166654d6174683a206164646974696f6e206f766572666c6f770000000000815260200192915050565b60006146e2601683615489565b751313d05397d393d517d050d512559157d3d497d4d15560521b815260200192915050565b6000614714601b83615489565b7f53455454494e47535f4d5553545f42455f415f434f4e54524143540000000000815260200192915050565b600061474d601783615489565b7f444f45534e545f4e4545445f4c49515549444154494f4e000000000000000000815260200192915050565b6000614786600f83615489565b6e4c4f414e5f4e4f545f41435449564560881b815260200192915050565b60006147b1601483615489565b7343414e4e4f545f57495448445241575f5a45524f60601b815260200192915050565b60006147e1601283615489565b71141310551193d49357d254d7d4105554d15160721b815260200192915050565b600061480f601883615489565b7f4d4f52455f434f4c4c41544552414c5f52455155495245440000000000000000815260200192915050565b6000614848602183615489565b7f536166654d6174683a206d756c7469706c69636174696f6e206f766572666c6f8152607760f81b602082015260400192915050565b600061488b601d83615489565b7f434f4c4c41544552414c5f4445504f53495445445f524543454e544c59000000815260200192915050565b60006148c4601a83615489565b7f434f4c4c41544552414c5f414d4f554e545f544f4f5f48494748000000000000815260200192915050565b60006148fd601b83615489565b7f544f4b454e535f5452414e534645525f46524f4d5f4641494c45440000000000815260200192915050565b6000614936601283615489565b711313d05397d511549354d7d156141254915160721b815260200192915050565b6000614964602e83615489565b7f436f6e747261637420696e7374616e63652068617320616c726561647920626581526d195b881a5b9a5d1a585b1a5e995960921b602082015260400192915050565b60006149b4601883615489565b7f41544d5f4e4f545f464f554e445f464f525f4d41524b45540000000000000000815260200192915050565b60006149ed601f83615489565b7f494e565f42414c414e43455f41465445525f5452414e534645525f46524f4d00815260200192915050565b6000614a26601383615489565b7243414e4e4f545f4445504f5349545f5a45524f60681b815260200192915050565b6000614a55601e83615489565b7f4f5241434c455f4d5553545f434f4e54524143545f4e4f545f454d5054590000815260200192915050565b6000614a8e601783615489565b7f424f52524f5745525f4d5553545f42455f53454e444552000000000000000000815260200192915050565b6000614ac7601683615489565b7521a0a62622a92fa227a2a9a72a2fa7aba72fa627a0a760511b815260200192915050565b6000614af9601983615489565b7f4e4f545f454e4f5547485f544f4b454e535f42414c414e434500000000000000815260200192915050565b6000614b32601883610edf565b7f426173655570677261646561626c652e73657474696e67730000000000000000815260180192915050565b6000614b6b601a83615489565b7f535550504c595f544f5f444542545f455843454544535f4d4158000000000000815260200192915050565b6000614ba4601683615489565b751513d2d15394d7d514905394d1915497d1905253115160521b815260200192915050565b6000614bd6601883615489565b7f434f4e54524143545f4e4f545f494e495449414c495a45440000000000000000815260200192915050565b6000614c0f600c83615489565b6b1313d05397d393d517d4d15560a21b815260200192915050565b6000614c37601b83615489565b7f4e4f545f454e4f5547485f544f4b454e535f414c4c4f57414e43450000000000815260200192915050565b6000614c70601f83615489565b7f5265656e7472616e637947756172643a207265656e7472616e742063616c6c00815260200192915050565b6000614ca9601c83615489565b7f434f4e54524143545f414c52454144595f494e495449414c495a454400000000815260200192915050565b6000614ce2601a83615489565b7f494e565f42414c414e43455f41465445525f5452414e53464552000000000000815260200192915050565b80516080830190614d1f84826144d5565b506020820151614d3260208501826144d5565b506040820151614d4560408501826144d5565b506060820151611f4360608501826144cc565b60e08201614d668280615492565b614d70848261441d565b50614d7e6020830183615492565b614d8b602085018261441d565b50614d996040830183615492565b614da6604085018261441d565b50614db460608301836154a1565b614dc160608501826144d5565b50614dcf60808301836154a1565b614ddc60808501826144d5565b50614dea60a08301836154a1565b614df760a08501826144d5565b50614e0560c08301836154a1565b611f4360c08501826144d5565b6101408201614e218280615492565b614e2b848261441d565b50614e396020830183615492565b614e46602085018261441d565b50614e5460408301836154a1565b614e6160408501826144d5565b50614e6f60608301836154a1565b614e7c60608501826144d5565b50614e8a60808301836154a1565b614e9760808501826144d5565b50614ea560a08301836154a1565b614eb260a08501826144d5565b50614ec060c08301836154b0565b611f4360c0850182614f3d565b805160c0830190614ede848261441d565b506020820151614ef1602085018261441d565b506040820151614f0460408501826144d5565b506060820151614f1760608501826144d5565b506080820151614f2a60808501826144d5565b5060a0820151611f4360a08501826144d5565b60808201614f4b82806154a1565b614f5584826144d5565b50614f6360208301836154b4565b614f706020850182614fa6565b50614f7e60408301836154a1565b614f8b60408501826144d5565b50614f9960608301836154a1565b611f4360608501826144d5565b614417816154f4565b60006125dc82614561565b60006125dc82614b25565b602081016125dc828461441d565b602081016125dc828461440e565b60608101614fef828661440e565b614ffc60208301856144d5565b612c1660408301846144d5565b60408101615017828561441d565b6134a9602083018461441d565b60608101615032828661441d565b614ffc602083018561441d565b6040810161504d828561441d565b6134a960208301846144d5565b602080825281016125d9818461447e565b602081016125dc82846144cc565b602081016125dc82846144d5565b602081016125dc82846144de565b602080825281016125d981846144f0565b60208082528101610edc81614528565b60208082528101610edc8161459a565b60208082528101610edc816145cb565b60208082528101610edc816145fd565b60208082528101610edc81614636565b60208082528101610edc8161466f565b60208082528101610edc8161469c565b60208082528101610edc816146d5565b60208082528101610edc81614707565b60208082528101610edc81614740565b60208082528101610edc81614779565b60208082528101610edc816147a4565b60208082528101610edc816147d4565b60208082528101610edc81614802565b60208082528101610edc8161483b565b60208082528101610edc8161487e565b60208082528101610edc816148b7565b60208082528101610edc816148f0565b60208082528101610edc81614929565b60208082528101610edc81614957565b60208082528101610edc816149a7565b60208082528101610edc816149e0565b60208082528101610edc81614a19565b60208082528101610edc81614a48565b60208082528101610edc81614a81565b60208082528101610edc81614aba565b60208082528101610edc81614aec565b60208082528101610edc81614b5e565b60208082528101610edc81614b97565b60208082528101610edc81614bc9565b60208082528101610edc81614c02565b60208082528101610edc81614c2a565b60208082528101610edc81614c63565b60208082528101610edc81614c9c565b60208082528101610edc81614cd5565b608081016125dc8284614d0e565b61010081016152f38286614d58565b81810360e083015261385b818486614426565b6040810161501782856144d5565b6040810161532282856144d5565b6134a9602083018461440e565b6060810161533d82866144d5565b614ffc602083018561440e565b6102208101615359828f6144d5565b615366602083018e614ecd565b61537360e083018d6144d5565b61538161010083018c6144d5565b61538f61012083018b6144d5565b61539d61014083018a6144d5565b6153ab6101608301896144d5565b6153b96101808301886144d5565b6153c76101a08301876144d5565b6153d56101c083018661441d565b6153e36101e08301856144e7565b6153f16102008301846144cc565b9d9c50505050505050505050505050565b60a0810161541082886144d5565b61541d60208301876144d5565b61542a60408301866144d5565b61543760608301856144d5565b61544460808301846144d5565b9695505050505050565b60405181810167ffffffffffffffff8111828210171561546d57600080fd5b604052919050565b90565b60200190565b5190565b6101400190565b90815260200190565b60006125d96020840184613fc6565b60006125d96020840184614031565b5090565b60006125d96020840184614115565b6000610edc826154e8565b151590565b6000610edc826154c3565b80610edf81615546565b6001600160a01b031690565b60ff1690565b6000610edc826154d3565b6000610edc826154de565b60005b8381101561552b578181015183820152602001615513565b83811115611f435750506000910152565b601f01601f191690565b600481106114e457fe5b615559816154c3565b81146114e457600080fd5b615559816154ce565b61555981615475565b615559816154d3565b615559816154f456fea365627a7a723158209f6e2380de1386ace31adca0035c9785648aea0611893427f7da9766baaf7bcf6c6578706572696d656e74616cf564736f6c63430005110040",
  "source": "pragma solidity 0.5.17;\npragma experimental ABIEncoderV2;\n\n// Contracts\nimport \"./LoansBase.sol\";\n\n/*****************************************************************************************************/\n/**                                             WARNING                                             **/\n/**                                  THIS CONTRACT IS UPGRADEABLE!                                  **/\n/**  ---------------------------------------------------------------------------------------------  **/\n/**  Do NOT change the order of or PREPEND any storage variables to this or new versions of this    **/\n/**  contract as this will cause the the storage slots to be overwritten on the proxy contract!!    **/\n/**                                                                                                 **/\n/**  Visit https://docs.openzeppelin.com/upgrades/2.6/proxies#upgrading-via-the-proxy-pattern for   **/\n/**  more information.                                                                              **/\n/*****************************************************************************************************/\n/**\n    @notice This contract is used as a basis for the creation of loans (not wei) across the platform\n    @notice It implements the LoansBase contract from Teller\n\n    @author develop@teller.finance\n */\ncontract TokenCollateralLoans is LoansBase {\n    /** Constants */\n\n    /** Properties */\n\n    /** Modifiers */\n\n    /**\n        @notice Checks the value in the current transactionn is zero.\n        @dev It throws a require error if value is not zero.\n     */\n    modifier noMsgValue() {\n        require(msg.value == 0, \"TOKEN_LOANS_VALUE_MUST_BE_ZERO\");\n        _;\n    }\n\n    /** External Functions */\n\n    /**\n     * @notice Deposit collateral tokens into a loan.\n     * @param borrower The address of the loan borrower.\n     * @param loanID The ID of the loan the collateral is for\n     * @param amount The amount to deposit as collateral.\n     */\n    function depositCollateral(\n        address borrower,\n        uint256 loanID,\n        uint256 amount\n    )\n        external\n        payable\n        noMsgValue()\n        loanActiveOrSet(loanID)\n        isInitialized()\n        whenNotPaused()\n        whenLendingPoolNotPaused(address(lendingPool))\n    {\n        borrower.requireEqualTo(\n            loans[loanID].loanTerms.borrower,\n            \"BORROWER_LOAN_ID_MISMATCH\"\n        );\n        require(amount > 0, \"CANNOT_DEPOSIT_ZERO\");\n\n        // Update the loan collateral and total. Transfer tokens to this contract.\n        _payInCollateral(loanID, amount);\n\n        emit CollateralDeposited(loanID, borrower, amount);\n    }\n\n    /**\n        @notice Creates a loan with the loan request and terms\n        @param request Struct of the protocol loan request\n        @param responses List of structs of the protocol loan responses\n        @param collateralAmount Amount of collateral required for the loan\n     */\n    function createLoanWithTerms(\n        TellerCommon.LoanRequest calldata request,\n        TellerCommon.LoanResponse[] calldata responses,\n        uint256 collateralAmount\n    )\n        external\n        payable\n        noMsgValue()\n        isInitialized()\n        whenNotPaused()\n        isBorrower(request.borrower)\n        withValidLoanRequest(request)\n    {\n        uint256 loanID = _getAndIncrementLoanID();\n\n        (\n            uint256 interestRate,\n            uint256 collateralRatio,\n            uint256 maxLoanAmount\n        ) = loanTermsConsensus.processRequest(request, responses);\n\n        loans[loanID] = createLoan(\n            loanID,\n            request,\n            interestRate,\n            collateralRatio,\n            maxLoanAmount\n        );\n\n        if (collateralAmount > 0) {\n            // Update collateral, totalCollateral, and lastCollateralIn\n            _payInCollateral(loanID, collateralAmount);\n        }\n\n        borrowerLoans[request.borrower].push(loanID);\n\n        _emitLoanTermsSetAndCollateralDepositedEventsIfApplicable(\n            loanID,\n            request,\n            interestRate,\n            collateralRatio,\n            maxLoanAmount,\n            collateralAmount\n        );\n    }\n\n    /**\n        @notice Initializes the current contract instance setting the required parameters, if allowed\n        @param priceOracleAddress Contract address of the price oracle\n        @param lendingPoolAddress Contract address of the lending pool\n        @param loanTermsConsensusAddress Contract adddress for loan term consensus\n        @param settingsAddress Contract address for the configuration of the platform\n        @param collateralTokenAddress Contract address for the collateral token.\n     */\n    function initialize(\n        address priceOracleAddress,\n        address lendingPoolAddress,\n        address loanTermsConsensusAddress,\n        address settingsAddress,\n        address collateralTokenAddress\n    ) external isNotInitialized() {\n        collateralTokenAddress.requireNotEmpty(\"PROVIDE_COLL_TOKEN_ADDRESS\");\n\n        _initialize(\n            priceOracleAddress,\n            lendingPoolAddress,\n            loanTermsConsensusAddress,\n            settingsAddress\n        );\n\n        collateralToken = collateralTokenAddress;\n    }\n\n    /** Internal Function */\n    /**\n        @notice Pays out collateral for the associated loan\n        @param loanID The ID of the loan the collateral is for\n        @param amount The amount of collateral to be paid\n     */\n    function _payOutCollateral(\n        uint256 loanID,\n        uint256 amount,\n        address payable recipient\n    ) internal {\n        totalCollateral = totalCollateral.sub(amount);\n        loans[loanID].collateral = loans[loanID].collateral.sub(amount);\n\n        _collateralTokenTransfer(recipient, amount);\n    }\n\n    /**\n        @notice Pays collateral in for the associated loan\n        @param loanID The ID of the loan the collateral is for\n        @param amount The amount of collateral to be paid\n     */\n    function _payInCollateral(uint256 loanID, uint256 amount) internal {\n        // Update the total collateral and loan collateral\n        super._payInCollateral(loanID, amount);\n        // Transfer collateral tokens to this contract.\n        _collateralTokenTransferFrom(msg.sender, amount);\n    }\n\n    /**\n        @notice It transfers an amount of collateral tokens to a specific address.\n        @param recipient The address which will receive the tokens.\n        @param amount The amount of tokens to transfer.\n     */\n    function _collateralTokenTransfer(address recipient, uint256 amount) internal {\n        ERC20Detailed(collateralToken).tokenTransfer(recipient, amount);\n    }\n\n    /**\n        @notice It transfers an amount of collateral tokens from an address to this contract.\n        @param from The address where the tokens will transfer from.\n        @param amount The amount to be transferred.\n     */\n    function _collateralTokenTransferFrom(address from, uint256 amount) internal {\n        ERC20Detailed(collateralToken).tokenTransferFrom(from, amount);\n    }\n}\n",
  "sourcePath": "/Users/guillesalazar/Repos/ZeroCollateral/smart-contracts-v1/contracts/base/TokenCollateralLoans.sol",
  "compiler": {
    "name": "solc",
    "version": "0.5.17+commit.d19bba13.Emscripten.clang"
  },
  "schemaVersion": "3.2.3",
  "updatedAt": "2020-10-12T16:12:27.702Z",
  "networkType": "ethereum",
  "devdoc": {
    "author": "develop@teller.finance",
    "methods": {
      "cToken()": {
        "return": "Address of the cToken"
      },
      "canLiquidateLoan(uint256)": {
        "params": {
          "loanID": "The ID of the loan to check"
        },
        "return": "bool weather the loan can be liquidated"
      },
      "createLoanWithTerms((address,address,address,uint256,uint256,uint256,uint256),(address,address,uint256,uint256,uint256,uint256,(uint256,uint8,bytes32,bytes32))[],uint256)": {
        "params": {
          "collateralAmount": "Amount of collateral required for the loan",
          "request": "Struct of the protocol loan request",
          "responses": "List of structs of the protocol loan responses"
        }
      },
      "depositCollateral(address,uint256,uint256)": {
        "params": {
          "amount": "The amount to deposit as collateral.",
          "borrower": "The address of the loan borrower.",
          "loanID": "The ID of the loan the collateral is for"
        }
      },
      "getBorrowerLoans(address)": {
        "params": {
          "borrower": "The borrower's address"
        }
      },
      "getCollateralInfo(uint256)": {
        "params": {
          "loanID": "of the loan to get info for"
        },
        "return": "memory TellerCommon.LoanCollateralInfo Collateral information of the loan"
      },
      "getLiquidationInfo(uint256)": {
        "params": {
          "loanID": "loan id to get the info."
        },
        "return": "liquidationInfo get current liquidation info for the given loan id."
      },
      "getTotalOwed(uint256)": {
        "params": {
          "loanID": "The ID of the loan to be queried"
        },
        "return": "uint256 The total amount owed remaining"
      },
      "initialize(address,address,address,address,address)": {
        "params": {
          "collateralTokenAddress": "Contract address for the collateral token.",
          "lendingPoolAddress": "Contract address of the lending pool",
          "loanTermsConsensusAddress": "Contract adddress for loan term consensus",
          "priceOracleAddress": "Contract address of the price oracle",
          "settingsAddress": "Contract address for the configuration of the platform"
        }
      },
      "initialized()": {
        "return": "true if contract is initialized. Otherwise it returns false."
      },
      "isLoanSecured(uint256)": {
        "return": "bool value of it being secured or not."
      },
      "lendingToken()": {
        "return": "Address of the lending token"
      },
      "liquidateLoan(uint256)": {
        "params": {
          "loanID": "The ID of the loan to be liquidated"
        }
      },
      "repay(uint256,uint256)": {
        "params": {
          "amount": "The amount of tokens to pay back to the loan",
          "loanID": "The ID of the loan the payment is for"
        }
      },
      "setPriceOracle(address)": {
        "details": "It throws a require error if sender is not allowed.It throws a require error if new address is empty (0x0) or not a contract.",
        "params": {
          "newPriceOracle": "the new price oracle address."
        }
      },
      "settings()": {
        "details": "This address should NOT change over the time. See details in the _setSettings(...) function."
      },
      "tToken()": {
        "return": "Address of the tToken"
      },
      "takeOutLoan(uint256,uint256)": {
        "details": "collateral ratio is a percentage of the loan amount that's required in collateralthe percentage will be *(10**2). I.e. collateralRatio of 5244 means 52.44% collateralis required in the loan. Interest rate is also a percentage with 2 decimal points."
      },
      "withdrawCollateral(uint256,uint256)": {
        "params": {
          "amount": "The amount of collateral token or ether the caller is hoping to withdraw.",
          "loanID": "The ID of the loan the collateral is for"
        }
      }
    }
  },
  "userdoc": {
    "methods": {
      "cToken()": {
        "notice": "Returns the cToken in the lending pool"
      },
      "canLiquidateLoan(uint256)": {
        "notice": "A loan can be liquidated if it is: under collateralized or expired"
      },
      "createLoanWithTerms((address,address,address,uint256,uint256,uint256,uint256),(address,address,uint256,uint256,uint256,uint256,(uint256,uint8,bytes32,bytes32))[],uint256)": {
        "notice": "Creates a loan with the loan request and terms"
      },
      "depositCollateral(address,uint256,uint256)": {
        "notice": "Deposit collateral tokens into a loan."
      },
      "getBorrowerLoans(address)": {
        "notice": "Get a list of all loans for a borrower"
      },
      "getCollateralInfo(uint256)": {
        "notice": "Get collateral information of a specific loan"
      },
      "getLiquidationInfo(uint256)": {
        "notice": "It getss the current liquidation info for a given loan id."
      },
      "getTotalOwed(uint256)": {
        "notice": "Returns the total owed amount remaining for a specified loan"
      },
      "initialize(address,address,address,address,address)": {
        "notice": "Initializes the current contract instance setting the required parameters, if allowed"
      },
      "initialized()": {
        "notice": "Gets if the contract is initialized."
      },
      "isLoanSecured(uint256)": {
        "notice": "Checks wheather the loan's collateral ratio is considered to be secured based on the settings collateral buffer value."
      },
      "lendingToken()": {
        "notice": "Returns the lending token in the lending pool"
      },
      "liquidateLoan(uint256)": {
        "notice": "Liquidate a loan if it is expired or under collateralized"
      },
      "repay(uint256,uint256)": {
        "notice": "Make a payment to a loan"
      },
      "setPriceOracle(address)": {
        "notice": "Updates the current price oracle instance."
      },
      "settings()": {
        "notice": "The gets the settings contract address from the SETTINGS_SLOT."
      },
      "tToken()": {
        "notice": "Returns the tToken in the lending pool"
      },
      "takeOutLoan(uint256,uint256)": {
        "notice": "Take out a loan"
      },
      "withdrawCollateral(uint256,uint256)": {
        "notice": "Withdraw collateral from a loan, unless this isn't allowed"
      }
    },
    "notice": "This contract is used as a basis for the creation of loans (not wei) across the platformIt implements the LoansBase contract from Teller"
  }
}