{
  "contractName": "TokenCollateralLoans",
  "abi": [
    {
      "anonymous": false,
      "inputs": [
        {
          "indexed": true,
          "internalType": "uint256",
          "name": "loanID",
          "type": "uint256"
        },
        {
          "indexed": true,
          "internalType": "address",
          "name": "borrower",
          "type": "address"
        },
        {
          "indexed": false,
          "internalType": "uint256",
          "name": "depositAmount",
          "type": "uint256"
        }
      ],
      "name": "CollateralDeposited",
      "type": "event"
    },
    {
      "anonymous": false,
      "inputs": [
        {
          "indexed": true,
          "internalType": "uint256",
          "name": "loanID",
          "type": "uint256"
        },
        {
          "indexed": true,
          "internalType": "address",
          "name": "borrower",
          "type": "address"
        },
        {
          "indexed": false,
          "internalType": "uint256",
          "name": "withdrawalAmount",
          "type": "uint256"
        }
      ],
      "name": "CollateralWithdrawn",
      "type": "event"
    },
    {
      "anonymous": false,
      "inputs": [
        {
          "indexed": true,
          "internalType": "uint256",
          "name": "loanID",
          "type": "uint256"
        },
        {
          "indexed": true,
          "internalType": "address",
          "name": "borrower",
          "type": "address"
        },
        {
          "indexed": false,
          "internalType": "address",
          "name": "liquidator",
          "type": "address"
        },
        {
          "indexed": false,
          "internalType": "uint256",
          "name": "collateralOut",
          "type": "uint256"
        },
        {
          "indexed": false,
          "internalType": "uint256",
          "name": "tokensIn",
          "type": "uint256"
        }
      ],
      "name": "LoanLiquidated",
      "type": "event"
    },
    {
      "anonymous": false,
      "inputs": [
        {
          "indexed": true,
          "internalType": "uint256",
          "name": "loanID",
          "type": "uint256"
        },
        {
          "indexed": true,
          "internalType": "address",
          "name": "borrower",
          "type": "address"
        },
        {
          "indexed": false,
          "internalType": "uint256",
          "name": "amountPaid",
          "type": "uint256"
        },
        {
          "indexed": false,
          "internalType": "address",
          "name": "payer",
          "type": "address"
        },
        {
          "indexed": false,
          "internalType": "uint256",
          "name": "totalOwed",
          "type": "uint256"
        }
      ],
      "name": "LoanRepaid",
      "type": "event"
    },
    {
      "anonymous": false,
      "inputs": [
        {
          "indexed": true,
          "internalType": "uint256",
          "name": "loanID",
          "type": "uint256"
        },
        {
          "indexed": true,
          "internalType": "address",
          "name": "borrower",
          "type": "address"
        },
        {
          "indexed": true,
          "internalType": "address",
          "name": "escrow",
          "type": "address"
        },
        {
          "indexed": false,
          "internalType": "uint256",
          "name": "amountBorrowed",
          "type": "uint256"
        }
      ],
      "name": "LoanTakenOut",
      "type": "event"
    },
    {
      "anonymous": false,
      "inputs": [
        {
          "indexed": true,
          "internalType": "uint256",
          "name": "loanID",
          "type": "uint256"
        },
        {
          "indexed": true,
          "internalType": "address",
          "name": "borrower",
          "type": "address"
        },
        {
          "indexed": true,
          "internalType": "address",
          "name": "recipient",
          "type": "address"
        },
        {
          "indexed": false,
          "internalType": "uint256",
          "name": "interestRate",
          "type": "uint256"
        },
        {
          "indexed": false,
          "internalType": "uint256",
          "name": "collateralRatio",
          "type": "uint256"
        },
        {
          "indexed": false,
          "internalType": "uint256",
          "name": "maxLoanAmount",
          "type": "uint256"
        },
        {
          "indexed": false,
          "internalType": "uint256",
          "name": "duration",
          "type": "uint256"
        },
        {
          "indexed": false,
          "internalType": "uint256",
          "name": "termsExpiry",
          "type": "uint256"
        }
      ],
      "name": "LoanTermsSet",
      "type": "event"
    },
    {
      "anonymous": false,
      "inputs": [
        {
          "indexed": true,
          "internalType": "address",
          "name": "sender",
          "type": "address"
        },
        {
          "indexed": true,
          "internalType": "address",
          "name": "oldPriceOracle",
          "type": "address"
        },
        {
          "indexed": true,
          "internalType": "address",
          "name": "newPriceOracle",
          "type": "address"
        }
      ],
      "name": "PriceOracleUpdated",
      "type": "event"
    },
    {
      "constant": true,
      "inputs": [
        {
          "internalType": "address",
          "name": "",
          "type": "address"
        },
        {
          "internalType": "uint256",
          "name": "",
          "type": "uint256"
        }
      ],
      "name": "borrowerLoans",
      "outputs": [
        {
          "internalType": "uint256",
          "name": "",
          "type": "uint256"
        }
      ],
      "payable": false,
      "stateMutability": "view",
      "type": "function"
    },
    {
      "constant": true,
      "inputs": [],
      "name": "cToken",
      "outputs": [
        {
          "internalType": "address",
          "name": "",
          "type": "address"
        }
      ],
      "payable": false,
      "stateMutability": "view",
      "type": "function"
    },
    {
      "constant": true,
      "inputs": [
        {
          "internalType": "uint256",
          "name": "loanID",
          "type": "uint256"
        }
      ],
      "name": "canLiquidateLoan",
      "outputs": [
        {
          "internalType": "bool",
          "name": "",
          "type": "bool"
        }
      ],
      "payable": false,
      "stateMutability": "view",
      "type": "function"
    },
    {
      "constant": true,
      "inputs": [],
      "name": "collateralToken",
      "outputs": [
        {
          "internalType": "address",
          "name": "",
          "type": "address"
        }
      ],
      "payable": false,
      "stateMutability": "view",
      "type": "function"
    },
    {
      "constant": true,
      "inputs": [
        {
          "internalType": "address",
          "name": "borrower",
          "type": "address"
        }
      ],
      "name": "getBorrowerLoans",
      "outputs": [
        {
          "internalType": "uint256[]",
          "name": "",
          "type": "uint256[]"
        }
      ],
      "payable": false,
      "stateMutability": "view",
      "type": "function"
    },
    {
      "constant": true,
      "inputs": [
        {
          "internalType": "uint256",
          "name": "loanID",
          "type": "uint256"
        }
      ],
      "name": "getCollateralInfo",
      "outputs": [
        {
          "components": [
            {
              "internalType": "uint256",
              "name": "collateral",
              "type": "uint256"
            },
            {
              "internalType": "uint256",
              "name": "neededInLendingTokens",
              "type": "uint256"
            },
            {
              "internalType": "uint256",
              "name": "neededInCollateralTokens",
              "type": "uint256"
            },
            {
              "internalType": "bool",
              "name": "moreCollateralRequired",
              "type": "bool"
            }
          ],
          "internalType": "struct TellerCommon.LoanCollateralInfo",
          "name": "",
          "type": "tuple"
        }
      ],
      "payable": false,
      "stateMutability": "view",
      "type": "function"
    },
    {
      "constant": true,
      "inputs": [
        {
          "internalType": "uint256",
          "name": "loanID",
          "type": "uint256"
        }
      ],
      "name": "getTotalOwed",
      "outputs": [
        {
          "internalType": "uint256",
          "name": "",
          "type": "uint256"
        }
      ],
      "payable": false,
      "stateMutability": "view",
      "type": "function"
    },
    {
      "constant": true,
      "inputs": [],
      "name": "initialized",
      "outputs": [
        {
          "internalType": "bool",
          "name": "value",
          "type": "bool"
        }
      ],
      "payable": false,
      "stateMutability": "view",
      "type": "function"
    },
    {
      "constant": true,
      "inputs": [],
      "name": "lendingPool",
      "outputs": [
        {
          "internalType": "contract LendingPoolInterface",
          "name": "",
          "type": "address"
        }
      ],
      "payable": false,
      "stateMutability": "view",
      "type": "function"
    },
    {
      "constant": true,
      "inputs": [],
      "name": "lendingToken",
      "outputs": [
        {
          "internalType": "address",
          "name": "",
          "type": "address"
        }
      ],
      "payable": false,
      "stateMutability": "view",
      "type": "function"
    },
    {
      "constant": false,
      "inputs": [
        {
          "internalType": "uint256",
          "name": "loanID",
          "type": "uint256"
        }
      ],
      "name": "liquidateLoan",
      "outputs": [],
      "payable": false,
      "stateMutability": "nonpayable",
      "type": "function"
    },
    {
      "constant": true,
      "inputs": [],
      "name": "loanIDCounter",
      "outputs": [
        {
          "internalType": "uint256",
          "name": "",
          "type": "uint256"
        }
      ],
      "payable": false,
      "stateMutability": "view",
      "type": "function"
    },
    {
      "constant": true,
      "inputs": [],
      "name": "loanTermsConsensus",
      "outputs": [
        {
          "internalType": "contract LoanTermsConsensusInterface",
          "name": "",
          "type": "address"
        }
      ],
      "payable": false,
      "stateMutability": "view",
      "type": "function"
    },
    {
      "constant": true,
      "inputs": [
        {
          "internalType": "uint256",
          "name": "",
          "type": "uint256"
        }
      ],
      "name": "loans",
      "outputs": [
        {
          "internalType": "uint256",
          "name": "id",
          "type": "uint256"
        },
        {
          "components": [
            {
              "internalType": "address payable",
              "name": "borrower",
              "type": "address"
            },
            {
              "internalType": "address",
              "name": "recipient",
              "type": "address"
            },
            {
              "internalType": "uint256",
              "name": "interestRate",
              "type": "uint256"
            },
            {
              "internalType": "uint256",
              "name": "collateralRatio",
              "type": "uint256"
            },
            {
              "internalType": "uint256",
              "name": "maxLoanAmount",
              "type": "uint256"
            },
            {
              "internalType": "uint256",
              "name": "duration",
              "type": "uint256"
            }
          ],
          "internalType": "struct TellerCommon.LoanTerms",
          "name": "loanTerms",
          "type": "tuple"
        },
        {
          "internalType": "uint256",
          "name": "termsExpiry",
          "type": "uint256"
        },
        {
          "internalType": "uint256",
          "name": "loanStartTime",
          "type": "uint256"
        },
        {
          "internalType": "uint256",
          "name": "collateral",
          "type": "uint256"
        },
        {
          "internalType": "uint256",
          "name": "lastCollateralIn",
          "type": "uint256"
        },
        {
          "internalType": "uint256",
          "name": "principalOwed",
          "type": "uint256"
        },
        {
          "internalType": "uint256",
          "name": "interestOwed",
          "type": "uint256"
        },
        {
          "internalType": "uint256",
          "name": "borrowedAmount",
          "type": "uint256"
        },
        {
          "internalType": "address",
          "name": "escrow",
          "type": "address"
        },
        {
          "internalType": "enum TellerCommon.LoanStatus",
          "name": "status",
          "type": "uint8"
        },
        {
          "internalType": "bool",
          "name": "liquidated",
          "type": "bool"
        }
      ],
      "payable": false,
      "stateMutability": "view",
      "type": "function"
    },
    {
      "constant": true,
      "inputs": [],
      "name": "priceOracle",
      "outputs": [
        {
          "internalType": "address",
          "name": "",
          "type": "address"
        }
      ],
      "payable": false,
      "stateMutability": "view",
      "type": "function"
    },
    {
      "constant": false,
      "inputs": [
        {
          "internalType": "uint256",
          "name": "amount",
          "type": "uint256"
        },
        {
          "internalType": "uint256",
          "name": "loanID",
          "type": "uint256"
        }
      ],
      "name": "repay",
      "outputs": [],
      "payable": false,
      "stateMutability": "nonpayable",
      "type": "function"
    },
    {
      "constant": false,
      "inputs": [
        {
          "internalType": "address",
          "name": "newPriceOracle",
          "type": "address"
        }
      ],
      "name": "setPriceOracle",
      "outputs": [],
      "payable": false,
      "stateMutability": "nonpayable",
      "type": "function"
    },
    {
      "constant": true,
      "inputs": [],
      "name": "settings",
      "outputs": [
        {
          "internalType": "contract SettingsInterface",
          "name": "",
          "type": "address"
        }
      ],
      "payable": false,
      "stateMutability": "view",
      "type": "function"
    },
    {
      "constant": true,
      "inputs": [],
      "name": "tToken",
      "outputs": [
        {
          "internalType": "address",
          "name": "",
          "type": "address"
        }
      ],
      "payable": false,
      "stateMutability": "view",
      "type": "function"
    },
    {
      "constant": false,
      "inputs": [
        {
          "internalType": "uint256",
          "name": "loanID",
          "type": "uint256"
        },
        {
          "internalType": "uint256",
          "name": "amountBorrow",
          "type": "uint256"
        }
      ],
      "name": "takeOutLoan",
      "outputs": [],
      "payable": false,
      "stateMutability": "nonpayable",
      "type": "function"
    },
    {
      "constant": true,
      "inputs": [],
      "name": "totalCollateral",
      "outputs": [
        {
          "internalType": "uint256",
          "name": "",
          "type": "uint256"
        }
      ],
      "payable": false,
      "stateMutability": "view",
      "type": "function"
    },
    {
      "constant": false,
      "inputs": [
        {
          "internalType": "uint256",
          "name": "amount",
          "type": "uint256"
        },
        {
          "internalType": "uint256",
          "name": "loanID",
          "type": "uint256"
        }
      ],
      "name": "withdrawCollateral",
      "outputs": [],
      "payable": false,
      "stateMutability": "nonpayable",
      "type": "function"
    },
    {
      "constant": false,
      "inputs": [
        {
          "internalType": "address",
          "name": "borrower",
          "type": "address"
        },
        {
          "internalType": "uint256",
          "name": "loanID",
          "type": "uint256"
        },
        {
          "internalType": "uint256",
          "name": "amount",
          "type": "uint256"
        }
      ],
      "name": "depositCollateral",
      "outputs": [],
      "payable": true,
      "stateMutability": "payable",
      "type": "function"
    },
    {
      "constant": false,
      "inputs": [
        {
          "components": [
            {
              "internalType": "address payable",
              "name": "borrower",
              "type": "address"
            },
            {
              "internalType": "address",
              "name": "recipient",
              "type": "address"
            },
            {
              "internalType": "address",
              "name": "consensusAddress",
              "type": "address"
            },
            {
              "internalType": "uint256",
              "name": "requestNonce",
              "type": "uint256"
            },
            {
              "internalType": "uint256",
              "name": "amount",
              "type": "uint256"
            },
            {
              "internalType": "uint256",
              "name": "duration",
              "type": "uint256"
            },
            {
              "internalType": "uint256",
              "name": "requestTime",
              "type": "uint256"
            }
          ],
          "internalType": "struct TellerCommon.LoanRequest",
          "name": "request",
          "type": "tuple"
        },
        {
          "components": [
            {
              "internalType": "address",
              "name": "signer",
              "type": "address"
            },
            {
              "internalType": "address",
              "name": "consensusAddress",
              "type": "address"
            },
            {
              "internalType": "uint256",
              "name": "responseTime",
              "type": "uint256"
            },
            {
              "internalType": "uint256",
              "name": "interestRate",
              "type": "uint256"
            },
            {
              "internalType": "uint256",
              "name": "collateralRatio",
              "type": "uint256"
            },
            {
              "internalType": "uint256",
              "name": "maxLoanAmount",
              "type": "uint256"
            },
            {
              "components": [
                {
                  "internalType": "uint256",
                  "name": "signerNonce",
                  "type": "uint256"
                },
                {
                  "internalType": "uint8",
                  "name": "v",
                  "type": "uint8"
                },
                {
                  "internalType": "bytes32",
                  "name": "r",
                  "type": "bytes32"
                },
                {
                  "internalType": "bytes32",
                  "name": "s",
                  "type": "bytes32"
                }
              ],
              "internalType": "struct TellerCommon.Signature",
              "name": "signature",
              "type": "tuple"
            }
          ],
          "internalType": "struct TellerCommon.LoanResponse[]",
          "name": "responses",
          "type": "tuple[]"
        },
        {
          "internalType": "uint256",
          "name": "collateralAmount",
          "type": "uint256"
        }
      ],
      "name": "createLoanWithTerms",
      "outputs": [],
      "payable": true,
      "stateMutability": "payable",
      "type": "function"
    },
    {
      "constant": false,
      "inputs": [
        {
          "internalType": "address",
          "name": "priceOracleAddress",
          "type": "address"
        },
        {
          "internalType": "address",
          "name": "lendingPoolAddress",
          "type": "address"
        },
        {
          "internalType": "address",
          "name": "loanTermsConsensusAddress",
          "type": "address"
        },
        {
          "internalType": "address",
          "name": "settingsAddress",
          "type": "address"
        },
        {
          "internalType": "address",
          "name": "collateralTokenAddress",
          "type": "address"
        }
      ],
      "name": "initialize",
      "outputs": [],
      "payable": false,
      "stateMutability": "nonpayable",
      "type": "function"
    },
    {
      "constant": false,
      "inputs": [],
      "name": "initialize",
      "outputs": [],
      "payable": false,
      "stateMutability": "nonpayable",
      "type": "function"
    }
  ],
  "bytecode": "0x608060405234801561001057600080fd5b5061523c806100206000396000f3fe6080604052600436106101815760003560e01c80638129fc1c116100d1578063c35d64ea1161008a578063e06174e411610064578063e06174e4146103ff578063e1ec3c6814610414578063e3ed19021461044c578063eee8b7ff1461046c57610181565b8063c35d64ea146103aa578063ccdd9f5d146103bf578063d8aed145146103df57610181565b80638129fc1c14610316578063934b5d131461032b578063a59a997314610358578063a5c5c7b21461036d578063aaaca55814610380578063b2016bd41461039557610181565b80634ac8eb5f1161013e57806358895e3d1161011857806358895e3d1461029f5780636948f32b146102c157806369e527da146102e1578063767a7b05146102f657610181565b80634ac8eb5f14610255578063513484541461026a578063530e784f1461027f57610181565b806302bc2cdb146101865780631459457a146101a8578063158ef93e146101c85780631a74856b146101f35780632630c12f146102065780633b92930014610228575b600080fd5b34801561019257600080fd5b506101a66101a136600461401f565b610499565b005b3480156101b457600080fd5b506101a66101c3366004613e21565b610b7b565b3480156101d457600080fd5b506101dd610c20565b6040516101ea9190614cec565b60405180910390f35b6101a6610201366004613ed0565b610c3f565b34801561021257600080fd5b5061021b610e2a565b6040516101ea9190614c46565b34801561023457600080fd5b50610248610243366004614001565b610e39565b6040516101ea9190614cfa565b34801561026157600080fd5b50610248610e69565b34801561027657600080fd5b50610248610e6f565b34801561028b57600080fd5b506101a661029a366004613de5565b610e75565b3480156102ab57600080fd5b506102b4610fd3565b6040516101ea9190614d08565b3480156102cd57600080fd5b506101dd6102dc366004614001565b610fe2565b3480156102ed57600080fd5b5061021b61113b565b34801561030257600080fd5b506101a661031136600461401f565b6111bd565b34801561032257600080fd5b506101a66113d6565b34801561033757600080fd5b5061034b610346366004614001565b61145e565b6040516101ea9190614f47565b34801561036457600080fd5b506102b461146f565b6101a661037b366004613f77565b61147e565b34801561038c57600080fd5b5061021b611a72565b3480156103a157600080fd5b5061021b611ab7565b3480156103b657600080fd5b5061021b611ac6565b3480156103cb57600080fd5b506101a66103da366004614001565b611b0b565b3480156103eb57600080fd5b506101a66103fa36600461401f565b611ebb565b34801561040b57600080fd5b506102b46122c1565b34801561042057600080fd5b5061043461042f366004614001565b6122e3565b6040516101ea9c9b9a99989796959493929190614fbb565b34801561045857600080fd5b50610248610467366004613e96565b61239b565b34801561047857600080fd5b5061048c610487366004613de5565b6123c9565b6040516101ea9190614cdb565b8160016000828152606d60205260409020600e0154600160a01b900460ff1660038111156104c357fe5b146104e95760405162461bcd60e51b81526004016104e090614ef7565b60405180910390fd5b6104f1610c20565b61050d5760405162461bcd60e51b81526004016104e090614ee7565b610515612435565b156105325760405162461bcd60e51b81526004016104e090614de7565b606a546001600160a01b0316610547816124af565b156105645760405162461bcd60e51b81526004016104e090614d47565b603380546001908101918290556000868152606d6020526040902001546001600160a01b03163381146105a95760405162461bcd60e51b81526004016104e090614e97565b6000868152606d60205260409020600501548511156105da5760405162461bcd60e51b81526004016104e090614d77565b6000868152606d602052604090206007015442111561060b5760405162461bcd60e51b81526004016104e090614e37565b6107856106166122c1565b6001600160a01b031663269012a061062c6122c1565b6001600160a01b031663d86d744e6040518163ffffffff1660e01b815260040160206040518083038186803b15801561066457600080fd5b505afa158015610678573d6000803e3d6000fd5b505050506040513d601f19601f8201168201806040525061069c9190810190613f59565b6001600160a01b03166311880cc86040518163ffffffff1660e01b815260040160206040518083038186803b1580156106d457600080fd5b505afa1580156106e8573d6000803e3d6000fd5b505050506040513d601f19601f8201168201806040525061070c9190810190613f3b565b6040518263ffffffff1660e01b81526004016107289190614cfa565b60206040518083038186803b15801561074057600080fd5b505afa158015610754573d6000803e3d6000fd5b505050506040513d601f19601f820116820180604052506107789190810190613f3b565b429063ffffffff61253416565b6000878152606d60205260409020600a015411156107b55760405162461bcd60e51b81526004016104e090614e17565b6000868152606d60205260409020600d8101869055600b8101869055600681015460039091015461081a916301e133809161080e9161271091839190610802908c9063ffffffff61257f16565b9063ffffffff61257f16565b9063ffffffff6125b916565b6000878152606d60205260409020600c0155610834613b93565b61083d876125fb565b90508060600151156108615760405162461bcd60e51b81526004016104e090614df7565b6000878152606d60205260409020426008820155600e01805460ff60a01b1916600160a11b1790556108928761264c565b6000888152606d602052604090819020600e0180546001600160a01b0319166001600160a01b039384161790819055606a549151631397424760e11b81529183169263272e848e926108ea928b921690600401614f77565b600060405180830381600087803b15801561090457600080fd5b505af1158015610918573d6000803e3d6000fd5b5050506000888152606d602052604090819020600e0154905163cd6dc68760e01b81526001600160a01b03909116915063cd6dc6879061095e9030908b90600401614cc0565b600060405180830381600087803b15801561097857600080fd5b505af115801561098c573d6000803e3d6000fd5b50505050610998612745565b6001600160a01b031663c7bbb113606a60009054906101000a90046001600160a01b03166001600160a01b031663aaaca5586040518163ffffffff1660e01b815260040160206040518083038186803b1580156109f457600080fd5b505afa158015610a08573d6000803e3d6000fd5b505050506040513d601f19601f82011682018060405250610a2c9190810190613e03565b306001600160a01b031663b2016bd46040518163ffffffff1660e01b815260040160206040518083038186803b158015610a6557600080fd5b505afa158015610a79573d6000803e3d6000fd5b505050506040513d601f19601f82011682018060405250610a9d9190810190613e03565b896040518463ffffffff1660e01b8152600401610abc93929190614ca5565b600060405180830381600087803b158015610ad657600080fd5b505af1158015610aea573d6000803e3d6000fd5b5050506000888152606d602052604090819020600e81015460019091015491516001600160a01b03918216935091169089907f85b5516a17ce775661a4b967b1fb30c852678f6598d86d9f3c99b7b60ff2d0ce90610b49908b90614cfa565b60405180910390a450506033548114610b745760405162461bcd60e51b81526004016104e090614f17565b5050505050565b610b83610c20565b15610ba05760405162461bcd60e51b81526004016104e090614f27565b60408051808201909152601a81527f50524f564944455f434f4c4c5f544f4b454e5f414444524553530000000000006020820152610bee906001600160a01b0383169063ffffffff6127bf16565b610bfa858585856127ec565b606780546001600160a01b0319166001600160a01b039290921691909117905550505050565b600080604051610c2f90614c30565b6040519081900390205492915050565b3415610c5d5760405162461bcd60e51b81526004016104e090614d67565b8160016000828152606d60205260409020600e0154600160a01b900460ff166003811115610c8757fe5b1480610cb9575060026000828152606d60205260409020600e0154600160a01b900460ff166003811115610cb757fe5b145b610cd55760405162461bcd60e51b81526004016104e090614d97565b610cdd610c20565b610cf95760405162461bcd60e51b81526004016104e090614ee7565b610d01612435565b15610d1e5760405162461bcd60e51b81526004016104e090614de7565b606a546001600160a01b0316610d33816124af565b15610d505760405162461bcd60e51b81526004016104e090614d47565b6000848152606d6020908152604091829020600101548251808401909352601983527f424f52524f5745525f4c4f414e5f49445f4d49534d415443480000000000000091830191909152610db7916001600160a01b0388811692169063ffffffff61293d16565b60008311610dd75760405162461bcd60e51b81526004016104e090614e77565b610de18484612966565b846001600160a01b0316847feec2f3feb835e2f2fd44281034b04700a1ddda63dd402949d470a25a7c40b36c85604051610e1b9190614cfa565b60405180910390a35050505050565b6069546001600160a01b031681565b6000818152606d60205260408120600b810154600c90910154610e619163ffffffff61297e16565b90505b919050565b60665481565b60685481565b610e7d610c20565b610e995760405162461bcd60e51b81526004016104e090614ee7565b610ea16122c1565b6001600160a01b031663c095ea27336040518263ffffffff1660e01b8152600401610ecc9190614c54565b60006040518083038186803b158015610ee457600080fd5b505afa158015610ef8573d6000803e3d6000fd5b50505050610f0e816001600160a01b03166129a3565b610f2a5760405162461bcd60e51b81526004016104e090614e87565b60695460408051808201909152601b81527f4e45575f4f5241434c455f4d5553545f42455f50524f5649444544000000000060208201526001600160a01b0390911690610f80908290849063ffffffff6129df16565b606980546001600160a01b0319166001600160a01b03848116918217909255604051909183169033907ff51f0fffc8121ee3747e0536c487d894894cdba960ccfb4ab385a88d51b16fed90600090a45050565b606b546001600160a01b031681565b6000610fec612435565b806110075750606a54611007906001600160a01b03166124af565b80611039575060026000838152606d60205260409020600e0154600160a01b900460ff16600381111561103657fe5b14155b1561104657506000610e64565b6000828152606d602052604081206008810154600690910154909142611072848463ffffffff61297e16565b10905080156110875760019350505050610e64565b6000858152606d60205260409020600e01546001600160a01b0316801561112457806001600160a01b031663415dfa5b6040518163ffffffff1660e01b815260040160206040518083038186803b1580156110e157600080fd5b505afa1580156110f5573d6000803e3d6000fd5b505050506040513d601f19601f820116820180604052506111199190810190613f1d565b945050505050610e64565b61112d866125fb565b606001519695505050505050565b606a54604080516334f293ed60e11b815290516000926001600160a01b0316916369e527da916004808301926020929190829003018186803b15801561118057600080fd5b505afa158015611194573d6000803e3d6000fd5b505050506040513d601f19601f820116820180604052506111b89190810190613e03565b905090565b8060016000828152606d60205260409020600e0154600160a01b900460ff1660038111156111e757fe5b1480611219575060026000828152606d60205260409020600e0154600160a01b900460ff16600381111561121757fe5b145b6112355760405162461bcd60e51b81526004016104e090614d97565b61123d610c20565b6112595760405162461bcd60e51b81526004016104e090614ee7565b611261612435565b1561127e5760405162461bcd60e51b81526004016104e090614de7565b606a546001600160a01b0316611293816124af565b156112b05760405162461bcd60e51b81526004016104e090614d47565b603380546001908101918290556000858152606d6020526040902001546001600160a01b031633146112f45760405162461bcd60e51b81526004016104e090614ea7565b600085116113145760405162461bcd60e51b81526004016104e090614dd7565b600061131f856129e9565b9050600061132c82612a20565b6000878152606d602052604081206009015491925090611352908363ffffffff61253416565b90508781111561135f5750865b801561137057611370878233612b65565b336001600160a01b0316877f7c5e5cb62e5ed3caf3764e4b0afedfedef533e27809d43367799787ad2abcd41836040516113aa9190614cfa565b60405180910390a35050506033548114610b745760405162461bcd60e51b81526004016104e090614f17565b600054610100900460ff16806113ef57506113ef612bb9565b806113fd575060005460ff16155b6114195760405162461bcd60e51b81526004016104e090614e47565b600054610100900460ff16158015611444576000805460ff1961ff0019909116610100171660011790555b6001603355801561145b576000805461ff00191690555b50565b611466613b93565b610e61826125fb565b606a546001600160a01b031681565b341561149c5760405162461bcd60e51b81526004016104e090614d67565b6114a4610c20565b6114c05760405162461bcd60e51b81526004016104e090614ee7565b6114c8612435565b156114e55760405162461bcd60e51b81526004016104e090614de7565b6114f26020850185613de5565b336001600160a01b0382161461151a5760405162461bcd60e51b81526004016104e090614e97565b61152936869003860186613fe3565b60006115336122c1565b6001600160a01b031663269012a06115496122c1565b6001600160a01b031663d86d744e6040518163ffffffff1660e01b815260040160206040518083038186803b15801561158157600080fd5b505afa158015611595573d6000803e3d6000fd5b505050506040513d601f19601f820116820180604052506115b99190810190613f59565b6001600160a01b031663cc44cadb6040518163ffffffff1660e01b815260040160206040518083038186803b1580156115f157600080fd5b505afa158015611605573d6000803e3d6000fd5b505050506040513d601f19601f820116820180604052506116299190810190613f3b565b6040518263ffffffff1660e01b81526004016116459190614cfa565b60206040518083038186803b15801561165d57600080fd5b505afa158015611671573d6000803e3d6000fd5b505050506040513d601f19601f820116820180604052506116959190810190613f3b565b90508160a001518110156116bb5760405162461bcd60e51b81526004016104e090614d27565b60006116c56122c1565b6001600160a01b03166369ff7744606a60009054906101000a90046001600160a01b03166001600160a01b031663aaaca5586040518163ffffffff1660e01b815260040160206040518083038186803b15801561172157600080fd5b505afa158015611735573d6000803e3d6000fd5b505050506040513d601f19601f820116820180604052506117599190810190613e03565b85608001516040518363ffffffff1660e01b815260040161177b929190614cc0565b60206040518083038186803b15801561179357600080fd5b505afa1580156117a7573d6000803e3d6000fd5b505050506040513d601f19601f820116820180604052506117cb9190810190613f1d565b905080156117eb5760405162461bcd60e51b81526004016104e090614d57565b6117f88360800151612bbf565b6118145760405162461bcd60e51b81526004016104e090614ec7565b600061181e612f2f565b606b5460405163064e5d4960e01b8152919250600091829182916001600160a01b039091169063064e5d499061185c908f908f908f90600401614f55565b606060405180830381600087803b15801561187657600080fd5b505af115801561188a573d6000803e3d6000fd5b505050506040513d601f19601f820116820180604052506118ae919081019061403e565b919450925090506118d0846118c8368f90038f018f613fe3565b858585612f49565b6000858152606d6020908152604091829020835181558382015180516001830180546001600160a01b03199081166001600160a01b0393841617909155938201516002840180548616918316919091179055818501516003808501919091556060808401516004860155608080850151600587015560a0948501516006870155968801516007860155870151600885015594860151600984015590850151600a83015560c0850151600b83015560e0850151600c830155610100850151600d830155610120850151600e83018054909416911617808355610140850151919391929160ff60a01b1990911690600160a01b9084908111156119cd57fe5b02179055506101609190910151600e9091018054911515600160a81b0260ff60a81b199092169190911790558815611a0957611a09848a612966565b606c6000611a1a60208f018f613de5565b6001600160a01b031681526020808201929092526040016000908120805460018101825590825291902001849055611a6484611a5b368f90038f018f613fe3565b8585858e613198565b505050505050505050505050565b606a546040805163155594ab60e31b815290516000926001600160a01b03169163aaaca558916004808301926020929190829003018186803b15801561118057600080fd5b6067546001600160a01b031681565b606a54604080516361aeb27560e11b815290516000926001600160a01b03169163c35d64ea916004808301926020929190829003018186803b15801561118057600080fd5b8060026000828152606d60205260409020600e0154600160a01b900460ff166003811115611b3557fe5b14611b525760405162461bcd60e51b81526004016104e090614dc7565b611b5a610c20565b611b765760405162461bcd60e51b81526004016104e090614ee7565b611b7e612435565b15611b9b5760405162461bcd60e51b81526004016104e090614de7565b606a546001600160a01b0316611bb0816124af565b15611bcd5760405162461bcd60e51b81526004016104e090614d47565b6033805460010190819055611be184610fe2565b611bfd5760405162461bcd60e51b81526004016104e090614db7565b6000848152606d60205260408120600e8101805460ff60a01b1916600360a01b1760ff60a81b1916600160a81b1790556009015490611c3b82613263565b9050611c48868333612b65565b6000611c526122c1565b6001600160a01b031663269012a0611c686122c1565b6001600160a01b031663d86d744e6040518163ffffffff1660e01b815260040160206040518083038186803b158015611ca057600080fd5b505afa158015611cb4573d6000803e3d6000fd5b505050506040513d601f19601f82011682018060405250611cd89190810190613f59565b6001600160a01b0316631139087a6040518163ffffffff1660e01b815260040160206040518083038186803b158015611d1057600080fd5b505afa158015611d24573d6000803e3d6000fd5b505050506040513d601f19601f82011682018060405250611d489190810190613f3b565b6040518263ffffffff1660e01b8152600401611d649190614cfa565b60206040518083038186803b158015611d7c57600080fd5b505afa158015611d90573d6000803e3d6000fd5b505050506040513d601f19601f82011682018060405250611db49190810190613f3b565b90506000611dce61271061080e858563ffffffff61257f16565b606a546040516382f7b02760e01b81529192506001600160a01b0316906382f7b02790611e019084903390600401614f85565b600060405180830381600087803b158015611e1b57600080fd5b505af1158015611e2f573d6000803e3d6000fd5b5050506000898152606d6020526040908190206001015490516001600160a01b03909116915089907f9950a0562c02382e2e840daa73082d5be7660ce37601f28fa4c84089c11e8a0690611e8890339089908790614c62565b60405180910390a3505050506033548114611eb55760405162461bcd60e51b81526004016104e090614f17565b50505050565b8060026000828152606d60205260409020600e0154600160a01b900460ff166003811115611ee557fe5b14611f025760405162461bcd60e51b81526004016104e090614dc7565b611f0a610c20565b611f265760405162461bcd60e51b81526004016104e090614ee7565b611f2e612435565b15611f4b5760405162461bcd60e51b81526004016104e090614de7565b606a546001600160a01b0316611f60816124af565b15611f7d5760405162461bcd60e51b81526004016104e090614d47565b603380546001019081905584611fa55760405162461bcd60e51b81526004016104e090614d37565b846000611fb186610e39565b905081811015611fbf578091505b611fcf818363ffffffff61253416565b9050611fdb8683613357565b8061207f576000868152606d60205260409020600e8101805460ff60a01b1916600360a01b179055600981015460019091015461202490889083906001600160a01b0316612b65565b6000878152606d6020526040908190206001015490516001600160a01b039091169088907f7c5e5cb62e5ed3caf3764e4b0afedfedef533e27809d43367799787ad2abcd4190612075908590614cfa565b60405180910390a3505b606a5460405163acb7081560e01b81526001600160a01b039091169063acb70815906120b19085903390600401614f85565b600060405180830381600087803b1580156120cb57600080fd5b505af11580156120df573d6000803e3d6000fd5b505050506120eb612745565b6001600160a01b03166362e269ef606a60009054906101000a90046001600160a01b03166001600160a01b031663aaaca5586040518163ffffffff1660e01b815260040160206040518083038186803b15801561214757600080fd5b505afa15801561215b573d6000803e3d6000fd5b505050506040513d601f19601f8201168201806040525061217f9190810190613e03565b306001600160a01b031663b2016bd46040518163ffffffff1660e01b815260040160206040518083038186803b1580156121b857600080fd5b505afa1580156121cc573d6000803e3d6000fd5b505050506040513d601f19601f820116820180604052506121f09190810190613e03565b856040518463ffffffff1660e01b815260040161220f93929190614ca5565b600060405180830381600087803b15801561222957600080fd5b505af115801561223d573d6000803e3d6000fd5b5050506000878152606d6020526040908190206001015490516001600160a01b03909116915087907f20a1f2ec363af45dc5ee7d9d622f2dd68b52501c382126c7f04b53663c4c69bf9061229690869033908790614fa0565b60405180910390a350506033548114610b745760405162461bcd60e51b81526004016104e090614f17565b60008060006040516122d290614c3b565b604051908190039020549250505090565b606d602090815260009182526040918290208054835160c08101855260018301546001600160a01b03908116825260028401548116948201949094526003830154948101949094526004820154606085015260058201546080850152600682015460a0850152600782015460088301546009840154600a850154600b860154600c870154600d880154600e9098015496999895979496939592949193909281169060ff600160a01b8204811691600160a81b9004168c565b606c60205281600052604060002081815481106123b457fe5b90600052602060002001600091509150505481565b6001600160a01b0381166000908152606c602090815260409182902080548351818402810184019094528084526060939283018282801561242957602002820191906000526020600020905b815481526020019060010190808311612415575b50505050509050919050565b600061243f6122c1565b6001600160a01b031663b187bd266040518163ffffffff1660e01b815260040160206040518083038186803b15801561247757600080fd5b505afa15801561248b573d6000803e3d6000fd5b505050506040513d601f19601f820116820180604052506111b89190810190613f1d565b60006124b96122c1565b6001600160a01b0316633b668321836040518263ffffffff1660e01b81526004016124e49190614c46565b60206040518083038186803b1580156124fc57600080fd5b505afa158015612510573d6000803e3d6000fd5b505050506040513d601f19601f82011682018060405250610e619190810190613f1d565b600061257683836040518060400160405280601e81526020017f536166654d6174683a207375627472616374696f6e206f766572666c6f770000815250613412565b90505b92915050565b60008261258e57506000612579565b8282028284828161259b57fe5b04146125765760405162461bcd60e51b81526004016104e090614e07565b600061257683836040518060400160405280601a81526020017f536166654d6174683a206469766973696f6e206279207a65726f000000000000815250613443565b612603613b93565b6000828152606d602052604081206009015490806126208561347a565b604080516080810182528681526020810193909352820181905293909311606084015250909392505050565b60006126566122c1565b6001600160a01b031663bdd1daaa6040518163ffffffff1660e01b815260040160206040518083038186803b15801561268e57600080fd5b505afa1580156126a2573d6000803e3d6000fd5b505050506040513d601f19601f820116820180604052506126c69190810190613f59565b6001600160a01b0316634614874e30846040518363ffffffff1660e01b81526004016126f3929190614cc0565b602060405180830381600087803b15801561270d57600080fd5b505af1158015612721573d6000803e3d6000fd5b505050506040513d601f19601f82011682018060405250610e619190810190613e03565b600061274f6122c1565b6001600160a01b0316631390f8d76040518163ffffffff1660e01b815260040160206040518083038186803b15801561278757600080fd5b505afa15801561279b573d6000803e3d6000fd5b505050506040513d601f19601f820116820180604052506111b89190810190613f59565b6127c88261349e565b81906127e75760405162461bcd60e51b81526004016104e09190614d16565b505050565b6127f4610c20565b156128115760405162461bcd60e51b81526004016104e090614f27565b60408051808201909152601681527550524f564944455f4f5241434c455f4144445245535360501b6020820152612858906001600160a01b0386169063ffffffff6127bf16565b60408051808201909152601c81527f50524f564944455f4c454e44494e475f504f4f4c5f414444524553530000000060208201526128a6906001600160a01b0385169063ffffffff6127bf16565b60408051808201909152601b81527f50524f56494445445f4c4f414e5f5445524d535f41444452455353000000000060208201526128f4906001600160a01b0384169063ffffffff6127bf16565b6128fd816134ac565b50606980546001600160a01b039485166001600160a01b031991821617909155606a805493851693821693909317909255606b8054919093169116179055565b612947838361355e565b8190611eb55760405162461bcd60e51b81526004016104e09190614d16565b612970828261356f565b61297a33826135c8565b5050565b6000828201838110156125765760405162461bcd60e51b81526004016104e090614d87565b6000813f7fc5d2460186f7233c927e7db2dcc703c0e500b653ca82273b7bfad8045d85a4708181148015906129d757508115155b949350505050565b61294783836135e5565b6000806129f583610e39565b6000848152606d60205260409020600401549091506129d761271061080e848463ffffffff61257f16565b600080612aba606a60009054906101000a90046001600160a01b03166001600160a01b031663aaaca5586040518163ffffffff1660e01b815260040160206040518083038186803b158015612a7457600080fd5b505afa158015612a88573d6000803e3d6000fd5b505050506040513d601f19601f82011682018060405250612aac9190810190613e03565b6001600160a01b03166135f7565b90506000606960009054906101000a90046001600160a01b03166001600160a01b03166396237c026040518163ffffffff1660e01b815260040160206040518083038186803b158015612b0c57600080fd5b505afa158015612b20573d6000803e3d6000fd5b505050506040513d601f19601f82011682018060405250612b449190810190613f3b565b90506000612b5c8361080e878563ffffffff61257f16565b95945050505050565b606654612b78908363ffffffff61253416565b6066556000838152606d6020526040902060090154612b9d908363ffffffff61253416565b6000848152606d60205260409020600901556127e78183613678565b303b1590565b600080612bca6122c1565b6001600160a01b031663dc21a6a06040518163ffffffff1660e01b815260040160206040518083038186803b158015612c0257600080fd5b505afa158015612c16573d6000803e3d6000fd5b505050506040513d601f19601f82011682018060405250612c3a9190810190613f59565b6001600160a01b0316631fb7cec9606a60009054906101000a90046001600160a01b03166001600160a01b031663aaaca5586040518163ffffffff1660e01b815260040160206040518083038186803b158015612c9657600080fd5b505afa158015612caa573d6000803e3d6000fd5b505050506040513d601f19601f82011682018060405250612cce9190810190613e03565b6067546040516001600160e01b031960e085901b168152612cfc92916001600160a01b031690600401614c8a565b60206040518083038186803b158015612d1457600080fd5b505afa158015612d28573d6000803e3d6000fd5b505050506040513d601f19601f82011682018060405250612d4c9190810190613e03565b90506001600160a01b038116612d745760405162461bcd60e51b81526004016104e090614e57565b604051632319178560e11b81526000906001600160a01b038316906346322f0a90612db2906b14dd5c1c1b1e551bd119589d60a21b90600401614cfa565b60206040518083038186803b158015612dca57600080fd5b505afa158015612dde573d6000803e3d6000fd5b505050506040513d601f19601f82011682018060405250612e029190810190613f3b565b90506000612e0e612745565b6001600160a01b031663db63323e606a60009054906101000a90046001600160a01b03166001600160a01b031663aaaca5586040518163ffffffff1660e01b815260040160206040518083038186803b158015612e6a57600080fd5b505afa158015612e7e573d6000803e3d6000fd5b505050506040513d601f19601f82011682018060405250612ea29190810190613e03565b6067546040516001600160e01b031960e085901b168152612ed292916001600160a01b0316908a90600401614ca5565b60206040518083038186803b158015612eea57600080fd5b505afa158015612efe573d6000803e3d6000fd5b505050506040513d601f19601f82011682018060405250612f229190810190613f3b565b9190911115949350505050565b606854612f4381600163ffffffff61297e16565b60685590565b612f51613bbd565b6000612f5b6122c1565b6001600160a01b031663269012a0612f716122c1565b6001600160a01b031663d86d744e6040518163ffffffff1660e01b815260040160206040518083038186803b158015612fa957600080fd5b505afa158015612fbd573d6000803e3d6000fd5b505050506040513d601f19601f82011682018060405250612fe19190810190613f59565b6001600160a01b031663e00a46156040518163ffffffff1660e01b815260040160206040518083038186803b15801561301957600080fd5b505afa15801561302d573d6000803e3d6000fd5b505050506040513d601f19601f820116820180604052506130519190810190613f3b565b6040518263ffffffff1660e01b815260040161306d9190614cfa565b60206040518083038186803b15801561308557600080fd5b505afa158015613099573d6000803e3d6000fd5b505050506040513d601f19601f820116820180604052506130bd9190810190613f3b565b905060006130d1428363ffffffff61297e16565b90506040518061018001604052808981526020016040518060c001604052808a600001516001600160a01b031681526020018a602001516001600160a01b031681526020018981526020018881526020018781526020018a60a00151815250815260200182815260200160008152602001600081526020016000815260200160008152602001600081526020016000815260200160006001600160a01b031681526020016001600381111561318257fe5b8152600060209091015298975050505050505050565b84602001516001600160a01b031685600001516001600160a01b0316877f0358f509931cba53bbb6a94b7f05a5178220a0c7ddb54b1a1722df9e6ed6aa098787878b60a00151606d60008f815260200190815260200160002060070154604051613206959493929190615073565b60405180910390a4801561325b5784600001516001600160a01b0316867feec2f3feb835e2f2fd44281034b04700a1ddda63dd402949d470a25a7c40b36c836040516132529190614cfa565b60405180910390a35b505050505050565b6000806132b7606a60009054906101000a90046001600160a01b03166001600160a01b031663aaaca5586040518163ffffffff1660e01b815260040160206040518083038186803b158015612a7457600080fd5b90506000606960009054906101000a90046001600160a01b03166001600160a01b03166396237c026040518163ffffffff1660e01b815260040160206040518083038186803b15801561330957600080fd5b505afa15801561331d573d6000803e3d6000fd5b505050506040513d601f19601f820116820180604052506133419190810190613f3b565b90506129d78161080e868563ffffffff61257f16565b6000828152606d60205260409020600b01548111156133da576000828152606d60205260409020600b0154819061339590829063ffffffff61253416565b6000848152606d60205260408120600b810191909155600c01549091506133c2908263ffffffff61253416565b6000848152606d60205260409020600c01555061297a565b6000828152606d60205260409020600b01546133fc908263ffffffff61253416565b6000838152606d60205260409020600b01555050565b600081848411156134365760405162461bcd60e51b81526004016104e09190614d16565b50508183035b9392505050565b600081836134645760405162461bcd60e51b81526004016104e09190614d16565b50600083858161347057fe5b0495945050505050565b6000806000613488846129e9565b90508061349482612a20565b9250925050915091565b6001600160a01b0316151590565b6134b4610c20565b156134d15760405162461bcd60e51b81526004016104e090614f27565b60408051808201909152601981527f53455454494e47535f4d5553545f42455f50524f564944454400000000000000602082015261351f906001600160a01b0383169063ffffffff6127bf16565b613531816001600160a01b03166129a3565b61354d5760405162461bcd60e51b81526004016104e090614da7565b613555613695565b61145b816136b3565b6001600160a01b0390811691161490565b606654613582908263ffffffff61297e16565b6066556000828152606d60205260409020600901546135a7908263ffffffff61297e16565b6000928352606d602052604090922060098101929092555042600a90910155565b60675461297a906001600160a01b0316838363ffffffff61372216565b6001600160a01b039081169116141590565b600080826001600160a01b031663313ce5676040518163ffffffff1660e01b815260040160206040518083038186803b15801561363357600080fd5b505afa158015613647573d6000803e3d6000fd5b505050506040513d601f19601f8201168201806040525061366b9190810190614081565b60ff16600a0a9392505050565b60675461297a906001600160a01b0316838363ffffffff6139a116565b60006040516136a390614c30565b6040519081900390206001905550565b6136cc6136be6122c1565b6001600160a01b031661349e565b156136d65761145b565b6136e8816001600160a01b03166129a3565b6137045760405162461bcd60e51b81526004016104e090614da7565b600060405161371290614c3b565b6040519081900390208290555050565b604051636eb1769f60e11b81526000906001600160a01b0385169063dd62ed3e906137539086903090600401614c8a565b60206040518083038186803b15801561376b57600080fd5b505afa15801561377f573d6000803e3d6000fd5b505050506040513d601f19601f820116820180604052506137a39190810190613f3b565b9050818110156137c55760405162461bcd60e51b81526004016104e090614f07565b6040516370a0823160e01b81526000906001600160a01b038616906370a08231906137f4903090600401614c46565b60206040518083038186803b15801561380c57600080fd5b505afa158015613820573d6000803e3d6000fd5b505050506040513d601f19601f820116820180604052506138449190810190613f3b565b90506000856001600160a01b03166323b872dd8630876040518463ffffffff1660e01b815260040161387893929190614ca5565b602060405180830381600087803b15801561389257600080fd5b505af11580156138a6573d6000803e3d6000fd5b505050506040513d601f19601f820116820180604052506138ca9190810190613f1d565b9050806138e95760405162461bcd60e51b81526004016104e090614e27565b6040516370a0823160e01b81526000906001600160a01b038816906370a0823190613918903090600401614c46565b60206040518083038186803b15801561393057600080fd5b505afa158015613944573d6000803e3d6000fd5b505050506040513d601f19601f820116820180604052506139689190810190613f3b565b90508461397b828563ffffffff61253416565b146139985760405162461bcd60e51b81526004016104e090614e67565b50505050505050565b6040516370a0823160e01b81526000906001600160a01b038516906370a08231906139d0903090600401614c46565b60206040518083038186803b1580156139e857600080fd5b505afa1580156139fc573d6000803e3d6000fd5b505050506040513d601f19601f82011682018060405250613a209190810190613f3b565b905081811015613a425760405162461bcd60e51b81526004016104e090614eb7565b60405163a9059cbb60e01b81526000906001600160a01b0386169063a9059cbb90613a739087908790600401614cc0565b602060405180830381600087803b158015613a8d57600080fd5b505af1158015613aa1573d6000803e3d6000fd5b505050506040513d601f19601f82011682018060405250613ac59190810190613f1d565b905080613ae45760405162461bcd60e51b81526004016104e090614ed7565b6040516370a0823160e01b81526000906001600160a01b038716906370a0823190613b13903090600401614c46565b60206040518083038186803b158015613b2b57600080fd5b505afa158015613b3f573d6000803e3d6000fd5b505050506040513d601f19601f82011682018060405250613b639190810190613f3b565b905083613b76848363ffffffff61253416565b1461325b5760405162461bcd60e51b81526004016104e090614f37565b60405180608001604052806000815260200160008152602001600081526020016000151581525090565b60405180610180016040528060008152602001613bd8613c38565b81526020016000815260200160008152602001600081526020016000815260200160008152602001600081526020016000815260200160006001600160a01b0316815260200160006003811115613c2b57fe5b8152600060209091015290565b6040518060c0016040528060006001600160a01b0316815260200160006001600160a01b03168152602001600081526020016000815260200160008152602001600081525090565b8035612579816151c1565b8051612579816151c1565b60008083601f840112613ca857600080fd5b50813567ffffffffffffffff811115613cc057600080fd5b60208301915083610140820283011115613cd957600080fd5b9250929050565b8051612579816151d5565b8035612579816151de565b8051612579816151de565b8051612579816151e7565b600060e08284031215613d1e57600080fd5b50919050565b600060e08284031215613d3657600080fd5b613d4060e06150bf565b90506000613d4e8484613c80565b8252506020613d5f84848301613c80565b6020830152506040613d7384828501613c80565b6040830152506060613d8784828501613ceb565b6060830152506080613d9b84828501613ceb565b60808301525060a0613daf84828501613ceb565b60a08301525060c0613dc384828501613ceb565b60c08301525092915050565b8035612579816151f0565b8051612579816151f0565b600060208284031215613df757600080fd5b60006129d78484613c80565b600060208284031215613e1557600080fd5b60006129d78484613c8b565b600080600080600060a08688031215613e3957600080fd5b6000613e458888613c80565b9550506020613e5688828901613c80565b9450506040613e6788828901613c80565b9350506060613e7888828901613c80565b9250506080613e8988828901613c80565b9150509295509295909350565b60008060408385031215613ea957600080fd5b6000613eb58585613c80565b9250506020613ec685828601613ceb565b9150509250929050565b600080600060608486031215613ee557600080fd5b6000613ef18686613c80565b9350506020613f0286828701613ceb565b9250506040613f1386828701613ceb565b9150509250925092565b600060208284031215613f2f57600080fd5b60006129d78484613ce0565b600060208284031215613f4d57600080fd5b60006129d78484613cf6565b600060208284031215613f6b57600080fd5b60006129d78484613d01565b6000806000806101208587031215613f8e57600080fd5b6000613f9a8787613d0c565b94505060e085013567ffffffffffffffff811115613fb757600080fd5b613fc387828801613c96565b9350935050610100613fd787828801613ceb565b91505092959194509250565b600060e08284031215613ff557600080fd5b60006129d78484613d24565b60006020828403121561401357600080fd5b60006129d78484613ceb565b6000806040838503121561403257600080fd5b6000613eb58585613ceb565b60008060006060848603121561405357600080fd5b600061405f8686613cf6565b935050602061407086828701613cf6565b9250506040613f1386828701613cf6565b60006020828403121561409357600080fd5b60006129d78484613dda565b60006140ab8383614a93565b50506101400190565b60006140c0838361418f565b505060200190565b6140d18161516b565b82525050565b6140d181615134565b60006140ec83856150fa565b93506140f7826150e6565b8060005b8581101561412d5761410d8284615121565b614117888261409f565b9750614122836150f3565b9250506001016140fb565b509495945050505050565b6000614143826150ef565b61414d81856150fa565b9350614158836150e9565b8060005b8381101561412d57815161417088826140b4565b975061417b836150e9565b92505060010161415c565b6140d18161513f565b6140d1816150e6565b6140d181615144565b6140d181615176565b60006141b5826150ef565b6141bf81856150fa565b93506141cf818560208601615181565b6141d8816151ad565b9093019392505050565b60006141ef601d836150fa565b7f4455524154494f4e5f455843454544535f4d41585f4455524154494f4e000000815260200192915050565b6000614228601c83610e64565b7f54496e697469616c697a61626c652e6973496e697469616c697a6564000000008152601c0192915050565b60006142616015836150fa565b74105353d5539517d59053155157d491545552549151605a1b815260200192915050565b60006142926016836150fa565b7513115391125391d7d413d3d317d254d7d4105554d15160521b815260200192915050565b60006142c46019836150fa565b7f414d4f554e545f455843454544535f4d41585f414d4f554e5400000000000000815260200192915050565b60006142fd601e836150fa565b7f544f4b454e5f4c4f414e535f56414c55455f4d5553545f42455f5a45524f0000815260200192915050565b60006143366011836150fa565b7013505617d313d05397d15610d151511151607a1b815260200192915050565b6000614363601b836150fa565b7f536166654d6174683a206164646974696f6e206f766572666c6f770000000000815260200192915050565b600061439c6016836150fa565b751313d05397d393d517d050d512559157d3d497d4d15560521b815260200192915050565b60006143ce601b836150fa565b7f53455454494e47535f4d5553545f42455f415f434f4e54524143540000000000815260200192915050565b60006144076017836150fa565b7f444f45534e545f4e4545445f4c49515549444154494f4e000000000000000000815260200192915050565b6000614440600f836150fa565b6e4c4f414e5f4e4f545f41435449564560881b815260200192915050565b600061446b6014836150fa565b7343414e4e4f545f57495448445241575f5a45524f60601b815260200192915050565b600061449b6012836150fa565b71141310551193d49357d254d7d4105554d15160721b815260200192915050565b60006144c96018836150fa565b7f4d4f52455f434f4c4c41544552414c5f52455155495245440000000000000000815260200192915050565b60006145026021836150fa565b7f536166654d6174683a206d756c7469706c69636174696f6e206f766572666c6f8152607760f81b602082015260400192915050565b6000614545601d836150fa565b7f434f4c4c41544552414c5f4445504f53495445445f524543454e544c59000000815260200192915050565b600061457e601b836150fa565b7f544f4b454e535f5452414e534645525f46524f4d5f4641494c45440000000000815260200192915050565b60006145b76012836150fa565b711313d05397d511549354d7d156141254915160721b815260200192915050565b60006145e5602e836150fa565b7f436f6e747261637420696e7374616e63652068617320616c726561647920626581526d195b881a5b9a5d1a585b1a5e995960921b602082015260400192915050565b60006146356018836150fa565b7f41544d5f4e4f545f464f554e445f464f525f4d41524b45540000000000000000815260200192915050565b600061466e601f836150fa565b7f494e565f42414c414e43455f41465445525f5452414e534645525f46524f4d00815260200192915050565b60006146a76013836150fa565b7243414e4e4f545f4445504f5349545f5a45524f60681b815260200192915050565b60006146d6601e836150fa565b7f4f5241434c455f4d5553545f434f4e54524143545f4e4f545f454d5054590000815260200192915050565b600061470f6017836150fa565b7f424f52524f5745525f4d5553545f42455f53454e444552000000000000000000815260200192915050565b60006147486016836150fa565b7521a0a62622a92fa227a2a9a72a2fa7aba72fa627a0a760511b815260200192915050565b600061477a6019836150fa565b7f4e4f545f454e4f5547485f544f4b454e535f42414c414e434500000000000000815260200192915050565b60006147b3601883610e64565b7f426173655570677261646561626c652e73657474696e67730000000000000000815260180192915050565b60006147ec601a836150fa565b7f535550504c595f544f5f444542545f455843454544535f4d4158000000000000815260200192915050565b60006148256016836150fa565b751513d2d15394d7d514905394d1915497d1905253115160521b815260200192915050565b60006148576018836150fa565b7f434f4e54524143545f4e4f545f494e495449414c495a45440000000000000000815260200192915050565b6000614890600c836150fa565b6b1313d05397d393d517d4d15560a21b815260200192915050565b60006148b8601b836150fa565b7f4e4f545f454e4f5547485f544f4b454e535f414c4c4f57414e43450000000000815260200192915050565b60006148f1601f836150fa565b7f5265656e7472616e637947756172643a207265656e7472616e742063616c6c00815260200192915050565b600061492a601c836150fa565b7f434f4e54524143545f414c52454144595f494e495449414c495a454400000000815260200192915050565b6000614963601a836150fa565b7f494e565f42414c414e43455f41465445525f5452414e53464552000000000000815260200192915050565b805160808301906149a0848261418f565b5060208201516149b3602085018261418f565b5060408201516149c6604085018261418f565b506060820151611eb56060850182614186565b60e082016149e78280615103565b6149f184826140d7565b506149ff6020830183615103565b614a0c60208501826140d7565b50614a1a6040830183615103565b614a2760408501826140d7565b50614a356060830183615112565b614a42606085018261418f565b50614a506080830183615112565b614a5d608085018261418f565b50614a6b60a0830183615112565b614a7860a085018261418f565b50614a8660c0830183615112565b611eb560c085018261418f565b6101408201614aa28280615103565b614aac84826140d7565b50614aba6020830183615103565b614ac760208501826140d7565b50614ad56040830183615112565b614ae2604085018261418f565b50614af06060830183615112565b614afd606085018261418f565b50614b0b6080830183615112565b614b18608085018261418f565b50614b2660a0830183615112565b614b3360a085018261418f565b50614b4160c0830183615121565b611eb560c0850182614bbe565b805160c0830190614b5f84826140d7565b506020820151614b7260208501826140d7565b506040820151614b85604085018261418f565b506060820151614b98606085018261418f565b506080820151614bab608085018261418f565b5060a0820151611eb560a085018261418f565b60808201614bcc8280615112565b614bd6848261418f565b50614be46020830183615125565b614bf16020850182614c27565b50614bff6040830183615112565b614c0c604085018261418f565b50614c1a6060830183615112565b611eb5606085018261418f565b6140d181615165565b60006125798261421b565b6000612579826147a6565b6020810161257982846140d7565b6020810161257982846140c8565b60608101614c7082866140c8565b614c7d602083018561418f565b6129d7604083018461418f565b60408101614c9882856140d7565b61343c60208301846140d7565b60608101614cb382866140d7565b614c7d60208301856140d7565b60408101614cce82856140d7565b61343c602083018461418f565b602080825281016125768184614138565b602081016125798284614186565b60208101612579828461418f565b602081016125798284614198565b6020808252810161257681846141aa565b60208082528101610e61816141e2565b60208082528101610e6181614254565b60208082528101610e6181614285565b60208082528101610e61816142b7565b60208082528101610e61816142f0565b60208082528101610e6181614329565b60208082528101610e6181614356565b60208082528101610e618161438f565b60208082528101610e61816143c1565b60208082528101610e61816143fa565b60208082528101610e6181614433565b60208082528101610e618161445e565b60208082528101610e618161448e565b60208082528101610e61816144bc565b60208082528101610e61816144f5565b60208082528101610e6181614538565b60208082528101610e6181614571565b60208082528101610e61816145aa565b60208082528101610e61816145d8565b60208082528101610e6181614628565b60208082528101610e6181614661565b60208082528101610e618161469a565b60208082528101610e61816146c9565b60208082528101610e6181614702565b60208082528101610e618161473b565b60208082528101610e618161476d565b60208082528101610e61816147df565b60208082528101610e6181614818565b60208082528101610e618161484a565b60208082528101610e6181614883565b60208082528101610e61816148ab565b60208082528101610e61816148e4565b60208082528101610e618161491d565b60208082528101610e6181614956565b60808101612579828461498f565b6101008101614f6482866149d9565b81810360e0830152612b5c8184866140e0565b60408101614c98828561418f565b60408101614f93828561418f565b61343c60208301846140c8565b60608101614fae828661418f565b614c7d60208301856140c8565b6102208101614fca828f61418f565b614fd7602083018e614b4e565b614fe460e083018d61418f565b614ff261010083018c61418f565b61500061012083018b61418f565b61500e61014083018a61418f565b61501c61016083018961418f565b61502a61018083018861418f565b6150386101a083018761418f565b6150466101c08301866140d7565b6150546101e08301856141a1565b615062610200830184614186565b9d9c50505050505050505050505050565b60a08101615081828861418f565b61508e602083018761418f565b61509b604083018661418f565b6150a8606083018561418f565b6150b5608083018461418f565b9695505050505050565b60405181810167ffffffffffffffff811182821017156150de57600080fd5b604052919050565b90565b60200190565b5190565b6101400190565b90815260200190565b60006125766020840184613c80565b60006125766020840184613ceb565b5090565b60006125766020840184613dcf565b6000610e6182615159565b151590565b6000610e6182615134565b80610e64816151b7565b6001600160a01b031690565b60ff1690565b6000610e6182615144565b6000610e618261514f565b60005b8381101561519c578181015183820152602001615184565b83811115611eb55750506000910152565b601f01601f191690565b6004811061145b57fe5b6151ca81615134565b811461145b57600080fd5b6151ca8161513f565b6151ca816150e6565b6151ca81615144565b6151ca8161516556fea365627a7a72315820b6a58236eaf9854778a098d04335e9f047fbca8fb9d3be926cd9a6c8c213a8976c6578706572696d656e74616cf564736f6c63430005110040",
  "source": "pragma solidity 0.5.17;\npragma experimental ABIEncoderV2;\n\n// Contracts\nimport \"./LoansBase.sol\";\n\n/*****************************************************************************************************/\n/**                                             WARNING                                             **/\n/**                                  THIS CONTRACT IS UPGRADEABLE!                                  **/\n/**  ---------------------------------------------------------------------------------------------  **/\n/**  Do NOT change the order of or PREPEND any storage variables to this or new versions of this    **/\n/**  contract as this will cause the the storage slots to be overwritten on the proxy contract!!    **/\n/**                                                                                                 **/\n/**  Visit https://docs.openzeppelin.com/upgrades/2.6/proxies#upgrading-via-the-proxy-pattern for   **/\n/**  more information.                                                                              **/\n/*****************************************************************************************************/\n/**\n    @notice This contract is used as a basis for the creation of loans (not wei) across the platform\n    @notice It implements the LoansBase contract from Teller\n\n    @author develop@teller.finance\n */\ncontract TokenCollateralLoans is LoansBase {\n    /** Constants */\n\n    /** Properties */\n\n    /** Modifiers */\n\n    /**\n        @notice Checks the value in the current transactionn is zero.\n        @dev It throws a require error if value is not zero.\n     */\n    modifier noMsgValue() {\n        require(msg.value == 0, \"TOKEN_LOANS_VALUE_MUST_BE_ZERO\");\n        _;\n    }\n\n    /** External Functions */\n\n    /**\n     * @notice Deposit collateral tokens into a loan.\n     * @param borrower The address of the loan borrower.\n     * @param loanID The ID of the loan the collateral is for\n     * @param amount The amount to deposit as collateral.\n     */\n    function depositCollateral(\n        address borrower,\n        uint256 loanID,\n        uint256 amount\n    )\n        external\n        payable\n        noMsgValue()\n        loanActiveOrSet(loanID)\n        isInitialized()\n        whenNotPaused()\n        whenLendingPoolNotPaused(address(lendingPool))\n    {\n        borrower.requireEqualTo(\n            loans[loanID].loanTerms.borrower,\n            \"BORROWER_LOAN_ID_MISMATCH\"\n        );\n        require(amount > 0, \"CANNOT_DEPOSIT_ZERO\");\n\n        // Update the loan collateral and total. Transfer tokens to this contract.\n        _payInCollateral(loanID, amount);\n\n        emit CollateralDeposited(loanID, borrower, amount);\n    }\n\n    /**\n        @notice Creates a loan with the loan request and terms\n        @param request Struct of the protocol loan request\n        @param responses List of structs of the protocol loan responses\n        @param collateralAmount Amount of collateral required for the loan\n     */\n    function createLoanWithTerms(\n        TellerCommon.LoanRequest calldata request,\n        TellerCommon.LoanResponse[] calldata responses,\n        uint256 collateralAmount\n    )\n        external\n        payable\n        noMsgValue()\n        isInitialized()\n        whenNotPaused()\n        isBorrower(request.borrower)\n        withValidLoanRequest(request)\n    {\n        uint256 loanID = getAndIncrementLoanID();\n\n        (\n            uint256 interestRate,\n            uint256 collateralRatio,\n            uint256 maxLoanAmount\n        ) = loanTermsConsensus.processRequest(request, responses);\n\n        loans[loanID] = createLoan(\n            loanID,\n            request,\n            interestRate,\n            collateralRatio,\n            maxLoanAmount\n        );\n\n        if (collateralAmount > 0) {\n            // Update collateral, totalCollateral, and lastCollateralIn\n            _payInCollateral(loanID, collateralAmount);\n        }\n\n        borrowerLoans[request.borrower].push(loanID);\n\n        _emitLoanTermsSetAndCollateralDepositedEventsIfApplicable(\n            loanID,\n            request,\n            interestRate,\n            collateralRatio,\n            maxLoanAmount,\n            collateralAmount\n        );\n    }\n\n    /**\n        @notice Initializes the current contract instance setting the required parameters, if allowed\n        @param priceOracleAddress Contract address of the price oracle\n        @param lendingPoolAddress Contract address of the lending pool\n        @param loanTermsConsensusAddress Contract adddress for loan term consensus\n        @param settingsAddress Contract address for the configuration of the platform\n        @param collateralTokenAddress Contract address for the collateral token.\n     */\n    function initialize(\n        address priceOracleAddress,\n        address lendingPoolAddress,\n        address loanTermsConsensusAddress,\n        address settingsAddress,\n        address collateralTokenAddress\n    ) external isNotInitialized() {\n        collateralTokenAddress.requireNotEmpty(\"PROVIDE_COLL_TOKEN_ADDRESS\");\n\n        _initialize(\n            priceOracleAddress,\n            lendingPoolAddress,\n            loanTermsConsensusAddress,\n            settingsAddress\n        );\n\n        collateralToken = collateralTokenAddress;\n    }\n\n    /** Internal Function */\n    /**\n        @notice Pays out collateral for the associated loan\n        @param loanID The ID of the loan the collateral is for\n        @param amount The amount of collateral to be paid\n     */\n    function _payOutCollateral(\n        uint256 loanID,\n        uint256 amount,\n        address payable recipient\n    ) internal {\n        totalCollateral = totalCollateral.sub(amount);\n        loans[loanID].collateral = loans[loanID].collateral.sub(amount);\n\n        _collateralTokenTransfer(recipient, amount);\n    }\n\n    /**\n        @notice Pays collateral in for the associated loan\n        @param loanID The ID of the loan the collateral is for\n        @param amount The amount of collateral to be paid\n     */\n    function _payInCollateral(uint256 loanID, uint256 amount) internal {\n        // Update the total collateral and loan collateral\n        super._payInCollateral(loanID, amount);\n        // Transfer collateral tokens to this contract.\n        _collateralTokenTransferFrom(msg.sender, amount);\n    }\n\n    /**\n        @notice It transfers an amount of collateral tokens to a specific address.\n        @param recipient The address which will receive the tokens.\n        @param amount The amount of tokens to transfer.\n     */\n    function _collateralTokenTransfer(address recipient, uint256 amount) internal {\n        ERC20Detailed(collateralToken).tokenTransfer(recipient, amount);\n    }\n\n    /**\n        @notice It transfers an amount of collateral tokens from an address to this contract.\n        @param from The address where the tokens will transfer from.\n        @param amount The amount to be transferred.\n     */\n    function _collateralTokenTransferFrom(address from, uint256 amount) internal {\n        ERC20Detailed(collateralToken).tokenTransferFrom(from, amount);\n    }\n}\n",
  "sourcePath": "/Users/sy/Documents/GitHub/teller-protocol-v1/contracts/base/TokenCollateralLoans.sol",
  "compiler": {
    "name": "solc",
    "version": "0.5.17+commit.d19bba13.Emscripten.clang"
  },
  "schemaVersion": "3.0.23",
  "updatedAt": "2020-09-16T17:44:36.696Z",
  "devdoc": {
    "author": "develop@teller.finance",
    "methods": {
      "cToken()": {
        "return": "Address of the cToken"
      },
      "canLiquidateLoan(uint256)": {
        "params": {
          "loanID": "The ID of the loan to check"
        },
        "return": "bool weather the loan can be liquidated"
      },
      "createLoanWithTerms((address,address,address,uint256,uint256,uint256,uint256),(address,address,uint256,uint256,uint256,uint256,(uint256,uint8,bytes32,bytes32))[],uint256)": {
        "params": {
          "collateralAmount": "Amount of collateral required for the loan",
          "request": "Struct of the protocol loan request",
          "responses": "List of structs of the protocol loan responses"
        }
      },
      "depositCollateral(address,uint256,uint256)": {
        "params": {
          "amount": "The amount to deposit as collateral.",
          "borrower": "The address of the loan borrower.",
          "loanID": "The ID of the loan the collateral is for"
        }
      },
      "getBorrowerLoans(address)": {
        "params": {
          "borrower": "The borrower's address"
        }
      },
      "getCollateralInfo(uint256)": {
        "params": {
          "loanID": "of the loan to get info for"
        },
        "return": "memory TellerCommon.LoanCollateralInfo Collateral information of the loan"
      },
      "getTotalOwed(uint256)": {
        "params": {
          "loanID": "The ID of the loan to be queried"
        },
        "return": "uint256 The total amount owed remaining"
      },
      "initialize(address,address,address,address,address)": {
        "params": {
          "collateralTokenAddress": "Contract address for the collateral token.",
          "lendingPoolAddress": "Contract address of the lending pool",
          "loanTermsConsensusAddress": "Contract adddress for loan term consensus",
          "priceOracleAddress": "Contract address of the price oracle",
          "settingsAddress": "Contract address for the configuration of the platform"
        }
      },
      "initialized()": {
        "return": "true if contract is initialized. Otherwise it returns false."
      },
      "lendingToken()": {
        "return": "Address of the lending token"
      },
      "liquidateLoan(uint256)": {
        "params": {
          "loanID": "The ID of the loan to be liquidated"
        }
      },
      "repay(uint256,uint256)": {
        "params": {
          "amount": "The amount of tokens to pay back to the loan",
          "loanID": "The ID of the loan the payment is for"
        }
      },
      "setPriceOracle(address)": {
        "details": "It throws a require error if sender is not allowed.It throws a require error if new address is empty (0x0) or not a contract.",
        "params": {
          "newPriceOracle": "the new price oracle address."
        }
      },
      "settings()": {
        "details": "This address should NOT change over the time. See details in the _setSettings(...) function."
      },
      "tToken()": {
        "return": "Address of the tToken"
      },
      "takeOutLoan(uint256,uint256)": {
        "details": "collateral ratio is a percentage of the loan amount that's required in collateralthe percentage will be *(10**2). I.e. collateralRatio of 5244 means 52.44% collateralis required in the loan. Interest rate is also a percentage with 2 decimal points."
      },
      "withdrawCollateral(uint256,uint256)": {
        "params": {
          "amount": "The amount of collateral token or ether the caller is hoping to withdraw.",
          "loanID": "The ID of the loan the collateral is for"
        }
      }
    }
  },
  "userdoc": {
    "methods": {
      "cToken()": {
        "notice": "Returns the cToken in the lending pool"
      },
      "canLiquidateLoan(uint256)": {
        "notice": "A loan can be liquidated if it is: under collateralized or expired"
      },
      "createLoanWithTerms((address,address,address,uint256,uint256,uint256,uint256),(address,address,uint256,uint256,uint256,uint256,(uint256,uint8,bytes32,bytes32))[],uint256)": {
        "notice": "Creates a loan with the loan request and terms"
      },
      "depositCollateral(address,uint256,uint256)": {
        "notice": "Deposit collateral tokens into a loan."
      },
      "getBorrowerLoans(address)": {
        "notice": "Get a list of all loans for a borrower"
      },
      "getCollateralInfo(uint256)": {
        "notice": "Get collateral information of a specific loan"
      },
      "getTotalOwed(uint256)": {
        "notice": "Returns the total owed amount remaining for a specified loan"
      },
      "initialize(address,address,address,address,address)": {
        "notice": "Initializes the current contract instance setting the required parameters, if allowed"
      },
      "initialized()": {
        "notice": "Gets if the contract is initialized."
      },
      "lendingToken()": {
        "notice": "Returns the lending token in the lending pool"
      },
      "liquidateLoan(uint256)": {
        "notice": "Liquidate a loan if it is expired or under collateralized"
      },
      "repay(uint256,uint256)": {
        "notice": "Make a payment to a loan"
      },
      "setPriceOracle(address)": {
        "notice": "Updates the current price oracle instance."
      },
      "settings()": {
        "notice": "The gets the settings contract address from the SETTINGS_SLOT."
      },
      "tToken()": {
        "notice": "Returns the tToken in the lending pool"
      },
      "takeOutLoan(uint256,uint256)": {
        "notice": "Take out a loan"
      },
      "withdrawCollateral(uint256,uint256)": {
        "notice": "Withdraw collateral from a loan, unless this isn't allowed"
      }
    },
    "notice": "This contract is used as a basis for the creation of loans (not wei) across the platformIt implements the LoansBase contract from Teller"
  }
}