{
  "contractName": "TokenCollateralLoansMock",
  "abi": [
    {
      "anonymous": false,
      "inputs": [
        {
          "indexed": true,
          "internalType": "uint256",
          "name": "loanID",
          "type": "uint256"
        },
        {
          "indexed": true,
          "internalType": "address",
          "name": "borrower",
          "type": "address"
        },
        {
          "indexed": false,
          "internalType": "uint256",
          "name": "depositAmount",
          "type": "uint256"
        }
      ],
      "name": "CollateralDeposited",
      "type": "event"
    },
    {
      "anonymous": false,
      "inputs": [
        {
          "indexed": true,
          "internalType": "uint256",
          "name": "loanID",
          "type": "uint256"
        },
        {
          "indexed": true,
          "internalType": "address",
          "name": "borrower",
          "type": "address"
        },
        {
          "indexed": false,
          "internalType": "uint256",
          "name": "withdrawalAmount",
          "type": "uint256"
        }
      ],
      "name": "CollateralWithdrawn",
      "type": "event"
    },
    {
      "anonymous": false,
      "inputs": [
        {
          "indexed": true,
          "internalType": "uint256",
          "name": "loanID",
          "type": "uint256"
        },
        {
          "indexed": true,
          "internalType": "address",
          "name": "borrower",
          "type": "address"
        },
        {
          "indexed": false,
          "internalType": "address",
          "name": "liquidator",
          "type": "address"
        },
        {
          "indexed": false,
          "internalType": "uint256",
          "name": "collateralOut",
          "type": "uint256"
        },
        {
          "indexed": false,
          "internalType": "uint256",
          "name": "tokensIn",
          "type": "uint256"
        }
      ],
      "name": "LoanLiquidated",
      "type": "event"
    },
    {
      "anonymous": false,
      "inputs": [
        {
          "indexed": true,
          "internalType": "uint256",
          "name": "loanID",
          "type": "uint256"
        },
        {
          "indexed": true,
          "internalType": "address",
          "name": "borrower",
          "type": "address"
        },
        {
          "indexed": false,
          "internalType": "uint256",
          "name": "amountPaid",
          "type": "uint256"
        },
        {
          "indexed": false,
          "internalType": "address",
          "name": "payer",
          "type": "address"
        },
        {
          "indexed": false,
          "internalType": "uint256",
          "name": "totalOwed",
          "type": "uint256"
        }
      ],
      "name": "LoanRepaid",
      "type": "event"
    },
    {
      "anonymous": false,
      "inputs": [
        {
          "indexed": true,
          "internalType": "uint256",
          "name": "loanID",
          "type": "uint256"
        },
        {
          "indexed": true,
          "internalType": "address",
          "name": "borrower",
          "type": "address"
        },
        {
          "indexed": true,
          "internalType": "address",
          "name": "escrow",
          "type": "address"
        },
        {
          "indexed": false,
          "internalType": "uint256",
          "name": "amountBorrowed",
          "type": "uint256"
        }
      ],
      "name": "LoanTakenOut",
      "type": "event"
    },
    {
      "anonymous": false,
      "inputs": [
        {
          "indexed": true,
          "internalType": "uint256",
          "name": "loanID",
          "type": "uint256"
        },
        {
          "indexed": true,
          "internalType": "address",
          "name": "borrower",
          "type": "address"
        },
        {
          "indexed": true,
          "internalType": "address",
          "name": "recipient",
          "type": "address"
        },
        {
          "indexed": false,
          "internalType": "uint256",
          "name": "interestRate",
          "type": "uint256"
        },
        {
          "indexed": false,
          "internalType": "uint256",
          "name": "collateralRatio",
          "type": "uint256"
        },
        {
          "indexed": false,
          "internalType": "uint256",
          "name": "maxLoanAmount",
          "type": "uint256"
        },
        {
          "indexed": false,
          "internalType": "uint256",
          "name": "duration",
          "type": "uint256"
        },
        {
          "indexed": false,
          "internalType": "uint256",
          "name": "termsExpiry",
          "type": "uint256"
        }
      ],
      "name": "LoanTermsSet",
      "type": "event"
    },
    {
      "anonymous": false,
      "inputs": [
        {
          "indexed": true,
          "internalType": "address",
          "name": "sender",
          "type": "address"
        },
        {
          "indexed": true,
          "internalType": "address",
          "name": "oldPriceOracle",
          "type": "address"
        },
        {
          "indexed": true,
          "internalType": "address",
          "name": "newPriceOracle",
          "type": "address"
        }
      ],
      "name": "PriceOracleUpdated",
      "type": "event"
    },
    {
      "constant": true,
      "inputs": [
        {
          "internalType": "address",
          "name": "",
          "type": "address"
        },
        {
          "internalType": "uint256",
          "name": "",
          "type": "uint256"
        }
      ],
      "name": "borrowerLoans",
      "outputs": [
        {
          "internalType": "uint256",
          "name": "",
          "type": "uint256"
        }
      ],
      "payable": false,
      "stateMutability": "view",
      "type": "function"
    },
    {
      "constant": true,
      "inputs": [
        {
          "internalType": "uint256",
          "name": "loanID",
          "type": "uint256"
        }
      ],
      "name": "canLiquidateLoan",
      "outputs": [
        {
          "internalType": "bool",
          "name": "",
          "type": "bool"
        }
      ],
      "payable": false,
      "stateMutability": "view",
      "type": "function"
    },
    {
      "constant": true,
      "inputs": [],
      "name": "collateralToken",
      "outputs": [
        {
          "internalType": "address",
          "name": "",
          "type": "address"
        }
      ],
      "payable": false,
      "stateMutability": "view",
      "type": "function"
    },
    {
      "constant": true,
      "inputs": [],
      "name": "consts",
      "outputs": [
        {
          "internalType": "contract SettingsConsts",
          "name": "",
          "type": "address"
        }
      ],
      "payable": false,
      "stateMutability": "view",
      "type": "function"
    },
    {
      "constant": false,
      "inputs": [
        {
          "components": [
            {
              "internalType": "address payable",
              "name": "borrower",
              "type": "address"
            },
            {
              "internalType": "address",
              "name": "recipient",
              "type": "address"
            },
            {
              "internalType": "address",
              "name": "consensusAddress",
              "type": "address"
            },
            {
              "internalType": "uint256",
              "name": "requestNonce",
              "type": "uint256"
            },
            {
              "internalType": "uint256",
              "name": "amount",
              "type": "uint256"
            },
            {
              "internalType": "uint256",
              "name": "duration",
              "type": "uint256"
            },
            {
              "internalType": "uint256",
              "name": "requestTime",
              "type": "uint256"
            }
          ],
          "internalType": "struct TellerCommon.LoanRequest",
          "name": "request",
          "type": "tuple"
        },
        {
          "components": [
            {
              "internalType": "address",
              "name": "signer",
              "type": "address"
            },
            {
              "internalType": "address",
              "name": "consensusAddress",
              "type": "address"
            },
            {
              "internalType": "uint256",
              "name": "responseTime",
              "type": "uint256"
            },
            {
              "internalType": "uint256",
              "name": "interestRate",
              "type": "uint256"
            },
            {
              "internalType": "uint256",
              "name": "collateralRatio",
              "type": "uint256"
            },
            {
              "internalType": "uint256",
              "name": "maxLoanAmount",
              "type": "uint256"
            },
            {
              "components": [
                {
                  "internalType": "uint256",
                  "name": "signerNonce",
                  "type": "uint256"
                },
                {
                  "internalType": "uint8",
                  "name": "v",
                  "type": "uint8"
                },
                {
                  "internalType": "bytes32",
                  "name": "r",
                  "type": "bytes32"
                },
                {
                  "internalType": "bytes32",
                  "name": "s",
                  "type": "bytes32"
                }
              ],
              "internalType": "struct TellerCommon.Signature",
              "name": "signature",
              "type": "tuple"
            }
          ],
          "internalType": "struct TellerCommon.LoanResponse[]",
          "name": "responses",
          "type": "tuple[]"
        },
        {
          "internalType": "uint256",
          "name": "collateralAmount",
          "type": "uint256"
        }
      ],
      "name": "createLoanWithTerms",
      "outputs": [],
      "payable": true,
      "stateMutability": "payable",
      "type": "function"
    },
    {
      "constant": false,
      "inputs": [
        {
          "internalType": "address",
          "name": "borrower",
          "type": "address"
        },
        {
          "internalType": "uint256",
          "name": "loanID",
          "type": "uint256"
        },
        {
          "internalType": "uint256",
          "name": "amount",
          "type": "uint256"
        }
      ],
      "name": "depositCollateral",
      "outputs": [],
      "payable": true,
      "stateMutability": "payable",
      "type": "function"
    },
    {
      "constant": true,
      "inputs": [
        {
          "internalType": "address",
          "name": "borrower",
          "type": "address"
        }
      ],
      "name": "getBorrowerLoans",
      "outputs": [
        {
          "internalType": "uint256[]",
          "name": "",
          "type": "uint256[]"
        }
      ],
      "payable": false,
      "stateMutability": "view",
      "type": "function"
    },
    {
      "constant": true,
      "inputs": [
        {
          "internalType": "uint256",
          "name": "loanID",
          "type": "uint256"
        }
      ],
      "name": "getCollateralInfo",
      "outputs": [
        {
          "components": [
            {
              "internalType": "uint256",
              "name": "collateral",
              "type": "uint256"
            },
            {
              "internalType": "uint256",
              "name": "neededInLendingTokens",
              "type": "uint256"
            },
            {
              "internalType": "uint256",
              "name": "neededInCollateralTokens",
              "type": "uint256"
            },
            {
              "internalType": "bool",
              "name": "moreCollateralRequired",
              "type": "bool"
            }
          ],
          "internalType": "struct TellerCommon.LoanCollateralInfo",
          "name": "",
          "type": "tuple"
        }
      ],
      "payable": false,
      "stateMutability": "view",
      "type": "function"
    },
    {
      "constant": true,
      "inputs": [
        {
          "internalType": "uint256",
          "name": "loanID",
          "type": "uint256"
        }
      ],
      "name": "getTotalOwed",
      "outputs": [
        {
          "internalType": "uint256",
          "name": "",
          "type": "uint256"
        }
      ],
      "payable": false,
      "stateMutability": "view",
      "type": "function"
    },
    {
      "constant": false,
      "inputs": [
        {
          "internalType": "address",
          "name": "priceOracleAddress",
          "type": "address"
        },
        {
          "internalType": "address",
          "name": "lendingPoolAddress",
          "type": "address"
        },
        {
          "internalType": "address",
          "name": "loanTermsConsensusAddress",
          "type": "address"
        },
        {
          "internalType": "address",
          "name": "settingsAddress",
          "type": "address"
        },
        {
          "internalType": "address",
          "name": "collateralTokenAddress",
          "type": "address"
        }
      ],
      "name": "initialize",
      "outputs": [],
      "payable": false,
      "stateMutability": "nonpayable",
      "type": "function"
    },
    {
      "constant": false,
      "inputs": [],
      "name": "initialize",
      "outputs": [],
      "payable": false,
      "stateMutability": "nonpayable",
      "type": "function"
    },
    {
      "constant": true,
      "inputs": [],
      "name": "initialized",
      "outputs": [
        {
          "internalType": "bool",
          "name": "value",
          "type": "bool"
        }
      ],
      "payable": false,
      "stateMutability": "view",
      "type": "function"
    },
    {
      "constant": true,
      "inputs": [],
      "name": "lendingPool",
      "outputs": [
        {
          "internalType": "contract LendingPoolInterface",
          "name": "",
          "type": "address"
        }
      ],
      "payable": false,
      "stateMutability": "view",
      "type": "function"
    },
    {
      "constant": true,
      "inputs": [],
      "name": "lendingToken",
      "outputs": [
        {
          "internalType": "address",
          "name": "",
          "type": "address"
        }
      ],
      "payable": false,
      "stateMutability": "view",
      "type": "function"
    },
    {
      "constant": false,
      "inputs": [
        {
          "internalType": "uint256",
          "name": "loanID",
          "type": "uint256"
        }
      ],
      "name": "liquidateLoan",
      "outputs": [],
      "payable": false,
      "stateMutability": "nonpayable",
      "type": "function"
    },
    {
      "constant": true,
      "inputs": [],
      "name": "loanIDCounter",
      "outputs": [
        {
          "internalType": "uint256",
          "name": "",
          "type": "uint256"
        }
      ],
      "payable": false,
      "stateMutability": "view",
      "type": "function"
    },
    {
      "constant": true,
      "inputs": [],
      "name": "loanTermsConsensus",
      "outputs": [
        {
          "internalType": "contract LoanTermsConsensusInterface",
          "name": "",
          "type": "address"
        }
      ],
      "payable": false,
      "stateMutability": "view",
      "type": "function"
    },
    {
      "constant": true,
      "inputs": [
        {
          "internalType": "uint256",
          "name": "",
          "type": "uint256"
        }
      ],
      "name": "loans",
      "outputs": [
        {
          "internalType": "uint256",
          "name": "id",
          "type": "uint256"
        },
        {
          "components": [
            {
              "internalType": "address payable",
              "name": "borrower",
              "type": "address"
            },
            {
              "internalType": "address",
              "name": "recipient",
              "type": "address"
            },
            {
              "internalType": "uint256",
              "name": "interestRate",
              "type": "uint256"
            },
            {
              "internalType": "uint256",
              "name": "collateralRatio",
              "type": "uint256"
            },
            {
              "internalType": "uint256",
              "name": "maxLoanAmount",
              "type": "uint256"
            },
            {
              "internalType": "uint256",
              "name": "duration",
              "type": "uint256"
            }
          ],
          "internalType": "struct TellerCommon.LoanTerms",
          "name": "loanTerms",
          "type": "tuple"
        },
        {
          "internalType": "uint256",
          "name": "termsExpiry",
          "type": "uint256"
        },
        {
          "internalType": "uint256",
          "name": "loanStartTime",
          "type": "uint256"
        },
        {
          "internalType": "uint256",
          "name": "collateral",
          "type": "uint256"
        },
        {
          "internalType": "uint256",
          "name": "lastCollateralIn",
          "type": "uint256"
        },
        {
          "internalType": "uint256",
          "name": "principalOwed",
          "type": "uint256"
        },
        {
          "internalType": "uint256",
          "name": "interestOwed",
          "type": "uint256"
        },
        {
          "internalType": "uint256",
          "name": "borrowedAmount",
          "type": "uint256"
        },
        {
          "internalType": "address",
          "name": "escrow",
          "type": "address"
        },
        {
          "internalType": "enum TellerCommon.LoanStatus",
          "name": "status",
          "type": "uint8"
        },
        {
          "internalType": "bool",
          "name": "liquidated",
          "type": "bool"
        }
      ],
      "payable": false,
      "stateMutability": "view",
      "type": "function"
    },
    {
      "constant": true,
      "inputs": [],
      "name": "mockTokenFunctions",
      "outputs": [
        {
          "internalType": "bool",
          "name": "",
          "type": "bool"
        }
      ],
      "payable": false,
      "stateMutability": "view",
      "type": "function"
    },
    {
      "constant": true,
      "inputs": [],
      "name": "priceOracle",
      "outputs": [
        {
          "internalType": "address",
          "name": "",
          "type": "address"
        }
      ],
      "payable": false,
      "stateMutability": "view",
      "type": "function"
    },
    {
      "constant": false,
      "inputs": [
        {
          "internalType": "uint256",
          "name": "amount",
          "type": "uint256"
        },
        {
          "internalType": "uint256",
          "name": "loanID",
          "type": "uint256"
        }
      ],
      "name": "repay",
      "outputs": [],
      "payable": false,
      "stateMutability": "nonpayable",
      "type": "function"
    },
    {
      "constant": false,
      "inputs": [
        {
          "internalType": "address",
          "name": "newPriceOracle",
          "type": "address"
        }
      ],
      "name": "setPriceOracle",
      "outputs": [],
      "payable": false,
      "stateMutability": "nonpayable",
      "type": "function"
    },
    {
      "constant": true,
      "inputs": [],
      "name": "settings",
      "outputs": [
        {
          "internalType": "contract SettingsInterface",
          "name": "",
          "type": "address"
        }
      ],
      "payable": false,
      "stateMutability": "view",
      "type": "function"
    },
    {
      "constant": false,
      "inputs": [
        {
          "internalType": "uint256",
          "name": "loanID",
          "type": "uint256"
        },
        {
          "internalType": "uint256",
          "name": "amountBorrow",
          "type": "uint256"
        }
      ],
      "name": "takeOutLoan",
      "outputs": [],
      "payable": false,
      "stateMutability": "nonpayable",
      "type": "function"
    },
    {
      "constant": true,
      "inputs": [],
      "name": "totalCollateral",
      "outputs": [
        {
          "internalType": "uint256",
          "name": "",
          "type": "uint256"
        }
      ],
      "payable": false,
      "stateMutability": "view",
      "type": "function"
    },
    {
      "constant": false,
      "inputs": [
        {
          "internalType": "uint256",
          "name": "amount",
          "type": "uint256"
        },
        {
          "internalType": "uint256",
          "name": "loanID",
          "type": "uint256"
        }
      ],
      "name": "withdrawCollateral",
      "outputs": [],
      "payable": false,
      "stateMutability": "nonpayable",
      "type": "function"
    },
    {
      "constant": false,
      "inputs": [
        {
          "internalType": "bool",
          "name": "newMockTokenFunctions",
          "type": "bool"
        }
      ],
      "name": "setMockTokenFunctions",
      "outputs": [],
      "payable": false,
      "stateMutability": "nonpayable",
      "type": "function"
    },
    {
      "constant": false,
      "inputs": [
        {
          "internalType": "uint256",
          "name": "newLoanIdCounter",
          "type": "uint256"
        }
      ],
      "name": "setLoanIDCounter",
      "outputs": [],
      "payable": false,
      "stateMutability": "nonpayable",
      "type": "function"
    },
    {
      "constant": false,
      "inputs": [
        {
          "internalType": "address",
          "name": "borrower",
          "type": "address"
        },
        {
          "internalType": "uint256[]",
          "name": "loanIDs",
          "type": "uint256[]"
        }
      ],
      "name": "setBorrowerLoans",
      "outputs": [],
      "payable": false,
      "stateMutability": "nonpayable",
      "type": "function"
    },
    {
      "constant": false,
      "inputs": [
        {
          "internalType": "uint256",
          "name": "amount",
          "type": "uint256"
        }
      ],
      "name": "setTotalCollateral",
      "outputs": [],
      "payable": false,
      "stateMutability": "nonpayable",
      "type": "function"
    },
    {
      "constant": false,
      "inputs": [
        {
          "internalType": "uint256",
          "name": "id",
          "type": "uint256"
        },
        {
          "components": [
            {
              "internalType": "address payable",
              "name": "borrower",
              "type": "address"
            },
            {
              "internalType": "address",
              "name": "recipient",
              "type": "address"
            },
            {
              "internalType": "uint256",
              "name": "interestRate",
              "type": "uint256"
            },
            {
              "internalType": "uint256",
              "name": "collateralRatio",
              "type": "uint256"
            },
            {
              "internalType": "uint256",
              "name": "maxLoanAmount",
              "type": "uint256"
            },
            {
              "internalType": "uint256",
              "name": "duration",
              "type": "uint256"
            }
          ],
          "internalType": "struct TellerCommon.LoanTerms",
          "name": "loanTerms",
          "type": "tuple"
        },
        {
          "internalType": "uint256",
          "name": "termsExpiry",
          "type": "uint256"
        },
        {
          "internalType": "uint256",
          "name": "loanStartTime",
          "type": "uint256"
        },
        {
          "internalType": "uint256",
          "name": "collateral",
          "type": "uint256"
        },
        {
          "internalType": "uint256",
          "name": "lastCollateralIn",
          "type": "uint256"
        },
        {
          "internalType": "uint256",
          "name": "principalOwed",
          "type": "uint256"
        },
        {
          "internalType": "uint256",
          "name": "interestOwed",
          "type": "uint256"
        },
        {
          "internalType": "uint256",
          "name": "borrowedAmount",
          "type": "uint256"
        },
        {
          "internalType": "enum TellerCommon.LoanStatus",
          "name": "status",
          "type": "uint8"
        },
        {
          "internalType": "bool",
          "name": "liquidated",
          "type": "bool"
        }
      ],
      "name": "setLoan",
      "outputs": [],
      "payable": false,
      "stateMutability": "nonpayable",
      "type": "function"
    }
  ],
  "bytecode": "0x608060405234801561001057600080fd5b5061592f80620000216000396000f3fe6080604052600436106101d85760003560e01c80637214056511610102578063ccdd9f5d11610095578063e1ec3c6811610064578063e1ec3c68146104f6578063e3ed19021461052e578063eee8b7ff1461054e578063fe15d70f1461057b576101d8565b8063ccdd9f5d1461048c578063d86d744e146104ac578063d8aed145146104c1578063e06174e4146104e1576101d8565b8063a59a9973116100d1578063a59a99731461043a578063a5c5c7b21461044f578063aaaca55814610462578063b2016bd414610477576101d8565b806372140565146103b8578063767a7b05146103d85780638129fc1c146103f8578063934b5d131461040d576101d8565b80633b9293001161017a578063530e784f11610149578063530e784f1461033657806358895e3d1461035657806364794459146103785780636948f32b14610398576101d8565b80633b929300146102bf57806342c3c0fb146102ec5780634ac8eb5f1461030c5780635134845414610321576101d8565b8063158ef93e116101b6578063158ef93e1461023f57806319e8b2b31461026a5780631a74856b1461028a5780632630c12f1461029d576101d8565b806302bc2cdb146101dd5780630cc2c0fb146101ff5780631459457a1461021f575b600080fd5b3480156101e957600080fd5b506101fd6101f8366004614498565b610590565b005b34801561020b57600080fd5b506101fd61021a366004614267565b610c0f565b34801561022b57600080fd5b506101fd61023a366004614115565b610c2d565b34801561024b57600080fd5b50610254610cd2565b604051610261919061519e565b60405180910390f35b34801561027657600080fd5b506101fd61028536600461418a565b610cf1565b6101fd61029836600461421a565b610d1a565b3480156102a957600080fd5b506102b2610f05565b60405161026191906150f8565b3480156102cb57600080fd5b506102df6102da366004614387565b610f14565b60405161026191906151ac565b3480156102f857600080fd5b506101fd610307366004614387565b610f44565b34801561031857600080fd5b506102df610f49565b34801561032d57600080fd5b506102df610f4f565b34801561034257600080fd5b506101fd6103513660046140d9565b610f55565b34801561036257600080fd5b5061036b6110b3565b60405161026191906151ba565b34801561038457600080fd5b506101fd610393366004614387565b6110c2565b3480156103a457600080fd5b506102546103b3366004614387565b6110c7565b3480156103c457600080fd5b506101fd6103d33660046143a5565b611220565b3480156103e457600080fd5b506101fd6103f3366004614498565b6113f6565b34801561040457600080fd5b506101fd61160f565b34801561041957600080fd5b5061042d610428366004614387565b611697565b6040516102619190615409565b34801561044657600080fd5b5061036b6116a8565b6101fd61045d3660046142df565b6116b7565b34801561046e57600080fd5b506102b2611c3d565b34801561048357600080fd5b506102b2611cc0565b34801561049857600080fd5b506101fd6104a7366004614387565b611ccf565b3480156104b857600080fd5b5061036b612012565b3480156104cd57600080fd5b506101fd6104dc366004614498565b612021565b3480156104ed57600080fd5b5061036b612427565b34801561050257600080fd5b50610516610511366004614387565b612449565b6040516102619c9b9a9998979695949392919061547d565b34801561053a57600080fd5b506102df6105493660046141e0565b612501565b34801561055a57600080fd5b5061056e6105693660046140d9565b61252f565b604051610261919061518d565b34801561058757600080fd5b5061025461259b565b8160016000828152606d60205260409020600e0154600160a01b900460ff1660038111156105ba57fe5b146105e05760405162461bcd60e51b81526004016105d7906153b9565b60405180910390fd5b6105e8610cd2565b6106045760405162461bcd60e51b81526004016105d7906153a9565b61060c6125ab565b156106295760405162461bcd60e51b81526004016105d7906152a9565b606a546001600160a01b031661063e81612625565b1561065b5760405162461bcd60e51b81526004016105d7906151f9565b603380546001908101918290556000868152606d6020526040902001546001600160a01b03163381146106a05760405162461bcd60e51b81526004016105d790615359565b6000868152606d60205260409020600501548511156106d15760405162461bcd60e51b81526004016105d790615229565b6000868152606d60205260409020600701544211156107025760405162461bcd60e51b81526004016105d7906152f9565b61081a61070d612427565b6001600160a01b031663269012a0606e60009054906101000a90046001600160a01b03166001600160a01b03166311880cc86040518163ffffffff1660e01b815260040160206040518083038186803b15801561076957600080fd5b505afa15801561077d573d6000803e3d6000fd5b505050506040513d601f19601f820116820180604052506107a191908101906142a3565b6040518263ffffffff1660e01b81526004016107bd91906151ac565b60206040518083038186803b1580156107d557600080fd5b505afa1580156107e9573d6000803e3d6000fd5b505050506040513d601f19601f8201168201806040525061080d91908101906142a3565b429063ffffffff6126aa16565b6000878152606d60205260409020600a0154111561084a5760405162461bcd60e51b81526004016105d7906152d9565b6000868152606d60205260409020600d8101869055600b810186905560068101546003909101546108ae916237b1d0916108a29161271091839190610896908c9063ffffffff6126f516565b9063ffffffff6126f516565b9063ffffffff61272f16565b6000878152606d60205260409020600c01556108c8613d14565b6108d187612771565b90508060600151156108f55760405162461bcd60e51b81526004016105d7906152b9565b6000878152606d60205260409020426008820155600e01805460ff60a01b1916600160a11b179055610926876127c2565b6000888152606d602052604090819020600e0180546001600160a01b0319166001600160a01b039384161790819055606a549151631397424760e11b81529183169263272e848e9261097e928b921690600401615439565b600060405180830381600087803b15801561099857600080fd5b505af11580156109ac573d6000803e3d6000fd5b5050506000888152606d602052604090819020600e0154905163cd6dc68760e01b81526001600160a01b03909116915063cd6dc687906109f29030908b90600401615172565b600060405180830381600087803b158015610a0c57600080fd5b505af1158015610a20573d6000803e3d6000fd5b50505050610a2c6128bb565b6001600160a01b031663c7bbb113606a60009054906101000a90046001600160a01b03166001600160a01b031663aaaca5586040518163ffffffff1660e01b815260040160206040518083038186803b158015610a8857600080fd5b505afa158015610a9c573d6000803e3d6000fd5b505050506040513d601f19601f82011682018060405250610ac091908101906140f7565b306001600160a01b031663b2016bd46040518163ffffffff1660e01b815260040160206040518083038186803b158015610af957600080fd5b505afa158015610b0d573d6000803e3d6000fd5b505050506040513d601f19601f82011682018060405250610b3191908101906140f7565b896040518463ffffffff1660e01b8152600401610b5093929190615157565b600060405180830381600087803b158015610b6a57600080fd5b505af1158015610b7e573d6000803e3d6000fd5b5050506000888152606d602052604090819020600e81015460019091015491516001600160a01b03918216935091169089907f85b5516a17ce775661a4b967b1fb30c852678f6598d86d9f3c99b7b60ff2d0ce90610bdd908b906151ac565b60405180910390a450506033548114610c085760405162461bcd60e51b81526004016105d7906153d9565b5050505050565b606e8054911515600160a01b0260ff60a01b19909216919091179055565b610c35610cd2565b15610c525760405162461bcd60e51b81526004016105d7906153e9565b60408051808201909152601a81527f50524f564944455f434f4c4c5f544f4b454e5f414444524553530000000000006020820152610ca0906001600160a01b0383169063ffffffff61293516565b610cac85858585612962565b606780546001600160a01b0319166001600160a01b039290921691909117905550505050565b600080604051610ce1906150e2565b6040519081900390205492915050565b6001600160a01b0383166000908152606c60205260409020610d14908383613d3e565b50505050565b3415610d385760405162461bcd60e51b81526004016105d790615219565b8160016000828152606d60205260409020600e0154600160a01b900460ff166003811115610d6257fe5b1480610d94575060026000828152606d60205260409020600e0154600160a01b900460ff166003811115610d9257fe5b145b610db05760405162461bcd60e51b81526004016105d790615249565b610db8610cd2565b610dd45760405162461bcd60e51b81526004016105d7906153a9565b610ddc6125ab565b15610df95760405162461bcd60e51b81526004016105d7906152a9565b606a546001600160a01b0316610e0e81612625565b15610e2b5760405162461bcd60e51b81526004016105d7906151f9565b6000848152606d6020908152604091829020600101548251808401909352601983527f424f52524f5745525f4c4f414e5f49445f4d49534d415443480000000000000091830191909152610e92916001600160a01b0388811692169063ffffffff612aff16565b60008311610eb25760405162461bcd60e51b81526004016105d790615339565b610ebc8484612b28565b846001600160a01b0316847feec2f3feb835e2f2fd44281034b04700a1ddda63dd402949d470a25a7c40b36c85604051610ef691906151ac565b60405180910390a35050505050565b6069546001600160a01b031681565b6000818152606d60205260408120600b810154600c90910154610f3c9163ffffffff612b4016565b90505b919050565b606855565b60665481565b60685481565b610f5d610cd2565b610f795760405162461bcd60e51b81526004016105d7906153a9565b610f81612427565b6001600160a01b031663c095ea27336040518263ffffffff1660e01b8152600401610fac9190615106565b60006040518083038186803b158015610fc457600080fd5b505afa158015610fd8573d6000803e3d6000fd5b50505050610fee816001600160a01b0316612b65565b61100a5760405162461bcd60e51b81526004016105d790615349565b60695460408051808201909152601b81527f4e45575f4f5241434c455f4d5553545f42455f50524f5649444544000000000060208201526001600160a01b0390911690611060908290849063ffffffff612ba116565b606980546001600160a01b0319166001600160a01b03848116918217909255604051909183169033907ff51f0fffc8121ee3747e0536c487d894894cdba960ccfb4ab385a88d51b16fed90600090a45050565b606b546001600160a01b031681565b606655565b60006110d16125ab565b806110ec5750606a546110ec906001600160a01b0316612625565b8061111e575060026000838152606d60205260409020600e0154600160a01b900460ff16600381111561111b57fe5b14155b1561112b57506000610f3f565b6000828152606d602052604081206008810154600690910154909142611157848463ffffffff612b4016565b109050801561116c5760019350505050610f3f565b6000858152606d60205260409020600e01546001600160a01b0316801561120957806001600160a01b031663415dfa5b6040518163ffffffff1660e01b815260040160206040518083038186803b1580156111c657600080fd5b505afa1580156111da573d6000803e3d6000fd5b505050506040513d601f19601f820116820180604052506111fe9190810190614285565b945050505050610f3f565b61121286612771565b606001519695505050505050565b828a6080013510156112445760405162461bcd60e51b81526004016105d790615289565b60668054880190556040805161018081019091528b81526020810161126e368d90038d018d614369565b81526020018a815260200189815260200188815260200187815260200186815260200185815260200184815260200160006001600160a01b031681526020018360038111156112b957fe5b815282151560209182015260008d8152606d8252604090819020835181558383015180516001830180546001600160a01b03199081166001600160a01b0393841617909155948201516002840180548716918316919091179055818401516003808501919091556060808401516004860155608080850151600587015560a0948501516006870155958801516007860155870151600885015593860151600984015590850151600a83015560c0850151600b83015560e0850151600c830155610100850151600d830155610120850151600e830180549095169116178084556101408501519193919260ff60a01b1990911690600160a01b9084908111156113bd57fe5b02179055506101609190910151600e9091018054911515600160a81b0260ff60a81b199092169190911790555050505050505050505050565b8060016000828152606d60205260409020600e0154600160a01b900460ff16600381111561142057fe5b1480611452575060026000828152606d60205260409020600e0154600160a01b900460ff16600381111561145057fe5b145b61146e5760405162461bcd60e51b81526004016105d790615249565b611476610cd2565b6114925760405162461bcd60e51b81526004016105d7906153a9565b61149a6125ab565b156114b75760405162461bcd60e51b81526004016105d7906152a9565b606a546001600160a01b03166114cc81612625565b156114e95760405162461bcd60e51b81526004016105d7906151f9565b603380546001908101918290556000858152606d6020526040902001546001600160a01b0316331461152d5760405162461bcd60e51b81526004016105d790615369565b6000851161154d5760405162461bcd60e51b81526004016105d790615299565b600061155885612bab565b9050600061156582612be2565b6000878152606d60205260408120600901549192509061158b908363ffffffff6126aa16565b9050878111156115985750865b80156115a9576115a9878233612d27565b336001600160a01b0316877f7c5e5cb62e5ed3caf3764e4b0afedfedef533e27809d43367799787ad2abcd41836040516115e391906151ac565b60405180910390a35050506033548114610c085760405162461bcd60e51b81526004016105d7906153d9565b600054610100900460ff16806116285750611628612d7b565b80611636575060005460ff16155b6116525760405162461bcd60e51b81526004016105d790615309565b600054610100900460ff1615801561167d576000805460ff1961ff0019909116610100171660011790555b60016033558015611694576000805461ff00191690555b50565b61169f613d14565b610f3c82612771565b606a546001600160a01b031681565b34156116d55760405162461bcd60e51b81526004016105d790615219565b6116dd610cd2565b6116f95760405162461bcd60e51b81526004016105d7906153a9565b6117016125ab565b1561171e5760405162461bcd60e51b81526004016105d7906152a9565b61172b60208501856140d9565b336001600160a01b038216146117535760405162461bcd60e51b81526004016105d790615359565b6117623686900386018661434b565b8060a0015161176f612427565b6001600160a01b031663269012a0606e60009054906101000a90046001600160a01b03166001600160a01b031663cc44cadb6040518163ffffffff1660e01b815260040160206040518083038186803b1580156117cb57600080fd5b505afa1580156117df573d6000803e3d6000fd5b505050506040513d601f19601f8201168201806040525061180391908101906142a3565b6040518263ffffffff1660e01b815260040161181f91906151ac565b60206040518083038186803b15801561183757600080fd5b505afa15801561184b573d6000803e3d6000fd5b505050506040513d601f19601f8201168201806040525061186f91908101906142a3565b101561188d5760405162461bcd60e51b81526004016105d7906151d9565b611895612427565b6001600160a01b03166369ff7744606a60009054906101000a90046001600160a01b03166001600160a01b031663aaaca5586040518163ffffffff1660e01b815260040160206040518083038186803b1580156118f157600080fd5b505afa158015611905573d6000803e3d6000fd5b505050506040513d601f19601f8201168201806040525061192991908101906140f7565b83608001516040518363ffffffff1660e01b815260040161194b929190615172565b60206040518083038186803b15801561196357600080fd5b505afa158015611977573d6000803e3d6000fd5b505050506040513d601f19601f8201168201806040525061199b9190810190614285565b156119b85760405162461bcd60e51b81526004016105d790615209565b6119c58160800151612d81565b6119e15760405162461bcd60e51b81526004016105d790615389565b60006119eb6130f1565b606b5460405163064e5d4960e01b8152919250600091829182916001600160a01b039091169063064e5d4990611a29908d908d908d90600401615417565b606060405180830381600087803b158015611a4357600080fd5b505af1158015611a57573d6000803e3d6000fd5b505050506040513d601f19601f82011682018060405250611a7b91908101906144b7565b91945092509050611a9d84611a95368d90038d018d61434b565b8585856130ff565b6000858152606d6020908152604091829020835181558382015180516001830180546001600160a01b03199081166001600160a01b0393841617909155938201516002840180548616918316919091179055818501516003808501919091556060808401516004860155608080850151600587015560a0948501516006870155968801516007860155870151600885015594860151600984015590850151600a83015560c0850151600b83015560e0850151600c830155610100850151600d830155610120850151600e83018054909416911617808355610140850151919391929160ff60a01b1990911690600160a01b908490811115611b9a57fe5b02179055506101609190910151600e9091018054911515600160a81b0260ff60a81b199092169190911790558615611bd657611bd68488612b28565b606c6000611be760208d018d6140d9565b6001600160a01b031681526020808201929092526040016000908120805460018101825590825291902001849055611c3184611c28368d90038d018d61434b565b8585858c6132e7565b50505050505050505050565b606a546040805163155594ab60e31b815290516000926001600160a01b03169163aaaca558916004808301926020929190829003018186803b158015611c8257600080fd5b505afa158015611c96573d6000803e3d6000fd5b505050506040513d601f19601f82011682018060405250611cba91908101906140f7565b90505b90565b6067546001600160a01b031681565b8060026000828152606d60205260409020600e0154600160a01b900460ff166003811115611cf957fe5b14611d165760405162461bcd60e51b81526004016105d790615279565b611d1e610cd2565b611d3a5760405162461bcd60e51b81526004016105d7906153a9565b611d426125ab565b15611d5f5760405162461bcd60e51b81526004016105d7906152a9565b606a546001600160a01b0316611d7481612625565b15611d915760405162461bcd60e51b81526004016105d7906151f9565b6033805460010190819055611da5846110c7565b611dc15760405162461bcd60e51b81526004016105d790615269565b6000848152606d60205260408120600e8101805460ff60a01b1916600360a01b1760ff60a81b1916600160a81b1790556009015490611dff826133b2565b9050611e0c868333612d27565b6000611f2c6127106108a2611e1f612427565b6001600160a01b031663269012a0606e60009054906101000a90046001600160a01b03166001600160a01b0316631139087a6040518163ffffffff1660e01b815260040160206040518083038186803b158015611e7b57600080fd5b505afa158015611e8f573d6000803e3d6000fd5b505050506040513d601f19601f82011682018060405250611eb391908101906142a3565b6040518263ffffffff1660e01b8152600401611ecf91906151ac565b60206040518083038186803b158015611ee757600080fd5b505afa158015611efb573d6000803e3d6000fd5b505050506040513d601f19601f82011682018060405250611f1f91908101906142a3565b859063ffffffff6126f516565b606a546040516382f7b02760e01b81529192506001600160a01b0316906382f7b02790611f5f9084903390600401615447565b600060405180830381600087803b158015611f7957600080fd5b505af1158015611f8d573d6000803e3d6000fd5b5050506000888152606d6020526040908190206001015490516001600160a01b03909116915088907f9950a0562c02382e2e840daa73082d5be7660ce37601f28fa4c84089c11e8a0690611fe690339088908790615114565b60405180910390a35050506033548114610d145760405162461bcd60e51b81526004016105d7906153d9565b606e546001600160a01b031681565b8060026000828152606d60205260409020600e0154600160a01b900460ff16600381111561204b57fe5b146120685760405162461bcd60e51b81526004016105d790615279565b612070610cd2565b61208c5760405162461bcd60e51b81526004016105d7906153a9565b6120946125ab565b156120b15760405162461bcd60e51b81526004016105d7906152a9565b606a546001600160a01b03166120c681612625565b156120e35760405162461bcd60e51b81526004016105d7906151f9565b60338054600101908190558461210b5760405162461bcd60e51b81526004016105d7906151e9565b84600061211786610f14565b905081811015612125578091505b612135818363ffffffff6126aa16565b905061214186836134a8565b806121e5576000868152606d60205260409020600e8101805460ff60a01b1916600360a01b179055600981015460019091015461218a90889083906001600160a01b0316612d27565b6000878152606d6020526040908190206001015490516001600160a01b039091169088907f7c5e5cb62e5ed3caf3764e4b0afedfedef533e27809d43367799787ad2abcd41906121db9085906151ac565b60405180910390a3505b606a5460405163acb7081560e01b81526001600160a01b039091169063acb70815906122179085903390600401615447565b600060405180830381600087803b15801561223157600080fd5b505af1158015612245573d6000803e3d6000fd5b505050506122516128bb565b6001600160a01b03166362e269ef606a60009054906101000a90046001600160a01b03166001600160a01b031663aaaca5586040518163ffffffff1660e01b815260040160206040518083038186803b1580156122ad57600080fd5b505afa1580156122c1573d6000803e3d6000fd5b505050506040513d601f19601f820116820180604052506122e591908101906140f7565b306001600160a01b031663b2016bd46040518163ffffffff1660e01b815260040160206040518083038186803b15801561231e57600080fd5b505afa158015612332573d6000803e3d6000fd5b505050506040513d601f19601f8201168201806040525061235691908101906140f7565b856040518463ffffffff1660e01b815260040161237593929190615157565b600060405180830381600087803b15801561238f57600080fd5b505af11580156123a3573d6000803e3d6000fd5b5050506000878152606d6020526040908190206001015490516001600160a01b03909116915087907f20a1f2ec363af45dc5ee7d9d622f2dd68b52501c382126c7f04b53663c4c69bf906123fc90869033908790615462565b60405180910390a350506033548114610c085760405162461bcd60e51b81526004016105d7906153d9565b6000806000604051612438906150ed565b604051908190039020549250505090565b606d602090815260009182526040918290208054835160c08101855260018301546001600160a01b03908116825260028401548116948201949094526003830154948101949094526004820154606085015260058201546080850152600682015460a0850152600782015460088301546009840154600a850154600b860154600c870154600d880154600e9098015496999895979496939592949193909281169060ff600160a01b8204811691600160a81b9004168c565b606c602052816000526040600020818154811061251a57fe5b90600052602060002001600091509150505481565b6001600160a01b0381166000908152606c602090815260409182902080548351818402810184019094528084526060939283018282801561258f57602002820191906000526020600020905b81548152602001906001019080831161257b575b50505050509050919050565b606e54600160a01b900460ff1681565b60006125b5612427565b6001600160a01b031663b187bd266040518163ffffffff1660e01b815260040160206040518083038186803b1580156125ed57600080fd5b505afa158015612601573d6000803e3d6000fd5b505050506040513d601f19601f82011682018060405250611cba9190810190614285565b600061262f612427565b6001600160a01b0316633b668321836040518263ffffffff1660e01b815260040161265a91906150f8565b60206040518083038186803b15801561267257600080fd5b505afa158015612686573d6000803e3d6000fd5b505050506040513d601f19601f82011682018060405250610f3c9190810190614285565b60006126ec83836040518060400160405280601e81526020017f536166654d6174683a207375627472616374696f6e206f766572666c6f770000815250613563565b90505b92915050565b600082612704575060006126ef565b8282028284828161271157fe5b04146126ec5760405162461bcd60e51b81526004016105d7906152c9565b60006126ec83836040518060400160405280601a81526020017f536166654d6174683a206469766973696f6e206279207a65726f000000000000815250613594565b612779613d14565b6000828152606d60205260408120600901549080612796856135cb565b604080516080810182528681526020810193909352820181905293909311606084015250909392505050565b60006127cc612427565b6001600160a01b031663bdd1daaa6040518163ffffffff1660e01b815260040160206040518083038186803b15801561280457600080fd5b505afa158015612818573d6000803e3d6000fd5b505050506040513d601f19601f8201168201806040525061283c91908101906142c1565b6001600160a01b0316634614874e30846040518363ffffffff1660e01b8152600401612869929190615172565b602060405180830381600087803b15801561288357600080fd5b505af1158015612897573d6000803e3d6000fd5b505050506040513d601f19601f82011682018060405250610f3c91908101906140f7565b60006128c5612427565b6001600160a01b0316631390f8d76040518163ffffffff1660e01b815260040160206040518083038186803b1580156128fd57600080fd5b505afa158015612911573d6000803e3d6000fd5b505050506040513d601f19601f82011682018060405250611cba91908101906142c1565b61293e826135ef565b819061295d5760405162461bcd60e51b81526004016105d791906151c8565b505050565b61296a610cd2565b156129875760405162461bcd60e51b81526004016105d7906153e9565b60408051808201909152601681527550524f564944455f4f5241434c455f4144445245535360501b60208201526129ce906001600160a01b0386169063ffffffff61293516565b60408051808201909152601c81527f50524f564944455f4c454e44494e475f504f4f4c5f41444452455353000000006020820152612a1c906001600160a01b0385169063ffffffff61293516565b60408051808201909152601b81527f50524f56494445445f4c4f414e5f5445524d535f4144445245535300000000006020820152612a6a906001600160a01b0384169063ffffffff61293516565b612a73816135fd565b606980546001600160a01b038087166001600160a01b031992831617909255606a8054868416908316179055606b805492851692909116919091179055604051612abc90613d89565b604051809103906000f080158015612ad8573d6000803e3d6000fd5b50606e80546001600160a01b0319166001600160a01b039290921691909117905550505050565b612b0983836136af565b8190610d145760405162461bcd60e51b81526004016105d791906151c8565b612b3282826136c0565b612b3c3382613719565b5050565b6000828201838110156126ec5760405162461bcd60e51b81526004016105d790615239565b6000813f7fc5d2460186f7233c927e7db2dcc703c0e500b653ca82273b7bfad8045d85a470818114801590612b9957508115155b949350505050565b612b098383613734565b600080612bb783610f14565b6000848152606d6020526040902060040154909150612b996127106108a2848463ffffffff6126f516565b600080612c7c606a60009054906101000a90046001600160a01b03166001600160a01b031663aaaca5586040518163ffffffff1660e01b815260040160206040518083038186803b158015612c3657600080fd5b505afa158015612c4a573d6000803e3d6000fd5b505050506040513d601f19601f82011682018060405250612c6e91908101906140f7565b6001600160a01b0316613746565b90506000606960009054906101000a90046001600160a01b03166001600160a01b03166396237c026040518163ffffffff1660e01b815260040160206040518083038186803b158015612cce57600080fd5b505afa158015612ce2573d6000803e3d6000fd5b505050506040513d601f19601f82011682018060405250612d0691908101906142a3565b90506000612d1e836108a2878563ffffffff6126f516565b95945050505050565b606654612d3a908363ffffffff6126aa16565b6066556000838152606d6020526040902060090154612d5f908363ffffffff6126aa16565b6000848152606d602052604090206009015561295d81836137c7565b303b1590565b600080612d8c612427565b6001600160a01b031663dc21a6a06040518163ffffffff1660e01b815260040160206040518083038186803b158015612dc457600080fd5b505afa158015612dd8573d6000803e3d6000fd5b505050506040513d601f19601f82011682018060405250612dfc91908101906142c1565b6001600160a01b0316631fb7cec9606a60009054906101000a90046001600160a01b03166001600160a01b031663aaaca5586040518163ffffffff1660e01b815260040160206040518083038186803b158015612e5857600080fd5b505afa158015612e6c573d6000803e3d6000fd5b505050506040513d601f19601f82011682018060405250612e9091908101906140f7565b6067546040516001600160e01b031960e085901b168152612ebe92916001600160a01b03169060040161513c565b60206040518083038186803b158015612ed657600080fd5b505afa158015612eea573d6000803e3d6000fd5b505050506040513d601f19601f82011682018060405250612f0e91908101906140f7565b90506001600160a01b038116612f365760405162461bcd60e51b81526004016105d790615319565b604051632319178560e11b81526000906001600160a01b038316906346322f0a90612f74906b14dd5c1c1b1e551bd119589d60a21b906004016151ac565b60206040518083038186803b158015612f8c57600080fd5b505afa158015612fa0573d6000803e3d6000fd5b505050506040513d601f19601f82011682018060405250612fc491908101906142a3565b90506000612fd06128bb565b6001600160a01b031663db63323e606a60009054906101000a90046001600160a01b03166001600160a01b031663aaaca5586040518163ffffffff1660e01b815260040160206040518083038186803b15801561302c57600080fd5b505afa158015613040573d6000803e3d6000fd5b505050506040513d601f19601f8201168201806040525061306491908101906140f7565b6067546040516001600160e01b031960e085901b16815261309492916001600160a01b0316908a90600401615157565b60206040518083038186803b1580156130ac57600080fd5b505afa1580156130c0573d6000803e3d6000fd5b505050506040513d601f19601f820116820180604052506130e491908101906142a3565b9190911115949350505050565b606880546001810190915590565b613107613d96565b6000613221613114612427565b6001600160a01b031663269012a0606e60009054906101000a90046001600160a01b03166001600160a01b031663e00a46156040518163ffffffff1660e01b815260040160206040518083038186803b15801561317057600080fd5b505afa158015613184573d6000803e3d6000fd5b505050506040513d601f19601f820116820180604052506131a891908101906142a3565b6040518263ffffffff1660e01b81526004016131c491906151ac565b60206040518083038186803b1580156131dc57600080fd5b505afa1580156131f0573d6000803e3d6000fd5b505050506040513d601f19601f8201168201806040525061321491908101906142a3565b429063ffffffff612b4016565b90506040518061018001604052808881526020016040518060c0016040528089600001516001600160a01b0316815260200189602001516001600160a01b031681526020018881526020018781526020018681526020018960a00151815250815260200182815260200160008152602001600081526020016000815260200160008152602001600081526020016000815260200160006001600160a01b03168152602001600160038111156132d257fe5b81526000602090910152979650505050505050565b84602001516001600160a01b031685600001516001600160a01b0316877f0358f509931cba53bbb6a94b7f05a5178220a0c7ddb54b1a1722df9e6ed6aa098787878b60a00151606d60008f815260200190815260200160002060070154604051613355959493929190615535565b60405180910390a480156133aa5784600001516001600160a01b0316867feec2f3feb835e2f2fd44281034b04700a1ddda63dd402949d470a25a7c40b36c836040516133a191906151ac565b60405180910390a35b505050505050565b600080613406606a60009054906101000a90046001600160a01b03166001600160a01b031663aaaca5586040518163ffffffff1660e01b815260040160206040518083038186803b158015612c3657600080fd5b90506000606960009054906101000a90046001600160a01b03166001600160a01b03166396237c026040518163ffffffff1660e01b815260040160206040518083038186803b15801561345857600080fd5b505afa15801561346c573d6000803e3d6000fd5b505050506040513d601f19601f8201168201806040525061349091908101906142a3565b90506000612d1e826108a2878663ffffffff6126f516565b6000828152606d60205260409020600b015481111561352b576000828152606d60205260409020600b015481906134e690829063ffffffff6126aa16565b6000848152606d60205260408120600b810191909155600c0154909150613513908263ffffffff6126aa16565b6000848152606d60205260409020600c015550612b3c565b6000828152606d60205260409020600b015461354d908263ffffffff6126aa16565b6000838152606d60205260409020600b01555050565b600081848411156135875760405162461bcd60e51b81526004016105d791906151c8565b50508183035b9392505050565b600081836135b55760405162461bcd60e51b81526004016105d791906151c8565b5060008385816135c157fe5b0495945050505050565b60008060006135d984612bab565b9050806135e582612be2565b9250925050915091565b6001600160a01b0316151590565b613605610cd2565b156136225760405162461bcd60e51b81526004016105d7906153e9565b60408051808201909152601981527f53455454494e47535f4d5553545f42455f50524f5649444544000000000000006020820152613670906001600160a01b0383169063ffffffff61293516565b613682816001600160a01b0316612b65565b61369e5760405162461bcd60e51b81526004016105d790615259565b6136a66137e2565b61169481613800565b6001600160a01b0390811691161490565b6066546136d3908263ffffffff612b4016565b6066556000828152606d60205260409020600901546136f8908263ffffffff612b4016565b6000928352606d602052604090922060098101929092555042600a90910155565b606e54600160a01b900460ff16612b3c57612b3c8282613869565b6001600160a01b039081169116141590565b600080826001600160a01b031663313ce5676040518163ffffffff1660e01b815260040160206040518083038186803b15801561378257600080fd5b505afa158015613796573d6000803e3d6000fd5b505050506040513d601f19601f820116820180604052506137ba91908101906144fa565b60ff16600a0a9392505050565b606e54600160a01b900460ff16612b3c57612b3c8282613886565b60006040516137f0906150e2565b6040519081900390206001905550565b600061380a612427565b6001600160a01b03161461384b5761382a816001600160a01b0316612b65565b6138465760405162461bcd60e51b81526004016105d790615259565b611694565b6000604051613859906150ed565b6040519081900390208290555050565b606754612b3c906001600160a01b0316838363ffffffff6138a316565b606754612b3c906001600160a01b0316838363ffffffff613b2216565b604051636eb1769f60e11b81526000906001600160a01b0385169063dd62ed3e906138d4908690309060040161513c565b60206040518083038186803b1580156138ec57600080fd5b505afa158015613900573d6000803e3d6000fd5b505050506040513d601f19601f8201168201806040525061392491908101906142a3565b9050818110156139465760405162461bcd60e51b81526004016105d7906153c9565b6040516370a0823160e01b81526000906001600160a01b038616906370a08231906139759030906004016150f8565b60206040518083038186803b15801561398d57600080fd5b505afa1580156139a1573d6000803e3d6000fd5b505050506040513d601f19601f820116820180604052506139c591908101906142a3565b90506000856001600160a01b03166323b872dd8630876040518463ffffffff1660e01b81526004016139f993929190615157565b602060405180830381600087803b158015613a1357600080fd5b505af1158015613a27573d6000803e3d6000fd5b505050506040513d601f19601f82011682018060405250613a4b9190810190614285565b905080613a6a5760405162461bcd60e51b81526004016105d7906152e9565b6040516370a0823160e01b81526000906001600160a01b038816906370a0823190613a999030906004016150f8565b60206040518083038186803b158015613ab157600080fd5b505afa158015613ac5573d6000803e3d6000fd5b505050506040513d601f19601f82011682018060405250613ae991908101906142a3565b905084613afc828563ffffffff6126aa16565b14613b195760405162461bcd60e51b81526004016105d790615329565b50505050505050565b6040516370a0823160e01b81526000906001600160a01b038516906370a0823190613b519030906004016150f8565b60206040518083038186803b158015613b6957600080fd5b505afa158015613b7d573d6000803e3d6000fd5b505050506040513d601f19601f82011682018060405250613ba191908101906142a3565b905081811015613bc35760405162461bcd60e51b81526004016105d790615379565b60405163a9059cbb60e01b81526000906001600160a01b0386169063a9059cbb90613bf49087908790600401615172565b602060405180830381600087803b158015613c0e57600080fd5b505af1158015613c22573d6000803e3d6000fd5b505050506040513d601f19601f82011682018060405250613c469190810190614285565b905080613c655760405162461bcd60e51b81526004016105d790615399565b6040516370a0823160e01b81526000906001600160a01b038716906370a0823190613c949030906004016150f8565b60206040518083038186803b158015613cac57600080fd5b505afa158015613cc0573d6000803e3d6000fd5b505050506040513d601f19601f82011682018060405250613ce491908101906142a3565b905083613cf7848363ffffffff6126aa16565b146133aa5760405162461bcd60e51b81526004016105d7906153f9565b60405180608001604052806000815260200160008152602001600081526020016000151581525090565b828054828255906000526020600020908101928215613d79579160200282015b82811115613d79578235825591602001919060010190613d5e565b50613d85929150613e11565b5090565b61022b806156c283390190565b60405180610180016040528060008152602001613db1613e2b565b81526020016000815260200160008152602001600081526020016000815260200160008152602001600081526020016000815260200160006001600160a01b0316815260200160006003811115613e0457fe5b8152600060209091015290565b611cbd91905b80821115613d855760008155600101613e17565b6040518060c0016040528060006001600160a01b0316815260200160006001600160a01b03168152602001600081526020016000815260200160008152602001600081525090565b80356126ef8161567c565b80516126ef8161567c565b60008083601f840112613e9b57600080fd5b50813567ffffffffffffffff811115613eb357600080fd5b60208301915083610140820283011115613ecc57600080fd5b9250929050565b60008083601f840112613ee557600080fd5b50813567ffffffffffffffff811115613efd57600080fd5b602083019150836020820283011115613ecc57600080fd5b80356126ef81615690565b80516126ef81615690565b80356126ef81615699565b80516126ef81615699565b80516126ef816156a2565b80356126ef816156ab565b600060e08284031215613f6957600080fd5b50919050565b600060e08284031215613f8157600080fd5b613f8b60e0615581565b90506000613f998484613e73565b8252506020613faa84848301613e73565b6020830152506040613fbe84828501613e73565b6040830152506060613fd284828501613f2b565b6060830152506080613fe684828501613f2b565b60808301525060a0613ffa84828501613f2b565b60a08301525060c061400e84828501613f2b565b60c08301525092915050565b600060c08284031215613f6957600080fd5b600060c0828403121561403e57600080fd5b61404860c0615581565b905060006140568484613e73565b825250602061406784848301613e73565b602083015250604061407b84828501613f2b565b604083015250606061408f84828501613f2b565b60608301525060806140a384828501613f2b565b60808301525060a06140b784828501613f2b565b60a08301525092915050565b80356126ef816156b8565b80516126ef816156b8565b6000602082840312156140eb57600080fd5b6000612b998484613e73565b60006020828403121561410957600080fd5b6000612b998484613e7e565b600080600080600060a0868803121561412d57600080fd5b60006141398888613e73565b955050602061414a88828901613e73565b945050604061415b88828901613e73565b935050606061416c88828901613e73565b925050608061417d88828901613e73565b9150509295509295909350565b60008060006040848603121561419f57600080fd5b60006141ab8686613e73565b935050602084013567ffffffffffffffff8111156141c857600080fd5b6141d486828701613ed3565b92509250509250925092565b600080604083850312156141f357600080fd5b60006141ff8585613e73565b925050602061421085828601613f2b565b9150509250929050565b60008060006060848603121561422f57600080fd5b600061423b8686613e73565b935050602061424c86828701613f2b565b925050604061425d86828701613f2b565b9150509250925092565b60006020828403121561427957600080fd5b6000612b998484613f15565b60006020828403121561429757600080fd5b6000612b998484613f20565b6000602082840312156142b557600080fd5b6000612b998484613f36565b6000602082840312156142d357600080fd5b6000612b998484613f41565b60008060008061012085870312156142f657600080fd5b60006143028787613f57565b94505060e085013567ffffffffffffffff81111561431f57600080fd5b61432b87828801613e89565b935093505061010061433f87828801613f2b565b91505092959194509250565b600060e0828403121561435d57600080fd5b6000612b998484613f6f565b600060c0828403121561437b57600080fd5b6000612b99848461402c565b60006020828403121561439957600080fd5b6000612b998484613f2b565b60008060008060008060008060008060006102008c8e0312156143c757600080fd5b60006143d38e8e613f2b565b9b505060206143e48e828f0161401a565b9a505060e06143f58e828f01613f2b565b9950506101006144078e828f01613f2b565b9850506101206144198e828f01613f2b565b97505061014061442b8e828f01613f2b565b96505061016061443d8e828f01613f2b565b95505061018061444f8e828f01613f2b565b9450506101a06144618e828f01613f2b565b9350506101c06144738e828f01613f4c565b9250506101e06144858e828f01613f15565b9150509295989b509295989b9093969950565b600080604083850312156144ab57600080fd5b60006141ff8585613f2b565b6000806000606084860312156144cc57600080fd5b60006144d88686613f36565b93505060206144e986828701613f36565b925050604061425d86828701613f36565b60006020828403121561450c57600080fd5b6000612b9984846140ce565b60006145248383614f45565b50506101400190565b60006145398383614608565b505060200190565b61454a81615626565b82525050565b61454a816155ef565b600061456583856155b9565b935061457082611cbd565b8060005b858110156145a6576145868284613d85565b6145908882614518565b975061459b836155b2565b925050600101614574565b509495945050505050565b60006145bc826155ae565b6145c681856155b9565b93506145d1836155a8565b8060005b838110156145a65781516145e9888261452d565b97506145f4836155a8565b9250506001016145d5565b61454a816155fa565b61454a81611cbd565b61454a816155ff565b61454a81615631565b600061462e826155ae565b61463881856155b9565b935061464881856020860161563c565b61465181615668565b9093019392505050565b6000614668601d836155b9565b7f4455524154494f4e5f455843454544535f4d41585f4455524154494f4e000000815260200192915050565b60006146a1601c83610f3f565b7f54496e697469616c697a61626c652e6973496e697469616c697a6564000000008152601c0192915050565b60006146da6015836155b9565b74105353d5539517d59053155157d491545552549151605a1b815260200192915050565b600061470b6016836155b9565b7513115391125391d7d413d3d317d254d7d4105554d15160521b815260200192915050565b600061473d6019836155b9565b7f414d4f554e545f455843454544535f4d41585f414d4f554e5400000000000000815260200192915050565b6000614776601e836155b9565b7f544f4b454e5f4c4f414e535f56414c55455f4d5553545f42455f5a45524f0000815260200192915050565b60006147af6011836155b9565b7013505617d313d05397d15610d151511151607a1b815260200192915050565b60006147dc601b836155b9565b7f536166654d6174683a206164646974696f6e206f766572666c6f770000000000815260200192915050565b60006148156016836155b9565b751313d05397d393d517d050d512559157d3d497d4d15560521b815260200192915050565b6000614847601b836155b9565b7f53455454494e47535f4d5553545f42455f415f434f4e54524143540000000000815260200192915050565b60006148806017836155b9565b7f444f45534e545f4e4545445f4c49515549444154494f4e000000000000000000815260200192915050565b60006148b9600f836155b9565b6e4c4f414e5f4e4f545f41435449564560881b815260200192915050565b60006148e4601b836155b9565b7f424f52524f5745445f414d4f554e545f455843454544535f4d41580000000000815260200192915050565b600061491d6014836155b9565b7343414e4e4f545f57495448445241575f5a45524f60601b815260200192915050565b600061494d6012836155b9565b71141310551193d49357d254d7d4105554d15160721b815260200192915050565b600061497b6018836155b9565b7f4d4f52455f434f4c4c41544552414c5f52455155495245440000000000000000815260200192915050565b60006149b46021836155b9565b7f536166654d6174683a206d756c7469706c69636174696f6e206f766572666c6f8152607760f81b602082015260400192915050565b60006149f7601d836155b9565b7f434f4c4c41544552414c5f4445504f53495445445f524543454e544c59000000815260200192915050565b6000614a30601b836155b9565b7f544f4b454e535f5452414e534645525f46524f4d5f4641494c45440000000000815260200192915050565b6000614a696012836155b9565b711313d05397d511549354d7d156141254915160721b815260200192915050565b6000614a97602e836155b9565b7f436f6e747261637420696e7374616e63652068617320616c726561647920626581526d195b881a5b9a5d1a585b1a5e995960921b602082015260400192915050565b6000614ae76018836155b9565b7f41544d5f4e4f545f464f554e445f464f525f4d41524b45540000000000000000815260200192915050565b6000614b20601f836155b9565b7f494e565f42414c414e43455f41465445525f5452414e534645525f46524f4d00815260200192915050565b6000614b596013836155b9565b7243414e4e4f545f4445504f5349545f5a45524f60681b815260200192915050565b6000614b88601e836155b9565b7f4f5241434c455f4d5553545f434f4e54524143545f4e4f545f454d5054590000815260200192915050565b6000614bc16017836155b9565b7f424f52524f5745525f4d5553545f42455f53454e444552000000000000000000815260200192915050565b6000614bfa6016836155b9565b7521a0a62622a92fa227a2a9a72a2fa7aba72fa627a0a760511b815260200192915050565b6000614c2c6019836155b9565b7f4e4f545f454e4f5547485f544f4b454e535f42414c414e434500000000000000815260200192915050565b6000614c65601883610f3f565b7f426173655570677261646561626c652e73657474696e67730000000000000000815260180192915050565b6000614c9e601a836155b9565b7f535550504c595f544f5f444542545f455843454544535f4d4158000000000000815260200192915050565b6000614cd76016836155b9565b751513d2d15394d7d514905394d1915497d1905253115160521b815260200192915050565b6000614d096018836155b9565b7f434f4e54524143545f4e4f545f494e495449414c495a45440000000000000000815260200192915050565b6000614d42600c836155b9565b6b1313d05397d393d517d4d15560a21b815260200192915050565b6000614d6a601b836155b9565b7f4e4f545f454e4f5547485f544f4b454e535f414c4c4f57414e43450000000000815260200192915050565b6000614da3601f836155b9565b7f5265656e7472616e637947756172643a207265656e7472616e742063616c6c00815260200192915050565b6000614ddc601c836155b9565b7f434f4e54524143545f414c52454144595f494e495449414c495a454400000000815260200192915050565b6000614e15601a836155b9565b7f494e565f42414c414e43455f41465445525f5452414e53464552000000000000815260200192915050565b80516080830190614e528482614608565b506020820151614e656020850182614608565b506040820151614e786040850182614608565b506060820151610d1460608501826145ff565b60e08201614e9982806155c2565b614ea38482614550565b50614eb160208301836155c2565b614ebe6020850182614550565b50614ecc60408301836155c2565b614ed96040850182614550565b50614ee760608301836155d1565b614ef46060850182614608565b50614f0260808301836155d1565b614f0f6080850182614608565b50614f1d60a08301836155d1565b614f2a60a0850182614608565b50614f3860c08301836155d1565b610d1460c0850182614608565b6101408201614f5482806155c2565b614f5e8482614550565b50614f6c60208301836155c2565b614f796020850182614550565b50614f8760408301836155d1565b614f946040850182614608565b50614fa260608301836155d1565b614faf6060850182614608565b50614fbd60808301836155d1565b614fca6080850182614608565b50614fd860a08301836155d1565b614fe560a0850182614608565b50614ff360c0830183613d85565b610d1460c0850182615070565b805160c08301906150118482614550565b5060208201516150246020850182614550565b5060408201516150376040850182614608565b50606082015161504a6060850182614608565b50608082015161505d6080850182614608565b5060a0820151610d1460a0850182614608565b6080820161507e82806155d1565b6150888482614608565b5061509660208301836155e0565b6150a360208501826150d9565b506150b160408301836155d1565b6150be6040850182614608565b506150cc60608301836155d1565b610d146060850182614608565b61454a81615620565b60006126ef82614694565b60006126ef82614c58565b602081016126ef8284614550565b602081016126ef8284614541565b606081016151228286614541565b61512f6020830185614608565b612b996040830184614608565b6040810161514a8285614550565b61358d6020830184614550565b606081016151658286614550565b61512f6020830185614550565b604081016151808285614550565b61358d6020830184614608565b602080825281016126ec81846145b1565b602081016126ef82846145ff565b602081016126ef8284614608565b602081016126ef8284614611565b602080825281016126ec8184614623565b60208082528101610f3c8161465b565b60208082528101610f3c816146cd565b60208082528101610f3c816146fe565b60208082528101610f3c81614730565b60208082528101610f3c81614769565b60208082528101610f3c816147a2565b60208082528101610f3c816147cf565b60208082528101610f3c81614808565b60208082528101610f3c8161483a565b60208082528101610f3c81614873565b60208082528101610f3c816148ac565b60208082528101610f3c816148d7565b60208082528101610f3c81614910565b60208082528101610f3c81614940565b60208082528101610f3c8161496e565b60208082528101610f3c816149a7565b60208082528101610f3c816149ea565b60208082528101610f3c81614a23565b60208082528101610f3c81614a5c565b60208082528101610f3c81614a8a565b60208082528101610f3c81614ada565b60208082528101610f3c81614b13565b60208082528101610f3c81614b4c565b60208082528101610f3c81614b7b565b60208082528101610f3c81614bb4565b60208082528101610f3c81614bed565b60208082528101610f3c81614c1f565b60208082528101610f3c81614c91565b60208082528101610f3c81614cca565b60208082528101610f3c81614cfc565b60208082528101610f3c81614d35565b60208082528101610f3c81614d5d565b60208082528101610f3c81614d96565b60208082528101610f3c81614dcf565b60208082528101610f3c81614e08565b608081016126ef8284614e41565b61010081016154268286614e8b565b81810360e0830152612d1e818486614559565b6040810161514a8285614608565b604081016154558285614608565b61358d6020830184614541565b606081016154708286614608565b61512f6020830185614541565b610220810161548c828f614608565b615499602083018e615000565b6154a660e083018d614608565b6154b461010083018c614608565b6154c261012083018b614608565b6154d061014083018a614608565b6154de610160830189614608565b6154ec610180830188614608565b6154fa6101a0830187614608565b6155086101c0830186614550565b6155166101e083018561461a565b6155246102008301846145ff565b9d9c50505050505050505050505050565b60a081016155438288614608565b6155506020830187614608565b61555d6040830186614608565b61556a6060830185614608565b6155776080830184614608565b9695505050505050565b60405181810167ffffffffffffffff811182821017156155a057600080fd5b604052919050565b60200190565b5190565b6101400190565b90815260200190565b60006126ec6020840184613e73565b60006126ec6020840184613f2b565b60006126ec60208401846140c3565b6000610f3c82615614565b151590565b6000610f3c826155ef565b80610f3f81615672565b6001600160a01b031690565b60ff1690565b6000610f3c826155ff565b6000610f3c8261560a565b60005b8381101561565757818101518382015260200161563f565b83811115610d145750506000910152565b601f01601f191690565b6004811061169457fe5b615685816155ef565b811461169457600080fd5b615685816155fa565b61568581611cbd565b615685816155ff565b6004811061169457600080fd5b6156858161562056fe608060405234801561001057600080fd5b5061020b806100206000396000f3fe608060405234801561001057600080fd5b50600436106100935760003560e01c80633ff591d9116100665780633ff591d9146100ca578063c41dd8ce146100d2578063cc44cadb146100da578063e00a4615146100e2578063e3f33d00146100ea57610093565b806308b04f62146100985780631139087a146100b257806311880cc8146100ba5780633b98dfdb146100c2575b600080fd5b6100a06100f2565b60408051918252519081900360200190f35b6100a0610109565b6100a0610121565b6100a0610136565b6100a061015a565b6100a0610174565b6100a061018b565b6100a06101a5565b6100a06101bb565b6f21b7b63630ba32b930b6213ab33332b960811b81565b704c6971756964617465457468507269636560781b81565b6d14d859995d1e525b9d195c9d985b60921b81565b7f526571756573744c6f616e5465726d73526174654c696d69740000000000000081565b7252657175697265645375626d697373696f6e7360681b81565b6f4d6178696d756d546f6c6572616e636560801b81565b7226b0bc34b6bab6a637b0b7223ab930ba34b7b760691b81565b6e5465726d7345787069727954696d6560881b81565b730a4cae6e0dedce6ca8af0e0d2e4f298cadccee8d60631b8156fea265627a7a72315820b6cc93d12d39f205ac91b27ee8876405b81cd752a680e010a2828f9ed81bbbb364736f6c63430005110032a365627a7a723158207987fe765f5f4979b9e5692c5fccc7a03d8308acc3bb7804fb6d95eccf4976cf6c6578706572696d656e74616cf564736f6c63430005110040",
  "source": "pragma solidity 0.5.17;\npragma experimental ABIEncoderV2;\n\nimport \"../../base/TokenCollateralLoans.sol\";\n\ncontract TokenCollateralLoansMock is TokenCollateralLoans {\n    bool public mockTokenFunctions;\n\n    function setMockTokenFunctions(bool newMockTokenFunctions) external {\n        mockTokenFunctions = newMockTokenFunctions;\n    }\n\n    function setLoanIDCounter(uint256 newLoanIdCounter) external {\n        loanIDCounter = newLoanIdCounter;\n    }\n\n    function setBorrowerLoans(address borrower, uint256[] calldata loanIDs) external {\n        borrowerLoans[borrower] = loanIDs;\n    }\n\n    function setTotalCollateral(uint256 amount) external {\n        totalCollateral = amount;\n    }\n\n    function setLoan(\n        uint256 id,\n        TellerCommon.LoanTerms calldata loanTerms,\n        uint256 termsExpiry,\n        uint256 loanStartTime,\n        uint256 collateral,\n        uint256 lastCollateralIn,\n        uint256 principalOwed,\n        uint256 interestOwed,\n        uint256 borrowedAmount,\n        TellerCommon.LoanStatus status,\n        bool liquidated\n    ) external {\n        require(loanTerms.maxLoanAmount >= borrowedAmount, \"BORROWED_AMOUNT_EXCEEDS_MAX\");\n        totalCollateral += collateral;\n        loans[id] = TellerCommon.Loan({\n            id: id,\n            loanTerms: loanTerms,\n            termsExpiry: termsExpiry,\n            loanStartTime: loanStartTime,\n            collateral: collateral,\n            lastCollateralIn: lastCollateralIn,\n            principalOwed: principalOwed,\n            interestOwed: interestOwed,\n            borrowedAmount: borrowedAmount,\n            escrow: address(0x0),\n            status: status,\n            liquidated: liquidated\n        });\n    }\n\n    function _collateralTokenTransfer(address recipient, uint256 amount) internal {\n        if (!mockTokenFunctions) {\n            super._collateralTokenTransfer(recipient, amount);\n        }\n    }\n\n    function _collateralTokenTransferFrom(address from, uint256 amount) internal {\n        if (!mockTokenFunctions) {\n            super._collateralTokenTransferFrom(from, amount);\n        }\n    }\n}\n",
  "sourcePath": "/Users/sy/Documents/GitHub/teller-protocol-v1/contracts/mock/base/TokenCollateralLoansMock.sol",
  "compiler": {
    "name": "solc",
    "version": "0.5.17+commit.d19bba13.Emscripten.clang"
  },
  "schemaVersion": "3.0.23",
  "updatedAt": "2020-09-06T02:15:12.505Z",
  "devdoc": {
    "methods": {
      "canLiquidateLoan(uint256)": {
        "params": {
          "loanID": "The ID of the loan to check"
        },
        "return": "bool weather the loan can be liquidated"
      },
      "createLoanWithTerms((address,address,address,uint256,uint256,uint256,uint256),(address,address,uint256,uint256,uint256,uint256,(uint256,uint8,bytes32,bytes32))[],uint256)": {
        "params": {
          "collateralAmount": "Amount of collateral required for the loan",
          "request": "Struct of the protocol loan request",
          "responses": "List of structs of the protocol loan responses"
        }
      },
      "depositCollateral(address,uint256,uint256)": {
        "params": {
          "amount": "The amount to deposit as collateral.",
          "borrower": "The address of the loan borrower.",
          "loanID": "The ID of the loan the collateral is for"
        }
      },
      "getBorrowerLoans(address)": {
        "params": {
          "borrower": "The borrower's address"
        }
      },
      "getCollateralInfo(uint256)": {
        "params": {
          "loanID": "of the loan to get info for"
        },
        "return": "memory TellerCommon.LoanCollateralInfo Collateral information of the loan"
      },
      "getTotalOwed(uint256)": {
        "params": {
          "loanID": "The ID of the loan to be queried"
        },
        "return": "uint256 The total amount owed remaining"
      },
      "initialize(address,address,address,address,address)": {
        "params": {
          "collateralTokenAddress": "Contract address for the collateral token.",
          "lendingPoolAddress": "Contract address of the lending pool",
          "loanTermsConsensusAddress": "Contract adddress for loan term consensus",
          "priceOracleAddress": "Contract address of the price oracle",
          "settingsAddress": "Contract address for the configuration of the platform"
        }
      },
      "initialized()": {
        "return": "true if contract is initialized. Otherwise it returns false."
      },
      "lendingToken()": {
        "return": "Address of the lending token"
      },
      "liquidateLoan(uint256)": {
        "params": {
          "loanID": "The ID of the loan to be liquidated"
        }
      },
      "repay(uint256,uint256)": {
        "params": {
          "amount": "The amount of tokens to pay back to the loan",
          "loanID": "The ID of the loan the payment is for"
        }
      },
      "setPriceOracle(address)": {
        "details": "It throws a require error if sender is not allowed.It throws a require error if new address is empty (0x0) or not a contract.",
        "params": {
          "newPriceOracle": "the new price oracle address."
        }
      },
      "takeOutLoan(uint256,uint256)": {
        "details": "collateral ratio is a percentage of the loan amount that's required in collateralthe percentage will be *(10**2). I.e. collateralRatio of 5244 means 52.44% collateralis required in the loan. Interest rate is also a percentage with 2 decimal points."
      },
      "withdrawCollateral(uint256,uint256)": {
        "params": {
          "amount": "The amount of collateral token or ether the caller is hoping to withdraw.",
          "loanID": "The ID of the loan the collateral is for"
        }
      }
    }
  },
  "userdoc": {
    "methods": {
      "canLiquidateLoan(uint256)": {
        "notice": "A loan can be liquidated if it is: under collateralized or expired"
      },
      "createLoanWithTerms((address,address,address,uint256,uint256,uint256,uint256),(address,address,uint256,uint256,uint256,uint256,(uint256,uint8,bytes32,bytes32))[],uint256)": {
        "notice": "Creates a loan with the loan request and terms"
      },
      "depositCollateral(address,uint256,uint256)": {
        "notice": "Deposit collateral tokens into a loan."
      },
      "getBorrowerLoans(address)": {
        "notice": "Get a list of all loans for a borrower"
      },
      "getCollateralInfo(uint256)": {
        "notice": "Get collateral information of a specific loan"
      },
      "getTotalOwed(uint256)": {
        "notice": "Returns the total owed amount remaining for a specified loan"
      },
      "initialize(address,address,address,address,address)": {
        "notice": "Initializes the current contract instance setting the required parameters, if allowed"
      },
      "initialized()": {
        "notice": "Gets if the contract is initialized."
      },
      "lendingToken()": {
        "notice": "Returns the lending token in the lending pool"
      },
      "liquidateLoan(uint256)": {
        "notice": "Liquidate a loan if it is expired or under collateralized"
      },
      "repay(uint256,uint256)": {
        "notice": "Make a payment to a loan"
      },
      "setPriceOracle(address)": {
        "notice": "Updates the current price oracle instance."
      },
      "settings()": {
        "notice": "The settings contract."
      },
      "takeOutLoan(uint256,uint256)": {
        "notice": "Take out a loan"
      },
      "withdrawCollateral(uint256,uint256)": {
        "notice": "Withdraw collateral from a loan, unless this isn't allowed"
      }
    }
  }
}