{
  "contractName": "TokenCollateralLoansMock",
  "abi": [
    {
      "anonymous": false,
      "inputs": [
        {
          "indexed": true,
          "internalType": "uint256",
          "name": "loanID",
          "type": "uint256"
        },
        {
          "indexed": true,
          "internalType": "address",
          "name": "borrower",
          "type": "address"
        },
        {
          "indexed": false,
          "internalType": "uint256",
          "name": "depositAmount",
          "type": "uint256"
        }
      ],
      "name": "CollateralDeposited",
      "type": "event"
    },
    {
      "anonymous": false,
      "inputs": [
        {
          "indexed": true,
          "internalType": "uint256",
          "name": "loanID",
          "type": "uint256"
        },
        {
          "indexed": true,
          "internalType": "address",
          "name": "borrower",
          "type": "address"
        },
        {
          "indexed": false,
          "internalType": "uint256",
          "name": "withdrawalAmount",
          "type": "uint256"
        }
      ],
      "name": "CollateralWithdrawn",
      "type": "event"
    },
    {
      "anonymous": false,
      "inputs": [
        {
          "indexed": true,
          "internalType": "uint256",
          "name": "loanID",
          "type": "uint256"
        },
        {
          "indexed": true,
          "internalType": "address",
          "name": "borrower",
          "type": "address"
        },
        {
          "indexed": false,
          "internalType": "address",
          "name": "liquidator",
          "type": "address"
        },
        {
          "indexed": false,
          "internalType": "uint256",
          "name": "collateralOut",
          "type": "uint256"
        },
        {
          "indexed": false,
          "internalType": "uint256",
          "name": "tokensIn",
          "type": "uint256"
        }
      ],
      "name": "LoanLiquidated",
      "type": "event"
    },
    {
      "anonymous": false,
      "inputs": [
        {
          "indexed": true,
          "internalType": "uint256",
          "name": "loanID",
          "type": "uint256"
        },
        {
          "indexed": true,
          "internalType": "address",
          "name": "borrower",
          "type": "address"
        },
        {
          "indexed": false,
          "internalType": "uint256",
          "name": "amountPaid",
          "type": "uint256"
        },
        {
          "indexed": false,
          "internalType": "address",
          "name": "payer",
          "type": "address"
        },
        {
          "indexed": false,
          "internalType": "uint256",
          "name": "totalOwed",
          "type": "uint256"
        }
      ],
      "name": "LoanRepaid",
      "type": "event"
    },
    {
      "anonymous": false,
      "inputs": [
        {
          "indexed": true,
          "internalType": "uint256",
          "name": "loanID",
          "type": "uint256"
        },
        {
          "indexed": true,
          "internalType": "address",
          "name": "borrower",
          "type": "address"
        },
        {
          "indexed": true,
          "internalType": "address",
          "name": "escrow",
          "type": "address"
        },
        {
          "indexed": false,
          "internalType": "uint256",
          "name": "amountBorrowed",
          "type": "uint256"
        }
      ],
      "name": "LoanTakenOut",
      "type": "event"
    },
    {
      "anonymous": false,
      "inputs": [
        {
          "indexed": true,
          "internalType": "uint256",
          "name": "loanID",
          "type": "uint256"
        },
        {
          "indexed": true,
          "internalType": "address",
          "name": "borrower",
          "type": "address"
        },
        {
          "indexed": true,
          "internalType": "address",
          "name": "recipient",
          "type": "address"
        },
        {
          "indexed": false,
          "internalType": "uint256",
          "name": "interestRate",
          "type": "uint256"
        },
        {
          "indexed": false,
          "internalType": "uint256",
          "name": "collateralRatio",
          "type": "uint256"
        },
        {
          "indexed": false,
          "internalType": "uint256",
          "name": "maxLoanAmount",
          "type": "uint256"
        },
        {
          "indexed": false,
          "internalType": "uint256",
          "name": "duration",
          "type": "uint256"
        },
        {
          "indexed": false,
          "internalType": "uint256",
          "name": "termsExpiry",
          "type": "uint256"
        }
      ],
      "name": "LoanTermsSet",
      "type": "event"
    },
    {
      "anonymous": false,
      "inputs": [
        {
          "indexed": true,
          "internalType": "address",
          "name": "sender",
          "type": "address"
        },
        {
          "indexed": true,
          "internalType": "address",
          "name": "oldPriceOracle",
          "type": "address"
        },
        {
          "indexed": true,
          "internalType": "address",
          "name": "newPriceOracle",
          "type": "address"
        }
      ],
      "name": "PriceOracleUpdated",
      "type": "event"
    },
    {
      "constant": true,
      "inputs": [
        {
          "internalType": "address",
          "name": "",
          "type": "address"
        },
        {
          "internalType": "uint256",
          "name": "",
          "type": "uint256"
        }
      ],
      "name": "borrowerLoans",
      "outputs": [
        {
          "internalType": "uint256",
          "name": "",
          "type": "uint256"
        }
      ],
      "payable": false,
      "stateMutability": "view",
      "type": "function"
    },
    {
      "constant": true,
      "inputs": [],
      "name": "cToken",
      "outputs": [
        {
          "internalType": "address",
          "name": "",
          "type": "address"
        }
      ],
      "payable": false,
      "stateMutability": "view",
      "type": "function"
    },
    {
      "constant": true,
      "inputs": [
        {
          "internalType": "uint256",
          "name": "loanID",
          "type": "uint256"
        }
      ],
      "name": "canLiquidateLoan",
      "outputs": [
        {
          "internalType": "bool",
          "name": "",
          "type": "bool"
        }
      ],
      "payable": false,
      "stateMutability": "view",
      "type": "function"
    },
    {
      "constant": true,
      "inputs": [],
      "name": "collateralToken",
      "outputs": [
        {
          "internalType": "address",
          "name": "",
          "type": "address"
        }
      ],
      "payable": false,
      "stateMutability": "view",
      "type": "function"
    },
    {
      "constant": false,
      "inputs": [
        {
          "components": [
            {
              "internalType": "address payable",
              "name": "borrower",
              "type": "address"
            },
            {
              "internalType": "address",
              "name": "recipient",
              "type": "address"
            },
            {
              "internalType": "address",
              "name": "consensusAddress",
              "type": "address"
            },
            {
              "internalType": "uint256",
              "name": "requestNonce",
              "type": "uint256"
            },
            {
              "internalType": "uint256",
              "name": "amount",
              "type": "uint256"
            },
            {
              "internalType": "uint256",
              "name": "duration",
              "type": "uint256"
            },
            {
              "internalType": "uint256",
              "name": "requestTime",
              "type": "uint256"
            }
          ],
          "internalType": "struct TellerCommon.LoanRequest",
          "name": "request",
          "type": "tuple"
        },
        {
          "components": [
            {
              "internalType": "address",
              "name": "signer",
              "type": "address"
            },
            {
              "internalType": "address",
              "name": "consensusAddress",
              "type": "address"
            },
            {
              "internalType": "uint256",
              "name": "responseTime",
              "type": "uint256"
            },
            {
              "internalType": "uint256",
              "name": "interestRate",
              "type": "uint256"
            },
            {
              "internalType": "uint256",
              "name": "collateralRatio",
              "type": "uint256"
            },
            {
              "internalType": "uint256",
              "name": "maxLoanAmount",
              "type": "uint256"
            },
            {
              "components": [
                {
                  "internalType": "uint256",
                  "name": "signerNonce",
                  "type": "uint256"
                },
                {
                  "internalType": "uint8",
                  "name": "v",
                  "type": "uint8"
                },
                {
                  "internalType": "bytes32",
                  "name": "r",
                  "type": "bytes32"
                },
                {
                  "internalType": "bytes32",
                  "name": "s",
                  "type": "bytes32"
                }
              ],
              "internalType": "struct TellerCommon.Signature",
              "name": "signature",
              "type": "tuple"
            }
          ],
          "internalType": "struct TellerCommon.LoanResponse[]",
          "name": "responses",
          "type": "tuple[]"
        },
        {
          "internalType": "uint256",
          "name": "collateralAmount",
          "type": "uint256"
        }
      ],
      "name": "createLoanWithTerms",
      "outputs": [],
      "payable": true,
      "stateMutability": "payable",
      "type": "function"
    },
    {
      "constant": false,
      "inputs": [
        {
          "internalType": "address",
          "name": "borrower",
          "type": "address"
        },
        {
          "internalType": "uint256",
          "name": "loanID",
          "type": "uint256"
        },
        {
          "internalType": "uint256",
          "name": "amount",
          "type": "uint256"
        }
      ],
      "name": "depositCollateral",
      "outputs": [],
      "payable": true,
      "stateMutability": "payable",
      "type": "function"
    },
    {
      "constant": true,
      "inputs": [
        {
          "internalType": "address",
          "name": "borrower",
          "type": "address"
        }
      ],
      "name": "getBorrowerLoans",
      "outputs": [
        {
          "internalType": "uint256[]",
          "name": "",
          "type": "uint256[]"
        }
      ],
      "payable": false,
      "stateMutability": "view",
      "type": "function"
    },
    {
      "constant": true,
      "inputs": [
        {
          "internalType": "uint256",
          "name": "loanID",
          "type": "uint256"
        }
      ],
      "name": "getCollateralInfo",
      "outputs": [
        {
          "components": [
            {
              "internalType": "uint256",
              "name": "collateral",
              "type": "uint256"
            },
            {
              "internalType": "uint256",
              "name": "neededInLendingTokens",
              "type": "uint256"
            },
            {
              "internalType": "uint256",
              "name": "neededInCollateralTokens",
              "type": "uint256"
            },
            {
              "internalType": "bool",
              "name": "moreCollateralRequired",
              "type": "bool"
            }
          ],
          "internalType": "struct TellerCommon.LoanCollateralInfo",
          "name": "",
          "type": "tuple"
        }
      ],
      "payable": false,
      "stateMutability": "view",
      "type": "function"
    },
    {
      "constant": true,
      "inputs": [
        {
          "internalType": "uint256",
          "name": "loanID",
          "type": "uint256"
        }
      ],
      "name": "getLiquidationInfo",
      "outputs": [
        {
          "components": [
            {
              "internalType": "uint256",
              "name": "collateral",
              "type": "uint256"
            },
            {
              "internalType": "uint256",
              "name": "collateralInTokens",
              "type": "uint256"
            },
            {
              "internalType": "uint256",
              "name": "amountToLiquidate",
              "type": "uint256"
            },
            {
              "internalType": "bool",
              "name": "liquidable",
              "type": "bool"
            }
          ],
          "internalType": "struct TellerCommon.LoanLiquidationInfo",
          "name": "liquidationInfo",
          "type": "tuple"
        }
      ],
      "payable": false,
      "stateMutability": "view",
      "type": "function"
    },
    {
      "constant": true,
      "inputs": [
        {
          "internalType": "uint256",
          "name": "loanID",
          "type": "uint256"
        }
      ],
      "name": "getTotalOwed",
      "outputs": [
        {
          "internalType": "uint256",
          "name": "",
          "type": "uint256"
        }
      ],
      "payable": false,
      "stateMutability": "view",
      "type": "function"
    },
    {
      "constant": false,
      "inputs": [
        {
          "internalType": "address",
          "name": "priceOracleAddress",
          "type": "address"
        },
        {
          "internalType": "address",
          "name": "lendingPoolAddress",
          "type": "address"
        },
        {
          "internalType": "address",
          "name": "loanTermsConsensusAddress",
          "type": "address"
        },
        {
          "internalType": "address",
          "name": "settingsAddress",
          "type": "address"
        },
        {
          "internalType": "address",
          "name": "collateralTokenAddress",
          "type": "address"
        }
      ],
      "name": "initialize",
      "outputs": [],
      "payable": false,
      "stateMutability": "nonpayable",
      "type": "function"
    },
    {
      "constant": false,
      "inputs": [],
      "name": "initialize",
      "outputs": [],
      "payable": false,
      "stateMutability": "nonpayable",
      "type": "function"
    },
    {
      "constant": true,
      "inputs": [],
      "name": "initialized",
      "outputs": [
        {
          "internalType": "bool",
          "name": "value",
          "type": "bool"
        }
      ],
      "payable": false,
      "stateMutability": "view",
      "type": "function"
    },
    {
      "constant": true,
      "inputs": [
        {
          "internalType": "uint256",
          "name": "loanID",
          "type": "uint256"
        }
      ],
      "name": "isLoanSecured",
      "outputs": [
        {
          "internalType": "bool",
          "name": "",
          "type": "bool"
        }
      ],
      "payable": false,
      "stateMutability": "view",
      "type": "function"
    },
    {
      "constant": true,
      "inputs": [],
      "name": "lendingPool",
      "outputs": [
        {
          "internalType": "contract LendingPoolInterface",
          "name": "",
          "type": "address"
        }
      ],
      "payable": false,
      "stateMutability": "view",
      "type": "function"
    },
    {
      "constant": true,
      "inputs": [],
      "name": "lendingToken",
      "outputs": [
        {
          "internalType": "address",
          "name": "",
          "type": "address"
        }
      ],
      "payable": false,
      "stateMutability": "view",
      "type": "function"
    },
    {
      "constant": false,
      "inputs": [
        {
          "internalType": "uint256",
          "name": "loanID",
          "type": "uint256"
        }
      ],
      "name": "liquidateLoan",
      "outputs": [],
      "payable": false,
      "stateMutability": "nonpayable",
      "type": "function"
    },
    {
      "constant": true,
      "inputs": [],
      "name": "loanIDCounter",
      "outputs": [
        {
          "internalType": "uint256",
          "name": "",
          "type": "uint256"
        }
      ],
      "payable": false,
      "stateMutability": "view",
      "type": "function"
    },
    {
      "constant": true,
      "inputs": [],
      "name": "loanTermsConsensus",
      "outputs": [
        {
          "internalType": "contract LoanTermsConsensusInterface",
          "name": "",
          "type": "address"
        }
      ],
      "payable": false,
      "stateMutability": "view",
      "type": "function"
    },
    {
      "constant": true,
      "inputs": [
        {
          "internalType": "uint256",
          "name": "",
          "type": "uint256"
        }
      ],
      "name": "loans",
      "outputs": [
        {
          "internalType": "uint256",
          "name": "id",
          "type": "uint256"
        },
        {
          "components": [
            {
              "internalType": "address payable",
              "name": "borrower",
              "type": "address"
            },
            {
              "internalType": "address",
              "name": "recipient",
              "type": "address"
            },
            {
              "internalType": "uint256",
              "name": "interestRate",
              "type": "uint256"
            },
            {
              "internalType": "uint256",
              "name": "collateralRatio",
              "type": "uint256"
            },
            {
              "internalType": "uint256",
              "name": "maxLoanAmount",
              "type": "uint256"
            },
            {
              "internalType": "uint256",
              "name": "duration",
              "type": "uint256"
            }
          ],
          "internalType": "struct TellerCommon.LoanTerms",
          "name": "loanTerms",
          "type": "tuple"
        },
        {
          "internalType": "uint256",
          "name": "termsExpiry",
          "type": "uint256"
        },
        {
          "internalType": "uint256",
          "name": "loanStartTime",
          "type": "uint256"
        },
        {
          "internalType": "uint256",
          "name": "collateral",
          "type": "uint256"
        },
        {
          "internalType": "uint256",
          "name": "lastCollateralIn",
          "type": "uint256"
        },
        {
          "internalType": "uint256",
          "name": "principalOwed",
          "type": "uint256"
        },
        {
          "internalType": "uint256",
          "name": "interestOwed",
          "type": "uint256"
        },
        {
          "internalType": "uint256",
          "name": "borrowedAmount",
          "type": "uint256"
        },
        {
          "internalType": "address",
          "name": "escrow",
          "type": "address"
        },
        {
          "internalType": "enum TellerCommon.LoanStatus",
          "name": "status",
          "type": "uint8"
        },
        {
          "internalType": "bool",
          "name": "liquidated",
          "type": "bool"
        }
      ],
      "payable": false,
      "stateMutability": "view",
      "type": "function"
    },
    {
      "constant": true,
      "inputs": [],
      "name": "mockTokenFunctions",
      "outputs": [
        {
          "internalType": "bool",
          "name": "",
          "type": "bool"
        }
      ],
      "payable": false,
      "stateMutability": "view",
      "type": "function"
    },
    {
      "constant": true,
      "inputs": [],
      "name": "priceOracle",
      "outputs": [
        {
          "internalType": "address",
          "name": "",
          "type": "address"
        }
      ],
      "payable": false,
      "stateMutability": "view",
      "type": "function"
    },
    {
      "constant": false,
      "inputs": [
        {
          "internalType": "uint256",
          "name": "amount",
          "type": "uint256"
        },
        {
          "internalType": "uint256",
          "name": "loanID",
          "type": "uint256"
        }
      ],
      "name": "repay",
      "outputs": [],
      "payable": false,
      "stateMutability": "nonpayable",
      "type": "function"
    },
    {
      "constant": false,
      "inputs": [
        {
          "internalType": "address",
          "name": "newPriceOracle",
          "type": "address"
        }
      ],
      "name": "setPriceOracle",
      "outputs": [],
      "payable": false,
      "stateMutability": "nonpayable",
      "type": "function"
    },
    {
      "constant": true,
      "inputs": [],
      "name": "settings",
      "outputs": [
        {
          "internalType": "contract SettingsInterface",
          "name": "",
          "type": "address"
        }
      ],
      "payable": false,
      "stateMutability": "view",
      "type": "function"
    },
    {
      "constant": true,
      "inputs": [],
      "name": "tToken",
      "outputs": [
        {
          "internalType": "address",
          "name": "",
          "type": "address"
        }
      ],
      "payable": false,
      "stateMutability": "view",
      "type": "function"
    },
    {
      "constant": false,
      "inputs": [
        {
          "internalType": "uint256",
          "name": "loanID",
          "type": "uint256"
        },
        {
          "internalType": "uint256",
          "name": "amountBorrow",
          "type": "uint256"
        }
      ],
      "name": "takeOutLoan",
      "outputs": [],
      "payable": false,
      "stateMutability": "nonpayable",
      "type": "function"
    },
    {
      "constant": true,
      "inputs": [],
      "name": "totalCollateral",
      "outputs": [
        {
          "internalType": "uint256",
          "name": "",
          "type": "uint256"
        }
      ],
      "payable": false,
      "stateMutability": "view",
      "type": "function"
    },
    {
      "constant": false,
      "inputs": [
        {
          "internalType": "uint256",
          "name": "amount",
          "type": "uint256"
        },
        {
          "internalType": "uint256",
          "name": "loanID",
          "type": "uint256"
        }
      ],
      "name": "withdrawCollateral",
      "outputs": [],
      "payable": false,
      "stateMutability": "nonpayable",
      "type": "function"
    },
    {
      "constant": false,
      "inputs": [
        {
          "internalType": "bool",
          "name": "newMockTokenFunctions",
          "type": "bool"
        }
      ],
      "name": "setMockTokenFunctions",
      "outputs": [],
      "payable": false,
      "stateMutability": "nonpayable",
      "type": "function"
    },
    {
      "constant": false,
      "inputs": [
        {
          "internalType": "uint256",
          "name": "newLoanIdCounter",
          "type": "uint256"
        }
      ],
      "name": "setLoanIDCounter",
      "outputs": [],
      "payable": false,
      "stateMutability": "nonpayable",
      "type": "function"
    },
    {
      "constant": false,
      "inputs": [
        {
          "internalType": "address",
          "name": "borrower",
          "type": "address"
        },
        {
          "internalType": "uint256[]",
          "name": "loanIDs",
          "type": "uint256[]"
        }
      ],
      "name": "setBorrowerLoans",
      "outputs": [],
      "payable": false,
      "stateMutability": "nonpayable",
      "type": "function"
    },
    {
      "constant": false,
      "inputs": [
        {
          "internalType": "uint256",
          "name": "amount",
          "type": "uint256"
        }
      ],
      "name": "setTotalCollateral",
      "outputs": [],
      "payable": false,
      "stateMutability": "nonpayable",
      "type": "function"
    },
    {
      "constant": false,
      "inputs": [
        {
          "internalType": "uint256",
          "name": "id",
          "type": "uint256"
        },
        {
          "components": [
            {
              "internalType": "address payable",
              "name": "borrower",
              "type": "address"
            },
            {
              "internalType": "address",
              "name": "recipient",
              "type": "address"
            },
            {
              "internalType": "uint256",
              "name": "interestRate",
              "type": "uint256"
            },
            {
              "internalType": "uint256",
              "name": "collateralRatio",
              "type": "uint256"
            },
            {
              "internalType": "uint256",
              "name": "maxLoanAmount",
              "type": "uint256"
            },
            {
              "internalType": "uint256",
              "name": "duration",
              "type": "uint256"
            }
          ],
          "internalType": "struct TellerCommon.LoanTerms",
          "name": "loanTerms",
          "type": "tuple"
        },
        {
          "internalType": "uint256",
          "name": "termsExpiry",
          "type": "uint256"
        },
        {
          "internalType": "uint256",
          "name": "loanStartTime",
          "type": "uint256"
        },
        {
          "internalType": "uint256",
          "name": "collateral",
          "type": "uint256"
        },
        {
          "internalType": "uint256",
          "name": "lastCollateralIn",
          "type": "uint256"
        },
        {
          "internalType": "uint256",
          "name": "principalOwed",
          "type": "uint256"
        },
        {
          "internalType": "uint256",
          "name": "interestOwed",
          "type": "uint256"
        },
        {
          "internalType": "uint256",
          "name": "borrowedAmount",
          "type": "uint256"
        },
        {
          "internalType": "enum TellerCommon.LoanStatus",
          "name": "status",
          "type": "uint8"
        },
        {
          "internalType": "bool",
          "name": "liquidated",
          "type": "bool"
        }
      ],
      "name": "setLoan",
      "outputs": [],
      "payable": false,
      "stateMutability": "nonpayable",
      "type": "function"
    }
  ],
  "bytecode": "0x608060405234801561001057600080fd5b50615c4480620000216000396000f3fe6080604052600436106101f95760003560e01c8063721405651161010d578063b2016bd4116100a0578063e06174e41161006f578063e06174e414610557578063e1ec3c681461056c578063e3ed1902146105a4578063eee8b7ff146105c4578063fe15d70f146105f1576101f9565b8063b2016bd4146104ed578063c35d64ea14610502578063ccdd9f5d14610517578063d8aed14514610537576101f9565b8063934b5d13116100dc578063934b5d1314610490578063a59a9973146104b0578063a5c5c7b2146104c5578063aaaca558146104d8576101f9565b8063721405651461041b578063767a7b051461043b5780638129fc1c1461045b578063854768c014610470576101f9565b806342c3c0fb11610190578063530e784f1161015f578063530e784f1461038457806358895e3d146103a457806364794459146103c65780636948f32b146103e657806369e527da14610406576101f9565b806342c3c0fb1461030d5780634ac8eb5f1461032d57806350ef5c3514610342578063513484541461036f576101f9565b806319e8b2b3116101cc57806319e8b2b31461028b5780631a74856b146102ab5780632630c12f146102be5780633b929300146102e0576101f9565b806302bc2cdb146101fe5780630cc2c0fb146102205780631459457a14610240578063158ef93e14610260575b600080fd5b34801561020a57600080fd5b5061021e61021936600461498f565b610606565b005b34801561022c57600080fd5b5061021e61023b36600461475e565b610ced565b34801561024c57600080fd5b5061021e61025b36600461460c565b610d00565b34801561026c57600080fd5b50610275610da5565b60405161028291906156ce565b60405180910390f35b34801561029757600080fd5b5061021e6102a6366004614681565b610dc4565b61021e6102b9366004614711565b610ded565b3480156102ca57600080fd5b506102d3610fd8565b6040516102829190615628565b3480156102ec57600080fd5b506103006102fb36600461487e565b610fe7565b60405161028291906156dc565b34801561031957600080fd5b5061021e61032836600461487e565b611017565b34801561033957600080fd5b5061030061101c565b34801561034e57600080fd5b5061036261035d36600461487e565b611022565b6040516102829190615949565b34801561037b57600080fd5b50610300611033565b34801561039057600080fd5b5061021e61039f3660046145d0565b611039565b3480156103b057600080fd5b506103b9611197565b60405161028291906156ea565b3480156103d257600080fd5b5061021e6103e136600461487e565b6111a6565b3480156103f257600080fd5b5061027561040136600461487e565b6111ab565b34801561041257600080fd5b506102d3611304565b34801561042757600080fd5b5061021e61043636600461489c565b611387565b34801561044757600080fd5b5061021e61045636600461498f565b61155d565b34801561046757600080fd5b5061021e611773565b34801561047c57600080fd5b5061027561048b36600461487e565b6117fb565b34801561049c57600080fd5b506103626104ab36600461487e565b611982565b3480156104bc57600080fd5b506103b9611993565b61021e6104d33660046147d6565b6119a2565b3480156104e457600080fd5b506102d3611f96565b3480156104f957600080fd5b506102d3611fdb565b34801561050e57600080fd5b506102d3611fea565b34801561052357600080fd5b5061021e61053236600461487e565b61202f565b34801561054357600080fd5b5061021e61055236600461498f565b612257565b34801561056357600080fd5b506103b9612632565b34801561057857600080fd5b5061058c61058736600461487e565b612654565b6040516102829c9b9a999897969594939291906159bd565b3480156105b057600080fd5b506103006105bf3660046146d7565b61270c565b3480156105d057600080fd5b506105e46105df3660046145d0565b61273a565b60405161028291906156bd565b3480156105fd57600080fd5b506102756127a6565b8160016000828152606d60205260409020600e0154600160a01b900460ff16600381111561063057fe5b146106565760405162461bcd60e51b815260040161064d906158f9565b60405180910390fd5b61065e610da5565b61067a5760405162461bcd60e51b815260040161064d906158e9565b6106826127af565b1561069f5760405162461bcd60e51b815260040161064d906157d9565b606a546001600160a01b03166106b481612829565b156106d15760405162461bcd60e51b815260040161064d90615729565b603380546001908101918290556000868152606d6020526040902001546001600160a01b03163381146107165760405162461bcd60e51b815260040161064d90615899565b6000868152606d60205260409020600501548511156107475760405162461bcd60e51b815260040161064d90615759565b6000868152606d60205260409020600701544211156107785760405162461bcd60e51b815260040161064d90615839565b6108f2610783612632565b6001600160a01b031663269012a0610799612632565b6001600160a01b031663d86d744e6040518163ffffffff1660e01b815260040160206040518083038186803b1580156107d157600080fd5b505afa1580156107e5573d6000803e3d6000fd5b505050506040513d601f19601f8201168201806040525061080991908101906147b8565b6001600160a01b03166311880cc86040518163ffffffff1660e01b815260040160206040518083038186803b15801561084157600080fd5b505afa158015610855573d6000803e3d6000fd5b505050506040513d601f19601f82011682018060405250610879919081019061479a565b6040518263ffffffff1660e01b815260040161089591906156dc565b60206040518083038186803b1580156108ad57600080fd5b505afa1580156108c1573d6000803e3d6000fd5b505050506040513d601f19601f820116820180604052506108e5919081019061479a565b429063ffffffff6128ae16565b6000878152606d60205260409020600a015411156109225760405162461bcd60e51b815260040161064d90615809565b6000868152606d60205260409020600d8101869055600b81018690556006810154600390910154610987916301e133809161097b916127109183919061096f908c9063ffffffff6128f916565b9063ffffffff6128f916565b9063ffffffff61293316565b6000878152606d60205260409020600c810191909155600e01805460ff60a01b1916600160a11b1790556109b9614218565b6109c287612975565b90508060600151156109e65760405162461bcd60e51b815260040161064d906157e9565b6000878152606d6020526040902042600890910155610a04876129c6565b6000888152606d602052604090819020600e0180546001600160a01b0319166001600160a01b039384161790819055606a549151631397424760e11b81529183169263272e848e92610a5c928b921690600401615979565b600060405180830381600087803b158015610a7657600080fd5b505af1158015610a8a573d6000803e3d6000fd5b5050506000888152606d602052604090819020600e0154905163cd6dc68760e01b81526001600160a01b03909116915063cd6dc68790610ad09030908b906004016156a2565b600060405180830381600087803b158015610aea57600080fd5b505af1158015610afe573d6000803e3d6000fd5b50505050610b0a612abf565b6001600160a01b031663c7bbb113606a60009054906101000a90046001600160a01b03166001600160a01b031663aaaca5586040518163ffffffff1660e01b815260040160206040518083038186803b158015610b6657600080fd5b505afa158015610b7a573d6000803e3d6000fd5b505050506040513d601f19601f82011682018060405250610b9e91908101906145ee565b306001600160a01b031663b2016bd46040518163ffffffff1660e01b815260040160206040518083038186803b158015610bd757600080fd5b505afa158015610beb573d6000803e3d6000fd5b505050506040513d601f19601f82011682018060405250610c0f91908101906145ee565b896040518463ffffffff1660e01b8152600401610c2e93929190615687565b600060405180830381600087803b158015610c4857600080fd5b505af1158015610c5c573d6000803e3d6000fd5b5050506000888152606d602052604090819020600e81015460019091015491516001600160a01b03918216935091169089907f85b5516a17ce775661a4b967b1fb30c852678f6598d86d9f3c99b7b60ff2d0ce90610cbb908b906156dc565b60405180910390a450506033548114610ce65760405162461bcd60e51b815260040161064d90615919565b5050505050565b606e805460ff1916911515919091179055565b610d08610da5565b15610d255760405162461bcd60e51b815260040161064d90615929565b60408051808201909152601a81527f50524f564944455f434f4c4c5f544f4b454e5f414444524553530000000000006020820152610d73906001600160a01b0383169063ffffffff612b3916565b610d7f85858585612b66565b606780546001600160a01b0319166001600160a01b039290921691909117905550505050565b600080604051610db490615612565b6040519081900390205492915050565b6001600160a01b0383166000908152606c60205260409020610de7908383614242565b50505050565b3415610e0b5760405162461bcd60e51b815260040161064d90615749565b8160016000828152606d60205260409020600e0154600160a01b900460ff166003811115610e3557fe5b1480610e67575060026000828152606d60205260409020600e0154600160a01b900460ff166003811115610e6557fe5b145b610e835760405162461bcd60e51b815260040161064d90615779565b610e8b610da5565b610ea75760405162461bcd60e51b815260040161064d906158e9565b610eaf6127af565b15610ecc5760405162461bcd60e51b815260040161064d906157d9565b606a546001600160a01b0316610ee181612829565b15610efe5760405162461bcd60e51b815260040161064d90615729565b6000848152606d6020908152604091829020600101548251808401909352601983527f424f52524f5745525f4c4f414e5f49445f4d49534d415443480000000000000091830191909152610f65916001600160a01b0388811692169063ffffffff612cb716565b60008311610f855760405162461bcd60e51b815260040161064d90615879565b610f8f8484612ce0565b846001600160a01b0316847feec2f3feb835e2f2fd44281034b04700a1ddda63dd402949d470a25a7c40b36c85604051610fc991906156dc565b60405180910390a35050505050565b6069546001600160a01b031681565b6000818152606d60205260408120600b810154600c9091015461100f9163ffffffff612cf816565b90505b919050565b606855565b60665481565b61102a614218565b61100f82612d1d565b60685481565b611041610da5565b61105d5760405162461bcd60e51b815260040161064d906158e9565b611065612632565b6001600160a01b031663c095ea27336040518263ffffffff1660e01b81526004016110909190615636565b60006040518083038186803b1580156110a857600080fd5b505afa1580156110bc573d6000803e3d6000fd5b505050506110d2816001600160a01b0316612ef9565b6110ee5760405162461bcd60e51b815260040161064d90615889565b60695460408051808201909152601b81527f4e45575f4f5241434c455f4d5553545f42455f50524f5649444544000000000060208201526001600160a01b0390911690611144908290849063ffffffff612f3516565b606980546001600160a01b0319166001600160a01b03848116918217909255604051909183169033907ff51f0fffc8121ee3747e0536c487d894894cdba960ccfb4ab385a88d51b16fed90600090a45050565b606b546001600160a01b031681565b606655565b60006111b56127af565b806111d05750606a546111d0906001600160a01b0316612829565b80611202575060026000838152606d60205260409020600e0154600160a01b900460ff1660038111156111ff57fe5b14155b1561120f57506000611012565b6000828152606d60205260408120600881015460069091015490914261123b848463ffffffff612cf816565b10905080156112505760019350505050611012565b6000858152606d60205260409020600e01546001600160a01b031680156112ed57806001600160a01b031663415dfa5b6040518163ffffffff1660e01b815260040160206040518083038186803b1580156112aa57600080fd5b505afa1580156112be573d6000803e3d6000fd5b505050506040513d601f19601f820116820180604052506112e2919081019061477c565b945050505050611012565b6112f686612975565b606001519695505050505050565b606a54604080516334f293ed60e11b815290516000926001600160a01b0316916369e527da916004808301926020929190829003018186803b15801561134957600080fd5b505afa15801561135d573d6000803e3d6000fd5b505050506040513d601f19601f8201168201806040525061138191908101906145ee565b90505b90565b828a6080013510156113ab5760405162461bcd60e51b815260040161064d906157b9565b60668054880190556040805161018081019091528b8152602081016113d5368d90038d018d614860565b81526020018a815260200189815260200188815260200187815260200186815260200185815260200184815260200160006001600160a01b0316815260200183600381111561142057fe5b815282151560209182015260008d8152606d8252604090819020835181558383015180516001830180546001600160a01b03199081166001600160a01b0393841617909155948201516002840180548716918316919091179055818401516003808501919091556060808401516004860155608080850151600587015560a0948501516006870155958801516007860155870151600885015593860151600984015590850151600a83015560c0850151600b83015560e0850151600c830155610100850151600d830155610120850151600e830180549095169116178084556101408501519193919260ff60a01b1990911690600160a01b90849081111561152457fe5b02179055506101609190910151600e9091018054911515600160a81b0260ff60a81b199092169190911790555050505050505050505050565b8060016000828152606d60205260409020600e0154600160a01b900460ff16600381111561158757fe5b14806115b9575060026000828152606d60205260409020600e0154600160a01b900460ff1660038111156115b757fe5b145b6115d55760405162461bcd60e51b815260040161064d90615779565b6115dd610da5565b6115f95760405162461bcd60e51b815260040161064d906158e9565b6116016127af565b1561161e5760405162461bcd60e51b815260040161064d906157d9565b606a546001600160a01b031661163381612829565b156116505760405162461bcd60e51b815260040161064d90615729565b603380546001908101918290556000858152606d6020526040902001546001600160a01b031633146116945760405162461bcd60e51b815260040161064d906158a9565b600085116116b45760405162461bcd60e51b815260040161064d906157c9565b6116bc614218565b6116c585612975565b604081015181519192506000916116e19163ffffffff6128ae16565b9050868110156117035760405162461bcd60e51b815260040161064d90615819565b61170e868833612f3f565b336001600160a01b0316867f7c5e5cb62e5ed3caf3764e4b0afedfedef533e27809d43367799787ad2abcd418960405161174891906156dc565b60405180910390a350506033548114610ce65760405162461bcd60e51b815260040161064d90615919565b600054610100900460ff168061178c575061178c612f93565b8061179a575060005460ff16155b6117b65760405162461bcd60e51b815260040161064d90615849565b600054610100900460ff161580156117e1576000805460ff1961ff0019909116610100171660011790555b600160335580156117f8576000805461ff00191690555b50565b6000611805612632565b6001600160a01b031663269012a061181b612632565b6001600160a01b031663d86d744e6040518163ffffffff1660e01b815260040160206040518083038186803b15801561185357600080fd5b505afa158015611867573d6000803e3d6000fd5b505050506040513d601f19601f8201168201806040525061188b91908101906147b8565b6001600160a01b03166308b04f626040518163ffffffff1660e01b815260040160206040518083038186803b1580156118c357600080fd5b505afa1580156118d7573d6000803e3d6000fd5b505050506040513d601f19601f820116820180604052506118fb919081019061479a565b6040518263ffffffff1660e01b815260040161191791906156dc565b60206040518083038186803b15801561192f57600080fd5b505afa158015611943573d6000803e3d6000fd5b505050506040513d601f19601f82011682018060405250611967919081019061479a565b6000838152606d602052604090206004015410159050919050565b61198a614218565b61100f82612975565b606a546001600160a01b031681565b34156119c05760405162461bcd60e51b815260040161064d90615749565b6119c8610da5565b6119e45760405162461bcd60e51b815260040161064d906158e9565b6119ec6127af565b15611a095760405162461bcd60e51b815260040161064d906157d9565b611a1660208501856145d0565b336001600160a01b03821614611a3e5760405162461bcd60e51b815260040161064d90615899565b611a4d36869003860186614842565b6000611a57612632565b6001600160a01b031663269012a0611a6d612632565b6001600160a01b031663d86d744e6040518163ffffffff1660e01b815260040160206040518083038186803b158015611aa557600080fd5b505afa158015611ab9573d6000803e3d6000fd5b505050506040513d601f19601f82011682018060405250611add91908101906147b8565b6001600160a01b031663cc44cadb6040518163ffffffff1660e01b815260040160206040518083038186803b158015611b1557600080fd5b505afa158015611b29573d6000803e3d6000fd5b505050506040513d601f19601f82011682018060405250611b4d919081019061479a565b6040518263ffffffff1660e01b8152600401611b6991906156dc565b60206040518083038186803b158015611b8157600080fd5b505afa158015611b95573d6000803e3d6000fd5b505050506040513d601f19601f82011682018060405250611bb9919081019061479a565b90508160a00151811015611bdf5760405162461bcd60e51b815260040161064d90615709565b6000611be9612632565b6001600160a01b03166369ff7744606a60009054906101000a90046001600160a01b03166001600160a01b031663aaaca5586040518163ffffffff1660e01b815260040160206040518083038186803b158015611c4557600080fd5b505afa158015611c59573d6000803e3d6000fd5b505050506040513d601f19601f82011682018060405250611c7d91908101906145ee565b85608001516040518363ffffffff1660e01b8152600401611c9f9291906156a2565b60206040518083038186803b158015611cb757600080fd5b505afa158015611ccb573d6000803e3d6000fd5b505050506040513d601f19601f82011682018060405250611cef919081019061477c565b90508015611d0f5760405162461bcd60e51b815260040161064d90615739565b611d1c8360800151612f99565b611d385760405162461bcd60e51b815260040161064d906158c9565b6000611d42613309565b606b5460405163064e5d4960e01b8152919250600091829182916001600160a01b039091169063064e5d4990611d80908f908f908f90600401615957565b606060405180830381600087803b158015611d9a57600080fd5b505af1158015611dae573d6000803e3d6000fd5b505050506040513d601f19601f82011682018060405250611dd291908101906149ae565b91945092509050611df484611dec368f90038f018f614842565b858585613323565b6000858152606d6020908152604091829020835181558382015180516001830180546001600160a01b03199081166001600160a01b0393841617909155938201516002840180548616918316919091179055818501516003808501919091556060808401516004860155608080850151600587015560a0948501516006870155968801516007860155870151600885015594860151600984015590850151600a83015560c0850151600b83015560e0850151600c830155610100850151600d830155610120850151600e83018054909416911617808355610140850151919391929160ff60a01b1990911690600160a01b908490811115611ef157fe5b02179055506101609190910151600e9091018054911515600160a81b0260ff60a81b199092169190911790558815611f2d57611f2d848a612ce0565b606c6000611f3e60208f018f6145d0565b6001600160a01b031681526020808201929092526040016000908120805460018101825590825291902001849055611f8884611f7f368f90038f018f614842565b8585858e613572565b505050505050505050505050565b606a546040805163155594ab60e31b815290516000926001600160a01b03169163aaaca558916004808301926020929190829003018186803b15801561134957600080fd5b6067546001600160a01b031681565b606a54604080516361aeb27560e11b815290516000926001600160a01b03169163c35d64ea916004808301926020929190829003018186803b15801561134957600080fd5b8060026000828152606d60205260409020600e0154600160a01b900460ff16600381111561205957fe5b146120765760405162461bcd60e51b815260040161064d906157a9565b61207e610da5565b61209a5760405162461bcd60e51b815260040161064d906158e9565b6120a26127af565b156120bf5760405162461bcd60e51b815260040161064d906157d9565b606a546001600160a01b03166120d481612829565b156120f15760405162461bcd60e51b815260040161064d90615729565b6033805460010190819055612104614218565b61210d85612d1d565b905080606001516121305760405162461bcd60e51b815260040161064d90615799565b6000858152606d60205260409020600e01805460ff60a01b1916600360a01b1760ff60a81b1916600160a81b179055805161216d9086903361363d565b606a5460408083015190516382f7b02760e01b81526001600160a01b03909216916382f7b027916121a2913390600401615987565b600060405180830381600087803b1580156121bc57600080fd5b505af11580156121d0573d6000803e3d6000fd5b5050506000868152606d6020526040908190206001015483518483015192516001600160a01b03909216935088927f9950a0562c02382e2e840daa73082d5be7660ce37601f28fa4c84089c11e8a069261222d9233929091615644565b60405180910390a3506033548114610de75760405162461bcd60e51b815260040161064d90615919565b8060026000828152606d60205260409020600e0154600160a01b900460ff16600381111561228157fe5b1461229e5760405162461bcd60e51b815260040161064d906157a9565b6122a6610da5565b6122c25760405162461bcd60e51b815260040161064d906158e9565b6122ca6127af565b156122e75760405162461bcd60e51b815260040161064d906157d9565b606a546001600160a01b03166122fc81612829565b156123195760405162461bcd60e51b815260040161064d90615729565b6033805460010190819055846123415760405162461bcd60e51b815260040161064d90615719565b84600061234d86610fe7565b90508181101561235b578091505b61236b818363ffffffff6128ae16565b905061237786836136db565b8061241b576000868152606d60205260409020600e8101805460ff60a01b1916600360a01b17905560098101546001909101546123c090889083906001600160a01b0316612f3f565b6000878152606d6020526040908190206001015490516001600160a01b039091169088907f7c5e5cb62e5ed3caf3764e4b0afedfedef533e27809d43367799787ad2abcd41906124119085906156dc565b60405180910390a3505b606a5460405163acb7081560e01b81526001600160a01b039091169063acb708159061244d9085903390600401615987565b600060405180830381600087803b15801561246757600080fd5b505af115801561247b573d6000803e3d6000fd5b50505050612487612abf565b6001600160a01b03166362e269ef606a60009054906101000a90046001600160a01b03166001600160a01b031663aaaca5586040518163ffffffff1660e01b815260040160206040518083038186803b1580156124e357600080fd5b505afa1580156124f7573d6000803e3d6000fd5b505050506040513d601f19601f8201168201806040525061251b91908101906145ee565b306001600160a01b031663b2016bd46040518163ffffffff1660e01b815260040160206040518083038186803b15801561255457600080fd5b505afa158015612568573d6000803e3d6000fd5b505050506040513d601f19601f8201168201806040525061258c91908101906145ee565b856040518463ffffffff1660e01b81526004016125ab93929190615687565b600060405180830381600087803b1580156125c557600080fd5b505af11580156125d9573d6000803e3d6000fd5b5050506000878152606d6020526040908190206001015490516001600160a01b03909116915087907f20a1f2ec363af45dc5ee7d9d622f2dd68b52501c382126c7f04b53663c4c69bf90611748908690339087906159a2565b60008060006040516126439061561d565b604051908190039020549250505090565b606d602090815260009182526040918290208054835160c08101855260018301546001600160a01b03908116825260028401548116948201949094526003830154948101949094526004820154606085015260058201546080850152600682015460a0850152600782015460088301546009840154600a850154600b860154600c870154600d880154600e9098015496999895979496939592949193909281169060ff600160a01b8204811691600160a81b9004168c565b606c602052816000526040600020818154811061272557fe5b90600052602060002001600091509150505481565b6001600160a01b0381166000908152606c602090815260409182902080548351818402810184019094528084526060939283018282801561279a57602002820191906000526020600020905b815481526020019060010190808311612786575b50505050509050919050565b606e5460ff1681565b60006127b9612632565b6001600160a01b031663b187bd266040518163ffffffff1660e01b815260040160206040518083038186803b1580156127f157600080fd5b505afa158015612805573d6000803e3d6000fd5b505050506040513d601f19601f82011682018060405250611381919081019061477c565b6000612833612632565b6001600160a01b0316633b668321836040518263ffffffff1660e01b815260040161285e9190615628565b60206040518083038186803b15801561287657600080fd5b505afa15801561288a573d6000803e3d6000fd5b505050506040513d601f19601f8201168201806040525061100f919081019061477c565b60006128f083836040518060400160405280601e81526020017f536166654d6174683a207375627472616374696f6e206f766572666c6f770000815250613796565b90505b92915050565b600082612908575060006128f3565b8282028284828161291557fe5b04146128f05760405162461bcd60e51b815260040161064d906157f9565b60006128f083836040518060400160405280601a81526020017f536166654d6174683a206469766973696f6e206279207a65726f0000000000008152506137c7565b61297d614218565b6000828152606d6020526040812060090154908061299a856137fe565b604080516080810182528681526020810193909352820181905293909311606084015250909392505050565b60006129d0612632565b6001600160a01b031663bdd1daaa6040518163ffffffff1660e01b815260040160206040518083038186803b158015612a0857600080fd5b505afa158015612a1c573d6000803e3d6000fd5b505050506040513d601f19601f82011682018060405250612a4091908101906147b8565b6001600160a01b0316634614874e30846040518363ffffffff1660e01b8152600401612a6d9291906156a2565b602060405180830381600087803b158015612a8757600080fd5b505af1158015612a9b573d6000803e3d6000fd5b505050506040513d601f19601f8201168201806040525061100f91908101906145ee565b6000612ac9612632565b6001600160a01b0316631390f8d76040518163ffffffff1660e01b815260040160206040518083038186803b158015612b0157600080fd5b505afa158015612b15573d6000803e3d6000fd5b505050506040513d601f19601f8201168201806040525061138191908101906147b8565b612b4282613822565b8190612b615760405162461bcd60e51b815260040161064d91906156f8565b505050565b612b6e610da5565b15612b8b5760405162461bcd60e51b815260040161064d90615929565b60408051808201909152601681527550524f564944455f4f5241434c455f4144445245535360501b6020820152612bd2906001600160a01b0386169063ffffffff612b3916565b60408051808201909152601c81527f50524f564944455f4c454e44494e475f504f4f4c5f41444452455353000000006020820152612c20906001600160a01b0385169063ffffffff612b3916565b60408051808201909152601b81527f50524f56494445445f4c4f414e5f5445524d535f4144445245535300000000006020820152612c6e906001600160a01b0384169063ffffffff612b3916565b612c7781613830565b50606980546001600160a01b039485166001600160a01b031991821617909155606a805493851693821693909317909255606b8054919093169116179055565b612cc183836138e2565b8190610de75760405162461bcd60e51b815260040161064d91906156f8565b612cea82826138f3565b612cf4338261394c565b5050565b6000828201838110156128f05760405162461bcd60e51b815260040161064d90615769565b612d25614218565b6000828152606d602052604081206009015490612d40612632565b6001600160a01b031663269012a0612d56612632565b6001600160a01b031663d86d744e6040518163ffffffff1660e01b815260040160206040518083038186803b158015612d8e57600080fd5b505afa158015612da2573d6000803e3d6000fd5b505050506040513d601f19601f82011682018060405250612dc691908101906147b8565b6001600160a01b0316631139087a6040518163ffffffff1660e01b815260040160206040518083038186803b158015612dfe57600080fd5b505afa158015612e12573d6000803e3d6000fd5b505050506040513d601f19601f82011682018060405250612e36919081019061479a565b6040518263ffffffff1660e01b8152600401612e5291906156dc565b60206040518083038186803b158015612e6a57600080fd5b505afa158015612e7e573d6000803e3d6000fd5b505050506040513d601f19601f82011682018060405250612ea2919081019061479a565b90506000612eaf83613960565b60408051608081018252858152602081018390529192508101612ede61271061097b858763ffffffff6128f916565b8152602001612eec876111ab565b1515905295945050505050565b6000813f7fc5d2460186f7233c927e7db2dcc703c0e500b653ca82273b7bfad8045d85a470818114801590612f2d57508115155b949350505050565b612cc18383613a9a565b606654612f52908363ffffffff6128ae16565b6066556000838152606d6020526040902060090154612f77908363ffffffff6128ae16565b6000848152606d6020526040902060090155612b618183613aac565b303b1590565b600080612fa4612632565b6001600160a01b031663dc21a6a06040518163ffffffff1660e01b815260040160206040518083038186803b158015612fdc57600080fd5b505afa158015612ff0573d6000803e3d6000fd5b505050506040513d601f19601f8201168201806040525061301491908101906147b8565b6001600160a01b0316631fb7cec9606a60009054906101000a90046001600160a01b03166001600160a01b031663aaaca5586040518163ffffffff1660e01b815260040160206040518083038186803b15801561307057600080fd5b505afa158015613084573d6000803e3d6000fd5b505050506040513d601f19601f820116820180604052506130a891908101906145ee565b6067546040516001600160e01b031960e085901b1681526130d692916001600160a01b03169060040161566c565b60206040518083038186803b1580156130ee57600080fd5b505afa158015613102573d6000803e3d6000fd5b505050506040513d601f19601f8201168201806040525061312691908101906145ee565b90506001600160a01b03811661314e5760405162461bcd60e51b815260040161064d90615859565b604051632319178560e11b81526000906001600160a01b038316906346322f0a9061318c906b14dd5c1c1b1e551bd119589d60a21b906004016156dc565b60206040518083038186803b1580156131a457600080fd5b505afa1580156131b8573d6000803e3d6000fd5b505050506040513d601f19601f820116820180604052506131dc919081019061479a565b905060006131e8612abf565b6001600160a01b031663db63323e606a60009054906101000a90046001600160a01b03166001600160a01b031663aaaca5586040518163ffffffff1660e01b815260040160206040518083038186803b15801561324457600080fd5b505afa158015613258573d6000803e3d6000fd5b505050506040513d601f19601f8201168201806040525061327c91908101906145ee565b6067546040516001600160e01b031960e085901b1681526132ac92916001600160a01b0316908a90600401615687565b60206040518083038186803b1580156132c457600080fd5b505afa1580156132d8573d6000803e3d6000fd5b505050506040513d601f19601f820116820180604052506132fc919081019061479a565b9190911115949350505050565b60685461331d81600163ffffffff612cf816565b60685590565b61332b61428d565b6000613335612632565b6001600160a01b031663269012a061334b612632565b6001600160a01b031663d86d744e6040518163ffffffff1660e01b815260040160206040518083038186803b15801561338357600080fd5b505afa158015613397573d6000803e3d6000fd5b505050506040513d601f19601f820116820180604052506133bb91908101906147b8565b6001600160a01b031663e00a46156040518163ffffffff1660e01b815260040160206040518083038186803b1580156133f357600080fd5b505afa158015613407573d6000803e3d6000fd5b505050506040513d601f19601f8201168201806040525061342b919081019061479a565b6040518263ffffffff1660e01b815260040161344791906156dc565b60206040518083038186803b15801561345f57600080fd5b505afa158015613473573d6000803e3d6000fd5b505050506040513d601f19601f82011682018060405250613497919081019061479a565b905060006134ab428363ffffffff612cf816565b90506040518061018001604052808981526020016040518060c001604052808a600001516001600160a01b031681526020018a602001516001600160a01b031681526020018981526020018881526020018781526020018a60a00151815250815260200182815260200160008152602001600081526020016000815260200160008152602001600081526020016000815260200160006001600160a01b031681526020016001600381111561355c57fe5b8152600060209091015298975050505050505050565b84602001516001600160a01b031685600001516001600160a01b0316877f0358f509931cba53bbb6a94b7f05a5178220a0c7ddb54b1a1722df9e6ed6aa098787878b60a00151606d60008f8152602001908152602001600020600701546040516135e0959493929190615a75565b60405180910390a480156136355784600001516001600160a01b0316867feec2f3feb835e2f2fd44281034b04700a1ddda63dd402949d470a25a7c40b36c8360405161362c91906156dc565b60405180910390a35b505050505050565b6000838152606d60205260409020600e01546001600160a01b0316156136d0576000838152606d602052604090819020600e0154905163df8de3e760e01b81526001600160a01b039091169063df8de3e79061369d908490600401615636565b600060405180830381600087803b1580156136b757600080fd5b505af11580156136cb573d6000803e3d6000fd5b505050505b612b61838383612f3f565b6000828152606d60205260409020600b015481111561375e576000828152606d60205260409020600b0154819061371990829063ffffffff6128ae16565b6000848152606d60205260408120600b810191909155600c0154909150613746908263ffffffff6128ae16565b6000848152606d60205260409020600c015550612cf4565b6000828152606d60205260409020600b0154613780908263ffffffff6128ae16565b6000838152606d60205260409020600b01555050565b600081848411156137ba5760405162461bcd60e51b815260040161064d91906156f8565b50508183035b9392505050565b600081836137e85760405162461bcd60e51b815260040161064d91906156f8565b5060008385816137f457fe5b0495945050505050565b600080600061380c84613ac0565b90508061381882613b69565b9250925050915091565b6001600160a01b0316151590565b613838610da5565b156138555760405162461bcd60e51b815260040161064d90615929565b60408051808201909152601981527f53455454494e47535f4d5553545f42455f50524f56494445440000000000000060208201526138a3906001600160a01b0383169063ffffffff612b3916565b6138b5816001600160a01b0316612ef9565b6138d15760405162461bcd60e51b815260040161064d90615789565b6138d9613c5f565b6117f881613c7d565b6001600160a01b0390811691161490565b606654613906908263ffffffff612cf816565b6066556000828152606d602052604090206009015461392b908263ffffffff612cf816565b6000928352606d602052604090922060098101929092555042600a90910155565b606e5460ff16612cf457612cf48282613cec565b6000806139fa606a60009054906101000a90046001600160a01b03166001600160a01b031663aaaca5586040518163ffffffff1660e01b815260040160206040518083038186803b1580156139b457600080fd5b505afa1580156139c8573d6000803e3d6000fd5b505050506040513d601f19601f820116820180604052506139ec91908101906145ee565b6001600160a01b0316613d09565b90506000606960009054906101000a90046001600160a01b03166001600160a01b03166396237c026040518163ffffffff1660e01b815260040160206040518083038186803b158015613a4c57600080fd5b505afa158015613a60573d6000803e3d6000fd5b505050506040513d601f19601f82011682018060405250613a84919081019061479a565b9050612f2d8161097b868563ffffffff6128f916565b6001600160a01b039081169116141590565b606e5460ff16612cf457612cf48282613d8a565b6000818152606d60205260408120600e0154600160a01b900460ff16816001826003811115613aeb57fe5b1415613b0957506000838152606d6020526040902060050154613b38565b6002826003811115613b1757fe5b1415613b2d57613b2684610fe7565b9050613b38565b600092505050611012565b6000848152606d6020526040902060040154613b6061271061097b848463ffffffff6128f916565b95945050505050565b600080613bbd606a60009054906101000a90046001600160a01b03166001600160a01b031663aaaca5586040518163ffffffff1660e01b815260040160206040518083038186803b1580156139b457600080fd5b90506000606960009054906101000a90046001600160a01b03166001600160a01b03166396237c026040518163ffffffff1660e01b815260040160206040518083038186803b158015613c0f57600080fd5b505afa158015613c23573d6000803e3d6000fd5b505050506040513d601f19601f82011682018060405250613c47919081019061479a565b90506000613b608361097b878563ffffffff6128f916565b6000604051613c6d90615612565b6040519081900390206001905550565b613c96613c88612632565b6001600160a01b0316613822565b15613ca0576117f8565b613cb2816001600160a01b0316612ef9565b613cce5760405162461bcd60e51b815260040161064d90615789565b6000604051613cdc9061561d565b6040519081900390208290555050565b606754612cf4906001600160a01b0316838363ffffffff613da716565b600080826001600160a01b031663313ce5676040518163ffffffff1660e01b815260040160206040518083038186803b158015613d4557600080fd5b505afa158015613d59573d6000803e3d6000fd5b505050506040513d601f19601f82011682018060405250613d7d91908101906149f1565b60ff16600a0a9392505050565b606754612cf4906001600160a01b0316838363ffffffff61402616565b604051636eb1769f60e11b81526000906001600160a01b0385169063dd62ed3e90613dd8908690309060040161566c565b60206040518083038186803b158015613df057600080fd5b505afa158015613e04573d6000803e3d6000fd5b505050506040513d601f19601f82011682018060405250613e28919081019061479a565b905081811015613e4a5760405162461bcd60e51b815260040161064d90615909565b6040516370a0823160e01b81526000906001600160a01b038616906370a0823190613e79903090600401615628565b60206040518083038186803b158015613e9157600080fd5b505afa158015613ea5573d6000803e3d6000fd5b505050506040513d601f19601f82011682018060405250613ec9919081019061479a565b90506000856001600160a01b03166323b872dd8630876040518463ffffffff1660e01b8152600401613efd93929190615687565b602060405180830381600087803b158015613f1757600080fd5b505af1158015613f2b573d6000803e3d6000fd5b505050506040513d601f19601f82011682018060405250613f4f919081019061477c565b905080613f6e5760405162461bcd60e51b815260040161064d90615829565b6040516370a0823160e01b81526000906001600160a01b038816906370a0823190613f9d903090600401615628565b60206040518083038186803b158015613fb557600080fd5b505afa158015613fc9573d6000803e3d6000fd5b505050506040513d601f19601f82011682018060405250613fed919081019061479a565b905084614000828563ffffffff6128ae16565b1461401d5760405162461bcd60e51b815260040161064d90615869565b50505050505050565b6040516370a0823160e01b81526000906001600160a01b038516906370a0823190614055903090600401615628565b60206040518083038186803b15801561406d57600080fd5b505afa158015614081573d6000803e3d6000fd5b505050506040513d601f19601f820116820180604052506140a5919081019061479a565b9050818110156140c75760405162461bcd60e51b815260040161064d906158b9565b60405163a9059cbb60e01b81526000906001600160a01b0386169063a9059cbb906140f890879087906004016156a2565b602060405180830381600087803b15801561411257600080fd5b505af1158015614126573d6000803e3d6000fd5b505050506040513d601f19601f8201168201806040525061414a919081019061477c565b9050806141695760405162461bcd60e51b815260040161064d906158d9565b6040516370a0823160e01b81526000906001600160a01b038716906370a0823190614198903090600401615628565b60206040518083038186803b1580156141b057600080fd5b505afa1580156141c4573d6000803e3d6000fd5b505050506040513d601f19601f820116820180604052506141e8919081019061479a565b9050836141fb848363ffffffff6128ae16565b146136355760405162461bcd60e51b815260040161064d90615939565b60405180608001604052806000815260200160008152602001600081526020016000151581525090565b82805482825590600052602060002090810192821561427d579160200282015b8281111561427d578235825591602001919060010190614262565b50614289929150614308565b5090565b604051806101800160405280600081526020016142a8614322565b81526020016000815260200160008152602001600081526020016000815260200160008152602001600081526020016000815260200160006001600160a01b03168152602001600060038111156142fb57fe5b8152600060209091015290565b61138491905b80821115614289576000815560010161430e565b6040518060c0016040528060006001600160a01b0316815260200160006001600160a01b03168152602001600081526020016000815260200160008152602001600081525090565b80356128f381615bbc565b80516128f381615bbc565b60008083601f84011261439257600080fd5b50813567ffffffffffffffff8111156143aa57600080fd5b602083019150836101408202830111156143c357600080fd5b9250929050565b60008083601f8401126143dc57600080fd5b50813567ffffffffffffffff8111156143f457600080fd5b6020830191508360208202830111156143c357600080fd5b80356128f381615bd0565b80516128f381615bd0565b80356128f381615bd9565b80516128f381615bd9565b80516128f381615be2565b80356128f381615beb565b600060e0828403121561446057600080fd5b50919050565b600060e0828403121561447857600080fd5b61448260e0615ac1565b90506000614490848461436a565b82525060206144a18484830161436a565b60208301525060406144b58482850161436a565b60408301525060606144c984828501614422565b60608301525060806144dd84828501614422565b60808301525060a06144f184828501614422565b60a08301525060c061450584828501614422565b60c08301525092915050565b600060c0828403121561446057600080fd5b600060c0828403121561453557600080fd5b61453f60c0615ac1565b9050600061454d848461436a565b825250602061455e8484830161436a565b602083015250604061457284828501614422565b604083015250606061458684828501614422565b606083015250608061459a84828501614422565b60808301525060a06145ae84828501614422565b60a08301525092915050565b80356128f381615bf8565b80516128f381615bf8565b6000602082840312156145e257600080fd5b6000612f2d848461436a565b60006020828403121561460057600080fd5b6000612f2d8484614375565b600080600080600060a0868803121561462457600080fd5b6000614630888861436a565b95505060206146418882890161436a565b94505060406146528882890161436a565b93505060606146638882890161436a565b92505060806146748882890161436a565b9150509295509295909350565b60008060006040848603121561469657600080fd5b60006146a2868661436a565b935050602084013567ffffffffffffffff8111156146bf57600080fd5b6146cb868287016143ca565b92509250509250925092565b600080604083850312156146ea57600080fd5b60006146f6858561436a565b925050602061470785828601614422565b9150509250929050565b60008060006060848603121561472657600080fd5b6000614732868661436a565b935050602061474386828701614422565b925050604061475486828701614422565b9150509250925092565b60006020828403121561477057600080fd5b6000612f2d848461440c565b60006020828403121561478e57600080fd5b6000612f2d8484614417565b6000602082840312156147ac57600080fd5b6000612f2d848461442d565b6000602082840312156147ca57600080fd5b6000612f2d8484614438565b60008060008061012085870312156147ed57600080fd5b60006147f9878761444e565b94505060e085013567ffffffffffffffff81111561481657600080fd5b61482287828801614380565b935093505061010061483687828801614422565b91505092959194509250565b600060e0828403121561485457600080fd5b6000612f2d8484614466565b600060c0828403121561487257600080fd5b6000612f2d8484614523565b60006020828403121561489057600080fd5b6000612f2d8484614422565b60008060008060008060008060008060006102008c8e0312156148be57600080fd5b60006148ca8e8e614422565b9b505060206148db8e828f01614511565b9a505060e06148ec8e828f01614422565b9950506101006148fe8e828f01614422565b9850506101206149108e828f01614422565b9750506101406149228e828f01614422565b9650506101606149348e828f01614422565b9550506101806149468e828f01614422565b9450506101a06149588e828f01614422565b9350506101c061496a8e828f01614443565b9250506101e061497c8e828f0161440c565b9150509295989b509295989b9093969950565b600080604083850312156149a257600080fd5b60006146f68585614422565b6000806000606084860312156149c357600080fd5b60006149cf868661442d565b93505060206149e08682870161442d565b92505060406147548682870161442d565b600060208284031215614a0357600080fd5b6000612f2d84846145c5565b6000614a1b8383615475565b50506101400190565b6000614a308383614aff565b505060200190565b614a4181615b66565b82525050565b614a4181615b2f565b6000614a5c8385615af9565b9350614a6782611384565b8060005b85811015614a9d57614a7d8284614289565b614a878882614a0f565b9750614a9283615af2565b925050600101614a6b565b509495945050505050565b6000614ab382615aee565b614abd8185615af9565b9350614ac883615ae8565b8060005b83811015614a9d578151614ae08882614a24565b9750614aeb83615ae8565b925050600101614acc565b614a4181615b3a565b614a4181611384565b614a4181615b3f565b614a4181615b71565b6000614b2582615aee565b614b2f8185615af9565b9350614b3f818560208601615b7c565b614b4881615ba8565b9093019392505050565b6000614b5f601d83615af9565b7f4455524154494f4e5f455843454544535f4d41585f4455524154494f4e000000815260200192915050565b6000614b98601c83611012565b7f54496e697469616c697a61626c652e6973496e697469616c697a6564000000008152601c0192915050565b6000614bd1601583615af9565b74105353d5539517d59053155157d491545552549151605a1b815260200192915050565b6000614c02601683615af9565b7513115391125391d7d413d3d317d254d7d4105554d15160521b815260200192915050565b6000614c34601983615af9565b7f414d4f554e545f455843454544535f4d41585f414d4f554e5400000000000000815260200192915050565b6000614c6d601e83615af9565b7f544f4b454e5f4c4f414e535f56414c55455f4d5553545f42455f5a45524f0000815260200192915050565b6000614ca6601183615af9565b7013505617d313d05397d15610d151511151607a1b815260200192915050565b6000614cd3601b83615af9565b7f536166654d6174683a206164646974696f6e206f766572666c6f770000000000815260200192915050565b6000614d0c601683615af9565b751313d05397d393d517d050d512559157d3d497d4d15560521b815260200192915050565b6000614d3e601b83615af9565b7f53455454494e47535f4d5553545f42455f415f434f4e54524143540000000000815260200192915050565b6000614d77601783615af9565b7f444f45534e545f4e4545445f4c49515549444154494f4e000000000000000000815260200192915050565b6000614db0600f83615af9565b6e4c4f414e5f4e4f545f41435449564560881b815260200192915050565b6000614ddb601b83615af9565b7f424f52524f5745445f414d4f554e545f455843454544535f4d41580000000000815260200192915050565b6000614e14601483615af9565b7343414e4e4f545f57495448445241575f5a45524f60601b815260200192915050565b6000614e44601283615af9565b71141310551193d49357d254d7d4105554d15160721b815260200192915050565b6000614e72601883615af9565b7f4d4f52455f434f4c4c41544552414c5f52455155495245440000000000000000815260200192915050565b6000614eab602183615af9565b7f536166654d6174683a206d756c7469706c69636174696f6e206f766572666c6f8152607760f81b602082015260400192915050565b6000614eee601d83615af9565b7f434f4c4c41544552414c5f4445504f53495445445f524543454e544c59000000815260200192915050565b6000614f27601a83615af9565b7f434f4c4c41544552414c5f414d4f554e545f544f4f5f48494748000000000000815260200192915050565b6000614f60601b83615af9565b7f544f4b454e535f5452414e534645525f46524f4d5f4641494c45440000000000815260200192915050565b6000614f99601283615af9565b711313d05397d511549354d7d156141254915160721b815260200192915050565b6000614fc7602e83615af9565b7f436f6e747261637420696e7374616e63652068617320616c726561647920626581526d195b881a5b9a5d1a585b1a5e995960921b602082015260400192915050565b6000615017601883615af9565b7f41544d5f4e4f545f464f554e445f464f525f4d41524b45540000000000000000815260200192915050565b6000615050601f83615af9565b7f494e565f42414c414e43455f41465445525f5452414e534645525f46524f4d00815260200192915050565b6000615089601383615af9565b7243414e4e4f545f4445504f5349545f5a45524f60681b815260200192915050565b60006150b8601e83615af9565b7f4f5241434c455f4d5553545f434f4e54524143545f4e4f545f454d5054590000815260200192915050565b60006150f1601783615af9565b7f424f52524f5745525f4d5553545f42455f53454e444552000000000000000000815260200192915050565b600061512a601683615af9565b7521a0a62622a92fa227a2a9a72a2fa7aba72fa627a0a760511b815260200192915050565b600061515c601983615af9565b7f4e4f545f454e4f5547485f544f4b454e535f42414c414e434500000000000000815260200192915050565b6000615195601883611012565b7f426173655570677261646561626c652e73657474696e67730000000000000000815260180192915050565b60006151ce601a83615af9565b7f535550504c595f544f5f444542545f455843454544535f4d4158000000000000815260200192915050565b6000615207601683615af9565b751513d2d15394d7d514905394d1915497d1905253115160521b815260200192915050565b6000615239601883615af9565b7f434f4e54524143545f4e4f545f494e495449414c495a45440000000000000000815260200192915050565b6000615272600c83615af9565b6b1313d05397d393d517d4d15560a21b815260200192915050565b600061529a601b83615af9565b7f4e4f545f454e4f5547485f544f4b454e535f414c4c4f57414e43450000000000815260200192915050565b60006152d3601f83615af9565b7f5265656e7472616e637947756172643a207265656e7472616e742063616c6c00815260200192915050565b600061530c601c83615af9565b7f434f4e54524143545f414c52454144595f494e495449414c495a454400000000815260200192915050565b6000615345601a83615af9565b7f494e565f42414c414e43455f41465445525f5452414e53464552000000000000815260200192915050565b805160808301906153828482614aff565b5060208201516153956020850182614aff565b5060408201516153a86040850182614aff565b506060820151610de76060850182614af6565b60e082016153c98280615b02565b6153d38482614a47565b506153e16020830183615b02565b6153ee6020850182614a47565b506153fc6040830183615b02565b6154096040850182614a47565b506154176060830183615b11565b6154246060850182614aff565b506154326080830183615b11565b61543f6080850182614aff565b5061544d60a0830183615b11565b61545a60a0850182614aff565b5061546860c0830183615b11565b610de760c0850182614aff565b61014082016154848280615b02565b61548e8482614a47565b5061549c6020830183615b02565b6154a96020850182614a47565b506154b76040830183615b11565b6154c46040850182614aff565b506154d26060830183615b11565b6154df6060850182614aff565b506154ed6080830183615b11565b6154fa6080850182614aff565b5061550860a0830183615b11565b61551560a0850182614aff565b5061552360c0830183614289565b610de760c08501826155a0565b805160c08301906155418482614a47565b5060208201516155546020850182614a47565b5060408201516155676040850182614aff565b50606082015161557a6060850182614aff565b50608082015161558d6080850182614aff565b5060a0820151610de760a0850182614aff565b608082016155ae8280615b11565b6155b88482614aff565b506155c66020830183615b20565b6155d36020850182615609565b506155e16040830183615b11565b6155ee6040850182614aff565b506155fc6060830183615b11565b610de76060850182614aff565b614a4181615b60565b60006128f382614b8b565b60006128f382615188565b602081016128f38284614a47565b602081016128f38284614a38565b606081016156528286614a38565b61565f6020830185614aff565b612f2d6040830184614aff565b6040810161567a8285614a47565b6137c06020830184614a47565b606081016156958286614a47565b61565f6020830185614a47565b604081016156b08285614a47565b6137c06020830184614aff565b602080825281016128f08184614aa8565b602081016128f38284614af6565b602081016128f38284614aff565b602081016128f38284614b08565b602080825281016128f08184614b1a565b6020808252810161100f81614b52565b6020808252810161100f81614bc4565b6020808252810161100f81614bf5565b6020808252810161100f81614c27565b6020808252810161100f81614c60565b6020808252810161100f81614c99565b6020808252810161100f81614cc6565b6020808252810161100f81614cff565b6020808252810161100f81614d31565b6020808252810161100f81614d6a565b6020808252810161100f81614da3565b6020808252810161100f81614dce565b6020808252810161100f81614e07565b6020808252810161100f81614e37565b6020808252810161100f81614e65565b6020808252810161100f81614e9e565b6020808252810161100f81614ee1565b6020808252810161100f81614f1a565b6020808252810161100f81614f53565b6020808252810161100f81614f8c565b6020808252810161100f81614fba565b6020808252810161100f8161500a565b6020808252810161100f81615043565b6020808252810161100f8161507c565b6020808252810161100f816150ab565b6020808252810161100f816150e4565b6020808252810161100f8161511d565b6020808252810161100f8161514f565b6020808252810161100f816151c1565b6020808252810161100f816151fa565b6020808252810161100f8161522c565b6020808252810161100f81615265565b6020808252810161100f8161528d565b6020808252810161100f816152c6565b6020808252810161100f816152ff565b6020808252810161100f81615338565b608081016128f38284615371565b610100810161596682866153bb565b81810360e0830152613b60818486614a50565b6040810161567a8285614aff565b604081016159958285614aff565b6137c06020830184614a38565b606081016159b08286614aff565b61565f6020830185614a38565b61022081016159cc828f614aff565b6159d9602083018e615530565b6159e660e083018d614aff565b6159f461010083018c614aff565b615a0261012083018b614aff565b615a1061014083018a614aff565b615a1e610160830189614aff565b615a2c610180830188614aff565b615a3a6101a0830187614aff565b615a486101c0830186614a47565b615a566101e0830185614b11565b615a64610200830184614af6565b9d9c50505050505050505050505050565b60a08101615a838288614aff565b615a906020830187614aff565b615a9d6040830186614aff565b615aaa6060830185614aff565b615ab76080830184614aff565b9695505050505050565b60405181810167ffffffffffffffff81118282101715615ae057600080fd5b604052919050565b60200190565b5190565b6101400190565b90815260200190565b60006128f0602084018461436a565b60006128f06020840184614422565b60006128f060208401846145ba565b600061100f82615b54565b151590565b600061100f82615b2f565b8061101281615bb2565b6001600160a01b031690565b60ff1690565b600061100f82615b3f565b600061100f82615b4a565b60005b83811015615b97578181015183820152602001615b7f565b83811115610de75750506000910152565b601f01601f191690565b600481106117f857fe5b615bc581615b2f565b81146117f857600080fd5b615bc581615b3a565b615bc581611384565b615bc581615b3f565b600481106117f857600080fd5b615bc581615b6056fea365627a7a72315820a78c30bae27e235bee6c0e19dbbfb89fa899331debba90bc6ddff1a5b5c3cf3b6c6578706572696d656e74616cf564736f6c63430005110040",
  "source": "pragma solidity 0.5.17;\npragma experimental ABIEncoderV2;\n\nimport \"../../base/TokenCollateralLoans.sol\";\n\ncontract TokenCollateralLoansMock is TokenCollateralLoans {\n    bool public mockTokenFunctions;\n\n    function setMockTokenFunctions(bool newMockTokenFunctions) external {\n        mockTokenFunctions = newMockTokenFunctions;\n    }\n\n    function setLoanIDCounter(uint256 newLoanIdCounter) external {\n        loanIDCounter = newLoanIdCounter;\n    }\n\n    function setBorrowerLoans(address borrower, uint256[] calldata loanIDs) external {\n        borrowerLoans[borrower] = loanIDs;\n    }\n\n    function setTotalCollateral(uint256 amount) external {\n        totalCollateral = amount;\n    }\n\n    function setLoan(\n        uint256 id,\n        TellerCommon.LoanTerms calldata loanTerms,\n        uint256 termsExpiry,\n        uint256 loanStartTime,\n        uint256 collateral,\n        uint256 lastCollateralIn,\n        uint256 principalOwed,\n        uint256 interestOwed,\n        uint256 borrowedAmount,\n        TellerCommon.LoanStatus status,\n        bool liquidated\n    ) external {\n        require(loanTerms.maxLoanAmount >= borrowedAmount, \"BORROWED_AMOUNT_EXCEEDS_MAX\");\n        totalCollateral += collateral;\n        loans[id] = TellerCommon.Loan({\n            id: id,\n            loanTerms: loanTerms,\n            termsExpiry: termsExpiry,\n            loanStartTime: loanStartTime,\n            collateral: collateral,\n            lastCollateralIn: lastCollateralIn,\n            principalOwed: principalOwed,\n            interestOwed: interestOwed,\n            borrowedAmount: borrowedAmount,\n            escrow: address(0x0),\n            status: status,\n            liquidated: liquidated\n        });\n    }\n\n    function _collateralTokenTransfer(address recipient, uint256 amount) internal {\n        if (!mockTokenFunctions) {\n            super._collateralTokenTransfer(recipient, amount);\n        }\n    }\n\n    function _collateralTokenTransferFrom(address from, uint256 amount) internal {\n        if (!mockTokenFunctions) {\n            super._collateralTokenTransferFrom(from, amount);\n        }\n    }\n}\n",
  "sourcePath": "/Users/guillesalazar/Repos/ZeroCollateral/smart-contracts-v1/contracts/mock/base/TokenCollateralLoansMock.sol",
  "compiler": {
    "name": "solc",
    "version": "0.5.17+commit.d19bba13.Emscripten.clang"
  },
  "schemaVersion": "3.2.3",
  "updatedAt": "2020-10-12T14:23:11.538Z",
  "devdoc": {
    "methods": {
      "cToken()": {
        "return": "Address of the cToken"
      },
      "canLiquidateLoan(uint256)": {
        "params": {
          "loanID": "The ID of the loan to check"
        },
        "return": "bool weather the loan can be liquidated"
      },
      "createLoanWithTerms((address,address,address,uint256,uint256,uint256,uint256),(address,address,uint256,uint256,uint256,uint256,(uint256,uint8,bytes32,bytes32))[],uint256)": {
        "params": {
          "collateralAmount": "Amount of collateral required for the loan",
          "request": "Struct of the protocol loan request",
          "responses": "List of structs of the protocol loan responses"
        }
      },
      "depositCollateral(address,uint256,uint256)": {
        "params": {
          "amount": "The amount to deposit as collateral.",
          "borrower": "The address of the loan borrower.",
          "loanID": "The ID of the loan the collateral is for"
        }
      },
      "getBorrowerLoans(address)": {
        "params": {
          "borrower": "The borrower's address"
        }
      },
      "getCollateralInfo(uint256)": {
        "params": {
          "loanID": "of the loan to get info for"
        },
        "return": "memory TellerCommon.LoanCollateralInfo Collateral information of the loan"
      },
      "getLiquidationInfo(uint256)": {
        "params": {
          "loanID": "loan id to get the info."
        },
        "return": "liquidationInfo get current liquidation info for the given loan id."
      },
      "getTotalOwed(uint256)": {
        "params": {
          "loanID": "The ID of the loan to be queried"
        },
        "return": "uint256 The total amount owed remaining"
      },
      "initialize(address,address,address,address,address)": {
        "params": {
          "collateralTokenAddress": "Contract address for the collateral token.",
          "lendingPoolAddress": "Contract address of the lending pool",
          "loanTermsConsensusAddress": "Contract adddress for loan term consensus",
          "priceOracleAddress": "Contract address of the price oracle",
          "settingsAddress": "Contract address for the configuration of the platform"
        }
      },
      "initialized()": {
        "return": "true if contract is initialized. Otherwise it returns false."
      },
      "isLoanSecured(uint256)": {
        "return": "bool value of it being secured or not."
      },
      "lendingToken()": {
        "return": "Address of the lending token"
      },
      "liquidateLoan(uint256)": {
        "params": {
          "loanID": "The ID of the loan to be liquidated"
        }
      },
      "repay(uint256,uint256)": {
        "params": {
          "amount": "The amount of tokens to pay back to the loan",
          "loanID": "The ID of the loan the payment is for"
        }
      },
      "setPriceOracle(address)": {
        "details": "It throws a require error if sender is not allowed.It throws a require error if new address is empty (0x0) or not a contract.",
        "params": {
          "newPriceOracle": "the new price oracle address."
        }
      },
      "settings()": {
        "details": "This address should NOT change over the time. See details in the _setSettings(...) function."
      },
      "tToken()": {
        "return": "Address of the tToken"
      },
      "takeOutLoan(uint256,uint256)": {
        "details": "collateral ratio is a percentage of the loan amount that's required in collateralthe percentage will be *(10**2). I.e. collateralRatio of 5244 means 52.44% collateralis required in the loan. Interest rate is also a percentage with 2 decimal points."
      },
      "withdrawCollateral(uint256,uint256)": {
        "params": {
          "amount": "The amount of collateral token or ether the caller is hoping to withdraw.",
          "loanID": "The ID of the loan the collateral is for"
        }
      }
    }
  },
  "userdoc": {
    "methods": {
      "cToken()": {
        "notice": "Returns the cToken in the lending pool"
      },
      "canLiquidateLoan(uint256)": {
        "notice": "A loan can be liquidated if it is: under collateralized or expired"
      },
      "createLoanWithTerms((address,address,address,uint256,uint256,uint256,uint256),(address,address,uint256,uint256,uint256,uint256,(uint256,uint8,bytes32,bytes32))[],uint256)": {
        "notice": "Creates a loan with the loan request and terms"
      },
      "depositCollateral(address,uint256,uint256)": {
        "notice": "Deposit collateral tokens into a loan."
      },
      "getBorrowerLoans(address)": {
        "notice": "Get a list of all loans for a borrower"
      },
      "getCollateralInfo(uint256)": {
        "notice": "Get collateral information of a specific loan"
      },
      "getLiquidationInfo(uint256)": {
        "notice": "It getss the current liquidation info for a given loan id."
      },
      "getTotalOwed(uint256)": {
        "notice": "Returns the total owed amount remaining for a specified loan"
      },
      "initialize(address,address,address,address,address)": {
        "notice": "Initializes the current contract instance setting the required parameters, if allowed"
      },
      "initialized()": {
        "notice": "Gets if the contract is initialized."
      },
      "isLoanSecured(uint256)": {
        "notice": "Checks wheather the loan's collateral ratio is considered to be secured based on the settings collateral buffer value."
      },
      "lendingToken()": {
        "notice": "Returns the lending token in the lending pool"
      },
      "liquidateLoan(uint256)": {
        "notice": "Liquidate a loan if it is expired or under collateralized"
      },
      "repay(uint256,uint256)": {
        "notice": "Make a payment to a loan"
      },
      "setPriceOracle(address)": {
        "notice": "Updates the current price oracle instance."
      },
      "settings()": {
        "notice": "The gets the settings contract address from the SETTINGS_SLOT."
      },
      "tToken()": {
        "notice": "Returns the tToken in the lending pool"
      },
      "takeOutLoan(uint256,uint256)": {
        "notice": "Take out a loan"
      },
      "withdrawCollateral(uint256,uint256)": {
        "notice": "Withdraw collateral from a loan, unless this isn't allowed"
      }
    }
  }
}