{
  "contractName": "TTokenRegistry",
  "abi": [
    {
      "anonymous": false,
      "inputs": [
        {
          "indexed": true,
          "internalType": "address",
          "name": "tToken",
          "type": "address"
        },
        {
          "indexed": true,
          "internalType": "address",
          "name": "sender",
          "type": "address"
        }
      ],
      "name": "TTokenRegistered",
      "type": "event"
    },
    {
      "constant": true,
      "inputs": [],
      "name": "initialized",
      "outputs": [
        {
          "internalType": "bool",
          "name": "value",
          "type": "bool"
        }
      ],
      "payable": false,
      "stateMutability": "view",
      "type": "function"
    },
    {
      "constant": true,
      "inputs": [],
      "name": "settings",
      "outputs": [
        {
          "internalType": "contract SettingsInterface",
          "name": "",
          "type": "address"
        }
      ],
      "payable": false,
      "stateMutability": "view",
      "type": "function"
    },
    {
      "constant": true,
      "inputs": [
        {
          "internalType": "address",
          "name": "",
          "type": "address"
        }
      ],
      "name": "tokenRegistry",
      "outputs": [
        {
          "internalType": "bool",
          "name": "",
          "type": "bool"
        }
      ],
      "payable": false,
      "stateMutability": "view",
      "type": "function"
    },
    {
      "constant": false,
      "inputs": [
        {
          "internalType": "address",
          "name": "tToken",
          "type": "address"
        }
      ],
      "name": "registerTToken",
      "outputs": [],
      "payable": false,
      "stateMutability": "nonpayable",
      "type": "function"
    },
    {
      "constant": true,
      "inputs": [
        {
          "internalType": "address",
          "name": "tokenAddress",
          "type": "address"
        }
      ],
      "name": "isTToken",
      "outputs": [
        {
          "internalType": "bool",
          "name": "",
          "type": "bool"
        }
      ],
      "payable": false,
      "stateMutability": "view",
      "type": "function"
    },
    {
      "constant": false,
      "inputs": [
        {
          "internalType": "address",
          "name": "settingsAddress",
          "type": "address"
        }
      ],
      "name": "initialize",
      "outputs": [],
      "payable": false,
      "stateMutability": "nonpayable",
      "type": "function"
    }
  ],
  "bytecode": "0x608060405234801561001057600080fd5b506105f6806100206000396000f3fe608060405234801561001057600080fd5b50600436106100625760003560e01c8063158ef93e14610067578063c4d66de814610083578063da066074146100ab578063e06174e4146100d1578063e0e12be8146100f5578063fdd075171461011b575b600080fd5b61006f610141565b604080519115158252519081900360200190f35b6100a96004803603602081101561009957600080fd5b50356001600160a01b0316610177565b005b6100a9600480360360208110156100c157600080fd5b50356001600160a01b0316610248565b6100d961031a565b604080516001600160a01b039092168252519081900360200190f35b61006f6004803603602081101561010b57600080fd5b50356001600160a01b031661034b565b61006f6004803603602081101561013157600080fd5b50356001600160a01b03166103c0565b604080517f54496e697469616c697a61626c652e6973496e697469616c697a6564000000008152905190819003601c0190205490565b61017f610141565b156101d1576040805162461bcd60e51b815260206004820152601c60248201527f434f4e54524143545f414c52454144595f494e495449414c495a454400000000604482015290519081900360640190fd5b6101e3816001600160a01b03166103d5565b610234576040805162461bcd60e51b815260206004820152601760248201527f53455454494e47535f4e4f545f415f434f4e5452414354000000000000000000604482015290519081900360640190fd5b61023c610411565b61024581610449565b50565b61025061031a565b6001600160a01b031663c095ea27336040518263ffffffff1660e01b815260040180826001600160a01b03166001600160a01b0316815260200191505060006040518083038186803b1580156102a557600080fd5b505afa1580156102b9573d6000803e3d6000fd5b505050506102c5610141565b610311576040805162461bcd60e51b815260206004820152601860248201527710d3d395149050d517d393d517d25392551250531256915160421b604482015290519081900360640190fd5b61024581610502565b6040805177426173655570677261646561626c652e73657474696e677360401b815290519081900360180190205490565b6000610355610141565b6103a1576040805162461bcd60e51b815260206004820152601860248201527710d3d395149050d517d393d517d25392551250531256915160421b604482015290519081900360640190fd5b506001600160a01b031660009081526020819052604090205460ff1690565b60006020819052908152604090205460ff1681565b6000813f7fc5d2460186f7233c927e7db2dcc703c0e500b653ca82273b7bfad8045d85a47081811480159061040957508115155b949350505050565b604080517f54496e697469616c697a61626c652e6973496e697469616c697a6564000000008152905190819003601c01902060019055565b61046261045461031a565b6001600160a01b03166105b3565b1561046c57610245565b61047e816001600160a01b03166103d5565b6104cf576040805162461bcd60e51b815260206004820152601b60248201527f53455454494e47535f4d5553545f42455f415f434f4e54524143540000000000604482015290519081900360640190fd5b6040805177426173655570677261646561626c652e73657474696e677360401b8152905190819003601801902081905550565b610514816001600160a01b03166103d5565b610565576040805162461bcd60e51b815260206004820152601860248201527f414444524553535f4d5553545f42455f434f4e54524143540000000000000000604482015290519081900360640190fd5b6001600160a01b038116600081815260208190526040808220805460ff19166001179055513392917f3ebb09f91e95d23c6bd2cfd71823d2235b13f4bb0ec49eb5fc47d23a45ab665c91a350565b6001600160a01b031615159056fea265627a7a72315820875c1aaf95f5f94a99a9c2127f8daa6de1dca5eb463a747ed00ca74d34036be664736f6c63430005110032",
  "source": "pragma solidity 0.5.17;\n\n// Contracts\nimport \"./BaseUpgradeable.sol\";\nimport \"./TInitializable.sol\";\n\n// Interfaces\nimport \"../interfaces/TTokenRegistryInterface.sol\";\n\n/*****************************************************************************************************/\n/**                                             WARNING                                             **/\n/**                                  THIS CONTRACT IS UPGRADEABLE!                                  **/\n/**  ---------------------------------------------------------------------------------------------  **/\n/**  Do NOT change the order of or PREPEND any storage variables to this or new versions of this    **/\n/**  contract as this will cause the the storage slots to be overwritten on the proxy contract!!    **/\n/**                                                                                                 **/\n/**  Visit https://docs.openzeppelin.com/upgrades/2.6/proxies#upgrading-via-the-proxy-pattern for   **/\n/**  more information.                                                                              **/\n/*****************************************************************************************************/\n/**\n    @notice It manages all the registred TToken contract address, mapping each one to a boolean.\n\n    @author develop@teller.finance\n */\ncontract TTokenRegistry is TTokenRegistryInterface, TInitializable, BaseUpgradeable {\n    /* State Variables */\n\n    /**\n        @notice It represents a mapping to identify they contract address of a given TToken\n\n        i.e.:\n            address(\"0x479...584\") => { True }.\n            address(\"0x132...741\") => { False }.\n     */\n    mapping(address => bool) public tokenRegistry;\n\n    /**\n        @notice It registers a new TToken contract address\n        @param tToken Contract address of the TToken\n     */\n    function registerTToken(address tToken) external onlyPauser() isInitialized() {\n        _registerTTokenAddress(tToken);\n    }\n\n    /**\n        @notice Checks if a given address is a registered TToken contract\n        @param tokenAddress The token contract address to check\n        @return bool representing if the address is a registered TToken contract\n     */\n    function isTToken(address tokenAddress) external view isInitialized() returns (bool) {\n        return (tokenRegistry[tokenAddress]);\n    }\n\n    /**\n        @notice It initializes this ttoken registry contract instance\n        @param settingsAddress The settings contract address\n     */\n    function initialize(address settingsAddress) external isNotInitialized() {\n        require(settingsAddress.isContract(), \"SETTINGS_NOT_A_CONTRACT\");\n        _initialize();\n        _setSettings(settingsAddress);\n    }\n\n    /** Internal functions */\n\n    /**\n        @notice It registers a new given TToken contract address\n        @param tToken Contract address of the TToken\n     */\n    function _registerTTokenAddress(address tToken) internal {\n        require(tToken.isContract(), \"ADDRESS_MUST_BE_CONTRACT\");\n        tokenRegistry[tToken] = true;\n\n        emit TTokenRegistered(tToken, msg.sender);\n    }\n}\n",
  "sourcePath": "/Users/guillesalazar/Repos/ZeroCollateral/smart-contracts-v1/contracts/base/TTokenRegistry.sol",
  "compiler": {
    "name": "solc",
    "version": "0.5.17+commit.d19bba13.Emscripten.clang"
  },
  "schemaVersion": "3.2.3",
  "updatedAt": "2020-10-12T16:12:27.631Z",
  "networkType": "ethereum",
  "devdoc": {
    "author": "develop@teller.finance",
    "methods": {
      "initialize(address)": {
        "params": {
          "settingsAddress": "The settings contract address"
        }
      },
      "initialized()": {
        "return": "true if contract is initialized. Otherwise it returns false."
      },
      "isTToken(address)": {
        "params": {
          "tokenAddress": "The token contract address to check"
        },
        "return": "bool representing if the address is a registered TToken contract"
      },
      "registerTToken(address)": {
        "params": {
          "tToken": "Contract address of the TToken"
        }
      },
      "settings()": {
        "details": "This address should NOT change over the time. See details in the _setSettings(...) function."
      }
    }
  },
  "userdoc": {
    "methods": {
      "initialize(address)": {
        "notice": "It initializes this ttoken registry contract instance"
      },
      "initialized()": {
        "notice": "Gets if the contract is initialized."
      },
      "isTToken(address)": {
        "notice": "Checks if a given address is a registered TToken contract"
      },
      "registerTToken(address)": {
        "notice": "It registers a new TToken contract address"
      },
      "settings()": {
        "notice": "The gets the settings contract address from the SETTINGS_SLOT."
      }
    },
    "notice": "It manages all the registred TToken contract address, mapping each one to a boolean."
  }
}