{
  "contractName": "TToken",
  "abi": [
    {
      "inputs": [
        {
          "internalType": "string",
          "name": "name",
          "type": "string"
        },
        {
          "internalType": "string",
          "name": "symbol",
          "type": "string"
        },
        {
          "internalType": "uint8",
          "name": "decimals",
          "type": "uint8"
        }
      ],
      "payable": false,
      "stateMutability": "nonpayable",
      "type": "constructor"
    },
    {
      "anonymous": false,
      "inputs": [
        {
          "indexed": true,
          "internalType": "address",
          "name": "owner",
          "type": "address"
        },
        {
          "indexed": true,
          "internalType": "address",
          "name": "spender",
          "type": "address"
        },
        {
          "indexed": false,
          "internalType": "uint256",
          "name": "value",
          "type": "uint256"
        }
      ],
      "name": "Approval",
      "type": "event"
    },
    {
      "anonymous": false,
      "inputs": [
        {
          "indexed": true,
          "internalType": "address",
          "name": "account",
          "type": "address"
        }
      ],
      "name": "MinterAdded",
      "type": "event"
    },
    {
      "anonymous": false,
      "inputs": [
        {
          "indexed": true,
          "internalType": "address",
          "name": "account",
          "type": "address"
        }
      ],
      "name": "MinterRemoved",
      "type": "event"
    },
    {
      "anonymous": false,
      "inputs": [
        {
          "indexed": true,
          "internalType": "address",
          "name": "from",
          "type": "address"
        },
        {
          "indexed": true,
          "internalType": "address",
          "name": "to",
          "type": "address"
        },
        {
          "indexed": false,
          "internalType": "uint256",
          "name": "value",
          "type": "uint256"
        }
      ],
      "name": "Transfer",
      "type": "event"
    },
    {
      "constant": false,
      "inputs": [
        {
          "internalType": "address",
          "name": "account",
          "type": "address"
        }
      ],
      "name": "addMinter",
      "outputs": [],
      "payable": false,
      "stateMutability": "nonpayable",
      "type": "function"
    },
    {
      "constant": true,
      "inputs": [
        {
          "internalType": "address",
          "name": "owner",
          "type": "address"
        },
        {
          "internalType": "address",
          "name": "spender",
          "type": "address"
        }
      ],
      "name": "allowance",
      "outputs": [
        {
          "internalType": "uint256",
          "name": "",
          "type": "uint256"
        }
      ],
      "payable": false,
      "stateMutability": "view",
      "type": "function"
    },
    {
      "constant": false,
      "inputs": [
        {
          "internalType": "address",
          "name": "spender",
          "type": "address"
        },
        {
          "internalType": "uint256",
          "name": "amount",
          "type": "uint256"
        }
      ],
      "name": "approve",
      "outputs": [
        {
          "internalType": "bool",
          "name": "",
          "type": "bool"
        }
      ],
      "payable": false,
      "stateMutability": "nonpayable",
      "type": "function"
    },
    {
      "constant": true,
      "inputs": [
        {
          "internalType": "address",
          "name": "account",
          "type": "address"
        }
      ],
      "name": "balanceOf",
      "outputs": [
        {
          "internalType": "uint256",
          "name": "",
          "type": "uint256"
        }
      ],
      "payable": false,
      "stateMutability": "view",
      "type": "function"
    },
    {
      "constant": true,
      "inputs": [],
      "name": "decimals",
      "outputs": [
        {
          "internalType": "uint8",
          "name": "",
          "type": "uint8"
        }
      ],
      "payable": false,
      "stateMutability": "view",
      "type": "function"
    },
    {
      "constant": false,
      "inputs": [
        {
          "internalType": "address",
          "name": "spender",
          "type": "address"
        },
        {
          "internalType": "uint256",
          "name": "subtractedValue",
          "type": "uint256"
        }
      ],
      "name": "decreaseAllowance",
      "outputs": [
        {
          "internalType": "bool",
          "name": "",
          "type": "bool"
        }
      ],
      "payable": false,
      "stateMutability": "nonpayable",
      "type": "function"
    },
    {
      "constant": false,
      "inputs": [
        {
          "internalType": "address",
          "name": "spender",
          "type": "address"
        },
        {
          "internalType": "uint256",
          "name": "addedValue",
          "type": "uint256"
        }
      ],
      "name": "increaseAllowance",
      "outputs": [
        {
          "internalType": "bool",
          "name": "",
          "type": "bool"
        }
      ],
      "payable": false,
      "stateMutability": "nonpayable",
      "type": "function"
    },
    {
      "constant": false,
      "inputs": [
        {
          "internalType": "string",
          "name": "name",
          "type": "string"
        },
        {
          "internalType": "string",
          "name": "symbol",
          "type": "string"
        },
        {
          "internalType": "uint8",
          "name": "decimals",
          "type": "uint8"
        }
      ],
      "name": "initialize",
      "outputs": [],
      "payable": false,
      "stateMutability": "nonpayable",
      "type": "function"
    },
    {
      "constant": false,
      "inputs": [
        {
          "internalType": "address",
          "name": "sender",
          "type": "address"
        }
      ],
      "name": "initialize",
      "outputs": [],
      "payable": false,
      "stateMutability": "nonpayable",
      "type": "function"
    },
    {
      "constant": true,
      "inputs": [
        {
          "internalType": "address",
          "name": "account",
          "type": "address"
        }
      ],
      "name": "isMinter",
      "outputs": [
        {
          "internalType": "bool",
          "name": "",
          "type": "bool"
        }
      ],
      "payable": false,
      "stateMutability": "view",
      "type": "function"
    },
    {
      "constant": false,
      "inputs": [
        {
          "internalType": "address",
          "name": "account",
          "type": "address"
        },
        {
          "internalType": "uint256",
          "name": "amount",
          "type": "uint256"
        }
      ],
      "name": "mint",
      "outputs": [
        {
          "internalType": "bool",
          "name": "",
          "type": "bool"
        }
      ],
      "payable": false,
      "stateMutability": "nonpayable",
      "type": "function"
    },
    {
      "constant": true,
      "inputs": [],
      "name": "name",
      "outputs": [
        {
          "internalType": "string",
          "name": "",
          "type": "string"
        }
      ],
      "payable": false,
      "stateMutability": "view",
      "type": "function"
    },
    {
      "constant": false,
      "inputs": [],
      "name": "renounceMinter",
      "outputs": [],
      "payable": false,
      "stateMutability": "nonpayable",
      "type": "function"
    },
    {
      "constant": true,
      "inputs": [],
      "name": "symbol",
      "outputs": [
        {
          "internalType": "string",
          "name": "",
          "type": "string"
        }
      ],
      "payable": false,
      "stateMutability": "view",
      "type": "function"
    },
    {
      "constant": true,
      "inputs": [],
      "name": "totalSupply",
      "outputs": [
        {
          "internalType": "uint256",
          "name": "",
          "type": "uint256"
        }
      ],
      "payable": false,
      "stateMutability": "view",
      "type": "function"
    },
    {
      "constant": false,
      "inputs": [
        {
          "internalType": "address",
          "name": "recipient",
          "type": "address"
        },
        {
          "internalType": "uint256",
          "name": "amount",
          "type": "uint256"
        }
      ],
      "name": "transfer",
      "outputs": [
        {
          "internalType": "bool",
          "name": "",
          "type": "bool"
        }
      ],
      "payable": false,
      "stateMutability": "nonpayable",
      "type": "function"
    },
    {
      "constant": false,
      "inputs": [
        {
          "internalType": "address",
          "name": "sender",
          "type": "address"
        },
        {
          "internalType": "address",
          "name": "recipient",
          "type": "address"
        },
        {
          "internalType": "uint256",
          "name": "amount",
          "type": "uint256"
        }
      ],
      "name": "transferFrom",
      "outputs": [
        {
          "internalType": "bool",
          "name": "",
          "type": "bool"
        }
      ],
      "payable": false,
      "stateMutability": "nonpayable",
      "type": "function"
    },
    {
      "constant": false,
      "inputs": [
        {
          "internalType": "address",
          "name": "account",
          "type": "address"
        },
        {
          "internalType": "uint256",
          "name": "amount",
          "type": "uint256"
        }
      ],
      "name": "burn",
      "outputs": [
        {
          "internalType": "bool",
          "name": "",
          "type": "bool"
        }
      ],
      "payable": false,
      "stateMutability": "nonpayable",
      "type": "function"
    }
  ],
  "bytecode": "0x60806040523480156200001157600080fd5b5060405162001c2e38038062001c2e833981810160405260608110156200003757600080fd5b81019080805160405193929190846401000000008211156200005857600080fd5b9083019060208201858111156200006e57600080fd5b82516401000000008111828201881017156200008957600080fd5b82525081516020918201929091019080838360005b83811015620000b85781810151838201526020016200009e565b50505050905090810190601f168015620000e65780820380516001836020036101000a031916815260200191505b50604052602001805160405193929190846401000000008211156200010a57600080fd5b9083019060208201858111156200012057600080fd5b82516401000000008111828201881017156200013b57600080fd5b82525081516020918201929091019080838360005b838110156200016a57818101518382015260200162000150565b50505050905090810190601f168015620001985780820380516001836020036101000a031916815260200191505b506040526020908101519250620001bf9150849084908490620005e0620001de821b17901c565b620001d533620002cf60201b620009d01760201c565b50505062000677565b600054610100900460ff1680620002035750620002036001600160e01b036200039916565b8062000212575060005460ff16155b6200024f5760405162461bcd60e51b815260040180806020018281038252602e81526020018062001c00602e913960400191505060405180910390fd5b600054610100900460ff161580156200027b576000805460ff1961ff0019909116610100171660011790555b835162000290906033906020870190620005d5565b508251620002a6906034906020860190620005d5565b506035805460ff191660ff84161790558015620002c9576000805461ff00191690555b50505050565b600054610100900460ff1680620002f45750620002f46001600160e01b036200039916565b8062000303575060005460ff16155b620003405760405162461bcd60e51b815260040180806020018281038252602e81526020018062001c00602e913960400191505060405180910390fd5b600054610100900460ff161580156200036c576000805460ff1961ff0019909116610100171660011790555b6200038282620003a060201b620010d81760201c565b801562000395576000805461ff00191690555b5050565b303b155b90565b600054610100900460ff1680620003c55750620003c56001600160e01b036200039916565b80620003d4575060005460ff16155b620004115760405162461bcd60e51b815260040180806020018281038252602e81526020018062001c00602e913960400191505060405180910390fd5b600054610100900460ff161580156200043d576000805460ff1961ff0019909116610100171660011790555b62000451826001600160e01b036200046a16565b620003825762000382826001600160e01b036200048d16565b60006200048782609d620004df60201b620010711790919060201c565b92915050565b620004a881609d6200054860201b6200117b1790919060201c565b6040516001600160a01b038216907f6ae172837ea30b801fbfcdd4108aa1d5bf8ff775444fd70256b44e6bf3dfc3f690600090a250565b60006001600160a01b038216620005285760405162461bcd60e51b815260040180806020018281038252602281526020018062001bde6022913960400191505060405180910390fd5b506001600160a01b03166000908152602091909152604090205460ff1690565b6200055d82826001600160e01b03620004df16565b15620005b0576040805162461bcd60e51b815260206004820152601f60248201527f526f6c65733a206163636f756e7420616c72656164792068617320726f6c6500604482015290519081900360640190fd5b6001600160a01b0316600090815260209190915260409020805460ff19166001179055565b828054600181600116156101000203166002900490600052602060002090601f016020900481019282601f106200061857805160ff191683800117855562000648565b8280016001018555821562000648579182015b82811115620006485782518255916020019190600101906200062b565b50620006569291506200065a565b5090565b6200039d91905b8082111562000656576000815560010162000661565b61155780620006876000396000f3fe608060405234801561001057600080fd5b50600436106101165760003560e01c806395d89b41116100a2578063a457c2d711610071578063a457c2d71461045a578063a9059cbb14610486578063aa271e1a146104b2578063c4d66de8146104d8578063dd62ed3e146104fe57610116565b806395d89b41146103f8578063983b2d561461040057806398650275146104265780639dc29fac1461042e57610116565b806323b872dd116100e957806323b872dd14610326578063313ce5671461035c578063395093511461037a57806340c10f19146103a657806370a08231146103d257610116565b806306fdde031461011b578063095ea7b3146101985780631624f6c6146101d857806318160ddd1461030c575b600080fd5b61012361052c565b6040805160208082528351818301528351919283929083019185019080838360005b8381101561015d578181015183820152602001610145565b50505050905090810190601f16801561018a5780820380516001836020036101000a031916815260200191505b509250505060405180910390f35b6101c4600480360360408110156101ae57600080fd5b506001600160a01b0381351690602001356105c3565b604080519115158252519081900360200190f35b61030a600480360360608110156101ee57600080fd5b81019060208101813564010000000081111561020957600080fd5b82018360208201111561021b57600080fd5b8035906020019184600183028401116401000000008311171561023d57600080fd5b91908080601f016020809104026020016040519081016040528093929190818152602001838380828437600092019190915250929594936020810193503591505064010000000081111561029057600080fd5b8201836020820111156102a257600080fd5b803590602001918460018302840111640100000000831117156102c457600080fd5b91908080601f0160208091040260200160405190810160405280939291908181526020018383808284376000920191909152509295505050903560ff1691506105e09050565b005b6103146106bc565b60408051918252519081900360200190f35b6101c46004803603606081101561033c57600080fd5b506001600160a01b038135811691602081013590911690604001356106c2565b61036461074f565b6040805160ff9092168252519081900360200190f35b6101c46004803603604081101561039057600080fd5b506001600160a01b038135169060200135610758565b6101c4600480360360408110156103bc57600080fd5b506001600160a01b0381351690602001356107ac565b610314600480360360208110156103e857600080fd5b50356001600160a01b0316610803565b61012361081e565b61030a6004803603602081101561041657600080fd5b50356001600160a01b031661087f565b61030a6108d1565b6101c46004803603604081101561044457600080fd5b506001600160a01b0381351690602001356108e3565b6101c46004803603604081101561047057600080fd5b506001600160a01b038135169060200135610935565b6101c46004803603604081101561049c57600080fd5b506001600160a01b0381351690602001356109a3565b6101c4600480360360208110156104c857600080fd5b50356001600160a01b03166109b7565b61030a600480360360208110156104ee57600080fd5b50356001600160a01b03166109d0565b6103146004803603604081101561051457600080fd5b506001600160a01b0381358116916020013516610a7c565b60338054604080516020601f60026000196101006001881615020190951694909404938401819004810282018101909252828152606093909290918301828280156105b85780601f1061058d576101008083540402835291602001916105b8565b820191906000526020600020905b81548152906001019060200180831161059b57829003601f168201915b505050505090505b90565b60006105d76105d0610aa7565b8484610aab565b50600192915050565b600054610100900460ff16806105f957506105f9610b97565b80610607575060005460ff16155b6106425760405162461bcd60e51b815260040180806020018281038252602e815260200180611466602e913960400191505060405180910390fd5b600054610100900460ff1615801561066d576000805460ff1961ff0019909116610100171660011790555b83516106809060339060208701906112a5565b5082516106949060349060208601906112a5565b506035805460ff191660ff841617905580156106b6576000805461ff00191690555b50505050565b606a5490565b60006106cf848484610b9d565b610745846106db610aa7565b6107408560405180606001604052806028815260200161141c602891396001600160a01b038a16600090815260696020526040812090610719610aa7565b6001600160a01b03168152602081019190915260400160002054919063ffffffff610cfb16565b610aab565b5060019392505050565b60355460ff1690565b60006105d7610765610aa7565b846107408560696000610776610aa7565b6001600160a01b03908116825260208083019390935260409182016000908120918c16815292529020549063ffffffff610d9216565b60006107be6107b9610aa7565b6109b7565b6107f95760405162461bcd60e51b81526004018080602001828103825260308152602001806113cb6030913960400191505060405180910390fd5b6105d78383610df3565b6001600160a01b031660009081526068602052604090205490565b60348054604080516020601f60026000196101006001881615020190951694909404938401819004810282018101909252828152606093909290918301828280156105b85780601f1061058d576101008083540402835291602001916105b8565b61088a6107b9610aa7565b6108c55760405162461bcd60e51b81526004018080602001828103825260308152602001806113cb6030913960400191505060405180910390fd5b6108ce81610ee5565b50565b6108e16108dc610aa7565b610f2d565b565b60006108f06107b9610aa7565b61092b5760405162461bcd60e51b81526004018080602001828103825260308152602001806113cb6030913960400191505060405180910390fd5b6105d78383610f75565b60006105d7610942610aa7565b84610740856040518060600160405280602581526020016114fe602591396069600061096c610aa7565b6001600160a01b03908116825260208083019390935260409182016000908120918d1681529252902054919063ffffffff610cfb16565b60006105d76109b0610aa7565b8484610b9d565b60006109ca609d8363ffffffff61107116565b92915050565b600054610100900460ff16806109e957506109e9610b97565b806109f7575060005460ff16155b610a325760405162461bcd60e51b815260040180806020018281038252602e815260200180611466602e913960400191505060405180910390fd5b600054610100900460ff16158015610a5d576000805460ff1961ff0019909116610100171660011790555b610a66826110d8565b8015610a78576000805461ff00191690555b5050565b6001600160a01b03918216600090815260696020908152604080832093909416825291909152205490565b3390565b6001600160a01b038316610af05760405162461bcd60e51b81526004018080602001828103825260248152602001806114da6024913960400191505060405180910390fd5b6001600160a01b038216610b355760405162461bcd60e51b81526004018080602001828103825260228152602001806113836022913960400191505060405180910390fd5b6001600160a01b03808416600081815260696020908152604080832094871680845294825291829020859055815185815291517f8c5be1e5ebec7d5bd14f71427d1e84f3dd0314c0f7b2291e5b200ac8c7c3b9259281900390910190a3505050565b303b1590565b6001600160a01b038316610be25760405162461bcd60e51b81526004018080602001828103825260258152602001806114b56025913960400191505060405180910390fd5b6001600160a01b038216610c275760405162461bcd60e51b815260040180806020018281038252602381526020018061133e6023913960400191505060405180910390fd5b610c6a816040518060600160405280602681526020016113a5602691396001600160a01b038616600090815260686020526040902054919063ffffffff610cfb16565b6001600160a01b038085166000908152606860205260408082209390935590841681522054610c9f908263ffffffff610d9216565b6001600160a01b0380841660008181526068602090815260409182902094909455805185815290519193928716927fddf252ad1be2c89b69c2b068fc378daa952ba7f163c4a11628f55a4df523b3ef92918290030190a3505050565b60008184841115610d8a5760405162461bcd60e51b81526004018080602001828103825283818151815260200191508051906020019080838360005b83811015610d4f578181015183820152602001610d37565b50505050905090810190601f168015610d7c5780820380516001836020036101000a031916815260200191505b509250505060405180910390fd5b505050900390565b600082820183811015610dec576040805162461bcd60e51b815260206004820152601b60248201527f536166654d6174683a206164646974696f6e206f766572666c6f770000000000604482015290519081900360640190fd5b9392505050565b6001600160a01b038216610e4e576040805162461bcd60e51b815260206004820152601f60248201527f45524332303a206d696e7420746f20746865207a65726f206164647265737300604482015290519081900360640190fd5b606a54610e61908263ffffffff610d9216565b606a556001600160a01b038216600090815260686020526040902054610e8d908263ffffffff610d9216565b6001600160a01b03831660008181526068602090815260408083209490945583518581529351929391927fddf252ad1be2c89b69c2b068fc378daa952ba7f163c4a11628f55a4df523b3ef9281900390910190a35050565b610ef6609d8263ffffffff61117b16565b6040516001600160a01b038216907f6ae172837ea30b801fbfcdd4108aa1d5bf8ff775444fd70256b44e6bf3dfc3f690600090a250565b610f3e609d8263ffffffff6111fc16565b6040516001600160a01b038216907fe94479a9f7e1952cc78f2d6baab678adc1b772d936c6583def489e524cb6669290600090a250565b6001600160a01b038216610fba5760405162461bcd60e51b81526004018080602001828103825260218152602001806114946021913960400191505060405180910390fd5b610ffd81604051806060016040528060228152602001611361602291396001600160a01b038516600090815260686020526040902054919063ffffffff610cfb16565b6001600160a01b038316600090815260686020526040902055606a54611029908263ffffffff61126316565b606a556040805182815290516000916001600160a01b038516917fddf252ad1be2c89b69c2b068fc378daa952ba7f163c4a11628f55a4df523b3ef9181900360200190a35050565b60006001600160a01b0382166110b85760405162461bcd60e51b81526004018080602001828103825260228152602001806114446022913960400191505060405180910390fd5b506001600160a01b03166000908152602091909152604090205460ff1690565b600054610100900460ff16806110f157506110f1610b97565b806110ff575060005460ff16155b61113a5760405162461bcd60e51b815260040180806020018281038252602e815260200180611466602e913960400191505060405180910390fd5b600054610100900460ff16158015611165576000805460ff1961ff0019909116610100171660011790555b61116e826109b7565b610a6657610a6682610ee5565b6111858282611071565b156111d7576040805162461bcd60e51b815260206004820152601f60248201527f526f6c65733a206163636f756e7420616c72656164792068617320726f6c6500604482015290519081900360640190fd5b6001600160a01b0316600090815260209190915260409020805460ff19166001179055565b6112068282611071565b6112415760405162461bcd60e51b81526004018080602001828103825260218152602001806113fb6021913960400191505060405180910390fd5b6001600160a01b0316600090815260209190915260409020805460ff19169055565b6000610dec83836040518060400160405280601e81526020017f536166654d6174683a207375627472616374696f6e206f766572666c6f770000815250610cfb565b828054600181600116156101000203166002900490600052602060002090601f016020900481019282601f106112e657805160ff1916838001178555611313565b82800160010185558215611313579182015b828111156113135782518255916020019190600101906112f8565b5061131f929150611323565b5090565b6105c091905b8082111561131f576000815560010161132956fe45524332303a207472616e7366657220746f20746865207a65726f206164647265737345524332303a206275726e20616d6f756e7420657863656564732062616c616e636545524332303a20617070726f766520746f20746865207a65726f206164647265737345524332303a207472616e7366657220616d6f756e7420657863656564732062616c616e63654d696e746572526f6c653a2063616c6c657220646f6573206e6f74206861766520746865204d696e74657220726f6c65526f6c65733a206163636f756e7420646f6573206e6f74206861766520726f6c6545524332303a207472616e7366657220616d6f756e74206578636565647320616c6c6f77616e6365526f6c65733a206163636f756e7420697320746865207a65726f2061646472657373436f6e747261637420696e7374616e63652068617320616c7265616479206265656e20696e697469616c697a656445524332303a206275726e2066726f6d20746865207a65726f206164647265737345524332303a207472616e736665722066726f6d20746865207a65726f206164647265737345524332303a20617070726f76652066726f6d20746865207a65726f206164647265737345524332303a2064656372656173656420616c6c6f77616e63652062656c6f77207a65726fa265627a7a72315820c0ab85df581336899d389ff425e0feebc2aed6d9e3739e00af583d076a727c1064736f6c63430005110032526f6c65733a206163636f756e7420697320746865207a65726f2061646472657373436f6e747261637420696e7374616e63652068617320616c7265616479206265656e20696e697469616c697a6564",
  "source": "pragma solidity 0.5.17;\n\nimport \"@openzeppelin/contracts-ethereum-package/contracts/token/ERC20/ERC20Detailed.sol\";\nimport \"@openzeppelin/contracts-ethereum-package/contracts/token/ERC20/ERC20Mintable.sol\";\nimport \"../interfaces/TTokenInterface.sol\";\n\n/**\n * @notice This contract represents a wrapped token within the Teller protocol\n *\n * @author develop@teller.finance\n */\ncontract TToken is TTokenInterface, ERC20Detailed, ERC20Mintable {\n    /* Constructor */\n    /**\n     * @param name The name of the token\n     * @param symbol The symbol of the token\n     * @param decimals The amount of decimals for the token\n     */\n    constructor(\n        string memory name,\n        string memory symbol,\n        uint8 decimals\n    ) public {\n        ERC20Detailed.initialize(name, symbol, decimals);\n        ERC20Mintable.initialize(msg.sender);\n    }\n\n    /* Public Functions */\n    /**\n     * @notice Reduce account supply of specified token amount\n     * @param account The account to burn tokens from\n     * @param amount The amount of tokens to burn\n     * @return true if successful\n     */\n    function burn(address account, uint256 amount) public onlyMinter returns (bool) {\n        _burn(account, amount);\n        return true;\n    }\n}\n",
  "sourcePath": "/Users/guillesalazar/Repos/ZeroCollateral/smart-contracts-v1/contracts/base/TToken.sol",
  "compiler": {
    "name": "solc",
    "version": "0.5.17+commit.d19bba13.Emscripten.clang"
  },
  "schemaVersion": "3.2.3",
  "updatedAt": "2020-10-12T14:23:11.476Z",
  "devdoc": {
    "author": "develop@teller.finance",
    "methods": {
      "allowance(address,address)": {
        "details": "See {IERC20-allowance}."
      },
      "approve(address,uint256)": {
        "details": "See {IERC20-approve}.     * Requirements:     * - `spender` cannot be the zero address."
      },
      "balanceOf(address)": {
        "details": "See {IERC20-balanceOf}."
      },
      "burn(address,uint256)": {
        "params": {
          "account": "The account to burn tokens from",
          "amount": "The amount of tokens to burn"
        },
        "return": "true if successful"
      },
      "constructor": {
        "params": {
          "decimals": "The amount of decimals for the token",
          "name": "The name of the token",
          "symbol": "The symbol of the token"
        }
      },
      "decimals()": {
        "details": "Returns the number of decimals used to get its user representation. For example, if `decimals` equals `2`, a balance of `505` tokens should be displayed to a user as `5,05` (`505 / 10 ** 2`).     * Tokens usually opt for a value of 18, imitating the relationship between Ether and Wei.     * NOTE: This information is only used for _display_ purposes: it in no way affects any of the arithmetic of the contract, including {IERC20-balanceOf} and {IERC20-transfer}."
      },
      "decreaseAllowance(address,uint256)": {
        "details": "Atomically decreases the allowance granted to `spender` by the caller.     * This is an alternative to {approve} that can be used as a mitigation for problems described in {IERC20-approve}.     * Emits an {Approval} event indicating the updated allowance.     * Requirements:     * - `spender` cannot be the zero address. - `spender` must have allowance for the caller of at least `subtractedValue`."
      },
      "increaseAllowance(address,uint256)": {
        "details": "Atomically increases the allowance granted to `spender` by the caller.     * This is an alternative to {approve} that can be used as a mitigation for problems described in {IERC20-approve}.     * Emits an {Approval} event indicating the updated allowance.     * Requirements:     * - `spender` cannot be the zero address."
      },
      "initialize(string,string,uint8)": {
        "details": "Sets the values for `name`, `symbol`, and `decimals`. All three of these values are immutable: they can only be set once during construction."
      },
      "mint(address,uint256)": {
        "details": "See {ERC20-_mint}.     * Requirements:     * - the caller must have the {MinterRole}."
      },
      "name()": {
        "details": "Returns the name of the token."
      },
      "symbol()": {
        "details": "Returns the symbol of the token, usually a shorter version of the name."
      },
      "totalSupply()": {
        "details": "See {IERC20-totalSupply}."
      },
      "transfer(address,uint256)": {
        "details": "See {IERC20-transfer}.     * Requirements:     * - `recipient` cannot be the zero address. - the caller must have a balance of at least `amount`."
      },
      "transferFrom(address,address,uint256)": {
        "details": "See {IERC20-transferFrom}.     * Emits an {Approval} event indicating the updated allowance. This is not required by the EIP. See the note at the beginning of {ERC20};     * Requirements: - `sender` and `recipient` cannot be the zero address. - `sender` must have a balance of at least `amount`. - the caller must have allowance for `sender`'s tokens of at least `amount`."
      }
    }
  },
  "userdoc": {
    "methods": {
      "burn(address,uint256)": {
        "notice": "Reduce account supply of specified token amount"
      }
    },
    "notice": "This contract represents a wrapped token within the Teller protocol"
  }
}