{
  "contractName": "UniswapMock",
  "abi": [
    {
      "inputs": [],
      "payable": false,
      "stateMutability": "nonpayable",
      "type": "constructor"
    },
    {
      "anonymous": false,
      "inputs": [
        {
          "indexed": true,
          "internalType": "address",
          "name": "previousOwner",
          "type": "address"
        },
        {
          "indexed": true,
          "internalType": "address",
          "name": "newOwner",
          "type": "address"
        }
      ],
      "name": "OwnershipTransferred",
      "type": "event"
    },
    {
      "anonymous": false,
      "inputs": [
        {
          "indexed": true,
          "internalType": "address",
          "name": "from",
          "type": "address"
        },
        {
          "indexed": true,
          "internalType": "address",
          "name": "to",
          "type": "address"
        },
        {
          "indexed": true,
          "internalType": "address",
          "name": "sourceElement",
          "type": "address"
        },
        {
          "indexed": false,
          "internalType": "address",
          "name": "receivedElement",
          "type": "address"
        },
        {
          "indexed": false,
          "internalType": "uint256",
          "name": "sourceAmount",
          "type": "uint256"
        },
        {
          "indexed": false,
          "internalType": "uint256",
          "name": "receivedAmount",
          "type": "uint256"
        }
      ],
      "name": "UniswapSwapped",
      "type": "event"
    },
    {
      "payable": true,
      "stateMutability": "payable",
      "type": "fallback"
    },
    {
      "constant": true,
      "inputs": [
        {
          "internalType": "address",
          "name": "cTokenAddress",
          "type": "address"
        }
      ],
      "name": "balanceOf",
      "outputs": [
        {
          "internalType": "uint256",
          "name": "",
          "type": "uint256"
        }
      ],
      "payable": false,
      "stateMutability": "view",
      "type": "function"
    },
    {
      "constant": true,
      "inputs": [
        {
          "internalType": "address",
          "name": "tokenAddress",
          "type": "address"
        }
      ],
      "name": "findTokenIndex",
      "outputs": [
        {
          "internalType": "int256",
          "name": "",
          "type": "int256"
        }
      ],
      "payable": false,
      "stateMutability": "view",
      "type": "function"
    },
    {
      "constant": true,
      "inputs": [],
      "name": "getTokens",
      "outputs": [
        {
          "internalType": "address[]",
          "name": "",
          "type": "address[]"
        }
      ],
      "payable": false,
      "stateMutability": "view",
      "type": "function"
    },
    {
      "constant": false,
      "inputs": [
        {
          "internalType": "address",
          "name": "sender",
          "type": "address"
        }
      ],
      "name": "initialize",
      "outputs": [],
      "payable": false,
      "stateMutability": "nonpayable",
      "type": "function"
    },
    {
      "constant": true,
      "inputs": [],
      "name": "isOwner",
      "outputs": [
        {
          "internalType": "bool",
          "name": "",
          "type": "bool"
        }
      ],
      "payable": false,
      "stateMutability": "view",
      "type": "function"
    },
    {
      "constant": true,
      "inputs": [],
      "name": "owner",
      "outputs": [
        {
          "internalType": "address",
          "name": "",
          "type": "address"
        }
      ],
      "payable": false,
      "stateMutability": "view",
      "type": "function"
    },
    {
      "constant": false,
      "inputs": [],
      "name": "renounceOwnership",
      "outputs": [],
      "payable": false,
      "stateMutability": "nonpayable",
      "type": "function"
    },
    {
      "constant": false,
      "inputs": [
        {
          "internalType": "address",
          "name": "canonicalWeth",
          "type": "address"
        },
        {
          "internalType": "address",
          "name": "routerAddress",
          "type": "address"
        },
        {
          "internalType": "address[]",
          "name": "path",
          "type": "address[]"
        },
        {
          "internalType": "uint256",
          "name": "sourceAmount",
          "type": "uint256"
        },
        {
          "internalType": "uint256",
          "name": "minDestination",
          "type": "uint256"
        }
      ],
      "name": "swap",
      "outputs": [],
      "payable": false,
      "stateMutability": "nonpayable",
      "type": "function"
    },
    {
      "constant": true,
      "inputs": [
        {
          "internalType": "bool",
          "name": "failTransaction",
          "type": "bool"
        }
      ],
      "name": "testFunction",
      "outputs": [],
      "payable": false,
      "stateMutability": "pure",
      "type": "function"
    },
    {
      "constant": false,
      "inputs": [
        {
          "internalType": "address",
          "name": "newOwner",
          "type": "address"
        }
      ],
      "name": "transferOwnership",
      "outputs": [],
      "payable": false,
      "stateMutability": "nonpayable",
      "type": "function"
    }
  ],
  "bytecode": "0x60806040523480156200001157600080fd5b5062000028336200002e60201b62000de71760201c565b62000137565b600054610100900460ff1680620000535750620000536001600160e01b036200013116565b8062000062575060005460ff16155b6200009f5760405162461bcd60e51b815260040180806020018281038252602e81526020018062001788602e913960400191505060405180910390fd5b600054610100900460ff16158015620000cb576000805460ff1961ff0019909116610100171660011790555b603380546001600160a01b0319166001600160a01b0384811691909117918290556040519116906000907f8be0079c531659141344cd1fd0a4f28419497f9722a3daafe3b4186f6b6457e0908290a380156200012d576000805461ff00191690555b5050565b303b1590565b61164180620001476000396000f3fe6080604052600436106100915760003560e01c80638da5cb5b116100595780638da5cb5b1461021a5780638f32d59b1461024b578063aa6ca80814610274578063c4d66de8146102d9578063f2fde38b1461030c57610091565b80630a11fd07146100935780630fe6d57c146100d857806370a08231146101a6578063715018a6146101d95780637216a096146101ee575b005b34801561009f57600080fd5b506100c6600480360360208110156100b657600080fd5b50356001600160a01b031661033f565b60408051918252519081900360200190f35b3480156100e457600080fd5b50610091600480360360a08110156100fb57600080fd5b6001600160a01b03823581169260208101359091169181019060608101604082013564010000000081111561012f57600080fd5b82018360208201111561014157600080fd5b8035906020019184602083028401116401000000008311171561016357600080fd5b919080806020026020016040519081016040528093929190818152602001838360200280828437600092019190915250929550508235935050506020013561036f565b3480156101b257600080fd5b506100c6600480360360208110156101c957600080fd5b50356001600160a01b0316610c4e565b3480156101e557600080fd5b50610091610c5f565b3480156101fa57600080fd5b506100916004803603602081101561021157600080fd5b50351515610d02565b34801561022657600080fd5b5061022f610d4f565b604080516001600160a01b039092168252519081900360200190f35b34801561025757600080fd5b50610260610d5f565b604080519115158252519081900360200190f35b34801561028057600080fd5b50610289610d85565b60408051602080825283518183015283519192839290830191858101910280838360005b838110156102c55781810151838201526020016102ad565b505050509050019250505060405180910390f35b3480156102e557600080fd5b50610091600480360360208110156102fc57600080fd5b50356001600160a01b0316610de7565b34801561031857600080fd5b506100916004803603602081101561032f57600080fd5b50356001600160a01b0316610ed9565b6000808061035460668563ffffffff610f3b16565b915091508161036557600019610367565b805b949350505050565b610377610d5f565b6103c8576040805162461bcd60e51b815260206004820181905260248201527f4f776e61626c653a2063616c6c6572206973206e6f7420746865206f776e6572604482015290519081900360640190fd5b6103da856001600160a01b0316610f90565b61042b576040805162461bcd60e51b815260206004820152601f60248201527f43414e4f4e4943414c5f574554485f4d5553545f42455f434f4e545241435400604482015290519081900360640190fd5b61043d846001600160a01b0316610f90565b61048e576040805162461bcd60e51b815260206004820152601960248201527f524f555445525f4d5553545f42455f415f434f4e545241435400000000000000604482015290519081900360640190fd5b82518490600211156104e0576040805162461bcd60e51b815260206004820152601660248201527515539254d5d05417d410551217d513d3d7d4d213d49560521b604482015290519081900360640190fd5b6000846000815181106104ef57fe5b6020026020010151905060008560018751038151811061050b57fe5b60200260200101519050610549816040518060600160405280602381526020016115bc602391396001600160a01b038516919063ffffffff610fc916565b6000841161059e576040805162461bcd60e51b815260206004820152601c60248201527f554e49535741505f4d494e5f44455354494e4154494f4e5f5a45524f00000000604482015290519081900360640190fd5b606060006105ab83611063565b9050896001600160a01b0316846001600160a01b0316141561079b578647101561061c576040805162461bcd60e51b815260206004820152601860248201527f554e49535741505f494e53554646494349454e545f4554480000000000000000604482015290519081900360640190fd5b846001600160a01b0316637ff36ab588888b30426040518663ffffffff1660e01b81526004018085815260200180602001846001600160a01b03166001600160a01b03168152602001838152602001828103825285818151815260200191508051906020019060200280838360005b838110156106a357818101518382015260200161068b565b50505050905001955050505050506000604051808303818588803b1580156106ca57600080fd5b505af11580156106de573d6000803e3d6000fd5b50505050506040513d6000823e601f3d908101601f19168201604052602081101561070857600080fd5b810190808051604051939291908464010000000082111561072857600080fd5b90830190602082018581111561073d57600080fd5b825186602082028301116401000000008211171561075a57600080fd5b82525081516020918201928201910280838360005b8381101561078757818101518382015260200161076f565b505050509050016040525050509150610b0d565b866107a585611063565b10156107f8576040805162461bcd60e51b815260206004820152601b60248201527f554e49535741505f494e53554646494349454e545f544f4b454e530000000000604482015290519081900360640190fd5b836001600160a01b031663095ea7b38a896040518363ffffffff1660e01b815260040180836001600160a01b03166001600160a01b0316815260200182815260200192505050602060405180830381600087803b15801561085857600080fd5b505af115801561086c573d6000803e3d6000fd5b505050506040513d602081101561088257600080fd5b50506001600160a01b03838116908b16141561098b57846001600160a01b03166318cbafe588888b30426040518663ffffffff1660e01b81526004018086815260200185815260200180602001846001600160a01b03166001600160a01b03168152602001838152602001828103825285818151815260200191508051906020019060200280838360005b8381101561092557818101518382015260200161090d565b505050509050019650505050505050600060405180830381600087803b15801561094e57600080fd5b505af1158015610962573d6000803e3d6000fd5b505050506040513d6000823e601f3d908101601f19168201604052602081101561070857600080fd5b846001600160a01b03166338ed173988888b30426040518663ffffffff1660e01b81526004018086815260200185815260200180602001846001600160a01b03166001600160a01b03168152602001838152602001828103825285818151815260200191508051906020019060200280838360005b83811015610a18578181015183820152602001610a00565b505050509050019650505050505050600060405180830381600087803b158015610a4157600080fd5b505af1158015610a55573d6000803e3d6000fd5b505050506040513d6000823e601f3d908101601f191682016040526020811015610a7e57600080fd5b8101908080516040519392919084640100000000821115610a9e57600080fd5b908301906020820185811115610ab357600080fd5b8251866020820283011164010000000082111715610ad057600080fd5b82525081516020918201928201910280838360005b83811015610afd578181015183820152602001610ae5565b5050505090500160405250505091505b6000610b1884611063565b9050868201811015610b71576040805162461bcd60e51b815260206004820152601d60248201527f554e49535741505f42414c414e43455f4e4f545f494e43524541534544000000604482015290519081900360640190fd5b8851835114610bc0576040805162461bcd60e51b8152602060048201526016602482015275554e49535741505f4552524f525f5357415050494e4760501b604482015290519081900360640190fd5b600083600185510381518110610bd257fe5b60200260200101519050610be5866110df565b610bee856110df565b604080516001600160a01b038781168252602082018c9052818301849052915191881691309133917fe583dc6e14f16809fc9c729fa4a864f989d693022d62e79275fc497251201c669181900360600190a4505050505050505050505050565b6000610c5982611063565b92915050565b610c67610d5f565b610cb8576040805162461bcd60e51b815260206004820181905260248201527f4f776e61626c653a2063616c6c6572206973206e6f7420746865206f776e6572604482015290519081900360640190fd5b6033546040516000916001600160a01b0316907f8be0079c531659141344cd1fd0a4f28419497f9722a3daafe3b4186f6b6457e0908390a3603380546001600160a01b0319169055565b8015610d4c576040805162461bcd60e51b8152602060048201526014602482015273151154d517d1955390d51253d397d1905253115160621b604482015290519081900360640190fd5b50565b6033546001600160a01b03165b90565b6033546000906001600160a01b0316610d76611141565b6001600160a01b031614905090565b60606066805480602002602001604051908101604052809291908181526020018280548015610ddd57602002820191906000526020600020905b81546001600160a01b03168152600190910190602001808311610dbf575b5050505050905090565b600054610100900460ff1680610e005750610e00611145565b80610e0e575060005460ff16155b610e495760405162461bcd60e51b815260040180806020018281038252602e8152602001806115df602e913960400191505060405180910390fd5b600054610100900460ff16158015610e74576000805460ff1961ff0019909116610100171660011790555b603380546001600160a01b0319166001600160a01b0384811691909117918290556040519116906000907f8be0079c531659141344cd1fd0a4f28419497f9722a3daafe3b4186f6b6457e0908290a38015610ed5576000805461ff00191690555b5050565b610ee1610d5f565b610f32576040805162461bcd60e51b815260206004820181905260248201527f4f776e61626c653a2063616c6c6572206973206e6f7420746865206f776e6572604482015290519081900360640190fd5b610d4c8161114b565b6000805b8354811015610f8957826001600160a01b0316848281548110610f5e57fe5b6000918252602090912001546001600160a01b03161491508115610f8157610f89565b600101610f3f565b9250929050565b6000813f7fc5d2460186f7233c927e7db2dcc703c0e500b653ca82273b7bfad8045d85a470818114801590610367575050151592915050565b610fd383836111ec565b819061105d5760405162461bcd60e51b81526004018080602001828103825283818151815260200191508051906020019080838360005b8381101561102257818101518382015260200161100a565b50505050905090810190601f16801561104f5780820380516001836020036101000a031916815260200191505b509250505060405180910390fd5b50505050565b604080516370a0823160e01b815230600482015290516000916001600160a01b038416916370a0823191602480820192602092909190829003018186803b1580156110ad57600080fd5b505afa1580156110c1573d6000803e3d6000fd5b505050506040513d60208110156110d757600080fd5b505192915050565b6000806110f360668463ffffffff610f3b16565b91509150600061110284611063565b111561112557816111205761111e60668463ffffffff6111fe16565b505b61113c565b811561113c5761105d60668263ffffffff6112e716565b505050565b3390565b303b1590565b6001600160a01b0381166111905760405162461bcd60e51b81526004018080602001828103825260268152602001806115966026913960400191505060405180910390fd5b6033546040516001600160a01b038084169216907f8be0079c531659141344cd1fd0a4f28419497f9722a3daafe3b4186f6b6457e090600090a3603380546001600160a01b0319166001600160a01b0392909216919091179055565b6001600160a01b039081169116141590565b60606001600160a01b03821661125b576040805162461bcd60e51b815260206004820152601960248201527f454d5054595f414444524553535f4e4f545f414c4c4f57454400000000000000604482015290519081900360640190fd5b8254600181018455600084815260209081902090910180546001600160a01b0319166001600160a01b03851617905583546040805182840281018401909152818152918591908301828280156112da57602002820191906000526020600020905b81546001600160a01b031681526001909101906020018083116112bc575b5050505050905092915050565b8154606090821061134f5782546040805160208084028201810190925282815291859183018282801561134357602002820191906000526020600020905b81546001600160a01b03168152600190910190602001808311611325575b50505050509050610c59565b8254600019018214156113f35782548390600019810190811061136e57fe5b600091825260209091200180546001600160a01b03191690558254611397846000198301611558565b50825460408051602080840282018101909252828152918591830182828015611343576020028201919060005260206000209081546001600160a01b031681526001909101906020018083116113255750505050509050610c59565b82546000908490600019810190811061140857fe5b60009182526020909120015484546001600160a01b03909116915084908490811061142f57fe5b60009182526020909120015484546001600160a01b03909116908590600019810190811061145957fe5b9060005260206000200160006101000a8154816001600160a01b0302191690836001600160a01b031602179055508084848154811061149457fe5b600091825260209091200180546001600160a01b0319166001600160a01b03929092169190911790558354849060001981019081106114cf57fe5b600091825260209091200180546001600160a01b031916905583546114f8856000198301611558565b5083546040805160208084028201810190925282815291869183018282801561154a57602002820191906000526020600020905b81546001600160a01b0316815260019091019060200180831161152c575b505050505091505092915050565b81548183558181111561113c5760008381526020902061113c918101908301610d5c91905b80821115611591576000815560010161157d565b509056fe4f776e61626c653a206e6577206f776e657220697320746865207a65726f2061646472657373554e49535741505f534f555243455f414e445f44455354494e4154494f4e5f53414d45436f6e747261637420696e7374616e63652068617320616c7265616479206265656e20696e697469616c697a6564a265627a7a72315820fd78face9007d6e50df00f84e14a2fbc7b309a42b6cb80bb255990d3d5011c3c64736f6c63430005110032436f6e747261637420696e7374616e63652068617320616c7265616479206265656e20696e697469616c697a6564",
  "source": "pragma solidity 0.5.17;\n\nimport \"../../../../base/escrow/dapps/Uniswap.sol\";\nimport \"./DappMock.sol\";\n\n/**\n    @notice This mock is used to expose a payable fallback function on tests.f\n */\ncontract UniswapMock is DappMock, Uniswap {\n    constructor() public {\n        Ownable.initialize(msg.sender);\n    }\n\n    function() external payable {}\n}\n",
  "sourcePath": "/Users/sy/Documents/GitHub/teller-protocol-v1/contracts/mock/base/escrow/dapps/UniswapMock.sol",
  "compiler": {
    "name": "solc",
    "version": "0.5.17+commit.d19bba13.Emscripten.clang"
  },
  "schemaVersion": "3.0.23",
  "updatedAt": "2020-09-15T21:09:31.440Z",
  "devdoc": {
    "methods": {
      "balanceOf(address)": {
        "params": {
          "cTokenAddress": "token address."
        },
        "return": "this contract's balance."
      },
      "initialize(address)": {
        "details": "Initializes the contract setting the deployer as the initial owner."
      },
      "isOwner()": {
        "details": "Returns true if the caller is the current owner."
      },
      "owner()": {
        "details": "Returns the address of the current owner."
      },
      "renounceOwnership()": {
        "details": "Leaves the contract without owner. It will not be possible to call `onlyOwner` functions anymore. Can only be called by the current owner.     * > Note: Renouncing ownership will leave the contract without an owner, thereby removing any functionality that is only available to the owner."
      },
      "swap(address,address,address[],uint256,uint256)": {
        "details": "This function mainly invokes 3 Uniswap external functions: https://uniswap.org/docs/v2/smart-contracts/router02/#swapexactethfortokens https://uniswap.org/docs/v2/smart-contracts/router02/#swapexacttokensforeth https://uniswap.org/docs/v2/smart-contracts/router02/#swapexacttokensfortokens",
        "params": {
          "canonicalWeth": "address of the canonical WETH in the current network.",
          "minDestination": "The minimum amount of output tokens that must be received for the transaction not to revert.",
          "path": "An array of token addresses. path.length must be >= 2. Pools for each consecutive pair of addresses must exist and have liquidity.",
          "routerAddress": "address of the Uniswap Router v02.",
          "sourceAmount": "amount of source element (ETH or Tokens) to swap."
        }
      },
      "transferOwnership(address)": {
        "details": "Transfers ownership of the contract to a new account (`newOwner`). Can only be called by the current owner."
      }
    }
  },
  "userdoc": {
    "methods": {
      "balanceOf(address)": {
        "notice": "Returns this contract's balance for the specified token."
      },
      "swap(address,address,address[],uint256,uint256)": {
        "notice": "Swaps ETH/Tokens for Tokens/ETH using different Uniswap v2 Router 02 methods."
      }
    },
    "notice": "This mock is used to expose a payable fallback function on tests.f"
  }
}