{
  "contractName": "Uniswap",
  "abi": [
    {
      "anonymous": false,
      "inputs": [
        {
          "indexed": true,
          "internalType": "address",
          "name": "from",
          "type": "address"
        },
        {
          "indexed": true,
          "internalType": "address",
          "name": "to",
          "type": "address"
        },
        {
          "indexed": true,
          "internalType": "address",
          "name": "sourceElement",
          "type": "address"
        },
        {
          "indexed": false,
          "internalType": "address",
          "name": "receivedElement",
          "type": "address"
        },
        {
          "indexed": false,
          "internalType": "uint256",
          "name": "sourceAmount",
          "type": "uint256"
        },
        {
          "indexed": false,
          "internalType": "uint256",
          "name": "receivedAmount",
          "type": "uint256"
        }
      ],
      "name": "UniswapSwapped",
      "type": "event"
    },
    {
      "constant": true,
      "inputs": [
        {
          "internalType": "address",
          "name": "tokenAddress",
          "type": "address"
        }
      ],
      "name": "findTokenIndex",
      "outputs": [
        {
          "internalType": "int256",
          "name": "",
          "type": "int256"
        }
      ],
      "payable": false,
      "stateMutability": "view",
      "type": "function"
    },
    {
      "constant": true,
      "inputs": [],
      "name": "getTokens",
      "outputs": [
        {
          "internalType": "address[]",
          "name": "",
          "type": "address[]"
        }
      ],
      "payable": false,
      "stateMutability": "view",
      "type": "function"
    },
    {
      "constant": false,
      "inputs": [
        {
          "internalType": "address",
          "name": "canonicalWeth",
          "type": "address"
        },
        {
          "internalType": "address",
          "name": "routerAddress",
          "type": "address"
        },
        {
          "internalType": "address[]",
          "name": "path",
          "type": "address[]"
        },
        {
          "internalType": "uint256",
          "name": "sourceAmount",
          "type": "uint256"
        },
        {
          "internalType": "uint256",
          "name": "minDestination",
          "type": "uint256"
        }
      ],
      "name": "swap",
      "outputs": [],
      "payable": false,
      "stateMutability": "nonpayable",
      "type": "function"
    }
  ],
  "bytecode": "0x608060405234801561001057600080fd5b506110bc806100206000396000f3fe608060405234801561001057600080fd5b50600436106100415760003560e01c80630a11fd07146100465780630fe6d57c1461007e578063aa6ca80814610141575b600080fd5b61006c6004803603602081101561005c57600080fd5b50356001600160a01b0316610199565b60408051918252519081900360200190f35b61013f600480360360a081101561009457600080fd5b6001600160a01b0382358116926020810135909116918101906060810160408201356401000000008111156100c857600080fd5b8201836020820111156100da57600080fd5b803590602001918460208302840111640100000000831117156100fc57600080fd5b91908080602002602001604051908101604052809392919081815260200183836020028082843760009201919091525092955050823593505050602001356101c8565b005b610149610a4e565b60408051602080825283518183015283519192839290830191858101910280838360005b8381101561018557818101518382015260200161016d565b505050509050019250505060405180910390f35b600080806101ad818563ffffffff610ab116565b91509150816101be576000196101c0565b805b949350505050565b6101da856001600160a01b0316610b06565b61022b576040805162461bcd60e51b815260206004820152601f60248201527f43414e4f4e4943414c5f574554485f4d5553545f42455f434f4e545241435400604482015290519081900360640190fd5b61023d846001600160a01b0316610b06565b61028e576040805162461bcd60e51b815260206004820152601960248201527f524f555445525f4d5553545f42455f415f434f4e545241435400000000000000604482015290519081900360640190fd5b82518490600211156102e0576040805162461bcd60e51b815260206004820152601660248201527515539254d5d05417d410551217d513d3d7d4d213d49560521b604482015290519081900360640190fd5b6000846000815181106102ef57fe5b6020026020010151905060008560018751038151811061030b57fe5b6020026020010151905061034981604051806060016040528060238152602001611065602391396001600160a01b038516919063ffffffff610b3f16565b6000841161039e576040805162461bcd60e51b815260206004820152601c60248201527f554e49535741505f4d494e5f44455354494e4154494f4e5f5a45524f00000000604482015290519081900360640190fd5b606060006103ab83610bd9565b9050896001600160a01b0316846001600160a01b0316141561059b578647101561041c576040805162461bcd60e51b815260206004820152601860248201527f554e49535741505f494e53554646494349454e545f4554480000000000000000604482015290519081900360640190fd5b846001600160a01b0316637ff36ab588888b30426040518663ffffffff1660e01b81526004018085815260200180602001846001600160a01b03166001600160a01b03168152602001838152602001828103825285818151815260200191508051906020019060200280838360005b838110156104a357818101518382015260200161048b565b50505050905001955050505050506000604051808303818588803b1580156104ca57600080fd5b505af11580156104de573d6000803e3d6000fd5b50505050506040513d6000823e601f3d908101601f19168201604052602081101561050857600080fd5b810190808051604051939291908464010000000082111561052857600080fd5b90830190602082018581111561053d57600080fd5b825186602082028301116401000000008211171561055a57600080fd5b82525081516020918201928201910280838360005b8381101561058757818101518382015260200161056f565b50505050905001604052505050915061090d565b866105a585610bd9565b10156105f8576040805162461bcd60e51b815260206004820152601b60248201527f554e49535741505f494e53554646494349454e545f544f4b454e530000000000604482015290519081900360640190fd5b836001600160a01b031663095ea7b38a896040518363ffffffff1660e01b815260040180836001600160a01b03166001600160a01b0316815260200182815260200192505050602060405180830381600087803b15801561065857600080fd5b505af115801561066c573d6000803e3d6000fd5b505050506040513d602081101561068257600080fd5b50506001600160a01b03838116908b16141561078b57846001600160a01b03166318cbafe588888b30426040518663ffffffff1660e01b81526004018086815260200185815260200180602001846001600160a01b03166001600160a01b03168152602001838152602001828103825285818151815260200191508051906020019060200280838360005b8381101561072557818101518382015260200161070d565b505050509050019650505050505050600060405180830381600087803b15801561074e57600080fd5b505af1158015610762573d6000803e3d6000fd5b505050506040513d6000823e601f3d908101601f19168201604052602081101561050857600080fd5b846001600160a01b03166338ed173988888b30426040518663ffffffff1660e01b81526004018086815260200185815260200180602001846001600160a01b03166001600160a01b03168152602001838152602001828103825285818151815260200191508051906020019060200280838360005b83811015610818578181015183820152602001610800565b505050509050019650505050505050600060405180830381600087803b15801561084157600080fd5b505af1158015610855573d6000803e3d6000fd5b505050506040513d6000823e601f3d908101601f19168201604052602081101561087e57600080fd5b810190808051604051939291908464010000000082111561089e57600080fd5b9083019060208201858111156108b357600080fd5b82518660208202830111640100000000821117156108d057600080fd5b82525081516020918201928201910280838360005b838110156108fd5781810151838201526020016108e5565b5050505090500160405250505091505b600061091884610bd9565b9050868201811015610971576040805162461bcd60e51b815260206004820152601d60248201527f554e49535741505f42414c414e43455f4e4f545f494e43524541534544000000604482015290519081900360640190fd5b88518351146109c0576040805162461bcd60e51b8152602060048201526016602482015275554e49535741505f4552524f525f5357415050494e4760501b604482015290519081900360640190fd5b6000836001855103815181106109d257fe5b602002602001015190506109e586610c55565b6109ee85610c55565b604080516001600160a01b038781168252602082018c9052818301849052915191881691309133917fe583dc6e14f16809fc9c729fa4a864f989d693022d62e79275fc497251201c669181900360600190a4505050505050505050505050565b60606000805480602002602001604051908101604052809291908181526020018280548015610aa657602002820191906000526020600020905b81546001600160a01b03168152600190910190602001808311610a88575b505050505090505b90565b6000805b8354811015610aff57826001600160a01b0316848281548110610ad457fe5b6000918252602090912001546001600160a01b03161491508115610af757610aff565b600101610ab5565b9250929050565b6000813f7fc5d2460186f7233c927e7db2dcc703c0e500b653ca82273b7bfad8045d85a4708181148015906101c0575050151592915050565b610b498383610cb6565b8190610bd35760405162461bcd60e51b81526004018080602001828103825283818151815260200191508051906020019080838360005b83811015610b98578181015183820152602001610b80565b50505050905090810190601f168015610bc55780820380516001836020036101000a031916815260200191505b509250505060405180910390fd5b50505050565b604080516370a0823160e01b815230600482015290516000916001600160a01b038416916370a0823191602480820192602092909190829003018186803b158015610c2357600080fd5b505afa158015610c37573d6000803e3d6000fd5b505050506040513d6020811015610c4d57600080fd5b505192915050565b600080610c68818463ffffffff610ab116565b915091506000610c7784610bd9565b1115610c9a5781610c9557610c9360008463ffffffff610ccd16565b505b610cb1565b8115610cb157610bd360008263ffffffff610db616565b505050565b6001600160a01b0382811690821614155b92915050565b60606001600160a01b038216610d2a576040805162461bcd60e51b815260206004820152601960248201527f454d5054595f414444524553535f4e4f545f414c4c4f57454400000000000000604482015290519081900360640190fd5b8254600181018455600084815260209081902090910180546001600160a01b0319166001600160a01b0385161790558354604080518284028101840190915281815291859190830182828015610da957602002820191906000526020600020905b81546001600160a01b03168152600190910190602001808311610d8b575b5050505050905092915050565b81546060908210610e1e57825460408051602080840282018101909252828152918591830182828015610e1257602002820191906000526020600020905b81546001600160a01b03168152600190910190602001808311610df4575b50505050509050610cc7565b825460001901821415610ec257825483906000198101908110610e3d57fe5b600091825260209091200180546001600160a01b03191690558254610e66846000198301611027565b50825460408051602080840282018101909252828152918591830182828015610e12576020028201919060005260206000209081546001600160a01b03168152600190910190602001808311610df45750505050509050610cc7565b825460009084906000198101908110610ed757fe5b60009182526020909120015484546001600160a01b039091169150849084908110610efe57fe5b60009182526020909120015484546001600160a01b039091169085906000198101908110610f2857fe5b9060005260206000200160006101000a8154816001600160a01b0302191690836001600160a01b0316021790555080848481548110610f6357fe5b600091825260209091200180546001600160a01b0319166001600160a01b0392909216919091179055835484906000198101908110610f9e57fe5b600091825260209091200180546001600160a01b03191690558354610fc7856000198301611027565b5083546040805160208084028201810190925282815291869183018282801561101957602002820191906000526020600020905b81546001600160a01b03168152600190910190602001808311610ffb575b505050505091505092915050565b815481835581811115610cb157600083815260209020610cb1918101908301610aae91905b80821115611060576000815560010161104c565b509056fe554e49535741505f534f555243455f414e445f44455354494e4154494f4e5f53414d45a265627a7a723158208c8558bc6e2c3c87b761f7d99850b4156756daf2649eac22d2089762dd79971c64736f6c63430005110032",
  "source": "pragma solidity 0.5.17;\n\n// External Libraries\nimport \"@openzeppelin/contracts-ethereum-package/contracts/utils/Address.sol\";\n\n// Common\nimport \"../../../util/AddressLib.sol\";\n\n// Contracts\n\n// Interfaces\nimport \"./IUniswap.sol\";\nimport \"../../../providers/uniswap/IUniswapV2Router02.sol\";\nimport \"../../BaseEscrowDapp.sol\";\n\n/*****************************************************************************************************/\n/**                                             WARNING                                             **/\n/**                      DAPP CONTRACT IS AN EXTENSION OF THE ESCROW CONTRACT                       **/\n/**  ---------------------------------------------------------------------------------------------  **/\n/**  Because there are multiple dApp contracts, and they all extend the Escrow contract that is     **/\n/**  itself upgradeable, they cannot have their own storage variables as they would cause the the   **/\n/**  storage slots to be overwritten on the Escrow proxy contract!                                  **/\n/**                                                                                                 **/\n/**  Visit https://docs.openzeppelin.com/upgrades/2.6/proxies#upgrading-via-the-proxy-pattern for   **/\n/**  more information.                                                                              **/\n/*****************************************************************************************************/\n/**\n    @notice This contract is used to define Uniswap dApp actions available. All dapp actions are invoked via \n        delegatecalls from Escrow contract, so this contract's state is really Escrow.\n    @author develop@teller.finance\n */\ncontract Uniswap is IUniswap, BaseEscrowDapp {\n    using AddressLib for address;\n    using Address for address;\n\n    /* State Variables */\n    // State is shared with Escrow contract as it uses delegateCall() to interact with this contract.\n\n    /**\n        @notice Swaps ETH/Tokens for Tokens/ETH using different Uniswap v2 Router 02 methods.\n        @param canonicalWeth address of the canonical WETH in the current network.\n        @param routerAddress address of the Uniswap Router v02.\n        @param path An array of token addresses. path.length must be >= 2. Pools for each consecutive pair of addresses must exist and have liquidity.\n        @param sourceAmount amount of source element (ETH or Tokens) to swap.\n        @param minDestination The minimum amount of output tokens that must be received for the transaction not to revert.\n        @dev This function mainly invokes 3 Uniswap external functions:\n            https://uniswap.org/docs/v2/smart-contracts/router02/#swapexactethfortokens\n            https://uniswap.org/docs/v2/smart-contracts/router02/#swapexacttokensforeth\n            https://uniswap.org/docs/v2/smart-contracts/router02/#swapexacttokensfortokens\n     */\n    function swap(\n        address canonicalWeth,\n        address routerAddress,\n        address[] memory path,\n        uint256 sourceAmount,\n        uint256 minDestination\n    ) public {\n        require(canonicalWeth.isContract(), \"CANONICAL_WETH_MUST_BE_CONTRACT\");\n        require(routerAddress.isContract(), \"ROUTER_MUST_BE_A_CONTRACT\");\n        IUniswapV2Router02 router = IUniswapV2Router02(routerAddress);\n\n        require(path.length >= 2, \"UNISWAP_PATH_TOO_SHORT\");\n        address source = path[0];\n        address destination = path[path.length - 1];\n\n        source.requireNotEqualTo(destination, \"UNISWAP_SOURCE_AND_DESTINATION_SAME\");\n        require(minDestination > 0, \"UNISWAP_MIN_DESTINATION_ZERO\"); // what if there is no minimum?\n\n        uint256[] memory amounts;\n        uint256 balanceBeforeSwap = _balanceOf(destination);\n\n        if (source == canonicalWeth) {\n            require(address(this).balance >= sourceAmount, \"UNISWAP_INSUFFICIENT_ETH\");\n            amounts = router.swapExactETHForTokens.value(sourceAmount)(\n                minDestination,\n                path,\n                address(this),\n                now\n            );\n        } else {\n            require(_balanceOf(source) >= sourceAmount, \"UNISWAP_INSUFFICIENT_TOKENS\");\n            IERC20(source).approve(routerAddress, sourceAmount);\n            if (destination == canonicalWeth) {\n                amounts = router.swapExactTokensForETH(\n                    sourceAmount,\n                    minDestination,\n                    path,\n                    address(this),\n                    now\n                );\n            } else {\n                amounts = router.swapExactTokensForTokens(\n                    sourceAmount,\n                    minDestination,\n                    path,\n                    address(this),\n                    now\n                );\n            }\n        }\n\n        uint256 balanceAfterSwap = _balanceOf(destination);\n        require(\n            balanceAfterSwap >= (balanceBeforeSwap + minDestination),\n            \"UNISWAP_BALANCE_NOT_INCREASED\"\n        );\n        require(amounts.length == path.length, \"UNISWAP_ERROR_SWAPPING\");\n        uint256 amountReceived = amounts[amounts.length - 1];\n\n        _tokenUpdated(source);\n        _tokenUpdated(destination);\n\n        emit UniswapSwapped(\n            msg.sender,\n            address(this),\n            source,\n            destination,\n            sourceAmount,\n            amountReceived\n        );\n    }\n}\n",
  "sourcePath": "/Users/sy/Documents/GitHub/teller-protocol-v1/contracts/base/escrow/dapps/Uniswap.sol",
  "compiler": {
    "name": "solc",
    "version": "0.5.17+commit.d19bba13.Emscripten.clang"
  },
  "schemaVersion": "3.0.23",
  "updatedAt": "2020-09-06T02:15:12.186Z",
  "devdoc": {
    "author": "develop@teller.finance",
    "methods": {
      "swap(address,address,address[],uint256,uint256)": {
        "details": "This function mainly invokes 3 Uniswap external functions: https://uniswap.org/docs/v2/smart-contracts/router02/#swapexactethfortokens https://uniswap.org/docs/v2/smart-contracts/router02/#swapexacttokensforeth https://uniswap.org/docs/v2/smart-contracts/router02/#swapexacttokensfortokens",
        "params": {
          "canonicalWeth": "address of the canonical WETH in the current network.",
          "minDestination": "The minimum amount of output tokens that must be received for the transaction not to revert.",
          "path": "An array of token addresses. path.length must be >= 2. Pools for each consecutive pair of addresses must exist and have liquidity.",
          "routerAddress": "address of the Uniswap Router v02.",
          "sourceAmount": "amount of source element (ETH or Tokens) to swap."
        }
      }
    }
  },
  "userdoc": {
    "methods": {
      "swap(address,address,address[],uint256,uint256)": {
        "notice": "Swaps ETH/Tokens for Tokens/ETH using different Uniswap v2 Router 02 methods."
      }
    },
    "notice": "This contract is used to define Uniswap dApp actions available. All dapp actions are invoked via  delegatecalls from Escrow contract, so this contract's state is really Escrow."
  }
}