{
  "contractName": "UniswapMock",
  "abi": [
    {
      "anonymous": false,
      "inputs": [
        {
          "indexed": true,
          "internalType": "address",
          "name": "from",
          "type": "address"
        },
        {
          "indexed": true,
          "internalType": "address",
          "name": "to",
          "type": "address"
        },
        {
          "indexed": true,
          "internalType": "address",
          "name": "sourceElement",
          "type": "address"
        },
        {
          "indexed": false,
          "internalType": "address",
          "name": "receivedElement",
          "type": "address"
        },
        {
          "indexed": false,
          "internalType": "uint256",
          "name": "sourceAmount",
          "type": "uint256"
        },
        {
          "indexed": false,
          "internalType": "uint256",
          "name": "receivedAmount",
          "type": "uint256"
        }
      ],
      "name": "UniswapSwapped",
      "type": "event"
    },
    {
      "payable": true,
      "stateMutability": "payable",
      "type": "fallback"
    },
    {
      "constant": true,
      "inputs": [
        {
          "internalType": "address",
          "name": "tokenAddress",
          "type": "address"
        }
      ],
      "name": "findTokenIndex",
      "outputs": [
        {
          "internalType": "int256",
          "name": "",
          "type": "int256"
        }
      ],
      "payable": false,
      "stateMutability": "view",
      "type": "function"
    },
    {
      "constant": true,
      "inputs": [],
      "name": "getTokens",
      "outputs": [
        {
          "internalType": "address[]",
          "name": "",
          "type": "address[]"
        }
      ],
      "payable": false,
      "stateMutability": "view",
      "type": "function"
    },
    {
      "constant": false,
      "inputs": [
        {
          "internalType": "address",
          "name": "canonicalWeth",
          "type": "address"
        },
        {
          "internalType": "address",
          "name": "routerAddress",
          "type": "address"
        },
        {
          "internalType": "address[]",
          "name": "path",
          "type": "address[]"
        },
        {
          "internalType": "uint256",
          "name": "sourceAmount",
          "type": "uint256"
        },
        {
          "internalType": "uint256",
          "name": "minDestination",
          "type": "uint256"
        }
      ],
      "name": "swap",
      "outputs": [],
      "payable": false,
      "stateMutability": "nonpayable",
      "type": "function"
    }
  ],
  "bytecode": "0x608060405234801561001057600080fd5b506110d1806100206000396000f3fe6080604052600436106100345760003560e01c80630a11fd07146100365780630fe6d57c1461007b578063aa6ca80814610149575b005b34801561004257600080fd5b506100696004803603602081101561005957600080fd5b50356001600160a01b03166101ae565b60408051918252519081900360200190f35b34801561008757600080fd5b50610034600480360360a081101561009e57600080fd5b6001600160a01b0382358116926020810135909116918101906060810160408201356401000000008111156100d257600080fd5b8201836020820111156100e457600080fd5b8035906020019184602083028401116401000000008311171561010657600080fd5b91908080602002602001604051908101604052809392919081815260200183836020028082843760009201919091525092955050823593505050602001356101dd565b34801561015557600080fd5b5061015e610a63565b60408051602080825283518183015283519192839290830191858101910280838360005b8381101561019a578181015183820152602001610182565b505050509050019250505060405180910390f35b600080806101c2818563ffffffff610ac616565b91509150816101d3576000196101d5565b805b949350505050565b6101ef856001600160a01b0316610b1b565b610240576040805162461bcd60e51b815260206004820152601f60248201527f43414e4f4e4943414c5f574554485f4d5553545f42455f434f4e545241435400604482015290519081900360640190fd5b610252846001600160a01b0316610b1b565b6102a3576040805162461bcd60e51b815260206004820152601960248201527f524f555445525f4d5553545f42455f415f434f4e545241435400000000000000604482015290519081900360640190fd5b82518490600211156102f5576040805162461bcd60e51b815260206004820152601660248201527515539254d5d05417d410551217d513d3d7d4d213d49560521b604482015290519081900360640190fd5b60008460008151811061030457fe5b6020026020010151905060008560018751038151811061032057fe5b6020026020010151905061035e8160405180606001604052806023815260200161107a602391396001600160a01b038516919063ffffffff610b5416565b600084116103b3576040805162461bcd60e51b815260206004820152601c60248201527f554e49535741505f4d494e5f44455354494e4154494f4e5f5a45524f00000000604482015290519081900360640190fd5b606060006103c083610bee565b9050896001600160a01b0316846001600160a01b031614156105b05786471015610431576040805162461bcd60e51b815260206004820152601860248201527f554e49535741505f494e53554646494349454e545f4554480000000000000000604482015290519081900360640190fd5b846001600160a01b0316637ff36ab588888b30426040518663ffffffff1660e01b81526004018085815260200180602001846001600160a01b03166001600160a01b03168152602001838152602001828103825285818151815260200191508051906020019060200280838360005b838110156104b85781810151838201526020016104a0565b50505050905001955050505050506000604051808303818588803b1580156104df57600080fd5b505af11580156104f3573d6000803e3d6000fd5b50505050506040513d6000823e601f3d908101601f19168201604052602081101561051d57600080fd5b810190808051604051939291908464010000000082111561053d57600080fd5b90830190602082018581111561055257600080fd5b825186602082028301116401000000008211171561056f57600080fd5b82525081516020918201928201910280838360005b8381101561059c578181015183820152602001610584565b505050509050016040525050509150610922565b866105ba85610bee565b101561060d576040805162461bcd60e51b815260206004820152601b60248201527f554e49535741505f494e53554646494349454e545f544f4b454e530000000000604482015290519081900360640190fd5b836001600160a01b031663095ea7b38a896040518363ffffffff1660e01b815260040180836001600160a01b03166001600160a01b0316815260200182815260200192505050602060405180830381600087803b15801561066d57600080fd5b505af1158015610681573d6000803e3d6000fd5b505050506040513d602081101561069757600080fd5b50506001600160a01b03838116908b1614156107a057846001600160a01b03166318cbafe588888b30426040518663ffffffff1660e01b81526004018086815260200185815260200180602001846001600160a01b03166001600160a01b03168152602001838152602001828103825285818151815260200191508051906020019060200280838360005b8381101561073a578181015183820152602001610722565b505050509050019650505050505050600060405180830381600087803b15801561076357600080fd5b505af1158015610777573d6000803e3d6000fd5b505050506040513d6000823e601f3d908101601f19168201604052602081101561051d57600080fd5b846001600160a01b03166338ed173988888b30426040518663ffffffff1660e01b81526004018086815260200185815260200180602001846001600160a01b03166001600160a01b03168152602001838152602001828103825285818151815260200191508051906020019060200280838360005b8381101561082d578181015183820152602001610815565b505050509050019650505050505050600060405180830381600087803b15801561085657600080fd5b505af115801561086a573d6000803e3d6000fd5b505050506040513d6000823e601f3d908101601f19168201604052602081101561089357600080fd5b81019080805160405193929190846401000000008211156108b357600080fd5b9083019060208201858111156108c857600080fd5b82518660208202830111640100000000821117156108e557600080fd5b82525081516020918201928201910280838360005b838110156109125781810151838201526020016108fa565b5050505090500160405250505091505b600061092d84610bee565b9050868201811015610986576040805162461bcd60e51b815260206004820152601d60248201527f554e49535741505f42414c414e43455f4e4f545f494e43524541534544000000604482015290519081900360640190fd5b88518351146109d5576040805162461bcd60e51b8152602060048201526016602482015275554e49535741505f4552524f525f5357415050494e4760501b604482015290519081900360640190fd5b6000836001855103815181106109e757fe5b602002602001015190506109fa86610c6a565b610a0385610c6a565b604080516001600160a01b038781168252602082018c9052818301849052915191881691309133917fe583dc6e14f16809fc9c729fa4a864f989d693022d62e79275fc497251201c669181900360600190a4505050505050505050505050565b60606000805480602002602001604051908101604052809291908181526020018280548015610abb57602002820191906000526020600020905b81546001600160a01b03168152600190910190602001808311610a9d575b505050505090505b90565b6000805b8354811015610b1457826001600160a01b0316848281548110610ae957fe5b6000918252602090912001546001600160a01b03161491508115610b0c57610b14565b600101610aca565b9250929050565b6000813f7fc5d2460186f7233c927e7db2dcc703c0e500b653ca82273b7bfad8045d85a4708181148015906101d5575050151592915050565b610b5e8383610ccb565b8190610be85760405162461bcd60e51b81526004018080602001828103825283818151815260200191508051906020019080838360005b83811015610bad578181015183820152602001610b95565b50505050905090810190601f168015610bda5780820380516001836020036101000a031916815260200191505b509250505060405180910390fd5b50505050565b604080516370a0823160e01b815230600482015290516000916001600160a01b038416916370a0823191602480820192602092909190829003018186803b158015610c3857600080fd5b505afa158015610c4c573d6000803e3d6000fd5b505050506040513d6020811015610c6257600080fd5b505192915050565b600080610c7d818463ffffffff610ac616565b915091506000610c8c84610bee565b1115610caf5781610caa57610ca860008463ffffffff610ce216565b505b610cc6565b8115610cc657610be860008263ffffffff610dcb16565b505050565b6001600160a01b0382811690821614155b92915050565b60606001600160a01b038216610d3f576040805162461bcd60e51b815260206004820152601960248201527f454d5054595f414444524553535f4e4f545f414c4c4f57454400000000000000604482015290519081900360640190fd5b8254600181018455600084815260209081902090910180546001600160a01b0319166001600160a01b0385161790558354604080518284028101840190915281815291859190830182828015610dbe57602002820191906000526020600020905b81546001600160a01b03168152600190910190602001808311610da0575b5050505050905092915050565b81546060908210610e3357825460408051602080840282018101909252828152918591830182828015610e2757602002820191906000526020600020905b81546001600160a01b03168152600190910190602001808311610e09575b50505050509050610cdc565b825460001901821415610ed757825483906000198101908110610e5257fe5b600091825260209091200180546001600160a01b03191690558254610e7b84600019830161103c565b50825460408051602080840282018101909252828152918591830182828015610e27576020028201919060005260206000209081546001600160a01b03168152600190910190602001808311610e095750505050509050610cdc565b825460009084906000198101908110610eec57fe5b60009182526020909120015484546001600160a01b039091169150849084908110610f1357fe5b60009182526020909120015484546001600160a01b039091169085906000198101908110610f3d57fe5b9060005260206000200160006101000a8154816001600160a01b0302191690836001600160a01b0316021790555080848481548110610f7857fe5b600091825260209091200180546001600160a01b0319166001600160a01b0392909216919091179055835484906000198101908110610fb357fe5b600091825260209091200180546001600160a01b03191690558354610fdc85600019830161103c565b5083546040805160208084028201810190925282815291869183018282801561102e57602002820191906000526020600020905b81546001600160a01b03168152600190910190602001808311611010575b505050505091505092915050565b815481835581811115610cc657600083815260209020610cc6918101908301610ac391905b808211156110755760008155600101611061565b509056fe554e49535741505f534f555243455f414e445f44455354494e4154494f4e5f53414d45a265627a7a7231582005ab621dbbc83b74f92c4e3adda8b4b73dfce65660e696dc9ebf347abb9b805c64736f6c63430005110032",
  "source": "pragma solidity 0.5.17;\n\nimport \"../../../../base/escrow/dapps/Uniswap.sol\";\n\n/**\n    @notice This mock is used to expose a payable fallback function on tests.f\n */\ncontract UniswapMock is Uniswap {\n    function() external payable {}\n}\n",
  "sourcePath": "/Users/sy/Documents/GitHub/teller-protocol-v1/contracts/mock/base/escrow/dapps/UniswapMock.sol",
  "compiler": {
    "name": "solc",
    "version": "0.5.17+commit.d19bba13.Emscripten.clang"
  },
  "schemaVersion": "3.0.23",
  "updatedAt": "2020-09-06T02:15:12.432Z",
  "devdoc": {
    "methods": {
      "swap(address,address,address[],uint256,uint256)": {
        "details": "This function mainly invokes 3 Uniswap external functions: https://uniswap.org/docs/v2/smart-contracts/router02/#swapexactethfortokens https://uniswap.org/docs/v2/smart-contracts/router02/#swapexacttokensforeth https://uniswap.org/docs/v2/smart-contracts/router02/#swapexacttokensfortokens",
        "params": {
          "canonicalWeth": "address of the canonical WETH in the current network.",
          "minDestination": "The minimum amount of output tokens that must be received for the transaction not to revert.",
          "path": "An array of token addresses. path.length must be >= 2. Pools for each consecutive pair of addresses must exist and have liquidity.",
          "routerAddress": "address of the Uniswap Router v02.",
          "sourceAmount": "amount of source element (ETH or Tokens) to swap."
        }
      }
    }
  },
  "userdoc": {
    "methods": {
      "swap(address,address,address[],uint256,uint256)": {
        "notice": "Swaps ETH/Tokens for Tokens/ETH using different Uniswap v2 Router 02 methods."
      }
    },
    "notice": "This mock is used to expose a payable fallback function on tests.f"
  }
}