{
  "contractName": "Uniswap",
  "abi": [
    {
      "anonymous": false,
      "inputs": [
        {
          "indexed": true,
          "internalType": "address",
          "name": "previousOwner",
          "type": "address"
        },
        {
          "indexed": true,
          "internalType": "address",
          "name": "newOwner",
          "type": "address"
        }
      ],
      "name": "OwnershipTransferred",
      "type": "event"
    },
    {
      "anonymous": false,
      "inputs": [
        {
          "indexed": true,
          "internalType": "address",
          "name": "sourceToken",
          "type": "address"
        },
        {
          "indexed": true,
          "internalType": "address",
          "name": "destinationToken",
          "type": "address"
        },
        {
          "indexed": false,
          "internalType": "uint256",
          "name": "sourceAmount",
          "type": "uint256"
        },
        {
          "indexed": false,
          "internalType": "uint256",
          "name": "destinationAmount",
          "type": "uint256"
        }
      ],
      "name": "UniswapSwapped",
      "type": "event"
    },
    {
      "constant": true,
      "inputs": [
        {
          "internalType": "address",
          "name": "tokenAddress",
          "type": "address"
        }
      ],
      "name": "findTokenIndex",
      "outputs": [
        {
          "internalType": "int256",
          "name": "",
          "type": "int256"
        }
      ],
      "payable": false,
      "stateMutability": "view",
      "type": "function"
    },
    {
      "constant": true,
      "inputs": [],
      "name": "getTokens",
      "outputs": [
        {
          "internalType": "address[]",
          "name": "",
          "type": "address[]"
        }
      ],
      "payable": false,
      "stateMutability": "view",
      "type": "function"
    },
    {
      "constant": false,
      "inputs": [
        {
          "internalType": "address",
          "name": "sender",
          "type": "address"
        }
      ],
      "name": "initialize",
      "outputs": [],
      "payable": false,
      "stateMutability": "nonpayable",
      "type": "function"
    },
    {
      "constant": true,
      "inputs": [],
      "name": "isOwner",
      "outputs": [
        {
          "internalType": "bool",
          "name": "",
          "type": "bool"
        }
      ],
      "payable": false,
      "stateMutability": "view",
      "type": "function"
    },
    {
      "constant": true,
      "inputs": [],
      "name": "owner",
      "outputs": [
        {
          "internalType": "address",
          "name": "",
          "type": "address"
        }
      ],
      "payable": false,
      "stateMutability": "view",
      "type": "function"
    },
    {
      "constant": false,
      "inputs": [],
      "name": "renounceOwnership",
      "outputs": [],
      "payable": false,
      "stateMutability": "nonpayable",
      "type": "function"
    },
    {
      "constant": true,
      "inputs": [],
      "name": "router",
      "outputs": [
        {
          "internalType": "contract IUniswapV2Router02",
          "name": "",
          "type": "address"
        }
      ],
      "payable": false,
      "stateMutability": "view",
      "type": "function"
    },
    {
      "constant": false,
      "inputs": [
        {
          "internalType": "address",
          "name": "newOwner",
          "type": "address"
        }
      ],
      "name": "transferOwnership",
      "outputs": [],
      "payable": false,
      "stateMutability": "nonpayable",
      "type": "function"
    },
    {
      "constant": false,
      "inputs": [
        {
          "internalType": "address[]",
          "name": "path",
          "type": "address[]"
        },
        {
          "internalType": "uint256",
          "name": "sourceAmount",
          "type": "uint256"
        },
        {
          "internalType": "uint256",
          "name": "minDestination",
          "type": "uint256"
        }
      ],
      "name": "swap",
      "outputs": [],
      "payable": false,
      "stateMutability": "nonpayable",
      "type": "function"
    }
  ],
  "bytecode": "0x608060405261116a806100136000396000f3fe608060405234801561001057600080fd5b50600436106100935760003560e01c80638f32d59b116100665780638f32d59b146101a6578063aa6ca808146101c2578063c4d66de81461021a578063f2fde38b14610240578063f887ea401461026657610093565b80630a11fd07146100985780633f3e37e4146100d0578063715018a61461017a5780638da5cb5b14610182575b600080fd5b6100be600480360360208110156100ae57600080fd5b50356001600160a01b031661026e565b60408051918252519081900360200190f35b610178600480360360608110156100e657600080fd5b81019060208101813564010000000081111561010157600080fd5b82018360208201111561011357600080fd5b8035906020019184602083028401116401000000008311171561013557600080fd5b919080806020026020016040519081016040528093929190818152602001838360200280828437600092019190915250929550508235935050506020013561029e565b005b61017861031c565b61018a6103bf565b604080516001600160a01b039092168252519081900360200190f35b6101ae6103cf565b604080519115158252519081900360200190f35b6101ca6103f5565b60408051602080825283518183015283519192839290830191858101910280838360005b838110156102065781810151838201526020016101ee565b505050509050019250505060405180910390f35b6101786004803603602081101561023057600080fd5b50356001600160a01b0316610457565b6101786004803603602081101561025657600080fd5b50356001600160a01b0316610549565b61018a6105ae565b6000808061028360668563ffffffff6105c616565b915091508161029457600019610296565b805b949350505050565b6102a66103cf565b6102f7576040805162461bcd60e51b815260206004820181905260248201527f4f776e61626c653a2063616c6c6572206973206e6f7420746865206f776e6572604482015290519081900360640190fd5b610317737a250d5630b4cf539739df2c5dacb4c659f2488d84848461061b565b505050565b6103246103cf565b610375576040805162461bcd60e51b815260206004820181905260248201527f4f776e61626c653a2063616c6c6572206973206e6f7420746865206f776e6572604482015290519081900360640190fd5b6033546040516000916001600160a01b0316907f8be0079c531659141344cd1fd0a4f28419497f9722a3daafe3b4186f6b6457e0908390a3603380546001600160a01b0319169055565b6033546001600160a01b03165b90565b6033546000906001600160a01b03166103e6610af2565b6001600160a01b031614905090565b6060606680548060200260200160405190810160405280929190818152602001828054801561044d57602002820191906000526020600020905b81546001600160a01b0316815260019091019060200180831161042f575b5050505050905090565b600054610100900460ff16806104705750610470610af6565b8061047e575060005460ff16155b6104b95760405162461bcd60e51b815260040180806020018281038252602e815260200180611108602e913960400191505060405180910390fd5b600054610100900460ff161580156104e4576000805460ff1961ff0019909116610100171660011790555b603380546001600160a01b0319166001600160a01b0384811691909117918290556040519116906000907f8be0079c531659141344cd1fd0a4f28419497f9722a3daafe3b4186f6b6457e0908290a38015610545576000805461ff00191690555b5050565b6105516103cf565b6105a2576040805162461bcd60e51b815260206004820181905260248201527f4f776e61626c653a2063616c6c6572206973206e6f7420746865206f776e6572604482015290519081900360640190fd5b6105ab81610afc565b50565b737a250d5630b4cf539739df2c5dacb4c659f2488d81565b6000805b835481101561061457826001600160a01b03168482815481106105e957fe5b6000918252602090912001546001600160a01b0316149150811561060c57610614565b6001016105ca565b9250929050565b60028351101561066b576040805162461bcd60e51b815260206004820152601660248201527515539254d5d05417d410551217d513d3d7d4d213d49560521b604482015290519081900360640190fd5b60008360008151811061067a57fe5b6020026020010151905060008460018651038151811061069657fe5b60200260200101519050836106aa83610b9d565b10156106fd576040805162461bcd60e51b815260206004820152601b60248201527f554e49535741505f494e53554646494349454e545f534f555243450000000000604482015290519081900360640190fd5b610731816040518060600160405280602381526020016110e5602391396001600160a01b038516919063ffffffff610c1916565b60008311610786576040805162461bcd60e51b815260206004820152601c60248201527f554e49535741505f4d494e5f44455354494e4154494f4e5f5a45524f00000000604482015290519081900360640190fd5b600061079182610b9d565b9050826001600160a01b031663095ea7b388876040518363ffffffff1660e01b815260040180836001600160a01b03166001600160a01b0316815260200182815260200192505050602060405180830381600087803b1580156107f357600080fd5b505af1158015610807573d6000803e3d6000fd5b505050506040513d602081101561081d57600080fd5b8101908080519060200190929190505050506060876001600160a01b03166338ed173987878a30426040518663ffffffff1660e01b81526004018086815260200185815260200180602001846001600160a01b03166001600160a01b03168152602001838152602001828103825285818151815260200191508051906020019060200280838360005b838110156108be5781810151838201526020016108a6565b505050509050019650505050505050600060405180830381600087803b1580156108e757600080fd5b505af11580156108fb573d6000803e3d6000fd5b505050506040513d6000823e601f3d908101601f19168201604052602081101561092457600080fd5b810190808051604051939291908464010000000082111561094457600080fd5b90830190602082018581111561095957600080fd5b825186602082028301116401000000008211171561097657600080fd5b82525081516020918201928201910280838360005b838110156109a357818101518382015260200161098b565b50505050905001604052505050905060006109bd84610b9d565b9050858301811015610a16576040805162461bcd60e51b815260206004820152601d60248201527f554e49535741505f42414c414e43455f4e4f545f494e43524541534544000000604482015290519081900360640190fd5b8751825114610a65576040805162461bcd60e51b8152602060048201526016602482015275554e49535741505f4552524f525f5357415050494e4760501b604482015290519081900360640190fd5b600082600184510381518110610a7757fe5b60200260200101519050610a8a86610cb3565b610a9385610cb3565b846001600160a01b0316866001600160a01b03167f1bb1e73a9804d75cf23770eb841f89d3179041febf415b046d77b318d3b5530d8a84604051808381526020018281526020019250505060405180910390a350505050505050505050565b3390565b303b1590565b6001600160a01b038116610b415760405162461bcd60e51b81526004018080602001828103825260268152602001806110bf6026913960400191505060405180910390fd5b6033546040516001600160a01b038084169216907f8be0079c531659141344cd1fd0a4f28419497f9722a3daafe3b4186f6b6457e090600090a3603380546001600160a01b0319166001600160a01b0392909216919091179055565b604080516370a0823160e01b815230600482015290516000916001600160a01b038416916370a0823191602480820192602092909190829003018186803b158015610be757600080fd5b505afa158015610bfb573d6000803e3d6000fd5b505050506040513d6020811015610c1157600080fd5b505192915050565b610c238383610d10565b8190610cad5760405162461bcd60e51b81526004018080602001828103825283818151815260200191508051906020019080838360005b83811015610c72578181015183820152602001610c5a565b50505050905090810190601f168015610c9f5780820380516001836020036101000a031916815260200191505b509250505060405180910390fd5b50505050565b600080610cc760668463ffffffff6105c616565b915091506000610cd684610b9d565b1115610cf95781610cf457610cf260668463ffffffff610d2716565b505b610317565b811561031757610cad60668263ffffffff610e1016565b6001600160a01b0382811690821614155b92915050565b60606001600160a01b038216610d84576040805162461bcd60e51b815260206004820152601960248201527f454d5054595f414444524553535f4e4f545f414c4c4f57454400000000000000604482015290519081900360640190fd5b8254600181018455600084815260209081902090910180546001600160a01b0319166001600160a01b0385161790558354604080518284028101840190915281815291859190830182828015610e0357602002820191906000526020600020905b81546001600160a01b03168152600190910190602001808311610de5575b5050505050905092915050565b81546060908210610e7857825460408051602080840282018101909252828152918591830182828015610e6c57602002820191906000526020600020905b81546001600160a01b03168152600190910190602001808311610e4e575b50505050509050610d21565b825460001901821415610f1c57825483906000198101908110610e9757fe5b600091825260209091200180546001600160a01b03191690558254610ec0846000198301611081565b50825460408051602080840282018101909252828152918591830182828015610e6c576020028201919060005260206000209081546001600160a01b03168152600190910190602001808311610e4e5750505050509050610d21565b825460009084906000198101908110610f3157fe5b60009182526020909120015484546001600160a01b039091169150849084908110610f5857fe5b60009182526020909120015484546001600160a01b039091169085906000198101908110610f8257fe5b9060005260206000200160006101000a8154816001600160a01b0302191690836001600160a01b0316021790555080848481548110610fbd57fe5b600091825260209091200180546001600160a01b0319166001600160a01b0392909216919091179055835484906000198101908110610ff857fe5b600091825260209091200180546001600160a01b03191690558354611021856000198301611081565b5083546040805160208084028201810190925282815291869183018282801561107357602002820191906000526020600020905b81546001600160a01b03168152600190910190602001808311611055575b505050505091505092915050565b815481835581811115610317576000838152602090206103179181019083016103cc91905b808211156110ba57600081556001016110a6565b509056fe4f776e61626c653a206e6577206f776e657220697320746865207a65726f2061646472657373554e49535741505f534f555243455f414e445f44455354494e4154494f4e5f53414d45436f6e747261637420696e7374616e63652068617320616c7265616479206265656e20696e697469616c697a6564a265627a7a7231582048051eae9db7cb98e9f4c5faa59cc180bca814dd9fa7dfcc308f81b9c09fb94664736f6c63430005110032",
  "source": "pragma solidity 0.5.17;\n\n// External Libraries\nimport \"@openzeppelin/contracts-ethereum-package/contracts/utils/Address.sol\";\n\n// Common\nimport \"../../../util/AddressLib.sol\";\n\n// Contracts\nimport \"../../BaseEscrowDapp.sol\";\n\n// Interfaces\nimport \"./IUniswap.sol\";\nimport \"../../../providers/uniswap/IUniswapV2Router02.sol\";\n\n/*****************************************************************************************************/\n/**                                             WARNING                                             **/\n/**                      DAPP CONTRACT IS AN EXTENSION OF THE ESCROW CONTRACT                       **/\n/**  ---------------------------------------------------------------------------------------------  **/\n/**  Because there are multiple dApp contracts, and they all extend the Escrow contract that is     **/\n/**  itself upgradeable, they cannot have their own storage variables as they would cause the the   **/\n/**  storage slots to be overwritten on the Escrow proxy contract!                                  **/\n/**                                                                                                 **/\n/**  Visit https://docs.openzeppelin.com/upgrades/2.6/proxies#upgrading-via-the-proxy-pattern for   **/\n/**  more information.                                                                              **/\n/*****************************************************************************************************/\n/**\n    @notice This contract is used to define Uniswap dApp actions available. All dapp actions are invoked via \n        delegatecalls from Escrow contract, so this contract's state is really Escrow.\n    @author develop@teller.finance\n */\ncontract Uniswap is IUniswap, BaseEscrowDapp {\n    using AddressLib for address;\n    using Address for address;\n\n    /* Constants */\n    /**\n        @notice Based on the docs https://uniswap.org/docs/v2/smart-contracts/router02/ the Router V2 instance is deployed on the same address in the testnets and mainnet. So, we can hardcode the address here.\n     */\n    IUniswapV2Router02 public constant router = IUniswapV2Router02(\n        0x7a250d5630B4cF539739dF2C5dAcb4c659F2488D\n    );\n\n    // State is shared with Escrow contract as it uses delegateCall() to interact with this contract.\n\n    /**\n        @notice Swaps ETH/Tokens for Tokens/ETH using different Uniswap v2 Router 02 methods.\n        @param path An array of token addresses. path.length must be >= 2. Pools for each consecutive pair of addresses must exist and have liquidity.\n        @param sourceAmount amount of source token to swap.\n        @param minDestination The minimum amount of output tokens that must be received for the transaction not to revert.\n     */\n    function swap(\n        address[] memory path,\n        uint256 sourceAmount,\n        uint256 minDestination\n    ) public onlyOwner() {\n        _swap(router, path, sourceAmount, minDestination);\n    }\n\n    /* Internal Functions */\n\n    /**\n        @notice Swaps ETH/Tokens for Tokens/ETH using different Uniswap v2 Router 02 methods.\n        @param theRouter The UniswapV2Router instance.\n        @param path An array of token addresses. path.length must be >= 2. Pools for each consecutive pair of addresses must exist and have liquidity.\n        @param sourceAmount amount of source token to swap.\n        @param minDestination The minimum amount of output tokens that must be received for the transaction not to revert.\n     */\n    function _swap(\n        IUniswapV2Router02 theRouter,\n        address[] memory path,\n        uint256 sourceAmount,\n        uint256 minDestination\n    ) internal {\n        require(path.length >= 2, \"UNISWAP_PATH_TOO_SHORT\");\n        address source = path[0];\n        address destination = path[path.length - 1];\n        require(_balanceOf(source) >= sourceAmount, \"UNISWAP_INSUFFICIENT_SOURCE\");\n        source.requireNotEqualTo(destination, \"UNISWAP_SOURCE_AND_DESTINATION_SAME\");\n        require(minDestination > 0, \"UNISWAP_MIN_DESTINATION_ZERO\"); // what if there is no minimum?\n\n        uint256 balanceBeforeSwap = _balanceOf(destination);\n\n        IERC20(source).approve(address(theRouter), sourceAmount);\n        uint256[] memory amounts = theRouter.swapExactTokensForTokens(\n            sourceAmount,\n            minDestination,\n            path,\n            address(this),\n            now\n        );\n\n        uint256 balanceAfterSwap = _balanceOf(destination);\n        require(\n            balanceAfterSwap >= (balanceBeforeSwap + minDestination),\n            \"UNISWAP_BALANCE_NOT_INCREASED\"\n        );\n        require(amounts.length == path.length, \"UNISWAP_ERROR_SWAPPING\");\n        uint256 destinationAmount = amounts[amounts.length - 1];\n\n        _tokenUpdated(source);\n        _tokenUpdated(destination);\n\n        emit UniswapSwapped(source, destination, sourceAmount, destinationAmount);\n    }\n}\n",
  "sourcePath": "/Users/guillesalazar/Repos/ZeroCollateral/smart-contracts-v1/contracts/base/escrow/dapps/Uniswap.sol",
  "compiler": {
    "name": "solc",
    "version": "0.5.17+commit.d19bba13.Emscripten.clang"
  },
  "schemaVersion": "3.2.3",
  "updatedAt": "2020-10-12T16:12:27.726Z",
  "networkType": "ethereum",
  "devdoc": {
    "author": "develop@teller.finance",
    "methods": {
      "initialize(address)": {
        "details": "Initializes the contract setting the deployer as the initial owner."
      },
      "isOwner()": {
        "details": "Returns true if the caller is the current owner."
      },
      "owner()": {
        "details": "Returns the address of the current owner."
      },
      "renounceOwnership()": {
        "details": "Leaves the contract without owner. It will not be possible to call `onlyOwner` functions anymore. Can only be called by the current owner.     * > Note: Renouncing ownership will leave the contract without an owner, thereby removing any functionality that is only available to the owner."
      },
      "swap(address[],uint256,uint256)": {
        "params": {
          "minDestination": "The minimum amount of output tokens that must be received for the transaction not to revert.",
          "path": "An array of token addresses. path.length must be >= 2. Pools for each consecutive pair of addresses must exist and have liquidity.",
          "sourceAmount": "amount of source token to swap."
        }
      },
      "transferOwnership(address)": {
        "details": "Transfers ownership of the contract to a new account (`newOwner`). Can only be called by the current owner."
      }
    }
  },
  "userdoc": {
    "methods": {
      "swap(address[],uint256,uint256)": {
        "notice": "Swaps ETH/Tokens for Tokens/ETH using different Uniswap v2 Router 02 methods."
      }
    },
    "notice": "This contract is used to define Uniswap dApp actions available. All dapp actions are invoked via  delegatecalls from Escrow contract, so this contract's state is really Escrow."
  }
}