{
  "contractName": "Uniswap",
  "abi": [
    {
      "anonymous": false,
      "inputs": [
        {
          "indexed": true,
          "internalType": "address",
          "name": "previousOwner",
          "type": "address"
        },
        {
          "indexed": true,
          "internalType": "address",
          "name": "newOwner",
          "type": "address"
        }
      ],
      "name": "OwnershipTransferred",
      "type": "event"
    },
    {
      "anonymous": false,
      "inputs": [
        {
          "indexed": true,
          "internalType": "address",
          "name": "from",
          "type": "address"
        },
        {
          "indexed": true,
          "internalType": "address",
          "name": "to",
          "type": "address"
        },
        {
          "indexed": true,
          "internalType": "address",
          "name": "sourceElement",
          "type": "address"
        },
        {
          "indexed": false,
          "internalType": "address",
          "name": "receivedElement",
          "type": "address"
        },
        {
          "indexed": false,
          "internalType": "uint256",
          "name": "sourceAmount",
          "type": "uint256"
        },
        {
          "indexed": false,
          "internalType": "uint256",
          "name": "receivedAmount",
          "type": "uint256"
        }
      ],
      "name": "UniswapSwapped",
      "type": "event"
    },
    {
      "constant": true,
      "inputs": [
        {
          "internalType": "address",
          "name": "cTokenAddress",
          "type": "address"
        }
      ],
      "name": "balanceOf",
      "outputs": [
        {
          "internalType": "uint256",
          "name": "",
          "type": "uint256"
        }
      ],
      "payable": false,
      "stateMutability": "view",
      "type": "function"
    },
    {
      "constant": true,
      "inputs": [
        {
          "internalType": "address",
          "name": "tokenAddress",
          "type": "address"
        }
      ],
      "name": "findTokenIndex",
      "outputs": [
        {
          "internalType": "int256",
          "name": "",
          "type": "int256"
        }
      ],
      "payable": false,
      "stateMutability": "view",
      "type": "function"
    },
    {
      "constant": true,
      "inputs": [],
      "name": "getTokens",
      "outputs": [
        {
          "internalType": "address[]",
          "name": "",
          "type": "address[]"
        }
      ],
      "payable": false,
      "stateMutability": "view",
      "type": "function"
    },
    {
      "constant": false,
      "inputs": [
        {
          "internalType": "address",
          "name": "sender",
          "type": "address"
        }
      ],
      "name": "initialize",
      "outputs": [],
      "payable": false,
      "stateMutability": "nonpayable",
      "type": "function"
    },
    {
      "constant": true,
      "inputs": [],
      "name": "isOwner",
      "outputs": [
        {
          "internalType": "bool",
          "name": "",
          "type": "bool"
        }
      ],
      "payable": false,
      "stateMutability": "view",
      "type": "function"
    },
    {
      "constant": true,
      "inputs": [],
      "name": "owner",
      "outputs": [
        {
          "internalType": "address",
          "name": "",
          "type": "address"
        }
      ],
      "payable": false,
      "stateMutability": "view",
      "type": "function"
    },
    {
      "constant": false,
      "inputs": [],
      "name": "renounceOwnership",
      "outputs": [],
      "payable": false,
      "stateMutability": "nonpayable",
      "type": "function"
    },
    {
      "constant": false,
      "inputs": [
        {
          "internalType": "address",
          "name": "newOwner",
          "type": "address"
        }
      ],
      "name": "transferOwnership",
      "outputs": [],
      "payable": false,
      "stateMutability": "nonpayable",
      "type": "function"
    },
    {
      "constant": false,
      "inputs": [
        {
          "internalType": "address",
          "name": "canonicalWeth",
          "type": "address"
        },
        {
          "internalType": "address",
          "name": "routerAddress",
          "type": "address"
        },
        {
          "internalType": "address[]",
          "name": "path",
          "type": "address[]"
        },
        {
          "internalType": "uint256",
          "name": "sourceAmount",
          "type": "uint256"
        },
        {
          "internalType": "uint256",
          "name": "minDestination",
          "type": "uint256"
        }
      ],
      "name": "swap",
      "outputs": [],
      "payable": false,
      "stateMutability": "nonpayable",
      "type": "function"
    }
  ],
  "bytecode": "0x608060405261155d806100136000396000f3fe608060405234801561001057600080fd5b50600436106100935760003560e01c80638da5cb5b116100665780638da5cb5b146101c15780638f32d59b146101e5578063aa6ca80814610201578063c4d66de814610259578063f2fde38b1461027f57610093565b80630a11fd07146100985780630fe6d57c146100d057806370a0823114610193578063715018a6146101b9575b600080fd5b6100be600480360360208110156100ae57600080fd5b50356001600160a01b03166102a5565b60408051918252519081900360200190f35b610191600480360360a08110156100e657600080fd5b6001600160a01b03823581169260208101359091169181019060608101604082013564010000000081111561011a57600080fd5b82018360208201111561012c57600080fd5b8035906020019184602083028401116401000000008311171561014e57600080fd5b91908080602002602001604051908101604052809392919081815260200183836020028082843760009201919091525092955050823593505050602001356102d5565b005b6100be600480360360208110156101a957600080fd5b50356001600160a01b0316610bb4565b610191610bc5565b6101c9610c68565b604080516001600160a01b039092168252519081900360200190f35b6101ed610c78565b604080519115158252519081900360200190f35b610209610c9e565b60408051602080825283518183015283519192839290830191858101910280838360005b8381101561024557818101518382015260200161022d565b505050509050019250505060405180910390f35b6101916004803603602081101561026f57600080fd5b50356001600160a01b0316610d00565b6101916004803603602081101561029557600080fd5b50356001600160a01b0316610df2565b600080806102ba60668563ffffffff610e5716565b91509150816102cb576000196102cd565b805b949350505050565b6102dd610c78565b61032e576040805162461bcd60e51b815260206004820181905260248201527f4f776e61626c653a2063616c6c6572206973206e6f7420746865206f776e6572604482015290519081900360640190fd5b610340856001600160a01b0316610eac565b610391576040805162461bcd60e51b815260206004820152601f60248201527f43414e4f4e4943414c5f574554485f4d5553545f42455f434f4e545241435400604482015290519081900360640190fd5b6103a3846001600160a01b0316610eac565b6103f4576040805162461bcd60e51b815260206004820152601960248201527f524f555445525f4d5553545f42455f415f434f4e545241435400000000000000604482015290519081900360640190fd5b8251849060021115610446576040805162461bcd60e51b815260206004820152601660248201527515539254d5d05417d410551217d513d3d7d4d213d49560521b604482015290519081900360640190fd5b60008460008151811061045557fe5b6020026020010151905060008560018751038151811061047157fe5b602002602001015190506104af816040518060600160405280602381526020016114d8602391396001600160a01b038516919063ffffffff610ee516565b60008411610504576040805162461bcd60e51b815260206004820152601c60248201527f554e49535741505f4d494e5f44455354494e4154494f4e5f5a45524f00000000604482015290519081900360640190fd5b6060600061051183610f7f565b9050896001600160a01b0316846001600160a01b031614156107015786471015610582576040805162461bcd60e51b815260206004820152601860248201527f554e49535741505f494e53554646494349454e545f4554480000000000000000604482015290519081900360640190fd5b846001600160a01b0316637ff36ab588888b30426040518663ffffffff1660e01b81526004018085815260200180602001846001600160a01b03166001600160a01b03168152602001838152602001828103825285818151815260200191508051906020019060200280838360005b838110156106095781810151838201526020016105f1565b50505050905001955050505050506000604051808303818588803b15801561063057600080fd5b505af1158015610644573d6000803e3d6000fd5b50505050506040513d6000823e601f3d908101601f19168201604052602081101561066e57600080fd5b810190808051604051939291908464010000000082111561068e57600080fd5b9083019060208201858111156106a357600080fd5b82518660208202830111640100000000821117156106c057600080fd5b82525081516020918201928201910280838360005b838110156106ed5781810151838201526020016106d5565b505050509050016040525050509150610a73565b8661070b85610f7f565b101561075e576040805162461bcd60e51b815260206004820152601b60248201527f554e49535741505f494e53554646494349454e545f544f4b454e530000000000604482015290519081900360640190fd5b836001600160a01b031663095ea7b38a896040518363ffffffff1660e01b815260040180836001600160a01b03166001600160a01b0316815260200182815260200192505050602060405180830381600087803b1580156107be57600080fd5b505af11580156107d2573d6000803e3d6000fd5b505050506040513d60208110156107e857600080fd5b50506001600160a01b03838116908b1614156108f157846001600160a01b03166318cbafe588888b30426040518663ffffffff1660e01b81526004018086815260200185815260200180602001846001600160a01b03166001600160a01b03168152602001838152602001828103825285818151815260200191508051906020019060200280838360005b8381101561088b578181015183820152602001610873565b505050509050019650505050505050600060405180830381600087803b1580156108b457600080fd5b505af11580156108c8573d6000803e3d6000fd5b505050506040513d6000823e601f3d908101601f19168201604052602081101561066e57600080fd5b846001600160a01b03166338ed173988888b30426040518663ffffffff1660e01b81526004018086815260200185815260200180602001846001600160a01b03166001600160a01b03168152602001838152602001828103825285818151815260200191508051906020019060200280838360005b8381101561097e578181015183820152602001610966565b505050509050019650505050505050600060405180830381600087803b1580156109a757600080fd5b505af11580156109bb573d6000803e3d6000fd5b505050506040513d6000823e601f3d908101601f1916820160405260208110156109e457600080fd5b8101908080516040519392919084640100000000821115610a0457600080fd5b908301906020820185811115610a1957600080fd5b8251866020820283011164010000000082111715610a3657600080fd5b82525081516020918201928201910280838360005b83811015610a63578181015183820152602001610a4b565b5050505090500160405250505091505b6000610a7e84610f7f565b9050868201811015610ad7576040805162461bcd60e51b815260206004820152601d60248201527f554e49535741505f42414c414e43455f4e4f545f494e43524541534544000000604482015290519081900360640190fd5b8851835114610b26576040805162461bcd60e51b8152602060048201526016602482015275554e49535741505f4552524f525f5357415050494e4760501b604482015290519081900360640190fd5b600083600185510381518110610b3857fe5b60200260200101519050610b4b86610ffb565b610b5485610ffb565b604080516001600160a01b038781168252602082018c9052818301849052915191881691309133917fe583dc6e14f16809fc9c729fa4a864f989d693022d62e79275fc497251201c669181900360600190a4505050505050505050505050565b6000610bbf82610f7f565b92915050565b610bcd610c78565b610c1e576040805162461bcd60e51b815260206004820181905260248201527f4f776e61626c653a2063616c6c6572206973206e6f7420746865206f776e6572604482015290519081900360640190fd5b6033546040516000916001600160a01b0316907f8be0079c531659141344cd1fd0a4f28419497f9722a3daafe3b4186f6b6457e0908390a3603380546001600160a01b0319169055565b6033546001600160a01b03165b90565b6033546000906001600160a01b0316610c8f61105d565b6001600160a01b031614905090565b60606066805480602002602001604051908101604052809291908181526020018280548015610cf657602002820191906000526020600020905b81546001600160a01b03168152600190910190602001808311610cd8575b5050505050905090565b600054610100900460ff1680610d195750610d19611061565b80610d27575060005460ff16155b610d625760405162461bcd60e51b815260040180806020018281038252602e8152602001806114fb602e913960400191505060405180910390fd5b600054610100900460ff16158015610d8d576000805460ff1961ff0019909116610100171660011790555b603380546001600160a01b0319166001600160a01b0384811691909117918290556040519116906000907f8be0079c531659141344cd1fd0a4f28419497f9722a3daafe3b4186f6b6457e0908290a38015610dee576000805461ff00191690555b5050565b610dfa610c78565b610e4b576040805162461bcd60e51b815260206004820181905260248201527f4f776e61626c653a2063616c6c6572206973206e6f7420746865206f776e6572604482015290519081900360640190fd5b610e5481611067565b50565b6000805b8354811015610ea557826001600160a01b0316848281548110610e7a57fe5b6000918252602090912001546001600160a01b03161491508115610e9d57610ea5565b600101610e5b565b9250929050565b6000813f7fc5d2460186f7233c927e7db2dcc703c0e500b653ca82273b7bfad8045d85a4708181148015906102cd575050151592915050565b610eef8383611108565b8190610f795760405162461bcd60e51b81526004018080602001828103825283818151815260200191508051906020019080838360005b83811015610f3e578181015183820152602001610f26565b50505050905090810190601f168015610f6b5780820380516001836020036101000a031916815260200191505b509250505060405180910390fd5b50505050565b604080516370a0823160e01b815230600482015290516000916001600160a01b038416916370a0823191602480820192602092909190829003018186803b158015610fc957600080fd5b505afa158015610fdd573d6000803e3d6000fd5b505050506040513d6020811015610ff357600080fd5b505192915050565b60008061100f60668463ffffffff610e5716565b91509150600061101e84610f7f565b1115611041578161103c5761103a60668463ffffffff61111a16565b505b611058565b811561105857610f7960668263ffffffff61120316565b505050565b3390565b303b1590565b6001600160a01b0381166110ac5760405162461bcd60e51b81526004018080602001828103825260268152602001806114b26026913960400191505060405180910390fd5b6033546040516001600160a01b038084169216907f8be0079c531659141344cd1fd0a4f28419497f9722a3daafe3b4186f6b6457e090600090a3603380546001600160a01b0319166001600160a01b0392909216919091179055565b6001600160a01b039081169116141590565b60606001600160a01b038216611177576040805162461bcd60e51b815260206004820152601960248201527f454d5054595f414444524553535f4e4f545f414c4c4f57454400000000000000604482015290519081900360640190fd5b8254600181018455600084815260209081902090910180546001600160a01b0319166001600160a01b03851617905583546040805182840281018401909152818152918591908301828280156111f657602002820191906000526020600020905b81546001600160a01b031681526001909101906020018083116111d8575b5050505050905092915050565b8154606090821061126b5782546040805160208084028201810190925282815291859183018282801561125f57602002820191906000526020600020905b81546001600160a01b03168152600190910190602001808311611241575b50505050509050610bbf565b82546000190182141561130f5782548390600019810190811061128a57fe5b600091825260209091200180546001600160a01b031916905582546112b3846000198301611474565b5082546040805160208084028201810190925282815291859183018282801561125f576020028201919060005260206000209081546001600160a01b031681526001909101906020018083116112415750505050509050610bbf565b82546000908490600019810190811061132457fe5b60009182526020909120015484546001600160a01b03909116915084908490811061134b57fe5b60009182526020909120015484546001600160a01b03909116908590600019810190811061137557fe5b9060005260206000200160006101000a8154816001600160a01b0302191690836001600160a01b03160217905550808484815481106113b057fe5b600091825260209091200180546001600160a01b0319166001600160a01b03929092169190911790558354849060001981019081106113eb57fe5b600091825260209091200180546001600160a01b03191690558354611414856000198301611474565b5083546040805160208084028201810190925282815291869183018282801561146657602002820191906000526020600020905b81546001600160a01b03168152600190910190602001808311611448575b505050505091505092915050565b81548183558181111561105857600083815260209020611058918101908301610c7591905b808211156114ad5760008155600101611499565b509056fe4f776e61626c653a206e6577206f776e657220697320746865207a65726f2061646472657373554e49535741505f534f555243455f414e445f44455354494e4154494f4e5f53414d45436f6e747261637420696e7374616e63652068617320616c7265616479206265656e20696e697469616c697a6564a265627a7a723158207ba78eb6783093f4ea78475d7222736620a423a6de9c1c3bebc02669b4c08da164736f6c63430005110032",
  "source": "pragma solidity 0.5.17;\n\n// External Libraries\nimport \"@openzeppelin/contracts-ethereum-package/contracts/utils/Address.sol\";\n\n// Common\nimport \"../../../util/AddressLib.sol\";\n\n// Contracts\nimport \"../../BaseEscrowDapp.sol\";\n\n// Interfaces\nimport \"./IUniswap.sol\";\nimport \"../../../providers/uniswap/IUniswapV2Router02.sol\";\n\n/*****************************************************************************************************/\n/**                                             WARNING                                             **/\n/**                      DAPP CONTRACT IS AN EXTENSION OF THE ESCROW CONTRACT                       **/\n/**  ---------------------------------------------------------------------------------------------  **/\n/**  Because there are multiple dApp contracts, and they all extend the Escrow contract that is     **/\n/**  itself upgradeable, they cannot have their own storage variables as they would cause the the   **/\n/**  storage slots to be overwritten on the Escrow proxy contract!                                  **/\n/**                                                                                                 **/\n/**  Visit https://docs.openzeppelin.com/upgrades/2.6/proxies#upgrading-via-the-proxy-pattern for   **/\n/**  more information.                                                                              **/\n/*****************************************************************************************************/\n/**\n    @notice This contract is used to define Uniswap dApp actions available. All dapp actions are invoked via \n        delegatecalls from Escrow contract, so this contract's state is really Escrow.\n    @author develop@teller.finance\n */\ncontract Uniswap is IUniswap, BaseEscrowDapp {\n    using AddressLib for address;\n    using Address for address;\n\n    /* State Variables */\n    // State is shared with Escrow contract as it uses delegateCall() to interact with this contract.\n\n    /**\n        @notice Swaps ETH/Tokens for Tokens/ETH using different Uniswap v2 Router 02 methods.\n        @param canonicalWeth address of the canonical WETH in the current network.\n        @param routerAddress address of the Uniswap Router v02.\n        @param path An array of token addresses. path.length must be >= 2. Pools for each consecutive pair of addresses must exist and have liquidity.\n        @param sourceAmount amount of source element (ETH or Tokens) to swap.\n        @param minDestination The minimum amount of output tokens that must be received for the transaction not to revert.\n        @dev This function mainly invokes 3 Uniswap external functions:\n            https://uniswap.org/docs/v2/smart-contracts/router02/#swapexactethfortokens\n            https://uniswap.org/docs/v2/smart-contracts/router02/#swapexacttokensforeth\n            https://uniswap.org/docs/v2/smart-contracts/router02/#swapexacttokensfortokens\n     */\n    function swap(\n        address canonicalWeth,\n        address routerAddress,\n        address[] memory path,\n        uint256 sourceAmount,\n        uint256 minDestination\n    ) public onlyOwner() {\n        require(canonicalWeth.isContract(), \"CANONICAL_WETH_MUST_BE_CONTRACT\");\n        require(routerAddress.isContract(), \"ROUTER_MUST_BE_A_CONTRACT\");\n        IUniswapV2Router02 router = IUniswapV2Router02(routerAddress);\n\n        require(path.length >= 2, \"UNISWAP_PATH_TOO_SHORT\");\n        address source = path[0];\n        address destination = path[path.length - 1];\n\n        source.requireNotEqualTo(destination, \"UNISWAP_SOURCE_AND_DESTINATION_SAME\");\n        require(minDestination > 0, \"UNISWAP_MIN_DESTINATION_ZERO\"); // what if there is no minimum?\n\n        uint256[] memory amounts;\n        uint256 balanceBeforeSwap = _balanceOf(destination);\n\n        if (source == canonicalWeth) {\n            require(address(this).balance >= sourceAmount, \"UNISWAP_INSUFFICIENT_ETH\");\n            amounts = router.swapExactETHForTokens.value(sourceAmount)(\n                minDestination,\n                path,\n                address(this),\n                now\n            );\n        } else {\n            require(_balanceOf(source) >= sourceAmount, \"UNISWAP_INSUFFICIENT_TOKENS\");\n            IERC20(source).approve(routerAddress, sourceAmount);\n            if (destination == canonicalWeth) {\n                amounts = router.swapExactTokensForETH(\n                    sourceAmount,\n                    minDestination,\n                    path,\n                    address(this),\n                    now\n                );\n            } else {\n                amounts = router.swapExactTokensForTokens(\n                    sourceAmount,\n                    minDestination,\n                    path,\n                    address(this),\n                    now\n                );\n            }\n        }\n\n        uint256 balanceAfterSwap = _balanceOf(destination);\n        require(\n            balanceAfterSwap >= (balanceBeforeSwap + minDestination),\n            \"UNISWAP_BALANCE_NOT_INCREASED\"\n        );\n        require(amounts.length == path.length, \"UNISWAP_ERROR_SWAPPING\");\n        uint256 amountReceived = amounts[amounts.length - 1];\n\n        _tokenUpdated(source);\n        _tokenUpdated(destination);\n\n        emit UniswapSwapped(\n            msg.sender,\n            address(this),\n            source,\n            destination,\n            sourceAmount,\n            amountReceived\n        );\n    }\n}\n",
  "sourcePath": "/Users/sy/Documents/GitHub/teller-protocol-v1/contracts/base/escrow/dapps/Uniswap.sol",
  "compiler": {
    "name": "solc",
    "version": "0.5.17+commit.d19bba13.Emscripten.clang"
  },
  "schemaVersion": "3.0.23",
  "updatedAt": "2020-09-15T21:09:31.255Z",
  "devdoc": {
    "author": "develop@teller.finance",
    "methods": {
      "balanceOf(address)": {
        "params": {
          "cTokenAddress": "token address."
        },
        "return": "this contract's balance."
      },
      "initialize(address)": {
        "details": "Initializes the contract setting the deployer as the initial owner."
      },
      "isOwner()": {
        "details": "Returns true if the caller is the current owner."
      },
      "owner()": {
        "details": "Returns the address of the current owner."
      },
      "renounceOwnership()": {
        "details": "Leaves the contract without owner. It will not be possible to call `onlyOwner` functions anymore. Can only be called by the current owner.     * > Note: Renouncing ownership will leave the contract without an owner, thereby removing any functionality that is only available to the owner."
      },
      "swap(address,address,address[],uint256,uint256)": {
        "details": "This function mainly invokes 3 Uniswap external functions: https://uniswap.org/docs/v2/smart-contracts/router02/#swapexactethfortokens https://uniswap.org/docs/v2/smart-contracts/router02/#swapexacttokensforeth https://uniswap.org/docs/v2/smart-contracts/router02/#swapexacttokensfortokens",
        "params": {
          "canonicalWeth": "address of the canonical WETH in the current network.",
          "minDestination": "The minimum amount of output tokens that must be received for the transaction not to revert.",
          "path": "An array of token addresses. path.length must be >= 2. Pools for each consecutive pair of addresses must exist and have liquidity.",
          "routerAddress": "address of the Uniswap Router v02.",
          "sourceAmount": "amount of source element (ETH or Tokens) to swap."
        }
      },
      "transferOwnership(address)": {
        "details": "Transfers ownership of the contract to a new account (`newOwner`). Can only be called by the current owner."
      }
    }
  },
  "userdoc": {
    "methods": {
      "balanceOf(address)": {
        "notice": "Returns this contract's balance for the specified token."
      },
      "swap(address,address,address[],uint256,uint256)": {
        "notice": "Swaps ETH/Tokens for Tokens/ETH using different Uniswap v2 Router 02 methods."
      }
    },
    "notice": "This contract is used to define Uniswap dApp actions available. All dapp actions are invoked via  delegatecalls from Escrow contract, so this contract's state is really Escrow."
  }
}