{
  "contractName": "UniswapV2Router02Mock",
  "abi": [
    {
      "constant": true,
      "inputs": [],
      "name": "DONT_ALTER_BALANCE",
      "outputs": [
        {
          "internalType": "uint24",
          "name": "",
          "type": "uint24"
        }
      ],
      "payable": false,
      "stateMutability": "view",
      "type": "function"
    },
    {
      "constant": true,
      "inputs": [],
      "name": "SIMULATE_UNISWAP_RESPONSE_ERROR",
      "outputs": [
        {
          "internalType": "uint24",
          "name": "",
          "type": "uint24"
        }
      ],
      "payable": false,
      "stateMutability": "view",
      "type": "function"
    },
    {
      "constant": false,
      "inputs": [
        {
          "internalType": "uint256",
          "name": "",
          "type": "uint256"
        },
        {
          "internalType": "uint256",
          "name": "amountOutMin",
          "type": "uint256"
        },
        {
          "internalType": "address[]",
          "name": "path",
          "type": "address[]"
        },
        {
          "internalType": "address",
          "name": "to",
          "type": "address"
        },
        {
          "internalType": "uint256",
          "name": "deadline",
          "type": "uint256"
        }
      ],
      "name": "swapExactTokensForTokens",
      "outputs": [
        {
          "internalType": "uint256[]",
          "name": "amounts",
          "type": "uint256[]"
        }
      ],
      "payable": false,
      "stateMutability": "nonpayable",
      "type": "function"
    },
    {
      "constant": false,
      "inputs": [
        {
          "internalType": "uint256",
          "name": "",
          "type": "uint256"
        },
        {
          "internalType": "uint256",
          "name": "amountOutMin",
          "type": "uint256"
        },
        {
          "internalType": "address[]",
          "name": "path",
          "type": "address[]"
        },
        {
          "internalType": "address",
          "name": "to",
          "type": "address"
        },
        {
          "internalType": "uint256",
          "name": "deadline",
          "type": "uint256"
        }
      ],
      "name": "swapExactTokensForETH",
      "outputs": [
        {
          "internalType": "uint256[]",
          "name": "amounts",
          "type": "uint256[]"
        }
      ],
      "payable": false,
      "stateMutability": "nonpayable",
      "type": "function"
    },
    {
      "constant": false,
      "inputs": [
        {
          "internalType": "uint256",
          "name": "amountOutMin",
          "type": "uint256"
        },
        {
          "internalType": "address[]",
          "name": "path",
          "type": "address[]"
        },
        {
          "internalType": "address",
          "name": "to",
          "type": "address"
        },
        {
          "internalType": "uint256",
          "name": "deadline",
          "type": "uint256"
        }
      ],
      "name": "swapExactETHForTokens",
      "outputs": [
        {
          "internalType": "uint256[]",
          "name": "amounts",
          "type": "uint256[]"
        }
      ],
      "payable": true,
      "stateMutability": "payable",
      "type": "function"
    }
  ],
  "bytecode": "0x608060405234801561001057600080fd5b50610438806100206000396000f3fe60806040526004361061004a5760003560e01c806318cbafe51461004f57806338ed17391461004f5780637ac574d8146101375780637ff36ab514610164578063eb489aea146101ea575b600080fd5b34801561005b57600080fd5b506100e7600480360360a081101561007257600080fd5b81359160208101359181019060608101604082013564010000000081111561009957600080fd5b8201836020820111156100ab57600080fd5b803590602001918460208302840111640100000000831117156100cd57600080fd5b91935091506001600160a01b0381351690602001356101ff565b60408051602080825283518183015283519192839290830191858101910280838360005b8381101561012357818101518382015260200161010b565b505050509050019250505060405180910390f35b34801561014357600080fd5b5061014c61024d565b6040805162ffffff9092168252519081900360200190f35b6100e76004803603608081101561017a57600080fd5b8135919081019060408101602082013564010000000081111561019c57600080fd5b8201836020820111156101ae57600080fd5b803590602001918460208302840111640100000000831117156101d057600080fd5b91935091506001600160a01b038135169060200135610254565b3480156101f657600080fd5b5061014c6102a1565b6060610242868686808060200260200160405190810160405280939291908181526020018383602002808284376000920191909152508892508791506102a89050565b979650505050505050565b620f423f81565b6060610297868686808060200260200160405190810160405280939291908181526020018383602002808284376000920191909152508892508791506102a89050565b9695505050505050565b620bde3181565b6060620bde318514156102eb5783516001016040519080825280602002602001820160405280156102e3578160200160208202803883390190505b50905061031a565b8351604051908082528060200260200182016040528015610316578160200160208202803883390190505b5090505b60005b8451811015610346578582828151811061033357fe5b602090810291909101015260010161031d565b50620f423f85146103fb5760008460018651038151811061036357fe5b60200260200101519050806001600160a01b03166340c10f1985886040518363ffffffff1660e01b815260040180836001600160a01b03166001600160a01b0316815260200182815260200192505050602060405180830381600087803b1580156103cd57600080fd5b505af11580156103e1573d6000803e3d6000fd5b505050506040513d60208110156103f757600080fd5b5050505b94935050505056fea265627a7a72315820adcfdc6fc43beafa1620404356b3d2b9b85632e0ded5b763a3581565585da2d264736f6c63430005110032",
  "source": "pragma solidity 0.5.17;\n\nimport \"../../../../providers/uniswap/IUniswapV2Router02.sol\";\nimport \"../../../../mock/token/ERC20Mock.sol\";\n\ncontract UniswapV2Router02Mock is IUniswapV2Router02 {\n    uint24 public constant DONT_ALTER_BALANCE = 999999;\n    uint24 public constant SIMULATE_UNISWAP_RESPONSE_ERROR = 777777;\n\n    /**\n        @notice This function swaps tokens for tokens.\n        @dev We are using amountOutMin special numbers as flags to change behaviour.\n     */\n    function swapExactTokensForTokens(\n        uint256,\n        uint256 amountOutMin,\n        address[] calldata path,\n        address to,\n        uint256 deadline\n    ) external returns (uint256[] memory amounts) {\n        return _swap(amountOutMin, path, to, deadline);\n    }\n\n    /**\n        @notice This function swaps tokens for WETH tokens.\n        @dev https://uniswap.org/docs/v2/smart-contracts/router02/#weth\n        @dev We are using amountOutMin special numbers as flags to change behaviour.\n     */\n    function swapExactTokensForETH(\n        uint256,\n        uint256 amountOutMin,\n        address[] calldata path,\n        address to,\n        uint256 deadline\n    ) external returns (uint256[] memory amounts) {\n        return _swap(amountOutMin, path, to, deadline);\n    }\n\n    /**\n        @notice This function swaps ETH for tokens.\n        @dev We are using amountOutMin special numbers as flags to change behaviour.\n     */\n    function swapExactETHForTokens(\n        uint256 amountOutMin,\n        address[] calldata path,\n        address to,\n        uint256 deadline\n    ) external payable returns (uint256[] memory amounts) {\n        return _swap(amountOutMin, path, to, deadline);\n    }\n\n    function _swap(\n        uint256 amountOutMin,\n        address[] memory path,\n        address to,\n        uint256\n    ) internal returns (uint256[] memory amounts) {\n        if (SIMULATE_UNISWAP_RESPONSE_ERROR == amountOutMin) {\n            amounts = new uint256[](path.length + 1);\n        } else {\n            amounts = new uint256[](path.length);\n        }\n        for (uint256 i; i < path.length; i++) {\n            amounts[i] = amountOutMin;\n        }\n        if (!(DONT_ALTER_BALANCE == amountOutMin)) {\n            ERC20Mock destinationToken = ERC20Mock(path[path.length - 1]);\n            destinationToken.mint(to, amountOutMin);\n        }\n    }\n}\n",
  "sourcePath": "/Users/sy/Documents/GitHub/teller-protocol-v1/contracts/mock/base/escrow/dapps/UniswapV2Router02Mock.sol",
  "compiler": {
    "name": "solc",
    "version": "0.5.17+commit.d19bba13.Emscripten.clang"
  },
  "schemaVersion": "3.0.23",
  "updatedAt": "2020-09-06T02:15:12.436Z",
  "devdoc": {
    "methods": {
      "swapExactETHForTokens(uint256,address[],address,uint256)": {
        "details": "We are using amountOutMin special numbers as flags to change behaviour."
      },
      "swapExactTokensForETH(uint256,uint256,address[],address,uint256)": {
        "details": "https://uniswap.org/docs/v2/smart-contracts/router02/#wethWe are using amountOutMin special numbers as flags to change behaviour."
      },
      "swapExactTokensForTokens(uint256,uint256,address[],address,uint256)": {
        "details": "We are using amountOutMin special numbers as flags to change behaviour."
      }
    }
  },
  "userdoc": {
    "methods": {
      "swapExactETHForTokens(uint256,address[],address,uint256)": {
        "notice": "This function swaps ETH for tokens."
      },
      "swapExactTokensForETH(uint256,uint256,address[],address,uint256)": {
        "notice": "This function swaps tokens for WETH tokens."
      },
      "swapExactTokensForTokens(uint256,uint256,address[],address,uint256)": {
        "notice": "This function swaps tokens for tokens."
      }
    }
  }
}