{
  "contractName": "UniswapV2Router02Mock",
  "abi": [
    {
      "inputs": [
        {
          "internalType": "address",
          "name": "wethAddress",
          "type": "address"
        }
      ],
      "payable": false,
      "stateMutability": "nonpayable",
      "type": "constructor"
    },
    {
      "constant": true,
      "inputs": [],
      "name": "DONT_ALTER_BALANCE",
      "outputs": [
        {
          "internalType": "uint24",
          "name": "",
          "type": "uint24"
        }
      ],
      "payable": false,
      "stateMutability": "view",
      "type": "function"
    },
    {
      "constant": true,
      "inputs": [],
      "name": "SIMULATE_UNISWAP_RESPONSE_ERROR",
      "outputs": [
        {
          "internalType": "uint24",
          "name": "",
          "type": "uint24"
        }
      ],
      "payable": false,
      "stateMutability": "view",
      "type": "function"
    },
    {
      "constant": true,
      "inputs": [],
      "name": "WETH",
      "outputs": [
        {
          "internalType": "address",
          "name": "",
          "type": "address"
        }
      ],
      "payable": false,
      "stateMutability": "view",
      "type": "function"
    },
    {
      "constant": false,
      "inputs": [
        {
          "internalType": "uint256",
          "name": "",
          "type": "uint256"
        },
        {
          "internalType": "uint256",
          "name": "amountOutMin",
          "type": "uint256"
        },
        {
          "internalType": "address[]",
          "name": "path",
          "type": "address[]"
        },
        {
          "internalType": "address",
          "name": "to",
          "type": "address"
        },
        {
          "internalType": "uint256",
          "name": "deadline",
          "type": "uint256"
        }
      ],
      "name": "swapExactTokensForTokens",
      "outputs": [
        {
          "internalType": "uint256[]",
          "name": "amounts",
          "type": "uint256[]"
        }
      ],
      "payable": false,
      "stateMutability": "nonpayable",
      "type": "function"
    },
    {
      "constant": false,
      "inputs": [
        {
          "internalType": "uint256",
          "name": "",
          "type": "uint256"
        },
        {
          "internalType": "uint256",
          "name": "amountOutMin",
          "type": "uint256"
        },
        {
          "internalType": "address[]",
          "name": "path",
          "type": "address[]"
        },
        {
          "internalType": "address",
          "name": "to",
          "type": "address"
        },
        {
          "internalType": "uint256",
          "name": "deadline",
          "type": "uint256"
        }
      ],
      "name": "swapExactTokensForETH",
      "outputs": [
        {
          "internalType": "uint256[]",
          "name": "amounts",
          "type": "uint256[]"
        }
      ],
      "payable": false,
      "stateMutability": "nonpayable",
      "type": "function"
    },
    {
      "constant": false,
      "inputs": [
        {
          "internalType": "uint256",
          "name": "amountOutMin",
          "type": "uint256"
        },
        {
          "internalType": "address[]",
          "name": "path",
          "type": "address[]"
        },
        {
          "internalType": "address",
          "name": "to",
          "type": "address"
        },
        {
          "internalType": "uint256",
          "name": "deadline",
          "type": "uint256"
        }
      ],
      "name": "swapExactETHForTokens",
      "outputs": [
        {
          "internalType": "uint256[]",
          "name": "amounts",
          "type": "uint256[]"
        }
      ],
      "payable": true,
      "stateMutability": "payable",
      "type": "function"
    },
    {
      "constant": false,
      "inputs": [
        {
          "internalType": "uint256",
          "name": "amountOut",
          "type": "uint256"
        },
        {
          "internalType": "uint256",
          "name": "amountInMax",
          "type": "uint256"
        },
        {
          "internalType": "address[]",
          "name": "path",
          "type": "address[]"
        },
        {
          "internalType": "address",
          "name": "to",
          "type": "address"
        },
        {
          "internalType": "uint256",
          "name": "deadline",
          "type": "uint256"
        }
      ],
      "name": "swapTokensForExactTokens",
      "outputs": [
        {
          "internalType": "uint256[]",
          "name": "amounts",
          "type": "uint256[]"
        }
      ],
      "payable": false,
      "stateMutability": "nonpayable",
      "type": "function"
    },
    {
      "constant": false,
      "inputs": [
        {
          "internalType": "uint256",
          "name": "amountOut",
          "type": "uint256"
        },
        {
          "internalType": "uint256",
          "name": "amountInMax",
          "type": "uint256"
        },
        {
          "internalType": "address[]",
          "name": "path",
          "type": "address[]"
        },
        {
          "internalType": "address",
          "name": "to",
          "type": "address"
        },
        {
          "internalType": "uint256",
          "name": "deadline",
          "type": "uint256"
        }
      ],
      "name": "swapTokensForExactETH",
      "outputs": [
        {
          "internalType": "uint256[]",
          "name": "amounts",
          "type": "uint256[]"
        }
      ],
      "payable": false,
      "stateMutability": "nonpayable",
      "type": "function"
    },
    {
      "constant": false,
      "inputs": [
        {
          "internalType": "uint256",
          "name": "amountOut",
          "type": "uint256"
        },
        {
          "internalType": "address[]",
          "name": "path",
          "type": "address[]"
        },
        {
          "internalType": "address",
          "name": "to",
          "type": "address"
        },
        {
          "internalType": "uint256",
          "name": "deadline",
          "type": "uint256"
        }
      ],
      "name": "swapETHForExactTokens",
      "outputs": [
        {
          "internalType": "uint256[]",
          "name": "amounts",
          "type": "uint256[]"
        }
      ],
      "payable": true,
      "stateMutability": "payable",
      "type": "function"
    }
  ],
  "bytecode": "0x608060405234801561001057600080fd5b506040516106463803806106468339818101604052602081101561003357600080fd5b5051600080546001600160a01b039092166001600160a01b03199092169190911790556105e1806100656000396000f3fe6080604052600436106100865760003560e01c80637ff36ab5116100595780637ff36ab5146102345780638803dbee14610171578063ad5c4648146102b8578063eb489aea146102e9578063fb3bdb41146102fe57610086565b806318cbafe51461008b57806338ed17391461008b5780634a25d94a146101715780637ac574d814610207575b600080fd5b34801561009757600080fd5b50610121600480360360a08110156100ae57600080fd5b813591602081013591810190606081016040820135600160201b8111156100d457600080fd5b8201836020820111156100e657600080fd5b803590602001918460208302840111600160201b8311171561010757600080fd5b91935091506001600160a01b038135169060200135610382565b60408051602080825283518183015283519192839290830191858101910280838360005b8381101561015d578181015183820152602001610145565b505050509050019250505060405180910390f35b34801561017d57600080fd5b50610121600480360360a081101561019457600080fd5b813591602081013591810190606081016040820135600160201b8111156101ba57600080fd5b8201836020820111156101cc57600080fd5b803590602001918460208302840111600160201b831117156101ed57600080fd5b91935091506001600160a01b0381351690602001356103d0565b34801561021357600080fd5b5061021c6103dc565b6040805162ffffff9092168252519081900360200190f35b6101216004803603608081101561024a57600080fd5b81359190810190604081016020820135600160201b81111561026b57600080fd5b82018360208201111561027d57600080fd5b803590602001918460208302840111600160201b8311171561029e57600080fd5b91935091506001600160a01b0381351690602001356103e3565b3480156102c457600080fd5b506102cd610430565b604080516001600160a01b039092168252519081900360200190f35b3480156102f557600080fd5b5061021c61043f565b6101216004803603608081101561031457600080fd5b81359190810190604081016020820135600160201b81111561033557600080fd5b82018360208201111561034757600080fd5b803590602001918460208302840111600160201b8311171561036857600080fd5b91935091506001600160a01b038135169060200135610446565b60606103c5868686808060200260200160405190810160405280939291908181526020018383602002808284376000920191909152508892508791506104519050565b979650505050505050565b60609695505050505050565b620f423f81565b6060610426868686808060200260200160405190810160405280939291908181526020018383602002808284376000920191909152508892508791506104519050565b9695505050505050565b6000546001600160a01b031681565b620bde3181565b606095945050505050565b6060620bde3185141561049457835160010160405190808252806020026020018201604052801561048c578160200160208202803883390190505b5090506104c3565b83516040519080825280602002602001820160405280156104bf578160200160208202803883390190505b5090505b60005b84518110156104ef57858282815181106104dc57fe5b60209081029190910101526001016104c6565b50620f423f85146105a45760008460018651038151811061050c57fe5b60200260200101519050806001600160a01b03166340c10f1985886040518363ffffffff1660e01b815260040180836001600160a01b03166001600160a01b0316815260200182815260200192505050602060405180830381600087803b15801561057657600080fd5b505af115801561058a573d6000803e3d6000fd5b505050506040513d60208110156105a057600080fd5b5050505b94935050505056fea265627a7a723158206526dc39cf766e404cfc1289971d7ede2904b1815a8f5a21a311b5ed5bf03a3164736f6c63430005110032",
  "source": "pragma solidity 0.5.17;\n\nimport \"../../../../providers/uniswap/IUniswapV2Router02.sol\";\nimport \"../../../../mock/token/ERC20Mock.sol\";\n\ncontract UniswapV2Router02Mock is IUniswapV2Router02 {\n    uint24 public constant DONT_ALTER_BALANCE = 999999;\n    uint24 public constant SIMULATE_UNISWAP_RESPONSE_ERROR = 777777;\n\n    address public WETH;\n\n    constructor(address wethAddress) public {\n        WETH = wethAddress;\n    }\n\n    /**\n        @notice This function swaps tokens for tokens.\n        @dev We are using amountOutMin special numbers as flags to change behaviour.\n     */\n    function swapExactTokensForTokens(\n        uint256,\n        uint256 amountOutMin,\n        address[] calldata path,\n        address to,\n        uint256 deadline\n    ) external returns (uint256[] memory amounts) {\n        return _swap(amountOutMin, path, to, deadline);\n    }\n\n    /**\n        @notice This function swaps tokens for WETH tokens.\n        @dev https://uniswap.org/docs/v2/smart-contracts/router02/#weth\n        @dev We are using amountOutMin special numbers as flags to change behaviour.\n     */\n    function swapExactTokensForETH(\n        uint256,\n        uint256 amountOutMin,\n        address[] calldata path,\n        address to,\n        uint256 deadline\n    ) external returns (uint256[] memory amounts) {\n        return _swap(amountOutMin, path, to, deadline);\n    }\n\n    /**\n        @notice This function swaps ETH for tokens.\n        @dev We are using amountOutMin special numbers as flags to change behaviour.\n     */\n    function swapExactETHForTokens(\n        uint256 amountOutMin,\n        address[] calldata path,\n        address to,\n        uint256 deadline\n    ) external payable returns (uint256[] memory amounts) {\n        return _swap(amountOutMin, path, to, deadline);\n    }\n\n    function swapTokensForExactTokens(\n        uint256 amountOut,\n        uint256 amountInMax,\n        address[] calldata path,\n        address to,\n        uint256 deadline\n    ) external returns (uint256[] memory amounts) {}\n\n    function swapTokensForExactETH(\n        uint256 amountOut,\n        uint256 amountInMax,\n        address[] calldata path,\n        address to,\n        uint256 deadline\n    ) external returns (uint256[] memory amounts) {}\n\n    function swapETHForExactTokens(\n        uint256 amountOut,\n        address[] calldata path,\n        address to,\n        uint256 deadline\n    ) external payable returns (uint256[] memory amounts) {}\n\n    function _swap(\n        uint256 amountOutMin,\n        address[] memory path,\n        address to,\n        uint256\n    ) internal returns (uint256[] memory amounts) {\n        if (SIMULATE_UNISWAP_RESPONSE_ERROR == amountOutMin) {\n            amounts = new uint256[](path.length + 1);\n        } else {\n            amounts = new uint256[](path.length);\n        }\n        for (uint256 i; i < path.length; i++) {\n            amounts[i] = amountOutMin;\n        }\n        if (!(DONT_ALTER_BALANCE == amountOutMin)) {\n            ERC20Mock destinationToken = ERC20Mock(path[path.length - 1]);\n            destinationToken.mint(to, amountOutMin);\n        }\n    }\n}\n",
  "sourcePath": "/Users/guillesalazar/Repos/ZeroCollateral/smart-contracts-v1/contracts/mock/base/escrow/dapps/UniswapV2Router02Mock.sol",
  "compiler": {
    "name": "solc",
    "version": "0.5.17+commit.d19bba13.Emscripten.clang"
  },
  "schemaVersion": "3.2.3",
  "updatedAt": "2020-10-12T14:23:11.542Z",
  "devdoc": {
    "methods": {
      "swapExactETHForTokens(uint256,address[],address,uint256)": {
        "details": "We are using amountOutMin special numbers as flags to change behaviour."
      },
      "swapExactTokensForETH(uint256,uint256,address[],address,uint256)": {
        "details": "https://uniswap.org/docs/v2/smart-contracts/router02/#wethWe are using amountOutMin special numbers as flags to change behaviour."
      },
      "swapExactTokensForTokens(uint256,uint256,address[],address,uint256)": {
        "details": "We are using amountOutMin special numbers as flags to change behaviour."
      }
    }
  },
  "userdoc": {
    "methods": {
      "swapExactETHForTokens(uint256,address[],address,uint256)": {
        "notice": "This function swaps ETH for tokens."
      },
      "swapExactTokensForETH(uint256,uint256,address[],address,uint256)": {
        "notice": "This function swaps tokens for WETH tokens."
      },
      "swapExactTokensForTokens(uint256,uint256,address[],address,uint256)": {
        "notice": "This function swaps tokens for tokens."
      }
    }
  }
}