{
  "contractName": "UniswapMock",
  "abi": [
    {
      "inputs": [
        {
          "internalType": "address",
          "name": "wethAddress",
          "type": "address"
        }
      ],
      "payable": false,
      "stateMutability": "nonpayable",
      "type": "constructor"
    },
    {
      "anonymous": false,
      "inputs": [
        {
          "indexed": true,
          "internalType": "address",
          "name": "previousOwner",
          "type": "address"
        },
        {
          "indexed": true,
          "internalType": "address",
          "name": "newOwner",
          "type": "address"
        }
      ],
      "name": "OwnershipTransferred",
      "type": "event"
    },
    {
      "anonymous": false,
      "inputs": [
        {
          "indexed": true,
          "internalType": "address",
          "name": "sourceToken",
          "type": "address"
        },
        {
          "indexed": true,
          "internalType": "address",
          "name": "destinationToken",
          "type": "address"
        },
        {
          "indexed": false,
          "internalType": "uint256",
          "name": "sourceAmount",
          "type": "uint256"
        },
        {
          "indexed": false,
          "internalType": "uint256",
          "name": "destinationAmount",
          "type": "uint256"
        }
      ],
      "name": "UniswapSwapped",
      "type": "event"
    },
    {
      "payable": true,
      "stateMutability": "payable",
      "type": "fallback"
    },
    {
      "constant": true,
      "inputs": [
        {
          "internalType": "address",
          "name": "tokenAddress",
          "type": "address"
        }
      ],
      "name": "findTokenIndex",
      "outputs": [
        {
          "internalType": "int256",
          "name": "",
          "type": "int256"
        }
      ],
      "payable": false,
      "stateMutability": "view",
      "type": "function"
    },
    {
      "constant": true,
      "inputs": [],
      "name": "getTokens",
      "outputs": [
        {
          "internalType": "address[]",
          "name": "",
          "type": "address[]"
        }
      ],
      "payable": false,
      "stateMutability": "view",
      "type": "function"
    },
    {
      "constant": true,
      "inputs": [],
      "name": "implementation",
      "outputs": [
        {
          "internalType": "address",
          "name": "",
          "type": "address"
        }
      ],
      "payable": false,
      "stateMutability": "view",
      "type": "function"
    },
    {
      "constant": false,
      "inputs": [
        {
          "internalType": "address",
          "name": "sender",
          "type": "address"
        }
      ],
      "name": "initialize",
      "outputs": [],
      "payable": false,
      "stateMutability": "nonpayable",
      "type": "function"
    },
    {
      "constant": true,
      "inputs": [],
      "name": "isOwner",
      "outputs": [
        {
          "internalType": "bool",
          "name": "",
          "type": "bool"
        }
      ],
      "payable": false,
      "stateMutability": "view",
      "type": "function"
    },
    {
      "constant": true,
      "inputs": [],
      "name": "owner",
      "outputs": [
        {
          "internalType": "address",
          "name": "",
          "type": "address"
        }
      ],
      "payable": false,
      "stateMutability": "view",
      "type": "function"
    },
    {
      "constant": false,
      "inputs": [],
      "name": "renounceOwnership",
      "outputs": [],
      "payable": false,
      "stateMutability": "nonpayable",
      "type": "function"
    },
    {
      "constant": true,
      "inputs": [],
      "name": "router",
      "outputs": [
        {
          "internalType": "contract IUniswapV2Router02",
          "name": "",
          "type": "address"
        }
      ],
      "payable": false,
      "stateMutability": "view",
      "type": "function"
    },
    {
      "constant": true,
      "inputs": [
        {
          "internalType": "bool",
          "name": "failTransaction",
          "type": "bool"
        }
      ],
      "name": "testFunction",
      "outputs": [],
      "payable": false,
      "stateMutability": "pure",
      "type": "function"
    },
    {
      "constant": false,
      "inputs": [
        {
          "internalType": "address",
          "name": "newOwner",
          "type": "address"
        }
      ],
      "name": "transferOwnership",
      "outputs": [],
      "payable": false,
      "stateMutability": "nonpayable",
      "type": "function"
    },
    {
      "constant": false,
      "inputs": [
        {
          "internalType": "address[]",
          "name": "path",
          "type": "address[]"
        },
        {
          "internalType": "uint256",
          "name": "sourceAmount",
          "type": "uint256"
        },
        {
          "internalType": "uint256",
          "name": "minDestination",
          "type": "uint256"
        }
      ],
      "name": "swap",
      "outputs": [],
      "payable": false,
      "stateMutability": "nonpayable",
      "type": "function"
    }
  ],
  "bytecode": "0x60806040523480156200001157600080fd5b5060405162001ab138038062001ab1833981810160405260208110156200003757600080fd5b50516200005033620000b5602090811b6200055a17901c565b806040516200005f90620001be565b6001600160a01b03909116815260405190819003602001906000f0801580156200008d573d6000803e3d6000fd5b50606780546001600160a01b0319166001600160a01b039290921691909117905550620001cc565b600054610100900460ff1680620000da5750620000da6001600160e01b03620001b816565b80620000e9575060005460ff16155b620001265760405162461bcd60e51b815260040180806020018281038252602e81526020018062001a83602e913960400191505060405180910390fd5b600054610100900460ff1615801562000152576000805460ff1961ff0019909116610100171660011790555b603380546001600160a01b0319166001600160a01b0384811691909117918290556040519116906000907f8be0079c531659141344cd1fd0a4f28419497f9722a3daafe3b4186f6b6457e0908290a38015620001b4576000805461ff00191690555b5050565b303b1590565b610646806200143d83390190565b61126180620001dc6000396000f3fe60806040526004361061009c5760003560e01c80638da5cb5b116100645780638da5cb5b1461020a5780638f32d59b1461021f578063aa6ca80814610248578063c4d66de8146102ad578063f2fde38b146102e0578063f887ea40146103135761009c565b80630a11fd071461009e5780633f3e37e4146100e35780635c60da1b14610198578063715018a6146101c95780637216a096146101de575b005b3480156100aa57600080fd5b506100d1600480360360208110156100c157600080fd5b50356001600160a01b0316610328565b60408051918252519081900360200190f35b3480156100ef57600080fd5b5061009c6004803603606081101561010657600080fd5b81019060208101813564010000000081111561012157600080fd5b82018360208201111561013357600080fd5b8035906020019184602083028401116401000000008311171561015557600080fd5b9190808060200260200160405190810160405280939291908181526020018383602002808284376000920191909152509295505082359350505060200135610358565b3480156101a457600080fd5b506101ad6103ce565b604080516001600160a01b039092168252519081900360200190f35b3480156101d557600080fd5b5061009c6103d3565b3480156101ea57600080fd5b5061009c6004803603602081101561020157600080fd5b50351515610476565b34801561021657600080fd5b506101ad6104c3565b34801561022b57600080fd5b506102346104d2565b604080519115158252519081900360200190f35b34801561025457600080fd5b5061025d6104f8565b60408051602080825283518183015283519192839290830191858101910280838360005b83811015610299578181015183820152602001610281565b505050509050019250505060405180910390f35b3480156102b957600080fd5b5061009c600480360360208110156102d057600080fd5b50356001600160a01b031661055a565b3480156102ec57600080fd5b5061009c6004803603602081101561030357600080fd5b50356001600160a01b031661064c565b34801561031f57600080fd5b506101ad6106ae565b6000808061033d60668563ffffffff6106bd16565b915091508161034e57600019610350565b805b949350505050565b6103606104d2565b6103b1576040805162461bcd60e51b815260206004820181905260248201527f4f776e61626c653a2063616c6c6572206973206e6f7420746865206f776e6572604482015290519081900360640190fd5b6067546103c9906001600160a01b0316848484610712565b505050565b305b90565b6103db6104d2565b61042c576040805162461bcd60e51b815260206004820181905260248201527f4f776e61626c653a2063616c6c6572206973206e6f7420746865206f776e6572604482015290519081900360640190fd5b6033546040516000916001600160a01b0316907f8be0079c531659141344cd1fd0a4f28419497f9722a3daafe3b4186f6b6457e0908390a3603380546001600160a01b0319169055565b80156104c0576040805162461bcd60e51b8152602060048201526014602482015273151154d517d1955390d51253d397d1905253115160621b604482015290519081900360640190fd5b50565b6033546001600160a01b031690565b6033546000906001600160a01b03166104e9610be9565b6001600160a01b031614905090565b6060606680548060200260200160405190810160405280929190818152602001828054801561055057602002820191906000526020600020905b81546001600160a01b03168152600190910190602001808311610532575b5050505050905090565b600054610100900460ff16806105735750610573610bed565b80610581575060005460ff16155b6105bc5760405162461bcd60e51b815260040180806020018281038252602e8152602001806111ff602e913960400191505060405180910390fd5b600054610100900460ff161580156105e7576000805460ff1961ff0019909116610100171660011790555b603380546001600160a01b0319166001600160a01b0384811691909117918290556040519116906000907f8be0079c531659141344cd1fd0a4f28419497f9722a3daafe3b4186f6b6457e0908290a38015610648576000805461ff00191690555b5050565b6106546104d2565b6106a5576040805162461bcd60e51b815260206004820181905260248201527f4f776e61626c653a2063616c6c6572206973206e6f7420746865206f776e6572604482015290519081900360640190fd5b6104c081610bf3565b6067546001600160a01b031681565b6000805b835481101561070b57826001600160a01b03168482815481106106e057fe5b6000918252602090912001546001600160a01b031614915081156107035761070b565b6001016106c1565b9250929050565b600283511015610762576040805162461bcd60e51b815260206004820152601660248201527515539254d5d05417d410551217d513d3d7d4d213d49560521b604482015290519081900360640190fd5b60008360008151811061077157fe5b6020026020010151905060008460018651038151811061078d57fe5b60200260200101519050836107a183610c94565b10156107f4576040805162461bcd60e51b815260206004820152601b60248201527f554e49535741505f494e53554646494349454e545f534f555243450000000000604482015290519081900360640190fd5b610828816040518060600160405280602381526020016111dc602391396001600160a01b038516919063ffffffff610d1016565b6000831161087d576040805162461bcd60e51b815260206004820152601c60248201527f554e49535741505f4d494e5f44455354494e4154494f4e5f5a45524f00000000604482015290519081900360640190fd5b600061088882610c94565b9050826001600160a01b031663095ea7b388876040518363ffffffff1660e01b815260040180836001600160a01b03166001600160a01b0316815260200182815260200192505050602060405180830381600087803b1580156108ea57600080fd5b505af11580156108fe573d6000803e3d6000fd5b505050506040513d602081101561091457600080fd5b8101908080519060200190929190505050506060876001600160a01b03166338ed173987878a30426040518663ffffffff1660e01b81526004018086815260200185815260200180602001846001600160a01b03166001600160a01b03168152602001838152602001828103825285818151815260200191508051906020019060200280838360005b838110156109b557818101518382015260200161099d565b505050509050019650505050505050600060405180830381600087803b1580156109de57600080fd5b505af11580156109f2573d6000803e3d6000fd5b505050506040513d6000823e601f3d908101601f191682016040526020811015610a1b57600080fd5b8101908080516040519392919084640100000000821115610a3b57600080fd5b908301906020820185811115610a5057600080fd5b8251866020820283011164010000000082111715610a6d57600080fd5b82525081516020918201928201910280838360005b83811015610a9a578181015183820152602001610a82565b5050505090500160405250505090506000610ab484610c94565b9050858301811015610b0d576040805162461bcd60e51b815260206004820152601d60248201527f554e49535741505f42414c414e43455f4e4f545f494e43524541534544000000604482015290519081900360640190fd5b8751825114610b5c576040805162461bcd60e51b8152602060048201526016602482015275554e49535741505f4552524f525f5357415050494e4760501b604482015290519081900360640190fd5b600082600184510381518110610b6e57fe5b60200260200101519050610b8186610daa565b610b8a85610daa565b846001600160a01b0316866001600160a01b03167f1bb1e73a9804d75cf23770eb841f89d3179041febf415b046d77b318d3b5530d8a84604051808381526020018281526020019250505060405180910390a350505050505050505050565b3390565b303b1590565b6001600160a01b038116610c385760405162461bcd60e51b81526004018080602001828103825260268152602001806111b66026913960400191505060405180910390fd5b6033546040516001600160a01b038084169216907f8be0079c531659141344cd1fd0a4f28419497f9722a3daafe3b4186f6b6457e090600090a3603380546001600160a01b0319166001600160a01b0392909216919091179055565b604080516370a0823160e01b815230600482015290516000916001600160a01b038416916370a0823191602480820192602092909190829003018186803b158015610cde57600080fd5b505afa158015610cf2573d6000803e3d6000fd5b505050506040513d6020811015610d0857600080fd5b505192915050565b610d1a8383610e07565b8190610da45760405162461bcd60e51b81526004018080602001828103825283818151815260200191508051906020019080838360005b83811015610d69578181015183820152602001610d51565b50505050905090810190601f168015610d965780820380516001836020036101000a031916815260200191505b509250505060405180910390fd5b50505050565b600080610dbe60668463ffffffff6106bd16565b915091506000610dcd84610c94565b1115610df05781610deb57610de960668463ffffffff610e1e16565b505b6103c9565b81156103c957610da460668263ffffffff610f0716565b6001600160a01b0382811690821614155b92915050565b60606001600160a01b038216610e7b576040805162461bcd60e51b815260206004820152601960248201527f454d5054595f414444524553535f4e4f545f414c4c4f57454400000000000000604482015290519081900360640190fd5b8254600181018455600084815260209081902090910180546001600160a01b0319166001600160a01b0385161790558354604080518284028101840190915281815291859190830182828015610efa57602002820191906000526020600020905b81546001600160a01b03168152600190910190602001808311610edc575b5050505050905092915050565b81546060908210610f6f57825460408051602080840282018101909252828152918591830182828015610f6357602002820191906000526020600020905b81546001600160a01b03168152600190910190602001808311610f45575b50505050509050610e18565b82546000190182141561101357825483906000198101908110610f8e57fe5b600091825260209091200180546001600160a01b03191690558254610fb7846000198301611178565b50825460408051602080840282018101909252828152918591830182828015610f63576020028201919060005260206000209081546001600160a01b03168152600190910190602001808311610f455750505050509050610e18565b82546000908490600019810190811061102857fe5b60009182526020909120015484546001600160a01b03909116915084908490811061104f57fe5b60009182526020909120015484546001600160a01b03909116908590600019810190811061107957fe5b9060005260206000200160006101000a8154816001600160a01b0302191690836001600160a01b03160217905550808484815481106110b457fe5b600091825260209091200180546001600160a01b0319166001600160a01b03929092169190911790558354849060001981019081106110ef57fe5b600091825260209091200180546001600160a01b03191690558354611118856000198301611178565b5083546040805160208084028201810190925282815291869183018282801561116a57602002820191906000526020600020905b81546001600160a01b0316815260019091019060200180831161114c575b505050505091505092915050565b8154818355818111156103c9576000838152602090206103c99181019083016103d091905b808211156111b1576000815560010161119d565b509056fe4f776e61626c653a206e6577206f776e657220697320746865207a65726f2061646472657373554e49535741505f534f555243455f414e445f44455354494e4154494f4e5f53414d45436f6e747261637420696e7374616e63652068617320616c7265616479206265656e20696e697469616c697a6564a265627a7a7231582008fdd4cf5fae298b22483c5b5f8f853cf48d124802d05687a86f2946f525643b64736f6c63430005110032608060405234801561001057600080fd5b506040516106463803806106468339818101604052602081101561003357600080fd5b5051600080546001600160a01b039092166001600160a01b03199092169190911790556105e1806100656000396000f3fe6080604052600436106100865760003560e01c80637ff36ab5116100595780637ff36ab5146102345780638803dbee14610171578063ad5c4648146102b8578063eb489aea146102e9578063fb3bdb41146102fe57610086565b806318cbafe51461008b57806338ed17391461008b5780634a25d94a146101715780637ac574d814610207575b600080fd5b34801561009757600080fd5b50610121600480360360a08110156100ae57600080fd5b813591602081013591810190606081016040820135600160201b8111156100d457600080fd5b8201836020820111156100e657600080fd5b803590602001918460208302840111600160201b8311171561010757600080fd5b91935091506001600160a01b038135169060200135610382565b60408051602080825283518183015283519192839290830191858101910280838360005b8381101561015d578181015183820152602001610145565b505050509050019250505060405180910390f35b34801561017d57600080fd5b50610121600480360360a081101561019457600080fd5b813591602081013591810190606081016040820135600160201b8111156101ba57600080fd5b8201836020820111156101cc57600080fd5b803590602001918460208302840111600160201b831117156101ed57600080fd5b91935091506001600160a01b0381351690602001356103d0565b34801561021357600080fd5b5061021c6103dc565b6040805162ffffff9092168252519081900360200190f35b6101216004803603608081101561024a57600080fd5b81359190810190604081016020820135600160201b81111561026b57600080fd5b82018360208201111561027d57600080fd5b803590602001918460208302840111600160201b8311171561029e57600080fd5b91935091506001600160a01b0381351690602001356103e3565b3480156102c457600080fd5b506102cd610430565b604080516001600160a01b039092168252519081900360200190f35b3480156102f557600080fd5b5061021c61043f565b6101216004803603608081101561031457600080fd5b81359190810190604081016020820135600160201b81111561033557600080fd5b82018360208201111561034757600080fd5b803590602001918460208302840111600160201b8311171561036857600080fd5b91935091506001600160a01b038135169060200135610446565b60606103c5868686808060200260200160405190810160405280939291908181526020018383602002808284376000920191909152508892508791506104519050565b979650505050505050565b60609695505050505050565b620f423f81565b6060610426868686808060200260200160405190810160405280939291908181526020018383602002808284376000920191909152508892508791506104519050565b9695505050505050565b6000546001600160a01b031681565b620bde3181565b606095945050505050565b6060620bde3185141561049457835160010160405190808252806020026020018201604052801561048c578160200160208202803883390190505b5090506104c3565b83516040519080825280602002602001820160405280156104bf578160200160208202803883390190505b5090505b60005b84518110156104ef57858282815181106104dc57fe5b60209081029190910101526001016104c6565b50620f423f85146105a45760008460018651038151811061050c57fe5b60200260200101519050806001600160a01b03166340c10f1985886040518363ffffffff1660e01b815260040180836001600160a01b03166001600160a01b0316815260200182815260200192505050602060405180830381600087803b15801561057657600080fd5b505af115801561058a573d6000803e3d6000fd5b505050506040513d60208110156105a057600080fd5b5050505b94935050505056fea265627a7a723158206526dc39cf766e404cfc1289971d7ede2904b1815a8f5a21a311b5ed5bf03a3164736f6c63430005110032436f6e747261637420696e7374616e63652068617320616c7265616479206265656e20696e697469616c697a6564",
  "source": "pragma solidity 0.5.17;\n\nimport \"./UniswapV2Router02Mock.sol\";\nimport \"../../../../base/escrow/dapps/Uniswap.sol\";\nimport \"./DappMock.sol\";\n\n/**\n    @notice This mock is used to expose a payable fallback function on tests.f\n */\ncontract UniswapMock is DappMock, Uniswap {\n    IUniswapV2Router02 public router;\n\n    constructor(address wethAddress) public {\n        Ownable.initialize(msg.sender);\n        router = new UniswapV2Router02Mock(wethAddress);\n    }\n\n    function swap(\n        address[] memory path,\n        uint256 sourceAmount,\n        uint256 minDestination\n    ) public onlyOwner() {\n        _swap(router, path, sourceAmount, minDestination);\n    }\n\n    function() external payable {}\n}\n",
  "sourcePath": "/Users/guillesalazar/Repos/ZeroCollateral/smart-contracts-v1/contracts/mock/base/escrow/dapps/UniswapMock.sol",
  "compiler": {
    "name": "solc",
    "version": "0.5.17+commit.d19bba13.Emscripten.clang"
  },
  "schemaVersion": "3.2.3",
  "updatedAt": "2020-10-12T14:23:11.541Z",
  "devdoc": {
    "methods": {
      "initialize(address)": {
        "details": "Initializes the contract setting the deployer as the initial owner."
      },
      "isOwner()": {
        "details": "Returns true if the caller is the current owner."
      },
      "owner()": {
        "details": "Returns the address of the current owner."
      },
      "renounceOwnership()": {
        "details": "Leaves the contract without owner. It will not be possible to call `onlyOwner` functions anymore. Can only be called by the current owner.     * > Note: Renouncing ownership will leave the contract without an owner, thereby removing any functionality that is only available to the owner."
      },
      "transferOwnership(address)": {
        "details": "Transfers ownership of the contract to a new account (`newOwner`). Can only be called by the current owner."
      }
    }
  },
  "userdoc": {
    "methods": {},
    "notice": "This mock is used to expose a payable fallback function on tests.f"
  }
}