{
  "contractName": "UpgradeableProxy",
  "abi": [
    {
      "anonymous": false,
      "inputs": [
        {
          "indexed": true,
          "internalType": "address",
          "name": "implementation",
          "type": "address"
        }
      ],
      "name": "Upgraded",
      "type": "event"
    },
    {
      "payable": true,
      "stateMutability": "payable",
      "type": "fallback"
    },
    {
      "constant": true,
      "inputs": [],
      "name": "implementation",
      "outputs": [
        {
          "internalType": "address",
          "name": "",
          "type": "address"
        }
      ],
      "payable": false,
      "stateMutability": "view",
      "type": "function"
    },
    {
      "constant": true,
      "inputs": [],
      "name": "settings",
      "outputs": [
        {
          "internalType": "contract SettingsInterface",
          "name": "",
          "type": "address"
        }
      ],
      "payable": false,
      "stateMutability": "view",
      "type": "function"
    },
    {
      "constant": false,
      "inputs": [
        {
          "internalType": "address",
          "name": "settingsAddress",
          "type": "address"
        },
        {
          "internalType": "address",
          "name": "initialLogic",
          "type": "address"
        }
      ],
      "name": "initializeProxy",
      "outputs": [],
      "payable": false,
      "stateMutability": "nonpayable",
      "type": "function"
    },
    {
      "constant": false,
      "inputs": [
        {
          "internalType": "address",
          "name": "newLogic",
          "type": "address"
        }
      ],
      "name": "upgradeTo",
      "outputs": [],
      "payable": false,
      "stateMutability": "nonpayable",
      "type": "function"
    }
  ],
  "bytecode": "0x608060405234801561001057600080fd5b5061050a806100206000396000f3fe60806040526004361061003f5760003560e01c80630bbea5f4146100495780633659cfe6146100845780635c60da1b146100b7578063e06174e4146100e8575b6100476100fd565b005b34801561005557600080fd5b506100476004803603604081101561006c57600080fd5b506001600160a01b0381358116916020013516610117565b34801561009057600080fd5b50610047600480360360208110156100a757600080fd5b50356001600160a01b03166101f3565b3480156100c357600080fd5b506100cc610274565b604080516001600160a01b039092168252519081900360200190f35b3480156100f457600080fd5b506100cc610283565b610105610115565b6101156101106102b4565b6102d9565b565b610129826001600160a01b03166102fd565b61017a576040805162461bcd60e51b815260206004820152601760248201527f53455454494e47535f4e4f545f415f434f4e5452414354000000000000000000604482015290519081900360640190fd5b61018c816001600160a01b03166102fd565b6101dd576040805162461bcd60e51b815260206004820152601c60248201527f494e495449414c5f4c4f4749435f4e4f545f415f434f4e545241435400000000604482015290519081900360640190fd5b6101e682610339565b6101ef816103ec565b5050565b6101fb610283565b6001600160a01b031663c095ea27336040518263ffffffff1660e01b815260040180826001600160a01b03166001600160a01b0316815260200191505060006040518083038186803b15801561025057600080fd5b505afa158015610264573d6000803e3d6000fd5b5050505061027181610454565b50565b600061027e6102b4565b905090565b6040805177426173655570677261646561626c652e73657474696e677360401b815290519081900360180190205490565b7f360894a13ba1a3210667c828492db98dca3e2076cc3735a920a3ca505d382bbc5490565b3660008037600080366000845af43d6000803e8080156102f8573d6000f35b3d6000fd5b6000813f7fc5d2460186f7233c927e7db2dcc703c0e500b653ca82273b7bfad8045d85a47081811480159061033157508115155b949350505050565b6000610343610283565b6001600160a01b0316146103b957610363816001600160a01b03166102fd565b6103b4576040805162461bcd60e51b815260206004820152601b60248201527f53455454494e47535f4d5553545f42455f415f434f4e54524143540000000000604482015290519081900360640190fd5b610271565b6040805177426173655570677261646561626c652e73657474696e677360401b8152905190819003601801902081905550565b6103f581610494565b6104305760405162461bcd60e51b815260040180806020018281038252603b81526020018061049b603b913960400191505060405180910390fd5b7f360894a13ba1a3210667c828492db98dca3e2076cc3735a920a3ca505d382bbc55565b61045d816103ec565b6040516001600160a01b038216907fbc7cd75a20ee27fd9adebab32041f755214dbc6bffa90cc0225b39da2e5c2d3b90600090a250565b3b15159056fe43616e6e6f742073657420612070726f787920696d706c656d656e746174696f6e20746f2061206e6f6e2d636f6e74726163742061646472657373a265627a7a7231582030d9a4f5f9a7b6b694334cbaa45b10a5a3d9ad40eecbad086e0efc86b2cd9d7664736f6c63430005110032",
  "source": "pragma solidity 0.5.17;\n\n// Contracts\nimport \"@openzeppelin/upgrades/contracts/upgradeability/BaseUpgradeabilityProxy.sol\";\nimport \"./BaseUpgradeable.sol\";\nimport \"./BaseProxy.sol\";\n\ncontract UpgradeableProxy is BaseUpgradeabilityProxy, BaseUpgradeable, BaseProxy {\n    /**\n        @notice It initializes this proxy instance.\n        @param settingsAddress the settings address.\n        @param initialLogic the initial logic address.\n     */\n    function initializeProxy(address settingsAddress, address initialLogic) public {\n        require(settingsAddress.isContract(), \"SETTINGS_NOT_A_CONTRACT\");\n        require(initialLogic.isContract(), \"INITIAL_LOGIC_NOT_A_CONTRACT\");\n\n        _setSettings(settingsAddress);\n        _setImplementation(initialLogic);\n    }\n\n    /**\n        @notice It upgrades the current logic to a new logic address.\n        @param newLogic the new logic address.\n     */\n    function upgradeTo(address newLogic) public onlyPauser() {\n        BaseUpgradeabilityProxy._upgradeTo(newLogic);\n    }\n}\n",
  "sourcePath": "/Users/sy/Documents/GitHub/teller-protocol-v1/contracts/base/UpgradeableProxy.sol",
  "compiler": {
    "name": "solc",
    "version": "0.5.17+commit.d19bba13.Emscripten.clang"
  },
  "schemaVersion": "3.0.23",
  "updatedAt": "2020-09-06T02:15:12.360Z",
  "devdoc": {
    "methods": {
      "implementation()": {
        "return": "Address of the current implementation"
      },
      "initializeProxy(address,address)": {
        "params": {
          "initialLogic": "the initial logic address.",
          "settingsAddress": "the settings address."
        }
      },
      "upgradeTo(address)": {
        "params": {
          "newLogic": "the new logic address."
        }
      }
    }
  },
  "userdoc": {
    "methods": {
      "implementation()": {
        "notice": "Returns the current implementation."
      },
      "initializeProxy(address,address)": {
        "notice": "It initializes this proxy instance."
      },
      "settings()": {
        "notice": "The settings contract."
      },
      "upgradeTo(address)": {
        "notice": "It upgrades the current logic to a new logic address."
      }
    }
  }
}