{
  "contractName": "UpgradableV2",
  "abi": [
    {
      "payable": true,
      "stateMutability": "payable",
      "type": "fallback"
    },
    {
      "constant": false,
      "inputs": [
        {
          "internalType": "uint256",
          "name": "initValue",
          "type": "uint256"
        }
      ],
      "name": "initialize",
      "outputs": [],
      "payable": false,
      "stateMutability": "nonpayable",
      "type": "function"
    },
    {
      "constant": true,
      "inputs": [],
      "name": "initialized",
      "outputs": [
        {
          "internalType": "bool",
          "name": "value",
          "type": "bool"
        }
      ],
      "payable": false,
      "stateMutability": "view",
      "type": "function"
    },
    {
      "constant": false,
      "inputs": [
        {
          "internalType": "address payable",
          "name": "to",
          "type": "address"
        },
        {
          "internalType": "uint256",
          "name": "amount",
          "type": "uint256"
        }
      ],
      "name": "sendETH",
      "outputs": [],
      "payable": false,
      "stateMutability": "nonpayable",
      "type": "function"
    },
    {
      "constant": false,
      "inputs": [
        {
          "internalType": "address",
          "name": "tokenAddress",
          "type": "address"
        },
        {
          "internalType": "address",
          "name": "to",
          "type": "address"
        },
        {
          "internalType": "uint256",
          "name": "amount",
          "type": "uint256"
        }
      ],
      "name": "sendToken",
      "outputs": [],
      "payable": false,
      "stateMutability": "nonpayable",
      "type": "function"
    },
    {
      "constant": true,
      "inputs": [],
      "name": "value",
      "outputs": [
        {
          "internalType": "uint256",
          "name": "",
          "type": "uint256"
        }
      ],
      "payable": false,
      "stateMutability": "view",
      "type": "function"
    },
    {
      "constant": false,
      "inputs": [
        {
          "internalType": "uint256",
          "name": "newValue",
          "type": "uint256"
        }
      ],
      "name": "setValue",
      "outputs": [],
      "payable": false,
      "stateMutability": "nonpayable",
      "type": "function"
    },
    {
      "constant": false,
      "inputs": [
        {
          "internalType": "uint256",
          "name": "amount",
          "type": "uint256"
        }
      ],
      "name": "sendETHToSender",
      "outputs": [],
      "payable": false,
      "stateMutability": "nonpayable",
      "type": "function"
    },
    {
      "constant": false,
      "inputs": [
        {
          "internalType": "address",
          "name": "tokenAddress",
          "type": "address"
        },
        {
          "internalType": "uint256",
          "name": "amount",
          "type": "uint256"
        }
      ],
      "name": "sendTokenToSender",
      "outputs": [],
      "payable": false,
      "stateMutability": "nonpayable",
      "type": "function"
    }
  ],
  "bytecode": "0x608060405234801561001057600080fd5b506103f3806100206000396000f3fe60806040526004361061007b5760003560e01c806364a197f31161004e57806364a197f31461013a57806395794ab014610173578063a4faa0091461019d578063fe4b84df146101d65761007b565b8063158ef93e1461007d5780632fdcfbd2146100a65780633fa4f245146100e95780635524107714610110575b005b34801561008957600080fd5b50610092610200565b604080519115158252519081900360200190f35b3480156100b257600080fd5b5061007b600480360360608110156100c957600080fd5b506001600160a01b03813581169160208101359091169060400135610236565b3480156100f557600080fd5b506100fe6102c7565b60408051918252519081900360200190f35b34801561011c57600080fd5b5061007b6004803603602081101561013357600080fd5b50356102cd565b34801561014657600080fd5b5061007b6004803603604081101561015d57600080fd5b506001600160a01b0381351690602001356102d2565b34801561017f57600080fd5b5061007b6004803603602081101561019657600080fd5b503561030d565b3480156101a957600080fd5b5061007b600480360360408110156101c057600080fd5b506001600160a01b03813516906020013561031a565b3480156101e257600080fd5b5061007b600480360360208110156101f957600080fd5b5035610329565b604080517f54496e697469616c697a61626c652e6973496e697469616c697a6564000000008152905190819003601c0190205490565b826001600160a01b031663a9059cbb83836040518363ffffffff1660e01b815260040180836001600160a01b03166001600160a01b0316815260200182815260200192505050602060405180830381600087803b15801561029657600080fd5b505af11580156102aa573d6000803e3d6000fd5b505050506040513d60208110156102c057600080fd5b5050505050565b60005481565b600055565b6040516001600160a01b0383169082156108fc029083906000818181858888f19350505050158015610308573d6000803e3d6000fd5b505050565b61031733826102d2565b50565b610325823383610236565b5050565b610331610200565b15610383576040805162461bcd60e51b815260206004820152601c60248201527f434f4e54524143545f414c52454144595f494e495449414c495a454400000000604482015290519081900360640190fd5b6102cd604080517f54496e697469616c697a61626c652e6973496e697469616c697a6564000000008152905190819003601c0190206001905556fea265627a7a72315820f2373e4d3b2048be314f2c012d470c65eb23180240b9c334d21fb3591b2c655264736f6c63430005110032",
  "source": "pragma solidity 0.5.17;\n\nimport \"./UpgradableV1.sol\";\n\ncontract UpgradableV2 is UpgradableV1 {\n    function setValue(uint256 newValue) external {\n        value = newValue;\n    }\n\n    function sendETHToSender(uint256 amount) public {\n        sendETH(msg.sender, amount);\n    }\n\n    function sendTokenToSender(address tokenAddress, uint256 amount) public {\n        sendToken(tokenAddress, msg.sender, amount);\n    }\n}\n",
  "sourcePath": "/Users/sy/Documents/GitHub/teller-protocol-v1/contracts/mock/upgradable/UpgradableV2.sol",
  "compiler": {
    "name": "solc",
    "version": "0.5.17+commit.d19bba13.Emscripten.clang"
  },
  "schemaVersion": "3.0.23",
  "updatedAt": "2020-09-06T02:15:12.557Z",
  "devdoc": {
    "methods": {
      "initialized()": {
        "return": "true if contract is initialized. Otherwise it returns false."
      }
    }
  },
  "userdoc": {
    "methods": {
      "initialized()": {
        "notice": "Gets if the contract is initialized."
      }
    }
  }
}