{
  "contractName": "UpgradableV1",
  "abi": [
    {
      "payable": true,
      "stateMutability": "payable",
      "type": "fallback"
    },
    {
      "constant": true,
      "inputs": [],
      "name": "initialized",
      "outputs": [
        {
          "internalType": "bool",
          "name": "value",
          "type": "bool"
        }
      ],
      "payable": false,
      "stateMutability": "view",
      "type": "function"
    },
    {
      "constant": true,
      "inputs": [],
      "name": "value",
      "outputs": [
        {
          "internalType": "uint256",
          "name": "",
          "type": "uint256"
        }
      ],
      "payable": false,
      "stateMutability": "view",
      "type": "function"
    },
    {
      "constant": false,
      "inputs": [
        {
          "internalType": "uint256",
          "name": "initValue",
          "type": "uint256"
        }
      ],
      "name": "initialize",
      "outputs": [],
      "payable": false,
      "stateMutability": "nonpayable",
      "type": "function"
    },
    {
      "constant": false,
      "inputs": [
        {
          "internalType": "address payable",
          "name": "to",
          "type": "address"
        },
        {
          "internalType": "uint256",
          "name": "amount",
          "type": "uint256"
        }
      ],
      "name": "sendETH",
      "outputs": [],
      "payable": false,
      "stateMutability": "nonpayable",
      "type": "function"
    },
    {
      "constant": false,
      "inputs": [
        {
          "internalType": "address",
          "name": "tokenAddress",
          "type": "address"
        },
        {
          "internalType": "address",
          "name": "to",
          "type": "address"
        },
        {
          "internalType": "uint256",
          "name": "amount",
          "type": "uint256"
        }
      ],
      "name": "sendToken",
      "outputs": [],
      "payable": false,
      "stateMutability": "nonpayable",
      "type": "function"
    }
  ],
  "bytecode": "0x608060405234801561001057600080fd5b5061031e806100206000396000f3fe60806040526004361061004a5760003560e01c8063158ef93e1461004c5780632fdcfbd2146100755780633fa4f245146100b857806364a197f3146100df578063fe4b84df14610118575b005b34801561005857600080fd5b50610061610142565b604080519115158252519081900360200190f35b34801561008157600080fd5b5061004a6004803603606081101561009857600080fd5b506001600160a01b03813581169160208101359091169060400135610178565b3480156100c457600080fd5b506100cd610209565b60408051918252519081900360200190f35b3480156100eb57600080fd5b5061004a6004803603604081101561010257600080fd5b506001600160a01b03813516906020013561020f565b34801561012457600080fd5b5061004a6004803603602081101561013b57600080fd5b503561024a565b604080517f54496e697469616c697a61626c652e6973496e697469616c697a6564000000008152905190819003601c0190205490565b826001600160a01b031663a9059cbb83836040518363ffffffff1660e01b815260040180836001600160a01b03166001600160a01b0316815260200182815260200192505050602060405180830381600087803b1580156101d857600080fd5b505af11580156101ec573d6000803e3d6000fd5b505050506040513d602081101561020257600080fd5b5050505050565b60005481565b6040516001600160a01b0383169082156108fc029083906000818181858888f19350505050158015610245573d6000803e3d6000fd5b505050565b610252610142565b156102a4576040805162461bcd60e51b815260206004820152601c60248201527f434f4e54524143545f414c52454144595f494e495449414c495a454400000000604482015290519081900360640190fd5b6102ac6102b1565b600055565b604080517f54496e697469616c697a61626c652e6973496e697469616c697a6564000000008152905190819003601c0190206001905556fea265627a7a72315820bb3ec56b9f7250d3ba529b35d116bcd36c5f359fc1e1b97962a884a9f355373564736f6c63430005110032",
  "source": "pragma solidity 0.5.17;\n\nimport \"@openzeppelin/contracts-ethereum-package/contracts/token/ERC20/IERC20.sol\";\n\nimport \"../../base/TInitializable.sol\";\n\ncontract UpgradableV1 is TInitializable {\n    uint256 public value;\n\n    function initialize(uint256 initValue) external isNotInitialized {\n        _initialize();\n\n        value = initValue;\n    }\n\n    function sendETH(address payable to, uint256 amount) public {\n        to.transfer(amount);\n    }\n\n    function sendToken(\n        address tokenAddress,\n        address to,\n        uint256 amount\n    ) public {\n        IERC20(tokenAddress).transfer(to, amount);\n    }\n\n    function() external payable {}\n}\n",
  "sourcePath": "/Users/sy/Documents/GitHub/teller-protocol-v1/contracts/mock/upgradable/UpgradableV1.sol",
  "compiler": {
    "name": "solc",
    "version": "0.5.17+commit.d19bba13.Emscripten.clang"
  },
  "schemaVersion": "3.0.23",
  "updatedAt": "2020-09-06T02:15:12.555Z",
  "devdoc": {
    "methods": {
      "initialized()": {
        "return": "true if contract is initialized. Otherwise it returns false."
      }
    }
  },
  "userdoc": {
    "methods": {
      "initialized()": {
        "notice": "Gets if the contract is initialized."
      }
    }
  }
}