{
  "contractName": "USDCMock",
  "abi": [
    {
      "inputs": [],
      "payable": false,
      "stateMutability": "nonpayable",
      "type": "constructor"
    },
    {
      "anonymous": false,
      "inputs": [
        {
          "indexed": true,
          "internalType": "address",
          "name": "owner",
          "type": "address"
        },
        {
          "indexed": true,
          "internalType": "address",
          "name": "spender",
          "type": "address"
        },
        {
          "indexed": false,
          "internalType": "uint256",
          "name": "value",
          "type": "uint256"
        }
      ],
      "name": "Approval",
      "type": "event"
    },
    {
      "anonymous": false,
      "inputs": [
        {
          "indexed": true,
          "internalType": "address",
          "name": "account",
          "type": "address"
        }
      ],
      "name": "MinterAdded",
      "type": "event"
    },
    {
      "anonymous": false,
      "inputs": [
        {
          "indexed": true,
          "internalType": "address",
          "name": "account",
          "type": "address"
        }
      ],
      "name": "MinterRemoved",
      "type": "event"
    },
    {
      "anonymous": false,
      "inputs": [
        {
          "indexed": true,
          "internalType": "address",
          "name": "from",
          "type": "address"
        },
        {
          "indexed": true,
          "internalType": "address",
          "name": "to",
          "type": "address"
        },
        {
          "indexed": false,
          "internalType": "uint256",
          "name": "value",
          "type": "uint256"
        }
      ],
      "name": "Transfer",
      "type": "event"
    },
    {
      "constant": false,
      "inputs": [
        {
          "internalType": "address",
          "name": "account",
          "type": "address"
        }
      ],
      "name": "addMinter",
      "outputs": [],
      "payable": false,
      "stateMutability": "nonpayable",
      "type": "function"
    },
    {
      "constant": true,
      "inputs": [
        {
          "internalType": "address",
          "name": "owner",
          "type": "address"
        },
        {
          "internalType": "address",
          "name": "spender",
          "type": "address"
        }
      ],
      "name": "allowance",
      "outputs": [
        {
          "internalType": "uint256",
          "name": "",
          "type": "uint256"
        }
      ],
      "payable": false,
      "stateMutability": "view",
      "type": "function"
    },
    {
      "constant": false,
      "inputs": [
        {
          "internalType": "address",
          "name": "spender",
          "type": "address"
        },
        {
          "internalType": "uint256",
          "name": "amount",
          "type": "uint256"
        }
      ],
      "name": "approve",
      "outputs": [
        {
          "internalType": "bool",
          "name": "",
          "type": "bool"
        }
      ],
      "payable": false,
      "stateMutability": "nonpayable",
      "type": "function"
    },
    {
      "constant": true,
      "inputs": [
        {
          "internalType": "address",
          "name": "account",
          "type": "address"
        }
      ],
      "name": "balanceOf",
      "outputs": [
        {
          "internalType": "uint256",
          "name": "",
          "type": "uint256"
        }
      ],
      "payable": false,
      "stateMutability": "view",
      "type": "function"
    },
    {
      "constant": false,
      "inputs": [
        {
          "internalType": "uint256",
          "name": "amount",
          "type": "uint256"
        }
      ],
      "name": "burn",
      "outputs": [],
      "payable": false,
      "stateMutability": "nonpayable",
      "type": "function"
    },
    {
      "constant": false,
      "inputs": [
        {
          "internalType": "address",
          "name": "account",
          "type": "address"
        },
        {
          "internalType": "uint256",
          "name": "amount",
          "type": "uint256"
        }
      ],
      "name": "burnFrom",
      "outputs": [],
      "payable": false,
      "stateMutability": "nonpayable",
      "type": "function"
    },
    {
      "constant": true,
      "inputs": [],
      "name": "decimals",
      "outputs": [
        {
          "internalType": "uint8",
          "name": "",
          "type": "uint8"
        }
      ],
      "payable": false,
      "stateMutability": "view",
      "type": "function"
    },
    {
      "constant": false,
      "inputs": [
        {
          "internalType": "address",
          "name": "spender",
          "type": "address"
        },
        {
          "internalType": "uint256",
          "name": "subtractedValue",
          "type": "uint256"
        }
      ],
      "name": "decreaseAllowance",
      "outputs": [
        {
          "internalType": "bool",
          "name": "",
          "type": "bool"
        }
      ],
      "payable": false,
      "stateMutability": "nonpayable",
      "type": "function"
    },
    {
      "constant": false,
      "inputs": [
        {
          "internalType": "address",
          "name": "spender",
          "type": "address"
        },
        {
          "internalType": "uint256",
          "name": "addedValue",
          "type": "uint256"
        }
      ],
      "name": "increaseAllowance",
      "outputs": [
        {
          "internalType": "bool",
          "name": "",
          "type": "bool"
        }
      ],
      "payable": false,
      "stateMutability": "nonpayable",
      "type": "function"
    },
    {
      "constant": false,
      "inputs": [
        {
          "internalType": "string",
          "name": "name",
          "type": "string"
        },
        {
          "internalType": "string",
          "name": "symbol",
          "type": "string"
        },
        {
          "internalType": "uint8",
          "name": "decimals",
          "type": "uint8"
        }
      ],
      "name": "initialize",
      "outputs": [],
      "payable": false,
      "stateMutability": "nonpayable",
      "type": "function"
    },
    {
      "constant": false,
      "inputs": [
        {
          "internalType": "address",
          "name": "sender",
          "type": "address"
        }
      ],
      "name": "initialize",
      "outputs": [],
      "payable": false,
      "stateMutability": "nonpayable",
      "type": "function"
    },
    {
      "constant": true,
      "inputs": [
        {
          "internalType": "address",
          "name": "account",
          "type": "address"
        }
      ],
      "name": "isMinter",
      "outputs": [
        {
          "internalType": "bool",
          "name": "",
          "type": "bool"
        }
      ],
      "payable": false,
      "stateMutability": "view",
      "type": "function"
    },
    {
      "constant": false,
      "inputs": [
        {
          "internalType": "address",
          "name": "account",
          "type": "address"
        },
        {
          "internalType": "uint256",
          "name": "amount",
          "type": "uint256"
        }
      ],
      "name": "mint",
      "outputs": [
        {
          "internalType": "bool",
          "name": "",
          "type": "bool"
        }
      ],
      "payable": false,
      "stateMutability": "nonpayable",
      "type": "function"
    },
    {
      "constant": true,
      "inputs": [],
      "name": "name",
      "outputs": [
        {
          "internalType": "string",
          "name": "",
          "type": "string"
        }
      ],
      "payable": false,
      "stateMutability": "view",
      "type": "function"
    },
    {
      "constant": false,
      "inputs": [],
      "name": "renounceMinter",
      "outputs": [],
      "payable": false,
      "stateMutability": "nonpayable",
      "type": "function"
    },
    {
      "constant": true,
      "inputs": [],
      "name": "symbol",
      "outputs": [
        {
          "internalType": "string",
          "name": "",
          "type": "string"
        }
      ],
      "payable": false,
      "stateMutability": "view",
      "type": "function"
    },
    {
      "constant": true,
      "inputs": [],
      "name": "totalSupply",
      "outputs": [
        {
          "internalType": "uint256",
          "name": "",
          "type": "uint256"
        }
      ],
      "payable": false,
      "stateMutability": "view",
      "type": "function"
    },
    {
      "constant": false,
      "inputs": [
        {
          "internalType": "address",
          "name": "recipient",
          "type": "address"
        },
        {
          "internalType": "uint256",
          "name": "amount",
          "type": "uint256"
        }
      ],
      "name": "transfer",
      "outputs": [
        {
          "internalType": "bool",
          "name": "",
          "type": "bool"
        }
      ],
      "payable": false,
      "stateMutability": "nonpayable",
      "type": "function"
    },
    {
      "constant": false,
      "inputs": [
        {
          "internalType": "address",
          "name": "sender",
          "type": "address"
        },
        {
          "internalType": "address",
          "name": "recipient",
          "type": "address"
        },
        {
          "internalType": "uint256",
          "name": "amount",
          "type": "uint256"
        }
      ],
      "name": "transferFrom",
      "outputs": [
        {
          "internalType": "bool",
          "name": "",
          "type": "bool"
        }
      ],
      "payable": false,
      "stateMutability": "nonpayable",
      "type": "function"
    }
  ],
  "bytecode": "0x60806040523480156200001157600080fd5b50604051806040016040528060048152602001635553444360e01b815250604051806040016040528060048152602001635553444360e01b815250600664e8d4a510006200006c848484620000bb60201b620006081760201c565b6200008233620001ac60201b6200097f1760201c565b620000b1336200009a6001600160e01b036200027616565b60ff16600a0a83026001600160e01b036200028016565b50505050620006c4565b600054610100900460ff1680620000e05750620000e06001600160e01b036200038516565b80620000ef575060005460ff16155b6200012c5760405162461bcd60e51b815260040180806020018281038252602e81526020018062001c73602e913960400191505060405180910390fd5b600054610100900460ff1615801562000158576000805460ff1961ff0019909116610100171660011790555b83516200016d90603390602087019062000622565b5082516200018390603490602086019062000622565b506035805460ff191660ff84161790558015620001a6576000805461ff00191690555b50505050565b600054610100900460ff1680620001d15750620001d16001600160e01b036200038516565b80620001e0575060005460ff16155b6200021d5760405162461bcd60e51b815260040180806020018281038252602e81526020018062001c73602e913960400191505060405180910390fd5b600054610100900460ff1615801562000249576000805460ff1961ff0019909116610100171660011790555b6200025f826200038b60201b620010da1760201c565b801562000272576000805461ff00191690555b5050565b60355460ff165b90565b6001600160a01b038216620002dc576040805162461bcd60e51b815260206004820152601f60248201527f45524332303a206d696e7420746f20746865207a65726f206164647265737300604482015290519081900360640190fd5b620002f881606a546200045560201b62000d401790919060201c565b606a556001600160a01b0382166000908152606860209081526040909120546200032d91839062000d4062000455821b17901c565b6001600160a01b03831660008181526068602090815260408083209490945583518581529351929391927fddf252ad1be2c89b69c2b068fc378daa952ba7f163c4a11628f55a4df523b3ef9281900390910190a35050565b303b1590565b600054610100900460ff1680620003b05750620003b06001600160e01b036200038516565b80620003bf575060005460ff16155b620003fc5760405162461bcd60e51b815260040180806020018281038252602e81526020018062001c73602e913960400191505060405180910390fd5b600054610100900460ff1615801562000428576000805460ff1961ff0019909116610100171660011790555b6200043c826001600160e01b03620004b716565b6200025f576200025f826001600160e01b03620004da16565b600082820183811015620004b0576040805162461bcd60e51b815260206004820152601b60248201527f536166654d6174683a206164646974696f6e206f766572666c6f770000000000604482015290519081900360640190fd5b9392505050565b6000620004d482609d6200052c60201b620010731790919060201c565b92915050565b620004f581609d6200059560201b620011bf1790919060201c565b6040516001600160a01b038216907f6ae172837ea30b801fbfcdd4108aa1d5bf8ff775444fd70256b44e6bf3dfc3f690600090a250565b60006001600160a01b038216620005755760405162461bcd60e51b815260040180806020018281038252602281526020018062001c516022913960400191505060405180910390fd5b506001600160a01b03166000908152602091909152604090205460ff1690565b620005aa82826001600160e01b036200052c16565b15620005fd576040805162461bcd60e51b815260206004820152601f60248201527f526f6c65733a206163636f756e7420616c72656164792068617320726f6c6500604482015290519081900360640190fd5b6001600160a01b0316600090815260209190915260409020805460ff19166001179055565b828054600181600116156101000203166002900490600052602060002090601f016020900481019282601f106200066557805160ff191683800117855562000695565b8280016001018555821562000695579182015b828111156200069557825182559160200191906001019062000678565b50620006a3929150620006a7565b5090565b6200027d91905b80821115620006a35760008155600101620006ae565b61157d80620006d46000396000f3fe608060405234801561001057600080fd5b50600436106101215760003560e01c806370a08231116100ad578063a457c2d711610071578063a457c2d714610482578063a9059cbb146104ae578063aa271e1a146104da578063c4d66de814610500578063dd62ed3e1461052657610121565b806370a08231146103fa57806379cc67901461042057806395d89b411461044c578063983b2d5614610454578063986502751461047a57610121565b806323b872dd116100f457806323b872dd14610331578063313ce56714610367578063395093511461038557806340c10f19146103b157806342966c68146103dd57610121565b806306fdde0314610126578063095ea7b3146101a35780631624f6c6146101e357806318160ddd14610317575b600080fd5b61012e610554565b6040805160208082528351818301528351919283929083019185019080838360005b83811015610168578181015183820152602001610150565b50505050905090810190601f1680156101955780820380516001836020036101000a031916815260200191505b509250505060405180910390f35b6101cf600480360360408110156101b957600080fd5b506001600160a01b0381351690602001356105eb565b604080519115158252519081900360200190f35b610315600480360360608110156101f957600080fd5b81019060208101813564010000000081111561021457600080fd5b82018360208201111561022657600080fd5b8035906020019184600183028401116401000000008311171561024857600080fd5b91908080601f016020809104026020016040519081016040528093929190818152602001838380828437600092019190915250929594936020810193503591505064010000000081111561029b57600080fd5b8201836020820111156102ad57600080fd5b803590602001918460018302840111640100000000831117156102cf57600080fd5b91908080601f0160208091040260200160405190810160405280939291908181526020018383808284376000920191909152509295505050903560ff1691506106089050565b005b61031f6106e4565b60408051918252519081900360200190f35b6101cf6004803603606081101561034757600080fd5b506001600160a01b038135811691602081013590911690604001356106ea565b61036f610777565b6040805160ff9092168252519081900360200190f35b6101cf6004803603604081101561039b57600080fd5b506001600160a01b038135169060200135610780565b6101cf600480360360408110156103c757600080fd5b506001600160a01b0381351690602001356107d4565b610315600480360360208110156103f357600080fd5b50356107e0565b61031f6004803603602081101561041057600080fd5b50356001600160a01b03166107f4565b6103156004803603604081101561043657600080fd5b506001600160a01b03813516906020013561080f565b61012e61081d565b6103156004803603602081101561046a57600080fd5b50356001600160a01b031661087e565b6103156108d2565b6101cf6004803603604081101561049857600080fd5b506001600160a01b0381351690602001356108e4565b6101cf600480360360408110156104c457600080fd5b506001600160a01b038135169060200135610952565b6101cf600480360360208110156104f057600080fd5b50356001600160a01b0316610966565b6103156004803603602081101561051657600080fd5b50356001600160a01b031661097f565b61031f6004803603604081101561053c57600080fd5b506001600160a01b0381358116916020013516610a2a565b60338054604080516020601f60026000196101006001881615020190951694909404938401819004810282018101909252828152606093909290918301828280156105e05780601f106105b5576101008083540402835291602001916105e0565b820191906000526020600020905b8154815290600101906020018083116105c357829003601f168201915b505050505090505b90565b60006105ff6105f8610a55565b8484610a59565b50600192915050565b600054610100900460ff16806106215750610621610b45565b8061062f575060005460ff16155b61066a5760405162461bcd60e51b815260040180806020018281038252602e815260200180611468602e913960400191505060405180910390fd5b600054610100900460ff16158015610695576000805460ff1961ff0019909116610100171660011790555b83516106a89060339060208701906112a7565b5082516106bc9060349060208601906112a7565b506035805460ff191660ff841617905580156106de576000805461ff00191690555b50505050565b606a5490565b60006106f7848484610b4b565b61076d84610703610a55565b6107688560405180606001604052806028815260200161141e602891396001600160a01b038a16600090815260696020526040812090610741610a55565b6001600160a01b03168152602081019190915260400160002054919063ffffffff610ca916565b610a59565b5060019392505050565b60355460ff1690565b60006105ff61078d610a55565b84610768856069600061079e610a55565b6001600160a01b03908116825260208083019390935260409182016000908120918c16815292529020549063ffffffff610d4016565b60006105ff8383610da1565b6107f16107eb610a55565b82610e93565b50565b6001600160a01b031660009081526068602052604090205490565b6108198282610f8f565b5050565b60348054604080516020601f60026000196101006001881615020190951694909404938401819004810282018101909252828152606093909290918301828280156105e05780601f106105b5576101008083540402835291602001916105e0565b61088e610889610a55565b610966565b6108c95760405162461bcd60e51b81526004018080602001828103825260308152602001806113cd6030913960400191505060405180910390fd5b6107f181610fe3565b6108e26108dd610a55565b61102b565b565b60006105ff6108f1610a55565b8461076885604051806060016040528060258152602001611524602591396069600061091b610a55565b6001600160a01b03908116825260208083019390935260409182016000908120918d1681529252902054919063ffffffff610ca916565b60006105ff61095f610a55565b8484610b4b565b6000610979609d8363ffffffff61107316565b92915050565b600054610100900460ff16806109985750610998610b45565b806109a6575060005460ff16155b6109e15760405162461bcd60e51b815260040180806020018281038252602e815260200180611468602e913960400191505060405180910390fd5b600054610100900460ff16158015610a0c576000805460ff1961ff0019909116610100171660011790555b610a15826110da565b8015610819576000805461ff00191690555050565b6001600160a01b03918216600090815260696020908152604080832093909416825291909152205490565b3390565b6001600160a01b038316610a9e5760405162461bcd60e51b81526004018080602001828103825260248152602001806115006024913960400191505060405180910390fd5b6001600160a01b038216610ae35760405162461bcd60e51b81526004018080602001828103825260228152602001806113856022913960400191505060405180910390fd5b6001600160a01b03808416600081815260696020908152604080832094871680845294825291829020859055815185815291517f8c5be1e5ebec7d5bd14f71427d1e84f3dd0314c0f7b2291e5b200ac8c7c3b9259281900390910190a3505050565b303b1590565b6001600160a01b038316610b905760405162461bcd60e51b81526004018080602001828103825260258152602001806114db6025913960400191505060405180910390fd5b6001600160a01b038216610bd55760405162461bcd60e51b81526004018080602001828103825260238152602001806113406023913960400191505060405180910390fd5b610c18816040518060600160405280602681526020016113a7602691396001600160a01b038616600090815260686020526040902054919063ffffffff610ca916565b6001600160a01b038085166000908152606860205260408082209390935590841681522054610c4d908263ffffffff610d4016565b6001600160a01b0380841660008181526068602090815260409182902094909455805185815290519193928716927fddf252ad1be2c89b69c2b068fc378daa952ba7f163c4a11628f55a4df523b3ef92918290030190a3505050565b60008184841115610d385760405162461bcd60e51b81526004018080602001828103825283818151815260200191508051906020019080838360005b83811015610cfd578181015183820152602001610ce5565b50505050905090810190601f168015610d2a5780820380516001836020036101000a031916815260200191505b509250505060405180910390fd5b505050900390565b600082820183811015610d9a576040805162461bcd60e51b815260206004820152601b60248201527f536166654d6174683a206164646974696f6e206f766572666c6f770000000000604482015290519081900360640190fd5b9392505050565b6001600160a01b038216610dfc576040805162461bcd60e51b815260206004820152601f60248201527f45524332303a206d696e7420746f20746865207a65726f206164647265737300604482015290519081900360640190fd5b606a54610e0f908263ffffffff610d4016565b606a556001600160a01b038216600090815260686020526040902054610e3b908263ffffffff610d4016565b6001600160a01b03831660008181526068602090815260408083209490945583518581529351929391927fddf252ad1be2c89b69c2b068fc378daa952ba7f163c4a11628f55a4df523b3ef9281900390910190a35050565b6001600160a01b038216610ed85760405162461bcd60e51b81526004018080602001828103825260218152602001806114ba6021913960400191505060405180910390fd5b610f1b81604051806060016040528060228152602001611363602291396001600160a01b038516600090815260686020526040902054919063ffffffff610ca916565b6001600160a01b038316600090815260686020526040902055606a54610f47908263ffffffff61117d16565b606a556040805182815290516000916001600160a01b038516917fddf252ad1be2c89b69c2b068fc378daa952ba7f163c4a11628f55a4df523b3ef9181900360200190a35050565b610f998282610e93565b61081982610fa5610a55565b61076884604051806060016040528060248152602001611496602491396001600160a01b038816600090815260696020526040812090610741610a55565b610ff4609d8263ffffffff6111bf16565b6040516001600160a01b038216907f6ae172837ea30b801fbfcdd4108aa1d5bf8ff775444fd70256b44e6bf3dfc3f690600090a250565b61103c609d8263ffffffff61124016565b6040516001600160a01b038216907fe94479a9f7e1952cc78f2d6baab678adc1b772d936c6583def489e524cb6669290600090a250565b60006001600160a01b0382166110ba5760405162461bcd60e51b81526004018080602001828103825260228152602001806114466022913960400191505060405180910390fd5b506001600160a01b03166000908152602091909152604090205460ff1690565b600054610100900460ff16806110f357506110f3610b45565b80611101575060005460ff16155b61113c5760405162461bcd60e51b815260040180806020018281038252602e815260200180611468602e913960400191505060405180910390fd5b600054610100900460ff16158015611167576000805460ff1961ff0019909116610100171660011790555b61117082610966565b610a1557610a1582610fe3565b6000610d9a83836040518060400160405280601e81526020017f536166654d6174683a207375627472616374696f6e206f766572666c6f770000815250610ca9565b6111c98282611073565b1561121b576040805162461bcd60e51b815260206004820152601f60248201527f526f6c65733a206163636f756e7420616c72656164792068617320726f6c6500604482015290519081900360640190fd5b6001600160a01b0316600090815260209190915260409020805460ff19166001179055565b61124a8282611073565b6112855760405162461bcd60e51b81526004018080602001828103825260218152602001806113fd6021913960400191505060405180910390fd5b6001600160a01b0316600090815260209190915260409020805460ff19169055565b828054600181600116156101000203166002900490600052602060002090601f016020900481019282601f106112e857805160ff1916838001178555611315565b82800160010185558215611315579182015b828111156113155782518255916020019190600101906112fa565b50611321929150611325565b5090565b6105e891905b80821115611321576000815560010161132b56fe45524332303a207472616e7366657220746f20746865207a65726f206164647265737345524332303a206275726e20616d6f756e7420657863656564732062616c616e636545524332303a20617070726f766520746f20746865207a65726f206164647265737345524332303a207472616e7366657220616d6f756e7420657863656564732062616c616e63654d696e746572526f6c653a2063616c6c657220646f6573206e6f74206861766520746865204d696e74657220726f6c65526f6c65733a206163636f756e7420646f6573206e6f74206861766520726f6c6545524332303a207472616e7366657220616d6f756e74206578636565647320616c6c6f77616e6365526f6c65733a206163636f756e7420697320746865207a65726f2061646472657373436f6e747261637420696e7374616e63652068617320616c7265616479206265656e20696e697469616c697a656445524332303a206275726e20616d6f756e74206578636565647320616c6c6f77616e636545524332303a206275726e2066726f6d20746865207a65726f206164647265737345524332303a207472616e736665722066726f6d20746865207a65726f206164647265737345524332303a20617070726f76652066726f6d20746865207a65726f206164647265737345524332303a2064656372656173656420616c6c6f77616e63652062656c6f77207a65726fa265627a7a723158201e393994c1c9640b8eed577e36ff8a7d93c535e78cde1f2925a38933c708ff1364736f6c63430005110032526f6c65733a206163636f756e7420697320746865207a65726f2061646472657373436f6e747261637420696e7374616e63652068617320616c7265616479206265656e20696e697469616c697a6564",
  "source": "pragma solidity 0.5.17;\n\nimport \"./ERC20Mock.sol\";\n\ncontract USDCMock is ERC20Mock {\n    constructor() public ERC20Mock(\"USDC\", \"USDC\", 6, 1000000000000) {}\n}\n",
  "sourcePath": "/Users/sy/Documents/GitHub/teller-protocol-v1/contracts/mock/token/USDCMock.sol",
  "compiler": {
    "name": "solc",
    "version": "0.5.17+commit.d19bba13.Emscripten.clang"
  },
  "schemaVersion": "3.0.23",
  "updatedAt": "2020-09-06T02:15:12.550Z",
  "devdoc": {
    "methods": {
      "allowance(address,address)": {
        "details": "See {IERC20-allowance}."
      },
      "approve(address,uint256)": {
        "details": "See {IERC20-approve}.     * Requirements:     * - `spender` cannot be the zero address."
      },
      "balanceOf(address)": {
        "details": "See {IERC20-balanceOf}."
      },
      "burn(uint256)": {
        "details": "Destroys `amount` tokens from the caller.     * See {ERC20-_burn}."
      },
      "burnFrom(address,uint256)": {
        "details": "See {ERC20-_burnFrom}."
      },
      "decimals()": {
        "details": "Returns the number of decimals used to get its user representation. For example, if `decimals` equals `2`, a balance of `505` tokens should be displayed to a user as `5,05` (`505 / 10 ** 2`).     * Tokens usually opt for a value of 18, imitating the relationship between Ether and Wei.     * NOTE: This information is only used for _display_ purposes: it in no way affects any of the arithmetic of the contract, including {IERC20-balanceOf} and {IERC20-transfer}."
      },
      "decreaseAllowance(address,uint256)": {
        "details": "Atomically decreases the allowance granted to `spender` by the caller.     * This is an alternative to {approve} that can be used as a mitigation for problems described in {IERC20-approve}.     * Emits an {Approval} event indicating the updated allowance.     * Requirements:     * - `spender` cannot be the zero address. - `spender` must have allowance for the caller of at least `subtractedValue`."
      },
      "increaseAllowance(address,uint256)": {
        "details": "Atomically increases the allowance granted to `spender` by the caller.     * This is an alternative to {approve} that can be used as a mitigation for problems described in {IERC20-approve}.     * Emits an {Approval} event indicating the updated allowance.     * Requirements:     * - `spender` cannot be the zero address."
      },
      "initialize(string,string,uint8)": {
        "details": "Sets the values for `name`, `symbol`, and `decimals`. All three of these values are immutable: they can only be set once during construction."
      },
      "name()": {
        "details": "Returns the name of the token."
      },
      "symbol()": {
        "details": "Returns the symbol of the token, usually a shorter version of the name."
      },
      "totalSupply()": {
        "details": "See {IERC20-totalSupply}."
      },
      "transfer(address,uint256)": {
        "details": "See {IERC20-transfer}.     * Requirements:     * - `recipient` cannot be the zero address. - the caller must have a balance of at least `amount`."
      },
      "transferFrom(address,address,uint256)": {
        "details": "See {IERC20-transferFrom}.     * Emits an {Approval} event indicating the updated allowance. This is not required by the EIP. See the note at the beginning of {ERC20};     * Requirements: - `sender` and `recipient` cannot be the zero address. - `sender` must have a balance of at least `amount`. - the caller must have allowance for `sender`'s tokens of at least `amount`."
      }
    }
  },
  "userdoc": {
    "methods": {}
  }
}