{
  "contractName": "WETHMock",
  "abi": [
    {
      "inputs": [],
      "payable": false,
      "stateMutability": "nonpayable",
      "type": "constructor"
    },
    {
      "anonymous": false,
      "inputs": [
        {
          "indexed": true,
          "internalType": "address",
          "name": "owner",
          "type": "address"
        },
        {
          "indexed": true,
          "internalType": "address",
          "name": "spender",
          "type": "address"
        },
        {
          "indexed": false,
          "internalType": "uint256",
          "name": "value",
          "type": "uint256"
        }
      ],
      "name": "Approval",
      "type": "event"
    },
    {
      "anonymous": false,
      "inputs": [
        {
          "indexed": true,
          "internalType": "address",
          "name": "account",
          "type": "address"
        }
      ],
      "name": "MinterAdded",
      "type": "event"
    },
    {
      "anonymous": false,
      "inputs": [
        {
          "indexed": true,
          "internalType": "address",
          "name": "account",
          "type": "address"
        }
      ],
      "name": "MinterRemoved",
      "type": "event"
    },
    {
      "anonymous": false,
      "inputs": [
        {
          "indexed": true,
          "internalType": "address",
          "name": "from",
          "type": "address"
        },
        {
          "indexed": true,
          "internalType": "address",
          "name": "to",
          "type": "address"
        },
        {
          "indexed": false,
          "internalType": "uint256",
          "name": "value",
          "type": "uint256"
        }
      ],
      "name": "Transfer",
      "type": "event"
    },
    {
      "constant": false,
      "inputs": [
        {
          "internalType": "address",
          "name": "account",
          "type": "address"
        }
      ],
      "name": "addMinter",
      "outputs": [],
      "payable": false,
      "stateMutability": "nonpayable",
      "type": "function"
    },
    {
      "constant": true,
      "inputs": [
        {
          "internalType": "address",
          "name": "owner",
          "type": "address"
        },
        {
          "internalType": "address",
          "name": "spender",
          "type": "address"
        }
      ],
      "name": "allowance",
      "outputs": [
        {
          "internalType": "uint256",
          "name": "",
          "type": "uint256"
        }
      ],
      "payable": false,
      "stateMutability": "view",
      "type": "function"
    },
    {
      "constant": false,
      "inputs": [
        {
          "internalType": "address",
          "name": "spender",
          "type": "address"
        },
        {
          "internalType": "uint256",
          "name": "amount",
          "type": "uint256"
        }
      ],
      "name": "approve",
      "outputs": [
        {
          "internalType": "bool",
          "name": "",
          "type": "bool"
        }
      ],
      "payable": false,
      "stateMutability": "nonpayable",
      "type": "function"
    },
    {
      "constant": true,
      "inputs": [
        {
          "internalType": "address",
          "name": "account",
          "type": "address"
        }
      ],
      "name": "balanceOf",
      "outputs": [
        {
          "internalType": "uint256",
          "name": "",
          "type": "uint256"
        }
      ],
      "payable": false,
      "stateMutability": "view",
      "type": "function"
    },
    {
      "constant": false,
      "inputs": [
        {
          "internalType": "uint256",
          "name": "amount",
          "type": "uint256"
        }
      ],
      "name": "burn",
      "outputs": [],
      "payable": false,
      "stateMutability": "nonpayable",
      "type": "function"
    },
    {
      "constant": false,
      "inputs": [
        {
          "internalType": "address",
          "name": "account",
          "type": "address"
        },
        {
          "internalType": "uint256",
          "name": "amount",
          "type": "uint256"
        }
      ],
      "name": "burnFrom",
      "outputs": [],
      "payable": false,
      "stateMutability": "nonpayable",
      "type": "function"
    },
    {
      "constant": true,
      "inputs": [],
      "name": "decimals",
      "outputs": [
        {
          "internalType": "uint8",
          "name": "",
          "type": "uint8"
        }
      ],
      "payable": false,
      "stateMutability": "view",
      "type": "function"
    },
    {
      "constant": false,
      "inputs": [
        {
          "internalType": "address",
          "name": "spender",
          "type": "address"
        },
        {
          "internalType": "uint256",
          "name": "subtractedValue",
          "type": "uint256"
        }
      ],
      "name": "decreaseAllowance",
      "outputs": [
        {
          "internalType": "bool",
          "name": "",
          "type": "bool"
        }
      ],
      "payable": false,
      "stateMutability": "nonpayable",
      "type": "function"
    },
    {
      "constant": false,
      "inputs": [
        {
          "internalType": "address",
          "name": "spender",
          "type": "address"
        },
        {
          "internalType": "uint256",
          "name": "addedValue",
          "type": "uint256"
        }
      ],
      "name": "increaseAllowance",
      "outputs": [
        {
          "internalType": "bool",
          "name": "",
          "type": "bool"
        }
      ],
      "payable": false,
      "stateMutability": "nonpayable",
      "type": "function"
    },
    {
      "constant": false,
      "inputs": [
        {
          "internalType": "string",
          "name": "name",
          "type": "string"
        },
        {
          "internalType": "string",
          "name": "symbol",
          "type": "string"
        },
        {
          "internalType": "uint8",
          "name": "decimals",
          "type": "uint8"
        }
      ],
      "name": "initialize",
      "outputs": [],
      "payable": false,
      "stateMutability": "nonpayable",
      "type": "function"
    },
    {
      "constant": false,
      "inputs": [
        {
          "internalType": "address",
          "name": "sender",
          "type": "address"
        }
      ],
      "name": "initialize",
      "outputs": [],
      "payable": false,
      "stateMutability": "nonpayable",
      "type": "function"
    },
    {
      "constant": true,
      "inputs": [
        {
          "internalType": "address",
          "name": "account",
          "type": "address"
        }
      ],
      "name": "isMinter",
      "outputs": [
        {
          "internalType": "bool",
          "name": "",
          "type": "bool"
        }
      ],
      "payable": false,
      "stateMutability": "view",
      "type": "function"
    },
    {
      "constant": false,
      "inputs": [
        {
          "internalType": "address",
          "name": "account",
          "type": "address"
        },
        {
          "internalType": "uint256",
          "name": "amount",
          "type": "uint256"
        }
      ],
      "name": "mint",
      "outputs": [
        {
          "internalType": "bool",
          "name": "",
          "type": "bool"
        }
      ],
      "payable": false,
      "stateMutability": "nonpayable",
      "type": "function"
    },
    {
      "constant": false,
      "inputs": [],
      "name": "mockTransferFromReturnFalse",
      "outputs": [],
      "payable": false,
      "stateMutability": "nonpayable",
      "type": "function"
    },
    {
      "constant": true,
      "inputs": [],
      "name": "name",
      "outputs": [
        {
          "internalType": "string",
          "name": "",
          "type": "string"
        }
      ],
      "payable": false,
      "stateMutability": "view",
      "type": "function"
    },
    {
      "constant": false,
      "inputs": [],
      "name": "renounceMinter",
      "outputs": [],
      "payable": false,
      "stateMutability": "nonpayable",
      "type": "function"
    },
    {
      "constant": true,
      "inputs": [],
      "name": "symbol",
      "outputs": [
        {
          "internalType": "string",
          "name": "",
          "type": "string"
        }
      ],
      "payable": false,
      "stateMutability": "view",
      "type": "function"
    },
    {
      "constant": true,
      "inputs": [],
      "name": "totalSupply",
      "outputs": [
        {
          "internalType": "uint256",
          "name": "",
          "type": "uint256"
        }
      ],
      "payable": false,
      "stateMutability": "view",
      "type": "function"
    },
    {
      "constant": false,
      "inputs": [
        {
          "internalType": "address",
          "name": "recipient",
          "type": "address"
        },
        {
          "internalType": "uint256",
          "name": "amount",
          "type": "uint256"
        }
      ],
      "name": "transfer",
      "outputs": [
        {
          "internalType": "bool",
          "name": "",
          "type": "bool"
        }
      ],
      "payable": false,
      "stateMutability": "nonpayable",
      "type": "function"
    },
    {
      "constant": false,
      "inputs": [
        {
          "internalType": "address",
          "name": "sender",
          "type": "address"
        },
        {
          "internalType": "address",
          "name": "recipient",
          "type": "address"
        },
        {
          "internalType": "uint256",
          "name": "amount",
          "type": "uint256"
        }
      ],
      "name": "transferFrom",
      "outputs": [
        {
          "internalType": "bool",
          "name": "",
          "type": "bool"
        }
      ],
      "payable": false,
      "stateMutability": "nonpayable",
      "type": "function"
    }
  ],
  "bytecode": "0x60806040523480156200001157600080fd5b50604051806040016040528060048152602001630ae8aa8960e31b815250604051806040016040528060048152602001630ae8aa8960e31b815250601264e8d4a510006200006c848484620000bb60201b6200061b1760201c565b6200008233620001ac60201b620009361760201c565b620000b1336200009a6001600160e01b036200027616565b60ff16600a0a83026001600160e01b036200028016565b50505050620006c4565b600054610100900460ff1680620000e05750620000e06001600160e01b036200038516565b80620000ef575060005460ff16155b6200012c5760405162461bcd60e51b815260040180806020018281038252602e81526020018062001cbb602e913960400191505060405180910390fd5b600054610100900460ff1615801562000158576000805460ff1961ff0019909116610100171660011790555b83516200016d90603390602087019062000622565b5082516200018390603490602086019062000622565b506035805460ff191660ff84161790558015620001a6576000805461ff00191690555b50505050565b600054610100900460ff1680620001d15750620001d16001600160e01b036200038516565b80620001e0575060005460ff16155b6200021d5760405162461bcd60e51b815260040180806020018281038252602e81526020018062001cbb602e913960400191505060405180910390fd5b600054610100900460ff1615801562000249576000805460ff1961ff0019909116610100171660011790555b6200025f826200038b60201b620011221760201c565b801562000272576000805461ff00191690555b5050565b60355460ff165b90565b6001600160a01b038216620002dc576040805162461bcd60e51b815260206004820152601f60248201527f45524332303a206d696e7420746f20746865207a65726f206164647265737300604482015290519081900360640190fd5b620002f881606a546200045560201b62000b9a1790919060201c565b606a556001600160a01b0382166000908152606860209081526040909120546200032d91839062000b9a62000455821b17901c565b6001600160a01b03831660008181526068602090815260408083209490945583518581529351929391927fddf252ad1be2c89b69c2b068fc378daa952ba7f163c4a11628f55a4df523b3ef9281900390910190a35050565b303b1590565b600054610100900460ff1680620003b05750620003b06001600160e01b036200038516565b80620003bf575060005460ff16155b620003fc5760405162461bcd60e51b815260040180806020018281038252602e81526020018062001cbb602e913960400191505060405180910390fd5b600054610100900460ff1615801562000428576000805460ff1961ff0019909116610100171660011790555b6200043c826001600160e01b03620004b716565b6200025f576200025f826001600160e01b03620004da16565b600082820183811015620004b0576040805162461bcd60e51b815260206004820152601b60248201527f536166654d6174683a206164646974696f6e206f766572666c6f770000000000604482015290519081900360640190fd5b9392505050565b6000620004d482609d6200052c60201b620010bb1790919060201c565b92915050565b620004f581609d6200059560201b620012071790919060201c565b6040516001600160a01b038216907f6ae172837ea30b801fbfcdd4108aa1d5bf8ff775444fd70256b44e6bf3dfc3f690600090a250565b60006001600160a01b038216620005755760405162461bcd60e51b815260040180806020018281038252602281526020018062001c996022913960400191505060405180910390fd5b506001600160a01b03166000908152602091909152604090205460ff1690565b620005aa82826001600160e01b036200052c16565b15620005fd576040805162461bcd60e51b815260206004820152601f60248201527f526f6c65733a206163636f756e7420616c72656164792068617320726f6c6500604482015290519081900360640190fd5b6001600160a01b0316600090815260209190915260409020805460ff19166001179055565b828054600181600116156101000203166002900490600052602060002090601f016020900481019282601f106200066557805160ff191683800117855562000695565b8280016001018555821562000695579182015b828111156200069557825182559160200191906001019062000678565b50620006a3929150620006a7565b5090565b6200027d91905b80821115620006a35760008155600101620006ae565b6115c580620006d46000396000f3fe608060405234801561001057600080fd5b506004361061012c5760003560e01c806379cc6790116100ad578063a9059cbb11610071578063a9059cbb146104b9578063aa271e1a146104e5578063c4d66de81461050b578063dd62ed3e14610531578063e70592ff1461055f5761012c565b806379cc67901461042b57806395d89b4114610457578063983b2d561461045f5780639865027514610485578063a457c2d71461048d5761012c565b8063313ce567116100f4578063313ce56714610372578063395093511461039057806340c10f19146103bc57806342966c68146103e857806370a08231146104055761012c565b806306fdde0314610131578063095ea7b3146101ae5780631624f6c6146101ee57806318160ddd1461032257806323b872dd1461033c575b600080fd5b610139610567565b6040805160208082528351818301528351919283929083019185019080838360005b8381101561017357818101518382015260200161015b565b50505050905090810190601f1680156101a05780820380516001836020036101000a031916815260200191505b509250505060405180910390f35b6101da600480360360408110156101c457600080fd5b506001600160a01b0381351690602001356105fe565b604080519115158252519081900360200190f35b6103206004803603606081101561020457600080fd5b81019060208101813564010000000081111561021f57600080fd5b82018360208201111561023157600080fd5b8035906020019184600183028401116401000000008311171561025357600080fd5b91908080601f01602080910402602001604051908101604052809392919081815260200183838082843760009201919091525092959493602081019350359150506401000000008111156102a657600080fd5b8201836020820111156102b857600080fd5b803590602001918460018302840111640100000000831117156102da57600080fd5b91908080601f0160208091040260200160405190810160405280939291908181526020018383808284376000920191909152509295505050903560ff16915061061b9050565b005b61032a6106f7565b60408051918252519081900360200190f35b6101da6004803603606081101561035257600080fd5b506001600160a01b038135811691602081013590911690604001356106fd565b61037a610729565b6040805160ff9092168252519081900360200190f35b6101da600480360360408110156103a657600080fd5b506001600160a01b038135169060200135610732565b6101da600480360360408110156103d257600080fd5b506001600160a01b03813516906020013561078b565b610320600480360360208110156103fe57600080fd5b5035610797565b61032a6004803603602081101561041b57600080fd5b50356001600160a01b03166107ab565b6103206004803603604081101561044157600080fd5b506001600160a01b0381351690602001356107c6565b6101396107d4565b6103206004803603602081101561047557600080fd5b50356001600160a01b0316610835565b610320610889565b6101da600480360360408110156104a357600080fd5b506001600160a01b03813516906020013561089b565b6101da600480360360408110156104cf57600080fd5b506001600160a01b038135169060200135610909565b6101da600480360360208110156104fb57600080fd5b50356001600160a01b031661091d565b6103206004803603602081101561052157600080fd5b50356001600160a01b0316610936565b61032a6004803603604081101561054757600080fd5b506001600160a01b03813581169160200135166109e1565b610320610a0c565b60338054604080516020601f60026000196101006001881615020190951694909404938401819004810282018101909252828152606093909290918301828280156105f35780601f106105c8576101008083540402835291602001916105f3565b820191906000526020600020905b8154815290600101906020018083116105d657829003601f168201915b505050505090505b90565b600061061261060b610a1c565b8484610a20565b50600192915050565b600054610100900460ff16806106345750610634610b0c565b80610642575060005460ff16155b61067d5760405162461bcd60e51b815260040180806020018281038252602e8152602001806114b0602e913960400191505060405180910390fd5b600054610100900460ff161580156106a8576000805460ff1961ff0019909116610100171660011790555b83516106bb9060339060208701906112ef565b5082516106cf9060349060208601906112ef565b506035805460ff191660ff841617905580156106f1576000805461ff00191690555b50505050565b606a5490565b6101345460009060ff161561071457506000610722565b61071f848484610b12565b90505b9392505050565b60355460ff1690565b600061061261073f610a1c565b846107868560696000610750610a1c565b6001600160a01b03908116825260208083019390935260409182016000908120918c16815292529020549063ffffffff610b9a16565b610a20565b60006106128383610bf4565b6107a86107a2610a1c565b82610ce6565b50565b6001600160a01b031660009081526068602052604090205490565b6107d08282610de2565b5050565b60348054604080516020601f60026000196101006001881615020190951694909404938401819004810282018101909252828152606093909290918301828280156105f35780601f106105c8576101008083540402835291602001916105f3565b610845610840610a1c565b61091d565b6108805760405162461bcd60e51b81526004018080602001828103825260308152602001806114156030913960400191505060405180910390fd5b6107a881610e36565b610899610894610a1c565b610e7e565b565b60006106126108a8610a1c565b846107868560405180606001604052806025815260200161156c60259139606960006108d2610a1c565b6001600160a01b03908116825260208083019390935260409182016000908120918d1681529252902054919063ffffffff610ec616565b6000610612610916610a1c565b8484610f5d565b6000610930609d8363ffffffff6110bb16565b92915050565b600054610100900460ff168061094f575061094f610b0c565b8061095d575060005460ff16155b6109985760405162461bcd60e51b815260040180806020018281038252602e8152602001806114b0602e913960400191505060405180910390fd5b600054610100900460ff161580156109c3576000805460ff1961ff0019909116610100171660011790555b6109cc82611122565b80156107d0576000805461ff00191690555050565b6001600160a01b03918216600090815260696020908152604080832093909416825291909152205490565b610134805460ff19166001179055565b3390565b6001600160a01b038316610a655760405162461bcd60e51b81526004018080602001828103825260248152602001806115486024913960400191505060405180910390fd5b6001600160a01b038216610aaa5760405162461bcd60e51b81526004018080602001828103825260228152602001806113cd6022913960400191505060405180910390fd5b6001600160a01b03808416600081815260696020908152604080832094871680845294825291829020859055815185815291517f8c5be1e5ebec7d5bd14f71427d1e84f3dd0314c0f7b2291e5b200ac8c7c3b9259281900390910190a3505050565b303b1590565b6000610b1f848484610f5d565b610b9084610b2b610a1c565b61078685604051806060016040528060288152602001611466602891396001600160a01b038a16600090815260696020526040812090610b69610a1c565b6001600160a01b03168152602081019190915260400160002054919063ffffffff610ec616565b5060019392505050565b600082820183811015610722576040805162461bcd60e51b815260206004820152601b60248201527f536166654d6174683a206164646974696f6e206f766572666c6f770000000000604482015290519081900360640190fd5b6001600160a01b038216610c4f576040805162461bcd60e51b815260206004820152601f60248201527f45524332303a206d696e7420746f20746865207a65726f206164647265737300604482015290519081900360640190fd5b606a54610c62908263ffffffff610b9a16565b606a556001600160a01b038216600090815260686020526040902054610c8e908263ffffffff610b9a16565b6001600160a01b03831660008181526068602090815260408083209490945583518581529351929391927fddf252ad1be2c89b69c2b068fc378daa952ba7f163c4a11628f55a4df523b3ef9281900390910190a35050565b6001600160a01b038216610d2b5760405162461bcd60e51b81526004018080602001828103825260218152602001806115026021913960400191505060405180910390fd5b610d6e816040518060600160405280602281526020016113ab602291396001600160a01b038516600090815260686020526040902054919063ffffffff610ec616565b6001600160a01b038316600090815260686020526040902055606a54610d9a908263ffffffff6111c516565b606a556040805182815290516000916001600160a01b038516917fddf252ad1be2c89b69c2b068fc378daa952ba7f163c4a11628f55a4df523b3ef9181900360200190a35050565b610dec8282610ce6565b6107d082610df8610a1c565b610786846040518060600160405280602481526020016114de602491396001600160a01b038816600090815260696020526040812090610b69610a1c565b610e47609d8263ffffffff61120716565b6040516001600160a01b038216907f6ae172837ea30b801fbfcdd4108aa1d5bf8ff775444fd70256b44e6bf3dfc3f690600090a250565b610e8f609d8263ffffffff61128816565b6040516001600160a01b038216907fe94479a9f7e1952cc78f2d6baab678adc1b772d936c6583def489e524cb6669290600090a250565b60008184841115610f555760405162461bcd60e51b81526004018080602001828103825283818151815260200191508051906020019080838360005b83811015610f1a578181015183820152602001610f02565b50505050905090810190601f168015610f475780820380516001836020036101000a031916815260200191505b509250505060405180910390fd5b505050900390565b6001600160a01b038316610fa25760405162461bcd60e51b81526004018080602001828103825260258152602001806115236025913960400191505060405180910390fd5b6001600160a01b038216610fe75760405162461bcd60e51b81526004018080602001828103825260238152602001806113886023913960400191505060405180910390fd5b61102a816040518060600160405280602681526020016113ef602691396001600160a01b038616600090815260686020526040902054919063ffffffff610ec616565b6001600160a01b03808516600090815260686020526040808220939093559084168152205461105f908263ffffffff610b9a16565b6001600160a01b0380841660008181526068602090815260409182902094909455805185815290519193928716927fddf252ad1be2c89b69c2b068fc378daa952ba7f163c4a11628f55a4df523b3ef92918290030190a3505050565b60006001600160a01b0382166111025760405162461bcd60e51b815260040180806020018281038252602281526020018061148e6022913960400191505060405180910390fd5b506001600160a01b03166000908152602091909152604090205460ff1690565b600054610100900460ff168061113b575061113b610b0c565b80611149575060005460ff16155b6111845760405162461bcd60e51b815260040180806020018281038252602e8152602001806114b0602e913960400191505060405180910390fd5b600054610100900460ff161580156111af576000805460ff1961ff0019909116610100171660011790555b6111b88261091d565b6109cc576109cc82610e36565b600061072283836040518060400160405280601e81526020017f536166654d6174683a207375627472616374696f6e206f766572666c6f770000815250610ec6565b61121182826110bb565b15611263576040805162461bcd60e51b815260206004820152601f60248201527f526f6c65733a206163636f756e7420616c72656164792068617320726f6c6500604482015290519081900360640190fd5b6001600160a01b0316600090815260209190915260409020805460ff19166001179055565b61129282826110bb565b6112cd5760405162461bcd60e51b81526004018080602001828103825260218152602001806114456021913960400191505060405180910390fd5b6001600160a01b0316600090815260209190915260409020805460ff19169055565b828054600181600116156101000203166002900490600052602060002090601f016020900481019282601f1061133057805160ff191683800117855561135d565b8280016001018555821561135d579182015b8281111561135d578251825591602001919060010190611342565b5061136992915061136d565b5090565b6105fb91905b80821115611369576000815560010161137356fe45524332303a207472616e7366657220746f20746865207a65726f206164647265737345524332303a206275726e20616d6f756e7420657863656564732062616c616e636545524332303a20617070726f766520746f20746865207a65726f206164647265737345524332303a207472616e7366657220616d6f756e7420657863656564732062616c616e63654d696e746572526f6c653a2063616c6c657220646f6573206e6f74206861766520746865204d696e74657220726f6c65526f6c65733a206163636f756e7420646f6573206e6f74206861766520726f6c6545524332303a207472616e7366657220616d6f756e74206578636565647320616c6c6f77616e6365526f6c65733a206163636f756e7420697320746865207a65726f2061646472657373436f6e747261637420696e7374616e63652068617320616c7265616479206265656e20696e697469616c697a656445524332303a206275726e20616d6f756e74206578636565647320616c6c6f77616e636545524332303a206275726e2066726f6d20746865207a65726f206164647265737345524332303a207472616e736665722066726f6d20746865207a65726f206164647265737345524332303a20617070726f76652066726f6d20746865207a65726f206164647265737345524332303a2064656372656173656420616c6c6f77616e63652062656c6f77207a65726fa265627a7a7231582054d3e9af299af6bdae6618dab30943e92ac70c74845fd69ed68a2ff1851a0ae964736f6c63430005110032526f6c65733a206163636f756e7420697320746865207a65726f2061646472657373436f6e747261637420696e7374616e63652068617320616c7265616479206265656e20696e697469616c697a6564",
  "source": "pragma solidity 0.5.17;\n\nimport \"./ERC20Mock.sol\";\n\ncontract WETHMock is ERC20Mock {\n    constructor() public ERC20Mock(\"WETH\", \"WETH\", 18, 1000000000000) {}\n}\n",
  "sourcePath": "/Users/guillesalazar/Repos/ZeroCollateral/smart-contracts-v1/contracts/mock/token/WETHMock.sol",
  "compiler": {
    "name": "solc",
    "version": "0.5.17+commit.d19bba13.Emscripten.clang"
  },
  "schemaVersion": "3.2.3",
  "updatedAt": "2020-10-12T14:23:11.558Z",
  "devdoc": {
    "methods": {
      "allowance(address,address)": {
        "details": "See {IERC20-allowance}."
      },
      "approve(address,uint256)": {
        "details": "See {IERC20-approve}.     * Requirements:     * - `spender` cannot be the zero address."
      },
      "balanceOf(address)": {
        "details": "See {IERC20-balanceOf}."
      },
      "burn(uint256)": {
        "details": "Destroys `amount` tokens from the caller.     * See {ERC20-_burn}."
      },
      "burnFrom(address,uint256)": {
        "details": "See {ERC20-_burnFrom}."
      },
      "decimals()": {
        "details": "Returns the number of decimals used to get its user representation. For example, if `decimals` equals `2`, a balance of `505` tokens should be displayed to a user as `5,05` (`505 / 10 ** 2`).     * Tokens usually opt for a value of 18, imitating the relationship between Ether and Wei.     * NOTE: This information is only used for _display_ purposes: it in no way affects any of the arithmetic of the contract, including {IERC20-balanceOf} and {IERC20-transfer}."
      },
      "decreaseAllowance(address,uint256)": {
        "details": "Atomically decreases the allowance granted to `spender` by the caller.     * This is an alternative to {approve} that can be used as a mitigation for problems described in {IERC20-approve}.     * Emits an {Approval} event indicating the updated allowance.     * Requirements:     * - `spender` cannot be the zero address. - `spender` must have allowance for the caller of at least `subtractedValue`."
      },
      "increaseAllowance(address,uint256)": {
        "details": "Atomically increases the allowance granted to `spender` by the caller.     * This is an alternative to {approve} that can be used as a mitigation for problems described in {IERC20-approve}.     * Emits an {Approval} event indicating the updated allowance.     * Requirements:     * - `spender` cannot be the zero address."
      },
      "initialize(string,string,uint8)": {
        "details": "Sets the values for `name`, `symbol`, and `decimals`. All three of these values are immutable: they can only be set once during construction."
      },
      "name()": {
        "details": "Returns the name of the token."
      },
      "symbol()": {
        "details": "Returns the symbol of the token, usually a shorter version of the name."
      },
      "totalSupply()": {
        "details": "See {IERC20-totalSupply}."
      },
      "transfer(address,uint256)": {
        "details": "See {IERC20-transfer}.     * Requirements:     * - `recipient` cannot be the zero address. - the caller must have a balance of at least `amount`."
      }
    }
  },
  "userdoc": {
    "methods": {}
  }
}