{
  "contractName": "WhitelistAdminRole",
  "abi": [
    {
      "anonymous": false,
      "inputs": [
        {
          "indexed": true,
          "internalType": "address",
          "name": "account",
          "type": "address"
        }
      ],
      "name": "WhitelistAdminAdded",
      "type": "event"
    },
    {
      "anonymous": false,
      "inputs": [
        {
          "indexed": true,
          "internalType": "address",
          "name": "account",
          "type": "address"
        }
      ],
      "name": "WhitelistAdminRemoved",
      "type": "event"
    },
    {
      "constant": false,
      "inputs": [
        {
          "internalType": "address",
          "name": "sender",
          "type": "address"
        }
      ],
      "name": "initialize",
      "outputs": [],
      "payable": false,
      "stateMutability": "nonpayable",
      "type": "function"
    },
    {
      "constant": true,
      "inputs": [
        {
          "internalType": "address",
          "name": "account",
          "type": "address"
        }
      ],
      "name": "isWhitelistAdmin",
      "outputs": [
        {
          "internalType": "bool",
          "name": "",
          "type": "bool"
        }
      ],
      "payable": false,
      "stateMutability": "view",
      "type": "function"
    },
    {
      "constant": false,
      "inputs": [
        {
          "internalType": "address",
          "name": "account",
          "type": "address"
        }
      ],
      "name": "addWhitelistAdmin",
      "outputs": [],
      "payable": false,
      "stateMutability": "nonpayable",
      "type": "function"
    },
    {
      "constant": false,
      "inputs": [],
      "name": "renounceWhitelistAdmin",
      "outputs": [],
      "payable": false,
      "stateMutability": "nonpayable",
      "type": "function"
    }
  ],
  "bytecode": "0x60806040526104eb806100136000396000f3fe608060405234801561001057600080fd5b506004361061004c5760003560e01c80634c5a628c146100515780637362d9c81461005b578063bb5f747b14610081578063c4d66de8146100bb575b600080fd5b6100596100e1565b005b6100596004803603602081101561007157600080fd5b50356001600160a01b03166100f3565b6100a76004803603602081101561009757600080fd5b50356001600160a01b031661014a565b604080519115158252519081900360200190f35b610059600480360360208110156100d157600080fd5b50356001600160a01b0316610163565b6100f16100ec61021c565b610220565b565b6101036100fe61021c565b61014a565b61013e5760405162461bcd60e51b81526004018080602001828103825260408152602001806104776040913960400191505060405180910390fd5b61014781610268565b50565b600061015d60338363ffffffff6102b016565b92915050565b600054610100900460ff168061017c575061017c610317565b8061018a575060005460ff16155b6101c55760405162461bcd60e51b815260040180806020018281038252602e815260200180610449602e913960400191505060405180910390fd5b600054610100900460ff161580156101f0576000805460ff1961ff0019909116610100171660011790555b6101f98261014a565b6102065761020682610268565b8015610218576000805461ff00191690555b5050565b3390565b61023160338263ffffffff61031d16565b6040516001600160a01b038216907f0a8eb35e5ca14b3d6f28e4abf2f128dbab231a58b56e89beb5d636115001e16590600090a250565b61027960338263ffffffff61038416565b6040516001600160a01b038216907f22380c05984257a1cb900161c713dd71d39e74820f1aea43bd3f1bdd2096129990600090a250565b60006001600160a01b0382166102f75760405162461bcd60e51b81526004018080602001828103825260228152602001806104276022913960400191505060405180910390fd5b506001600160a01b03166000908152602091909152604090205460ff1690565b303b1590565b61032782826102b0565b6103625760405162461bcd60e51b81526004018080602001828103825260218152602001806104066021913960400191505060405180910390fd5b6001600160a01b0316600090815260209190915260409020805460ff19169055565b61038e82826102b0565b156103e0576040805162461bcd60e51b815260206004820152601f60248201527f526f6c65733a206163636f756e7420616c72656164792068617320726f6c6500604482015290519081900360640190fd5b6001600160a01b0316600090815260209190915260409020805460ff1916600117905556fe526f6c65733a206163636f756e7420646f6573206e6f74206861766520726f6c65526f6c65733a206163636f756e7420697320746865207a65726f2061646472657373436f6e747261637420696e7374616e63652068617320616c7265616479206265656e20696e697469616c697a656457686974656c69737441646d696e526f6c653a2063616c6c657220646f6573206e6f742068617665207468652057686974656c69737441646d696e20726f6c65a265627a7a72315820b246e1c56ba2bce367097efd6608a21ceb11478bdf6e6372b477e8cdf7bc2d1f64736f6c63430005110032",
  "source": "pragma solidity ^0.5.0;\n\nimport \"@openzeppelin/upgrades/contracts/Initializable.sol\";\n\nimport \"../../GSN/Context.sol\";\nimport \"../Roles.sol\";\n\n/**\n * @title WhitelistAdminRole\n * @dev WhitelistAdmins are responsible for assigning and removing Whitelisted accounts.\n */\ncontract WhitelistAdminRole is Initializable, Context {\n    using Roles for Roles.Role;\n\n    event WhitelistAdminAdded(address indexed account);\n    event WhitelistAdminRemoved(address indexed account);\n\n    Roles.Role private _whitelistAdmins;\n\n    function initialize(address sender) public initializer {\n        if (!isWhitelistAdmin(sender)) {\n            _addWhitelistAdmin(sender);\n        }\n    }\n\n    modifier onlyWhitelistAdmin() {\n        require(isWhitelistAdmin(_msgSender()), \"WhitelistAdminRole: caller does not have the WhitelistAdmin role\");\n        _;\n    }\n\n    function isWhitelistAdmin(address account) public view returns (bool) {\n        return _whitelistAdmins.has(account);\n    }\n\n    function addWhitelistAdmin(address account) public onlyWhitelistAdmin {\n        _addWhitelistAdmin(account);\n    }\n\n    function renounceWhitelistAdmin() public {\n        _removeWhitelistAdmin(_msgSender());\n    }\n\n    function _addWhitelistAdmin(address account) internal {\n        _whitelistAdmins.add(account);\n        emit WhitelistAdminAdded(account);\n    }\n\n    function _removeWhitelistAdmin(address account) internal {\n        _whitelistAdmins.remove(account);\n        emit WhitelistAdminRemoved(account);\n    }\n\n    uint256[50] private ______gap;\n}\n",
  "sourcePath": "@openzeppelin/contracts-ethereum-package/contracts/access/roles/WhitelistAdminRole.sol",
  "compiler": {
    "name": "solc",
    "version": "0.5.17+commit.d19bba13.Emscripten.clang"
  },
  "schemaVersion": "3.2.3",
  "updatedAt": "2020-10-12T14:23:11.617Z",
  "devdoc": {
    "details": "WhitelistAdmins are responsible for assigning and removing Whitelisted accounts.",
    "methods": {},
    "title": "WhitelistAdminRole"
  },
  "userdoc": {
    "methods": {}
  }
}