{
  "contractName": "ATMToken",
  "abi": [
    {
      "anonymous": false,
      "inputs": [
        {
          "indexed": true,
          "internalType": "address",
          "name": "owner",
          "type": "address"
        },
        {
          "indexed": true,
          "internalType": "address",
          "name": "spender",
          "type": "address"
        },
        {
          "indexed": false,
          "internalType": "uint256",
          "name": "value",
          "type": "uint256"
        }
      ],
      "name": "Approval",
      "type": "event"
    },
    {
      "anonymous": false,
      "inputs": [
        {
          "indexed": true,
          "internalType": "address",
          "name": "account",
          "type": "address"
        }
      ],
      "name": "MinterAdded",
      "type": "event"
    },
    {
      "anonymous": false,
      "inputs": [
        {
          "indexed": true,
          "internalType": "address",
          "name": "account",
          "type": "address"
        }
      ],
      "name": "MinterRemoved",
      "type": "event"
    },
    {
      "anonymous": false,
      "inputs": [
        {
          "indexed": false,
          "internalType": "uint256",
          "name": "newCap",
          "type": "uint256"
        }
      ],
      "name": "NewCap",
      "type": "event"
    },
    {
      "anonymous": false,
      "inputs": [
        {
          "indexed": false,
          "internalType": "address",
          "name": "beneficiary",
          "type": "address"
        },
        {
          "indexed": false,
          "internalType": "uint256",
          "name": "amount",
          "type": "uint256"
        },
        {
          "indexed": false,
          "internalType": "uint256",
          "name": "deadline",
          "type": "uint256"
        }
      ],
      "name": "NewVesting",
      "type": "event"
    },
    {
      "anonymous": false,
      "inputs": [
        {
          "indexed": false,
          "internalType": "address",
          "name": "beneficiary",
          "type": "address"
        },
        {
          "indexed": false,
          "internalType": "uint256",
          "name": "amount",
          "type": "uint256"
        },
        {
          "indexed": false,
          "internalType": "uint256",
          "name": "deadline",
          "type": "uint256"
        }
      ],
      "name": "RevokeVesting",
      "type": "event"
    },
    {
      "anonymous": false,
      "inputs": [
        {
          "indexed": false,
          "internalType": "uint256",
          "name": "id",
          "type": "uint256"
        }
      ],
      "name": "Snapshot",
      "type": "event"
    },
    {
      "anonymous": false,
      "inputs": [
        {
          "indexed": true,
          "internalType": "address",
          "name": "from",
          "type": "address"
        },
        {
          "indexed": true,
          "internalType": "address",
          "name": "to",
          "type": "address"
        },
        {
          "indexed": false,
          "internalType": "uint256",
          "name": "value",
          "type": "uint256"
        }
      ],
      "name": "Transfer",
      "type": "event"
    },
    {
      "anonymous": false,
      "inputs": [
        {
          "indexed": false,
          "internalType": "address",
          "name": "beneficiary",
          "type": "address"
        },
        {
          "indexed": false,
          "internalType": "uint256",
          "name": "amount",
          "type": "uint256"
        }
      ],
      "name": "VestingClaimed",
      "type": "event"
    },
    {
      "constant": false,
      "inputs": [
        {
          "internalType": "address",
          "name": "account",
          "type": "address"
        }
      ],
      "name": "addMinter",
      "outputs": [],
      "payable": false,
      "stateMutability": "nonpayable",
      "type": "function"
    },
    {
      "constant": true,
      "inputs": [
        {
          "internalType": "address",
          "name": "owner",
          "type": "address"
        },
        {
          "internalType": "address",
          "name": "spender",
          "type": "address"
        }
      ],
      "name": "allowance",
      "outputs": [
        {
          "internalType": "uint256",
          "name": "",
          "type": "uint256"
        }
      ],
      "payable": false,
      "stateMutability": "view",
      "type": "function"
    },
    {
      "constant": false,
      "inputs": [
        {
          "internalType": "address",
          "name": "spender",
          "type": "address"
        },
        {
          "internalType": "uint256",
          "name": "amount",
          "type": "uint256"
        }
      ],
      "name": "approve",
      "outputs": [
        {
          "internalType": "bool",
          "name": "",
          "type": "bool"
        }
      ],
      "payable": false,
      "stateMutability": "nonpayable",
      "type": "function"
    },
    {
      "constant": true,
      "inputs": [
        {
          "internalType": "address",
          "name": "",
          "type": "address"
        }
      ],
      "name": "assignedTokens",
      "outputs": [
        {
          "internalType": "uint256",
          "name": "",
          "type": "uint256"
        }
      ],
      "payable": false,
      "stateMutability": "view",
      "type": "function"
    },
    {
      "constant": true,
      "inputs": [],
      "name": "atmAddress",
      "outputs": [
        {
          "internalType": "address",
          "name": "",
          "type": "address"
        }
      ],
      "payable": false,
      "stateMutability": "view",
      "type": "function"
    },
    {
      "constant": true,
      "inputs": [
        {
          "internalType": "address",
          "name": "account",
          "type": "address"
        }
      ],
      "name": "balanceOf",
      "outputs": [
        {
          "internalType": "uint256",
          "name": "",
          "type": "uint256"
        }
      ],
      "payable": false,
      "stateMutability": "view",
      "type": "function"
    },
    {
      "constant": false,
      "inputs": [
        {
          "internalType": "uint256",
          "name": "amount",
          "type": "uint256"
        }
      ],
      "name": "burn",
      "outputs": [],
      "payable": false,
      "stateMutability": "nonpayable",
      "type": "function"
    },
    {
      "constant": false,
      "inputs": [
        {
          "internalType": "address",
          "name": "account",
          "type": "address"
        },
        {
          "internalType": "uint256",
          "name": "amount",
          "type": "uint256"
        }
      ],
      "name": "burnFrom",
      "outputs": [],
      "payable": false,
      "stateMutability": "nonpayable",
      "type": "function"
    },
    {
      "constant": true,
      "inputs": [],
      "name": "decimals",
      "outputs": [
        {
          "internalType": "uint8",
          "name": "",
          "type": "uint8"
        }
      ],
      "payable": false,
      "stateMutability": "view",
      "type": "function"
    },
    {
      "constant": false,
      "inputs": [
        {
          "internalType": "address",
          "name": "spender",
          "type": "address"
        },
        {
          "internalType": "uint256",
          "name": "subtractedValue",
          "type": "uint256"
        }
      ],
      "name": "decreaseAllowance",
      "outputs": [
        {
          "internalType": "bool",
          "name": "",
          "type": "bool"
        }
      ],
      "payable": false,
      "stateMutability": "nonpayable",
      "type": "function"
    },
    {
      "constant": false,
      "inputs": [
        {
          "internalType": "address",
          "name": "spender",
          "type": "address"
        },
        {
          "internalType": "uint256",
          "name": "addedValue",
          "type": "uint256"
        }
      ],
      "name": "increaseAllowance",
      "outputs": [
        {
          "internalType": "bool",
          "name": "",
          "type": "bool"
        }
      ],
      "payable": false,
      "stateMutability": "nonpayable",
      "type": "function"
    },
    {
      "constant": true,
      "inputs": [],
      "name": "initialized",
      "outputs": [
        {
          "internalType": "bool",
          "name": "",
          "type": "bool"
        }
      ],
      "payable": false,
      "stateMutability": "view",
      "type": "function"
    },
    {
      "constant": true,
      "inputs": [
        {
          "internalType": "address",
          "name": "account",
          "type": "address"
        }
      ],
      "name": "isMinter",
      "outputs": [
        {
          "internalType": "bool",
          "name": "",
          "type": "bool"
        }
      ],
      "payable": false,
      "stateMutability": "view",
      "type": "function"
    },
    {
      "constant": true,
      "inputs": [],
      "name": "name",
      "outputs": [
        {
          "internalType": "string",
          "name": "",
          "type": "string"
        }
      ],
      "payable": false,
      "stateMutability": "view",
      "type": "function"
    },
    {
      "constant": false,
      "inputs": [],
      "name": "renounceMinter",
      "outputs": [],
      "payable": false,
      "stateMutability": "nonpayable",
      "type": "function"
    },
    {
      "constant": true,
      "inputs": [],
      "name": "settings",
      "outputs": [
        {
          "internalType": "contract IATMSettings",
          "name": "",
          "type": "address"
        }
      ],
      "payable": false,
      "stateMutability": "view",
      "type": "function"
    },
    {
      "constant": true,
      "inputs": [],
      "name": "symbol",
      "outputs": [
        {
          "internalType": "string",
          "name": "",
          "type": "string"
        }
      ],
      "payable": false,
      "stateMutability": "view",
      "type": "function"
    },
    {
      "constant": true,
      "inputs": [],
      "name": "totalSupply",
      "outputs": [
        {
          "internalType": "uint256",
          "name": "",
          "type": "uint256"
        }
      ],
      "payable": false,
      "stateMutability": "view",
      "type": "function"
    },
    {
      "constant": false,
      "inputs": [
        {
          "internalType": "address",
          "name": "recipient",
          "type": "address"
        },
        {
          "internalType": "uint256",
          "name": "amount",
          "type": "uint256"
        }
      ],
      "name": "transfer",
      "outputs": [
        {
          "internalType": "bool",
          "name": "",
          "type": "bool"
        }
      ],
      "payable": false,
      "stateMutability": "nonpayable",
      "type": "function"
    },
    {
      "constant": false,
      "inputs": [
        {
          "internalType": "address",
          "name": "sender",
          "type": "address"
        },
        {
          "internalType": "address",
          "name": "recipient",
          "type": "address"
        },
        {
          "internalType": "uint256",
          "name": "amount",
          "type": "uint256"
        }
      ],
      "name": "transferFrom",
      "outputs": [
        {
          "internalType": "bool",
          "name": "",
          "type": "bool"
        }
      ],
      "payable": false,
      "stateMutability": "nonpayable",
      "type": "function"
    },
    {
      "constant": true,
      "inputs": [
        {
          "internalType": "address",
          "name": "",
          "type": "address"
        }
      ],
      "name": "vestingsCount",
      "outputs": [
        {
          "internalType": "uint256",
          "name": "",
          "type": "uint256"
        }
      ],
      "payable": false,
      "stateMutability": "view",
      "type": "function"
    },
    {
      "constant": false,
      "inputs": [
        {
          "internalType": "string",
          "name": "name",
          "type": "string"
        },
        {
          "internalType": "string",
          "name": "symbol",
          "type": "string"
        },
        {
          "internalType": "uint8",
          "name": "decimals",
          "type": "uint8"
        }
      ],
      "name": "initialize",
      "outputs": [],
      "payable": false,
      "stateMutability": "nonpayable",
      "type": "function"
    },
    {
      "constant": false,
      "inputs": [
        {
          "internalType": "string",
          "name": "name",
          "type": "string"
        },
        {
          "internalType": "string",
          "name": "symbol",
          "type": "string"
        },
        {
          "internalType": "uint8",
          "name": "decimals",
          "type": "uint8"
        },
        {
          "internalType": "uint256",
          "name": "cap",
          "type": "uint256"
        },
        {
          "internalType": "uint256",
          "name": "maxVestingsPerWallet",
          "type": "uint256"
        },
        {
          "internalType": "address",
          "name": "atmSettingsAddress",
          "type": "address"
        },
        {
          "internalType": "address",
          "name": "atm",
          "type": "address"
        }
      ],
      "name": "initialize",
      "outputs": [],
      "payable": false,
      "stateMutability": "nonpayable",
      "type": "function"
    },
    {
      "constant": false,
      "inputs": [
        {
          "internalType": "address",
          "name": "sender",
          "type": "address"
        }
      ],
      "name": "initialize",
      "outputs": [],
      "payable": false,
      "stateMutability": "nonpayable",
      "type": "function"
    },
    {
      "constant": true,
      "inputs": [],
      "name": "cap",
      "outputs": [
        {
          "internalType": "uint256",
          "name": "",
          "type": "uint256"
        }
      ],
      "payable": false,
      "stateMutability": "view",
      "type": "function"
    },
    {
      "constant": false,
      "inputs": [
        {
          "internalType": "uint256",
          "name": "newCap",
          "type": "uint256"
        }
      ],
      "name": "setCap",
      "outputs": [],
      "payable": false,
      "stateMutability": "nonpayable",
      "type": "function"
    },
    {
      "constant": false,
      "inputs": [
        {
          "internalType": "address",
          "name": "account",
          "type": "address"
        },
        {
          "internalType": "uint256",
          "name": "amount",
          "type": "uint256"
        }
      ],
      "name": "mint",
      "outputs": [
        {
          "internalType": "bool",
          "name": "",
          "type": "bool"
        }
      ],
      "payable": false,
      "stateMutability": "nonpayable",
      "type": "function"
    },
    {
      "constant": false,
      "inputs": [
        {
          "internalType": "address",
          "name": "account",
          "type": "address"
        },
        {
          "internalType": "uint256",
          "name": "amount",
          "type": "uint256"
        },
        {
          "internalType": "uint256",
          "name": "cliff",
          "type": "uint256"
        },
        {
          "internalType": "uint256",
          "name": "vestingTime",
          "type": "uint256"
        }
      ],
      "name": "mintVesting",
      "outputs": [],
      "payable": false,
      "stateMutability": "nonpayable",
      "type": "function"
    },
    {
      "constant": false,
      "inputs": [
        {
          "internalType": "address",
          "name": "account",
          "type": "address"
        },
        {
          "internalType": "uint256",
          "name": "vestingId",
          "type": "uint256"
        }
      ],
      "name": "revokeVesting",
      "outputs": [],
      "payable": false,
      "stateMutability": "nonpayable",
      "type": "function"
    },
    {
      "constant": false,
      "inputs": [],
      "name": "withdrawVested",
      "outputs": [],
      "payable": false,
      "stateMutability": "nonpayable",
      "type": "function"
    },
    {
      "constant": true,
      "inputs": [
        {
          "internalType": "address",
          "name": "account",
          "type": "address"
        },
        {
          "internalType": "uint256",
          "name": "snapshotId",
          "type": "uint256"
        }
      ],
      "name": "balanceOfAt",
      "outputs": [
        {
          "internalType": "uint256",
          "name": "",
          "type": "uint256"
        }
      ],
      "payable": false,
      "stateMutability": "view",
      "type": "function"
    },
    {
      "constant": true,
      "inputs": [
        {
          "internalType": "uint256",
          "name": "snapshotId",
          "type": "uint256"
        }
      ],
      "name": "totalSupplyAt",
      "outputs": [
        {
          "internalType": "uint256",
          "name": "",
          "type": "uint256"
        }
      ],
      "payable": false,
      "stateMutability": "view",
      "type": "function"
    }
  ],
  "bytecode": "0x60806040526129a9806100136000396000f3fe608060405234801561001057600080fd5b50600436106101f05760003560e01c806370a082311161010f578063aa271e1a116100a2578063dd62ed3e11610071578063dd62ed3e1461082d578063e06174e41461085b578063ea4d757314610863578063fa6799f21461089b576101f0565b8063aa271e1a14610797578063c4d66de8146107bd578063cb7abc52146107e3578063d630551814610807576101f0565b8063983b2d56116100de578063983b2d56146107115780639865027514610737578063a457c2d71461073f578063a9059cbb1461076b576101f0565b806370a082311461069a57806379cc6790146106c057806395d89b41146106ec578063981b24d0146106f4576101f0565b8063355274ea1161018757806347786d371161015657806347786d37146104dd5780634ee2cd7e146104fa57806353e6217b14610526578063561cf2ab1461054c576101f0565b8063355274ea14610460578063395093511461046857806340c10f191461049457806342966c68146104c0576101f0565b80631624f6c6116101c35780631624f6c6146102c457806318160ddd146103f257806323b872dd1461040c578063313ce56714610442576101f0565b806306fdde03146101f5578063095ea7b3146102725780630ea0783c146102b2578063158ef93e146102bc575b600080fd5b6101fd6108c7565b6040805160208082528351818301528351919283929083019185019080838360005b8381101561023757818101518382015260200161021f565b50505050905090810190601f1680156102645780820380516001836020036101000a031916815260200191505b509250505060405180910390f35b61029e6004803603604081101561028857600080fd5b506001600160a01b03813516906020013561095e565b604080519115158252519081900360200190f35b6102ba61097c565b005b61029e610b26565b6102ba600480360360608110156102da57600080fd5b810190602081018135600160201b8111156102f457600080fd5b82018360208201111561030657600080fd5b803590602001918460018302840111600160201b8311171561032757600080fd5b91908080601f0160208091040260200160405190810160405280939291908181526020018383808284376000920191909152509295949360208101935035915050600160201b81111561037957600080fd5b82018360208201111561038b57600080fd5b803590602001918460018302840111600160201b831117156103ac57600080fd5b91908080601f0160208091040260200160405190810160405280939291908181526020018383808284376000920191909152509295505050903560ff169150610b309050565b6103fa610c0c565b60408051918252519081900360200190f35b61029e6004803603606081101561042257600080fd5b506001600160a01b03813581169160208101359091169060400135610c12565b61044a610c9f565b6040805160ff9092168252519081900360200190f35b6103fa610ca8565b61029e6004803603604081101561047e57600080fd5b506001600160a01b038135169060200135610caf565b61029e600480360360408110156104aa57600080fd5b506001600160a01b038135169060200135610d03565b6102ba600480360360208110156104d657600080fd5b5035610ea7565b6102ba600480360360208110156104f357600080fd5b5035610ebb565b6103fa6004803603604081101561051057600080fd5b506001600160a01b03813516906020013561100d565b6103fa6004803603602081101561053c57600080fd5b50356001600160a01b0316611057565b6102ba600480360360e081101561056257600080fd5b810190602081018135600160201b81111561057c57600080fd5b82018360208201111561058e57600080fd5b803590602001918460018302840111600160201b831117156105af57600080fd5b91908080601f0160208091040260200160405190810160405280939291908181526020018383808284376000920191909152509295949360208101935035915050600160201b81111561060157600080fd5b82018360208201111561061357600080fd5b803590602001918460018302840111600160201b8311171561063457600080fd5b91908080601f0160208091040260200160405190810160405280939291908181526020018383808284376000920191909152509295505060ff833516935050506020810135906040810135906001600160a01b036060820135811691608001351661106a565b6103fa600480360360208110156106b057600080fd5b50356001600160a01b03166111b1565b6102ba600480360360408110156106d657600080fd5b506001600160a01b0381351690602001356111cc565b6101fd6111da565b6103fa6004803603602081101561070a57600080fd5b503561123b565b6102ba6004803603602081101561072757600080fd5b50356001600160a01b031661126c565b6102ba6112c0565b61029e6004803603604081101561075557600080fd5b506001600160a01b0381351690602001356112d2565b61029e6004803603604081101561078157600080fd5b506001600160a01b038135169060200135611340565b61029e600480360360208110156107ad57600080fd5b50356001600160a01b0316611354565b6102ba600480360360208110156107d357600080fd5b50356001600160a01b0316611367565b6107eb611412565b604080516001600160a01b039092168252519081900360200190f35b6103fa6004803603602081101561081d57600080fd5b50356001600160a01b0316611422565b6103fa6004803603604081101561084357600080fd5b506001600160a01b0381358116916020013516611435565b6107eb611460565b6102ba6004803603608081101561087957600080fd5b506001600160a01b038135169060208101359060408101359060600135611470565b6102ba600480360360408110156108b157600080fd5b506001600160a01b038135169060200135611791565b60338054604080516020601f60026000196101006001881615020190951694909404938401819004810282018101909252828152606093909290918301828280156109535780601f1061092857610100808354040283529160200191610953565b820191906000526020600020905b81548152906001019060200180831161093657829003601f168201915b505050505090505b90565b600061097261096b611a71565b8484611a75565b5060015b92915050565b61013b5461013c546040805163d6d77ea160e01b81526001600160a01b0392831660048201529051919092169163d6d77ea1916024808301926020929190829003018186803b1580156109ce57600080fd5b505afa1580156109e2573d6000803e3d6000fd5b505050506040513d60208110156109f857600080fd5b505115610a3c576040805162461bcd60e51b815260206004820152600d60248201526c10551357d254d7d4105554d151609a1b604482015290519081900360640190fd5b33600090815261013f6020526040902054610a9e576040805162461bcd60e51b815260206004820152601b60248201527f4143434f554e545f444f45534e545f484156455f56455354494e470000000000604482015290519081900360640190fd5b6000610aaa3342611b61565b9050610ab6338261095e565b50610abf611bee565b50610ac933611c44565b610ad230611c44565b33600081815261013f6020908152604091829020805485900390558151928352820183905280517f9fe9b7be9d151c7a8b6de49a1312ff27a15096d0d1d12999af85fe4310e0b1259281900390910190a150565b6101345460ff1690565b600054610100900460ff1680610b495750610b49611c6f565b80610b57575060005460ff16155b610b925760405162461bcd60e51b815260040180806020018281038252602e815260200180612894602e913960400191505060405180910390fd5b600054610100900460ff16158015610bbd576000805460ff1961ff0019909116610100171660011790555b8351610bd090603390602087019061267a565b508251610be490603490602086019061267a565b506035805460ff191660ff84161790558015610c06576000805461ff00191690555b50505050565b606a5490565b6000610c1f848484611c75565b610c9584610c2b611a71565b610c908560405180606001604052806028815260200161284a602891396001600160a01b038a16600090815260696020526040812090610c69611a71565b6001600160a01b03168152602081019190915260400160002054919063ffffffff611dd316565b611a75565b5060019392505050565b60355460ff1690565b6101355490565b6000610972610cbc611a71565b84610c908560696000610ccd611a71565b6001600160a01b03908116825260208083019390935260409182016000908120918c16815292529020549063ffffffff611e6a16565b610137546000906001600160a01b03163314610d5c576040805162461bcd60e51b815260206004820152601360248201527221a0a62622a92fa4a9afa727aa2fa7aba722a960691b604482015290519081900360640190fd5b61013b5461013c546040805163d6d77ea160e01b81526001600160a01b0392831660048201529051919092169163d6d77ea1916024808301926020929190829003018186803b158015610dae57600080fd5b505afa158015610dc2573d6000803e3d6000fd5b505050506040513d6020811015610dd857600080fd5b505115610e1c576040805162461bcd60e51b815260206004820152600d60248201526c10551357d254d7d4105554d151609a1b604482015290519081900360640190fd5b6001600160a01b038316610e77576040805162461bcd60e51b815260206004820181905260248201527f4d494e545f544f5f5a45524f5f414444524553535f4e4f545f414c4c4f574544604482015290519081900360640190fd5b610e8360008484611ecb565b610e8d8383611f47565b610e95611bee565b50610e9f83611c44565b610972612039565b610eb8610eb2611a71565b82612047565b50565b610137546001600160a01b03163314610f11576040805162461bcd60e51b815260206004820152601360248201527221a0a62622a92fa4a9afa727aa2fa7aba722a960691b604482015290519081900360640190fd5b61013b5461013c546040805163d6d77ea160e01b81526001600160a01b0392831660048201529051919092169163d6d77ea1916024808301926020929190829003018186803b158015610f6357600080fd5b505afa158015610f77573d6000803e3d6000fd5b505050506040513d6020811015610f8d57600080fd5b505115610fd1576040805162461bcd60e51b815260206004820152600d60248201526c10551357d254d7d4105554d151609a1b604482015290519081900360640190fd5b6101358190556040805182815290517f0267233bc19189c84fa5f0d3dab0a85c595f5e903abaa2ef4cafe94cd22df1f09181900360200190a150565b6001600160a01b03821660009081526101406020526040812081908190611035908590612143565b915091508161104c57611047856111b1565b61104e565b805b95945050505050565b61013e6020526000908152604090205481565b600054610100900460ff16806110835750611083611c6f565b80611091575060005460ff16155b6110cc5760405162461bcd60e51b815260040180806020018281038252602e815260200180612894602e913960400191505060405180910390fd5b600054610100900460ff161580156110f7576000805460ff1961ff0019909116610100171660011790555b60008511611141576040805162461bcd60e51b81526020600482015260126024820152714341505f43414e4e4f545f42455f5a45524f60701b604482015290519081900360640190fd5b61114c888888610b30565b6101358590556101368490556101378054336001600160a01b03199182161790915561013b805482166001600160a01b038681169190911790915561013c805490921690841617905580156111a7576000805461ff00191690555b5050505050505050565b6001600160a01b031660009081526068602052604090205490565b6111d68282612199565b5050565b60348054604080516020601f60026000196101006001881615020190951694909404938401819004810282018101909252828152606093909290918301828280156109535780601f1061092857610100808354040283529160200191610953565b600080600061124c84610138612143565b91509150816112625761125d610c0c565b611264565b805b949350505050565b61127c611277611a71565b611354565b6112b75760405162461bcd60e51b81526004018080602001828103825260308152602001806127d86030913960400191505060405180910390fd5b610eb8816121ed565b6112d06112cb611a71565b612235565b565b60006109726112df611a71565b84610c90856040518060600160405280602581526020016129506025913960696000611309611a71565b6001600160a01b03908116825260208083019390935260409182016000908120918d1681529252902054919063ffffffff611dd316565b600061097261134d611a71565b8484611c75565b6000610976609d8363ffffffff61227d16565b600054610100900460ff16806113805750611380611c6f565b8061138e575060005460ff16155b6113c95760405162461bcd60e51b815260040180806020018281038252602e815260200180612894602e913960400191505060405180910390fd5b600054610100900460ff161580156113f4576000805460ff1961ff0019909116610100171660011790555b6113fd826122e4565b80156111d6576000805461ff00191690555050565b61013c546001600160a01b031681565b61013f6020526000908152604090205481565b6001600160a01b03918216600090815260696020908152604080832093909416825291909152205490565b61013b546001600160a01b031681565b610137546001600160a01b031633146114c6576040805162461bcd60e51b815260206004820152601360248201527221a0a62622a92fa4a9afa727aa2fa7aba722a960691b604482015290519081900360640190fd5b61013b5461013c546040805163d6d77ea160e01b81526001600160a01b0392831660048201529051919092169163d6d77ea1916024808301926020929190829003018186803b15801561151857600080fd5b505afa15801561152c573d6000803e3d6000fd5b505050506040513d602081101561154257600080fd5b505115611586576040805162461bcd60e51b815260206004820152600d60248201526c10551357d254d7d4105554d151609a1b604482015290519081900360640190fd5b6001600160a01b0384166115e1576040805162461bcd60e51b815260206004820181905260248201527f4d494e545f544f5f5a45524f5f414444524553535f4e4f545f414c4c4f574544604482015290519081900360640190fd5b610136546001600160a01b038516600090815261013e602052604090205410611648576040805162461bcd60e51b815260206004820152601460248201527313505617d59154d5125391d4d7d4915050d2115160621b604482015290519081900360640190fd5b61165460008585611ecb565b6001600160a01b038416600090815261013e6020526040902080546002810190915561167e6126f8565b6040518060a00160405280876001600160a01b03168152602001868152602001428152602001854201815260200184420181525090506116be3086611f47565b6116c6611bee565b506116d030611c44565b6116d8612039565b6001600160a01b03868116600081815261013f6020908152604080832080548b01905561013d8252808320878452825291829020855181546001600160a01b03191695169490941784558481015160018501558482015160028501556060808601516003860155608086015160049095019490945581519283528201889052818101869052517f627ad26dcfe82ec79b33fda0ddd062f6fab9f4914acac8345f79090dfd86fb54929181900390910190a1505050505050565b610137546001600160a01b031633146117e7576040805162461bcd60e51b815260206004820152601360248201527221a0a62622a92fa4a9afa727aa2fa7aba722a960691b604482015290519081900360640190fd5b61013b5461013c546040805163d6d77ea160e01b81526001600160a01b0392831660048201529051919092169163d6d77ea1916024808301926020929190829003018186803b15801561183957600080fd5b505afa15801561184d573d6000803e3d6000fd5b505050506040513d602081101561186357600080fd5b5051156118a7576040805162461bcd60e51b815260206004820152600d60248201526c10551357d254d7d4105554d151609a1b604482015290519081900360640190fd5b6001600160a01b038216600090815261013f6020526040902054611912576040805162461bcd60e51b815260206004820152601b60248201527f4143434f554e545f444f45534e545f484156455f56455354494e470000000000604482015290519081900360640190fd5b61191a6126f8565b506001600160a01b03808316600090815261013d602090815260408083208584528252808320815160a08101835281549095168552600181015492850183905260028101549185018290526003810154606086018190526004909101546080860181905261198c939242929091612387565b6001600160a01b038516600090815261013f602052604090208054829003905590506119b83082612047565b6119c0611bee565b506119ca30611c44565b6119d2612039565b6080820151604080516001600160a01b03871681526020810184905280820192909252517fafc516b1509f836efdc27d64d966d14f82ef53f456f0de74c12ac8a651a084cc9181900360600190a150506001600160a01b03909116600090815261013d6020908152604080832093835292905290812080546001600160a01b031916815560018101829055600281018290556003810182905560040155565b3390565b6001600160a01b038316611aba5760405162461bcd60e51b815260040180806020018281038252602481526020018061292c6024913960400191505060405180910390fd5b6001600160a01b038216611aff5760405162461bcd60e51b81526004018080602001828103825260228152602001806127906022913960400191505060405180910390fd5b6001600160a01b03808416600081815260696020908152604080832094871680845294825291829020859055815185815291517f8c5be1e5ebec7d5bd14f71427d1e84f3dd0314c0f7b2291e5b200ac8c7c3b9259281900390910190a3505050565b6001600160a01b038216600090815261013e602090815260408083205461013f90925282205482805b83811015611be3576001600160a01b038716600090815261013d6020908152604080832084845290915290206001810154600282015460038301546004840154611bd893928b929091612387565b925050600101611b8a565b509003949350505050565b61013a54600090611c0690600163ffffffff611e6a16565b61013a8190556040805182815290517f8030e83b04d87bef53480e26263266d6ca66863aa8506aca6f2559d18aa1cb679181900360200190a1905090565b6001600160a01b038116600090815261014060205260409020610eb890611c6a836111b1565b6123ff565b303b1590565b6001600160a01b038316611cba5760405162461bcd60e51b81526004018080602001828103825260258152602001806129076025913960400191505060405180910390fd5b6001600160a01b038216611cff5760405162461bcd60e51b815260040180806020018281038252602381526020018061274b6023913960400191505060405180910390fd5b611d42816040518060600160405280602681526020016127b2602691396001600160a01b038616600090815260686020526040902054919063ffffffff611dd316565b6001600160a01b038085166000908152606860205260408082209390935590841681522054611d77908263ffffffff611e6a16565b6001600160a01b0380841660008181526068602090815260409182902094909455805185815290519193928716927fddf252ad1be2c89b69c2b068fc378daa952ba7f163c4a11628f55a4df523b3ef92918290030190a3505050565b60008184841115611e625760405162461bcd60e51b81526004018080602001828103825283818151815260200191508051906020019080838360005b83811015611e27578181015183820152602001611e0f565b50505050905090810190601f168015611e545780820380516001836020036101000a031916815260200191505b509250505060405180910390fd5b505050900390565b600082820183811015611ec4576040805162461bcd60e51b815260206004820152601b60248201527f536166654d6174683a206164646974696f6e206f766572666c6f770000000000604482015290519081900360640190fd5b9392505050565b6001600160a01b038316158015611efc575061013554611ef982611eed610c0c565b9063ffffffff611e6a16565b11155b611f42576040805162461bcd60e51b8152602060048201526012602482015271115490cc8c17d0d05417d15610d15151115160721b604482015290519081900360640190fd5b505050565b6001600160a01b038216611fa2576040805162461bcd60e51b815260206004820152601f60248201527f45524332303a206d696e7420746f20746865207a65726f206164647265737300604482015290519081900360640190fd5b606a54611fb5908263ffffffff611e6a16565b606a556001600160a01b038216600090815260686020526040902054611fe1908263ffffffff611e6a16565b6001600160a01b03831660008181526068602090815260408083209490945583518581529351929391927fddf252ad1be2c89b69c2b068fc378daa952ba7f163c4a11628f55a4df523b3ef9281900390910190a35050565b6112d0610138611c6a610c0c565b6001600160a01b03821661208c5760405162461bcd60e51b81526004018080602001828103825260218152602001806128e66021913960400191505060405180910390fd5b6120cf8160405180606001604052806022815260200161276e602291396001600160a01b038516600090815260686020526040902054919063ffffffff611dd316565b6001600160a01b038316600090815260686020526040902055606a546120fb908263ffffffff61243116565b606a556040805182815290516000916001600160a01b038516917fddf252ad1be2c89b69c2b068fc378daa952ba7f163c4a11628f55a4df523b3ef9181900360200190a35050565b60008080612157848663ffffffff61247316565b8454909150811415612170575060009150819050612192565b600184600101828154811061218157fe5b906000526020600020015492509250505b9250929050565b6121a38282612047565b6111d6826121af611a71565b610c90846040518060600160405280602481526020016128c2602491396001600160a01b038816600090815260696020526040812090610c69611a71565b6121fe609d8263ffffffff61251416565b6040516001600160a01b038216907f6ae172837ea30b801fbfcdd4108aa1d5bf8ff775444fd70256b44e6bf3dfc3f690600090a250565b612246609d8263ffffffff61259516565b6040516001600160a01b038216907fe94479a9f7e1952cc78f2d6baab678adc1b772d936c6583def489e524cb6669290600090a250565b60006001600160a01b0382166122c45760405162461bcd60e51b81526004018080602001828103825260228152602001806128726022913960400191505060405180910390fd5b506001600160a01b03166000908152602091909152604090205460ff1690565b600054610100900460ff16806122fd57506122fd611c6f565b8061230b575060005460ff16155b6123465760405162461bcd60e51b815260040180806020018281038252602e815260200180612894602e913960400191505060405180910390fd5b600054610100900460ff16158015612371576000805460ff1961ff0019909116610100171660011790555b61237a82611354565b6113fd576113fd826121ed565b60008185106123985750600061104e565b828510156123a757508461104e565b60006123e26123bc848763ffffffff61243116565b6123cc888863ffffffff61243116565b816123d357fe5b8991900463ffffffff6125fc16565b90506123f4878263ffffffff61243116565b979650505050505050565b61013a548254600181810185556000858152602080822090930193909355938401805494850181558252902090910155565b6000611ec483836040518060400160405280601e81526020017f536166654d6174683a207375627472616374696f6e206f766572666c6f770000815250611dd3565b815460009061248457506000610976565b82546000905b808210156124d357600061249e8383612655565b9050848682815481106124ad57fe5b906000526020600020015411156124c6578091506124cd565b8060010192505b5061248a565b6000821180156124fb5750838560018403815481106124ee57fe5b9060005260206000200154145b1561250c5750600019019050610976565b509050610976565b61251e828261227d565b15612570576040805162461bcd60e51b815260206004820152601f60248201527f526f6c65733a206163636f756e7420616c72656164792068617320726f6c6500604482015290519081900360640190fd5b6001600160a01b0316600090815260209190915260409020805460ff19166001179055565b61259f828261227d565b6125da5760405162461bcd60e51b81526004018080602001828103825260218152602001806128086021913960400191505060405180910390fd5b6001600160a01b0316600090815260209190915260409020805460ff19169055565b60008261260b57506000610976565b8282028284828161261857fe5b0414611ec45760405162461bcd60e51b81526004018080602001828103825260218152602001806128296021913960400191505060405180910390fd5b6000600280830660028506018161266857fe5b04600283046002850401019392505050565b828054600181600116156101000203166002900490600052602060002090601f016020900481019282601f106126bb57805160ff19168380011785556126e8565b828001600101855582156126e8579182015b828111156126e85782518255916020019190600101906126cd565b506126f4929150612730565b5090565b6040518060a0016040528060006001600160a01b03168152602001600081526020016000815260200160008152602001600081525090565b61095b91905b808211156126f4576000815560010161273656fe45524332303a207472616e7366657220746f20746865207a65726f206164647265737345524332303a206275726e20616d6f756e7420657863656564732062616c616e636545524332303a20617070726f766520746f20746865207a65726f206164647265737345524332303a207472616e7366657220616d6f756e7420657863656564732062616c616e63654d696e746572526f6c653a2063616c6c657220646f6573206e6f74206861766520746865204d696e74657220726f6c65526f6c65733a206163636f756e7420646f6573206e6f74206861766520726f6c65536166654d6174683a206d756c7469706c69636174696f6e206f766572666c6f7745524332303a207472616e7366657220616d6f756e74206578636565647320616c6c6f77616e6365526f6c65733a206163636f756e7420697320746865207a65726f2061646472657373436f6e747261637420696e7374616e63652068617320616c7265616479206265656e20696e697469616c697a656445524332303a206275726e20616d6f756e74206578636565647320616c6c6f77616e636545524332303a206275726e2066726f6d20746865207a65726f206164647265737345524332303a207472616e736665722066726f6d20746865207a65726f206164647265737345524332303a20617070726f76652066726f6d20746865207a65726f206164647265737345524332303a2064656372656173656420616c6c6f77616e63652062656c6f77207a65726fa265627a7a723158208fafbe1c223ce900d22828be5f31b0068a71d37d60cfe275d4d511388de2b53364736f6c63430005110032",
  "source": "pragma solidity 0.5.17;\n\n/* Import */\n\nimport \"@openzeppelin/contracts-ethereum-package/contracts/token/ERC20/ERC20Detailed.sol\";\nimport \"@openzeppelin/contracts-ethereum-package/contracts/token/ERC20/ERC20Mintable.sol\";\nimport \"@openzeppelin/contracts-ethereum-package/contracts/token/ERC20/ERC20Burnable.sol\";\nimport \"./ATMTokenInterface.sol\";\n\nimport \"../base/TInitializable.sol\";\nimport \"@openzeppelin/contracts/utils/Arrays.sol\";\nimport \"../settings/IATMSettings.sol\";\n\n\n/**\n *  @title ATM Token for Teller DAO\n *\n *  @author develop@teller.finance\n */\n\ncontract ATMToken is\n    ATMTokenInterface,\n    ERC20Detailed,\n    ERC20Mintable,\n    ERC20Burnable,\n    TInitializable\n{\n    /**\n     *  @notice ATMToken implements an ERC20 token with a supply cap and a vesting scheduling\n     */\n    using SafeMath for uint256;\n    using Arrays for uint256[];\n\n    /* Modifiers */\n    /**\n        @notice Checks if sender is owner\n        @dev Throws an error if the sender is not the owner\n     */\n    modifier onlyOwner() {\n        require(msg.sender == _owner, \"CALLER_IS_NOT_OWNER\");\n        _;\n    }\n\n    /**\n        @notice Checks if the platform is paused or not\n        @dev Throws an error is the Teller platform is paused\n     */\n    modifier whenNotPaused() {\n        require(!settings.isATMPaused(atmAddress), \"ATM_IS_PAUSED\");\n        _;\n    }\n\n    /* State Variables */\n    uint256 private _cap;\n    uint256 private _maxVestingsPerWallet;\n    address private _owner;\n    Snapshots private _totalSupplySnapshots;\n    uint256 private _currentSnapshotId;\n    IATMSettings public settings;\n    address public atmAddress;\n\n    /* Structs */\n    struct VestingTokens {\n        address account;\n        uint256 amount;\n        uint256 start;\n        uint256 cliff;\n        uint256 deadline;\n    }\n\n    struct Snapshots {\n        uint256[] ids;\n        uint256[] values;\n    }\n\n    /* Mappings */\n    mapping(address => mapping(uint256 => VestingTokens)) private _vestingBalances; // Mapping user address to vestings id, which in turn is mapped to the VestingTokens struct\n    mapping(address => uint256) public vestingsCount;\n    mapping(address => uint256) public assignedTokens;\n    mapping(address => Snapshots) private _accountBalanceSnapshots;\n\n    /* Functions */\n\n    function initialize(\n        string memory name,\n        string memory symbol,\n        uint8 decimals,\n        uint256 cap,\n        uint256 maxVestingsPerWallet,\n        address atmSettingsAddress,\n        address atm\n    ) public initializer {\n        require(cap > 0, \"CAP_CANNOT_BE_ZERO\");\n        super.initialize(name, symbol, decimals);\n        _cap = cap;\n        _maxVestingsPerWallet = maxVestingsPerWallet;\n        _owner = msg.sender;\n        settings = IATMSettings(atmSettingsAddress);\n        atmAddress = atm;\n    }\n\n    /**\n     * @notice Returns the cap on the token's total supply\n     * @return The supply capped amount\n     */\n    function cap() external view returns (uint256) {\n        return _cap;\n    }\n\n    /**\n     * @notice Sets a new cap on the token's total supply.\n     * @param newCap The new capped amount of tokens\n     */\n    function setCap(uint256 newCap) external onlyOwner() whenNotPaused() {\n        _cap = newCap;\n        emit NewCap(_cap);\n    }\n\n    /**\n     * @notice Increase account supply of specified token amount\n     * @param account The account to mint tokens for\n     * @param amount The amount of tokens to mint\n     * @return true if successful\n     */\n    function mint(address account, uint256 amount)\n        public\n        onlyOwner()\n        whenNotPaused()\n        returns (bool)\n    {\n        require(account != address(0x0), \"MINT_TO_ZERO_ADDRESS_NOT_ALLOWED\");\n        _beforeTokenTransfer(address(0x0), account, amount);\n        _mint(account, amount);\n        _snapshot();\n        _updateAccountSnapshot(account);\n        _updateTotalSupplySnapshot();\n        return true;\n    }\n\n    /** @notice Creates `amount` tokens and assigns them to `account`, increasing\n     * the total supply.\n     *\n     * Includes a vesting period before address is allowed to use tokens\n     *\n     * Emits a {Transfer} event with `from` set to the zero address.\n     *\n     * Requirements\n     *\n     * - `to` cannot be the zero address.\n     *\n     * @param account The account which tokens will be assigned to\n     * @param amount The amount of tokens to be assigned\n     * @param cliff The length of time (in seconds) after which the tokens will start vesting\n     * @param vestingTime The length of the vesting period (in seconds)\n     */\n    function mintVesting(\n        address account,\n        uint256 amount,\n        uint256 cliff,\n        uint256 vestingTime\n    ) public onlyOwner() whenNotPaused() {\n        require(account != address(0x0), \"MINT_TO_ZERO_ADDRESS_NOT_ALLOWED\");\n        require(vestingsCount[account] < _maxVestingsPerWallet, \"MAX_VESTINGS_REACHED\");\n        _beforeTokenTransfer(address(0x0), account, amount);\n        uint256 vestingId = vestingsCount[account]++;\n        vestingsCount[account] += 1;\n        VestingTokens memory vestingTokens = VestingTokens(\n            account,\n            amount,\n            block.timestamp,\n            block.timestamp + cliff,\n            block.timestamp + vestingTime\n        );\n        _mint(address(this), amount);\n        _snapshot();\n        _updateAccountSnapshot(address(this));\n        _updateTotalSupplySnapshot();\n        assignedTokens[account] += amount;\n        _vestingBalances[account][vestingId] = vestingTokens;\n        emit NewVesting(account, amount, vestingTime);\n    }\n\n    /**\n     * @notice Revokes the amount vested to an account\n     * @param account The account for which vesting is to be revoked\n     * @param vestingId The Id of the vesting being revoked\n     *\n     */\n    function revokeVesting(address account, uint256 vestingId)\n        public\n        onlyOwner()\n        whenNotPaused()\n    {\n        require(assignedTokens[account] > 0, \"ACCOUNT_DOESNT_HAVE_VESTING\");\n        VestingTokens memory vestingTokens = _vestingBalances[account][vestingId];\n\n        uint256 unvestedTokens = _returnUnvestedTokens(\n            vestingTokens.amount,\n            block.timestamp,\n            vestingTokens.start,\n            vestingTokens.cliff,\n            vestingTokens.deadline\n        );\n        assignedTokens[account] -= unvestedTokens;\n        _burn(address(this), unvestedTokens);\n        _snapshot();\n        _updateAccountSnapshot(address(this));\n        _updateTotalSupplySnapshot();\n        emit RevokeVesting(account, unvestedTokens, vestingTokens.deadline);\n        delete _vestingBalances[account][vestingId];\n    }\n\n    /**\n     *  @notice Withdrawl of tokens upon completion of vesting period\n     *  @return true if successful\n     *\n     */\n    function withdrawVested() public whenNotPaused() {\n        require(assignedTokens[msg.sender] > 0, \"ACCOUNT_DOESNT_HAVE_VESTING\");\n\n        uint256 transferableTokens = _transferableTokens(msg.sender, block.timestamp);\n        approve(msg.sender, transferableTokens);\n        _snapshot();\n        _updateAccountSnapshot(msg.sender);\n        _updateAccountSnapshot(address(this));\n        assignedTokens[msg.sender] -= transferableTokens;\n        emit VestingClaimed(msg.sender, transferableTokens);\n    }\n\n    /**\n     * @notice See {ERC20-_beforeTokenTransfer}.\n     *\n     * Requirements:\n     *\n     * - minted tokens must not cause the total supply to go over the cap.\n     */\n    function _beforeTokenTransfer(address from, address, uint256 amount) internal view {\n        require(\n            from == address(0) && totalSupply().add(amount) <= _cap,\n            \"ERC20_CAP_EXCEEDED\"\n        ); // When minting tokens\n    }\n\n    /**\n     * @notice Checks the balance of an assigned vesting that is eligible for withdrawal\n     * @param _account The account for which the vesting is being queried\n     * @param _time The\n     * @return The amount of tokens eligible for withdrawal\n     */\n    function _transferableTokens(address _account, uint256 _time)\n        internal\n        view\n        returns (uint256)\n    {\n        uint256 totalVestings = vestingsCount[_account];\n        uint256 totalAssigned = assignedTokens[_account];\n        uint256 nonTransferable = 0;\n        for (uint256 i = 0; i < totalVestings; i++) {\n            VestingTokens storage vestingTokens = _vestingBalances[_account][i];\n            nonTransferable = _returnUnvestedTokens(\n                vestingTokens.amount,\n                _time,\n                vestingTokens.start,\n                vestingTokens.cliff,\n                vestingTokens.deadline\n            );\n        }\n        uint256 transferable = totalAssigned - nonTransferable;\n        return transferable;\n    }\n\n    /**\n     * @notice Returns the amount of unvested tokens at a given time\n     * @param amount The total number of vested tokens\n     * @param time The time at which vested is being checked\n     * @param start The starting time of the vesting\n     * @param cliff The cliff period\n     * @param deadline The time when vesting is complete\n     * @return The amount of unvested tokens\n     */\n    function _returnUnvestedTokens(\n        uint256 amount,\n        uint256 time,\n        uint256 start,\n        uint256 cliff,\n        uint256 deadline\n    ) internal pure returns (uint256) {\n        if (time >= deadline) {\n            return 0;\n        } else if (time < cliff) {\n            return amount;\n        } else {\n            uint256 eligibleTokens = amount.mul(time.sub(start) / deadline.sub(start));\n            return amount.sub(eligibleTokens);\n        }\n    }\n\n    /**\n        @notice Creates a new snapshot and returns its snapshot id\n        @return The id of the snapshot created\n     */\n    function _snapshot() internal returns (uint256) {\n        _currentSnapshotId = _currentSnapshotId.add(1);\n        uint256 currentId = _currentSnapshotId;\n        emit Snapshot(currentId);\n        return currentId;\n    }\n\n    /**\n        @notice Returns the balance of an account at the time a snapshot was created\n        @param account The account which is being queried\n        @param snapshotId The id of the snapshot being queried\n     */\n    function balanceOfAt(address account, uint256 snapshotId)\n        external\n        view\n        returns (uint256)\n    {\n        (bool snapshotted, uint256 value) = _valueAt(\n            snapshotId,\n            _accountBalanceSnapshots[account]\n        );\n\n        return snapshotted ? value : balanceOf(account);\n    }\n\n    /**\n        @notice Returns the total supply at the time a snapshot was created\n        @param snapshotId The id of the snapshot being queried\n     */\n    function totalSupplyAt(uint256 snapshotId) external view returns (uint256) {\n        (bool snapshotted, uint256 value) = _valueAt(snapshotId, _totalSupplySnapshots);\n\n        return snapshotted ? value : totalSupply();\n    }\n\n    /**\n        @notice Returns the element from the id array with the index of the smallest value that is larger if not found, unless it doesn't exist\n        @param snapshotId The id of the snapshot being createc\n        @param snapshots The struct of the snapshots being queried\n     */\n    function _valueAt(uint256 snapshotId, Snapshots storage snapshots)\n        private\n        view\n        returns (bool, uint256)\n    {\n        uint256 index = snapshots.ids.findUpperBound(snapshotId);\n\n        if (index == snapshots.ids.length) {\n            return (false, 0);\n        } else {\n            return (true, snapshots.values[index]);\n        }\n    }\n\n    /**\n        @notice Creates a snapshot of a given account\n        @param account The account for which the snapshot is being created\n     */\n    function _updateAccountSnapshot(address account) private {\n        _updateSnapshot(_accountBalanceSnapshots[account], balanceOf(account));\n    }\n\n    /**\n        @notice Creates a snapshot of the total supply of tokens\n     */\n    function _updateTotalSupplySnapshot() private {\n        _updateSnapshot(_totalSupplySnapshots, totalSupply());\n    }\n\n    /**\n        @notice Updates the given snapshot struct with the latest snapshot\n        @param snapshots The snapshot struct being updated\n        @param currentValue The current value at the time of snapshot creation\n     */\n    function _updateSnapshot(Snapshots storage snapshots, uint256 currentValue) private {\n        uint256 currentId = _currentSnapshotId;\n        snapshots.ids.push(currentId);\n        snapshots.values.push(currentValue);\n    }\n}\n",
  "sourcePath": "/Users/sy/Documents/GitHub/teller-protocol-v1/contracts/atm/ATMToken.sol",
  "compiler": {
    "name": "solc",
    "version": "0.5.17+commit.d19bba13.Emscripten.clang"
  },
  "schemaVersion": "3.0.23",
  "updatedAt": "2020-08-19T00:49:49.928Z",
  "devdoc": {
    "author": "develop@teller.finance",
    "methods": {
      "allowance(address,address)": {
        "details": "See {IERC20-allowance}."
      },
      "approve(address,uint256)": {
        "details": "See {IERC20-approve}.     * Requirements:     * - `spender` cannot be the zero address."
      },
      "balanceOf(address)": {
        "details": "See {IERC20-balanceOf}."
      },
      "balanceOfAt(address,uint256)": {
        "params": {
          "account": "The account which is being queried",
          "snapshotId": "The id of the snapshot being queried"
        }
      },
      "burn(uint256)": {
        "details": "Destroys `amount` tokens from the caller.     * See {ERC20-_burn}."
      },
      "burnFrom(address,uint256)": {
        "details": "See {ERC20-_burnFrom}."
      },
      "cap()": {
        "return": "The supply capped amount"
      },
      "decimals()": {
        "details": "Returns the number of decimals used to get its user representation. For example, if `decimals` equals `2`, a balance of `505` tokens should be displayed to a user as `5,05` (`505 / 10 ** 2`).     * Tokens usually opt for a value of 18, imitating the relationship between Ether and Wei.     * NOTE: This information is only used for _display_ purposes: it in no way affects any of the arithmetic of the contract, including {IERC20-balanceOf} and {IERC20-transfer}."
      },
      "decreaseAllowance(address,uint256)": {
        "details": "Atomically decreases the allowance granted to `spender` by the caller.     * This is an alternative to {approve} that can be used as a mitigation for problems described in {IERC20-approve}.     * Emits an {Approval} event indicating the updated allowance.     * Requirements:     * - `spender` cannot be the zero address. - `spender` must have allowance for the caller of at least `subtractedValue`."
      },
      "increaseAllowance(address,uint256)": {
        "details": "Atomically increases the allowance granted to `spender` by the caller.     * This is an alternative to {approve} that can be used as a mitigation for problems described in {IERC20-approve}.     * Emits an {Approval} event indicating the updated allowance.     * Requirements:     * - `spender` cannot be the zero address."
      },
      "initialize(string,string,uint8)": {
        "details": "Sets the values for `name`, `symbol`, and `decimals`. All three of these values are immutable: they can only be set once during construction."
      },
      "initialized()": {
        "return": "true if contract is initialized. Otherwise it returns false."
      },
      "mint(address,uint256)": {
        "params": {
          "account": "The account to mint tokens for",
          "amount": "The amount of tokens to mint"
        },
        "return": "true if successful"
      },
      "mintVesting(address,uint256,uint256,uint256)": {
        "params": {
          "account": "The account which tokens will be assigned to",
          "amount": "The amount of tokens to be assigned",
          "cliff": "The length of time (in seconds) after which the tokens will start vesting",
          "vestingTime": "The length of the vesting period (in seconds)"
        }
      },
      "name()": {
        "details": "Returns the name of the token."
      },
      "revokeVesting(address,uint256)": {
        "params": {
          "account": "The account for which vesting is to be revoked",
          "vestingId": "The Id of the vesting being revoked     "
        }
      },
      "setCap(uint256)": {
        "params": {
          "newCap": "The new capped amount of tokens"
        }
      },
      "symbol()": {
        "details": "Returns the symbol of the token, usually a shorter version of the name."
      },
      "totalSupply()": {
        "details": "See {IERC20-totalSupply}."
      },
      "totalSupplyAt(uint256)": {
        "params": {
          "snapshotId": "The id of the snapshot being queried"
        }
      },
      "transfer(address,uint256)": {
        "details": "See {IERC20-transfer}.     * Requirements:     * - `recipient` cannot be the zero address. - the caller must have a balance of at least `amount`."
      },
      "transferFrom(address,address,uint256)": {
        "details": "See {IERC20-transferFrom}.     * Emits an {Approval} event indicating the updated allowance. This is not required by the EIP. See the note at the beginning of {ERC20};     * Requirements: - `sender` and `recipient` cannot be the zero address. - `sender` must have a balance of at least `amount`. - the caller must have allowance for `sender`'s tokens of at least `amount`."
      },
      "withdrawVested()": {
        "return": "true if successful     "
      }
    },
    "title": "ATM Token for Teller DAO"
  },
  "userdoc": {
    "methods": {
      "balanceOfAt(address,uint256)": {
        "notice": "Returns the balance of an account at the time a snapshot was created"
      },
      "cap()": {
        "notice": "Returns the cap on the token's total supply"
      },
      "initialized()": {
        "notice": "Gets if the contract is initialized."
      },
      "mint(address,uint256)": {
        "notice": "Increase account supply of specified token amount"
      },
      "mintVesting(address,uint256,uint256,uint256)": {
        "notice": "Creates `amount` tokens and assigns them to `account`, increasing the total supply.     * Includes a vesting period before address is allowed to use tokens     * Emits a {Transfer} event with `from` set to the zero address.     * Requirements     * - `to` cannot be the zero address."
      },
      "revokeVesting(address,uint256)": {
        "notice": "Revokes the amount vested to an account"
      },
      "setCap(uint256)": {
        "notice": "Sets a new cap on the token's total supply."
      },
      "totalSupplyAt(uint256)": {
        "notice": "Returns the total supply at the time a snapshot was created"
      },
      "withdrawVested()": {
        "notice": "Withdrawl of tokens upon completion of vesting period"
      }
    }
  }
}