{
  "contractName": "Compound",
  "abi": [
    {
      "anonymous": false,
      "inputs": [
        {
          "indexed": true,
          "internalType": "address",
          "name": "sender",
          "type": "address"
        },
        {
          "indexed": true,
          "internalType": "address",
          "name": "dappAddress",
          "type": "address"
        },
        {
          "indexed": false,
          "internalType": "uint256",
          "name": "amount",
          "type": "uint256"
        },
        {
          "indexed": true,
          "internalType": "address",
          "name": "cToken",
          "type": "address"
        },
        {
          "indexed": false,
          "internalType": "uint256",
          "name": "cTokenBalance",
          "type": "uint256"
        },
        {
          "indexed": false,
          "internalType": "address",
          "name": "underlyingToken",
          "type": "address"
        },
        {
          "indexed": false,
          "internalType": "uint256",
          "name": "underlyingBalance",
          "type": "uint256"
        }
      ],
      "name": "CompoundLended",
      "type": "event"
    },
    {
      "anonymous": false,
      "inputs": [
        {
          "indexed": true,
          "internalType": "address",
          "name": "sender",
          "type": "address"
        },
        {
          "indexed": true,
          "internalType": "address",
          "name": "dappAddress",
          "type": "address"
        },
        {
          "indexed": false,
          "internalType": "uint256",
          "name": "amount",
          "type": "uint256"
        },
        {
          "indexed": true,
          "internalType": "address",
          "name": "cToken",
          "type": "address"
        },
        {
          "indexed": false,
          "internalType": "uint256",
          "name": "cTokenBalance",
          "type": "uint256"
        },
        {
          "indexed": false,
          "internalType": "address",
          "name": "underlyingToken",
          "type": "address"
        },
        {
          "indexed": false,
          "internalType": "uint256",
          "name": "underlyingBalance",
          "type": "uint256"
        }
      ],
      "name": "CompoundRedeemed",
      "type": "event"
    },
    {
      "constant": false,
      "inputs": [
        {
          "internalType": "address",
          "name": "cTokenAddress",
          "type": "address"
        },
        {
          "internalType": "uint256",
          "name": "amount",
          "type": "uint256"
        }
      ],
      "name": "lend",
      "outputs": [],
      "payable": false,
      "stateMutability": "nonpayable",
      "type": "function"
    },
    {
      "constant": false,
      "inputs": [
        {
          "internalType": "address",
          "name": "cTokenAddress",
          "type": "address"
        },
        {
          "internalType": "uint256",
          "name": "amount",
          "type": "uint256"
        }
      ],
      "name": "redeem",
      "outputs": [],
      "payable": false,
      "stateMutability": "nonpayable",
      "type": "function"
    },
    {
      "constant": false,
      "inputs": [
        {
          "internalType": "address",
          "name": "cTokenAddress",
          "type": "address"
        }
      ],
      "name": "redeemAll",
      "outputs": [],
      "payable": false,
      "stateMutability": "nonpayable",
      "type": "function"
    },
    {
      "constant": true,
      "inputs": [
        {
          "internalType": "address",
          "name": "cTokenAddress",
          "type": "address"
        }
      ],
      "name": "balance",
      "outputs": [
        {
          "internalType": "uint256",
          "name": "",
          "type": "uint256"
        }
      ],
      "payable": false,
      "stateMutability": "view",
      "type": "function"
    }
  ],
  "bytecode": "0x608060405234801561001057600080fd5b50610a4e806100206000396000f3fe608060405234801561001057600080fd5b506004361061004c5760003560e01c80631e9a695014610051578063a2fb342d1461007f578063be399be5146100ab578063e3d670d7146100d1575b600080fd5b61007d6004803603604081101561006757600080fd5b506001600160a01b038135169060200135610109565b005b61007d6004803603604081101561009557600080fd5b506001600160a01b0381351690602001356104c2565b61007d600480360360208110156100c157600080fd5b50356001600160a01b0316610971565b6100f7600480360360208110156100e757600080fd5b50356001600160a01b031661098c565b60408051918252519081900360200190f35b806101138361099d565b1015610166576040805162461bcd60e51b815260206004820152601d60248201527f434f4d504f554e445f494e53554646494349454e545f42414c414e4345000000604482015290519081900360640190fd5b60008290506000816001600160a01b0316636f307dc36040518163ffffffff1660e01b815260040160206040518083038186803b1580156101a657600080fd5b505afa1580156101ba573d6000803e3d6000fd5b505050506040513d60208110156101d057600080fd5b5051604080516370a0823160e01b815230600482015290519192506000916001600160a01b038416916370a08231916024808301926020929190829003018186803b15801561021e57600080fd5b505afa158015610232573d6000803e3d6000fd5b505050506040513d602081101561024857600080fd5b50516040805163852a12e360e01b81526004810187905290519192506000916001600160a01b0386169163852a12e391602480830192602092919082900301818787803b15801561029857600080fd5b505af11580156102ac573d6000803e3d6000fd5b505050506040513d60208110156102c257600080fd5b505190508015610319576040805162461bcd60e51b815260206004820152601960248201527f434f4d504f554e445f5749544844524157414c5f4552524f5200000000000000604482015290519081900360640190fd5b604080516370a0823160e01b815230600482015290516000916001600160a01b038616916370a0823191602480820192602092909190829003018186803b15801561036357600080fd5b505afa158015610377573d6000803e3d6000fd5b505050506040513d602081101561038d57600080fd5b5051604080516370a0823160e01b815230600482015290519192506000916001600160a01b038816916370a08231916024808301926020929190829003018186803b1580156103db57600080fd5b505afa1580156103ef573d6000803e3d6000fd5b505050506040513d602081101561040557600080fd5b50519050838701821015610460576040805162461bcd60e51b815260206004820152601e60248201527f434f4d504f554e445f42414c414e43455f4e4f545f494e435245415345440000604482015290519081900360640190fd5b60408051888152602081018390526001600160a01b0387811682840152606082018590529151918a1691309133917fce453247da721847a3594553f305a8333be81c29872185f0a74444efdfb9983a9181900360800190a45050505050505050565b604080516370a0823160e01b8152306004820152905183916000916001600160a01b038416916370a08231916024808301926020929190829003018186803b15801561050d57600080fd5b505afa158015610521573d6000803e3d6000fd5b505050506040513d602081101561053757600080fd5b505160408051636f307dc360e01b815290519192506000916001600160a01b03851691636f307dc3916004808301926020929190829003018186803b15801561057f57600080fd5b505afa158015610593573d6000803e3d6000fd5b505050506040513d60208110156105a957600080fd5b5051604080516370a0823160e01b8152306004820152905191925085916001600160a01b038416916370a08231916024808301926020929190829003018186803b1580156105f657600080fd5b505afa15801561060a573d6000803e3d6000fd5b505050506040513d602081101561062057600080fd5b50511015610675576040805162461bcd60e51b815260206004820181905260248201527f434f4d504f554e445f494e53554646494349454e545f554e4445524c59494e47604482015290519081900360640190fd5b806001600160a01b031663095ea7b386866040518363ffffffff1660e01b815260040180836001600160a01b03166001600160a01b0316815260200182815260200192505050602060405180830381600087803b1580156106d557600080fd5b505af11580156106e9573d6000803e3d6000fd5b505050506040513d60208110156106ff57600080fd5b50506040805163140e25ad60e31b81526004810186905290516000916001600160a01b0386169163a0712d689160248082019260209290919082900301818787803b15801561074d57600080fd5b505af1158015610761573d6000803e3d6000fd5b505050506040513d602081101561077757600080fd5b5051905080156107c7576040805162461bcd60e51b815260206004820152601660248201527521a7a6a827aaa7222fa222a827a9a4aa2fa2a92927a960511b604482015290519081900360640190fd5b604080516370a0823160e01b815230600482015290516000916001600160a01b038716916370a0823191602480820192602092909190829003018186803b15801561081157600080fd5b505afa158015610825573d6000803e3d6000fd5b505050506040513d602081101561083b57600080fd5b50519050838601811015610896576040805162461bcd60e51b815260206004820152601e60248201527f434f4d504f554e445f42414c414e43455f4e4f545f494e435245415345440000604482015290519081900360640190fd5b604080516370a0823160e01b815230600482015290516000916001600160a01b038616916370a0823191602480820192602092909190829003018186803b1580156108e057600080fd5b505afa1580156108f4573d6000803e3d6000fd5b505050506040513d602081101561090a57600080fd5b505160408051898152602081018590526001600160a01b0387811682840152606082018490529151929350908a1691309133917f6d5b94dddb8537b8b8425d31b0fa29456819abe27cb1b43a29ef5809d8e4ffc29181900360800190a45050505050505050565b600061097c8261099d565b90506109888282610109565b5050565b60006109978261099d565b92915050565b604080516370a0823160e01b815230600482015290516000916001600160a01b038416916370a0823191602480820192602092909190829003018186803b1580156109e757600080fd5b505afa1580156109fb573d6000803e3d6000fd5b505050506040513d6020811015610a1157600080fd5b50519291505056fea265627a7a723158206a2664b7e29b47213b3e42c52eb98cf63da1a3a900e3182e0ec47b9f0f022be664736f6c63430005110032",
  "source": "pragma solidity 0.5.17;\n\n// External Libraries\nimport \"@openzeppelin/contracts-ethereum-package/contracts/token/ERC20/IERC20.sol\";\n\n// Common\nimport \"../../../util/AddressLib.sol\";\n\n// Interfaces\nimport \"./ICompound.sol\";\nimport \"../../../providers/compound/CErc20Interface.sol\";\n\n/*****************************************************************************************************/\n/**                                             WARNING                                             **/\n/**                      DAPP CONTRACT IS AN EXTENSION OF THE ESCROW CONTRACT                       **/\n/**  ---------------------------------------------------------------------------------------------  **/\n/**  Because there are multiple dApp contracts, and they all extend the Escrow contract that is     **/\n/**  itself upgradeable, they cannot have their own storage variables as they would cause the the   **/\n/**  storage slots to be overwritten on the Escrow proxy contract!                                  **/\n/**                                                                                                 **/\n/**  Visit https://docs.openzeppelin.com/upgrades/2.6/proxies#upgrading-via-the-proxy-pattern for   **/\n/**  more information.                                                                              **/\n/*****************************************************************************************************/\n/**\n    @notice This contract is used to define Compound dApp actions available. All dapp actions are invoked via \n        delegatecalls from Escrow contract, so this contract's state is really Escrow. \n    @author develop@teller.finance\n */\ncontract Compound is ICompound {\n    using AddressLib for address;\n\n    /* State Variables */\n    // State is shared with Escrow contract as it uses delegateCall() to interact with this contract.\n\n    /**\n        @notice To lend we first have to approve the cToken to access the token balance then mint. \n        @param cTokenAddress address of the token.\n        @param amount amount of tokens to mint. \n    */\n    function lend(address cTokenAddress, uint256 amount) public {\n        CErc20Interface cToken = CErc20Interface(cTokenAddress);\n        uint256 balanceBeforeMint = cToken.balanceOf(address(this));\n        IERC20 underlying = IERC20(cToken.underlying());\n        require(\n            underlying.balanceOf(address(this)) >= amount,\n            \"COMPOUND_INSUFFICIENT_UNDERLYING\"\n        );\n        underlying.approve(cTokenAddress, amount);\n        uint256 result = cToken.mint(amount);\n        require(result == 0, \"COMPOUND_DEPOSIT_ERROR\");\n        uint256 balanceAfterMint = cToken.balanceOf(address(this));\n        require(\n            balanceAfterMint >= (balanceBeforeMint + amount),\n            \"COMPOUND_BALANCE_NOT_INCREASED\"\n        );\n        uint256 underlyingBalance = underlying.balanceOf(address(this));\n        emit CompoundLended(\n            msg.sender,\n            address(this),\n            amount,\n            cTokenAddress,\n            balanceAfterMint,\n            address(underlying),\n            underlyingBalance\n        );\n    }\n\n    /**\n        @notice This function calls Compound redeemUnderlying().\n        @param cTokenAddress address of the token.\n        @param amount amount of underlying tokens to redeem.\n    */\n    function redeem(address cTokenAddress, uint256 amount) public {\n        require(_balance(cTokenAddress) >= amount, \"COMPOUND_INSUFFICIENT_BALANCE\");\n        CErc20Interface cToken = CErc20Interface(cTokenAddress);\n        IERC20 underlying = IERC20(cToken.underlying());\n        uint256 balanceBeforeRedeem = underlying.balanceOf(address(this));\n        uint256 result = cToken.redeemUnderlying(amount);\n        require(result == 0, \"COMPOUND_WITHDRAWAL_ERROR\");\n        uint256 underlyingBalanceAfterRedeem = underlying.balanceOf(address(this));\n        uint256 cTokenBalanceAfterRedeem = cToken.balanceOf(address(this));\n        require(\n            underlyingBalanceAfterRedeem >= (balanceBeforeRedeem + amount),\n            \"COMPOUND_BALANCE_NOT_INCREASED\"\n        );\n        emit CompoundRedeemed(\n            msg.sender,\n            address(this),\n            amount,\n            cTokenAddress,\n            cTokenBalanceAfterRedeem,\n            address(underlying),\n            underlyingBalanceAfterRedeem\n        );\n    }\n\n    /**\n        @notice This function redeems complete token balance.\n        @param cTokenAddress address of the token.\n    */\n    function redeemAll(address cTokenAddress) public {\n        uint256 amount = _balance(cTokenAddress);\n        redeem(cTokenAddress, amount);\n    }\n\n    /**\n        @notice Returns this contract's balance for the specified token.\n        @param cTokenAddress token address.\n        @return this contract's balance.\n     */\n    function balance(address cTokenAddress) public view returns (uint256) {\n        return _balance(cTokenAddress);\n    }\n\n    /**\n        @notice Helper function to return this contract's balance for the specified token.\n        @param cToken token address.\n        @return this contract's balance.\n     */\n    function _balance(address cToken) internal view returns (uint256) {\n        return CErc20Interface(cToken).balanceOf(address(this));\n    }\n}\n",
  "sourcePath": "/Users/sy/Documents/GitHub/teller-protocol-v1/contracts/base/escrow/dapps/Compound.sol",
  "compiler": {
    "name": "solc",
    "version": "0.5.17+commit.d19bba13.Emscripten.clang"
  },
  "schemaVersion": "3.0.23",
  "updatedAt": "2020-09-06T02:15:12.176Z",
  "devdoc": {
    "author": "develop@teller.finance",
    "methods": {
      "balance(address)": {
        "params": {
          "cTokenAddress": "token address."
        },
        "return": "this contract's balance."
      },
      "lend(address,uint256)": {
        "params": {
          "amount": "amount of tokens to mint. ",
          "cTokenAddress": "address of the token."
        }
      },
      "redeem(address,uint256)": {
        "params": {
          "amount": "amount of underlying tokens to redeem.",
          "cTokenAddress": "address of the token."
        }
      },
      "redeemAll(address)": {
        "params": {
          "cTokenAddress": "address of the token."
        }
      }
    }
  },
  "userdoc": {
    "methods": {
      "balance(address)": {
        "notice": "Returns this contract's balance for the specified token."
      },
      "lend(address,uint256)": {
        "notice": "To lend we first have to approve the cToken to access the token balance then mint. "
      },
      "redeem(address,uint256)": {
        "notice": "This function calls Compound redeemUnderlying()."
      },
      "redeemAll(address)": {
        "notice": "This function redeems complete token balance."
      }
    },
    "notice": "This contract is used to define Compound dApp actions available. All dapp actions are invoked via  delegatecalls from Escrow contract, so this contract's state is really Escrow. "
  }
}