{
  "contractName": "Consensus",
  "abi": [
    {
      "anonymous": false,
      "inputs": [
        {
          "indexed": true,
          "internalType": "address",
          "name": "previousOwner",
          "type": "address"
        },
        {
          "indexed": true,
          "internalType": "address",
          "name": "newOwner",
          "type": "address"
        }
      ],
      "name": "OwnershipTransferred",
      "type": "event"
    },
    {
      "anonymous": false,
      "inputs": [
        {
          "indexed": true,
          "internalType": "address",
          "name": "account",
          "type": "address"
        }
      ],
      "name": "SignerAdded",
      "type": "event"
    },
    {
      "anonymous": false,
      "inputs": [
        {
          "indexed": true,
          "internalType": "address",
          "name": "account",
          "type": "address"
        }
      ],
      "name": "SignerRemoved",
      "type": "event"
    },
    {
      "constant": false,
      "inputs": [
        {
          "internalType": "address",
          "name": "account",
          "type": "address"
        }
      ],
      "name": "addSigner",
      "outputs": [],
      "payable": false,
      "stateMutability": "nonpayable",
      "type": "function"
    },
    {
      "constant": false,
      "inputs": [
        {
          "internalType": "address[]",
          "name": "accounts",
          "type": "address[]"
        }
      ],
      "name": "addSigners",
      "outputs": [],
      "payable": false,
      "stateMutability": "nonpayable",
      "type": "function"
    },
    {
      "constant": true,
      "inputs": [],
      "name": "callerAddress",
      "outputs": [
        {
          "internalType": "address",
          "name": "",
          "type": "address"
        }
      ],
      "payable": false,
      "stateMutability": "view",
      "type": "function"
    },
    {
      "constant": true,
      "inputs": [],
      "name": "consts",
      "outputs": [
        {
          "internalType": "contract SettingsConsts",
          "name": "",
          "type": "address"
        }
      ],
      "payable": false,
      "stateMutability": "view",
      "type": "function"
    },
    {
      "constant": true,
      "inputs": [
        {
          "internalType": "address",
          "name": "",
          "type": "address"
        },
        {
          "internalType": "address",
          "name": "",
          "type": "address"
        },
        {
          "internalType": "uint256",
          "name": "",
          "type": "uint256"
        }
      ],
      "name": "hasSubmitted",
      "outputs": [
        {
          "internalType": "bool",
          "name": "",
          "type": "bool"
        }
      ],
      "payable": false,
      "stateMutability": "view",
      "type": "function"
    },
    {
      "constant": true,
      "inputs": [],
      "name": "initialized",
      "outputs": [
        {
          "internalType": "bool",
          "name": "value",
          "type": "bool"
        }
      ],
      "payable": false,
      "stateMutability": "view",
      "type": "function"
    },
    {
      "constant": true,
      "inputs": [],
      "name": "isOwner",
      "outputs": [
        {
          "internalType": "bool",
          "name": "",
          "type": "bool"
        }
      ],
      "payable": false,
      "stateMutability": "view",
      "type": "function"
    },
    {
      "constant": true,
      "inputs": [
        {
          "internalType": "address",
          "name": "account",
          "type": "address"
        }
      ],
      "name": "isSigner",
      "outputs": [
        {
          "internalType": "bool",
          "name": "",
          "type": "bool"
        }
      ],
      "payable": false,
      "stateMutability": "view",
      "type": "function"
    },
    {
      "constant": true,
      "inputs": [],
      "name": "owner",
      "outputs": [
        {
          "internalType": "address",
          "name": "",
          "type": "address"
        }
      ],
      "payable": false,
      "stateMutability": "view",
      "type": "function"
    },
    {
      "constant": false,
      "inputs": [
        {
          "internalType": "address",
          "name": "account",
          "type": "address"
        }
      ],
      "name": "removeSigner",
      "outputs": [],
      "payable": false,
      "stateMutability": "nonpayable",
      "type": "function"
    },
    {
      "constant": false,
      "inputs": [],
      "name": "renounceOwnership",
      "outputs": [],
      "payable": false,
      "stateMutability": "nonpayable",
      "type": "function"
    },
    {
      "constant": true,
      "inputs": [
        {
          "internalType": "address",
          "name": "",
          "type": "address"
        },
        {
          "internalType": "uint256",
          "name": "",
          "type": "uint256"
        }
      ],
      "name": "requestNonceTaken",
      "outputs": [
        {
          "internalType": "bool",
          "name": "",
          "type": "bool"
        }
      ],
      "payable": false,
      "stateMutability": "view",
      "type": "function"
    },
    {
      "constant": true,
      "inputs": [],
      "name": "settings",
      "outputs": [
        {
          "internalType": "contract SettingsInterface",
          "name": "",
          "type": "address"
        }
      ],
      "payable": false,
      "stateMutability": "view",
      "type": "function"
    },
    {
      "constant": true,
      "inputs": [
        {
          "internalType": "address",
          "name": "",
          "type": "address"
        },
        {
          "internalType": "uint256",
          "name": "",
          "type": "uint256"
        }
      ],
      "name": "signerNonceTaken",
      "outputs": [
        {
          "internalType": "bool",
          "name": "",
          "type": "bool"
        }
      ],
      "payable": false,
      "stateMutability": "view",
      "type": "function"
    },
    {
      "constant": false,
      "inputs": [
        {
          "internalType": "address",
          "name": "newOwner",
          "type": "address"
        }
      ],
      "name": "transferOwnership",
      "outputs": [],
      "payable": false,
      "stateMutability": "nonpayable",
      "type": "function"
    },
    {
      "constant": false,
      "inputs": [],
      "name": "initialize",
      "outputs": [],
      "payable": false,
      "stateMutability": "nonpayable",
      "type": "function"
    },
    {
      "constant": false,
      "inputs": [
        {
          "internalType": "address",
          "name": "owner",
          "type": "address"
        },
        {
          "internalType": "address",
          "name": "aCallerAddress",
          "type": "address"
        },
        {
          "internalType": "address",
          "name": "aSettingAddress",
          "type": "address"
        }
      ],
      "name": "initialize",
      "outputs": [],
      "payable": false,
      "stateMutability": "nonpayable",
      "type": "function"
    },
    {
      "constant": false,
      "inputs": [
        {
          "internalType": "address",
          "name": "sender",
          "type": "address"
        }
      ],
      "name": "initialize",
      "outputs": [],
      "payable": false,
      "stateMutability": "nonpayable",
      "type": "function"
    }
  ],
  "bytecode": "0x60806040526112ae806100136000396000f3fe608060405234801561001057600080fd5b50600436106101165760003560e01c8063c0c53b8b116100a2578063e8906a2d11610071578063e8906a2d14610291578063eb12d61e14610334578063f2fde38b1461035a578063faa8aab114610380578063fb98d9e21461038857610116565b8063c0c53b8b14610223578063c4d66de81461025b578063d86d744e14610281578063e06174e41461028957610116565b80637df73e27116100e95780637df73e27146101935780638129fc1c146101b95780638da5cb5b146101c15780638f32d59b146101e557806399ffe065146101ed57610116565b80630e316ab71461011b578063158ef93e1461014357806368fcdeb81461015f578063715018a61461018b575b600080fd5b6101416004803603602081101561013157600080fd5b50356001600160a01b03166103b4565b005b61014b610407565b604080519115158252519081900360200190f35b61014b6004803603604081101561017557600080fd5b506001600160a01b03813516906020013561043d565b61014161045d565b61014b600480360360208110156101a957600080fd5b50356001600160a01b03166104ee565b610141610507565b6101c96105ad565b604080516001600160a01b039092168252519081900360200190f35b61014b6105bc565b61014b6004803603606081101561020357600080fd5b506001600160a01b038135811691602081013590911690604001356105e2565b6101416004803603606081101561023957600080fd5b506001600160a01b038135811691602081013582169160409091013516610608565b6101416004803603602081101561027157600080fd5b50356001600160a01b0316610740565b6101c9610832565b6101c9610841565b610141600480360360208110156102a757600080fd5b8101906020810181356401000000008111156102c257600080fd5b8201836020820111156102d457600080fd5b803590602001918460208302840111640100000000831117156102f657600080fd5b919080806020026020016040519081016040528093929190818152602001838360200280828437600092019190915250929550610872945050505050565b6101416004803603602081101561034a57600080fd5b50356001600160a01b0316610948565b6101416004803603602081101561037057600080fd5b50356001600160a01b0316610998565b6101c96109e8565b61014b6004803603604081101561039e57600080fd5b506001600160a01b0381351690602001356109f7565b6103bc6105bc565b6103fb576040805162461bcd60e51b8152602060048201819052602482015260008051602061120a833981519152604482015290519081900360640190fd5b61040481610a17565b50565b604080517f54496e697469616c697a61626c652e6973496e697469616c697a6564000000008152905190819003601c0190205490565b609b60209081526000928352604080842090915290825290205460ff1681565b6104656105bc565b6104a4576040805162461bcd60e51b8152602060048201819052602482015260008051602061120a833981519152604482015290519081900360640190fd5b6066546040516000916001600160a01b0316907f8be0079c531659141344cd1fd0a4f28419497f9722a3daafe3b4186f6b6457e0908390a3606680546001600160a01b0319169055565b600061050160998363ffffffff610a5f16565b92915050565b600054610100900460ff16806105205750610520610ac6565b8061052e575060005460ff16155b6105695760405162461bcd60e51b815260040180806020018281038252602e81526020018061124c602e913960400191505060405180910390fd5b600054610100900460ff16158015610594576000805460ff1961ff0019909116610100171660011790555b60016033558015610404576000805461ff001916905550565b6066546001600160a01b031690565b6066546000906001600160a01b03166105d3610acc565b6001600160a01b031614905090565b609a60209081526000938452604080852082529284528284209052825290205460ff1681565b610610610407565b15610662576040805162461bcd60e51b815260206004820152601c60248201527f434f4e54524143545f414c52454144595f494e495449414c495a454400000000604482015290519081900360640190fd5b610674826001600160a01b0316610ad0565b6106c5576040805162461bcd60e51b815260206004820152601760248201527f43414c4c45525f4d5553545f42455f434f4e5452414354000000000000000000604482015290519081900360640190fd5b6106ce83610740565b6106d781610b0c565b609c80546001600160a01b0319166001600160a01b0384161790556040516106fe90610f8a565b604051809103906000f08015801561071a573d6000803e3d6000fd5b50609d80546001600160a01b0319166001600160a01b0392909216919091179055505050565b600054610100900460ff16806107595750610759610ac6565b80610767575060005460ff16155b6107a25760405162461bcd60e51b815260040180806020018281038252602e81526020018061124c602e913960400191505060405180910390fd5b600054610100900460ff161580156107cd576000805460ff1961ff0019909116610100171660011790555b606680546001600160a01b0319166001600160a01b0384811691909117918290556040519116906000907f8be0079c531659141344cd1fd0a4f28419497f9722a3daafe3b4186f6b6457e0908290a3801561082e576000805461ff00191690555b5050565b609d546001600160a01b031681565b6040805177426173655570677261646561626c652e73657474696e677360401b815290519081900360180190205490565b61087a6105bc565b6108b9576040805162461bcd60e51b8152602060048201819052602482015260008051602061120a833981519152604482015290519081900360640190fd5b6000815111610905576040805162461bcd60e51b81526020600482015260136024820152724143434f554e54535f4c4953545f454d50545960681b604482015290519081900360640190fd5b60005b815181101561082e57600082828151811061091f57fe5b60200260200101519050610932816104ee565b61093f5761093f81610c28565b50600101610908565b6109506105bc565b61098f576040805162461bcd60e51b8152602060048201819052602482015260008051602061120a833981519152604482015290519081900360640190fd5b61040481610c28565b6109a06105bc565b6109df576040805162461bcd60e51b8152602060048201819052602482015260008051602061120a833981519152604482015290519081900360640190fd5b61040481610c70565b609c546001600160a01b031681565b609e60209081526000928352604080842090915290825290205460ff1681565b610a2860998263ffffffff610d1116565b6040516001600160a01b038216907f3525e22824a8a7df2c9a6029941c824cf95b6447f1e13d5128fd3826d35afe8b90600090a250565b60006001600160a01b038216610aa65760405162461bcd60e51b815260040180806020018281038252602281526020018061122a6022913960400191505060405180910390fd5b506001600160a01b03166000908152602091909152604090205460ff1690565b303b1590565b3390565b6000813f7fc5d2460186f7233c927e7db2dcc703c0e500b653ca82273b7bfad8045d85a470818114801590610b0457508115155b949350505050565b610b14610407565b15610b66576040805162461bcd60e51b815260206004820152601c60248201527f434f4e54524143545f414c52454144595f494e495449414c495a454400000000604482015290519081900360640190fd5b60408051808201909152601981527f53455454494e47535f4d5553545f42455f50524f5649444544000000000000006020820152610bb4906001600160a01b0383169063ffffffff610d7816565b610bc6816001600160a01b0316610ad0565b610c17576040805162461bcd60e51b815260206004820152601b60248201527f53455454494e47535f4d5553545f42455f415f434f4e54524143540000000000604482015290519081900360640190fd5b610c1f610e10565b61040481610e48565b610c3960998263ffffffff610efb16565b6040516001600160a01b038216907f47d1c22a25bb3a5d4e481b9b1e6944c2eade3181a0a20b495ed61d35b5323f2490600090a250565b6001600160a01b038116610cb55760405162461bcd60e51b81526004018080602001828103825260268152602001806111c36026913960400191505060405180910390fd5b6066546040516001600160a01b038084169216907f8be0079c531659141344cd1fd0a4f28419497f9722a3daafe3b4186f6b6457e090600090a3606680546001600160a01b0319166001600160a01b0392909216919091179055565b610d1b8282610a5f565b610d565760405162461bcd60e51b81526004018080602001828103825260218152602001806111e96021913960400191505060405180910390fd5b6001600160a01b0316600090815260209190915260409020805460ff19169055565b610d8182610f7c565b8190610e0b5760405162461bcd60e51b81526004018080602001828103825283818151815260200191508051906020019080838360005b83811015610dd0578181015183820152602001610db8565b50505050905090810190601f168015610dfd5780820380516001836020036101000a031916815260200191505b509250505060405180910390fd5b505050565b604080517f54496e697469616c697a61626c652e6973496e697469616c697a6564000000008152905190819003601c01902060019055565b6000610e52610841565b6001600160a01b031614610ec857610e72816001600160a01b0316610ad0565b610ec3576040805162461bcd60e51b815260206004820152601b60248201527f53455454494e47535f4d5553545f42455f415f434f4e54524143540000000000604482015290519081900360640190fd5b610404565b6040805177426173655570677261646561626c652e73657474696e677360401b8152905190819003601801902081905550565b610f058282610a5f565b15610f57576040805162461bcd60e51b815260206004820152601f60248201527f526f6c65733a206163636f756e7420616c72656164792068617320726f6c6500604482015290519081900360640190fd5b6001600160a01b0316600090815260209190915260409020805460ff19166001179055565b6001600160a01b0316151590565b61022b80610f988339019056fe608060405234801561001057600080fd5b5061020b806100206000396000f3fe608060405234801561001057600080fd5b50600436106100935760003560e01c80633ff591d9116100665780633ff591d9146100ca578063c41dd8ce146100d2578063cc44cadb146100da578063e00a4615146100e2578063e3f33d00146100ea57610093565b806308b04f62146100985780631139087a146100b257806311880cc8146100ba5780633b98dfdb146100c2575b600080fd5b6100a06100f2565b60408051918252519081900360200190f35b6100a0610109565b6100a0610121565b6100a0610136565b6100a061015a565b6100a0610174565b6100a061018b565b6100a06101a5565b6100a06101bb565b6f21b7b63630ba32b930b6213ab33332b960811b81565b704c6971756964617465457468507269636560781b81565b6d14d859995d1e525b9d195c9d985b60921b81565b7f526571756573744c6f616e5465726d73526174654c696d69740000000000000081565b7252657175697265645375626d697373696f6e7360681b81565b6f4d6178696d756d546f6c6572616e636560801b81565b7226b0bc34b6bab6a637b0b7223ab930ba34b7b760691b81565b6e5465726d7345787069727954696d6560881b81565b730a4cae6e0dedce6ca8af0e0d2e4f298cadccee8d60631b8156fea265627a7a72315820b6cc93d12d39f205ac91b27ee8876405b81cd752a680e010a2828f9ed81bbbb364736f6c634300051100324f776e61626c653a206e6577206f776e657220697320746865207a65726f2061646472657373526f6c65733a206163636f756e7420646f6573206e6f74206861766520726f6c654f776e61626c653a2063616c6c6572206973206e6f7420746865206f776e6572526f6c65733a206163636f756e7420697320746865207a65726f2061646472657373436f6e747261637420696e7374616e63652068617320616c7265616479206265656e20696e697469616c697a6564a265627a7a72315820cc3d8f2a30c60ac8a84fc87c7ccc30346c0e8ac800a3f2029634b931fe58b0e464736f6c63430005110032",
  "source": "pragma solidity 0.5.17;\n\n// Libraries\nimport \"@openzeppelin/contracts-ethereum-package/contracts/math/SafeMath.sol\";\nimport \"../util/TellerCommon.sol\";\nimport \"../util/NumbersList.sol\";\nimport \"../util/SettingsConsts.sol\";\n\n// Contracts\nimport \"./OwnerSignersRole.sol\";\nimport \"../base/Base.sol\";\n\n/*****************************************************************************************************/\n/**                                             WARNING                                             **/\n/**                              THIS CONTRACT IS AN UPGRADEABLE BASE!                              **/\n/**  ---------------------------------------------------------------------------------------------  **/\n/**  Do NOT change the order of, PREPEND, or APPEND any storage variables to this or new versions   **/\n/**  of this contract as this will cause a ripple affect to the storage slots of all child          **/\n/**  contracts that inherit from this contract to be overwritten on the deployed proxy contract!!   **/\n/**                                                                                                 **/\n/**  Visit https://docs.openzeppelin.com/upgrades/2.6/proxies#upgrading-via-the-proxy-pattern for   **/\n/**  more information.                                                                              **/\n/*****************************************************************************************************/\n/**\n    @notice This contract is used as a base for the consensus contracts.\n    @dev It contains some common internal functions and variables for the consensus contracts.\n\n    @author develop@teller.finance\n */\ncontract Consensus is Base, OwnerSignersRole {\n    using SafeMath for uint256;\n    using NumbersList for NumbersList.Values;\n\n    // Has signer address already submitted their answer for (user, identifier)?\n    mapping(address => mapping(address => mapping(uint256 => bool))) public hasSubmitted;\n\n    // mapping from signer address, to signerNonce, to boolean.\n    // Has the signer already used this nonce?\n    mapping(address => mapping(uint256 => bool)) public signerNonceTaken;\n\n    // the address with permissions to submit a request for processing\n    address public callerAddress;\n\n    SettingsConsts public consts;\n\n    /**\n        @notice It tracks each request nonce value that borrower (in LoanTermsConsensus) or lender (in InterestConsensus) used in the loan terms and interest requests.\n\n        @dev The first key represents the address (borrower or lender depending on the consensus contract).\n        @dev The second key represents the request nonce value.\n        @dev The final value represents whether the nonce value for the given address was used (true) or not (false).\n     */\n    mapping(address => mapping(uint256 => bool)) public requestNonceTaken;\n\n    /**\n        @notice Checks whether sender is equal to the caller address.\n        @dev It throws a require error if sender is not equal to caller address.\n        @param sender the sender transaction.\n     */\n    modifier isCaller(address sender) {\n        require(_isCaller(sender), \"SENDER_HASNT_PERMISSIONS\");\n        _;\n    }\n\n    /**\n        @notice It initializes this consensus contract.\n        @dev The caller address must be the loans contract for LoanTermsConsensus, and the lenders contract for InterestConsensus.\n        @param owner the owner address.\n        @param aCallerAddress the contract that will call it.\n        @param aSettingAddress the settings contract address.\n     */\n    function initialize(\n        address owner,\n        address aCallerAddress,\n        address aSettingAddress\n    ) external isNotInitialized() {\n        require(aCallerAddress.isContract(), \"CALLER_MUST_BE_CONTRACT\");\n\n        Ownable.initialize(owner);\n        _initialize(aSettingAddress);\n\n        callerAddress = aCallerAddress;\n        consts = new SettingsConsts();\n    }\n\n    /**\n        @notice It validates whether a signature is valid or not, verifying the signer and nonce.\n        @param signature signature to validate.\n        @param dataHash to use to recover the signer.\n        @param expectedSigner the expected signer address.\n        @return true if the expected signer is equal to the signer. Otherwise it returns false.\n     */\n    function _signatureValid(\n        TellerCommon.Signature memory signature,\n        bytes32 dataHash,\n        address expectedSigner\n    ) internal view returns (bool) {\n        if (!isSigner(expectedSigner)) return false;\n\n        require(\n            !signerNonceTaken[expectedSigner][signature.signerNonce],\n            \"SIGNER_NONCE_TAKEN\"\n        );\n\n        address signer = ecrecover(\n            keccak256(abi.encodePacked(\"\\x19Ethereum Signed Message:\\n32\", dataHash)),\n            signature.v,\n            signature.r,\n            signature.s\n        );\n        return (signer == expectedSigner);\n    }\n\n    /**\n        @notice Gets the consensus value for a list of values (uint values).\n        @notice The values must be in a maximum tolerance range.\n        @return the consensus value.\n     */\n    function _getConsensus(NumbersList.Values storage values)\n        internal\n        view\n        returns (uint256)\n    {\n        require(\n            values.isWithinTolerance(\n                settings().getPlatformSettingValue(consts.MAXIMUM_TOLERANCE_SETTING())\n            ),\n            \"RESPONSES_TOO_VARIED\"\n        );\n\n        return values.getAverage();\n    }\n\n    /**\n        @notice It validates a response\n        @param signer signer address.\n        @param user the user address.\n        @param requestIdentifier identifier for the request.\n        @param responseTime time (in seconds) for the response.\n        @param responseHash a hash value that represents the response.\n        @param signature the signature for the response.\n     */\n    function _validateResponse(\n        address signer,\n        address user,\n        uint256 requestIdentifier,\n        uint256 responseTime,\n        bytes32 responseHash,\n        TellerCommon.Signature memory signature\n    ) internal {\n        require(\n            !hasSubmitted[signer][user][requestIdentifier],\n            \"SIGNER_ALREADY_SUBMITTED\"\n        );\n        hasSubmitted[signer][user][requestIdentifier] = true;\n\n        require(\n            responseTime >=\n                now.sub(\n                    settings().getPlatformSettingValue(\n                        consts.RESPONSE_EXPIRY_LENGTH_SETTING()\n                    )\n                ),\n            \"RESPONSE_EXPIRED\"\n        );\n\n        require(_signatureValid(signature, responseHash, signer), \"SIGNATURE_INVALID\");\n        signerNonceTaken[signer][signature.signerNonce] = true;\n    }\n\n    /**\n        @notice Gets the current chain id using the opcode 'chainid()'.\n        @return the current chain id.\n     */\n    function _getChainId() internal view returns (uint256) {\n        this; // silence state mutability warning without generating bytecode - see https://github.com/ethereum/solidity/issues/2691\n        uint256 id;\n        assembly {\n            id := chainid()\n        }\n        return id;\n    }\n\n    /**\n        @notice It tests whether an given address is the initialized caller address.\n        @dev This function is overriden by mock instances.\n     */\n    function _isCaller(address sender) internal view returns (bool) {\n        return callerAddress == sender;\n    }\n}\n",
  "sourcePath": "/Users/sy/Documents/GitHub/teller-protocol-v1/contracts/base/Consensus.sol",
  "compiler": {
    "name": "solc",
    "version": "0.5.17+commit.d19bba13.Emscripten.clang"
  },
  "schemaVersion": "3.0.23",
  "updatedAt": "2020-09-06T02:15:12.144Z",
  "devdoc": {
    "author": "develop@teller.finance",
    "details": "It contains some common internal functions and variables for the consensus contracts.",
    "methods": {
      "addSigner(address)": {
        "details": "The sender must be the owner.It throws a require error if the sender is not the owner.",
        "params": {
          "account": "address to add."
        }
      },
      "addSigners(address[])": {
        "details": "The sender must be the owner.It throws a require error if the sender is not the owner.",
        "params": {
          "accounts": "addresses to add."
        }
      },
      "initialize(address)": {
        "details": "Initializes the contract setting the deployer as the initial owner."
      },
      "initialize(address,address,address)": {
        "details": "The caller address must be the loans contract for LoanTermsConsensus, and the lenders contract for InterestConsensus.",
        "params": {
          "aCallerAddress": "the contract that will call it.",
          "aSettingAddress": "the settings contract address.",
          "owner": "the owner address."
        }
      },
      "initialized()": {
        "return": "true if contract is initialized. Otherwise it returns false."
      },
      "isOwner()": {
        "details": "Returns true if the caller is the current owner."
      },
      "isSigner(address)": {
        "params": {
          "account": "address to test."
        },
        "return": "true if account is a signer. Otherwise it returns false."
      },
      "owner()": {
        "details": "Returns the address of the current owner."
      },
      "removeSigner(address)": {
        "details": "The sender must be the owner.It throws a require error if the sender is not the owner.",
        "params": {
          "account": "address to remove."
        }
      },
      "renounceOwnership()": {
        "details": "Leaves the contract without owner. It will not be possible to call `onlyOwner` functions anymore. Can only be called by the current owner.     * > Note: Renouncing ownership will leave the contract without an owner, thereby removing any functionality that is only available to the owner."
      },
      "transferOwnership(address)": {
        "details": "Transfers ownership of the contract to a new account (`newOwner`). Can only be called by the current owner."
      }
    }
  },
  "userdoc": {
    "methods": {
      "addSigner(address)": {
        "notice": "It adds a new account as a signer."
      },
      "addSigners(address[])": {
        "notice": "It adds a list of account as signers."
      },
      "initialize(address,address,address)": {
        "notice": "It initializes this consensus contract."
      },
      "initialized()": {
        "notice": "Gets if the contract is initialized."
      },
      "isSigner(address)": {
        "notice": "Gets whether an account address is a signer or not."
      },
      "removeSigner(address)": {
        "notice": "It removes an account as signer."
      },
      "settings()": {
        "notice": "The settings contract."
      }
    },
    "notice": "This contract is used as a base for the consensus contracts."
  }
}