{
  "contractName": "ConsensusMock",
  "abi": [
    {
      "anonymous": false,
      "inputs": [
        {
          "indexed": true,
          "internalType": "address",
          "name": "previousOwner",
          "type": "address"
        },
        {
          "indexed": true,
          "internalType": "address",
          "name": "newOwner",
          "type": "address"
        }
      ],
      "name": "OwnershipTransferred",
      "type": "event"
    },
    {
      "anonymous": false,
      "inputs": [
        {
          "indexed": true,
          "internalType": "address",
          "name": "account",
          "type": "address"
        }
      ],
      "name": "SignerAdded",
      "type": "event"
    },
    {
      "anonymous": false,
      "inputs": [
        {
          "indexed": true,
          "internalType": "address",
          "name": "account",
          "type": "address"
        }
      ],
      "name": "SignerRemoved",
      "type": "event"
    },
    {
      "constant": false,
      "inputs": [
        {
          "internalType": "address",
          "name": "account",
          "type": "address"
        }
      ],
      "name": "addSigner",
      "outputs": [],
      "payable": false,
      "stateMutability": "nonpayable",
      "type": "function"
    },
    {
      "constant": false,
      "inputs": [
        {
          "internalType": "address[]",
          "name": "accounts",
          "type": "address[]"
        }
      ],
      "name": "addSigners",
      "outputs": [],
      "payable": false,
      "stateMutability": "nonpayable",
      "type": "function"
    },
    {
      "constant": true,
      "inputs": [],
      "name": "callerAddress",
      "outputs": [
        {
          "internalType": "address",
          "name": "",
          "type": "address"
        }
      ],
      "payable": false,
      "stateMutability": "view",
      "type": "function"
    },
    {
      "constant": true,
      "inputs": [],
      "name": "consts",
      "outputs": [
        {
          "internalType": "contract SettingsConsts",
          "name": "",
          "type": "address"
        }
      ],
      "payable": false,
      "stateMutability": "view",
      "type": "function"
    },
    {
      "constant": true,
      "inputs": [
        {
          "internalType": "address",
          "name": "",
          "type": "address"
        },
        {
          "internalType": "address",
          "name": "",
          "type": "address"
        },
        {
          "internalType": "uint256",
          "name": "",
          "type": "uint256"
        }
      ],
      "name": "hasSubmitted",
      "outputs": [
        {
          "internalType": "bool",
          "name": "",
          "type": "bool"
        }
      ],
      "payable": false,
      "stateMutability": "view",
      "type": "function"
    },
    {
      "constant": false,
      "inputs": [],
      "name": "initialize",
      "outputs": [],
      "payable": false,
      "stateMutability": "nonpayable",
      "type": "function"
    },
    {
      "constant": false,
      "inputs": [
        {
          "internalType": "address",
          "name": "owner",
          "type": "address"
        },
        {
          "internalType": "address",
          "name": "aCallerAddress",
          "type": "address"
        },
        {
          "internalType": "address",
          "name": "aSettingAddress",
          "type": "address"
        }
      ],
      "name": "initialize",
      "outputs": [],
      "payable": false,
      "stateMutability": "nonpayable",
      "type": "function"
    },
    {
      "constant": false,
      "inputs": [
        {
          "internalType": "address",
          "name": "sender",
          "type": "address"
        }
      ],
      "name": "initialize",
      "outputs": [],
      "payable": false,
      "stateMutability": "nonpayable",
      "type": "function"
    },
    {
      "constant": true,
      "inputs": [],
      "name": "initialized",
      "outputs": [
        {
          "internalType": "bool",
          "name": "value",
          "type": "bool"
        }
      ],
      "payable": false,
      "stateMutability": "view",
      "type": "function"
    },
    {
      "constant": true,
      "inputs": [],
      "name": "isOwner",
      "outputs": [
        {
          "internalType": "bool",
          "name": "",
          "type": "bool"
        }
      ],
      "payable": false,
      "stateMutability": "view",
      "type": "function"
    },
    {
      "constant": true,
      "inputs": [
        {
          "internalType": "address",
          "name": "account",
          "type": "address"
        }
      ],
      "name": "isSigner",
      "outputs": [
        {
          "internalType": "bool",
          "name": "",
          "type": "bool"
        }
      ],
      "payable": false,
      "stateMutability": "view",
      "type": "function"
    },
    {
      "constant": true,
      "inputs": [],
      "name": "owner",
      "outputs": [
        {
          "internalType": "address",
          "name": "",
          "type": "address"
        }
      ],
      "payable": false,
      "stateMutability": "view",
      "type": "function"
    },
    {
      "constant": false,
      "inputs": [
        {
          "internalType": "address",
          "name": "account",
          "type": "address"
        }
      ],
      "name": "removeSigner",
      "outputs": [],
      "payable": false,
      "stateMutability": "nonpayable",
      "type": "function"
    },
    {
      "constant": false,
      "inputs": [],
      "name": "renounceOwnership",
      "outputs": [],
      "payable": false,
      "stateMutability": "nonpayable",
      "type": "function"
    },
    {
      "constant": true,
      "inputs": [
        {
          "internalType": "address",
          "name": "",
          "type": "address"
        },
        {
          "internalType": "uint256",
          "name": "",
          "type": "uint256"
        }
      ],
      "name": "requestNonceTaken",
      "outputs": [
        {
          "internalType": "bool",
          "name": "",
          "type": "bool"
        }
      ],
      "payable": false,
      "stateMutability": "view",
      "type": "function"
    },
    {
      "constant": true,
      "inputs": [],
      "name": "settings",
      "outputs": [
        {
          "internalType": "contract SettingsInterface",
          "name": "",
          "type": "address"
        }
      ],
      "payable": false,
      "stateMutability": "view",
      "type": "function"
    },
    {
      "constant": true,
      "inputs": [
        {
          "internalType": "address",
          "name": "",
          "type": "address"
        },
        {
          "internalType": "uint256",
          "name": "",
          "type": "uint256"
        }
      ],
      "name": "signerNonceTaken",
      "outputs": [
        {
          "internalType": "bool",
          "name": "",
          "type": "bool"
        }
      ],
      "payable": false,
      "stateMutability": "view",
      "type": "function"
    },
    {
      "constant": false,
      "inputs": [
        {
          "internalType": "address",
          "name": "newOwner",
          "type": "address"
        }
      ],
      "name": "transferOwnership",
      "outputs": [],
      "payable": false,
      "stateMutability": "nonpayable",
      "type": "function"
    },
    {
      "constant": true,
      "inputs": [
        {
          "components": [
            {
              "internalType": "uint256",
              "name": "signerNonce",
              "type": "uint256"
            },
            {
              "internalType": "uint8",
              "name": "v",
              "type": "uint8"
            },
            {
              "internalType": "bytes32",
              "name": "r",
              "type": "bytes32"
            },
            {
              "internalType": "bytes32",
              "name": "s",
              "type": "bytes32"
            }
          ],
          "internalType": "struct TellerCommon.Signature",
          "name": "signature",
          "type": "tuple"
        },
        {
          "internalType": "bytes32",
          "name": "dataHash",
          "type": "bytes32"
        },
        {
          "internalType": "address",
          "name": "expectedSigner",
          "type": "address"
        }
      ],
      "name": "externalSignatureValid",
      "outputs": [
        {
          "internalType": "bool",
          "name": "",
          "type": "bool"
        }
      ],
      "payable": false,
      "stateMutability": "view",
      "type": "function"
    }
  ],
  "bytecode": "0x608060405261171c806100136000396000f3fe608060405234801561001057600080fd5b50600436106101215760003560e01c806399ffe065116100ad578063e8906a2d11610071578063e8906a2d14610215578063eb12d61e14610228578063f2fde38b1461023b578063faa8aab11461024e578063fb98d9e21461025657610121565b806399ffe065146101bf578063c0c53b8b146101d2578063c4d66de8146101e5578063d86d744e146101f8578063e06174e41461020d57610121565b8063715018a6116100f4578063715018a61461017f5780637df73e27146101875780638129fc1c1461019a5780638da5cb5b146101a25780638f32d59b146101b757610121565b80630e316ab714610126578063158ef93e1461013b5780632d5dc7381461015957806368fcdeb81461016c575b600080fd5b610139610134366004610d27565b610269565b005b6101436102a2565b60405161015091906112a9565b60405180910390f35b610143610167366004610e44565b6102c1565b61014361017a366004610dd5565b6102e6565b610139610306565b610143610195366004610d27565b610374565b61013961038d565b6101aa610414565b604051610150919061129b565b610143610423565b6101436101cd366004610d92565b610449565b6101396101e0366004610d45565b61046f565b6101396101f3366004610d27565b61053d565b610200610610565b60405161015091906112f5565b61020061061f565b610139610223366004610e0f565b610641565b610139610236366004610d27565b6106c9565b610139610249366004610d27565b6106f6565b6101aa610723565b610143610264366004610dd5565b610732565b610271610423565b6102965760405162461bcd60e51b815260040161028d90611384565b60405180910390fd5b61029f81610752565b50565b6000806040516102b190611265565b6040519081900390205492915050565b60006102dc6102d536869003860186610e87565b848461079a565b90505b9392505050565b609b60209081526000928352604080842090915290825290205460ff1681565b61030e610423565b61032a5760405162461bcd60e51b815260040161028d90611384565b6066546040516000916001600160a01b0316907f8be0079c531659141344cd1fd0a4f28419497f9722a3daafe3b4186f6b6457e0908390a3606680546001600160a01b0319169055565b600061038760998363ffffffff61089316565b92915050565b600054610100900460ff16806103a657506103a66108db565b806103b4575060005460ff16155b6103d05760405162461bcd60e51b815260040161028d906113a4565b600054610100900460ff161580156103fb576000805460ff1961ff0019909116610100171660011790555b6001603355801561029f576000805461ff001916905550565b6066546001600160a01b031690565b6066546000906001600160a01b031661043a6108e1565b6001600160a01b031614905090565b609a60209081526000938452604080852082529284528284209052825290205460ff1681565b6104776102a2565b156104945760405162461bcd60e51b815260040161028d906113b4565b6104a6826001600160a01b03166108e5565b6104c25760405162461bcd60e51b815260040161028d90611354565b6104cb8361053d565b6104d481610921565b609c80546001600160a01b0319166001600160a01b0384161790556040516104fb90610bf3565b604051809103906000f080158015610517573d6000803e3d6000fd5b50609d80546001600160a01b0319166001600160a01b0392909216919091179055505050565b600054610100900460ff168061055657506105566108db565b80610564575060005460ff16155b6105805760405162461bcd60e51b815260040161028d906113a4565b600054610100900460ff161580156105ab576000805460ff1961ff0019909116610100171660011790555b606680546001600160a01b0319166001600160a01b0384811691909117918290556040519116906000907f8be0079c531659141344cd1fd0a4f28419497f9722a3daafe3b4186f6b6457e0908290a3801561060c576000805461ff00191690555b5050565b609d546001600160a01b031681565b600080600060405161063090611290565b604051908190039020549250505090565b610649610423565b6106655760405162461bcd60e51b815260040161028d90611384565b60008151116106865760405162461bcd60e51b815260040161028d90611324565b60005b815181101561060c5760008282815181106106a057fe5b602002602001015190506106b381610374565b6106c0576106c0816109d3565b50600101610689565b6106d1610423565b6106ed5760405162461bcd60e51b815260040161028d90611384565b61029f816109d3565b6106fe610423565b61071a5760405162461bcd60e51b815260040161028d90611384565b61029f81610a1b565b609c546001600160a01b031681565b609e60209081526000928352604080842090915290825290205460ff1681565b61076360998263ffffffff610a9d16565b6040516001600160a01b038216907f3525e22824a8a7df2c9a6029941c824cf95b6447f1e13d5128fd3826d35afe8b90600090a250565b60006107a582610374565b6107b1575060006102df565b6001600160a01b0382166000908152609b602090815260408083208751845290915290205460ff16156107f65760405162461bcd60e51b815260040161028d90611364565b600060018460405160200161080b9190611270565b604051602081830303815290604052805190602001208660200151876040015188606001516040516000815260200160405260405161084d94939291906112b7565b6020604051602081039080840390855afa15801561086f573d6000803e3d6000fd5b5050604051601f1901516001600160a01b0390811690851614925050509392505050565b60006001600160a01b0382166108bb5760405162461bcd60e51b815260040161028d90611394565b506001600160a01b03166000908152602091909152604090205460ff1690565b303b1590565b3390565b6000813f7fc5d2460186f7233c927e7db2dcc703c0e500b653ca82273b7bfad8045d85a47081811480159061091957508115155b949350505050565b6109296102a2565b156109465760405162461bcd60e51b815260040161028d906113b4565b60408051808201909152601981527f53455454494e47535f4d5553545f42455f50524f5649444544000000000000006020820152610994906001600160a01b0383169063ffffffff610ae516565b6109a6816001600160a01b03166108e5565b6109c25760405162461bcd60e51b815260040161028d90611344565b6109ca610b12565b61029f81610b30565b6109e460998263ffffffff610b9916565b6040516001600160a01b038216907f47d1c22a25bb3a5d4e481b9b1e6944c2eade3181a0a20b495ed61d35b5323f2490600090a250565b6001600160a01b038116610a415760405162461bcd60e51b815260040161028d90611334565b6066546040516001600160a01b038084169216907f8be0079c531659141344cd1fd0a4f28419497f9722a3daafe3b4186f6b6457e090600090a3606680546001600160a01b0319166001600160a01b0392909216919091179055565b610aa78282610893565b610ac35760405162461bcd60e51b815260040161028d90611374565b6001600160a01b0316600090815260209190915260409020805460ff19169055565b610aee82610be5565b8190610b0d5760405162461bcd60e51b815260040161028d9190611303565b505050565b6000604051610b2090611265565b6040519081900390206001905550565b6000610b3a61061f565b6001600160a01b031614610b7b57610b5a816001600160a01b03166108e5565b610b765760405162461bcd60e51b815260040161028d90611344565b61029f565b6000604051610b8990611290565b6040519081900390208290555050565b610ba38282610893565b15610bc05760405162461bcd60e51b815260040161028d90611314565b6001600160a01b0316600090815260209190915260409020805460ff19166001179055565b6001600160a01b0316151590565b61022b806114af83390190565b803561038781611488565b600082601f830112610c1c57600080fd5b8135610c2f610c2a826113eb565b6113c4565b91508181835260208401935060208101905083856020840282011115610c5457600080fd5b60005b83811015610c805781610c6a8882610c00565b8452506020928301929190910190600101610c57565b5050505092915050565b80356103878161149c565b600060808284031215610ca757600080fd5b50919050565b600060808284031215610cbf57600080fd5b610cc960806113c4565b90506000610cd78484610c8a565b8252506020610ce884848301610d1c565b6020830152506040610cfc84828501610c8a565b6040830152506060610d1084828501610c8a565b60608301525092915050565b8035610387816114a5565b600060208284031215610d3957600080fd5b60006109198484610c00565b600080600060608486031215610d5a57600080fd5b6000610d668686610c00565b9350506020610d7786828701610c00565b9250506040610d8886828701610c00565b9150509250925092565b600080600060608486031215610da757600080fd5b6000610db38686610c00565b9350506020610dc486828701610c00565b9250506040610d8886828701610c8a565b60008060408385031215610de857600080fd5b6000610df48585610c00565b9250506020610e0585828601610c8a565b9150509250929050565b600060208284031215610e2157600080fd5b813567ffffffffffffffff811115610e3857600080fd5b61091984828501610c0b565b600080600060c08486031215610e5957600080fd5b6000610e658686610c95565b9350506080610e7686828701610c8a565b92505060a0610d8886828701610c00565b600060808284031215610e9957600080fd5b60006109198484610cad565b610eae8161141e565b82525050565b610eae81611429565b610eae8161142e565b610eae610ed28261142e565b61142e565b610eae81611443565b6000610eeb8261140c565b610ef58185611410565b9350610f0581856020860161144e565b610f0e8161147e565b9093019392505050565b6000610f25601c83611419565b7f54496e697469616c697a61626c652e6973496e697469616c697a6564000000008152601c0192915050565b6000610f5e601f83611410565b7f526f6c65733a206163636f756e7420616c72656164792068617320726f6c6500815260200192915050565b6000610f97601383611410565b724143434f554e54535f4c4953545f454d50545960681b815260200192915050565b6000610fc6601c83611419565b7f19457468657265756d205369676e6564204d6573736167653a0a3332000000008152601c0192915050565b6000610fff602683611410565b7f4f776e61626c653a206e6577206f776e657220697320746865207a65726f206181526564647265737360d01b602082015260400192915050565b6000611047601b83611410565b7f53455454494e47535f4d5553545f42455f415f434f4e54524143540000000000815260200192915050565b6000611080601783611410565b7f43414c4c45525f4d5553545f42455f434f4e5452414354000000000000000000815260200192915050565b60006110b9601283611410565b7129a4a3a722a92fa727a721a2afaa20a5a2a760711b815260200192915050565b60006110e7602183611410565b7f526f6c65733a206163636f756e7420646f6573206e6f74206861766520726f6c8152606560f81b602082015260400192915050565b600061112a602083611410565b7f4f776e61626c653a2063616c6c6572206973206e6f7420746865206f776e6572815260200192915050565b6000611163602283611410565b7f526f6c65733a206163636f756e7420697320746865207a65726f206164647265815261737360f01b602082015260400192915050565b60006111a7602e83611410565b7f436f6e747261637420696e7374616e63652068617320616c726561647920626581526d195b881a5b9a5d1a585b1a5e995960921b602082015260400192915050565b60006111f7601883611419565b7f426173655570677261646561626c652e73657474696e67730000000000000000815260180192915050565b6000611230601c83611410565b7f434f4e54524143545f414c52454144595f494e495449414c495a454400000000815260200192915050565b610eae8161143d565b600061038782610f18565b600061127b82610fb9565b91506112878284610ec6565b50602001919050565b6000610387826111ea565b602081016103878284610ea5565b602081016103878284610eb4565b608081016112c58287610ebd565b6112d2602083018661125c565b6112df6040830185610ebd565b6112ec6060830184610ebd565b95945050505050565b602081016103878284610ed7565b602080825281016102df8184610ee0565b6020808252810161038781610f51565b6020808252810161038781610f8a565b6020808252810161038781610ff2565b602080825281016103878161103a565b6020808252810161038781611073565b60208082528101610387816110ac565b60208082528101610387816110da565b602080825281016103878161111d565b6020808252810161038781611156565b602080825281016103878161119a565b6020808252810161038781611223565b60405181810167ffffffffffffffff811182821017156113e357600080fd5b604052919050565b600067ffffffffffffffff82111561140257600080fd5b5060209081020190565b5190565b90815260200190565b919050565b600061038782611431565b151590565b90565b6001600160a01b031690565b60ff1690565b60006103878261141e565b60005b83811015611469578181015183820152602001611451565b83811115611478576000848401525b50505050565b601f01601f191690565b6114918161141e565b811461029f57600080fd5b6114918161142e565b6114918161143d56fe608060405234801561001057600080fd5b5061020b806100206000396000f3fe608060405234801561001057600080fd5b50600436106100935760003560e01c80633ff591d9116100665780633ff591d9146100ca578063c41dd8ce146100d2578063cc44cadb146100da578063e00a4615146100e2578063e3f33d00146100ea57610093565b806308b04f62146100985780631139087a146100b257806311880cc8146100ba5780633b98dfdb146100c2575b600080fd5b6100a06100f2565b60408051918252519081900360200190f35b6100a0610109565b6100a0610121565b6100a0610136565b6100a061015a565b6100a0610174565b6100a061018b565b6100a06101a5565b6100a06101bb565b6f21b7b63630ba32b930b6213ab33332b960811b81565b704c6971756964617465457468507269636560781b81565b6d14d859995d1e525b9d195c9d985b60921b81565b7f526571756573744c6f616e5465726d73526174654c696d69740000000000000081565b7252657175697265645375626d697373696f6e7360681b81565b6f4d6178696d756d546f6c6572616e636560801b81565b7226b0bc34b6bab6a637b0b7223ab930ba34b7b760691b81565b6e5465726d7345787069727954696d6560881b81565b730a4cae6e0dedce6ca8af0e0d2e4f298cadccee8d60631b8156fea265627a7a72315820b6cc93d12d39f205ac91b27ee8876405b81cd752a680e010a2828f9ed81bbbb364736f6c63430005110032a365627a7a72315820b4e5e86201a3997ca35110c1dff75ae11cd361659db7ae88075b6e85618cf43b6c6578706572696d656e74616cf564736f6c63430005110040",
  "source": "pragma solidity 0.5.17;\npragma experimental ABIEncoderV2;\n\nimport \"../../base/Consensus.sol\";\n\ncontract ConsensusMock is Consensus {\n    function externalSignatureValid(\n        TellerCommon.Signature calldata signature,\n        bytes32 dataHash,\n        address expectedSigner\n    ) external view returns (bool) {\n        return _signatureValid(signature, dataHash, expectedSigner);\n    }\n}\n",
  "sourcePath": "/Users/sy/Documents/GitHub/teller-protocol-v1/contracts/mock/base/ConsensusMock.sol",
  "compiler": {
    "name": "solc",
    "version": "0.5.17+commit.d19bba13.Emscripten.clang"
  },
  "schemaVersion": "3.0.23",
  "updatedAt": "2020-09-06T02:15:12.426Z",
  "devdoc": {
    "methods": {
      "addSigner(address)": {
        "details": "The sender must be the owner.It throws a require error if the sender is not the owner.",
        "params": {
          "account": "address to add."
        }
      },
      "addSigners(address[])": {
        "details": "The sender must be the owner.It throws a require error if the sender is not the owner.",
        "params": {
          "accounts": "addresses to add."
        }
      },
      "initialize(address)": {
        "details": "Initializes the contract setting the deployer as the initial owner."
      },
      "initialize(address,address,address)": {
        "details": "The caller address must be the loans contract for LoanTermsConsensus, and the lenders contract for InterestConsensus.",
        "params": {
          "aCallerAddress": "the contract that will call it.",
          "aSettingAddress": "the settings contract address.",
          "owner": "the owner address."
        }
      },
      "initialized()": {
        "return": "true if contract is initialized. Otherwise it returns false."
      },
      "isOwner()": {
        "details": "Returns true if the caller is the current owner."
      },
      "isSigner(address)": {
        "params": {
          "account": "address to test."
        },
        "return": "true if account is a signer. Otherwise it returns false."
      },
      "owner()": {
        "details": "Returns the address of the current owner."
      },
      "removeSigner(address)": {
        "details": "The sender must be the owner.It throws a require error if the sender is not the owner.",
        "params": {
          "account": "address to remove."
        }
      },
      "renounceOwnership()": {
        "details": "Leaves the contract without owner. It will not be possible to call `onlyOwner` functions anymore. Can only be called by the current owner.     * > Note: Renouncing ownership will leave the contract without an owner, thereby removing any functionality that is only available to the owner."
      },
      "transferOwnership(address)": {
        "details": "Transfers ownership of the contract to a new account (`newOwner`). Can only be called by the current owner."
      }
    }
  },
  "userdoc": {
    "methods": {
      "addSigner(address)": {
        "notice": "It adds a new account as a signer."
      },
      "addSigners(address[])": {
        "notice": "It adds a list of account as signers."
      },
      "initialize(address,address,address)": {
        "notice": "It initializes this consensus contract."
      },
      "initialized()": {
        "notice": "Gets if the contract is initialized."
      },
      "isSigner(address)": {
        "notice": "Gets whether an account address is a signer or not."
      },
      "removeSigner(address)": {
        "notice": "It removes an account as signer."
      },
      "settings()": {
        "notice": "The settings contract."
      }
    }
  }
}