{
  "contractName": "DynamicProxy",
  "abi": [
    {
      "inputs": [
        {
          "internalType": "address",
          "name": "settingsAddress",
          "type": "address"
        },
        {
          "internalType": "bytes32",
          "name": "aLogicName",
          "type": "bytes32"
        }
      ],
      "payable": false,
      "stateMutability": "nonpayable",
      "type": "constructor"
    },
    {
      "payable": true,
      "stateMutability": "payable",
      "type": "fallback"
    },
    {
      "constant": true,
      "inputs": [],
      "name": "implementation",
      "outputs": [
        {
          "internalType": "address",
          "name": "",
          "type": "address"
        }
      ],
      "payable": false,
      "stateMutability": "view",
      "type": "function"
    },
    {
      "constant": true,
      "inputs": [],
      "name": "settings",
      "outputs": [
        {
          "internalType": "contract SettingsInterface",
          "name": "",
          "type": "address"
        }
      ],
      "payable": false,
      "stateMutability": "view",
      "type": "function"
    }
  ],
  "bytecode": "0x608060405234801561001057600080fd5b506040516105b03803806105b08339818101604052604081101561003357600080fd5b50805160209091015161004e826001600160e01b0361006716565b610060816001600160e01b0361013316565b5050610315565b600061007a6001600160e01b036102a316565b6001600160a01b0316146100fa576100a4816001600160a01b03166102d960201b61021b1760201c565b6100f5576040805162461bcd60e51b815260206004820152601b60248201527f53455454494e47535f4d5553545f42455f415f434f4e54524143540000000000604482015290519081900360640190fd5b610130565b604080517f426173655570677261646561626c652e73657474696e67730000000000000000815290519081900360180190208190555b50565b6101446001600160e01b036102a316565b6001600160a01b031663ea23cb7c6040518163ffffffff1660e01b815260040160206040518083038186803b15801561017c57600080fd5b505afa158015610190573d6000803e3d6000fd5b505050506040513d60208110156101a657600080fd5b50516040805163b28f5abb60e01b81526004810184905290516001600160a01b039092169163b28f5abb91602480820192602092909190829003018186803b1580156101f157600080fd5b505afa158015610205573d6000803e3d6000fd5b505050506040513d602081101561021b57600080fd5b505161026e576040805162461bcd60e51b815260206004820152601460248201527f4c4f4749435f4e414d455f4e4f545f4558495354000000000000000000000000604482015290519081900360640190fd5b604080517f426173655570677261646561626c652e6c6f6769634e616d65000000000000008152905190819003601901902055565b604080517f426173655570677261646561626c652e73657474696e67730000000000000000815290519081900360180190205490565b6000813f7fc5d2460186f7233c927e7db2dcc703c0e500b653ca82273b7bfad8045d85a47081811480159061030d57508115155b949350505050565b61028c806103246000396000f3fe6080604052600436106100295760003560e01c80635c60da1b14610033578063e06174e414610064575b610031610079565b005b34801561003f57600080fd5b50610048610093565b604080516001600160a01b039092168252519081900360200190f35b34801561007057600080fd5b506100486100a2565b610081610091565b61009161008c6100d8565b6101c1565b565b600061009d6100d8565b905090565b604080517f426173655570677261646561626c652e73657474696e67730000000000000000815290519081900360180190205490565b60006100e26100a2565b6001600160a01b031663ea23cb7c6040518163ffffffff1660e01b815260040160206040518083038186803b15801561011a57600080fd5b505afa15801561012e573d6000803e3d6000fd5b505050506040513d602081101561014457600080fd5b50516001600160a01b03166373f1fcf661015c6101e5565b6040518263ffffffff1660e01b81526004018082815260200191505060206040518083038186803b15801561019057600080fd5b505afa1580156101a4573d6000803e3d6000fd5b505050506040513d60208110156101ba57600080fd5b5051905090565b3660008037600080366000845af43d6000803e8080156101e0573d6000f35b3d6000fd5b604080517f426173655570677261646561626c652e6c6f6769634e616d6500000000000000815290519081900360190190205490565b6000813f7fc5d2460186f7233c927e7db2dcc703c0e500b653ca82273b7bfad8045d85a47081811480159061024f57508115155b94935050505056fea265627a7a72315820719540adc046c2f7c4155ffa200cbba2e96c24f6c5638e7f502862ad0af638e764736f6c63430005110032",
  "source": "pragma solidity 0.5.17;\n\n// Contracts\nimport \"./BaseDynamicProxy.sol\";\n\n/**\n    @notice It is a dynamic proxy contract for any contract. It uses the logic versions registry to get a logic contract address.\n    @notice It extends BaseUpgradeable to get access to the settings.\n\n    @author develop@teller.finance\n */\ncontract DynamicProxy is BaseDynamicProxy {\n    /**\n        @notice It creates a new dynamic proxy given a settings contract and a logic name.\n        @param settingsAddress the settings contract address.\n     */\n    constructor(address settingsAddress, bytes32 aLogicName) public {\n        _setSettings(settingsAddress);\n        _setLogicName(aLogicName);\n    }\n}\n",
  "sourcePath": "/Users/sy/Documents/GitHub/teller-protocol-v1/contracts/base/DynamicProxy.sol",
  "compiler": {
    "name": "solc",
    "version": "0.5.17+commit.d19bba13.Emscripten.clang"
  },
  "schemaVersion": "3.0.23",
  "updatedAt": "2020-09-06T02:15:12.150Z",
  "devdoc": {
    "author": "develop@teller.finance",
    "methods": {
      "constructor": {
        "params": {
          "settingsAddress": "the settings contract address."
        }
      },
      "implementation()": {
        "return": "Address of the current implementation"
      }
    }
  },
  "userdoc": {
    "methods": {
      "constructor": "It creates a new dynamic proxy given a settings contract and a logic name.",
      "implementation()": {
        "notice": "Returns the current implementation."
      },
      "settings()": {
        "notice": "The settings contract."
      }
    },
    "notice": "It is a dynamic proxy contract for any contract. It uses the logic versions registry to get a logic contract address.It extends BaseUpgradeable to get access to the settings."
  }
}