{
  "contractName": "EscrowFactory",
  "abi": [
    {
      "anonymous": false,
      "inputs": [
        {
          "indexed": true,
          "internalType": "address",
          "name": "sender",
          "type": "address"
        },
        {
          "indexed": true,
          "internalType": "address",
          "name": "dapp",
          "type": "address"
        }
      ],
      "name": "DAppRemoved",
      "type": "event"
    },
    {
      "anonymous": false,
      "inputs": [
        {
          "indexed": true,
          "internalType": "address",
          "name": "borrower",
          "type": "address"
        },
        {
          "indexed": true,
          "internalType": "address",
          "name": "loansAddress",
          "type": "address"
        },
        {
          "indexed": true,
          "internalType": "uint256",
          "name": "loanID",
          "type": "uint256"
        },
        {
          "indexed": false,
          "internalType": "address",
          "name": "escrowAddress",
          "type": "address"
        }
      ],
      "name": "EscrowCreated",
      "type": "event"
    },
    {
      "anonymous": false,
      "inputs": [
        {
          "indexed": true,
          "internalType": "address",
          "name": "sender",
          "type": "address"
        },
        {
          "indexed": true,
          "internalType": "address",
          "name": "dapp",
          "type": "address"
        }
      ],
      "name": "NewDAppAdded",
      "type": "event"
    },
    {
      "constant": true,
      "inputs": [
        {
          "internalType": "address",
          "name": "",
          "type": "address"
        }
      ],
      "name": "dapps",
      "outputs": [
        {
          "internalType": "bool",
          "name": "",
          "type": "bool"
        }
      ],
      "payable": false,
      "stateMutability": "view",
      "type": "function"
    },
    {
      "constant": true,
      "inputs": [
        {
          "internalType": "uint256",
          "name": "",
          "type": "uint256"
        }
      ],
      "name": "dappsList",
      "outputs": [
        {
          "internalType": "address",
          "name": "",
          "type": "address"
        }
      ],
      "payable": false,
      "stateMutability": "view",
      "type": "function"
    },
    {
      "constant": true,
      "inputs": [],
      "name": "initialized",
      "outputs": [
        {
          "internalType": "bool",
          "name": "value",
          "type": "bool"
        }
      ],
      "payable": false,
      "stateMutability": "view",
      "type": "function"
    },
    {
      "constant": true,
      "inputs": [],
      "name": "settings",
      "outputs": [
        {
          "internalType": "contract SettingsInterface",
          "name": "",
          "type": "address"
        }
      ],
      "payable": false,
      "stateMutability": "view",
      "type": "function"
    },
    {
      "constant": false,
      "inputs": [
        {
          "internalType": "address",
          "name": "loansAddress",
          "type": "address"
        },
        {
          "internalType": "uint256",
          "name": "loanID",
          "type": "uint256"
        }
      ],
      "name": "createEscrow",
      "outputs": [
        {
          "internalType": "address",
          "name": "escrowAddress",
          "type": "address"
        }
      ],
      "payable": false,
      "stateMutability": "nonpayable",
      "type": "function"
    },
    {
      "constant": true,
      "inputs": [
        {
          "internalType": "address",
          "name": "dapp",
          "type": "address"
        }
      ],
      "name": "isDapp",
      "outputs": [
        {
          "internalType": "bool",
          "name": "",
          "type": "bool"
        }
      ],
      "payable": false,
      "stateMutability": "view",
      "type": "function"
    },
    {
      "constant": false,
      "inputs": [
        {
          "internalType": "address",
          "name": "dapp",
          "type": "address"
        }
      ],
      "name": "addDapp",
      "outputs": [],
      "payable": false,
      "stateMutability": "nonpayable",
      "type": "function"
    },
    {
      "constant": false,
      "inputs": [
        {
          "internalType": "address",
          "name": "dapp",
          "type": "address"
        }
      ],
      "name": "removeDapp",
      "outputs": [],
      "payable": false,
      "stateMutability": "nonpayable",
      "type": "function"
    },
    {
      "constant": true,
      "inputs": [],
      "name": "getDapps",
      "outputs": [
        {
          "internalType": "address[]",
          "name": "",
          "type": "address[]"
        }
      ],
      "payable": false,
      "stateMutability": "view",
      "type": "function"
    },
    {
      "constant": false,
      "inputs": [
        {
          "internalType": "address",
          "name": "settingsAddress",
          "type": "address"
        }
      ],
      "name": "initialize",
      "outputs": [],
      "payable": false,
      "stateMutability": "nonpayable",
      "type": "function"
    }
  ],
  "bytecode": "0x608060405234801561001057600080fd5b50611e08806100206000396000f3fe60806040523480156200001157600080fd5b5060043610620000ac5760003560e01c8063627c55f6116200006f578063627c55f61462000142578063c4d66de81462000159578063da3bc9581462000170578063e06174e41462000187578063e52c355814620001a057620000ac565b8063158ef93e14620000b157806327b7ca5f14620000d35780632baaed1814620000ec5780634614874e146200010557806355670f31146200012b575b600080fd5b620000bb620001b7565b604051620000ca919062001685565b60405180910390f35b620000ea620000e4366004620011f9565b620001d8565b005b620000f662000343565b604051620000ca919062001672565b6200011c620001163660046200121a565b620003a8565b604051620000ca91906200162c565b620000bb6200013c366004620011f9565b62000740565b620000ea62000153366004620011f9565b62000755565b620000ea6200016a366004620011f9565b620008b1565b6200011c62000181366004620012de565b62000926565b620001916200094e565b604051620000ca919062001695565b620000bb620001b1366004620011f9565b62000972565b600080604051620001c89062001612565b6040519081900390205492915050565b620001e26200094e565b6001600160a01b031663c095ea27336040518263ffffffff1660e01b81526004016200020f91906200163c565b60006040518083038186803b1580156200022857600080fd5b505afa1580156200023d573d6000803e3d6000fd5b505050506200024b620001b7565b620002735760405162461bcd60e51b81526004016200026a9062001723565b60405180910390fd5b62000287816001600160a01b031662000985565b620002a65760405162461bcd60e51b81526004016200026a9062001711565b620002b181620009c2565b15620002d15760405162461bcd60e51b81526004016200026a90620016ff565b6001600160a01b0381166000908152602081905260409020805460ff1916600190811790915562000309908263ffffffff620009e016565b506040516001600160a01b0382169033907f74487267a352065c083ba7c6311bbff7f1e489f9b0cedffec11fb8398e3cf84790600090a350565b606060018054806020026020016040519081016040528092919081815260200182805480156200039d57602002820191906000526020600020905b81546001600160a01b031681526001909101906020018083116200037e575b505050505090505b90565b6000620003b4620001b7565b620003d35760405162461bcd60e51b81526004016200026a9062001723565b620003dd6200094e565b6001600160a01b031663b187bd266040518163ffffffff1660e01b815260040160206040518083038186803b1580156200041657600080fd5b505afa1580156200042b573d6000803e3d6000fd5b505050506040513d601f19601f8201168201806040525062000451919081019062001259565b15620004715760405162461bcd60e51b81526004016200026a90620016ed565b6200047b62000e9e565b604051631c3d878d60e31b81526001600160a01b0385169063e1ec3c6890620004a990869060040162001747565b6102206040518083038186803b158015620004c357600080fd5b505afa158015620004d8573d6000803e3d6000fd5b505050506040513d601f19601f82011682018060405250620004fe9190810190620012bc565b6101208101519091506001600160a01b031615620005305760405162461bcd60e51b81526004016200026a90620016b7565b60006200053c6200094e565b6001600160a01b031663ea23cb7c6040518163ffffffff1660e01b815260040160206040518083038186803b1580156200057557600080fd5b505afa1580156200058a573d6000803e3d6000fd5b505050506040513d601f19601f82011682018060405250620005b091908101906200129b565b6001600160a01b031663d86d744e6040518163ffffffff1660e01b8152600401602060405180830381600087803b158015620005eb57600080fd5b505af115801562000600573d6000803e3d6000fd5b505050506040513d601f19601f820116820180604052506200062691908101906200129b565b6001600160a01b03166368f6c8926040518163ffffffff1660e01b815260040160206040518083038186803b1580156200065f57600080fd5b505afa15801562000674573d6000803e3d6000fd5b505050506040513d601f19601f820116820180604052506200069a91908101906200127a565b9050620006a66200094e565b81604051620006b59062000f1c565b620006c29291906200164c565b604051809103906000f080158015620006df573d6000803e3d6000fd5b50925083856001600160a01b03168360200151600001516001600160a01b03167f1766e5b0843b46e0afea03af5182836a1dc9eae60f592f44b8b4960b08d65210866040516200073091906200162c565b60405180910390a4505092915050565b60006020819052908152604090205460ff1681565b6200075f6200094e565b6001600160a01b031663c095ea27336040518263ffffffff1660e01b81526004016200078c91906200163c565b60006040518083038186803b158015620007a557600080fd5b505afa158015620007ba573d6000803e3d6000fd5b50505050620007c8620001b7565b620007e75760405162461bcd60e51b81526004016200026a9062001723565b620007fb816001600160a01b031662000985565b6200081a5760405162461bcd60e51b81526004016200026a9062001711565b6200082581620009c2565b620008445760405162461bcd60e51b81526004016200026a90620016a5565b6001600160a01b0381166000908152602081905260409020805460ff191690556200087760018263ffffffff62000a9916565b506040516001600160a01b0382169033907f42468ef83dfb738c057e8f7819d8f2ee9f323cfbe87871287770222c4cb1182390600090a350565b620008bb620001b7565b15620008db5760405162461bcd60e51b81526004016200026a9062001735565b620008ef816001600160a01b031662000985565b6200090e5760405162461bcd60e51b81526004016200026a90620016c9565b6200091862000b2b565b620009238162000b4b565b50565b600181815481106200093457fe5b6000918252602090912001546001600160a01b0316905081565b600080600060405162000961906200161f565b604051908190039020549250505090565b60006200097f82620009c2565b92915050565b6000813f7fc5d2460186f7233c927e7db2dcc703c0e500b653ca82273b7bfad8045d85a470818114801590620009ba57508115155b949350505050565b6001600160a01b031660009081526020819052604090205460ff1690565b60606001600160a01b03821662000a0b5760405162461bcd60e51b81526004016200026a90620016db565b8254600181018455600084815260209081902090910180546001600160a01b0319166001600160a01b038516179055835460408051828402810184019091528181529185919083018282801562000a8c57602002820191906000526020600020905b81546001600160a01b0316815260019091019060200180831162000a6d575b5050505050905092915050565b606060008062000aaa858562000bbf565b915091508162000b165784546040805160208084028201810190925282815291879183018282801562000b0757602002820191906000526020600020905b81546001600160a01b0316815260019091019060200180831162000ae8575b5050505050925050506200097f565b62000b22858262000c19565b95945050505050565b600060405162000b3b9062001612565b6040519081900390206001905550565b600062000b576200094e565b6001600160a01b03161462000b9f5762000b7a816001600160a01b031662000985565b62000b995760405162461bcd60e51b81526004016200026a90620016c9565b62000923565b600060405162000baf906200161f565b6040519081900390208290555050565b6000805b835481101562000c1257826001600160a01b031684828154811062000be457fe5b6000918252602090912001546001600160a01b0316149150811562000c095762000c12565b60010162000bc3565b9250929050565b8154606090821062000c855782546040805160208084028201810190925282815291859183018282801562000c7857602002820191906000526020600020905b81546001600160a01b0316815260019091019060200180831162000c59575b505050505090506200097f565b82546000190182141562000d305782548390600019810190811062000ca657fe5b600091825260209091200180546001600160a01b0319169055825462000cd184600019830162000f2a565b5082546040805160208084028201810190925282815291859183018282801562000c78576020028201919060005260206000209081546001600160a01b0316815260019091019060200180831162000c5957505050505090506200097f565b82546000908490600019810190811062000d4657fe5b60009182526020909120015484546001600160a01b03909116915084908490811062000d6e57fe5b60009182526020909120015484546001600160a01b03909116908590600019810190811062000d9957fe5b9060005260206000200160006101000a8154816001600160a01b0302191690836001600160a01b031602179055508084848154811062000dd557fe5b600091825260209091200180546001600160a01b0319166001600160a01b039290921691909117905583548490600019810190811062000e1157fe5b600091825260209091200180546001600160a01b0319169055835462000e3c85600019830162000f2a565b5083546040805160208084028201810190925282815291869183018282801562000e9057602002820191906000526020600020905b81546001600160a01b0316815260019091019060200180831162000e71575b505050505091505092915050565b6040518061018001604052806000815260200162000ebb62000f56565b81526020016000815260200160008152602001600081526020016000815260200160008152602001600081526020016000815260200160006001600160a01b031681526020016000600381111562000f0f57fe5b8152600060209091015290565b6105b0806200181683390190565b81548183558181111562000f515760008381526020902062000f5191810190830162000f9e565b505050565b6040518060c0016040528060006001600160a01b0316815260200160006001600160a01b03168152602001600081526020016000815260200160008152602001600081525090565b620003a591905b8082111562000fbb576000815560010162000fa5565b5090565b80356200097f81620017cf565b80516200097f81620017cf565b80516200097f81620017e6565b80516200097f81620017f1565b80516200097f81620017fc565b80516200097f8162001807565b600060c082840312156200102057600080fd5b6200102c60c062001757565b905060006200103c848462000fcc565b82525060206200104f8484830162000fcc565b6020830152506040620010658482850162000fe6565b60408301525060606200107b8482850162000fe6565b6060830152506080620010918482850162000fe6565b60808301525060a0620010a78482850162000fe6565b60a08301525092915050565b60006102208284031215620010c757600080fd5b620010d461018062001757565b90506000620010e4848462000fe6565b8252506020620010f7848483016200100d565b60208301525060e06200110d8482850162000fe6565b604083015250610100620011248482850162000fe6565b6060830152506101206200113b8482850162000fe6565b608083015250610140620011528482850162000fe6565b60a083015250610160620011698482850162000fe6565b60c083015250610180620011808482850162000fe6565b60e0830152506101a0620011978482850162000fe6565b610100830152506101c0620011af8482850162000fcc565b610120830152506101e0620011c78482850162001000565b61014083015250610200620011df8482850162000fd9565b6101608301525092915050565b80356200097f81620017f1565b6000602082840312156200120c57600080fd5b6000620009ba848462000fbf565b600080604083850312156200122e57600080fd5b60006200123c858562000fbf565b92505060206200124f85828601620011ec565b9150509250929050565b6000602082840312156200126c57600080fd5b6000620009ba848462000fd9565b6000602082840312156200128d57600080fd5b6000620009ba848462000fe6565b600060208284031215620012ae57600080fd5b6000620009ba848462000ff3565b60006102208284031215620012d057600080fd5b6000620009ba8484620010b3565b600060208284031215620012f157600080fd5b6000620009ba8484620011ec565b60006200130d838362001326565b505060200190565b6200132081620017c2565b82525050565b620013208162001797565b60006200133e8262001785565b6200134a818562001789565b935062001357836200177f565b8060005b838110156200138b578151620013728882620012ff565b97506200137f836200177f565b9250506001016200135b565b509495945050505050565b6200132081620017a4565b6200132081620003a5565b6200132081620017a9565b6000620013c6601c8362001792565b7f54496e697469616c697a61626c652e6973496e697469616c697a6564000000008152601c0192915050565b600062001401600e8362001789565b6d1110541417d393d517d1561254d560921b815260200192915050565b60006200142d601a8362001789565b7f4c4f414e5f455343524f575f414c52454144595f455849535453000000000000815260200192915050565b600062001468601b8362001789565b7f53455454494e47535f4d5553545f42455f415f434f4e54524143540000000000815260200192915050565b6000620014a360198362001789565b7f454d5054595f414444524553535f4e4f545f414c4c4f57454400000000000000815260200192915050565b6000620014de60128362001789565b71141310551193d49357d254d7d4105554d15160721b815260200192915050565b60006200150e60128362001789565b711110541417d053149150511657d1561254d560721b815260200192915050565b60006200153e60148362001789565b731110541417d254d39517d057d0d3d395149050d560621b815260200192915050565b60006200157060188362001792565b7f426173655570677261646561626c652e73657474696e67730000000000000000815260180192915050565b6000620015ab60188362001789565b7f434f4e54524143545f4e4f545f494e495449414c495a45440000000000000000815260200192915050565b6000620015e6601c8362001789565b7f434f4e54524143545f414c52454144595f494e495449414c495a454400000000815260200192915050565b60006200097f82620013b7565b60006200097f8262001561565b602081016200097f828462001326565b602081016200097f828462001315565b604081016200165c828562001326565b6200166b6020830184620013a1565b9392505050565b602080825281016200166b818462001331565b602081016200097f828462001396565b602081016200097f8284620013ac565b602080825281016200097f81620013f2565b602080825281016200097f816200141e565b602080825281016200097f8162001459565b602080825281016200097f8162001494565b602080825281016200097f81620014cf565b602080825281016200097f81620014ff565b602080825281016200097f816200152f565b602080825281016200097f816200159c565b602080825281016200097f81620015d7565b602081016200097f8284620013a1565b60405181810167ffffffffffffffff811182821017156200177757600080fd5b604052919050565b60200190565b5190565b90815260200190565b919050565b60006200097f82620017b6565b151590565b60006200097f8262001797565b6001600160a01b031690565b60006200097f82620017a9565b620017da8162001797565b81146200092357600080fd5b620017da81620017a4565b620017da81620003a5565b620017da81620017a9565b600481106200092357600080fdfe608060405234801561001057600080fd5b506040516105b03803806105b08339818101604052604081101561003357600080fd5b50805160209091015161004e826001600160e01b0361006716565b610060816001600160e01b0361013316565b5050610315565b600061007a6001600160e01b036102a316565b6001600160a01b0316146100fa576100a4816001600160a01b03166102d960201b61021b1760201c565b6100f5576040805162461bcd60e51b815260206004820152601b60248201527f53455454494e47535f4d5553545f42455f415f434f4e54524143540000000000604482015290519081900360640190fd5b610130565b604080517f426173655570677261646561626c652e73657474696e67730000000000000000815290519081900360180190208190555b50565b6101446001600160e01b036102a316565b6001600160a01b031663ea23cb7c6040518163ffffffff1660e01b815260040160206040518083038186803b15801561017c57600080fd5b505afa158015610190573d6000803e3d6000fd5b505050506040513d60208110156101a657600080fd5b50516040805163b28f5abb60e01b81526004810184905290516001600160a01b039092169163b28f5abb91602480820192602092909190829003018186803b1580156101f157600080fd5b505afa158015610205573d6000803e3d6000fd5b505050506040513d602081101561021b57600080fd5b505161026e576040805162461bcd60e51b815260206004820152601460248201527f4c4f4749435f4e414d455f4e4f545f4558495354000000000000000000000000604482015290519081900360640190fd5b604080517f426173655570677261646561626c652e6c6f6769634e616d65000000000000008152905190819003601901902055565b604080517f426173655570677261646561626c652e73657474696e67730000000000000000815290519081900360180190205490565b6000813f7fc5d2460186f7233c927e7db2dcc703c0e500b653ca82273b7bfad8045d85a47081811480159061030d57508115155b949350505050565b61028c806103246000396000f3fe6080604052600436106100295760003560e01c80635c60da1b14610033578063e06174e414610064575b610031610079565b005b34801561003f57600080fd5b50610048610093565b604080516001600160a01b039092168252519081900360200190f35b34801561007057600080fd5b506100486100a2565b610081610091565b61009161008c6100d8565b6101c1565b565b600061009d6100d8565b905090565b604080517f426173655570677261646561626c652e73657474696e67730000000000000000815290519081900360180190205490565b60006100e26100a2565b6001600160a01b031663ea23cb7c6040518163ffffffff1660e01b815260040160206040518083038186803b15801561011a57600080fd5b505afa15801561012e573d6000803e3d6000fd5b505050506040513d602081101561014457600080fd5b50516001600160a01b03166373f1fcf661015c6101e5565b6040518263ffffffff1660e01b81526004018082815260200191505060206040518083038186803b15801561019057600080fd5b505afa1580156101a4573d6000803e3d6000fd5b505050506040513d60208110156101ba57600080fd5b5051905090565b3660008037600080366000845af43d6000803e8080156101e0573d6000f35b3d6000fd5b604080517f426173655570677261646561626c652e6c6f6769634e616d6500000000000000815290519081900360190190205490565b6000813f7fc5d2460186f7233c927e7db2dcc703c0e500b653ca82273b7bfad8045d85a47081811480159061024f57508115155b94935050505056fea265627a7a72315820719540adc046c2f7c4155ffa200cbba2e96c24f6c5638e7f502862ad0af638e764736f6c63430005110032a365627a7a72315820d1dc06762e15b903c0929452d83adf74b5541b02b2788be130374a9b459d2c706c6578706572696d656e74616cf564736f6c63430005110040",
  "source": "pragma solidity 0.5.17;\npragma experimental ABIEncoderV2;\n\n// Contracts\nimport \"./TInitializable.sol\";\nimport \"./DynamicProxy.sol\";\n\n// Libraries\nimport \"@openzeppelin/contracts-ethereum-package/contracts/utils/Address.sol\";\n\n// Interfaces\nimport \"../interfaces/LoansInterface.sol\";\nimport \"../interfaces/EscrowFactoryInterface.sol\";\nimport \"../interfaces/EscrowInterface.sol\";\n\n// Commons\nimport \"../util/AddressLib.sol\";\nimport \"../util/AddressArrayLib.sol\";\n\n/*****************************************************************************************************/\n/**                                             WARNING                                             **/\n/**                                  THIS CONTRACT IS UPGRADEABLE!                                  **/\n/**  ---------------------------------------------------------------------------------------------  **/\n/**  Do NOT change the order of or PREPEND any storage variables to this or new versions of this    **/\n/**  contract as this will cause the the storage slots to be overwritten on the proxy contract!!    **/\n/**                                                                                                 **/\n/**  Visit https://docs.openzeppelin.com/upgrades/2.6/proxies#upgrading-via-the-proxy-pattern for   **/\n/**  more information.                                                                              **/\n/*****************************************************************************************************/\n/**\n    @notice This contract is used as a factory for the escrow contract that will be owned by the borrowers.\n\n    @author develop@teller.finance\n */\ncontract EscrowFactory is EscrowFactoryInterface, TInitializable, BaseUpgradeable {\n    using AddressArrayLib for address[];\n    using AddressLib for address;\n    using Address for address;\n\n    /* State Variables */\n\n    /**\n        @notice It defines whether a DApp exists or not.\n        Example:\n            address(0x123...456) => true\n            address(0x456...789) => false\n     */\n    mapping(address => bool) public dapps;\n\n    /**\n        @notice It contains all the dapps added in this factory.\n     */\n    address[] public dappsList;\n\n    /* Modifiers */\n\n    /**\n        @notice It checks whether the platform is paused or not.\n        @dev It throws a require error if the platform is used.\n     */\n    modifier isNotPaused() {\n        require(!settings().isPaused(), \"PLATFORM_IS_PAUSED\");\n        _;\n    }\n\n    /**\n        @notice It creates an Escrow contract for a given loan id.\n        @param loansAddress address of the loans contract that is creating an escrow.\n        @param loanID loan id to associate to the new escrow instance.\n        @return the new escrow instance.\n     */\n    function createEscrow(address loansAddress, uint256 loanID)\n        external\n        isInitialized()\n        isNotPaused()\n        returns (address escrowAddress)\n    {\n        TellerCommon.Loan memory loan = LoansInterface(loansAddress).loans(loanID);\n        require(loan.escrow == address(0x0), \"LOAN_ESCROW_ALREADY_EXISTS\");\n\n        bytes32 escrowLogicName = settings()\n            .versionsRegistry()\n            .consts()\n            .ESCROW_LOGIC_NAME();\n        escrowAddress = address(new DynamicProxy(address(settings()), escrowLogicName));\n        emit EscrowCreated(loan.loanTerms.borrower, loansAddress, loanID, escrowAddress);\n    }\n\n    /**\n        @notice It tests whether an address is a dapp or not.\n        @param dapp address to test.\n        @return true if the address is a dapp. Otherwise it returns false.\n     */\n    function isDapp(address dapp) external view returns (bool) {\n        return _isDapp(dapp);\n    }\n\n    /**\n        @notice It adds a new dapp to the factory.\n        @param dapp address to add in this factory.\n     */\n    function addDapp(address dapp) external onlyPauser() isInitialized() {\n        require(dapp.isContract(), \"DAPP_ISNT_A_CONTRACT\");\n        require(!_isDapp(dapp), \"DAPP_ALREADY_EXIST\");\n\n        dapps[dapp] = true;\n        dappsList.add(dapp);\n\n        emit NewDAppAdded(msg.sender, dapp);\n    }\n\n    /**\n        @notice It removes a current dapp from the factory.\n        @param dapp address to remove.\n     */\n    function removeDapp(address dapp) external onlyPauser() isInitialized() {\n        require(dapp.isContract(), \"DAPP_ISNT_A_CONTRACT\");\n        require(_isDapp(dapp), \"DAPP_NOT_EXIST\");\n\n        dapps[dapp] = false;\n        dappsList.remove(dapp);\n\n        emit DAppRemoved(msg.sender, dapp);\n    }\n\n    /**\n        @notice Gets all the dapps in the factory.\n        @return an array of dapps (addresses).\n     */\n    function getDapps() external view returns (address[] memory) {\n        return dappsList;\n    }\n\n    /**\n        @notice It initializes this escrow contract factory instance.\n        @param settingsAddress the settings contract address.\n     */\n    function initialize(address settingsAddress) external isNotInitialized() {\n        require(settingsAddress.isContract(), \"SETTINGS_MUST_BE_A_CONTRACT\");\n\n        _initialize();\n        _setSettings(settingsAddress);\n    }\n\n    /** Internal Functions */\n\n    /**\n        @notice It tests whether an address is a dapp or not.\n        @param dapp address to test.\n        @return true if the address is a dapp. Otherwise it returns false.\n     */\n    function _isDapp(address dapp) internal view returns (bool) {\n        return dapps[dapp];\n    }\n}\n",
  "sourcePath": "/Users/sy/Documents/GitHub/teller-protocol-v1/contracts/base/EscrowFactory.sol",
  "compiler": {
    "name": "solc",
    "version": "0.5.17+commit.d19bba13.Emscripten.clang"
  },
  "schemaVersion": "3.0.23",
  "updatedAt": "2020-09-06T02:15:12.192Z",
  "devdoc": {
    "author": "develop@teller.finance",
    "methods": {
      "addDapp(address)": {
        "params": {
          "dapp": "address to add in this factory."
        }
      },
      "createEscrow(address,uint256)": {
        "params": {
          "loanID": "loan id to associate to the new escrow instance.",
          "loansAddress": "address of the loans contract that is creating an escrow."
        },
        "return": "the new escrow instance."
      },
      "getDapps()": {
        "return": "an array of dapps (addresses)."
      },
      "initialize(address)": {
        "params": {
          "settingsAddress": "the settings contract address."
        }
      },
      "initialized()": {
        "return": "true if contract is initialized. Otherwise it returns false."
      },
      "isDapp(address)": {
        "params": {
          "dapp": "address to test."
        },
        "return": "true if the address is a dapp. Otherwise it returns false."
      },
      "removeDapp(address)": {
        "params": {
          "dapp": "address to remove."
        }
      }
    }
  },
  "userdoc": {
    "methods": {
      "addDapp(address)": {
        "notice": "It adds a new dapp to the factory."
      },
      "createEscrow(address,uint256)": {
        "notice": "It creates an Escrow contract for a given loan id."
      },
      "getDapps()": {
        "notice": "Gets all the dapps in the factory."
      },
      "initialize(address)": {
        "notice": "It initializes this escrow contract factory instance."
      },
      "initialized()": {
        "notice": "Gets if the contract is initialized."
      },
      "isDapp(address)": {
        "notice": "It tests whether an address is a dapp or not."
      },
      "removeDapp(address)": {
        "notice": "It removes a current dapp from the factory."
      },
      "settings()": {
        "notice": "The settings contract."
      }
    },
    "notice": "This contract is used as a factory for the escrow contract that will be owned by the borrowers."
  }
}