{
  "contractName": "LendersModifiersMock",
  "abi": [
    {
      "anonymous": false,
      "inputs": [
        {
          "indexed": true,
          "internalType": "address",
          "name": "lender",
          "type": "address"
        },
        {
          "indexed": false,
          "internalType": "uint256",
          "name": "totalNotWithdrawn",
          "type": "uint256"
        },
        {
          "indexed": false,
          "internalType": "uint256",
          "name": "totalAccruedInterest",
          "type": "uint256"
        }
      ],
      "name": "AccruedInterestUpdated",
      "type": "event"
    },
    {
      "anonymous": false,
      "inputs": [
        {
          "indexed": true,
          "internalType": "address",
          "name": "recipient",
          "type": "address"
        },
        {
          "indexed": false,
          "internalType": "uint256",
          "name": "amount",
          "type": "uint256"
        }
      ],
      "name": "AccruedInterestWithdrawn",
      "type": "event"
    },
    {
      "constant": true,
      "inputs": [
        {
          "internalType": "address",
          "name": "",
          "type": "address"
        }
      ],
      "name": "accruedInterest",
      "outputs": [
        {
          "internalType": "uint256",
          "name": "totalAccruedInterest",
          "type": "uint256"
        },
        {
          "internalType": "uint256",
          "name": "totalNotWithdrawn",
          "type": "uint256"
        },
        {
          "internalType": "uint256",
          "name": "timeLastAccrued",
          "type": "uint256"
        }
      ],
      "payable": false,
      "stateMutability": "view",
      "type": "function"
    },
    {
      "constant": false,
      "inputs": [],
      "name": "initialize",
      "outputs": [],
      "payable": false,
      "stateMutability": "nonpayable",
      "type": "function"
    },
    {
      "constant": false,
      "inputs": [
        {
          "internalType": "address",
          "name": "tTokenAddress",
          "type": "address"
        },
        {
          "internalType": "address",
          "name": "lendingPoolAddress",
          "type": "address"
        },
        {
          "internalType": "address",
          "name": "interestConsensusAddress",
          "type": "address"
        },
        {
          "internalType": "address",
          "name": "settingAddress",
          "type": "address"
        }
      ],
      "name": "initialize",
      "outputs": [],
      "payable": false,
      "stateMutability": "nonpayable",
      "type": "function"
    },
    {
      "constant": true,
      "inputs": [],
      "name": "initialized",
      "outputs": [
        {
          "internalType": "bool",
          "name": "value",
          "type": "bool"
        }
      ],
      "payable": false,
      "stateMutability": "view",
      "type": "function"
    },
    {
      "constant": true,
      "inputs": [],
      "name": "interestConsensus",
      "outputs": [
        {
          "internalType": "contract InterestConsensusInterface",
          "name": "",
          "type": "address"
        }
      ],
      "payable": false,
      "stateMutability": "view",
      "type": "function"
    },
    {
      "constant": true,
      "inputs": [],
      "name": "lendingPool",
      "outputs": [
        {
          "internalType": "address",
          "name": "",
          "type": "address"
        }
      ],
      "payable": false,
      "stateMutability": "view",
      "type": "function"
    },
    {
      "constant": false,
      "inputs": [
        {
          "components": [
            {
              "internalType": "address",
              "name": "lender",
              "type": "address"
            },
            {
              "internalType": "address",
              "name": "consensusAddress",
              "type": "address"
            },
            {
              "internalType": "uint256",
              "name": "requestNonce",
              "type": "uint256"
            },
            {
              "internalType": "uint256",
              "name": "startTime",
              "type": "uint256"
            },
            {
              "internalType": "uint256",
              "name": "endTime",
              "type": "uint256"
            },
            {
              "internalType": "uint256",
              "name": "requestTime",
              "type": "uint256"
            }
          ],
          "internalType": "struct TellerCommon.InterestRequest",
          "name": "request",
          "type": "tuple"
        },
        {
          "components": [
            {
              "internalType": "address",
              "name": "signer",
              "type": "address"
            },
            {
              "internalType": "address",
              "name": "consensusAddress",
              "type": "address"
            },
            {
              "internalType": "uint256",
              "name": "responseTime",
              "type": "uint256"
            },
            {
              "internalType": "uint256",
              "name": "interest",
              "type": "uint256"
            },
            {
              "components": [
                {
                  "internalType": "uint256",
                  "name": "signerNonce",
                  "type": "uint256"
                },
                {
                  "internalType": "uint8",
                  "name": "v",
                  "type": "uint8"
                },
                {
                  "internalType": "bytes32",
                  "name": "r",
                  "type": "bytes32"
                },
                {
                  "internalType": "bytes32",
                  "name": "s",
                  "type": "bytes32"
                }
              ],
              "internalType": "struct TellerCommon.Signature",
              "name": "signature",
              "type": "tuple"
            }
          ],
          "internalType": "struct TellerCommon.InterestResponse[]",
          "name": "responses",
          "type": "tuple[]"
        }
      ],
      "name": "setAccruedInterest",
      "outputs": [],
      "payable": false,
      "stateMutability": "nonpayable",
      "type": "function"
    },
    {
      "constant": true,
      "inputs": [],
      "name": "settings",
      "outputs": [
        {
          "internalType": "contract SettingsInterface",
          "name": "",
          "type": "address"
        }
      ],
      "payable": false,
      "stateMutability": "view",
      "type": "function"
    },
    {
      "constant": true,
      "inputs": [],
      "name": "tToken",
      "outputs": [
        {
          "internalType": "address",
          "name": "",
          "type": "address"
        }
      ],
      "payable": false,
      "stateMutability": "view",
      "type": "function"
    },
    {
      "constant": false,
      "inputs": [
        {
          "internalType": "address",
          "name": "recipient",
          "type": "address"
        },
        {
          "internalType": "uint256",
          "name": "amount",
          "type": "uint256"
        }
      ],
      "name": "withdrawInterest",
      "outputs": [
        {
          "internalType": "uint256",
          "name": "",
          "type": "uint256"
        }
      ],
      "payable": false,
      "stateMutability": "nonpayable",
      "type": "function"
    },
    {
      "constant": false,
      "inputs": [],
      "name": "externalIsTToken",
      "outputs": [],
      "payable": false,
      "stateMutability": "nonpayable",
      "type": "function"
    },
    {
      "constant": false,
      "inputs": [],
      "name": "externalIsLendingPool",
      "outputs": [],
      "payable": false,
      "stateMutability": "nonpayable",
      "type": "function"
    },
    {
      "constant": false,
      "inputs": [
        {
          "internalType": "address",
          "name": "anAddress",
          "type": "address"
        }
      ],
      "name": "externalIsValid",
      "outputs": [],
      "payable": false,
      "stateMutability": "nonpayable",
      "type": "function"
    }
  ],
  "bytecode": "0x608060405234801561001057600080fd5b5061182f806100206000396000f3fe608060405234801561001057600080fd5b50600436106100cf5760003560e01c8063649e87c01161008c578063a59a997311610066578063a59a997314610189578063c35d64ea1461019e578063e06174e4146101a6578063f8c8765e146101ae576100cf565b8063649e87c01461014c57806377267ec31461015f5780638129fc1c14610181576100cf565b8063158ef93e146100d457806319d92f0e146100f25780631b2f9e2914610107578063488578b71461011c5780634c096071146101245780635b730e691461012c575b600080fd5b6100dc6101c1565b6040516100e99190611585565b60405180910390f35b6100fa6101e0565b6040516100e99190611593565b61011a610115366004610f21565b6101ef565b005b61011a6105b0565b61011a6105e4565b61013f61013a366004610ec9565b610616565b6040516100e991906116bc565b61011a61015a366004610e4a565b61079e565b61017261016d366004610e4a565b6107ea565b6040516100e9939291906116e5565b61011a61080b565b610191610893565b6040516100e99190611577565b6101916108a2565b6100fa6108b1565b61011a6101bc366004610e68565b6108d3565b6000806040516101d090611561565b6040519081900390205492915050565b6067546001600160a01b031681565b6101f76101c1565b61021c5760405162461bcd60e51b815260040161021390611662565b60405180910390fd5b610224610a2b565b156102415760405162461bcd60e51b815260040161021390611632565b6066546001600160a01b031661025681610aaa565b156102735760405162461bcd60e51b8152600401610213906115c2565b606960006102846020870187610e4a565b6001600160a01b0316815260208101919091526040016000206002015415806102e457506060840135606960006102be6020880188610e4a565b6001600160a01b03166001600160a01b0316815260200190815260200160002060020154145b6103005760405162461bcd60e51b815260040161021390611652565b83606001358460800135116103275760405162461bcd60e51b815260040161021390611682565b83608001358460a00135101561034f5760405162461bcd60e51b815260040161021390611612565b6067546040516367136b3560e01b81526000916001600160a01b0316906367136b359061038490889088908890600401611692565b602060405180830381600087803b15801561039e57600080fd5b505af11580156103b2573d6000803e3d6000fd5b505050506040513d601f19601f820116820180604052506103d69190810190610f77565b905061041381606960006103ed60208a018a610e4a565b6001600160a01b031681526020810191909152604001600020549063ffffffff610b3516565b606960006104246020890189610e4a565b6001600160a01b031681526020808201929092526040016000908120929092556104839183916069919061045a908a018a610e4a565b6001600160a01b031681526020810191909152604001600020600101549063ffffffff610b3516565b606960006104946020890189610e4a565b6001600160a01b031681526020808201929092526040016000908120600101929092556080870135916069916104cc90890189610e4a565b6001600160a01b03168152602080820192909252604001600020600201919091556104f990860186610e4a565b6001600160a01b03167f6a48f7e1420006e30421b757d8fbba2f41e8599f2aa19d2339c942a7345121626069600061053460208a018a610e4a565b6001600160a01b03166001600160a01b03168152602001908152602001600020600101546069600089600001602061056f9190810190610e4a565b6001600160a01b03166001600160a01b03168152602001908152602001600020600001546040516105a19291906116ca565b60405180910390a25050505050565b6068546105c6906001600160a01b031633610b61565b6105e25760405162461bcd60e51b8152600401610213906115b2565b565b6066546105fa906001600160a01b031633610b61565b6105e25760405162461bcd60e51b8152600401610213906115e2565b60665460009061062f906001600160a01b031633610b61565b61064b5760405162461bcd60e51b8152600401610213906115e2565b8261069360405180604001604052806013815260200172105111149154d4d7d254d7d491545552549151606a1b815250826001600160a01b0316610b7c90919063ffffffff16565b61069b6101c1565b6106b75760405162461bcd60e51b815260040161021390611662565b600083116106d75760405162461bcd60e51b815260040161021390611622565b6001600160a01b0384166000908152606960205260409020600101548311156107125760405162461bcd60e51b815260040161021390611602565b6001600160a01b03841660009081526069602052604090206001015461073e908463ffffffff610ba916565b6001600160a01b038516600081815260696020526040908190206001019290925590517f881aac5f23fb14361bd73229af2077b33386b9f5467a2a779dccf2917c83a4339061078e9086906116bc565b60405180910390a2509092915050565b806107e660405180604001604052806013815260200172105111149154d4d7d254d7d491545552549151606a1b815250826001600160a01b0316610b7c90919063ffffffff16565b5050565b60696020526000908152604090208054600182015460029092015490919083565b600054610100900460ff16806108245750610824610beb565b80610832575060005460ff16155b61084e5760405162461bcd60e51b815260040161021390611642565b600054610100900460ff16158015610879576000805460ff1961ff0019909116610100171660011790555b60016033558015610890576000805461ff00191690555b50565b6066546001600160a01b031681565b6068546001600160a01b031681565b60008060006040516108c29061156c565b604051908190039020549250505090565b6108db6101c1565b156108f85760405162461bcd60e51b815260040161021390611672565b60408051808201909152601781527f54544f4b454e5f4d5553545f42455f50524f56494445440000000000000000006020820152610946906001600160a01b0386169063ffffffff610b7c16565b60408051808201909152601d81527f4c454e44494e475f504f4f4c5f4d5553545f42455f50524f56494445440000006020820152610994906001600160a01b0385169063ffffffff610b7c16565b60408051808201909152601a81527f434f4e53454e5355535f4d5553545f42455f50524f564944454400000000000060208201526109e2906001600160a01b0384169063ffffffff610b7c16565b6109eb81610bf1565b50606880546001600160a01b039485166001600160a01b031991821617909155606680549385169382169390931790925560678054919093169116179055565b6000610a356108b1565b6001600160a01b031663b187bd266040518163ffffffff1660e01b815260040160206040518083038186803b158015610a6d57600080fd5b505afa158015610a81573d6000803e3d6000fd5b505050506040513d601f19601f82011682018060405250610aa59190810190610f03565b905090565b6000610ab46108b1565b6001600160a01b0316633b668321836040518263ffffffff1660e01b8152600401610adf9190611577565b60206040518083038186803b158015610af757600080fd5b505afa158015610b0b573d6000803e3d6000fd5b505050506040513d601f19601f82011682018060405250610b2f9190810190610f03565b92915050565b600082820183811015610b5a5760405162461bcd60e51b8152600401610213906115d2565b9392505050565b6000610b5a6001600160a01b0384168363ffffffff610ca316565b610b8582610cb4565b8190610ba45760405162461bcd60e51b815260040161021391906115a1565b505050565b6000610b5a83836040518060400160405280601e81526020017f536166654d6174683a207375627472616374696f6e206f766572666c6f770000815250610cc2565b303b1590565b610bf96101c1565b15610c165760405162461bcd60e51b815260040161021390611672565b60408051808201909152601981527f53455454494e47535f4d5553545f42455f50524f5649444544000000000000006020820152610c64906001600160a01b0383169063ffffffff610b7c16565b610c76816001600160a01b0316610cee565b610c925760405162461bcd60e51b8152600401610213906115f2565b610c9a610d2a565b61089081610d48565b6001600160a01b0390811691161490565b6001600160a01b0316151590565b60008184841115610ce65760405162461bcd60e51b815260040161021391906115a1565b505050900390565b6000813f7fc5d2460186f7233c927e7db2dcc703c0e500b653ca82273b7bfad8045d85a470818114801590610d2257508115155b949350505050565b6000604051610d3890611561565b6040519081900390206001905550565b6000610d526108b1565b6001600160a01b031614610d9357610d72816001600160a01b0316610cee565b610d8e5760405162461bcd60e51b8152600401610213906115f2565b610890565b6000604051610da19061156c565b6040519081900390208290555050565b8035610b2f816117bd565b60008083601f840112610dce57600080fd5b50813567ffffffffffffffff811115610de657600080fd5b60208301915083610100820283011115610dff57600080fd5b9250929050565b8051610b2f816117d1565b8035610b2f816117da565b600060c08284031215610e2e57600080fd5b50919050565b8051610b2f816117da565b8035610b2f816117e3565b600060208284031215610e5c57600080fd5b6000610d228484610db1565b60008060008060808587031215610e7e57600080fd5b6000610e8a8787610db1565b9450506020610e9b87828801610db1565b9350506040610eac87828801610db1565b9250506060610ebd87828801610db1565b91505092959194509250565b60008060408385031215610edc57600080fd5b6000610ee88585610db1565b9250506020610ef985828601610e11565b9150509250929050565b600060208284031215610f1557600080fd5b6000610d228484610e06565b600080600060e08486031215610f3657600080fd5b6000610f428686610e1c565b93505060c084013567ffffffffffffffff811115610f5f57600080fd5b610f6b86828701610dbc565b92509250509250925092565b600060208284031215610f8957600080fd5b6000610d228484610e34565b6000610fa1838361146f565b50506101000190565b610fb38161175a565b82525050565b6000610fc5838561171b565b9350610fd08261170d565b8060005b8581101561100657610fe68284611747565b610ff08882610f95565b9750610ffb83611714565b925050600101610fd4565b509495945050505050565b610fb381611765565b610fb38161170d565b610fb38161177c565b600061103782611710565b611041818561171b565b9350611051818560208601611787565b61105a816117b3565b9093019392505050565b6000611071601c83611724565b7f54496e697469616c697a61626c652e6973496e697469616c697a6564000000008152601c0192915050565b60006110aa60128361171b565b7129a2a72222a92fa4a9a72a2faa2a27a5a2a760711b815260200192915050565b60006110d860168361171b565b7513115391125391d7d413d3d317d254d7d4105554d15160521b815260200192915050565b600061110a601b8361171b565b7f536166654d6174683a206164646974696f6e206f766572666c6f770000000000815260200192915050565b600061114360188361171b565b7f53454e4445525f49534e545f4c454e44494e475f504f4f4c0000000000000000815260200192915050565b600061117c601b8361171b565b7f53455454494e47535f4d5553545f42455f415f434f4e54524143540000000000815260200192915050565b60006111b5601f8361171b565b7f414d4f554e545f455843454544535f415641494c41424c455f414d4f554e5400815260200192915050565b60006111ee600f8361171b565b6e1253959053125117d49154555154d5608a1b815260200192915050565b600061121960148361171b565b7343414e4e4f545f57495448445241575f5a45524f60601b815260200192915050565b600061124960128361171b565b71141310551193d49357d254d7d4105554d15160721b815260200192915050565b6000611277602e8361171b565b7f436f6e747261637420696e7374616e63652068617320616c726561647920626581526d195b881a5b9a5d1a585b1a5e995960921b602082015260400192915050565b60006112c7601883611724565b7f426173655570677261646561626c652e73657474696e67730000000000000000815260180192915050565b600061130060178361171b565b7f4741505f494e5f494e5445524553545f4143435255414c000000000000000000815260200192915050565b600061133960188361171b565b7f434f4e54524143545f4e4f545f494e495449414c495a45440000000000000000815260200192915050565b6000611372601c8361171b565b7f434f4e54524143545f414c52454144595f494e495449414c495a454400000000815260200192915050565b60006113ab60108361171b565b6f1253959053125117d25395115495905360821b815260200192915050565b60c082016113d88280611729565b6113e28482610faa565b506113f06020830183611729565b6113fd6020850182610faa565b5061140b6040830183611738565b611418604085018261101a565b506114266060830183611738565b611433606085018261101a565b506114416080830183611738565b61144e608085018261101a565b5061145c60a0830183611738565b61146960a085018261101a565b50505050565b610100820161147e8280611729565b6114888482610faa565b506114966020830183611729565b6114a36020850182610faa565b506114b16040830183611738565b6114be604085018261101a565b506114cc6060830183611738565b6114d9606085018261101a565b506114e76080830183611747565b6114696080850182608082016114fd8280611738565b611507848261101a565b50611515602083018361174b565b6115226020850182611558565b506115306040830183611738565b61153d604085018261101a565b5061154b6060830183611738565b611469606085018261101a565b610fb381611776565b6000610b2f82611064565b6000610b2f826112ba565b60208101610b2f8284610faa565b60208101610b2f8284611011565b60208101610b2f8284611023565b60208082528101610b5a818461102c565b60208082528101610b2f8161109d565b60208082528101610b2f816110cb565b60208082528101610b2f816110fd565b60208082528101610b2f81611136565b60208082528101610b2f8161116f565b60208082528101610b2f816111a8565b60208082528101610b2f816111e1565b60208082528101610b2f8161120c565b60208082528101610b2f8161123c565b60208082528101610b2f8161126a565b60208082528101610b2f816112f3565b60208082528101610b2f8161132c565b60208082528101610b2f81611365565b60208082528101610b2f8161139e565b60e081016116a082866113ca565b81810360c08301526116b3818486610fb9565b95945050505050565b60208101610b2f828461101a565b604081016116d8828561101a565b610b5a602083018461101a565b606081016116f3828661101a565b611700602083018561101a565b610d22604083018461101a565b90565b5190565b6101000190565b90815260200190565b919050565b6000610b5a6020840184610db1565b6000610b5a6020840184610e11565b5090565b6000610b5a6020840184610e3f565b6000610b2f8261176a565b151590565b6001600160a01b031690565b60ff1690565b6000610b2f8261175a565b60005b838110156117a257818101518382015260200161178a565b838111156114695750506000910152565b601f01601f191690565b6117c68161175a565b811461089057600080fd5b6117c681611765565b6117c68161170d565b6117c68161177656fea365627a7a723158209c0fdb307deee0cece4215f692202040d56dde89bc39eb5c3972898942bf03456c6578706572696d656e74616cf564736f6c63430005110040",
  "source": "pragma solidity 0.5.17;\npragma experimental ABIEncoderV2;\n\nimport \"../../base/Lenders.sol\";\n\n/**\n    This contract is created ONLY for testing purposes.\n */\ncontract LendersModifiersMock is Lenders {\n    /** Constructor */\n\n    /** External Functions */\n\n    function externalIsTToken() external isTToken() {}\n\n    function externalIsLendingPool() external isLendingPool() {}\n\n    function externalIsValid(address anAddress) external isValid(anAddress) {}\n}\n",
  "sourcePath": "/Users/sy/Documents/GitHub/teller-protocol-v1/contracts/mock/base/LendersModifiersMock.sol",
  "compiler": {
    "name": "solc",
    "version": "0.5.17+commit.d19bba13.Emscripten.clang"
  },
  "schemaVersion": "3.0.23",
  "updatedAt": "2020-09-06T02:15:12.476Z",
  "devdoc": {
    "methods": {
      "initialize(address,address,address,address)": {
        "params": {
          "interestConsensusAddress": "interest consensus contract address.",
          "lendingPoolAddress": "lending pool contract address.",
          "settingAddress": "settings contract address.",
          "tTokenAddress": "tToken contract address."
        }
      },
      "initialized()": {
        "return": "true if contract is initialized. Otherwise it returns false."
      },
      "setAccruedInterest((address,address,uint256,uint256,uint256,uint256),(address,address,uint256,uint256,(uint256,uint8,bytes32,bytes32))[])": {
        "params": {
          "request": "interest request sent by the lender.",
          "responses": "all node responses to get a consensus value for the accrued interest."
        }
      },
      "withdrawInterest(address,uint256)": {
        "params": {
          "amount": "to track.",
          "recipient": "address."
        },
        "return": "the interest amount to withdraw."
      }
    }
  },
  "userdoc": {
    "methods": {
      "externalIsTToken()": {
        "notice": "External Functions "
      },
      "initialize(address,address,address,address)": {
        "notice": "It initializes this contract instance."
      },
      "initialized()": {
        "notice": "Gets if the contract is initialized."
      },
      "setAccruedInterest((address,address,uint256,uint256,uint256,uint256),(address,address,uint256,uint256,(uint256,uint8,bytes32,bytes32))[])": {
        "notice": "It sets the accrued interest for a lender based on the node responses."
      },
      "settings()": {
        "notice": "The settings contract."
      },
      "withdrawInterest(address,uint256)": {
        "notice": "It tracks the interest amount for a recipient/lender."
      }
    },
    "notice": "This contract is created ONLY for testing purposes."
  }
}