{
  "contractName": "LoanTermsConsensusMock",
  "abi": [
    {
      "anonymous": false,
      "inputs": [
        {
          "indexed": true,
          "internalType": "address",
          "name": "previousOwner",
          "type": "address"
        },
        {
          "indexed": true,
          "internalType": "address",
          "name": "newOwner",
          "type": "address"
        }
      ],
      "name": "OwnershipTransferred",
      "type": "event"
    },
    {
      "anonymous": false,
      "inputs": [
        {
          "indexed": true,
          "internalType": "address",
          "name": "account",
          "type": "address"
        }
      ],
      "name": "SignerAdded",
      "type": "event"
    },
    {
      "anonymous": false,
      "inputs": [
        {
          "indexed": true,
          "internalType": "address",
          "name": "account",
          "type": "address"
        }
      ],
      "name": "SignerRemoved",
      "type": "event"
    },
    {
      "anonymous": false,
      "inputs": [
        {
          "indexed": true,
          "internalType": "address",
          "name": "borrower",
          "type": "address"
        },
        {
          "indexed": true,
          "internalType": "uint256",
          "name": "requestNonce",
          "type": "uint256"
        },
        {
          "indexed": false,
          "internalType": "uint256",
          "name": "interestRate",
          "type": "uint256"
        },
        {
          "indexed": false,
          "internalType": "uint256",
          "name": "collateralRatio",
          "type": "uint256"
        },
        {
          "indexed": false,
          "internalType": "uint256",
          "name": "maxLoanAmount",
          "type": "uint256"
        }
      ],
      "name": "TermsAccepted",
      "type": "event"
    },
    {
      "anonymous": false,
      "inputs": [
        {
          "indexed": true,
          "internalType": "address",
          "name": "signer",
          "type": "address"
        },
        {
          "indexed": true,
          "internalType": "address",
          "name": "borrower",
          "type": "address"
        },
        {
          "indexed": true,
          "internalType": "uint256",
          "name": "requestNonce",
          "type": "uint256"
        },
        {
          "indexed": false,
          "internalType": "uint256",
          "name": "interestRate",
          "type": "uint256"
        },
        {
          "indexed": false,
          "internalType": "uint256",
          "name": "collateralRatio",
          "type": "uint256"
        },
        {
          "indexed": false,
          "internalType": "uint256",
          "name": "maxLoanAmount",
          "type": "uint256"
        }
      ],
      "name": "TermsSubmitted",
      "type": "event"
    },
    {
      "constant": false,
      "inputs": [
        {
          "internalType": "address",
          "name": "account",
          "type": "address"
        }
      ],
      "name": "addSigner",
      "outputs": [],
      "payable": false,
      "stateMutability": "nonpayable",
      "type": "function"
    },
    {
      "constant": false,
      "inputs": [
        {
          "internalType": "address[]",
          "name": "accounts",
          "type": "address[]"
        }
      ],
      "name": "addSigners",
      "outputs": [],
      "payable": false,
      "stateMutability": "nonpayable",
      "type": "function"
    },
    {
      "constant": true,
      "inputs": [
        {
          "internalType": "address",
          "name": "",
          "type": "address"
        }
      ],
      "name": "borrowerToLastLoanTermRequest",
      "outputs": [
        {
          "internalType": "uint256",
          "name": "",
          "type": "uint256"
        }
      ],
      "payable": false,
      "stateMutability": "view",
      "type": "function"
    },
    {
      "constant": true,
      "inputs": [],
      "name": "callerAddress",
      "outputs": [
        {
          "internalType": "address",
          "name": "",
          "type": "address"
        }
      ],
      "payable": false,
      "stateMutability": "view",
      "type": "function"
    },
    {
      "constant": true,
      "inputs": [],
      "name": "consts",
      "outputs": [
        {
          "internalType": "contract SettingsConsts",
          "name": "",
          "type": "address"
        }
      ],
      "payable": false,
      "stateMutability": "view",
      "type": "function"
    },
    {
      "constant": true,
      "inputs": [
        {
          "internalType": "address",
          "name": "",
          "type": "address"
        },
        {
          "internalType": "address",
          "name": "",
          "type": "address"
        },
        {
          "internalType": "uint256",
          "name": "",
          "type": "uint256"
        }
      ],
      "name": "hasSubmitted",
      "outputs": [
        {
          "internalType": "bool",
          "name": "",
          "type": "bool"
        }
      ],
      "payable": false,
      "stateMutability": "view",
      "type": "function"
    },
    {
      "constant": false,
      "inputs": [],
      "name": "initialize",
      "outputs": [],
      "payable": false,
      "stateMutability": "nonpayable",
      "type": "function"
    },
    {
      "constant": false,
      "inputs": [
        {
          "internalType": "address",
          "name": "owner",
          "type": "address"
        },
        {
          "internalType": "address",
          "name": "aCallerAddress",
          "type": "address"
        },
        {
          "internalType": "address",
          "name": "aSettingAddress",
          "type": "address"
        }
      ],
      "name": "initialize",
      "outputs": [],
      "payable": false,
      "stateMutability": "nonpayable",
      "type": "function"
    },
    {
      "constant": false,
      "inputs": [
        {
          "internalType": "address",
          "name": "sender",
          "type": "address"
        }
      ],
      "name": "initialize",
      "outputs": [],
      "payable": false,
      "stateMutability": "nonpayable",
      "type": "function"
    },
    {
      "constant": true,
      "inputs": [],
      "name": "initialized",
      "outputs": [
        {
          "internalType": "bool",
          "name": "value",
          "type": "bool"
        }
      ],
      "payable": false,
      "stateMutability": "view",
      "type": "function"
    },
    {
      "constant": true,
      "inputs": [],
      "name": "isOwner",
      "outputs": [
        {
          "internalType": "bool",
          "name": "",
          "type": "bool"
        }
      ],
      "payable": false,
      "stateMutability": "view",
      "type": "function"
    },
    {
      "constant": true,
      "inputs": [
        {
          "internalType": "address",
          "name": "account",
          "type": "address"
        }
      ],
      "name": "isSigner",
      "outputs": [
        {
          "internalType": "bool",
          "name": "",
          "type": "bool"
        }
      ],
      "payable": false,
      "stateMutability": "view",
      "type": "function"
    },
    {
      "constant": true,
      "inputs": [],
      "name": "owner",
      "outputs": [
        {
          "internalType": "address",
          "name": "",
          "type": "address"
        }
      ],
      "payable": false,
      "stateMutability": "view",
      "type": "function"
    },
    {
      "constant": false,
      "inputs": [
        {
          "components": [
            {
              "internalType": "address payable",
              "name": "borrower",
              "type": "address"
            },
            {
              "internalType": "address",
              "name": "recipient",
              "type": "address"
            },
            {
              "internalType": "address",
              "name": "consensusAddress",
              "type": "address"
            },
            {
              "internalType": "uint256",
              "name": "requestNonce",
              "type": "uint256"
            },
            {
              "internalType": "uint256",
              "name": "amount",
              "type": "uint256"
            },
            {
              "internalType": "uint256",
              "name": "duration",
              "type": "uint256"
            },
            {
              "internalType": "uint256",
              "name": "requestTime",
              "type": "uint256"
            }
          ],
          "internalType": "struct TellerCommon.LoanRequest",
          "name": "request",
          "type": "tuple"
        },
        {
          "components": [
            {
              "internalType": "address",
              "name": "signer",
              "type": "address"
            },
            {
              "internalType": "address",
              "name": "consensusAddress",
              "type": "address"
            },
            {
              "internalType": "uint256",
              "name": "responseTime",
              "type": "uint256"
            },
            {
              "internalType": "uint256",
              "name": "interestRate",
              "type": "uint256"
            },
            {
              "internalType": "uint256",
              "name": "collateralRatio",
              "type": "uint256"
            },
            {
              "internalType": "uint256",
              "name": "maxLoanAmount",
              "type": "uint256"
            },
            {
              "components": [
                {
                  "internalType": "uint256",
                  "name": "signerNonce",
                  "type": "uint256"
                },
                {
                  "internalType": "uint8",
                  "name": "v",
                  "type": "uint8"
                },
                {
                  "internalType": "bytes32",
                  "name": "r",
                  "type": "bytes32"
                },
                {
                  "internalType": "bytes32",
                  "name": "s",
                  "type": "bytes32"
                }
              ],
              "internalType": "struct TellerCommon.Signature",
              "name": "signature",
              "type": "tuple"
            }
          ],
          "internalType": "struct TellerCommon.LoanResponse[]",
          "name": "responses",
          "type": "tuple[]"
        }
      ],
      "name": "processRequest",
      "outputs": [
        {
          "internalType": "uint256",
          "name": "interestRate",
          "type": "uint256"
        },
        {
          "internalType": "uint256",
          "name": "collateralRatio",
          "type": "uint256"
        },
        {
          "internalType": "uint256",
          "name": "maxLoanAmount",
          "type": "uint256"
        }
      ],
      "payable": false,
      "stateMutability": "nonpayable",
      "type": "function"
    },
    {
      "constant": false,
      "inputs": [
        {
          "internalType": "address",
          "name": "account",
          "type": "address"
        }
      ],
      "name": "removeSigner",
      "outputs": [],
      "payable": false,
      "stateMutability": "nonpayable",
      "type": "function"
    },
    {
      "constant": false,
      "inputs": [],
      "name": "renounceOwnership",
      "outputs": [],
      "payable": false,
      "stateMutability": "nonpayable",
      "type": "function"
    },
    {
      "constant": true,
      "inputs": [
        {
          "internalType": "address",
          "name": "",
          "type": "address"
        },
        {
          "internalType": "uint256",
          "name": "",
          "type": "uint256"
        }
      ],
      "name": "requestNonceTaken",
      "outputs": [
        {
          "internalType": "bool",
          "name": "",
          "type": "bool"
        }
      ],
      "payable": false,
      "stateMutability": "view",
      "type": "function"
    },
    {
      "constant": true,
      "inputs": [],
      "name": "settings",
      "outputs": [
        {
          "internalType": "contract SettingsInterface",
          "name": "",
          "type": "address"
        }
      ],
      "payable": false,
      "stateMutability": "view",
      "type": "function"
    },
    {
      "constant": true,
      "inputs": [
        {
          "internalType": "address",
          "name": "",
          "type": "address"
        },
        {
          "internalType": "uint256",
          "name": "",
          "type": "uint256"
        }
      ],
      "name": "signerNonceTaken",
      "outputs": [
        {
          "internalType": "bool",
          "name": "",
          "type": "bool"
        }
      ],
      "payable": false,
      "stateMutability": "view",
      "type": "function"
    },
    {
      "constant": true,
      "inputs": [
        {
          "internalType": "address",
          "name": "",
          "type": "address"
        },
        {
          "internalType": "uint256",
          "name": "",
          "type": "uint256"
        }
      ],
      "name": "termSubmissions",
      "outputs": [
        {
          "components": [
            {
              "internalType": "uint256",
              "name": "count",
              "type": "uint256"
            },
            {
              "internalType": "uint256",
              "name": "max",
              "type": "uint256"
            },
            {
              "internalType": "uint256",
              "name": "min",
              "type": "uint256"
            },
            {
              "internalType": "uint256",
              "name": "sum",
              "type": "uint256"
            }
          ],
          "internalType": "struct NumbersList.Values",
          "name": "interestRate",
          "type": "tuple"
        },
        {
          "components": [
            {
              "internalType": "uint256",
              "name": "count",
              "type": "uint256"
            },
            {
              "internalType": "uint256",
              "name": "max",
              "type": "uint256"
            },
            {
              "internalType": "uint256",
              "name": "min",
              "type": "uint256"
            },
            {
              "internalType": "uint256",
              "name": "sum",
              "type": "uint256"
            }
          ],
          "internalType": "struct NumbersList.Values",
          "name": "collateralRatio",
          "type": "tuple"
        },
        {
          "components": [
            {
              "internalType": "uint256",
              "name": "count",
              "type": "uint256"
            },
            {
              "internalType": "uint256",
              "name": "max",
              "type": "uint256"
            },
            {
              "internalType": "uint256",
              "name": "min",
              "type": "uint256"
            },
            {
              "internalType": "uint256",
              "name": "sum",
              "type": "uint256"
            }
          ],
          "internalType": "struct NumbersList.Values",
          "name": "maxLoanAmount",
          "type": "tuple"
        }
      ],
      "payable": false,
      "stateMutability": "view",
      "type": "function"
    },
    {
      "constant": false,
      "inputs": [
        {
          "internalType": "address",
          "name": "newOwner",
          "type": "address"
        }
      ],
      "name": "transferOwnership",
      "outputs": [],
      "payable": false,
      "stateMutability": "nonpayable",
      "type": "function"
    },
    {
      "constant": false,
      "inputs": [
        {
          "internalType": "address",
          "name": "borrower",
          "type": "address"
        },
        {
          "internalType": "uint256",
          "name": "requestNonce",
          "type": "uint256"
        },
        {
          "internalType": "uint256",
          "name": "totalSubmissions",
          "type": "uint256"
        },
        {
          "internalType": "uint256",
          "name": "maxValue",
          "type": "uint256"
        },
        {
          "internalType": "uint256",
          "name": "minValue",
          "type": "uint256"
        },
        {
          "internalType": "uint256",
          "name": "sumOfValues",
          "type": "uint256"
        }
      ],
      "name": "mockInterestRateSubmissions",
      "outputs": [],
      "payable": false,
      "stateMutability": "nonpayable",
      "type": "function"
    },
    {
      "constant": false,
      "inputs": [
        {
          "internalType": "address",
          "name": "borrower",
          "type": "address"
        },
        {
          "internalType": "uint256",
          "name": "requestNonce",
          "type": "uint256"
        },
        {
          "internalType": "uint256",
          "name": "totalSubmissions",
          "type": "uint256"
        },
        {
          "internalType": "uint256",
          "name": "maxValue",
          "type": "uint256"
        },
        {
          "internalType": "uint256",
          "name": "minValue",
          "type": "uint256"
        },
        {
          "internalType": "uint256",
          "name": "sumOfValues",
          "type": "uint256"
        }
      ],
      "name": "mockCollateralRatioSubmissions",
      "outputs": [],
      "payable": false,
      "stateMutability": "nonpayable",
      "type": "function"
    },
    {
      "constant": false,
      "inputs": [
        {
          "internalType": "address",
          "name": "borrower",
          "type": "address"
        },
        {
          "internalType": "uint256",
          "name": "requestNonce",
          "type": "uint256"
        },
        {
          "internalType": "uint256",
          "name": "totalSubmissions",
          "type": "uint256"
        },
        {
          "internalType": "uint256",
          "name": "maxValue",
          "type": "uint256"
        },
        {
          "internalType": "uint256",
          "name": "minValue",
          "type": "uint256"
        },
        {
          "internalType": "uint256",
          "name": "sumOfValues",
          "type": "uint256"
        }
      ],
      "name": "mockMaxAmountSubmissions",
      "outputs": [],
      "payable": false,
      "stateMutability": "nonpayable",
      "type": "function"
    },
    {
      "constant": false,
      "inputs": [
        {
          "internalType": "address",
          "name": "signer",
          "type": "address"
        },
        {
          "internalType": "address",
          "name": "lender",
          "type": "address"
        },
        {
          "internalType": "uint256",
          "name": "blockNumber",
          "type": "uint256"
        },
        {
          "internalType": "bool",
          "name": "hasSub",
          "type": "bool"
        }
      ],
      "name": "mockHasSubmitted",
      "outputs": [],
      "payable": false,
      "stateMutability": "nonpayable",
      "type": "function"
    },
    {
      "constant": false,
      "inputs": [
        {
          "internalType": "address",
          "name": "signer",
          "type": "address"
        },
        {
          "internalType": "uint256",
          "name": "signerNonce",
          "type": "uint256"
        },
        {
          "internalType": "bool",
          "name": "taken",
          "type": "bool"
        }
      ],
      "name": "mockSignerNonce",
      "outputs": [],
      "payable": false,
      "stateMutability": "nonpayable",
      "type": "function"
    },
    {
      "constant": false,
      "inputs": [
        {
          "internalType": "address",
          "name": "borrower",
          "type": "address"
        },
        {
          "internalType": "uint256",
          "name": "lastTime",
          "type": "uint256"
        }
      ],
      "name": "mockBorrowerToLastLoanTermRequest",
      "outputs": [],
      "payable": false,
      "stateMutability": "nonpayable",
      "type": "function"
    },
    {
      "constant": false,
      "inputs": [
        {
          "internalType": "address",
          "name": "borrower",
          "type": "address"
        },
        {
          "internalType": "uint256",
          "name": "borrowerNonce",
          "type": "uint256"
        },
        {
          "internalType": "bool",
          "name": "taken",
          "type": "bool"
        }
      ],
      "name": "mockRequestNonce",
      "outputs": [],
      "payable": false,
      "stateMutability": "nonpayable",
      "type": "function"
    },
    {
      "constant": false,
      "inputs": [
        {
          "internalType": "uint256",
          "name": "newChainId",
          "type": "uint256"
        }
      ],
      "name": "mockChainId",
      "outputs": [],
      "payable": false,
      "stateMutability": "nonpayable",
      "type": "function"
    },
    {
      "constant": false,
      "inputs": [
        {
          "components": [
            {
              "internalType": "address payable",
              "name": "borrower",
              "type": "address"
            },
            {
              "internalType": "address",
              "name": "recipient",
              "type": "address"
            },
            {
              "internalType": "address",
              "name": "consensusAddress",
              "type": "address"
            },
            {
              "internalType": "uint256",
              "name": "requestNonce",
              "type": "uint256"
            },
            {
              "internalType": "uint256",
              "name": "amount",
              "type": "uint256"
            },
            {
              "internalType": "uint256",
              "name": "duration",
              "type": "uint256"
            },
            {
              "internalType": "uint256",
              "name": "requestTime",
              "type": "uint256"
            }
          ],
          "internalType": "struct TellerCommon.LoanRequest",
          "name": "request",
          "type": "tuple"
        },
        {
          "components": [
            {
              "internalType": "address",
              "name": "signer",
              "type": "address"
            },
            {
              "internalType": "address",
              "name": "consensusAddress",
              "type": "address"
            },
            {
              "internalType": "uint256",
              "name": "responseTime",
              "type": "uint256"
            },
            {
              "internalType": "uint256",
              "name": "interestRate",
              "type": "uint256"
            },
            {
              "internalType": "uint256",
              "name": "collateralRatio",
              "type": "uint256"
            },
            {
              "internalType": "uint256",
              "name": "maxLoanAmount",
              "type": "uint256"
            },
            {
              "components": [
                {
                  "internalType": "uint256",
                  "name": "signerNonce",
                  "type": "uint256"
                },
                {
                  "internalType": "uint8",
                  "name": "v",
                  "type": "uint8"
                },
                {
                  "internalType": "bytes32",
                  "name": "r",
                  "type": "bytes32"
                },
                {
                  "internalType": "bytes32",
                  "name": "s",
                  "type": "bytes32"
                }
              ],
              "internalType": "struct TellerCommon.Signature",
              "name": "signature",
              "type": "tuple"
            }
          ],
          "internalType": "struct TellerCommon.LoanResponse",
          "name": "response",
          "type": "tuple"
        },
        {
          "internalType": "bytes32",
          "name": "requestHash",
          "type": "bytes32"
        }
      ],
      "name": "externalProcessResponse",
      "outputs": [],
      "payable": false,
      "stateMutability": "nonpayable",
      "type": "function"
    },
    {
      "constant": true,
      "inputs": [
        {
          "components": [
            {
              "internalType": "address",
              "name": "signer",
              "type": "address"
            },
            {
              "internalType": "address",
              "name": "consensusAddress",
              "type": "address"
            },
            {
              "internalType": "uint256",
              "name": "responseTime",
              "type": "uint256"
            },
            {
              "internalType": "uint256",
              "name": "interestRate",
              "type": "uint256"
            },
            {
              "internalType": "uint256",
              "name": "collateralRatio",
              "type": "uint256"
            },
            {
              "internalType": "uint256",
              "name": "maxLoanAmount",
              "type": "uint256"
            },
            {
              "components": [
                {
                  "internalType": "uint256",
                  "name": "signerNonce",
                  "type": "uint256"
                },
                {
                  "internalType": "uint8",
                  "name": "v",
                  "type": "uint8"
                },
                {
                  "internalType": "bytes32",
                  "name": "r",
                  "type": "bytes32"
                },
                {
                  "internalType": "bytes32",
                  "name": "s",
                  "type": "bytes32"
                }
              ],
              "internalType": "struct TellerCommon.Signature",
              "name": "signature",
              "type": "tuple"
            }
          ],
          "internalType": "struct TellerCommon.LoanResponse",
          "name": "response",
          "type": "tuple"
        },
        {
          "internalType": "bytes32",
          "name": "requestHash",
          "type": "bytes32"
        }
      ],
      "name": "externalHashResponse",
      "outputs": [
        {
          "internalType": "bytes32",
          "name": "",
          "type": "bytes32"
        }
      ],
      "payable": false,
      "stateMutability": "view",
      "type": "function"
    },
    {
      "constant": true,
      "inputs": [
        {
          "components": [
            {
              "internalType": "address payable",
              "name": "borrower",
              "type": "address"
            },
            {
              "internalType": "address",
              "name": "recipient",
              "type": "address"
            },
            {
              "internalType": "address",
              "name": "consensusAddress",
              "type": "address"
            },
            {
              "internalType": "uint256",
              "name": "requestNonce",
              "type": "uint256"
            },
            {
              "internalType": "uint256",
              "name": "amount",
              "type": "uint256"
            },
            {
              "internalType": "uint256",
              "name": "duration",
              "type": "uint256"
            },
            {
              "internalType": "uint256",
              "name": "requestTime",
              "type": "uint256"
            }
          ],
          "internalType": "struct TellerCommon.LoanRequest",
          "name": "request",
          "type": "tuple"
        }
      ],
      "name": "externalHashRequest",
      "outputs": [
        {
          "internalType": "bytes32",
          "name": "",
          "type": "bytes32"
        }
      ],
      "payable": false,
      "stateMutability": "view",
      "type": "function"
    },
    {
      "constant": true,
      "inputs": [
        {
          "components": [
            {
              "internalType": "address payable",
              "name": "borrower",
              "type": "address"
            },
            {
              "internalType": "address",
              "name": "recipient",
              "type": "address"
            },
            {
              "internalType": "address",
              "name": "consensusAddress",
              "type": "address"
            },
            {
              "internalType": "uint256",
              "name": "requestNonce",
              "type": "uint256"
            },
            {
              "internalType": "uint256",
              "name": "amount",
              "type": "uint256"
            },
            {
              "internalType": "uint256",
              "name": "duration",
              "type": "uint256"
            },
            {
              "internalType": "uint256",
              "name": "requestTime",
              "type": "uint256"
            }
          ],
          "internalType": "struct TellerCommon.LoanRequest",
          "name": "request",
          "type": "tuple"
        }
      ],
      "name": "externalRequireRequestLoanTermsRateLimit",
      "outputs": [
        {
          "internalType": "bool",
          "name": "",
          "type": "bool"
        }
      ],
      "payable": false,
      "stateMutability": "view",
      "type": "function"
    }
  ],
  "bytecode": "0x6080604052600160a1556132a6806100186000396000f3fe608060405234801561001057600080fd5b50600436106101fa5760003560e01c80638f32d59b1161011a578063d86d744e116100ad578063eb12d61e1161007c578063eb12d61e14610423578063f2fde38b14610436578063f76a5ab314610449578063faa8aab11461045c578063fb98d9e214610464576101fa565b8063d86d744e146103e0578063db43f259146103f5578063e06174e414610408578063e8906a2d14610410576101fa565b8063a9e5c5c9116100e9578063a9e5c5c914610394578063c0c53b8b146103a7578063c4d66de8146103ba578063cdca1059146103cd576101fa565b80638f32d59b1461035357806391d0e88e1461035b57806399ffe0651461036e5780639f24a12d14610381576101fa565b80632aac635e116101925780637df73e27116101615780637df73e27146103105780637ec3f83c146103235780638129fc1c146103365780638da5cb5b1461033e576101fa565b80632aac635e146102c057806368fcdeb8146102e2578063690ada67146102f5578063715018a614610308576101fa565b80630e316ab7116101ce5780630e316ab714610272578063158ef93e146102855780631d37e8821461029a57806325bb7ff9146102ad576101fa565b80627ab3ba146101ff5780630303016214610214578063064e5d491461023d578063096fe0a91461025f575b600080fd5b61021261020d36600461230e565b610477565b005b61022761022236600461242b565b6104ac565b6040516102349190612d2c565b60405180910390f35b61025061024b366004612449565b6104cb565b60405161023493929190612f21565b61021261026d3660046124a0565b6108e9565b6102126102803660046121c5565b610915565b61028d610945565b6040516102349190612d1e565b6102126102a8366004612273565b610964565b6102126102bb366004612351565b6109a8565b6102d36102ce3660046122d4565b610a0a565b60405161023493929190612ef7565b61028d6102f03660046122d4565b610ab3565b6102126103033660046122d4565b610ad3565b610212610aef565b61028d61031e3660046121c5565b610b5d565b61028d61033136600461242b565b610b70565b610212610b8c565b610346610c13565b6040516102349190612c13565b61028d610c22565b610227610369366004612503565b610c48565b61028d61037c366004612230565b610c69565b61022761038f3660046121c5565b610c8f565b6102126103a2366004612351565b610ca1565b6102126103b53660046121e3565b610d03565b6102126103c83660046121c5565b610dd1565b6102126103db366004612351565b610ea4565b6103e8610f03565b6040516102349190612d78565b61021261040336600461230e565b610f12565b6103e8610f47565b61021261041e3660046123d8565b610f69565b6102126104313660046121c5565b610ff1565b6102126104443660046121c5565b61101e565b610212610457366004612554565b61104b565b610346611050565b61028d6104723660046122d4565b61105f565b6001600160a01b03929092166000908152609e6020908152604080832093835292905220805460ff1916911515919091179055565b60006104c56104c0368490038401846124e5565b61107f565b92915050565b60008060006104d8610945565b6104fd5760405162461bcd60e51b81526004016104f490612ed7565b60405180910390fd5b33610507816110f2565b6105235760405162461bcd60e51b81526004016104f490612ec7565b61052b610f47565b6001600160a01b031663269012a0609d60009054906101000a90046001600160a01b03166001600160a01b0316633ff591d96040518163ffffffff1660e01b815260040160206040518083038186803b15801561058757600080fd5b505afa15801561059b573d6000803e3d6000fd5b505050506040513d601f19601f820116820180604052506105bf919081019061240d565b6040518263ffffffff1660e01b81526004016105db9190612d2c565b60206040518083038186803b1580156105f357600080fd5b505afa158015610607573d6000803e3d6000fd5b505050506040513d601f19601f8201168201806040525061062b919081019061240d565b85101561064a5760405162461bcd60e51b81526004016104f490612ea7565b61066161065c368990038901896124e5565b6110f8565b609e600061067260208a018a6121c5565b6001600160a01b031681526020808201929092526040908101600090812060608b0135825290925290205460ff16156106bd5760405162461bcd60e51b81526004016104f490612db7565b6001609e60006106d060208b018b6121c5565b6001600160a01b031681526020808201929092526040908101600090812060608c013582529092528120805460ff19169215159290921790915561071c6104c0368a90038a018a6124e5565b905060005b8681101561076c5761076461073b368b90038b018b6124e5565b89898481811061074757fe5b9050610140020180360361075e9190810190612535565b84611272565b600101610721565b506107b0609f600061078160208c018c6121c5565b6001600160a01b031681526020808201929092526040908101600090812060608d0135825290925290206113cf565b9450610803609f60006107c660208c018c6121c5565b6001600160a01b03166001600160a01b0316815260200190815260200160002060008a6060013581526020019081526020016000206004016113cf565b9350610856609f600061081960208c018c6121c5565b6001600160a01b03166001600160a01b0316815260200190815260200160002060008a6060013581526020019081526020016000206008016113cf565b92504260a0600061086a60208c018c6121c5565b6001600160a01b031681526020808201929092526040016000209190915560608901359061089a908a018a6121c5565b6001600160a01b03167f658dfc9759b55173ea96c7bd8d4ad2c3e3804d28d83d2e1a25569a2fecb672088787876040516108d693929190612f21565b60405180910390a3505093509350939050565b6109106108fb368590038501856124e5565b61090a36859003850185612535565b83611272565b505050565b61091d610c22565b6109395760405162461bcd60e51b81526004016104f490612e67565b6109428161150e565b50565b60008060405161095490612bdd565b6040519081900390205492915050565b6001600160a01b039384166000908152609a602090815260408083209590961682529384528481209281529190925291909120805460ff1916911515919091179055565b604080516080810182529485526020808601948552858201938452606086019283526001600160a01b039097166000908152609f88528181209681529590965294909320915160088301555160098201559051600a8201559051600b90910155565b609f60209081526000928352604080842082529183529181902081516080808201845282548252600183015482860152600283015482850152600383015460608084019190915284518083018652600485015481526005850154818801526006850154818701526007850154818301528551928301865260088501548352600985015496830196909652600a84015494820194909452600b909201549282019290925290919083565b609b60209081526000928352604080842090915290825290205460ff1681565b6001600160a01b03909116600090815260a06020526040902055565b610af7610c22565b610b135760405162461bcd60e51b81526004016104f490612e67565b6066546040516000916001600160a01b0316907f8be0079c531659141344cd1fd0a4f28419497f9722a3daafe3b4186f6b6457e0908390a3606680546001600160a01b0319169055565b60006104c560998363ffffffff61155616565b6000610b8461065c368490038401846124e5565b506001919050565b600054610100900460ff1680610ba55750610ba561159e565b80610bb3575060005460ff16155b610bcf5760405162461bcd60e51b81526004016104f490612e87565b600054610100900460ff16158015610bfa576000805460ff1961ff0019909116610100171660011790555b60016033558015610942576000805461ff001916905550565b6066546001600160a01b031690565b6066546000906001600160a01b0316610c396115a4565b6001600160a01b031614905090565b6000610c62610c5c36859003850185612535565b836115a8565b9392505050565b609a60209081526000938452604080852082529284528284209052825290205460ff1681565b60a06020526000908152604090205481565b604080516080810182529485526020808601948552858201938452606086019283526001600160a01b039097166000908152609f8852818120968152959096529490932091516004830155516005820155905160068201559051600790910155565b610d0b610945565b15610d285760405162461bcd60e51b81526004016104f490612ee7565b610d3a826001600160a01b031661160a565b610d565760405162461bcd60e51b81526004016104f490612e17565b610d5f83610dd1565b610d6881611646565b609c80546001600160a01b0319166001600160a01b038416179055604051610d8f90611ed8565b604051809103906000f080158015610dab573d6000803e3d6000fd5b50609d80546001600160a01b0319166001600160a01b0392909216919091179055505050565b600054610100900460ff1680610dea5750610dea61159e565b80610df8575060005460ff16155b610e145760405162461bcd60e51b81526004016104f490612e87565b600054610100900460ff16158015610e3f576000805460ff1961ff0019909116610100171660011790555b606680546001600160a01b0319166001600160a01b0384811691909117918290556040519116906000907f8be0079c531659141344cd1fd0a4f28419497f9722a3daafe3b4186f6b6457e0908290a38015610ea0576000805461ff00191690555b5050565b604080516080810182529485526020808601948552858201938452606086019283526001600160a01b039097166000908152609f8852818120968152959096529490932091518255516001820155905160028201559051600390910155565b609d546001600160a01b031681565b6001600160a01b03929092166000908152609b6020908152604080832093835292905220805460ff1916911515919091179055565b6000806000604051610f5890612c08565b604051908190039020549250505090565b610f71610c22565b610f8d5760405162461bcd60e51b81526004016104f490612e67565b6000815111610fae5760405162461bcd60e51b81526004016104f490612da7565b60005b8151811015610ea0576000828281518110610fc857fe5b60200260200101519050610fdb81610b5d565b610fe857610fe8816116f8565b50600101610fb1565b610ff9610c22565b6110155760405162461bcd60e51b81526004016104f490612e67565b610942816116f8565b611026610c22565b6110425760405162461bcd60e51b81526004016104f490612e67565b61094281611740565b60a155565b609c546001600160a01b031681565b609e60209081526000928352604080842090915290825290205460ff1681565b609c548151602083015160408401516060850151608086015160a087015160c08801516000976001600160a01b0316969594939291906110bd6117c2565b6040516020016110d599989796959493929190612c21565b604051602081830303815290604052805190602001209050919050565b50600190565b80516001600160a01b0316600090815260a0602052604090205461111b57610942565b6000611125610f47565b6001600160a01b031663269012a0609d60009054906101000a90046001600160a01b03166001600160a01b0316633b98dfdb6040518163ffffffff1660e01b815260040160206040518083038186803b15801561118157600080fd5b505afa158015611195573d6000803e3d6000fd5b505050506040513d601f19601f820116820180604052506111b9919081019061240d565b6040518263ffffffff1660e01b81526004016111d59190612d2c565b60206040518083038186803b1580156111ed57600080fd5b505afa158015611201573d6000803e3d6000fd5b505050506040513d601f19601f82011682018060405250611225919081019061240d565b82516001600160a01b0316600090815260a060205260409020549091504290611254908363ffffffff6117c816565b1115610ea05760405162461bcd60e51b81526004016104f490612e37565b600061127e83836115a8565b835185516060870151604087015160c088015194955061129f9486906117ed565b60608084015185516001600160a01b03166000908152609f60209081526040808320948901518352939052919091206112dd9163ffffffff611a0916565b608083015184516001600160a01b03166000908152609f6020908152604080832060608901518452909152902061131f9160049091019063ffffffff611a0916565b60a083015184516001600160a01b03166000908152609f602090815260408083206060890151845290915290206113619160089091019063ffffffff611a0916565b836060015184600001516001600160a01b031684600001516001600160a01b03167f75ec6e4b3d626c9ecaff859275e3ee99bd0d25d81a798938dcc15b49baffc24d866060015187608001518860a001516040516113c193929190612f21565b60405180910390a450505050565b60006114e96113dc610f47565b6001600160a01b031663269012a0609d60009054906101000a90046001600160a01b03166001600160a01b031663c41dd8ce6040518163ffffffff1660e01b815260040160206040518083038186803b15801561143857600080fd5b505afa15801561144c573d6000803e3d6000fd5b505050506040513d601f19601f82011682018060405250611470919081019061240d565b6040518263ffffffff1660e01b815260040161148c9190612d2c565b60206040518083038186803b1580156114a457600080fd5b505afa1580156114b8573d6000803e3d6000fd5b505050506040513d601f19601f820116820180604052506114dc919081019061240d565b839063ffffffff611a6e16565b6115055760405162461bcd60e51b81526004016104f490612de7565b6104c582611b1f565b61151f60998263ffffffff611b5816565b6040516001600160a01b038216907f3525e22824a8a7df2c9a6029941c824cf95b6447f1e13d5128fd3826d35afe8b90600090a250565b60006001600160a01b03821661157e5760405162461bcd60e51b81526004016104f490612e77565b506001600160a01b03166000908152602091909152604090205460ff1690565b303b1590565b3390565b600082602001518360400151846060015185608001518660a001518760c00151600001516115d46117c2565b886040516020016115ec989796959493929190612ca7565b60405160208183030381529060405280519060200120905092915050565b6000813f7fc5d2460186f7233c927e7db2dcc703c0e500b653ca82273b7bfad8045d85a47081811480159061163e57508115155b949350505050565b61164e610945565b1561166b5760405162461bcd60e51b81526004016104f490612ee7565b60408051808201909152601981527f53455454494e47535f4d5553545f42455f50524f56494445440000000000000060208201526116b9906001600160a01b0383169063ffffffff611ba016565b6116cb816001600160a01b031661160a565b6116e75760405162461bcd60e51b81526004016104f490612e07565b6116ef611bc8565b61094281611be6565b61170960998263ffffffff611c4f16565b6040516001600160a01b038216907f47d1c22a25bb3a5d4e481b9b1e6944c2eade3181a0a20b495ed61d35b5323f2490600090a250565b6001600160a01b0381166117665760405162461bcd60e51b81526004016104f490612dd7565b6066546040516001600160a01b038084169216907f8be0079c531659141344cd1fd0a4f28419497f9722a3daafe3b4186f6b6457e090600090a3606680546001600160a01b0319166001600160a01b0392909216919091179055565b60a15490565b600082820183811015610c625760405162461bcd60e51b81526004016104f490612df7565b6001600160a01b038087166000908152609a6020908152604080832093891683529281528282208783529052205460ff161561183b5760405162461bcd60e51b81526004016104f490612dc7565b6001600160a01b038087166000908152609a602090815260408083209389168352928152828220878352905220805460ff1916600117905561198b61187e610f47565b6001600160a01b031663269012a0609d60009054906101000a90046001600160a01b03166001600160a01b031663e3f33d006040518163ffffffff1660e01b815260040160206040518083038186803b1580156118da57600080fd5b505afa1580156118ee573d6000803e3d6000fd5b505050506040513d601f19601f82011682018060405250611912919081019061240d565b6040518263ffffffff1660e01b815260040161192e9190612d2c565b60206040518083038186803b15801561194657600080fd5b505afa15801561195a573d6000803e3d6000fd5b505050506040513d601f19601f8201168201806040525061197e919081019061240d565b429063ffffffff611c9b16565b8310156119aa5760405162461bcd60e51b81526004016104f490612e97565b6119b5818388611cdd565b6119d15760405162461bcd60e51b81526004016104f490612eb7565b6001600160a01b039095166000908152609b602090815260408083209751835296905294909420805460ff1916600117905550505050565b8082600101541015611a1d57600182018190555b8082600201541180611a2e57508154155b15611a3b57600282018190555b6003820154611a50908263ffffffff6117c816565b60038301558154611a6890600163ffffffff6117c816565b90915550565b6000611a7983611dd5565b15611a86575060006104c5565b6000611a9184611b1f565b90506000611ab7612710611aab848763ffffffff611de716565b9063ffffffff611e2116565b90506000611acb838363ffffffff611c9b16565b90508086600201541015611ae557600093505050506104c5565b6000611af7848463ffffffff6117c816565b90508087600101541115611b125760009450505050506104c5565b5060019695505050505050565b6000611b2a82611dd5565b611b5057611b4b611b3a83611e63565b60038401549063ffffffff611e2116565b6104c5565b506000919050565b611b628282611556565b611b7e5760405162461bcd60e51b81526004016104f490612e47565b6001600160a01b0316600090815260209190915260409020805460ff19169055565b611ba982611e67565b81906109105760405162461bcd60e51b81526004016104f49190612d86565b6000604051611bd690612bdd565b6040519081900390206001905550565b6000611bf0610f47565b6001600160a01b031614611c3157611c10816001600160a01b031661160a565b611c2c5760405162461bcd60e51b81526004016104f490612e07565b610942565b6000604051611c3f90612c08565b6040519081900390208290555050565b611c598282611556565b15611c765760405162461bcd60e51b81526004016104f490612d97565b6001600160a01b0316600090815260209190915260409020805460ff19166001179055565b6000610c6283836040518060400160405280601e81526020017f536166654d6174683a207375627472616374696f6e206f766572666c6f770000815250611e75565b6000611ce882610b5d565b611cf457506000610c62565b6001600160a01b0382166000908152609b602090815260408083208751845290915290205460ff1615611d395760405162461bcd60e51b81526004016104f490612e27565b6000600184604051602001611d4e9190612be8565b6040516020818303038152906040528051906020012086602001518760400151886060015160405160008152602001604052604051611d909493929190612d3a565b6020604051602081039080840390855afa158015611db2573d6000803e3d6000fd5b5050604051601f1901516001600160a01b03858116911614925050509392505050565b6000611de082611e63565b1592915050565b600082611df6575060006104c5565b82820282848281611e0357fe5b0414610c625760405162461bcd60e51b81526004016104f490612e57565b6000610c6283836040518060400160405280601a81526020017f536166654d6174683a206469766973696f6e206279207a65726f000000000000815250611ea1565b5490565b6001600160a01b0316151590565b60008184841115611e995760405162461bcd60e51b81526004016104f49190612d86565b505050900390565b60008183611ec25760405162461bcd60e51b81526004016104f49190612d86565b506000838581611ece57fe5b0495945050505050565b61022b8061303983390190565b80356104c581613009565b600082601f830112611f0157600080fd5b8135611f14611f0f82612f70565b612f49565b91508181835260208401935060208101905083856020840282011115611f3957600080fd5b60005b83811015611f655781611f4f8882611ee5565b8452506020928301929190910190600101611f3c565b5050505092915050565b60008083601f840112611f8157600080fd5b50813567ffffffffffffffff811115611f9957600080fd5b60208301915083610140820283011115611fb257600080fd5b9250929050565b80356104c58161301d565b80356104c581613026565b80516104c581613026565b600060e08284031215611fec57600080fd5b50919050565b600060e0828403121561200457600080fd5b61200e60e0612f49565b9050600061201c8484611ee5565b825250602061202d84848301611ee5565b602083015250604061204184828501611ee5565b604083015250606061205584828501611fc4565b606083015250608061206984828501611fc4565b60808301525060a061207d84828501611fc4565b60a08301525060c061209184828501611fc4565b60c08301525092915050565b60006101408284031215611fec57600080fd5b600061014082840312156120c357600080fd5b6120cd60e0612f49565b905060006120db8484611ee5565b82525060206120ec84848301611ee5565b602083015250604061210084828501611fc4565b604083015250606061211484828501611fc4565b606083015250608061212884828501611fc4565b60808301525060a061213c84828501611fc4565b60a08301525060c06120918482850160006080828403121561215d57600080fd5b6121676080612f49565b905060006121758484611fc4565b8252506020612186848483016121ba565b602083015250604061219a84828501611fc4565b60408301525060606121ae84828501611fc4565b60608301525092915050565b80356104c58161302f565b6000602082840312156121d757600080fd5b600061163e8484611ee5565b6000806000606084860312156121f857600080fd5b60006122048686611ee5565b935050602061221586828701611ee5565b925050604061222686828701611ee5565b9150509250925092565b60008060006060848603121561224557600080fd5b60006122518686611ee5565b935050602061226286828701611ee5565b925050604061222686828701611fc4565b6000806000806080858703121561228957600080fd5b60006122958787611ee5565b94505060206122a687828801611ee5565b93505060406122b787828801611fc4565b92505060606122c887828801611fb9565b91505092959194509250565b600080604083850312156122e757600080fd5b60006122f38585611ee5565b925050602061230485828601611fc4565b9150509250929050565b60008060006060848603121561232357600080fd5b600061232f8686611ee5565b935050602061234086828701611fc4565b925050604061222686828701611fb9565b60008060008060008060c0878903121561236a57600080fd5b60006123768989611ee5565b965050602061238789828a01611fc4565b955050604061239889828a01611fc4565b94505060606123a989828a01611fc4565b93505060806123ba89828a01611fc4565b92505060a06123cb89828a01611fc4565b9150509295509295509295565b6000602082840312156123ea57600080fd5b813567ffffffffffffffff81111561240157600080fd5b61163e84828501611ef0565b60006020828403121561241f57600080fd5b600061163e8484611fcf565b600060e0828403121561243d57600080fd5b600061163e8484611fda565b6000806000610100848603121561245f57600080fd5b600061246b8686611fda565b93505060e084013567ffffffffffffffff81111561248857600080fd5b61249486828701611f6f565b92509250509250925092565b600080600061024084860312156124b657600080fd5b60006124c28686611fda565b93505060e06124d38682870161209d565b92505061022061222686828701611fc4565b600060e082840312156124f757600080fd5b600061163e8484611ff2565b600080610160838503121561251757600080fd5b6000612523858561209d565b92505061014061230485828601611fc4565b6000610140828403121561254857600080fd5b600061163e84846120b0565b60006020828403121561256657600080fd5b600061163e8484611fc4565b61257b81612fa3565b82525050565b61257b81612fae565b61257b81612fb3565b61257b61259f82612fb3565b612fb3565b61257b81612fc8565b60006125b882612f91565b6125c28185612f95565b93506125d2818560208601612fd3565b6125db81612fff565b9093019392505050565b60006125f2601c83612f9e565b7f54496e697469616c697a61626c652e6973496e697469616c697a6564000000008152601c0192915050565b600061262b601f83612f95565b7f526f6c65733a206163636f756e7420616c72656164792068617320726f6c6500815260200192915050565b6000612664601383612f95565b724143434f554e54535f4c4953545f454d50545960681b815260200192915050565b6000612693601c83612f9e565b7f19457468657265756d205369676e6564204d6573736167653a0a3332000000008152601c0192915050565b60006126cc601e83612f95565b7f4c4f414e5f5445524d535f524551554553545f4e4f4e43455f54414b454e0000815260200192915050565b6000612705601883612f95565b7f5349474e45525f414c52454144595f5355424d49545445440000000000000000815260200192915050565b600061273e602683612f95565b7f4f776e61626c653a206e6577206f776e657220697320746865207a65726f206181526564647265737360d01b602082015260400192915050565b6000612786601483612f95565b73149154d413d394d154d7d513d3d7d5905492515160621b815260200192915050565b60006127b6601b83612f95565b7f536166654d6174683a206164646974696f6e206f766572666c6f770000000000815260200192915050565b60006127ef601b83612f95565b7f53455454494e47535f4d5553545f42455f415f434f4e54524143540000000000815260200192915050565b6000612828601783612f95565b7f43414c4c45525f4d5553545f42455f434f4e5452414354000000000000000000815260200192915050565b6000612861601283612f95565b7129a4a3a722a92fa727a721a2afaa20a5a2a760711b815260200192915050565b600061288f601f83612f95565b7f524551535f4c4f414e5f5445524d535f4c4d545f455843454544535f4d415800815260200192915050565b60006128c8602183612f95565b7f526f6c65733a206163636f756e7420646f6573206e6f74206861766520726f6c8152606560f81b602082015260400192915050565b600061290b602183612f95565b7f536166654d6174683a206d756c7469706c69636174696f6e206f766572666c6f8152607760f81b602082015260400192915050565b600061294e602083612f95565b7f4f776e61626c653a2063616c6c6572206973206e6f7420746865206f776e6572815260200192915050565b6000612987602283612f95565b7f526f6c65733a206163636f756e7420697320746865207a65726f206164647265815261737360f01b602082015260400192915050565b60006129cb602e83612f95565b7f436f6e747261637420696e7374616e63652068617320616c726561647920626581526d195b881a5b9a5d1a585b1a5e995960921b602082015260400192915050565b6000612a1b601083612f95565b6f149154d413d394d157d156141254915160821b815260200192915050565b6000612a47601f83612f95565b7f4c4f414e5445524d5f494e53554646494349454e545f524553504f4e53455300815260200192915050565b6000612a80601183612f95565b7014d251d3905515549157d2539590531251607a1b815260200192915050565b6000612aad601883612f95565b7f53454e4445525f4841534e545f5045524d495353494f4e530000000000000000815260200192915050565b6000612ae6601883612f9e565b7f426173655570677261646561626c652e73657474696e67730000000000000000815260180192915050565b6000612b1f601883612f95565b7f434f4e54524143545f4e4f545f494e495449414c495a45440000000000000000815260200192915050565b6000612b58601c83612f95565b7f434f4e54524143545f414c52454144595f494e495449414c495a454400000000815260200192915050565b80516080830190612b95848261258a565b506020820151612ba8602085018261258a565b506040820151612bbb604085018261258a565b506060820151612bce606085018261258a565b50505050565b61257b81612fc2565b60006104c5826125e5565b6000612bf382612686565b9150612bff8284612593565b50602001919050565b60006104c582612ad9565b602081016104c58284612572565b6101208101612c30828c612572565b612c3d602083018b612572565b612c4a604083018a612572565b612c576060830189612572565b612c64608083018861258a565b612c7160a083018761258a565b612c7e60c083018661258a565b612c8b60e083018561258a565b612c9961010083018461258a565b9a9950505050505050505050565b6101008101612cb6828b612572565b612cc3602083018a61258a565b612cd0604083018961258a565b612cdd606083018861258a565b612cea608083018761258a565b612cf760a083018661258a565b612d0460c083018561258a565b612d1160e083018461258a565b9998505050505050505050565b602081016104c58284612581565b602081016104c5828461258a565b60808101612d48828761258a565b612d556020830186612bd4565b612d62604083018561258a565b612d6f606083018461258a565b95945050505050565b602081016104c582846125a4565b60208082528101610c6281846125ad565b602080825281016104c58161261e565b602080825281016104c581612657565b602080825281016104c5816126bf565b602080825281016104c5816126f8565b602080825281016104c581612731565b602080825281016104c581612779565b602080825281016104c5816127a9565b602080825281016104c5816127e2565b602080825281016104c58161281b565b602080825281016104c581612854565b602080825281016104c581612882565b602080825281016104c5816128bb565b602080825281016104c5816128fe565b602080825281016104c581612941565b602080825281016104c58161297a565b602080825281016104c5816129be565b602080825281016104c581612a0e565b602080825281016104c581612a3a565b602080825281016104c581612a73565b602080825281016104c581612aa0565b602080825281016104c581612b12565b602080825281016104c581612b4b565b6101808101612f068286612b84565b612f136080830185612b84565b61163e610100830184612b84565b60608101612f2f828661258a565b612f3c602083018561258a565b61163e604083018461258a565b60405181810167ffffffffffffffff81118282101715612f6857600080fd5b604052919050565b600067ffffffffffffffff821115612f8757600080fd5b5060209081020190565b5190565b90815260200190565b919050565b60006104c582612fb6565b151590565b90565b6001600160a01b031690565b60ff1690565b60006104c582612fa3565b60005b83811015612fee578181015183820152602001612fd6565b83811115612bce5750506000910152565b601f01601f191690565b61301281612fa3565b811461094257600080fd5b61301281612fae565b61301281612fb3565b61301281612fc256fe608060405234801561001057600080fd5b5061020b806100206000396000f3fe608060405234801561001057600080fd5b50600436106100935760003560e01c80633ff591d9116100665780633ff591d9146100ca578063c41dd8ce146100d2578063cc44cadb146100da578063e00a4615146100e2578063e3f33d00146100ea57610093565b806308b04f62146100985780631139087a146100b257806311880cc8146100ba5780633b98dfdb146100c2575b600080fd5b6100a06100f2565b60408051918252519081900360200190f35b6100a0610109565b6100a0610121565b6100a0610136565b6100a061015a565b6100a0610174565b6100a061018b565b6100a06101a5565b6100a06101bb565b6f21b7b63630ba32b930b6213ab33332b960811b81565b704c6971756964617465457468507269636560781b81565b6d14d859995d1e525b9d195c9d985b60921b81565b7f526571756573744c6f616e5465726d73526174654c696d69740000000000000081565b7252657175697265645375626d697373696f6e7360681b81565b6f4d6178696d756d546f6c6572616e636560801b81565b7226b0bc34b6bab6a637b0b7223ab930ba34b7b760691b81565b6e5465726d7345787069727954696d6560881b81565b730a4cae6e0dedce6ca8af0e0d2e4f298cadccee8d60631b8156fea265627a7a72315820b6cc93d12d39f205ac91b27ee8876405b81cd752a680e010a2828f9ed81bbbb364736f6c63430005110032a365627a7a723158205f4740159dd1df361c2fa32dd678b8d874b56cc9722176bc9679c7468b3d9bf46c6578706572696d656e74616cf564736f6c63430005110040",
  "source": "pragma solidity 0.5.17;\npragma experimental ABIEncoderV2;\n\nimport \"../../base/LoanTermsConsensus.sol\";\n\ncontract LoanTermsConsensusMock is LoanTermsConsensus {\n    uint256 private _mockChainId = 1; // Mainnet\n\n    function mockInterestRateSubmissions(\n        address borrower,\n        uint256 requestNonce,\n        uint256 totalSubmissions,\n        uint256 maxValue,\n        uint256 minValue,\n        uint256 sumOfValues\n    ) external {\n        termSubmissions[borrower][requestNonce].interestRate = NumbersList.Values({\n            count: totalSubmissions,\n            min: minValue,\n            max: maxValue,\n            sum: sumOfValues\n        });\n    }\n\n    function mockCollateralRatioSubmissions(\n        address borrower,\n        uint256 requestNonce,\n        uint256 totalSubmissions,\n        uint256 maxValue,\n        uint256 minValue,\n        uint256 sumOfValues\n    ) external {\n        termSubmissions[borrower][requestNonce].collateralRatio = NumbersList.Values({\n            count: totalSubmissions,\n            min: minValue,\n            max: maxValue,\n            sum: sumOfValues\n        });\n    }\n\n    function mockMaxAmountSubmissions(\n        address borrower,\n        uint256 requestNonce,\n        uint256 totalSubmissions,\n        uint256 maxValue,\n        uint256 minValue,\n        uint256 sumOfValues\n    ) external {\n        termSubmissions[borrower][requestNonce].maxLoanAmount = NumbersList.Values({\n            count: totalSubmissions,\n            min: minValue,\n            max: maxValue,\n            sum: sumOfValues\n        });\n    }\n\n    function mockHasSubmitted(\n        address signer,\n        address lender,\n        uint256 blockNumber,\n        bool hasSub\n    ) external {\n        hasSubmitted[signer][lender][blockNumber] = hasSub;\n    }\n\n    function mockSignerNonce(\n        address signer,\n        uint256 signerNonce,\n        bool taken\n    ) external {\n        signerNonceTaken[signer][signerNonce] = taken;\n    }\n\n    function mockBorrowerToLastLoanTermRequest(address borrower, uint256 lastTime)\n        external\n    {\n        borrowerToLastLoanTermRequest[borrower] = lastTime;\n    }\n\n    function mockRequestNonce(\n        address borrower,\n        uint256 borrowerNonce,\n        bool taken\n    ) external {\n        requestNonceTaken[borrower][borrowerNonce] = taken;\n    }\n\n    function mockChainId(uint256 newChainId) external {\n        _mockChainId = newChainId;\n    }\n\n    function externalProcessResponse(\n        TellerCommon.LoanRequest calldata request,\n        TellerCommon.LoanResponse calldata response,\n        bytes32 requestHash\n    ) external {\n        _processResponse(request, response, requestHash);\n    }\n\n    function externalHashResponse(\n        TellerCommon.LoanResponse calldata response,\n        bytes32 requestHash\n    ) external view returns (bytes32) {\n        return _hashResponse(response, requestHash);\n    }\n\n    function externalHashRequest(TellerCommon.LoanRequest calldata request)\n        external\n        view\n        returns (bytes32)\n    {\n        return _hashRequest(request);\n    }\n\n    function _getChainId() internal view returns (uint256) {\n        return _mockChainId;\n    }\n\n    function externalRequireRequestLoanTermsRateLimit(\n        TellerCommon.LoanRequest calldata request\n    ) external view returns (bool) {\n        super._requireRequestLoanTermsRateLimit(request);\n        return true;\n    }\n\n    function _isCaller(address) internal view returns (bool) {\n        return true;\n    }\n}\n",
  "sourcePath": "/Users/sy/Documents/GitHub/teller-protocol-v1/contracts/mock/base/LoanTermsConsensusMock.sol",
  "compiler": {
    "name": "solc",
    "version": "0.5.17+commit.d19bba13.Emscripten.clang"
  },
  "schemaVersion": "3.0.23",
  "updatedAt": "2020-09-06T02:15:12.481Z",
  "devdoc": {
    "methods": {
      "addSigner(address)": {
        "details": "The sender must be the owner.It throws a require error if the sender is not the owner.",
        "params": {
          "account": "address to add."
        }
      },
      "addSigners(address[])": {
        "details": "The sender must be the owner.It throws a require error if the sender is not the owner.",
        "params": {
          "accounts": "addresses to add."
        }
      },
      "initialize(address)": {
        "details": "Initializes the contract setting the deployer as the initial owner."
      },
      "initialize(address,address,address)": {
        "details": "The caller address must be the loans contract for LoanTermsConsensus, and the lenders contract for InterestConsensus.",
        "params": {
          "aCallerAddress": "the contract that will call it.",
          "aSettingAddress": "the settings contract address.",
          "owner": "the owner address."
        }
      },
      "initialized()": {
        "return": "true if contract is initialized. Otherwise it returns false."
      },
      "isOwner()": {
        "details": "Returns true if the caller is the current owner."
      },
      "isSigner(address)": {
        "params": {
          "account": "address to test."
        },
        "return": "true if account is a signer. Otherwise it returns false."
      },
      "owner()": {
        "details": "Returns the address of the current owner."
      },
      "processRequest((address,address,address,uint256,uint256,uint256,uint256),(address,address,uint256,uint256,uint256,uint256,(uint256,uint8,bytes32,bytes32))[])": {
        "params": {
          "request": "Struct of the protocol loan request",
          "responses": "List of structs of the protocol loan responses"
        },
        "return": "uint256 Interest rateuint256 Collateral ratiouint256 Maximum loan amount"
      },
      "removeSigner(address)": {
        "details": "The sender must be the owner.It throws a require error if the sender is not the owner.",
        "params": {
          "account": "address to remove."
        }
      },
      "renounceOwnership()": {
        "details": "Leaves the contract without owner. It will not be possible to call `onlyOwner` functions anymore. Can only be called by the current owner.     * > Note: Renouncing ownership will leave the contract without an owner, thereby removing any functionality that is only available to the owner."
      },
      "transferOwnership(address)": {
        "details": "Transfers ownership of the contract to a new account (`newOwner`). Can only be called by the current owner."
      }
    }
  },
  "userdoc": {
    "methods": {
      "addSigner(address)": {
        "notice": "It adds a new account as a signer."
      },
      "addSigners(address[])": {
        "notice": "It adds a list of account as signers."
      },
      "initialize(address,address,address)": {
        "notice": "It initializes this consensus contract."
      },
      "initialized()": {
        "notice": "Gets if the contract is initialized."
      },
      "isSigner(address)": {
        "notice": "Gets whether an account address is a signer or not."
      },
      "processRequest((address,address,address,uint256,uint256,uint256,uint256),(address,address,uint256,uint256,uint256,uint256,(uint256,uint8,bytes32,bytes32))[])": {
        "notice": "Processes the loan request"
      },
      "removeSigner(address)": {
        "notice": "It removes an account as signer."
      },
      "settings()": {
        "notice": "The settings contract."
      }
    }
  }
}