{
  "contractName": "LogicVersionsConsts",
  "abi": [
    {
      "constant": true,
      "inputs": [],
      "name": "ATM_FACTORY_LOGIC_NAME",
      "outputs": [
        {
          "internalType": "bytes32",
          "name": "",
          "type": "bytes32"
        }
      ],
      "payable": false,
      "stateMutability": "view",
      "type": "function"
    },
    {
      "constant": true,
      "inputs": [],
      "name": "ATM_GOVERNANCE_LOGIC_NAME",
      "outputs": [
        {
          "internalType": "bytes32",
          "name": "",
          "type": "bytes32"
        }
      ],
      "payable": false,
      "stateMutability": "view",
      "type": "function"
    },
    {
      "constant": true,
      "inputs": [],
      "name": "ATM_SETTINGS_LOGIC_NAME",
      "outputs": [
        {
          "internalType": "bytes32",
          "name": "",
          "type": "bytes32"
        }
      ],
      "payable": false,
      "stateMutability": "view",
      "type": "function"
    },
    {
      "constant": true,
      "inputs": [],
      "name": "CHAINLINK_PAIR_AGGREGATOR_LOGIC_NAME",
      "outputs": [
        {
          "internalType": "bytes32",
          "name": "",
          "type": "bytes32"
        }
      ],
      "payable": false,
      "stateMutability": "view",
      "type": "function"
    },
    {
      "constant": true,
      "inputs": [],
      "name": "CHAINLINK_PAIR_AGGREGATOR_REGISTRY_LOGIC_NAME",
      "outputs": [
        {
          "internalType": "bytes32",
          "name": "",
          "type": "bytes32"
        }
      ],
      "payable": false,
      "stateMutability": "view",
      "type": "function"
    },
    {
      "constant": true,
      "inputs": [],
      "name": "ESCROW_FACTORY_LOGIC_NAME",
      "outputs": [
        {
          "internalType": "bytes32",
          "name": "",
          "type": "bytes32"
        }
      ],
      "payable": false,
      "stateMutability": "view",
      "type": "function"
    },
    {
      "constant": true,
      "inputs": [],
      "name": "ESCROW_LOGIC_NAME",
      "outputs": [
        {
          "internalType": "bytes32",
          "name": "",
          "type": "bytes32"
        }
      ],
      "payable": false,
      "stateMutability": "view",
      "type": "function"
    },
    {
      "constant": true,
      "inputs": [],
      "name": "ETHER_COLLATERAL_LOANS_LOGIC_NAME",
      "outputs": [
        {
          "internalType": "bytes32",
          "name": "",
          "type": "bytes32"
        }
      ],
      "payable": false,
      "stateMutability": "view",
      "type": "function"
    },
    {
      "constant": true,
      "inputs": [],
      "name": "INTEREST_CONSENSUS_LOGIC_NAME",
      "outputs": [
        {
          "internalType": "bytes32",
          "name": "",
          "type": "bytes32"
        }
      ],
      "payable": false,
      "stateMutability": "view",
      "type": "function"
    },
    {
      "constant": true,
      "inputs": [],
      "name": "LENDERS_LOGIC_NAME",
      "outputs": [
        {
          "internalType": "bytes32",
          "name": "",
          "type": "bytes32"
        }
      ],
      "payable": false,
      "stateMutability": "view",
      "type": "function"
    },
    {
      "constant": true,
      "inputs": [],
      "name": "LENDING_POOL_LOGIC_NAME",
      "outputs": [
        {
          "internalType": "bytes32",
          "name": "",
          "type": "bytes32"
        }
      ],
      "payable": false,
      "stateMutability": "view",
      "type": "function"
    },
    {
      "constant": true,
      "inputs": [],
      "name": "LOAN_TERMS_CONSENSUS_LOGIC_NAME",
      "outputs": [
        {
          "internalType": "bytes32",
          "name": "",
          "type": "bytes32"
        }
      ],
      "payable": false,
      "stateMutability": "view",
      "type": "function"
    },
    {
      "constant": true,
      "inputs": [],
      "name": "LOGIC_VERSIONS_REGISTRY_LOGIC_NAME",
      "outputs": [
        {
          "internalType": "bytes32",
          "name": "",
          "type": "bytes32"
        }
      ],
      "payable": false,
      "stateMutability": "view",
      "type": "function"
    },
    {
      "constant": true,
      "inputs": [],
      "name": "MARKETS_STATE_LOGIC_NAME",
      "outputs": [
        {
          "internalType": "bytes32",
          "name": "",
          "type": "bytes32"
        }
      ],
      "payable": false,
      "stateMutability": "view",
      "type": "function"
    },
    {
      "constant": true,
      "inputs": [],
      "name": "SETTINGS_LOGIC_NAME",
      "outputs": [
        {
          "internalType": "bytes32",
          "name": "",
          "type": "bytes32"
        }
      ],
      "payable": false,
      "stateMutability": "view",
      "type": "function"
    },
    {
      "constant": true,
      "inputs": [],
      "name": "TLR_TOKEN_LOGIC_NAME",
      "outputs": [
        {
          "internalType": "bytes32",
          "name": "",
          "type": "bytes32"
        }
      ],
      "payable": false,
      "stateMutability": "view",
      "type": "function"
    },
    {
      "constant": true,
      "inputs": [],
      "name": "TOKEN_COLLATERAL_LOANS_LOGIC_NAME",
      "outputs": [
        {
          "internalType": "bytes32",
          "name": "",
          "type": "bytes32"
        }
      ],
      "payable": false,
      "stateMutability": "view",
      "type": "function"
    }
  ],
  "bytecode": "0x608060405234801561001057600080fd5b50610353806100206000396000f3fe608060405234801561001057600080fd5b506004361061010b5760003560e01c8063808002b4116100a2578063a6d1894811610071578063a6d1894814610182578063b67805071461018a578063c2c3329b14610192578063c4f8f96e1461019a578063ecac96a0146101a25761010b565b8063808002b4146101625780638b3a6a621461016a5780638b5f8a5a14610172578063a66cd6401461017a5761010b565b806343d51619116100de57806343d516191461014257806344017a261461014a57806352d009421461015257806368f6c8921461015a5761010b565b80631f690a471461011057806320657f6f1461012a57806324de570b146101325780632660dc7f1461013a575b600080fd5b6101186101aa565b60408051918252519081900360200190f35b6101186101c5565b6101186101d7565b6101186101e9565b610118610205565b610118610218565b61011861022c565b61011861023b565b610118610248565b61011861026c565b61011861027b565b61011861028f565b61011861029d565b6101186102ae565b6101186102c7565b6101186102df565b610118610303565b73546f6b656e436f6c6c61746572616c4c6f616e7360601b81565b6a41544d53657474696e677360a81b81565b6a13195b991a5b99d41bdbdb60aa1b81565b744c6f67696356657273696f6e73526567697374727960581b81565b6b4d61726b657473537461746560a01b81565b6c457363726f77466163746f727960981b81565b672a26292a37b5b2b760c11b81565b65457363726f7760d01b81565b7f436861696e6c696e6b5061697241676772656761746f7252656769737472790081565b6753657474696e677360c01b81565b6c41544d476f7665726e616e636560981b81565b664c656e6465727360c81b81565b6941544d466163746f727960b01b81565b714c6f616e5465726d73436f6e73656e73757360701b81565b70496e746572657374436f6e73656e73757360781b81565b7f436861696e6c696e6b5061697241676772656761746f7200000000000000000081565b734574686572436f6c6c61746572616c4c6f616e7360601b8156fea265627a7a72315820de6ca99cf648076c443c497a2b1a445c03f552753bd99b24b99a8115c654d9de64736f6c63430005110032",
  "source": "pragma solidity 0.5.17;\n\n// Libraries\n\n// Commons\n\n/**\n    @notice It defines the keys (constants) used in the LogicVersionsRegistry contract.\n\n    @author develop@teller.finance\n */\ncontract LogicVersionsConsts {\n    /** Constants */\n    bytes32 public constant LENDING_POOL_LOGIC_NAME = \"LendingPool\";\n    bytes32 public constant LENDERS_LOGIC_NAME = \"Lenders\";\n    bytes32 public constant TOKEN_COLLATERAL_LOANS_LOGIC_NAME = \"TokenCollateralLoans\";\n    bytes32 public constant ETHER_COLLATERAL_LOANS_LOGIC_NAME = \"EtherCollateralLoans\";\n    bytes32 public constant LOAN_TERMS_CONSENSUS_LOGIC_NAME = \"LoanTermsConsensus\";\n    bytes32 public constant INTEREST_CONSENSUS_LOGIC_NAME = \"InterestConsensus\";\n    bytes32 public constant ESCROW_FACTORY_LOGIC_NAME = \"EscrowFactory\";\n    bytes32 public constant ESCROW_LOGIC_NAME = \"Escrow\";\n    bytes32\n        public constant CHAINLINK_PAIR_AGGREGATOR_LOGIC_NAME = \"ChainlinkPairAggregator\";\n    bytes32\n        public constant CHAINLINK_PAIR_AGGREGATOR_REGISTRY_LOGIC_NAME = \"ChainlinkPairAggregatorRegistry\";\n    bytes32 public constant SETTINGS_LOGIC_NAME = \"Settings\";\n    bytes32 public constant LOGIC_VERSIONS_REGISTRY_LOGIC_NAME = \"LogicVersionsRegistry\";\n    bytes32 public constant MARKETS_STATE_LOGIC_NAME = \"MarketsState\";\n    bytes32 public constant ATM_FACTORY_LOGIC_NAME = \"ATMFactory\";\n    bytes32 public constant ATM_SETTINGS_LOGIC_NAME = \"ATMSettings\";\n    bytes32 public constant ATM_GOVERNANCE_LOGIC_NAME = \"ATMGovernance\";\n    bytes32 public constant TLR_TOKEN_LOGIC_NAME = \"TLRToken\";\n}\n",
  "sourcePath": "/Users/sy/Documents/GitHub/teller-protocol-v1/contracts/util/LogicVersionsConsts.sol",
  "compiler": {
    "name": "solc",
    "version": "0.5.17+commit.d19bba13.Emscripten.clang"
  },
  "schemaVersion": "3.0.23",
  "updatedAt": "2020-09-06T02:15:12.673Z",
  "devdoc": {
    "author": "develop@teller.finance",
    "methods": {}
  },
  "userdoc": {
    "methods": {},
    "notice": "It defines the keys (constants) used in the LogicVersionsRegistry contract."
  }
}