{
  "contractName": "OwnerSignersRole",
  "abi": [
    {
      "anonymous": false,
      "inputs": [
        {
          "indexed": true,
          "internalType": "address",
          "name": "previousOwner",
          "type": "address"
        },
        {
          "indexed": true,
          "internalType": "address",
          "name": "newOwner",
          "type": "address"
        }
      ],
      "name": "OwnershipTransferred",
      "type": "event"
    },
    {
      "anonymous": false,
      "inputs": [
        {
          "indexed": true,
          "internalType": "address",
          "name": "account",
          "type": "address"
        }
      ],
      "name": "SignerAdded",
      "type": "event"
    },
    {
      "anonymous": false,
      "inputs": [
        {
          "indexed": true,
          "internalType": "address",
          "name": "account",
          "type": "address"
        }
      ],
      "name": "SignerRemoved",
      "type": "event"
    },
    {
      "constant": false,
      "inputs": [
        {
          "internalType": "address",
          "name": "sender",
          "type": "address"
        }
      ],
      "name": "initialize",
      "outputs": [],
      "payable": false,
      "stateMutability": "nonpayable",
      "type": "function"
    },
    {
      "constant": true,
      "inputs": [],
      "name": "isOwner",
      "outputs": [
        {
          "internalType": "bool",
          "name": "",
          "type": "bool"
        }
      ],
      "payable": false,
      "stateMutability": "view",
      "type": "function"
    },
    {
      "constant": true,
      "inputs": [],
      "name": "owner",
      "outputs": [
        {
          "internalType": "address",
          "name": "",
          "type": "address"
        }
      ],
      "payable": false,
      "stateMutability": "view",
      "type": "function"
    },
    {
      "constant": false,
      "inputs": [],
      "name": "renounceOwnership",
      "outputs": [],
      "payable": false,
      "stateMutability": "nonpayable",
      "type": "function"
    },
    {
      "constant": false,
      "inputs": [
        {
          "internalType": "address",
          "name": "newOwner",
          "type": "address"
        }
      ],
      "name": "transferOwnership",
      "outputs": [],
      "payable": false,
      "stateMutability": "nonpayable",
      "type": "function"
    },
    {
      "constant": true,
      "inputs": [
        {
          "internalType": "address",
          "name": "account",
          "type": "address"
        }
      ],
      "name": "isSigner",
      "outputs": [
        {
          "internalType": "bool",
          "name": "",
          "type": "bool"
        }
      ],
      "payable": false,
      "stateMutability": "view",
      "type": "function"
    },
    {
      "constant": false,
      "inputs": [
        {
          "internalType": "address",
          "name": "account",
          "type": "address"
        }
      ],
      "name": "addSigner",
      "outputs": [],
      "payable": false,
      "stateMutability": "nonpayable",
      "type": "function"
    },
    {
      "constant": false,
      "inputs": [
        {
          "internalType": "address[]",
          "name": "accounts",
          "type": "address[]"
        }
      ],
      "name": "addSigners",
      "outputs": [],
      "payable": false,
      "stateMutability": "nonpayable",
      "type": "function"
    },
    {
      "constant": false,
      "inputs": [
        {
          "internalType": "address",
          "name": "account",
          "type": "address"
        }
      ],
      "name": "removeSigner",
      "outputs": [],
      "payable": false,
      "stateMutability": "nonpayable",
      "type": "function"
    }
  ],
  "bytecode": "0x6080604052610953806100136000396000f3fe608060405234801561001057600080fd5b50600436106100935760003560e01c80638f32d59b116100665780638f32d59b14610126578063c4d66de81461012e578063e8906a2d14610154578063eb12d61e146101f7578063f2fde38b1461021d57610093565b80630e316ab714610098578063715018a6146100c05780637df73e27146100c85780638da5cb5b14610102575b600080fd5b6100be600480360360208110156100ae57600080fd5b50356001600160a01b0316610243565b005b6100be610296565b6100ee600480360360208110156100de57600080fd5b50356001600160a01b0316610327565b604080519115158252519081900360200190f35b61010a610340565b604080516001600160a01b039092168252519081900360200190f35b6100ee61034f565b6100be6004803603602081101561014457600080fd5b50356001600160a01b0316610375565b6100be6004803603602081101561016a57600080fd5b81019060208101813564010000000081111561018557600080fd5b82018360208201111561019757600080fd5b803590602001918460208302840111640100000000831117156101b957600080fd5b919080806020026020016040519081016040528093929190818152602001838360200280828437600092019190915250929550610467945050505050565b6100be6004803603602081101561020d57600080fd5b50356001600160a01b031661053d565b6100be6004803603602081101561023357600080fd5b50356001600160a01b031661058d565b61024b61034f565b61028a576040805162461bcd60e51b815260206004820181905260248201526000805160206108af833981519152604482015290519081900360640190fd5b610293816105dd565b50565b61029e61034f565b6102dd576040805162461bcd60e51b815260206004820181905260248201526000805160206108af833981519152604482015290519081900360640190fd5b6033546040516000916001600160a01b0316907f8be0079c531659141344cd1fd0a4f28419497f9722a3daafe3b4186f6b6457e0908390a3603380546001600160a01b0319169055565b600061033a60668363ffffffff61062516565b92915050565b6033546001600160a01b031690565b6033546000906001600160a01b031661036661068c565b6001600160a01b031614905090565b600054610100900460ff168061038e575061038e610690565b8061039c575060005460ff16155b6103d75760405162461bcd60e51b815260040180806020018281038252602e8152602001806108f1602e913960400191505060405180910390fd5b600054610100900460ff16158015610402576000805460ff1961ff0019909116610100171660011790555b603380546001600160a01b0319166001600160a01b0384811691909117918290556040519116906000907f8be0079c531659141344cd1fd0a4f28419497f9722a3daafe3b4186f6b6457e0908290a38015610463576000805461ff00191690555b5050565b61046f61034f565b6104ae576040805162461bcd60e51b815260206004820181905260248201526000805160206108af833981519152604482015290519081900360640190fd5b60008151116104fa576040805162461bcd60e51b81526020600482015260136024820152724143434f554e54535f4c4953545f454d50545960681b604482015290519081900360640190fd5b60005b815181101561046357600082828151811061051457fe5b6020026020010151905061052781610327565b6105345761053481610696565b506001016104fd565b61054561034f565b610584576040805162461bcd60e51b815260206004820181905260248201526000805160206108af833981519152604482015290519081900360640190fd5b61029381610696565b61059561034f565b6105d4576040805162461bcd60e51b815260206004820181905260248201526000805160206108af833981519152604482015290519081900360640190fd5b610293816106de565b6105ee60668263ffffffff61077f16565b6040516001600160a01b038216907f3525e22824a8a7df2c9a6029941c824cf95b6447f1e13d5128fd3826d35afe8b90600090a250565b60006001600160a01b03821661066c5760405162461bcd60e51b81526004018080602001828103825260228152602001806108cf6022913960400191505060405180910390fd5b506001600160a01b03166000908152602091909152604090205460ff1690565b3390565b303b1590565b6106a760668263ffffffff6107e616565b6040516001600160a01b038216907f47d1c22a25bb3a5d4e481b9b1e6944c2eade3181a0a20b495ed61d35b5323f2490600090a250565b6001600160a01b0381166107235760405162461bcd60e51b81526004018080602001828103825260268152602001806108686026913960400191505060405180910390fd5b6033546040516001600160a01b038084169216907f8be0079c531659141344cd1fd0a4f28419497f9722a3daafe3b4186f6b6457e090600090a3603380546001600160a01b0319166001600160a01b0392909216919091179055565b6107898282610625565b6107c45760405162461bcd60e51b815260040180806020018281038252602181526020018061088e6021913960400191505060405180910390fd5b6001600160a01b0316600090815260209190915260409020805460ff19169055565b6107f08282610625565b15610842576040805162461bcd60e51b815260206004820152601f60248201527f526f6c65733a206163636f756e7420616c72656164792068617320726f6c6500604482015290519081900360640190fd5b6001600160a01b0316600090815260209190915260409020805460ff1916600117905556fe4f776e61626c653a206e6577206f776e657220697320746865207a65726f2061646472657373526f6c65733a206163636f756e7420646f6573206e6f74206861766520726f6c654f776e61626c653a2063616c6c6572206973206e6f7420746865206f776e6572526f6c65733a206163636f756e7420697320746865207a65726f2061646472657373436f6e747261637420696e7374616e63652068617320616c7265616479206265656e20696e697469616c697a6564a265627a7a72315820a97080b339d420032bf3dcddd3ed1244777e319aa46d0b698157cc4fd67f3ec264736f6c63430005110032",
  "source": "pragma solidity 0.5.17;\n\nimport \"@openzeppelin/contracts-ethereum-package/contracts/access/Roles.sol\";\nimport \"@openzeppelin/contracts-ethereum-package/contracts/ownership/Ownable.sol\";\n\n/**\n    @notice This contract manages the signer role for the consensus contracts.\n    @notice It includes an owner role who has the ability to grant the signer role.\n    @dev It uses the Roles contract from OpenZeppelin.\n\n    @author develop@teller.finance\n */\ncontract OwnerSignersRole is Ownable {\n    using Roles for Roles.Role;\n\n    /**\n        @notice This event is emitted when a new signer is added.\n        @param account added as a signer.\n     */\n    event SignerAdded(address indexed account);\n\n    /**\n        @notice This event is emitted when a signer is removed.\n        @param account removed as a signer.\n     */\n    event SignerRemoved(address indexed account);\n\n    Roles.Role private _signers;\n\n    /**\n        @notice Gets whether an account address is a signer or not.\n        @param account address to test.\n        @return true if account is a signer. Otherwise it returns false.\n     */\n    function isSigner(address account) public view returns (bool) {\n        return _signers.has(account);\n    }\n\n    /**\n        @notice It adds a new account as a signer.\n        @param account address to add.\n        @dev The sender must be the owner.\n        @dev It throws a require error if the sender is not the owner.\n     */\n    function addSigner(address account) public onlyOwner {\n        _addSigner(account);\n    }\n\n    /**\n        @notice It adds a list of account as signers.\n        @param accounts addresses to add.\n        @dev The sender must be the owner.\n        @dev It throws a require error if the sender is not the owner.\n     */\n    function addSigners(address[] memory accounts) public onlyOwner {\n        require(accounts.length > 0, \"ACCOUNTS_LIST_EMPTY\");\n        for (uint256 index = 0; index < accounts.length; index++) {\n            address account = accounts[index];\n            if (!isSigner(account)) {\n                _addSigner(account);\n            }\n        }\n    }\n\n    /**\n        @notice It removes an account as signer.\n        @param account address to remove.\n        @dev The sender must be the owner.\n        @dev It throws a require error if the sender is not the owner.\n     */\n    function removeSigner(address account) public onlyOwner {\n        _removeSigner(account);\n    }\n\n    /**\n        @notice It is an internal function to add a signer and emit an event.\n        @param account to add as signer.\n     */\n    function _addSigner(address account) internal {\n        _signers.add(account);\n        emit SignerAdded(account);\n    }\n\n    /**\n        @notice It is an internal function to remove a signer and emit an event.\n        @param account to remove as signer.\n     */\n    function _removeSigner(address account) internal {\n        _signers.remove(account);\n        emit SignerRemoved(account);\n    }\n}\n",
  "sourcePath": "/Users/sy/Documents/GitHub/teller-protocol-v1/contracts/base/OwnerSignersRole.sol",
  "compiler": {
    "name": "solc",
    "version": "0.5.17+commit.d19bba13.Emscripten.clang"
  },
  "schemaVersion": "3.0.23",
  "updatedAt": "2020-09-06T02:15:12.317Z",
  "devdoc": {
    "author": "develop@teller.finance",
    "details": "It uses the Roles contract from OpenZeppelin.",
    "methods": {
      "addSigner(address)": {
        "details": "The sender must be the owner.It throws a require error if the sender is not the owner.",
        "params": {
          "account": "address to add."
        }
      },
      "addSigners(address[])": {
        "details": "The sender must be the owner.It throws a require error if the sender is not the owner.",
        "params": {
          "accounts": "addresses to add."
        }
      },
      "initialize(address)": {
        "details": "Initializes the contract setting the deployer as the initial owner."
      },
      "isOwner()": {
        "details": "Returns true if the caller is the current owner."
      },
      "isSigner(address)": {
        "params": {
          "account": "address to test."
        },
        "return": "true if account is a signer. Otherwise it returns false."
      },
      "owner()": {
        "details": "Returns the address of the current owner."
      },
      "removeSigner(address)": {
        "details": "The sender must be the owner.It throws a require error if the sender is not the owner.",
        "params": {
          "account": "address to remove."
        }
      },
      "renounceOwnership()": {
        "details": "Leaves the contract without owner. It will not be possible to call `onlyOwner` functions anymore. Can only be called by the current owner.     * > Note: Renouncing ownership will leave the contract without an owner, thereby removing any functionality that is only available to the owner."
      },
      "transferOwnership(address)": {
        "details": "Transfers ownership of the contract to a new account (`newOwner`). Can only be called by the current owner."
      }
    }
  },
  "userdoc": {
    "methods": {
      "addSigner(address)": {
        "notice": "It adds a new account as a signer."
      },
      "addSigners(address[])": {
        "notice": "It adds a list of account as signers."
      },
      "isSigner(address)": {
        "notice": "Gets whether an account address is a signer or not."
      },
      "removeSigner(address)": {
        "notice": "It removes an account as signer."
      }
    },
    "notice": "This contract manages the signer role for the consensus contracts.It includes an owner role who has the ability to grant the signer role."
  }
}