{
  "contractName": "Pausable",
  "abi": [
    {
      "anonymous": false,
      "inputs": [
        {
          "indexed": false,
          "internalType": "address",
          "name": "account",
          "type": "address"
        }
      ],
      "name": "Paused",
      "type": "event"
    },
    {
      "anonymous": false,
      "inputs": [
        {
          "indexed": true,
          "internalType": "address",
          "name": "account",
          "type": "address"
        }
      ],
      "name": "PauserAdded",
      "type": "event"
    },
    {
      "anonymous": false,
      "inputs": [
        {
          "indexed": true,
          "internalType": "address",
          "name": "account",
          "type": "address"
        }
      ],
      "name": "PauserRemoved",
      "type": "event"
    },
    {
      "anonymous": false,
      "inputs": [
        {
          "indexed": false,
          "internalType": "address",
          "name": "account",
          "type": "address"
        }
      ],
      "name": "Unpaused",
      "type": "event"
    },
    {
      "constant": false,
      "inputs": [
        {
          "internalType": "address",
          "name": "account",
          "type": "address"
        }
      ],
      "name": "addPauser",
      "outputs": [],
      "payable": false,
      "stateMutability": "nonpayable",
      "type": "function"
    },
    {
      "constant": true,
      "inputs": [
        {
          "internalType": "address",
          "name": "account",
          "type": "address"
        }
      ],
      "name": "isPauser",
      "outputs": [
        {
          "internalType": "bool",
          "name": "",
          "type": "bool"
        }
      ],
      "payable": false,
      "stateMutability": "view",
      "type": "function"
    },
    {
      "constant": false,
      "inputs": [],
      "name": "renouncePauser",
      "outputs": [],
      "payable": false,
      "stateMutability": "nonpayable",
      "type": "function"
    },
    {
      "constant": false,
      "inputs": [
        {
          "internalType": "address",
          "name": "sender",
          "type": "address"
        }
      ],
      "name": "initialize",
      "outputs": [],
      "payable": false,
      "stateMutability": "nonpayable",
      "type": "function"
    },
    {
      "constant": true,
      "inputs": [],
      "name": "paused",
      "outputs": [
        {
          "internalType": "bool",
          "name": "",
          "type": "bool"
        }
      ],
      "payable": false,
      "stateMutability": "view",
      "type": "function"
    },
    {
      "constant": false,
      "inputs": [],
      "name": "pause",
      "outputs": [],
      "payable": false,
      "stateMutability": "nonpayable",
      "type": "function"
    },
    {
      "constant": false,
      "inputs": [],
      "name": "unpause",
      "outputs": [],
      "payable": false,
      "stateMutability": "nonpayable",
      "type": "function"
    }
  ],
  "bytecode": "0x608060405261078d806100136000396000f3fe608060405234801561001057600080fd5b506004361061007d5760003560e01c80636ef8d66d1161005b5780636ef8d66d146100ce57806382dc1ec4146100d65780638456cb59146100fc578063c4d66de8146101045761007d565b80633f4ba83a1461008257806346fbf68e1461008c5780635c975abb146100c6575b600080fd5b61008a61012a565b005b6100b2600480360360208110156100a257600080fd5b50356001600160a01b0316610213565b604080519115158252519081900360200190f35b6100b261022c565b61008a610235565b61008a600480360360208110156100ec57600080fd5b50356001600160a01b0316610247565b61008a610299565b61008a6004803603602081101561011a57600080fd5b50356001600160a01b0316610360565b61013a610135610416565b610213565b6101755760405162461bcd60e51b81526004018080602001828103825260308152602001806106b86030913960400191505060405180910390fd5b60665460ff166101c3576040805162461bcd60e51b815260206004820152601460248201527314185d5cd8589b194e881b9bdd081c185d5cd95960621b604482015290519081900360640190fd5b6066805460ff191690557f5db9ee0a495bf2e6ff9c91a7834c1ba4fdd244a5e8aa4e537bd38aeae4b073aa6101f6610416565b604080516001600160a01b039092168252519081900360200190a1565b600061022660338363ffffffff61041a16565b92915050565b60665460ff1690565b610245610240610416565b610481565b565b610252610135610416565b61028d5760405162461bcd60e51b81526004018080602001828103825260308152602001806106b86030913960400191505060405180910390fd5b610296816104c9565b50565b6102a4610135610416565b6102df5760405162461bcd60e51b81526004018080602001828103825260308152602001806106b86030913960400191505060405180910390fd5b60665460ff161561032a576040805162461bcd60e51b815260206004820152601060248201526f14185d5cd8589b194e881c185d5cd95960821b604482015290519081900360640190fd5b6066805460ff191660011790557f62e78cea01bee320cd4e420270b5ea74000d11b0c9f74754ebdbfc544b05a2586101f6610416565b600054610100900460ff16806103795750610379610511565b80610387575060005460ff16155b6103c25760405162461bcd60e51b815260040180806020018281038252602e81526020018061072b602e913960400191505060405180910390fd5b600054610100900460ff161580156103ed576000805460ff1961ff0019909116610100171660011790555b6103f682610517565b6066805460ff191690558015610412576000805461ff00191690555b5050565b3390565b60006001600160a01b0382166104615760405162461bcd60e51b81526004018080602001828103825260228152602001806107096022913960400191505060405180910390fd5b506001600160a01b03166000908152602091909152604090205460ff1690565b61049260338263ffffffff6105cf16565b6040516001600160a01b038216907fcd265ebaf09df2871cc7bd4133404a235ba12eff2041bb89d9c714a2621c7c7e90600090a250565b6104da60338263ffffffff61063616565b6040516001600160a01b038216907f6719d08c1888103bea251a4ed56406bd0c3e69723c8a1686e017e7bbe159b6f890600090a250565b303b1590565b600054610100900460ff16806105305750610530610511565b8061053e575060005460ff16155b6105795760405162461bcd60e51b815260040180806020018281038252602e81526020018061072b602e913960400191505060405180910390fd5b600054610100900460ff161580156105a4576000805460ff1961ff0019909116610100171660011790555b6105ad82610213565b6105ba576105ba826104c9565b8015610412576000805461ff00191690555050565b6105d9828261041a565b6106145760405162461bcd60e51b81526004018080602001828103825260218152602001806106e86021913960400191505060405180910390fd5b6001600160a01b0316600090815260209190915260409020805460ff19169055565b610640828261041a565b15610692576040805162461bcd60e51b815260206004820152601f60248201527f526f6c65733a206163636f756e7420616c72656164792068617320726f6c6500604482015290519081900360640190fd5b6001600160a01b0316600090815260209190915260409020805460ff1916600117905556fe506175736572526f6c653a2063616c6c657220646f6573206e6f742068617665207468652050617573657220726f6c65526f6c65733a206163636f756e7420646f6573206e6f74206861766520726f6c65526f6c65733a206163636f756e7420697320746865207a65726f2061646472657373436f6e747261637420696e7374616e63652068617320616c7265616479206265656e20696e697469616c697a6564a265627a7a72315820e0134f68bf3d231c33ccf2b2e9cf842ce378b8f2bf5b59be708d51011ef1b96f64736f6c63430005110032",
  "source": "pragma solidity ^0.5.0;\n\nimport \"@openzeppelin/upgrades/contracts/Initializable.sol\";\n\nimport \"../GSN/Context.sol\";\nimport \"../access/roles/PauserRole.sol\";\n\n/**\n * @dev Contract module which allows children to implement an emergency stop\n * mechanism that can be triggered by an authorized account.\n *\n * This module is used through inheritance. It will make available the\n * modifiers `whenNotPaused` and `whenPaused`, which can be applied to\n * the functions of your contract. Note that they will not be pausable by\n * simply including this module, only once the modifiers are put in place.\n */\ncontract Pausable is Initializable, Context, PauserRole {\n    /**\n     * @dev Emitted when the pause is triggered by a pauser (`account`).\n     */\n    event Paused(address account);\n\n    /**\n     * @dev Emitted when the pause is lifted by a pauser (`account`).\n     */\n    event Unpaused(address account);\n\n    bool private _paused;\n\n    /**\n     * @dev Initializes the contract in unpaused state. Assigns the Pauser role\n     * to the deployer.\n     */\n    function initialize(address sender) public initializer {\n        PauserRole.initialize(sender);\n\n        _paused = false;\n    }\n\n    /**\n     * @dev Returns true if the contract is paused, and false otherwise.\n     */\n    function paused() public view returns (bool) {\n        return _paused;\n    }\n\n    /**\n     * @dev Modifier to make a function callable only when the contract is not paused.\n     */\n    modifier whenNotPaused() {\n        require(!_paused, \"Pausable: paused\");\n        _;\n    }\n\n    /**\n     * @dev Modifier to make a function callable only when the contract is paused.\n     */\n    modifier whenPaused() {\n        require(_paused, \"Pausable: not paused\");\n        _;\n    }\n\n    /**\n     * @dev Called by a pauser to pause, triggers stopped state.\n     */\n    function pause() public onlyPauser whenNotPaused {\n        _paused = true;\n        emit Paused(_msgSender());\n    }\n\n    /**\n     * @dev Called by a pauser to unpause, returns to normal state.\n     */\n    function unpause() public onlyPauser whenPaused {\n        _paused = false;\n        emit Unpaused(_msgSender());\n    }\n\n    uint256[50] private ______gap;\n}\n",
  "sourcePath": "@openzeppelin/contracts-ethereum-package/contracts/lifecycle/Pausable.sol",
  "compiler": {
    "name": "solc",
    "version": "0.5.17+commit.d19bba13.Emscripten.clang"
  },
  "schemaVersion": "3.0.23",
  "updatedAt": "2020-09-03T04:12:18.063Z",
  "devdoc": {
    "details": "Contract module which allows children to implement an emergency stop mechanism that can be triggered by an authorized account. * This module is used through inheritance. It will make available the modifiers `whenNotPaused` and `whenPaused`, which can be applied to the functions of your contract. Note that they will not be pausable by simply including this module, only once the modifiers are put in place.",
    "methods": {
      "initialize(address)": {
        "details": "Initializes the contract in unpaused state. Assigns the Pauser role to the deployer."
      },
      "pause()": {
        "details": "Called by a pauser to pause, triggers stopped state."
      },
      "paused()": {
        "details": "Returns true if the contract is paused, and false otherwise."
      },
      "unpause()": {
        "details": "Called by a pauser to unpause, returns to normal state."
      }
    }
  },
  "userdoc": {
    "methods": {}
  }
}