{
  "contractName": "SettingsConsts",
  "abi": [
    {
      "constant": true,
      "inputs": [],
      "name": "COLLATERAL_BUFFER_SETTING",
      "outputs": [
        {
          "internalType": "bytes32",
          "name": "",
          "type": "bytes32"
        }
      ],
      "payable": false,
      "stateMutability": "view",
      "type": "function"
    },
    {
      "constant": true,
      "inputs": [],
      "name": "LIQUIDATE_ETH_PRICE_SETTING",
      "outputs": [
        {
          "internalType": "bytes32",
          "name": "",
          "type": "bytes32"
        }
      ],
      "payable": false,
      "stateMutability": "view",
      "type": "function"
    },
    {
      "constant": true,
      "inputs": [],
      "name": "MAXIMUM_LOAN_DURATION_SETTING",
      "outputs": [
        {
          "internalType": "bytes32",
          "name": "",
          "type": "bytes32"
        }
      ],
      "payable": false,
      "stateMutability": "view",
      "type": "function"
    },
    {
      "constant": true,
      "inputs": [],
      "name": "MAXIMUM_TOLERANCE_SETTING",
      "outputs": [
        {
          "internalType": "bytes32",
          "name": "",
          "type": "bytes32"
        }
      ],
      "payable": false,
      "stateMutability": "view",
      "type": "function"
    },
    {
      "constant": true,
      "inputs": [],
      "name": "REQUEST_LOAN_TERMS_RATE_LIMIT_SETTING",
      "outputs": [
        {
          "internalType": "bytes32",
          "name": "",
          "type": "bytes32"
        }
      ],
      "payable": false,
      "stateMutability": "view",
      "type": "function"
    },
    {
      "constant": true,
      "inputs": [],
      "name": "REQUIRED_SUBMISSIONS_SETTING",
      "outputs": [
        {
          "internalType": "bytes32",
          "name": "",
          "type": "bytes32"
        }
      ],
      "payable": false,
      "stateMutability": "view",
      "type": "function"
    },
    {
      "constant": true,
      "inputs": [],
      "name": "RESPONSE_EXPIRY_LENGTH_SETTING",
      "outputs": [
        {
          "internalType": "bytes32",
          "name": "",
          "type": "bytes32"
        }
      ],
      "payable": false,
      "stateMutability": "view",
      "type": "function"
    },
    {
      "constant": true,
      "inputs": [],
      "name": "SAFETY_INTERVAL_SETTING",
      "outputs": [
        {
          "internalType": "bytes32",
          "name": "",
          "type": "bytes32"
        }
      ],
      "payable": false,
      "stateMutability": "view",
      "type": "function"
    },
    {
      "constant": true,
      "inputs": [],
      "name": "TERMS_EXPIRY_TIME_SETTING",
      "outputs": [
        {
          "internalType": "bytes32",
          "name": "",
          "type": "bytes32"
        }
      ],
      "payable": false,
      "stateMutability": "view",
      "type": "function"
    }
  ],
  "bytecode": "0x608060405234801561001057600080fd5b5061020b806100206000396000f3fe608060405234801561001057600080fd5b50600436106100935760003560e01c80633ff591d9116100665780633ff591d9146100ca578063c41dd8ce146100d2578063cc44cadb146100da578063e00a4615146100e2578063e3f33d00146100ea57610093565b806308b04f62146100985780631139087a146100b257806311880cc8146100ba5780633b98dfdb146100c2575b600080fd5b6100a06100f2565b60408051918252519081900360200190f35b6100a0610109565b6100a0610121565b6100a0610136565b6100a061015a565b6100a0610174565b6100a061018b565b6100a06101a5565b6100a06101bb565b6f21b7b63630ba32b930b6213ab33332b960811b81565b704c6971756964617465457468507269636560781b81565b6d14d859995d1e525b9d195c9d985b60921b81565b7f526571756573744c6f616e5465726d73526174654c696d69740000000000000081565b7252657175697265645375626d697373696f6e7360681b81565b6f4d6178696d756d546f6c6572616e636560801b81565b7226b0bc34b6bab6a637b0b7223ab930ba34b7b760691b81565b6e5465726d7345787069727954696d6560881b81565b730a4cae6e0dedce6ca8af0e0d2e4f298cadccee8d60631b8156fea265627a7a72315820b6cc93d12d39f205ac91b27ee8876405b81cd752a680e010a2828f9ed81bbbb364736f6c63430005110032",
  "source": "pragma solidity 0.5.17;\n\n// Libraries\n\n// Commons\n\n/**\n    @notice This contract centralizes all the required constants for the settings.\n\n    @author develop@teller.finance\n */\ncontract SettingsConsts {\n    /** Constants */\n\n    /**\n        @notice The setting name for the required subsmission settings.\n     */\n    bytes32 public constant REQUIRED_SUBMISSIONS_SETTING = \"RequiredSubmissions\";\n    /**\n        @notice The setting name for the maximum tolerance settings.\n        @notice This is the maximum tolerance for the values submitted (by nodes) when they are aggregated (average). It is used in the consensus mechanisms.\n        @notice This is a percentage value with 2 decimal places.\n            i.e. maximumTolerance of 325 => tolerance of 3.25% => 0.0325 of value\n            i.e. maximumTolerance of 0 => It means all the values submitted must be equals.        \n        @dev The max value is 100% => 10000\n     */\n    bytes32 public constant MAXIMUM_TOLERANCE_SETTING = \"MaximumTolerance\";\n    /**\n        @notice The setting name for the response expiry length settings.\n        @notice This is the maximum time (in seconds) a node has to submit a response. After that time, the response is considered expired.\n     */\n    bytes32 public constant RESPONSE_EXPIRY_LENGTH_SETTING = \"ResponseExpiryLength\";\n    /**\n        @notice The setting name for the safety interval settings.\n        @notice This is the minimum time you need to wait (in seconds) between the last time you deposit collateral and you take out the loan.\n        @notice It is used to avoid potential attacks using Flash Loans (AAVE) or Flash Swaps (Uniswap V2).\n     */\n    bytes32 public constant SAFETY_INTERVAL_SETTING = \"SafetyInterval\";\n    /**\n        @notice The setting name for the term expiry time settings.\n        @notice This represents the time (in seconds) that loan terms will be available after requesting them.\n        @notice After this time, the loan terms will expire and the borrower will need to request it again.\n     */\n    bytes32 public constant TERMS_EXPIRY_TIME_SETTING = \"TermsExpiryTime\";\n    /**\n        @notice The setting name for the liquidate ETH price settings.\n        @notice It represents the percentage value (with 2 decimal places) to liquidate loans.\n            i.e. an ETH liquidation price at 95% is stored as 9500\n     */\n    bytes32 public constant LIQUIDATE_ETH_PRICE_SETTING = \"LiquidateEthPrice\";\n    /**\n        @notice The setting name for the maximum loan duration settings.\n        @notice The maximum loan duration setting is defined in seconds.\n     */\n    bytes32 public constant MAXIMUM_LOAN_DURATION_SETTING = \"MaximumLoanDuration\";\n    /**\n        @notice The setting name for the request loan terms rate limit settings.\n        @notice The request loan terms rate limit setting is defined in seconds.\n     */\n    bytes32\n        public constant REQUEST_LOAN_TERMS_RATE_LIMIT_SETTING = \"RequestLoanTermsRateLimit\";\n\n    /**\n        @notice The setting name for the collateral buffer.\n     */\n    bytes32 public constant COLLATERAL_BUFFER_SETTING = \"CollateralBuffer\";\n}\n",
  "sourcePath": "/Users/sy/Documents/GitHub/teller-protocol-v1/contracts/util/SettingsConsts.sol",
  "compiler": {
    "name": "solc",
    "version": "0.5.17+commit.d19bba13.Emscripten.clang"
  },
  "schemaVersion": "3.0.23",
  "updatedAt": "2020-09-06T02:15:12.693Z",
  "devdoc": {
    "author": "develop@teller.finance",
    "methods": {}
  },
  "userdoc": {
    "methods": {},
    "notice": "This contract centralizes all the required constants for the settings."
  }
}