{
  "fileName": "ZCMonthlyIncomeOracle.sol",
  "contractName": "ZCMonthlyIncomeOracle",
  "source": "pragma solidity ^0.5.15;\n\nimport \"@openzeppelin/contracts-ethereum-package/contracts/ownership/Ownable.sol\";\n\ncontract ZCMonthlyIncomeOracle is Ownable {\n\n    struct IncomeData {\n        uint date;\n        uint amount;\n    }\n\n    mapping (address => IncomeData) public monthlyIncome;\n\n    event MonthlyIncomeUpdated(address _address, uint _amount);\n\n    function setMonthlyIncome(address _address, uint _amount) public onlyOwner {\n        monthlyIncome[_address] = IncomeData(now, _amount);\n        emit MonthlyIncomeUpdated(_address, _amount);\n    }\n\n    function getMonthlyIncome(address _address) public view returns (uint income) {\n        return monthlyIncome[_address].amount;\n    }\n\n    function getLastUpdate(address _address) public view returns (uint lastUpdate) {\n        return monthlyIncome[_address].date;\n    }\n}\n",
  "sourcePath": "contracts/ZCMonthlyIncomeOracle.sol",
  "abi": [
    {
      "anonymous": false,
      "inputs": [
        {
          "indexed": false,
          "internalType": "address",
          "name": "_address",
          "type": "address"
        },
        {
          "indexed": false,
          "internalType": "uint256",
          "name": "_amount",
          "type": "uint256"
        }
      ],
      "name": "MonthlyIncomeUpdated",
      "type": "event"
    },
    {
      "anonymous": false,
      "inputs": [
        {
          "indexed": true,
          "internalType": "address",
          "name": "previousOwner",
          "type": "address"
        },
        {
          "indexed": true,
          "internalType": "address",
          "name": "newOwner",
          "type": "address"
        }
      ],
      "name": "OwnershipTransferred",
      "type": "event"
    },
    {
      "constant": true,
      "inputs": [
        {
          "internalType": "address",
          "name": "_address",
          "type": "address"
        }
      ],
      "name": "getLastUpdate",
      "outputs": [
        {
          "internalType": "uint256",
          "name": "lastUpdate",
          "type": "uint256"
        }
      ],
      "payable": false,
      "stateMutability": "view",
      "type": "function"
    },
    {
      "constant": true,
      "inputs": [
        {
          "internalType": "address",
          "name": "_address",
          "type": "address"
        }
      ],
      "name": "getMonthlyIncome",
      "outputs": [
        {
          "internalType": "uint256",
          "name": "income",
          "type": "uint256"
        }
      ],
      "payable": false,
      "stateMutability": "view",
      "type": "function"
    },
    {
      "constant": false,
      "inputs": [
        {
          "internalType": "address",
          "name": "sender",
          "type": "address"
        }
      ],
      "name": "initialize",
      "outputs": [],
      "payable": false,
      "stateMutability": "nonpayable",
      "type": "function"
    },
    {
      "constant": true,
      "inputs": [],
      "name": "isOwner",
      "outputs": [
        {
          "internalType": "bool",
          "name": "",
          "type": "bool"
        }
      ],
      "payable": false,
      "stateMutability": "view",
      "type": "function"
    },
    {
      "constant": true,
      "inputs": [
        {
          "internalType": "address",
          "name": "",
          "type": "address"
        }
      ],
      "name": "monthlyIncome",
      "outputs": [
        {
          "internalType": "uint256",
          "name": "date",
          "type": "uint256"
        },
        {
          "internalType": "uint256",
          "name": "amount",
          "type": "uint256"
        }
      ],
      "payable": false,
      "stateMutability": "view",
      "type": "function"
    },
    {
      "constant": true,
      "inputs": [],
      "name": "owner",
      "outputs": [
        {
          "internalType": "address",
          "name": "",
          "type": "address"
        }
      ],
      "payable": false,
      "stateMutability": "view",
      "type": "function"
    },
    {
      "constant": false,
      "inputs": [],
      "name": "renounceOwnership",
      "outputs": [],
      "payable": false,
      "stateMutability": "nonpayable",
      "type": "function"
    },
    {
      "constant": false,
      "inputs": [
        {
          "internalType": "address",
          "name": "_address",
          "type": "address"
        },
        {
          "internalType": "uint256",
          "name": "_amount",
          "type": "uint256"
        }
      ],
      "name": "setMonthlyIncome",
      "outputs": [],
      "payable": false,
      "stateMutability": "nonpayable",
      "type": "function"
    },
    {
      "constant": false,
      "inputs": [
        {
          "internalType": "address",
          "name": "newOwner",
          "type": "address"
        }
      ],
      "name": "transferOwnership",
      "outputs": [],
      "payable": false,
      "stateMutability": "nonpayable",
      "type": "function"
    }
  ],
  "bytecode": "0x6080604052610679806100136000396000f3fe608060405234801561001057600080fd5b50600436106100935760003560e01c8063715018a611610066578063715018a6146101635780638da5cb5b1461016b5780638f32d59b1461018f578063c4d66de8146101ab578063f2fde38b146101d157610093565b806310bdf94a14610098578063117fd1eb146100d057806344f6b9fa1461010f5780635a7e19891461013d575b600080fd5b6100be600480360360208110156100ae57600080fd5b50356001600160a01b03166101f7565b60408051918252519081900360200190f35b6100f6600480360360208110156100e657600080fd5b50356001600160a01b0316610215565b6040805192835260208301919091528051918290030190f35b61013b6004803603604081101561012557600080fd5b506001600160a01b03813516906020013561022e565b005b6100be6004803603602081101561015357600080fd5b50356001600160a01b03166102fb565b61013b610316565b6101736103b9565b604080516001600160a01b039092168252519081900360200190f35b6101976103c8565b604080519115158252519081900360200190f35b61013b600480360360208110156101c157600080fd5b50356001600160a01b03166103ee565b61013b600480360360208110156101e757600080fd5b50356001600160a01b03166104e0565b6001600160a01b031660009081526066602052604090206001015490565b6066602052600090815260409020805460019091015482565b6102366103c8565b610287576040805162461bcd60e51b815260206004820181905260248201527f4f776e61626c653a2063616c6c6572206973206e6f7420746865206f776e6572604482015290519081900360640190fd5b60408051808201825242815260208082018481526001600160a01b0386166000818152606684528590209351845590516001909301929092558251918252810183905281517f142079d5af1c9c4fbb51b54c7600b3680574d0c280c399157b9a2ef29b8e1d13929181900390910190a15050565b6001600160a01b031660009081526066602052604090205490565b61031e6103c8565b61036f576040805162461bcd60e51b815260206004820181905260248201527f4f776e61626c653a2063616c6c6572206973206e6f7420746865206f776e6572604482015290519081900360640190fd5b6033546040516000916001600160a01b0316907f8be0079c531659141344cd1fd0a4f28419497f9722a3daafe3b4186f6b6457e0908390a3603380546001600160a01b0319169055565b6033546001600160a01b031690565b6033546000906001600160a01b03166103df610545565b6001600160a01b031614905090565b600054610100900460ff16806104075750610407610549565b80610415575060005460ff16155b6104505760405162461bcd60e51b815260040180806020018281038252602e815260200180610617602e913960400191505060405180910390fd5b600054610100900460ff1615801561047b576000805460ff1961ff0019909116610100171660011790555b603380546001600160a01b0319166001600160a01b0384811691909117918290556040519116906000907f8be0079c531659141344cd1fd0a4f28419497f9722a3daafe3b4186f6b6457e0908290a380156104dc576000805461ff00191690555b5050565b6104e86103c8565b610539576040805162461bcd60e51b815260206004820181905260248201527f4f776e61626c653a2063616c6c6572206973206e6f7420746865206f776e6572604482015290519081900360640190fd5b6105428161054f565b50565b3390565b303b1590565b6001600160a01b0381166105945760405162461bcd60e51b81526004018080602001828103825260268152602001806105f16026913960400191505060405180910390fd5b6033546040516001600160a01b038084169216907f8be0079c531659141344cd1fd0a4f28419497f9722a3daafe3b4186f6b6457e090600090a3603380546001600160a01b0319166001600160a01b039290921691909117905556fe4f776e61626c653a206e6577206f776e657220697320746865207a65726f2061646472657373436f6e747261637420696e7374616e63652068617320616c7265616479206265656e20696e697469616c697a6564a265627a7a723158204974377365fd90d2b505682d4ba3cd15745375af86d5ec752d8b592ffdf5f98d64736f6c634300050f0032",
  "compiler": {
    "name": "solc",
    "version": "0.5.15+commit.6a57276f.Emscripten.clang",
    "optimizer": {
      "enabled": true,
      "runs": 200
    },
    "evmVersion": "petersburg"
  }
}